{
	"contracts/BlastFurnace_flattened.sol": {
		"BlastFurnace": {
			"abi": [
				{
					"inputs": [],
					"stateMutability": "nonpayable",
					"type": "constructor"
				},
				{
					"anonymous": false,
					"inputs": [
						{
							"indexed": true,
							"internalType": "address",
							"name": "previousOwner",
							"type": "address"
						}
					],
					"name": "OwnershipRenounced",
					"type": "event"
				},
				{
					"anonymous": false,
					"inputs": [
						{
							"indexed": true,
							"internalType": "address",
							"name": "previousOwner",
							"type": "address"
						},
						{
							"indexed": true,
							"internalType": "address",
							"name": "newOwner",
							"type": "address"
						}
					],
					"name": "OwnershipTransferred",
					"type": "event"
				},
				{
					"inputs": [
						{
							"internalType": "address",
							"name": "ref",
							"type": "address"
						}
					],
					"name": "buyEggs",
					"outputs": [],
					"stateMutability": "payable",
					"type": "function"
				},
				{
					"inputs": [
						{
							"internalType": "uint256",
							"name": "eth",
							"type": "uint256"
						},
						{
							"internalType": "uint256",
							"name": "contractBalance",
							"type": "uint256"
						}
					],
					"name": "calculateEggBuy",
					"outputs": [
						{
							"internalType": "uint256",
							"name": "",
							"type": "uint256"
						}
					],
					"stateMutability": "view",
					"type": "function"
				},
				{
					"inputs": [
						{
							"internalType": "uint256",
							"name": "eth",
							"type": "uint256"
						}
					],
					"name": "calculateEggBuySimple",
					"outputs": [
						{
							"internalType": "uint256",
							"name": "",
							"type": "uint256"
						}
					],
					"stateMutability": "view",
					"type": "function"
				},
				{
					"inputs": [
						{
							"internalType": "uint256",
							"name": "eggs",
							"type": "uint256"
						}
					],
					"name": "calculateEggSell",
					"outputs": [
						{
							"internalType": "uint256",
							"name": "",
							"type": "uint256"
						}
					],
					"stateMutability": "view",
					"type": "function"
				},
				{
					"inputs": [
						{
							"internalType": "address",
							"name": "adr",
							"type": "address"
						}
					],
					"name": "furnaceRewards",
					"outputs": [
						{
							"internalType": "uint256",
							"name": "",
							"type": "uint256"
						}
					],
					"stateMutability": "view",
					"type": "function"
				},
				{
					"inputs": [],
					"name": "getBalance",
					"outputs": [
						{
							"internalType": "uint256",
							"name": "",
							"type": "uint256"
						}
					],
					"stateMutability": "view",
					"type": "function"
				},
				{
					"inputs": [
						{
							"internalType": "address",
							"name": "adr",
							"type": "address"
						}
					],
					"name": "getEggsSinceLastHatch",
					"outputs": [
						{
							"internalType": "uint256",
							"name": "",
							"type": "uint256"
						}
					],
					"stateMutability": "view",
					"type": "function"
				},
				{
					"inputs": [
						{
							"internalType": "address",
							"name": "adr",
							"type": "address"
						}
					],
					"name": "getMyEggs",
					"outputs": [
						{
							"internalType": "uint256",
							"name": "",
							"type": "uint256"
						}
					],
					"stateMutability": "view",
					"type": "function"
				},
				{
					"inputs": [
						{
							"internalType": "address",
							"name": "adr",
							"type": "address"
						}
					],
					"name": "getMyMiners",
					"outputs": [
						{
							"internalType": "uint256",
							"name": "",
							"type": "uint256"
						}
					],
					"stateMutability": "view",
					"type": "function"
				},
				{
					"inputs": [
						{
							"internalType": "address",
							"name": "ref",
							"type": "address"
						}
					],
					"name": "hatchEggs",
					"outputs": [],
					"stateMutability": "nonpayable",
					"type": "function"
				},
				{
					"inputs": [],
					"name": "isOwner",
					"outputs": [
						{
							"internalType": "bool",
							"name": "",
							"type": "bool"
						}
					],
					"stateMutability": "view",
					"type": "function"
				},
				{
					"inputs": [],
					"name": "owner",
					"outputs": [
						{
							"internalType": "address",
							"name": "",
							"type": "address"
						}
					],
					"stateMutability": "view",
					"type": "function"
				},
				{
					"inputs": [],
					"name": "renounceOwnership",
					"outputs": [],
					"stateMutability": "nonpayable",
					"type": "function"
				},
				{
					"inputs": [],
					"name": "seedMarket",
					"outputs": [],
					"stateMutability": "payable",
					"type": "function"
				},
				{
					"inputs": [],
					"name": "sellEggs",
					"outputs": [],
					"stateMutability": "nonpayable",
					"type": "function"
				},
				{
					"inputs": [
						{
							"internalType": "address",
							"name": "newOwner",
							"type": "address"
						}
					],
					"name": "transferOwnership",
					"outputs": [],
					"stateMutability": "nonpayable",
					"type": "function"
				}
			],
			"devdoc": {
				"kind": "dev",
				"methods": {},
				"version": 1
			},
			"evm": {
				"assembly": "    /* \"contracts/BlastFurnace_flattened.sol\":10714:14783  contract BlastFurnace is Context, Ownable {... */\n  mstore(0x40, 0x80)\n    /* \"contracts/BlastFurnace_flattened.sol\":10832:10839  1080000 */\n  0x107ac0\n    /* \"contracts/BlastFurnace_flattened.sol\":10792:10839  uint256 private EGGS_TO_HATCH_1MINERS = 1080000 */\n  0x01\n  sstore\n    /* \"contracts/BlastFurnace_flattened.sol\":10912:10917  10000 */\n  0x2710\n    /* \"contracts/BlastFurnace_flattened.sol\":10890:10917  uint256 private PSN = 10000 */\n  0x02\n  sstore\n    /* \"contracts/BlastFurnace_flattened.sol\":10944:10948  5000 */\n  0x1388\n    /* \"contracts/BlastFurnace_flattened.sol\":10921:10948  uint256 private PSNH = 5000 */\n  0x03\n  sstore\n    /* \"contracts/BlastFurnace_flattened.sol\":10980:10981  3 */\n  0x03\n    /* \"contracts/BlastFurnace_flattened.sol\":10952:10981  uint256 private devFeeVal = 3 */\n  0x04\n  sstore\n    /* \"contracts/BlastFurnace_flattened.sol\":11012:11017  false */\n  0x00\n    /* \"contracts/BlastFurnace_flattened.sol\":10985:11017  bool private initialized = false */\n  0x05\n  exp(0x0100, 0x00)\n  dup2\n  sload\n  dup2\n  0xff\n  mul\n  not\n  and\n  swap1\n  dup4\n  iszero\n  iszero\n  mul\n  or\n  swap1\n  sstore\n  pop\n    /* \"contracts/BlastFurnace_flattened.sol\":11290:11342  constructor() {... */\n  callvalue\n  dup1\n  iszero\n  tag_1\n  jumpi\n  0x00\n  dup1\n  revert\ntag_1:\n  pop\n    /* \"contracts/BlastFurnace_flattened.sol\":7667:7677  msg.sender */\n  caller\n    /* \"contracts/BlastFurnace_flattened.sol\":7658:7664  _owner */\n  0x00\n  dup1\n    /* \"contracts/BlastFurnace_flattened.sol\":7658:7677  _owner = msg.sender */\n  0x0100\n  exp\n  dup2\n  sload\n  dup2\n  0xffffffffffffffffffffffffffffffffffffffff\n  mul\n  not\n  and\n  swap1\n  dup4\n  0xffffffffffffffffffffffffffffffffffffffff\n  and\n  mul\n  or\n  swap1\n  sstore\n  pop\n    /* \"contracts/BlastFurnace_flattened.sol\":11326:11336  msg.sender */\n  caller\n    /* \"contracts/BlastFurnace_flattened.sol\":11309:11315  recAdd */\n  0x05\n  0x01\n    /* \"contracts/BlastFurnace_flattened.sol\":11309:11337  recAdd = payable(msg.sender) */\n  0x0100\n  exp\n  dup2\n  sload\n  dup2\n  0xffffffffffffffffffffffffffffffffffffffff\n  mul\n  not\n  and\n  swap1\n  dup4\n  0xffffffffffffffffffffffffffffffffffffffff\n  and\n  mul\n  or\n  swap1\n  sstore\n  pop\n    /* \"contracts/BlastFurnace_flattened.sol\":10714:14783  contract BlastFurnace is Context, Ownable {... */\n  dataSize(sub_0)\n  dup1\n  dataOffset(sub_0)\n  0x00\n  codecopy\n  0x00\n  return\nstop\n\nsub_0: assembly {\n        /* \"contracts/BlastFurnace_flattened.sol\":10714:14783  contract BlastFurnace is Context, Ownable {... */\n      mstore(0x40, 0x80)\n      jumpi(tag_1, lt(calldatasize, 0x04))\n      shr(0xe0, calldataload(0x00))\n      dup1\n      0x715018a6\n      gt\n      tag_18\n      jumpi\n      dup1\n      0x8f32d59b\n      gt\n      tag_19\n      jumpi\n      dup1\n      0x8f32d59b\n      eq\n      tag_14\n      jumpi\n      dup1\n      0xd7c8843b\n      eq\n      tag_15\n      jumpi\n      dup1\n      0xdb663865\n      eq\n      tag_16\n      jumpi\n      dup1\n      0xf2fde38b\n      eq\n      tag_17\n      jumpi\n      jump(tag_1)\n    tag_19:\n      dup1\n      0x715018a6\n      eq\n      tag_10\n      jumpi\n      dup1\n      0x7e56fde5\n      eq\n      tag_11\n      jumpi\n      dup1\n      0x8da5cb5b\n      eq\n      tag_12\n      jumpi\n      dup1\n      0x8e316327\n      eq\n      tag_13\n      jumpi\n      jump(tag_1)\n    tag_18:\n      dup1\n      0x3c5f07cb\n      gt\n      tag_20\n      jumpi\n      dup1\n      0x3c5f07cb\n      eq\n      tag_6\n      jumpi\n      dup1\n      0x3ec862a8\n      eq\n      tag_7\n      jumpi\n      dup1\n      0x450c9d7d\n      eq\n      tag_8\n      jumpi\n      dup1\n      0x4b634b06\n      eq\n      tag_9\n      jumpi\n      jump(tag_1)\n    tag_20:\n      dup1\n      0x12065fe0\n      eq\n      tag_2\n      jumpi\n      dup1\n      0x26fd8422\n      eq\n      tag_3\n      jumpi\n      dup1\n      0x2ef6a743\n      eq\n      tag_4\n      jumpi\n      dup1\n      0x3955f0fe\n      eq\n      tag_5\n      jumpi\n    tag_1:\n      0x00\n      dup1\n      revert\n        /* \"contracts/BlastFurnace_flattened.sol\":14096:14186  function getBalance() public view returns (uint256) {... */\n    tag_2:\n      callvalue\n      dup1\n      iszero\n      tag_21\n      jumpi\n      0x00\n      dup1\n      revert\n    tag_21:\n      pop\n      tag_22\n      tag_23\n      jump\t// in\n    tag_22:\n      mload(0x40)\n      tag_24\n      swap2\n      swap1\n      tag_25\n      jump\t// in\n    tag_24:\n      mload(0x40)\n      dup1\n      swap2\n      sub\n      swap1\n      return\n        /* \"contracts/BlastFurnace_flattened.sol\":13520:13678  function calculateEggBuy(uint256 eth, uint256 contractBalance) public view returns (uint256) {... */\n    tag_3:\n      callvalue\n      dup1\n      iszero\n      tag_26\n      jumpi\n      0x00\n      dup1\n      revert\n    tag_26:\n      pop\n      tag_27\n      0x04\n      dup1\n      calldatasize\n      sub\n      dup2\n      add\n      swap1\n      tag_28\n      swap2\n      swap1\n      tag_29\n      jump\t// in\n    tag_28:\n      tag_30\n      jump\t// in\n    tag_27:\n      mload(0x40)\n      tag_31\n      swap2\n      swap1\n      tag_25\n      jump\t// in\n    tag_31:\n      mload(0x40)\n      dup1\n      swap2\n      sub\n      swap1\n      return\n        /* \"contracts/BlastFurnace_flattened.sol\":14296:14433  function getMyEggs(address adr) public view returns (uint256) {... */\n    tag_4:\n      callvalue\n      dup1\n      iszero\n      tag_32\n      jumpi\n      0x00\n      dup1\n      revert\n    tag_32:\n      pop\n      tag_33\n      0x04\n      dup1\n      calldatasize\n      sub\n      dup2\n      add\n      swap1\n      tag_34\n      swap2\n      swap1\n      tag_35\n      jump\t// in\n    tag_34:\n      tag_36\n      jump\t// in\n    tag_33:\n      mload(0x40)\n      tag_37\n      swap2\n      swap1\n      tag_25\n      jump\t// in\n    tag_37:\n      mload(0x40)\n      dup1\n      swap2\n      sub\n      swap1\n      return\n        /* \"contracts/BlastFurnace_flattened.sol\":12137:12536  function sellEggs() public {... */\n    tag_5:\n      callvalue\n      dup1\n      iszero\n      tag_38\n      jumpi\n      0x00\n      dup1\n      revert\n    tag_38:\n      pop\n      tag_39\n      tag_40\n      jump\t// in\n    tag_39:\n      stop\n        /* \"contracts/BlastFurnace_flattened.sol\":13957:14091  function seedMarket() public payable onlyOwner {... */\n    tag_6:\n      tag_41\n      tag_42\n      jump\t// in\n    tag_41:\n      stop\n        /* \"contracts/BlastFurnace_flattened.sol\":11347:12132  function hatchEggs(address ref) public {... */\n    tag_7:\n      callvalue\n      dup1\n      iszero\n      tag_43\n      jumpi\n      0x00\n      dup1\n      revert\n    tag_43:\n      pop\n      tag_44\n      0x04\n      dup1\n      calldatasize\n      sub\n      dup2\n      add\n      swap1\n      tag_45\n      swap2\n      swap1\n      tag_35\n      jump\t// in\n    tag_45:\n      tag_46\n      jump\t// in\n    tag_44:\n      stop\n        /* \"contracts/BlastFurnace_flattened.sol\":12541:12719  function furnaceRewards(address adr) public view returns (uint256) {... */\n    tag_8:\n      callvalue\n      dup1\n      iszero\n      tag_47\n      jumpi\n      0x00\n      dup1\n      revert\n    tag_47:\n      pop\n      tag_48\n      0x04\n      dup1\n      calldatasize\n      sub\n      dup2\n      add\n      swap1\n      tag_49\n      swap2\n      swap1\n      tag_35\n      jump\t// in\n    tag_49:\n      tag_50\n      jump\t// in\n    tag_48:\n      mload(0x40)\n      tag_51\n      swap2\n      swap1\n      tag_25\n      jump\t// in\n    tag_51:\n      mload(0x40)\n      dup1\n      swap2\n      sub\n      swap1\n      return\n        /* \"contracts/BlastFurnace_flattened.sol\":14191:14291  function getMyMiners(address adr) public view returns (uint256) {... */\n    tag_9:\n      callvalue\n      dup1\n      iszero\n      tag_52\n      jumpi\n      0x00\n      dup1\n      revert\n    tag_52:\n      pop\n      tag_53\n      0x04\n      dup1\n      calldatasize\n      sub\n      dup2\n      add\n      swap1\n      tag_54\n      swap2\n      swap1\n      tag_35\n      jump\t// in\n    tag_54:\n      tag_55\n      jump\t// in\n    tag_53:\n      mload(0x40)\n      tag_56\n      swap2\n      swap1\n      tag_25\n      jump\t// in\n    tag_56:\n      mload(0x40)\n      dup1\n      swap2\n      sub\n      swap1\n      return\n        /* \"contracts/BlastFurnace_flattened.sol\":7910:8021  function renounceOwnership() public onlyOwner {... */\n    tag_10:\n      callvalue\n      dup1\n      iszero\n      tag_57\n      jumpi\n      0x00\n      dup1\n      revert\n    tag_57:\n      pop\n      tag_58\n      tag_59\n      jump\t// in\n    tag_58:\n      stop\n        /* \"contracts/BlastFurnace_flattened.sol\":13683:13817  function calculateEggBuySimple(uint256 eth) public view returns (uint256) {... */\n    tag_11:\n      callvalue\n      dup1\n      iszero\n      tag_60\n      jumpi\n      0x00\n      dup1\n      revert\n    tag_60:\n      pop\n      tag_61\n      0x04\n      dup1\n      calldatasize\n      sub\n      dup2\n      add\n      swap1\n      tag_62\n      swap2\n      swap1\n      tag_63\n      jump\t// in\n    tag_62:\n      tag_64\n      jump\t// in\n    tag_61:\n      mload(0x40)\n      tag_65\n      swap2\n      swap1\n      tag_25\n      jump\t// in\n    tag_65:\n      mload(0x40)\n      dup1\n      swap2\n      sub\n      swap1\n      return\n        /* \"contracts/BlastFurnace_flattened.sol\":7687:7757  function owner() public view returns (address) {... */\n    tag_12:\n      callvalue\n      dup1\n      iszero\n      tag_66\n      jumpi\n      0x00\n      dup1\n      revert\n    tag_66:\n      pop\n      tag_67\n      tag_68\n      jump\t// in\n    tag_67:\n      mload(0x40)\n      tag_69\n      swap2\n      swap1\n      tag_70\n      jump\t// in\n    tag_69:\n      mload(0x40)\n      dup1\n      swap2\n      sub\n      swap1\n      return\n        /* \"contracts/BlastFurnace_flattened.sol\":13373:13515  function calculateEggSell(uint256 eggs) public view returns (uint256) {... */\n    tag_13:\n      callvalue\n      dup1\n      iszero\n      tag_71\n      jumpi\n      0x00\n      dup1\n      revert\n    tag_71:\n      pop\n      tag_72\n      0x04\n      dup1\n      calldatasize\n      sub\n      dup2\n      add\n      swap1\n      tag_73\n      swap2\n      swap1\n      tag_63\n      jump\t// in\n    tag_73:\n      tag_74\n      jump\t// in\n    tag_72:\n      mload(0x40)\n      tag_75\n      swap2\n      swap1\n      tag_25\n      jump\t// in\n    tag_75:\n      mload(0x40)\n      dup1\n      swap2\n      sub\n      swap1\n      return\n        /* \"contracts/BlastFurnace_flattened.sol\":7822:7905  function isOwner() public view returns (bool) {... */\n    tag_14:\n      callvalue\n      dup1\n      iszero\n      tag_76\n      jumpi\n      0x00\n      dup1\n      revert\n    tag_76:\n      pop\n      tag_77\n      tag_78\n      jump\t// in\n    tag_77:\n      mload(0x40)\n      tag_79\n      swap2\n      swap1\n      tag_80\n      jump\t// in\n    tag_79:\n      mload(0x40)\n      dup1\n      swap2\n      sub\n      swap1\n      return\n        /* \"contracts/BlastFurnace_flattened.sol\":14438:14679  function getEggsSinceLastHatch(address adr) public view returns (uint256) {... */\n    tag_15:\n      callvalue\n      dup1\n      iszero\n      tag_81\n      jumpi\n      0x00\n      dup1\n      revert\n    tag_81:\n      pop\n      tag_82\n      0x04\n      dup1\n      calldatasize\n      sub\n      dup2\n      add\n      swap1\n      tag_83\n      swap2\n      swap1\n      tag_35\n      jump\t// in\n    tag_83:\n      tag_84\n      jump\t// in\n    tag_82:\n      mload(0x40)\n      tag_85\n      swap2\n      swap1\n      tag_25\n      jump\t// in\n    tag_85:\n      mload(0x40)\n      dup1\n      swap2\n      sub\n      swap1\n      return\n        /* \"contracts/BlastFurnace_flattened.sol\":12724:13121  function buyEggs(address ref) public payable {... */\n    tag_16:\n      tag_86\n      0x04\n      dup1\n      calldatasize\n      sub\n      dup2\n      add\n      swap1\n      tag_87\n      swap2\n      swap1\n      tag_35\n      jump\t// in\n    tag_87:\n      tag_88\n      jump\t// in\n    tag_86:\n      stop\n        /* \"contracts/BlastFurnace_flattened.sol\":8026:8126  function transferOwnership(address newOwner) public onlyOwner {... */\n    tag_17:\n      callvalue\n      dup1\n      iszero\n      tag_89\n      jumpi\n      0x00\n      dup1\n      revert\n    tag_89:\n      pop\n      tag_90\n      0x04\n      dup1\n      calldatasize\n      sub\n      dup2\n      add\n      swap1\n      tag_91\n      swap2\n      swap1\n      tag_35\n      jump\t// in\n    tag_91:\n      tag_92\n      jump\t// in\n    tag_90:\n      stop\n        /* \"contracts/BlastFurnace_flattened.sol\":14096:14186  function getBalance() public view returns (uint256) {... */\n    tag_23:\n        /* \"contracts/BlastFurnace_flattened.sol\":14139:14146  uint256 */\n      0x00\n        /* \"contracts/BlastFurnace_flattened.sol\":14160:14181  address(this).balance */\n      selfbalance\n        /* \"contracts/BlastFurnace_flattened.sol\":14153:14181  return address(this).balance */\n      swap1\n      pop\n        /* \"contracts/BlastFurnace_flattened.sol\":14096:14186  function getBalance() public view returns (uint256) {... */\n      swap1\n      jump\t// out\n        /* \"contracts/BlastFurnace_flattened.sol\":13520:13678  function calculateEggBuy(uint256 eth, uint256 contractBalance) public view returns (uint256) {... */\n    tag_30:\n        /* \"contracts/BlastFurnace_flattened.sol\":13604:13611  uint256 */\n      0x00\n        /* \"contracts/BlastFurnace_flattened.sol\":13625:13673  calculateTrade(eth, contractBalance, marketEggs) */\n      tag_95\n        /* \"contracts/BlastFurnace_flattened.sol\":13640:13643  eth */\n      dup4\n        /* \"contracts/BlastFurnace_flattened.sol\":13645:13660  contractBalance */\n      dup4\n        /* \"contracts/BlastFurnace_flattened.sol\":13662:13672  marketEggs */\n      sload(0x0a)\n        /* \"contracts/BlastFurnace_flattened.sol\":13625:13639  calculateTrade */\n      tag_96\n        /* \"contracts/BlastFurnace_flattened.sol\":13625:13673  calculateTrade(eth, contractBalance, marketEggs) */\n      jump\t// in\n    tag_95:\n        /* \"contracts/BlastFurnace_flattened.sol\":13618:13673  return calculateTrade(eth, contractBalance, marketEggs) */\n      swap1\n      pop\n        /* \"contracts/BlastFurnace_flattened.sol\":13520:13678  function calculateEggBuy(uint256 eth, uint256 contractBalance) public view returns (uint256) {... */\n      swap3\n      swap2\n      pop\n      pop\n      jump\t// out\n        /* \"contracts/BlastFurnace_flattened.sol\":14296:14433  function getMyEggs(address adr) public view returns (uint256) {... */\n    tag_36:\n        /* \"contracts/BlastFurnace_flattened.sol\":14349:14356  uint256 */\n      0x00\n        /* \"contracts/BlastFurnace_flattened.sol\":14370:14428  SafeMath.add(claimedEggs[adr], getEggsSinceLastHatch(adr)) */\n      tag_98\n        /* \"contracts/BlastFurnace_flattened.sol\":14383:14394  claimedEggs */\n      0x07\n        /* \"contracts/BlastFurnace_flattened.sol\":14383:14399  claimedEggs[adr] */\n      0x00\n        /* \"contracts/BlastFurnace_flattened.sol\":14395:14398  adr */\n      dup5\n        /* \"contracts/BlastFurnace_flattened.sol\":14383:14399  claimedEggs[adr] */\n      0xffffffffffffffffffffffffffffffffffffffff\n      and\n      0xffffffffffffffffffffffffffffffffffffffff\n      and\n      dup2\n      mstore\n      0x20\n      add\n      swap1\n      dup2\n      mstore\n      0x20\n      add\n      0x00\n      keccak256\n      sload\n        /* \"contracts/BlastFurnace_flattened.sol\":14401:14427  getEggsSinceLastHatch(adr) */\n      tag_99\n        /* \"contracts/BlastFurnace_flattened.sol\":14423:14426  adr */\n      dup5\n        /* \"contracts/BlastFurnace_flattened.sol\":14401:14422  getEggsSinceLastHatch */\n      tag_84\n        /* \"contracts/BlastFurnace_flattened.sol\":14401:14427  getEggsSinceLastHatch(adr) */\n      jump\t// in\n    tag_99:\n        /* \"contracts/BlastFurnace_flattened.sol\":14370:14382  SafeMath.add */\n      tag_100\n        /* \"contracts/BlastFurnace_flattened.sol\":14370:14428  SafeMath.add(claimedEggs[adr], getEggsSinceLastHatch(adr)) */\n      jump\t// in\n    tag_98:\n        /* \"contracts/BlastFurnace_flattened.sol\":14363:14428  return SafeMath.add(claimedEggs[adr], getEggsSinceLastHatch(adr)) */\n      swap1\n      pop\n        /* \"contracts/BlastFurnace_flattened.sol\":14296:14433  function getMyEggs(address adr) public view returns (uint256) {... */\n      swap2\n      swap1\n      pop\n      jump\t// out\n        /* \"contracts/BlastFurnace_flattened.sol\":12137:12536  function sellEggs() public {... */\n    tag_40:\n        /* \"contracts/BlastFurnace_flattened.sol\":12177:12188  initialized */\n      0x05\n      0x00\n      swap1\n      sload\n      swap1\n      0x0100\n      exp\n      swap1\n      div\n      0xff\n      and\n        /* \"contracts/BlastFurnace_flattened.sol\":12169:12189  require(initialized) */\n      tag_102\n      jumpi\n      0x00\n      dup1\n      revert\n    tag_102:\n        /* \"contracts/BlastFurnace_flattened.sol\":12194:12209  uint256 hasEggs */\n      0x00\n        /* \"contracts/BlastFurnace_flattened.sol\":12212:12233  getMyEggs(msg.sender) */\n      tag_103\n        /* \"contracts/BlastFurnace_flattened.sol\":12222:12232  msg.sender */\n      caller\n        /* \"contracts/BlastFurnace_flattened.sol\":12212:12221  getMyEggs */\n      tag_36\n        /* \"contracts/BlastFurnace_flattened.sol\":12212:12233  getMyEggs(msg.sender) */\n      jump\t// in\n    tag_103:\n        /* \"contracts/BlastFurnace_flattened.sol\":12194:12233  uint256 hasEggs = getMyEggs(msg.sender) */\n      swap1\n      pop\n        /* \"contracts/BlastFurnace_flattened.sol\":12238:12254  uint256 eggValue */\n      0x00\n        /* \"contracts/BlastFurnace_flattened.sol\":12257:12282  calculateEggSell(hasEggs) */\n      tag_104\n        /* \"contracts/BlastFurnace_flattened.sol\":12274:12281  hasEggs */\n      dup3\n        /* \"contracts/BlastFurnace_flattened.sol\":12257:12273  calculateEggSell */\n      tag_74\n        /* \"contracts/BlastFurnace_flattened.sol\":12257:12282  calculateEggSell(hasEggs) */\n      jump\t// in\n    tag_104:\n        /* \"contracts/BlastFurnace_flattened.sol\":12238:12282  uint256 eggValue = calculateEggSell(hasEggs) */\n      swap1\n      pop\n        /* \"contracts/BlastFurnace_flattened.sol\":12287:12298  uint256 fee */\n      0x00\n        /* \"contracts/BlastFurnace_flattened.sol\":12301:12317  devFee(eggValue) */\n      tag_105\n        /* \"contracts/BlastFurnace_flattened.sol\":12308:12316  eggValue */\n      dup3\n        /* \"contracts/BlastFurnace_flattened.sol\":12301:12307  devFee */\n      tag_106\n        /* \"contracts/BlastFurnace_flattened.sol\":12301:12317  devFee(eggValue) */\n      jump\t// in\n    tag_105:\n        /* \"contracts/BlastFurnace_flattened.sol\":12287:12317  uint256 fee = devFee(eggValue) */\n      swap1\n      pop\n        /* \"contracts/BlastFurnace_flattened.sol\":12348:12349  0 */\n      0x00\n        /* \"contracts/BlastFurnace_flattened.sol\":12322:12333  claimedEggs */\n      0x07\n        /* \"contracts/BlastFurnace_flattened.sol\":12322:12345  claimedEggs[msg.sender] */\n      0x00\n        /* \"contracts/BlastFurnace_flattened.sol\":12334:12344  msg.sender */\n      caller\n        /* \"contracts/BlastFurnace_flattened.sol\":12322:12345  claimedEggs[msg.sender] */\n      0xffffffffffffffffffffffffffffffffffffffff\n      and\n      0xffffffffffffffffffffffffffffffffffffffff\n      and\n      dup2\n      mstore\n      0x20\n      add\n      swap1\n      dup2\n      mstore\n      0x20\n      add\n      0x00\n      keccak256\n        /* \"contracts/BlastFurnace_flattened.sol\":12322:12349  claimedEggs[msg.sender] = 0 */\n      dup2\n      swap1\n      sstore\n      pop\n        /* \"contracts/BlastFurnace_flattened.sol\":12378:12393  block.timestamp */\n      timestamp\n        /* \"contracts/BlastFurnace_flattened.sol\":12354:12363  lastHatch */\n      0x08\n        /* \"contracts/BlastFurnace_flattened.sol\":12354:12375  lastHatch[msg.sender] */\n      0x00\n        /* \"contracts/BlastFurnace_flattened.sol\":12364:12374  msg.sender */\n      caller\n        /* \"contracts/BlastFurnace_flattened.sol\":12354:12375  lastHatch[msg.sender] */\n      0xffffffffffffffffffffffffffffffffffffffff\n      and\n      0xffffffffffffffffffffffffffffffffffffffff\n      and\n      dup2\n      mstore\n      0x20\n      add\n      swap1\n      dup2\n      mstore\n      0x20\n      add\n      0x00\n      keccak256\n        /* \"contracts/BlastFurnace_flattened.sol\":12354:12393  lastHatch[msg.sender] = block.timestamp */\n      dup2\n      swap1\n      sstore\n      pop\n        /* \"contracts/BlastFurnace_flattened.sol\":12411:12444  SafeMath.add(marketEggs, hasEggs) */\n      tag_107\n        /* \"contracts/BlastFurnace_flattened.sol\":12424:12434  marketEggs */\n      sload(0x0a)\n        /* \"contracts/BlastFurnace_flattened.sol\":12436:12443  hasEggs */\n      dup5\n        /* \"contracts/BlastFurnace_flattened.sol\":12411:12423  SafeMath.add */\n      tag_100\n        /* \"contracts/BlastFurnace_flattened.sol\":12411:12444  SafeMath.add(marketEggs, hasEggs) */\n      jump\t// in\n    tag_107:\n        /* \"contracts/BlastFurnace_flattened.sol\":12398:12408  marketEggs */\n      0x0a\n        /* \"contracts/BlastFurnace_flattened.sol\":12398:12444  marketEggs = SafeMath.add(marketEggs, hasEggs) */\n      dup2\n      swap1\n      sstore\n      pop\n        /* \"contracts/BlastFurnace_flattened.sol\":12449:12455  recAdd */\n      0x05\n      0x01\n      swap1\n      sload\n      swap1\n      0x0100\n      exp\n      swap1\n      div\n      0xffffffffffffffffffffffffffffffffffffffff\n      and\n        /* \"contracts/BlastFurnace_flattened.sol\":12449:12464  recAdd.transfer */\n      0xffffffffffffffffffffffffffffffffffffffff\n      and\n        /* \"contracts/BlastFurnace_flattened.sol\":12449:12469  recAdd.transfer(fee) */\n      0x08fc\n        /* \"contracts/BlastFurnace_flattened.sol\":12465:12468  fee */\n      dup3\n        /* \"contracts/BlastFurnace_flattened.sol\":12449:12469  recAdd.transfer(fee) */\n      swap1\n      dup2\n      iszero\n      mul\n      swap1\n      mload(0x40)\n      0x00\n      mload(0x40)\n      dup1\n      dup4\n      sub\n      dup2\n      dup6\n      dup9\n      dup9\n      call\n      swap4\n      pop\n      pop\n      pop\n      pop\n      iszero\n      dup1\n      iszero\n      tag_109\n      jumpi\n      returndatasize\n      0x00\n      dup1\n      returndatacopy\n      revert(0x00, returndatasize)\n    tag_109:\n      pop\n        /* \"contracts/BlastFurnace_flattened.sol\":12482:12492  msg.sender */\n      caller\n        /* \"contracts/BlastFurnace_flattened.sol\":12474:12502  payable(msg.sender).transfer */\n      0xffffffffffffffffffffffffffffffffffffffff\n      and\n        /* \"contracts/BlastFurnace_flattened.sol\":12474:12531  payable(msg.sender).transfer(SafeMath.sub(eggValue, fee)) */\n      0x08fc\n        /* \"contracts/BlastFurnace_flattened.sol\":12503:12530  SafeMath.sub(eggValue, fee) */\n      tag_110\n        /* \"contracts/BlastFurnace_flattened.sol\":12516:12524  eggValue */\n      dup5\n        /* \"contracts/BlastFurnace_flattened.sol\":12526:12529  fee */\n      dup5\n        /* \"contracts/BlastFurnace_flattened.sol\":12503:12515  SafeMath.sub */\n      tag_111\n        /* \"contracts/BlastFurnace_flattened.sol\":12503:12530  SafeMath.sub(eggValue, fee) */\n      jump\t// in\n    tag_110:\n        /* \"contracts/BlastFurnace_flattened.sol\":12474:12531  payable(msg.sender).transfer(SafeMath.sub(eggValue, fee)) */\n      swap1\n      dup2\n      iszero\n      mul\n      swap1\n      mload(0x40)\n      0x00\n      mload(0x40)\n      dup1\n      dup4\n      sub\n      dup2\n      dup6\n      dup9\n      dup9\n      call\n      swap4\n      pop\n      pop\n      pop\n      pop\n      iszero\n      dup1\n      iszero\n      tag_113\n      jumpi\n      returndatasize\n      0x00\n      dup1\n      returndatacopy\n      revert(0x00, returndatasize)\n    tag_113:\n      pop\n        /* \"contracts/BlastFurnace_flattened.sol\":12164:12536  {... */\n      pop\n      pop\n      pop\n        /* \"contracts/BlastFurnace_flattened.sol\":12137:12536  function sellEggs() public {... */\n      jump\t// out\n        /* \"contracts/BlastFurnace_flattened.sol\":13957:14091  function seedMarket() public payable onlyOwner {... */\n    tag_42:\n        /* \"contracts/BlastFurnace_flattened.sol\":7796:7805  isOwner() */\n      tag_115\n        /* \"contracts/BlastFurnace_flattened.sol\":7796:7803  isOwner */\n      tag_78\n        /* \"contracts/BlastFurnace_flattened.sol\":7796:7805  isOwner() */\n      jump\t// in\n    tag_115:\n        /* \"contracts/BlastFurnace_flattened.sol\":7788:7806  require(isOwner()) */\n      tag_116\n      jumpi\n      0x00\n      dup1\n      revert\n    tag_116:\n        /* \"contracts/BlastFurnace_flattened.sol\":14031:14032  0 */\n      0x00\n        /* \"contracts/BlastFurnace_flattened.sol\":14017:14027  marketEggs */\n      sload(0x0a)\n        /* \"contracts/BlastFurnace_flattened.sol\":14017:14032  marketEggs == 0 */\n      eq\n        /* \"contracts/BlastFurnace_flattened.sol\":14009:14033  require(marketEggs == 0) */\n      tag_118\n      jumpi\n      0x00\n      dup1\n      revert\n    tag_118:\n        /* \"contracts/BlastFurnace_flattened.sol\":14052:14056  true */\n      0x01\n        /* \"contracts/BlastFurnace_flattened.sol\":14038:14049  initialized */\n      0x05\n      0x00\n        /* \"contracts/BlastFurnace_flattened.sol\":14038:14056  initialized = true */\n      0x0100\n      exp\n      dup2\n      sload\n      dup2\n      0xff\n      mul\n      not\n      and\n      swap1\n      dup4\n      iszero\n      iszero\n      mul\n      or\n      swap1\n      sstore\n      pop\n        /* \"contracts/BlastFurnace_flattened.sol\":14074:14086  108000000000 */\n      0x19254d3800\n        /* \"contracts/BlastFurnace_flattened.sol\":14061:14071  marketEggs */\n      0x0a\n        /* \"contracts/BlastFurnace_flattened.sol\":14061:14086  marketEggs = 108000000000 */\n      dup2\n      swap1\n      sstore\n      pop\n        /* \"contracts/BlastFurnace_flattened.sol\":13957:14091  function seedMarket() public payable onlyOwner {... */\n      jump\t// out\n        /* \"contracts/BlastFurnace_flattened.sol\":11347:12132  function hatchEggs(address ref) public {... */\n    tag_46:\n        /* \"contracts/BlastFurnace_flattened.sol\":11399:11410  initialized */\n      0x05\n      0x00\n      swap1\n      sload\n      swap1\n      0x0100\n      exp\n      swap1\n      div\n      0xff\n      and\n        /* \"contracts/BlastFurnace_flattened.sol\":11391:11411  require(initialized) */\n      tag_120\n      jumpi\n      0x00\n      dup1\n      revert\n    tag_120:\n        /* \"contracts/BlastFurnace_flattened.sol\":11429:11439  msg.sender */\n      caller\n        /* \"contracts/BlastFurnace_flattened.sol\":11422:11439  ref == msg.sender */\n      0xffffffffffffffffffffffffffffffffffffffff\n      and\n        /* \"contracts/BlastFurnace_flattened.sol\":11422:11425  ref */\n      dup2\n        /* \"contracts/BlastFurnace_flattened.sol\":11422:11439  ref == msg.sender */\n      0xffffffffffffffffffffffffffffffffffffffff\n      and\n      sub\n        /* \"contracts/BlastFurnace_flattened.sol\":11418:11469  if (ref == msg.sender) {... */\n      tag_121\n      jumpi\n        /* \"contracts/BlastFurnace_flattened.sol\":11461:11462  0 */\n      0x00\n        /* \"contracts/BlastFurnace_flattened.sol\":11447:11463  ref = address(0) */\n      swap1\n      pop\n        /* \"contracts/BlastFurnace_flattened.sol\":11418:11469  if (ref == msg.sender) {... */\n    tag_121:\n        /* \"contracts/BlastFurnace_flattened.sol\":11512:11513  0 */\n      0x00\n        /* \"contracts/BlastFurnace_flattened.sol\":11479:11514  referrals[msg.sender] == address(0) */\n      0xffffffffffffffffffffffffffffffffffffffff\n      and\n        /* \"contracts/BlastFurnace_flattened.sol\":11479:11488  referrals */\n      0x09\n        /* \"contracts/BlastFurnace_flattened.sol\":11479:11500  referrals[msg.sender] */\n      0x00\n        /* \"contracts/BlastFurnace_flattened.sol\":11489:11499  msg.sender */\n      caller\n        /* \"contracts/BlastFurnace_flattened.sol\":11479:11500  referrals[msg.sender] */\n      0xffffffffffffffffffffffffffffffffffffffff\n      and\n      0xffffffffffffffffffffffffffffffffffffffff\n      and\n      dup2\n      mstore\n      0x20\n      add\n      swap1\n      dup2\n      mstore\n      0x20\n      add\n      0x00\n      keccak256\n      0x00\n      swap1\n      sload\n      swap1\n      0x0100\n      exp\n      swap1\n      div\n      0xffffffffffffffffffffffffffffffffffffffff\n      and\n        /* \"contracts/BlastFurnace_flattened.sol\":11479:11514  referrals[msg.sender] == address(0) */\n      0xffffffffffffffffffffffffffffffffffffffff\n      and\n      eq\n        /* \"contracts/BlastFurnace_flattened.sol\":11479:11553  referrals[msg.sender] == address(0) && referrals[msg.sender] != msg.sender */\n      dup1\n      iszero\n      tag_122\n      jumpi\n      pop\n        /* \"contracts/BlastFurnace_flattened.sol\":11543:11553  msg.sender */\n      caller\n        /* \"contracts/BlastFurnace_flattened.sol\":11518:11553  referrals[msg.sender] != msg.sender */\n      0xffffffffffffffffffffffffffffffffffffffff\n      and\n        /* \"contracts/BlastFurnace_flattened.sol\":11518:11527  referrals */\n      0x09\n        /* \"contracts/BlastFurnace_flattened.sol\":11518:11539  referrals[msg.sender] */\n      0x00\n        /* \"contracts/BlastFurnace_flattened.sol\":11528:11538  msg.sender */\n      caller\n        /* \"contracts/BlastFurnace_flattened.sol\":11518:11539  referrals[msg.sender] */\n      0xffffffffffffffffffffffffffffffffffffffff\n      and\n      0xffffffffffffffffffffffffffffffffffffffff\n      and\n      dup2\n      mstore\n      0x20\n      add\n      swap1\n      dup2\n      mstore\n      0x20\n      add\n      0x00\n      keccak256\n      0x00\n      swap1\n      sload\n      swap1\n      0x0100\n      exp\n      swap1\n      div\n      0xffffffffffffffffffffffffffffffffffffffff\n      and\n        /* \"contracts/BlastFurnace_flattened.sol\":11518:11553  referrals[msg.sender] != msg.sender */\n      0xffffffffffffffffffffffffffffffffffffffff\n      and\n      eq\n      iszero\n        /* \"contracts/BlastFurnace_flattened.sol\":11479:11553  referrals[msg.sender] == address(0) && referrals[msg.sender] != msg.sender */\n    tag_122:\n        /* \"contracts/BlastFurnace_flattened.sol\":11475:11594  if (referrals[msg.sender] == address(0) && referrals[msg.sender] != msg.sender) {... */\n      iszero\n      tag_123\n      jumpi\n        /* \"contracts/BlastFurnace_flattened.sol\":11585:11588  ref */\n      dup1\n        /* \"contracts/BlastFurnace_flattened.sol\":11561:11570  referrals */\n      0x09\n        /* \"contracts/BlastFurnace_flattened.sol\":11561:11582  referrals[msg.sender] */\n      0x00\n        /* \"contracts/BlastFurnace_flattened.sol\":11571:11581  msg.sender */\n      caller\n        /* \"contracts/BlastFurnace_flattened.sol\":11561:11582  referrals[msg.sender] */\n      0xffffffffffffffffffffffffffffffffffffffff\n      and\n      0xffffffffffffffffffffffffffffffffffffffff\n      and\n      dup2\n      mstore\n      0x20\n      add\n      swap1\n      dup2\n      mstore\n      0x20\n      add\n      0x00\n      keccak256\n      0x00\n        /* \"contracts/BlastFurnace_flattened.sol\":11561:11588  referrals[msg.sender] = ref */\n      0x0100\n      exp\n      dup2\n      sload\n      dup2\n      0xffffffffffffffffffffffffffffffffffffffff\n      mul\n      not\n      and\n      swap1\n      dup4\n      0xffffffffffffffffffffffffffffffffffffffff\n      and\n      mul\n      or\n      swap1\n      sstore\n      pop\n        /* \"contracts/BlastFurnace_flattened.sol\":11475:11594  if (referrals[msg.sender] == address(0) && referrals[msg.sender] != msg.sender) {... */\n    tag_123:\n        /* \"contracts/BlastFurnace_flattened.sol\":11600:11616  uint256 eggsUsed */\n      0x00\n        /* \"contracts/BlastFurnace_flattened.sol\":11619:11640  getMyEggs(msg.sender) */\n      tag_124\n        /* \"contracts/BlastFurnace_flattened.sol\":11629:11639  msg.sender */\n      caller\n        /* \"contracts/BlastFurnace_flattened.sol\":11619:11628  getMyEggs */\n      tag_36\n        /* \"contracts/BlastFurnace_flattened.sol\":11619:11640  getMyEggs(msg.sender) */\n      jump\t// in\n    tag_124:\n        /* \"contracts/BlastFurnace_flattened.sol\":11600:11640  uint256 eggsUsed = getMyEggs(msg.sender) */\n      swap1\n      pop\n        /* \"contracts/BlastFurnace_flattened.sol\":11645:11662  uint256 newMiners */\n      0x00\n        /* \"contracts/BlastFurnace_flattened.sol\":11665:11710  SafeMath.div(eggsUsed, EGGS_TO_HATCH_1MINERS) */\n      tag_125\n        /* \"contracts/BlastFurnace_flattened.sol\":11678:11686  eggsUsed */\n      dup3\n        /* \"contracts/BlastFurnace_flattened.sol\":11688:11709  EGGS_TO_HATCH_1MINERS */\n      sload(0x01)\n        /* \"contracts/BlastFurnace_flattened.sol\":11665:11677  SafeMath.div */\n      tag_126\n        /* \"contracts/BlastFurnace_flattened.sol\":11665:11710  SafeMath.div(eggsUsed, EGGS_TO_HATCH_1MINERS) */\n      jump\t// in\n    tag_125:\n        /* \"contracts/BlastFurnace_flattened.sol\":11645:11710  uint256 newMiners = SafeMath.div(eggsUsed, EGGS_TO_HATCH_1MINERS) */\n      swap1\n      pop\n        /* \"contracts/BlastFurnace_flattened.sol\":11744:11795  SafeMath.add(hatcheryMiners[msg.sender], newMiners) */\n      tag_127\n        /* \"contracts/BlastFurnace_flattened.sol\":11757:11771  hatcheryMiners */\n      0x06\n        /* \"contracts/BlastFurnace_flattened.sol\":11757:11783  hatcheryMiners[msg.sender] */\n      0x00\n        /* \"contracts/BlastFurnace_flattened.sol\":11772:11782  msg.sender */\n      caller\n        /* \"contracts/BlastFurnace_flattened.sol\":11757:11783  hatcheryMiners[msg.sender] */\n      0xffffffffffffffffffffffffffffffffffffffff\n      and\n      0xffffffffffffffffffffffffffffffffffffffff\n      and\n      dup2\n      mstore\n      0x20\n      add\n      swap1\n      dup2\n      mstore\n      0x20\n      add\n      0x00\n      keccak256\n      sload\n        /* \"contracts/BlastFurnace_flattened.sol\":11785:11794  newMiners */\n      dup3\n        /* \"contracts/BlastFurnace_flattened.sol\":11744:11756  SafeMath.add */\n      tag_100\n        /* \"contracts/BlastFurnace_flattened.sol\":11744:11795  SafeMath.add(hatcheryMiners[msg.sender], newMiners) */\n      jump\t// in\n    tag_127:\n        /* \"contracts/BlastFurnace_flattened.sol\":11715:11729  hatcheryMiners */\n      0x06\n        /* \"contracts/BlastFurnace_flattened.sol\":11715:11741  hatcheryMiners[msg.sender] */\n      0x00\n        /* \"contracts/BlastFurnace_flattened.sol\":11730:11740  msg.sender */\n      caller\n        /* \"contracts/BlastFurnace_flattened.sol\":11715:11741  hatcheryMiners[msg.sender] */\n      0xffffffffffffffffffffffffffffffffffffffff\n      and\n      0xffffffffffffffffffffffffffffffffffffffff\n      and\n      dup2\n      mstore\n      0x20\n      add\n      swap1\n      dup2\n      mstore\n      0x20\n      add\n      0x00\n      keccak256\n        /* \"contracts/BlastFurnace_flattened.sol\":11715:11795  hatcheryMiners[msg.sender] = SafeMath.add(hatcheryMiners[msg.sender], newMiners) */\n      dup2\n      swap1\n      sstore\n      pop\n        /* \"contracts/BlastFurnace_flattened.sol\":11826:11827  0 */\n      0x00\n        /* \"contracts/BlastFurnace_flattened.sol\":11800:11811  claimedEggs */\n      0x07\n        /* \"contracts/BlastFurnace_flattened.sol\":11800:11823  claimedEggs[msg.sender] */\n      0x00\n        /* \"contracts/BlastFurnace_flattened.sol\":11812:11822  msg.sender */\n      caller\n        /* \"contracts/BlastFurnace_flattened.sol\":11800:11823  claimedEggs[msg.sender] */\n      0xffffffffffffffffffffffffffffffffffffffff\n      and\n      0xffffffffffffffffffffffffffffffffffffffff\n      and\n      dup2\n      mstore\n      0x20\n      add\n      swap1\n      dup2\n      mstore\n      0x20\n      add\n      0x00\n      keccak256\n        /* \"contracts/BlastFurnace_flattened.sol\":11800:11827  claimedEggs[msg.sender] = 0 */\n      dup2\n      swap1\n      sstore\n      pop\n        /* \"contracts/BlastFurnace_flattened.sol\":11856:11871  block.timestamp */\n      timestamp\n        /* \"contracts/BlastFurnace_flattened.sol\":11832:11841  lastHatch */\n      0x08\n        /* \"contracts/BlastFurnace_flattened.sol\":11832:11853  lastHatch[msg.sender] */\n      0x00\n        /* \"contracts/BlastFurnace_flattened.sol\":11842:11852  msg.sender */\n      caller\n        /* \"contracts/BlastFurnace_flattened.sol\":11832:11853  lastHatch[msg.sender] */\n      0xffffffffffffffffffffffffffffffffffffffff\n      and\n      0xffffffffffffffffffffffffffffffffffffffff\n      and\n      dup2\n      mstore\n      0x20\n      add\n      swap1\n      dup2\n      mstore\n      0x20\n      add\n      0x00\n      keccak256\n        /* \"contracts/BlastFurnace_flattened.sol\":11832:11871  lastHatch[msg.sender] = block.timestamp */\n      dup2\n      swap1\n      sstore\n      pop\n        /* \"contracts/BlastFurnace_flattened.sol\":11939:12014  SafeMath.add(claimedEggs[referrals[msg.sender]], SafeMath.div(eggsUsed, 8)) */\n      tag_128\n        /* \"contracts/BlastFurnace_flattened.sol\":11952:11963  claimedEggs */\n      0x07\n        /* \"contracts/BlastFurnace_flattened.sol\":11952:11986  claimedEggs[referrals[msg.sender]] */\n      0x00\n        /* \"contracts/BlastFurnace_flattened.sol\":11964:11973  referrals */\n      0x09\n        /* \"contracts/BlastFurnace_flattened.sol\":11964:11985  referrals[msg.sender] */\n      0x00\n        /* \"contracts/BlastFurnace_flattened.sol\":11974:11984  msg.sender */\n      caller\n        /* \"contracts/BlastFurnace_flattened.sol\":11964:11985  referrals[msg.sender] */\n      0xffffffffffffffffffffffffffffffffffffffff\n      and\n      0xffffffffffffffffffffffffffffffffffffffff\n      and\n      dup2\n      mstore\n      0x20\n      add\n      swap1\n      dup2\n      mstore\n      0x20\n      add\n      0x00\n      keccak256\n      0x00\n      swap1\n      sload\n      swap1\n      0x0100\n      exp\n      swap1\n      div\n      0xffffffffffffffffffffffffffffffffffffffff\n      and\n        /* \"contracts/BlastFurnace_flattened.sol\":11952:11986  claimedEggs[referrals[msg.sender]] */\n      0xffffffffffffffffffffffffffffffffffffffff\n      and\n      0xffffffffffffffffffffffffffffffffffffffff\n      and\n      dup2\n      mstore\n      0x20\n      add\n      swap1\n      dup2\n      mstore\n      0x20\n      add\n      0x00\n      keccak256\n      sload\n        /* \"contracts/BlastFurnace_flattened.sol\":11988:12013  SafeMath.div(eggsUsed, 8) */\n      tag_129\n        /* \"contracts/BlastFurnace_flattened.sol\":12001:12009  eggsUsed */\n      dup5\n        /* \"contracts/BlastFurnace_flattened.sol\":12011:12012  8 */\n      0x08\n        /* \"contracts/BlastFurnace_flattened.sol\":11988:12000  SafeMath.div */\n      tag_126\n        /* \"contracts/BlastFurnace_flattened.sol\":11988:12013  SafeMath.div(eggsUsed, 8) */\n      jump\t// in\n    tag_129:\n        /* \"contracts/BlastFurnace_flattened.sol\":11939:11951  SafeMath.add */\n      tag_100\n        /* \"contracts/BlastFurnace_flattened.sol\":11939:12014  SafeMath.add(claimedEggs[referrals[msg.sender]], SafeMath.div(eggsUsed, 8)) */\n      jump\t// in\n    tag_128:\n        /* \"contracts/BlastFurnace_flattened.sol\":11902:11913  claimedEggs */\n      0x07\n        /* \"contracts/BlastFurnace_flattened.sol\":11902:11936  claimedEggs[referrals[msg.sender]] */\n      0x00\n        /* \"contracts/BlastFurnace_flattened.sol\":11914:11923  referrals */\n      0x09\n        /* \"contracts/BlastFurnace_flattened.sol\":11914:11935  referrals[msg.sender] */\n      0x00\n        /* \"contracts/BlastFurnace_flattened.sol\":11924:11934  msg.sender */\n      caller\n        /* \"contracts/BlastFurnace_flattened.sol\":11914:11935  referrals[msg.sender] */\n      0xffffffffffffffffffffffffffffffffffffffff\n      and\n      0xffffffffffffffffffffffffffffffffffffffff\n      and\n      dup2\n      mstore\n      0x20\n      add\n      swap1\n      dup2\n      mstore\n      0x20\n      add\n      0x00\n      keccak256\n      0x00\n      swap1\n      sload\n      swap1\n      0x0100\n      exp\n      swap1\n      div\n      0xffffffffffffffffffffffffffffffffffffffff\n      and\n        /* \"contracts/BlastFurnace_flattened.sol\":11902:11936  claimedEggs[referrals[msg.sender]] */\n      0xffffffffffffffffffffffffffffffffffffffff\n      and\n      0xffffffffffffffffffffffffffffffffffffffff\n      and\n      dup2\n      mstore\n      0x20\n      add\n      swap1\n      dup2\n      mstore\n      0x20\n      add\n      0x00\n      keccak256\n        /* \"contracts/BlastFurnace_flattened.sol\":11902:12014  claimedEggs[referrals[msg.sender]] = SafeMath.add(claimedEggs[referrals[msg.sender]], SafeMath.div(eggsUsed, 8)) */\n      dup2\n      swap1\n      sstore\n      pop\n        /* \"contracts/BlastFurnace_flattened.sol\":12076:12127  SafeMath.add(marketEggs, SafeMath.div(eggsUsed, 5)) */\n      tag_130\n        /* \"contracts/BlastFurnace_flattened.sol\":12089:12099  marketEggs */\n      sload(0x0a)\n        /* \"contracts/BlastFurnace_flattened.sol\":12101:12126  SafeMath.div(eggsUsed, 5) */\n      tag_131\n        /* \"contracts/BlastFurnace_flattened.sol\":12114:12122  eggsUsed */\n      dup5\n        /* \"contracts/BlastFurnace_flattened.sol\":12124:12125  5 */\n      0x05\n        /* \"contracts/BlastFurnace_flattened.sol\":12101:12113  SafeMath.div */\n      tag_126\n        /* \"contracts/BlastFurnace_flattened.sol\":12101:12126  SafeMath.div(eggsUsed, 5) */\n      jump\t// in\n    tag_131:\n        /* \"contracts/BlastFurnace_flattened.sol\":12076:12088  SafeMath.add */\n      tag_100\n        /* \"contracts/BlastFurnace_flattened.sol\":12076:12127  SafeMath.add(marketEggs, SafeMath.div(eggsUsed, 5)) */\n      jump\t// in\n    tag_130:\n        /* \"contracts/BlastFurnace_flattened.sol\":12063:12073  marketEggs */\n      0x0a\n        /* \"contracts/BlastFurnace_flattened.sol\":12063:12127  marketEggs = SafeMath.add(marketEggs, SafeMath.div(eggsUsed, 5)) */\n      dup2\n      swap1\n      sstore\n      pop\n        /* \"contracts/BlastFurnace_flattened.sol\":11386:12132  {... */\n      pop\n      pop\n        /* \"contracts/BlastFurnace_flattened.sol\":11347:12132  function hatchEggs(address ref) public {... */\n      pop\n      jump\t// out\n        /* \"contracts/BlastFurnace_flattened.sol\":12541:12719  function furnaceRewards(address adr) public view returns (uint256) {... */\n    tag_50:\n        /* \"contracts/BlastFurnace_flattened.sol\":12599:12606  uint256 */\n      0x00\n        /* \"contracts/BlastFurnace_flattened.sol\":12613:12628  uint256 hasEggs */\n      dup1\n        /* \"contracts/BlastFurnace_flattened.sol\":12631:12645  getMyEggs(adr) */\n      tag_133\n        /* \"contracts/BlastFurnace_flattened.sol\":12641:12644  adr */\n      dup4\n        /* \"contracts/BlastFurnace_flattened.sol\":12631:12640  getMyEggs */\n      tag_36\n        /* \"contracts/BlastFurnace_flattened.sol\":12631:12645  getMyEggs(adr) */\n      jump\t// in\n    tag_133:\n        /* \"contracts/BlastFurnace_flattened.sol\":12613:12645  uint256 hasEggs = getMyEggs(adr) */\n      swap1\n      pop\n        /* \"contracts/BlastFurnace_flattened.sol\":12650:12666  uint256 eggValue */\n      0x00\n        /* \"contracts/BlastFurnace_flattened.sol\":12669:12694  calculateEggSell(hasEggs) */\n      tag_134\n        /* \"contracts/BlastFurnace_flattened.sol\":12686:12693  hasEggs */\n      dup3\n        /* \"contracts/BlastFurnace_flattened.sol\":12669:12685  calculateEggSell */\n      tag_74\n        /* \"contracts/BlastFurnace_flattened.sol\":12669:12694  calculateEggSell(hasEggs) */\n      jump\t// in\n    tag_134:\n        /* \"contracts/BlastFurnace_flattened.sol\":12650:12694  uint256 eggValue = calculateEggSell(hasEggs) */\n      swap1\n      pop\n        /* \"contracts/BlastFurnace_flattened.sol\":12706:12714  eggValue */\n      dup1\n        /* \"contracts/BlastFurnace_flattened.sol\":12699:12714  return eggValue */\n      swap3\n      pop\n      pop\n      pop\n        /* \"contracts/BlastFurnace_flattened.sol\":12541:12719  function furnaceRewards(address adr) public view returns (uint256) {... */\n      swap2\n      swap1\n      pop\n      jump\t// out\n        /* \"contracts/BlastFurnace_flattened.sol\":14191:14291  function getMyMiners(address adr) public view returns (uint256) {... */\n    tag_55:\n        /* \"contracts/BlastFurnace_flattened.sol\":14246:14253  uint256 */\n      0x00\n        /* \"contracts/BlastFurnace_flattened.sol\":14267:14281  hatcheryMiners */\n      0x06\n        /* \"contracts/BlastFurnace_flattened.sol\":14267:14286  hatcheryMiners[adr] */\n      0x00\n        /* \"contracts/BlastFurnace_flattened.sol\":14282:14285  adr */\n      dup4\n        /* \"contracts/BlastFurnace_flattened.sol\":14267:14286  hatcheryMiners[adr] */\n      0xffffffffffffffffffffffffffffffffffffffff\n      and\n      0xffffffffffffffffffffffffffffffffffffffff\n      and\n      dup2\n      mstore\n      0x20\n      add\n      swap1\n      dup2\n      mstore\n      0x20\n      add\n      0x00\n      keccak256\n      sload\n        /* \"contracts/BlastFurnace_flattened.sol\":14260:14286  return hatcheryMiners[adr] */\n      swap1\n      pop\n        /* \"contracts/BlastFurnace_flattened.sol\":14191:14291  function getMyMiners(address adr) public view returns (uint256) {... */\n      swap2\n      swap1\n      pop\n      jump\t// out\n        /* \"contracts/BlastFurnace_flattened.sol\":7910:8021  function renounceOwnership() public onlyOwner {... */\n    tag_59:\n        /* \"contracts/BlastFurnace_flattened.sol\":7796:7805  isOwner() */\n      tag_137\n        /* \"contracts/BlastFurnace_flattened.sol\":7796:7803  isOwner */\n      tag_78\n        /* \"contracts/BlastFurnace_flattened.sol\":7796:7805  isOwner() */\n      jump\t// in\n    tag_137:\n        /* \"contracts/BlastFurnace_flattened.sol\":7788:7806  require(isOwner()) */\n      tag_138\n      jumpi\n      0x00\n      dup1\n      revert\n    tag_138:\n        /* \"contracts/BlastFurnace_flattened.sol\":7985:7991  _owner */\n      0x00\n      dup1\n      sload\n      swap1\n      0x0100\n      exp\n      swap1\n      div\n      0xffffffffffffffffffffffffffffffffffffffff\n      and\n        /* \"contracts/BlastFurnace_flattened.sol\":7966:7992  OwnershipRenounced(_owner) */\n      0xffffffffffffffffffffffffffffffffffffffff\n      and\n      0xf8df31144d9c2f0f6b59d69b8b98abd5459d07f2742c4df920b25aae33c64820\n      mload(0x40)\n      mload(0x40)\n      dup1\n      swap2\n      sub\n      swap1\n      log2\n        /* \"contracts/BlastFurnace_flattened.sol\":8014:8015  0 */\n      0x00\n        /* \"contracts/BlastFurnace_flattened.sol\":7997:8003  _owner */\n      dup1\n      0x00\n        /* \"contracts/BlastFurnace_flattened.sol\":7997:8016  _owner = address(0) */\n      0x0100\n      exp\n      dup2\n      sload\n      dup2\n      0xffffffffffffffffffffffffffffffffffffffff\n      mul\n      not\n      and\n      swap1\n      dup4\n      0xffffffffffffffffffffffffffffffffffffffff\n      and\n      mul\n      or\n      swap1\n      sstore\n      pop\n        /* \"contracts/BlastFurnace_flattened.sol\":7910:8021  function renounceOwnership() public onlyOwner {... */\n      jump\t// out\n        /* \"contracts/BlastFurnace_flattened.sol\":13683:13817  function calculateEggBuySimple(uint256 eth) public view returns (uint256) {... */\n    tag_64:\n        /* \"contracts/BlastFurnace_flattened.sol\":13748:13755  uint256 */\n      0x00\n        /* \"contracts/BlastFurnace_flattened.sol\":13769:13812  calculateEggBuy(eth, address(this).balance) */\n      tag_141\n        /* \"contracts/BlastFurnace_flattened.sol\":13785:13788  eth */\n      dup3\n        /* \"contracts/BlastFurnace_flattened.sol\":13790:13811  address(this).balance */\n      selfbalance\n        /* \"contracts/BlastFurnace_flattened.sol\":13769:13784  calculateEggBuy */\n      tag_30\n        /* \"contracts/BlastFurnace_flattened.sol\":13769:13812  calculateEggBuy(eth, address(this).balance) */\n      jump\t// in\n    tag_141:\n        /* \"contracts/BlastFurnace_flattened.sol\":13762:13812  return calculateEggBuy(eth, address(this).balance) */\n      swap1\n      pop\n        /* \"contracts/BlastFurnace_flattened.sol\":13683:13817  function calculateEggBuySimple(uint256 eth) public view returns (uint256) {... */\n      swap2\n      swap1\n      pop\n      jump\t// out\n        /* \"contracts/BlastFurnace_flattened.sol\":7687:7757  function owner() public view returns (address) {... */\n    tag_68:\n        /* \"contracts/BlastFurnace_flattened.sol\":7725:7732  address */\n      0x00\n        /* \"contracts/BlastFurnace_flattened.sol\":7746:7752  _owner */\n      dup1\n      0x00\n      swap1\n      sload\n      swap1\n      0x0100\n      exp\n      swap1\n      div\n      0xffffffffffffffffffffffffffffffffffffffff\n      and\n        /* \"contracts/BlastFurnace_flattened.sol\":7739:7752  return _owner */\n      swap1\n      pop\n        /* \"contracts/BlastFurnace_flattened.sol\":7687:7757  function owner() public view returns (address) {... */\n      swap1\n      jump\t// out\n        /* \"contracts/BlastFurnace_flattened.sol\":13373:13515  function calculateEggSell(uint256 eggs) public view returns (uint256) {... */\n    tag_74:\n        /* \"contracts/BlastFurnace_flattened.sol\":13434:13441  uint256 */\n      0x00\n        /* \"contracts/BlastFurnace_flattened.sol\":13455:13510  calculateTrade(eggs, marketEggs, address(this).balance) */\n      tag_144\n        /* \"contracts/BlastFurnace_flattened.sol\":13470:13474  eggs */\n      dup3\n        /* \"contracts/BlastFurnace_flattened.sol\":13476:13486  marketEggs */\n      sload(0x0a)\n        /* \"contracts/BlastFurnace_flattened.sol\":13488:13509  address(this).balance */\n      selfbalance\n        /* \"contracts/BlastFurnace_flattened.sol\":13455:13469  calculateTrade */\n      tag_96\n        /* \"contracts/BlastFurnace_flattened.sol\":13455:13510  calculateTrade(eggs, marketEggs, address(this).balance) */\n      jump\t// in\n    tag_144:\n        /* \"contracts/BlastFurnace_flattened.sol\":13448:13510  return calculateTrade(eggs, marketEggs, address(this).balance) */\n      swap1\n      pop\n        /* \"contracts/BlastFurnace_flattened.sol\":13373:13515  function calculateEggSell(uint256 eggs) public view returns (uint256) {... */\n      swap2\n      swap1\n      pop\n      jump\t// out\n        /* \"contracts/BlastFurnace_flattened.sol\":7822:7905  function isOwner() public view returns (bool) {... */\n    tag_78:\n        /* \"contracts/BlastFurnace_flattened.sol\":7862:7866  bool */\n      0x00\n        /* \"contracts/BlastFurnace_flattened.sol\":7894:7900  _owner */\n      dup1\n      0x00\n      swap1\n      sload\n      swap1\n      0x0100\n      exp\n      swap1\n      div\n      0xffffffffffffffffffffffffffffffffffffffff\n      and\n        /* \"contracts/BlastFurnace_flattened.sol\":7880:7900  msg.sender == _owner */\n      0xffffffffffffffffffffffffffffffffffffffff\n      and\n        /* \"contracts/BlastFurnace_flattened.sol\":7880:7890  msg.sender */\n      caller\n        /* \"contracts/BlastFurnace_flattened.sol\":7880:7900  msg.sender == _owner */\n      0xffffffffffffffffffffffffffffffffffffffff\n      and\n      eq\n        /* \"contracts/BlastFurnace_flattened.sol\":7873:7900  return msg.sender == _owner */\n      swap1\n      pop\n        /* \"contracts/BlastFurnace_flattened.sol\":7822:7905  function isOwner() public view returns (bool) {... */\n      swap1\n      jump\t// out\n        /* \"contracts/BlastFurnace_flattened.sol\":14438:14679  function getEggsSinceLastHatch(address adr) public view returns (uint256) {... */\n    tag_84:\n        /* \"contracts/BlastFurnace_flattened.sol\":14503:14510  uint256 */\n      0x00\n        /* \"contracts/BlastFurnace_flattened.sol\":14517:14538  uint256 secondsPassed */\n      dup1\n        /* \"contracts/BlastFurnace_flattened.sol\":14541:14614  min(EGGS_TO_HATCH_1MINERS, SafeMath.sub(block.timestamp, lastHatch[adr])) */\n      tag_147\n        /* \"contracts/BlastFurnace_flattened.sol\":14545:14566  EGGS_TO_HATCH_1MINERS */\n      sload(0x01)\n        /* \"contracts/BlastFurnace_flattened.sol\":14568:14613  SafeMath.sub(block.timestamp, lastHatch[adr]) */\n      tag_148\n        /* \"contracts/BlastFurnace_flattened.sol\":14581:14596  block.timestamp */\n      timestamp\n        /* \"contracts/BlastFurnace_flattened.sol\":14598:14607  lastHatch */\n      0x08\n        /* \"contracts/BlastFurnace_flattened.sol\":14598:14612  lastHatch[adr] */\n      0x00\n        /* \"contracts/BlastFurnace_flattened.sol\":14608:14611  adr */\n      dup9\n        /* \"contracts/BlastFurnace_flattened.sol\":14598:14612  lastHatch[adr] */\n      0xffffffffffffffffffffffffffffffffffffffff\n      and\n      0xffffffffffffffffffffffffffffffffffffffff\n      and\n      dup2\n      mstore\n      0x20\n      add\n      swap1\n      dup2\n      mstore\n      0x20\n      add\n      0x00\n      keccak256\n      sload\n        /* \"contracts/BlastFurnace_flattened.sol\":14568:14580  SafeMath.sub */\n      tag_111\n        /* \"contracts/BlastFurnace_flattened.sol\":14568:14613  SafeMath.sub(block.timestamp, lastHatch[adr]) */\n      jump\t// in\n    tag_148:\n        /* \"contracts/BlastFurnace_flattened.sol\":14541:14544  min */\n      tag_149\n        /* \"contracts/BlastFurnace_flattened.sol\":14541:14614  min(EGGS_TO_HATCH_1MINERS, SafeMath.sub(block.timestamp, lastHatch[adr])) */\n      jump\t// in\n    tag_147:\n        /* \"contracts/BlastFurnace_flattened.sol\":14517:14614  uint256 secondsPassed = min(EGGS_TO_HATCH_1MINERS, SafeMath.sub(block.timestamp, lastHatch[adr])) */\n      swap1\n      pop\n        /* \"contracts/BlastFurnace_flattened.sol\":14626:14674  SafeMath.mul(secondsPassed, hatcheryMiners[adr]) */\n      tag_150\n        /* \"contracts/BlastFurnace_flattened.sol\":14639:14652  secondsPassed */\n      dup2\n        /* \"contracts/BlastFurnace_flattened.sol\":14654:14668  hatcheryMiners */\n      0x06\n        /* \"contracts/BlastFurnace_flattened.sol\":14654:14673  hatcheryMiners[adr] */\n      0x00\n        /* \"contracts/BlastFurnace_flattened.sol\":14669:14672  adr */\n      dup7\n        /* \"contracts/BlastFurnace_flattened.sol\":14654:14673  hatcheryMiners[adr] */\n      0xffffffffffffffffffffffffffffffffffffffff\n      and\n      0xffffffffffffffffffffffffffffffffffffffff\n      and\n      dup2\n      mstore\n      0x20\n      add\n      swap1\n      dup2\n      mstore\n      0x20\n      add\n      0x00\n      keccak256\n      sload\n        /* \"contracts/BlastFurnace_flattened.sol\":14626:14638  SafeMath.mul */\n      tag_151\n        /* \"contracts/BlastFurnace_flattened.sol\":14626:14674  SafeMath.mul(secondsPassed, hatcheryMiners[adr]) */\n      jump\t// in\n    tag_150:\n        /* \"contracts/BlastFurnace_flattened.sol\":14619:14674  return SafeMath.mul(secondsPassed, hatcheryMiners[adr]) */\n      swap2\n      pop\n      pop\n        /* \"contracts/BlastFurnace_flattened.sol\":14438:14679  function getEggsSinceLastHatch(address adr) public view returns (uint256) {... */\n      swap2\n      swap1\n      pop\n      jump\t// out\n        /* \"contracts/BlastFurnace_flattened.sol\":12724:13121  function buyEggs(address ref) public payable {... */\n    tag_88:\n        /* \"contracts/BlastFurnace_flattened.sol\":12782:12793  initialized */\n      0x05\n      0x00\n      swap1\n      sload\n      swap1\n      0x0100\n      exp\n      swap1\n      div\n      0xff\n      and\n        /* \"contracts/BlastFurnace_flattened.sol\":12774:12794  require(initialized) */\n      tag_153\n      jumpi\n      0x00\n      dup1\n      revert\n    tag_153:\n        /* \"contracts/BlastFurnace_flattened.sol\":12799:12817  uint256 eggsBought */\n      0x00\n        /* \"contracts/BlastFurnace_flattened.sol\":12820:12894  calculateEggBuy(msg.value, SafeMath.sub(address(this).balance, msg.value)) */\n      tag_154\n        /* \"contracts/BlastFurnace_flattened.sol\":12836:12845  msg.value */\n      callvalue\n        /* \"contracts/BlastFurnace_flattened.sol\":12847:12893  SafeMath.sub(address(this).balance, msg.value) */\n      tag_155\n        /* \"contracts/BlastFurnace_flattened.sol\":12860:12881  address(this).balance */\n      selfbalance\n        /* \"contracts/BlastFurnace_flattened.sol\":12883:12892  msg.value */\n      callvalue\n        /* \"contracts/BlastFurnace_flattened.sol\":12847:12859  SafeMath.sub */\n      tag_111\n        /* \"contracts/BlastFurnace_flattened.sol\":12847:12893  SafeMath.sub(address(this).balance, msg.value) */\n      jump\t// in\n    tag_155:\n        /* \"contracts/BlastFurnace_flattened.sol\":12820:12835  calculateEggBuy */\n      tag_30\n        /* \"contracts/BlastFurnace_flattened.sol\":12820:12894  calculateEggBuy(msg.value, SafeMath.sub(address(this).balance, msg.value)) */\n      jump\t// in\n    tag_154:\n        /* \"contracts/BlastFurnace_flattened.sol\":12799:12894  uint256 eggsBought = calculateEggBuy(msg.value, SafeMath.sub(address(this).balance, msg.value)) */\n      swap1\n      pop\n        /* \"contracts/BlastFurnace_flattened.sol\":12912:12956  SafeMath.sub(eggsBought, devFee(eggsBought)) */\n      tag_156\n        /* \"contracts/BlastFurnace_flattened.sol\":12925:12935  eggsBought */\n      dup2\n        /* \"contracts/BlastFurnace_flattened.sol\":12937:12955  devFee(eggsBought) */\n      tag_157\n        /* \"contracts/BlastFurnace_flattened.sol\":12944:12954  eggsBought */\n      dup4\n        /* \"contracts/BlastFurnace_flattened.sol\":12937:12943  devFee */\n      tag_106\n        /* \"contracts/BlastFurnace_flattened.sol\":12937:12955  devFee(eggsBought) */\n      jump\t// in\n    tag_157:\n        /* \"contracts/BlastFurnace_flattened.sol\":12912:12924  SafeMath.sub */\n      tag_111\n        /* \"contracts/BlastFurnace_flattened.sol\":12912:12956  SafeMath.sub(eggsBought, devFee(eggsBought)) */\n      jump\t// in\n    tag_156:\n        /* \"contracts/BlastFurnace_flattened.sol\":12899:12956  eggsBought = SafeMath.sub(eggsBought, devFee(eggsBought)) */\n      swap1\n      pop\n        /* \"contracts/BlastFurnace_flattened.sol\":12961:12972  uint256 fee */\n      0x00\n        /* \"contracts/BlastFurnace_flattened.sol\":12975:12992  devFee(msg.value) */\n      tag_158\n        /* \"contracts/BlastFurnace_flattened.sol\":12982:12991  msg.value */\n      callvalue\n        /* \"contracts/BlastFurnace_flattened.sol\":12975:12981  devFee */\n      tag_106\n        /* \"contracts/BlastFurnace_flattened.sol\":12975:12992  devFee(msg.value) */\n      jump\t// in\n    tag_158:\n        /* \"contracts/BlastFurnace_flattened.sol\":12961:12992  uint256 fee = devFee(msg.value) */\n      swap1\n      pop\n        /* \"contracts/BlastFurnace_flattened.sol\":12997:13003  recAdd */\n      0x05\n      0x01\n      swap1\n      sload\n      swap1\n      0x0100\n      exp\n      swap1\n      div\n      0xffffffffffffffffffffffffffffffffffffffff\n      and\n        /* \"contracts/BlastFurnace_flattened.sol\":12997:13012  recAdd.transfer */\n      0xffffffffffffffffffffffffffffffffffffffff\n      and\n        /* \"contracts/BlastFurnace_flattened.sol\":12997:13017  recAdd.transfer(fee) */\n      0x08fc\n        /* \"contracts/BlastFurnace_flattened.sol\":13013:13016  fee */\n      dup3\n        /* \"contracts/BlastFurnace_flattened.sol\":12997:13017  recAdd.transfer(fee) */\n      swap1\n      dup2\n      iszero\n      mul\n      swap1\n      mload(0x40)\n      0x00\n      mload(0x40)\n      dup1\n      dup4\n      sub\n      dup2\n      dup6\n      dup9\n      dup9\n      call\n      swap4\n      pop\n      pop\n      pop\n      pop\n      iszero\n      dup1\n      iszero\n      tag_160\n      jumpi\n      returndatasize\n      0x00\n      dup1\n      returndatacopy\n      revert(0x00, returndatasize)\n    tag_160:\n      pop\n        /* \"contracts/BlastFurnace_flattened.sol\":13048:13097  SafeMath.add(claimedEggs[msg.sender], eggsBought) */\n      tag_161\n        /* \"contracts/BlastFurnace_flattened.sol\":13061:13072  claimedEggs */\n      0x07\n        /* \"contracts/BlastFurnace_flattened.sol\":13061:13084  claimedEggs[msg.sender] */\n      0x00\n        /* \"contracts/BlastFurnace_flattened.sol\":13073:13083  msg.sender */\n      caller\n        /* \"contracts/BlastFurnace_flattened.sol\":13061:13084  claimedEggs[msg.sender] */\n      0xffffffffffffffffffffffffffffffffffffffff\n      and\n      0xffffffffffffffffffffffffffffffffffffffff\n      and\n      dup2\n      mstore\n      0x20\n      add\n      swap1\n      dup2\n      mstore\n      0x20\n      add\n      0x00\n      keccak256\n      sload\n        /* \"contracts/BlastFurnace_flattened.sol\":13086:13096  eggsBought */\n      dup4\n        /* \"contracts/BlastFurnace_flattened.sol\":13048:13060  SafeMath.add */\n      tag_100\n        /* \"contracts/BlastFurnace_flattened.sol\":13048:13097  SafeMath.add(claimedEggs[msg.sender], eggsBought) */\n      jump\t// in\n    tag_161:\n        /* \"contracts/BlastFurnace_flattened.sol\":13022:13033  claimedEggs */\n      0x07\n        /* \"contracts/BlastFurnace_flattened.sol\":13022:13045  claimedEggs[msg.sender] */\n      0x00\n        /* \"contracts/BlastFurnace_flattened.sol\":13034:13044  msg.sender */\n      caller\n        /* \"contracts/BlastFurnace_flattened.sol\":13022:13045  claimedEggs[msg.sender] */\n      0xffffffffffffffffffffffffffffffffffffffff\n      and\n      0xffffffffffffffffffffffffffffffffffffffff\n      and\n      dup2\n      mstore\n      0x20\n      add\n      swap1\n      dup2\n      mstore\n      0x20\n      add\n      0x00\n      keccak256\n        /* \"contracts/BlastFurnace_flattened.sol\":13022:13097  claimedEggs[msg.sender] = SafeMath.add(claimedEggs[msg.sender], eggsBought) */\n      dup2\n      swap1\n      sstore\n      pop\n        /* \"contracts/BlastFurnace_flattened.sol\":13102:13116  hatchEggs(ref) */\n      tag_162\n        /* \"contracts/BlastFurnace_flattened.sol\":13112:13115  ref */\n      dup4\n        /* \"contracts/BlastFurnace_flattened.sol\":13102:13111  hatchEggs */\n      tag_46\n        /* \"contracts/BlastFurnace_flattened.sol\":13102:13116  hatchEggs(ref) */\n      jump\t// in\n    tag_162:\n        /* \"contracts/BlastFurnace_flattened.sol\":12769:13121  {... */\n      pop\n      pop\n        /* \"contracts/BlastFurnace_flattened.sol\":12724:13121  function buyEggs(address ref) public payable {... */\n      pop\n      jump\t// out\n        /* \"contracts/BlastFurnace_flattened.sol\":8026:8126  function transferOwnership(address newOwner) public onlyOwner {... */\n    tag_92:\n        /* \"contracts/BlastFurnace_flattened.sol\":7796:7805  isOwner() */\n      tag_164\n        /* \"contracts/BlastFurnace_flattened.sol\":7796:7803  isOwner */\n      tag_78\n        /* \"contracts/BlastFurnace_flattened.sol\":7796:7805  isOwner() */\n      jump\t// in\n    tag_164:\n        /* \"contracts/BlastFurnace_flattened.sol\":7788:7806  require(isOwner()) */\n      tag_165\n      jumpi\n      0x00\n      dup1\n      revert\n    tag_165:\n        /* \"contracts/BlastFurnace_flattened.sol\":8093:8121  _transferOwnership(newOwner) */\n      tag_167\n        /* \"contracts/BlastFurnace_flattened.sol\":8112:8120  newOwner */\n      dup2\n        /* \"contracts/BlastFurnace_flattened.sol\":8093:8111  _transferOwnership */\n      tag_168\n        /* \"contracts/BlastFurnace_flattened.sol\":8093:8121  _transferOwnership(newOwner) */\n      jump\t// in\n    tag_167:\n        /* \"contracts/BlastFurnace_flattened.sol\":8026:8126  function transferOwnership(address newOwner) public onlyOwner {... */\n      pop\n      jump\t// out\n        /* \"contracts/BlastFurnace_flattened.sol\":13126:13368  function calculateTrade(uint256 rt, uint256 rs, uint256 bs) private view returns (uint256) {... */\n    tag_96:\n        /* \"contracts/BlastFurnace_flattened.sol\":13208:13215  uint256 */\n      0x00\n        /* \"contracts/BlastFurnace_flattened.sol\":13229:13363  SafeMath.div(SafeMath.mul(PSN, bs), SafeMath.add(PSNH, SafeMath.div(SafeMath.add(SafeMath.mul(PSN, rs), SafeMath.mul(PSNH, rt)), rt))) */\n      tag_170\n        /* \"contracts/BlastFurnace_flattened.sol\":13242:13263  SafeMath.mul(PSN, bs) */\n      tag_171\n        /* \"contracts/BlastFurnace_flattened.sol\":13255:13258  PSN */\n      sload(0x02)\n        /* \"contracts/BlastFurnace_flattened.sol\":13260:13262  bs */\n      dup5\n        /* \"contracts/BlastFurnace_flattened.sol\":13242:13254  SafeMath.mul */\n      tag_151\n        /* \"contracts/BlastFurnace_flattened.sol\":13242:13263  SafeMath.mul(PSN, bs) */\n      jump\t// in\n    tag_171:\n        /* \"contracts/BlastFurnace_flattened.sol\":13265:13362  SafeMath.add(PSNH, SafeMath.div(SafeMath.add(SafeMath.mul(PSN, rs), SafeMath.mul(PSNH, rt)), rt)) */\n      tag_172\n        /* \"contracts/BlastFurnace_flattened.sol\":13278:13282  PSNH */\n      sload(0x03)\n        /* \"contracts/BlastFurnace_flattened.sol\":13284:13361  SafeMath.div(SafeMath.add(SafeMath.mul(PSN, rs), SafeMath.mul(PSNH, rt)), rt) */\n      tag_173\n        /* \"contracts/BlastFurnace_flattened.sol\":13297:13356  SafeMath.add(SafeMath.mul(PSN, rs), SafeMath.mul(PSNH, rt)) */\n      tag_174\n        /* \"contracts/BlastFurnace_flattened.sol\":13310:13331  SafeMath.mul(PSN, rs) */\n      tag_175\n        /* \"contracts/BlastFurnace_flattened.sol\":13323:13326  PSN */\n      sload(0x02)\n        /* \"contracts/BlastFurnace_flattened.sol\":13328:13330  rs */\n      dup11\n        /* \"contracts/BlastFurnace_flattened.sol\":13310:13322  SafeMath.mul */\n      tag_151\n        /* \"contracts/BlastFurnace_flattened.sol\":13310:13331  SafeMath.mul(PSN, rs) */\n      jump\t// in\n    tag_175:\n        /* \"contracts/BlastFurnace_flattened.sol\":13333:13355  SafeMath.mul(PSNH, rt) */\n      tag_176\n        /* \"contracts/BlastFurnace_flattened.sol\":13346:13350  PSNH */\n      sload(0x03)\n        /* \"contracts/BlastFurnace_flattened.sol\":13352:13354  rt */\n      dup13\n        /* \"contracts/BlastFurnace_flattened.sol\":13333:13345  SafeMath.mul */\n      tag_151\n        /* \"contracts/BlastFurnace_flattened.sol\":13333:13355  SafeMath.mul(PSNH, rt) */\n      jump\t// in\n    tag_176:\n        /* \"contracts/BlastFurnace_flattened.sol\":13297:13309  SafeMath.add */\n      tag_100\n        /* \"contracts/BlastFurnace_flattened.sol\":13297:13356  SafeMath.add(SafeMath.mul(PSN, rs), SafeMath.mul(PSNH, rt)) */\n      jump\t// in\n    tag_174:\n        /* \"contracts/BlastFurnace_flattened.sol\":13358:13360  rt */\n      dup10\n        /* \"contracts/BlastFurnace_flattened.sol\":13284:13296  SafeMath.div */\n      tag_126\n        /* \"contracts/BlastFurnace_flattened.sol\":13284:13361  SafeMath.div(SafeMath.add(SafeMath.mul(PSN, rs), SafeMath.mul(PSNH, rt)), rt) */\n      jump\t// in\n    tag_173:\n        /* \"contracts/BlastFurnace_flattened.sol\":13265:13277  SafeMath.add */\n      tag_100\n        /* \"contracts/BlastFurnace_flattened.sol\":13265:13362  SafeMath.add(PSNH, SafeMath.div(SafeMath.add(SafeMath.mul(PSN, rs), SafeMath.mul(PSNH, rt)), rt)) */\n      jump\t// in\n    tag_172:\n        /* \"contracts/BlastFurnace_flattened.sol\":13229:13241  SafeMath.div */\n      tag_126\n        /* \"contracts/BlastFurnace_flattened.sol\":13229:13363  SafeMath.div(SafeMath.mul(PSN, bs), SafeMath.add(PSNH, SafeMath.div(SafeMath.add(SafeMath.mul(PSN, rs), SafeMath.mul(PSNH, rt)), rt))) */\n      jump\t// in\n    tag_170:\n        /* \"contracts/BlastFurnace_flattened.sol\":13222:13363  return SafeMath.div(SafeMath.mul(PSN, bs), SafeMath.add(PSNH, SafeMath.div(SafeMath.add(SafeMath.mul(PSN, rs), SafeMath.mul(PSNH, rt)), rt))) */\n      swap1\n      pop\n        /* \"contracts/BlastFurnace_flattened.sol\":13126:13368  function calculateTrade(uint256 rt, uint256 rs, uint256 bs) private view returns (uint256) {... */\n      swap4\n      swap3\n      pop\n      pop\n      pop\n      jump\t// out\n        /* \"contracts/BlastFurnace_flattened.sol\":3724:3813  function add(uint256 a, uint256 b) internal pure returns (uint256) {... */\n    tag_100:\n        /* \"contracts/BlastFurnace_flattened.sol\":3782:3789  uint256 */\n      0x00\n        /* \"contracts/BlastFurnace_flattened.sol\":3807:3808  b */\n      dup2\n        /* \"contracts/BlastFurnace_flattened.sol\":3803:3804  a */\n      dup4\n        /* \"contracts/BlastFurnace_flattened.sol\":3803:3808  a + b */\n      tag_178\n      swap2\n      swap1\n      tag_179\n      jump\t// in\n    tag_178:\n        /* \"contracts/BlastFurnace_flattened.sol\":3796:3808  return a + b */\n      swap1\n      pop\n        /* \"contracts/BlastFurnace_flattened.sol\":3724:3813  function add(uint256 a, uint256 b) internal pure returns (uint256) {... */\n      swap3\n      swap2\n      pop\n      pop\n      jump\t// out\n        /* \"contracts/BlastFurnace_flattened.sol\":13822:13952  function devFee(uint256 amount) private view returns (uint256) {... */\n    tag_106:\n        /* \"contracts/BlastFurnace_flattened.sol\":13876:13883  uint256 */\n      0x00\n        /* \"contracts/BlastFurnace_flattened.sol\":13897:13947  SafeMath.div(SafeMath.mul(amount, devFeeVal), 100) */\n      tag_181\n        /* \"contracts/BlastFurnace_flattened.sol\":13910:13941  SafeMath.mul(amount, devFeeVal) */\n      tag_182\n        /* \"contracts/BlastFurnace_flattened.sol\":13923:13929  amount */\n      dup4\n        /* \"contracts/BlastFurnace_flattened.sol\":13931:13940  devFeeVal */\n      sload(0x04)\n        /* \"contracts/BlastFurnace_flattened.sol\":13910:13922  SafeMath.mul */\n      tag_151\n        /* \"contracts/BlastFurnace_flattened.sol\":13910:13941  SafeMath.mul(amount, devFeeVal) */\n      jump\t// in\n    tag_182:\n        /* \"contracts/BlastFurnace_flattened.sol\":13943:13946  100 */\n      0x64\n        /* \"contracts/BlastFurnace_flattened.sol\":13897:13909  SafeMath.div */\n      tag_126\n        /* \"contracts/BlastFurnace_flattened.sol\":13897:13947  SafeMath.div(SafeMath.mul(amount, devFeeVal), 100) */\n      jump\t// in\n    tag_181:\n        /* \"contracts/BlastFurnace_flattened.sol\":13890:13947  return SafeMath.div(SafeMath.mul(amount, devFeeVal), 100) */\n      swap1\n      pop\n        /* \"contracts/BlastFurnace_flattened.sol\":13822:13952  function devFee(uint256 amount) private view returns (uint256) {... */\n      swap2\n      swap1\n      pop\n      jump\t// out\n        /* \"contracts/BlastFurnace_flattened.sol\":4063:4152  function sub(uint256 a, uint256 b) internal pure returns (uint256) {... */\n    tag_111:\n        /* \"contracts/BlastFurnace_flattened.sol\":4121:4128  uint256 */\n      0x00\n        /* \"contracts/BlastFurnace_flattened.sol\":4146:4147  b */\n      dup2\n        /* \"contracts/BlastFurnace_flattened.sol\":4142:4143  a */\n      dup4\n        /* \"contracts/BlastFurnace_flattened.sol\":4142:4147  a - b */\n      tag_184\n      swap2\n      swap1\n      tag_185\n      jump\t// in\n    tag_184:\n        /* \"contracts/BlastFurnace_flattened.sol\":4135:4147  return a - b */\n      swap1\n      pop\n        /* \"contracts/BlastFurnace_flattened.sol\":4063:4152  function sub(uint256 a, uint256 b) internal pure returns (uint256) {... */\n      swap3\n      swap2\n      pop\n      pop\n      jump\t// out\n        /* \"contracts/BlastFurnace_flattened.sol\":4735:4824  function div(uint256 a, uint256 b) internal pure returns (uint256) {... */\n    tag_126:\n        /* \"contracts/BlastFurnace_flattened.sol\":4793:4800  uint256 */\n      0x00\n        /* \"contracts/BlastFurnace_flattened.sol\":4818:4819  b */\n      dup2\n        /* \"contracts/BlastFurnace_flattened.sol\":4814:4815  a */\n      dup4\n        /* \"contracts/BlastFurnace_flattened.sol\":4814:4819  a / b */\n      tag_187\n      swap2\n      swap1\n      tag_188\n      jump\t// in\n    tag_187:\n        /* \"contracts/BlastFurnace_flattened.sol\":4807:4819  return a / b */\n      swap1\n      pop\n        /* \"contracts/BlastFurnace_flattened.sol\":4735:4824  function div(uint256 a, uint256 b) internal pure returns (uint256) {... */\n      swap3\n      swap2\n      pop\n      pop\n      jump\t// out\n        /* \"contracts/BlastFurnace_flattened.sol\":14684:14780  function min(uint256 a, uint256 b) private pure returns (uint256) {... */\n    tag_149:\n        /* \"contracts/BlastFurnace_flattened.sol\":14741:14748  uint256 */\n      0x00\n        /* \"contracts/BlastFurnace_flattened.sol\":14766:14767  b */\n      dup2\n        /* \"contracts/BlastFurnace_flattened.sol\":14762:14763  a */\n      dup4\n        /* \"contracts/BlastFurnace_flattened.sol\":14762:14767  a < b */\n      lt\n        /* \"contracts/BlastFurnace_flattened.sol\":14762:14775  a < b ? a : b */\n      tag_190\n      jumpi\n        /* \"contracts/BlastFurnace_flattened.sol\":14774:14775  b */\n      dup2\n        /* \"contracts/BlastFurnace_flattened.sol\":14762:14775  a < b ? a : b */\n      jump(tag_191)\n    tag_190:\n        /* \"contracts/BlastFurnace_flattened.sol\":14770:14771  a */\n      dup3\n        /* \"contracts/BlastFurnace_flattened.sol\":14762:14775  a < b ? a : b */\n    tag_191:\n        /* \"contracts/BlastFurnace_flattened.sol\":14755:14775  return a < b ? a : b */\n      swap1\n      pop\n        /* \"contracts/BlastFurnace_flattened.sol\":14684:14780  function min(uint256 a, uint256 b) private pure returns (uint256) {... */\n      swap3\n      swap2\n      pop\n      pop\n      jump\t// out\n        /* \"contracts/BlastFurnace_flattened.sol\":4378:4467  function mul(uint256 a, uint256 b) internal pure returns (uint256) {... */\n    tag_151:\n        /* \"contracts/BlastFurnace_flattened.sol\":4436:4443  uint256 */\n      0x00\n        /* \"contracts/BlastFurnace_flattened.sol\":4461:4462  b */\n      dup2\n        /* \"contracts/BlastFurnace_flattened.sol\":4457:4458  a */\n      dup4\n        /* \"contracts/BlastFurnace_flattened.sol\":4457:4462  a * b */\n      tag_193\n      swap2\n      swap1\n      tag_194\n      jump\t// in\n    tag_193:\n        /* \"contracts/BlastFurnace_flattened.sol\":4450:4462  return a * b */\n      swap1\n      pop\n        /* \"contracts/BlastFurnace_flattened.sol\":4378:4467  function mul(uint256 a, uint256 b) internal pure returns (uint256) {... */\n      swap3\n      swap2\n      pop\n      pop\n      jump\t// out\n        /* \"contracts/BlastFurnace_flattened.sol\":8131:8297  function _transferOwnership(address newOwner) internal {... */\n    tag_168:\n        /* \"contracts/BlastFurnace_flattened.sol\":8219:8220  0 */\n      0x00\n        /* \"contracts/BlastFurnace_flattened.sol\":8199:8221  newOwner != address(0) */\n      0xffffffffffffffffffffffffffffffffffffffff\n      and\n        /* \"contracts/BlastFurnace_flattened.sol\":8199:8207  newOwner */\n      dup2\n        /* \"contracts/BlastFurnace_flattened.sol\":8199:8221  newOwner != address(0) */\n      0xffffffffffffffffffffffffffffffffffffffff\n      and\n      sub\n        /* \"contracts/BlastFurnace_flattened.sol\":8191:8222  require(newOwner != address(0)) */\n      tag_196\n      jumpi\n      0x00\n      dup1\n      revert\n    tag_196:\n        /* \"contracts/BlastFurnace_flattened.sol\":8261:8269  newOwner */\n      dup1\n        /* \"contracts/BlastFurnace_flattened.sol\":8232:8270  OwnershipTransferred(_owner, newOwner) */\n      0xffffffffffffffffffffffffffffffffffffffff\n      and\n        /* \"contracts/BlastFurnace_flattened.sol\":8253:8259  _owner */\n      0x00\n      dup1\n      sload\n      swap1\n      0x0100\n      exp\n      swap1\n      div\n      0xffffffffffffffffffffffffffffffffffffffff\n      and\n        /* \"contracts/BlastFurnace_flattened.sol\":8232:8270  OwnershipTransferred(_owner, newOwner) */\n      0xffffffffffffffffffffffffffffffffffffffff\n      and\n      0x8be0079c531659141344cd1fd0a4f28419497f9722a3daafe3b4186f6b6457e0\n      mload(0x40)\n      mload(0x40)\n      dup1\n      swap2\n      sub\n      swap1\n      log3\n        /* \"contracts/BlastFurnace_flattened.sol\":8284:8292  newOwner */\n      dup1\n        /* \"contracts/BlastFurnace_flattened.sol\":8275:8281  _owner */\n      0x00\n      dup1\n        /* \"contracts/BlastFurnace_flattened.sol\":8275:8292  _owner = newOwner */\n      0x0100\n      exp\n      dup2\n      sload\n      dup2\n      0xffffffffffffffffffffffffffffffffffffffff\n      mul\n      not\n      and\n      swap1\n      dup4\n      0xffffffffffffffffffffffffffffffffffffffff\n      and\n      mul\n      or\n      swap1\n      sstore\n      pop\n        /* \"contracts/BlastFurnace_flattened.sol\":8131:8297  function _transferOwnership(address newOwner) internal {... */\n      pop\n      jump\t// out\n        /* \"#utility.yul\":7:84   */\n    tag_197:\n        /* \"#utility.yul\":44:51   */\n      0x00\n        /* \"#utility.yul\":73:78   */\n      dup2\n        /* \"#utility.yul\":62:78   */\n      swap1\n      pop\n        /* \"#utility.yul\":7:84   */\n      swap2\n      swap1\n      pop\n      jump\t// out\n        /* \"#utility.yul\":90:208   */\n    tag_198:\n        /* \"#utility.yul\":177:201   */\n      tag_216\n        /* \"#utility.yul\":195:200   */\n      dup2\n        /* \"#utility.yul\":177:201   */\n      tag_197\n      jump\t// in\n    tag_216:\n        /* \"#utility.yul\":172:175   */\n      dup3\n        /* \"#utility.yul\":165:202   */\n      mstore\n        /* \"#utility.yul\":90:208   */\n      pop\n      pop\n      jump\t// out\n        /* \"#utility.yul\":214:436   */\n    tag_25:\n        /* \"#utility.yul\":307:311   */\n      0x00\n        /* \"#utility.yul\":345:347   */\n      0x20\n        /* \"#utility.yul\":334:343   */\n      dup3\n        /* \"#utility.yul\":330:348   */\n      add\n        /* \"#utility.yul\":322:348   */\n      swap1\n      pop\n        /* \"#utility.yul\":358:429   */\n      tag_218\n        /* \"#utility.yul\":426:427   */\n      0x00\n        /* \"#utility.yul\":415:424   */\n      dup4\n        /* \"#utility.yul\":411:428   */\n      add\n        /* \"#utility.yul\":402:408   */\n      dup5\n        /* \"#utility.yul\":358:429   */\n      tag_198\n      jump\t// in\n    tag_218:\n        /* \"#utility.yul\":214:436   */\n      swap3\n      swap2\n      pop\n      pop\n      jump\t// out\n        /* \"#utility.yul\":523:640   */\n    tag_200:\n        /* \"#utility.yul\":632:633   */\n      0x00\n        /* \"#utility.yul\":629:630   */\n      dup1\n        /* \"#utility.yul\":622:634   */\n      revert\n        /* \"#utility.yul\":769:891   */\n    tag_202:\n        /* \"#utility.yul\":842:866   */\n      tag_223\n        /* \"#utility.yul\":860:865   */\n      dup2\n        /* \"#utility.yul\":842:866   */\n      tag_197\n      jump\t// in\n    tag_223:\n        /* \"#utility.yul\":835:840   */\n      dup2\n        /* \"#utility.yul\":832:867   */\n      eq\n        /* \"#utility.yul\":822:885   */\n      tag_224\n      jumpi\n        /* \"#utility.yul\":881:882   */\n      0x00\n        /* \"#utility.yul\":878:879   */\n      dup1\n        /* \"#utility.yul\":871:883   */\n      revert\n        /* \"#utility.yul\":822:885   */\n    tag_224:\n        /* \"#utility.yul\":769:891   */\n      pop\n      jump\t// out\n        /* \"#utility.yul\":897:1036   */\n    tag_203:\n        /* \"#utility.yul\":943:948   */\n      0x00\n        /* \"#utility.yul\":981:987   */\n      dup2\n        /* \"#utility.yul\":968:988   */\n      calldataload\n        /* \"#utility.yul\":959:988   */\n      swap1\n      pop\n        /* \"#utility.yul\":997:1030   */\n      tag_226\n        /* \"#utility.yul\":1024:1029   */\n      dup2\n        /* \"#utility.yul\":997:1030   */\n      tag_202\n      jump\t// in\n    tag_226:\n        /* \"#utility.yul\":897:1036   */\n      swap3\n      swap2\n      pop\n      pop\n      jump\t// out\n        /* \"#utility.yul\":1042:1516   */\n    tag_29:\n        /* \"#utility.yul\":1110:1116   */\n      0x00\n        /* \"#utility.yul\":1118:1124   */\n      dup1\n        /* \"#utility.yul\":1167:1169   */\n      0x40\n        /* \"#utility.yul\":1155:1164   */\n      dup4\n        /* \"#utility.yul\":1146:1153   */\n      dup6\n        /* \"#utility.yul\":1142:1165   */\n      sub\n        /* \"#utility.yul\":1138:1170   */\n      slt\n        /* \"#utility.yul\":1135:1254   */\n      iszero\n      tag_228\n      jumpi\n        /* \"#utility.yul\":1173:1252   */\n      tag_229\n      tag_200\n      jump\t// in\n    tag_229:\n        /* \"#utility.yul\":1135:1254   */\n    tag_228:\n        /* \"#utility.yul\":1293:1294   */\n      0x00\n        /* \"#utility.yul\":1318:1371   */\n      tag_230\n        /* \"#utility.yul\":1363:1370   */\n      dup6\n        /* \"#utility.yul\":1354:1360   */\n      dup3\n        /* \"#utility.yul\":1343:1352   */\n      dup7\n        /* \"#utility.yul\":1339:1361   */\n      add\n        /* \"#utility.yul\":1318:1371   */\n      tag_203\n      jump\t// in\n    tag_230:\n        /* \"#utility.yul\":1308:1371   */\n      swap3\n      pop\n        /* \"#utility.yul\":1264:1381   */\n      pop\n        /* \"#utility.yul\":1420:1422   */\n      0x20\n        /* \"#utility.yul\":1446:1499   */\n      tag_231\n        /* \"#utility.yul\":1491:1498   */\n      dup6\n        /* \"#utility.yul\":1482:1488   */\n      dup3\n        /* \"#utility.yul\":1471:1480   */\n      dup7\n        /* \"#utility.yul\":1467:1489   */\n      add\n        /* \"#utility.yul\":1446:1499   */\n      tag_203\n      jump\t// in\n    tag_231:\n        /* \"#utility.yul\":1436:1499   */\n      swap2\n      pop\n        /* \"#utility.yul\":1391:1509   */\n      pop\n        /* \"#utility.yul\":1042:1516   */\n      swap3\n      pop\n      swap3\n      swap1\n      pop\n      jump\t// out\n        /* \"#utility.yul\":1522:1648   */\n    tag_204:\n        /* \"#utility.yul\":1559:1566   */\n      0x00\n        /* \"#utility.yul\":1599:1641   */\n      0xffffffffffffffffffffffffffffffffffffffff\n        /* \"#utility.yul\":1592:1597   */\n      dup3\n        /* \"#utility.yul\":1588:1642   */\n      and\n        /* \"#utility.yul\":1577:1642   */\n      swap1\n      pop\n        /* \"#utility.yul\":1522:1648   */\n      swap2\n      swap1\n      pop\n      jump\t// out\n        /* \"#utility.yul\":1654:1750   */\n    tag_205:\n        /* \"#utility.yul\":1691:1698   */\n      0x00\n        /* \"#utility.yul\":1720:1744   */\n      tag_234\n        /* \"#utility.yul\":1738:1743   */\n      dup3\n        /* \"#utility.yul\":1720:1744   */\n      tag_204\n      jump\t// in\n    tag_234:\n        /* \"#utility.yul\":1709:1744   */\n      swap1\n      pop\n        /* \"#utility.yul\":1654:1750   */\n      swap2\n      swap1\n      pop\n      jump\t// out\n        /* \"#utility.yul\":1756:1878   */\n    tag_206:\n        /* \"#utility.yul\":1829:1853   */\n      tag_236\n        /* \"#utility.yul\":1847:1852   */\n      dup2\n        /* \"#utility.yul\":1829:1853   */\n      tag_205\n      jump\t// in\n    tag_236:\n        /* \"#utility.yul\":1822:1827   */\n      dup2\n        /* \"#utility.yul\":1819:1854   */\n      eq\n        /* \"#utility.yul\":1809:1872   */\n      tag_237\n      jumpi\n        /* \"#utility.yul\":1868:1869   */\n      0x00\n        /* \"#utility.yul\":1865:1866   */\n      dup1\n        /* \"#utility.yul\":1858:1870   */\n      revert\n        /* \"#utility.yul\":1809:1872   */\n    tag_237:\n        /* \"#utility.yul\":1756:1878   */\n      pop\n      jump\t// out\n        /* \"#utility.yul\":1884:2023   */\n    tag_207:\n        /* \"#utility.yul\":1930:1935   */\n      0x00\n        /* \"#utility.yul\":1968:1974   */\n      dup2\n        /* \"#utility.yul\":1955:1975   */\n      calldataload\n        /* \"#utility.yul\":1946:1975   */\n      swap1\n      pop\n        /* \"#utility.yul\":1984:2017   */\n      tag_239\n        /* \"#utility.yul\":2011:2016   */\n      dup2\n        /* \"#utility.yul\":1984:2017   */\n      tag_206\n      jump\t// in\n    tag_239:\n        /* \"#utility.yul\":1884:2023   */\n      swap3\n      swap2\n      pop\n      pop\n      jump\t// out\n        /* \"#utility.yul\":2029:2358   */\n    tag_35:\n        /* \"#utility.yul\":2088:2094   */\n      0x00\n        /* \"#utility.yul\":2137:2139   */\n      0x20\n        /* \"#utility.yul\":2125:2134   */\n      dup3\n        /* \"#utility.yul\":2116:2123   */\n      dup5\n        /* \"#utility.yul\":2112:2135   */\n      sub\n        /* \"#utility.yul\":2108:2140   */\n      slt\n        /* \"#utility.yul\":2105:2224   */\n      iszero\n      tag_241\n      jumpi\n        /* \"#utility.yul\":2143:2222   */\n      tag_242\n      tag_200\n      jump\t// in\n    tag_242:\n        /* \"#utility.yul\":2105:2224   */\n    tag_241:\n        /* \"#utility.yul\":2263:2264   */\n      0x00\n        /* \"#utility.yul\":2288:2341   */\n      tag_243\n        /* \"#utility.yul\":2333:2340   */\n      dup5\n        /* \"#utility.yul\":2324:2330   */\n      dup3\n        /* \"#utility.yul\":2313:2322   */\n      dup6\n        /* \"#utility.yul\":2309:2331   */\n      add\n        /* \"#utility.yul\":2288:2341   */\n      tag_207\n      jump\t// in\n    tag_243:\n        /* \"#utility.yul\":2278:2341   */\n      swap2\n      pop\n        /* \"#utility.yul\":2234:2351   */\n      pop\n        /* \"#utility.yul\":2029:2358   */\n      swap3\n      swap2\n      pop\n      pop\n      jump\t// out\n        /* \"#utility.yul\":2364:2693   */\n    tag_63:\n        /* \"#utility.yul\":2423:2429   */\n      0x00\n        /* \"#utility.yul\":2472:2474   */\n      0x20\n        /* \"#utility.yul\":2460:2469   */\n      dup3\n        /* \"#utility.yul\":2451:2458   */\n      dup5\n        /* \"#utility.yul\":2447:2470   */\n      sub\n        /* \"#utility.yul\":2443:2475   */\n      slt\n        /* \"#utility.yul\":2440:2559   */\n      iszero\n      tag_245\n      jumpi\n        /* \"#utility.yul\":2478:2557   */\n      tag_246\n      tag_200\n      jump\t// in\n    tag_246:\n        /* \"#utility.yul\":2440:2559   */\n    tag_245:\n        /* \"#utility.yul\":2598:2599   */\n      0x00\n        /* \"#utility.yul\":2623:2676   */\n      tag_247\n        /* \"#utility.yul\":2668:2675   */\n      dup5\n        /* \"#utility.yul\":2659:2665   */\n      dup3\n        /* \"#utility.yul\":2648:2657   */\n      dup6\n        /* \"#utility.yul\":2644:2666   */\n      add\n        /* \"#utility.yul\":2623:2676   */\n      tag_203\n      jump\t// in\n    tag_247:\n        /* \"#utility.yul\":2613:2676   */\n      swap2\n      pop\n        /* \"#utility.yul\":2569:2686   */\n      pop\n        /* \"#utility.yul\":2364:2693   */\n      swap3\n      swap2\n      pop\n      pop\n      jump\t// out\n        /* \"#utility.yul\":2699:2817   */\n    tag_208:\n        /* \"#utility.yul\":2786:2810   */\n      tag_249\n        /* \"#utility.yul\":2804:2809   */\n      dup2\n        /* \"#utility.yul\":2786:2810   */\n      tag_205\n      jump\t// in\n    tag_249:\n        /* \"#utility.yul\":2781:2784   */\n      dup3\n        /* \"#utility.yul\":2774:2811   */\n      mstore\n        /* \"#utility.yul\":2699:2817   */\n      pop\n      pop\n      jump\t// out\n        /* \"#utility.yul\":2823:3045   */\n    tag_70:\n        /* \"#utility.yul\":2916:2920   */\n      0x00\n        /* \"#utility.yul\":2954:2956   */\n      0x20\n        /* \"#utility.yul\":2943:2952   */\n      dup3\n        /* \"#utility.yul\":2939:2957   */\n      add\n        /* \"#utility.yul\":2931:2957   */\n      swap1\n      pop\n        /* \"#utility.yul\":2967:3038   */\n      tag_251\n        /* \"#utility.yul\":3035:3036   */\n      0x00\n        /* \"#utility.yul\":3024:3033   */\n      dup4\n        /* \"#utility.yul\":3020:3037   */\n      add\n        /* \"#utility.yul\":3011:3017   */\n      dup5\n        /* \"#utility.yul\":2967:3038   */\n      tag_208\n      jump\t// in\n    tag_251:\n        /* \"#utility.yul\":2823:3045   */\n      swap3\n      swap2\n      pop\n      pop\n      jump\t// out\n        /* \"#utility.yul\":3051:3141   */\n    tag_209:\n        /* \"#utility.yul\":3085:3092   */\n      0x00\n        /* \"#utility.yul\":3128:3133   */\n      dup2\n        /* \"#utility.yul\":3121:3134   */\n      iszero\n        /* \"#utility.yul\":3114:3135   */\n      iszero\n        /* \"#utility.yul\":3103:3135   */\n      swap1\n      pop\n        /* \"#utility.yul\":3051:3141   */\n      swap2\n      swap1\n      pop\n      jump\t// out\n        /* \"#utility.yul\":3147:3256   */\n    tag_210:\n        /* \"#utility.yul\":3228:3249   */\n      tag_254\n        /* \"#utility.yul\":3243:3248   */\n      dup2\n        /* \"#utility.yul\":3228:3249   */\n      tag_209\n      jump\t// in\n    tag_254:\n        /* \"#utility.yul\":3223:3226   */\n      dup3\n        /* \"#utility.yul\":3216:3250   */\n      mstore\n        /* \"#utility.yul\":3147:3256   */\n      pop\n      pop\n      jump\t// out\n        /* \"#utility.yul\":3262:3472   */\n    tag_80:\n        /* \"#utility.yul\":3349:3353   */\n      0x00\n        /* \"#utility.yul\":3387:3389   */\n      0x20\n        /* \"#utility.yul\":3376:3385   */\n      dup3\n        /* \"#utility.yul\":3372:3390   */\n      add\n        /* \"#utility.yul\":3364:3390   */\n      swap1\n      pop\n        /* \"#utility.yul\":3400:3465   */\n      tag_256\n        /* \"#utility.yul\":3462:3463   */\n      0x00\n        /* \"#utility.yul\":3451:3460   */\n      dup4\n        /* \"#utility.yul\":3447:3464   */\n      add\n        /* \"#utility.yul\":3438:3444   */\n      dup5\n        /* \"#utility.yul\":3400:3465   */\n      tag_210\n      jump\t// in\n    tag_256:\n        /* \"#utility.yul\":3262:3472   */\n      swap3\n      swap2\n      pop\n      pop\n      jump\t// out\n        /* \"#utility.yul\":3478:3658   */\n    tag_211:\n        /* \"#utility.yul\":3526:3603   */\n      0x4e487b7100000000000000000000000000000000000000000000000000000000\n        /* \"#utility.yul\":3523:3524   */\n      0x00\n        /* \"#utility.yul\":3516:3604   */\n      mstore\n        /* \"#utility.yul\":3623:3627   */\n      0x11\n        /* \"#utility.yul\":3620:3621   */\n      0x04\n        /* \"#utility.yul\":3613:3628   */\n      mstore\n        /* \"#utility.yul\":3647:3651   */\n      0x24\n        /* \"#utility.yul\":3644:3645   */\n      0x00\n        /* \"#utility.yul\":3637:3652   */\n      revert\n        /* \"#utility.yul\":3664:3855   */\n    tag_179:\n        /* \"#utility.yul\":3704:3707   */\n      0x00\n        /* \"#utility.yul\":3723:3743   */\n      tag_259\n        /* \"#utility.yul\":3741:3742   */\n      dup3\n        /* \"#utility.yul\":3723:3743   */\n      tag_197\n      jump\t// in\n    tag_259:\n        /* \"#utility.yul\":3718:3743   */\n      swap2\n      pop\n        /* \"#utility.yul\":3757:3777   */\n      tag_260\n        /* \"#utility.yul\":3775:3776   */\n      dup4\n        /* \"#utility.yul\":3757:3777   */\n      tag_197\n      jump\t// in\n    tag_260:\n        /* \"#utility.yul\":3752:3777   */\n      swap3\n      pop\n        /* \"#utility.yul\":3800:3801   */\n      dup3\n        /* \"#utility.yul\":3797:3798   */\n      dup3\n        /* \"#utility.yul\":3793:3802   */\n      add\n        /* \"#utility.yul\":3786:3802   */\n      swap1\n      pop\n        /* \"#utility.yul\":3821:3824   */\n      dup1\n        /* \"#utility.yul\":3818:3819   */\n      dup3\n        /* \"#utility.yul\":3815:3825   */\n      gt\n        /* \"#utility.yul\":3812:3848   */\n      iszero\n      tag_261\n      jumpi\n        /* \"#utility.yul\":3828:3846   */\n      tag_262\n      tag_211\n      jump\t// in\n    tag_262:\n        /* \"#utility.yul\":3812:3848   */\n    tag_261:\n        /* \"#utility.yul\":3664:3855   */\n      swap3\n      swap2\n      pop\n      pop\n      jump\t// out\n        /* \"#utility.yul\":3861:4055   */\n    tag_185:\n        /* \"#utility.yul\":3901:3905   */\n      0x00\n        /* \"#utility.yul\":3921:3941   */\n      tag_264\n        /* \"#utility.yul\":3939:3940   */\n      dup3\n        /* \"#utility.yul\":3921:3941   */\n      tag_197\n      jump\t// in\n    tag_264:\n        /* \"#utility.yul\":3916:3941   */\n      swap2\n      pop\n        /* \"#utility.yul\":3955:3975   */\n      tag_265\n        /* \"#utility.yul\":3973:3974   */\n      dup4\n        /* \"#utility.yul\":3955:3975   */\n      tag_197\n      jump\t// in\n    tag_265:\n        /* \"#utility.yul\":3950:3975   */\n      swap3\n      pop\n        /* \"#utility.yul\":3999:4000   */\n      dup3\n        /* \"#utility.yul\":3996:3997   */\n      dup3\n        /* \"#utility.yul\":3992:4001   */\n      sub\n        /* \"#utility.yul\":3984:4001   */\n      swap1\n      pop\n        /* \"#utility.yul\":4023:4024   */\n      dup2\n        /* \"#utility.yul\":4017:4021   */\n      dup2\n        /* \"#utility.yul\":4014:4025   */\n      gt\n        /* \"#utility.yul\":4011:4048   */\n      iszero\n      tag_266\n      jumpi\n        /* \"#utility.yul\":4028:4046   */\n      tag_267\n      tag_211\n      jump\t// in\n    tag_267:\n        /* \"#utility.yul\":4011:4048   */\n    tag_266:\n        /* \"#utility.yul\":3861:4055   */\n      swap3\n      swap2\n      pop\n      pop\n      jump\t// out\n        /* \"#utility.yul\":4061:4241   */\n    tag_212:\n        /* \"#utility.yul\":4109:4186   */\n      0x4e487b7100000000000000000000000000000000000000000000000000000000\n        /* \"#utility.yul\":4106:4107   */\n      0x00\n        /* \"#utility.yul\":4099:4187   */\n      mstore\n        /* \"#utility.yul\":4206:4210   */\n      0x12\n        /* \"#utility.yul\":4203:4204   */\n      0x04\n        /* \"#utility.yul\":4196:4211   */\n      mstore\n        /* \"#utility.yul\":4230:4234   */\n      0x24\n        /* \"#utility.yul\":4227:4228   */\n      0x00\n        /* \"#utility.yul\":4220:4235   */\n      revert\n        /* \"#utility.yul\":4247:4432   */\n    tag_188:\n        /* \"#utility.yul\":4287:4288   */\n      0x00\n        /* \"#utility.yul\":4304:4324   */\n      tag_270\n        /* \"#utility.yul\":4322:4323   */\n      dup3\n        /* \"#utility.yul\":4304:4324   */\n      tag_197\n      jump\t// in\n    tag_270:\n        /* \"#utility.yul\":4299:4324   */\n      swap2\n      pop\n        /* \"#utility.yul\":4338:4358   */\n      tag_271\n        /* \"#utility.yul\":4356:4357   */\n      dup4\n        /* \"#utility.yul\":4338:4358   */\n      tag_197\n      jump\t// in\n    tag_271:\n        /* \"#utility.yul\":4333:4358   */\n      swap3\n      pop\n        /* \"#utility.yul\":4377:4378   */\n      dup3\n        /* \"#utility.yul\":4367:4402   */\n      tag_272\n      jumpi\n        /* \"#utility.yul\":4382:4400   */\n      tag_273\n      tag_212\n      jump\t// in\n    tag_273:\n        /* \"#utility.yul\":4367:4402   */\n    tag_272:\n        /* \"#utility.yul\":4424:4425   */\n      dup3\n        /* \"#utility.yul\":4421:4422   */\n      dup3\n        /* \"#utility.yul\":4417:4426   */\n      div\n        /* \"#utility.yul\":4412:4426   */\n      swap1\n      pop\n        /* \"#utility.yul\":4247:4432   */\n      swap3\n      swap2\n      pop\n      pop\n      jump\t// out\n        /* \"#utility.yul\":4438:4848   */\n    tag_194:\n        /* \"#utility.yul\":4478:4485   */\n      0x00\n        /* \"#utility.yul\":4501:4521   */\n      tag_275\n        /* \"#utility.yul\":4519:4520   */\n      dup3\n        /* \"#utility.yul\":4501:4521   */\n      tag_197\n      jump\t// in\n    tag_275:\n        /* \"#utility.yul\":4496:4521   */\n      swap2\n      pop\n        /* \"#utility.yul\":4535:4555   */\n      tag_276\n        /* \"#utility.yul\":4553:4554   */\n      dup4\n        /* \"#utility.yul\":4535:4555   */\n      tag_197\n      jump\t// in\n    tag_276:\n        /* \"#utility.yul\":4530:4555   */\n      swap3\n      pop\n        /* \"#utility.yul\":4590:4591   */\n      dup3\n        /* \"#utility.yul\":4587:4588   */\n      dup3\n        /* \"#utility.yul\":4583:4592   */\n      mul\n        /* \"#utility.yul\":4612:4642   */\n      tag_277\n        /* \"#utility.yul\":4630:4641   */\n      dup2\n        /* \"#utility.yul\":4612:4642   */\n      tag_197\n      jump\t// in\n    tag_277:\n        /* \"#utility.yul\":4601:4642   */\n      swap2\n      pop\n        /* \"#utility.yul\":4791:4792   */\n      dup3\n        /* \"#utility.yul\":4782:4789   */\n      dup3\n        /* \"#utility.yul\":4778:4793   */\n      div\n        /* \"#utility.yul\":4775:4776   */\n      dup5\n        /* \"#utility.yul\":4772:4794   */\n      eq\n        /* \"#utility.yul\":4752:4753   */\n      dup4\n        /* \"#utility.yul\":4745:4754   */\n      iszero\n        /* \"#utility.yul\":4725:4808   */\n      or\n        /* \"#utility.yul\":4702:4841   */\n      tag_278\n      jumpi\n        /* \"#utility.yul\":4821:4839   */\n      tag_279\n      tag_211\n      jump\t// in\n    tag_279:\n        /* \"#utility.yul\":4702:4841   */\n    tag_278:\n        /* \"#utility.yul\":4486:4848   */\n      pop\n        /* \"#utility.yul\":4438:4848   */\n      swap3\n      swap2\n      pop\n      pop\n      jump\t// out\n\n    auxdata: 0xa264697066735822122088ca287d0b76eaecc08a33b31a10500e6d8f6c7c6bc40fddd2ff0afe83f0730764736f6c63430008180033\n}\n",
				"bytecode": {
					"linkReferences": {},
					"object": "608060405262107ac060015561271060025561138860035560036004555f60055f6101000a81548160ff021916908315150217905550348015610040575f80fd5b50335f806101000a81548173ffffffffffffffffffffffffffffffffffffffff021916908373ffffffffffffffffffffffffffffffffffffffff16021790555033600560016101000a81548173ffffffffffffffffffffffffffffffffffffffff021916908373ffffffffffffffffffffffffffffffffffffffff160217905550611322806100ce5f395ff3fe6080604052600436106100f2575f3560e01c8063715018a6116100895780638f32d59b116100585780638f32d59b14610310578063d7c8843b1461033a578063db66386514610376578063f2fde38b14610392576100f2565b8063715018a6146102585780637e56fde51461026e5780638da5cb5b146102aa5780638e316327146102d4576100f2565b80633c5f07cb116100c55780633c5f07cb146101ae5780633ec862a8146101b8578063450c9d7d146101e05780634b634b061461021c576100f2565b806312065fe0146100f657806326fd8422146101205780632ef6a7431461015c5780633955f0fe14610198575b5f80fd5b348015610101575f80fd5b5061010a6103ba565b604051610117919061102b565b60405180910390f35b34801561012b575f80fd5b5061014660048036038101906101419190611072565b6103c1565b604051610153919061102b565b60405180910390f35b348015610167575f80fd5b50610182600480360381019061017d919061110a565b6103d7565b60405161018f919061102b565b60405180910390f35b3480156101a3575f80fd5b506101ac61042e565b005b6101b66105b7565b005b3480156101c3575f80fd5b506101de60048036038101906101d9919061110a565b6105fc565b005b3480156101eb575f80fd5b506102066004803603810190610201919061110a565b610a7c565b604051610213919061102b565b60405180910390f35b348015610227575f80fd5b50610242600480360381019061023d919061110a565b610a9f565b60405161024f919061102b565b60405180910390f35b348015610263575f80fd5b5061026c610ae5565b005b348015610279575f80fd5b50610294600480360381019061028f9190611135565b610b98565b6040516102a1919061102b565b60405180910390f35b3480156102b5575f80fd5b506102be610baa565b6040516102cb919061116f565b60405180910390f35b3480156102df575f80fd5b506102fa60048036038101906102f59190611135565b610bd1565b604051610307919061102b565b60405180910390f35b34801561031b575f80fd5b50610324610be6565b60405161033191906111a2565b60405180910390f35b348015610345575f80fd5b50610360600480360381019061035b919061110a565b610c3b565b60405161036d919061102b565b60405180910390f35b610390600480360381019061038b919061110a565b610ce0565b005b34801561039d575f80fd5b506103b860048036038101906103b3919061110a565b610e29565b005b5f47905090565b5f6103cf8383600a54610e45565b905092915050565b5f61042760075f8473ffffffffffffffffffffffffffffffffffffffff1673ffffffffffffffffffffffffffffffffffffffff1681526020019081526020015f205461042284610c3b565b610e97565b9050919050565b60055f9054906101000a900460ff16610445575f80fd5b5f61044f336103d7565b90505f61045b82610bd1565b90505f61046782610eac565b90505f60075f3373ffffffffffffffffffffffffffffffffffffffff1673ffffffffffffffffffffffffffffffffffffffff1681526020019081526020015f20819055504260085f3373ffffffffffffffffffffffffffffffffffffffff1673ffffffffffffffffffffffffffffffffffffffff1681526020019081526020015f20819055506104f9600a5484610e97565b600a81905550600560019054906101000a900473ffffffffffffffffffffffffffffffffffffffff1673ffffffffffffffffffffffffffffffffffffffff166108fc8290811502906040515f60405180830381858888f19350505050158015610564573d5f803e3d5ffd5b503373ffffffffffffffffffffffffffffffffffffffff166108fc6105898484610eca565b90811502906040515f60405180830381858888f193505050501580156105b1573d5f803e3d5ffd5b50505050565b6105bf610be6565b6105c7575f80fd5b5f600a54146105d4575f80fd5b600160055f6101000a81548160ff0219169083151502179055506419254d3800600a81905550565b60055f9054906101000a900460ff16610613575f80fd5b3373ffffffffffffffffffffffffffffffffffffffff168173ffffffffffffffffffffffffffffffffffffffff160361064a575f90505b5f73ffffffffffffffffffffffffffffffffffffffff1660095f3373ffffffffffffffffffffffffffffffffffffffff1673ffffffffffffffffffffffffffffffffffffffff1681526020019081526020015f205f9054906101000a900473ffffffffffffffffffffffffffffffffffffffff1673ffffffffffffffffffffffffffffffffffffffff1614801561076957503373ffffffffffffffffffffffffffffffffffffffff1660095f3373ffffffffffffffffffffffffffffffffffffffff1673ffffffffffffffffffffffffffffffffffffffff1681526020019081526020015f205f9054906101000a900473ffffffffffffffffffffffffffffffffffffffff1673ffffffffffffffffffffffffffffffffffffffff1614155b156107ea578060095f3373ffffffffffffffffffffffffffffffffffffffff1673ffffffffffffffffffffffffffffffffffffffff1681526020019081526020015f205f6101000a81548173ffffffffffffffffffffffffffffffffffffffff021916908373ffffffffffffffffffffffffffffffffffffffff1602179055505b5f6107f4336103d7565b90505f61080382600154610edf565b905061084c60065f3373ffffffffffffffffffffffffffffffffffffffff1673ffffffffffffffffffffffffffffffffffffffff1681526020019081526020015f205482610e97565b60065f3373ffffffffffffffffffffffffffffffffffffffff1673ffffffffffffffffffffffffffffffffffffffff1681526020019081526020015f20819055505f60075f3373ffffffffffffffffffffffffffffffffffffffff1673ffffffffffffffffffffffffffffffffffffffff1681526020019081526020015f20819055504260085f3373ffffffffffffffffffffffffffffffffffffffff1673ffffffffffffffffffffffffffffffffffffffff1681526020019081526020015f20819055506109be60075f60095f3373ffffffffffffffffffffffffffffffffffffffff1673ffffffffffffffffffffffffffffffffffffffff1681526020019081526020015f205f9054906101000a900473ffffffffffffffffffffffffffffffffffffffff1673ffffffffffffffffffffffffffffffffffffffff1673ffffffffffffffffffffffffffffffffffffffff1681526020019081526020015f20546109b9846008610edf565b610e97565b60075f60095f3373ffffffffffffffffffffffffffffffffffffffff1673ffffffffffffffffffffffffffffffffffffffff1681526020019081526020015f205f9054906101000a900473ffffffffffffffffffffffffffffffffffffffff1673ffffffffffffffffffffffffffffffffffffffff1673ffffffffffffffffffffffffffffffffffffffff1681526020019081526020015f2081905550610a71600a54610a6c846005610edf565b610e97565b600a81905550505050565b5f80610a87836103d7565b90505f610a9382610bd1565b90508092505050919050565b5f60065f8373ffffffffffffffffffffffffffffffffffffffff1673ffffffffffffffffffffffffffffffffffffffff1681526020019081526020015f20549050919050565b610aed610be6565b610af5575f80fd5b5f8054906101000a900473ffffffffffffffffffffffffffffffffffffffff1673ffffffffffffffffffffffffffffffffffffffff167ff8df31144d9c2f0f6b59d69b8b98abd5459d07f2742c4df920b25aae33c6482060405160405180910390a25f805f6101000a81548173ffffffffffffffffffffffffffffffffffffffff021916908373ffffffffffffffffffffffffffffffffffffffff160217905550565b5f610ba382476103c1565b9050919050565b5f805f9054906101000a900473ffffffffffffffffffffffffffffffffffffffff16905090565b5f610bdf82600a5447610e45565b9050919050565b5f805f9054906101000a900473ffffffffffffffffffffffffffffffffffffffff1673ffffffffffffffffffffffffffffffffffffffff163373ffffffffffffffffffffffffffffffffffffffff1614905090565b5f80610c8f600154610c8a4260085f8873ffffffffffffffffffffffffffffffffffffffff1673ffffffffffffffffffffffffffffffffffffffff1681526020019081526020015f2054610eca565b610ef4565b9050610cd88160065f8673ffffffffffffffffffffffffffffffffffffffff1673ffffffffffffffffffffffffffffffffffffffff1681526020019081526020015f2054610f0c565b915050919050565b60055f9054906101000a900460ff16610cf7575f80fd5b5f610d0b34610d064734610eca565b6103c1565b9050610d1f81610d1a83610eac565b610eca565b90505f610d2b34610eac565b9050600560019054906101000a900473ffffffffffffffffffffffffffffffffffffffff1673ffffffffffffffffffffffffffffffffffffffff166108fc8290811502906040515f60405180830381858888f19350505050158015610d92573d5f803e3d5ffd5b50610dda60075f3373ffffffffffffffffffffffffffffffffffffffff1673ffffffffffffffffffffffffffffffffffffffff1681526020019081526020015f205483610e97565b60075f3373ffffffffffffffffffffffffffffffffffffffff1673ffffffffffffffffffffffffffffffffffffffff1681526020019081526020015f2081905550610e24836105fc565b505050565b610e31610be6565b610e39575f80fd5b610e4281610f21565b50565b5f610e8e610e5560025484610f0c565b610e89600354610e84610e7e610e6d6002548a610f0c565b610e796003548c610f0c565b610e97565b89610edf565b610e97565b610edf565b90509392505050565b5f8183610ea491906111e8565b905092915050565b5f610ec3610ebc83600454610f0c565b6064610edf565b9050919050565b5f8183610ed7919061121b565b905092915050565b5f8183610eec919061127b565b905092915050565b5f818310610f025781610f04565b825b905092915050565b5f8183610f1991906112ab565b905092915050565b5f73ffffffffffffffffffffffffffffffffffffffff168173ffffffffffffffffffffffffffffffffffffffff1603610f58575f80fd5b8073ffffffffffffffffffffffffffffffffffffffff165f8054906101000a900473ffffffffffffffffffffffffffffffffffffffff1673ffffffffffffffffffffffffffffffffffffffff167f8be0079c531659141344cd1fd0a4f28419497f9722a3daafe3b4186f6b6457e060405160405180910390a3805f806101000a81548173ffffffffffffffffffffffffffffffffffffffff021916908373ffffffffffffffffffffffffffffffffffffffff16021790555050565b5f819050919050565b61102581611013565b82525050565b5f60208201905061103e5f83018461101c565b92915050565b5f80fd5b61105181611013565b811461105b575f80fd5b50565b5f8135905061106c81611048565b92915050565b5f806040838503121561108857611087611044565b5b5f6110958582860161105e565b92505060206110a68582860161105e565b9150509250929050565b5f73ffffffffffffffffffffffffffffffffffffffff82169050919050565b5f6110d9826110b0565b9050919050565b6110e9816110cf565b81146110f3575f80fd5b50565b5f81359050611104816110e0565b92915050565b5f6020828403121561111f5761111e611044565b5b5f61112c848285016110f6565b91505092915050565b5f6020828403121561114a57611149611044565b5b5f6111578482850161105e565b91505092915050565b611169816110cf565b82525050565b5f6020820190506111825f830184611160565b92915050565b5f8115159050919050565b61119c81611188565b82525050565b5f6020820190506111b55f830184611193565b92915050565b7f4e487b71000000000000000000000000000000000000000000000000000000005f52601160045260245ffd5b5f6111f282611013565b91506111fd83611013565b9250828201905080821115611215576112146111bb565b5b92915050565b5f61122582611013565b915061123083611013565b9250828203905081811115611248576112476111bb565b5b92915050565b7f4e487b71000000000000000000000000000000000000000000000000000000005f52601260045260245ffd5b5f61128582611013565b915061129083611013565b9250826112a05761129f61124e565b5b828204905092915050565b5f6112b582611013565b91506112c083611013565b92508282026112ce81611013565b915082820484148315176112e5576112e46111bb565b5b509291505056fea264697066735822122088ca287d0b76eaecc08a33b31a10500e6d8f6c7c6bc40fddd2ff0afe83f0730764736f6c63430008180033",
					"opcodes": "PUSH1 0x80 PUSH1 0x40 MSTORE PUSH3 0x107AC0 PUSH1 0x1 SSTORE PUSH2 0x2710 PUSH1 0x2 SSTORE PUSH2 0x1388 PUSH1 0x3 SSTORE PUSH1 0x3 PUSH1 0x4 SSTORE PUSH0 PUSH1 0x5 PUSH0 PUSH2 0x100 EXP DUP2 SLOAD DUP2 PUSH1 0xFF MUL NOT AND SWAP1 DUP4 ISZERO ISZERO MUL OR SWAP1 SSTORE POP CALLVALUE DUP1 ISZERO PUSH2 0x40 JUMPI PUSH0 DUP1 REVERT JUMPDEST POP CALLER PUSH0 DUP1 PUSH2 0x100 EXP DUP2 SLOAD DUP2 PUSH20 0xFFFFFFFFFFFFFFFFFFFFFFFFFFFFFFFFFFFFFFFF MUL NOT AND SWAP1 DUP4 PUSH20 0xFFFFFFFFFFFFFFFFFFFFFFFFFFFFFFFFFFFFFFFF AND MUL OR SWAP1 SSTORE POP CALLER PUSH1 0x5 PUSH1 0x1 PUSH2 0x100 EXP DUP2 SLOAD DUP2 PUSH20 0xFFFFFFFFFFFFFFFFFFFFFFFFFFFFFFFFFFFFFFFF MUL NOT AND SWAP1 DUP4 PUSH20 0xFFFFFFFFFFFFFFFFFFFFFFFFFFFFFFFFFFFFFFFF AND MUL OR SWAP1 SSTORE POP PUSH2 0x1322 DUP1 PUSH2 0xCE PUSH0 CODECOPY PUSH0 RETURN INVALID PUSH1 0x80 PUSH1 0x40 MSTORE PUSH1 0x4 CALLDATASIZE LT PUSH2 0xF2 JUMPI PUSH0 CALLDATALOAD PUSH1 0xE0 SHR DUP1 PUSH4 0x715018A6 GT PUSH2 0x89 JUMPI DUP1 PUSH4 0x8F32D59B GT PUSH2 0x58 JUMPI DUP1 PUSH4 0x8F32D59B EQ PUSH2 0x310 JUMPI DUP1 PUSH4 0xD7C8843B EQ PUSH2 0x33A JUMPI DUP1 PUSH4 0xDB663865 EQ PUSH2 0x376 JUMPI DUP1 PUSH4 0xF2FDE38B EQ PUSH2 0x392 JUMPI PUSH2 0xF2 JUMP JUMPDEST DUP1 PUSH4 0x715018A6 EQ PUSH2 0x258 JUMPI DUP1 PUSH4 0x7E56FDE5 EQ PUSH2 0x26E JUMPI DUP1 PUSH4 0x8DA5CB5B EQ PUSH2 0x2AA JUMPI DUP1 PUSH4 0x8E316327 EQ PUSH2 0x2D4 JUMPI PUSH2 0xF2 JUMP JUMPDEST DUP1 PUSH4 0x3C5F07CB GT PUSH2 0xC5 JUMPI DUP1 PUSH4 0x3C5F07CB EQ PUSH2 0x1AE JUMPI DUP1 PUSH4 0x3EC862A8 EQ PUSH2 0x1B8 JUMPI DUP1 PUSH4 0x450C9D7D EQ PUSH2 0x1E0 JUMPI DUP1 PUSH4 0x4B634B06 EQ PUSH2 0x21C JUMPI PUSH2 0xF2 JUMP JUMPDEST DUP1 PUSH4 0x12065FE0 EQ PUSH2 0xF6 JUMPI DUP1 PUSH4 0x26FD8422 EQ PUSH2 0x120 JUMPI DUP1 PUSH4 0x2EF6A743 EQ PUSH2 0x15C JUMPI DUP1 PUSH4 0x3955F0FE EQ PUSH2 0x198 JUMPI JUMPDEST PUSH0 DUP1 REVERT JUMPDEST CALLVALUE DUP1 ISZERO PUSH2 0x101 JUMPI PUSH0 DUP1 REVERT JUMPDEST POP PUSH2 0x10A PUSH2 0x3BA JUMP JUMPDEST PUSH1 0x40 MLOAD PUSH2 0x117 SWAP2 SWAP1 PUSH2 0x102B JUMP JUMPDEST PUSH1 0x40 MLOAD DUP1 SWAP2 SUB SWAP1 RETURN JUMPDEST CALLVALUE DUP1 ISZERO PUSH2 0x12B JUMPI PUSH0 DUP1 REVERT JUMPDEST POP PUSH2 0x146 PUSH1 0x4 DUP1 CALLDATASIZE SUB DUP2 ADD SWAP1 PUSH2 0x141 SWAP2 SWAP1 PUSH2 0x1072 JUMP JUMPDEST PUSH2 0x3C1 JUMP JUMPDEST PUSH1 0x40 MLOAD PUSH2 0x153 SWAP2 SWAP1 PUSH2 0x102B JUMP JUMPDEST PUSH1 0x40 MLOAD DUP1 SWAP2 SUB SWAP1 RETURN JUMPDEST CALLVALUE DUP1 ISZERO PUSH2 0x167 JUMPI PUSH0 DUP1 REVERT JUMPDEST POP PUSH2 0x182 PUSH1 0x4 DUP1 CALLDATASIZE SUB DUP2 ADD SWAP1 PUSH2 0x17D SWAP2 SWAP1 PUSH2 0x110A JUMP JUMPDEST PUSH2 0x3D7 JUMP JUMPDEST PUSH1 0x40 MLOAD PUSH2 0x18F SWAP2 SWAP1 PUSH2 0x102B JUMP JUMPDEST PUSH1 0x40 MLOAD DUP1 SWAP2 SUB SWAP1 RETURN JUMPDEST CALLVALUE DUP1 ISZERO PUSH2 0x1A3 JUMPI PUSH0 DUP1 REVERT JUMPDEST POP PUSH2 0x1AC PUSH2 0x42E JUMP JUMPDEST STOP JUMPDEST PUSH2 0x1B6 PUSH2 0x5B7 JUMP JUMPDEST STOP JUMPDEST CALLVALUE DUP1 ISZERO PUSH2 0x1C3 JUMPI PUSH0 DUP1 REVERT JUMPDEST POP PUSH2 0x1DE PUSH1 0x4 DUP1 CALLDATASIZE SUB DUP2 ADD SWAP1 PUSH2 0x1D9 SWAP2 SWAP1 PUSH2 0x110A JUMP JUMPDEST PUSH2 0x5FC JUMP JUMPDEST STOP JUMPDEST CALLVALUE DUP1 ISZERO PUSH2 0x1EB JUMPI PUSH0 DUP1 REVERT JUMPDEST POP PUSH2 0x206 PUSH1 0x4 DUP1 CALLDATASIZE SUB DUP2 ADD SWAP1 PUSH2 0x201 SWAP2 SWAP1 PUSH2 0x110A JUMP JUMPDEST PUSH2 0xA7C JUMP JUMPDEST PUSH1 0x40 MLOAD PUSH2 0x213 SWAP2 SWAP1 PUSH2 0x102B JUMP JUMPDEST PUSH1 0x40 MLOAD DUP1 SWAP2 SUB SWAP1 RETURN JUMPDEST CALLVALUE DUP1 ISZERO PUSH2 0x227 JUMPI PUSH0 DUP1 REVERT JUMPDEST POP PUSH2 0x242 PUSH1 0x4 DUP1 CALLDATASIZE SUB DUP2 ADD SWAP1 PUSH2 0x23D SWAP2 SWAP1 PUSH2 0x110A JUMP JUMPDEST PUSH2 0xA9F JUMP JUMPDEST PUSH1 0x40 MLOAD PUSH2 0x24F SWAP2 SWAP1 PUSH2 0x102B JUMP JUMPDEST PUSH1 0x40 MLOAD DUP1 SWAP2 SUB SWAP1 RETURN JUMPDEST CALLVALUE DUP1 ISZERO PUSH2 0x263 JUMPI PUSH0 DUP1 REVERT JUMPDEST POP PUSH2 0x26C PUSH2 0xAE5 JUMP JUMPDEST STOP JUMPDEST CALLVALUE DUP1 ISZERO PUSH2 0x279 JUMPI PUSH0 DUP1 REVERT JUMPDEST POP PUSH2 0x294 PUSH1 0x4 DUP1 CALLDATASIZE SUB DUP2 ADD SWAP1 PUSH2 0x28F SWAP2 SWAP1 PUSH2 0x1135 JUMP JUMPDEST PUSH2 0xB98 JUMP JUMPDEST PUSH1 0x40 MLOAD PUSH2 0x2A1 SWAP2 SWAP1 PUSH2 0x102B JUMP JUMPDEST PUSH1 0x40 MLOAD DUP1 SWAP2 SUB SWAP1 RETURN JUMPDEST CALLVALUE DUP1 ISZERO PUSH2 0x2B5 JUMPI PUSH0 DUP1 REVERT JUMPDEST POP PUSH2 0x2BE PUSH2 0xBAA JUMP JUMPDEST PUSH1 0x40 MLOAD PUSH2 0x2CB SWAP2 SWAP1 PUSH2 0x116F JUMP JUMPDEST PUSH1 0x40 MLOAD DUP1 SWAP2 SUB SWAP1 RETURN JUMPDEST CALLVALUE DUP1 ISZERO PUSH2 0x2DF JUMPI PUSH0 DUP1 REVERT JUMPDEST POP PUSH2 0x2FA PUSH1 0x4 DUP1 CALLDATASIZE SUB DUP2 ADD SWAP1 PUSH2 0x2F5 SWAP2 SWAP1 PUSH2 0x1135 JUMP JUMPDEST PUSH2 0xBD1 JUMP JUMPDEST PUSH1 0x40 MLOAD PUSH2 0x307 SWAP2 SWAP1 PUSH2 0x102B JUMP JUMPDEST PUSH1 0x40 MLOAD DUP1 SWAP2 SUB SWAP1 RETURN JUMPDEST CALLVALUE DUP1 ISZERO PUSH2 0x31B JUMPI PUSH0 DUP1 REVERT JUMPDEST POP PUSH2 0x324 PUSH2 0xBE6 JUMP JUMPDEST PUSH1 0x40 MLOAD PUSH2 0x331 SWAP2 SWAP1 PUSH2 0x11A2 JUMP JUMPDEST PUSH1 0x40 MLOAD DUP1 SWAP2 SUB SWAP1 RETURN JUMPDEST CALLVALUE DUP1 ISZERO PUSH2 0x345 JUMPI PUSH0 DUP1 REVERT JUMPDEST POP PUSH2 0x360 PUSH1 0x4 DUP1 CALLDATASIZE SUB DUP2 ADD SWAP1 PUSH2 0x35B SWAP2 SWAP1 PUSH2 0x110A JUMP JUMPDEST PUSH2 0xC3B JUMP JUMPDEST PUSH1 0x40 MLOAD PUSH2 0x36D SWAP2 SWAP1 PUSH2 0x102B JUMP JUMPDEST PUSH1 0x40 MLOAD DUP1 SWAP2 SUB SWAP1 RETURN JUMPDEST PUSH2 0x390 PUSH1 0x4 DUP1 CALLDATASIZE SUB DUP2 ADD SWAP1 PUSH2 0x38B SWAP2 SWAP1 PUSH2 0x110A JUMP JUMPDEST PUSH2 0xCE0 JUMP JUMPDEST STOP JUMPDEST CALLVALUE DUP1 ISZERO PUSH2 0x39D JUMPI PUSH0 DUP1 REVERT JUMPDEST POP PUSH2 0x3B8 PUSH1 0x4 DUP1 CALLDATASIZE SUB DUP2 ADD SWAP1 PUSH2 0x3B3 SWAP2 SWAP1 PUSH2 0x110A JUMP JUMPDEST PUSH2 0xE29 JUMP JUMPDEST STOP JUMPDEST PUSH0 SELFBALANCE SWAP1 POP SWAP1 JUMP JUMPDEST PUSH0 PUSH2 0x3CF DUP4 DUP4 PUSH1 0xA SLOAD PUSH2 0xE45 JUMP JUMPDEST SWAP1 POP SWAP3 SWAP2 POP POP JUMP JUMPDEST PUSH0 PUSH2 0x427 PUSH1 0x7 PUSH0 DUP5 PUSH20 0xFFFFFFFFFFFFFFFFFFFFFFFFFFFFFFFFFFFFFFFF AND PUSH20 0xFFFFFFFFFFFFFFFFFFFFFFFFFFFFFFFFFFFFFFFF AND DUP2 MSTORE PUSH1 0x20 ADD SWAP1 DUP2 MSTORE PUSH1 0x20 ADD PUSH0 KECCAK256 SLOAD PUSH2 0x422 DUP5 PUSH2 0xC3B JUMP JUMPDEST PUSH2 0xE97 JUMP JUMPDEST SWAP1 POP SWAP2 SWAP1 POP JUMP JUMPDEST PUSH1 0x5 PUSH0 SWAP1 SLOAD SWAP1 PUSH2 0x100 EXP SWAP1 DIV PUSH1 0xFF AND PUSH2 0x445 JUMPI PUSH0 DUP1 REVERT JUMPDEST PUSH0 PUSH2 0x44F CALLER PUSH2 0x3D7 JUMP JUMPDEST SWAP1 POP PUSH0 PUSH2 0x45B DUP3 PUSH2 0xBD1 JUMP JUMPDEST SWAP1 POP PUSH0 PUSH2 0x467 DUP3 PUSH2 0xEAC JUMP JUMPDEST SWAP1 POP PUSH0 PUSH1 0x7 PUSH0 CALLER PUSH20 0xFFFFFFFFFFFFFFFFFFFFFFFFFFFFFFFFFFFFFFFF AND PUSH20 0xFFFFFFFFFFFFFFFFFFFFFFFFFFFFFFFFFFFFFFFF AND DUP2 MSTORE PUSH1 0x20 ADD SWAP1 DUP2 MSTORE PUSH1 0x20 ADD PUSH0 KECCAK256 DUP2 SWAP1 SSTORE POP TIMESTAMP PUSH1 0x8 PUSH0 CALLER PUSH20 0xFFFFFFFFFFFFFFFFFFFFFFFFFFFFFFFFFFFFFFFF AND PUSH20 0xFFFFFFFFFFFFFFFFFFFFFFFFFFFFFFFFFFFFFFFF AND DUP2 MSTORE PUSH1 0x20 ADD SWAP1 DUP2 MSTORE PUSH1 0x20 ADD PUSH0 KECCAK256 DUP2 SWAP1 SSTORE POP PUSH2 0x4F9 PUSH1 0xA SLOAD DUP5 PUSH2 0xE97 JUMP JUMPDEST PUSH1 0xA DUP2 SWAP1 SSTORE POP PUSH1 0x5 PUSH1 0x1 SWAP1 SLOAD SWAP1 PUSH2 0x100 EXP SWAP1 DIV PUSH20 0xFFFFFFFFFFFFFFFFFFFFFFFFFFFFFFFFFFFFFFFF AND PUSH20 0xFFFFFFFFFFFFFFFFFFFFFFFFFFFFFFFFFFFFFFFF AND PUSH2 0x8FC DUP3 SWAP1 DUP2 ISZERO MUL SWAP1 PUSH1 0x40 MLOAD PUSH0 PUSH1 0x40 MLOAD DUP1 DUP4 SUB DUP2 DUP6 DUP9 DUP9 CALL SWAP4 POP POP POP POP ISZERO DUP1 ISZERO PUSH2 0x564 JUMPI RETURNDATASIZE PUSH0 DUP1 RETURNDATACOPY RETURNDATASIZE PUSH0 REVERT JUMPDEST POP CALLER PUSH20 0xFFFFFFFFFFFFFFFFFFFFFFFFFFFFFFFFFFFFFFFF AND PUSH2 0x8FC PUSH2 0x589 DUP5 DUP5 PUSH2 0xECA JUMP JUMPDEST SWAP1 DUP2 ISZERO MUL SWAP1 PUSH1 0x40 MLOAD PUSH0 PUSH1 0x40 MLOAD DUP1 DUP4 SUB DUP2 DUP6 DUP9 DUP9 CALL SWAP4 POP POP POP POP ISZERO DUP1 ISZERO PUSH2 0x5B1 JUMPI RETURNDATASIZE PUSH0 DUP1 RETURNDATACOPY RETURNDATASIZE PUSH0 REVERT JUMPDEST POP POP POP POP JUMP JUMPDEST PUSH2 0x5BF PUSH2 0xBE6 JUMP JUMPDEST PUSH2 0x5C7 JUMPI PUSH0 DUP1 REVERT JUMPDEST PUSH0 PUSH1 0xA SLOAD EQ PUSH2 0x5D4 JUMPI PUSH0 DUP1 REVERT JUMPDEST PUSH1 0x1 PUSH1 0x5 PUSH0 PUSH2 0x100 EXP DUP2 SLOAD DUP2 PUSH1 0xFF MUL NOT AND SWAP1 DUP4 ISZERO ISZERO MUL OR SWAP1 SSTORE POP PUSH5 0x19254D3800 PUSH1 0xA DUP2 SWAP1 SSTORE POP JUMP JUMPDEST PUSH1 0x5 PUSH0 SWAP1 SLOAD SWAP1 PUSH2 0x100 EXP SWAP1 DIV PUSH1 0xFF AND PUSH2 0x613 JUMPI PUSH0 DUP1 REVERT JUMPDEST CALLER PUSH20 0xFFFFFFFFFFFFFFFFFFFFFFFFFFFFFFFFFFFFFFFF AND DUP2 PUSH20 0xFFFFFFFFFFFFFFFFFFFFFFFFFFFFFFFFFFFFFFFF AND SUB PUSH2 0x64A JUMPI PUSH0 SWAP1 POP JUMPDEST PUSH0 PUSH20 0xFFFFFFFFFFFFFFFFFFFFFFFFFFFFFFFFFFFFFFFF AND PUSH1 0x9 PUSH0 CALLER PUSH20 0xFFFFFFFFFFFFFFFFFFFFFFFFFFFFFFFFFFFFFFFF AND PUSH20 0xFFFFFFFFFFFFFFFFFFFFFFFFFFFFFFFFFFFFFFFF AND DUP2 MSTORE PUSH1 0x20 ADD SWAP1 DUP2 MSTORE PUSH1 0x20 ADD PUSH0 KECCAK256 PUSH0 SWAP1 SLOAD SWAP1 PUSH2 0x100 EXP SWAP1 DIV PUSH20 0xFFFFFFFFFFFFFFFFFFFFFFFFFFFFFFFFFFFFFFFF AND PUSH20 0xFFFFFFFFFFFFFFFFFFFFFFFFFFFFFFFFFFFFFFFF AND EQ DUP1 ISZERO PUSH2 0x769 JUMPI POP CALLER PUSH20 0xFFFFFFFFFFFFFFFFFFFFFFFFFFFFFFFFFFFFFFFF AND PUSH1 0x9 PUSH0 CALLER PUSH20 0xFFFFFFFFFFFFFFFFFFFFFFFFFFFFFFFFFFFFFFFF AND PUSH20 0xFFFFFFFFFFFFFFFFFFFFFFFFFFFFFFFFFFFFFFFF AND DUP2 MSTORE PUSH1 0x20 ADD SWAP1 DUP2 MSTORE PUSH1 0x20 ADD PUSH0 KECCAK256 PUSH0 SWAP1 SLOAD SWAP1 PUSH2 0x100 EXP SWAP1 DIV PUSH20 0xFFFFFFFFFFFFFFFFFFFFFFFFFFFFFFFFFFFFFFFF AND PUSH20 0xFFFFFFFFFFFFFFFFFFFFFFFFFFFFFFFFFFFFFFFF AND EQ ISZERO JUMPDEST ISZERO PUSH2 0x7EA JUMPI DUP1 PUSH1 0x9 PUSH0 CALLER PUSH20 0xFFFFFFFFFFFFFFFFFFFFFFFFFFFFFFFFFFFFFFFF AND PUSH20 0xFFFFFFFFFFFFFFFFFFFFFFFFFFFFFFFFFFFFFFFF AND DUP2 MSTORE PUSH1 0x20 ADD SWAP1 DUP2 MSTORE PUSH1 0x20 ADD PUSH0 KECCAK256 PUSH0 PUSH2 0x100 EXP DUP2 SLOAD DUP2 PUSH20 0xFFFFFFFFFFFFFFFFFFFFFFFFFFFFFFFFFFFFFFFF MUL NOT AND SWAP1 DUP4 PUSH20 0xFFFFFFFFFFFFFFFFFFFFFFFFFFFFFFFFFFFFFFFF AND MUL OR SWAP1 SSTORE POP JUMPDEST PUSH0 PUSH2 0x7F4 CALLER PUSH2 0x3D7 JUMP JUMPDEST SWAP1 POP PUSH0 PUSH2 0x803 DUP3 PUSH1 0x1 SLOAD PUSH2 0xEDF JUMP JUMPDEST SWAP1 POP PUSH2 0x84C PUSH1 0x6 PUSH0 CALLER PUSH20 0xFFFFFFFFFFFFFFFFFFFFFFFFFFFFFFFFFFFFFFFF AND PUSH20 0xFFFFFFFFFFFFFFFFFFFFFFFFFFFFFFFFFFFFFFFF AND DUP2 MSTORE PUSH1 0x20 ADD SWAP1 DUP2 MSTORE PUSH1 0x20 ADD PUSH0 KECCAK256 SLOAD DUP3 PUSH2 0xE97 JUMP JUMPDEST PUSH1 0x6 PUSH0 CALLER PUSH20 0xFFFFFFFFFFFFFFFFFFFFFFFFFFFFFFFFFFFFFFFF AND PUSH20 0xFFFFFFFFFFFFFFFFFFFFFFFFFFFFFFFFFFFFFFFF AND DUP2 MSTORE PUSH1 0x20 ADD SWAP1 DUP2 MSTORE PUSH1 0x20 ADD PUSH0 KECCAK256 DUP2 SWAP1 SSTORE POP PUSH0 PUSH1 0x7 PUSH0 CALLER PUSH20 0xFFFFFFFFFFFFFFFFFFFFFFFFFFFFFFFFFFFFFFFF AND PUSH20 0xFFFFFFFFFFFFFFFFFFFFFFFFFFFFFFFFFFFFFFFF AND DUP2 MSTORE PUSH1 0x20 ADD SWAP1 DUP2 MSTORE PUSH1 0x20 ADD PUSH0 KECCAK256 DUP2 SWAP1 SSTORE POP TIMESTAMP PUSH1 0x8 PUSH0 CALLER PUSH20 0xFFFFFFFFFFFFFFFFFFFFFFFFFFFFFFFFFFFFFFFF AND PUSH20 0xFFFFFFFFFFFFFFFFFFFFFFFFFFFFFFFFFFFFFFFF AND DUP2 MSTORE PUSH1 0x20 ADD SWAP1 DUP2 MSTORE PUSH1 0x20 ADD PUSH0 KECCAK256 DUP2 SWAP1 SSTORE POP PUSH2 0x9BE PUSH1 0x7 PUSH0 PUSH1 0x9 PUSH0 CALLER PUSH20 0xFFFFFFFFFFFFFFFFFFFFFFFFFFFFFFFFFFFFFFFF AND PUSH20 0xFFFFFFFFFFFFFFFFFFFFFFFFFFFFFFFFFFFFFFFF AND DUP2 MSTORE PUSH1 0x20 ADD SWAP1 DUP2 MSTORE PUSH1 0x20 ADD PUSH0 KECCAK256 PUSH0 SWAP1 SLOAD SWAP1 PUSH2 0x100 EXP SWAP1 DIV PUSH20 0xFFFFFFFFFFFFFFFFFFFFFFFFFFFFFFFFFFFFFFFF AND PUSH20 0xFFFFFFFFFFFFFFFFFFFFFFFFFFFFFFFFFFFFFFFF AND PUSH20 0xFFFFFFFFFFFFFFFFFFFFFFFFFFFFFFFFFFFFFFFF AND DUP2 MSTORE PUSH1 0x20 ADD SWAP1 DUP2 MSTORE PUSH1 0x20 ADD PUSH0 KECCAK256 SLOAD PUSH2 0x9B9 DUP5 PUSH1 0x8 PUSH2 0xEDF JUMP JUMPDEST PUSH2 0xE97 JUMP JUMPDEST PUSH1 0x7 PUSH0 PUSH1 0x9 PUSH0 CALLER PUSH20 0xFFFFFFFFFFFFFFFFFFFFFFFFFFFFFFFFFFFFFFFF AND PUSH20 0xFFFFFFFFFFFFFFFFFFFFFFFFFFFFFFFFFFFFFFFF AND DUP2 MSTORE PUSH1 0x20 ADD SWAP1 DUP2 MSTORE PUSH1 0x20 ADD PUSH0 KECCAK256 PUSH0 SWAP1 SLOAD SWAP1 PUSH2 0x100 EXP SWAP1 DIV PUSH20 0xFFFFFFFFFFFFFFFFFFFFFFFFFFFFFFFFFFFFFFFF AND PUSH20 0xFFFFFFFFFFFFFFFFFFFFFFFFFFFFFFFFFFFFFFFF AND PUSH20 0xFFFFFFFFFFFFFFFFFFFFFFFFFFFFFFFFFFFFFFFF AND DUP2 MSTORE PUSH1 0x20 ADD SWAP1 DUP2 MSTORE PUSH1 0x20 ADD PUSH0 KECCAK256 DUP2 SWAP1 SSTORE POP PUSH2 0xA71 PUSH1 0xA SLOAD PUSH2 0xA6C DUP5 PUSH1 0x5 PUSH2 0xEDF JUMP JUMPDEST PUSH2 0xE97 JUMP JUMPDEST PUSH1 0xA DUP2 SWAP1 SSTORE POP POP POP POP JUMP JUMPDEST PUSH0 DUP1 PUSH2 0xA87 DUP4 PUSH2 0x3D7 JUMP JUMPDEST SWAP1 POP PUSH0 PUSH2 0xA93 DUP3 PUSH2 0xBD1 JUMP JUMPDEST SWAP1 POP DUP1 SWAP3 POP POP POP SWAP2 SWAP1 POP JUMP JUMPDEST PUSH0 PUSH1 0x6 PUSH0 DUP4 PUSH20 0xFFFFFFFFFFFFFFFFFFFFFFFFFFFFFFFFFFFFFFFF AND PUSH20 0xFFFFFFFFFFFFFFFFFFFFFFFFFFFFFFFFFFFFFFFF AND DUP2 MSTORE PUSH1 0x20 ADD SWAP1 DUP2 MSTORE PUSH1 0x20 ADD PUSH0 KECCAK256 SLOAD SWAP1 POP SWAP2 SWAP1 POP JUMP JUMPDEST PUSH2 0xAED PUSH2 0xBE6 JUMP JUMPDEST PUSH2 0xAF5 JUMPI PUSH0 DUP1 REVERT JUMPDEST PUSH0 DUP1 SLOAD SWAP1 PUSH2 0x100 EXP SWAP1 DIV PUSH20 0xFFFFFFFFFFFFFFFFFFFFFFFFFFFFFFFFFFFFFFFF AND PUSH20 0xFFFFFFFFFFFFFFFFFFFFFFFFFFFFFFFFFFFFFFFF AND PUSH32 0xF8DF31144D9C2F0F6B59D69B8B98ABD5459D07F2742C4DF920B25AAE33C64820 PUSH1 0x40 MLOAD PUSH1 0x40 MLOAD DUP1 SWAP2 SUB SWAP1 LOG2 PUSH0 DUP1 PUSH0 PUSH2 0x100 EXP DUP2 SLOAD DUP2 PUSH20 0xFFFFFFFFFFFFFFFFFFFFFFFFFFFFFFFFFFFFFFFF MUL NOT AND SWAP1 DUP4 PUSH20 0xFFFFFFFFFFFFFFFFFFFFFFFFFFFFFFFFFFFFFFFF AND MUL OR SWAP1 SSTORE POP JUMP JUMPDEST PUSH0 PUSH2 0xBA3 DUP3 SELFBALANCE PUSH2 0x3C1 JUMP JUMPDEST SWAP1 POP SWAP2 SWAP1 POP JUMP JUMPDEST PUSH0 DUP1 PUSH0 SWAP1 SLOAD SWAP1 PUSH2 0x100 EXP SWAP1 DIV PUSH20 0xFFFFFFFFFFFFFFFFFFFFFFFFFFFFFFFFFFFFFFFF AND SWAP1 POP SWAP1 JUMP JUMPDEST PUSH0 PUSH2 0xBDF DUP3 PUSH1 0xA SLOAD SELFBALANCE PUSH2 0xE45 JUMP JUMPDEST SWAP1 POP SWAP2 SWAP1 POP JUMP JUMPDEST PUSH0 DUP1 PUSH0 SWAP1 SLOAD SWAP1 PUSH2 0x100 EXP SWAP1 DIV PUSH20 0xFFFFFFFFFFFFFFFFFFFFFFFFFFFFFFFFFFFFFFFF AND PUSH20 0xFFFFFFFFFFFFFFFFFFFFFFFFFFFFFFFFFFFFFFFF AND CALLER PUSH20 0xFFFFFFFFFFFFFFFFFFFFFFFFFFFFFFFFFFFFFFFF AND EQ SWAP1 POP SWAP1 JUMP JUMPDEST PUSH0 DUP1 PUSH2 0xC8F PUSH1 0x1 SLOAD PUSH2 0xC8A TIMESTAMP PUSH1 0x8 PUSH0 DUP9 PUSH20 0xFFFFFFFFFFFFFFFFFFFFFFFFFFFFFFFFFFFFFFFF AND PUSH20 0xFFFFFFFFFFFFFFFFFFFFFFFFFFFFFFFFFFFFFFFF AND DUP2 MSTORE PUSH1 0x20 ADD SWAP1 DUP2 MSTORE PUSH1 0x20 ADD PUSH0 KECCAK256 SLOAD PUSH2 0xECA JUMP JUMPDEST PUSH2 0xEF4 JUMP JUMPDEST SWAP1 POP PUSH2 0xCD8 DUP2 PUSH1 0x6 PUSH0 DUP7 PUSH20 0xFFFFFFFFFFFFFFFFFFFFFFFFFFFFFFFFFFFFFFFF AND PUSH20 0xFFFFFFFFFFFFFFFFFFFFFFFFFFFFFFFFFFFFFFFF AND DUP2 MSTORE PUSH1 0x20 ADD SWAP1 DUP2 MSTORE PUSH1 0x20 ADD PUSH0 KECCAK256 SLOAD PUSH2 0xF0C JUMP JUMPDEST SWAP2 POP POP SWAP2 SWAP1 POP JUMP JUMPDEST PUSH1 0x5 PUSH0 SWAP1 SLOAD SWAP1 PUSH2 0x100 EXP SWAP1 DIV PUSH1 0xFF AND PUSH2 0xCF7 JUMPI PUSH0 DUP1 REVERT JUMPDEST PUSH0 PUSH2 0xD0B CALLVALUE PUSH2 0xD06 SELFBALANCE CALLVALUE PUSH2 0xECA JUMP JUMPDEST PUSH2 0x3C1 JUMP JUMPDEST SWAP1 POP PUSH2 0xD1F DUP2 PUSH2 0xD1A DUP4 PUSH2 0xEAC JUMP JUMPDEST PUSH2 0xECA JUMP JUMPDEST SWAP1 POP PUSH0 PUSH2 0xD2B CALLVALUE PUSH2 0xEAC JUMP JUMPDEST SWAP1 POP PUSH1 0x5 PUSH1 0x1 SWAP1 SLOAD SWAP1 PUSH2 0x100 EXP SWAP1 DIV PUSH20 0xFFFFFFFFFFFFFFFFFFFFFFFFFFFFFFFFFFFFFFFF AND PUSH20 0xFFFFFFFFFFFFFFFFFFFFFFFFFFFFFFFFFFFFFFFF AND PUSH2 0x8FC DUP3 SWAP1 DUP2 ISZERO MUL SWAP1 PUSH1 0x40 MLOAD PUSH0 PUSH1 0x40 MLOAD DUP1 DUP4 SUB DUP2 DUP6 DUP9 DUP9 CALL SWAP4 POP POP POP POP ISZERO DUP1 ISZERO PUSH2 0xD92 JUMPI RETURNDATASIZE PUSH0 DUP1 RETURNDATACOPY RETURNDATASIZE PUSH0 REVERT JUMPDEST POP PUSH2 0xDDA PUSH1 0x7 PUSH0 CALLER PUSH20 0xFFFFFFFFFFFFFFFFFFFFFFFFFFFFFFFFFFFFFFFF AND PUSH20 0xFFFFFFFFFFFFFFFFFFFFFFFFFFFFFFFFFFFFFFFF AND DUP2 MSTORE PUSH1 0x20 ADD SWAP1 DUP2 MSTORE PUSH1 0x20 ADD PUSH0 KECCAK256 SLOAD DUP4 PUSH2 0xE97 JUMP JUMPDEST PUSH1 0x7 PUSH0 CALLER PUSH20 0xFFFFFFFFFFFFFFFFFFFFFFFFFFFFFFFFFFFFFFFF AND PUSH20 0xFFFFFFFFFFFFFFFFFFFFFFFFFFFFFFFFFFFFFFFF AND DUP2 MSTORE PUSH1 0x20 ADD SWAP1 DUP2 MSTORE PUSH1 0x20 ADD PUSH0 KECCAK256 DUP2 SWAP1 SSTORE POP PUSH2 0xE24 DUP4 PUSH2 0x5FC JUMP JUMPDEST POP POP POP JUMP JUMPDEST PUSH2 0xE31 PUSH2 0xBE6 JUMP JUMPDEST PUSH2 0xE39 JUMPI PUSH0 DUP1 REVERT JUMPDEST PUSH2 0xE42 DUP2 PUSH2 0xF21 JUMP JUMPDEST POP JUMP JUMPDEST PUSH0 PUSH2 0xE8E PUSH2 0xE55 PUSH1 0x2 SLOAD DUP5 PUSH2 0xF0C JUMP JUMPDEST PUSH2 0xE89 PUSH1 0x3 SLOAD PUSH2 0xE84 PUSH2 0xE7E PUSH2 0xE6D PUSH1 0x2 SLOAD DUP11 PUSH2 0xF0C JUMP JUMPDEST PUSH2 0xE79 PUSH1 0x3 SLOAD DUP13 PUSH2 0xF0C JUMP JUMPDEST PUSH2 0xE97 JUMP JUMPDEST DUP10 PUSH2 0xEDF JUMP JUMPDEST PUSH2 0xE97 JUMP JUMPDEST PUSH2 0xEDF JUMP JUMPDEST SWAP1 POP SWAP4 SWAP3 POP POP POP JUMP JUMPDEST PUSH0 DUP2 DUP4 PUSH2 0xEA4 SWAP2 SWAP1 PUSH2 0x11E8 JUMP JUMPDEST SWAP1 POP SWAP3 SWAP2 POP POP JUMP JUMPDEST PUSH0 PUSH2 0xEC3 PUSH2 0xEBC DUP4 PUSH1 0x4 SLOAD PUSH2 0xF0C JUMP JUMPDEST PUSH1 0x64 PUSH2 0xEDF JUMP JUMPDEST SWAP1 POP SWAP2 SWAP1 POP JUMP JUMPDEST PUSH0 DUP2 DUP4 PUSH2 0xED7 SWAP2 SWAP1 PUSH2 0x121B JUMP JUMPDEST SWAP1 POP SWAP3 SWAP2 POP POP JUMP JUMPDEST PUSH0 DUP2 DUP4 PUSH2 0xEEC SWAP2 SWAP1 PUSH2 0x127B JUMP JUMPDEST SWAP1 POP SWAP3 SWAP2 POP POP JUMP JUMPDEST PUSH0 DUP2 DUP4 LT PUSH2 0xF02 JUMPI DUP2 PUSH2 0xF04 JUMP JUMPDEST DUP3 JUMPDEST SWAP1 POP SWAP3 SWAP2 POP POP JUMP JUMPDEST PUSH0 DUP2 DUP4 PUSH2 0xF19 SWAP2 SWAP1 PUSH2 0x12AB JUMP JUMPDEST SWAP1 POP SWAP3 SWAP2 POP POP JUMP JUMPDEST PUSH0 PUSH20 0xFFFFFFFFFFFFFFFFFFFFFFFFFFFFFFFFFFFFFFFF AND DUP2 PUSH20 0xFFFFFFFFFFFFFFFFFFFFFFFFFFFFFFFFFFFFFFFF AND SUB PUSH2 0xF58 JUMPI PUSH0 DUP1 REVERT JUMPDEST DUP1 PUSH20 0xFFFFFFFFFFFFFFFFFFFFFFFFFFFFFFFFFFFFFFFF AND PUSH0 DUP1 SLOAD SWAP1 PUSH2 0x100 EXP SWAP1 DIV PUSH20 0xFFFFFFFFFFFFFFFFFFFFFFFFFFFFFFFFFFFFFFFF AND PUSH20 0xFFFFFFFFFFFFFFFFFFFFFFFFFFFFFFFFFFFFFFFF AND PUSH32 0x8BE0079C531659141344CD1FD0A4F28419497F9722A3DAAFE3B4186F6B6457E0 PUSH1 0x40 MLOAD PUSH1 0x40 MLOAD DUP1 SWAP2 SUB SWAP1 LOG3 DUP1 PUSH0 DUP1 PUSH2 0x100 EXP DUP2 SLOAD DUP2 PUSH20 0xFFFFFFFFFFFFFFFFFFFFFFFFFFFFFFFFFFFFFFFF MUL NOT AND SWAP1 DUP4 PUSH20 0xFFFFFFFFFFFFFFFFFFFFFFFFFFFFFFFFFFFFFFFF AND MUL OR SWAP1 SSTORE POP POP JUMP JUMPDEST PUSH0 DUP2 SWAP1 POP SWAP2 SWAP1 POP JUMP JUMPDEST PUSH2 0x1025 DUP2 PUSH2 0x1013 JUMP JUMPDEST DUP3 MSTORE POP POP JUMP JUMPDEST PUSH0 PUSH1 0x20 DUP3 ADD SWAP1 POP PUSH2 0x103E PUSH0 DUP4 ADD DUP5 PUSH2 0x101C JUMP JUMPDEST SWAP3 SWAP2 POP POP JUMP JUMPDEST PUSH0 DUP1 REVERT JUMPDEST PUSH2 0x1051 DUP2 PUSH2 0x1013 JUMP JUMPDEST DUP2 EQ PUSH2 0x105B JUMPI PUSH0 DUP1 REVERT JUMPDEST POP JUMP JUMPDEST PUSH0 DUP2 CALLDATALOAD SWAP1 POP PUSH2 0x106C DUP2 PUSH2 0x1048 JUMP JUMPDEST SWAP3 SWAP2 POP POP JUMP JUMPDEST PUSH0 DUP1 PUSH1 0x40 DUP4 DUP6 SUB SLT ISZERO PUSH2 0x1088 JUMPI PUSH2 0x1087 PUSH2 0x1044 JUMP JUMPDEST JUMPDEST PUSH0 PUSH2 0x1095 DUP6 DUP3 DUP7 ADD PUSH2 0x105E JUMP JUMPDEST SWAP3 POP POP PUSH1 0x20 PUSH2 0x10A6 DUP6 DUP3 DUP7 ADD PUSH2 0x105E JUMP JUMPDEST SWAP2 POP POP SWAP3 POP SWAP3 SWAP1 POP JUMP JUMPDEST PUSH0 PUSH20 0xFFFFFFFFFFFFFFFFFFFFFFFFFFFFFFFFFFFFFFFF DUP3 AND SWAP1 POP SWAP2 SWAP1 POP JUMP JUMPDEST PUSH0 PUSH2 0x10D9 DUP3 PUSH2 0x10B0 JUMP JUMPDEST SWAP1 POP SWAP2 SWAP1 POP JUMP JUMPDEST PUSH2 0x10E9 DUP2 PUSH2 0x10CF JUMP JUMPDEST DUP2 EQ PUSH2 0x10F3 JUMPI PUSH0 DUP1 REVERT JUMPDEST POP JUMP JUMPDEST PUSH0 DUP2 CALLDATALOAD SWAP1 POP PUSH2 0x1104 DUP2 PUSH2 0x10E0 JUMP JUMPDEST SWAP3 SWAP2 POP POP JUMP JUMPDEST PUSH0 PUSH1 0x20 DUP3 DUP5 SUB SLT ISZERO PUSH2 0x111F JUMPI PUSH2 0x111E PUSH2 0x1044 JUMP JUMPDEST JUMPDEST PUSH0 PUSH2 0x112C DUP5 DUP3 DUP6 ADD PUSH2 0x10F6 JUMP JUMPDEST SWAP2 POP POP SWAP3 SWAP2 POP POP JUMP JUMPDEST PUSH0 PUSH1 0x20 DUP3 DUP5 SUB SLT ISZERO PUSH2 0x114A JUMPI PUSH2 0x1149 PUSH2 0x1044 JUMP JUMPDEST JUMPDEST PUSH0 PUSH2 0x1157 DUP5 DUP3 DUP6 ADD PUSH2 0x105E JUMP JUMPDEST SWAP2 POP POP SWAP3 SWAP2 POP POP JUMP JUMPDEST PUSH2 0x1169 DUP2 PUSH2 0x10CF JUMP JUMPDEST DUP3 MSTORE POP POP JUMP JUMPDEST PUSH0 PUSH1 0x20 DUP3 ADD SWAP1 POP PUSH2 0x1182 PUSH0 DUP4 ADD DUP5 PUSH2 0x1160 JUMP JUMPDEST SWAP3 SWAP2 POP POP JUMP JUMPDEST PUSH0 DUP2 ISZERO ISZERO SWAP1 POP SWAP2 SWAP1 POP JUMP JUMPDEST PUSH2 0x119C DUP2 PUSH2 0x1188 JUMP JUMPDEST DUP3 MSTORE POP POP JUMP JUMPDEST PUSH0 PUSH1 0x20 DUP3 ADD SWAP1 POP PUSH2 0x11B5 PUSH0 DUP4 ADD DUP5 PUSH2 0x1193 JUMP JUMPDEST SWAP3 SWAP2 POP POP JUMP JUMPDEST PUSH32 0x4E487B7100000000000000000000000000000000000000000000000000000000 PUSH0 MSTORE PUSH1 0x11 PUSH1 0x4 MSTORE PUSH1 0x24 PUSH0 REVERT JUMPDEST PUSH0 PUSH2 0x11F2 DUP3 PUSH2 0x1013 JUMP JUMPDEST SWAP2 POP PUSH2 0x11FD DUP4 PUSH2 0x1013 JUMP JUMPDEST SWAP3 POP DUP3 DUP3 ADD SWAP1 POP DUP1 DUP3 GT ISZERO PUSH2 0x1215 JUMPI PUSH2 0x1214 PUSH2 0x11BB JUMP JUMPDEST JUMPDEST SWAP3 SWAP2 POP POP JUMP JUMPDEST PUSH0 PUSH2 0x1225 DUP3 PUSH2 0x1013 JUMP JUMPDEST SWAP2 POP PUSH2 0x1230 DUP4 PUSH2 0x1013 JUMP JUMPDEST SWAP3 POP DUP3 DUP3 SUB SWAP1 POP DUP2 DUP2 GT ISZERO PUSH2 0x1248 JUMPI PUSH2 0x1247 PUSH2 0x11BB JUMP JUMPDEST JUMPDEST SWAP3 SWAP2 POP POP JUMP JUMPDEST PUSH32 0x4E487B7100000000000000000000000000000000000000000000000000000000 PUSH0 MSTORE PUSH1 0x12 PUSH1 0x4 MSTORE PUSH1 0x24 PUSH0 REVERT JUMPDEST PUSH0 PUSH2 0x1285 DUP3 PUSH2 0x1013 JUMP JUMPDEST SWAP2 POP PUSH2 0x1290 DUP4 PUSH2 0x1013 JUMP JUMPDEST SWAP3 POP DUP3 PUSH2 0x12A0 JUMPI PUSH2 0x129F PUSH2 0x124E JUMP JUMPDEST JUMPDEST DUP3 DUP3 DIV SWAP1 POP SWAP3 SWAP2 POP POP JUMP JUMPDEST PUSH0 PUSH2 0x12B5 DUP3 PUSH2 0x1013 JUMP JUMPDEST SWAP2 POP PUSH2 0x12C0 DUP4 PUSH2 0x1013 JUMP JUMPDEST SWAP3 POP DUP3 DUP3 MUL PUSH2 0x12CE DUP2 PUSH2 0x1013 JUMP JUMPDEST SWAP2 POP DUP3 DUP3 DIV DUP5 EQ DUP4 ISZERO OR PUSH2 0x12E5 JUMPI PUSH2 0x12E4 PUSH2 0x11BB JUMP JUMPDEST JUMPDEST POP SWAP3 SWAP2 POP POP JUMP INVALID LOG2 PUSH5 0x6970667358 0x22 SLT KECCAK256 DUP9 0xCA 0x28 PUSH30 0xB76EAECC08A33B31A10500E6D8F6C7C6BC40FDDD2FF0AFE83F073076473 PUSH16 0x6C634300081800330000000000000000 "
				},
				"gasEstimates": {
					"creation": {
						"codeDepositCost": "979600",
						"executionCost": "162289",
						"totalCost": "1141889"
					},
					"external": {
						"buyEggs(address)": "infinite",
						"calculateEggBuy(uint256,uint256)": "infinite",
						"calculateEggBuySimple(uint256)": "infinite",
						"calculateEggSell(uint256)": "infinite",
						"furnaceRewards(address)": "infinite",
						"getBalance()": "358",
						"getEggsSinceLastHatch(address)": "infinite",
						"getMyEggs(address)": "infinite",
						"getMyMiners(address)": "2918",
						"hatchEggs(address)": "infinite",
						"isOwner()": "2512",
						"owner()": "2582",
						"renounceOwnership()": "29927",
						"seedMarket()": "50847",
						"sellEggs()": "infinite",
						"transferOwnership(address)": "30746"
					},
					"internal": {
						"calculateTrade(uint256,uint256,uint256)": "infinite",
						"devFee(uint256)": "infinite",
						"min(uint256,uint256)": "63"
					}
				},
				"methodIdentifiers": {
					"buyEggs(address)": "db663865",
					"calculateEggBuy(uint256,uint256)": "26fd8422",
					"calculateEggBuySimple(uint256)": "7e56fde5",
					"calculateEggSell(uint256)": "8e316327",
					"furnaceRewards(address)": "450c9d7d",
					"getBalance()": "12065fe0",
					"getEggsSinceLastHatch(address)": "d7c8843b",
					"getMyEggs(address)": "2ef6a743",
					"getMyMiners(address)": "4b634b06",
					"hatchEggs(address)": "3ec862a8",
					"isOwner()": "8f32d59b",
					"owner()": "8da5cb5b",
					"renounceOwnership()": "715018a6",
					"seedMarket()": "3c5f07cb",
					"sellEggs()": "3955f0fe",
					"transferOwnership(address)": "f2fde38b"
				}
			},
			"storageLayout": {
				"storage": [
					{
						"astId": 313,
						"contract": "contracts/BlastFurnace_flattened.sol:BlastFurnace",
						"label": "_owner",
						"offset": 0,
						"slot": "0",
						"type": "t_address"
					},
					{
						"astId": 445,
						"contract": "contracts/BlastFurnace_flattened.sol:BlastFurnace",
						"label": "EGGS_TO_HATCH_1MINERS",
						"offset": 0,
						"slot": "1",
						"type": "t_uint256"
					},
					{
						"astId": 448,
						"contract": "contracts/BlastFurnace_flattened.sol:BlastFurnace",
						"label": "PSN",
						"offset": 0,
						"slot": "2",
						"type": "t_uint256"
					},
					{
						"astId": 451,
						"contract": "contracts/BlastFurnace_flattened.sol:BlastFurnace",
						"label": "PSNH",
						"offset": 0,
						"slot": "3",
						"type": "t_uint256"
					},
					{
						"astId": 454,
						"contract": "contracts/BlastFurnace_flattened.sol:BlastFurnace",
						"label": "devFeeVal",
						"offset": 0,
						"slot": "4",
						"type": "t_uint256"
					},
					{
						"astId": 457,
						"contract": "contracts/BlastFurnace_flattened.sol:BlastFurnace",
						"label": "initialized",
						"offset": 0,
						"slot": "5",
						"type": "t_bool"
					},
					{
						"astId": 459,
						"contract": "contracts/BlastFurnace_flattened.sol:BlastFurnace",
						"label": "recAdd",
						"offset": 1,
						"slot": "5",
						"type": "t_address_payable"
					},
					{
						"astId": 463,
						"contract": "contracts/BlastFurnace_flattened.sol:BlastFurnace",
						"label": "hatcheryMiners",
						"offset": 0,
						"slot": "6",
						"type": "t_mapping(t_address,t_uint256)"
					},
					{
						"astId": 467,
						"contract": "contracts/BlastFurnace_flattened.sol:BlastFurnace",
						"label": "claimedEggs",
						"offset": 0,
						"slot": "7",
						"type": "t_mapping(t_address,t_uint256)"
					},
					{
						"astId": 471,
						"contract": "contracts/BlastFurnace_flattened.sol:BlastFurnace",
						"label": "lastHatch",
						"offset": 0,
						"slot": "8",
						"type": "t_mapping(t_address,t_uint256)"
					},
					{
						"astId": 475,
						"contract": "contracts/BlastFurnace_flattened.sol:BlastFurnace",
						"label": "referrals",
						"offset": 0,
						"slot": "9",
						"type": "t_mapping(t_address,t_address)"
					},
					{
						"astId": 477,
						"contract": "contracts/BlastFurnace_flattened.sol:BlastFurnace",
						"label": "marketEggs",
						"offset": 0,
						"slot": "10",
						"type": "t_uint256"
					}
				],
				"types": {
					"t_address": {
						"encoding": "inplace",
						"label": "address",
						"numberOfBytes": "20"
					},
					"t_address_payable": {
						"encoding": "inplace",
						"label": "address payable",
						"numberOfBytes": "20"
					},
					"t_bool": {
						"encoding": "inplace",
						"label": "bool",
						"numberOfBytes": "1"
					},
					"t_mapping(t_address,t_address)": {
						"encoding": "mapping",
						"key": "t_address",
						"label": "mapping(address => address)",
						"numberOfBytes": "32",
						"value": "t_address"
					},
					"t_mapping(t_address,t_uint256)": {
						"encoding": "mapping",
						"key": "t_address",
						"label": "mapping(address => uint256)",
						"numberOfBytes": "32",
						"value": "t_uint256"
					},
					"t_uint256": {
						"encoding": "inplace",
						"label": "uint256",
						"numberOfBytes": "32"
					}
				}
			},
			"userdoc": {
				"kind": "user",
				"methods": {},
				"version": 1
			}
		}
	}
}