{
	"contracts/BlastFurnace_flattened.sol": {
		"BlastFurnace": {
			"abi": [
				{
					"inputs": [],
					"stateMutability": "nonpayable",
					"type": "constructor"
				},
				{
					"anonymous": false,
					"inputs": [
						{
							"indexed": false,
							"internalType": "address",
							"name": "recipient",
							"type": "address"
						},
						{
							"indexed": false,
							"internalType": "uint256",
							"name": "amount",
							"type": "uint256"
						}
					],
					"name": "NativeTransfer",
					"type": "event"
				},
				{
					"anonymous": false,
					"inputs": [
						{
							"indexed": true,
							"internalType": "address",
							"name": "previousOwner",
							"type": "address"
						}
					],
					"name": "OwnershipRenounced",
					"type": "event"
				},
				{
					"anonymous": false,
					"inputs": [
						{
							"indexed": true,
							"internalType": "address",
							"name": "previousOwner",
							"type": "address"
						},
						{
							"indexed": true,
							"internalType": "address",
							"name": "newOwner",
							"type": "address"
						}
					],
					"name": "OwnershipTransferred",
					"type": "event"
				},
				{
					"inputs": [],
					"name": "BLAST",
					"outputs": [
						{
							"internalType": "contract IBlast",
							"name": "",
							"type": "address"
						}
					],
					"stateMutability": "view",
					"type": "function"
				},
				{
					"inputs": [],
					"name": "_blastClaimInterval",
					"outputs": [
						{
							"internalType": "uint256",
							"name": "",
							"type": "uint256"
						}
					],
					"stateMutability": "view",
					"type": "function"
				},
				{
					"inputs": [
						{
							"internalType": "uint256",
							"name": "",
							"type": "uint256"
						}
					],
					"name": "airdropQualifiers",
					"outputs": [
						{
							"internalType": "address",
							"name": "",
							"type": "address"
						}
					],
					"stateMutability": "view",
					"type": "function"
				},
				{
					"inputs": [
						{
							"internalType": "address",
							"name": "ref",
							"type": "address"
						}
					],
					"name": "buyIngots",
					"outputs": [],
					"stateMutability": "payable",
					"type": "function"
				},
				{
					"inputs": [
						{
							"internalType": "uint256",
							"name": "eth",
							"type": "uint256"
						},
						{
							"internalType": "uint256",
							"name": "contractBalance",
							"type": "uint256"
						}
					],
					"name": "calculateIngotBuy",
					"outputs": [
						{
							"internalType": "uint256",
							"name": "",
							"type": "uint256"
						}
					],
					"stateMutability": "view",
					"type": "function"
				},
				{
					"inputs": [
						{
							"internalType": "uint256",
							"name": "eth",
							"type": "uint256"
						}
					],
					"name": "calculateIngotBuySimple",
					"outputs": [
						{
							"internalType": "uint256",
							"name": "",
							"type": "uint256"
						}
					],
					"stateMutability": "view",
					"type": "function"
				},
				{
					"inputs": [
						{
							"internalType": "uint256",
							"name": "ingots",
							"type": "uint256"
						}
					],
					"name": "calculateIngotSell",
					"outputs": [
						{
							"internalType": "uint256",
							"name": "",
							"type": "uint256"
						}
					],
					"stateMutability": "view",
					"type": "function"
				},
				{
					"inputs": [],
					"name": "claimMyGasFees",
					"outputs": [],
					"stateMutability": "nonpayable",
					"type": "function"
				},
				{
					"inputs": [
						{
							"internalType": "address",
							"name": "adr",
							"type": "address"
						}
					],
					"name": "furnaceRewards",
					"outputs": [
						{
							"internalType": "uint256",
							"name": "",
							"type": "uint256"
						}
					],
					"stateMutability": "view",
					"type": "function"
				},
				{
					"inputs": [],
					"name": "getBalance",
					"outputs": [
						{
							"internalType": "uint256",
							"name": "",
							"type": "uint256"
						}
					],
					"stateMutability": "view",
					"type": "function"
				},
				{
					"inputs": [
						{
							"internalType": "address",
							"name": "adr",
							"type": "address"
						}
					],
					"name": "getIngotsSinceLastHatch",
					"outputs": [
						{
							"internalType": "uint256",
							"name": "",
							"type": "uint256"
						}
					],
					"stateMutability": "view",
					"type": "function"
				},
				{
					"inputs": [
						{
							"internalType": "address",
							"name": "adr",
							"type": "address"
						}
					],
					"name": "getMyIngots",
					"outputs": [
						{
							"internalType": "uint256",
							"name": "",
							"type": "uint256"
						}
					],
					"stateMutability": "view",
					"type": "function"
				},
				{
					"inputs": [
						{
							"internalType": "address",
							"name": "adr",
							"type": "address"
						}
					],
					"name": "getMyMiners",
					"outputs": [
						{
							"internalType": "uint256",
							"name": "",
							"type": "uint256"
						}
					],
					"stateMutability": "view",
					"type": "function"
				},
				{
					"inputs": [
						{
							"internalType": "address",
							"name": "ref",
							"type": "address"
						}
					],
					"name": "hatchIngots",
					"outputs": [],
					"stateMutability": "nonpayable",
					"type": "function"
				},
				{
					"inputs": [],
					"name": "isOwner",
					"outputs": [
						{
							"internalType": "bool",
							"name": "",
							"type": "bool"
						}
					],
					"stateMutability": "view",
					"type": "function"
				},
				{
					"inputs": [],
					"name": "owner",
					"outputs": [
						{
							"internalType": "address",
							"name": "",
							"type": "address"
						}
					],
					"stateMutability": "view",
					"type": "function"
				},
				{
					"inputs": [],
					"name": "renounceOwnership",
					"outputs": [],
					"stateMutability": "nonpayable",
					"type": "function"
				},
				{
					"inputs": [],
					"name": "seedMarket",
					"outputs": [],
					"stateMutability": "payable",
					"type": "function"
				},
				{
					"inputs": [],
					"name": "sellIngots",
					"outputs": [],
					"stateMutability": "nonpayable",
					"type": "function"
				},
				{
					"inputs": [
						{
							"internalType": "uint256",
							"name": "interval",
							"type": "uint256"
						}
					],
					"name": "setBlastClaimInterval",
					"outputs": [],
					"stateMutability": "nonpayable",
					"type": "function"
				},
				{
					"inputs": [
						{
							"internalType": "address",
							"name": "blastAddr",
							"type": "address"
						}
					],
					"name": "setupBlast",
					"outputs": [],
					"stateMutability": "nonpayable",
					"type": "function"
				},
				{
					"inputs": [
						{
							"internalType": "address",
							"name": "newOwner",
							"type": "address"
						}
					],
					"name": "transferOwnership",
					"outputs": [],
					"stateMutability": "nonpayable",
					"type": "function"
				}
			],
			"devdoc": {
				"kind": "dev",
				"methods": {},
				"version": 1
			},
			"evm": {
				"assembly": "    /* \"contracts/BlastFurnace_flattened.sol\":9959:15158  contract BlastFurnace is BlastClaimable, NativeTransferable {... */\n  mstore(0x40, 0x80)\n    /* \"contracts/BlastFurnace_flattened.sol\":7405:7411  1 days */\n  0x015180\n    /* \"contracts/BlastFurnace_flattened.sol\":7368:7411  uint256 public _blastClaimInterval = 1 days */\n  0x03\n  sstore\n    /* \"contracts/BlastFurnace_flattened.sol\":10097:10104  1080000 */\n  0x107ac0\n    /* \"contracts/BlastFurnace_flattened.sol\":10055:10104  uint256 private INGOTS_TO_HATCH_1MINERS = 1080000 */\n  0x05\n  sstore\n    /* \"contracts/BlastFurnace_flattened.sol\":10177:10182  10000 */\n  0x2710\n    /* \"contracts/BlastFurnace_flattened.sol\":10155:10182  uint256 private PSN = 10000 */\n  0x06\n  sstore\n    /* \"contracts/BlastFurnace_flattened.sol\":10209:10213  5000 */\n  0x1388\n    /* \"contracts/BlastFurnace_flattened.sol\":10186:10213  uint256 private PSNH = 5000 */\n  0x07\n  sstore\n    /* \"contracts/BlastFurnace_flattened.sol\":10245:10246  3 */\n  0x03\n    /* \"contracts/BlastFurnace_flattened.sol\":10217:10246  uint256 private devFeeVal = 3 */\n  0x08\n  sstore\n    /* \"contracts/BlastFurnace_flattened.sol\":10277:10282  false */\n  0x00\n    /* \"contracts/BlastFurnace_flattened.sol\":10250:10282  bool private initialized = false */\n  0x09\n  exp(0x0100, 0x00)\n  dup2\n  sload\n  dup2\n  0xff\n  mul\n  not\n  and\n  swap1\n  dup4\n  iszero\n  iszero\n  mul\n  or\n  swap1\n  sstore\n  pop\n    /* \"contracts/BlastFurnace_flattened.sol\":10731:10783  constructor() {... */\n  callvalue\n  dup1\n  iszero\n  tag_1\n  jumpi\n  0x00\n  dup1\n  revert\ntag_1:\n  pop\n    /* \"contracts/BlastFurnace_flattened.sol\":6371:6381  msg.sender */\n  caller\n    /* \"contracts/BlastFurnace_flattened.sol\":6362:6368  _owner */\n  0x00\n  dup1\n    /* \"contracts/BlastFurnace_flattened.sol\":6362:6381  _owner = msg.sender */\n  0x0100\n  exp\n  dup2\n  sload\n  dup2\n  0xffffffffffffffffffffffffffffffffffffffff\n  mul\n  not\n  and\n  swap1\n  dup4\n  0xffffffffffffffffffffffffffffffffffffffff\n  and\n  mul\n  or\n  swap1\n  sstore\n  pop\n    /* \"contracts/BlastFurnace_flattened.sol\":10767:10777  msg.sender */\n  caller\n    /* \"contracts/BlastFurnace_flattened.sol\":10750:10756  recAdd */\n  0x09\n  0x01\n    /* \"contracts/BlastFurnace_flattened.sol\":10750:10778  recAdd = payable(msg.sender) */\n  0x0100\n  exp\n  dup2\n  sload\n  dup2\n  0xffffffffffffffffffffffffffffffffffffffff\n  mul\n  not\n  and\n  swap1\n  dup4\n  0xffffffffffffffffffffffffffffffffffffffff\n  and\n  mul\n  or\n  swap1\n  sstore\n  pop\n    /* \"contracts/BlastFurnace_flattened.sol\":9959:15158  contract BlastFurnace is BlastClaimable, NativeTransferable {... */\n  dataSize(sub_0)\n  dup1\n  dataOffset(sub_0)\n  0x00\n  codecopy\n  0x00\n  return\nstop\n\nsub_0: assembly {\n        /* \"contracts/BlastFurnace_flattened.sol\":9959:15158  contract BlastFurnace is BlastClaimable, NativeTransferable {... */\n      mstore(0x40, 0x80)\n      jumpi(tag_1, lt(calldatasize, 0x04))\n      shr(0xe0, calldataload(0x00))\n      dup1\n      0x8da5cb5b\n      gt\n      tag_24\n      jumpi\n      dup1\n      0xe5d782fc\n      gt\n      tag_25\n      jumpi\n      dup1\n      0xe5d782fc\n      eq\n      tag_18\n      jumpi\n      dup1\n      0xe953f982\n      eq\n      tag_19\n      jumpi\n      dup1\n      0xeaca243b\n      eq\n      tag_20\n      jumpi\n      dup1\n      0xf2e809e0\n      eq\n      tag_21\n      jumpi\n      dup1\n      0xf2fde38b\n      eq\n      tag_22\n      jumpi\n      dup1\n      0xfeeea92e\n      eq\n      tag_23\n      jumpi\n      jump(tag_1)\n    tag_25:\n      dup1\n      0x8da5cb5b\n      eq\n      tag_13\n      jumpi\n      dup1\n      0x8f32d59b\n      eq\n      tag_14\n      jumpi\n      dup1\n      0x97d75776\n      eq\n      tag_15\n      jumpi\n      dup1\n      0xb18a2f82\n      eq\n      tag_16\n      jumpi\n      dup1\n      0xc2a6856f\n      eq\n      tag_17\n      jumpi\n      jump(tag_1)\n    tag_24:\n      dup1\n      0x450c9d7d\n      gt\n      tag_26\n      jumpi\n      dup1\n      0x450c9d7d\n      eq\n      tag_7\n      jumpi\n      dup1\n      0x4addc0e8\n      eq\n      tag_8\n      jumpi\n      dup1\n      0x4b634b06\n      eq\n      tag_9\n      jumpi\n      dup1\n      0x53e3323b\n      eq\n      tag_10\n      jumpi\n      dup1\n      0x715018a6\n      eq\n      tag_11\n      jumpi\n      dup1\n      0x7a571ae1\n      eq\n      tag_12\n      jumpi\n      jump(tag_1)\n    tag_26:\n      dup1\n      0x012d754c\n      eq\n      tag_2\n      jumpi\n      dup1\n      0x12065fe0\n      eq\n      tag_3\n      jumpi\n      dup1\n      0x23084e5f\n      eq\n      tag_4\n      jumpi\n      dup1\n      0x2cf4f274\n      eq\n      tag_5\n      jumpi\n      dup1\n      0x3c5f07cb\n      eq\n      tag_6\n      jumpi\n    tag_1:\n      0x00\n      dup1\n      revert\n        /* \"contracts/BlastFurnace_flattened.sol\":11792:12215  function sellIngots() public {... */\n    tag_2:\n      callvalue\n      dup1\n      iszero\n      tag_27\n      jumpi\n      0x00\n      dup1\n      revert\n    tag_27:\n      pop\n      tag_28\n      tag_29\n      jump\t// in\n    tag_28:\n      stop\n        /* \"contracts/BlastFurnace_flattened.sol\":14011:14101  function getBalance() public view returns (uint256) {... */\n    tag_3:\n      callvalue\n      dup1\n      iszero\n      tag_30\n      jumpi\n      0x00\n      dup1\n      revert\n    tag_30:\n      pop\n      tag_31\n      tag_32\n      jump\t// in\n    tag_31:\n      mload(0x40)\n      tag_33\n      swap2\n      swap1\n      tag_34\n      jump\t// in\n    tag_33:\n      mload(0x40)\n      dup1\n      swap2\n      sub\n      swap1\n      return\n        /* \"contracts/BlastFurnace_flattened.sol\":7450:7861  function claimMyGasFees() external {... */\n    tag_4:\n      callvalue\n      dup1\n      iszero\n      tag_35\n      jumpi\n      0x00\n      dup1\n      revert\n    tag_35:\n      pop\n      tag_36\n      tag_37\n      jump\t// in\n    tag_36:\n      stop\n        /* \"contracts/BlastFurnace_flattened.sol\":14211:14354  function getMyIngots(address adr) public view returns (uint256) {... */\n    tag_5:\n      callvalue\n      dup1\n      iszero\n      tag_38\n      jumpi\n      0x00\n      dup1\n      revert\n    tag_38:\n      pop\n      tag_39\n      0x04\n      dup1\n      calldatasize\n      sub\n      dup2\n      add\n      swap1\n      tag_40\n      swap2\n      swap1\n      tag_41\n      jump\t// in\n    tag_40:\n      tag_42\n      jump\t// in\n    tag_39:\n      mload(0x40)\n      tag_43\n      swap2\n      swap1\n      tag_34\n      jump\t// in\n    tag_43:\n      mload(0x40)\n      dup1\n      swap2\n      sub\n      swap1\n      return\n        /* \"contracts/BlastFurnace_flattened.sol\":13868:14006  function seedMarket() public payable onlyOwner {... */\n    tag_6:\n      tag_44\n      tag_45\n      jump\t// in\n    tag_44:\n      stop\n        /* \"contracts/BlastFurnace_flattened.sol\":12220:12410  function furnaceRewards(address adr) public view returns (uint256) {... */\n    tag_7:\n      callvalue\n      dup1\n      iszero\n      tag_46\n      jumpi\n      0x00\n      dup1\n      revert\n    tag_46:\n      pop\n      tag_47\n      0x04\n      dup1\n      calldatasize\n      sub\n      dup2\n      add\n      swap1\n      tag_48\n      swap2\n      swap1\n      tag_41\n      jump\t// in\n    tag_48:\n      tag_49\n      jump\t// in\n    tag_47:\n      mload(0x40)\n      tag_50\n      swap2\n      swap1\n      tag_34\n      jump\t// in\n    tag_50:\n      mload(0x40)\n      dup1\n      swap2\n      sub\n      swap1\n      return\n        /* \"contracts/BlastFurnace_flattened.sol\":7368:7411  uint256 public _blastClaimInterval = 1 days */\n    tag_8:\n      callvalue\n      dup1\n      iszero\n      tag_51\n      jumpi\n      0x00\n      dup1\n      revert\n    tag_51:\n      pop\n      tag_52\n      tag_53\n      jump\t// in\n    tag_52:\n      mload(0x40)\n      tag_54\n      swap2\n      swap1\n      tag_34\n      jump\t// in\n    tag_54:\n      mload(0x40)\n      dup1\n      swap2\n      sub\n      swap1\n      return\n        /* \"contracts/BlastFurnace_flattened.sol\":14106:14206  function getMyMiners(address adr) public view returns (uint256) {... */\n    tag_9:\n      callvalue\n      dup1\n      iszero\n      tag_55\n      jumpi\n      0x00\n      dup1\n      revert\n    tag_55:\n      pop\n      tag_56\n      0x04\n      dup1\n      calldatasize\n      sub\n      dup2\n      add\n      swap1\n      tag_57\n      swap2\n      swap1\n      tag_41\n      jump\t// in\n    tag_57:\n      tag_58\n      jump\t// in\n    tag_56:\n      mload(0x40)\n      tag_59\n      swap2\n      swap1\n      tag_34\n      jump\t// in\n    tag_59:\n      mload(0x40)\n      dup1\n      swap2\n      sub\n      swap1\n      return\n        /* \"contracts/BlastFurnace_flattened.sol\":10557:10591  address[] public airdropQualifiers */\n    tag_10:\n      callvalue\n      dup1\n      iszero\n      tag_60\n      jumpi\n      0x00\n      dup1\n      revert\n    tag_60:\n      pop\n      tag_61\n      0x04\n      dup1\n      calldatasize\n      sub\n      dup2\n      add\n      swap1\n      tag_62\n      swap2\n      swap1\n      tag_63\n      jump\t// in\n    tag_62:\n      tag_64\n      jump\t// in\n    tag_61:\n      mload(0x40)\n      tag_65\n      swap2\n      swap1\n      tag_66\n      jump\t// in\n    tag_65:\n      mload(0x40)\n      dup1\n      swap2\n      sub\n      swap1\n      return\n        /* \"contracts/BlastFurnace_flattened.sol\":6614:6725  function renounceOwnership() public onlyOwner {... */\n    tag_11:\n      callvalue\n      dup1\n      iszero\n      tag_67\n      jumpi\n      0x00\n      dup1\n      revert\n    tag_67:\n      pop\n      tag_68\n      tag_69\n      jump\t// in\n    tag_68:\n      stop\n        /* \"contracts/BlastFurnace_flattened.sol\":13423:13585  function calculateIngotBuy(uint256 eth, uint256 contractBalance) public view returns (uint256) {... */\n    tag_12:\n      callvalue\n      dup1\n      iszero\n      tag_70\n      jumpi\n      0x00\n      dup1\n      revert\n    tag_70:\n      pop\n      tag_71\n      0x04\n      dup1\n      calldatasize\n      sub\n      dup2\n      add\n      swap1\n      tag_72\n      swap2\n      swap1\n      tag_73\n      jump\t// in\n    tag_72:\n      tag_74\n      jump\t// in\n    tag_71:\n      mload(0x40)\n      tag_75\n      swap2\n      swap1\n      tag_34\n      jump\t// in\n    tag_75:\n      mload(0x40)\n      dup1\n      swap2\n      sub\n      swap1\n      return\n        /* \"contracts/BlastFurnace_flattened.sol\":6391:6461  function owner() public view returns (address) {... */\n    tag_13:\n      callvalue\n      dup1\n      iszero\n      tag_76\n      jumpi\n      0x00\n      dup1\n      revert\n    tag_76:\n      pop\n      tag_77\n      tag_78\n      jump\t// in\n    tag_77:\n      mload(0x40)\n      tag_79\n      swap2\n      swap1\n      tag_66\n      jump\t// in\n    tag_79:\n      mload(0x40)\n      dup1\n      swap2\n      sub\n      swap1\n      return\n        /* \"contracts/BlastFurnace_flattened.sol\":6526:6609  function isOwner() public view returns (bool) {... */\n    tag_14:\n      callvalue\n      dup1\n      iszero\n      tag_80\n      jumpi\n      0x00\n      dup1\n      revert\n    tag_80:\n      pop\n      tag_81\n      tag_82\n      jump\t// in\n    tag_81:\n      mload(0x40)\n      tag_83\n      swap2\n      swap1\n      tag_84\n      jump\t// in\n    tag_83:\n      mload(0x40)\n      dup1\n      swap2\n      sub\n      swap1\n      return\n        /* \"contracts/BlastFurnace_flattened.sol\":7296:7315  IBlast public BLAST */\n    tag_15:\n      callvalue\n      dup1\n      iszero\n      tag_85\n      jumpi\n      0x00\n      dup1\n      revert\n    tag_85:\n      pop\n      tag_86\n      tag_87\n      jump\t// in\n    tag_86:\n      mload(0x40)\n      tag_88\n      swap2\n      swap1\n      tag_89\n      jump\t// in\n    tag_88:\n      mload(0x40)\n      dup1\n      swap2\n      sub\n      swap1\n      return\n        /* \"contracts/BlastFurnace_flattened.sol\":13268:13418  function calculateIngotSell(uint256 ingots) public view returns (uint256) {... */\n    tag_16:\n      callvalue\n      dup1\n      iszero\n      tag_90\n      jumpi\n      0x00\n      dup1\n      revert\n    tag_90:\n      pop\n      tag_91\n      0x04\n      dup1\n      calldatasize\n      sub\n      dup2\n      add\n      swap1\n      tag_92\n      swap2\n      swap1\n      tag_63\n      jump\t// in\n    tag_92:\n      tag_93\n      jump\t// in\n    tag_91:\n      mload(0x40)\n      tag_94\n      swap2\n      swap1\n      tag_34\n      jump\t// in\n    tag_94:\n      mload(0x40)\n      dup1\n      swap2\n      sub\n      swap1\n      return\n        /* \"contracts/BlastFurnace_flattened.sol\":14359:14604  function getIngotsSinceLastHatch(address adr) public view returns (uint256) {... */\n    tag_17:\n      callvalue\n      dup1\n      iszero\n      tag_95\n      jumpi\n      0x00\n      dup1\n      revert\n    tag_95:\n      pop\n      tag_96\n      0x04\n      dup1\n      calldatasize\n      sub\n      dup2\n      add\n      swap1\n      tag_97\n      swap2\n      swap1\n      tag_41\n      jump\t// in\n    tag_97:\n      tag_98\n      jump\t// in\n    tag_96:\n      mload(0x40)\n      tag_99\n      swap2\n      swap1\n      tag_34\n      jump\t// in\n    tag_99:\n      mload(0x40)\n      dup1\n      swap2\n      sub\n      swap1\n      return\n        /* \"contracts/BlastFurnace_flattened.sol\":12415:13016  function buyIngots(address ref) public payable {... */\n    tag_18:\n      tag_100\n      0x04\n      dup1\n      calldatasize\n      sub\n      dup2\n      add\n      swap1\n      tag_101\n      swap2\n      swap1\n      tag_41\n      jump\t// in\n    tag_101:\n      tag_102\n      jump\t// in\n    tag_100:\n      stop\n        /* \"contracts/BlastFurnace_flattened.sol\":13590:13728  function calculateIngotBuySimple(uint256 eth) public view returns (uint256) {... */\n    tag_19:\n      callvalue\n      dup1\n      iszero\n      tag_103\n      jumpi\n      0x00\n      dup1\n      revert\n    tag_103:\n      pop\n      tag_104\n      0x04\n      dup1\n      calldatasize\n      sub\n      dup2\n      add\n      swap1\n      tag_105\n      swap2\n      swap1\n      tag_63\n      jump\t// in\n    tag_105:\n      tag_106\n      jump\t// in\n    tag_104:\n      mload(0x40)\n      tag_107\n      swap2\n      swap1\n      tag_34\n      jump\t// in\n    tag_107:\n      mload(0x40)\n      dup1\n      swap2\n      sub\n      swap1\n      return\n        /* \"contracts/BlastFurnace_flattened.sol\":8097:8205  function setBlastClaimInterval(uint256 interval) external onlyOwner {... */\n    tag_20:\n      callvalue\n      dup1\n      iszero\n      tag_108\n      jumpi\n      0x00\n      dup1\n      revert\n    tag_108:\n      pop\n      tag_109\n      0x04\n      dup1\n      calldatasize\n      sub\n      dup2\n      add\n      swap1\n      tag_110\n      swap2\n      swap1\n      tag_63\n      jump\t// in\n    tag_110:\n      tag_111\n      jump\t// in\n    tag_109:\n      stop\n        /* \"contracts/BlastFurnace_flattened.sol\":7866:8092  function setupBlast(address blastAddr) external onlyOwner {... */\n    tag_21:\n      callvalue\n      dup1\n      iszero\n      tag_112\n      jumpi\n      0x00\n      dup1\n      revert\n    tag_112:\n      pop\n      tag_113\n      0x04\n      dup1\n      calldatasize\n      sub\n      dup2\n      add\n      swap1\n      tag_114\n      swap2\n      swap1\n      tag_41\n      jump\t// in\n    tag_114:\n      tag_115\n      jump\t// in\n    tag_113:\n      stop\n        /* \"contracts/BlastFurnace_flattened.sol\":6730:6830  function transferOwnership(address newOwner) public onlyOwner {... */\n    tag_22:\n      callvalue\n      dup1\n      iszero\n      tag_116\n      jumpi\n      0x00\n      dup1\n      revert\n    tag_116:\n      pop\n      tag_117\n      0x04\n      dup1\n      calldatasize\n      sub\n      dup2\n      add\n      swap1\n      tag_118\n      swap2\n      swap1\n      tag_41\n      jump\t// in\n    tag_118:\n      tag_119\n      jump\t// in\n    tag_117:\n      stop\n        /* \"contracts/BlastFurnace_flattened.sol\":10982:11787  function hatchIngots(address ref) public {... */\n    tag_23:\n      callvalue\n      dup1\n      iszero\n      tag_120\n      jumpi\n      0x00\n      dup1\n      revert\n    tag_120:\n      pop\n      tag_121\n      0x04\n      dup1\n      calldatasize\n      sub\n      dup2\n      add\n      swap1\n      tag_122\n      swap2\n      swap1\n      tag_41\n      jump\t// in\n    tag_122:\n      tag_123\n      jump\t// in\n    tag_121:\n      stop\n        /* \"contracts/BlastFurnace_flattened.sol\":11792:12215  function sellIngots() public {... */\n    tag_29:\n        /* \"contracts/BlastFurnace_flattened.sol\":11834:11845  initialized */\n      0x09\n      0x00\n      swap1\n      sload\n      swap1\n      0x0100\n      exp\n      swap1\n      div\n      0xff\n      and\n        /* \"contracts/BlastFurnace_flattened.sol\":11826:11846  require(initialized) */\n      tag_125\n      jumpi\n      0x00\n      dup1\n      revert\n    tag_125:\n        /* \"contracts/BlastFurnace_flattened.sol\":11851:11868  uint256 hasIngots */\n      0x00\n        /* \"contracts/BlastFurnace_flattened.sol\":11871:11894  getMyIngots(msg.sender) */\n      tag_126\n        /* \"contracts/BlastFurnace_flattened.sol\":11883:11893  msg.sender */\n      caller\n        /* \"contracts/BlastFurnace_flattened.sol\":11871:11882  getMyIngots */\n      tag_42\n        /* \"contracts/BlastFurnace_flattened.sol\":11871:11894  getMyIngots(msg.sender) */\n      jump\t// in\n    tag_126:\n        /* \"contracts/BlastFurnace_flattened.sol\":11851:11894  uint256 hasIngots = getMyIngots(msg.sender) */\n      swap1\n      pop\n        /* \"contracts/BlastFurnace_flattened.sol\":11899:11917  uint256 IngotValue */\n      0x00\n        /* \"contracts/BlastFurnace_flattened.sol\":11920:11949  calculateIngotSell(hasIngots) */\n      tag_127\n        /* \"contracts/BlastFurnace_flattened.sol\":11939:11948  hasIngots */\n      dup3\n        /* \"contracts/BlastFurnace_flattened.sol\":11920:11938  calculateIngotSell */\n      tag_93\n        /* \"contracts/BlastFurnace_flattened.sol\":11920:11949  calculateIngotSell(hasIngots) */\n      jump\t// in\n    tag_127:\n        /* \"contracts/BlastFurnace_flattened.sol\":11899:11949  uint256 IngotValue = calculateIngotSell(hasIngots) */\n      swap1\n      pop\n        /* \"contracts/BlastFurnace_flattened.sol\":11954:11965  uint256 fee */\n      0x00\n        /* \"contracts/BlastFurnace_flattened.sol\":11968:11986  devFee(IngotValue) */\n      tag_128\n        /* \"contracts/BlastFurnace_flattened.sol\":11975:11985  IngotValue */\n      dup3\n        /* \"contracts/BlastFurnace_flattened.sol\":11968:11974  devFee */\n      tag_129\n        /* \"contracts/BlastFurnace_flattened.sol\":11968:11986  devFee(IngotValue) */\n      jump\t// in\n    tag_128:\n        /* \"contracts/BlastFurnace_flattened.sol\":11954:11986  uint256 fee = devFee(IngotValue) */\n      swap1\n      pop\n        /* \"contracts/BlastFurnace_flattened.sol\":12019:12020  0 */\n      0x00\n        /* \"contracts/BlastFurnace_flattened.sol\":11991:12004  claimedIngots */\n      0x0b\n        /* \"contracts/BlastFurnace_flattened.sol\":11991:12016  claimedIngots[msg.sender] */\n      0x00\n        /* \"contracts/BlastFurnace_flattened.sol\":12005:12015  msg.sender */\n      caller\n        /* \"contracts/BlastFurnace_flattened.sol\":11991:12016  claimedIngots[msg.sender] */\n      0xffffffffffffffffffffffffffffffffffffffff\n      and\n      0xffffffffffffffffffffffffffffffffffffffff\n      and\n      dup2\n      mstore\n      0x20\n      add\n      swap1\n      dup2\n      mstore\n      0x20\n      add\n      0x00\n      keccak256\n        /* \"contracts/BlastFurnace_flattened.sol\":11991:12020  claimedIngots[msg.sender] = 0 */\n      dup2\n      swap1\n      sstore\n      pop\n        /* \"contracts/BlastFurnace_flattened.sol\":12049:12064  block.timestamp */\n      timestamp\n        /* \"contracts/BlastFurnace_flattened.sol\":12025:12034  lastHatch */\n      0x0c\n        /* \"contracts/BlastFurnace_flattened.sol\":12025:12046  lastHatch[msg.sender] */\n      0x00\n        /* \"contracts/BlastFurnace_flattened.sol\":12035:12045  msg.sender */\n      caller\n        /* \"contracts/BlastFurnace_flattened.sol\":12025:12046  lastHatch[msg.sender] */\n      0xffffffffffffffffffffffffffffffffffffffff\n      and\n      0xffffffffffffffffffffffffffffffffffffffff\n      and\n      dup2\n      mstore\n      0x20\n      add\n      swap1\n      dup2\n      mstore\n      0x20\n      add\n      0x00\n      keccak256\n        /* \"contracts/BlastFurnace_flattened.sol\":12025:12064  lastHatch[msg.sender] = block.timestamp */\n      dup2\n      swap1\n      sstore\n      pop\n        /* \"contracts/BlastFurnace_flattened.sol\":12084:12121  SafeMath.add(marketIngots, hasIngots) */\n      tag_130\n        /* \"contracts/BlastFurnace_flattened.sol\":12097:12109  marketIngots */\n      sload(0x0e)\n        /* \"contracts/BlastFurnace_flattened.sol\":12111:12120  hasIngots */\n      dup5\n        /* \"contracts/BlastFurnace_flattened.sol\":12084:12096  SafeMath.add */\n      tag_131\n        /* \"contracts/BlastFurnace_flattened.sol\":12084:12121  SafeMath.add(marketIngots, hasIngots) */\n      jump\t// in\n    tag_130:\n        /* \"contracts/BlastFurnace_flattened.sol\":12069:12081  marketIngots */\n      0x0e\n        /* \"contracts/BlastFurnace_flattened.sol\":12069:12121  marketIngots = SafeMath.add(marketIngots, hasIngots) */\n      dup2\n      swap1\n      sstore\n      pop\n        /* \"contracts/BlastFurnace_flattened.sol\":12126:12132  recAdd */\n      0x09\n      0x01\n      swap1\n      sload\n      swap1\n      0x0100\n      exp\n      swap1\n      div\n      0xffffffffffffffffffffffffffffffffffffffff\n      and\n        /* \"contracts/BlastFurnace_flattened.sol\":12126:12141  recAdd.transfer */\n      0xffffffffffffffffffffffffffffffffffffffff\n      and\n        /* \"contracts/BlastFurnace_flattened.sol\":12126:12146  recAdd.transfer(fee) */\n      0x08fc\n        /* \"contracts/BlastFurnace_flattened.sol\":12142:12145  fee */\n      dup3\n        /* \"contracts/BlastFurnace_flattened.sol\":12126:12146  recAdd.transfer(fee) */\n      swap1\n      dup2\n      iszero\n      mul\n      swap1\n      mload(0x40)\n      0x00\n      mload(0x40)\n      dup1\n      dup4\n      sub\n      dup2\n      dup6\n      dup9\n      dup9\n      call\n      swap4\n      pop\n      pop\n      pop\n      pop\n      iszero\n      dup1\n      iszero\n      tag_133\n      jumpi\n      returndatasize\n      0x00\n      dup1\n      returndatacopy\n      revert(0x00, returndatasize)\n    tag_133:\n      pop\n        /* \"contracts/BlastFurnace_flattened.sol\":12159:12169  msg.sender */\n      caller\n        /* \"contracts/BlastFurnace_flattened.sol\":12151:12179  payable(msg.sender).transfer */\n      0xffffffffffffffffffffffffffffffffffffffff\n      and\n        /* \"contracts/BlastFurnace_flattened.sol\":12151:12210  payable(msg.sender).transfer(SafeMath.sub(IngotValue, fee)) */\n      0x08fc\n        /* \"contracts/BlastFurnace_flattened.sol\":12180:12209  SafeMath.sub(IngotValue, fee) */\n      tag_134\n        /* \"contracts/BlastFurnace_flattened.sol\":12193:12203  IngotValue */\n      dup5\n        /* \"contracts/BlastFurnace_flattened.sol\":12205:12208  fee */\n      dup5\n        /* \"contracts/BlastFurnace_flattened.sol\":12180:12192  SafeMath.sub */\n      tag_135\n        /* \"contracts/BlastFurnace_flattened.sol\":12180:12209  SafeMath.sub(IngotValue, fee) */\n      jump\t// in\n    tag_134:\n        /* \"contracts/BlastFurnace_flattened.sol\":12151:12210  payable(msg.sender).transfer(SafeMath.sub(IngotValue, fee)) */\n      swap1\n      dup2\n      iszero\n      mul\n      swap1\n      mload(0x40)\n      0x00\n      mload(0x40)\n      dup1\n      dup4\n      sub\n      dup2\n      dup6\n      dup9\n      dup9\n      call\n      swap4\n      pop\n      pop\n      pop\n      pop\n      iszero\n      dup1\n      iszero\n      tag_137\n      jumpi\n      returndatasize\n      0x00\n      dup1\n      returndatacopy\n      revert(0x00, returndatasize)\n    tag_137:\n      pop\n        /* \"contracts/BlastFurnace_flattened.sol\":11821:12215  {... */\n      pop\n      pop\n      pop\n        /* \"contracts/BlastFurnace_flattened.sol\":11792:12215  function sellIngots() public {... */\n      jump\t// out\n        /* \"contracts/BlastFurnace_flattened.sol\":14011:14101  function getBalance() public view returns (uint256) {... */\n    tag_32:\n        /* \"contracts/BlastFurnace_flattened.sol\":14054:14061  uint256 */\n      0x00\n        /* \"contracts/BlastFurnace_flattened.sol\":14075:14096  address(this).balance */\n      selfbalance\n        /* \"contracts/BlastFurnace_flattened.sol\":14068:14096  return address(this).balance */\n      swap1\n      pop\n        /* \"contracts/BlastFurnace_flattened.sol\":14011:14101  function getBalance() public view returns (uint256) {... */\n      swap1\n      jump\t// out\n        /* \"contracts/BlastFurnace_flattened.sol\":7450:7861  function claimMyGasFees() external {... */\n    tag_37:\n        /* \"contracts/BlastFurnace_flattened.sol\":7490:7507  address recipient */\n      0x00\n        /* \"contracts/BlastFurnace_flattened.sol\":7510:7520  msg.sender */\n      caller\n        /* \"contracts/BlastFurnace_flattened.sol\":7490:7520  address recipient = msg.sender */\n      swap1\n      pop\n        /* \"contracts/BlastFurnace_flattened.sol\":7525:7542  uint256 lastClaim */\n      0x00\n        /* \"contracts/BlastFurnace_flattened.sol\":7545:7560  _lastBlastClaim */\n      0x02\n        /* \"contracts/BlastFurnace_flattened.sol\":7545:7571  _lastBlastClaim[recipient] */\n      0x00\n        /* \"contracts/BlastFurnace_flattened.sol\":7561:7570  recipient */\n      dup4\n        /* \"contracts/BlastFurnace_flattened.sol\":7545:7571  _lastBlastClaim[recipient] */\n      0xffffffffffffffffffffffffffffffffffffffff\n      and\n      0xffffffffffffffffffffffffffffffffffffffff\n      and\n      dup2\n      mstore\n      0x20\n      add\n      swap1\n      dup2\n      mstore\n      0x20\n      add\n      0x00\n      keccak256\n      sload\n        /* \"contracts/BlastFurnace_flattened.sol\":7525:7571  uint256 lastClaim = _lastBlastClaim[recipient] */\n      swap1\n      pop\n        /* \"contracts/BlastFurnace_flattened.sol\":7616:7631  block.timestamp */\n      timestamp\n        /* \"contracts/BlastFurnace_flattened.sol\":7594:7613  _blastClaimInterval */\n      sload(0x03)\n        /* \"contracts/BlastFurnace_flattened.sol\":7582:7591  lastClaim */\n      dup3\n        /* \"contracts/BlastFurnace_flattened.sol\":7582:7613  lastClaim + _blastClaimInterval */\n      tag_140\n      swap2\n      swap1\n      tag_141\n      jump\t// in\n    tag_140:\n        /* \"contracts/BlastFurnace_flattened.sol\":7582:7631  lastClaim + _blastClaimInterval < block.timestamp */\n      lt\n        /* \"contracts/BlastFurnace_flattened.sol\":7578:7651  if (lastClaim + _blastClaimInterval < block.timestamp) {... */\n      iszero\n      tag_142\n      jumpi\n        /* \"contracts/BlastFurnace_flattened.sol\":7639:7646  return; */\n      pop\n      pop\n      jump(tag_139)\n        /* \"contracts/BlastFurnace_flattened.sol\":7578:7651  if (lastClaim + _blastClaimInterval < block.timestamp) {... */\n    tag_142:\n        /* \"contracts/BlastFurnace_flattened.sol\":7686:7701  block.timestamp */\n      timestamp\n        /* \"contracts/BlastFurnace_flattened.sol\":7657:7672  _lastBlastClaim */\n      0x02\n        /* \"contracts/BlastFurnace_flattened.sol\":7657:7683  _lastBlastClaim[recipient] */\n      0x00\n        /* \"contracts/BlastFurnace_flattened.sol\":7673:7682  recipient */\n      dup5\n        /* \"contracts/BlastFurnace_flattened.sol\":7657:7683  _lastBlastClaim[recipient] */\n      0xffffffffffffffffffffffffffffffffffffffff\n      and\n      0xffffffffffffffffffffffffffffffffffffffff\n      and\n      dup2\n      mstore\n      0x20\n      add\n      swap1\n      dup2\n      mstore\n      0x20\n      add\n      0x00\n      keccak256\n        /* \"contracts/BlastFurnace_flattened.sol\":7657:7701  _lastBlastClaim[recipient] = block.timestamp */\n      dup2\n      swap1\n      sstore\n      pop\n        /* \"contracts/BlastFurnace_flattened.sol\":7706:7721  uint256 claimed */\n      0x00\n        /* \"contracts/BlastFurnace_flattened.sol\":7724:7729  BLAST */\n      0x01\n      0x00\n      swap1\n      sload\n      swap1\n      0x0100\n      exp\n      swap1\n      div\n      0xffffffffffffffffffffffffffffffffffffffff\n      and\n        /* \"contracts/BlastFurnace_flattened.sol\":7724:7741  BLAST.claimAllGas */\n      0xffffffffffffffffffffffffffffffffffffffff\n      and\n      0x954fa5ee\n        /* \"contracts/BlastFurnace_flattened.sol\":7750:7754  this */\n      address\n        /* \"contracts/BlastFurnace_flattened.sol\":7757:7766  recipient */\n      dup6\n        /* \"contracts/BlastFurnace_flattened.sol\":7724:7767  BLAST.claimAllGas(address(this), recipient) */\n      mload(0x40)\n      dup4\n      0xffffffff\n      and\n      0xe0\n      shl\n      dup2\n      mstore\n      0x04\n      add\n      tag_143\n      swap3\n      swap2\n      swap1\n      tag_144\n      jump\t// in\n    tag_143:\n      0x20\n      mload(0x40)\n      dup1\n      dup4\n      sub\n      dup2\n      0x00\n      dup8\n      gas\n      call\n      iszero\n      dup1\n      iszero\n      tag_146\n      jumpi\n      returndatasize\n      0x00\n      dup1\n      returndatacopy\n      revert(0x00, returndatasize)\n    tag_146:\n      pop\n      pop\n      pop\n      pop\n      mload(0x40)\n      returndatasize\n      not(0x1f)\n      0x1f\n      dup3\n      add\n      and\n      dup3\n      add\n      dup1\n      0x40\n      mstore\n      pop\n      dup2\n      add\n      swap1\n      tag_147\n      swap2\n      swap1\n      tag_148\n      jump\t// in\n    tag_147:\n        /* \"contracts/BlastFurnace_flattened.sol\":7706:7767  uint256 claimed = BLAST.claimAllGas(address(this), recipient) */\n      swap1\n      pop\n        /* \"contracts/BlastFurnace_flattened.sol\":7788:7789  0 */\n      0x00\n        /* \"contracts/BlastFurnace_flattened.sol\":7778:7785  claimed */\n      dup2\n        /* \"contracts/BlastFurnace_flattened.sol\":7778:7789  claimed > 0 */\n      gt\n        /* \"contracts/BlastFurnace_flattened.sol\":7774:7857  if (claimed > 0) {... */\n      iszero\n      tag_149\n      jumpi\n        /* \"contracts/BlastFurnace_flattened.sol\":7813:7820  claimed */\n      dup1\n        /* \"contracts/BlastFurnace_flattened.sol\":7797:7809  _feesClaimed */\n      0x04\n      0x00\n        /* \"contracts/BlastFurnace_flattened.sol\":7797:7820  _feesClaimed += claimed */\n      dup3\n      dup3\n      sload\n      tag_150\n      swap2\n      swap1\n      tag_141\n      jump\t// in\n    tag_150:\n      swap3\n      pop\n      pop\n      dup2\n      swap1\n      sstore\n      pop\n        /* \"contracts/BlastFurnace_flattened.sol\":7826:7851  blastFeesClaimed(claimed) */\n      tag_151\n        /* \"contracts/BlastFurnace_flattened.sol\":7843:7850  claimed */\n      dup2\n        /* \"contracts/BlastFurnace_flattened.sol\":7826:7842  blastFeesClaimed */\n      tag_152\n        /* \"contracts/BlastFurnace_flattened.sol\":7826:7851  blastFeesClaimed(claimed) */\n      jump\t// in\n    tag_151:\n        /* \"contracts/BlastFurnace_flattened.sol\":7774:7857  if (claimed > 0) {... */\n    tag_149:\n        /* \"contracts/BlastFurnace_flattened.sol\":7485:7861  {... */\n      pop\n      pop\n      pop\n        /* \"contracts/BlastFurnace_flattened.sol\":7450:7861  function claimMyGasFees() external {... */\n    tag_139:\n      jump\t// out\n        /* \"contracts/BlastFurnace_flattened.sol\":14211:14354  function getMyIngots(address adr) public view returns (uint256) {... */\n    tag_42:\n        /* \"contracts/BlastFurnace_flattened.sol\":14266:14273  uint256 */\n      0x00\n        /* \"contracts/BlastFurnace_flattened.sol\":14287:14349  SafeMath.add(claimedIngots[adr], getIngotsSinceLastHatch(adr)) */\n      tag_154\n        /* \"contracts/BlastFurnace_flattened.sol\":14300:14313  claimedIngots */\n      0x0b\n        /* \"contracts/BlastFurnace_flattened.sol\":14300:14318  claimedIngots[adr] */\n      0x00\n        /* \"contracts/BlastFurnace_flattened.sol\":14314:14317  adr */\n      dup5\n        /* \"contracts/BlastFurnace_flattened.sol\":14300:14318  claimedIngots[adr] */\n      0xffffffffffffffffffffffffffffffffffffffff\n      and\n      0xffffffffffffffffffffffffffffffffffffffff\n      and\n      dup2\n      mstore\n      0x20\n      add\n      swap1\n      dup2\n      mstore\n      0x20\n      add\n      0x00\n      keccak256\n      sload\n        /* \"contracts/BlastFurnace_flattened.sol\":14320:14348  getIngotsSinceLastHatch(adr) */\n      tag_155\n        /* \"contracts/BlastFurnace_flattened.sol\":14344:14347  adr */\n      dup5\n        /* \"contracts/BlastFurnace_flattened.sol\":14320:14343  getIngotsSinceLastHatch */\n      tag_98\n        /* \"contracts/BlastFurnace_flattened.sol\":14320:14348  getIngotsSinceLastHatch(adr) */\n      jump\t// in\n    tag_155:\n        /* \"contracts/BlastFurnace_flattened.sol\":14287:14299  SafeMath.add */\n      tag_131\n        /* \"contracts/BlastFurnace_flattened.sol\":14287:14349  SafeMath.add(claimedIngots[adr], getIngotsSinceLastHatch(adr)) */\n      jump\t// in\n    tag_154:\n        /* \"contracts/BlastFurnace_flattened.sol\":14280:14349  return SafeMath.add(claimedIngots[adr], getIngotsSinceLastHatch(adr)) */\n      swap1\n      pop\n        /* \"contracts/BlastFurnace_flattened.sol\":14211:14354  function getMyIngots(address adr) public view returns (uint256) {... */\n      swap2\n      swap1\n      pop\n      jump\t// out\n        /* \"contracts/BlastFurnace_flattened.sol\":13868:14006  function seedMarket() public payable onlyOwner {... */\n    tag_45:\n        /* \"contracts/BlastFurnace_flattened.sol\":6500:6509  isOwner() */\n      tag_157\n        /* \"contracts/BlastFurnace_flattened.sol\":6500:6507  isOwner */\n      tag_82\n        /* \"contracts/BlastFurnace_flattened.sol\":6500:6509  isOwner() */\n      jump\t// in\n    tag_157:\n        /* \"contracts/BlastFurnace_flattened.sol\":6492:6510  require(isOwner()) */\n      tag_158\n      jumpi\n      0x00\n      dup1\n      revert\n    tag_158:\n        /* \"contracts/BlastFurnace_flattened.sol\":13944:13945  0 */\n      0x00\n        /* \"contracts/BlastFurnace_flattened.sol\":13928:13940  marketIngots */\n      sload(0x0e)\n        /* \"contracts/BlastFurnace_flattened.sol\":13928:13945  marketIngots == 0 */\n      eq\n        /* \"contracts/BlastFurnace_flattened.sol\":13920:13946  require(marketIngots == 0) */\n      tag_160\n      jumpi\n      0x00\n      dup1\n      revert\n    tag_160:\n        /* \"contracts/BlastFurnace_flattened.sol\":13965:13969  true */\n      0x01\n        /* \"contracts/BlastFurnace_flattened.sol\":13951:13962  initialized */\n      0x09\n      0x00\n        /* \"contracts/BlastFurnace_flattened.sol\":13951:13969  initialized = true */\n      0x0100\n      exp\n      dup2\n      sload\n      dup2\n      0xff\n      mul\n      not\n      and\n      swap1\n      dup4\n      iszero\n      iszero\n      mul\n      or\n      swap1\n      sstore\n      pop\n        /* \"contracts/BlastFurnace_flattened.sol\":13989:14001  108000000000 */\n      0x19254d3800\n        /* \"contracts/BlastFurnace_flattened.sol\":13974:13986  marketIngots */\n      0x0e\n        /* \"contracts/BlastFurnace_flattened.sol\":13974:14001  marketIngots = 108000000000 */\n      dup2\n      swap1\n      sstore\n      pop\n        /* \"contracts/BlastFurnace_flattened.sol\":13868:14006  function seedMarket() public payable onlyOwner {... */\n      jump\t// out\n        /* \"contracts/BlastFurnace_flattened.sol\":12220:12410  function furnaceRewards(address adr) public view returns (uint256) {... */\n    tag_49:\n        /* \"contracts/BlastFurnace_flattened.sol\":12278:12285  uint256 */\n      0x00\n        /* \"contracts/BlastFurnace_flattened.sol\":12292:12309  uint256 hasIngots */\n      dup1\n        /* \"contracts/BlastFurnace_flattened.sol\":12312:12328  getMyIngots(adr) */\n      tag_162\n        /* \"contracts/BlastFurnace_flattened.sol\":12324:12327  adr */\n      dup4\n        /* \"contracts/BlastFurnace_flattened.sol\":12312:12323  getMyIngots */\n      tag_42\n        /* \"contracts/BlastFurnace_flattened.sol\":12312:12328  getMyIngots(adr) */\n      jump\t// in\n    tag_162:\n        /* \"contracts/BlastFurnace_flattened.sol\":12292:12328  uint256 hasIngots = getMyIngots(adr) */\n      swap1\n      pop\n        /* \"contracts/BlastFurnace_flattened.sol\":12333:12351  uint256 IngotValue */\n      0x00\n        /* \"contracts/BlastFurnace_flattened.sol\":12354:12383  calculateIngotSell(hasIngots) */\n      tag_163\n        /* \"contracts/BlastFurnace_flattened.sol\":12373:12382  hasIngots */\n      dup3\n        /* \"contracts/BlastFurnace_flattened.sol\":12354:12372  calculateIngotSell */\n      tag_93\n        /* \"contracts/BlastFurnace_flattened.sol\":12354:12383  calculateIngotSell(hasIngots) */\n      jump\t// in\n    tag_163:\n        /* \"contracts/BlastFurnace_flattened.sol\":12333:12383  uint256 IngotValue = calculateIngotSell(hasIngots) */\n      swap1\n      pop\n        /* \"contracts/BlastFurnace_flattened.sol\":12395:12405  IngotValue */\n      dup1\n        /* \"contracts/BlastFurnace_flattened.sol\":12388:12405  return IngotValue */\n      swap3\n      pop\n      pop\n      pop\n        /* \"contracts/BlastFurnace_flattened.sol\":12220:12410  function furnaceRewards(address adr) public view returns (uint256) {... */\n      swap2\n      swap1\n      pop\n      jump\t// out\n        /* \"contracts/BlastFurnace_flattened.sol\":7368:7411  uint256 public _blastClaimInterval = 1 days */\n    tag_53:\n      sload(0x03)\n      dup2\n      jump\t// out\n        /* \"contracts/BlastFurnace_flattened.sol\":14106:14206  function getMyMiners(address adr) public view returns (uint256) {... */\n    tag_58:\n        /* \"contracts/BlastFurnace_flattened.sol\":14161:14168  uint256 */\n      0x00\n        /* \"contracts/BlastFurnace_flattened.sol\":14182:14196  hatcheryMiners */\n      0x0a\n        /* \"contracts/BlastFurnace_flattened.sol\":14182:14201  hatcheryMiners[adr] */\n      0x00\n        /* \"contracts/BlastFurnace_flattened.sol\":14197:14200  adr */\n      dup4\n        /* \"contracts/BlastFurnace_flattened.sol\":14182:14201  hatcheryMiners[adr] */\n      0xffffffffffffffffffffffffffffffffffffffff\n      and\n      0xffffffffffffffffffffffffffffffffffffffff\n      and\n      dup2\n      mstore\n      0x20\n      add\n      swap1\n      dup2\n      mstore\n      0x20\n      add\n      0x00\n      keccak256\n      sload\n        /* \"contracts/BlastFurnace_flattened.sol\":14175:14201  return hatcheryMiners[adr] */\n      swap1\n      pop\n        /* \"contracts/BlastFurnace_flattened.sol\":14106:14206  function getMyMiners(address adr) public view returns (uint256) {... */\n      swap2\n      swap1\n      pop\n      jump\t// out\n        /* \"contracts/BlastFurnace_flattened.sol\":10557:10591  address[] public airdropQualifiers */\n    tag_64:\n      0x0f\n      dup2\n      dup2\n      sload\n      dup2\n      lt\n      tag_165\n      jumpi\n      0x00\n      dup1\n      revert\n    tag_165:\n      swap1\n      0x00\n      mstore\n      keccak256(0x00, 0x20)\n      add\n      0x00\n      swap2\n      pop\n      sload\n      swap1\n      0x0100\n      exp\n      swap1\n      div\n      0xffffffffffffffffffffffffffffffffffffffff\n      and\n      dup2\n      jump\t// out\n        /* \"contracts/BlastFurnace_flattened.sol\":6614:6725  function renounceOwnership() public onlyOwner {... */\n    tag_69:\n        /* \"contracts/BlastFurnace_flattened.sol\":6500:6509  isOwner() */\n      tag_168\n        /* \"contracts/BlastFurnace_flattened.sol\":6500:6507  isOwner */\n      tag_82\n        /* \"contracts/BlastFurnace_flattened.sol\":6500:6509  isOwner() */\n      jump\t// in\n    tag_168:\n        /* \"contracts/BlastFurnace_flattened.sol\":6492:6510  require(isOwner()) */\n      tag_169\n      jumpi\n      0x00\n      dup1\n      revert\n    tag_169:\n        /* \"contracts/BlastFurnace_flattened.sol\":6689:6695  _owner */\n      0x00\n      dup1\n      sload\n      swap1\n      0x0100\n      exp\n      swap1\n      div\n      0xffffffffffffffffffffffffffffffffffffffff\n      and\n        /* \"contracts/BlastFurnace_flattened.sol\":6670:6696  OwnershipRenounced(_owner) */\n      0xffffffffffffffffffffffffffffffffffffffff\n      and\n      0xf8df31144d9c2f0f6b59d69b8b98abd5459d07f2742c4df920b25aae33c64820\n      mload(0x40)\n      mload(0x40)\n      dup1\n      swap2\n      sub\n      swap1\n      log2\n        /* \"contracts/BlastFurnace_flattened.sol\":6718:6719  0 */\n      0x00\n        /* \"contracts/BlastFurnace_flattened.sol\":6701:6707  _owner */\n      dup1\n      0x00\n        /* \"contracts/BlastFurnace_flattened.sol\":6701:6720  _owner = address(0) */\n      0x0100\n      exp\n      dup2\n      sload\n      dup2\n      0xffffffffffffffffffffffffffffffffffffffff\n      mul\n      not\n      and\n      swap1\n      dup4\n      0xffffffffffffffffffffffffffffffffffffffff\n      and\n      mul\n      or\n      swap1\n      sstore\n      pop\n        /* \"contracts/BlastFurnace_flattened.sol\":6614:6725  function renounceOwnership() public onlyOwner {... */\n      jump\t// out\n        /* \"contracts/BlastFurnace_flattened.sol\":13423:13585  function calculateIngotBuy(uint256 eth, uint256 contractBalance) public view returns (uint256) {... */\n    tag_74:\n        /* \"contracts/BlastFurnace_flattened.sol\":13509:13516  uint256 */\n      0x00\n        /* \"contracts/BlastFurnace_flattened.sol\":13530:13580  calculateTrade(eth, contractBalance, marketIngots) */\n      tag_172\n        /* \"contracts/BlastFurnace_flattened.sol\":13545:13548  eth */\n      dup4\n        /* \"contracts/BlastFurnace_flattened.sol\":13550:13565  contractBalance */\n      dup4\n        /* \"contracts/BlastFurnace_flattened.sol\":13567:13579  marketIngots */\n      sload(0x0e)\n        /* \"contracts/BlastFurnace_flattened.sol\":13530:13544  calculateTrade */\n      tag_173\n        /* \"contracts/BlastFurnace_flattened.sol\":13530:13580  calculateTrade(eth, contractBalance, marketIngots) */\n      jump\t// in\n    tag_172:\n        /* \"contracts/BlastFurnace_flattened.sol\":13523:13580  return calculateTrade(eth, contractBalance, marketIngots) */\n      swap1\n      pop\n        /* \"contracts/BlastFurnace_flattened.sol\":13423:13585  function calculateIngotBuy(uint256 eth, uint256 contractBalance) public view returns (uint256) {... */\n      swap3\n      swap2\n      pop\n      pop\n      jump\t// out\n        /* \"contracts/BlastFurnace_flattened.sol\":6391:6461  function owner() public view returns (address) {... */\n    tag_78:\n        /* \"contracts/BlastFurnace_flattened.sol\":6429:6436  address */\n      0x00\n        /* \"contracts/BlastFurnace_flattened.sol\":6450:6456  _owner */\n      dup1\n      0x00\n      swap1\n      sload\n      swap1\n      0x0100\n      exp\n      swap1\n      div\n      0xffffffffffffffffffffffffffffffffffffffff\n      and\n        /* \"contracts/BlastFurnace_flattened.sol\":6443:6456  return _owner */\n      swap1\n      pop\n        /* \"contracts/BlastFurnace_flattened.sol\":6391:6461  function owner() public view returns (address) {... */\n      swap1\n      jump\t// out\n        /* \"contracts/BlastFurnace_flattened.sol\":6526:6609  function isOwner() public view returns (bool) {... */\n    tag_82:\n        /* \"contracts/BlastFurnace_flattened.sol\":6566:6570  bool */\n      0x00\n        /* \"contracts/BlastFurnace_flattened.sol\":6598:6604  _owner */\n      dup1\n      0x00\n      swap1\n      sload\n      swap1\n      0x0100\n      exp\n      swap1\n      div\n      0xffffffffffffffffffffffffffffffffffffffff\n      and\n        /* \"contracts/BlastFurnace_flattened.sol\":6584:6604  msg.sender == _owner */\n      0xffffffffffffffffffffffffffffffffffffffff\n      and\n        /* \"contracts/BlastFurnace_flattened.sol\":6584:6594  msg.sender */\n      caller\n        /* \"contracts/BlastFurnace_flattened.sol\":6584:6604  msg.sender == _owner */\n      0xffffffffffffffffffffffffffffffffffffffff\n      and\n      eq\n        /* \"contracts/BlastFurnace_flattened.sol\":6577:6604  return msg.sender == _owner */\n      swap1\n      pop\n        /* \"contracts/BlastFurnace_flattened.sol\":6526:6609  function isOwner() public view returns (bool) {... */\n      swap1\n      jump\t// out\n        /* \"contracts/BlastFurnace_flattened.sol\":7296:7315  IBlast public BLAST */\n    tag_87:\n      0x01\n      0x00\n      swap1\n      sload\n      swap1\n      0x0100\n      exp\n      swap1\n      div\n      0xffffffffffffffffffffffffffffffffffffffff\n      and\n      dup2\n      jump\t// out\n        /* \"contracts/BlastFurnace_flattened.sol\":13268:13418  function calculateIngotSell(uint256 ingots) public view returns (uint256) {... */\n    tag_93:\n        /* \"contracts/BlastFurnace_flattened.sol\":13333:13340  uint256 */\n      0x00\n        /* \"contracts/BlastFurnace_flattened.sol\":13354:13413  calculateTrade(ingots, marketIngots, address(this).balance) */\n      tag_177\n        /* \"contracts/BlastFurnace_flattened.sol\":13369:13375  ingots */\n      dup3\n        /* \"contracts/BlastFurnace_flattened.sol\":13377:13389  marketIngots */\n      sload(0x0e)\n        /* \"contracts/BlastFurnace_flattened.sol\":13391:13412  address(this).balance */\n      selfbalance\n        /* \"contracts/BlastFurnace_flattened.sol\":13354:13368  calculateTrade */\n      tag_173\n        /* \"contracts/BlastFurnace_flattened.sol\":13354:13413  calculateTrade(ingots, marketIngots, address(this).balance) */\n      jump\t// in\n    tag_177:\n        /* \"contracts/BlastFurnace_flattened.sol\":13347:13413  return calculateTrade(ingots, marketIngots, address(this).balance) */\n      swap1\n      pop\n        /* \"contracts/BlastFurnace_flattened.sol\":13268:13418  function calculateIngotSell(uint256 ingots) public view returns (uint256) {... */\n      swap2\n      swap1\n      pop\n      jump\t// out\n        /* \"contracts/BlastFurnace_flattened.sol\":14359:14604  function getIngotsSinceLastHatch(address adr) public view returns (uint256) {... */\n    tag_98:\n        /* \"contracts/BlastFurnace_flattened.sol\":14426:14433  uint256 */\n      0x00\n        /* \"contracts/BlastFurnace_flattened.sol\":14440:14461  uint256 secondsPassed */\n      dup1\n        /* \"contracts/BlastFurnace_flattened.sol\":14464:14539  min(INGOTS_TO_HATCH_1MINERS, SafeMath.sub(block.timestamp, lastHatch[adr])) */\n      tag_179\n        /* \"contracts/BlastFurnace_flattened.sol\":14468:14491  INGOTS_TO_HATCH_1MINERS */\n      sload(0x05)\n        /* \"contracts/BlastFurnace_flattened.sol\":14493:14538  SafeMath.sub(block.timestamp, lastHatch[adr]) */\n      tag_180\n        /* \"contracts/BlastFurnace_flattened.sol\":14506:14521  block.timestamp */\n      timestamp\n        /* \"contracts/BlastFurnace_flattened.sol\":14523:14532  lastHatch */\n      0x0c\n        /* \"contracts/BlastFurnace_flattened.sol\":14523:14537  lastHatch[adr] */\n      0x00\n        /* \"contracts/BlastFurnace_flattened.sol\":14533:14536  adr */\n      dup9\n        /* \"contracts/BlastFurnace_flattened.sol\":14523:14537  lastHatch[adr] */\n      0xffffffffffffffffffffffffffffffffffffffff\n      and\n      0xffffffffffffffffffffffffffffffffffffffff\n      and\n      dup2\n      mstore\n      0x20\n      add\n      swap1\n      dup2\n      mstore\n      0x20\n      add\n      0x00\n      keccak256\n      sload\n        /* \"contracts/BlastFurnace_flattened.sol\":14493:14505  SafeMath.sub */\n      tag_135\n        /* \"contracts/BlastFurnace_flattened.sol\":14493:14538  SafeMath.sub(block.timestamp, lastHatch[adr]) */\n      jump\t// in\n    tag_180:\n        /* \"contracts/BlastFurnace_flattened.sol\":14464:14467  min */\n      tag_181\n        /* \"contracts/BlastFurnace_flattened.sol\":14464:14539  min(INGOTS_TO_HATCH_1MINERS, SafeMath.sub(block.timestamp, lastHatch[adr])) */\n      jump\t// in\n    tag_179:\n        /* \"contracts/BlastFurnace_flattened.sol\":14440:14539  uint256 secondsPassed = min(INGOTS_TO_HATCH_1MINERS, SafeMath.sub(block.timestamp, lastHatch[adr])) */\n      swap1\n      pop\n        /* \"contracts/BlastFurnace_flattened.sol\":14551:14599  SafeMath.mul(secondsPassed, hatcheryMiners[adr]) */\n      tag_182\n        /* \"contracts/BlastFurnace_flattened.sol\":14564:14577  secondsPassed */\n      dup2\n        /* \"contracts/BlastFurnace_flattened.sol\":14579:14593  hatcheryMiners */\n      0x0a\n        /* \"contracts/BlastFurnace_flattened.sol\":14579:14598  hatcheryMiners[adr] */\n      0x00\n        /* \"contracts/BlastFurnace_flattened.sol\":14594:14597  adr */\n      dup7\n        /* \"contracts/BlastFurnace_flattened.sol\":14579:14598  hatcheryMiners[adr] */\n      0xffffffffffffffffffffffffffffffffffffffff\n      and\n      0xffffffffffffffffffffffffffffffffffffffff\n      and\n      dup2\n      mstore\n      0x20\n      add\n      swap1\n      dup2\n      mstore\n      0x20\n      add\n      0x00\n      keccak256\n      sload\n        /* \"contracts/BlastFurnace_flattened.sol\":14551:14563  SafeMath.mul */\n      tag_183\n        /* \"contracts/BlastFurnace_flattened.sol\":14551:14599  SafeMath.mul(secondsPassed, hatcheryMiners[adr]) */\n      jump\t// in\n    tag_182:\n        /* \"contracts/BlastFurnace_flattened.sol\":14544:14599  return SafeMath.mul(secondsPassed, hatcheryMiners[adr]) */\n      swap2\n      pop\n      pop\n        /* \"contracts/BlastFurnace_flattened.sol\":14359:14604  function getIngotsSinceLastHatch(address adr) public view returns (uint256) {... */\n      swap2\n      swap1\n      pop\n      jump\t// out\n        /* \"contracts/BlastFurnace_flattened.sol\":12415:13016  function buyIngots(address ref) public payable {... */\n    tag_102:\n        /* \"contracts/BlastFurnace_flattened.sol\":12475:12486  initialized */\n      0x09\n      0x00\n      swap1\n      sload\n      swap1\n      0x0100\n      exp\n      swap1\n      div\n      0xff\n      and\n        /* \"contracts/BlastFurnace_flattened.sol\":12467:12487  require(initialized) */\n      tag_185\n      jumpi\n      0x00\n      dup1\n      revert\n    tag_185:\n        /* \"contracts/BlastFurnace_flattened.sol\":12492:12505  address buyer */\n      0x00\n        /* \"contracts/BlastFurnace_flattened.sol\":12508:12518  msg.sender */\n      caller\n        /* \"contracts/BlastFurnace_flattened.sol\":12492:12518  address buyer = msg.sender */\n      swap1\n      pop\n        /* \"contracts/BlastFurnace_flattened.sol\":12525:12545  uint256 ingotsBought */\n      0x00\n        /* \"contracts/BlastFurnace_flattened.sol\":12548:12624  calculateIngotBuy(msg.value, SafeMath.sub(address(this).balance, msg.value)) */\n      tag_186\n        /* \"contracts/BlastFurnace_flattened.sol\":12566:12575  msg.value */\n      callvalue\n        /* \"contracts/BlastFurnace_flattened.sol\":12577:12623  SafeMath.sub(address(this).balance, msg.value) */\n      tag_187\n        /* \"contracts/BlastFurnace_flattened.sol\":12590:12611  address(this).balance */\n      selfbalance\n        /* \"contracts/BlastFurnace_flattened.sol\":12613:12622  msg.value */\n      callvalue\n        /* \"contracts/BlastFurnace_flattened.sol\":12577:12589  SafeMath.sub */\n      tag_135\n        /* \"contracts/BlastFurnace_flattened.sol\":12577:12623  SafeMath.sub(address(this).balance, msg.value) */\n      jump\t// in\n    tag_187:\n        /* \"contracts/BlastFurnace_flattened.sol\":12548:12565  calculateIngotBuy */\n      tag_74\n        /* \"contracts/BlastFurnace_flattened.sol\":12548:12624  calculateIngotBuy(msg.value, SafeMath.sub(address(this).balance, msg.value)) */\n      jump\t// in\n    tag_186:\n        /* \"contracts/BlastFurnace_flattened.sol\":12525:12624  uint256 ingotsBought = calculateIngotBuy(msg.value, SafeMath.sub(address(this).balance, msg.value)) */\n      swap1\n      pop\n        /* \"contracts/BlastFurnace_flattened.sol\":12644:12692  SafeMath.sub(ingotsBought, devFee(ingotsBought)) */\n      tag_188\n        /* \"contracts/BlastFurnace_flattened.sol\":12657:12669  ingotsBought */\n      dup2\n        /* \"contracts/BlastFurnace_flattened.sol\":12671:12691  devFee(ingotsBought) */\n      tag_189\n        /* \"contracts/BlastFurnace_flattened.sol\":12678:12690  ingotsBought */\n      dup4\n        /* \"contracts/BlastFurnace_flattened.sol\":12671:12677  devFee */\n      tag_129\n        /* \"contracts/BlastFurnace_flattened.sol\":12671:12691  devFee(ingotsBought) */\n      jump\t// in\n    tag_189:\n        /* \"contracts/BlastFurnace_flattened.sol\":12644:12656  SafeMath.sub */\n      tag_135\n        /* \"contracts/BlastFurnace_flattened.sol\":12644:12692  SafeMath.sub(ingotsBought, devFee(ingotsBought)) */\n      jump\t// in\n    tag_188:\n        /* \"contracts/BlastFurnace_flattened.sol\":12629:12692  ingotsBought = SafeMath.sub(ingotsBought, devFee(ingotsBought)) */\n      swap1\n      pop\n        /* \"contracts/BlastFurnace_flattened.sol\":12697:12708  uint256 fee */\n      0x00\n        /* \"contracts/BlastFurnace_flattened.sol\":12711:12728  devFee(msg.value) */\n      tag_190\n        /* \"contracts/BlastFurnace_flattened.sol\":12718:12727  msg.value */\n      callvalue\n        /* \"contracts/BlastFurnace_flattened.sol\":12711:12717  devFee */\n      tag_129\n        /* \"contracts/BlastFurnace_flattened.sol\":12711:12728  devFee(msg.value) */\n      jump\t// in\n    tag_190:\n        /* \"contracts/BlastFurnace_flattened.sol\":12697:12728  uint256 fee = devFee(msg.value) */\n      swap1\n      pop\n        /* \"contracts/BlastFurnace_flattened.sol\":12733:12739  recAdd */\n      0x09\n      0x01\n      swap1\n      sload\n      swap1\n      0x0100\n      exp\n      swap1\n      div\n      0xffffffffffffffffffffffffffffffffffffffff\n      and\n        /* \"contracts/BlastFurnace_flattened.sol\":12733:12748  recAdd.transfer */\n      0xffffffffffffffffffffffffffffffffffffffff\n      and\n        /* \"contracts/BlastFurnace_flattened.sol\":12733:12753  recAdd.transfer(fee) */\n      0x08fc\n        /* \"contracts/BlastFurnace_flattened.sol\":12749:12752  fee */\n      dup3\n        /* \"contracts/BlastFurnace_flattened.sol\":12733:12753  recAdd.transfer(fee) */\n      swap1\n      dup2\n      iszero\n      mul\n      swap1\n      mload(0x40)\n      0x00\n      mload(0x40)\n      dup1\n      dup4\n      sub\n      dup2\n      dup6\n      dup9\n      dup9\n      call\n      swap4\n      pop\n      pop\n      pop\n      pop\n      iszero\n      dup1\n      iszero\n      tag_192\n      jumpi\n      returndatasize\n      0x00\n      dup1\n      returndatacopy\n      revert(0x00, returndatasize)\n    tag_192:\n      pop\n        /* \"contracts/BlastFurnace_flattened.sol\":12758:12826  _setClaimed(buyer, SafeMath.add(claimedIngots[buyer], ingotsBought)) */\n      tag_193\n        /* \"contracts/BlastFurnace_flattened.sol\":12770:12775  buyer */\n      dup4\n        /* \"contracts/BlastFurnace_flattened.sol\":12777:12825  SafeMath.add(claimedIngots[buyer], ingotsBought) */\n      tag_194\n        /* \"contracts/BlastFurnace_flattened.sol\":12790:12803  claimedIngots */\n      0x0b\n        /* \"contracts/BlastFurnace_flattened.sol\":12790:12810  claimedIngots[buyer] */\n      0x00\n        /* \"contracts/BlastFurnace_flattened.sol\":12804:12809  buyer */\n      dup8\n        /* \"contracts/BlastFurnace_flattened.sol\":12790:12810  claimedIngots[buyer] */\n      0xffffffffffffffffffffffffffffffffffffffff\n      and\n      0xffffffffffffffffffffffffffffffffffffffff\n      and\n      dup2\n      mstore\n      0x20\n      add\n      swap1\n      dup2\n      mstore\n      0x20\n      add\n      0x00\n      keccak256\n      sload\n        /* \"contracts/BlastFurnace_flattened.sol\":12812:12824  ingotsBought */\n      dup6\n        /* \"contracts/BlastFurnace_flattened.sol\":12777:12789  SafeMath.add */\n      tag_131\n        /* \"contracts/BlastFurnace_flattened.sol\":12777:12825  SafeMath.add(claimedIngots[buyer], ingotsBought) */\n      jump\t// in\n    tag_194:\n        /* \"contracts/BlastFurnace_flattened.sol\":12758:12769  _setClaimed */\n      tag_195\n        /* \"contracts/BlastFurnace_flattened.sol\":12758:12826  _setClaimed(buyer, SafeMath.add(claimedIngots[buyer], ingotsBought)) */\n      jump\t// in\n    tag_193:\n        /* \"contracts/BlastFurnace_flattened.sol\":12831:12847  hatchIngots(ref) */\n      tag_196\n        /* \"contracts/BlastFurnace_flattened.sol\":12843:12846  ref */\n      dup5\n        /* \"contracts/BlastFurnace_flattened.sol\":12831:12842  hatchIngots */\n      tag_123\n        /* \"contracts/BlastFurnace_flattened.sol\":12831:12847  hatchIngots(ref) */\n      jump\t// in\n    tag_196:\n        /* \"contracts/BlastFurnace_flattened.sol\":12871:12876  .5e18 */\n      0x06f05b59d3b20000\n        /* \"contracts/BlastFurnace_flattened.sol\":12858:12867  msg.value */\n      callvalue\n        /* \"contracts/BlastFurnace_flattened.sol\":12858:12876  msg.value >= .5e18 */\n      lt\n        /* \"contracts/BlastFurnace_flattened.sol\":12854:13012  if (msg.value >= .5e18) {... */\n      tag_197\n      jumpi\n        /* \"contracts/BlastFurnace_flattened.sol\":12918:12922  true */\n      0x01\n        /* \"contracts/BlastFurnace_flattened.sol\":12888:12922  _isAirDropQualifier[buyer] != true */\n      iszero\n      iszero\n        /* \"contracts/BlastFurnace_flattened.sol\":12888:12907  _isAirDropQualifier */\n      0x11\n        /* \"contracts/BlastFurnace_flattened.sol\":12888:12914  _isAirDropQualifier[buyer] */\n      0x00\n        /* \"contracts/BlastFurnace_flattened.sol\":12908:12913  buyer */\n      dup6\n        /* \"contracts/BlastFurnace_flattened.sol\":12888:12914  _isAirDropQualifier[buyer] */\n      0xffffffffffffffffffffffffffffffffffffffff\n      and\n      0xffffffffffffffffffffffffffffffffffffffff\n      and\n      dup2\n      mstore\n      0x20\n      add\n      swap1\n      dup2\n      mstore\n      0x20\n      add\n      0x00\n      keccak256\n      0x00\n      swap1\n      sload\n      swap1\n      0x0100\n      exp\n      swap1\n      div\n      0xff\n      and\n        /* \"contracts/BlastFurnace_flattened.sol\":12888:12922  _isAirDropQualifier[buyer] != true */\n      iszero\n      iszero\n      eq\n        /* \"contracts/BlastFurnace_flattened.sol\":12884:13007  if (_isAirDropQualifier[buyer] != true) {... */\n      tag_198\n      jumpi\n        /* \"contracts/BlastFurnace_flattened.sol\":12960:12964  true */\n      0x01\n        /* \"contracts/BlastFurnace_flattened.sol\":12931:12950  _isAirDropQualifier */\n      0x11\n        /* \"contracts/BlastFurnace_flattened.sol\":12931:12957  _isAirDropQualifier[buyer] */\n      0x00\n        /* \"contracts/BlastFurnace_flattened.sol\":12951:12956  buyer */\n      dup6\n        /* \"contracts/BlastFurnace_flattened.sol\":12931:12957  _isAirDropQualifier[buyer] */\n      0xffffffffffffffffffffffffffffffffffffffff\n      and\n      0xffffffffffffffffffffffffffffffffffffffff\n      and\n      dup2\n      mstore\n      0x20\n      add\n      swap1\n      dup2\n      mstore\n      0x20\n      add\n      0x00\n      keccak256\n      0x00\n        /* \"contracts/BlastFurnace_flattened.sol\":12931:12964  _isAirDropQualifier[buyer] = true */\n      0x0100\n      exp\n      dup2\n      sload\n      dup2\n      0xff\n      mul\n      not\n      and\n      swap1\n      dup4\n      iszero\n      iszero\n      mul\n      or\n      swap1\n      sstore\n      pop\n        /* \"contracts/BlastFurnace_flattened.sol\":12971:12988  airdropQualifiers */\n      0x0f\n        /* \"contracts/BlastFurnace_flattened.sol\":12994:12999  buyer */\n      dup4\n        /* \"contracts/BlastFurnace_flattened.sol\":12971:13000  airdropQualifiers.push(buyer) */\n      swap1\n      dup1\n      0x01\n      dup2\n      sload\n      add\n      dup1\n      dup3\n      sstore\n      dup1\n      swap2\n      pop\n      pop\n      0x01\n      swap1\n      sub\n      swap1\n      0x00\n      mstore\n      keccak256(0x00, 0x20)\n      add\n      0x00\n      swap1\n      swap2\n      swap1\n      swap2\n      swap1\n      swap2\n      0x0100\n      exp\n      dup2\n      sload\n      dup2\n      0xffffffffffffffffffffffffffffffffffffffff\n      mul\n      not\n      and\n      swap1\n      dup4\n      0xffffffffffffffffffffffffffffffffffffffff\n      and\n      mul\n      or\n      swap1\n      sstore\n      pop\n        /* \"contracts/BlastFurnace_flattened.sol\":12884:13007  if (_isAirDropQualifier[buyer] != true) {... */\n    tag_198:\n        /* \"contracts/BlastFurnace_flattened.sol\":12854:13012  if (msg.value >= .5e18) {... */\n    tag_197:\n        /* \"contracts/BlastFurnace_flattened.sol\":12462:13016  {... */\n      pop\n      pop\n      pop\n        /* \"contracts/BlastFurnace_flattened.sol\":12415:13016  function buyIngots(address ref) public payable {... */\n      pop\n      jump\t// out\n        /* \"contracts/BlastFurnace_flattened.sol\":13590:13728  function calculateIngotBuySimple(uint256 eth) public view returns (uint256) {... */\n    tag_106:\n        /* \"contracts/BlastFurnace_flattened.sol\":13657:13664  uint256 */\n      0x00\n        /* \"contracts/BlastFurnace_flattened.sol\":13678:13723  calculateIngotBuy(eth, address(this).balance) */\n      tag_201\n        /* \"contracts/BlastFurnace_flattened.sol\":13696:13699  eth */\n      dup3\n        /* \"contracts/BlastFurnace_flattened.sol\":13701:13722  address(this).balance */\n      selfbalance\n        /* \"contracts/BlastFurnace_flattened.sol\":13678:13695  calculateIngotBuy */\n      tag_74\n        /* \"contracts/BlastFurnace_flattened.sol\":13678:13723  calculateIngotBuy(eth, address(this).balance) */\n      jump\t// in\n    tag_201:\n        /* \"contracts/BlastFurnace_flattened.sol\":13671:13723  return calculateIngotBuy(eth, address(this).balance) */\n      swap1\n      pop\n        /* \"contracts/BlastFurnace_flattened.sol\":13590:13728  function calculateIngotBuySimple(uint256 eth) public view returns (uint256) {... */\n      swap2\n      swap1\n      pop\n      jump\t// out\n        /* \"contracts/BlastFurnace_flattened.sol\":8097:8205  function setBlastClaimInterval(uint256 interval) external onlyOwner {... */\n    tag_111:\n        /* \"contracts/BlastFurnace_flattened.sol\":6500:6509  isOwner() */\n      tag_203\n        /* \"contracts/BlastFurnace_flattened.sol\":6500:6507  isOwner */\n      tag_82\n        /* \"contracts/BlastFurnace_flattened.sol\":6500:6509  isOwner() */\n      jump\t// in\n    tag_203:\n        /* \"contracts/BlastFurnace_flattened.sol\":6492:6510  require(isOwner()) */\n      tag_204\n      jumpi\n      0x00\n      dup1\n      revert\n    tag_204:\n        /* \"contracts/BlastFurnace_flattened.sol\":8192:8200  interval */\n      dup1\n        /* \"contracts/BlastFurnace_flattened.sol\":8170:8189  _blastClaimInterval */\n      0x03\n        /* \"contracts/BlastFurnace_flattened.sol\":8170:8200  _blastClaimInterval = interval */\n      dup2\n      swap1\n      sstore\n      pop\n        /* \"contracts/BlastFurnace_flattened.sol\":8097:8205  function setBlastClaimInterval(uint256 interval) external onlyOwner {... */\n      pop\n      jump\t// out\n        /* \"contracts/BlastFurnace_flattened.sol\":7866:8092  function setupBlast(address blastAddr) external onlyOwner {... */\n    tag_115:\n        /* \"contracts/BlastFurnace_flattened.sol\":6500:6509  isOwner() */\n      tag_207\n        /* \"contracts/BlastFurnace_flattened.sol\":6500:6507  isOwner */\n      tag_82\n        /* \"contracts/BlastFurnace_flattened.sol\":6500:6509  isOwner() */\n      jump\t// in\n    tag_207:\n        /* \"contracts/BlastFurnace_flattened.sol\":6492:6510  require(isOwner()) */\n      tag_208\n      jumpi\n      0x00\n      dup1\n      revert\n    tag_208:\n        /* \"contracts/BlastFurnace_flattened.sol\":7954:7955  0 */\n      0x00\n        /* \"contracts/BlastFurnace_flattened.sol\":7933:7956  blastAddr == address(0) */\n      0xffffffffffffffffffffffffffffffffffffffff\n      and\n        /* \"contracts/BlastFurnace_flattened.sol\":7933:7942  blastAddr */\n      dup2\n        /* \"contracts/BlastFurnace_flattened.sol\":7933:7956  blastAddr == address(0) */\n      0xffffffffffffffffffffffffffffffffffffffff\n      and\n      sub\n        /* \"contracts/BlastFurnace_flattened.sol\":7929:8024  if (blastAddr == address(0)) {... */\n      tag_210\n      jumpi\n        /* \"contracts/BlastFurnace_flattened.sol\":7976:8018  0x4300000000000000000000000000000000000002 */\n      0x4300000000000000000000000000000000000002\n        /* \"contracts/BlastFurnace_flattened.sol\":7964:8018  blastAddr = 0x4300000000000000000000000000000000000002 */\n      swap1\n      pop\n        /* \"contracts/BlastFurnace_flattened.sol\":7929:8024  if (blastAddr == address(0)) {... */\n    tag_210:\n        /* \"contracts/BlastFurnace_flattened.sol\":8043:8052  blastAddr */\n      dup1\n        /* \"contracts/BlastFurnace_flattened.sol\":8028:8033  BLAST */\n      0x01\n      0x00\n        /* \"contracts/BlastFurnace_flattened.sol\":8028:8053  BLAST = IBlast(blastAddr) */\n      0x0100\n      exp\n      dup2\n      sload\n      dup2\n      0xffffffffffffffffffffffffffffffffffffffff\n      mul\n      not\n      and\n      swap1\n      dup4\n      0xffffffffffffffffffffffffffffffffffffffff\n      and\n      mul\n      or\n      swap1\n      sstore\n      pop\n        /* \"contracts/BlastFurnace_flattened.sol\":8058:8063  BLAST */\n      0x01\n      0x00\n      swap1\n      sload\n      swap1\n      0x0100\n      exp\n      swap1\n      div\n      0xffffffffffffffffffffffffffffffffffffffff\n      and\n        /* \"contracts/BlastFurnace_flattened.sol\":8058:8085  BLAST.configureClaimableGas */\n      0xffffffffffffffffffffffffffffffffffffffff\n      and\n      0x4e606c47\n        /* \"contracts/BlastFurnace_flattened.sol\":8058:8087  BLAST.configureClaimableGas() */\n      mload(0x40)\n      dup2\n      0xffffffff\n      and\n      0xe0\n      shl\n      dup2\n      mstore\n      0x04\n      add\n      0x00\n      mload(0x40)\n      dup1\n      dup4\n      sub\n      dup2\n      0x00\n      dup8\n      dup1\n      extcodesize\n      iszero\n      dup1\n      iszero\n      tag_211\n      jumpi\n      0x00\n      dup1\n      revert\n    tag_211:\n      pop\n      gas\n      call\n      iszero\n      dup1\n      iszero\n      tag_213\n      jumpi\n      returndatasize\n      0x00\n      dup1\n      returndatacopy\n      revert(0x00, returndatasize)\n    tag_213:\n      pop\n      pop\n      pop\n      pop\n        /* \"contracts/BlastFurnace_flattened.sol\":7866:8092  function setupBlast(address blastAddr) external onlyOwner {... */\n      pop\n      jump\t// out\n        /* \"contracts/BlastFurnace_flattened.sol\":6730:6830  function transferOwnership(address newOwner) public onlyOwner {... */\n    tag_119:\n        /* \"contracts/BlastFurnace_flattened.sol\":6500:6509  isOwner() */\n      tag_215\n        /* \"contracts/BlastFurnace_flattened.sol\":6500:6507  isOwner */\n      tag_82\n        /* \"contracts/BlastFurnace_flattened.sol\":6500:6509  isOwner() */\n      jump\t// in\n    tag_215:\n        /* \"contracts/BlastFurnace_flattened.sol\":6492:6510  require(isOwner()) */\n      tag_216\n      jumpi\n      0x00\n      dup1\n      revert\n    tag_216:\n        /* \"contracts/BlastFurnace_flattened.sol\":6797:6825  _transferOwnership(newOwner) */\n      tag_218\n        /* \"contracts/BlastFurnace_flattened.sol\":6816:6824  newOwner */\n      dup2\n        /* \"contracts/BlastFurnace_flattened.sol\":6797:6815  _transferOwnership */\n      tag_219\n        /* \"contracts/BlastFurnace_flattened.sol\":6797:6825  _transferOwnership(newOwner) */\n      jump\t// in\n    tag_218:\n        /* \"contracts/BlastFurnace_flattened.sol\":6730:6830  function transferOwnership(address newOwner) public onlyOwner {... */\n      pop\n      jump\t// out\n        /* \"contracts/BlastFurnace_flattened.sol\":10982:11787  function hatchIngots(address ref) public {... */\n    tag_123:\n        /* \"contracts/BlastFurnace_flattened.sol\":11036:11047  initialized */\n      0x09\n      0x00\n      swap1\n      sload\n      swap1\n      0x0100\n      exp\n      swap1\n      div\n      0xff\n      and\n        /* \"contracts/BlastFurnace_flattened.sol\":11028:11048  require(initialized) */\n      tag_221\n      jumpi\n      0x00\n      dup1\n      revert\n    tag_221:\n        /* \"contracts/BlastFurnace_flattened.sol\":11066:11076  msg.sender */\n      caller\n        /* \"contracts/BlastFurnace_flattened.sol\":11059:11076  ref == msg.sender */\n      0xffffffffffffffffffffffffffffffffffffffff\n      and\n        /* \"contracts/BlastFurnace_flattened.sol\":11059:11062  ref */\n      dup2\n        /* \"contracts/BlastFurnace_flattened.sol\":11059:11076  ref == msg.sender */\n      0xffffffffffffffffffffffffffffffffffffffff\n      and\n      sub\n        /* \"contracts/BlastFurnace_flattened.sol\":11055:11106  if (ref == msg.sender) {... */\n      tag_222\n      jumpi\n        /* \"contracts/BlastFurnace_flattened.sol\":11098:11099  0 */\n      0x00\n        /* \"contracts/BlastFurnace_flattened.sol\":11084:11100  ref = address(0) */\n      swap1\n      pop\n        /* \"contracts/BlastFurnace_flattened.sol\":11055:11106  if (ref == msg.sender) {... */\n    tag_222:\n        /* \"contracts/BlastFurnace_flattened.sol\":11149:11150  0 */\n      0x00\n        /* \"contracts/BlastFurnace_flattened.sol\":11116:11151  referrals[msg.sender] == address(0) */\n      0xffffffffffffffffffffffffffffffffffffffff\n      and\n        /* \"contracts/BlastFurnace_flattened.sol\":11116:11125  referrals */\n      0x0d\n        /* \"contracts/BlastFurnace_flattened.sol\":11116:11137  referrals[msg.sender] */\n      0x00\n        /* \"contracts/BlastFurnace_flattened.sol\":11126:11136  msg.sender */\n      caller\n        /* \"contracts/BlastFurnace_flattened.sol\":11116:11137  referrals[msg.sender] */\n      0xffffffffffffffffffffffffffffffffffffffff\n      and\n      0xffffffffffffffffffffffffffffffffffffffff\n      and\n      dup2\n      mstore\n      0x20\n      add\n      swap1\n      dup2\n      mstore\n      0x20\n      add\n      0x00\n      keccak256\n      0x00\n      swap1\n      sload\n      swap1\n      0x0100\n      exp\n      swap1\n      div\n      0xffffffffffffffffffffffffffffffffffffffff\n      and\n        /* \"contracts/BlastFurnace_flattened.sol\":11116:11151  referrals[msg.sender] == address(0) */\n      0xffffffffffffffffffffffffffffffffffffffff\n      and\n      eq\n        /* \"contracts/BlastFurnace_flattened.sol\":11116:11190  referrals[msg.sender] == address(0) && referrals[msg.sender] != msg.sender */\n      dup1\n      iszero\n      tag_223\n      jumpi\n      pop\n        /* \"contracts/BlastFurnace_flattened.sol\":11180:11190  msg.sender */\n      caller\n        /* \"contracts/BlastFurnace_flattened.sol\":11155:11190  referrals[msg.sender] != msg.sender */\n      0xffffffffffffffffffffffffffffffffffffffff\n      and\n        /* \"contracts/BlastFurnace_flattened.sol\":11155:11164  referrals */\n      0x0d\n        /* \"contracts/BlastFurnace_flattened.sol\":11155:11176  referrals[msg.sender] */\n      0x00\n        /* \"contracts/BlastFurnace_flattened.sol\":11165:11175  msg.sender */\n      caller\n        /* \"contracts/BlastFurnace_flattened.sol\":11155:11176  referrals[msg.sender] */\n      0xffffffffffffffffffffffffffffffffffffffff\n      and\n      0xffffffffffffffffffffffffffffffffffffffff\n      and\n      dup2\n      mstore\n      0x20\n      add\n      swap1\n      dup2\n      mstore\n      0x20\n      add\n      0x00\n      keccak256\n      0x00\n      swap1\n      sload\n      swap1\n      0x0100\n      exp\n      swap1\n      div\n      0xffffffffffffffffffffffffffffffffffffffff\n      and\n        /* \"contracts/BlastFurnace_flattened.sol\":11155:11190  referrals[msg.sender] != msg.sender */\n      0xffffffffffffffffffffffffffffffffffffffff\n      and\n      eq\n      iszero\n        /* \"contracts/BlastFurnace_flattened.sol\":11116:11190  referrals[msg.sender] == address(0) && referrals[msg.sender] != msg.sender */\n    tag_223:\n        /* \"contracts/BlastFurnace_flattened.sol\":11112:11231  if (referrals[msg.sender] == address(0) && referrals[msg.sender] != msg.sender) {... */\n      iszero\n      tag_224\n      jumpi\n        /* \"contracts/BlastFurnace_flattened.sol\":11222:11225  ref */\n      dup1\n        /* \"contracts/BlastFurnace_flattened.sol\":11198:11207  referrals */\n      0x0d\n        /* \"contracts/BlastFurnace_flattened.sol\":11198:11219  referrals[msg.sender] */\n      0x00\n        /* \"contracts/BlastFurnace_flattened.sol\":11208:11218  msg.sender */\n      caller\n        /* \"contracts/BlastFurnace_flattened.sol\":11198:11219  referrals[msg.sender] */\n      0xffffffffffffffffffffffffffffffffffffffff\n      and\n      0xffffffffffffffffffffffffffffffffffffffff\n      and\n      dup2\n      mstore\n      0x20\n      add\n      swap1\n      dup2\n      mstore\n      0x20\n      add\n      0x00\n      keccak256\n      0x00\n        /* \"contracts/BlastFurnace_flattened.sol\":11198:11225  referrals[msg.sender] = ref */\n      0x0100\n      exp\n      dup2\n      sload\n      dup2\n      0xffffffffffffffffffffffffffffffffffffffff\n      mul\n      not\n      and\n      swap1\n      dup4\n      0xffffffffffffffffffffffffffffffffffffffff\n      and\n      mul\n      or\n      swap1\n      sstore\n      pop\n        /* \"contracts/BlastFurnace_flattened.sol\":11112:11231  if (referrals[msg.sender] == address(0) && referrals[msg.sender] != msg.sender) {... */\n    tag_224:\n        /* \"contracts/BlastFurnace_flattened.sol\":11237:11255  uint256 ingotsUsed */\n      0x00\n        /* \"contracts/BlastFurnace_flattened.sol\":11258:11281  getMyIngots(msg.sender) */\n      tag_225\n        /* \"contracts/BlastFurnace_flattened.sol\":11270:11280  msg.sender */\n      caller\n        /* \"contracts/BlastFurnace_flattened.sol\":11258:11269  getMyIngots */\n      tag_42\n        /* \"contracts/BlastFurnace_flattened.sol\":11258:11281  getMyIngots(msg.sender) */\n      jump\t// in\n    tag_225:\n        /* \"contracts/BlastFurnace_flattened.sol\":11237:11281  uint256 ingotsUsed = getMyIngots(msg.sender) */\n      swap1\n      pop\n        /* \"contracts/BlastFurnace_flattened.sol\":11286:11303  uint256 newMiners */\n      0x00\n        /* \"contracts/BlastFurnace_flattened.sol\":11306:11355  SafeMath.div(ingotsUsed, INGOTS_TO_HATCH_1MINERS) */\n      tag_226\n        /* \"contracts/BlastFurnace_flattened.sol\":11319:11329  ingotsUsed */\n      dup3\n        /* \"contracts/BlastFurnace_flattened.sol\":11331:11354  INGOTS_TO_HATCH_1MINERS */\n      sload(0x05)\n        /* \"contracts/BlastFurnace_flattened.sol\":11306:11318  SafeMath.div */\n      tag_227\n        /* \"contracts/BlastFurnace_flattened.sol\":11306:11355  SafeMath.div(ingotsUsed, INGOTS_TO_HATCH_1MINERS) */\n      jump\t// in\n    tag_226:\n        /* \"contracts/BlastFurnace_flattened.sol\":11286:11355  uint256 newMiners = SafeMath.div(ingotsUsed, INGOTS_TO_HATCH_1MINERS) */\n      swap1\n      pop\n        /* \"contracts/BlastFurnace_flattened.sol\":11389:11440  SafeMath.add(hatcheryMiners[msg.sender], newMiners) */\n      tag_228\n        /* \"contracts/BlastFurnace_flattened.sol\":11402:11416  hatcheryMiners */\n      0x0a\n        /* \"contracts/BlastFurnace_flattened.sol\":11402:11428  hatcheryMiners[msg.sender] */\n      0x00\n        /* \"contracts/BlastFurnace_flattened.sol\":11417:11427  msg.sender */\n      caller\n        /* \"contracts/BlastFurnace_flattened.sol\":11402:11428  hatcheryMiners[msg.sender] */\n      0xffffffffffffffffffffffffffffffffffffffff\n      and\n      0xffffffffffffffffffffffffffffffffffffffff\n      and\n      dup2\n      mstore\n      0x20\n      add\n      swap1\n      dup2\n      mstore\n      0x20\n      add\n      0x00\n      keccak256\n      sload\n        /* \"contracts/BlastFurnace_flattened.sol\":11430:11439  newMiners */\n      dup3\n        /* \"contracts/BlastFurnace_flattened.sol\":11389:11401  SafeMath.add */\n      tag_131\n        /* \"contracts/BlastFurnace_flattened.sol\":11389:11440  SafeMath.add(hatcheryMiners[msg.sender], newMiners) */\n      jump\t// in\n    tag_228:\n        /* \"contracts/BlastFurnace_flattened.sol\":11360:11374  hatcheryMiners */\n      0x0a\n        /* \"contracts/BlastFurnace_flattened.sol\":11360:11386  hatcheryMiners[msg.sender] */\n      0x00\n        /* \"contracts/BlastFurnace_flattened.sol\":11375:11385  msg.sender */\n      caller\n        /* \"contracts/BlastFurnace_flattened.sol\":11360:11386  hatcheryMiners[msg.sender] */\n      0xffffffffffffffffffffffffffffffffffffffff\n      and\n      0xffffffffffffffffffffffffffffffffffffffff\n      and\n      dup2\n      mstore\n      0x20\n      add\n      swap1\n      dup2\n      mstore\n      0x20\n      add\n      0x00\n      keccak256\n        /* \"contracts/BlastFurnace_flattened.sol\":11360:11440  hatcheryMiners[msg.sender] = SafeMath.add(hatcheryMiners[msg.sender], newMiners) */\n      dup2\n      swap1\n      sstore\n      pop\n        /* \"contracts/BlastFurnace_flattened.sol\":11445:11471  _setClaimed(msg.sender, 0) */\n      tag_229\n        /* \"contracts/BlastFurnace_flattened.sol\":11457:11467  msg.sender */\n      caller\n        /* \"contracts/BlastFurnace_flattened.sol\":11469:11470  0 */\n      0x00\n        /* \"contracts/BlastFurnace_flattened.sol\":11445:11456  _setClaimed */\n      tag_195\n        /* \"contracts/BlastFurnace_flattened.sol\":11445:11471  _setClaimed(msg.sender, 0) */\n      jump\t// in\n    tag_229:\n        /* \"contracts/BlastFurnace_flattened.sol\":11500:11515  block.timestamp */\n      timestamp\n        /* \"contracts/BlastFurnace_flattened.sol\":11476:11485  lastHatch */\n      0x0c\n        /* \"contracts/BlastFurnace_flattened.sol\":11476:11497  lastHatch[msg.sender] */\n      0x00\n        /* \"contracts/BlastFurnace_flattened.sol\":11486:11496  msg.sender */\n      caller\n        /* \"contracts/BlastFurnace_flattened.sol\":11476:11497  lastHatch[msg.sender] */\n      0xffffffffffffffffffffffffffffffffffffffff\n      and\n      0xffffffffffffffffffffffffffffffffffffffff\n      and\n      dup2\n      mstore\n      0x20\n      add\n      swap1\n      dup2\n      mstore\n      0x20\n      add\n      0x00\n      keccak256\n        /* \"contracts/BlastFurnace_flattened.sol\":11476:11515  lastHatch[msg.sender] = block.timestamp */\n      dup2\n      swap1\n      sstore\n      pop\n        /* \"contracts/BlastFurnace_flattened.sol\":11548:11663  _setClaimed(referrals[msg.sender], SafeMath.add(claimedIngots[referrals[msg.sender]], SafeMath.div(ingotsUsed, 8))) */\n      tag_230\n        /* \"contracts/BlastFurnace_flattened.sol\":11560:11569  referrals */\n      0x0d\n        /* \"contracts/BlastFurnace_flattened.sol\":11560:11581  referrals[msg.sender] */\n      0x00\n        /* \"contracts/BlastFurnace_flattened.sol\":11570:11580  msg.sender */\n      caller\n        /* \"contracts/BlastFurnace_flattened.sol\":11560:11581  referrals[msg.sender] */\n      0xffffffffffffffffffffffffffffffffffffffff\n      and\n      0xffffffffffffffffffffffffffffffffffffffff\n      and\n      dup2\n      mstore\n      0x20\n      add\n      swap1\n      dup2\n      mstore\n      0x20\n      add\n      0x00\n      keccak256\n      0x00\n      swap1\n      sload\n      swap1\n      0x0100\n      exp\n      swap1\n      div\n      0xffffffffffffffffffffffffffffffffffffffff\n      and\n        /* \"contracts/BlastFurnace_flattened.sol\":11583:11662  SafeMath.add(claimedIngots[referrals[msg.sender]], SafeMath.div(ingotsUsed, 8)) */\n      tag_231\n        /* \"contracts/BlastFurnace_flattened.sol\":11596:11609  claimedIngots */\n      0x0b\n        /* \"contracts/BlastFurnace_flattened.sol\":11596:11632  claimedIngots[referrals[msg.sender]] */\n      0x00\n        /* \"contracts/BlastFurnace_flattened.sol\":11610:11619  referrals */\n      0x0d\n        /* \"contracts/BlastFurnace_flattened.sol\":11610:11631  referrals[msg.sender] */\n      0x00\n        /* \"contracts/BlastFurnace_flattened.sol\":11620:11630  msg.sender */\n      caller\n        /* \"contracts/BlastFurnace_flattened.sol\":11610:11631  referrals[msg.sender] */\n      0xffffffffffffffffffffffffffffffffffffffff\n      and\n      0xffffffffffffffffffffffffffffffffffffffff\n      and\n      dup2\n      mstore\n      0x20\n      add\n      swap1\n      dup2\n      mstore\n      0x20\n      add\n      0x00\n      keccak256\n      0x00\n      swap1\n      sload\n      swap1\n      0x0100\n      exp\n      swap1\n      div\n      0xffffffffffffffffffffffffffffffffffffffff\n      and\n        /* \"contracts/BlastFurnace_flattened.sol\":11596:11632  claimedIngots[referrals[msg.sender]] */\n      0xffffffffffffffffffffffffffffffffffffffff\n      and\n      0xffffffffffffffffffffffffffffffffffffffff\n      and\n      dup2\n      mstore\n      0x20\n      add\n      swap1\n      dup2\n      mstore\n      0x20\n      add\n      0x00\n      keccak256\n      sload\n        /* \"contracts/BlastFurnace_flattened.sol\":11634:11661  SafeMath.div(ingotsUsed, 8) */\n      tag_232\n        /* \"contracts/BlastFurnace_flattened.sol\":11647:11657  ingotsUsed */\n      dup7\n        /* \"contracts/BlastFurnace_flattened.sol\":11659:11660  8 */\n      0x08\n        /* \"contracts/BlastFurnace_flattened.sol\":11634:11646  SafeMath.div */\n      tag_227\n        /* \"contracts/BlastFurnace_flattened.sol\":11634:11661  SafeMath.div(ingotsUsed, 8) */\n      jump\t// in\n    tag_232:\n        /* \"contracts/BlastFurnace_flattened.sol\":11583:11595  SafeMath.add */\n      tag_131\n        /* \"contracts/BlastFurnace_flattened.sol\":11583:11662  SafeMath.add(claimedIngots[referrals[msg.sender]], SafeMath.div(ingotsUsed, 8)) */\n      jump\t// in\n    tag_231:\n        /* \"contracts/BlastFurnace_flattened.sol\":11548:11559  _setClaimed */\n      tag_195\n        /* \"contracts/BlastFurnace_flattened.sol\":11548:11663  _setClaimed(referrals[msg.sender], SafeMath.add(claimedIngots[referrals[msg.sender]], SafeMath.div(ingotsUsed, 8))) */\n      jump\t// in\n    tag_230:\n        /* \"contracts/BlastFurnace_flattened.sol\":11727:11782  SafeMath.add(marketIngots, SafeMath.div(ingotsUsed, 5)) */\n      tag_233\n        /* \"contracts/BlastFurnace_flattened.sol\":11740:11752  marketIngots */\n      sload(0x0e)\n        /* \"contracts/BlastFurnace_flattened.sol\":11754:11781  SafeMath.div(ingotsUsed, 5) */\n      tag_234\n        /* \"contracts/BlastFurnace_flattened.sol\":11767:11777  ingotsUsed */\n      dup5\n        /* \"contracts/BlastFurnace_flattened.sol\":11779:11780  5 */\n      0x05\n        /* \"contracts/BlastFurnace_flattened.sol\":11754:11766  SafeMath.div */\n      tag_227\n        /* \"contracts/BlastFurnace_flattened.sol\":11754:11781  SafeMath.div(ingotsUsed, 5) */\n      jump\t// in\n    tag_234:\n        /* \"contracts/BlastFurnace_flattened.sol\":11727:11739  SafeMath.add */\n      tag_131\n        /* \"contracts/BlastFurnace_flattened.sol\":11727:11782  SafeMath.add(marketIngots, SafeMath.div(ingotsUsed, 5)) */\n      jump\t// in\n    tag_233:\n        /* \"contracts/BlastFurnace_flattened.sol\":11712:11724  marketIngots */\n      0x0e\n        /* \"contracts/BlastFurnace_flattened.sol\":11712:11782  marketIngots = SafeMath.add(marketIngots, SafeMath.div(ingotsUsed, 5)) */\n      dup2\n      swap1\n      sstore\n      pop\n        /* \"contracts/BlastFurnace_flattened.sol\":11023:11787  {... */\n      pop\n      pop\n        /* \"contracts/BlastFurnace_flattened.sol\":10982:11787  function hatchIngots(address ref) public {... */\n      pop\n      jump\t// out\n        /* \"contracts/BlastFurnace_flattened.sol\":13733:13863  function devFee(uint256 amount) private view returns (uint256) {... */\n    tag_129:\n        /* \"contracts/BlastFurnace_flattened.sol\":13787:13794  uint256 */\n      0x00\n        /* \"contracts/BlastFurnace_flattened.sol\":13808:13858  SafeMath.div(SafeMath.mul(amount, devFeeVal), 100) */\n      tag_236\n        /* \"contracts/BlastFurnace_flattened.sol\":13821:13852  SafeMath.mul(amount, devFeeVal) */\n      tag_237\n        /* \"contracts/BlastFurnace_flattened.sol\":13834:13840  amount */\n      dup4\n        /* \"contracts/BlastFurnace_flattened.sol\":13842:13851  devFeeVal */\n      sload(0x08)\n        /* \"contracts/BlastFurnace_flattened.sol\":13821:13833  SafeMath.mul */\n      tag_183\n        /* \"contracts/BlastFurnace_flattened.sol\":13821:13852  SafeMath.mul(amount, devFeeVal) */\n      jump\t// in\n    tag_237:\n        /* \"contracts/BlastFurnace_flattened.sol\":13854:13857  100 */\n      0x64\n        /* \"contracts/BlastFurnace_flattened.sol\":13808:13820  SafeMath.div */\n      tag_227\n        /* \"contracts/BlastFurnace_flattened.sol\":13808:13858  SafeMath.div(SafeMath.mul(amount, devFeeVal), 100) */\n      jump\t// in\n    tag_236:\n        /* \"contracts/BlastFurnace_flattened.sol\":13801:13858  return SafeMath.div(SafeMath.mul(amount, devFeeVal), 100) */\n      swap1\n      pop\n        /* \"contracts/BlastFurnace_flattened.sol\":13733:13863  function devFee(uint256 amount) private view returns (uint256) {... */\n      swap2\n      swap1\n      pop\n      jump\t// out\n        /* \"contracts/BlastFurnace_flattened.sol\":2086:2175  function add(uint256 a, uint256 b) internal pure returns (uint256) {... */\n    tag_131:\n        /* \"contracts/BlastFurnace_flattened.sol\":2144:2151  uint256 */\n      0x00\n        /* \"contracts/BlastFurnace_flattened.sol\":2169:2170  b */\n      dup2\n        /* \"contracts/BlastFurnace_flattened.sol\":2165:2166  a */\n      dup4\n        /* \"contracts/BlastFurnace_flattened.sol\":2165:2170  a + b */\n      tag_239\n      swap2\n      swap1\n      tag_141\n      jump\t// in\n    tag_239:\n        /* \"contracts/BlastFurnace_flattened.sol\":2158:2170  return a + b */\n      swap1\n      pop\n        /* \"contracts/BlastFurnace_flattened.sol\":2086:2175  function add(uint256 a, uint256 b) internal pure returns (uint256) {... */\n      swap3\n      swap2\n      pop\n      pop\n      jump\t// out\n        /* \"contracts/BlastFurnace_flattened.sol\":2425:2514  function sub(uint256 a, uint256 b) internal pure returns (uint256) {... */\n    tag_135:\n        /* \"contracts/BlastFurnace_flattened.sol\":2483:2490  uint256 */\n      0x00\n        /* \"contracts/BlastFurnace_flattened.sol\":2508:2509  b */\n      dup2\n        /* \"contracts/BlastFurnace_flattened.sol\":2504:2505  a */\n      dup4\n        /* \"contracts/BlastFurnace_flattened.sol\":2504:2509  a - b */\n      tag_241\n      swap2\n      swap1\n      tag_242\n      jump\t// in\n    tag_241:\n        /* \"contracts/BlastFurnace_flattened.sol\":2497:2509  return a - b */\n      swap1\n      pop\n        /* \"contracts/BlastFurnace_flattened.sol\":2425:2514  function sub(uint256 a, uint256 b) internal pure returns (uint256) {... */\n      swap3\n      swap2\n      pop\n      pop\n      jump\t// out\n        /* \"contracts/BlastFurnace_flattened.sol\":14710:14811  function blastFeesClaimed(uint256 value) internal virtual override {... */\n    tag_152:\n        /* \"contracts/BlastFurnace_flattened.sol\":14782:14806  _distributeNative(value) */\n      tag_244\n        /* \"contracts/BlastFurnace_flattened.sol\":14800:14805  value */\n      dup2\n        /* \"contracts/BlastFurnace_flattened.sol\":14782:14799  _distributeNative */\n      tag_245\n        /* \"contracts/BlastFurnace_flattened.sol\":14782:14806  _distributeNative(value) */\n      jump\t// in\n    tag_244:\n        /* \"contracts/BlastFurnace_flattened.sol\":14710:14811  function blastFeesClaimed(uint256 value) internal virtual override {... */\n      pop\n      jump\t// out\n        /* \"contracts/BlastFurnace_flattened.sol\":13021:13263  function calculateTrade(uint256 rt, uint256 rs, uint256 bs) private view returns (uint256) {... */\n    tag_173:\n        /* \"contracts/BlastFurnace_flattened.sol\":13103:13110  uint256 */\n      0x00\n        /* \"contracts/BlastFurnace_flattened.sol\":13124:13258  SafeMath.div(SafeMath.mul(PSN, bs), SafeMath.add(PSNH, SafeMath.div(SafeMath.add(SafeMath.mul(PSN, rs), SafeMath.mul(PSNH, rt)), rt))) */\n      tag_247\n        /* \"contracts/BlastFurnace_flattened.sol\":13137:13158  SafeMath.mul(PSN, bs) */\n      tag_248\n        /* \"contracts/BlastFurnace_flattened.sol\":13150:13153  PSN */\n      sload(0x06)\n        /* \"contracts/BlastFurnace_flattened.sol\":13155:13157  bs */\n      dup5\n        /* \"contracts/BlastFurnace_flattened.sol\":13137:13149  SafeMath.mul */\n      tag_183\n        /* \"contracts/BlastFurnace_flattened.sol\":13137:13158  SafeMath.mul(PSN, bs) */\n      jump\t// in\n    tag_248:\n        /* \"contracts/BlastFurnace_flattened.sol\":13160:13257  SafeMath.add(PSNH, SafeMath.div(SafeMath.add(SafeMath.mul(PSN, rs), SafeMath.mul(PSNH, rt)), rt)) */\n      tag_249\n        /* \"contracts/BlastFurnace_flattened.sol\":13173:13177  PSNH */\n      sload(0x07)\n        /* \"contracts/BlastFurnace_flattened.sol\":13179:13256  SafeMath.div(SafeMath.add(SafeMath.mul(PSN, rs), SafeMath.mul(PSNH, rt)), rt) */\n      tag_250\n        /* \"contracts/BlastFurnace_flattened.sol\":13192:13251  SafeMath.add(SafeMath.mul(PSN, rs), SafeMath.mul(PSNH, rt)) */\n      tag_251\n        /* \"contracts/BlastFurnace_flattened.sol\":13205:13226  SafeMath.mul(PSN, rs) */\n      tag_252\n        /* \"contracts/BlastFurnace_flattened.sol\":13218:13221  PSN */\n      sload(0x06)\n        /* \"contracts/BlastFurnace_flattened.sol\":13223:13225  rs */\n      dup11\n        /* \"contracts/BlastFurnace_flattened.sol\":13205:13217  SafeMath.mul */\n      tag_183\n        /* \"contracts/BlastFurnace_flattened.sol\":13205:13226  SafeMath.mul(PSN, rs) */\n      jump\t// in\n    tag_252:\n        /* \"contracts/BlastFurnace_flattened.sol\":13228:13250  SafeMath.mul(PSNH, rt) */\n      tag_253\n        /* \"contracts/BlastFurnace_flattened.sol\":13241:13245  PSNH */\n      sload(0x07)\n        /* \"contracts/BlastFurnace_flattened.sol\":13247:13249  rt */\n      dup13\n        /* \"contracts/BlastFurnace_flattened.sol\":13228:13240  SafeMath.mul */\n      tag_183\n        /* \"contracts/BlastFurnace_flattened.sol\":13228:13250  SafeMath.mul(PSNH, rt) */\n      jump\t// in\n    tag_253:\n        /* \"contracts/BlastFurnace_flattened.sol\":13192:13204  SafeMath.add */\n      tag_131\n        /* \"contracts/BlastFurnace_flattened.sol\":13192:13251  SafeMath.add(SafeMath.mul(PSN, rs), SafeMath.mul(PSNH, rt)) */\n      jump\t// in\n    tag_251:\n        /* \"contracts/BlastFurnace_flattened.sol\":13253:13255  rt */\n      dup10\n        /* \"contracts/BlastFurnace_flattened.sol\":13179:13191  SafeMath.div */\n      tag_227\n        /* \"contracts/BlastFurnace_flattened.sol\":13179:13256  SafeMath.div(SafeMath.add(SafeMath.mul(PSN, rs), SafeMath.mul(PSNH, rt)), rt) */\n      jump\t// in\n    tag_250:\n        /* \"contracts/BlastFurnace_flattened.sol\":13160:13172  SafeMath.add */\n      tag_131\n        /* \"contracts/BlastFurnace_flattened.sol\":13160:13257  SafeMath.add(PSNH, SafeMath.div(SafeMath.add(SafeMath.mul(PSN, rs), SafeMath.mul(PSNH, rt)), rt)) */\n      jump\t// in\n    tag_249:\n        /* \"contracts/BlastFurnace_flattened.sol\":13124:13136  SafeMath.div */\n      tag_227\n        /* \"contracts/BlastFurnace_flattened.sol\":13124:13258  SafeMath.div(SafeMath.mul(PSN, bs), SafeMath.add(PSNH, SafeMath.div(SafeMath.add(SafeMath.mul(PSN, rs), SafeMath.mul(PSNH, rt)), rt))) */\n      jump\t// in\n    tag_247:\n        /* \"contracts/BlastFurnace_flattened.sol\":13117:13258  return SafeMath.div(SafeMath.mul(PSN, bs), SafeMath.add(PSNH, SafeMath.div(SafeMath.add(SafeMath.mul(PSN, rs), SafeMath.mul(PSNH, rt)), rt))) */\n      swap1\n      pop\n        /* \"contracts/BlastFurnace_flattened.sol\":13021:13263  function calculateTrade(uint256 rt, uint256 rs, uint256 bs) private view returns (uint256) {... */\n      swap4\n      swap3\n      pop\n      pop\n      pop\n      jump\t// out\n        /* \"contracts/BlastFurnace_flattened.sol\":14609:14705  function min(uint256 a, uint256 b) private pure returns (uint256) {... */\n    tag_181:\n        /* \"contracts/BlastFurnace_flattened.sol\":14666:14673  uint256 */\n      0x00\n        /* \"contracts/BlastFurnace_flattened.sol\":14691:14692  b */\n      dup2\n        /* \"contracts/BlastFurnace_flattened.sol\":14687:14688  a */\n      dup4\n        /* \"contracts/BlastFurnace_flattened.sol\":14687:14692  a < b */\n      lt\n        /* \"contracts/BlastFurnace_flattened.sol\":14687:14700  a < b ? a : b */\n      tag_255\n      jumpi\n        /* \"contracts/BlastFurnace_flattened.sol\":14699:14700  b */\n      dup2\n        /* \"contracts/BlastFurnace_flattened.sol\":14687:14700  a < b ? a : b */\n      jump(tag_256)\n    tag_255:\n        /* \"contracts/BlastFurnace_flattened.sol\":14695:14696  a */\n      dup3\n        /* \"contracts/BlastFurnace_flattened.sol\":14687:14700  a < b ? a : b */\n    tag_256:\n        /* \"contracts/BlastFurnace_flattened.sol\":14680:14700  return a < b ? a : b */\n      swap1\n      pop\n        /* \"contracts/BlastFurnace_flattened.sol\":14609:14705  function min(uint256 a, uint256 b) private pure returns (uint256) {... */\n      swap3\n      swap2\n      pop\n      pop\n      jump\t// out\n        /* \"contracts/BlastFurnace_flattened.sol\":2740:2829  function mul(uint256 a, uint256 b) internal pure returns (uint256) {... */\n    tag_183:\n        /* \"contracts/BlastFurnace_flattened.sol\":2798:2805  uint256 */\n      0x00\n        /* \"contracts/BlastFurnace_flattened.sol\":2823:2824  b */\n      dup2\n        /* \"contracts/BlastFurnace_flattened.sol\":2819:2820  a */\n      dup4\n        /* \"contracts/BlastFurnace_flattened.sol\":2819:2824  a * b */\n      tag_258\n      swap2\n      swap1\n      tag_259\n      jump\t// in\n    tag_258:\n        /* \"contracts/BlastFurnace_flattened.sol\":2812:2824  return a * b */\n      swap1\n      pop\n        /* \"contracts/BlastFurnace_flattened.sol\":2740:2829  function mul(uint256 a, uint256 b) internal pure returns (uint256) {... */\n      swap3\n      swap2\n      pop\n      pop\n      jump\t// out\n        /* \"contracts/BlastFurnace_flattened.sol\":10788:10977  function _setClaimed(address addr, uint256 value) private {... */\n    tag_195:\n        /* \"contracts/BlastFurnace_flattened.sol\":10874:10878  true */\n      0x01\n        /* \"contracts/BlastFurnace_flattened.sol\":10855:10878  _isHolder[addr] != true */\n      iszero\n      iszero\n        /* \"contracts/BlastFurnace_flattened.sol\":10855:10864  _isHolder */\n      0x10\n        /* \"contracts/BlastFurnace_flattened.sol\":10855:10870  _isHolder[addr] */\n      0x00\n        /* \"contracts/BlastFurnace_flattened.sol\":10865:10869  addr */\n      dup5\n        /* \"contracts/BlastFurnace_flattened.sol\":10855:10870  _isHolder[addr] */\n      0xffffffffffffffffffffffffffffffffffffffff\n      and\n      0xffffffffffffffffffffffffffffffffffffffff\n      and\n      dup2\n      mstore\n      0x20\n      add\n      swap1\n      dup2\n      mstore\n      0x20\n      add\n      0x00\n      keccak256\n      0x00\n      swap1\n      sload\n      swap1\n      0x0100\n      exp\n      swap1\n      div\n      0xff\n      and\n        /* \"contracts/BlastFurnace_flattened.sol\":10855:10878  _isHolder[addr] != true */\n      iszero\n      iszero\n      eq\n        /* \"contracts/BlastFurnace_flattened.sol\":10851:10939  if (_isHolder[addr] != true) {... */\n      tag_261\n      jumpi\n        /* \"contracts/BlastFurnace_flattened.sol\":10886:10894  _holders */\n      0x12\n        /* \"contracts/BlastFurnace_flattened.sol\":10900:10904  addr */\n      dup3\n        /* \"contracts/BlastFurnace_flattened.sol\":10886:10905  _holders.push(addr) */\n      swap1\n      dup1\n      0x01\n      dup2\n      sload\n      add\n      dup1\n      dup3\n      sstore\n      dup1\n      swap2\n      pop\n      pop\n      0x01\n      swap1\n      sub\n      swap1\n      0x00\n      mstore\n      keccak256(0x00, 0x20)\n      add\n      0x00\n      swap1\n      swap2\n      swap1\n      swap2\n      swap1\n      swap2\n      0x0100\n      exp\n      dup2\n      sload\n      dup2\n      0xffffffffffffffffffffffffffffffffffffffff\n      mul\n      not\n      and\n      swap1\n      dup4\n      0xffffffffffffffffffffffffffffffffffffffff\n      and\n      mul\n      or\n      swap1\n      sstore\n      pop\n        /* \"contracts/BlastFurnace_flattened.sol\":10929:10933  true */\n      0x01\n        /* \"contracts/BlastFurnace_flattened.sol\":10911:10920  _isHolder */\n      0x10\n        /* \"contracts/BlastFurnace_flattened.sol\":10911:10926  _isHolder[addr] */\n      0x00\n        /* \"contracts/BlastFurnace_flattened.sol\":10921:10925  addr */\n      dup5\n        /* \"contracts/BlastFurnace_flattened.sol\":10911:10926  _isHolder[addr] */\n      0xffffffffffffffffffffffffffffffffffffffff\n      and\n      0xffffffffffffffffffffffffffffffffffffffff\n      and\n      dup2\n      mstore\n      0x20\n      add\n      swap1\n      dup2\n      mstore\n      0x20\n      add\n      0x00\n      keccak256\n      0x00\n        /* \"contracts/BlastFurnace_flattened.sol\":10911:10933  _isHolder[addr] = true */\n      0x0100\n      exp\n      dup2\n      sload\n      dup2\n      0xff\n      mul\n      not\n      and\n      swap1\n      dup4\n      iszero\n      iszero\n      mul\n      or\n      swap1\n      sstore\n      pop\n        /* \"contracts/BlastFurnace_flattened.sol\":10851:10939  if (_isHolder[addr] != true) {... */\n    tag_261:\n        /* \"contracts/BlastFurnace_flattened.sol\":10967:10972  value */\n      dup1\n        /* \"contracts/BlastFurnace_flattened.sol\":10945:10958  claimedIngots */\n      0x0b\n        /* \"contracts/BlastFurnace_flattened.sol\":10945:10964  claimedIngots[addr] */\n      0x00\n        /* \"contracts/BlastFurnace_flattened.sol\":10959:10963  addr */\n      dup5\n        /* \"contracts/BlastFurnace_flattened.sol\":10945:10964  claimedIngots[addr] */\n      0xffffffffffffffffffffffffffffffffffffffff\n      and\n      0xffffffffffffffffffffffffffffffffffffffff\n      and\n      dup2\n      mstore\n      0x20\n      add\n      swap1\n      dup2\n      mstore\n      0x20\n      add\n      0x00\n      keccak256\n        /* \"contracts/BlastFurnace_flattened.sol\":10945:10972  claimedIngots[addr] = value */\n      dup2\n      swap1\n      sstore\n      pop\n        /* \"contracts/BlastFurnace_flattened.sol\":10788:10977  function _setClaimed(address addr, uint256 value) private {... */\n      pop\n      pop\n      jump\t// out\n        /* \"contracts/BlastFurnace_flattened.sol\":6835:7001  function _transferOwnership(address newOwner) internal {... */\n    tag_219:\n        /* \"contracts/BlastFurnace_flattened.sol\":6923:6924  0 */\n      0x00\n        /* \"contracts/BlastFurnace_flattened.sol\":6903:6925  newOwner != address(0) */\n      0xffffffffffffffffffffffffffffffffffffffff\n      and\n        /* \"contracts/BlastFurnace_flattened.sol\":6903:6911  newOwner */\n      dup2\n        /* \"contracts/BlastFurnace_flattened.sol\":6903:6925  newOwner != address(0) */\n      0xffffffffffffffffffffffffffffffffffffffff\n      and\n      sub\n        /* \"contracts/BlastFurnace_flattened.sol\":6895:6926  require(newOwner != address(0)) */\n      tag_264\n      jumpi\n      0x00\n      dup1\n      revert\n    tag_264:\n        /* \"contracts/BlastFurnace_flattened.sol\":6965:6973  newOwner */\n      dup1\n        /* \"contracts/BlastFurnace_flattened.sol\":6936:6974  OwnershipTransferred(_owner, newOwner) */\n      0xffffffffffffffffffffffffffffffffffffffff\n      and\n        /* \"contracts/BlastFurnace_flattened.sol\":6957:6963  _owner */\n      0x00\n      dup1\n      sload\n      swap1\n      0x0100\n      exp\n      swap1\n      div\n      0xffffffffffffffffffffffffffffffffffffffff\n      and\n        /* \"contracts/BlastFurnace_flattened.sol\":6936:6974  OwnershipTransferred(_owner, newOwner) */\n      0xffffffffffffffffffffffffffffffffffffffff\n      and\n      0x8be0079c531659141344cd1fd0a4f28419497f9722a3daafe3b4186f6b6457e0\n      mload(0x40)\n      mload(0x40)\n      dup1\n      swap2\n      sub\n      swap1\n      log3\n        /* \"contracts/BlastFurnace_flattened.sol\":6988:6996  newOwner */\n      dup1\n        /* \"contracts/BlastFurnace_flattened.sol\":6979:6985  _owner */\n      0x00\n      dup1\n        /* \"contracts/BlastFurnace_flattened.sol\":6979:6996  _owner = newOwner */\n      0x0100\n      exp\n      dup2\n      sload\n      dup2\n      0xffffffffffffffffffffffffffffffffffffffff\n      mul\n      not\n      and\n      swap1\n      dup4\n      0xffffffffffffffffffffffffffffffffffffffff\n      and\n      mul\n      or\n      swap1\n      sstore\n      pop\n        /* \"contracts/BlastFurnace_flattened.sol\":6835:7001  function _transferOwnership(address newOwner) internal {... */\n      pop\n      jump\t// out\n        /* \"contracts/BlastFurnace_flattened.sol\":3097:3186  function div(uint256 a, uint256 b) internal pure returns (uint256) {... */\n    tag_227:\n        /* \"contracts/BlastFurnace_flattened.sol\":3155:3162  uint256 */\n      0x00\n        /* \"contracts/BlastFurnace_flattened.sol\":3180:3181  b */\n      dup2\n        /* \"contracts/BlastFurnace_flattened.sol\":3176:3177  a */\n      dup4\n        /* \"contracts/BlastFurnace_flattened.sol\":3176:3181  a / b */\n      tag_266\n      swap2\n      swap1\n      tag_267\n      jump\t// in\n    tag_266:\n        /* \"contracts/BlastFurnace_flattened.sol\":3169:3181  return a / b */\n      swap1\n      pop\n        /* \"contracts/BlastFurnace_flattened.sol\":3097:3186  function div(uint256 a, uint256 b) internal pure returns (uint256) {... */\n      swap3\n      swap2\n      pop\n      pop\n      jump\t// out\n        /* \"contracts/BlastFurnace_flattened.sol\":14816:15155  function _distributeNative(uint256 amount) internal {... */\n    tag_245:\n        /* \"contracts/BlastFurnace_flattened.sol\":14887:14888  0 */\n      0x00\n        /* \"contracts/BlastFurnace_flattened.sol\":14877:14883  amount */\n      dup2\n        /* \"contracts/BlastFurnace_flattened.sol\":14877:14888  amount <= 0 */\n      gt\n        /* \"contracts/BlastFurnace_flattened.sol\":14873:14908  if (amount <= 0) {... */\n      iszero\n        /* \"contracts/BlastFurnace_flattened.sol\":14896:14903  return; */\n      tag_268\n        /* \"contracts/BlastFurnace_flattened.sol\":14873:14908  if (amount <= 0) {... */\n      jumpi\n        /* \"contracts/BlastFurnace_flattened.sol\":14914:14928  address holder */\n      0x00\n        /* \"contracts/BlastFurnace_flattened.sol\":14933:14944  uint256 cut */\n      dup1\n        /* \"contracts/BlastFurnace_flattened.sol\":14956:14962  uint i */\n      0x00\n        /* \"contracts/BlastFurnace_flattened.sol\":14951:15151  for (uint i = 0; i < _holders.length; i++) {... */\n    tag_270:\n        /* \"contracts/BlastFurnace_flattened.sol\":14972:14980  _holders */\n      0x12\n        /* \"contracts/BlastFurnace_flattened.sol\":14972:14987  _holders.length */\n      dup1\n      sload\n      swap1\n      pop\n        /* \"contracts/BlastFurnace_flattened.sol\":14968:14969  i */\n      dup2\n        /* \"contracts/BlastFurnace_flattened.sol\":14968:14987  i < _holders.length */\n      lt\n        /* \"contracts/BlastFurnace_flattened.sol\":14951:15151  for (uint i = 0; i < _holders.length; i++) {... */\n      iszero\n      tag_271\n      jumpi\n        /* \"contracts/BlastFurnace_flattened.sol\":15009:15017  _holders */\n      0x12\n        /* \"contracts/BlastFurnace_flattened.sol\":15018:15019  i */\n      dup2\n        /* \"contracts/BlastFurnace_flattened.sol\":15009:15020  _holders[i] */\n      dup2\n      sload\n      dup2\n      lt\n      tag_273\n      jumpi\n      tag_274\n      tag_275\n      jump\t// in\n    tag_274:\n    tag_273:\n      swap1\n      0x00\n      mstore\n      keccak256(0x00, 0x20)\n      add\n      0x00\n      swap1\n      sload\n      swap1\n      0x0100\n      exp\n      swap1\n      div\n      0xffffffffffffffffffffffffffffffffffffffff\n      and\n        /* \"contracts/BlastFurnace_flattened.sol\":15000:15020  holder = _holders[i] */\n      swap3\n      pop\n        /* \"contracts/BlastFurnace_flattened.sol\":15032:15083  amount.mul(claimedIngots[holder]).div(marketIngots) */\n      tag_277\n        /* \"contracts/BlastFurnace_flattened.sol\":15070:15082  marketIngots */\n      sload(0x0e)\n        /* \"contracts/BlastFurnace_flattened.sol\":15032:15065  amount.mul(claimedIngots[holder]) */\n      tag_278\n        /* \"contracts/BlastFurnace_flattened.sol\":15043:15056  claimedIngots */\n      0x0b\n        /* \"contracts/BlastFurnace_flattened.sol\":15043:15064  claimedIngots[holder] */\n      0x00\n        /* \"contracts/BlastFurnace_flattened.sol\":15057:15063  holder */\n      dup8\n        /* \"contracts/BlastFurnace_flattened.sol\":15043:15064  claimedIngots[holder] */\n      0xffffffffffffffffffffffffffffffffffffffff\n      and\n      0xffffffffffffffffffffffffffffffffffffffff\n      and\n      dup2\n      mstore\n      0x20\n      add\n      swap1\n      dup2\n      mstore\n      0x20\n      add\n      0x00\n      keccak256\n      sload\n        /* \"contracts/BlastFurnace_flattened.sol\":15032:15038  amount */\n      dup8\n        /* \"contracts/BlastFurnace_flattened.sol\":15032:15042  amount.mul */\n      tag_183\n      swap1\n        /* \"contracts/BlastFurnace_flattened.sol\":15032:15065  amount.mul(claimedIngots[holder]) */\n      swap2\n      swap1\n      0xffffffff\n      and\n      jump\t// in\n    tag_278:\n        /* \"contracts/BlastFurnace_flattened.sol\":15032:15069  amount.mul(claimedIngots[holder]).div */\n      tag_227\n      swap1\n        /* \"contracts/BlastFurnace_flattened.sol\":15032:15083  amount.mul(claimedIngots[holder]).div(marketIngots) */\n      swap2\n      swap1\n      0xffffffff\n      and\n      jump\t// in\n    tag_277:\n        /* \"contracts/BlastFurnace_flattened.sol\":15026:15083  cut = amount.mul(claimedIngots[holder]).div(marketIngots) */\n      swap2\n      pop\n        /* \"contracts/BlastFurnace_flattened.sol\":15101:15102  0 */\n      0x00\n        /* \"contracts/BlastFurnace_flattened.sol\":15095:15098  cut */\n      dup3\n        /* \"contracts/BlastFurnace_flattened.sol\":15095:15102  cut > 0 */\n      gt\n        /* \"contracts/BlastFurnace_flattened.sol\":15091:15146  if (cut > 0) {... */\n      iszero\n      tag_279\n      jumpi\n        /* \"contracts/BlastFurnace_flattened.sol\":15111:15139  _transferNative(holder, cut) */\n      tag_280\n        /* \"contracts/BlastFurnace_flattened.sol\":15127:15133  holder */\n      dup4\n        /* \"contracts/BlastFurnace_flattened.sol\":15135:15138  cut */\n      dup4\n        /* \"contracts/BlastFurnace_flattened.sol\":15111:15126  _transferNative */\n      tag_281\n        /* \"contracts/BlastFurnace_flattened.sol\":15111:15139  _transferNative(holder, cut) */\n      jump\t// in\n    tag_280:\n      pop\n        /* \"contracts/BlastFurnace_flattened.sol\":15091:15146  if (cut > 0) {... */\n    tag_279:\n        /* \"contracts/BlastFurnace_flattened.sol\":14989:14992  i++ */\n      dup1\n      dup1\n      0x01\n      add\n      swap2\n      pop\n      pop\n        /* \"contracts/BlastFurnace_flattened.sol\":14951:15151  for (uint i = 0; i < _holders.length; i++) {... */\n      jump(tag_270)\n    tag_271:\n      pop\n        /* \"contracts/BlastFurnace_flattened.sol\":14868:15155  {... */\n      pop\n      pop\n        /* \"contracts/BlastFurnace_flattened.sol\":14816:15155  function _distributeNative(uint256 amount) internal {... */\n    tag_268:\n      pop\n      jump\t// out\n        /* \"contracts/BlastFurnace_flattened.sol\":5854:6012  function _transferNative(address to, uint256 amount) internal returns (bool) {... */\n    tag_281:\n        /* \"contracts/BlastFurnace_flattened.sol\":5925:5929  bool */\n      0x00\n        /* \"contracts/BlastFurnace_flattened.sol\":5948:5950  to */\n      dup3\n        /* \"contracts/BlastFurnace_flattened.sol\":5940:5956  payable(to).send */\n      0xffffffffffffffffffffffffffffffffffffffff\n      and\n        /* \"contracts/BlastFurnace_flattened.sol\":5940:5964  payable(to).send(amount) */\n      0x08fc\n        /* \"contracts/BlastFurnace_flattened.sol\":5957:5963  amount */\n      dup4\n        /* \"contracts/BlastFurnace_flattened.sol\":5940:5964  payable(to).send(amount) */\n      swap1\n      dup2\n      iszero\n      mul\n      swap1\n      mload(0x40)\n      0x00\n      mload(0x40)\n      dup1\n      dup4\n      sub\n      dup2\n      dup6\n      dup9\n      dup9\n      call\n      swap4\n      pop\n      pop\n      pop\n      pop\n        /* \"contracts/BlastFurnace_flattened.sol\":5936:5989  if (payable(to).send(amount)) {... */\n      iszero\n      tag_284\n      jumpi\n        /* \"contracts/BlastFurnace_flattened.sol\":5979:5983  true */\n      0x01\n        /* \"contracts/BlastFurnace_flattened.sol\":5972:5983  return true */\n      swap1\n      pop\n      jump(tag_282)\n        /* \"contracts/BlastFurnace_flattened.sol\":5936:5989  if (payable(to).send(amount)) {... */\n    tag_284:\n        /* \"contracts/BlastFurnace_flattened.sol\":6002:6007  false */\n      0x00\n        /* \"contracts/BlastFurnace_flattened.sol\":5995:6007  return false */\n      swap1\n      pop\n        /* \"contracts/BlastFurnace_flattened.sol\":5854:6012  function _transferNative(address to, uint256 amount) internal returns (bool) {... */\n    tag_282:\n      swap3\n      swap2\n      pop\n      pop\n      jump\t// out\n        /* \"#utility.yul\":7:84   */\n    tag_285:\n        /* \"#utility.yul\":44:51   */\n      0x00\n        /* \"#utility.yul\":73:78   */\n      dup2\n        /* \"#utility.yul\":62:78   */\n      swap1\n      pop\n        /* \"#utility.yul\":7:84   */\n      swap2\n      swap1\n      pop\n      jump\t// out\n        /* \"#utility.yul\":90:208   */\n    tag_286:\n        /* \"#utility.yul\":177:201   */\n      tag_310\n        /* \"#utility.yul\":195:200   */\n      dup2\n        /* \"#utility.yul\":177:201   */\n      tag_285\n      jump\t// in\n    tag_310:\n        /* \"#utility.yul\":172:175   */\n      dup3\n        /* \"#utility.yul\":165:202   */\n      mstore\n        /* \"#utility.yul\":90:208   */\n      pop\n      pop\n      jump\t// out\n        /* \"#utility.yul\":214:436   */\n    tag_34:\n        /* \"#utility.yul\":307:311   */\n      0x00\n        /* \"#utility.yul\":345:347   */\n      0x20\n        /* \"#utility.yul\":334:343   */\n      dup3\n        /* \"#utility.yul\":330:348   */\n      add\n        /* \"#utility.yul\":322:348   */\n      swap1\n      pop\n        /* \"#utility.yul\":358:429   */\n      tag_312\n        /* \"#utility.yul\":426:427   */\n      0x00\n        /* \"#utility.yul\":415:424   */\n      dup4\n        /* \"#utility.yul\":411:428   */\n      add\n        /* \"#utility.yul\":402:408   */\n      dup5\n        /* \"#utility.yul\":358:429   */\n      tag_286\n      jump\t// in\n    tag_312:\n        /* \"#utility.yul\":214:436   */\n      swap3\n      swap2\n      pop\n      pop\n      jump\t// out\n        /* \"#utility.yul\":523:640   */\n    tag_288:\n        /* \"#utility.yul\":632:633   */\n      0x00\n        /* \"#utility.yul\":629:630   */\n      dup1\n        /* \"#utility.yul\":622:634   */\n      revert\n        /* \"#utility.yul\":769:895   */\n    tag_290:\n        /* \"#utility.yul\":806:813   */\n      0x00\n        /* \"#utility.yul\":846:888   */\n      0xffffffffffffffffffffffffffffffffffffffff\n        /* \"#utility.yul\":839:844   */\n      dup3\n        /* \"#utility.yul\":835:889   */\n      and\n        /* \"#utility.yul\":824:889   */\n      swap1\n      pop\n        /* \"#utility.yul\":769:895   */\n      swap2\n      swap1\n      pop\n      jump\t// out\n        /* \"#utility.yul\":901:997   */\n    tag_291:\n        /* \"#utility.yul\":938:945   */\n      0x00\n        /* \"#utility.yul\":967:991   */\n      tag_318\n        /* \"#utility.yul\":985:990   */\n      dup3\n        /* \"#utility.yul\":967:991   */\n      tag_290\n      jump\t// in\n    tag_318:\n        /* \"#utility.yul\":956:991   */\n      swap1\n      pop\n        /* \"#utility.yul\":901:997   */\n      swap2\n      swap1\n      pop\n      jump\t// out\n        /* \"#utility.yul\":1003:1125   */\n    tag_292:\n        /* \"#utility.yul\":1076:1100   */\n      tag_320\n        /* \"#utility.yul\":1094:1099   */\n      dup2\n        /* \"#utility.yul\":1076:1100   */\n      tag_291\n      jump\t// in\n    tag_320:\n        /* \"#utility.yul\":1069:1074   */\n      dup2\n        /* \"#utility.yul\":1066:1101   */\n      eq\n        /* \"#utility.yul\":1056:1119   */\n      tag_321\n      jumpi\n        /* \"#utility.yul\":1115:1116   */\n      0x00\n        /* \"#utility.yul\":1112:1113   */\n      dup1\n        /* \"#utility.yul\":1105:1117   */\n      revert\n        /* \"#utility.yul\":1056:1119   */\n    tag_321:\n        /* \"#utility.yul\":1003:1125   */\n      pop\n      jump\t// out\n        /* \"#utility.yul\":1131:1270   */\n    tag_293:\n        /* \"#utility.yul\":1177:1182   */\n      0x00\n        /* \"#utility.yul\":1215:1221   */\n      dup2\n        /* \"#utility.yul\":1202:1222   */\n      calldataload\n        /* \"#utility.yul\":1193:1222   */\n      swap1\n      pop\n        /* \"#utility.yul\":1231:1264   */\n      tag_323\n        /* \"#utility.yul\":1258:1263   */\n      dup2\n        /* \"#utility.yul\":1231:1264   */\n      tag_292\n      jump\t// in\n    tag_323:\n        /* \"#utility.yul\":1131:1270   */\n      swap3\n      swap2\n      pop\n      pop\n      jump\t// out\n        /* \"#utility.yul\":1276:1605   */\n    tag_41:\n        /* \"#utility.yul\":1335:1341   */\n      0x00\n        /* \"#utility.yul\":1384:1386   */\n      0x20\n        /* \"#utility.yul\":1372:1381   */\n      dup3\n        /* \"#utility.yul\":1363:1370   */\n      dup5\n        /* \"#utility.yul\":1359:1382   */\n      sub\n        /* \"#utility.yul\":1355:1387   */\n      slt\n        /* \"#utility.yul\":1352:1471   */\n      iszero\n      tag_325\n      jumpi\n        /* \"#utility.yul\":1390:1469   */\n      tag_326\n      tag_288\n      jump\t// in\n    tag_326:\n        /* \"#utility.yul\":1352:1471   */\n    tag_325:\n        /* \"#utility.yul\":1510:1511   */\n      0x00\n        /* \"#utility.yul\":1535:1588   */\n      tag_327\n        /* \"#utility.yul\":1580:1587   */\n      dup5\n        /* \"#utility.yul\":1571:1577   */\n      dup3\n        /* \"#utility.yul\":1560:1569   */\n      dup6\n        /* \"#utility.yul\":1556:1578   */\n      add\n        /* \"#utility.yul\":1535:1588   */\n      tag_293\n      jump\t// in\n    tag_327:\n        /* \"#utility.yul\":1525:1588   */\n      swap2\n      pop\n        /* \"#utility.yul\":1481:1598   */\n      pop\n        /* \"#utility.yul\":1276:1605   */\n      swap3\n      swap2\n      pop\n      pop\n      jump\t// out\n        /* \"#utility.yul\":1611:1733   */\n    tag_294:\n        /* \"#utility.yul\":1684:1708   */\n      tag_329\n        /* \"#utility.yul\":1702:1707   */\n      dup2\n        /* \"#utility.yul\":1684:1708   */\n      tag_285\n      jump\t// in\n    tag_329:\n        /* \"#utility.yul\":1677:1682   */\n      dup2\n        /* \"#utility.yul\":1674:1709   */\n      eq\n        /* \"#utility.yul\":1664:1727   */\n      tag_330\n      jumpi\n        /* \"#utility.yul\":1723:1724   */\n      0x00\n        /* \"#utility.yul\":1720:1721   */\n      dup1\n        /* \"#utility.yul\":1713:1725   */\n      revert\n        /* \"#utility.yul\":1664:1727   */\n    tag_330:\n        /* \"#utility.yul\":1611:1733   */\n      pop\n      jump\t// out\n        /* \"#utility.yul\":1739:1878   */\n    tag_295:\n        /* \"#utility.yul\":1785:1790   */\n      0x00\n        /* \"#utility.yul\":1823:1829   */\n      dup2\n        /* \"#utility.yul\":1810:1830   */\n      calldataload\n        /* \"#utility.yul\":1801:1830   */\n      swap1\n      pop\n        /* \"#utility.yul\":1839:1872   */\n      tag_332\n        /* \"#utility.yul\":1866:1871   */\n      dup2\n        /* \"#utility.yul\":1839:1872   */\n      tag_294\n      jump\t// in\n    tag_332:\n        /* \"#utility.yul\":1739:1878   */\n      swap3\n      swap2\n      pop\n      pop\n      jump\t// out\n        /* \"#utility.yul\":1884:2213   */\n    tag_63:\n        /* \"#utility.yul\":1943:1949   */\n      0x00\n        /* \"#utility.yul\":1992:1994   */\n      0x20\n        /* \"#utility.yul\":1980:1989   */\n      dup3\n        /* \"#utility.yul\":1971:1978   */\n      dup5\n        /* \"#utility.yul\":1967:1990   */\n      sub\n        /* \"#utility.yul\":1963:1995   */\n      slt\n        /* \"#utility.yul\":1960:2079   */\n      iszero\n      tag_334\n      jumpi\n        /* \"#utility.yul\":1998:2077   */\n      tag_335\n      tag_288\n      jump\t// in\n    tag_335:\n        /* \"#utility.yul\":1960:2079   */\n    tag_334:\n        /* \"#utility.yul\":2118:2119   */\n      0x00\n        /* \"#utility.yul\":2143:2196   */\n      tag_336\n        /* \"#utility.yul\":2188:2195   */\n      dup5\n        /* \"#utility.yul\":2179:2185   */\n      dup3\n        /* \"#utility.yul\":2168:2177   */\n      dup6\n        /* \"#utility.yul\":2164:2186   */\n      add\n        /* \"#utility.yul\":2143:2196   */\n      tag_295\n      jump\t// in\n    tag_336:\n        /* \"#utility.yul\":2133:2196   */\n      swap2\n      pop\n        /* \"#utility.yul\":2089:2206   */\n      pop\n        /* \"#utility.yul\":1884:2213   */\n      swap3\n      swap2\n      pop\n      pop\n      jump\t// out\n        /* \"#utility.yul\":2219:2337   */\n    tag_296:\n        /* \"#utility.yul\":2306:2330   */\n      tag_338\n        /* \"#utility.yul\":2324:2329   */\n      dup2\n        /* \"#utility.yul\":2306:2330   */\n      tag_291\n      jump\t// in\n    tag_338:\n        /* \"#utility.yul\":2301:2304   */\n      dup3\n        /* \"#utility.yul\":2294:2331   */\n      mstore\n        /* \"#utility.yul\":2219:2337   */\n      pop\n      pop\n      jump\t// out\n        /* \"#utility.yul\":2343:2565   */\n    tag_66:\n        /* \"#utility.yul\":2436:2440   */\n      0x00\n        /* \"#utility.yul\":2474:2476   */\n      0x20\n        /* \"#utility.yul\":2463:2472   */\n      dup3\n        /* \"#utility.yul\":2459:2477   */\n      add\n        /* \"#utility.yul\":2451:2477   */\n      swap1\n      pop\n        /* \"#utility.yul\":2487:2558   */\n      tag_340\n        /* \"#utility.yul\":2555:2556   */\n      0x00\n        /* \"#utility.yul\":2544:2553   */\n      dup4\n        /* \"#utility.yul\":2540:2557   */\n      add\n        /* \"#utility.yul\":2531:2537   */\n      dup5\n        /* \"#utility.yul\":2487:2558   */\n      tag_296\n      jump\t// in\n    tag_340:\n        /* \"#utility.yul\":2343:2565   */\n      swap3\n      swap2\n      pop\n      pop\n      jump\t// out\n        /* \"#utility.yul\":2571:3045   */\n    tag_73:\n        /* \"#utility.yul\":2639:2645   */\n      0x00\n        /* \"#utility.yul\":2647:2653   */\n      dup1\n        /* \"#utility.yul\":2696:2698   */\n      0x40\n        /* \"#utility.yul\":2684:2693   */\n      dup4\n        /* \"#utility.yul\":2675:2682   */\n      dup6\n        /* \"#utility.yul\":2671:2694   */\n      sub\n        /* \"#utility.yul\":2667:2699   */\n      slt\n        /* \"#utility.yul\":2664:2783   */\n      iszero\n      tag_342\n      jumpi\n        /* \"#utility.yul\":2702:2781   */\n      tag_343\n      tag_288\n      jump\t// in\n    tag_343:\n        /* \"#utility.yul\":2664:2783   */\n    tag_342:\n        /* \"#utility.yul\":2822:2823   */\n      0x00\n        /* \"#utility.yul\":2847:2900   */\n      tag_344\n        /* \"#utility.yul\":2892:2899   */\n      dup6\n        /* \"#utility.yul\":2883:2889   */\n      dup3\n        /* \"#utility.yul\":2872:2881   */\n      dup7\n        /* \"#utility.yul\":2868:2890   */\n      add\n        /* \"#utility.yul\":2847:2900   */\n      tag_295\n      jump\t// in\n    tag_344:\n        /* \"#utility.yul\":2837:2900   */\n      swap3\n      pop\n        /* \"#utility.yul\":2793:2910   */\n      pop\n        /* \"#utility.yul\":2949:2951   */\n      0x20\n        /* \"#utility.yul\":2975:3028   */\n      tag_345\n        /* \"#utility.yul\":3020:3027   */\n      dup6\n        /* \"#utility.yul\":3011:3017   */\n      dup3\n        /* \"#utility.yul\":3000:3009   */\n      dup7\n        /* \"#utility.yul\":2996:3018   */\n      add\n        /* \"#utility.yul\":2975:3028   */\n      tag_295\n      jump\t// in\n    tag_345:\n        /* \"#utility.yul\":2965:3028   */\n      swap2\n      pop\n        /* \"#utility.yul\":2920:3038   */\n      pop\n        /* \"#utility.yul\":2571:3045   */\n      swap3\n      pop\n      swap3\n      swap1\n      pop\n      jump\t// out\n        /* \"#utility.yul\":3051:3141   */\n    tag_297:\n        /* \"#utility.yul\":3085:3092   */\n      0x00\n        /* \"#utility.yul\":3128:3133   */\n      dup2\n        /* \"#utility.yul\":3121:3134   */\n      iszero\n        /* \"#utility.yul\":3114:3135   */\n      iszero\n        /* \"#utility.yul\":3103:3135   */\n      swap1\n      pop\n        /* \"#utility.yul\":3051:3141   */\n      swap2\n      swap1\n      pop\n      jump\t// out\n        /* \"#utility.yul\":3147:3256   */\n    tag_298:\n        /* \"#utility.yul\":3228:3249   */\n      tag_348\n        /* \"#utility.yul\":3243:3248   */\n      dup2\n        /* \"#utility.yul\":3228:3249   */\n      tag_297\n      jump\t// in\n    tag_348:\n        /* \"#utility.yul\":3223:3226   */\n      dup3\n        /* \"#utility.yul\":3216:3250   */\n      mstore\n        /* \"#utility.yul\":3147:3256   */\n      pop\n      pop\n      jump\t// out\n        /* \"#utility.yul\":3262:3472   */\n    tag_84:\n        /* \"#utility.yul\":3349:3353   */\n      0x00\n        /* \"#utility.yul\":3387:3389   */\n      0x20\n        /* \"#utility.yul\":3376:3385   */\n      dup3\n        /* \"#utility.yul\":3372:3390   */\n      add\n        /* \"#utility.yul\":3364:3390   */\n      swap1\n      pop\n        /* \"#utility.yul\":3400:3465   */\n      tag_350\n        /* \"#utility.yul\":3462:3463   */\n      0x00\n        /* \"#utility.yul\":3451:3460   */\n      dup4\n        /* \"#utility.yul\":3447:3464   */\n      add\n        /* \"#utility.yul\":3438:3444   */\n      dup5\n        /* \"#utility.yul\":3400:3465   */\n      tag_298\n      jump\t// in\n    tag_350:\n        /* \"#utility.yul\":3262:3472   */\n      swap3\n      swap2\n      pop\n      pop\n      jump\t// out\n        /* \"#utility.yul\":3478:3538   */\n    tag_299:\n        /* \"#utility.yul\":3506:3509   */\n      0x00\n        /* \"#utility.yul\":3527:3532   */\n      dup2\n        /* \"#utility.yul\":3520:3532   */\n      swap1\n      pop\n        /* \"#utility.yul\":3478:3538   */\n      swap2\n      swap1\n      pop\n      jump\t// out\n        /* \"#utility.yul\":3544:3686   */\n    tag_300:\n        /* \"#utility.yul\":3594:3603   */\n      0x00\n        /* \"#utility.yul\":3627:3680   */\n      tag_353\n        /* \"#utility.yul\":3645:3679   */\n      tag_354\n        /* \"#utility.yul\":3654:3678   */\n      tag_355\n        /* \"#utility.yul\":3672:3677   */\n      dup5\n        /* \"#utility.yul\":3654:3678   */\n      tag_290\n      jump\t// in\n    tag_355:\n        /* \"#utility.yul\":3645:3679   */\n      tag_299\n      jump\t// in\n    tag_354:\n        /* \"#utility.yul\":3627:3680   */\n      tag_290\n      jump\t// in\n    tag_353:\n        /* \"#utility.yul\":3614:3680   */\n      swap1\n      pop\n        /* \"#utility.yul\":3544:3686   */\n      swap2\n      swap1\n      pop\n      jump\t// out\n        /* \"#utility.yul\":3692:3818   */\n    tag_301:\n        /* \"#utility.yul\":3742:3751   */\n      0x00\n        /* \"#utility.yul\":3775:3812   */\n      tag_357\n        /* \"#utility.yul\":3806:3811   */\n      dup3\n        /* \"#utility.yul\":3775:3812   */\n      tag_300\n      jump\t// in\n    tag_357:\n        /* \"#utility.yul\":3762:3812   */\n      swap1\n      pop\n        /* \"#utility.yul\":3692:3818   */\n      swap2\n      swap1\n      pop\n      jump\t// out\n        /* \"#utility.yul\":3824:3964   */\n    tag_302:\n        /* \"#utility.yul\":3888:3897   */\n      0x00\n        /* \"#utility.yul\":3921:3958   */\n      tag_359\n        /* \"#utility.yul\":3952:3957   */\n      dup3\n        /* \"#utility.yul\":3921:3958   */\n      tag_301\n      jump\t// in\n    tag_359:\n        /* \"#utility.yul\":3908:3958   */\n      swap1\n      pop\n        /* \"#utility.yul\":3824:3964   */\n      swap2\n      swap1\n      pop\n      jump\t// out\n        /* \"#utility.yul\":3970:4129   */\n    tag_303:\n        /* \"#utility.yul\":4071:4122   */\n      tag_361\n        /* \"#utility.yul\":4116:4121   */\n      dup2\n        /* \"#utility.yul\":4071:4122   */\n      tag_302\n      jump\t// in\n    tag_361:\n        /* \"#utility.yul\":4066:4069   */\n      dup3\n        /* \"#utility.yul\":4059:4123   */\n      mstore\n        /* \"#utility.yul\":3970:4129   */\n      pop\n      pop\n      jump\t// out\n        /* \"#utility.yul\":4135:4385   */\n    tag_89:\n        /* \"#utility.yul\":4242:4246   */\n      0x00\n        /* \"#utility.yul\":4280:4282   */\n      0x20\n        /* \"#utility.yul\":4269:4278   */\n      dup3\n        /* \"#utility.yul\":4265:4283   */\n      add\n        /* \"#utility.yul\":4257:4283   */\n      swap1\n      pop\n        /* \"#utility.yul\":4293:4378   */\n      tag_363\n        /* \"#utility.yul\":4375:4376   */\n      0x00\n        /* \"#utility.yul\":4364:4373   */\n      dup4\n        /* \"#utility.yul\":4360:4377   */\n      add\n        /* \"#utility.yul\":4351:4357   */\n      dup5\n        /* \"#utility.yul\":4293:4378   */\n      tag_303\n      jump\t// in\n    tag_363:\n        /* \"#utility.yul\":4135:4385   */\n      swap3\n      swap2\n      pop\n      pop\n      jump\t// out\n        /* \"#utility.yul\":4391:4571   */\n    tag_304:\n        /* \"#utility.yul\":4439:4516   */\n      0x4e487b7100000000000000000000000000000000000000000000000000000000\n        /* \"#utility.yul\":4436:4437   */\n      0x00\n        /* \"#utility.yul\":4429:4517   */\n      mstore\n        /* \"#utility.yul\":4536:4540   */\n      0x11\n        /* \"#utility.yul\":4533:4534   */\n      0x04\n        /* \"#utility.yul\":4526:4541   */\n      mstore\n        /* \"#utility.yul\":4560:4564   */\n      0x24\n        /* \"#utility.yul\":4557:4558   */\n      0x00\n        /* \"#utility.yul\":4550:4565   */\n      revert\n        /* \"#utility.yul\":4577:4768   */\n    tag_141:\n        /* \"#utility.yul\":4617:4620   */\n      0x00\n        /* \"#utility.yul\":4636:4656   */\n      tag_366\n        /* \"#utility.yul\":4654:4655   */\n      dup3\n        /* \"#utility.yul\":4636:4656   */\n      tag_285\n      jump\t// in\n    tag_366:\n        /* \"#utility.yul\":4631:4656   */\n      swap2\n      pop\n        /* \"#utility.yul\":4670:4690   */\n      tag_367\n        /* \"#utility.yul\":4688:4689   */\n      dup4\n        /* \"#utility.yul\":4670:4690   */\n      tag_285\n      jump\t// in\n    tag_367:\n        /* \"#utility.yul\":4665:4690   */\n      swap3\n      pop\n        /* \"#utility.yul\":4713:4714   */\n      dup3\n        /* \"#utility.yul\":4710:4711   */\n      dup3\n        /* \"#utility.yul\":4706:4715   */\n      add\n        /* \"#utility.yul\":4699:4715   */\n      swap1\n      pop\n        /* \"#utility.yul\":4734:4737   */\n      dup1\n        /* \"#utility.yul\":4731:4732   */\n      dup3\n        /* \"#utility.yul\":4728:4738   */\n      gt\n        /* \"#utility.yul\":4725:4761   */\n      iszero\n      tag_368\n      jumpi\n        /* \"#utility.yul\":4741:4759   */\n      tag_369\n      tag_304\n      jump\t// in\n    tag_369:\n        /* \"#utility.yul\":4725:4761   */\n    tag_368:\n        /* \"#utility.yul\":4577:4768   */\n      swap3\n      swap2\n      pop\n      pop\n      jump\t// out\n        /* \"#utility.yul\":4774:5106   */\n    tag_144:\n        /* \"#utility.yul\":4895:4899   */\n      0x00\n        /* \"#utility.yul\":4933:4935   */\n      0x40\n        /* \"#utility.yul\":4922:4931   */\n      dup3\n        /* \"#utility.yul\":4918:4936   */\n      add\n        /* \"#utility.yul\":4910:4936   */\n      swap1\n      pop\n        /* \"#utility.yul\":4946:5017   */\n      tag_371\n        /* \"#utility.yul\":5014:5015   */\n      0x00\n        /* \"#utility.yul\":5003:5012   */\n      dup4\n        /* \"#utility.yul\":4999:5016   */\n      add\n        /* \"#utility.yul\":4990:4996   */\n      dup6\n        /* \"#utility.yul\":4946:5017   */\n      tag_296\n      jump\t// in\n    tag_371:\n        /* \"#utility.yul\":5027:5099   */\n      tag_372\n        /* \"#utility.yul\":5095:5097   */\n      0x20\n        /* \"#utility.yul\":5084:5093   */\n      dup4\n        /* \"#utility.yul\":5080:5098   */\n      add\n        /* \"#utility.yul\":5071:5077   */\n      dup5\n        /* \"#utility.yul\":5027:5099   */\n      tag_296\n      jump\t// in\n    tag_372:\n        /* \"#utility.yul\":4774:5106   */\n      swap4\n      swap3\n      pop\n      pop\n      pop\n      jump\t// out\n        /* \"#utility.yul\":5112:5255   */\n    tag_305:\n        /* \"#utility.yul\":5169:5174   */\n      0x00\n        /* \"#utility.yul\":5200:5206   */\n      dup2\n        /* \"#utility.yul\":5194:5207   */\n      mload\n        /* \"#utility.yul\":5185:5207   */\n      swap1\n      pop\n        /* \"#utility.yul\":5216:5249   */\n      tag_374\n        /* \"#utility.yul\":5243:5248   */\n      dup2\n        /* \"#utility.yul\":5216:5249   */\n      tag_294\n      jump\t// in\n    tag_374:\n        /* \"#utility.yul\":5112:5255   */\n      swap3\n      swap2\n      pop\n      pop\n      jump\t// out\n        /* \"#utility.yul\":5261:5612   */\n    tag_148:\n        /* \"#utility.yul\":5331:5337   */\n      0x00\n        /* \"#utility.yul\":5380:5382   */\n      0x20\n        /* \"#utility.yul\":5368:5377   */\n      dup3\n        /* \"#utility.yul\":5359:5366   */\n      dup5\n        /* \"#utility.yul\":5355:5378   */\n      sub\n        /* \"#utility.yul\":5351:5383   */\n      slt\n        /* \"#utility.yul\":5348:5467   */\n      iszero\n      tag_376\n      jumpi\n        /* \"#utility.yul\":5386:5465   */\n      tag_377\n      tag_288\n      jump\t// in\n    tag_377:\n        /* \"#utility.yul\":5348:5467   */\n    tag_376:\n        /* \"#utility.yul\":5506:5507   */\n      0x00\n        /* \"#utility.yul\":5531:5595   */\n      tag_378\n        /* \"#utility.yul\":5587:5594   */\n      dup5\n        /* \"#utility.yul\":5578:5584   */\n      dup3\n        /* \"#utility.yul\":5567:5576   */\n      dup6\n        /* \"#utility.yul\":5563:5585   */\n      add\n        /* \"#utility.yul\":5531:5595   */\n      tag_305\n      jump\t// in\n    tag_378:\n        /* \"#utility.yul\":5521:5595   */\n      swap2\n      pop\n        /* \"#utility.yul\":5477:5605   */\n      pop\n        /* \"#utility.yul\":5261:5612   */\n      swap3\n      swap2\n      pop\n      pop\n      jump\t// out\n        /* \"#utility.yul\":5618:5812   */\n    tag_242:\n        /* \"#utility.yul\":5658:5662   */\n      0x00\n        /* \"#utility.yul\":5678:5698   */\n      tag_380\n        /* \"#utility.yul\":5696:5697   */\n      dup3\n        /* \"#utility.yul\":5678:5698   */\n      tag_285\n      jump\t// in\n    tag_380:\n        /* \"#utility.yul\":5673:5698   */\n      swap2\n      pop\n        /* \"#utility.yul\":5712:5732   */\n      tag_381\n        /* \"#utility.yul\":5730:5731   */\n      dup4\n        /* \"#utility.yul\":5712:5732   */\n      tag_285\n      jump\t// in\n    tag_381:\n        /* \"#utility.yul\":5707:5732   */\n      swap3\n      pop\n        /* \"#utility.yul\":5756:5757   */\n      dup3\n        /* \"#utility.yul\":5753:5754   */\n      dup3\n        /* \"#utility.yul\":5749:5758   */\n      sub\n        /* \"#utility.yul\":5741:5758   */\n      swap1\n      pop\n        /* \"#utility.yul\":5780:5781   */\n      dup2\n        /* \"#utility.yul\":5774:5778   */\n      dup2\n        /* \"#utility.yul\":5771:5782   */\n      gt\n        /* \"#utility.yul\":5768:5805   */\n      iszero\n      tag_382\n      jumpi\n        /* \"#utility.yul\":5785:5803   */\n      tag_383\n      tag_304\n      jump\t// in\n    tag_383:\n        /* \"#utility.yul\":5768:5805   */\n    tag_382:\n        /* \"#utility.yul\":5618:5812   */\n      swap3\n      swap2\n      pop\n      pop\n      jump\t// out\n        /* \"#utility.yul\":5818:6228   */\n    tag_259:\n        /* \"#utility.yul\":5858:5865   */\n      0x00\n        /* \"#utility.yul\":5881:5901   */\n      tag_385\n        /* \"#utility.yul\":5899:5900   */\n      dup3\n        /* \"#utility.yul\":5881:5901   */\n      tag_285\n      jump\t// in\n    tag_385:\n        /* \"#utility.yul\":5876:5901   */\n      swap2\n      pop\n        /* \"#utility.yul\":5915:5935   */\n      tag_386\n        /* \"#utility.yul\":5933:5934   */\n      dup4\n        /* \"#utility.yul\":5915:5935   */\n      tag_285\n      jump\t// in\n    tag_386:\n        /* \"#utility.yul\":5910:5935   */\n      swap3\n      pop\n        /* \"#utility.yul\":5970:5971   */\n      dup3\n        /* \"#utility.yul\":5967:5968   */\n      dup3\n        /* \"#utility.yul\":5963:5972   */\n      mul\n        /* \"#utility.yul\":5992:6022   */\n      tag_387\n        /* \"#utility.yul\":6010:6021   */\n      dup2\n        /* \"#utility.yul\":5992:6022   */\n      tag_285\n      jump\t// in\n    tag_387:\n        /* \"#utility.yul\":5981:6022   */\n      swap2\n      pop\n        /* \"#utility.yul\":6171:6172   */\n      dup3\n        /* \"#utility.yul\":6162:6169   */\n      dup3\n        /* \"#utility.yul\":6158:6173   */\n      div\n        /* \"#utility.yul\":6155:6156   */\n      dup5\n        /* \"#utility.yul\":6152:6174   */\n      eq\n        /* \"#utility.yul\":6132:6133   */\n      dup4\n        /* \"#utility.yul\":6125:6134   */\n      iszero\n        /* \"#utility.yul\":6105:6188   */\n      or\n        /* \"#utility.yul\":6082:6221   */\n      tag_388\n      jumpi\n        /* \"#utility.yul\":6201:6219   */\n      tag_389\n      tag_304\n      jump\t// in\n    tag_389:\n        /* \"#utility.yul\":6082:6221   */\n    tag_388:\n        /* \"#utility.yul\":5866:6228   */\n      pop\n        /* \"#utility.yul\":5818:6228   */\n      swap3\n      swap2\n      pop\n      pop\n      jump\t// out\n        /* \"#utility.yul\":6234:6414   */\n    tag_306:\n        /* \"#utility.yul\":6282:6359   */\n      0x4e487b7100000000000000000000000000000000000000000000000000000000\n        /* \"#utility.yul\":6279:6280   */\n      0x00\n        /* \"#utility.yul\":6272:6360   */\n      mstore\n        /* \"#utility.yul\":6379:6383   */\n      0x12\n        /* \"#utility.yul\":6376:6377   */\n      0x04\n        /* \"#utility.yul\":6369:6384   */\n      mstore\n        /* \"#utility.yul\":6403:6407   */\n      0x24\n        /* \"#utility.yul\":6400:6401   */\n      0x00\n        /* \"#utility.yul\":6393:6408   */\n      revert\n        /* \"#utility.yul\":6420:6605   */\n    tag_267:\n        /* \"#utility.yul\":6460:6461   */\n      0x00\n        /* \"#utility.yul\":6477:6497   */\n      tag_392\n        /* \"#utility.yul\":6495:6496   */\n      dup3\n        /* \"#utility.yul\":6477:6497   */\n      tag_285\n      jump\t// in\n    tag_392:\n        /* \"#utility.yul\":6472:6497   */\n      swap2\n      pop\n        /* \"#utility.yul\":6511:6531   */\n      tag_393\n        /* \"#utility.yul\":6529:6530   */\n      dup4\n        /* \"#utility.yul\":6511:6531   */\n      tag_285\n      jump\t// in\n    tag_393:\n        /* \"#utility.yul\":6506:6531   */\n      swap3\n      pop\n        /* \"#utility.yul\":6550:6551   */\n      dup3\n        /* \"#utility.yul\":6540:6575   */\n      tag_394\n      jumpi\n        /* \"#utility.yul\":6555:6573   */\n      tag_395\n      tag_306\n      jump\t// in\n    tag_395:\n        /* \"#utility.yul\":6540:6575   */\n    tag_394:\n        /* \"#utility.yul\":6597:6598   */\n      dup3\n        /* \"#utility.yul\":6594:6595   */\n      dup3\n        /* \"#utility.yul\":6590:6599   */\n      div\n        /* \"#utility.yul\":6585:6599   */\n      swap1\n      pop\n        /* \"#utility.yul\":6420:6605   */\n      swap3\n      swap2\n      pop\n      pop\n      jump\t// out\n        /* \"#utility.yul\":6611:6791   */\n    tag_275:\n        /* \"#utility.yul\":6659:6736   */\n      0x4e487b7100000000000000000000000000000000000000000000000000000000\n        /* \"#utility.yul\":6656:6657   */\n      0x00\n        /* \"#utility.yul\":6649:6737   */\n      mstore\n        /* \"#utility.yul\":6756:6760   */\n      0x32\n        /* \"#utility.yul\":6753:6754   */\n      0x04\n        /* \"#utility.yul\":6746:6761   */\n      mstore\n        /* \"#utility.yul\":6780:6784   */\n      0x24\n        /* \"#utility.yul\":6777:6778   */\n      0x00\n        /* \"#utility.yul\":6770:6785   */\n      revert\n\n    auxdata: 0xa26469706673582212203e91c8628df0b0042b5ca841c3ae7d6db5205269bf9a6e05c3e40c1d536994d564736f6c63430008180033\n}\n",
				"bytecode": {
					"linkReferences": {},
					"object": "60806040526201518060035562107ac060055561271060065561138860075560036008555f60095f6101000a81548160ff021916908315150217905550348015610047575f80fd5b50335f806101000a81548173ffffffffffffffffffffffffffffffffffffffff021916908373ffffffffffffffffffffffffffffffffffffffff16021790555033600960016101000a81548173ffffffffffffffffffffffffffffffffffffffff021916908373ffffffffffffffffffffffffffffffffffffffff160217905550611b74806100d55f395ff3fe608060405260043610610134575f3560e01c80638da5cb5b116100aa578063e5d782fc1161006e578063e5d782fc146103fa578063e953f98214610416578063eaca243b14610452578063f2e809e01461047a578063f2fde38b146104a2578063feeea92e146104ca57610134565b80638da5cb5b146103045780638f32d59b1461032e57806397d7577614610358578063b18a2f8214610382578063c2a6856f146103be57610134565b8063450c9d7d116100fc578063450c9d7d146101d45780634addc0e8146102105780634b634b061461023a57806353e3323b14610276578063715018a6146102b25780637a571ae1146102c857610134565b8063012d754c1461013857806312065fe01461014e57806323084e5f146101785780632cf4f2741461018e5780633c5f07cb146101ca575b5f80fd5b348015610143575f80fd5b5061014c6104f2565b005b348015610159575f80fd5b5061016261067b565b60405161016f9190611776565b60405180910390f35b348015610183575f80fd5b5061018c610682565b005b348015610199575f80fd5b506101b460048036038101906101af91906117ed565b6107f4565b6040516101c19190611776565b60405180910390f35b6101d261084b565b005b3480156101df575f80fd5b506101fa60048036038101906101f591906117ed565b610890565b6040516102079190611776565b60405180910390f35b34801561021b575f80fd5b506102246108b3565b6040516102319190611776565b60405180910390f35b348015610245575f80fd5b50610260600480360381019061025b91906117ed565b6108b9565b60405161026d9190611776565b60405180910390f35b348015610281575f80fd5b5061029c60048036038101906102979190611842565b6108ff565b6040516102a9919061187c565b60405180910390f35b3480156102bd575f80fd5b506102c661093a565b005b3480156102d3575f80fd5b506102ee60048036038101906102e99190611895565b6109ed565b6040516102fb9190611776565b60405180910390f35b34801561030f575f80fd5b50610318610a03565b604051610325919061187c565b60405180910390f35b348015610339575f80fd5b50610342610a2a565b60405161034f91906118ed565b60405180910390f35b348015610363575f80fd5b5061036c610a7f565b6040516103799190611961565b60405180910390f35b34801561038d575f80fd5b506103a860048036038101906103a39190611842565b610aa4565b6040516103b59190611776565b60405180910390f35b3480156103c9575f80fd5b506103e460048036038101906103df91906117ed565b610ab9565b6040516103f19190611776565b60405180910390f35b610414600480360381019061040f91906117ed565b610b5e565b005b348015610421575f80fd5b5061043c60048036038101906104379190611842565b610d8f565b6040516104499190611776565b60405180910390f35b34801561045d575f80fd5b5061047860048036038101906104739190611842565b610da1565b005b348015610485575f80fd5b506104a0600480360381019061049b91906117ed565b610dbb565b005b3480156104ad575f80fd5b506104c860048036038101906104c391906117ed565b610ed5565b005b3480156104d5575f80fd5b506104f060048036038101906104eb91906117ed565b610ef1565b005b60095f9054906101000a900460ff16610509575f80fd5b5f610513336107f4565b90505f61051f82610aa4565b90505f61052b82611301565b90505f600b5f3373ffffffffffffffffffffffffffffffffffffffff1673ffffffffffffffffffffffffffffffffffffffff1681526020019081526020015f208190555042600c5f3373ffffffffffffffffffffffffffffffffffffffff1673ffffffffffffffffffffffffffffffffffffffff1681526020019081526020015f20819055506105bd600e548461131f565b600e81905550600960019054906101000a900473ffffffffffffffffffffffffffffffffffffffff1673ffffffffffffffffffffffffffffffffffffffff166108fc8290811502906040515f60405180830381858888f19350505050158015610628573d5f803e3d5ffd5b503373ffffffffffffffffffffffffffffffffffffffff166108fc61064d8484611334565b90811502906040515f60405180830381858888f19350505050158015610675573d5f803e3d5ffd5b50505050565b5f47905090565b5f3390505f60025f8373ffffffffffffffffffffffffffffffffffffffff1673ffffffffffffffffffffffffffffffffffffffff1681526020019081526020015f2054905042600354826106d691906119a7565b10156106e35750506107f2565b4260025f8473ffffffffffffffffffffffffffffffffffffffff1673ffffffffffffffffffffffffffffffffffffffff1681526020019081526020015f20819055505f60015f9054906101000a900473ffffffffffffffffffffffffffffffffffffffff1673ffffffffffffffffffffffffffffffffffffffff1663954fa5ee30856040518363ffffffff1660e01b81526004016107829291906119da565b6020604051808303815f875af115801561079e573d5f803e3d5ffd5b505050506040513d601f19601f820116820180604052508101906107c29190611a15565b90505f8111156107ee578060045f8282546107dd91906119a7565b925050819055506107ed81611349565b5b5050505b565b5f610844600b5f8473ffffffffffffffffffffffffffffffffffffffff1673ffffffffffffffffffffffffffffffffffffffff1681526020019081526020015f205461083f84610ab9565b61131f565b9050919050565b610853610a2a565b61085b575f80fd5b5f600e5414610868575f80fd5b600160095f6101000a81548160ff0219169083151502179055506419254d3800600e81905550565b5f8061089b836107f4565b90505f6108a782610aa4565b90508092505050919050565b60035481565b5f600a5f8373ffffffffffffffffffffffffffffffffffffffff1673ffffffffffffffffffffffffffffffffffffffff1681526020019081526020015f20549050919050565b600f818154811061090e575f80fd5b905f5260205f20015f915054906101000a900473ffffffffffffffffffffffffffffffffffffffff1681565b610942610a2a565b61094a575f80fd5b5f8054906101000a900473ffffffffffffffffffffffffffffffffffffffff1673ffffffffffffffffffffffffffffffffffffffff167ff8df31144d9c2f0f6b59d69b8b98abd5459d07f2742c4df920b25aae33c6482060405160405180910390a25f805f6101000a81548173ffffffffffffffffffffffffffffffffffffffff021916908373ffffffffffffffffffffffffffffffffffffffff160217905550565b5f6109fb8383600e54611355565b905092915050565b5f805f9054906101000a900473ffffffffffffffffffffffffffffffffffffffff16905090565b5f805f9054906101000a900473ffffffffffffffffffffffffffffffffffffffff1673ffffffffffffffffffffffffffffffffffffffff163373ffffffffffffffffffffffffffffffffffffffff1614905090565b60015f9054906101000a900473ffffffffffffffffffffffffffffffffffffffff1681565b5f610ab282600e5447611355565b9050919050565b5f80610b0d600554610b0842600c5f8873ffffffffffffffffffffffffffffffffffffffff1673ffffffffffffffffffffffffffffffffffffffff1681526020019081526020015f2054611334565b6113a7565b9050610b5681600a5f8673ffffffffffffffffffffffffffffffffffffffff1673ffffffffffffffffffffffffffffffffffffffff1681526020019081526020015f20546113bf565b915050919050565b60095f9054906101000a900460ff16610b75575f80fd5b5f3390505f610b8d34610b884734611334565b6109ed565b9050610ba181610b9c83611301565b611334565b90505f610bad34611301565b9050600960019054906101000a900473ffffffffffffffffffffffffffffffffffffffff1673ffffffffffffffffffffffffffffffffffffffff166108fc8290811502906040515f60405180830381858888f19350505050158015610c14573d5f803e3d5ffd5b50610c6583610c60600b5f8773ffffffffffffffffffffffffffffffffffffffff1673ffffffffffffffffffffffffffffffffffffffff1681526020019081526020015f20548561131f565b6113d4565b610c6e84610ef1565b6706f05b59d3b200003410610d89576001151560115f8573ffffffffffffffffffffffffffffffffffffffff1673ffffffffffffffffffffffffffffffffffffffff1681526020019081526020015f205f9054906101000a900460ff16151514610d8857600160115f8573ffffffffffffffffffffffffffffffffffffffff1673ffffffffffffffffffffffffffffffffffffffff1681526020019081526020015f205f6101000a81548160ff021916908315150217905550600f83908060018154018082558091505060019003905f5260205f20015f9091909190916101000a81548173ffffffffffffffffffffffffffffffffffffffff021916908373ffffffffffffffffffffffffffffffffffffffff1602179055505b5b50505050565b5f610d9a82476109ed565b9050919050565b610da9610a2a565b610db1575f80fd5b8060038190555050565b610dc3610a2a565b610dcb575f80fd5b5f73ffffffffffffffffffffffffffffffffffffffff168173ffffffffffffffffffffffffffffffffffffffff1603610e165773430000000000000000000000000000000000000290505b8060015f6101000a81548173ffffffffffffffffffffffffffffffffffffffff021916908373ffffffffffffffffffffffffffffffffffffffff16021790555060015f9054906101000a900473ffffffffffffffffffffffffffffffffffffffff1673ffffffffffffffffffffffffffffffffffffffff16634e606c476040518163ffffffff1660e01b81526004015f604051808303815f87803b158015610ebc575f80fd5b505af1158015610ece573d5f803e3d5ffd5b5050505050565b610edd610a2a565b610ee5575f80fd5b610eee81611525565b50565b60095f9054906101000a900460ff16610f08575f80fd5b3373ffffffffffffffffffffffffffffffffffffffff168173ffffffffffffffffffffffffffffffffffffffff1603610f3f575f90505b5f73ffffffffffffffffffffffffffffffffffffffff16600d5f3373ffffffffffffffffffffffffffffffffffffffff1673ffffffffffffffffffffffffffffffffffffffff1681526020019081526020015f205f9054906101000a900473ffffffffffffffffffffffffffffffffffffffff1673ffffffffffffffffffffffffffffffffffffffff1614801561105e57503373ffffffffffffffffffffffffffffffffffffffff16600d5f3373ffffffffffffffffffffffffffffffffffffffff1673ffffffffffffffffffffffffffffffffffffffff1681526020019081526020015f205f9054906101000a900473ffffffffffffffffffffffffffffffffffffffff1673ffffffffffffffffffffffffffffffffffffffff1614155b156110df5780600d5f3373ffffffffffffffffffffffffffffffffffffffff1673ffffffffffffffffffffffffffffffffffffffff1681526020019081526020015f205f6101000a81548173ffffffffffffffffffffffffffffffffffffffff021916908373ffffffffffffffffffffffffffffffffffffffff1602179055505b5f6110e9336107f4565b90505f6110f882600554611617565b9050611141600a5f3373ffffffffffffffffffffffffffffffffffffffff1673ffffffffffffffffffffffffffffffffffffffff1681526020019081526020015f20548261131f565b600a5f3373ffffffffffffffffffffffffffffffffffffffff1673ffffffffffffffffffffffffffffffffffffffff1681526020019081526020015f208190555061118c335f6113d4565b42600c5f3373ffffffffffffffffffffffffffffffffffffffff1673ffffffffffffffffffffffffffffffffffffffff1681526020019081526020015f20819055506112e0600d5f3373ffffffffffffffffffffffffffffffffffffffff1673ffffffffffffffffffffffffffffffffffffffff1681526020019081526020015f205f9054906101000a900473ffffffffffffffffffffffffffffffffffffffff166112db600b5f600d5f3373ffffffffffffffffffffffffffffffffffffffff1673ffffffffffffffffffffffffffffffffffffffff1681526020019081526020015f205f9054906101000a900473ffffffffffffffffffffffffffffffffffffffff1673ffffffffffffffffffffffffffffffffffffffff1673ffffffffffffffffffffffffffffffffffffffff1681526020019081526020015f20546112d6866008611617565b61131f565b6113d4565b6112f6600e546112f1846005611617565b61131f565b600e81905550505050565b5f611318611311836008546113bf565b6064611617565b9050919050565b5f818361132c91906119a7565b905092915050565b5f81836113419190611a40565b905092915050565b6113528161162c565b50565b5f61139e611365600654846113bf565b61139960075461139461138e61137d6006548a6113bf565b6113896007548c6113bf565b61131f565b89611617565b61131f565b611617565b90509392505050565b5f8183106113b557816113b7565b825b905092915050565b5f81836113cc9190611a73565b905092915050565b6001151560105f8473ffffffffffffffffffffffffffffffffffffffff1673ffffffffffffffffffffffffffffffffffffffff1681526020019081526020015f205f9054906101000a900460ff161515146114df57601282908060018154018082558091505060019003905f5260205f20015f9091909190916101000a81548173ffffffffffffffffffffffffffffffffffffffff021916908373ffffffffffffffffffffffffffffffffffffffff160217905550600160105f8473ffffffffffffffffffffffffffffffffffffffff1673ffffffffffffffffffffffffffffffffffffffff1681526020019081526020015f205f6101000a81548160ff0219169083151502179055505b80600b5f8473ffffffffffffffffffffffffffffffffffffffff1673ffffffffffffffffffffffffffffffffffffffff1681526020019081526020015f20819055505050565b5f73ffffffffffffffffffffffffffffffffffffffff168173ffffffffffffffffffffffffffffffffffffffff160361155c575f80fd5b8073ffffffffffffffffffffffffffffffffffffffff165f8054906101000a900473ffffffffffffffffffffffffffffffffffffffff1673ffffffffffffffffffffffffffffffffffffffff167f8be0079c531659141344cd1fd0a4f28419497f9722a3daafe3b4186f6b6457e060405160405180910390a3805f806101000a81548173ffffffffffffffffffffffffffffffffffffffff021916908373ffffffffffffffffffffffffffffffffffffffff16021790555050565b5f81836116249190611ae1565b905092915050565b5f81111561170e575f805f5b60128054905081101561170a576012818154811061165957611658611b11565b5b905f5260205f20015f9054906101000a900473ffffffffffffffffffffffffffffffffffffffff1692506116e7600e546116d9600b5f8773ffffffffffffffffffffffffffffffffffffffff1673ffffffffffffffffffffffffffffffffffffffff1681526020019081526020015f2054876113bf90919063ffffffff16565b61161790919063ffffffff16565b91505f8211156116fd576116fb8383611711565b505b8080600101915050611638565b5050505b50565b5f8273ffffffffffffffffffffffffffffffffffffffff166108fc8390811502906040515f60405180830381858888f19350505050156117545760019050611758565b5f90505b92915050565b5f819050919050565b6117708161175e565b82525050565b5f6020820190506117895f830184611767565b92915050565b5f80fd5b5f73ffffffffffffffffffffffffffffffffffffffff82169050919050565b5f6117bc82611793565b9050919050565b6117cc816117b2565b81146117d6575f80fd5b50565b5f813590506117e7816117c3565b92915050565b5f602082840312156118025761180161178f565b5b5f61180f848285016117d9565b91505092915050565b6118218161175e565b811461182b575f80fd5b50565b5f8135905061183c81611818565b92915050565b5f602082840312156118575761185661178f565b5b5f6118648482850161182e565b91505092915050565b611876816117b2565b82525050565b5f60208201905061188f5f83018461186d565b92915050565b5f80604083850312156118ab576118aa61178f565b5b5f6118b88582860161182e565b92505060206118c98582860161182e565b9150509250929050565b5f8115159050919050565b6118e7816118d3565b82525050565b5f6020820190506119005f8301846118de565b92915050565b5f819050919050565b5f61192961192461191f84611793565b611906565b611793565b9050919050565b5f61193a8261190f565b9050919050565b5f61194b82611930565b9050919050565b61195b81611941565b82525050565b5f6020820190506119745f830184611952565b92915050565b7f4e487b71000000000000000000000000000000000000000000000000000000005f52601160045260245ffd5b5f6119b18261175e565b91506119bc8361175e565b92508282019050808211156119d4576119d361197a565b5b92915050565b5f6040820190506119ed5f83018561186d565b6119fa602083018461186d565b9392505050565b5f81519050611a0f81611818565b92915050565b5f60208284031215611a2a57611a2961178f565b5b5f611a3784828501611a01565b91505092915050565b5f611a4a8261175e565b9150611a558361175e565b9250828203905081811115611a6d57611a6c61197a565b5b92915050565b5f611a7d8261175e565b9150611a888361175e565b9250828202611a968161175e565b91508282048414831517611aad57611aac61197a565b5b5092915050565b7f4e487b71000000000000000000000000000000000000000000000000000000005f52601260045260245ffd5b5f611aeb8261175e565b9150611af68361175e565b925082611b0657611b05611ab4565b5b828204905092915050565b7f4e487b71000000000000000000000000000000000000000000000000000000005f52603260045260245ffdfea26469706673582212203e91c8628df0b0042b5ca841c3ae7d6db5205269bf9a6e05c3e40c1d536994d564736f6c63430008180033",
					"opcodes": "PUSH1 0x80 PUSH1 0x40 MSTORE PUSH3 0x15180 PUSH1 0x3 SSTORE PUSH3 0x107AC0 PUSH1 0x5 SSTORE PUSH2 0x2710 PUSH1 0x6 SSTORE PUSH2 0x1388 PUSH1 0x7 SSTORE PUSH1 0x3 PUSH1 0x8 SSTORE PUSH0 PUSH1 0x9 PUSH0 PUSH2 0x100 EXP DUP2 SLOAD DUP2 PUSH1 0xFF MUL NOT AND SWAP1 DUP4 ISZERO ISZERO MUL OR SWAP1 SSTORE POP CALLVALUE DUP1 ISZERO PUSH2 0x47 JUMPI PUSH0 DUP1 REVERT JUMPDEST POP CALLER PUSH0 DUP1 PUSH2 0x100 EXP DUP2 SLOAD DUP2 PUSH20 0xFFFFFFFFFFFFFFFFFFFFFFFFFFFFFFFFFFFFFFFF MUL NOT AND SWAP1 DUP4 PUSH20 0xFFFFFFFFFFFFFFFFFFFFFFFFFFFFFFFFFFFFFFFF AND MUL OR SWAP1 SSTORE POP CALLER PUSH1 0x9 PUSH1 0x1 PUSH2 0x100 EXP DUP2 SLOAD DUP2 PUSH20 0xFFFFFFFFFFFFFFFFFFFFFFFFFFFFFFFFFFFFFFFF MUL NOT AND SWAP1 DUP4 PUSH20 0xFFFFFFFFFFFFFFFFFFFFFFFFFFFFFFFFFFFFFFFF AND MUL OR SWAP1 SSTORE POP PUSH2 0x1B74 DUP1 PUSH2 0xD5 PUSH0 CODECOPY PUSH0 RETURN INVALID PUSH1 0x80 PUSH1 0x40 MSTORE PUSH1 0x4 CALLDATASIZE LT PUSH2 0x134 JUMPI PUSH0 CALLDATALOAD PUSH1 0xE0 SHR DUP1 PUSH4 0x8DA5CB5B GT PUSH2 0xAA JUMPI DUP1 PUSH4 0xE5D782FC GT PUSH2 0x6E JUMPI DUP1 PUSH4 0xE5D782FC EQ PUSH2 0x3FA JUMPI DUP1 PUSH4 0xE953F982 EQ PUSH2 0x416 JUMPI DUP1 PUSH4 0xEACA243B EQ PUSH2 0x452 JUMPI DUP1 PUSH4 0xF2E809E0 EQ PUSH2 0x47A JUMPI DUP1 PUSH4 0xF2FDE38B EQ PUSH2 0x4A2 JUMPI DUP1 PUSH4 0xFEEEA92E EQ PUSH2 0x4CA JUMPI PUSH2 0x134 JUMP JUMPDEST DUP1 PUSH4 0x8DA5CB5B EQ PUSH2 0x304 JUMPI DUP1 PUSH4 0x8F32D59B EQ PUSH2 0x32E JUMPI DUP1 PUSH4 0x97D75776 EQ PUSH2 0x358 JUMPI DUP1 PUSH4 0xB18A2F82 EQ PUSH2 0x382 JUMPI DUP1 PUSH4 0xC2A6856F EQ PUSH2 0x3BE JUMPI PUSH2 0x134 JUMP JUMPDEST DUP1 PUSH4 0x450C9D7D GT PUSH2 0xFC JUMPI DUP1 PUSH4 0x450C9D7D EQ PUSH2 0x1D4 JUMPI DUP1 PUSH4 0x4ADDC0E8 EQ PUSH2 0x210 JUMPI DUP1 PUSH4 0x4B634B06 EQ PUSH2 0x23A JUMPI DUP1 PUSH4 0x53E3323B EQ PUSH2 0x276 JUMPI DUP1 PUSH4 0x715018A6 EQ PUSH2 0x2B2 JUMPI DUP1 PUSH4 0x7A571AE1 EQ PUSH2 0x2C8 JUMPI PUSH2 0x134 JUMP JUMPDEST DUP1 PUSH4 0x12D754C EQ PUSH2 0x138 JUMPI DUP1 PUSH4 0x12065FE0 EQ PUSH2 0x14E JUMPI DUP1 PUSH4 0x23084E5F EQ PUSH2 0x178 JUMPI DUP1 PUSH4 0x2CF4F274 EQ PUSH2 0x18E JUMPI DUP1 PUSH4 0x3C5F07CB EQ PUSH2 0x1CA JUMPI JUMPDEST PUSH0 DUP1 REVERT JUMPDEST CALLVALUE DUP1 ISZERO PUSH2 0x143 JUMPI PUSH0 DUP1 REVERT JUMPDEST POP PUSH2 0x14C PUSH2 0x4F2 JUMP JUMPDEST STOP JUMPDEST CALLVALUE DUP1 ISZERO PUSH2 0x159 JUMPI PUSH0 DUP1 REVERT JUMPDEST POP PUSH2 0x162 PUSH2 0x67B JUMP JUMPDEST PUSH1 0x40 MLOAD PUSH2 0x16F SWAP2 SWAP1 PUSH2 0x1776 JUMP JUMPDEST PUSH1 0x40 MLOAD DUP1 SWAP2 SUB SWAP1 RETURN JUMPDEST CALLVALUE DUP1 ISZERO PUSH2 0x183 JUMPI PUSH0 DUP1 REVERT JUMPDEST POP PUSH2 0x18C PUSH2 0x682 JUMP JUMPDEST STOP JUMPDEST CALLVALUE DUP1 ISZERO PUSH2 0x199 JUMPI PUSH0 DUP1 REVERT JUMPDEST POP PUSH2 0x1B4 PUSH1 0x4 DUP1 CALLDATASIZE SUB DUP2 ADD SWAP1 PUSH2 0x1AF SWAP2 SWAP1 PUSH2 0x17ED JUMP JUMPDEST PUSH2 0x7F4 JUMP JUMPDEST PUSH1 0x40 MLOAD PUSH2 0x1C1 SWAP2 SWAP1 PUSH2 0x1776 JUMP JUMPDEST PUSH1 0x40 MLOAD DUP1 SWAP2 SUB SWAP1 RETURN JUMPDEST PUSH2 0x1D2 PUSH2 0x84B JUMP JUMPDEST STOP JUMPDEST CALLVALUE DUP1 ISZERO PUSH2 0x1DF JUMPI PUSH0 DUP1 REVERT JUMPDEST POP PUSH2 0x1FA PUSH1 0x4 DUP1 CALLDATASIZE SUB DUP2 ADD SWAP1 PUSH2 0x1F5 SWAP2 SWAP1 PUSH2 0x17ED JUMP JUMPDEST PUSH2 0x890 JUMP JUMPDEST PUSH1 0x40 MLOAD PUSH2 0x207 SWAP2 SWAP1 PUSH2 0x1776 JUMP JUMPDEST PUSH1 0x40 MLOAD DUP1 SWAP2 SUB SWAP1 RETURN JUMPDEST CALLVALUE DUP1 ISZERO PUSH2 0x21B JUMPI PUSH0 DUP1 REVERT JUMPDEST POP PUSH2 0x224 PUSH2 0x8B3 JUMP JUMPDEST PUSH1 0x40 MLOAD PUSH2 0x231 SWAP2 SWAP1 PUSH2 0x1776 JUMP JUMPDEST PUSH1 0x40 MLOAD DUP1 SWAP2 SUB SWAP1 RETURN JUMPDEST CALLVALUE DUP1 ISZERO PUSH2 0x245 JUMPI PUSH0 DUP1 REVERT JUMPDEST POP PUSH2 0x260 PUSH1 0x4 DUP1 CALLDATASIZE SUB DUP2 ADD SWAP1 PUSH2 0x25B SWAP2 SWAP1 PUSH2 0x17ED JUMP JUMPDEST PUSH2 0x8B9 JUMP JUMPDEST PUSH1 0x40 MLOAD PUSH2 0x26D SWAP2 SWAP1 PUSH2 0x1776 JUMP JUMPDEST PUSH1 0x40 MLOAD DUP1 SWAP2 SUB SWAP1 RETURN JUMPDEST CALLVALUE DUP1 ISZERO PUSH2 0x281 JUMPI PUSH0 DUP1 REVERT JUMPDEST POP PUSH2 0x29C PUSH1 0x4 DUP1 CALLDATASIZE SUB DUP2 ADD SWAP1 PUSH2 0x297 SWAP2 SWAP1 PUSH2 0x1842 JUMP JUMPDEST PUSH2 0x8FF JUMP JUMPDEST PUSH1 0x40 MLOAD PUSH2 0x2A9 SWAP2 SWAP1 PUSH2 0x187C JUMP JUMPDEST PUSH1 0x40 MLOAD DUP1 SWAP2 SUB SWAP1 RETURN JUMPDEST CALLVALUE DUP1 ISZERO PUSH2 0x2BD JUMPI PUSH0 DUP1 REVERT JUMPDEST POP PUSH2 0x2C6 PUSH2 0x93A JUMP JUMPDEST STOP JUMPDEST CALLVALUE DUP1 ISZERO PUSH2 0x2D3 JUMPI PUSH0 DUP1 REVERT JUMPDEST POP PUSH2 0x2EE PUSH1 0x4 DUP1 CALLDATASIZE SUB DUP2 ADD SWAP1 PUSH2 0x2E9 SWAP2 SWAP1 PUSH2 0x1895 JUMP JUMPDEST PUSH2 0x9ED JUMP JUMPDEST PUSH1 0x40 MLOAD PUSH2 0x2FB SWAP2 SWAP1 PUSH2 0x1776 JUMP JUMPDEST PUSH1 0x40 MLOAD DUP1 SWAP2 SUB SWAP1 RETURN JUMPDEST CALLVALUE DUP1 ISZERO PUSH2 0x30F JUMPI PUSH0 DUP1 REVERT JUMPDEST POP PUSH2 0x318 PUSH2 0xA03 JUMP JUMPDEST PUSH1 0x40 MLOAD PUSH2 0x325 SWAP2 SWAP1 PUSH2 0x187C JUMP JUMPDEST PUSH1 0x40 MLOAD DUP1 SWAP2 SUB SWAP1 RETURN JUMPDEST CALLVALUE DUP1 ISZERO PUSH2 0x339 JUMPI PUSH0 DUP1 REVERT JUMPDEST POP PUSH2 0x342 PUSH2 0xA2A JUMP JUMPDEST PUSH1 0x40 MLOAD PUSH2 0x34F SWAP2 SWAP1 PUSH2 0x18ED JUMP JUMPDEST PUSH1 0x40 MLOAD DUP1 SWAP2 SUB SWAP1 RETURN JUMPDEST CALLVALUE DUP1 ISZERO PUSH2 0x363 JUMPI PUSH0 DUP1 REVERT JUMPDEST POP PUSH2 0x36C PUSH2 0xA7F JUMP JUMPDEST PUSH1 0x40 MLOAD PUSH2 0x379 SWAP2 SWAP1 PUSH2 0x1961 JUMP JUMPDEST PUSH1 0x40 MLOAD DUP1 SWAP2 SUB SWAP1 RETURN JUMPDEST CALLVALUE DUP1 ISZERO PUSH2 0x38D JUMPI PUSH0 DUP1 REVERT JUMPDEST POP PUSH2 0x3A8 PUSH1 0x4 DUP1 CALLDATASIZE SUB DUP2 ADD SWAP1 PUSH2 0x3A3 SWAP2 SWAP1 PUSH2 0x1842 JUMP JUMPDEST PUSH2 0xAA4 JUMP JUMPDEST PUSH1 0x40 MLOAD PUSH2 0x3B5 SWAP2 SWAP1 PUSH2 0x1776 JUMP JUMPDEST PUSH1 0x40 MLOAD DUP1 SWAP2 SUB SWAP1 RETURN JUMPDEST CALLVALUE DUP1 ISZERO PUSH2 0x3C9 JUMPI PUSH0 DUP1 REVERT JUMPDEST POP PUSH2 0x3E4 PUSH1 0x4 DUP1 CALLDATASIZE SUB DUP2 ADD SWAP1 PUSH2 0x3DF SWAP2 SWAP1 PUSH2 0x17ED JUMP JUMPDEST PUSH2 0xAB9 JUMP JUMPDEST PUSH1 0x40 MLOAD PUSH2 0x3F1 SWAP2 SWAP1 PUSH2 0x1776 JUMP JUMPDEST PUSH1 0x40 MLOAD DUP1 SWAP2 SUB SWAP1 RETURN JUMPDEST PUSH2 0x414 PUSH1 0x4 DUP1 CALLDATASIZE SUB DUP2 ADD SWAP1 PUSH2 0x40F SWAP2 SWAP1 PUSH2 0x17ED JUMP JUMPDEST PUSH2 0xB5E JUMP JUMPDEST STOP JUMPDEST CALLVALUE DUP1 ISZERO PUSH2 0x421 JUMPI PUSH0 DUP1 REVERT JUMPDEST POP PUSH2 0x43C PUSH1 0x4 DUP1 CALLDATASIZE SUB DUP2 ADD SWAP1 PUSH2 0x437 SWAP2 SWAP1 PUSH2 0x1842 JUMP JUMPDEST PUSH2 0xD8F JUMP JUMPDEST PUSH1 0x40 MLOAD PUSH2 0x449 SWAP2 SWAP1 PUSH2 0x1776 JUMP JUMPDEST PUSH1 0x40 MLOAD DUP1 SWAP2 SUB SWAP1 RETURN JUMPDEST CALLVALUE DUP1 ISZERO PUSH2 0x45D JUMPI PUSH0 DUP1 REVERT JUMPDEST POP PUSH2 0x478 PUSH1 0x4 DUP1 CALLDATASIZE SUB DUP2 ADD SWAP1 PUSH2 0x473 SWAP2 SWAP1 PUSH2 0x1842 JUMP JUMPDEST PUSH2 0xDA1 JUMP JUMPDEST STOP JUMPDEST CALLVALUE DUP1 ISZERO PUSH2 0x485 JUMPI PUSH0 DUP1 REVERT JUMPDEST POP PUSH2 0x4A0 PUSH1 0x4 DUP1 CALLDATASIZE SUB DUP2 ADD SWAP1 PUSH2 0x49B SWAP2 SWAP1 PUSH2 0x17ED JUMP JUMPDEST PUSH2 0xDBB JUMP JUMPDEST STOP JUMPDEST CALLVALUE DUP1 ISZERO PUSH2 0x4AD JUMPI PUSH0 DUP1 REVERT JUMPDEST POP PUSH2 0x4C8 PUSH1 0x4 DUP1 CALLDATASIZE SUB DUP2 ADD SWAP1 PUSH2 0x4C3 SWAP2 SWAP1 PUSH2 0x17ED JUMP JUMPDEST PUSH2 0xED5 JUMP JUMPDEST STOP JUMPDEST CALLVALUE DUP1 ISZERO PUSH2 0x4D5 JUMPI PUSH0 DUP1 REVERT JUMPDEST POP PUSH2 0x4F0 PUSH1 0x4 DUP1 CALLDATASIZE SUB DUP2 ADD SWAP1 PUSH2 0x4EB SWAP2 SWAP1 PUSH2 0x17ED JUMP JUMPDEST PUSH2 0xEF1 JUMP JUMPDEST STOP JUMPDEST PUSH1 0x9 PUSH0 SWAP1 SLOAD SWAP1 PUSH2 0x100 EXP SWAP1 DIV PUSH1 0xFF AND PUSH2 0x509 JUMPI PUSH0 DUP1 REVERT JUMPDEST PUSH0 PUSH2 0x513 CALLER PUSH2 0x7F4 JUMP JUMPDEST SWAP1 POP PUSH0 PUSH2 0x51F DUP3 PUSH2 0xAA4 JUMP JUMPDEST SWAP1 POP PUSH0 PUSH2 0x52B DUP3 PUSH2 0x1301 JUMP JUMPDEST SWAP1 POP PUSH0 PUSH1 0xB PUSH0 CALLER PUSH20 0xFFFFFFFFFFFFFFFFFFFFFFFFFFFFFFFFFFFFFFFF AND PUSH20 0xFFFFFFFFFFFFFFFFFFFFFFFFFFFFFFFFFFFFFFFF AND DUP2 MSTORE PUSH1 0x20 ADD SWAP1 DUP2 MSTORE PUSH1 0x20 ADD PUSH0 KECCAK256 DUP2 SWAP1 SSTORE POP TIMESTAMP PUSH1 0xC PUSH0 CALLER PUSH20 0xFFFFFFFFFFFFFFFFFFFFFFFFFFFFFFFFFFFFFFFF AND PUSH20 0xFFFFFFFFFFFFFFFFFFFFFFFFFFFFFFFFFFFFFFFF AND DUP2 MSTORE PUSH1 0x20 ADD SWAP1 DUP2 MSTORE PUSH1 0x20 ADD PUSH0 KECCAK256 DUP2 SWAP1 SSTORE POP PUSH2 0x5BD PUSH1 0xE SLOAD DUP5 PUSH2 0x131F JUMP JUMPDEST PUSH1 0xE DUP2 SWAP1 SSTORE POP PUSH1 0x9 PUSH1 0x1 SWAP1 SLOAD SWAP1 PUSH2 0x100 EXP SWAP1 DIV PUSH20 0xFFFFFFFFFFFFFFFFFFFFFFFFFFFFFFFFFFFFFFFF AND PUSH20 0xFFFFFFFFFFFFFFFFFFFFFFFFFFFFFFFFFFFFFFFF AND PUSH2 0x8FC DUP3 SWAP1 DUP2 ISZERO MUL SWAP1 PUSH1 0x40 MLOAD PUSH0 PUSH1 0x40 MLOAD DUP1 DUP4 SUB DUP2 DUP6 DUP9 DUP9 CALL SWAP4 POP POP POP POP ISZERO DUP1 ISZERO PUSH2 0x628 JUMPI RETURNDATASIZE PUSH0 DUP1 RETURNDATACOPY RETURNDATASIZE PUSH0 REVERT JUMPDEST POP CALLER PUSH20 0xFFFFFFFFFFFFFFFFFFFFFFFFFFFFFFFFFFFFFFFF AND PUSH2 0x8FC PUSH2 0x64D DUP5 DUP5 PUSH2 0x1334 JUMP JUMPDEST SWAP1 DUP2 ISZERO MUL SWAP1 PUSH1 0x40 MLOAD PUSH0 PUSH1 0x40 MLOAD DUP1 DUP4 SUB DUP2 DUP6 DUP9 DUP9 CALL SWAP4 POP POP POP POP ISZERO DUP1 ISZERO PUSH2 0x675 JUMPI RETURNDATASIZE PUSH0 DUP1 RETURNDATACOPY RETURNDATASIZE PUSH0 REVERT JUMPDEST POP POP POP POP JUMP JUMPDEST PUSH0 SELFBALANCE SWAP1 POP SWAP1 JUMP JUMPDEST PUSH0 CALLER SWAP1 POP PUSH0 PUSH1 0x2 PUSH0 DUP4 PUSH20 0xFFFFFFFFFFFFFFFFFFFFFFFFFFFFFFFFFFFFFFFF AND PUSH20 0xFFFFFFFFFFFFFFFFFFFFFFFFFFFFFFFFFFFFFFFF AND DUP2 MSTORE PUSH1 0x20 ADD SWAP1 DUP2 MSTORE PUSH1 0x20 ADD PUSH0 KECCAK256 SLOAD SWAP1 POP TIMESTAMP PUSH1 0x3 SLOAD DUP3 PUSH2 0x6D6 SWAP2 SWAP1 PUSH2 0x19A7 JUMP JUMPDEST LT ISZERO PUSH2 0x6E3 JUMPI POP POP PUSH2 0x7F2 JUMP JUMPDEST TIMESTAMP PUSH1 0x2 PUSH0 DUP5 PUSH20 0xFFFFFFFFFFFFFFFFFFFFFFFFFFFFFFFFFFFFFFFF AND PUSH20 0xFFFFFFFFFFFFFFFFFFFFFFFFFFFFFFFFFFFFFFFF AND DUP2 MSTORE PUSH1 0x20 ADD SWAP1 DUP2 MSTORE PUSH1 0x20 ADD PUSH0 KECCAK256 DUP2 SWAP1 SSTORE POP PUSH0 PUSH1 0x1 PUSH0 SWAP1 SLOAD SWAP1 PUSH2 0x100 EXP SWAP1 DIV PUSH20 0xFFFFFFFFFFFFFFFFFFFFFFFFFFFFFFFFFFFFFFFF AND PUSH20 0xFFFFFFFFFFFFFFFFFFFFFFFFFFFFFFFFFFFFFFFF AND PUSH4 0x954FA5EE ADDRESS DUP6 PUSH1 0x40 MLOAD DUP4 PUSH4 0xFFFFFFFF AND PUSH1 0xE0 SHL DUP2 MSTORE PUSH1 0x4 ADD PUSH2 0x782 SWAP3 SWAP2 SWAP1 PUSH2 0x19DA JUMP JUMPDEST PUSH1 0x20 PUSH1 0x40 MLOAD DUP1 DUP4 SUB DUP2 PUSH0 DUP8 GAS CALL ISZERO DUP1 ISZERO PUSH2 0x79E JUMPI RETURNDATASIZE PUSH0 DUP1 RETURNDATACOPY RETURNDATASIZE PUSH0 REVERT JUMPDEST POP POP POP POP PUSH1 0x40 MLOAD RETURNDATASIZE PUSH1 0x1F NOT PUSH1 0x1F DUP3 ADD AND DUP3 ADD DUP1 PUSH1 0x40 MSTORE POP DUP2 ADD SWAP1 PUSH2 0x7C2 SWAP2 SWAP1 PUSH2 0x1A15 JUMP JUMPDEST SWAP1 POP PUSH0 DUP2 GT ISZERO PUSH2 0x7EE JUMPI DUP1 PUSH1 0x4 PUSH0 DUP3 DUP3 SLOAD PUSH2 0x7DD SWAP2 SWAP1 PUSH2 0x19A7 JUMP JUMPDEST SWAP3 POP POP DUP2 SWAP1 SSTORE POP PUSH2 0x7ED DUP2 PUSH2 0x1349 JUMP JUMPDEST JUMPDEST POP POP POP JUMPDEST JUMP JUMPDEST PUSH0 PUSH2 0x844 PUSH1 0xB PUSH0 DUP5 PUSH20 0xFFFFFFFFFFFFFFFFFFFFFFFFFFFFFFFFFFFFFFFF AND PUSH20 0xFFFFFFFFFFFFFFFFFFFFFFFFFFFFFFFFFFFFFFFF AND DUP2 MSTORE PUSH1 0x20 ADD SWAP1 DUP2 MSTORE PUSH1 0x20 ADD PUSH0 KECCAK256 SLOAD PUSH2 0x83F DUP5 PUSH2 0xAB9 JUMP JUMPDEST PUSH2 0x131F JUMP JUMPDEST SWAP1 POP SWAP2 SWAP1 POP JUMP JUMPDEST PUSH2 0x853 PUSH2 0xA2A JUMP JUMPDEST PUSH2 0x85B JUMPI PUSH0 DUP1 REVERT JUMPDEST PUSH0 PUSH1 0xE SLOAD EQ PUSH2 0x868 JUMPI PUSH0 DUP1 REVERT JUMPDEST PUSH1 0x1 PUSH1 0x9 PUSH0 PUSH2 0x100 EXP DUP2 SLOAD DUP2 PUSH1 0xFF MUL NOT AND SWAP1 DUP4 ISZERO ISZERO MUL OR SWAP1 SSTORE POP PUSH5 0x19254D3800 PUSH1 0xE DUP2 SWAP1 SSTORE POP JUMP JUMPDEST PUSH0 DUP1 PUSH2 0x89B DUP4 PUSH2 0x7F4 JUMP JUMPDEST SWAP1 POP PUSH0 PUSH2 0x8A7 DUP3 PUSH2 0xAA4 JUMP JUMPDEST SWAP1 POP DUP1 SWAP3 POP POP POP SWAP2 SWAP1 POP JUMP JUMPDEST PUSH1 0x3 SLOAD DUP2 JUMP JUMPDEST PUSH0 PUSH1 0xA PUSH0 DUP4 PUSH20 0xFFFFFFFFFFFFFFFFFFFFFFFFFFFFFFFFFFFFFFFF AND PUSH20 0xFFFFFFFFFFFFFFFFFFFFFFFFFFFFFFFFFFFFFFFF AND DUP2 MSTORE PUSH1 0x20 ADD SWAP1 DUP2 MSTORE PUSH1 0x20 ADD PUSH0 KECCAK256 SLOAD SWAP1 POP SWAP2 SWAP1 POP JUMP JUMPDEST PUSH1 0xF DUP2 DUP2 SLOAD DUP2 LT PUSH2 0x90E JUMPI PUSH0 DUP1 REVERT JUMPDEST SWAP1 PUSH0 MSTORE PUSH1 0x20 PUSH0 KECCAK256 ADD PUSH0 SWAP2 POP SLOAD SWAP1 PUSH2 0x100 EXP SWAP1 DIV PUSH20 0xFFFFFFFFFFFFFFFFFFFFFFFFFFFFFFFFFFFFFFFF AND DUP2 JUMP JUMPDEST PUSH2 0x942 PUSH2 0xA2A JUMP JUMPDEST PUSH2 0x94A JUMPI PUSH0 DUP1 REVERT JUMPDEST PUSH0 DUP1 SLOAD SWAP1 PUSH2 0x100 EXP SWAP1 DIV PUSH20 0xFFFFFFFFFFFFFFFFFFFFFFFFFFFFFFFFFFFFFFFF AND PUSH20 0xFFFFFFFFFFFFFFFFFFFFFFFFFFFFFFFFFFFFFFFF AND PUSH32 0xF8DF31144D9C2F0F6B59D69B8B98ABD5459D07F2742C4DF920B25AAE33C64820 PUSH1 0x40 MLOAD PUSH1 0x40 MLOAD DUP1 SWAP2 SUB SWAP1 LOG2 PUSH0 DUP1 PUSH0 PUSH2 0x100 EXP DUP2 SLOAD DUP2 PUSH20 0xFFFFFFFFFFFFFFFFFFFFFFFFFFFFFFFFFFFFFFFF MUL NOT AND SWAP1 DUP4 PUSH20 0xFFFFFFFFFFFFFFFFFFFFFFFFFFFFFFFFFFFFFFFF AND MUL OR SWAP1 SSTORE POP JUMP JUMPDEST PUSH0 PUSH2 0x9FB DUP4 DUP4 PUSH1 0xE SLOAD PUSH2 0x1355 JUMP JUMPDEST SWAP1 POP SWAP3 SWAP2 POP POP JUMP JUMPDEST PUSH0 DUP1 PUSH0 SWAP1 SLOAD SWAP1 PUSH2 0x100 EXP SWAP1 DIV PUSH20 0xFFFFFFFFFFFFFFFFFFFFFFFFFFFFFFFFFFFFFFFF AND SWAP1 POP SWAP1 JUMP JUMPDEST PUSH0 DUP1 PUSH0 SWAP1 SLOAD SWAP1 PUSH2 0x100 EXP SWAP1 DIV PUSH20 0xFFFFFFFFFFFFFFFFFFFFFFFFFFFFFFFFFFFFFFFF AND PUSH20 0xFFFFFFFFFFFFFFFFFFFFFFFFFFFFFFFFFFFFFFFF AND CALLER PUSH20 0xFFFFFFFFFFFFFFFFFFFFFFFFFFFFFFFFFFFFFFFF AND EQ SWAP1 POP SWAP1 JUMP JUMPDEST PUSH1 0x1 PUSH0 SWAP1 SLOAD SWAP1 PUSH2 0x100 EXP SWAP1 DIV PUSH20 0xFFFFFFFFFFFFFFFFFFFFFFFFFFFFFFFFFFFFFFFF AND DUP2 JUMP JUMPDEST PUSH0 PUSH2 0xAB2 DUP3 PUSH1 0xE SLOAD SELFBALANCE PUSH2 0x1355 JUMP JUMPDEST SWAP1 POP SWAP2 SWAP1 POP JUMP JUMPDEST PUSH0 DUP1 PUSH2 0xB0D PUSH1 0x5 SLOAD PUSH2 0xB08 TIMESTAMP PUSH1 0xC PUSH0 DUP9 PUSH20 0xFFFFFFFFFFFFFFFFFFFFFFFFFFFFFFFFFFFFFFFF AND PUSH20 0xFFFFFFFFFFFFFFFFFFFFFFFFFFFFFFFFFFFFFFFF AND DUP2 MSTORE PUSH1 0x20 ADD SWAP1 DUP2 MSTORE PUSH1 0x20 ADD PUSH0 KECCAK256 SLOAD PUSH2 0x1334 JUMP JUMPDEST PUSH2 0x13A7 JUMP JUMPDEST SWAP1 POP PUSH2 0xB56 DUP2 PUSH1 0xA PUSH0 DUP7 PUSH20 0xFFFFFFFFFFFFFFFFFFFFFFFFFFFFFFFFFFFFFFFF AND PUSH20 0xFFFFFFFFFFFFFFFFFFFFFFFFFFFFFFFFFFFFFFFF AND DUP2 MSTORE PUSH1 0x20 ADD SWAP1 DUP2 MSTORE PUSH1 0x20 ADD PUSH0 KECCAK256 SLOAD PUSH2 0x13BF JUMP JUMPDEST SWAP2 POP POP SWAP2 SWAP1 POP JUMP JUMPDEST PUSH1 0x9 PUSH0 SWAP1 SLOAD SWAP1 PUSH2 0x100 EXP SWAP1 DIV PUSH1 0xFF AND PUSH2 0xB75 JUMPI PUSH0 DUP1 REVERT JUMPDEST PUSH0 CALLER SWAP1 POP PUSH0 PUSH2 0xB8D CALLVALUE PUSH2 0xB88 SELFBALANCE CALLVALUE PUSH2 0x1334 JUMP JUMPDEST PUSH2 0x9ED JUMP JUMPDEST SWAP1 POP PUSH2 0xBA1 DUP2 PUSH2 0xB9C DUP4 PUSH2 0x1301 JUMP JUMPDEST PUSH2 0x1334 JUMP JUMPDEST SWAP1 POP PUSH0 PUSH2 0xBAD CALLVALUE PUSH2 0x1301 JUMP JUMPDEST SWAP1 POP PUSH1 0x9 PUSH1 0x1 SWAP1 SLOAD SWAP1 PUSH2 0x100 EXP SWAP1 DIV PUSH20 0xFFFFFFFFFFFFFFFFFFFFFFFFFFFFFFFFFFFFFFFF AND PUSH20 0xFFFFFFFFFFFFFFFFFFFFFFFFFFFFFFFFFFFFFFFF AND PUSH2 0x8FC DUP3 SWAP1 DUP2 ISZERO MUL SWAP1 PUSH1 0x40 MLOAD PUSH0 PUSH1 0x40 MLOAD DUP1 DUP4 SUB DUP2 DUP6 DUP9 DUP9 CALL SWAP4 POP POP POP POP ISZERO DUP1 ISZERO PUSH2 0xC14 JUMPI RETURNDATASIZE PUSH0 DUP1 RETURNDATACOPY RETURNDATASIZE PUSH0 REVERT JUMPDEST POP PUSH2 0xC65 DUP4 PUSH2 0xC60 PUSH1 0xB PUSH0 DUP8 PUSH20 0xFFFFFFFFFFFFFFFFFFFFFFFFFFFFFFFFFFFFFFFF AND PUSH20 0xFFFFFFFFFFFFFFFFFFFFFFFFFFFFFFFFFFFFFFFF AND DUP2 MSTORE PUSH1 0x20 ADD SWAP1 DUP2 MSTORE PUSH1 0x20 ADD PUSH0 KECCAK256 SLOAD DUP6 PUSH2 0x131F JUMP JUMPDEST PUSH2 0x13D4 JUMP JUMPDEST PUSH2 0xC6E DUP5 PUSH2 0xEF1 JUMP JUMPDEST PUSH8 0x6F05B59D3B20000 CALLVALUE LT PUSH2 0xD89 JUMPI PUSH1 0x1 ISZERO ISZERO PUSH1 0x11 PUSH0 DUP6 PUSH20 0xFFFFFFFFFFFFFFFFFFFFFFFFFFFFFFFFFFFFFFFF AND PUSH20 0xFFFFFFFFFFFFFFFFFFFFFFFFFFFFFFFFFFFFFFFF AND DUP2 MSTORE PUSH1 0x20 ADD SWAP1 DUP2 MSTORE PUSH1 0x20 ADD PUSH0 KECCAK256 PUSH0 SWAP1 SLOAD SWAP1 PUSH2 0x100 EXP SWAP1 DIV PUSH1 0xFF AND ISZERO ISZERO EQ PUSH2 0xD88 JUMPI PUSH1 0x1 PUSH1 0x11 PUSH0 DUP6 PUSH20 0xFFFFFFFFFFFFFFFFFFFFFFFFFFFFFFFFFFFFFFFF AND PUSH20 0xFFFFFFFFFFFFFFFFFFFFFFFFFFFFFFFFFFFFFFFF AND DUP2 MSTORE PUSH1 0x20 ADD SWAP1 DUP2 MSTORE PUSH1 0x20 ADD PUSH0 KECCAK256 PUSH0 PUSH2 0x100 EXP DUP2 SLOAD DUP2 PUSH1 0xFF MUL NOT AND SWAP1 DUP4 ISZERO ISZERO MUL OR SWAP1 SSTORE POP PUSH1 0xF DUP4 SWAP1 DUP1 PUSH1 0x1 DUP2 SLOAD ADD DUP1 DUP3 SSTORE DUP1 SWAP2 POP POP PUSH1 0x1 SWAP1 SUB SWAP1 PUSH0 MSTORE PUSH1 0x20 PUSH0 KECCAK256 ADD PUSH0 SWAP1 SWAP2 SWAP1 SWAP2 SWAP1 SWAP2 PUSH2 0x100 EXP DUP2 SLOAD DUP2 PUSH20 0xFFFFFFFFFFFFFFFFFFFFFFFFFFFFFFFFFFFFFFFF MUL NOT AND SWAP1 DUP4 PUSH20 0xFFFFFFFFFFFFFFFFFFFFFFFFFFFFFFFFFFFFFFFF AND MUL OR SWAP1 SSTORE POP JUMPDEST JUMPDEST POP POP POP POP JUMP JUMPDEST PUSH0 PUSH2 0xD9A DUP3 SELFBALANCE PUSH2 0x9ED JUMP JUMPDEST SWAP1 POP SWAP2 SWAP1 POP JUMP JUMPDEST PUSH2 0xDA9 PUSH2 0xA2A JUMP JUMPDEST PUSH2 0xDB1 JUMPI PUSH0 DUP1 REVERT JUMPDEST DUP1 PUSH1 0x3 DUP2 SWAP1 SSTORE POP POP JUMP JUMPDEST PUSH2 0xDC3 PUSH2 0xA2A JUMP JUMPDEST PUSH2 0xDCB JUMPI PUSH0 DUP1 REVERT JUMPDEST PUSH0 PUSH20 0xFFFFFFFFFFFFFFFFFFFFFFFFFFFFFFFFFFFFFFFF AND DUP2 PUSH20 0xFFFFFFFFFFFFFFFFFFFFFFFFFFFFFFFFFFFFFFFF AND SUB PUSH2 0xE16 JUMPI PUSH20 0x4300000000000000000000000000000000000002 SWAP1 POP JUMPDEST DUP1 PUSH1 0x1 PUSH0 PUSH2 0x100 EXP DUP2 SLOAD DUP2 PUSH20 0xFFFFFFFFFFFFFFFFFFFFFFFFFFFFFFFFFFFFFFFF MUL NOT AND SWAP1 DUP4 PUSH20 0xFFFFFFFFFFFFFFFFFFFFFFFFFFFFFFFFFFFFFFFF AND MUL OR SWAP1 SSTORE POP PUSH1 0x1 PUSH0 SWAP1 SLOAD SWAP1 PUSH2 0x100 EXP SWAP1 DIV PUSH20 0xFFFFFFFFFFFFFFFFFFFFFFFFFFFFFFFFFFFFFFFF AND PUSH20 0xFFFFFFFFFFFFFFFFFFFFFFFFFFFFFFFFFFFFFFFF AND PUSH4 0x4E606C47 PUSH1 0x40 MLOAD DUP2 PUSH4 0xFFFFFFFF AND PUSH1 0xE0 SHL DUP2 MSTORE PUSH1 0x4 ADD PUSH0 PUSH1 0x40 MLOAD DUP1 DUP4 SUB DUP2 PUSH0 DUP8 DUP1 EXTCODESIZE ISZERO DUP1 ISZERO PUSH2 0xEBC JUMPI PUSH0 DUP1 REVERT JUMPDEST POP GAS CALL ISZERO DUP1 ISZERO PUSH2 0xECE JUMPI RETURNDATASIZE PUSH0 DUP1 RETURNDATACOPY RETURNDATASIZE PUSH0 REVERT JUMPDEST POP POP POP POP POP JUMP JUMPDEST PUSH2 0xEDD PUSH2 0xA2A JUMP JUMPDEST PUSH2 0xEE5 JUMPI PUSH0 DUP1 REVERT JUMPDEST PUSH2 0xEEE DUP2 PUSH2 0x1525 JUMP JUMPDEST POP JUMP JUMPDEST PUSH1 0x9 PUSH0 SWAP1 SLOAD SWAP1 PUSH2 0x100 EXP SWAP1 DIV PUSH1 0xFF AND PUSH2 0xF08 JUMPI PUSH0 DUP1 REVERT JUMPDEST CALLER PUSH20 0xFFFFFFFFFFFFFFFFFFFFFFFFFFFFFFFFFFFFFFFF AND DUP2 PUSH20 0xFFFFFFFFFFFFFFFFFFFFFFFFFFFFFFFFFFFFFFFF AND SUB PUSH2 0xF3F JUMPI PUSH0 SWAP1 POP JUMPDEST PUSH0 PUSH20 0xFFFFFFFFFFFFFFFFFFFFFFFFFFFFFFFFFFFFFFFF AND PUSH1 0xD PUSH0 CALLER PUSH20 0xFFFFFFFFFFFFFFFFFFFFFFFFFFFFFFFFFFFFFFFF AND PUSH20 0xFFFFFFFFFFFFFFFFFFFFFFFFFFFFFFFFFFFFFFFF AND DUP2 MSTORE PUSH1 0x20 ADD SWAP1 DUP2 MSTORE PUSH1 0x20 ADD PUSH0 KECCAK256 PUSH0 SWAP1 SLOAD SWAP1 PUSH2 0x100 EXP SWAP1 DIV PUSH20 0xFFFFFFFFFFFFFFFFFFFFFFFFFFFFFFFFFFFFFFFF AND PUSH20 0xFFFFFFFFFFFFFFFFFFFFFFFFFFFFFFFFFFFFFFFF AND EQ DUP1 ISZERO PUSH2 0x105E JUMPI POP CALLER PUSH20 0xFFFFFFFFFFFFFFFFFFFFFFFFFFFFFFFFFFFFFFFF AND PUSH1 0xD PUSH0 CALLER PUSH20 0xFFFFFFFFFFFFFFFFFFFFFFFFFFFFFFFFFFFFFFFF AND PUSH20 0xFFFFFFFFFFFFFFFFFFFFFFFFFFFFFFFFFFFFFFFF AND DUP2 MSTORE PUSH1 0x20 ADD SWAP1 DUP2 MSTORE PUSH1 0x20 ADD PUSH0 KECCAK256 PUSH0 SWAP1 SLOAD SWAP1 PUSH2 0x100 EXP SWAP1 DIV PUSH20 0xFFFFFFFFFFFFFFFFFFFFFFFFFFFFFFFFFFFFFFFF AND PUSH20 0xFFFFFFFFFFFFFFFFFFFFFFFFFFFFFFFFFFFFFFFF AND EQ ISZERO JUMPDEST ISZERO PUSH2 0x10DF JUMPI DUP1 PUSH1 0xD PUSH0 CALLER PUSH20 0xFFFFFFFFFFFFFFFFFFFFFFFFFFFFFFFFFFFFFFFF AND PUSH20 0xFFFFFFFFFFFFFFFFFFFFFFFFFFFFFFFFFFFFFFFF AND DUP2 MSTORE PUSH1 0x20 ADD SWAP1 DUP2 MSTORE PUSH1 0x20 ADD PUSH0 KECCAK256 PUSH0 PUSH2 0x100 EXP DUP2 SLOAD DUP2 PUSH20 0xFFFFFFFFFFFFFFFFFFFFFFFFFFFFFFFFFFFFFFFF MUL NOT AND SWAP1 DUP4 PUSH20 0xFFFFFFFFFFFFFFFFFFFFFFFFFFFFFFFFFFFFFFFF AND MUL OR SWAP1 SSTORE POP JUMPDEST PUSH0 PUSH2 0x10E9 CALLER PUSH2 0x7F4 JUMP JUMPDEST SWAP1 POP PUSH0 PUSH2 0x10F8 DUP3 PUSH1 0x5 SLOAD PUSH2 0x1617 JUMP JUMPDEST SWAP1 POP PUSH2 0x1141 PUSH1 0xA PUSH0 CALLER PUSH20 0xFFFFFFFFFFFFFFFFFFFFFFFFFFFFFFFFFFFFFFFF AND PUSH20 0xFFFFFFFFFFFFFFFFFFFFFFFFFFFFFFFFFFFFFFFF AND DUP2 MSTORE PUSH1 0x20 ADD SWAP1 DUP2 MSTORE PUSH1 0x20 ADD PUSH0 KECCAK256 SLOAD DUP3 PUSH2 0x131F JUMP JUMPDEST PUSH1 0xA PUSH0 CALLER PUSH20 0xFFFFFFFFFFFFFFFFFFFFFFFFFFFFFFFFFFFFFFFF AND PUSH20 0xFFFFFFFFFFFFFFFFFFFFFFFFFFFFFFFFFFFFFFFF AND DUP2 MSTORE PUSH1 0x20 ADD SWAP1 DUP2 MSTORE PUSH1 0x20 ADD PUSH0 KECCAK256 DUP2 SWAP1 SSTORE POP PUSH2 0x118C CALLER PUSH0 PUSH2 0x13D4 JUMP JUMPDEST TIMESTAMP PUSH1 0xC PUSH0 CALLER PUSH20 0xFFFFFFFFFFFFFFFFFFFFFFFFFFFFFFFFFFFFFFFF AND PUSH20 0xFFFFFFFFFFFFFFFFFFFFFFFFFFFFFFFFFFFFFFFF AND DUP2 MSTORE PUSH1 0x20 ADD SWAP1 DUP2 MSTORE PUSH1 0x20 ADD PUSH0 KECCAK256 DUP2 SWAP1 SSTORE POP PUSH2 0x12E0 PUSH1 0xD PUSH0 CALLER PUSH20 0xFFFFFFFFFFFFFFFFFFFFFFFFFFFFFFFFFFFFFFFF AND PUSH20 0xFFFFFFFFFFFFFFFFFFFFFFFFFFFFFFFFFFFFFFFF AND DUP2 MSTORE PUSH1 0x20 ADD SWAP1 DUP2 MSTORE PUSH1 0x20 ADD PUSH0 KECCAK256 PUSH0 SWAP1 SLOAD SWAP1 PUSH2 0x100 EXP SWAP1 DIV PUSH20 0xFFFFFFFFFFFFFFFFFFFFFFFFFFFFFFFFFFFFFFFF AND PUSH2 0x12DB PUSH1 0xB PUSH0 PUSH1 0xD PUSH0 CALLER PUSH20 0xFFFFFFFFFFFFFFFFFFFFFFFFFFFFFFFFFFFFFFFF AND PUSH20 0xFFFFFFFFFFFFFFFFFFFFFFFFFFFFFFFFFFFFFFFF AND DUP2 MSTORE PUSH1 0x20 ADD SWAP1 DUP2 MSTORE PUSH1 0x20 ADD PUSH0 KECCAK256 PUSH0 SWAP1 SLOAD SWAP1 PUSH2 0x100 EXP SWAP1 DIV PUSH20 0xFFFFFFFFFFFFFFFFFFFFFFFFFFFFFFFFFFFFFFFF AND PUSH20 0xFFFFFFFFFFFFFFFFFFFFFFFFFFFFFFFFFFFFFFFF AND PUSH20 0xFFFFFFFFFFFFFFFFFFFFFFFFFFFFFFFFFFFFFFFF AND DUP2 MSTORE PUSH1 0x20 ADD SWAP1 DUP2 MSTORE PUSH1 0x20 ADD PUSH0 KECCAK256 SLOAD PUSH2 0x12D6 DUP7 PUSH1 0x8 PUSH2 0x1617 JUMP JUMPDEST PUSH2 0x131F JUMP JUMPDEST PUSH2 0x13D4 JUMP JUMPDEST PUSH2 0x12F6 PUSH1 0xE SLOAD PUSH2 0x12F1 DUP5 PUSH1 0x5 PUSH2 0x1617 JUMP JUMPDEST PUSH2 0x131F JUMP JUMPDEST PUSH1 0xE DUP2 SWAP1 SSTORE POP POP POP POP JUMP JUMPDEST PUSH0 PUSH2 0x1318 PUSH2 0x1311 DUP4 PUSH1 0x8 SLOAD PUSH2 0x13BF JUMP JUMPDEST PUSH1 0x64 PUSH2 0x1617 JUMP JUMPDEST SWAP1 POP SWAP2 SWAP1 POP JUMP JUMPDEST PUSH0 DUP2 DUP4 PUSH2 0x132C SWAP2 SWAP1 PUSH2 0x19A7 JUMP JUMPDEST SWAP1 POP SWAP3 SWAP2 POP POP JUMP JUMPDEST PUSH0 DUP2 DUP4 PUSH2 0x1341 SWAP2 SWAP1 PUSH2 0x1A40 JUMP JUMPDEST SWAP1 POP SWAP3 SWAP2 POP POP JUMP JUMPDEST PUSH2 0x1352 DUP2 PUSH2 0x162C JUMP JUMPDEST POP JUMP JUMPDEST PUSH0 PUSH2 0x139E PUSH2 0x1365 PUSH1 0x6 SLOAD DUP5 PUSH2 0x13BF JUMP JUMPDEST PUSH2 0x1399 PUSH1 0x7 SLOAD PUSH2 0x1394 PUSH2 0x138E PUSH2 0x137D PUSH1 0x6 SLOAD DUP11 PUSH2 0x13BF JUMP JUMPDEST PUSH2 0x1389 PUSH1 0x7 SLOAD DUP13 PUSH2 0x13BF JUMP JUMPDEST PUSH2 0x131F JUMP JUMPDEST DUP10 PUSH2 0x1617 JUMP JUMPDEST PUSH2 0x131F JUMP JUMPDEST PUSH2 0x1617 JUMP JUMPDEST SWAP1 POP SWAP4 SWAP3 POP POP POP JUMP JUMPDEST PUSH0 DUP2 DUP4 LT PUSH2 0x13B5 JUMPI DUP2 PUSH2 0x13B7 JUMP JUMPDEST DUP3 JUMPDEST SWAP1 POP SWAP3 SWAP2 POP POP JUMP JUMPDEST PUSH0 DUP2 DUP4 PUSH2 0x13CC SWAP2 SWAP1 PUSH2 0x1A73 JUMP JUMPDEST SWAP1 POP SWAP3 SWAP2 POP POP JUMP JUMPDEST PUSH1 0x1 ISZERO ISZERO PUSH1 0x10 PUSH0 DUP5 PUSH20 0xFFFFFFFFFFFFFFFFFFFFFFFFFFFFFFFFFFFFFFFF AND PUSH20 0xFFFFFFFFFFFFFFFFFFFFFFFFFFFFFFFFFFFFFFFF AND DUP2 MSTORE PUSH1 0x20 ADD SWAP1 DUP2 MSTORE PUSH1 0x20 ADD PUSH0 KECCAK256 PUSH0 SWAP1 SLOAD SWAP1 PUSH2 0x100 EXP SWAP1 DIV PUSH1 0xFF AND ISZERO ISZERO EQ PUSH2 0x14DF JUMPI PUSH1 0x12 DUP3 SWAP1 DUP1 PUSH1 0x1 DUP2 SLOAD ADD DUP1 DUP3 SSTORE DUP1 SWAP2 POP POP PUSH1 0x1 SWAP1 SUB SWAP1 PUSH0 MSTORE PUSH1 0x20 PUSH0 KECCAK256 ADD PUSH0 SWAP1 SWAP2 SWAP1 SWAP2 SWAP1 SWAP2 PUSH2 0x100 EXP DUP2 SLOAD DUP2 PUSH20 0xFFFFFFFFFFFFFFFFFFFFFFFFFFFFFFFFFFFFFFFF MUL NOT AND SWAP1 DUP4 PUSH20 0xFFFFFFFFFFFFFFFFFFFFFFFFFFFFFFFFFFFFFFFF AND MUL OR SWAP1 SSTORE POP PUSH1 0x1 PUSH1 0x10 PUSH0 DUP5 PUSH20 0xFFFFFFFFFFFFFFFFFFFFFFFFFFFFFFFFFFFFFFFF AND PUSH20 0xFFFFFFFFFFFFFFFFFFFFFFFFFFFFFFFFFFFFFFFF AND DUP2 MSTORE PUSH1 0x20 ADD SWAP1 DUP2 MSTORE PUSH1 0x20 ADD PUSH0 KECCAK256 PUSH0 PUSH2 0x100 EXP DUP2 SLOAD DUP2 PUSH1 0xFF MUL NOT AND SWAP1 DUP4 ISZERO ISZERO MUL OR SWAP1 SSTORE POP JUMPDEST DUP1 PUSH1 0xB PUSH0 DUP5 PUSH20 0xFFFFFFFFFFFFFFFFFFFFFFFFFFFFFFFFFFFFFFFF AND PUSH20 0xFFFFFFFFFFFFFFFFFFFFFFFFFFFFFFFFFFFFFFFF AND DUP2 MSTORE PUSH1 0x20 ADD SWAP1 DUP2 MSTORE PUSH1 0x20 ADD PUSH0 KECCAK256 DUP2 SWAP1 SSTORE POP POP POP JUMP JUMPDEST PUSH0 PUSH20 0xFFFFFFFFFFFFFFFFFFFFFFFFFFFFFFFFFFFFFFFF AND DUP2 PUSH20 0xFFFFFFFFFFFFFFFFFFFFFFFFFFFFFFFFFFFFFFFF AND SUB PUSH2 0x155C JUMPI PUSH0 DUP1 REVERT JUMPDEST DUP1 PUSH20 0xFFFFFFFFFFFFFFFFFFFFFFFFFFFFFFFFFFFFFFFF AND PUSH0 DUP1 SLOAD SWAP1 PUSH2 0x100 EXP SWAP1 DIV PUSH20 0xFFFFFFFFFFFFFFFFFFFFFFFFFFFFFFFFFFFFFFFF AND PUSH20 0xFFFFFFFFFFFFFFFFFFFFFFFFFFFFFFFFFFFFFFFF AND PUSH32 0x8BE0079C531659141344CD1FD0A4F28419497F9722A3DAAFE3B4186F6B6457E0 PUSH1 0x40 MLOAD PUSH1 0x40 MLOAD DUP1 SWAP2 SUB SWAP1 LOG3 DUP1 PUSH0 DUP1 PUSH2 0x100 EXP DUP2 SLOAD DUP2 PUSH20 0xFFFFFFFFFFFFFFFFFFFFFFFFFFFFFFFFFFFFFFFF MUL NOT AND SWAP1 DUP4 PUSH20 0xFFFFFFFFFFFFFFFFFFFFFFFFFFFFFFFFFFFFFFFF AND MUL OR SWAP1 SSTORE POP POP JUMP JUMPDEST PUSH0 DUP2 DUP4 PUSH2 0x1624 SWAP2 SWAP1 PUSH2 0x1AE1 JUMP JUMPDEST SWAP1 POP SWAP3 SWAP2 POP POP JUMP JUMPDEST PUSH0 DUP2 GT ISZERO PUSH2 0x170E JUMPI PUSH0 DUP1 PUSH0 JUMPDEST PUSH1 0x12 DUP1 SLOAD SWAP1 POP DUP2 LT ISZERO PUSH2 0x170A JUMPI PUSH1 0x12 DUP2 DUP2 SLOAD DUP2 LT PUSH2 0x1659 JUMPI PUSH2 0x1658 PUSH2 0x1B11 JUMP JUMPDEST JUMPDEST SWAP1 PUSH0 MSTORE PUSH1 0x20 PUSH0 KECCAK256 ADD PUSH0 SWAP1 SLOAD SWAP1 PUSH2 0x100 EXP SWAP1 DIV PUSH20 0xFFFFFFFFFFFFFFFFFFFFFFFFFFFFFFFFFFFFFFFF AND SWAP3 POP PUSH2 0x16E7 PUSH1 0xE SLOAD PUSH2 0x16D9 PUSH1 0xB PUSH0 DUP8 PUSH20 0xFFFFFFFFFFFFFFFFFFFFFFFFFFFFFFFFFFFFFFFF AND PUSH20 0xFFFFFFFFFFFFFFFFFFFFFFFFFFFFFFFFFFFFFFFF AND DUP2 MSTORE PUSH1 0x20 ADD SWAP1 DUP2 MSTORE PUSH1 0x20 ADD PUSH0 KECCAK256 SLOAD DUP8 PUSH2 0x13BF SWAP1 SWAP2 SWAP1 PUSH4 0xFFFFFFFF AND JUMP JUMPDEST PUSH2 0x1617 SWAP1 SWAP2 SWAP1 PUSH4 0xFFFFFFFF AND JUMP JUMPDEST SWAP2 POP PUSH0 DUP3 GT ISZERO PUSH2 0x16FD JUMPI PUSH2 0x16FB DUP4 DUP4 PUSH2 0x1711 JUMP JUMPDEST POP JUMPDEST DUP1 DUP1 PUSH1 0x1 ADD SWAP2 POP POP PUSH2 0x1638 JUMP JUMPDEST POP POP POP JUMPDEST POP JUMP JUMPDEST PUSH0 DUP3 PUSH20 0xFFFFFFFFFFFFFFFFFFFFFFFFFFFFFFFFFFFFFFFF AND PUSH2 0x8FC DUP4 SWAP1 DUP2 ISZERO MUL SWAP1 PUSH1 0x40 MLOAD PUSH0 PUSH1 0x40 MLOAD DUP1 DUP4 SUB DUP2 DUP6 DUP9 DUP9 CALL SWAP4 POP POP POP POP ISZERO PUSH2 0x1754 JUMPI PUSH1 0x1 SWAP1 POP PUSH2 0x1758 JUMP JUMPDEST PUSH0 SWAP1 POP JUMPDEST SWAP3 SWAP2 POP POP JUMP JUMPDEST PUSH0 DUP2 SWAP1 POP SWAP2 SWAP1 POP JUMP JUMPDEST PUSH2 0x1770 DUP2 PUSH2 0x175E JUMP JUMPDEST DUP3 MSTORE POP POP JUMP JUMPDEST PUSH0 PUSH1 0x20 DUP3 ADD SWAP1 POP PUSH2 0x1789 PUSH0 DUP4 ADD DUP5 PUSH2 0x1767 JUMP JUMPDEST SWAP3 SWAP2 POP POP JUMP JUMPDEST PUSH0 DUP1 REVERT JUMPDEST PUSH0 PUSH20 0xFFFFFFFFFFFFFFFFFFFFFFFFFFFFFFFFFFFFFFFF DUP3 AND SWAP1 POP SWAP2 SWAP1 POP JUMP JUMPDEST PUSH0 PUSH2 0x17BC DUP3 PUSH2 0x1793 JUMP JUMPDEST SWAP1 POP SWAP2 SWAP1 POP JUMP JUMPDEST PUSH2 0x17CC DUP2 PUSH2 0x17B2 JUMP JUMPDEST DUP2 EQ PUSH2 0x17D6 JUMPI PUSH0 DUP1 REVERT JUMPDEST POP JUMP JUMPDEST PUSH0 DUP2 CALLDATALOAD SWAP1 POP PUSH2 0x17E7 DUP2 PUSH2 0x17C3 JUMP JUMPDEST SWAP3 SWAP2 POP POP JUMP JUMPDEST PUSH0 PUSH1 0x20 DUP3 DUP5 SUB SLT ISZERO PUSH2 0x1802 JUMPI PUSH2 0x1801 PUSH2 0x178F JUMP JUMPDEST JUMPDEST PUSH0 PUSH2 0x180F DUP5 DUP3 DUP6 ADD PUSH2 0x17D9 JUMP JUMPDEST SWAP2 POP POP SWAP3 SWAP2 POP POP JUMP JUMPDEST PUSH2 0x1821 DUP2 PUSH2 0x175E JUMP JUMPDEST DUP2 EQ PUSH2 0x182B JUMPI PUSH0 DUP1 REVERT JUMPDEST POP JUMP JUMPDEST PUSH0 DUP2 CALLDATALOAD SWAP1 POP PUSH2 0x183C DUP2 PUSH2 0x1818 JUMP JUMPDEST SWAP3 SWAP2 POP POP JUMP JUMPDEST PUSH0 PUSH1 0x20 DUP3 DUP5 SUB SLT ISZERO PUSH2 0x1857 JUMPI PUSH2 0x1856 PUSH2 0x178F JUMP JUMPDEST JUMPDEST PUSH0 PUSH2 0x1864 DUP5 DUP3 DUP6 ADD PUSH2 0x182E JUMP JUMPDEST SWAP2 POP POP SWAP3 SWAP2 POP POP JUMP JUMPDEST PUSH2 0x1876 DUP2 PUSH2 0x17B2 JUMP JUMPDEST DUP3 MSTORE POP POP JUMP JUMPDEST PUSH0 PUSH1 0x20 DUP3 ADD SWAP1 POP PUSH2 0x188F PUSH0 DUP4 ADD DUP5 PUSH2 0x186D JUMP JUMPDEST SWAP3 SWAP2 POP POP JUMP JUMPDEST PUSH0 DUP1 PUSH1 0x40 DUP4 DUP6 SUB SLT ISZERO PUSH2 0x18AB JUMPI PUSH2 0x18AA PUSH2 0x178F JUMP JUMPDEST JUMPDEST PUSH0 PUSH2 0x18B8 DUP6 DUP3 DUP7 ADD PUSH2 0x182E JUMP JUMPDEST SWAP3 POP POP PUSH1 0x20 PUSH2 0x18C9 DUP6 DUP3 DUP7 ADD PUSH2 0x182E JUMP JUMPDEST SWAP2 POP POP SWAP3 POP SWAP3 SWAP1 POP JUMP JUMPDEST PUSH0 DUP2 ISZERO ISZERO SWAP1 POP SWAP2 SWAP1 POP JUMP JUMPDEST PUSH2 0x18E7 DUP2 PUSH2 0x18D3 JUMP JUMPDEST DUP3 MSTORE POP POP JUMP JUMPDEST PUSH0 PUSH1 0x20 DUP3 ADD SWAP1 POP PUSH2 0x1900 PUSH0 DUP4 ADD DUP5 PUSH2 0x18DE JUMP JUMPDEST SWAP3 SWAP2 POP POP JUMP JUMPDEST PUSH0 DUP2 SWAP1 POP SWAP2 SWAP1 POP JUMP JUMPDEST PUSH0 PUSH2 0x1929 PUSH2 0x1924 PUSH2 0x191F DUP5 PUSH2 0x1793 JUMP JUMPDEST PUSH2 0x1906 JUMP JUMPDEST PUSH2 0x1793 JUMP JUMPDEST SWAP1 POP SWAP2 SWAP1 POP JUMP JUMPDEST PUSH0 PUSH2 0x193A DUP3 PUSH2 0x190F JUMP JUMPDEST SWAP1 POP SWAP2 SWAP1 POP JUMP JUMPDEST PUSH0 PUSH2 0x194B DUP3 PUSH2 0x1930 JUMP JUMPDEST SWAP1 POP SWAP2 SWAP1 POP JUMP JUMPDEST PUSH2 0x195B DUP2 PUSH2 0x1941 JUMP JUMPDEST DUP3 MSTORE POP POP JUMP JUMPDEST PUSH0 PUSH1 0x20 DUP3 ADD SWAP1 POP PUSH2 0x1974 PUSH0 DUP4 ADD DUP5 PUSH2 0x1952 JUMP JUMPDEST SWAP3 SWAP2 POP POP JUMP JUMPDEST PUSH32 0x4E487B7100000000000000000000000000000000000000000000000000000000 PUSH0 MSTORE PUSH1 0x11 PUSH1 0x4 MSTORE PUSH1 0x24 PUSH0 REVERT JUMPDEST PUSH0 PUSH2 0x19B1 DUP3 PUSH2 0x175E JUMP JUMPDEST SWAP2 POP PUSH2 0x19BC DUP4 PUSH2 0x175E JUMP JUMPDEST SWAP3 POP DUP3 DUP3 ADD SWAP1 POP DUP1 DUP3 GT ISZERO PUSH2 0x19D4 JUMPI PUSH2 0x19D3 PUSH2 0x197A JUMP JUMPDEST JUMPDEST SWAP3 SWAP2 POP POP JUMP JUMPDEST PUSH0 PUSH1 0x40 DUP3 ADD SWAP1 POP PUSH2 0x19ED PUSH0 DUP4 ADD DUP6 PUSH2 0x186D JUMP JUMPDEST PUSH2 0x19FA PUSH1 0x20 DUP4 ADD DUP5 PUSH2 0x186D JUMP JUMPDEST SWAP4 SWAP3 POP POP POP JUMP JUMPDEST PUSH0 DUP2 MLOAD SWAP1 POP PUSH2 0x1A0F DUP2 PUSH2 0x1818 JUMP JUMPDEST SWAP3 SWAP2 POP POP JUMP JUMPDEST PUSH0 PUSH1 0x20 DUP3 DUP5 SUB SLT ISZERO PUSH2 0x1A2A JUMPI PUSH2 0x1A29 PUSH2 0x178F JUMP JUMPDEST JUMPDEST PUSH0 PUSH2 0x1A37 DUP5 DUP3 DUP6 ADD PUSH2 0x1A01 JUMP JUMPDEST SWAP2 POP POP SWAP3 SWAP2 POP POP JUMP JUMPDEST PUSH0 PUSH2 0x1A4A DUP3 PUSH2 0x175E JUMP JUMPDEST SWAP2 POP PUSH2 0x1A55 DUP4 PUSH2 0x175E JUMP JUMPDEST SWAP3 POP DUP3 DUP3 SUB SWAP1 POP DUP2 DUP2 GT ISZERO PUSH2 0x1A6D JUMPI PUSH2 0x1A6C PUSH2 0x197A JUMP JUMPDEST JUMPDEST SWAP3 SWAP2 POP POP JUMP JUMPDEST PUSH0 PUSH2 0x1A7D DUP3 PUSH2 0x175E JUMP JUMPDEST SWAP2 POP PUSH2 0x1A88 DUP4 PUSH2 0x175E JUMP JUMPDEST SWAP3 POP DUP3 DUP3 MUL PUSH2 0x1A96 DUP2 PUSH2 0x175E JUMP JUMPDEST SWAP2 POP DUP3 DUP3 DIV DUP5 EQ DUP4 ISZERO OR PUSH2 0x1AAD JUMPI PUSH2 0x1AAC PUSH2 0x197A JUMP JUMPDEST JUMPDEST POP SWAP3 SWAP2 POP POP JUMP JUMPDEST PUSH32 0x4E487B7100000000000000000000000000000000000000000000000000000000 PUSH0 MSTORE PUSH1 0x12 PUSH1 0x4 MSTORE PUSH1 0x24 PUSH0 REVERT JUMPDEST PUSH0 PUSH2 0x1AEB DUP3 PUSH2 0x175E JUMP JUMPDEST SWAP2 POP PUSH2 0x1AF6 DUP4 PUSH2 0x175E JUMP JUMPDEST SWAP3 POP DUP3 PUSH2 0x1B06 JUMPI PUSH2 0x1B05 PUSH2 0x1AB4 JUMP JUMPDEST JUMPDEST DUP3 DUP3 DIV SWAP1 POP SWAP3 SWAP2 POP POP JUMP JUMPDEST PUSH32 0x4E487B7100000000000000000000000000000000000000000000000000000000 PUSH0 MSTORE PUSH1 0x32 PUSH1 0x4 MSTORE PUSH1 0x24 PUSH0 REVERT INVALID LOG2 PUSH5 0x6970667358 0x22 SLT KECCAK256 RETURNDATACOPY SWAP2 0xC8 PUSH3 0x8DF0B0 DIV 0x2B TLOAD 0xA8 COINBASE 0xC3 0xAE PUSH30 0x6DB5205269BF9A6E05C3E40C1D536994D564736F6C634300081800330000 "
				},
				"gasEstimates": {
					"creation": {
						"codeDepositCost": "1405600",
						"executionCost": "184839",
						"totalCost": "1590439"
					},
					"external": {
						"BLAST()": "infinite",
						"_blastClaimInterval()": "2470",
						"airdropQualifiers(uint256)": "5033",
						"buyIngots(address)": "infinite",
						"calculateIngotBuy(uint256,uint256)": "infinite",
						"calculateIngotBuySimple(uint256)": "infinite",
						"calculateIngotSell(uint256)": "infinite",
						"claimMyGasFees()": "infinite",
						"furnaceRewards(address)": "infinite",
						"getBalance()": "380",
						"getIngotsSinceLastHatch(address)": "infinite",
						"getMyIngots(address)": "infinite",
						"getMyMiners(address)": "2896",
						"hatchIngots(address)": "infinite",
						"isOwner()": "2535",
						"owner()": "2538",
						"renounceOwnership()": "30015",
						"seedMarket()": "50936",
						"sellIngots()": "infinite",
						"setBlastClaimInterval(uint256)": "24784",
						"setupBlast(address)": "infinite",
						"transferOwnership(address)": "30768"
					},
					"internal": {
						"_distributeNative(uint256)": "infinite",
						"_setClaimed(address,uint256)": "97409",
						"blastFeesClaimed(uint256)": "infinite",
						"calculateTrade(uint256,uint256,uint256)": "infinite",
						"devFee(uint256)": "infinite",
						"min(uint256,uint256)": "63"
					}
				},
				"methodIdentifiers": {
					"BLAST()": "97d75776",
					"_blastClaimInterval()": "4addc0e8",
					"airdropQualifiers(uint256)": "53e3323b",
					"buyIngots(address)": "e5d782fc",
					"calculateIngotBuy(uint256,uint256)": "7a571ae1",
					"calculateIngotBuySimple(uint256)": "e953f982",
					"calculateIngotSell(uint256)": "b18a2f82",
					"claimMyGasFees()": "23084e5f",
					"furnaceRewards(address)": "450c9d7d",
					"getBalance()": "12065fe0",
					"getIngotsSinceLastHatch(address)": "c2a6856f",
					"getMyIngots(address)": "2cf4f274",
					"getMyMiners(address)": "4b634b06",
					"hatchIngots(address)": "feeea92e",
					"isOwner()": "8f32d59b",
					"owner()": "8da5cb5b",
					"renounceOwnership()": "715018a6",
					"seedMarket()": "3c5f07cb",
					"sellIngots()": "012d754c",
					"setBlastClaimInterval(uint256)": "eaca243b",
					"setupBlast(address)": "f2e809e0",
					"transferOwnership(address)": "f2fde38b"
				}
			},
			"storageLayout": {
				"storage": [
					{
						"astId": 344,
						"contract": "contracts/BlastFurnace_flattened.sol:BlastFurnace",
						"label": "_owner",
						"offset": 0,
						"slot": "0",
						"type": "t_address"
					},
					{
						"astId": 464,
						"contract": "contracts/BlastFurnace_flattened.sol:BlastFurnace",
						"label": "BLAST",
						"offset": 0,
						"slot": "1",
						"type": "t_contract(IBlast)459"
					},
					{
						"astId": 468,
						"contract": "contracts/BlastFurnace_flattened.sol:BlastFurnace",
						"label": "_lastBlastClaim",
						"offset": 0,
						"slot": "2",
						"type": "t_mapping(t_address,t_uint256)"
					},
					{
						"astId": 471,
						"contract": "contracts/BlastFurnace_flattened.sol:BlastFurnace",
						"label": "_blastClaimInterval",
						"offset": 0,
						"slot": "3",
						"type": "t_uint256"
					},
					{
						"astId": 473,
						"contract": "contracts/BlastFurnace_flattened.sol:BlastFurnace",
						"label": "_feesClaimed",
						"offset": 0,
						"slot": "4",
						"type": "t_uint256"
					},
					{
						"astId": 588,
						"contract": "contracts/BlastFurnace_flattened.sol:BlastFurnace",
						"label": "INGOTS_TO_HATCH_1MINERS",
						"offset": 0,
						"slot": "5",
						"type": "t_uint256"
					},
					{
						"astId": 591,
						"contract": "contracts/BlastFurnace_flattened.sol:BlastFurnace",
						"label": "PSN",
						"offset": 0,
						"slot": "6",
						"type": "t_uint256"
					},
					{
						"astId": 594,
						"contract": "contracts/BlastFurnace_flattened.sol:BlastFurnace",
						"label": "PSNH",
						"offset": 0,
						"slot": "7",
						"type": "t_uint256"
					},
					{
						"astId": 597,
						"contract": "contracts/BlastFurnace_flattened.sol:BlastFurnace",
						"label": "devFeeVal",
						"offset": 0,
						"slot": "8",
						"type": "t_uint256"
					},
					{
						"astId": 600,
						"contract": "contracts/BlastFurnace_flattened.sol:BlastFurnace",
						"label": "initialized",
						"offset": 0,
						"slot": "9",
						"type": "t_bool"
					},
					{
						"astId": 602,
						"contract": "contracts/BlastFurnace_flattened.sol:BlastFurnace",
						"label": "recAdd",
						"offset": 1,
						"slot": "9",
						"type": "t_address_payable"
					},
					{
						"astId": 606,
						"contract": "contracts/BlastFurnace_flattened.sol:BlastFurnace",
						"label": "hatcheryMiners",
						"offset": 0,
						"slot": "10",
						"type": "t_mapping(t_address,t_uint256)"
					},
					{
						"astId": 610,
						"contract": "contracts/BlastFurnace_flattened.sol:BlastFurnace",
						"label": "claimedIngots",
						"offset": 0,
						"slot": "11",
						"type": "t_mapping(t_address,t_uint256)"
					},
					{
						"astId": 614,
						"contract": "contracts/BlastFurnace_flattened.sol:BlastFurnace",
						"label": "lastHatch",
						"offset": 0,
						"slot": "12",
						"type": "t_mapping(t_address,t_uint256)"
					},
					{
						"astId": 618,
						"contract": "contracts/BlastFurnace_flattened.sol:BlastFurnace",
						"label": "referrals",
						"offset": 0,
						"slot": "13",
						"type": "t_mapping(t_address,t_address)"
					},
					{
						"astId": 620,
						"contract": "contracts/BlastFurnace_flattened.sol:BlastFurnace",
						"label": "marketIngots",
						"offset": 0,
						"slot": "14",
						"type": "t_uint256"
					},
					{
						"astId": 623,
						"contract": "contracts/BlastFurnace_flattened.sol:BlastFurnace",
						"label": "airdropQualifiers",
						"offset": 0,
						"slot": "15",
						"type": "t_array(t_address)dyn_storage"
					},
					{
						"astId": 627,
						"contract": "contracts/BlastFurnace_flattened.sol:BlastFurnace",
						"label": "_isHolder",
						"offset": 0,
						"slot": "16",
						"type": "t_mapping(t_address,t_bool)"
					},
					{
						"astId": 631,
						"contract": "contracts/BlastFurnace_flattened.sol:BlastFurnace",
						"label": "_isAirDropQualifier",
						"offset": 0,
						"slot": "17",
						"type": "t_mapping(t_address,t_bool)"
					},
					{
						"astId": 634,
						"contract": "contracts/BlastFurnace_flattened.sol:BlastFurnace",
						"label": "_holders",
						"offset": 0,
						"slot": "18",
						"type": "t_array(t_address)dyn_storage"
					}
				],
				"types": {
					"t_address": {
						"encoding": "inplace",
						"label": "address",
						"numberOfBytes": "20"
					},
					"t_address_payable": {
						"encoding": "inplace",
						"label": "address payable",
						"numberOfBytes": "20"
					},
					"t_array(t_address)dyn_storage": {
						"base": "t_address",
						"encoding": "dynamic_array",
						"label": "address[]",
						"numberOfBytes": "32"
					},
					"t_bool": {
						"encoding": "inplace",
						"label": "bool",
						"numberOfBytes": "1"
					},
					"t_contract(IBlast)459": {
						"encoding": "inplace",
						"label": "contract IBlast",
						"numberOfBytes": "20"
					},
					"t_mapping(t_address,t_address)": {
						"encoding": "mapping",
						"key": "t_address",
						"label": "mapping(address => address)",
						"numberOfBytes": "32",
						"value": "t_address"
					},
					"t_mapping(t_address,t_bool)": {
						"encoding": "mapping",
						"key": "t_address",
						"label": "mapping(address => bool)",
						"numberOfBytes": "32",
						"value": "t_bool"
					},
					"t_mapping(t_address,t_uint256)": {
						"encoding": "mapping",
						"key": "t_address",
						"label": "mapping(address => uint256)",
						"numberOfBytes": "32",
						"value": "t_uint256"
					},
					"t_uint256": {
						"encoding": "inplace",
						"label": "uint256",
						"numberOfBytes": "32"
					}
				}
			},
			"userdoc": {
				"kind": "user",
				"methods": {},
				"version": 1
			}
		}
	}
}