{
	"contracts/BOMB_flattened.sol": {
		"BOMB": {
			"abi": [
				{
					"anonymous": false,
					"inputs": [
						{
							"indexed": true,
							"internalType": "address",
							"name": "owner",
							"type": "address"
						},
						{
							"indexed": true,
							"internalType": "address",
							"name": "spender",
							"type": "address"
						},
						{
							"indexed": false,
							"internalType": "uint256",
							"name": "value",
							"type": "uint256"
						}
					],
					"name": "Approval",
					"type": "event"
				},
				{
					"anonymous": false,
					"inputs": [
						{
							"indexed": true,
							"internalType": "uint256",
							"name": "epoch",
							"type": "uint256"
						},
						{
							"indexed": false,
							"internalType": "uint256",
							"name": "totalSupply",
							"type": "uint256"
						}
					],
					"name": "LogRebase",
					"type": "event"
				},
				{
					"anonymous": false,
					"inputs": [
						{
							"indexed": true,
							"internalType": "address",
							"name": "previousOwner",
							"type": "address"
						}
					],
					"name": "OwnershipRenounced",
					"type": "event"
				},
				{
					"anonymous": false,
					"inputs": [
						{
							"indexed": true,
							"internalType": "address",
							"name": "previousOwner",
							"type": "address"
						},
						{
							"indexed": true,
							"internalType": "address",
							"name": "newOwner",
							"type": "address"
						}
					],
					"name": "OwnershipTransferred",
					"type": "event"
				},
				{
					"anonymous": false,
					"inputs": [
						{
							"indexed": true,
							"internalType": "address",
							"name": "from",
							"type": "address"
						},
						{
							"indexed": true,
							"internalType": "address",
							"name": "to",
							"type": "address"
						},
						{
							"indexed": false,
							"internalType": "uint256",
							"name": "value",
							"type": "uint256"
						}
					],
					"name": "Transfer",
					"type": "event"
				},
				{
					"inputs": [],
					"name": "_autoRebase",
					"outputs": [
						{
							"internalType": "bool",
							"name": "",
							"type": "bool"
						}
					],
					"stateMutability": "view",
					"type": "function"
				},
				{
					"inputs": [
						{
							"internalType": "address",
							"name": "",
							"type": "address"
						}
					],
					"name": "_blacklist",
					"outputs": [
						{
							"internalType": "bool",
							"name": "",
							"type": "bool"
						}
					],
					"stateMutability": "view",
					"type": "function"
				},
				{
					"inputs": [],
					"name": "_distributionInterval",
					"outputs": [
						{
							"internalType": "uint256",
							"name": "",
							"type": "uint256"
						}
					],
					"stateMutability": "view",
					"type": "function"
				},
				{
					"inputs": [],
					"name": "_feePercent",
					"outputs": [
						{
							"internalType": "uint256",
							"name": "",
							"type": "uint256"
						}
					],
					"stateMutability": "view",
					"type": "function"
				},
				{
					"inputs": [],
					"name": "_initComplete",
					"outputs": [
						{
							"internalType": "bool",
							"name": "",
							"type": "bool"
						}
					],
					"stateMutability": "view",
					"type": "function"
				},
				{
					"inputs": [],
					"name": "_initRebaseStartTime",
					"outputs": [
						{
							"internalType": "uint256",
							"name": "",
							"type": "uint256"
						}
					],
					"stateMutability": "view",
					"type": "function"
				},
				{
					"inputs": [],
					"name": "_lastRebasedTime",
					"outputs": [
						{
							"internalType": "uint256",
							"name": "",
							"type": "uint256"
						}
					],
					"stateMutability": "view",
					"type": "function"
				},
				{
					"inputs": [],
					"name": "_totalSupply",
					"outputs": [
						{
							"internalType": "uint256",
							"name": "",
							"type": "uint256"
						}
					],
					"stateMutability": "view",
					"type": "function"
				},
				{
					"inputs": [
						{
							"internalType": "address",
							"name": "owner_",
							"type": "address"
						},
						{
							"internalType": "address",
							"name": "spender",
							"type": "address"
						}
					],
					"name": "allowance",
					"outputs": [
						{
							"internalType": "uint256",
							"name": "",
							"type": "uint256"
						}
					],
					"stateMutability": "view",
					"type": "function"
				},
				{
					"inputs": [
						{
							"internalType": "address",
							"name": "spender",
							"type": "address"
						},
						{
							"internalType": "uint256",
							"name": "value",
							"type": "uint256"
						}
					],
					"name": "approve",
					"outputs": [
						{
							"internalType": "bool",
							"name": "",
							"type": "bool"
						}
					],
					"stateMutability": "nonpayable",
					"type": "function"
				},
				{
					"inputs": [
						{
							"internalType": "address",
							"name": "who",
							"type": "address"
						}
					],
					"name": "balanceOf",
					"outputs": [
						{
							"internalType": "uint256",
							"name": "",
							"type": "uint256"
						}
					],
					"stateMutability": "view",
					"type": "function"
				},
				{
					"inputs": [
						{
							"internalType": "address",
							"name": "_addr",
							"type": "address"
						}
					],
					"name": "checkFeeExempt",
					"outputs": [
						{
							"internalType": "bool",
							"name": "",
							"type": "bool"
						}
					],
					"stateMutability": "view",
					"type": "function"
				},
				{
					"inputs": [],
					"name": "decimals",
					"outputs": [
						{
							"internalType": "uint8",
							"name": "",
							"type": "uint8"
						}
					],
					"stateMutability": "view",
					"type": "function"
				},
				{
					"inputs": [
						{
							"internalType": "address",
							"name": "spender",
							"type": "address"
						},
						{
							"internalType": "uint256",
							"name": "subtractedValue",
							"type": "uint256"
						}
					],
					"name": "decreaseAllowance",
					"outputs": [
						{
							"internalType": "bool",
							"name": "",
							"type": "bool"
						}
					],
					"stateMutability": "nonpayable",
					"type": "function"
				},
				{
					"inputs": [
						{
							"internalType": "address",
							"name": "spender",
							"type": "address"
						},
						{
							"internalType": "uint256",
							"name": "addedValue",
							"type": "uint256"
						}
					],
					"name": "increaseAllowance",
					"outputs": [
						{
							"internalType": "bool",
							"name": "",
							"type": "bool"
						}
					],
					"stateMutability": "nonpayable",
					"type": "function"
				},
				{
					"inputs": [],
					"name": "isNotInSwap",
					"outputs": [
						{
							"internalType": "bool",
							"name": "",
							"type": "bool"
						}
					],
					"stateMutability": "view",
					"type": "function"
				},
				{
					"inputs": [],
					"name": "isOwner",
					"outputs": [
						{
							"internalType": "bool",
							"name": "",
							"type": "bool"
						}
					],
					"stateMutability": "view",
					"type": "function"
				},
				{
					"inputs": [],
					"name": "manualSync",
					"outputs": [],
					"stateMutability": "nonpayable",
					"type": "function"
				},
				{
					"inputs": [],
					"name": "name",
					"outputs": [
						{
							"internalType": "string",
							"name": "",
							"type": "string"
						}
					],
					"stateMutability": "view",
					"type": "function"
				},
				{
					"inputs": [],
					"name": "owner",
					"outputs": [
						{
							"internalType": "address",
							"name": "",
							"type": "address"
						}
					],
					"stateMutability": "view",
					"type": "function"
				},
				{
					"inputs": [],
					"name": "renounceOwnership",
					"outputs": [],
					"stateMutability": "nonpayable",
					"type": "function"
				},
				{
					"inputs": [
						{
							"internalType": "bool",
							"name": "_flag",
							"type": "bool"
						}
					],
					"name": "setAutoRebase",
					"outputs": [],
					"stateMutability": "nonpayable",
					"type": "function"
				},
				{
					"inputs": [
						{
							"internalType": "address",
							"name": "_botAddress",
							"type": "address"
						},
						{
							"internalType": "bool",
							"name": "_flag",
							"type": "bool"
						}
					],
					"name": "setBotBlacklist",
					"outputs": [],
					"stateMutability": "nonpayable",
					"type": "function"
				},
				{
					"inputs": [
						{
							"internalType": "uint256",
							"name": "interval",
							"type": "uint256"
						}
					],
					"name": "setDistributeInterval",
					"outputs": [],
					"stateMutability": "nonpayable",
					"type": "function"
				},
				{
					"inputs": [
						{
							"internalType": "uint256",
							"name": "percent",
							"type": "uint256"
						}
					],
					"name": "setFeePercentage",
					"outputs": [],
					"stateMutability": "nonpayable",
					"type": "function"
				},
				{
					"inputs": [
						{
							"internalType": "address",
							"name": "addr",
							"type": "address"
						}
					],
					"name": "setLP",
					"outputs": [],
					"stateMutability": "nonpayable",
					"type": "function"
				},
				{
					"inputs": [
						{
							"internalType": "address",
							"name": "_addr",
							"type": "address"
						}
					],
					"name": "setWhitelist",
					"outputs": [],
					"stateMutability": "nonpayable",
					"type": "function"
				},
				{
					"inputs": [],
					"name": "symbol",
					"outputs": [
						{
							"internalType": "string",
							"name": "",
							"type": "string"
						}
					],
					"stateMutability": "view",
					"type": "function"
				},
				{
					"inputs": [],
					"name": "totalSupply",
					"outputs": [
						{
							"internalType": "uint256",
							"name": "",
							"type": "uint256"
						}
					],
					"stateMutability": "view",
					"type": "function"
				},
				{
					"inputs": [
						{
							"internalType": "address",
							"name": "to",
							"type": "address"
						},
						{
							"internalType": "uint256",
							"name": "value",
							"type": "uint256"
						}
					],
					"name": "transfer",
					"outputs": [
						{
							"internalType": "bool",
							"name": "",
							"type": "bool"
						}
					],
					"stateMutability": "nonpayable",
					"type": "function"
				},
				{
					"inputs": [
						{
							"internalType": "address",
							"name": "from",
							"type": "address"
						},
						{
							"internalType": "address",
							"name": "to",
							"type": "address"
						},
						{
							"internalType": "uint256",
							"name": "value",
							"type": "uint256"
						}
					],
					"name": "transferFrom",
					"outputs": [
						{
							"internalType": "bool",
							"name": "",
							"type": "bool"
						}
					],
					"stateMutability": "nonpayable",
					"type": "function"
				},
				{
					"inputs": [
						{
							"internalType": "address",
							"name": "newOwner",
							"type": "address"
						}
					],
					"name": "transferOwnership",
					"outputs": [],
					"stateMutability": "nonpayable",
					"type": "function"
				},
				{
					"stateMutability": "payable",
					"type": "receive"
				}
			],
			"devdoc": {
				"events": {
					"Approval(address,address,uint256)": {
						"details": "Emitted when the allowance of a `spender` for an `owner` is set by a call to {approve}. `value` is the new allowance."
					},
					"Transfer(address,address,uint256)": {
						"details": "Emitted when `value` tokens are moved from one account (`from`) to another (`to`). Note that `value` may be zero."
					}
				},
				"kind": "dev",
				"methods": {
					"approve(address,uint256)": {
						"details": "Sets a `value` amount of tokens as the allowance of `spender` over the caller's tokens. Returns a boolean value indicating whether the operation succeeded. IMPORTANT: Beware that changing an allowance with this method brings the risk that someone may use both the old and the new allowance by unfortunate transaction ordering. One possible solution to mitigate this race condition is to first reduce the spender's allowance to 0 and set the desired value afterwards: https://github.com/ethereum/EIPs/issues/20#issuecomment-263524729 Emits an {Approval} event."
					},
					"decimals()": {
						"details": "OPTIONAL Returns the amount of decimals supported by the token"
					},
					"name()": {
						"details": "OPTIONAL Returns the name of the token"
					},
					"symbol()": {
						"details": "OPTIONAL Returns the symbol of the token"
					},
					"totalSupply()": {
						"details": "Returns the value of tokens in existence."
					},
					"transfer(address,uint256)": {
						"details": "Moves a `value` amount of tokens from the caller's account to `to`. Returns a boolean value indicating whether the operation succeeded. Emits a {Transfer} event."
					},
					"transferFrom(address,address,uint256)": {
						"details": "Moves a `value` amount of tokens from `from` to `to` using the allowance mechanism. `value` is then deducted from the caller's allowance. Returns a boolean value indicating whether the operation succeeded. Emits a {Transfer} event."
					}
				},
				"version": 1
			},
			"evm": {
				"assembly": "    /* \"contracts/BOMB_flattened.sol\":23056:28095  contract BOMB is BOMBBase {... */\n  mstore(0x40, 0x80)\n    /* \"contracts/BOMB_flattened.sol\":19593:19595  99 */\n  0x63\n    /* \"contracts/BOMB_flattened.sol\":19564:19595  uint256 public _feePercent = 99 */\n  0x03\n  sstore\n    /* \"contracts/BOMB_flattened.sol\":19638:19648  10 minutes */\n  0x0258\n    /* \"contracts/BOMB_flattened.sol\":19599:19648  uint256 public _distributionInterval = 10 minutes */\n  0x04\n  sstore\n    /* \"contracts/BOMB_flattened.sol\":20186:20191  false */\n  0x00\n    /* \"contracts/BOMB_flattened.sol\":20162:20191  bool internal _inSwap = false */\n  0x11\n  exp(0x0100, 0x14)\n  dup2\n  sload\n  dup2\n  0xff\n  mul\n  not\n  and\n  swap1\n  dup4\n  iszero\n  iszero\n  mul\n  or\n  swap1\n  sstore\n  pop\n    /* \"contracts/BOMB_flattened.sol\":23056:28095  contract BOMB is BOMBBase {... */\n  callvalue\n  dup1\n  iszero\n  tag_1\n  jumpi\n  0x00\n  dup1\n  revert\ntag_1:\n  pop\n    /* \"contracts/BOMB_flattened.sol\":20382:20386  NAME */\n  mload(0x40)\n  dup1\n  0x40\n  add\n  0x40\n  mstore\n  dup1\n  0x04\n  dup2\n  mstore\n  0x20\n  add\n  0x424f4d4200000000000000000000000000000000000000000000000000000000\n  dup2\n  mstore\n  pop\n    /* \"contracts/BOMB_flattened.sol\":20388:20391  SYM */\n  mload(0x40)\n  dup1\n  0x40\n  add\n  0x40\n  mstore\n  dup1\n  0x04\n  dup2\n  mstore\n  0x20\n  add\n  0x424f4d4200000000000000000000000000000000000000000000000000000000\n  dup2\n  mstore\n  pop\n    /* \"contracts/BOMB_flattened.sol\":19051:19052  5 */\n  0x05\n    /* \"contracts/BOMB_flattened.sol\":17504:17509  name_ */\n  dup3\n    /* \"contracts/BOMB_flattened.sol\":17496:17501  _name */\n  0x00\n    /* \"contracts/BOMB_flattened.sol\":17496:17509  _name = name_ */\n  swap1\n  dup2\n  tag_6\n  swap2\n  swap1\n  tag_7\n  jump\t// in\ntag_6:\n  pop\n    /* \"contracts/BOMB_flattened.sol\":17524:17531  symbol_ */\n  dup2\n    /* \"contracts/BOMB_flattened.sol\":17514:17521  _symbol */\n  0x01\n    /* \"contracts/BOMB_flattened.sol\":17514:17531  _symbol = symbol_ */\n  swap1\n  dup2\n  tag_8\n  swap2\n  swap1\n  tag_7\n  jump\t// in\ntag_8:\n  pop\n    /* \"contracts/BOMB_flattened.sol\":17548:17557  decimals_ */\n  dup1\n    /* \"contracts/BOMB_flattened.sol\":17536:17545  _decimals */\n  0x02\n  0x00\n    /* \"contracts/BOMB_flattened.sol\":17536:17557  _decimals = decimals_ */\n  0x0100\n  exp\n  dup2\n  sload\n  dup2\n  0xff\n  mul\n  not\n  and\n  swap1\n  dup4\n  0xff\n  and\n  mul\n  or\n  swap1\n  sstore\n  pop\n    /* \"contracts/BOMB_flattened.sol\":17418:17562  constructor(string memory name_, string memory symbol_, uint8 decimals_) {... */\n  pop\n  pop\n  pop\n    /* \"contracts/BOMB_flattened.sol\":18101:18111  msg.sender */\n  caller\n    /* \"contracts/BOMB_flattened.sol\":18092:18098  _owner */\n  0x02\n  0x01\n    /* \"contracts/BOMB_flattened.sol\":18092:18111  _owner = msg.sender */\n  0x0100\n  exp\n  dup2\n  sload\n  dup2\n  0xffffffffffffffffffffffffffffffffffffffff\n  mul\n  not\n  and\n  swap1\n  dup4\n  0xffffffffffffffffffffffffffffffffffffffff\n  and\n  mul\n  or\n  swap1\n  sstore\n  pop\n    /* \"contracts/BOMB_flattened.sol\":19051:19052  5 */\n  0x05\n    /* \"contracts/BOMB_flattened.sol\":19287:19289  10 */\n  0x0a\n    /* \"contracts/BOMB_flattened.sol\":19287:19301  10 ** DECIMALS */\n  tag_11\n  swap2\n  swap1\n  tag_12\n  jump\t// in\ntag_11:\n    /* \"contracts/BOMB_flattened.sol\":19271:19284  325 * 10 ** 3 */\n  0x04f588\n    /* \"contracts/BOMB_flattened.sol\":19271:19301  325 * 10 ** 3 * 10 ** DECIMALS */\n  tag_13\n  swap2\n  swap1\n  tag_14\n  jump\t// in\ntag_13:\n    /* \"contracts/BOMB_flattened.sol\":20418:20430  _totalSupply */\n  0x08\n    /* \"contracts/BOMB_flattened.sol\":20418:20447  _totalSupply = INITIAL_SUPPLY */\n  dup2\n  swap1\n  sstore\n  pop\n    /* \"contracts/BOMB_flattened.sol\":20475:20490  block.timestamp */\n  timestamp\n    /* \"contracts/BOMB_flattened.sol\":20452:20472  _initRebaseStartTime */\n  0x06\n    /* \"contracts/BOMB_flattened.sol\":20452:20490  _initRebaseStartTime = block.timestamp */\n  dup2\n  swap1\n  sstore\n  pop\n    /* \"contracts/BOMB_flattened.sol\":20514:20529  block.timestamp */\n  timestamp\n    /* \"contracts/BOMB_flattened.sol\":20495:20511  _lastRebasedTime */\n  0x07\n    /* \"contracts/BOMB_flattened.sol\":20495:20529  _lastRebasedTime = block.timestamp */\n  dup2\n  swap1\n  sstore\n  pop\n    /* \"contracts/BOMB_flattened.sol\":20548:20552  true */\n  0x01\n    /* \"contracts/BOMB_flattened.sol\":20534:20545  _autoRebase */\n  0x05\n  0x00\n    /* \"contracts/BOMB_flattened.sol\":20534:20552  _autoRebase = true */\n  0x0100\n  exp\n  dup2\n  sload\n  dup2\n  0xff\n  mul\n  not\n  and\n  swap1\n  dup4\n  iszero\n  iszero\n  mul\n  or\n  swap1\n  sstore\n  pop\n    /* \"contracts/BOMB_flattened.sol\":20587:20591  true */\n  0x01\n    /* \"contracts/BOMB_flattened.sol\":20557:20569  _isFeeExempt */\n  0x0d\n    /* \"contracts/BOMB_flattened.sol\":20557:20584  _isFeeExempt[address(this)] */\n  0x00\n    /* \"contracts/BOMB_flattened.sol\":20578:20582  this */\n  address\n    /* \"contracts/BOMB_flattened.sol\":20557:20584  _isFeeExempt[address(this)] */\n  0xffffffffffffffffffffffffffffffffffffffff\n  and\n  0xffffffffffffffffffffffffffffffffffffffff\n  and\n  dup2\n  mstore\n  0x20\n  add\n  swap1\n  dup2\n  mstore\n  0x20\n  add\n  0x00\n  keccak256\n  0x00\n    /* \"contracts/BOMB_flattened.sol\":20557:20591  _isFeeExempt[address(this)] = true */\n  0x0100\n  exp\n  dup2\n  sload\n  dup2\n  0xff\n  mul\n  not\n  and\n  swap1\n  dup4\n  iszero\n  iszero\n  mul\n  or\n  swap1\n  sstore\n  pop\n    /* \"contracts/BOMB_flattened.sol\":19346:19388  0xd7f655E3376cE2D7A2b08fF01Eb3B1023191A901 */\n  0xd7f655e3376ce2d7a2b08ff01eb3b1023191a901\n    /* \"contracts/BOMB_flattened.sol\":20598:20605  _router */\n  0x10\n  0x00\n    /* \"contracts/BOMB_flattened.sol\":20598:20639  _router = IPancakeSwapRouter(ADDR_ROUTER) */\n  0x0100\n  exp\n  dup2\n  sload\n  dup2\n  0xffffffffffffffffffffffffffffffffffffffff\n  mul\n  not\n  and\n  swap1\n  dup4\n  0xffffffffffffffffffffffffffffffffffffffff\n  and\n  mul\n  or\n  swap1\n  sstore\n  pop\n    /* \"contracts/BOMB_flattened.sol\":20670:20682  _totalSupply */\n  sload(0x08)\n    /* \"contracts/BOMB_flattened.sol\":20646:20655  _balances */\n  0x0b\n    /* \"contracts/BOMB_flattened.sol\":20646:20667  _balances[msg.sender] */\n  0x00\n    /* \"contracts/BOMB_flattened.sol\":20656:20666  msg.sender */\n  caller\n    /* \"contracts/BOMB_flattened.sol\":20646:20667  _balances[msg.sender] */\n  0xffffffffffffffffffffffffffffffffffffffff\n  and\n  0xffffffffffffffffffffffffffffffffffffffff\n  and\n  dup2\n  mstore\n  0x20\n  add\n  swap1\n  dup2\n  mstore\n  0x20\n  add\n  0x00\n  keccak256\n    /* \"contracts/BOMB_flattened.sol\":20646:20682  _balances[msg.sender] = _totalSupply */\n  dup2\n  swap1\n  sstore\n  pop\n    /* \"contracts/BOMB_flattened.sol\":20716:20726  msg.sender */\n  caller\n    /* \"contracts/BOMB_flattened.sol\":20692:20741  Transfer(address(this), msg.sender, _totalSupply) */\n  0xffffffffffffffffffffffffffffffffffffffff\n  and\n    /* \"contracts/BOMB_flattened.sol\":20709:20713  this */\n  address\n    /* \"contracts/BOMB_flattened.sol\":20692:20741  Transfer(address(this), msg.sender, _totalSupply) */\n  0xffffffffffffffffffffffffffffffffffffffff\n  and\n  0xddf252ad1be2c89b69c2b068fc378daa952ba7f163c4a11628f55a4df523b3ef\n    /* \"contracts/BOMB_flattened.sol\":20728:20740  _totalSupply */\n  sload(0x08)\n    /* \"contracts/BOMB_flattened.sol\":20692:20741  Transfer(address(this), msg.sender, _totalSupply) */\n  mload(0x40)\n  tag_15\n  swap2\n  swap1\n  tag_16\n  jump\t// in\ntag_15:\n  mload(0x40)\n  dup1\n  swap2\n  sub\n  swap1\n  log3\n    /* \"contracts/BOMB_flattened.sol\":23056:28095  contract BOMB is BOMBBase {... */\n  jump(tag_17)\n    /* \"#utility.yul\":7:106   */\ntag_18:\n    /* \"#utility.yul\":59:65   */\n  0x00\n    /* \"#utility.yul\":93:98   */\n  dup2\n    /* \"#utility.yul\":87:99   */\n  mload\n    /* \"#utility.yul\":77:99   */\n  swap1\n  pop\n    /* \"#utility.yul\":7:106   */\n  swap2\n  swap1\n  pop\n  jump\t// out\n    /* \"#utility.yul\":112:292   */\ntag_19:\n    /* \"#utility.yul\":160:237   */\n  0x4e487b7100000000000000000000000000000000000000000000000000000000\n    /* \"#utility.yul\":157:158   */\n  0x00\n    /* \"#utility.yul\":150:238   */\n  mstore\n    /* \"#utility.yul\":257:261   */\n  0x41\n    /* \"#utility.yul\":254:255   */\n  0x04\n    /* \"#utility.yul\":247:262   */\n  mstore\n    /* \"#utility.yul\":281:285   */\n  0x24\n    /* \"#utility.yul\":278:279   */\n  0x00\n    /* \"#utility.yul\":271:286   */\n  revert\n    /* \"#utility.yul\":298:478   */\ntag_20:\n    /* \"#utility.yul\":346:423   */\n  0x4e487b7100000000000000000000000000000000000000000000000000000000\n    /* \"#utility.yul\":343:344   */\n  0x00\n    /* \"#utility.yul\":336:424   */\n  mstore\n    /* \"#utility.yul\":443:447   */\n  0x22\n    /* \"#utility.yul\":440:441   */\n  0x04\n    /* \"#utility.yul\":433:448   */\n  mstore\n    /* \"#utility.yul\":467:471   */\n  0x24\n    /* \"#utility.yul\":464:465   */\n  0x00\n    /* \"#utility.yul\":457:472   */\n  revert\n    /* \"#utility.yul\":484:804   */\ntag_21:\n    /* \"#utility.yul\":528:534   */\n  0x00\n    /* \"#utility.yul\":565:566   */\n  0x02\n    /* \"#utility.yul\":559:563   */\n  dup3\n    /* \"#utility.yul\":555:567   */\n  div\n    /* \"#utility.yul\":545:567   */\n  swap1\n  pop\n    /* \"#utility.yul\":612:613   */\n  0x01\n    /* \"#utility.yul\":606:610   */\n  dup3\n    /* \"#utility.yul\":602:614   */\n  and\n    /* \"#utility.yul\":633:651   */\n  dup1\n    /* \"#utility.yul\":623:704   */\n  tag_49\n  jumpi\n    /* \"#utility.yul\":689:693   */\n  0x7f\n    /* \"#utility.yul\":681:687   */\n  dup3\n    /* \"#utility.yul\":677:694   */\n  and\n    /* \"#utility.yul\":667:694   */\n  swap2\n  pop\n    /* \"#utility.yul\":623:704   */\ntag_49:\n    /* \"#utility.yul\":751:753   */\n  0x20\n    /* \"#utility.yul\":743:749   */\n  dup3\n    /* \"#utility.yul\":740:754   */\n  lt\n    /* \"#utility.yul\":720:738   */\n  dup2\n    /* \"#utility.yul\":717:755   */\n  sub\n    /* \"#utility.yul\":714:798   */\n  tag_50\n  jumpi\n    /* \"#utility.yul\":770:788   */\n  tag_51\n  tag_20\n  jump\t// in\ntag_51:\n    /* \"#utility.yul\":714:798   */\ntag_50:\n    /* \"#utility.yul\":535:804   */\n  pop\n    /* \"#utility.yul\":484:804   */\n  swap2\n  swap1\n  pop\n  jump\t// out\n    /* \"#utility.yul\":810:951   */\ntag_22:\n    /* \"#utility.yul\":859:863   */\n  0x00\n    /* \"#utility.yul\":882:885   */\n  dup2\n    /* \"#utility.yul\":874:885   */\n  swap1\n  pop\n    /* \"#utility.yul\":905:908   */\n  dup2\n    /* \"#utility.yul\":902:903   */\n  0x00\n    /* \"#utility.yul\":895:909   */\n  mstore\n    /* \"#utility.yul\":939:943   */\n  0x20\n    /* \"#utility.yul\":936:937   */\n  0x00\n    /* \"#utility.yul\":926:944   */\n  keccak256\n    /* \"#utility.yul\":918:944   */\n  swap1\n  pop\n    /* \"#utility.yul\":810:951   */\n  swap2\n  swap1\n  pop\n  jump\t// out\n    /* \"#utility.yul\":957:1050   */\ntag_23:\n    /* \"#utility.yul\":994:1000   */\n  0x00\n    /* \"#utility.yul\":1041:1043   */\n  0x20\n    /* \"#utility.yul\":1036:1038   */\n  0x1f\n    /* \"#utility.yul\":1029:1034   */\n  dup4\n    /* \"#utility.yul\":1025:1039   */\n  add\n    /* \"#utility.yul\":1021:1044   */\n  div\n    /* \"#utility.yul\":1011:1044   */\n  swap1\n  pop\n    /* \"#utility.yul\":957:1050   */\n  swap2\n  swap1\n  pop\n  jump\t// out\n    /* \"#utility.yul\":1056:1163   */\ntag_24:\n    /* \"#utility.yul\":1100:1108   */\n  0x00\n    /* \"#utility.yul\":1150:1155   */\n  dup3\n    /* \"#utility.yul\":1144:1148   */\n  dup3\n    /* \"#utility.yul\":1140:1156   */\n  shl\n    /* \"#utility.yul\":1119:1156   */\n  swap1\n  pop\n    /* \"#utility.yul\":1056:1163   */\n  swap3\n  swap2\n  pop\n  pop\n  jump\t// out\n    /* \"#utility.yul\":1169:1562   */\ntag_25:\n    /* \"#utility.yul\":1238:1244   */\n  0x00\n    /* \"#utility.yul\":1288:1289   */\n  0x08\n    /* \"#utility.yul\":1276:1286   */\n  dup4\n    /* \"#utility.yul\":1272:1290   */\n  mul\n    /* \"#utility.yul\":1311:1408   */\n  tag_56\n    /* \"#utility.yul\":1341:1407   */\n  0xffffffffffffffffffffffffffffffffffffffffffffffffffffffffffffffff\n    /* \"#utility.yul\":1330:1339   */\n  dup3\n    /* \"#utility.yul\":1311:1408   */\n  tag_24\n  jump\t// in\ntag_56:\n    /* \"#utility.yul\":1429:1468   */\n  tag_57\n    /* \"#utility.yul\":1459:1467   */\n  dup7\n    /* \"#utility.yul\":1448:1457   */\n  dup4\n    /* \"#utility.yul\":1429:1468   */\n  tag_24\n  jump\t// in\ntag_57:\n    /* \"#utility.yul\":1417:1468   */\n  swap6\n  pop\n    /* \"#utility.yul\":1501:1505   */\n  dup1\n    /* \"#utility.yul\":1497:1506   */\n  not\n    /* \"#utility.yul\":1490:1495   */\n  dup5\n    /* \"#utility.yul\":1486:1507   */\n  and\n    /* \"#utility.yul\":1477:1507   */\n  swap4\n  pop\n    /* \"#utility.yul\":1550:1554   */\n  dup1\n    /* \"#utility.yul\":1540:1548   */\n  dup7\n    /* \"#utility.yul\":1536:1555   */\n  and\n    /* \"#utility.yul\":1529:1534   */\n  dup5\n    /* \"#utility.yul\":1526:1556   */\n  or\n    /* \"#utility.yul\":1516:1556   */\n  swap3\n  pop\n    /* \"#utility.yul\":1245:1562   */\n  pop\n  pop\n    /* \"#utility.yul\":1169:1562   */\n  swap4\n  swap3\n  pop\n  pop\n  pop\n  jump\t// out\n    /* \"#utility.yul\":1568:1645   */\ntag_26:\n    /* \"#utility.yul\":1605:1612   */\n  0x00\n    /* \"#utility.yul\":1634:1639   */\n  dup2\n    /* \"#utility.yul\":1623:1639   */\n  swap1\n  pop\n    /* \"#utility.yul\":1568:1645   */\n  swap2\n  swap1\n  pop\n  jump\t// out\n    /* \"#utility.yul\":1651:1711   */\ntag_27:\n    /* \"#utility.yul\":1679:1682   */\n  0x00\n    /* \"#utility.yul\":1700:1705   */\n  dup2\n    /* \"#utility.yul\":1693:1705   */\n  swap1\n  pop\n    /* \"#utility.yul\":1651:1711   */\n  swap2\n  swap1\n  pop\n  jump\t// out\n    /* \"#utility.yul\":1717:1859   */\ntag_28:\n    /* \"#utility.yul\":1767:1776   */\n  0x00\n    /* \"#utility.yul\":1800:1853   */\n  tag_61\n    /* \"#utility.yul\":1818:1852   */\n  tag_62\n    /* \"#utility.yul\":1827:1851   */\n  tag_63\n    /* \"#utility.yul\":1845:1850   */\n  dup5\n    /* \"#utility.yul\":1827:1851   */\n  tag_26\n  jump\t// in\ntag_63:\n    /* \"#utility.yul\":1818:1852   */\n  tag_27\n  jump\t// in\ntag_62:\n    /* \"#utility.yul\":1800:1853   */\n  tag_26\n  jump\t// in\ntag_61:\n    /* \"#utility.yul\":1787:1853   */\n  swap1\n  pop\n    /* \"#utility.yul\":1717:1859   */\n  swap2\n  swap1\n  pop\n  jump\t// out\n    /* \"#utility.yul\":1865:1940   */\ntag_29:\n    /* \"#utility.yul\":1908:1911   */\n  0x00\n    /* \"#utility.yul\":1929:1934   */\n  dup2\n    /* \"#utility.yul\":1922:1934   */\n  swap1\n  pop\n    /* \"#utility.yul\":1865:1940   */\n  swap2\n  swap1\n  pop\n  jump\t// out\n    /* \"#utility.yul\":1946:2215   */\ntag_30:\n    /* \"#utility.yul\":2056:2095   */\n  tag_66\n    /* \"#utility.yul\":2087:2094   */\n  dup4\n    /* \"#utility.yul\":2056:2095   */\n  tag_28\n  jump\t// in\ntag_66:\n    /* \"#utility.yul\":2117:2208   */\n  tag_67\n    /* \"#utility.yul\":2166:2207   */\n  tag_68\n    /* \"#utility.yul\":2190:2206   */\n  dup3\n    /* \"#utility.yul\":2166:2207   */\n  tag_29\n  jump\t// in\ntag_68:\n    /* \"#utility.yul\":2158:2164   */\n  dup5\n    /* \"#utility.yul\":2151:2155   */\n  dup5\n    /* \"#utility.yul\":2145:2156   */\n  sload\n    /* \"#utility.yul\":2117:2208   */\n  tag_25\n  jump\t// in\ntag_67:\n    /* \"#utility.yul\":2111:2115   */\n  dup3\n    /* \"#utility.yul\":2104:2209   */\n  sstore\n    /* \"#utility.yul\":2022:2215   */\n  pop\n    /* \"#utility.yul\":1946:2215   */\n  pop\n  pop\n  pop\n  jump\t// out\n    /* \"#utility.yul\":2221:2294   */\ntag_31:\n    /* \"#utility.yul\":2266:2269   */\n  0x00\n    /* \"#utility.yul\":2221:2294   */\n  swap1\n  jump\t// out\n    /* \"#utility.yul\":2300:2489   */\ntag_32:\n    /* \"#utility.yul\":2377:2409   */\n  tag_71\n  tag_31\n  jump\t// in\ntag_71:\n    /* \"#utility.yul\":2418:2483   */\n  tag_72\n    /* \"#utility.yul\":2476:2482   */\n  dup2\n    /* \"#utility.yul\":2468:2474   */\n  dup5\n    /* \"#utility.yul\":2462:2466   */\n  dup5\n    /* \"#utility.yul\":2418:2483   */\n  tag_30\n  jump\t// in\ntag_72:\n    /* \"#utility.yul\":2353:2489   */\n  pop\n    /* \"#utility.yul\":2300:2489   */\n  pop\n  pop\n  jump\t// out\n    /* \"#utility.yul\":2495:2681   */\ntag_33:\n    /* \"#utility.yul\":2555:2675   */\ntag_74:\n    /* \"#utility.yul\":2572:2575   */\n  dup2\n    /* \"#utility.yul\":2565:2570   */\n  dup2\n    /* \"#utility.yul\":2562:2576   */\n  lt\n    /* \"#utility.yul\":2555:2675   */\n  iszero\n  tag_76\n  jumpi\n    /* \"#utility.yul\":2626:2665   */\n  tag_77\n    /* \"#utility.yul\":2663:2664   */\n  0x00\n    /* \"#utility.yul\":2656:2661   */\n  dup3\n    /* \"#utility.yul\":2626:2665   */\n  tag_32\n  jump\t// in\ntag_77:\n    /* \"#utility.yul\":2599:2600   */\n  0x01\n    /* \"#utility.yul\":2592:2597   */\n  dup2\n    /* \"#utility.yul\":2588:2601   */\n  add\n    /* \"#utility.yul\":2579:2601   */\n  swap1\n  pop\n    /* \"#utility.yul\":2555:2675   */\n  jump(tag_74)\ntag_76:\n    /* \"#utility.yul\":2495:2681   */\n  pop\n  pop\n  jump\t// out\n    /* \"#utility.yul\":2687:3230   */\ntag_34:\n    /* \"#utility.yul\":2788:2790   */\n  0x1f\n    /* \"#utility.yul\":2783:2786   */\n  dup3\n    /* \"#utility.yul\":2780:2791   */\n  gt\n    /* \"#utility.yul\":2777:3223   */\n  iszero\n  tag_79\n  jumpi\n    /* \"#utility.yul\":2822:2860   */\n  tag_80\n    /* \"#utility.yul\":2854:2859   */\n  dup2\n    /* \"#utility.yul\":2822:2860   */\n  tag_22\n  jump\t// in\ntag_80:\n    /* \"#utility.yul\":2906:2935   */\n  tag_81\n    /* \"#utility.yul\":2924:2934   */\n  dup5\n    /* \"#utility.yul\":2906:2935   */\n  tag_23\n  jump\t// in\ntag_81:\n    /* \"#utility.yul\":2896:2904   */\n  dup2\n    /* \"#utility.yul\":2892:2936   */\n  add\n    /* \"#utility.yul\":3089:3091   */\n  0x20\n    /* \"#utility.yul\":3077:3087   */\n  dup6\n    /* \"#utility.yul\":3074:3092   */\n  lt\n    /* \"#utility.yul\":3071:3120   */\n  iszero\n  tag_82\n  jumpi\n    /* \"#utility.yul\":3110:3118   */\n  dup2\n    /* \"#utility.yul\":3095:3118   */\n  swap1\n  pop\n    /* \"#utility.yul\":3071:3120   */\ntag_82:\n    /* \"#utility.yul\":3133:3213   */\n  tag_83\n    /* \"#utility.yul\":3189:3211   */\n  tag_84\n    /* \"#utility.yul\":3207:3210   */\n  dup6\n    /* \"#utility.yul\":3189:3211   */\n  tag_23\n  jump\t// in\ntag_84:\n    /* \"#utility.yul\":3179:3187   */\n  dup4\n    /* \"#utility.yul\":3175:3212   */\n  add\n    /* \"#utility.yul\":3162:3173   */\n  dup3\n    /* \"#utility.yul\":3133:3213   */\n  tag_33\n  jump\t// in\ntag_83:\n    /* \"#utility.yul\":2792:3223   */\n  pop\n  pop\n    /* \"#utility.yul\":2777:3223   */\ntag_79:\n    /* \"#utility.yul\":2687:3230   */\n  pop\n  pop\n  pop\n  jump\t// out\n    /* \"#utility.yul\":3236:3353   */\ntag_35:\n    /* \"#utility.yul\":3290:3298   */\n  0x00\n    /* \"#utility.yul\":3340:3345   */\n  dup3\n    /* \"#utility.yul\":3334:3338   */\n  dup3\n    /* \"#utility.yul\":3330:3346   */\n  shr\n    /* \"#utility.yul\":3309:3346   */\n  swap1\n  pop\n    /* \"#utility.yul\":3236:3353   */\n  swap3\n  swap2\n  pop\n  pop\n  jump\t// out\n    /* \"#utility.yul\":3359:3528   */\ntag_36:\n    /* \"#utility.yul\":3403:3409   */\n  0x00\n    /* \"#utility.yul\":3436:3487   */\n  tag_87\n    /* \"#utility.yul\":3484:3485   */\n  0x00\n    /* \"#utility.yul\":3480:3486   */\n  not\n    /* \"#utility.yul\":3472:3477   */\n  dup5\n    /* \"#utility.yul\":3469:3470   */\n  0x08\n    /* \"#utility.yul\":3465:3478   */\n  mul\n    /* \"#utility.yul\":3436:3487   */\n  tag_35\n  jump\t// in\ntag_87:\n    /* \"#utility.yul\":3432:3488   */\n  not\n    /* \"#utility.yul\":3517:3521   */\n  dup1\n    /* \"#utility.yul\":3511:3515   */\n  dup4\n    /* \"#utility.yul\":3507:3522   */\n  and\n    /* \"#utility.yul\":3497:3522   */\n  swap2\n  pop\n    /* \"#utility.yul\":3410:3528   */\n  pop\n    /* \"#utility.yul\":3359:3528   */\n  swap3\n  swap2\n  pop\n  pop\n  jump\t// out\n    /* \"#utility.yul\":3533:3828   */\ntag_37:\n    /* \"#utility.yul\":3609:3613   */\n  0x00\n    /* \"#utility.yul\":3755:3784   */\n  tag_89\n    /* \"#utility.yul\":3780:3783   */\n  dup4\n    /* \"#utility.yul\":3774:3778   */\n  dup4\n    /* \"#utility.yul\":3755:3784   */\n  tag_36\n  jump\t// in\ntag_89:\n    /* \"#utility.yul\":3747:3784   */\n  swap2\n  pop\n    /* \"#utility.yul\":3817:3820   */\n  dup3\n    /* \"#utility.yul\":3814:3815   */\n  0x02\n    /* \"#utility.yul\":3810:3821   */\n  mul\n    /* \"#utility.yul\":3804:3808   */\n  dup3\n    /* \"#utility.yul\":3801:3822   */\n  or\n    /* \"#utility.yul\":3793:3822   */\n  swap1\n  pop\n    /* \"#utility.yul\":3533:3828   */\n  swap3\n  swap2\n  pop\n  pop\n  jump\t// out\n    /* \"#utility.yul\":3833:5228   */\ntag_7:\n    /* \"#utility.yul\":3950:3987   */\n  tag_91\n    /* \"#utility.yul\":3983:3986   */\n  dup3\n    /* \"#utility.yul\":3950:3987   */\n  tag_18\n  jump\t// in\ntag_91:\n    /* \"#utility.yul\":4052:4070   */\n  0xffffffffffffffff\n    /* \"#utility.yul\":4044:4050   */\n  dup2\n    /* \"#utility.yul\":4041:4071   */\n  gt\n    /* \"#utility.yul\":4038:4094   */\n  iszero\n  tag_92\n  jumpi\n    /* \"#utility.yul\":4074:4092   */\n  tag_93\n  tag_19\n  jump\t// in\ntag_93:\n    /* \"#utility.yul\":4038:4094   */\ntag_92:\n    /* \"#utility.yul\":4118:4156   */\n  tag_94\n    /* \"#utility.yul\":4150:4154   */\n  dup3\n    /* \"#utility.yul\":4144:4155   */\n  sload\n    /* \"#utility.yul\":4118:4156   */\n  tag_21\n  jump\t// in\ntag_94:\n    /* \"#utility.yul\":4203:4270   */\n  tag_95\n    /* \"#utility.yul\":4263:4269   */\n  dup3\n    /* \"#utility.yul\":4255:4261   */\n  dup3\n    /* \"#utility.yul\":4249:4253   */\n  dup6\n    /* \"#utility.yul\":4203:4270   */\n  tag_34\n  jump\t// in\ntag_95:\n    /* \"#utility.yul\":4297:4298   */\n  0x00\n    /* \"#utility.yul\":4321:4325   */\n  0x20\n    /* \"#utility.yul\":4308:4325   */\n  swap1\n  pop\n    /* \"#utility.yul\":4353:4355   */\n  0x1f\n    /* \"#utility.yul\":4345:4351   */\n  dup4\n    /* \"#utility.yul\":4342:4356   */\n  gt\n    /* \"#utility.yul\":4370:4371   */\n  0x01\n    /* \"#utility.yul\":4365:4983   */\n  dup2\n  eq\n  tag_97\n  jumpi\n    /* \"#utility.yul\":5027:5028   */\n  0x00\n    /* \"#utility.yul\":5044:5050   */\n  dup5\n    /* \"#utility.yul\":5041:5118   */\n  iszero\n  tag_98\n  jumpi\n    /* \"#utility.yul\":5093:5102   */\n  dup3\n    /* \"#utility.yul\":5088:5091   */\n  dup8\n    /* \"#utility.yul\":5084:5103   */\n  add\n    /* \"#utility.yul\":5078:5104   */\n  mload\n    /* \"#utility.yul\":5069:5104   */\n  swap1\n  pop\n    /* \"#utility.yul\":5041:5118   */\ntag_98:\n    /* \"#utility.yul\":5144:5211   */\n  tag_99\n    /* \"#utility.yul\":5204:5210   */\n  dup6\n    /* \"#utility.yul\":5197:5202   */\n  dup3\n    /* \"#utility.yul\":5144:5211   */\n  tag_37\n  jump\t// in\ntag_99:\n    /* \"#utility.yul\":5138:5142   */\n  dup7\n    /* \"#utility.yul\":5131:5212   */\n  sstore\n    /* \"#utility.yul\":5000:5222   */\n  pop\n    /* \"#utility.yul\":4335:5222   */\n  jump(tag_96)\n    /* \"#utility.yul\":4365:4983   */\ntag_97:\n    /* \"#utility.yul\":4417:4421   */\n  0x1f\n    /* \"#utility.yul\":4413:4422   */\n  not\n    /* \"#utility.yul\":4405:4411   */\n  dup5\n    /* \"#utility.yul\":4401:4423   */\n  and\n    /* \"#utility.yul\":4451:4488   */\n  tag_100\n    /* \"#utility.yul\":4483:4487   */\n  dup7\n    /* \"#utility.yul\":4451:4488   */\n  tag_22\n  jump\t// in\ntag_100:\n    /* \"#utility.yul\":4510:4511   */\n  0x00\n    /* \"#utility.yul\":4524:4732   */\ntag_101:\n    /* \"#utility.yul\":4538:4545   */\n  dup3\n    /* \"#utility.yul\":4535:4536   */\n  dup2\n    /* \"#utility.yul\":4532:4546   */\n  lt\n    /* \"#utility.yul\":4524:4732   */\n  iszero\n  tag_103\n  jumpi\n    /* \"#utility.yul\":4617:4626   */\n  dup5\n    /* \"#utility.yul\":4612:4615   */\n  dup10\n    /* \"#utility.yul\":4608:4627   */\n  add\n    /* \"#utility.yul\":4602:4628   */\n  mload\n    /* \"#utility.yul\":4594:4600   */\n  dup3\n    /* \"#utility.yul\":4587:4629   */\n  sstore\n    /* \"#utility.yul\":4668:4669   */\n  0x01\n    /* \"#utility.yul\":4660:4666   */\n  dup3\n    /* \"#utility.yul\":4656:4670   */\n  add\n    /* \"#utility.yul\":4646:4670   */\n  swap2\n  pop\n    /* \"#utility.yul\":4715:4717   */\n  0x20\n    /* \"#utility.yul\":4704:4713   */\n  dup6\n    /* \"#utility.yul\":4700:4718   */\n  add\n    /* \"#utility.yul\":4687:4718   */\n  swap5\n  pop\n    /* \"#utility.yul\":4561:4565   */\n  0x20\n    /* \"#utility.yul\":4558:4559   */\n  dup2\n    /* \"#utility.yul\":4554:4566   */\n  add\n    /* \"#utility.yul\":4549:4566   */\n  swap1\n  pop\n    /* \"#utility.yul\":4524:4732   */\n  jump(tag_101)\ntag_103:\n    /* \"#utility.yul\":4760:4766   */\n  dup7\n    /* \"#utility.yul\":4751:4758   */\n  dup4\n    /* \"#utility.yul\":4748:4767   */\n  lt\n    /* \"#utility.yul\":4745:4924   */\n  iszero\n  tag_104\n  jumpi\n    /* \"#utility.yul\":4818:4827   */\n  dup5\n    /* \"#utility.yul\":4813:4816   */\n  dup10\n    /* \"#utility.yul\":4809:4828   */\n  add\n    /* \"#utility.yul\":4803:4829   */\n  mload\n    /* \"#utility.yul\":4861:4909   */\n  tag_105\n    /* \"#utility.yul\":4903:4907   */\n  0x1f\n    /* \"#utility.yul\":4895:4901   */\n  dup10\n    /* \"#utility.yul\":4891:4908   */\n  and\n    /* \"#utility.yul\":4880:4889   */\n  dup3\n    /* \"#utility.yul\":4861:4909   */\n  tag_36\n  jump\t// in\ntag_105:\n    /* \"#utility.yul\":4853:4859   */\n  dup4\n    /* \"#utility.yul\":4846:4910   */\n  sstore\n    /* \"#utility.yul\":4768:4924   */\n  pop\n    /* \"#utility.yul\":4745:4924   */\ntag_104:\n    /* \"#utility.yul\":4970:4971   */\n  0x01\n    /* \"#utility.yul\":4966:4967   */\n  0x02\n    /* \"#utility.yul\":4958:4964   */\n  dup9\n    /* \"#utility.yul\":4954:4968   */\n  mul\n    /* \"#utility.yul\":4950:4972   */\n  add\n    /* \"#utility.yul\":4944:4948   */\n  dup9\n    /* \"#utility.yul\":4937:4973   */\n  sstore\n    /* \"#utility.yul\":4372:4983   */\n  pop\n  pop\n  pop\n    /* \"#utility.yul\":4335:5222   */\ntag_96:\n  pop\n    /* \"#utility.yul\":3925:5228   */\n  pop\n  pop\n  pop\n    /* \"#utility.yul\":3833:5228   */\n  pop\n  pop\n  jump\t// out\n    /* \"#utility.yul\":5234:5414   */\ntag_38:\n    /* \"#utility.yul\":5282:5359   */\n  0x4e487b7100000000000000000000000000000000000000000000000000000000\n    /* \"#utility.yul\":5279:5280   */\n  0x00\n    /* \"#utility.yul\":5272:5360   */\n  mstore\n    /* \"#utility.yul\":5379:5383   */\n  0x11\n    /* \"#utility.yul\":5376:5377   */\n  0x04\n    /* \"#utility.yul\":5369:5384   */\n  mstore\n    /* \"#utility.yul\":5403:5407   */\n  0x24\n    /* \"#utility.yul\":5400:5401   */\n  0x00\n    /* \"#utility.yul\":5393:5408   */\n  revert\n    /* \"#utility.yul\":5420:5522   */\ntag_39:\n    /* \"#utility.yul\":5462:5470   */\n  0x00\n    /* \"#utility.yul\":5509:5514   */\n  dup2\n    /* \"#utility.yul\":5506:5507   */\n  0x01\n    /* \"#utility.yul\":5502:5515   */\n  shr\n    /* \"#utility.yul\":5481:5515   */\n  swap1\n  pop\n    /* \"#utility.yul\":5420:5522   */\n  swap2\n  swap1\n  pop\n  jump\t// out\n    /* \"#utility.yul\":5528:6376   */\ntag_40:\n    /* \"#utility.yul\":5589:5594   */\n  0x00\n    /* \"#utility.yul\":5596:5600   */\n  dup1\n    /* \"#utility.yul\":5620:5626   */\n  dup3\n    /* \"#utility.yul\":5611:5626   */\n  swap2\n  pop\n    /* \"#utility.yul\":5644:5649   */\n  dup4\n    /* \"#utility.yul\":5635:5649   */\n  swap1\n  pop\n    /* \"#utility.yul\":5658:6370   */\ntag_109:\n    /* \"#utility.yul\":5679:5680   */\n  0x01\n    /* \"#utility.yul\":5669:5677   */\n  dup6\n    /* \"#utility.yul\":5666:5681   */\n  gt\n    /* \"#utility.yul\":5658:6370   */\n  iszero\n  tag_111\n  jumpi\n    /* \"#utility.yul\":5774:5778   */\n  dup1\n    /* \"#utility.yul\":5769:5772   */\n  dup7\n    /* \"#utility.yul\":5765:5779   */\n  div\n    /* \"#utility.yul\":5759:5763   */\n  dup2\n    /* \"#utility.yul\":5756:5780   */\n  gt\n    /* \"#utility.yul\":5753:5803   */\n  iszero\n  tag_112\n  jumpi\n    /* \"#utility.yul\":5783:5801   */\n  tag_113\n  tag_38\n  jump\t// in\ntag_113:\n    /* \"#utility.yul\":5753:5803   */\ntag_112:\n    /* \"#utility.yul\":5833:5834   */\n  0x01\n    /* \"#utility.yul\":5823:5831   */\n  dup6\n    /* \"#utility.yul\":5819:5835   */\n  and\n    /* \"#utility.yul\":5816:6267   */\n  iszero\n  tag_114\n  jumpi\n    /* \"#utility.yul\":6248:6252   */\n  dup1\n    /* \"#utility.yul\":6241:6246   */\n  dup3\n    /* \"#utility.yul\":6237:6253   */\n  mul\n    /* \"#utility.yul\":6228:6253   */\n  swap2\n  pop\n    /* \"#utility.yul\":5816:6267   */\ntag_114:\n    /* \"#utility.yul\":6298:6302   */\n  dup1\n    /* \"#utility.yul\":6292:6296   */\n  dup2\n    /* \"#utility.yul\":6288:6303   */\n  mul\n    /* \"#utility.yul\":6280:6303   */\n  swap1\n  pop\n    /* \"#utility.yul\":6328:6360   */\n  tag_115\n    /* \"#utility.yul\":6351:6359   */\n  dup6\n    /* \"#utility.yul\":6328:6360   */\n  tag_39\n  jump\t// in\ntag_115:\n    /* \"#utility.yul\":6316:6360   */\n  swap5\n  pop\n    /* \"#utility.yul\":5658:6370   */\n  jump(tag_109)\ntag_111:\n    /* \"#utility.yul\":5528:6376   */\n  swap5\n  pop\n  swap5\n  swap3\n  pop\n  pop\n  pop\n  jump\t// out\n    /* \"#utility.yul\":6382:7455   */\ntag_41:\n    /* \"#utility.yul\":6436:6441   */\n  0x00\n    /* \"#utility.yul\":6627:6635   */\n  dup3\n    /* \"#utility.yul\":6617:6657   */\n  tag_117\n  jumpi\n    /* \"#utility.yul\":6648:6649   */\n  0x01\n    /* \"#utility.yul\":6639:6649   */\n  swap1\n  pop\n    /* \"#utility.yul\":6650:6655   */\n  jump(tag_116)\n    /* \"#utility.yul\":6617:6657   */\ntag_117:\n    /* \"#utility.yul\":6676:6680   */\n  dup2\n    /* \"#utility.yul\":6666:6702   */\n  tag_118\n  jumpi\n    /* \"#utility.yul\":6693:6694   */\n  0x00\n    /* \"#utility.yul\":6684:6694   */\n  swap1\n  pop\n    /* \"#utility.yul\":6695:6700   */\n  jump(tag_116)\n    /* \"#utility.yul\":6666:6702   */\ntag_118:\n    /* \"#utility.yul\":6762:6766   */\n  dup2\n    /* \"#utility.yul\":6810:6811   */\n  0x01\n    /* \"#utility.yul\":6805:6832   */\n  dup2\n  eq\n  tag_120\n  jumpi\n    /* \"#utility.yul\":6846:6847   */\n  0x02\n    /* \"#utility.yul\":6841:7032   */\n  dup2\n  eq\n  tag_121\n  jumpi\n    /* \"#utility.yul\":6755:7032   */\n  jump(tag_119)\n    /* \"#utility.yul\":6805:6832   */\ntag_120:\n    /* \"#utility.yul\":6823:6824   */\n  0x01\n    /* \"#utility.yul\":6814:6824   */\n  swap2\n  pop\n    /* \"#utility.yul\":6825:6830   */\n  pop\n  jump(tag_116)\n    /* \"#utility.yul\":6841:7032   */\ntag_121:\n    /* \"#utility.yul\":6886:6889   */\n  0xff\n    /* \"#utility.yul\":6876:6884   */\n  dup5\n    /* \"#utility.yul\":6873:6890   */\n  gt\n    /* \"#utility.yul\":6870:6913   */\n  iszero\n  tag_122\n  jumpi\n    /* \"#utility.yul\":6893:6911   */\n  tag_123\n  tag_38\n  jump\t// in\ntag_123:\n    /* \"#utility.yul\":6870:6913   */\ntag_122:\n    /* \"#utility.yul\":6942:6950   */\n  dup4\n    /* \"#utility.yul\":6939:6940   */\n  0x02\n    /* \"#utility.yul\":6935:6951   */\n  exp\n    /* \"#utility.yul\":6926:6951   */\n  swap2\n  pop\n    /* \"#utility.yul\":6977:6980   */\n  dup5\n    /* \"#utility.yul\":6970:6975   */\n  dup3\n    /* \"#utility.yul\":6967:6981   */\n  gt\n    /* \"#utility.yul\":6964:7004   */\n  iszero\n  tag_124\n  jumpi\n    /* \"#utility.yul\":6984:7002   */\n  tag_125\n  tag_38\n  jump\t// in\ntag_125:\n    /* \"#utility.yul\":6964:7004   */\ntag_124:\n    /* \"#utility.yul\":7017:7022   */\n  pop\n  jump(tag_116)\n    /* \"#utility.yul\":6755:7032   */\ntag_119:\n  pop\n    /* \"#utility.yul\":7141:7143   */\n  0x20\n    /* \"#utility.yul\":7131:7139   */\n  dup4\n    /* \"#utility.yul\":7128:7144   */\n  lt\n    /* \"#utility.yul\":7122:7125   */\n  0x0133\n    /* \"#utility.yul\":7116:7120   */\n  dup4\n    /* \"#utility.yul\":7113:7126   */\n  lt\n    /* \"#utility.yul\":7109:7145   */\n  and\n    /* \"#utility.yul\":7091:7093   */\n  0x4e\n    /* \"#utility.yul\":7081:7089   */\n  dup5\n    /* \"#utility.yul\":7078:7094   */\n  lt\n    /* \"#utility.yul\":7073:7075   */\n  0x0b\n    /* \"#utility.yul\":7067:7071   */\n  dup5\n    /* \"#utility.yul\":7064:7076   */\n  lt\n    /* \"#utility.yul\":7060:7095   */\n  and\n    /* \"#utility.yul\":7044:7155   */\n  or\n    /* \"#utility.yul\":7041:7287   */\n  iszero\n  tag_126\n  jumpi\n    /* \"#utility.yul\":7197:7205   */\n  dup3\n    /* \"#utility.yul\":7191:7195   */\n  dup3\n    /* \"#utility.yul\":7187:7206   */\n  exp\n    /* \"#utility.yul\":7178:7206   */\n  swap1\n  pop\n    /* \"#utility.yul\":7232:7235   */\n  dup4\n    /* \"#utility.yul\":7225:7230   */\n  dup2\n    /* \"#utility.yul\":7222:7236   */\n  gt\n    /* \"#utility.yul\":7219:7259   */\n  iszero\n  tag_127\n  jumpi\n    /* \"#utility.yul\":7239:7257   */\n  tag_128\n  tag_38\n  jump\t// in\ntag_128:\n    /* \"#utility.yul\":7219:7259   */\ntag_127:\n    /* \"#utility.yul\":7272:7277   */\n  jump(tag_116)\n    /* \"#utility.yul\":7041:7287   */\ntag_126:\n    /* \"#utility.yul\":7312:7354   */\n  tag_129\n    /* \"#utility.yul\":7350:7353   */\n  dup5\n    /* \"#utility.yul\":7340:7348   */\n  dup5\n    /* \"#utility.yul\":7334:7338   */\n  dup5\n    /* \"#utility.yul\":7331:7332   */\n  0x01\n    /* \"#utility.yul\":7312:7354   */\n  tag_40\n  jump\t// in\ntag_129:\n    /* \"#utility.yul\":7297:7354   */\n  swap3\n  pop\n  swap1\n  pop\n    /* \"#utility.yul\":7386:7390   */\n  dup2\n    /* \"#utility.yul\":7381:7384   */\n  dup5\n    /* \"#utility.yul\":7377:7391   */\n  div\n    /* \"#utility.yul\":7370:7375   */\n  dup2\n    /* \"#utility.yul\":7367:7392   */\n  gt\n    /* \"#utility.yul\":7364:7415   */\n  iszero\n  tag_130\n  jumpi\n    /* \"#utility.yul\":7395:7413   */\n  tag_131\n  tag_38\n  jump\t// in\ntag_131:\n    /* \"#utility.yul\":7364:7415   */\ntag_130:\n    /* \"#utility.yul\":7444:7448   */\n  dup2\n    /* \"#utility.yul\":7437:7442   */\n  dup2\n    /* \"#utility.yul\":7433:7449   */\n  mul\n    /* \"#utility.yul\":7424:7449   */\n  swap1\n  pop\n    /* \"#utility.yul\":6382:7455   */\ntag_116:\n  swap4\n  swap3\n  pop\n  pop\n  pop\n  jump\t// out\n    /* \"#utility.yul\":7461:7547   */\ntag_42:\n    /* \"#utility.yul\":7496:7503   */\n  0x00\n    /* \"#utility.yul\":7536:7540   */\n  0xff\n    /* \"#utility.yul\":7529:7534   */\n  dup3\n    /* \"#utility.yul\":7525:7541   */\n  and\n    /* \"#utility.yul\":7514:7541   */\n  swap1\n  pop\n    /* \"#utility.yul\":7461:7547   */\n  swap2\n  swap1\n  pop\n  jump\t// out\n    /* \"#utility.yul\":7553:7834   */\ntag_12:\n    /* \"#utility.yul\":7611:7616   */\n  0x00\n    /* \"#utility.yul\":7635:7658   */\n  tag_134\n    /* \"#utility.yul\":7653:7657   */\n  dup3\n    /* \"#utility.yul\":7635:7658   */\n  tag_26\n  jump\t// in\ntag_134:\n    /* \"#utility.yul\":7627:7658   */\n  swap2\n  pop\n    /* \"#utility.yul\":7679:7704   */\n  tag_135\n    /* \"#utility.yul\":7695:7703   */\n  dup4\n    /* \"#utility.yul\":7679:7704   */\n  tag_42\n  jump\t// in\ntag_135:\n    /* \"#utility.yul\":7667:7704   */\n  swap3\n  pop\n    /* \"#utility.yul\":7723:7827   */\n  tag_136\n    /* \"#utility.yul\":7760:7826   */\n  0xffffffffffffffffffffffffffffffffffffffffffffffffffffffffffffffff\n    /* \"#utility.yul\":7750:7758   */\n  dup5\n    /* \"#utility.yul\":7744:7748   */\n  dup5\n    /* \"#utility.yul\":7723:7827   */\n  tag_41\n  jump\t// in\ntag_136:\n    /* \"#utility.yul\":7714:7827   */\n  swap1\n  pop\n    /* \"#utility.yul\":7553:7834   */\n  swap3\n  swap2\n  pop\n  pop\n  jump\t// out\n    /* \"#utility.yul\":7840:8250   */\ntag_14:\n    /* \"#utility.yul\":7880:7887   */\n  0x00\n    /* \"#utility.yul\":7903:7923   */\n  tag_138\n    /* \"#utility.yul\":7921:7922   */\n  dup3\n    /* \"#utility.yul\":7903:7923   */\n  tag_26\n  jump\t// in\ntag_138:\n    /* \"#utility.yul\":7898:7923   */\n  swap2\n  pop\n    /* \"#utility.yul\":7937:7957   */\n  tag_139\n    /* \"#utility.yul\":7955:7956   */\n  dup4\n    /* \"#utility.yul\":7937:7957   */\n  tag_26\n  jump\t// in\ntag_139:\n    /* \"#utility.yul\":7932:7957   */\n  swap3\n  pop\n    /* \"#utility.yul\":7992:7993   */\n  dup3\n    /* \"#utility.yul\":7989:7990   */\n  dup3\n    /* \"#utility.yul\":7985:7994   */\n  mul\n    /* \"#utility.yul\":8014:8044   */\n  tag_140\n    /* \"#utility.yul\":8032:8043   */\n  dup2\n    /* \"#utility.yul\":8014:8044   */\n  tag_26\n  jump\t// in\ntag_140:\n    /* \"#utility.yul\":8003:8044   */\n  swap2\n  pop\n    /* \"#utility.yul\":8193:8194   */\n  dup3\n    /* \"#utility.yul\":8184:8191   */\n  dup3\n    /* \"#utility.yul\":8180:8195   */\n  div\n    /* \"#utility.yul\":8177:8178   */\n  dup5\n    /* \"#utility.yul\":8174:8196   */\n  eq\n    /* \"#utility.yul\":8154:8155   */\n  dup4\n    /* \"#utility.yul\":8147:8156   */\n  iszero\n    /* \"#utility.yul\":8127:8210   */\n  or\n    /* \"#utility.yul\":8104:8243   */\n  tag_141\n  jumpi\n    /* \"#utility.yul\":8223:8241   */\n  tag_142\n  tag_38\n  jump\t// in\ntag_142:\n    /* \"#utility.yul\":8104:8243   */\ntag_141:\n    /* \"#utility.yul\":7888:8250   */\n  pop\n    /* \"#utility.yul\":7840:8250   */\n  swap3\n  swap2\n  pop\n  pop\n  jump\t// out\n    /* \"#utility.yul\":8256:8374   */\ntag_43:\n    /* \"#utility.yul\":8343:8367   */\n  tag_144\n    /* \"#utility.yul\":8361:8366   */\n  dup2\n    /* \"#utility.yul\":8343:8367   */\n  tag_26\n  jump\t// in\ntag_144:\n    /* \"#utility.yul\":8338:8341   */\n  dup3\n    /* \"#utility.yul\":8331:8368   */\n  mstore\n    /* \"#utility.yul\":8256:8374   */\n  pop\n  pop\n  jump\t// out\n    /* \"#utility.yul\":8380:8602   */\ntag_16:\n    /* \"#utility.yul\":8473:8477   */\n  0x00\n    /* \"#utility.yul\":8511:8513   */\n  0x20\n    /* \"#utility.yul\":8500:8509   */\n  dup3\n    /* \"#utility.yul\":8496:8514   */\n  add\n    /* \"#utility.yul\":8488:8514   */\n  swap1\n  pop\n    /* \"#utility.yul\":8524:8595   */\n  tag_146\n    /* \"#utility.yul\":8592:8593   */\n  0x00\n    /* \"#utility.yul\":8581:8590   */\n  dup4\n    /* \"#utility.yul\":8577:8594   */\n  add\n    /* \"#utility.yul\":8568:8574   */\n  dup5\n    /* \"#utility.yul\":8524:8595   */\n  tag_43\n  jump\t// in\ntag_146:\n    /* \"#utility.yul\":8380:8602   */\n  swap3\n  swap2\n  pop\n  pop\n  jump\t// out\n    /* \"contracts/BOMB_flattened.sol\":23056:28095  contract BOMB is BOMBBase {... */\ntag_17:\n  dataSize(sub_0)\n  dup1\n  dataOffset(sub_0)\n  0x00\n  codecopy\n  0x00\n  return\nstop\n\nsub_0: assembly {\n        /* \"contracts/BOMB_flattened.sol\":23056:28095  contract BOMB is BOMBBase {... */\n      mstore(0x40, 0x80)\n      jumpi(tag_1, lt(calldatasize, 0x04))\n      shr(0xe0, calldataload(0x00))\n      dup1\n      0x83b4ac68\n      gt\n      tag_35\n      jumpi\n      dup1\n      0xa9059cbb\n      gt\n      tag_36\n      jumpi\n      dup1\n      0xd4399790\n      gt\n      tag_37\n      jumpi\n      dup1\n      0xd4399790\n      eq\n      tag_31\n      jumpi\n      dup1\n      0xdd62ed3e\n      eq\n      tag_32\n      jumpi\n      dup1\n      0xe15beb80\n      eq\n      tag_33\n      jumpi\n      dup1\n      0xf2fde38b\n      eq\n      tag_34\n      jumpi\n      jump(tag_2)\n    tag_37:\n      dup1\n      0xa9059cbb\n      eq\n      tag_27\n      jumpi\n      dup1\n      0xae06c1b7\n      eq\n      tag_28\n      jumpi\n      dup1\n      0xafb9cf6d\n      eq\n      tag_29\n      jumpi\n      dup1\n      0xc737a49b\n      eq\n      tag_30\n      jumpi\n      jump(tag_2)\n    tag_36:\n      dup1\n      0x95d89b41\n      gt\n      tag_38\n      jumpi\n      dup1\n      0x95d89b41\n      eq\n      tag_23\n      jumpi\n      dup1\n      0x9b87676c\n      eq\n      tag_24\n      jumpi\n      dup1\n      0xa20623ce\n      eq\n      tag_25\n      jumpi\n      dup1\n      0xa457c2d7\n      eq\n      tag_26\n      jumpi\n      jump(tag_2)\n    tag_38:\n      dup1\n      0x83b4ac68\n      eq\n      tag_19\n      jumpi\n      dup1\n      0x854cff2f\n      eq\n      tag_20\n      jumpi\n      dup1\n      0x8da5cb5b\n      eq\n      tag_21\n      jumpi\n      dup1\n      0x8f32d59b\n      eq\n      tag_22\n      jumpi\n      jump(tag_2)\n    tag_35:\n      dup1\n      0x32b75683\n      gt\n      tag_39\n      jumpi\n      dup1\n      0x69222948\n      gt\n      tag_40\n      jumpi\n      dup1\n      0x69222948\n      eq\n      tag_15\n      jumpi\n      dup1\n      0x70a08231\n      eq\n      tag_16\n      jumpi\n      dup1\n      0x715018a6\n      eq\n      tag_17\n      jumpi\n      dup1\n      0x753d02a1\n      eq\n      tag_18\n      jumpi\n      jump(tag_2)\n    tag_40:\n      dup1\n      0x32b75683\n      eq\n      tag_11\n      jumpi\n      dup1\n      0x37c9be87\n      eq\n      tag_12\n      jumpi\n      dup1\n      0x39509351\n      eq\n      tag_13\n      jumpi\n      dup1\n      0x3eaaf86b\n      eq\n      tag_14\n      jumpi\n      jump(tag_2)\n    tag_39:\n      dup1\n      0x2910164a\n      gt\n      tag_41\n      jumpi\n      dup1\n      0x2910164a\n      eq\n      tag_7\n      jumpi\n      dup1\n      0x2f34d282\n      eq\n      tag_8\n      jumpi\n      dup1\n      0x313ce567\n      eq\n      tag_9\n      jumpi\n      dup1\n      0x31b216ed\n      eq\n      tag_10\n      jumpi\n      jump(tag_2)\n    tag_41:\n      dup1\n      0x06fdde03\n      eq\n      tag_3\n      jumpi\n      dup1\n      0x095ea7b3\n      eq\n      tag_4\n      jumpi\n      dup1\n      0x18160ddd\n      eq\n      tag_5\n      jumpi\n      dup1\n      0x23b872dd\n      eq\n      tag_6\n      jumpi\n      jump(tag_2)\n    tag_1:\n      jumpi(tag_2, calldatasize)\n      stop\n    tag_2:\n      0x00\n      dup1\n      revert\n        /* \"contracts/BOMB_flattened.sol\":17567:17641  function name() public view returns (string memory) {... */\n    tag_3:\n      callvalue\n      dup1\n      iszero\n      tag_44\n      jumpi\n      0x00\n      dup1\n      revert\n    tag_44:\n      pop\n      tag_45\n      tag_46\n      jump\t// in\n    tag_45:\n      mload(0x40)\n      tag_47\n      swap2\n      swap1\n      tag_48\n      jump\t// in\n    tag_47:\n      mload(0x40)\n      dup1\n      swap2\n      sub\n      swap1\n      return\n        /* \"contracts/BOMB_flattened.sol\":23746:23946  function approve(address spender, uint256 value) external override returns (bool) {... */\n    tag_4:\n      callvalue\n      dup1\n      iszero\n      tag_49\n      jumpi\n      0x00\n      dup1\n      revert\n    tag_49:\n      pop\n      tag_50\n      0x04\n      dup1\n      calldatasize\n      sub\n      dup2\n      add\n      swap1\n      tag_51\n      swap2\n      swap1\n      tag_52\n      jump\t// in\n    tag_51:\n      tag_53\n      jump\t// in\n    tag_50:\n      mload(0x40)\n      tag_54\n      swap2\n      swap1\n      tag_55\n      jump\t// in\n    tag_54:\n      mload(0x40)\n      dup1\n      swap2\n      sub\n      swap1\n      return\n        /* \"contracts/BOMB_flattened.sol\":23539:23632  function totalSupply() external view override returns (uint256) {... */\n    tag_5:\n      callvalue\n      dup1\n      iszero\n      tag_56\n      jumpi\n      0x00\n      dup1\n      revert\n    tag_56:\n      pop\n      tag_57\n      tag_58\n      jump\t// in\n    tag_57:\n      mload(0x40)\n      tag_59\n      swap2\n      swap1\n      tag_60\n      jump\t// in\n    tag_59:\n      mload(0x40)\n      dup1\n      swap2\n      sub\n      swap1\n      return\n        /* \"contracts/BOMB_flattened.sol\":24115:24483  function transferFrom(address from, address to, uint256 value) external override validRecipient(to) returns (bool) {... */\n    tag_6:\n      callvalue\n      dup1\n      iszero\n      tag_61\n      jumpi\n      0x00\n      dup1\n      revert\n    tag_61:\n      pop\n      tag_62\n      0x04\n      dup1\n      calldatasize\n      sub\n      dup2\n      add\n      swap1\n      tag_63\n      swap2\n      swap1\n      tag_64\n      jump\t// in\n    tag_63:\n      tag_65\n      jump\t// in\n    tag_62:\n      mload(0x40)\n      tag_66\n      swap2\n      swap1\n      tag_55\n      jump\t// in\n    tag_66:\n      mload(0x40)\n      dup1\n      swap2\n      sub\n      swap1\n      return\n        /* \"contracts/BOMB_flattened.sol\":22807:22917  function setDistributeInterval(uint256 interval) external onlyOwner {... */\n    tag_7:\n      callvalue\n      dup1\n      iszero\n      tag_67\n      jumpi\n      0x00\n      dup1\n      revert\n    tag_67:\n      pop\n      tag_68\n      0x04\n      dup1\n      calldatasize\n      sub\n      dup2\n      add\n      swap1\n      tag_69\n      swap2\n      swap1\n      tag_70\n      jump\t// in\n    tag_69:\n      tag_71\n      jump\t// in\n    tag_68:\n      stop\n        /* \"contracts/BOMB_flattened.sol\":22714:22802  function setLP(address addr) external onlyOwner {... */\n    tag_8:\n      callvalue\n      dup1\n      iszero\n      tag_72\n      jumpi\n      0x00\n      dup1\n      revert\n    tag_72:\n      pop\n      tag_73\n      0x04\n      dup1\n      calldatasize\n      sub\n      dup2\n      add\n      swap1\n      tag_74\n      swap2\n      swap1\n      tag_75\n      jump\t// in\n    tag_74:\n      tag_76\n      jump\t// in\n    tag_73:\n      stop\n        /* \"contracts/BOMB_flattened.sol\":17729:17803  function decimals() public view returns (uint8) {... */\n    tag_9:\n      callvalue\n      dup1\n      iszero\n      tag_77\n      jumpi\n      0x00\n      dup1\n      revert\n    tag_77:\n      pop\n      tag_78\n      tag_79\n      jump\t// in\n    tag_78:\n      mload(0x40)\n      tag_80\n      swap2\n      swap1\n      tag_81\n      jump\t// in\n    tag_80:\n      mload(0x40)\n      dup1\n      swap2\n      sub\n      swap1\n      return\n        /* \"contracts/BOMB_flattened.sol\":19830:19855  bool public _initComplete */\n    tag_10:\n      callvalue\n      dup1\n      iszero\n      tag_82\n      jumpi\n      0x00\n      dup1\n      revert\n    tag_82:\n      pop\n      tag_83\n      tag_84\n      jump\t// in\n    tag_83:\n      mload(0x40)\n      tag_85\n      swap2\n      swap1\n      tag_55\n      jump\t// in\n    tag_85:\n      mload(0x40)\n      dup1\n      swap2\n      sub\n      swap1\n      return\n        /* \"contracts/BOMB_flattened.sol\":19722:19753  uint256 public _lastRebasedTime */\n    tag_11:\n      callvalue\n      dup1\n      iszero\n      tag_86\n      jumpi\n      0x00\n      dup1\n      revert\n    tag_86:\n      pop\n      tag_87\n      tag_88\n      jump\t// in\n    tag_87:\n      mload(0x40)\n      tag_89\n      swap2\n      swap1\n      tag_60\n      jump\t// in\n    tag_89:\n      mload(0x40)\n      dup1\n      swap2\n      sub\n      swap1\n      return\n        /* \"contracts/BOMB_flattened.sol\":21680:21898  function setBotBlacklist(address _botAddress, bool _flag) external onlyOwner {... */\n    tag_12:\n      callvalue\n      dup1\n      iszero\n      tag_90\n      jumpi\n      0x00\n      dup1\n      revert\n    tag_90:\n      pop\n      tag_91\n      0x04\n      dup1\n      calldatasize\n      sub\n      dup2\n      add\n      swap1\n      tag_92\n      swap2\n      swap1\n      tag_93\n      jump\t// in\n    tag_92:\n      tag_94\n      jump\t// in\n    tag_91:\n      stop\n        /* \"contracts/BOMB_flattened.sol\":24637:24925  function increaseAllowance(address spender, uint256 addedValue) external returns (bool) {... */\n    tag_13:\n      callvalue\n      dup1\n      iszero\n      tag_95\n      jumpi\n      0x00\n      dup1\n      revert\n    tag_95:\n      pop\n      tag_96\n      0x04\n      dup1\n      calldatasize\n      sub\n      dup2\n      add\n      swap1\n      tag_97\n      swap2\n      swap1\n      tag_52\n      jump\t// in\n    tag_97:\n      tag_98\n      jump\t// in\n    tag_96:\n      mload(0x40)\n      tag_99\n      swap2\n      swap1\n      tag_55\n      jump\t// in\n    tag_99:\n      mload(0x40)\n      dup1\n      swap2\n      sub\n      swap1\n      return\n        /* \"contracts/BOMB_flattened.sol\":19757:19784  uint256 public _totalSupply */\n    tag_14:\n      callvalue\n      dup1\n      iszero\n      tag_100\n      jumpi\n      0x00\n      dup1\n      revert\n    tag_100:\n      pop\n      tag_101\n      tag_102\n      jump\t// in\n    tag_101:\n      mload(0x40)\n      tag_103\n      swap2\n      swap1\n      tag_60\n      jump\t// in\n    tag_103:\n      mload(0x40)\n      dup1\n      swap2\n      sub\n      swap1\n      return\n        /* \"contracts/BOMB_flattened.sol\":19564:19595  uint256 public _feePercent = 99 */\n    tag_15:\n      callvalue\n      dup1\n      iszero\n      tag_104\n      jumpi\n      0x00\n      dup1\n      revert\n    tag_104:\n      pop\n      tag_105\n      tag_106\n      jump\t// in\n    tag_105:\n      mload(0x40)\n      tag_107\n      swap2\n      swap1\n      tag_60\n      jump\t// in\n    tag_107:\n      mload(0x40)\n      dup1\n      swap2\n      sub\n      swap1\n      return\n        /* \"contracts/BOMB_flattened.sol\":23637:23741  function balanceOf(address who) external view override returns (uint256) {... */\n    tag_16:\n      callvalue\n      dup1\n      iszero\n      tag_108\n      jumpi\n      0x00\n      dup1\n      revert\n    tag_108:\n      pop\n      tag_109\n      0x04\n      dup1\n      calldatasize\n      sub\n      dup2\n      add\n      swap1\n      tag_110\n      swap2\n      swap1\n      tag_75\n      jump\t// in\n    tag_110:\n      tag_111\n      jump\t// in\n    tag_109:\n      mload(0x40)\n      tag_112\n      swap2\n      swap1\n      tag_60\n      jump\t// in\n    tag_112:\n      mload(0x40)\n      dup1\n      swap2\n      sub\n      swap1\n      return\n        /* \"contracts/BOMB_flattened.sol\":18344:18455  function renounceOwnership() public onlyOwner {... */\n    tag_17:\n      callvalue\n      dup1\n      iszero\n      tag_113\n      jumpi\n      0x00\n      dup1\n      revert\n    tag_113:\n      pop\n      tag_114\n      tag_115\n      jump\t// in\n    tag_114:\n      stop\n        /* \"contracts/BOMB_flattened.sol\":23454:23534  function manualSync() external {... */\n    tag_18:\n      callvalue\n      dup1\n      iszero\n      tag_116\n      jumpi\n      0x00\n      dup1\n      revert\n    tag_116:\n      pop\n      tag_117\n      tag_118\n      jump\t// in\n    tag_117:\n      stop\n        /* \"contracts/BOMB_flattened.sol\":23372:23449  function isNotInSwap() external view returns (bool) {... */\n    tag_19:\n      callvalue\n      dup1\n      iszero\n      tag_119\n      jumpi\n      0x00\n      dup1\n      revert\n    tag_119:\n      pop\n      tag_120\n      tag_121\n      jump\t// in\n    tag_120:\n      mload(0x40)\n      tag_122\n      swap2\n      swap1\n      tag_55\n      jump\t// in\n    tag_122:\n      mload(0x40)\n      dup1\n      swap2\n      sub\n      swap1\n      return\n        /* \"contracts/BOMB_flattened.sol\":21583:21675  function setWhitelist(address _addr) external onlyOwner {... */\n    tag_20:\n      callvalue\n      dup1\n      iszero\n      tag_123\n      jumpi\n      0x00\n      dup1\n      revert\n    tag_123:\n      pop\n      tag_124\n      0x04\n      dup1\n      calldatasize\n      sub\n      dup2\n      add\n      swap1\n      tag_125\n      swap2\n      swap1\n      tag_75\n      jump\t// in\n    tag_125:\n      tag_126\n      jump\t// in\n    tag_124:\n      stop\n        /* \"contracts/BOMB_flattened.sol\":18121:18191  function owner() public view returns (address) {... */\n    tag_21:\n      callvalue\n      dup1\n      iszero\n      tag_127\n      jumpi\n      0x00\n      dup1\n      revert\n    tag_127:\n      pop\n      tag_128\n      tag_129\n      jump\t// in\n    tag_128:\n      mload(0x40)\n      tag_130\n      swap2\n      swap1\n      tag_131\n      jump\t// in\n    tag_130:\n      mload(0x40)\n      dup1\n      swap2\n      sub\n      swap1\n      return\n        /* \"contracts/BOMB_flattened.sol\":18256:18339  function isOwner() public view returns (bool) {... */\n    tag_22:\n      callvalue\n      dup1\n      iszero\n      tag_132\n      jumpi\n      0x00\n      dup1\n      revert\n    tag_132:\n      pop\n      tag_133\n      tag_134\n      jump\t// in\n    tag_133:\n      mload(0x40)\n      tag_135\n      swap2\n      swap1\n      tag_55\n      jump\t// in\n    tag_135:\n      mload(0x40)\n      dup1\n      swap2\n      sub\n      swap1\n      return\n        /* \"contracts/BOMB_flattened.sol\":17646:17724  function symbol() public view returns (string memory) {... */\n    tag_23:\n      callvalue\n      dup1\n      iszero\n      tag_136\n      jumpi\n      0x00\n      dup1\n      revert\n    tag_136:\n      pop\n      tag_137\n      tag_138\n      jump\t// in\n    tag_137:\n      mload(0x40)\n      tag_139\n      swap2\n      swap1\n      tag_48\n      jump\t// in\n    tag_139:\n      mload(0x40)\n      dup1\n      swap2\n      sub\n      swap1\n      return\n        /* \"contracts/BOMB_flattened.sol\":19683:19718  uint256 public _initRebaseStartTime */\n    tag_24:\n      callvalue\n      dup1\n      iszero\n      tag_140\n      jumpi\n      0x00\n      dup1\n      revert\n    tag_140:\n      pop\n      tag_141\n      tag_142\n      jump\t// in\n    tag_141:\n      mload(0x40)\n      tag_143\n      swap2\n      swap1\n      tag_60\n      jump\t// in\n    tag_143:\n      mload(0x40)\n      dup1\n      swap2\n      sub\n      swap1\n      return\n        /* \"contracts/BOMB_flattened.sol\":20007:20049  mapping(address => bool) public _blacklist */\n    tag_25:\n      callvalue\n      dup1\n      iszero\n      tag_144\n      jumpi\n      0x00\n      dup1\n      revert\n    tag_144:\n      pop\n      tag_145\n      0x04\n      dup1\n      calldatasize\n      sub\n      dup2\n      add\n      swap1\n      tag_146\n      swap2\n      swap1\n      tag_75\n      jump\t// in\n    tag_146:\n      tag_147\n      jump\t// in\n    tag_145:\n      mload(0x40)\n      tag_148\n      swap2\n      swap1\n      tag_55\n      jump\t// in\n    tag_148:\n      mload(0x40)\n      dup1\n      swap2\n      sub\n      swap1\n      return\n        /* \"contracts/BOMB_flattened.sol\":24930:25364  function decreaseAllowance(address spender, uint256 subtractedValue) external returns (bool) {... */\n    tag_26:\n      callvalue\n      dup1\n      iszero\n      tag_149\n      jumpi\n      0x00\n      dup1\n      revert\n    tag_149:\n      pop\n      tag_150\n      0x04\n      dup1\n      calldatasize\n      sub\n      dup2\n      add\n      swap1\n      tag_151\n      swap2\n      swap1\n      tag_52\n      jump\t// in\n    tag_151:\n      tag_152\n      jump\t// in\n    tag_150:\n      mload(0x40)\n      tag_153\n      swap2\n      swap1\n      tag_55\n      jump\t// in\n    tag_153:\n      mload(0x40)\n      dup1\n      swap2\n      sub\n      swap1\n      return\n        /* \"contracts/BOMB_flattened.sol\":23951:24110  function transfer(address to, uint256 value) external override validRecipient(to) returns (bool) {... */\n    tag_27:\n      callvalue\n      dup1\n      iszero\n      tag_154\n      jumpi\n      0x00\n      dup1\n      revert\n    tag_154:\n      pop\n      tag_155\n      0x04\n      dup1\n      calldatasize\n      sub\n      dup2\n      add\n      swap1\n      tag_156\n      swap2\n      swap1\n      tag_52\n      jump\t// in\n    tag_156:\n      tag_157\n      jump\t// in\n    tag_155:\n      mload(0x40)\n      tag_158\n      swap2\n      swap1\n      tag_55\n      jump\t// in\n    tag_158:\n      mload(0x40)\n      dup1\n      swap2\n      sub\n      swap1\n      return\n        /* \"contracts/BOMB_flattened.sol\":21903:21996  function setFeePercentage(uint256 percent) external onlyOwner {... */\n    tag_28:\n      callvalue\n      dup1\n      iszero\n      tag_159\n      jumpi\n      0x00\n      dup1\n      revert\n    tag_159:\n      pop\n      tag_160\n      0x04\n      dup1\n      calldatasize\n      sub\n      dup2\n      add\n      swap1\n      tag_161\n      swap2\n      swap1\n      tag_70\n      jump\t// in\n    tag_161:\n      tag_162\n      jump\t// in\n    tag_160:\n      stop\n        /* \"contracts/BOMB_flattened.sol\":19654:19677  bool public _autoRebase */\n    tag_29:\n      callvalue\n      dup1\n      iszero\n      tag_163\n      jumpi\n      0x00\n      dup1\n      revert\n    tag_163:\n      pop\n      tag_164\n      tag_165\n      jump\t// in\n    tag_164:\n      mload(0x40)\n      tag_166\n      swap2\n      swap1\n      tag_55\n      jump\t// in\n    tag_166:\n      mload(0x40)\n      dup1\n      swap2\n      sub\n      swap1\n      return\n        /* \"contracts/BOMB_flattened.sol\":19599:19648  uint256 public _distributionInterval = 10 minutes */\n    tag_30:\n      callvalue\n      dup1\n      iszero\n      tag_167\n      jumpi\n      0x00\n      dup1\n      revert\n    tag_167:\n      pop\n      tag_168\n      tag_169\n      jump\t// in\n    tag_168:\n      mload(0x40)\n      tag_170\n      swap2\n      swap1\n      tag_60\n      jump\t// in\n    tag_170:\n      mload(0x40)\n      dup1\n      swap2\n      sub\n      swap1\n      return\n        /* \"contracts/BOMB_flattened.sol\":23263:23367  function checkFeeExempt(address _addr) external view returns (bool) {... */\n    tag_31:\n      callvalue\n      dup1\n      iszero\n      tag_171\n      jumpi\n      0x00\n      dup1\n      revert\n    tag_171:\n      pop\n      tag_172\n      0x04\n      dup1\n      calldatasize\n      sub\n      dup2\n      add\n      swap1\n      tag_173\n      swap2\n      swap1\n      tag_75\n      jump\t// in\n    tag_173:\n      tag_174\n      jump\t// in\n    tag_172:\n      mload(0x40)\n      tag_175\n      swap2\n      swap1\n      tag_55\n      jump\t// in\n    tag_175:\n      mload(0x40)\n      dup1\n      swap2\n      sub\n      swap1\n      return\n        /* \"contracts/BOMB_flattened.sol\":24488:24632  function allowance(address owner_, address spender) external view override returns (uint256) {... */\n    tag_32:\n      callvalue\n      dup1\n      iszero\n      tag_176\n      jumpi\n      0x00\n      dup1\n      revert\n    tag_176:\n      pop\n      tag_177\n      0x04\n      dup1\n      calldatasize\n      sub\n      dup2\n      add\n      swap1\n      tag_178\n      swap2\n      swap1\n      tag_179\n      jump\t// in\n    tag_178:\n      tag_180\n      jump\t// in\n    tag_177:\n      mload(0x40)\n      tag_181\n      swap2\n      swap1\n      tag_60\n      jump\t// in\n    tag_181:\n      mload(0x40)\n      dup1\n      swap2\n      sub\n      swap1\n      return\n        /* \"contracts/BOMB_flattened.sol\":21396:21578  function setAutoRebase(bool _flag) external onlyOwner {... */\n    tag_33:\n      callvalue\n      dup1\n      iszero\n      tag_182\n      jumpi\n      0x00\n      dup1\n      revert\n    tag_182:\n      pop\n      tag_183\n      0x04\n      dup1\n      calldatasize\n      sub\n      dup2\n      add\n      swap1\n      tag_184\n      swap2\n      swap1\n      tag_185\n      jump\t// in\n    tag_184:\n      tag_186\n      jump\t// in\n    tag_183:\n      stop\n        /* \"contracts/BOMB_flattened.sol\":18460:18560  function transferOwnership(address newOwner) public onlyOwner {... */\n    tag_34:\n      callvalue\n      dup1\n      iszero\n      tag_187\n      jumpi\n      0x00\n      dup1\n      revert\n    tag_187:\n      pop\n      tag_188\n      0x04\n      dup1\n      calldatasize\n      sub\n      dup2\n      add\n      swap1\n      tag_189\n      swap2\n      swap1\n      tag_75\n      jump\t// in\n    tag_189:\n      tag_190\n      jump\t// in\n    tag_188:\n      stop\n        /* \"contracts/BOMB_flattened.sol\":17567:17641  function name() public view returns (string memory) {... */\n    tag_46:\n        /* \"contracts/BOMB_flattened.sol\":17604:17617  string memory */\n      0x60\n        /* \"contracts/BOMB_flattened.sol\":17631:17636  _name */\n      0x00\n        /* \"contracts/BOMB_flattened.sol\":17624:17636  return _name */\n      dup1\n      sload\n      tag_192\n      swap1\n      tag_193\n      jump\t// in\n    tag_192:\n      dup1\n      0x1f\n      add\n      0x20\n      dup1\n      swap2\n      div\n      mul\n      0x20\n      add\n      mload(0x40)\n      swap1\n      dup2\n      add\n      0x40\n      mstore\n      dup1\n      swap3\n      swap2\n      swap1\n      dup2\n      dup2\n      mstore\n      0x20\n      add\n      dup3\n      dup1\n      sload\n      tag_194\n      swap1\n      tag_193\n      jump\t// in\n    tag_194:\n      dup1\n      iszero\n      tag_195\n      jumpi\n      dup1\n      0x1f\n      lt\n      tag_196\n      jumpi\n      0x0100\n      dup1\n      dup4\n      sload\n      div\n      mul\n      dup4\n      mstore\n      swap2\n      0x20\n      add\n      swap2\n      jump(tag_195)\n    tag_196:\n      dup3\n      add\n      swap2\n      swap1\n      0x00\n      mstore\n      keccak256(0x00, 0x20)\n      swap1\n    tag_197:\n      dup2\n      sload\n      dup2\n      mstore\n      swap1\n      0x01\n      add\n      swap1\n      0x20\n      add\n      dup1\n      dup4\n      gt\n      tag_197\n      jumpi\n      dup3\n      swap1\n      sub\n      0x1f\n      and\n      dup3\n      add\n      swap2\n    tag_195:\n      pop\n      pop\n      pop\n      pop\n      pop\n      swap1\n      pop\n        /* \"contracts/BOMB_flattened.sol\":17567:17641  function name() public view returns (string memory) {... */\n      swap1\n      jump\t// out\n        /* \"contracts/BOMB_flattened.sol\":23746:23946  function approve(address spender, uint256 value) external override returns (bool) {... */\n    tag_53:\n        /* \"contracts/BOMB_flattened.sol\":23822:23826  bool */\n      0x00\n        /* \"contracts/BOMB_flattened.sol\":23874:23879  value */\n      dup2\n        /* \"contracts/BOMB_flattened.sol\":23833:23850  _allowedFragments */\n      0x12\n        /* \"contracts/BOMB_flattened.sol\":23833:23862  _allowedFragments[msg.sender] */\n      0x00\n        /* \"contracts/BOMB_flattened.sol\":23851:23861  msg.sender */\n      caller\n        /* \"contracts/BOMB_flattened.sol\":23833:23862  _allowedFragments[msg.sender] */\n      0xffffffffffffffffffffffffffffffffffffffff\n      and\n      0xffffffffffffffffffffffffffffffffffffffff\n      and\n      dup2\n      mstore\n      0x20\n      add\n      swap1\n      dup2\n      mstore\n      0x20\n      add\n      0x00\n      keccak256\n        /* \"contracts/BOMB_flattened.sol\":23833:23871  _allowedFragments[msg.sender][spender] */\n      0x00\n        /* \"contracts/BOMB_flattened.sol\":23863:23870  spender */\n      dup6\n        /* \"contracts/BOMB_flattened.sol\":23833:23871  _allowedFragments[msg.sender][spender] */\n      0xffffffffffffffffffffffffffffffffffffffff\n      and\n      0xffffffffffffffffffffffffffffffffffffffff\n      and\n      dup2\n      mstore\n      0x20\n      add\n      swap1\n      dup2\n      mstore\n      0x20\n      add\n      0x00\n      keccak256\n        /* \"contracts/BOMB_flattened.sol\":23833:23879  _allowedFragments[msg.sender][spender] = value */\n      dup2\n      swap1\n      sstore\n      pop\n        /* \"contracts/BOMB_flattened.sol\":23910:23917  spender */\n      dup3\n        /* \"contracts/BOMB_flattened.sol\":23889:23925  Approval(msg.sender, spender, value) */\n      0xffffffffffffffffffffffffffffffffffffffff\n      and\n        /* \"contracts/BOMB_flattened.sol\":23898:23908  msg.sender */\n      caller\n        /* \"contracts/BOMB_flattened.sol\":23889:23925  Approval(msg.sender, spender, value) */\n      0xffffffffffffffffffffffffffffffffffffffff\n      and\n      0x8c5be1e5ebec7d5bd14f71427d1e84f3dd0314c0f7b2291e5b200ac8c7c3b925\n        /* \"contracts/BOMB_flattened.sol\":23919:23924  value */\n      dup5\n        /* \"contracts/BOMB_flattened.sol\":23889:23925  Approval(msg.sender, spender, value) */\n      mload(0x40)\n      tag_199\n      swap2\n      swap1\n      tag_60\n      jump\t// in\n    tag_199:\n      mload(0x40)\n      dup1\n      swap2\n      sub\n      swap1\n      log3\n        /* \"contracts/BOMB_flattened.sol\":23937:23941  true */\n      0x01\n        /* \"contracts/BOMB_flattened.sol\":23930:23941  return true */\n      swap1\n      pop\n        /* \"contracts/BOMB_flattened.sol\":23746:23946  function approve(address spender, uint256 value) external override returns (bool) {... */\n      swap3\n      swap2\n      pop\n      pop\n      jump\t// out\n        /* \"contracts/BOMB_flattened.sol\":23539:23632  function totalSupply() external view override returns (uint256) {... */\n    tag_58:\n        /* \"contracts/BOMB_flattened.sol\":23594:23601  uint256 */\n      0x00\n        /* \"contracts/BOMB_flattened.sol\":23615:23627  _totalSupply */\n      sload(0x08)\n        /* \"contracts/BOMB_flattened.sol\":23608:23627  return _totalSupply */\n      swap1\n      pop\n        /* \"contracts/BOMB_flattened.sol\":23539:23632  function totalSupply() external view override returns (uint256) {... */\n      swap1\n      jump\t// out\n        /* \"contracts/BOMB_flattened.sol\":24115:24483  function transferFrom(address from, address to, uint256 value) external override validRecipient(to) returns (bool) {... */\n    tag_65:\n        /* \"contracts/BOMB_flattened.sol\":24224:24228  bool */\n      0x00\n        /* \"contracts/BOMB_flattened.sol\":24211:24213  to */\n      dup3\n        /* \"contracts/BOMB_flattened.sol\":20333:20336  0x0 */\n      0x00\n        /* \"contracts/BOMB_flattened.sol\":20319:20337  to != address(0x0) */\n      0xffffffffffffffffffffffffffffffffffffffff\n      and\n        /* \"contracts/BOMB_flattened.sol\":20319:20321  to */\n      dup2\n        /* \"contracts/BOMB_flattened.sol\":20319:20337  to != address(0x0) */\n      0xffffffffffffffffffffffffffffffffffffffff\n      and\n      sub\n        /* \"contracts/BOMB_flattened.sol\":20311:20338  require(to != address(0x0)) */\n      tag_202\n      jumpi\n      0x00\n      dup1\n      revert\n    tag_202:\n        /* \"contracts/BOMB_flattened.sol\":24255:24259  this */\n      address\n        /* \"contracts/BOMB_flattened.sol\":24239:24260  from == address(this) */\n      0xffffffffffffffffffffffffffffffffffffffff\n      and\n        /* \"contracts/BOMB_flattened.sol\":24239:24243  from */\n      dup6\n        /* \"contracts/BOMB_flattened.sol\":24239:24260  from == address(this) */\n      0xffffffffffffffffffffffffffffffffffffffff\n      and\n      eq\n        /* \"contracts/BOMB_flattened.sol\":24239:24286  from == address(this) && to == address(_router) */\n      dup1\n      iszero\n      tag_204\n      jumpi\n      pop\n        /* \"contracts/BOMB_flattened.sol\":24278:24285  _router */\n      0x10\n      0x00\n      swap1\n      sload\n      swap1\n      0x0100\n      exp\n      swap1\n      div\n      0xffffffffffffffffffffffffffffffffffffffff\n      and\n        /* \"contracts/BOMB_flattened.sol\":24264:24286  to == address(_router) */\n      0xffffffffffffffffffffffffffffffffffffffff\n      and\n        /* \"contracts/BOMB_flattened.sol\":24264:24266  to */\n      dup5\n        /* \"contracts/BOMB_flattened.sol\":24264:24286  to == address(_router) */\n      0xffffffffffffffffffffffffffffffffffffffff\n      and\n      eq\n        /* \"contracts/BOMB_flattened.sol\":24239:24286  from == address(this) && to == address(_router) */\n    tag_204:\n        /* \"contracts/BOMB_flattened.sol\":24235:24311  if (from == address(this) && to == address(_router)) {... */\n      iszero\n      tag_205\n      jumpi\n        /* \"contracts/BOMB_flattened.sol\":24301:24305  true */\n      0x01\n        /* \"contracts/BOMB_flattened.sol\":24294:24305  return true */\n      swap2\n      pop\n      jump(tag_203)\n        /* \"contracts/BOMB_flattened.sol\":24235:24311  if (from == address(this) && to == address(_router)) {... */\n    tag_205:\n        /* \"contracts/BOMB_flattened.sol\":24355:24427  _allowedFragments[from][msg.sender].sub(value, \"Insufficient Allowance\") */\n      tag_206\n        /* \"contracts/BOMB_flattened.sol\":24395:24400  value */\n      dup4\n        /* \"contracts/BOMB_flattened.sol\":24355:24427  _allowedFragments[from][msg.sender].sub(value, \"Insufficient Allowance\") */\n      mload(0x40)\n      dup1\n      0x40\n      add\n      0x40\n      mstore\n      dup1\n      0x16\n      dup2\n      mstore\n      0x20\n      add\n      0x496e73756666696369656e7420416c6c6f77616e636500000000000000000000\n      dup2\n      mstore\n      pop\n        /* \"contracts/BOMB_flattened.sol\":24355:24372  _allowedFragments */\n      0x12\n        /* \"contracts/BOMB_flattened.sol\":24355:24378  _allowedFragments[from] */\n      0x00\n        /* \"contracts/BOMB_flattened.sol\":24373:24377  from */\n      dup10\n        /* \"contracts/BOMB_flattened.sol\":24355:24378  _allowedFragments[from] */\n      0xffffffffffffffffffffffffffffffffffffffff\n      and\n      0xffffffffffffffffffffffffffffffffffffffff\n      and\n      dup2\n      mstore\n      0x20\n      add\n      swap1\n      dup2\n      mstore\n      0x20\n      add\n      0x00\n      keccak256\n        /* \"contracts/BOMB_flattened.sol\":24355:24390  _allowedFragments[from][msg.sender] */\n      0x00\n        /* \"contracts/BOMB_flattened.sol\":24379:24389  msg.sender */\n      caller\n        /* \"contracts/BOMB_flattened.sol\":24355:24390  _allowedFragments[from][msg.sender] */\n      0xffffffffffffffffffffffffffffffffffffffff\n      and\n      0xffffffffffffffffffffffffffffffffffffffff\n      and\n      dup2\n      mstore\n      0x20\n      add\n      swap1\n      dup2\n      mstore\n      0x20\n      add\n      0x00\n      keccak256\n      sload\n        /* \"contracts/BOMB_flattened.sol\":24355:24394  _allowedFragments[from][msg.sender].sub */\n      tag_207\n      swap1\n        /* \"contracts/BOMB_flattened.sol\":24355:24427  _allowedFragments[from][msg.sender].sub(value, \"Insufficient Allowance\") */\n      swap3\n      swap2\n      swap1\n      0xffffffff\n      and\n      jump\t// in\n    tag_206:\n        /* \"contracts/BOMB_flattened.sol\":24317:24334  _allowedFragments */\n      0x12\n        /* \"contracts/BOMB_flattened.sol\":24317:24340  _allowedFragments[from] */\n      0x00\n        /* \"contracts/BOMB_flattened.sol\":24335:24339  from */\n      dup8\n        /* \"contracts/BOMB_flattened.sol\":24317:24340  _allowedFragments[from] */\n      0xffffffffffffffffffffffffffffffffffffffff\n      and\n      0xffffffffffffffffffffffffffffffffffffffff\n      and\n      dup2\n      mstore\n      0x20\n      add\n      swap1\n      dup2\n      mstore\n      0x20\n      add\n      0x00\n      keccak256\n        /* \"contracts/BOMB_flattened.sol\":24317:24352  _allowedFragments[from][msg.sender] */\n      0x00\n        /* \"contracts/BOMB_flattened.sol\":24341:24351  msg.sender */\n      caller\n        /* \"contracts/BOMB_flattened.sol\":24317:24352  _allowedFragments[from][msg.sender] */\n      0xffffffffffffffffffffffffffffffffffffffff\n      and\n      0xffffffffffffffffffffffffffffffffffffffff\n      and\n      dup2\n      mstore\n      0x20\n      add\n      swap1\n      dup2\n      mstore\n      0x20\n      add\n      0x00\n      keccak256\n        /* \"contracts/BOMB_flattened.sol\":24317:24427  _allowedFragments[from][msg.sender] = _allowedFragments[from][msg.sender].sub(value, \"Insufficient Allowance\") */\n      dup2\n      swap1\n      sstore\n      pop\n        /* \"contracts/BOMB_flattened.sol\":24432:24462  _transferFrom(from, to, value) */\n      tag_208\n        /* \"contracts/BOMB_flattened.sol\":24446:24450  from */\n      dup6\n        /* \"contracts/BOMB_flattened.sol\":24452:24454  to */\n      dup6\n        /* \"contracts/BOMB_flattened.sol\":24456:24461  value */\n      dup6\n        /* \"contracts/BOMB_flattened.sol\":24432:24445  _transferFrom */\n      tag_209\n        /* \"contracts/BOMB_flattened.sol\":24432:24462  _transferFrom(from, to, value) */\n      jump\t// in\n    tag_208:\n      pop\n        /* \"contracts/BOMB_flattened.sol\":24474:24478  true */\n      0x01\n        /* \"contracts/BOMB_flattened.sol\":24467:24478  return true */\n      swap2\n      pop\n        /* \"contracts/BOMB_flattened.sol\":20343:20344  _ */\n    tag_203:\n        /* \"contracts/BOMB_flattened.sol\":24115:24483  function transferFrom(address from, address to, uint256 value) external override validRecipient(to) returns (bool) {... */\n      pop\n      swap4\n      swap3\n      pop\n      pop\n      pop\n      jump\t// out\n        /* \"contracts/BOMB_flattened.sol\":22807:22917  function setDistributeInterval(uint256 interval) external onlyOwner {... */\n    tag_71:\n        /* \"contracts/BOMB_flattened.sol\":18230:18239  isOwner() */\n      tag_211\n        /* \"contracts/BOMB_flattened.sol\":18230:18237  isOwner */\n      tag_134\n        /* \"contracts/BOMB_flattened.sol\":18230:18239  isOwner() */\n      jump\t// in\n    tag_211:\n        /* \"contracts/BOMB_flattened.sol\":18222:18240  require(isOwner()) */\n      tag_212\n      jumpi\n      0x00\n      dup1\n      revert\n    tag_212:\n        /* \"contracts/BOMB_flattened.sol\":22904:22912  interval */\n      dup1\n        /* \"contracts/BOMB_flattened.sol\":22880:22901  _distributionInterval */\n      0x04\n        /* \"contracts/BOMB_flattened.sol\":22880:22912  _distributionInterval = interval */\n      dup2\n      swap1\n      sstore\n      pop\n        /* \"contracts/BOMB_flattened.sol\":22807:22917  function setDistributeInterval(uint256 interval) external onlyOwner {... */\n      pop\n      jump\t// out\n        /* \"contracts/BOMB_flattened.sol\":22714:22802  function setLP(address addr) external onlyOwner {... */\n    tag_76:\n        /* \"contracts/BOMB_flattened.sol\":18230:18239  isOwner() */\n      tag_215\n        /* \"contracts/BOMB_flattened.sol\":18230:18237  isOwner */\n      tag_134\n        /* \"contracts/BOMB_flattened.sol\":18230:18239  isOwner() */\n      jump\t// in\n    tag_215:\n        /* \"contracts/BOMB_flattened.sol\":18222:18240  require(isOwner()) */\n      tag_216\n      jumpi\n      0x00\n      dup1\n      revert\n    tag_216:\n        /* \"contracts/BOMB_flattened.sol\":22792:22796  addr */\n      dup1\n        /* \"contracts/BOMB_flattened.sol\":22767:22772  _pair */\n      0x11\n      0x00\n        /* \"contracts/BOMB_flattened.sol\":22767:22797  _pair = IPancakeSwapPair(addr) */\n      0x0100\n      exp\n      dup2\n      sload\n      dup2\n      0xffffffffffffffffffffffffffffffffffffffff\n      mul\n      not\n      and\n      swap1\n      dup4\n      0xffffffffffffffffffffffffffffffffffffffff\n      and\n      mul\n      or\n      swap1\n      sstore\n      pop\n        /* \"contracts/BOMB_flattened.sol\":22714:22802  function setLP(address addr) external onlyOwner {... */\n      pop\n      jump\t// out\n        /* \"contracts/BOMB_flattened.sol\":17729:17803  function decimals() public view returns (uint8) {... */\n    tag_79:\n        /* \"contracts/BOMB_flattened.sol\":17770:17775  uint8 */\n      0x00\n        /* \"contracts/BOMB_flattened.sol\":17789:17798  _decimals */\n      0x02\n      0x00\n      swap1\n      sload\n      swap1\n      0x0100\n      exp\n      swap1\n      div\n      0xff\n      and\n        /* \"contracts/BOMB_flattened.sol\":17782:17798  return _decimals */\n      swap1\n      pop\n        /* \"contracts/BOMB_flattened.sol\":17729:17803  function decimals() public view returns (uint8) {... */\n      swap1\n      jump\t// out\n        /* \"contracts/BOMB_flattened.sol\":19830:19855  bool public _initComplete */\n    tag_84:\n      0x0a\n      0x00\n      swap1\n      sload\n      swap1\n      0x0100\n      exp\n      swap1\n      div\n      0xff\n      and\n      dup2\n      jump\t// out\n        /* \"contracts/BOMB_flattened.sol\":19722:19753  uint256 public _lastRebasedTime */\n    tag_88:\n      sload(0x07)\n      dup2\n      jump\t// out\n        /* \"contracts/BOMB_flattened.sol\":21680:21898  function setBotBlacklist(address _botAddress, bool _flag) external onlyOwner {... */\n    tag_94:\n        /* \"contracts/BOMB_flattened.sol\":18230:18239  isOwner() */\n      tag_220\n        /* \"contracts/BOMB_flattened.sol\":18230:18237  isOwner */\n      tag_134\n        /* \"contracts/BOMB_flattened.sol\":18230:18239  isOwner() */\n      jump\t// in\n    tag_220:\n        /* \"contracts/BOMB_flattened.sol\":18222:18240  require(isOwner()) */\n      tag_221\n      jumpi\n      0x00\n      dup1\n      revert\n    tag_221:\n        /* \"contracts/BOMB_flattened.sol\":21770:21793  isContract(_botAddress) */\n      tag_223\n        /* \"contracts/BOMB_flattened.sol\":21781:21792  _botAddress */\n      dup3\n        /* \"contracts/BOMB_flattened.sol\":21770:21780  isContract */\n      tag_224\n        /* \"contracts/BOMB_flattened.sol\":21770:21793  isContract(_botAddress) */\n      jump\t// in\n    tag_223:\n        /* \"contracts/BOMB_flattened.sol\":21762:21857  require(isContract(_botAddress), \"only contract address, not allowed exteranlly owned account\") */\n      tag_225\n      jumpi\n      mload(0x40)\n      0x08c379a000000000000000000000000000000000000000000000000000000000\n      dup2\n      mstore\n      0x04\n      add\n      tag_226\n      swap1\n      tag_227\n      jump\t// in\n    tag_226:\n      mload(0x40)\n      dup1\n      swap2\n      sub\n      swap1\n      revert\n    tag_225:\n        /* \"contracts/BOMB_flattened.sol\":21888:21893  _flag */\n      dup1\n        /* \"contracts/BOMB_flattened.sol\":21862:21872  _blacklist */\n      0x0e\n        /* \"contracts/BOMB_flattened.sol\":21862:21885  _blacklist[_botAddress] */\n      0x00\n        /* \"contracts/BOMB_flattened.sol\":21873:21884  _botAddress */\n      dup5\n        /* \"contracts/BOMB_flattened.sol\":21862:21885  _blacklist[_botAddress] */\n      0xffffffffffffffffffffffffffffffffffffffff\n      and\n      0xffffffffffffffffffffffffffffffffffffffff\n      and\n      dup2\n      mstore\n      0x20\n      add\n      swap1\n      dup2\n      mstore\n      0x20\n      add\n      0x00\n      keccak256\n      0x00\n        /* \"contracts/BOMB_flattened.sol\":21862:21893  _blacklist[_botAddress] = _flag */\n      0x0100\n      exp\n      dup2\n      sload\n      dup2\n      0xff\n      mul\n      not\n      and\n      swap1\n      dup4\n      iszero\n      iszero\n      mul\n      or\n      swap1\n      sstore\n      pop\n        /* \"contracts/BOMB_flattened.sol\":21680:21898  function setBotBlacklist(address _botAddress, bool _flag) external onlyOwner {... */\n      pop\n      pop\n      jump\t// out\n        /* \"contracts/BOMB_flattened.sol\":24637:24925  function increaseAllowance(address spender, uint256 addedValue) external returns (bool) {... */\n    tag_98:\n        /* \"contracts/BOMB_flattened.sol\":24719:24723  bool */\n      0x00\n        /* \"contracts/BOMB_flattened.sol\":24771:24825  _allowedFragments[msg.sender][spender].add(addedValue) */\n      tag_229\n        /* \"contracts/BOMB_flattened.sol\":24814:24824  addedValue */\n      dup3\n        /* \"contracts/BOMB_flattened.sol\":24771:24788  _allowedFragments */\n      0x12\n        /* \"contracts/BOMB_flattened.sol\":24771:24800  _allowedFragments[msg.sender] */\n      0x00\n        /* \"contracts/BOMB_flattened.sol\":24789:24799  msg.sender */\n      caller\n        /* \"contracts/BOMB_flattened.sol\":24771:24800  _allowedFragments[msg.sender] */\n      0xffffffffffffffffffffffffffffffffffffffff\n      and\n      0xffffffffffffffffffffffffffffffffffffffff\n      and\n      dup2\n      mstore\n      0x20\n      add\n      swap1\n      dup2\n      mstore\n      0x20\n      add\n      0x00\n      keccak256\n        /* \"contracts/BOMB_flattened.sol\":24771:24809  _allowedFragments[msg.sender][spender] */\n      0x00\n        /* \"contracts/BOMB_flattened.sol\":24801:24808  spender */\n      dup7\n        /* \"contracts/BOMB_flattened.sol\":24771:24809  _allowedFragments[msg.sender][spender] */\n      0xffffffffffffffffffffffffffffffffffffffff\n      and\n      0xffffffffffffffffffffffffffffffffffffffff\n      and\n      dup2\n      mstore\n      0x20\n      add\n      swap1\n      dup2\n      mstore\n      0x20\n      add\n      0x00\n      keccak256\n      sload\n        /* \"contracts/BOMB_flattened.sol\":24771:24813  _allowedFragments[msg.sender][spender].add */\n      tag_230\n      swap1\n        /* \"contracts/BOMB_flattened.sol\":24771:24825  _allowedFragments[msg.sender][spender].add(addedValue) */\n      swap2\n      swap1\n      0xffffffff\n      and\n      jump\t// in\n    tag_229:\n        /* \"contracts/BOMB_flattened.sol\":24730:24747  _allowedFragments */\n      0x12\n        /* \"contracts/BOMB_flattened.sol\":24730:24759  _allowedFragments[msg.sender] */\n      0x00\n        /* \"contracts/BOMB_flattened.sol\":24748:24758  msg.sender */\n      caller\n        /* \"contracts/BOMB_flattened.sol\":24730:24759  _allowedFragments[msg.sender] */\n      0xffffffffffffffffffffffffffffffffffffffff\n      and\n      0xffffffffffffffffffffffffffffffffffffffff\n      and\n      dup2\n      mstore\n      0x20\n      add\n      swap1\n      dup2\n      mstore\n      0x20\n      add\n      0x00\n      keccak256\n        /* \"contracts/BOMB_flattened.sol\":24730:24768  _allowedFragments[msg.sender][spender] */\n      0x00\n        /* \"contracts/BOMB_flattened.sol\":24760:24767  spender */\n      dup6\n        /* \"contracts/BOMB_flattened.sol\":24730:24768  _allowedFragments[msg.sender][spender] */\n      0xffffffffffffffffffffffffffffffffffffffff\n      and\n      0xffffffffffffffffffffffffffffffffffffffff\n      and\n      dup2\n      mstore\n      0x20\n      add\n      swap1\n      dup2\n      mstore\n      0x20\n      add\n      0x00\n      keccak256\n        /* \"contracts/BOMB_flattened.sol\":24730:24825  _allowedFragments[msg.sender][spender] = _allowedFragments[msg.sender][spender].add(addedValue) */\n      dup2\n      swap1\n      sstore\n      pop\n        /* \"contracts/BOMB_flattened.sol\":24856:24863  spender */\n      dup3\n        /* \"contracts/BOMB_flattened.sol\":24835:24904  Approval(msg.sender, spender, _allowedFragments[msg.sender][spender]) */\n      0xffffffffffffffffffffffffffffffffffffffff\n      and\n        /* \"contracts/BOMB_flattened.sol\":24844:24854  msg.sender */\n      caller\n        /* \"contracts/BOMB_flattened.sol\":24835:24904  Approval(msg.sender, spender, _allowedFragments[msg.sender][spender]) */\n      0xffffffffffffffffffffffffffffffffffffffff\n      and\n      0x8c5be1e5ebec7d5bd14f71427d1e84f3dd0314c0f7b2291e5b200ac8c7c3b925\n        /* \"contracts/BOMB_flattened.sol\":24865:24882  _allowedFragments */\n      0x12\n        /* \"contracts/BOMB_flattened.sol\":24865:24894  _allowedFragments[msg.sender] */\n      0x00\n        /* \"contracts/BOMB_flattened.sol\":24883:24893  msg.sender */\n      caller\n        /* \"contracts/BOMB_flattened.sol\":24865:24894  _allowedFragments[msg.sender] */\n      0xffffffffffffffffffffffffffffffffffffffff\n      and\n      0xffffffffffffffffffffffffffffffffffffffff\n      and\n      dup2\n      mstore\n      0x20\n      add\n      swap1\n      dup2\n      mstore\n      0x20\n      add\n      0x00\n      keccak256\n        /* \"contracts/BOMB_flattened.sol\":24865:24903  _allowedFragments[msg.sender][spender] */\n      0x00\n        /* \"contracts/BOMB_flattened.sol\":24895:24902  spender */\n      dup8\n        /* \"contracts/BOMB_flattened.sol\":24865:24903  _allowedFragments[msg.sender][spender] */\n      0xffffffffffffffffffffffffffffffffffffffff\n      and\n      0xffffffffffffffffffffffffffffffffffffffff\n      and\n      dup2\n      mstore\n      0x20\n      add\n      swap1\n      dup2\n      mstore\n      0x20\n      add\n      0x00\n      keccak256\n      sload\n        /* \"contracts/BOMB_flattened.sol\":24835:24904  Approval(msg.sender, spender, _allowedFragments[msg.sender][spender]) */\n      mload(0x40)\n      tag_231\n      swap2\n      swap1\n      tag_60\n      jump\t// in\n    tag_231:\n      mload(0x40)\n      dup1\n      swap2\n      sub\n      swap1\n      log3\n        /* \"contracts/BOMB_flattened.sol\":24916:24920  true */\n      0x01\n        /* \"contracts/BOMB_flattened.sol\":24909:24920  return true */\n      swap1\n      pop\n        /* \"contracts/BOMB_flattened.sol\":24637:24925  function increaseAllowance(address spender, uint256 addedValue) external returns (bool) {... */\n      swap3\n      swap2\n      pop\n      pop\n      jump\t// out\n        /* \"contracts/BOMB_flattened.sol\":19757:19784  uint256 public _totalSupply */\n    tag_102:\n      sload(0x08)\n      dup2\n      jump\t// out\n        /* \"contracts/BOMB_flattened.sol\":19564:19595  uint256 public _feePercent = 99 */\n    tag_106:\n      sload(0x03)\n      dup2\n      jump\t// out\n        /* \"contracts/BOMB_flattened.sol\":23637:23741  function balanceOf(address who) external view override returns (uint256) {... */\n    tag_111:\n        /* \"contracts/BOMB_flattened.sol\":23701:23708  uint256 */\n      0x00\n        /* \"contracts/BOMB_flattened.sol\":23722:23731  _balances */\n      0x0b\n        /* \"contracts/BOMB_flattened.sol\":23722:23736  _balances[who] */\n      0x00\n        /* \"contracts/BOMB_flattened.sol\":23732:23735  who */\n      dup4\n        /* \"contracts/BOMB_flattened.sol\":23722:23736  _balances[who] */\n      0xffffffffffffffffffffffffffffffffffffffff\n      and\n      0xffffffffffffffffffffffffffffffffffffffff\n      and\n      dup2\n      mstore\n      0x20\n      add\n      swap1\n      dup2\n      mstore\n      0x20\n      add\n      0x00\n      keccak256\n      sload\n        /* \"contracts/BOMB_flattened.sol\":23715:23736  return _balances[who] */\n      swap1\n      pop\n        /* \"contracts/BOMB_flattened.sol\":23637:23741  function balanceOf(address who) external view override returns (uint256) {... */\n      swap2\n      swap1\n      pop\n      jump\t// out\n        /* \"contracts/BOMB_flattened.sol\":18344:18455  function renounceOwnership() public onlyOwner {... */\n    tag_115:\n        /* \"contracts/BOMB_flattened.sol\":18230:18239  isOwner() */\n      tag_234\n        /* \"contracts/BOMB_flattened.sol\":18230:18237  isOwner */\n      tag_134\n        /* \"contracts/BOMB_flattened.sol\":18230:18239  isOwner() */\n      jump\t// in\n    tag_234:\n        /* \"contracts/BOMB_flattened.sol\":18222:18240  require(isOwner()) */\n      tag_235\n      jumpi\n      0x00\n      dup1\n      revert\n    tag_235:\n        /* \"contracts/BOMB_flattened.sol\":18419:18425  _owner */\n      0x02\n      0x01\n      swap1\n      sload\n      swap1\n      0x0100\n      exp\n      swap1\n      div\n      0xffffffffffffffffffffffffffffffffffffffff\n      and\n        /* \"contracts/BOMB_flattened.sol\":18400:18426  OwnershipRenounced(_owner) */\n      0xffffffffffffffffffffffffffffffffffffffff\n      and\n      0xf8df31144d9c2f0f6b59d69b8b98abd5459d07f2742c4df920b25aae33c64820\n      mload(0x40)\n      mload(0x40)\n      dup1\n      swap2\n      sub\n      swap1\n      log2\n        /* \"contracts/BOMB_flattened.sol\":18448:18449  0 */\n      0x00\n        /* \"contracts/BOMB_flattened.sol\":18431:18437  _owner */\n      0x02\n      0x01\n        /* \"contracts/BOMB_flattened.sol\":18431:18450  _owner = address(0) */\n      0x0100\n      exp\n      dup2\n      sload\n      dup2\n      0xffffffffffffffffffffffffffffffffffffffff\n      mul\n      not\n      and\n      swap1\n      dup4\n      0xffffffffffffffffffffffffffffffffffffffff\n      and\n      mul\n      or\n      swap1\n      sstore\n      pop\n        /* \"contracts/BOMB_flattened.sol\":18344:18455  function renounceOwnership() public onlyOwner {... */\n      jump\t// out\n        /* \"contracts/BOMB_flattened.sol\":23454:23534  function manualSync() external {... */\n    tag_118:\n        /* \"contracts/BOMB_flattened.sol\":23515:23520  _pair */\n      0x11\n      0x00\n      swap1\n      sload\n      swap1\n      0x0100\n      exp\n      swap1\n      div\n      0xffffffffffffffffffffffffffffffffffffffff\n      and\n        /* \"contracts/BOMB_flattened.sol\":23490:23527  IPancakeSwapPair(address(_pair)).sync */\n      0xffffffffffffffffffffffffffffffffffffffff\n      and\n      0xfff6cae9\n        /* \"contracts/BOMB_flattened.sol\":23490:23529  IPancakeSwapPair(address(_pair)).sync() */\n      mload(0x40)\n      dup2\n      0xffffffff\n      and\n      0xe0\n      shl\n      dup2\n      mstore\n      0x04\n      add\n      0x00\n      mload(0x40)\n      dup1\n      dup4\n      sub\n      dup2\n      0x00\n      dup8\n      dup1\n      extcodesize\n      iszero\n      dup1\n      iszero\n      tag_238\n      jumpi\n      0x00\n      dup1\n      revert\n    tag_238:\n      pop\n      gas\n      call\n      iszero\n      dup1\n      iszero\n      tag_240\n      jumpi\n      returndatasize\n      0x00\n      dup1\n      returndatacopy\n      revert(0x00, returndatasize)\n    tag_240:\n      pop\n      pop\n      pop\n      pop\n        /* \"contracts/BOMB_flattened.sol\":23454:23534  function manualSync() external {... */\n      jump\t// out\n        /* \"contracts/BOMB_flattened.sol\":23372:23449  function isNotInSwap() external view returns (bool) {... */\n    tag_121:\n        /* \"contracts/BOMB_flattened.sol\":23418:23422  bool */\n      0x00\n        /* \"contracts/BOMB_flattened.sol\":23437:23444  _inSwap */\n      0x11\n      0x14\n      swap1\n      sload\n      swap1\n      0x0100\n      exp\n      swap1\n      div\n      0xff\n      and\n        /* \"contracts/BOMB_flattened.sol\":23436:23444  !_inSwap */\n      iszero\n        /* \"contracts/BOMB_flattened.sol\":23429:23444  return !_inSwap */\n      swap1\n      pop\n        /* \"contracts/BOMB_flattened.sol\":23372:23449  function isNotInSwap() external view returns (bool) {... */\n      swap1\n      jump\t// out\n        /* \"contracts/BOMB_flattened.sol\":21583:21675  function setWhitelist(address _addr) external onlyOwner {... */\n    tag_126:\n        /* \"contracts/BOMB_flattened.sol\":18230:18239  isOwner() */\n      tag_243\n        /* \"contracts/BOMB_flattened.sol\":18230:18237  isOwner */\n      tag_134\n        /* \"contracts/BOMB_flattened.sol\":18230:18239  isOwner() */\n      jump\t// in\n    tag_243:\n        /* \"contracts/BOMB_flattened.sol\":18222:18240  require(isOwner()) */\n      tag_244\n      jumpi\n      0x00\n      dup1\n      revert\n    tag_244:\n        /* \"contracts/BOMB_flattened.sol\":21666:21670  true */\n      0x01\n        /* \"contracts/BOMB_flattened.sol\":21644:21656  _isFeeExempt */\n      0x0d\n        /* \"contracts/BOMB_flattened.sol\":21644:21663  _isFeeExempt[_addr] */\n      0x00\n        /* \"contracts/BOMB_flattened.sol\":21657:21662  _addr */\n      dup4\n        /* \"contracts/BOMB_flattened.sol\":21644:21663  _isFeeExempt[_addr] */\n      0xffffffffffffffffffffffffffffffffffffffff\n      and\n      0xffffffffffffffffffffffffffffffffffffffff\n      and\n      dup2\n      mstore\n      0x20\n      add\n      swap1\n      dup2\n      mstore\n      0x20\n      add\n      0x00\n      keccak256\n      0x00\n        /* \"contracts/BOMB_flattened.sol\":21644:21670  _isFeeExempt[_addr] = true */\n      0x0100\n      exp\n      dup2\n      sload\n      dup2\n      0xff\n      mul\n      not\n      and\n      swap1\n      dup4\n      iszero\n      iszero\n      mul\n      or\n      swap1\n      sstore\n      pop\n        /* \"contracts/BOMB_flattened.sol\":21583:21675  function setWhitelist(address _addr) external onlyOwner {... */\n      pop\n      jump\t// out\n        /* \"contracts/BOMB_flattened.sol\":18121:18191  function owner() public view returns (address) {... */\n    tag_129:\n        /* \"contracts/BOMB_flattened.sol\":18159:18166  address */\n      0x00\n        /* \"contracts/BOMB_flattened.sol\":18180:18186  _owner */\n      0x02\n      0x01\n      swap1\n      sload\n      swap1\n      0x0100\n      exp\n      swap1\n      div\n      0xffffffffffffffffffffffffffffffffffffffff\n      and\n        /* \"contracts/BOMB_flattened.sol\":18173:18186  return _owner */\n      swap1\n      pop\n        /* \"contracts/BOMB_flattened.sol\":18121:18191  function owner() public view returns (address) {... */\n      swap1\n      jump\t// out\n        /* \"contracts/BOMB_flattened.sol\":18256:18339  function isOwner() public view returns (bool) {... */\n    tag_134:\n        /* \"contracts/BOMB_flattened.sol\":18296:18300  bool */\n      0x00\n        /* \"contracts/BOMB_flattened.sol\":18328:18334  _owner */\n      0x02\n      0x01\n      swap1\n      sload\n      swap1\n      0x0100\n      exp\n      swap1\n      div\n      0xffffffffffffffffffffffffffffffffffffffff\n      and\n        /* \"contracts/BOMB_flattened.sol\":18314:18334  msg.sender == _owner */\n      0xffffffffffffffffffffffffffffffffffffffff\n      and\n        /* \"contracts/BOMB_flattened.sol\":18314:18324  msg.sender */\n      caller\n        /* \"contracts/BOMB_flattened.sol\":18314:18334  msg.sender == _owner */\n      0xffffffffffffffffffffffffffffffffffffffff\n      and\n      eq\n        /* \"contracts/BOMB_flattened.sol\":18307:18334  return msg.sender == _owner */\n      swap1\n      pop\n        /* \"contracts/BOMB_flattened.sol\":18256:18339  function isOwner() public view returns (bool) {... */\n      swap1\n      jump\t// out\n        /* \"contracts/BOMB_flattened.sol\":17646:17724  function symbol() public view returns (string memory) {... */\n    tag_138:\n        /* \"contracts/BOMB_flattened.sol\":17685:17698  string memory */\n      0x60\n        /* \"contracts/BOMB_flattened.sol\":17712:17719  _symbol */\n      0x01\n        /* \"contracts/BOMB_flattened.sol\":17705:17719  return _symbol */\n      dup1\n      sload\n      tag_249\n      swap1\n      tag_193\n      jump\t// in\n    tag_249:\n      dup1\n      0x1f\n      add\n      0x20\n      dup1\n      swap2\n      div\n      mul\n      0x20\n      add\n      mload(0x40)\n      swap1\n      dup2\n      add\n      0x40\n      mstore\n      dup1\n      swap3\n      swap2\n      swap1\n      dup2\n      dup2\n      mstore\n      0x20\n      add\n      dup3\n      dup1\n      sload\n      tag_250\n      swap1\n      tag_193\n      jump\t// in\n    tag_250:\n      dup1\n      iszero\n      tag_251\n      jumpi\n      dup1\n      0x1f\n      lt\n      tag_252\n      jumpi\n      0x0100\n      dup1\n      dup4\n      sload\n      div\n      mul\n      dup4\n      mstore\n      swap2\n      0x20\n      add\n      swap2\n      jump(tag_251)\n    tag_252:\n      dup3\n      add\n      swap2\n      swap1\n      0x00\n      mstore\n      keccak256(0x00, 0x20)\n      swap1\n    tag_253:\n      dup2\n      sload\n      dup2\n      mstore\n      swap1\n      0x01\n      add\n      swap1\n      0x20\n      add\n      dup1\n      dup4\n      gt\n      tag_253\n      jumpi\n      dup3\n      swap1\n      sub\n      0x1f\n      and\n      dup3\n      add\n      swap2\n    tag_251:\n      pop\n      pop\n      pop\n      pop\n      pop\n      swap1\n      pop\n        /* \"contracts/BOMB_flattened.sol\":17646:17724  function symbol() public view returns (string memory) {... */\n      swap1\n      jump\t// out\n        /* \"contracts/BOMB_flattened.sol\":19683:19718  uint256 public _initRebaseStartTime */\n    tag_142:\n      sload(0x06)\n      dup2\n      jump\t// out\n        /* \"contracts/BOMB_flattened.sol\":20007:20049  mapping(address => bool) public _blacklist */\n    tag_147:\n      mstore(0x20, 0x0e)\n      dup1\n      0x00\n      mstore\n      keccak256(0x00, 0x40)\n      0x00\n      swap2\n      pop\n      sload\n      swap1\n      0x0100\n      exp\n      swap1\n      div\n      0xff\n      and\n      dup2\n      jump\t// out\n        /* \"contracts/BOMB_flattened.sol\":24930:25364  function decreaseAllowance(address spender, uint256 subtractedValue) external returns (bool) {... */\n    tag_152:\n        /* \"contracts/BOMB_flattened.sol\":25017:25021  bool */\n      0x00\n        /* \"contracts/BOMB_flattened.sol\":25028:25044  uint256 oldValue */\n      dup1\n        /* \"contracts/BOMB_flattened.sol\":25047:25064  _allowedFragments */\n      0x12\n        /* \"contracts/BOMB_flattened.sol\":25047:25076  _allowedFragments[msg.sender] */\n      0x00\n        /* \"contracts/BOMB_flattened.sol\":25065:25075  msg.sender */\n      caller\n        /* \"contracts/BOMB_flattened.sol\":25047:25076  _allowedFragments[msg.sender] */\n      0xffffffffffffffffffffffffffffffffffffffff\n      and\n      0xffffffffffffffffffffffffffffffffffffffff\n      and\n      dup2\n      mstore\n      0x20\n      add\n      swap1\n      dup2\n      mstore\n      0x20\n      add\n      0x00\n      keccak256\n        /* \"contracts/BOMB_flattened.sol\":25047:25085  _allowedFragments[msg.sender][spender] */\n      0x00\n        /* \"contracts/BOMB_flattened.sol\":25077:25084  spender */\n      dup6\n        /* \"contracts/BOMB_flattened.sol\":25047:25085  _allowedFragments[msg.sender][spender] */\n      0xffffffffffffffffffffffffffffffffffffffff\n      and\n      0xffffffffffffffffffffffffffffffffffffffff\n      and\n      dup2\n      mstore\n      0x20\n      add\n      swap1\n      dup2\n      mstore\n      0x20\n      add\n      0x00\n      keccak256\n      sload\n        /* \"contracts/BOMB_flattened.sol\":25028:25085  uint256 oldValue = _allowedFragments[msg.sender][spender] */\n      swap1\n      pop\n        /* \"contracts/BOMB_flattened.sol\":25113:25121  oldValue */\n      dup1\n        /* \"contracts/BOMB_flattened.sol\":25094:25109  subtractedValue */\n      dup4\n        /* \"contracts/BOMB_flattened.sol\":25094:25121  subtractedValue >= oldValue */\n      lt\n        /* \"contracts/BOMB_flattened.sol\":25090:25265  if (subtractedValue >= oldValue) {... */\n      tag_255\n      jumpi\n        /* \"contracts/BOMB_flattened.sol\":25170:25171  0 */\n      0x00\n        /* \"contracts/BOMB_flattened.sol\":25129:25146  _allowedFragments */\n      0x12\n        /* \"contracts/BOMB_flattened.sol\":25129:25158  _allowedFragments[msg.sender] */\n      0x00\n        /* \"contracts/BOMB_flattened.sol\":25147:25157  msg.sender */\n      caller\n        /* \"contracts/BOMB_flattened.sol\":25129:25158  _allowedFragments[msg.sender] */\n      0xffffffffffffffffffffffffffffffffffffffff\n      and\n      0xffffffffffffffffffffffffffffffffffffffff\n      and\n      dup2\n      mstore\n      0x20\n      add\n      swap1\n      dup2\n      mstore\n      0x20\n      add\n      0x00\n      keccak256\n        /* \"contracts/BOMB_flattened.sol\":25129:25167  _allowedFragments[msg.sender][spender] */\n      0x00\n        /* \"contracts/BOMB_flattened.sol\":25159:25166  spender */\n      dup7\n        /* \"contracts/BOMB_flattened.sol\":25129:25167  _allowedFragments[msg.sender][spender] */\n      0xffffffffffffffffffffffffffffffffffffffff\n      and\n      0xffffffffffffffffffffffffffffffffffffffff\n      and\n      dup2\n      mstore\n      0x20\n      add\n      swap1\n      dup2\n      mstore\n      0x20\n      add\n      0x00\n      keccak256\n        /* \"contracts/BOMB_flattened.sol\":25129:25171  _allowedFragments[msg.sender][spender] = 0 */\n      dup2\n      swap1\n      sstore\n      pop\n        /* \"contracts/BOMB_flattened.sol\":25090:25265  if (subtractedValue >= oldValue) {... */\n      jump(tag_256)\n    tag_255:\n        /* \"contracts/BOMB_flattened.sol\":25230:25259  oldValue.sub(subtractedValue) */\n      tag_257\n        /* \"contracts/BOMB_flattened.sol\":25243:25258  subtractedValue */\n      dup4\n        /* \"contracts/BOMB_flattened.sol\":25230:25238  oldValue */\n      dup3\n        /* \"contracts/BOMB_flattened.sol\":25230:25242  oldValue.sub */\n      tag_258\n      swap1\n        /* \"contracts/BOMB_flattened.sol\":25230:25259  oldValue.sub(subtractedValue) */\n      swap2\n      swap1\n      0xffffffff\n      and\n      jump\t// in\n    tag_257:\n        /* \"contracts/BOMB_flattened.sol\":25189:25206  _allowedFragments */\n      0x12\n        /* \"contracts/BOMB_flattened.sol\":25189:25218  _allowedFragments[msg.sender] */\n      0x00\n        /* \"contracts/BOMB_flattened.sol\":25207:25217  msg.sender */\n      caller\n        /* \"contracts/BOMB_flattened.sol\":25189:25218  _allowedFragments[msg.sender] */\n      0xffffffffffffffffffffffffffffffffffffffff\n      and\n      0xffffffffffffffffffffffffffffffffffffffff\n      and\n      dup2\n      mstore\n      0x20\n      add\n      swap1\n      dup2\n      mstore\n      0x20\n      add\n      0x00\n      keccak256\n        /* \"contracts/BOMB_flattened.sol\":25189:25227  _allowedFragments[msg.sender][spender] */\n      0x00\n        /* \"contracts/BOMB_flattened.sol\":25219:25226  spender */\n      dup7\n        /* \"contracts/BOMB_flattened.sol\":25189:25227  _allowedFragments[msg.sender][spender] */\n      0xffffffffffffffffffffffffffffffffffffffff\n      and\n      0xffffffffffffffffffffffffffffffffffffffff\n      and\n      dup2\n      mstore\n      0x20\n      add\n      swap1\n      dup2\n      mstore\n      0x20\n      add\n      0x00\n      keccak256\n        /* \"contracts/BOMB_flattened.sol\":25189:25259  _allowedFragments[msg.sender][spender] = oldValue.sub(subtractedValue) */\n      dup2\n      swap1\n      sstore\n      pop\n        /* \"contracts/BOMB_flattened.sol\":25090:25265  if (subtractedValue >= oldValue) {... */\n    tag_256:\n        /* \"contracts/BOMB_flattened.sol\":25295:25302  spender */\n      dup4\n        /* \"contracts/BOMB_flattened.sol\":25274:25343  Approval(msg.sender, spender, _allowedFragments[msg.sender][spender]) */\n      0xffffffffffffffffffffffffffffffffffffffff\n      and\n        /* \"contracts/BOMB_flattened.sol\":25283:25293  msg.sender */\n      caller\n        /* \"contracts/BOMB_flattened.sol\":25274:25343  Approval(msg.sender, spender, _allowedFragments[msg.sender][spender]) */\n      0xffffffffffffffffffffffffffffffffffffffff\n      and\n      0x8c5be1e5ebec7d5bd14f71427d1e84f3dd0314c0f7b2291e5b200ac8c7c3b925\n        /* \"contracts/BOMB_flattened.sol\":25304:25321  _allowedFragments */\n      0x12\n        /* \"contracts/BOMB_flattened.sol\":25304:25333  _allowedFragments[msg.sender] */\n      0x00\n        /* \"contracts/BOMB_flattened.sol\":25322:25332  msg.sender */\n      caller\n        /* \"contracts/BOMB_flattened.sol\":25304:25333  _allowedFragments[msg.sender] */\n      0xffffffffffffffffffffffffffffffffffffffff\n      and\n      0xffffffffffffffffffffffffffffffffffffffff\n      and\n      dup2\n      mstore\n      0x20\n      add\n      swap1\n      dup2\n      mstore\n      0x20\n      add\n      0x00\n      keccak256\n        /* \"contracts/BOMB_flattened.sol\":25304:25342  _allowedFragments[msg.sender][spender] */\n      0x00\n        /* \"contracts/BOMB_flattened.sol\":25334:25341  spender */\n      dup9\n        /* \"contracts/BOMB_flattened.sol\":25304:25342  _allowedFragments[msg.sender][spender] */\n      0xffffffffffffffffffffffffffffffffffffffff\n      and\n      0xffffffffffffffffffffffffffffffffffffffff\n      and\n      dup2\n      mstore\n      0x20\n      add\n      swap1\n      dup2\n      mstore\n      0x20\n      add\n      0x00\n      keccak256\n      sload\n        /* \"contracts/BOMB_flattened.sol\":25274:25343  Approval(msg.sender, spender, _allowedFragments[msg.sender][spender]) */\n      mload(0x40)\n      tag_259\n      swap2\n      swap1\n      tag_60\n      jump\t// in\n    tag_259:\n      mload(0x40)\n      dup1\n      swap2\n      sub\n      swap1\n      log3\n        /* \"contracts/BOMB_flattened.sol\":25355:25359  true */\n      0x01\n        /* \"contracts/BOMB_flattened.sol\":25348:25359  return true */\n      swap2\n      pop\n      pop\n        /* \"contracts/BOMB_flattened.sol\":24930:25364  function decreaseAllowance(address spender, uint256 subtractedValue) external returns (bool) {... */\n      swap3\n      swap2\n      pop\n      pop\n      jump\t// out\n        /* \"contracts/BOMB_flattened.sol\":23951:24110  function transfer(address to, uint256 value) external override validRecipient(to) returns (bool) {... */\n    tag_157:\n        /* \"contracts/BOMB_flattened.sol\":24042:24046  bool */\n      0x00\n        /* \"contracts/BOMB_flattened.sol\":24029:24031  to */\n      dup3\n        /* \"contracts/BOMB_flattened.sol\":20333:20336  0x0 */\n      0x00\n        /* \"contracts/BOMB_flattened.sol\":20319:20337  to != address(0x0) */\n      0xffffffffffffffffffffffffffffffffffffffff\n      and\n        /* \"contracts/BOMB_flattened.sol\":20319:20321  to */\n      dup2\n        /* \"contracts/BOMB_flattened.sol\":20319:20337  to != address(0x0) */\n      0xffffffffffffffffffffffffffffffffffffffff\n      and\n      sub\n        /* \"contracts/BOMB_flattened.sol\":20311:20338  require(to != address(0x0)) */\n      tag_261\n      jumpi\n      0x00\n      dup1\n      revert\n    tag_261:\n        /* \"contracts/BOMB_flattened.sol\":24053:24089  _transferFrom(msg.sender, to, value) */\n      tag_263\n        /* \"contracts/BOMB_flattened.sol\":24067:24077  msg.sender */\n      caller\n        /* \"contracts/BOMB_flattened.sol\":24079:24081  to */\n      dup6\n        /* \"contracts/BOMB_flattened.sol\":24083:24088  value */\n      dup6\n        /* \"contracts/BOMB_flattened.sol\":24053:24066  _transferFrom */\n      tag_209\n        /* \"contracts/BOMB_flattened.sol\":24053:24089  _transferFrom(msg.sender, to, value) */\n      jump\t// in\n    tag_263:\n      pop\n        /* \"contracts/BOMB_flattened.sol\":24101:24105  true */\n      0x01\n        /* \"contracts/BOMB_flattened.sol\":24094:24105  return true */\n      swap2\n      pop\n        /* \"contracts/BOMB_flattened.sol\":23951:24110  function transfer(address to, uint256 value) external override validRecipient(to) returns (bool) {... */\n      pop\n      swap3\n      swap2\n      pop\n      pop\n      jump\t// out\n        /* \"contracts/BOMB_flattened.sol\":21903:21996  function setFeePercentage(uint256 percent) external onlyOwner {... */\n    tag_162:\n        /* \"contracts/BOMB_flattened.sol\":18230:18239  isOwner() */\n      tag_265\n        /* \"contracts/BOMB_flattened.sol\":18230:18237  isOwner */\n      tag_134\n        /* \"contracts/BOMB_flattened.sol\":18230:18239  isOwner() */\n      jump\t// in\n    tag_265:\n        /* \"contracts/BOMB_flattened.sol\":18222:18240  require(isOwner()) */\n      tag_266\n      jumpi\n      0x00\n      dup1\n      revert\n    tag_266:\n        /* \"contracts/BOMB_flattened.sol\":21984:21991  percent */\n      dup1\n        /* \"contracts/BOMB_flattened.sol\":21970:21981  _feePercent */\n      0x03\n        /* \"contracts/BOMB_flattened.sol\":21970:21991  _feePercent = percent */\n      dup2\n      swap1\n      sstore\n      pop\n        /* \"contracts/BOMB_flattened.sol\":21903:21996  function setFeePercentage(uint256 percent) external onlyOwner {... */\n      pop\n      jump\t// out\n        /* \"contracts/BOMB_flattened.sol\":19654:19677  bool public _autoRebase */\n    tag_165:\n      0x05\n      0x00\n      swap1\n      sload\n      swap1\n      0x0100\n      exp\n      swap1\n      div\n      0xff\n      and\n      dup2\n      jump\t// out\n        /* \"contracts/BOMB_flattened.sol\":19599:19648  uint256 public _distributionInterval = 10 minutes */\n    tag_169:\n      sload(0x04)\n      dup2\n      jump\t// out\n        /* \"contracts/BOMB_flattened.sol\":23263:23367  function checkFeeExempt(address _addr) external view returns (bool) {... */\n    tag_174:\n        /* \"contracts/BOMB_flattened.sol\":23325:23329  bool */\n      0x00\n        /* \"contracts/BOMB_flattened.sol\":23343:23355  _isFeeExempt */\n      0x0d\n        /* \"contracts/BOMB_flattened.sol\":23343:23362  _isFeeExempt[_addr] */\n      0x00\n        /* \"contracts/BOMB_flattened.sol\":23356:23361  _addr */\n      dup4\n        /* \"contracts/BOMB_flattened.sol\":23343:23362  _isFeeExempt[_addr] */\n      0xffffffffffffffffffffffffffffffffffffffff\n      and\n      0xffffffffffffffffffffffffffffffffffffffff\n      and\n      dup2\n      mstore\n      0x20\n      add\n      swap1\n      dup2\n      mstore\n      0x20\n      add\n      0x00\n      keccak256\n      0x00\n      swap1\n      sload\n      swap1\n      0x0100\n      exp\n      swap1\n      div\n      0xff\n      and\n        /* \"contracts/BOMB_flattened.sol\":23336:23362  return _isFeeExempt[_addr] */\n      swap1\n      pop\n        /* \"contracts/BOMB_flattened.sol\":23263:23367  function checkFeeExempt(address _addr) external view returns (bool) {... */\n      swap2\n      swap1\n      pop\n      jump\t// out\n        /* \"contracts/BOMB_flattened.sol\":24488:24632  function allowance(address owner_, address spender) external view override returns (uint256) {... */\n    tag_180:\n        /* \"contracts/BOMB_flattened.sol\":24572:24579  uint256 */\n      0x00\n        /* \"contracts/BOMB_flattened.sol\":24593:24610  _allowedFragments */\n      0x12\n        /* \"contracts/BOMB_flattened.sol\":24593:24618  _allowedFragments[owner_] */\n      0x00\n        /* \"contracts/BOMB_flattened.sol\":24611:24617  owner_ */\n      dup5\n        /* \"contracts/BOMB_flattened.sol\":24593:24618  _allowedFragments[owner_] */\n      0xffffffffffffffffffffffffffffffffffffffff\n      and\n      0xffffffffffffffffffffffffffffffffffffffff\n      and\n      dup2\n      mstore\n      0x20\n      add\n      swap1\n      dup2\n      mstore\n      0x20\n      add\n      0x00\n      keccak256\n        /* \"contracts/BOMB_flattened.sol\":24593:24627  _allowedFragments[owner_][spender] */\n      0x00\n        /* \"contracts/BOMB_flattened.sol\":24619:24626  spender */\n      dup4\n        /* \"contracts/BOMB_flattened.sol\":24593:24627  _allowedFragments[owner_][spender] */\n      0xffffffffffffffffffffffffffffffffffffffff\n      and\n      0xffffffffffffffffffffffffffffffffffffffff\n      and\n      dup2\n      mstore\n      0x20\n      add\n      swap1\n      dup2\n      mstore\n      0x20\n      add\n      0x00\n      keccak256\n      sload\n        /* \"contracts/BOMB_flattened.sol\":24586:24627  return _allowedFragments[owner_][spender] */\n      swap1\n      pop\n        /* \"contracts/BOMB_flattened.sol\":24488:24632  function allowance(address owner_, address spender) external view override returns (uint256) {... */\n      swap3\n      swap2\n      pop\n      pop\n      jump\t// out\n        /* \"contracts/BOMB_flattened.sol\":21396:21578  function setAutoRebase(bool _flag) external onlyOwner {... */\n    tag_186:\n        /* \"contracts/BOMB_flattened.sol\":18230:18239  isOwner() */\n      tag_271\n        /* \"contracts/BOMB_flattened.sol\":18230:18237  isOwner */\n      tag_134\n        /* \"contracts/BOMB_flattened.sol\":18230:18239  isOwner() */\n      jump\t// in\n    tag_271:\n        /* \"contracts/BOMB_flattened.sol\":18222:18240  require(isOwner()) */\n      tag_272\n      jumpi\n      0x00\n      dup1\n      revert\n    tag_272:\n        /* \"contracts/BOMB_flattened.sol\":21459:21464  _flag */\n      dup1\n        /* \"contracts/BOMB_flattened.sol\":21455:21574  if (_flag) {... */\n      iszero\n      tag_274\n      jumpi\n        /* \"contracts/BOMB_flattened.sol\":21486:21491  _flag */\n      dup1\n        /* \"contracts/BOMB_flattened.sol\":21472:21483  _autoRebase */\n      0x05\n      0x00\n        /* \"contracts/BOMB_flattened.sol\":21472:21491  _autoRebase = _flag */\n      0x0100\n      exp\n      dup2\n      sload\n      dup2\n      0xff\n      mul\n      not\n      and\n      swap1\n      dup4\n      iszero\n      iszero\n      mul\n      or\n      swap1\n      sstore\n      pop\n        /* \"contracts/BOMB_flattened.sol\":21516:21531  block.timestamp */\n      timestamp\n        /* \"contracts/BOMB_flattened.sol\":21497:21513  _lastRebasedTime */\n      0x07\n        /* \"contracts/BOMB_flattened.sol\":21497:21531  _lastRebasedTime = block.timestamp */\n      dup2\n      swap1\n      sstore\n      pop\n        /* \"contracts/BOMB_flattened.sol\":21455:21574  if (_flag) {... */\n      jump(tag_275)\n    tag_274:\n        /* \"contracts/BOMB_flattened.sol\":21563:21568  _flag */\n      dup1\n        /* \"contracts/BOMB_flattened.sol\":21549:21560  _autoRebase */\n      0x05\n      0x00\n        /* \"contracts/BOMB_flattened.sol\":21549:21568  _autoRebase = _flag */\n      0x0100\n      exp\n      dup2\n      sload\n      dup2\n      0xff\n      mul\n      not\n      and\n      swap1\n      dup4\n      iszero\n      iszero\n      mul\n      or\n      swap1\n      sstore\n      pop\n        /* \"contracts/BOMB_flattened.sol\":21455:21574  if (_flag) {... */\n    tag_275:\n        /* \"contracts/BOMB_flattened.sol\":21396:21578  function setAutoRebase(bool _flag) external onlyOwner {... */\n      pop\n      jump\t// out\n        /* \"contracts/BOMB_flattened.sol\":18460:18560  function transferOwnership(address newOwner) public onlyOwner {... */\n    tag_190:\n        /* \"contracts/BOMB_flattened.sol\":18230:18239  isOwner() */\n      tag_277\n        /* \"contracts/BOMB_flattened.sol\":18230:18237  isOwner */\n      tag_134\n        /* \"contracts/BOMB_flattened.sol\":18230:18239  isOwner() */\n      jump\t// in\n    tag_277:\n        /* \"contracts/BOMB_flattened.sol\":18222:18240  require(isOwner()) */\n      tag_278\n      jumpi\n      0x00\n      dup1\n      revert\n    tag_278:\n        /* \"contracts/BOMB_flattened.sol\":18527:18555  _transferOwnership(newOwner) */\n      tag_280\n        /* \"contracts/BOMB_flattened.sol\":18546:18554  newOwner */\n      dup2\n        /* \"contracts/BOMB_flattened.sol\":18527:18545  _transferOwnership */\n      tag_281\n        /* \"contracts/BOMB_flattened.sol\":18527:18555  _transferOwnership(newOwner) */\n      jump\t// in\n    tag_280:\n        /* \"contracts/BOMB_flattened.sol\":18460:18560  function transferOwnership(address newOwner) public onlyOwner {... */\n      pop\n      jump\t// out\n        /* \"contracts/BOMB_flattened.sol\":5516:5689  function sub(uint256 a, uint256 b, string memory errorMessage) internal pure returns (uint256) {... */\n    tag_207:\n        /* \"contracts/BOMB_flattened.sol\":5602:5609  uint256 */\n      0x00\n        /* \"contracts/BOMB_flattened.sol\":5645:5646  a */\n      dup4\n        /* \"contracts/BOMB_flattened.sol\":5640:5641  b */\n      dup4\n        /* \"contracts/BOMB_flattened.sol\":5640:5646  b <= a */\n      gt\n      iszero\n        /* \"contracts/BOMB_flattened.sol\":5648:5660  errorMessage */\n      dup3\n        /* \"contracts/BOMB_flattened.sol\":5632:5661  require(b <= a, errorMessage) */\n      swap1\n      tag_283\n      jumpi\n      mload(0x40)\n      0x08c379a000000000000000000000000000000000000000000000000000000000\n      dup2\n      mstore\n      0x04\n      add\n      tag_284\n      swap2\n      swap1\n      tag_48\n      jump\t// in\n    tag_284:\n      mload(0x40)\n      dup1\n      swap2\n      sub\n      swap1\n      revert\n    tag_283:\n      pop\n        /* \"contracts/BOMB_flattened.sol\":5678:5679  b */\n      dup3\n        /* \"contracts/BOMB_flattened.sol\":5674:5675  a */\n      dup5\n        /* \"contracts/BOMB_flattened.sol\":5674:5679  a - b */\n      sub\n        /* \"contracts/BOMB_flattened.sol\":5667:5679  return a - b */\n      swap1\n      pop\n        /* \"contracts/BOMB_flattened.sol\":5516:5689  function sub(uint256 a, uint256 b, string memory errorMessage) internal pure returns (uint256) {... */\n      swap4\n      swap3\n      pop\n      pop\n      pop\n      jump\t// out\n        /* \"contracts/BOMB_flattened.sol\":25601:26266  function _transferFrom(address sender, address recipient, uint256 amount) internal returns (bool) {... */\n    tag_209:\n        /* \"contracts/BOMB_flattened.sol\":25693:25697  bool */\n      0x00\n        /* \"contracts/BOMB_flattened.sol\":25713:25723  _blacklist */\n      0x0e\n        /* \"contracts/BOMB_flattened.sol\":25713:25731  _blacklist[sender] */\n      0x00\n        /* \"contracts/BOMB_flattened.sol\":25724:25730  sender */\n      dup6\n        /* \"contracts/BOMB_flattened.sol\":25713:25731  _blacklist[sender] */\n      0xffffffffffffffffffffffffffffffffffffffff\n      and\n      0xffffffffffffffffffffffffffffffffffffffff\n      and\n      dup2\n      mstore\n      0x20\n      add\n      swap1\n      dup2\n      mstore\n      0x20\n      add\n      0x00\n      keccak256\n      0x00\n      swap1\n      sload\n      swap1\n      0x0100\n      exp\n      swap1\n      div\n      0xff\n      and\n        /* \"contracts/BOMB_flattened.sol\":25712:25731  !_blacklist[sender] */\n      iszero\n        /* \"contracts/BOMB_flattened.sol\":25712:25757  !_blacklist[sender] && !_blacklist[recipient] */\n      dup1\n      iszero\n      tag_286\n      jumpi\n      pop\n        /* \"contracts/BOMB_flattened.sol\":25736:25746  _blacklist */\n      0x0e\n        /* \"contracts/BOMB_flattened.sol\":25736:25757  _blacklist[recipient] */\n      0x00\n        /* \"contracts/BOMB_flattened.sol\":25747:25756  recipient */\n      dup5\n        /* \"contracts/BOMB_flattened.sol\":25736:25757  _blacklist[recipient] */\n      0xffffffffffffffffffffffffffffffffffffffff\n      and\n      0xffffffffffffffffffffffffffffffffffffffff\n      and\n      dup2\n      mstore\n      0x20\n      add\n      swap1\n      dup2\n      mstore\n      0x20\n      add\n      0x00\n      keccak256\n      0x00\n      swap1\n      sload\n      swap1\n      0x0100\n      exp\n      swap1\n      div\n      0xff\n      and\n        /* \"contracts/BOMB_flattened.sol\":25735:25757  !_blacklist[recipient] */\n      iszero\n        /* \"contracts/BOMB_flattened.sol\":25712:25757  !_blacklist[sender] && !_blacklist[recipient] */\n    tag_286:\n        /* \"contracts/BOMB_flattened.sol\":25704:25774  require(!_blacklist[sender] && !_blacklist[recipient], \"in_blacklist\") */\n      tag_287\n      jumpi\n      mload(0x40)\n      0x08c379a000000000000000000000000000000000000000000000000000000000\n      dup2\n      mstore\n      0x04\n      add\n      tag_288\n      swap1\n      tag_289\n      jump\t// in\n    tag_288:\n      mload(0x40)\n      dup1\n      swap2\n      sub\n      swap1\n      revert\n    tag_287:\n        /* \"contracts/BOMB_flattened.sol\":25785:25792  _inSwap */\n      0x11\n      0x14\n      swap1\n      sload\n      swap1\n      0x0100\n      exp\n      swap1\n      div\n      0xff\n      and\n        /* \"contracts/BOMB_flattened.sol\":25781:25854  if (_inSwap) {... */\n      iszero\n      tag_290\n      jumpi\n        /* \"contracts/BOMB_flattened.sol\":25807:25848  _basicTransfer(sender, recipient, amount) */\n      tag_291\n        /* \"contracts/BOMB_flattened.sol\":25822:25828  sender */\n      dup5\n        /* \"contracts/BOMB_flattened.sol\":25830:25839  recipient */\n      dup5\n        /* \"contracts/BOMB_flattened.sol\":25841:25847  amount */\n      dup5\n        /* \"contracts/BOMB_flattened.sol\":25807:25821  _basicTransfer */\n      tag_292\n        /* \"contracts/BOMB_flattened.sol\":25807:25848  _basicTransfer(sender, recipient, amount) */\n      jump\t// in\n    tag_291:\n        /* \"contracts/BOMB_flattened.sol\":25800:25848  return _basicTransfer(sender, recipient, amount) */\n      swap1\n      pop\n      jump(tag_285)\n        /* \"contracts/BOMB_flattened.sol\":25781:25854  if (_inSwap) {... */\n    tag_290:\n        /* \"contracts/BOMB_flattened.sol\":25862:25876  shouldRebase() */\n      tag_293\n        /* \"contracts/BOMB_flattened.sol\":25862:25874  shouldRebase */\n      tag_294\n        /* \"contracts/BOMB_flattened.sol\":25862:25876  shouldRebase() */\n      jump\t// in\n    tag_293:\n        /* \"contracts/BOMB_flattened.sol\":25858:25899  if (shouldRebase()) {... */\n      iszero\n      tag_295\n      jumpi\n        /* \"contracts/BOMB_flattened.sol\":25884:25893  _rebase() */\n      tag_296\n        /* \"contracts/BOMB_flattened.sol\":25884:25891  _rebase */\n      tag_297\n        /* \"contracts/BOMB_flattened.sol\":25884:25893  _rebase() */\n      jump\t// in\n    tag_296:\n        /* \"contracts/BOMB_flattened.sol\":25858:25899  if (shouldRebase()) {... */\n    tag_295:\n        /* \"contracts/BOMB_flattened.sol\":25963:25990  _subBalance(sender, amount) */\n      tag_298\n        /* \"contracts/BOMB_flattened.sol\":25975:25981  sender */\n      dup5\n        /* \"contracts/BOMB_flattened.sol\":25983:25989  amount */\n      dup4\n        /* \"contracts/BOMB_flattened.sol\":25963:25974  _subBalance */\n      tag_299\n        /* \"contracts/BOMB_flattened.sol\":25963:25990  _subBalance(sender, amount) */\n      jump\t// in\n    tag_298:\n        /* \"contracts/BOMB_flattened.sol\":25997:26019  uint256 amountReceived */\n      0x00\n        /* \"contracts/BOMB_flattened.sol\":26022:26054  shouldTakeFee(sender, recipient) */\n      tag_300\n        /* \"contracts/BOMB_flattened.sol\":26036:26042  sender */\n      dup6\n        /* \"contracts/BOMB_flattened.sol\":26044:26053  recipient */\n      dup6\n        /* \"contracts/BOMB_flattened.sol\":26022:26035  shouldTakeFee */\n      tag_301\n        /* \"contracts/BOMB_flattened.sol\":26022:26054  shouldTakeFee(sender, recipient) */\n      jump\t// in\n    tag_300:\n        /* \"contracts/BOMB_flattened.sol\":26022:26090  shouldTakeFee(sender, recipient) ? _takeFee(sender, amount) : amount */\n      tag_302\n      jumpi\n        /* \"contracts/BOMB_flattened.sol\":26084:26090  amount */\n      dup3\n        /* \"contracts/BOMB_flattened.sol\":26022:26090  shouldTakeFee(sender, recipient) ? _takeFee(sender, amount) : amount */\n      jump(tag_303)\n    tag_302:\n        /* \"contracts/BOMB_flattened.sol\":26057:26081  _takeFee(sender, amount) */\n      tag_304\n        /* \"contracts/BOMB_flattened.sol\":26066:26072  sender */\n      dup6\n        /* \"contracts/BOMB_flattened.sol\":26074:26080  amount */\n      dup5\n        /* \"contracts/BOMB_flattened.sol\":26057:26065  _takeFee */\n      tag_305\n        /* \"contracts/BOMB_flattened.sol\":26057:26081  _takeFee(sender, amount) */\n      jump\t// in\n    tag_304:\n        /* \"contracts/BOMB_flattened.sol\":26022:26090  shouldTakeFee(sender, recipient) ? _takeFee(sender, amount) : amount */\n    tag_303:\n        /* \"contracts/BOMB_flattened.sol\":25997:26090  uint256 amountReceived = shouldTakeFee(sender, recipient) ? _takeFee(sender, amount) : amount */\n      swap1\n      pop\n        /* \"contracts/BOMB_flattened.sol\":26095:26133  _addBalance(recipient, amountReceived) */\n      tag_306\n        /* \"contracts/BOMB_flattened.sol\":26107:26116  recipient */\n      dup5\n        /* \"contracts/BOMB_flattened.sol\":26118:26132  amountReceived */\n      dup3\n        /* \"contracts/BOMB_flattened.sol\":26095:26106  _addBalance */\n      tag_307\n        /* \"contracts/BOMB_flattened.sol\":26095:26133  _addBalance(recipient, amountReceived) */\n      jump\t// in\n    tag_306:\n        /* \"contracts/BOMB_flattened.sol\":26162:26171  recipient */\n      dup4\n        /* \"contracts/BOMB_flattened.sol\":26145:26188  Transfer(sender, recipient, amountReceived) */\n      0xffffffffffffffffffffffffffffffffffffffff\n      and\n        /* \"contracts/BOMB_flattened.sol\":26154:26160  sender */\n      dup6\n        /* \"contracts/BOMB_flattened.sol\":26145:26188  Transfer(sender, recipient, amountReceived) */\n      0xffffffffffffffffffffffffffffffffffffffff\n      and\n      0xddf252ad1be2c89b69c2b068fc378daa952ba7f163c4a11628f55a4df523b3ef\n        /* \"contracts/BOMB_flattened.sol\":26173:26187  amountReceived */\n      dup4\n        /* \"contracts/BOMB_flattened.sol\":26145:26188  Transfer(sender, recipient, amountReceived) */\n      mload(0x40)\n      tag_308\n      swap2\n      swap1\n      tag_60\n      jump\t// in\n    tag_308:\n      mload(0x40)\n      dup1\n      swap2\n      sub\n      swap1\n      log3\n        /* \"contracts/BOMB_flattened.sol\":26199:26217  shouldDistribute() */\n      tag_309\n        /* \"contracts/BOMB_flattened.sol\":26199:26215  shouldDistribute */\n      tag_310\n        /* \"contracts/BOMB_flattened.sol\":26199:26217  shouldDistribute() */\n      jump\t// in\n    tag_309:\n        /* \"contracts/BOMB_flattened.sol\":26195:26244  if (shouldDistribute()) {... */\n      iszero\n      tag_311\n      jumpi\n        /* \"contracts/BOMB_flattened.sol\":26225:26238  _distribute() */\n      tag_312\n        /* \"contracts/BOMB_flattened.sol\":26225:26236  _distribute */\n      tag_313\n        /* \"contracts/BOMB_flattened.sol\":26225:26238  _distribute() */\n      jump\t// in\n    tag_312:\n        /* \"contracts/BOMB_flattened.sol\":26195:26244  if (shouldDistribute()) {... */\n    tag_311:\n        /* \"contracts/BOMB_flattened.sol\":26257:26261  true */\n      0x01\n        /* \"contracts/BOMB_flattened.sol\":26250:26261  return true */\n      swap2\n      pop\n      pop\n        /* \"contracts/BOMB_flattened.sol\":25601:26266  function _transferFrom(address sender, address recipient, uint256 amount) internal returns (bool) {... */\n    tag_285:\n      swap4\n      swap3\n      pop\n      pop\n      pop\n      jump\t// out\n        /* \"contracts/BOMB_flattened.sol\":22001:22152  function isContract(address addr) internal view returns (bool) {... */\n    tag_224:\n        /* \"contracts/BOMB_flattened.sol\":22058:22062  bool */\n      0x00\n        /* \"contracts/BOMB_flattened.sol\":22069:22078  uint size */\n      dup1\n        /* \"contracts/BOMB_flattened.sol\":22118:22122  addr */\n      dup3\n        /* \"contracts/BOMB_flattened.sol\":22106:22123  extcodesize(addr) */\n      extcodesize\n        /* \"contracts/BOMB_flattened.sol\":22098:22123  size := extcodesize(addr) */\n      swap1\n      pop\n        /* \"contracts/BOMB_flattened.sol\":22146:22147  0 */\n      0x00\n        /* \"contracts/BOMB_flattened.sol\":22139:22143  size */\n      dup2\n        /* \"contracts/BOMB_flattened.sol\":22139:22147  size > 0 */\n      gt\n        /* \"contracts/BOMB_flattened.sol\":22132:22147  return size > 0 */\n      swap2\n      pop\n      pop\n        /* \"contracts/BOMB_flattened.sol\":22001:22152  function isContract(address addr) internal view returns (bool) {... */\n      swap2\n      swap1\n      pop\n      jump\t// out\n        /* \"contracts/BOMB_flattened.sol\":3462:3551  function add(uint256 a, uint256 b) internal pure returns (uint256) {... */\n    tag_230:\n        /* \"contracts/BOMB_flattened.sol\":3520:3527  uint256 */\n      0x00\n        /* \"contracts/BOMB_flattened.sol\":3545:3546  b */\n      dup2\n        /* \"contracts/BOMB_flattened.sol\":3541:3542  a */\n      dup4\n        /* \"contracts/BOMB_flattened.sol\":3541:3546  a + b */\n      tag_316\n      swap2\n      swap1\n      tag_317\n      jump\t// in\n    tag_316:\n        /* \"contracts/BOMB_flattened.sol\":3534:3546  return a + b */\n      swap1\n      pop\n        /* \"contracts/BOMB_flattened.sol\":3462:3551  function add(uint256 a, uint256 b) internal pure returns (uint256) {... */\n      swap3\n      swap2\n      pop\n      pop\n      jump\t// out\n        /* \"contracts/BOMB_flattened.sol\":3801:3890  function sub(uint256 a, uint256 b) internal pure returns (uint256) {... */\n    tag_258:\n        /* \"contracts/BOMB_flattened.sol\":3859:3866  uint256 */\n      0x00\n        /* \"contracts/BOMB_flattened.sol\":3884:3885  b */\n      dup2\n        /* \"contracts/BOMB_flattened.sol\":3880:3881  a */\n      dup4\n        /* \"contracts/BOMB_flattened.sol\":3880:3885  a - b */\n      tag_319\n      swap2\n      swap1\n      tag_320\n      jump\t// in\n    tag_319:\n        /* \"contracts/BOMB_flattened.sol\":3873:3885  return a - b */\n      swap1\n      pop\n        /* \"contracts/BOMB_flattened.sol\":3801:3890  function sub(uint256 a, uint256 b) internal pure returns (uint256) {... */\n      swap3\n      swap2\n      pop\n      pop\n      jump\t// out\n        /* \"contracts/BOMB_flattened.sol\":18565:18731  function _transferOwnership(address newOwner) internal {... */\n    tag_281:\n        /* \"contracts/BOMB_flattened.sol\":18653:18654  0 */\n      0x00\n        /* \"contracts/BOMB_flattened.sol\":18633:18655  newOwner != address(0) */\n      0xffffffffffffffffffffffffffffffffffffffff\n      and\n        /* \"contracts/BOMB_flattened.sol\":18633:18641  newOwner */\n      dup2\n        /* \"contracts/BOMB_flattened.sol\":18633:18655  newOwner != address(0) */\n      0xffffffffffffffffffffffffffffffffffffffff\n      and\n      sub\n        /* \"contracts/BOMB_flattened.sol\":18625:18656  require(newOwner != address(0)) */\n      tag_322\n      jumpi\n      0x00\n      dup1\n      revert\n    tag_322:\n        /* \"contracts/BOMB_flattened.sol\":18695:18703  newOwner */\n      dup1\n        /* \"contracts/BOMB_flattened.sol\":18666:18704  OwnershipTransferred(_owner, newOwner) */\n      0xffffffffffffffffffffffffffffffffffffffff\n      and\n        /* \"contracts/BOMB_flattened.sol\":18687:18693  _owner */\n      0x02\n      0x01\n      swap1\n      sload\n      swap1\n      0x0100\n      exp\n      swap1\n      div\n      0xffffffffffffffffffffffffffffffffffffffff\n      and\n        /* \"contracts/BOMB_flattened.sol\":18666:18704  OwnershipTransferred(_owner, newOwner) */\n      0xffffffffffffffffffffffffffffffffffffffff\n      and\n      0x8be0079c531659141344cd1fd0a4f28419497f9722a3daafe3b4186f6b6457e0\n      mload(0x40)\n      mload(0x40)\n      dup1\n      swap2\n      sub\n      swap1\n      log3\n        /* \"contracts/BOMB_flattened.sol\":18718:18726  newOwner */\n      dup1\n        /* \"contracts/BOMB_flattened.sol\":18709:18715  _owner */\n      0x02\n      0x01\n        /* \"contracts/BOMB_flattened.sol\":18709:18726  _owner = newOwner */\n      0x0100\n      exp\n      dup2\n      sload\n      dup2\n      0xffffffffffffffffffffffffffffffffffffffff\n      mul\n      not\n      and\n      swap1\n      dup4\n      0xffffffffffffffffffffffffffffffffffffffff\n      and\n      mul\n      or\n      swap1\n      sstore\n      pop\n        /* \"contracts/BOMB_flattened.sol\":18565:18731  function _transferOwnership(address newOwner) internal {... */\n      pop\n      jump\t// out\n        /* \"contracts/BOMB_flattened.sol\":25369:25596  function _basicTransfer(address from, address to, uint256 amount) internal returns (bool) {... */\n    tag_292:\n        /* \"contracts/BOMB_flattened.sol\":25453:25457  bool */\n      0x00\n        /* \"contracts/BOMB_flattened.sol\":25522:25547  _subBalance(from, amount) */\n      tag_324\n        /* \"contracts/BOMB_flattened.sol\":25534:25538  from */\n      dup5\n        /* \"contracts/BOMB_flattened.sol\":25540:25546  amount */\n      dup4\n        /* \"contracts/BOMB_flattened.sol\":25522:25533  _subBalance */\n      tag_299\n        /* \"contracts/BOMB_flattened.sol\":25522:25547  _subBalance(from, amount) */\n      jump\t// in\n    tag_324:\n        /* \"contracts/BOMB_flattened.sol\":25552:25575  _addBalance(to, amount) */\n      tag_325\n        /* \"contracts/BOMB_flattened.sol\":25564:25566  to */\n      dup4\n        /* \"contracts/BOMB_flattened.sol\":25568:25574  amount */\n      dup4\n        /* \"contracts/BOMB_flattened.sol\":25552:25563  _addBalance */\n      tag_307\n        /* \"contracts/BOMB_flattened.sol\":25552:25575  _addBalance(to, amount) */\n      jump\t// in\n    tag_325:\n        /* \"contracts/BOMB_flattened.sol\":25587:25591  true */\n      0x01\n        /* \"contracts/BOMB_flattened.sol\":25580:25591  return true */\n      swap1\n      pop\n        /* \"contracts/BOMB_flattened.sol\":25369:25596  function _basicTransfer(address from, address to, uint256 amount) internal returns (bool) {... */\n      swap4\n      swap3\n      pop\n      pop\n      pop\n      jump\t// out\n        /* \"contracts/BOMB_flattened.sol\":22328:22538  function shouldRebase() internal view returns (bool) {... */\n    tag_294:\n        /* \"contracts/BOMB_flattened.sol\":22375:22379  bool */\n      0x00\n        /* \"contracts/BOMB_flattened.sol\":22393:22404  _autoRebase */\n      0x05\n      0x00\n      swap1\n      sload\n      swap1\n      0x0100\n      exp\n      swap1\n      div\n      0xff\n      and\n        /* \"contracts/BOMB_flattened.sol\":22393:22435  _autoRebase && (_totalSupply < MAX_SUPPLY) */\n      dup1\n      iszero\n      tag_327\n      jumpi\n      pop\n        /* \"contracts/BOMB_flattened.sol\":19051:19052  5 */\n      0x05\n        /* \"contracts/BOMB_flattened.sol\":19211:19213  10 */\n      0x0a\n        /* \"contracts/BOMB_flattened.sol\":19211:19225  10 ** DECIMALS */\n      tag_328\n      swap2\n      swap1\n      tag_329\n      jump\t// in\n    tag_328:\n        /* \"contracts/BOMB_flattened.sol\":19195:19208  325 * 10 ** 7 */\n      0xc1b71080\n        /* \"contracts/BOMB_flattened.sol\":19195:19225  325 * 10 ** 7 * 10 ** DECIMALS */\n      tag_330\n      swap2\n      swap1\n      tag_331\n      jump\t// in\n    tag_330:\n        /* \"contracts/BOMB_flattened.sol\":22409:22421  _totalSupply */\n      sload(0x08)\n        /* \"contracts/BOMB_flattened.sol\":22409:22434  _totalSupply < MAX_SUPPLY */\n      lt\n        /* \"contracts/BOMB_flattened.sol\":22393:22435  _autoRebase && (_totalSupply < MAX_SUPPLY) */\n    tag_327:\n        /* \"contracts/BOMB_flattened.sol\":22393:22467  _autoRebase && (_totalSupply < MAX_SUPPLY) && msg.sender != address(_pair) */\n      dup1\n      iszero\n      tag_332\n      jumpi\n      pop\n        /* \"contracts/BOMB_flattened.sol\":22461:22466  _pair */\n      0x11\n      0x00\n      swap1\n      sload\n      swap1\n      0x0100\n      exp\n      swap1\n      div\n      0xffffffffffffffffffffffffffffffffffffffff\n      and\n        /* \"contracts/BOMB_flattened.sol\":22439:22467  msg.sender != address(_pair) */\n      0xffffffffffffffffffffffffffffffffffffffff\n      and\n        /* \"contracts/BOMB_flattened.sol\":22439:22449  msg.sender */\n      caller\n        /* \"contracts/BOMB_flattened.sol\":22439:22467  msg.sender != address(_pair) */\n      0xffffffffffffffffffffffffffffffffffffffff\n      and\n      eq\n      iszero\n        /* \"contracts/BOMB_flattened.sol\":22393:22467  _autoRebase && (_totalSupply < MAX_SUPPLY) && msg.sender != address(_pair) */\n    tag_332:\n        /* \"contracts/BOMB_flattened.sol\":22393:22479  _autoRebase && (_totalSupply < MAX_SUPPLY) && msg.sender != address(_pair) && !_inSwap */\n      dup1\n      iszero\n      tag_333\n      jumpi\n      pop\n        /* \"contracts/BOMB_flattened.sol\":22472:22479  _inSwap */\n      0x11\n      0x14\n      swap1\n      sload\n      swap1\n      0x0100\n      exp\n      swap1\n      div\n      0xff\n      and\n        /* \"contracts/BOMB_flattened.sol\":22471:22479  !_inSwap */\n      iszero\n        /* \"contracts/BOMB_flattened.sol\":22393:22479  _autoRebase && (_totalSupply < MAX_SUPPLY) && msg.sender != address(_pair) && !_inSwap */\n    tag_333:\n        /* \"contracts/BOMB_flattened.sol\":22393:22533  _autoRebase && (_totalSupply < MAX_SUPPLY) && msg.sender != address(_pair) && !_inSwap && block.timestamp >= (_lastRebasedTime + 15 minutes) */\n      dup1\n      iszero\n      tag_334\n      jumpi\n      pop\n        /* \"contracts/BOMB_flattened.sol\":22522:22532  15 minutes */\n      0x0384\n        /* \"contracts/BOMB_flattened.sol\":22503:22519  _lastRebasedTime */\n      sload(0x07)\n        /* \"contracts/BOMB_flattened.sol\":22503:22532  _lastRebasedTime + 15 minutes */\n      tag_335\n      swap2\n      swap1\n      tag_317\n      jump\t// in\n    tag_335:\n        /* \"contracts/BOMB_flattened.sol\":22483:22498  block.timestamp */\n      timestamp\n        /* \"contracts/BOMB_flattened.sol\":22483:22533  block.timestamp >= (_lastRebasedTime + 15 minutes) */\n      lt\n      iszero\n        /* \"contracts/BOMB_flattened.sol\":22393:22533  _autoRebase && (_totalSupply < MAX_SUPPLY) && msg.sender != address(_pair) && !_inSwap && block.timestamp >= (_lastRebasedTime + 15 minutes) */\n    tag_334:\n        /* \"contracts/BOMB_flattened.sol\":22386:22533  return _autoRebase && (_totalSupply < MAX_SUPPLY) && msg.sender != address(_pair) && !_inSwap && block.timestamp >= (_lastRebasedTime + 15 minutes) */\n      swap1\n      pop\n        /* \"contracts/BOMB_flattened.sol\":22328:22538  function shouldRebase() internal view returns (bool) {... */\n      swap1\n      jump\t// out\n        /* \"contracts/BOMB_flattened.sol\":27228:28092  function _rebase() internal {... */\n    tag_297:\n        /* \"contracts/BOMB_flattened.sol\":27265:27272  _inSwap */\n      0x11\n      0x14\n      swap1\n      sload\n      swap1\n      0x0100\n      exp\n      swap1\n      div\n      0xff\n      and\n        /* \"contracts/BOMB_flattened.sol\":27274:27281  return; */\n      tag_336\n        /* \"contracts/BOMB_flattened.sol\":27261:27281  if (_inSwap) return; */\n      jumpi\n        /* \"contracts/BOMB_flattened.sol\":27285:27303  uint256 rebaseRate */\n      0x00\n        /* \"contracts/BOMB_flattened.sol\":27308:27333  uint256 deltaTimeFromInit */\n      dup1\n        /* \"contracts/BOMB_flattened.sol\":27354:27374  _initRebaseStartTime */\n      sload(0x06)\n        /* \"contracts/BOMB_flattened.sol\":27336:27351  block.timestamp */\n      timestamp\n        /* \"contracts/BOMB_flattened.sol\":27336:27374  block.timestamp - _initRebaseStartTime */\n      tag_338\n      swap2\n      swap1\n      tag_320\n      jump\t// in\n    tag_338:\n        /* \"contracts/BOMB_flattened.sol\":27308:27374  uint256 deltaTimeFromInit = block.timestamp - _initRebaseStartTime */\n      swap1\n      pop\n        /* \"contracts/BOMB_flattened.sol\":27379:27396  uint256 deltaTime */\n      0x00\n        /* \"contracts/BOMB_flattened.sol\":27417:27433  _lastRebasedTime */\n      sload(0x07)\n        /* \"contracts/BOMB_flattened.sol\":27399:27414  block.timestamp */\n      timestamp\n        /* \"contracts/BOMB_flattened.sol\":27399:27433  block.timestamp - _lastRebasedTime */\n      tag_339\n      swap2\n      swap1\n      tag_320\n      jump\t// in\n    tag_339:\n        /* \"contracts/BOMB_flattened.sol\":27379:27433  uint256 deltaTime = block.timestamp - _lastRebasedTime */\n      swap1\n      pop\n        /* \"contracts/BOMB_flattened.sol\":27438:27451  uint256 times */\n      0x00\n        /* \"contracts/BOMB_flattened.sol\":27454:27479  deltaTime.div(15 minutes) */\n      tag_340\n        /* \"contracts/BOMB_flattened.sol\":27468:27478  15 minutes */\n      0x0384\n        /* \"contracts/BOMB_flattened.sol\":27454:27463  deltaTime */\n      dup4\n        /* \"contracts/BOMB_flattened.sol\":27454:27467  deltaTime.div */\n      tag_341\n      swap1\n        /* \"contracts/BOMB_flattened.sol\":27454:27479  deltaTime.div(15 minutes) */\n      swap2\n      swap1\n      0xffffffff\n      and\n      jump\t// in\n    tag_340:\n        /* \"contracts/BOMB_flattened.sol\":27438:27479  uint256 times = deltaTime.div(15 minutes) */\n      swap1\n      pop\n        /* \"contracts/BOMB_flattened.sol\":27484:27497  uint256 epoch */\n      0x00\n        /* \"contracts/BOMB_flattened.sol\":27500:27513  times.mul(15) */\n      tag_342\n        /* \"contracts/BOMB_flattened.sol\":27510:27512  15 */\n      0x0f\n        /* \"contracts/BOMB_flattened.sol\":27500:27505  times */\n      dup4\n        /* \"contracts/BOMB_flattened.sol\":27500:27509  times.mul */\n      tag_343\n      swap1\n        /* \"contracts/BOMB_flattened.sol\":27500:27513  times.mul(15) */\n      swap2\n      swap1\n      0xffffffff\n      and\n      jump\t// in\n    tag_342:\n        /* \"contracts/BOMB_flattened.sol\":27484:27513  uint256 epoch = times.mul(15) */\n      swap1\n      pop\n        /* \"contracts/BOMB_flattened.sol\":27545:27553  365 days */\n      0x01e13380\n        /* \"contracts/BOMB_flattened.sol\":27524:27541  deltaTimeFromInit */\n      dup5\n        /* \"contracts/BOMB_flattened.sol\":27524:27554  deltaTimeFromInit < (365 days) */\n      lt\n        /* \"contracts/BOMB_flattened.sol\":27520:27811  if (deltaTimeFromInit < (365 days)) {... */\n      iszero\n      tag_344\n      jumpi\n        /* \"contracts/BOMB_flattened.sol\":27575:27579  2355 */\n      0x0933\n        /* \"contracts/BOMB_flattened.sol\":27562:27579  rebaseRate = 2355 */\n      swap5\n      pop\n        /* \"contracts/BOMB_flattened.sol\":27520:27811  if (deltaTimeFromInit < (365 days)) {... */\n      jump(tag_345)\n    tag_344:\n        /* \"contracts/BOMB_flattened.sol\":27617:27625  365 days */\n      0x01e13380\n        /* \"contracts/BOMB_flattened.sol\":27595:27612  deltaTimeFromInit */\n      dup5\n        /* \"contracts/BOMB_flattened.sol\":27595:27626  deltaTimeFromInit >= (365 days) */\n      lt\n        /* \"contracts/BOMB_flattened.sol\":27591:27811  if (deltaTimeFromInit >= (365 days)) {... */\n      tag_346\n      jumpi\n        /* \"contracts/BOMB_flattened.sol\":27647:27650  211 */\n      0xd3\n        /* \"contracts/BOMB_flattened.sol\":27634:27650  rebaseRate = 211 */\n      swap5\n      pop\n        /* \"contracts/BOMB_flattened.sol\":27591:27811  if (deltaTimeFromInit >= (365 days)) {... */\n      jump(tag_347)\n    tag_346:\n        /* \"contracts/BOMB_flattened.sol\":27688:27708  (15 * 365 days) / 10 */\n      0x02d1cd40\n        /* \"contracts/BOMB_flattened.sol\":27666:27683  deltaTimeFromInit */\n      dup5\n        /* \"contracts/BOMB_flattened.sol\":27666:27709  deltaTimeFromInit >= ((15 * 365 days) / 10) */\n      lt\n        /* \"contracts/BOMB_flattened.sol\":27662:27811  if (deltaTimeFromInit >= ((15 * 365 days) / 10)) {... */\n      tag_348\n      jumpi\n        /* \"contracts/BOMB_flattened.sol\":27730:27732  14 */\n      0x0e\n        /* \"contracts/BOMB_flattened.sol\":27717:27732  rebaseRate = 14 */\n      swap5\n      pop\n        /* \"contracts/BOMB_flattened.sol\":27662:27811  if (deltaTimeFromInit >= ((15 * 365 days) / 10)) {... */\n      jump(tag_349)\n    tag_348:\n        /* \"contracts/BOMB_flattened.sol\":27770:27782  7 * 365 days */\n      0x0d286880\n        /* \"contracts/BOMB_flattened.sol\":27748:27765  deltaTimeFromInit */\n      dup5\n        /* \"contracts/BOMB_flattened.sol\":27748:27783  deltaTimeFromInit >= (7 * 365 days) */\n      lt\n        /* \"contracts/BOMB_flattened.sol\":27744:27811  if (deltaTimeFromInit >= (7 * 365 days)) {... */\n      tag_350\n      jumpi\n        /* \"contracts/BOMB_flattened.sol\":27804:27805  2 */\n      0x02\n        /* \"contracts/BOMB_flattened.sol\":27791:27805  rebaseRate = 2 */\n      swap5\n      pop\n        /* \"contracts/BOMB_flattened.sol\":27744:27811  if (deltaTimeFromInit >= (7 * 365 days)) {... */\n    tag_350:\n        /* \"contracts/BOMB_flattened.sol\":27662:27811  if (deltaTimeFromInit >= ((15 * 365 days) / 10)) {... */\n    tag_349:\n        /* \"contracts/BOMB_flattened.sol\":27591:27811  if (deltaTimeFromInit >= (365 days)) {... */\n    tag_347:\n        /* \"contracts/BOMB_flattened.sol\":27520:27811  if (deltaTimeFromInit < (365 days)) {... */\n    tag_345:\n        /* \"contracts/BOMB_flattened.sol\":27822:27831  uint256 i */\n      0x00\n        /* \"contracts/BOMB_flattened.sol\":27817:27960  for (uint256 i = 0; i < times; i++) {... */\n    tag_351:\n        /* \"contracts/BOMB_flattened.sol\":27841:27846  times */\n      dup3\n        /* \"contracts/BOMB_flattened.sol\":27837:27838  i */\n      dup2\n        /* \"contracts/BOMB_flattened.sol\":27837:27846  i < times */\n      lt\n        /* \"contracts/BOMB_flattened.sol\":27817:27960  for (uint256 i = 0; i < times; i++) {... */\n      iszero\n      tag_352\n      jumpi\n        /* \"contracts/BOMB_flattened.sol\":27874:27954  _totalSupply.mul((10 ** RATE_DECIMALS).add(rebaseRate)).div(10 ** RATE_DECIMALS) */\n      tag_354\n        /* \"contracts/BOMB_flattened.sol\":19096:19097  7 */\n      0x07\n        /* \"contracts/BOMB_flattened.sol\":27934:27936  10 */\n      0x0a\n        /* \"contracts/BOMB_flattened.sol\":27934:27953  10 ** RATE_DECIMALS */\n      tag_355\n      swap2\n      swap1\n      tag_329\n      jump\t// in\n    tag_355:\n        /* \"contracts/BOMB_flattened.sol\":27874:27929  _totalSupply.mul((10 ** RATE_DECIMALS).add(rebaseRate)) */\n      tag_356\n        /* \"contracts/BOMB_flattened.sol\":27891:27928  (10 ** RATE_DECIMALS).add(rebaseRate) */\n      tag_357\n        /* \"contracts/BOMB_flattened.sol\":27917:27927  rebaseRate */\n      dup10\n        /* \"contracts/BOMB_flattened.sol\":19096:19097  7 */\n      0x07\n        /* \"contracts/BOMB_flattened.sol\":27892:27894  10 */\n      0x0a\n        /* \"contracts/BOMB_flattened.sol\":27892:27911  10 ** RATE_DECIMALS */\n      tag_358\n      swap2\n      swap1\n      tag_329\n      jump\t// in\n    tag_358:\n        /* \"contracts/BOMB_flattened.sol\":27891:27916  (10 ** RATE_DECIMALS).add */\n      tag_230\n      swap1\n        /* \"contracts/BOMB_flattened.sol\":27891:27928  (10 ** RATE_DECIMALS).add(rebaseRate) */\n      swap2\n      swap1\n      0xffffffff\n      and\n      jump\t// in\n    tag_357:\n        /* \"contracts/BOMB_flattened.sol\":27874:27886  _totalSupply */\n      sload(0x08)\n        /* \"contracts/BOMB_flattened.sol\":27874:27890  _totalSupply.mul */\n      tag_343\n      swap1\n        /* \"contracts/BOMB_flattened.sol\":27874:27929  _totalSupply.mul((10 ** RATE_DECIMALS).add(rebaseRate)) */\n      swap2\n      swap1\n      0xffffffff\n      and\n      jump\t// in\n    tag_356:\n        /* \"contracts/BOMB_flattened.sol\":27874:27933  _totalSupply.mul((10 ** RATE_DECIMALS).add(rebaseRate)).div */\n      tag_341\n      swap1\n        /* \"contracts/BOMB_flattened.sol\":27874:27954  _totalSupply.mul((10 ** RATE_DECIMALS).add(rebaseRate)).div(10 ** RATE_DECIMALS) */\n      swap2\n      swap1\n      0xffffffff\n      and\n      jump\t// in\n    tag_354:\n        /* \"contracts/BOMB_flattened.sol\":27859:27871  _totalSupply */\n      0x08\n        /* \"contracts/BOMB_flattened.sol\":27859:27954  _totalSupply = _totalSupply.mul((10 ** RATE_DECIMALS).add(rebaseRate)).div(10 ** RATE_DECIMALS) */\n      dup2\n      swap1\n      sstore\n      pop\n        /* \"contracts/BOMB_flattened.sol\":27848:27851  i++ */\n      dup1\n      dup1\n      0x01\n      add\n      swap2\n      pop\n      pop\n        /* \"contracts/BOMB_flattened.sol\":27817:27960  for (uint256 i = 0; i < times; i++) {... */\n      jump(tag_351)\n    tag_352:\n      pop\n        /* \"contracts/BOMB_flattened.sol\":27985:28028  _lastRebasedTime.add(times.mul(15 minutes)) */\n      tag_359\n        /* \"contracts/BOMB_flattened.sol\":28006:28027  times.mul(15 minutes) */\n      tag_360\n        /* \"contracts/BOMB_flattened.sol\":28016:28026  15 minutes */\n      0x0384\n        /* \"contracts/BOMB_flattened.sol\":28006:28011  times */\n      dup5\n        /* \"contracts/BOMB_flattened.sol\":28006:28015  times.mul */\n      tag_343\n      swap1\n        /* \"contracts/BOMB_flattened.sol\":28006:28027  times.mul(15 minutes) */\n      swap2\n      swap1\n      0xffffffff\n      and\n      jump\t// in\n    tag_360:\n        /* \"contracts/BOMB_flattened.sol\":27985:28001  _lastRebasedTime */\n      sload(0x07)\n        /* \"contracts/BOMB_flattened.sol\":27985:28005  _lastRebasedTime.add */\n      tag_230\n      swap1\n        /* \"contracts/BOMB_flattened.sol\":27985:28028  _lastRebasedTime.add(times.mul(15 minutes)) */\n      swap2\n      swap1\n      0xffffffff\n      and\n      jump\t// in\n    tag_359:\n        /* \"contracts/BOMB_flattened.sol\":27966:27982  _lastRebasedTime */\n      0x07\n        /* \"contracts/BOMB_flattened.sol\":27966:28028  _lastRebasedTime = _lastRebasedTime.add(times.mul(15 minutes)) */\n      dup2\n      swap1\n      sstore\n      pop\n        /* \"contracts/BOMB_flattened.sol\":28033:28038  _pair */\n      0x11\n      0x00\n      swap1\n      sload\n      swap1\n      0x0100\n      exp\n      swap1\n      div\n      0xffffffffffffffffffffffffffffffffffffffff\n      and\n        /* \"contracts/BOMB_flattened.sol\":28033:28043  _pair.sync */\n      0xffffffffffffffffffffffffffffffffffffffff\n      and\n      0xfff6cae9\n        /* \"contracts/BOMB_flattened.sol\":28033:28045  _pair.sync() */\n      mload(0x40)\n      dup2\n      0xffffffff\n      and\n      0xe0\n      shl\n      dup2\n      mstore\n      0x04\n      add\n      0x00\n      mload(0x40)\n      dup1\n      dup4\n      sub\n      dup2\n      0x00\n      dup8\n      dup1\n      extcodesize\n      iszero\n      dup1\n      iszero\n      tag_361\n      jumpi\n      0x00\n      dup1\n      revert\n    tag_361:\n      pop\n      gas\n      call\n      iszero\n      dup1\n      iszero\n      tag_363\n      jumpi\n      returndatasize\n      0x00\n      dup1\n      returndatacopy\n      revert(0x00, returndatasize)\n    tag_363:\n      pop\n      pop\n      pop\n      pop\n        /* \"contracts/BOMB_flattened.sol\":28067:28072  epoch */\n      dup1\n        /* \"contracts/BOMB_flattened.sol\":28057:28087  LogRebase(epoch, _totalSupply) */\n      0x72725a3b1e5bd622d6bcd1339bb31279c351abe8f541ac7fd320f24e1b1641f2\n        /* \"contracts/BOMB_flattened.sol\":28074:28086  _totalSupply */\n      sload(0x08)\n        /* \"contracts/BOMB_flattened.sol\":28057:28087  LogRebase(epoch, _totalSupply) */\n      mload(0x40)\n      tag_364\n      swap2\n      swap1\n      tag_60\n      jump\t// in\n    tag_364:\n      mload(0x40)\n      dup1\n      swap2\n      sub\n      swap1\n      log2\n        /* \"contracts/BOMB_flattened.sol\":27256:28092  {... */\n      pop\n      pop\n      pop\n      pop\n      pop\n        /* \"contracts/BOMB_flattened.sol\":27228:28092  function _rebase() internal {... */\n    tag_336:\n      jump\t// out\n        /* \"contracts/BOMB_flattened.sol\":21003:21115  function _subBalance(address addr, uint256 diff) internal {... */\n    tag_299:\n        /* \"contracts/BOMB_flattened.sol\":21066:21110  _setBalance(addr, _balances[addr].sub(diff)) */\n      tag_366\n        /* \"contracts/BOMB_flattened.sol\":21078:21082  addr */\n      dup3\n        /* \"contracts/BOMB_flattened.sol\":21084:21109  _balances[addr].sub(diff) */\n      tag_367\n        /* \"contracts/BOMB_flattened.sol\":21104:21108  diff */\n      dup4\n        /* \"contracts/BOMB_flattened.sol\":21084:21093  _balances */\n      0x0b\n        /* \"contracts/BOMB_flattened.sol\":21084:21099  _balances[addr] */\n      0x00\n        /* \"contracts/BOMB_flattened.sol\":21094:21098  addr */\n      dup8\n        /* \"contracts/BOMB_flattened.sol\":21084:21099  _balances[addr] */\n      0xffffffffffffffffffffffffffffffffffffffff\n      and\n      0xffffffffffffffffffffffffffffffffffffffff\n      and\n      dup2\n      mstore\n      0x20\n      add\n      swap1\n      dup2\n      mstore\n      0x20\n      add\n      0x00\n      keccak256\n      sload\n        /* \"contracts/BOMB_flattened.sol\":21084:21103  _balances[addr].sub */\n      tag_258\n      swap1\n        /* \"contracts/BOMB_flattened.sol\":21084:21109  _balances[addr].sub(diff) */\n      swap2\n      swap1\n      0xffffffff\n      and\n      jump\t// in\n    tag_367:\n        /* \"contracts/BOMB_flattened.sol\":21066:21077  _setBalance */\n      tag_368\n        /* \"contracts/BOMB_flattened.sol\":21066:21110  _setBalance(addr, _balances[addr].sub(diff)) */\n      jump\t// in\n    tag_366:\n        /* \"contracts/BOMB_flattened.sol\":21003:21115  function _subBalance(address addr, uint256 diff) internal {... */\n      pop\n      pop\n      jump\t// out\n        /* \"contracts/BOMB_flattened.sol\":22157:22323  function shouldTakeFee(address from, address to) internal view returns (bool) {... */\n    tag_301:\n        /* \"contracts/BOMB_flattened.sol\":22229:22233  bool */\n      0x00\n        /* \"contracts/BOMB_flattened.sol\":22266:22270  from */\n      dup3\n        /* \"contracts/BOMB_flattened.sol\":22248:22270  address(_pair) == from */\n      0xffffffffffffffffffffffffffffffffffffffff\n      and\n        /* \"contracts/BOMB_flattened.sol\":22256:22261  _pair */\n      0x11\n      0x00\n      swap1\n      sload\n      swap1\n      0x0100\n      exp\n      swap1\n      div\n      0xffffffffffffffffffffffffffffffffffffffff\n      and\n        /* \"contracts/BOMB_flattened.sol\":22248:22270  address(_pair) == from */\n      0xffffffffffffffffffffffffffffffffffffffff\n      and\n      eq\n        /* \"contracts/BOMB_flattened.sol\":22248:22294  address(_pair) == from || address(_pair) == to */\n      dup1\n      tag_370\n      jumpi\n      pop\n        /* \"contracts/BOMB_flattened.sol\":22292:22294  to */\n      dup2\n        /* \"contracts/BOMB_flattened.sol\":22274:22294  address(_pair) == to */\n      0xffffffffffffffffffffffffffffffffffffffff\n      and\n        /* \"contracts/BOMB_flattened.sol\":22282:22287  _pair */\n      0x11\n      0x00\n      swap1\n      sload\n      swap1\n      0x0100\n      exp\n      swap1\n      div\n      0xffffffffffffffffffffffffffffffffffffffff\n      and\n        /* \"contracts/BOMB_flattened.sol\":22274:22294  address(_pair) == to */\n      0xffffffffffffffffffffffffffffffffffffffff\n      and\n      eq\n        /* \"contracts/BOMB_flattened.sol\":22248:22294  address(_pair) == from || address(_pair) == to */\n    tag_370:\n        /* \"contracts/BOMB_flattened.sol\":22247:22318  (address(_pair) == from || address(_pair) == to) && !_isFeeExempt[from] */\n      dup1\n      iszero\n      tag_371\n      jumpi\n      pop\n        /* \"contracts/BOMB_flattened.sol\":22300:22312  _isFeeExempt */\n      0x0d\n        /* \"contracts/BOMB_flattened.sol\":22300:22318  _isFeeExempt[from] */\n      0x00\n        /* \"contracts/BOMB_flattened.sol\":22313:22317  from */\n      dup5\n        /* \"contracts/BOMB_flattened.sol\":22300:22318  _isFeeExempt[from] */\n      0xffffffffffffffffffffffffffffffffffffffff\n      and\n      0xffffffffffffffffffffffffffffffffffffffff\n      and\n      dup2\n      mstore\n      0x20\n      add\n      swap1\n      dup2\n      mstore\n      0x20\n      add\n      0x00\n      keccak256\n      0x00\n      swap1\n      sload\n      swap1\n      0x0100\n      exp\n      swap1\n      div\n      0xff\n      and\n        /* \"contracts/BOMB_flattened.sol\":22299:22318  !_isFeeExempt[from] */\n      iszero\n        /* \"contracts/BOMB_flattened.sol\":22247:22318  (address(_pair) == from || address(_pair) == to) && !_isFeeExempt[from] */\n    tag_371:\n        /* \"contracts/BOMB_flattened.sol\":22240:22318  return (address(_pair) == from || address(_pair) == to) && !_isFeeExempt[from] */\n      swap1\n      pop\n        /* \"contracts/BOMB_flattened.sol\":22157:22323  function shouldTakeFee(address from, address to) internal view returns (bool) {... */\n      swap3\n      swap2\n      pop\n      pop\n      jump\t// out\n        /* \"contracts/BOMB_flattened.sol\":26271:26539  function _takeFee(address sender, uint256 amount) internal returns (uint256) {... */\n    tag_305:\n        /* \"contracts/BOMB_flattened.sol\":26339:26346  uint256 */\n      0x00\n        /* \"contracts/BOMB_flattened.sol\":26353:26370  uint256 feeAmount */\n      dup1\n        /* \"contracts/BOMB_flattened.sol\":26373:26405  amount.div(100).mul(_feePercent) */\n      tag_373\n        /* \"contracts/BOMB_flattened.sol\":26393:26404  _feePercent */\n      sload(0x03)\n        /* \"contracts/BOMB_flattened.sol\":26373:26388  amount.div(100) */\n      tag_374\n        /* \"contracts/BOMB_flattened.sol\":26384:26387  100 */\n      0x64\n        /* \"contracts/BOMB_flattened.sol\":26373:26379  amount */\n      dup7\n        /* \"contracts/BOMB_flattened.sol\":26373:26383  amount.div */\n      tag_341\n      swap1\n        /* \"contracts/BOMB_flattened.sol\":26373:26388  amount.div(100) */\n      swap2\n      swap1\n      0xffffffff\n      and\n      jump\t// in\n    tag_374:\n        /* \"contracts/BOMB_flattened.sol\":26373:26392  amount.div(100).mul */\n      tag_343\n      swap1\n        /* \"contracts/BOMB_flattened.sol\":26373:26405  amount.div(100).mul(_feePercent) */\n      swap2\n      swap1\n      0xffffffff\n      and\n      jump\t// in\n    tag_373:\n        /* \"contracts/BOMB_flattened.sol\":26353:26405  uint256 feeAmount = amount.div(100).mul(_feePercent) */\n      swap1\n      pop\n        /* \"contracts/BOMB_flattened.sol\":26410:26447  _addBalance(address(this), feeAmount) */\n      tag_375\n        /* \"contracts/BOMB_flattened.sol\":26430:26434  this */\n      address\n        /* \"contracts/BOMB_flattened.sol\":26437:26446  feeAmount */\n      dup3\n        /* \"contracts/BOMB_flattened.sol\":26410:26421  _addBalance */\n      tag_307\n        /* \"contracts/BOMB_flattened.sol\":26410:26447  _addBalance(address(this), feeAmount) */\n      jump\t// in\n    tag_375:\n        /* \"contracts/BOMB_flattened.sol\":26482:26486  this */\n      address\n        /* \"contracts/BOMB_flattened.sol\":26457:26499  Transfer(sender, address(this), feeAmount) */\n      0xffffffffffffffffffffffffffffffffffffffff\n      and\n        /* \"contracts/BOMB_flattened.sol\":26466:26472  sender */\n      dup5\n        /* \"contracts/BOMB_flattened.sol\":26457:26499  Transfer(sender, address(this), feeAmount) */\n      0xffffffffffffffffffffffffffffffffffffffff\n      and\n      0xddf252ad1be2c89b69c2b068fc378daa952ba7f163c4a11628f55a4df523b3ef\n        /* \"contracts/BOMB_flattened.sol\":26489:26498  feeAmount */\n      dup4\n        /* \"contracts/BOMB_flattened.sol\":26457:26499  Transfer(sender, address(this), feeAmount) */\n      mload(0x40)\n      tag_376\n      swap2\n      swap1\n      tag_60\n      jump\t// in\n    tag_376:\n      mload(0x40)\n      dup1\n      swap2\n      sub\n      swap1\n      log3\n        /* \"contracts/BOMB_flattened.sol\":26513:26534  amount.sub(feeAmount) */\n      tag_377\n        /* \"contracts/BOMB_flattened.sol\":26524:26533  feeAmount */\n      dup2\n        /* \"contracts/BOMB_flattened.sol\":26513:26519  amount */\n      dup5\n        /* \"contracts/BOMB_flattened.sol\":26513:26523  amount.sub */\n      tag_258\n      swap1\n        /* \"contracts/BOMB_flattened.sol\":26513:26534  amount.sub(feeAmount) */\n      swap2\n      swap1\n      0xffffffff\n      and\n      jump\t// in\n    tag_377:\n        /* \"contracts/BOMB_flattened.sol\":26506:26534  return amount.sub(feeAmount) */\n      swap2\n      pop\n      pop\n        /* \"contracts/BOMB_flattened.sol\":26271:26539  function _takeFee(address sender, uint256 amount) internal returns (uint256) {... */\n      swap3\n      swap2\n      pop\n      pop\n      jump\t// out\n        /* \"contracts/BOMB_flattened.sol\":20888:20998  function _addBalance(address addr, uint256 sum) internal {... */\n    tag_307:\n        /* \"contracts/BOMB_flattened.sol\":20950:20993  _setBalance(addr, _balances[addr].add(sum)) */\n      tag_379\n        /* \"contracts/BOMB_flattened.sol\":20962:20966  addr */\n      dup3\n        /* \"contracts/BOMB_flattened.sol\":20968:20992  _balances[addr].add(sum) */\n      tag_380\n        /* \"contracts/BOMB_flattened.sol\":20988:20991  sum */\n      dup4\n        /* \"contracts/BOMB_flattened.sol\":20968:20977  _balances */\n      0x0b\n        /* \"contracts/BOMB_flattened.sol\":20968:20983  _balances[addr] */\n      0x00\n        /* \"contracts/BOMB_flattened.sol\":20978:20982  addr */\n      dup8\n        /* \"contracts/BOMB_flattened.sol\":20968:20983  _balances[addr] */\n      0xffffffffffffffffffffffffffffffffffffffff\n      and\n      0xffffffffffffffffffffffffffffffffffffffff\n      and\n      dup2\n      mstore\n      0x20\n      add\n      swap1\n      dup2\n      mstore\n      0x20\n      add\n      0x00\n      keccak256\n      sload\n        /* \"contracts/BOMB_flattened.sol\":20968:20987  _balances[addr].add */\n      tag_230\n      swap1\n        /* \"contracts/BOMB_flattened.sol\":20968:20992  _balances[addr].add(sum) */\n      swap2\n      swap1\n      0xffffffff\n      and\n      jump\t// in\n    tag_380:\n        /* \"contracts/BOMB_flattened.sol\":20950:20961  _setBalance */\n      tag_368\n        /* \"contracts/BOMB_flattened.sol\":20950:20993  _setBalance(addr, _balances[addr].add(sum)) */\n      jump\t// in\n    tag_379:\n        /* \"contracts/BOMB_flattened.sol\":20888:20998  function _addBalance(address addr, uint256 sum) internal {... */\n      pop\n      pop\n      jump\t// out\n        /* \"contracts/BOMB_flattened.sol\":22543:22709  function shouldDistribute() internal view returns (bool) {... */\n    tag_310:\n        /* \"contracts/BOMB_flattened.sol\":22594:22598  bool */\n      0x00\n        /* \"contracts/BOMB_flattened.sol\":22639:22640  0 */\n      dup1\n        /* \"contracts/BOMB_flattened.sol\":22612:22621  _balances */\n      0x0b\n        /* \"contracts/BOMB_flattened.sol\":22612:22636  _balances[address(this)] */\n      0x00\n        /* \"contracts/BOMB_flattened.sol\":22630:22634  this */\n      address\n        /* \"contracts/BOMB_flattened.sol\":22612:22636  _balances[address(this)] */\n      0xffffffffffffffffffffffffffffffffffffffff\n      and\n      0xffffffffffffffffffffffffffffffffffffffff\n      and\n      dup2\n      mstore\n      0x20\n      add\n      swap1\n      dup2\n      mstore\n      0x20\n      add\n      0x00\n      keccak256\n      sload\n        /* \"contracts/BOMB_flattened.sol\":22612:22640  _balances[address(this)] > 0 */\n      gt\n        /* \"contracts/BOMB_flattened.sol\":22612:22704  _balances[address(this)] > 0 && block.timestamp >= _lastDistribution + _distributionInterval */\n      dup1\n      iszero\n      tag_382\n      jumpi\n      pop\n        /* \"contracts/BOMB_flattened.sol\":22683:22704  _distributionInterval */\n      sload(0x04)\n        /* \"contracts/BOMB_flattened.sol\":22663:22680  _lastDistribution */\n      sload(0x09)\n        /* \"contracts/BOMB_flattened.sol\":22663:22704  _lastDistribution + _distributionInterval */\n      tag_383\n      swap2\n      swap1\n      tag_317\n      jump\t// in\n    tag_383:\n        /* \"contracts/BOMB_flattened.sol\":22644:22659  block.timestamp */\n      timestamp\n        /* \"contracts/BOMB_flattened.sol\":22644:22704  block.timestamp >= _lastDistribution + _distributionInterval */\n      lt\n      iszero\n        /* \"contracts/BOMB_flattened.sol\":22612:22704  _balances[address(this)] > 0 && block.timestamp >= _lastDistribution + _distributionInterval */\n    tag_382:\n        /* \"contracts/BOMB_flattened.sol\":22605:22704  return _balances[address(this)] > 0 && block.timestamp >= _lastDistribution + _distributionInterval */\n      swap1\n      pop\n        /* \"contracts/BOMB_flattened.sol\":22543:22709  function shouldDistribute() internal view returns (bool) {... */\n      swap1\n      jump\t// out\n        /* \"contracts/BOMB_flattened.sol\":26544:27223  function _distribute() internal {... */\n    tag_313:\n        /* \"contracts/BOMB_flattened.sol\":26581:26595  address holder */\n      0x00\n        /* \"contracts/BOMB_flattened.sol\":26602:26613  uint256 cut */\n      dup1\n        /* \"contracts/BOMB_flattened.sol\":26618:26637  uint256 distributed */\n      0x00\n        /* \"contracts/BOMB_flattened.sol\":26642:26656  uint256 supply */\n      dup1\n        /* \"contracts/BOMB_flattened.sol\":26659:26671  _totalSupply */\n      sload(0x08)\n        /* \"contracts/BOMB_flattened.sol\":26642:26671  uint256 supply = _totalSupply */\n      swap1\n      pop\n        /* \"contracts/BOMB_flattened.sol\":26698:26713  block.timestamp */\n      timestamp\n        /* \"contracts/BOMB_flattened.sol\":26678:26695  _lastDistribution */\n      0x09\n        /* \"contracts/BOMB_flattened.sol\":26678:26713  _lastDistribution = block.timestamp */\n      dup2\n      swap1\n      sstore\n      pop\n        /* \"contracts/BOMB_flattened.sol\":26718:26731  uint256 funds */\n      0x00\n        /* \"contracts/BOMB_flattened.sol\":26734:26743  _balances */\n      0x0b\n        /* \"contracts/BOMB_flattened.sol\":26734:26758  _balances[address(this)] */\n      0x00\n        /* \"contracts/BOMB_flattened.sol\":26752:26756  this */\n      address\n        /* \"contracts/BOMB_flattened.sol\":26734:26758  _balances[address(this)] */\n      0xffffffffffffffffffffffffffffffffffffffff\n      and\n      0xffffffffffffffffffffffffffffffffffffffff\n      and\n      dup2\n      mstore\n      0x20\n      add\n      swap1\n      dup2\n      mstore\n      0x20\n      add\n      0x00\n      keccak256\n      sload\n        /* \"contracts/BOMB_flattened.sol\":26718:26758  uint256 funds = _balances[address(this)] */\n      swap1\n      pop\n        /* \"contracts/BOMB_flattened.sol\":26790:26791  0 */\n      0x00\n        /* \"contracts/BOMB_flattened.sol\":26763:26772  _balances */\n      0x0b\n        /* \"contracts/BOMB_flattened.sol\":26763:26787  _balances[address(this)] */\n      0x00\n        /* \"contracts/BOMB_flattened.sol\":26781:26785  this */\n      address\n        /* \"contracts/BOMB_flattened.sol\":26763:26787  _balances[address(this)] */\n      0xffffffffffffffffffffffffffffffffffffffff\n      and\n      0xffffffffffffffffffffffffffffffffffffffff\n      and\n      dup2\n      mstore\n      0x20\n      add\n      swap1\n      dup2\n      mstore\n      0x20\n      add\n      0x00\n      keccak256\n        /* \"contracts/BOMB_flattened.sol\":26763:26791  _balances[address(this)] = 0 */\n      dup2\n      swap1\n      sstore\n      pop\n        /* \"contracts/BOMB_flattened.sol\":26803:26809  uint i */\n      0x00\n        /* \"contracts/BOMB_flattened.sol\":26798:27143  for (uint i = 0; i < _holders.length; i++) {... */\n    tag_385:\n        /* \"contracts/BOMB_flattened.sol\":26819:26827  _holders */\n      0x0f\n        /* \"contracts/BOMB_flattened.sol\":26819:26834  _holders.length */\n      dup1\n      sload\n      swap1\n      pop\n        /* \"contracts/BOMB_flattened.sol\":26815:26816  i */\n      dup2\n        /* \"contracts/BOMB_flattened.sol\":26815:26834  i < _holders.length */\n      lt\n        /* \"contracts/BOMB_flattened.sol\":26798:27143  for (uint i = 0; i < _holders.length; i++) {... */\n      iszero\n      tag_386\n      jumpi\n        /* \"contracts/BOMB_flattened.sol\":26856:26864  _holders */\n      0x0f\n        /* \"contracts/BOMB_flattened.sol\":26865:26866  i */\n      dup2\n        /* \"contracts/BOMB_flattened.sol\":26856:26867  _holders[i] */\n      dup2\n      sload\n      dup2\n      lt\n      tag_388\n      jumpi\n      tag_389\n      tag_390\n      jump\t// in\n    tag_389:\n    tag_388:\n      swap1\n      0x00\n      mstore\n      keccak256(0x00, 0x20)\n      add\n      0x00\n      swap1\n      sload\n      swap1\n      0x0100\n      exp\n      swap1\n      div\n      0xffffffffffffffffffffffffffffffffffffffff\n      and\n        /* \"contracts/BOMB_flattened.sol\":26847:26867  holder = _holders[i] */\n      swap6\n      pop\n        /* \"contracts/BOMB_flattened.sol\":26897:26902  _pair */\n      0x11\n      0x00\n      swap1\n      sload\n      swap1\n      0x0100\n      exp\n      swap1\n      div\n      0xffffffffffffffffffffffffffffffffffffffff\n      and\n        /* \"contracts/BOMB_flattened.sol\":26879:26903  holder == address(_pair) */\n      0xffffffffffffffffffffffffffffffffffffffff\n      and\n        /* \"contracts/BOMB_flattened.sol\":26879:26885  holder */\n      dup7\n        /* \"contracts/BOMB_flattened.sol\":26879:26903  holder == address(_pair) */\n      0xffffffffffffffffffffffffffffffffffffffff\n      and\n      eq\n        /* \"contracts/BOMB_flattened.sol\":26879:26930  holder == address(_pair) || holder == address(this) */\n      dup1\n      tag_392\n      jumpi\n      pop\n        /* \"contracts/BOMB_flattened.sol\":26925:26929  this */\n      address\n        /* \"contracts/BOMB_flattened.sol\":26907:26930  holder == address(this) */\n      0xffffffffffffffffffffffffffffffffffffffff\n      and\n        /* \"contracts/BOMB_flattened.sol\":26907:26913  holder */\n      dup7\n        /* \"contracts/BOMB_flattened.sol\":26907:26930  holder == address(this) */\n      0xffffffffffffffffffffffffffffffffffffffff\n      and\n      eq\n        /* \"contracts/BOMB_flattened.sol\":26879:26930  holder == address(_pair) || holder == address(this) */\n    tag_392:\n        /* \"contracts/BOMB_flattened.sol\":26939:26947  continue */\n      tag_387\n        /* \"contracts/BOMB_flattened.sol\":26875:26954  if (holder == address(_pair) || holder == address(this)) {... */\n      jumpi\n        /* \"contracts/BOMB_flattened.sol\":26967:27007  _balances[holder].mul(funds).div(supply) */\n      tag_394\n        /* \"contracts/BOMB_flattened.sol\":27000:27006  supply */\n      dup4\n        /* \"contracts/BOMB_flattened.sol\":26967:26995  _balances[holder].mul(funds) */\n      tag_395\n        /* \"contracts/BOMB_flattened.sol\":26989:26994  funds */\n      dup5\n        /* \"contracts/BOMB_flattened.sol\":26967:26976  _balances */\n      0x0b\n        /* \"contracts/BOMB_flattened.sol\":26967:26984  _balances[holder] */\n      0x00\n        /* \"contracts/BOMB_flattened.sol\":26977:26983  holder */\n      dup12\n        /* \"contracts/BOMB_flattened.sol\":26967:26984  _balances[holder] */\n      0xffffffffffffffffffffffffffffffffffffffff\n      and\n      0xffffffffffffffffffffffffffffffffffffffff\n      and\n      dup2\n      mstore\n      0x20\n      add\n      swap1\n      dup2\n      mstore\n      0x20\n      add\n      0x00\n      keccak256\n      sload\n        /* \"contracts/BOMB_flattened.sol\":26967:26988  _balances[holder].mul */\n      tag_343\n      swap1\n        /* \"contracts/BOMB_flattened.sol\":26967:26995  _balances[holder].mul(funds) */\n      swap2\n      swap1\n      0xffffffff\n      and\n      jump\t// in\n    tag_395:\n        /* \"contracts/BOMB_flattened.sol\":26967:26999  _balances[holder].mul(funds).div */\n      tag_341\n      swap1\n        /* \"contracts/BOMB_flattened.sol\":26967:27007  _balances[holder].mul(funds).div(supply) */\n      swap2\n      swap1\n      0xffffffff\n      and\n      jump\t// in\n    tag_394:\n        /* \"contracts/BOMB_flattened.sol\":26961:27007  cut = _balances[holder].mul(funds).div(supply) */\n      swap5\n      pop\n        /* \"contracts/BOMB_flattened.sol\":27028:27031  cut */\n      dup5\n        /* \"contracts/BOMB_flattened.sol\":27013:27031  distributed += cut */\n      dup5\n      tag_396\n      swap2\n      swap1\n      tag_317\n      jump\t// in\n    tag_396:\n      swap4\n      pop\n        /* \"contracts/BOMB_flattened.sol\":27049:27050  0 */\n      0x00\n        /* \"contracts/BOMB_flattened.sol\":27043:27046  cut */\n      dup6\n        /* \"contracts/BOMB_flattened.sol\":27043:27050  cut > 0 */\n      gt\n        /* \"contracts/BOMB_flattened.sol\":27039:27138  if (cut > 0) {... */\n      iszero\n      tag_397\n      jumpi\n        /* \"contracts/BOMB_flattened.sol\":27059:27083  _addBalance(holder, cut) */\n      tag_398\n        /* \"contracts/BOMB_flattened.sol\":27071:27077  holder */\n      dup7\n        /* \"contracts/BOMB_flattened.sol\":27079:27082  cut */\n      dup7\n        /* \"contracts/BOMB_flattened.sol\":27059:27070  _addBalance */\n      tag_307\n        /* \"contracts/BOMB_flattened.sol\":27059:27083  _addBalance(holder, cut) */\n      jump\t// in\n    tag_398:\n        /* \"contracts/BOMB_flattened.sol\":27119:27125  holder */\n      dup6\n        /* \"contracts/BOMB_flattened.sol\":27095:27131  Transfer(address(this), holder, cut) */\n      0xffffffffffffffffffffffffffffffffffffffff\n      and\n        /* \"contracts/BOMB_flattened.sol\":27112:27116  this */\n      address\n        /* \"contracts/BOMB_flattened.sol\":27095:27131  Transfer(address(this), holder, cut) */\n      0xffffffffffffffffffffffffffffffffffffffff\n      and\n      0xddf252ad1be2c89b69c2b068fc378daa952ba7f163c4a11628f55a4df523b3ef\n        /* \"contracts/BOMB_flattened.sol\":27127:27130  cut */\n      dup8\n        /* \"contracts/BOMB_flattened.sol\":27095:27131  Transfer(address(this), holder, cut) */\n      mload(0x40)\n      tag_399\n      swap2\n      swap1\n      tag_60\n      jump\t// in\n    tag_399:\n      mload(0x40)\n      dup1\n      swap2\n      sub\n      swap1\n      log3\n        /* \"contracts/BOMB_flattened.sol\":27039:27138  if (cut > 0) {... */\n    tag_397:\n        /* \"contracts/BOMB_flattened.sol\":26798:27143  for (uint i = 0; i < _holders.length; i++) {... */\n    tag_387:\n        /* \"contracts/BOMB_flattened.sol\":26836:26839  i++ */\n      dup1\n      dup1\n      0x01\n      add\n      swap2\n      pop\n      pop\n        /* \"contracts/BOMB_flattened.sol\":26798:27143  for (uint i = 0; i < _holders.length; i++) {... */\n      jump(tag_385)\n    tag_386:\n      pop\n        /* \"contracts/BOMB_flattened.sol\":27149:27160  uint256 rem */\n      0x00\n        /* \"contracts/BOMB_flattened.sol\":27171:27182  distributed */\n      dup4\n        /* \"contracts/BOMB_flattened.sol\":27163:27168  funds */\n      dup3\n        /* \"contracts/BOMB_flattened.sol\":27163:27182  funds - distributed */\n      tag_400\n      swap2\n      swap1\n      tag_320\n      jump\t// in\n    tag_400:\n        /* \"contracts/BOMB_flattened.sol\":27149:27182  uint256 rem = funds - distributed */\n      swap1\n      pop\n        /* \"contracts/BOMB_flattened.sol\":27187:27218  _addBalance(address(this), rem) */\n      tag_401\n        /* \"contracts/BOMB_flattened.sol\":27207:27211  this */\n      address\n        /* \"contracts/BOMB_flattened.sol\":27214:27217  rem */\n      dup3\n        /* \"contracts/BOMB_flattened.sol\":27187:27198  _addBalance */\n      tag_307\n        /* \"contracts/BOMB_flattened.sol\":27187:27218  _addBalance(address(this), rem) */\n      jump\t// in\n    tag_401:\n        /* \"contracts/BOMB_flattened.sol\":26576:27223  {... */\n      pop\n      pop\n      pop\n      pop\n      pop\n      pop\n        /* \"contracts/BOMB_flattened.sol\":26544:27223  function _distribute() internal {... */\n      jump\t// out\n        /* \"contracts/BOMB_flattened.sol\":4473:4562  function div(uint256 a, uint256 b) internal pure returns (uint256) {... */\n    tag_341:\n        /* \"contracts/BOMB_flattened.sol\":4531:4538  uint256 */\n      0x00\n        /* \"contracts/BOMB_flattened.sol\":4556:4557  b */\n      dup2\n        /* \"contracts/BOMB_flattened.sol\":4552:4553  a */\n      dup4\n        /* \"contracts/BOMB_flattened.sol\":4552:4557  a / b */\n      tag_403\n      swap2\n      swap1\n      tag_404\n      jump\t// in\n    tag_403:\n        /* \"contracts/BOMB_flattened.sol\":4545:4557  return a / b */\n      swap1\n      pop\n        /* \"contracts/BOMB_flattened.sol\":4473:4562  function div(uint256 a, uint256 b) internal pure returns (uint256) {... */\n      swap3\n      swap2\n      pop\n      pop\n      jump\t// out\n        /* \"contracts/BOMB_flattened.sol\":4116:4205  function mul(uint256 a, uint256 b) internal pure returns (uint256) {... */\n    tag_343:\n        /* \"contracts/BOMB_flattened.sol\":4174:4181  uint256 */\n      0x00\n        /* \"contracts/BOMB_flattened.sol\":4199:4200  b */\n      dup2\n        /* \"contracts/BOMB_flattened.sol\":4195:4196  a */\n      dup4\n        /* \"contracts/BOMB_flattened.sol\":4195:4200  a * b */\n      tag_406\n      swap2\n      swap1\n      tag_331\n      jump\t// in\n    tag_406:\n        /* \"contracts/BOMB_flattened.sol\":4188:4200  return a * b */\n      swap1\n      pop\n        /* \"contracts/BOMB_flattened.sol\":4116:4205  function mul(uint256 a, uint256 b) internal pure returns (uint256) {... */\n      swap3\n      swap2\n      pop\n      pop\n      jump\t// out\n        /* \"contracts/BOMB_flattened.sol\":21120:21391  function _setBalance(address addr, uint256 balance) internal {... */\n    tag_368:\n        /* \"contracts/BOMB_flattened.sol\":21230:21251  _isExternalAddr(addr) */\n      tag_408\n        /* \"contracts/BOMB_flattened.sol\":21246:21250  addr */\n      dup3\n        /* \"contracts/BOMB_flattened.sol\":21230:21245  _isExternalAddr */\n      tag_409\n        /* \"contracts/BOMB_flattened.sol\":21230:21251  _isExternalAddr(addr) */\n      jump\t// in\n    tag_408:\n        /* \"contracts/BOMB_flattened.sol\":21226:21355  if (_isExternalAddr(addr)) {... */\n      iszero\n      tag_410\n      jumpi\n        /* \"contracts/BOMB_flattened.sol\":21282:21286  true */\n      0x01\n        /* \"contracts/BOMB_flattened.sol\":21263:21286  _isHolder[addr] != true */\n      iszero\n      iszero\n        /* \"contracts/BOMB_flattened.sol\":21263:21272  _isHolder */\n      0x0c\n        /* \"contracts/BOMB_flattened.sol\":21263:21278  _isHolder[addr] */\n      0x00\n        /* \"contracts/BOMB_flattened.sol\":21273:21277  addr */\n      dup5\n        /* \"contracts/BOMB_flattened.sol\":21263:21278  _isHolder[addr] */\n      0xffffffffffffffffffffffffffffffffffffffff\n      and\n      0xffffffffffffffffffffffffffffffffffffffff\n      and\n      dup2\n      mstore\n      0x20\n      add\n      swap1\n      dup2\n      mstore\n      0x20\n      add\n      0x00\n      keccak256\n      0x00\n      swap1\n      sload\n      swap1\n      0x0100\n      exp\n      swap1\n      div\n      0xff\n      and\n        /* \"contracts/BOMB_flattened.sol\":21263:21286  _isHolder[addr] != true */\n      iszero\n      iszero\n      eq\n        /* \"contracts/BOMB_flattened.sol\":21259:21350  if (_isHolder[addr] != true) {... */\n      tag_411\n      jumpi\n        /* \"contracts/BOMB_flattened.sol\":21295:21303  _holders */\n      0x0f\n        /* \"contracts/BOMB_flattened.sol\":21309:21313  addr */\n      dup3\n        /* \"contracts/BOMB_flattened.sol\":21295:21314  _holders.push(addr) */\n      swap1\n      dup1\n      0x01\n      dup2\n      sload\n      add\n      dup1\n      dup3\n      sstore\n      dup1\n      swap2\n      pop\n      pop\n      0x01\n      swap1\n      sub\n      swap1\n      0x00\n      mstore\n      keccak256(0x00, 0x20)\n      add\n      0x00\n      swap1\n      swap2\n      swap1\n      swap2\n      swap1\n      swap2\n      0x0100\n      exp\n      dup2\n      sload\n      dup2\n      0xffffffffffffffffffffffffffffffffffffffff\n      mul\n      not\n      and\n      swap1\n      dup4\n      0xffffffffffffffffffffffffffffffffffffffff\n      and\n      mul\n      or\n      swap1\n      sstore\n      pop\n        /* \"contracts/BOMB_flattened.sol\":21339:21343  true */\n      0x01\n        /* \"contracts/BOMB_flattened.sol\":21321:21330  _isHolder */\n      0x0c\n        /* \"contracts/BOMB_flattened.sol\":21321:21336  _isHolder[addr] */\n      0x00\n        /* \"contracts/BOMB_flattened.sol\":21331:21335  addr */\n      dup5\n        /* \"contracts/BOMB_flattened.sol\":21321:21336  _isHolder[addr] */\n      0xffffffffffffffffffffffffffffffffffffffff\n      and\n      0xffffffffffffffffffffffffffffffffffffffff\n      and\n      dup2\n      mstore\n      0x20\n      add\n      swap1\n      dup2\n      mstore\n      0x20\n      add\n      0x00\n      keccak256\n      0x00\n        /* \"contracts/BOMB_flattened.sol\":21321:21343  _isHolder[addr] = true */\n      0x0100\n      exp\n      dup2\n      sload\n      dup2\n      0xff\n      mul\n      not\n      and\n      swap1\n      dup4\n      iszero\n      iszero\n      mul\n      or\n      swap1\n      sstore\n      pop\n        /* \"contracts/BOMB_flattened.sol\":21259:21350  if (_isHolder[addr] != true) {... */\n    tag_411:\n        /* \"contracts/BOMB_flattened.sol\":21226:21355  if (_isExternalAddr(addr)) {... */\n    tag_410:\n        /* \"contracts/BOMB_flattened.sol\":21379:21386  balance */\n      dup1\n        /* \"contracts/BOMB_flattened.sol\":21361:21370  _balances */\n      0x0b\n        /* \"contracts/BOMB_flattened.sol\":21361:21376  _balances[addr] */\n      0x00\n        /* \"contracts/BOMB_flattened.sol\":21371:21375  addr */\n      dup5\n        /* \"contracts/BOMB_flattened.sol\":21361:21376  _balances[addr] */\n      0xffffffffffffffffffffffffffffffffffffffff\n      and\n      0xffffffffffffffffffffffffffffffffffffffff\n      and\n      dup2\n      mstore\n      0x20\n      add\n      swap1\n      dup2\n      mstore\n      0x20\n      add\n      0x00\n      keccak256\n        /* \"contracts/BOMB_flattened.sol\":21361:21386  _balances[addr] = balance */\n      dup2\n      swap1\n      sstore\n      pop\n        /* \"contracts/BOMB_flattened.sol\":21120:21391  function _setBalance(address addr, uint256 balance) internal {... */\n      pop\n      pop\n      jump\t// out\n        /* \"contracts/BOMB_flattened.sol\":20751:20883  function _isExternalAddr(address addr) internal view returns (bool) {... */\n    tag_409:\n        /* \"contracts/BOMB_flattened.sol\":20813:20817  bool */\n      0x00\n        /* \"contracts/BOMB_flattened.sol\":20847:20851  this */\n      address\n        /* \"contracts/BOMB_flattened.sol\":20831:20852  addr != address(this) */\n      0xffffffffffffffffffffffffffffffffffffffff\n      and\n        /* \"contracts/BOMB_flattened.sol\":20831:20835  addr */\n      dup3\n        /* \"contracts/BOMB_flattened.sol\":20831:20852  addr != address(this) */\n      0xffffffffffffffffffffffffffffffffffffffff\n      and\n      eq\n      iszero\n        /* \"contracts/BOMB_flattened.sol\":20831:20878  addr != address(this) && addr != address(_pair) */\n      dup1\n      iszero\n      tag_414\n      jumpi\n      pop\n        /* \"contracts/BOMB_flattened.sol\":20872:20877  _pair */\n      0x11\n      0x00\n      swap1\n      sload\n      swap1\n      0x0100\n      exp\n      swap1\n      div\n      0xffffffffffffffffffffffffffffffffffffffff\n      and\n        /* \"contracts/BOMB_flattened.sol\":20856:20878  addr != address(_pair) */\n      0xffffffffffffffffffffffffffffffffffffffff\n      and\n        /* \"contracts/BOMB_flattened.sol\":20856:20860  addr */\n      dup3\n        /* \"contracts/BOMB_flattened.sol\":20856:20878  addr != address(_pair) */\n      0xffffffffffffffffffffffffffffffffffffffff\n      and\n      eq\n      iszero\n        /* \"contracts/BOMB_flattened.sol\":20831:20878  addr != address(this) && addr != address(_pair) */\n    tag_414:\n        /* \"contracts/BOMB_flattened.sol\":20824:20878  return addr != address(this) && addr != address(_pair) */\n      swap1\n      pop\n        /* \"contracts/BOMB_flattened.sol\":20751:20883  function _isExternalAddr(address addr) internal view returns (bool) {... */\n      swap2\n      swap1\n      pop\n      jump\t// out\n        /* \"#utility.yul\":7:106   */\n    tag_415:\n        /* \"#utility.yul\":59:65   */\n      0x00\n        /* \"#utility.yul\":93:98   */\n      dup2\n        /* \"#utility.yul\":87:99   */\n      mload\n        /* \"#utility.yul\":77:99   */\n      swap1\n      pop\n        /* \"#utility.yul\":7:106   */\n      swap2\n      swap1\n      pop\n      jump\t// out\n        /* \"#utility.yul\":112:281   */\n    tag_416:\n        /* \"#utility.yul\":196:207   */\n      0x00\n        /* \"#utility.yul\":230:236   */\n      dup3\n        /* \"#utility.yul\":225:228   */\n      dup3\n        /* \"#utility.yul\":218:237   */\n      mstore\n        /* \"#utility.yul\":270:274   */\n      0x20\n        /* \"#utility.yul\":265:268   */\n      dup3\n        /* \"#utility.yul\":261:275   */\n      add\n        /* \"#utility.yul\":246:275   */\n      swap1\n      pop\n        /* \"#utility.yul\":112:281   */\n      swap3\n      swap2\n      pop\n      pop\n      jump\t// out\n        /* \"#utility.yul\":287:533   */\n    tag_417:\n        /* \"#utility.yul\":368:369   */\n      0x00\n        /* \"#utility.yul\":378:491   */\n    tag_452:\n        /* \"#utility.yul\":392:398   */\n      dup4\n        /* \"#utility.yul\":389:390   */\n      dup2\n        /* \"#utility.yul\":386:399   */\n      lt\n        /* \"#utility.yul\":378:491   */\n      iszero\n      tag_454\n      jumpi\n        /* \"#utility.yul\":477:478   */\n      dup1\n        /* \"#utility.yul\":472:475   */\n      dup3\n        /* \"#utility.yul\":468:479   */\n      add\n        /* \"#utility.yul\":462:480   */\n      mload\n        /* \"#utility.yul\":458:459   */\n      dup2\n        /* \"#utility.yul\":453:456   */\n      dup5\n        /* \"#utility.yul\":449:460   */\n      add\n        /* \"#utility.yul\":442:481   */\n      mstore\n        /* \"#utility.yul\":414:416   */\n      0x20\n        /* \"#utility.yul\":411:412   */\n      dup2\n        /* \"#utility.yul\":407:417   */\n      add\n        /* \"#utility.yul\":402:417   */\n      swap1\n      pop\n        /* \"#utility.yul\":378:491   */\n      jump(tag_452)\n    tag_454:\n        /* \"#utility.yul\":525:526   */\n      0x00\n        /* \"#utility.yul\":516:522   */\n      dup5\n        /* \"#utility.yul\":511:514   */\n      dup5\n        /* \"#utility.yul\":507:523   */\n      add\n        /* \"#utility.yul\":500:527   */\n      mstore\n        /* \"#utility.yul\":349:533   */\n      pop\n        /* \"#utility.yul\":287:533   */\n      pop\n      pop\n      pop\n      jump\t// out\n        /* \"#utility.yul\":539:641   */\n    tag_418:\n        /* \"#utility.yul\":580:586   */\n      0x00\n        /* \"#utility.yul\":631:633   */\n      0x1f\n        /* \"#utility.yul\":627:634   */\n      not\n        /* \"#utility.yul\":622:624   */\n      0x1f\n        /* \"#utility.yul\":615:620   */\n      dup4\n        /* \"#utility.yul\":611:625   */\n      add\n        /* \"#utility.yul\":607:635   */\n      and\n        /* \"#utility.yul\":597:635   */\n      swap1\n      pop\n        /* \"#utility.yul\":539:641   */\n      swap2\n      swap1\n      pop\n      jump\t// out\n        /* \"#utility.yul\":647:1024   */\n    tag_419:\n        /* \"#utility.yul\":735:738   */\n      0x00\n        /* \"#utility.yul\":763:802   */\n      tag_457\n        /* \"#utility.yul\":796:801   */\n      dup3\n        /* \"#utility.yul\":763:802   */\n      tag_415\n      jump\t// in\n    tag_457:\n        /* \"#utility.yul\":818:889   */\n      tag_458\n        /* \"#utility.yul\":882:888   */\n      dup2\n        /* \"#utility.yul\":877:880   */\n      dup6\n        /* \"#utility.yul\":818:889   */\n      tag_416\n      jump\t// in\n    tag_458:\n        /* \"#utility.yul\":811:889   */\n      swap4\n      pop\n        /* \"#utility.yul\":898:963   */\n      tag_459\n        /* \"#utility.yul\":956:962   */\n      dup2\n        /* \"#utility.yul\":951:954   */\n      dup6\n        /* \"#utility.yul\":944:948   */\n      0x20\n        /* \"#utility.yul\":937:942   */\n      dup7\n        /* \"#utility.yul\":933:949   */\n      add\n        /* \"#utility.yul\":898:963   */\n      tag_417\n      jump\t// in\n    tag_459:\n        /* \"#utility.yul\":988:1017   */\n      tag_460\n        /* \"#utility.yul\":1010:1016   */\n      dup2\n        /* \"#utility.yul\":988:1017   */\n      tag_418\n      jump\t// in\n    tag_460:\n        /* \"#utility.yul\":983:986   */\n      dup5\n        /* \"#utility.yul\":979:1018   */\n      add\n        /* \"#utility.yul\":972:1018   */\n      swap2\n      pop\n        /* \"#utility.yul\":739:1024   */\n      pop\n        /* \"#utility.yul\":647:1024   */\n      swap3\n      swap2\n      pop\n      pop\n      jump\t// out\n        /* \"#utility.yul\":1030:1343   */\n    tag_48:\n        /* \"#utility.yul\":1143:1147   */\n      0x00\n        /* \"#utility.yul\":1181:1183   */\n      0x20\n        /* \"#utility.yul\":1170:1179   */\n      dup3\n        /* \"#utility.yul\":1166:1184   */\n      add\n        /* \"#utility.yul\":1158:1184   */\n      swap1\n      pop\n        /* \"#utility.yul\":1230:1239   */\n      dup2\n        /* \"#utility.yul\":1224:1228   */\n      dup2\n        /* \"#utility.yul\":1220:1240   */\n      sub\n        /* \"#utility.yul\":1216:1217   */\n      0x00\n        /* \"#utility.yul\":1205:1214   */\n      dup4\n        /* \"#utility.yul\":1201:1218   */\n      add\n        /* \"#utility.yul\":1194:1241   */\n      mstore\n        /* \"#utility.yul\":1258:1336   */\n      tag_462\n        /* \"#utility.yul\":1331:1335   */\n      dup2\n        /* \"#utility.yul\":1322:1328   */\n      dup5\n        /* \"#utility.yul\":1258:1336   */\n      tag_419\n      jump\t// in\n    tag_462:\n        /* \"#utility.yul\":1250:1336   */\n      swap1\n      pop\n        /* \"#utility.yul\":1030:1343   */\n      swap3\n      swap2\n      pop\n      pop\n      jump\t// out\n        /* \"#utility.yul\":1430:1547   */\n    tag_421:\n        /* \"#utility.yul\":1539:1540   */\n      0x00\n        /* \"#utility.yul\":1536:1537   */\n      dup1\n        /* \"#utility.yul\":1529:1541   */\n      revert\n        /* \"#utility.yul\":1676:1802   */\n    tag_423:\n        /* \"#utility.yul\":1713:1720   */\n      0x00\n        /* \"#utility.yul\":1753:1795   */\n      0xffffffffffffffffffffffffffffffffffffffff\n        /* \"#utility.yul\":1746:1751   */\n      dup3\n        /* \"#utility.yul\":1742:1796   */\n      and\n        /* \"#utility.yul\":1731:1796   */\n      swap1\n      pop\n        /* \"#utility.yul\":1676:1802   */\n      swap2\n      swap1\n      pop\n      jump\t// out\n        /* \"#utility.yul\":1808:1904   */\n    tag_424:\n        /* \"#utility.yul\":1845:1852   */\n      0x00\n        /* \"#utility.yul\":1874:1898   */\n      tag_468\n        /* \"#utility.yul\":1892:1897   */\n      dup3\n        /* \"#utility.yul\":1874:1898   */\n      tag_423\n      jump\t// in\n    tag_468:\n        /* \"#utility.yul\":1863:1898   */\n      swap1\n      pop\n        /* \"#utility.yul\":1808:1904   */\n      swap2\n      swap1\n      pop\n      jump\t// out\n        /* \"#utility.yul\":1910:2032   */\n    tag_425:\n        /* \"#utility.yul\":1983:2007   */\n      tag_470\n        /* \"#utility.yul\":2001:2006   */\n      dup2\n        /* \"#utility.yul\":1983:2007   */\n      tag_424\n      jump\t// in\n    tag_470:\n        /* \"#utility.yul\":1976:1981   */\n      dup2\n        /* \"#utility.yul\":1973:2008   */\n      eq\n        /* \"#utility.yul\":1963:2026   */\n      tag_471\n      jumpi\n        /* \"#utility.yul\":2022:2023   */\n      0x00\n        /* \"#utility.yul\":2019:2020   */\n      dup1\n        /* \"#utility.yul\":2012:2024   */\n      revert\n        /* \"#utility.yul\":1963:2026   */\n    tag_471:\n        /* \"#utility.yul\":1910:2032   */\n      pop\n      jump\t// out\n        /* \"#utility.yul\":2038:2177   */\n    tag_426:\n        /* \"#utility.yul\":2084:2089   */\n      0x00\n        /* \"#utility.yul\":2122:2128   */\n      dup2\n        /* \"#utility.yul\":2109:2129   */\n      calldataload\n        /* \"#utility.yul\":2100:2129   */\n      swap1\n      pop\n        /* \"#utility.yul\":2138:2171   */\n      tag_473\n        /* \"#utility.yul\":2165:2170   */\n      dup2\n        /* \"#utility.yul\":2138:2171   */\n      tag_425\n      jump\t// in\n    tag_473:\n        /* \"#utility.yul\":2038:2177   */\n      swap3\n      swap2\n      pop\n      pop\n      jump\t// out\n        /* \"#utility.yul\":2183:2260   */\n    tag_427:\n        /* \"#utility.yul\":2220:2227   */\n      0x00\n        /* \"#utility.yul\":2249:2254   */\n      dup2\n        /* \"#utility.yul\":2238:2254   */\n      swap1\n      pop\n        /* \"#utility.yul\":2183:2260   */\n      swap2\n      swap1\n      pop\n      jump\t// out\n        /* \"#utility.yul\":2266:2388   */\n    tag_428:\n        /* \"#utility.yul\":2339:2363   */\n      tag_476\n        /* \"#utility.yul\":2357:2362   */\n      dup2\n        /* \"#utility.yul\":2339:2363   */\n      tag_427\n      jump\t// in\n    tag_476:\n        /* \"#utility.yul\":2332:2337   */\n      dup2\n        /* \"#utility.yul\":2329:2364   */\n      eq\n        /* \"#utility.yul\":2319:2382   */\n      tag_477\n      jumpi\n        /* \"#utility.yul\":2378:2379   */\n      0x00\n        /* \"#utility.yul\":2375:2376   */\n      dup1\n        /* \"#utility.yul\":2368:2380   */\n      revert\n        /* \"#utility.yul\":2319:2382   */\n    tag_477:\n        /* \"#utility.yul\":2266:2388   */\n      pop\n      jump\t// out\n        /* \"#utility.yul\":2394:2533   */\n    tag_429:\n        /* \"#utility.yul\":2440:2445   */\n      0x00\n        /* \"#utility.yul\":2478:2484   */\n      dup2\n        /* \"#utility.yul\":2465:2485   */\n      calldataload\n        /* \"#utility.yul\":2456:2485   */\n      swap1\n      pop\n        /* \"#utility.yul\":2494:2527   */\n      tag_479\n        /* \"#utility.yul\":2521:2526   */\n      dup2\n        /* \"#utility.yul\":2494:2527   */\n      tag_428\n      jump\t// in\n    tag_479:\n        /* \"#utility.yul\":2394:2533   */\n      swap3\n      swap2\n      pop\n      pop\n      jump\t// out\n        /* \"#utility.yul\":2539:3013   */\n    tag_52:\n        /* \"#utility.yul\":2607:2613   */\n      0x00\n        /* \"#utility.yul\":2615:2621   */\n      dup1\n        /* \"#utility.yul\":2664:2666   */\n      0x40\n        /* \"#utility.yul\":2652:2661   */\n      dup4\n        /* \"#utility.yul\":2643:2650   */\n      dup6\n        /* \"#utility.yul\":2639:2662   */\n      sub\n        /* \"#utility.yul\":2635:2667   */\n      slt\n        /* \"#utility.yul\":2632:2751   */\n      iszero\n      tag_481\n      jumpi\n        /* \"#utility.yul\":2670:2749   */\n      tag_482\n      tag_421\n      jump\t// in\n    tag_482:\n        /* \"#utility.yul\":2632:2751   */\n    tag_481:\n        /* \"#utility.yul\":2790:2791   */\n      0x00\n        /* \"#utility.yul\":2815:2868   */\n      tag_483\n        /* \"#utility.yul\":2860:2867   */\n      dup6\n        /* \"#utility.yul\":2851:2857   */\n      dup3\n        /* \"#utility.yul\":2840:2849   */\n      dup7\n        /* \"#utility.yul\":2836:2858   */\n      add\n        /* \"#utility.yul\":2815:2868   */\n      tag_426\n      jump\t// in\n    tag_483:\n        /* \"#utility.yul\":2805:2868   */\n      swap3\n      pop\n        /* \"#utility.yul\":2761:2878   */\n      pop\n        /* \"#utility.yul\":2917:2919   */\n      0x20\n        /* \"#utility.yul\":2943:2996   */\n      tag_484\n        /* \"#utility.yul\":2988:2995   */\n      dup6\n        /* \"#utility.yul\":2979:2985   */\n      dup3\n        /* \"#utility.yul\":2968:2977   */\n      dup7\n        /* \"#utility.yul\":2964:2986   */\n      add\n        /* \"#utility.yul\":2943:2996   */\n      tag_429\n      jump\t// in\n    tag_484:\n        /* \"#utility.yul\":2933:2996   */\n      swap2\n      pop\n        /* \"#utility.yul\":2888:3006   */\n      pop\n        /* \"#utility.yul\":2539:3013   */\n      swap3\n      pop\n      swap3\n      swap1\n      pop\n      jump\t// out\n        /* \"#utility.yul\":3019:3109   */\n    tag_430:\n        /* \"#utility.yul\":3053:3060   */\n      0x00\n        /* \"#utility.yul\":3096:3101   */\n      dup2\n        /* \"#utility.yul\":3089:3102   */\n      iszero\n        /* \"#utility.yul\":3082:3103   */\n      iszero\n        /* \"#utility.yul\":3071:3103   */\n      swap1\n      pop\n        /* \"#utility.yul\":3019:3109   */\n      swap2\n      swap1\n      pop\n      jump\t// out\n        /* \"#utility.yul\":3115:3224   */\n    tag_431:\n        /* \"#utility.yul\":3196:3217   */\n      tag_487\n        /* \"#utility.yul\":3211:3216   */\n      dup2\n        /* \"#utility.yul\":3196:3217   */\n      tag_430\n      jump\t// in\n    tag_487:\n        /* \"#utility.yul\":3191:3194   */\n      dup3\n        /* \"#utility.yul\":3184:3218   */\n      mstore\n        /* \"#utility.yul\":3115:3224   */\n      pop\n      pop\n      jump\t// out\n        /* \"#utility.yul\":3230:3440   */\n    tag_55:\n        /* \"#utility.yul\":3317:3321   */\n      0x00\n        /* \"#utility.yul\":3355:3357   */\n      0x20\n        /* \"#utility.yul\":3344:3353   */\n      dup3\n        /* \"#utility.yul\":3340:3358   */\n      add\n        /* \"#utility.yul\":3332:3358   */\n      swap1\n      pop\n        /* \"#utility.yul\":3368:3433   */\n      tag_489\n        /* \"#utility.yul\":3430:3431   */\n      0x00\n        /* \"#utility.yul\":3419:3428   */\n      dup4\n        /* \"#utility.yul\":3415:3432   */\n      add\n        /* \"#utility.yul\":3406:3412   */\n      dup5\n        /* \"#utility.yul\":3368:3433   */\n      tag_431\n      jump\t// in\n    tag_489:\n        /* \"#utility.yul\":3230:3440   */\n      swap3\n      swap2\n      pop\n      pop\n      jump\t// out\n        /* \"#utility.yul\":3446:3564   */\n    tag_432:\n        /* \"#utility.yul\":3533:3557   */\n      tag_491\n        /* \"#utility.yul\":3551:3556   */\n      dup2\n        /* \"#utility.yul\":3533:3557   */\n      tag_427\n      jump\t// in\n    tag_491:\n        /* \"#utility.yul\":3528:3531   */\n      dup3\n        /* \"#utility.yul\":3521:3558   */\n      mstore\n        /* \"#utility.yul\":3446:3564   */\n      pop\n      pop\n      jump\t// out\n        /* \"#utility.yul\":3570:3792   */\n    tag_60:\n        /* \"#utility.yul\":3663:3667   */\n      0x00\n        /* \"#utility.yul\":3701:3703   */\n      0x20\n        /* \"#utility.yul\":3690:3699   */\n      dup3\n        /* \"#utility.yul\":3686:3704   */\n      add\n        /* \"#utility.yul\":3678:3704   */\n      swap1\n      pop\n        /* \"#utility.yul\":3714:3785   */\n      tag_493\n        /* \"#utility.yul\":3782:3783   */\n      0x00\n        /* \"#utility.yul\":3771:3780   */\n      dup4\n        /* \"#utility.yul\":3767:3784   */\n      add\n        /* \"#utility.yul\":3758:3764   */\n      dup5\n        /* \"#utility.yul\":3714:3785   */\n      tag_432\n      jump\t// in\n    tag_493:\n        /* \"#utility.yul\":3570:3792   */\n      swap3\n      swap2\n      pop\n      pop\n      jump\t// out\n        /* \"#utility.yul\":3798:4417   */\n    tag_64:\n        /* \"#utility.yul\":3875:3881   */\n      0x00\n        /* \"#utility.yul\":3883:3889   */\n      dup1\n        /* \"#utility.yul\":3891:3897   */\n      0x00\n        /* \"#utility.yul\":3940:3942   */\n      0x60\n        /* \"#utility.yul\":3928:3937   */\n      dup5\n        /* \"#utility.yul\":3919:3926   */\n      dup7\n        /* \"#utility.yul\":3915:3938   */\n      sub\n        /* \"#utility.yul\":3911:3943   */\n      slt\n        /* \"#utility.yul\":3908:4027   */\n      iszero\n      tag_495\n      jumpi\n        /* \"#utility.yul\":3946:4025   */\n      tag_496\n      tag_421\n      jump\t// in\n    tag_496:\n        /* \"#utility.yul\":3908:4027   */\n    tag_495:\n        /* \"#utility.yul\":4066:4067   */\n      0x00\n        /* \"#utility.yul\":4091:4144   */\n      tag_497\n        /* \"#utility.yul\":4136:4143   */\n      dup7\n        /* \"#utility.yul\":4127:4133   */\n      dup3\n        /* \"#utility.yul\":4116:4125   */\n      dup8\n        /* \"#utility.yul\":4112:4134   */\n      add\n        /* \"#utility.yul\":4091:4144   */\n      tag_426\n      jump\t// in\n    tag_497:\n        /* \"#utility.yul\":4081:4144   */\n      swap4\n      pop\n        /* \"#utility.yul\":4037:4154   */\n      pop\n        /* \"#utility.yul\":4193:4195   */\n      0x20\n        /* \"#utility.yul\":4219:4272   */\n      tag_498\n        /* \"#utility.yul\":4264:4271   */\n      dup7\n        /* \"#utility.yul\":4255:4261   */\n      dup3\n        /* \"#utility.yul\":4244:4253   */\n      dup8\n        /* \"#utility.yul\":4240:4262   */\n      add\n        /* \"#utility.yul\":4219:4272   */\n      tag_426\n      jump\t// in\n    tag_498:\n        /* \"#utility.yul\":4209:4272   */\n      swap3\n      pop\n        /* \"#utility.yul\":4164:4282   */\n      pop\n        /* \"#utility.yul\":4321:4323   */\n      0x40\n        /* \"#utility.yul\":4347:4400   */\n      tag_499\n        /* \"#utility.yul\":4392:4399   */\n      dup7\n        /* \"#utility.yul\":4383:4389   */\n      dup3\n        /* \"#utility.yul\":4372:4381   */\n      dup8\n        /* \"#utility.yul\":4368:4390   */\n      add\n        /* \"#utility.yul\":4347:4400   */\n      tag_429\n      jump\t// in\n    tag_499:\n        /* \"#utility.yul\":4337:4400   */\n      swap2\n      pop\n        /* \"#utility.yul\":4292:4410   */\n      pop\n        /* \"#utility.yul\":3798:4417   */\n      swap3\n      pop\n      swap3\n      pop\n      swap3\n      jump\t// out\n        /* \"#utility.yul\":4423:4752   */\n    tag_70:\n        /* \"#utility.yul\":4482:4488   */\n      0x00\n        /* \"#utility.yul\":4531:4533   */\n      0x20\n        /* \"#utility.yul\":4519:4528   */\n      dup3\n        /* \"#utility.yul\":4510:4517   */\n      dup5\n        /* \"#utility.yul\":4506:4529   */\n      sub\n        /* \"#utility.yul\":4502:4534   */\n      slt\n        /* \"#utility.yul\":4499:4618   */\n      iszero\n      tag_501\n      jumpi\n        /* \"#utility.yul\":4537:4616   */\n      tag_502\n      tag_421\n      jump\t// in\n    tag_502:\n        /* \"#utility.yul\":4499:4618   */\n    tag_501:\n        /* \"#utility.yul\":4657:4658   */\n      0x00\n        /* \"#utility.yul\":4682:4735   */\n      tag_503\n        /* \"#utility.yul\":4727:4734   */\n      dup5\n        /* \"#utility.yul\":4718:4724   */\n      dup3\n        /* \"#utility.yul\":4707:4716   */\n      dup6\n        /* \"#utility.yul\":4703:4725   */\n      add\n        /* \"#utility.yul\":4682:4735   */\n      tag_429\n      jump\t// in\n    tag_503:\n        /* \"#utility.yul\":4672:4735   */\n      swap2\n      pop\n        /* \"#utility.yul\":4628:4745   */\n      pop\n        /* \"#utility.yul\":4423:4752   */\n      swap3\n      swap2\n      pop\n      pop\n      jump\t// out\n        /* \"#utility.yul\":4758:5087   */\n    tag_75:\n        /* \"#utility.yul\":4817:4823   */\n      0x00\n        /* \"#utility.yul\":4866:4868   */\n      0x20\n        /* \"#utility.yul\":4854:4863   */\n      dup3\n        /* \"#utility.yul\":4845:4852   */\n      dup5\n        /* \"#utility.yul\":4841:4864   */\n      sub\n        /* \"#utility.yul\":4837:4869   */\n      slt\n        /* \"#utility.yul\":4834:4953   */\n      iszero\n      tag_505\n      jumpi\n        /* \"#utility.yul\":4872:4951   */\n      tag_506\n      tag_421\n      jump\t// in\n    tag_506:\n        /* \"#utility.yul\":4834:4953   */\n    tag_505:\n        /* \"#utility.yul\":4992:4993   */\n      0x00\n        /* \"#utility.yul\":5017:5070   */\n      tag_507\n        /* \"#utility.yul\":5062:5069   */\n      dup5\n        /* \"#utility.yul\":5053:5059   */\n      dup3\n        /* \"#utility.yul\":5042:5051   */\n      dup6\n        /* \"#utility.yul\":5038:5060   */\n      add\n        /* \"#utility.yul\":5017:5070   */\n      tag_426\n      jump\t// in\n    tag_507:\n        /* \"#utility.yul\":5007:5070   */\n      swap2\n      pop\n        /* \"#utility.yul\":4963:5080   */\n      pop\n        /* \"#utility.yul\":4758:5087   */\n      swap3\n      swap2\n      pop\n      pop\n      jump\t// out\n        /* \"#utility.yul\":5093:5179   */\n    tag_433:\n        /* \"#utility.yul\":5128:5135   */\n      0x00\n        /* \"#utility.yul\":5168:5172   */\n      0xff\n        /* \"#utility.yul\":5161:5166   */\n      dup3\n        /* \"#utility.yul\":5157:5173   */\n      and\n        /* \"#utility.yul\":5146:5173   */\n      swap1\n      pop\n        /* \"#utility.yul\":5093:5179   */\n      swap2\n      swap1\n      pop\n      jump\t// out\n        /* \"#utility.yul\":5185:5297   */\n    tag_434:\n        /* \"#utility.yul\":5268:5290   */\n      tag_510\n        /* \"#utility.yul\":5284:5289   */\n      dup2\n        /* \"#utility.yul\":5268:5290   */\n      tag_433\n      jump\t// in\n    tag_510:\n        /* \"#utility.yul\":5263:5266   */\n      dup3\n        /* \"#utility.yul\":5256:5291   */\n      mstore\n        /* \"#utility.yul\":5185:5297   */\n      pop\n      pop\n      jump\t// out\n        /* \"#utility.yul\":5303:5517   */\n    tag_81:\n        /* \"#utility.yul\":5392:5396   */\n      0x00\n        /* \"#utility.yul\":5430:5432   */\n      0x20\n        /* \"#utility.yul\":5419:5428   */\n      dup3\n        /* \"#utility.yul\":5415:5433   */\n      add\n        /* \"#utility.yul\":5407:5433   */\n      swap1\n      pop\n        /* \"#utility.yul\":5443:5510   */\n      tag_512\n        /* \"#utility.yul\":5507:5508   */\n      0x00\n        /* \"#utility.yul\":5496:5505   */\n      dup4\n        /* \"#utility.yul\":5492:5509   */\n      add\n        /* \"#utility.yul\":5483:5489   */\n      dup5\n        /* \"#utility.yul\":5443:5510   */\n      tag_434\n      jump\t// in\n    tag_512:\n        /* \"#utility.yul\":5303:5517   */\n      swap3\n      swap2\n      pop\n      pop\n      jump\t// out\n        /* \"#utility.yul\":5523:5639   */\n    tag_435:\n        /* \"#utility.yul\":5593:5614   */\n      tag_514\n        /* \"#utility.yul\":5608:5613   */\n      dup2\n        /* \"#utility.yul\":5593:5614   */\n      tag_430\n      jump\t// in\n    tag_514:\n        /* \"#utility.yul\":5586:5591   */\n      dup2\n        /* \"#utility.yul\":5583:5615   */\n      eq\n        /* \"#utility.yul\":5573:5633   */\n      tag_515\n      jumpi\n        /* \"#utility.yul\":5629:5630   */\n      0x00\n        /* \"#utility.yul\":5626:5627   */\n      dup1\n        /* \"#utility.yul\":5619:5631   */\n      revert\n        /* \"#utility.yul\":5573:5633   */\n    tag_515:\n        /* \"#utility.yul\":5523:5639   */\n      pop\n      jump\t// out\n        /* \"#utility.yul\":5645:5778   */\n    tag_436:\n        /* \"#utility.yul\":5688:5693   */\n      0x00\n        /* \"#utility.yul\":5726:5732   */\n      dup2\n        /* \"#utility.yul\":5713:5733   */\n      calldataload\n        /* \"#utility.yul\":5704:5733   */\n      swap1\n      pop\n        /* \"#utility.yul\":5742:5772   */\n      tag_517\n        /* \"#utility.yul\":5766:5771   */\n      dup2\n        /* \"#utility.yul\":5742:5772   */\n      tag_435\n      jump\t// in\n    tag_517:\n        /* \"#utility.yul\":5645:5778   */\n      swap3\n      swap2\n      pop\n      pop\n      jump\t// out\n        /* \"#utility.yul\":5784:6252   */\n    tag_93:\n        /* \"#utility.yul\":5849:5855   */\n      0x00\n        /* \"#utility.yul\":5857:5863   */\n      dup1\n        /* \"#utility.yul\":5906:5908   */\n      0x40\n        /* \"#utility.yul\":5894:5903   */\n      dup4\n        /* \"#utility.yul\":5885:5892   */\n      dup6\n        /* \"#utility.yul\":5881:5904   */\n      sub\n        /* \"#utility.yul\":5877:5909   */\n      slt\n        /* \"#utility.yul\":5874:5993   */\n      iszero\n      tag_519\n      jumpi\n        /* \"#utility.yul\":5912:5991   */\n      tag_520\n      tag_421\n      jump\t// in\n    tag_520:\n        /* \"#utility.yul\":5874:5993   */\n    tag_519:\n        /* \"#utility.yul\":6032:6033   */\n      0x00\n        /* \"#utility.yul\":6057:6110   */\n      tag_521\n        /* \"#utility.yul\":6102:6109   */\n      dup6\n        /* \"#utility.yul\":6093:6099   */\n      dup3\n        /* \"#utility.yul\":6082:6091   */\n      dup7\n        /* \"#utility.yul\":6078:6100   */\n      add\n        /* \"#utility.yul\":6057:6110   */\n      tag_426\n      jump\t// in\n    tag_521:\n        /* \"#utility.yul\":6047:6110   */\n      swap3\n      pop\n        /* \"#utility.yul\":6003:6120   */\n      pop\n        /* \"#utility.yul\":6159:6161   */\n      0x20\n        /* \"#utility.yul\":6185:6235   */\n      tag_522\n        /* \"#utility.yul\":6227:6234   */\n      dup6\n        /* \"#utility.yul\":6218:6224   */\n      dup3\n        /* \"#utility.yul\":6207:6216   */\n      dup7\n        /* \"#utility.yul\":6203:6225   */\n      add\n        /* \"#utility.yul\":6185:6235   */\n      tag_436\n      jump\t// in\n    tag_522:\n        /* \"#utility.yul\":6175:6235   */\n      swap2\n      pop\n        /* \"#utility.yul\":6130:6245   */\n      pop\n        /* \"#utility.yul\":5784:6252   */\n      swap3\n      pop\n      swap3\n      swap1\n      pop\n      jump\t// out\n        /* \"#utility.yul\":6258:6376   */\n    tag_437:\n        /* \"#utility.yul\":6345:6369   */\n      tag_524\n        /* \"#utility.yul\":6363:6368   */\n      dup2\n        /* \"#utility.yul\":6345:6369   */\n      tag_424\n      jump\t// in\n    tag_524:\n        /* \"#utility.yul\":6340:6343   */\n      dup3\n        /* \"#utility.yul\":6333:6370   */\n      mstore\n        /* \"#utility.yul\":6258:6376   */\n      pop\n      pop\n      jump\t// out\n        /* \"#utility.yul\":6382:6604   */\n    tag_131:\n        /* \"#utility.yul\":6475:6479   */\n      0x00\n        /* \"#utility.yul\":6513:6515   */\n      0x20\n        /* \"#utility.yul\":6502:6511   */\n      dup3\n        /* \"#utility.yul\":6498:6516   */\n      add\n        /* \"#utility.yul\":6490:6516   */\n      swap1\n      pop\n        /* \"#utility.yul\":6526:6597   */\n      tag_526\n        /* \"#utility.yul\":6594:6595   */\n      0x00\n        /* \"#utility.yul\":6583:6592   */\n      dup4\n        /* \"#utility.yul\":6579:6596   */\n      add\n        /* \"#utility.yul\":6570:6576   */\n      dup5\n        /* \"#utility.yul\":6526:6597   */\n      tag_437\n      jump\t// in\n    tag_526:\n        /* \"#utility.yul\":6382:6604   */\n      swap3\n      swap2\n      pop\n      pop\n      jump\t// out\n        /* \"#utility.yul\":6610:7084   */\n    tag_179:\n        /* \"#utility.yul\":6678:6684   */\n      0x00\n        /* \"#utility.yul\":6686:6692   */\n      dup1\n        /* \"#utility.yul\":6735:6737   */\n      0x40\n        /* \"#utility.yul\":6723:6732   */\n      dup4\n        /* \"#utility.yul\":6714:6721   */\n      dup6\n        /* \"#utility.yul\":6710:6733   */\n      sub\n        /* \"#utility.yul\":6706:6738   */\n      slt\n        /* \"#utility.yul\":6703:6822   */\n      iszero\n      tag_528\n      jumpi\n        /* \"#utility.yul\":6741:6820   */\n      tag_529\n      tag_421\n      jump\t// in\n    tag_529:\n        /* \"#utility.yul\":6703:6822   */\n    tag_528:\n        /* \"#utility.yul\":6861:6862   */\n      0x00\n        /* \"#utility.yul\":6886:6939   */\n      tag_530\n        /* \"#utility.yul\":6931:6938   */\n      dup6\n        /* \"#utility.yul\":6922:6928   */\n      dup3\n        /* \"#utility.yul\":6911:6920   */\n      dup7\n        /* \"#utility.yul\":6907:6929   */\n      add\n        /* \"#utility.yul\":6886:6939   */\n      tag_426\n      jump\t// in\n    tag_530:\n        /* \"#utility.yul\":6876:6939   */\n      swap3\n      pop\n        /* \"#utility.yul\":6832:6949   */\n      pop\n        /* \"#utility.yul\":6988:6990   */\n      0x20\n        /* \"#utility.yul\":7014:7067   */\n      tag_531\n        /* \"#utility.yul\":7059:7066   */\n      dup6\n        /* \"#utility.yul\":7050:7056   */\n      dup3\n        /* \"#utility.yul\":7039:7048   */\n      dup7\n        /* \"#utility.yul\":7035:7057   */\n      add\n        /* \"#utility.yul\":7014:7067   */\n      tag_426\n      jump\t// in\n    tag_531:\n        /* \"#utility.yul\":7004:7067   */\n      swap2\n      pop\n        /* \"#utility.yul\":6959:7077   */\n      pop\n        /* \"#utility.yul\":6610:7084   */\n      swap3\n      pop\n      swap3\n      swap1\n      pop\n      jump\t// out\n        /* \"#utility.yul\":7090:7413   */\n    tag_185:\n        /* \"#utility.yul\":7146:7152   */\n      0x00\n        /* \"#utility.yul\":7195:7197   */\n      0x20\n        /* \"#utility.yul\":7183:7192   */\n      dup3\n        /* \"#utility.yul\":7174:7181   */\n      dup5\n        /* \"#utility.yul\":7170:7193   */\n      sub\n        /* \"#utility.yul\":7166:7198   */\n      slt\n        /* \"#utility.yul\":7163:7282   */\n      iszero\n      tag_533\n      jumpi\n        /* \"#utility.yul\":7201:7280   */\n      tag_534\n      tag_421\n      jump\t// in\n    tag_534:\n        /* \"#utility.yul\":7163:7282   */\n    tag_533:\n        /* \"#utility.yul\":7321:7322   */\n      0x00\n        /* \"#utility.yul\":7346:7396   */\n      tag_535\n        /* \"#utility.yul\":7388:7395   */\n      dup5\n        /* \"#utility.yul\":7379:7385   */\n      dup3\n        /* \"#utility.yul\":7368:7377   */\n      dup6\n        /* \"#utility.yul\":7364:7386   */\n      add\n        /* \"#utility.yul\":7346:7396   */\n      tag_436\n      jump\t// in\n    tag_535:\n        /* \"#utility.yul\":7336:7396   */\n      swap2\n      pop\n        /* \"#utility.yul\":7292:7406   */\n      pop\n        /* \"#utility.yul\":7090:7413   */\n      swap3\n      swap2\n      pop\n      pop\n      jump\t// out\n        /* \"#utility.yul\":7419:7599   */\n    tag_438:\n        /* \"#utility.yul\":7467:7544   */\n      0x4e487b7100000000000000000000000000000000000000000000000000000000\n        /* \"#utility.yul\":7464:7465   */\n      0x00\n        /* \"#utility.yul\":7457:7545   */\n      mstore\n        /* \"#utility.yul\":7564:7568   */\n      0x22\n        /* \"#utility.yul\":7561:7562   */\n      0x04\n        /* \"#utility.yul\":7554:7569   */\n      mstore\n        /* \"#utility.yul\":7588:7592   */\n      0x24\n        /* \"#utility.yul\":7585:7586   */\n      0x00\n        /* \"#utility.yul\":7578:7593   */\n      revert\n        /* \"#utility.yul\":7605:7925   */\n    tag_193:\n        /* \"#utility.yul\":7649:7655   */\n      0x00\n        /* \"#utility.yul\":7686:7687   */\n      0x02\n        /* \"#utility.yul\":7680:7684   */\n      dup3\n        /* \"#utility.yul\":7676:7688   */\n      div\n        /* \"#utility.yul\":7666:7688   */\n      swap1\n      pop\n        /* \"#utility.yul\":7733:7734   */\n      0x01\n        /* \"#utility.yul\":7727:7731   */\n      dup3\n        /* \"#utility.yul\":7723:7735   */\n      and\n        /* \"#utility.yul\":7754:7772   */\n      dup1\n        /* \"#utility.yul\":7744:7825   */\n      tag_538\n      jumpi\n        /* \"#utility.yul\":7810:7814   */\n      0x7f\n        /* \"#utility.yul\":7802:7808   */\n      dup3\n        /* \"#utility.yul\":7798:7815   */\n      and\n        /* \"#utility.yul\":7788:7815   */\n      swap2\n      pop\n        /* \"#utility.yul\":7744:7825   */\n    tag_538:\n        /* \"#utility.yul\":7872:7874   */\n      0x20\n        /* \"#utility.yul\":7864:7870   */\n      dup3\n        /* \"#utility.yul\":7861:7875   */\n      lt\n        /* \"#utility.yul\":7841:7859   */\n      dup2\n        /* \"#utility.yul\":7838:7876   */\n      sub\n        /* \"#utility.yul\":7835:7919   */\n      tag_539\n      jumpi\n        /* \"#utility.yul\":7891:7909   */\n      tag_540\n      tag_438\n      jump\t// in\n    tag_540:\n        /* \"#utility.yul\":7835:7919   */\n    tag_539:\n        /* \"#utility.yul\":7656:7925   */\n      pop\n        /* \"#utility.yul\":7605:7925   */\n      swap2\n      swap1\n      pop\n      jump\t// out\n        /* \"#utility.yul\":7931:8177   */\n    tag_439:\n        /* \"#utility.yul\":8071:8105   */\n      0x6f6e6c7920636f6e747261637420616464726573732c206e6f7420616c6c6f77\n        /* \"#utility.yul\":8067:8068   */\n      0x00\n        /* \"#utility.yul\":8059:8065   */\n      dup3\n        /* \"#utility.yul\":8055:8069   */\n      add\n        /* \"#utility.yul\":8048:8106   */\n      mstore\n        /* \"#utility.yul\":8140:8169   */\n      0x6564206578746572616e6c6c79206f776e6564206163636f756e740000000000\n        /* \"#utility.yul\":8135:8137   */\n      0x20\n        /* \"#utility.yul\":8127:8133   */\n      dup3\n        /* \"#utility.yul\":8123:8138   */\n      add\n        /* \"#utility.yul\":8116:8170   */\n      mstore\n        /* \"#utility.yul\":7931:8177   */\n      pop\n      jump\t// out\n        /* \"#utility.yul\":8183:8549   */\n    tag_440:\n        /* \"#utility.yul\":8325:8328   */\n      0x00\n        /* \"#utility.yul\":8346:8413   */\n      tag_543\n        /* \"#utility.yul\":8410:8412   */\n      0x3b\n        /* \"#utility.yul\":8405:8408   */\n      dup4\n        /* \"#utility.yul\":8346:8413   */\n      tag_416\n      jump\t// in\n    tag_543:\n        /* \"#utility.yul\":8339:8413   */\n      swap2\n      pop\n        /* \"#utility.yul\":8422:8515   */\n      tag_544\n        /* \"#utility.yul\":8511:8514   */\n      dup3\n        /* \"#utility.yul\":8422:8515   */\n      tag_439\n      jump\t// in\n    tag_544:\n        /* \"#utility.yul\":8540:8542   */\n      0x40\n        /* \"#utility.yul\":8535:8538   */\n      dup3\n        /* \"#utility.yul\":8531:8543   */\n      add\n        /* \"#utility.yul\":8524:8543   */\n      swap1\n      pop\n        /* \"#utility.yul\":8183:8549   */\n      swap2\n      swap1\n      pop\n      jump\t// out\n        /* \"#utility.yul\":8555:8974   */\n    tag_227:\n        /* \"#utility.yul\":8721:8725   */\n      0x00\n        /* \"#utility.yul\":8759:8761   */\n      0x20\n        /* \"#utility.yul\":8748:8757   */\n      dup3\n        /* \"#utility.yul\":8744:8762   */\n      add\n        /* \"#utility.yul\":8736:8762   */\n      swap1\n      pop\n        /* \"#utility.yul\":8808:8817   */\n      dup2\n        /* \"#utility.yul\":8802:8806   */\n      dup2\n        /* \"#utility.yul\":8798:8818   */\n      sub\n        /* \"#utility.yul\":8794:8795   */\n      0x00\n        /* \"#utility.yul\":8783:8792   */\n      dup4\n        /* \"#utility.yul\":8779:8796   */\n      add\n        /* \"#utility.yul\":8772:8819   */\n      mstore\n        /* \"#utility.yul\":8836:8967   */\n      tag_546\n        /* \"#utility.yul\":8962:8966   */\n      dup2\n        /* \"#utility.yul\":8836:8967   */\n      tag_440\n      jump\t// in\n    tag_546:\n        /* \"#utility.yul\":8828:8967   */\n      swap1\n      pop\n        /* \"#utility.yul\":8555:8974   */\n      swap2\n      swap1\n      pop\n      jump\t// out\n        /* \"#utility.yul\":8980:9142   */\n    tag_441:\n        /* \"#utility.yul\":9120:9134   */\n      0x696e5f626c61636b6c6973740000000000000000000000000000000000000000\n        /* \"#utility.yul\":9116:9117   */\n      0x00\n        /* \"#utility.yul\":9108:9114   */\n      dup3\n        /* \"#utility.yul\":9104:9118   */\n      add\n        /* \"#utility.yul\":9097:9135   */\n      mstore\n        /* \"#utility.yul\":8980:9142   */\n      pop\n      jump\t// out\n        /* \"#utility.yul\":9148:9514   */\n    tag_442:\n        /* \"#utility.yul\":9290:9293   */\n      0x00\n        /* \"#utility.yul\":9311:9378   */\n      tag_549\n        /* \"#utility.yul\":9375:9377   */\n      0x0c\n        /* \"#utility.yul\":9370:9373   */\n      dup4\n        /* \"#utility.yul\":9311:9378   */\n      tag_416\n      jump\t// in\n    tag_549:\n        /* \"#utility.yul\":9304:9378   */\n      swap2\n      pop\n        /* \"#utility.yul\":9387:9480   */\n      tag_550\n        /* \"#utility.yul\":9476:9479   */\n      dup3\n        /* \"#utility.yul\":9387:9480   */\n      tag_441\n      jump\t// in\n    tag_550:\n        /* \"#utility.yul\":9505:9507   */\n      0x20\n        /* \"#utility.yul\":9500:9503   */\n      dup3\n        /* \"#utility.yul\":9496:9508   */\n      add\n        /* \"#utility.yul\":9489:9508   */\n      swap1\n      pop\n        /* \"#utility.yul\":9148:9514   */\n      swap2\n      swap1\n      pop\n      jump\t// out\n        /* \"#utility.yul\":9520:9939   */\n    tag_289:\n        /* \"#utility.yul\":9686:9690   */\n      0x00\n        /* \"#utility.yul\":9724:9726   */\n      0x20\n        /* \"#utility.yul\":9713:9722   */\n      dup3\n        /* \"#utility.yul\":9709:9727   */\n      add\n        /* \"#utility.yul\":9701:9727   */\n      swap1\n      pop\n        /* \"#utility.yul\":9773:9782   */\n      dup2\n        /* \"#utility.yul\":9767:9771   */\n      dup2\n        /* \"#utility.yul\":9763:9783   */\n      sub\n        /* \"#utility.yul\":9759:9760   */\n      0x00\n        /* \"#utility.yul\":9748:9757   */\n      dup4\n        /* \"#utility.yul\":9744:9761   */\n      add\n        /* \"#utility.yul\":9737:9784   */\n      mstore\n        /* \"#utility.yul\":9801:9932   */\n      tag_552\n        /* \"#utility.yul\":9927:9931   */\n      dup2\n        /* \"#utility.yul\":9801:9932   */\n      tag_442\n      jump\t// in\n    tag_552:\n        /* \"#utility.yul\":9793:9932   */\n      swap1\n      pop\n        /* \"#utility.yul\":9520:9939   */\n      swap2\n      swap1\n      pop\n      jump\t// out\n        /* \"#utility.yul\":9945:10125   */\n    tag_443:\n        /* \"#utility.yul\":9993:10070   */\n      0x4e487b7100000000000000000000000000000000000000000000000000000000\n        /* \"#utility.yul\":9990:9991   */\n      0x00\n        /* \"#utility.yul\":9983:10071   */\n      mstore\n        /* \"#utility.yul\":10090:10094   */\n      0x11\n        /* \"#utility.yul\":10087:10088   */\n      0x04\n        /* \"#utility.yul\":10080:10095   */\n      mstore\n        /* \"#utility.yul\":10114:10118   */\n      0x24\n        /* \"#utility.yul\":10111:10112   */\n      0x00\n        /* \"#utility.yul\":10104:10119   */\n      revert\n        /* \"#utility.yul\":10131:10322   */\n    tag_317:\n        /* \"#utility.yul\":10171:10174   */\n      0x00\n        /* \"#utility.yul\":10190:10210   */\n      tag_555\n        /* \"#utility.yul\":10208:10209   */\n      dup3\n        /* \"#utility.yul\":10190:10210   */\n      tag_427\n      jump\t// in\n    tag_555:\n        /* \"#utility.yul\":10185:10210   */\n      swap2\n      pop\n        /* \"#utility.yul\":10224:10244   */\n      tag_556\n        /* \"#utility.yul\":10242:10243   */\n      dup4\n        /* \"#utility.yul\":10224:10244   */\n      tag_427\n      jump\t// in\n    tag_556:\n        /* \"#utility.yul\":10219:10244   */\n      swap3\n      pop\n        /* \"#utility.yul\":10267:10268   */\n      dup3\n        /* \"#utility.yul\":10264:10265   */\n      dup3\n        /* \"#utility.yul\":10260:10269   */\n      add\n        /* \"#utility.yul\":10253:10269   */\n      swap1\n      pop\n        /* \"#utility.yul\":10288:10291   */\n      dup1\n        /* \"#utility.yul\":10285:10286   */\n      dup3\n        /* \"#utility.yul\":10282:10292   */\n      gt\n        /* \"#utility.yul\":10279:10315   */\n      iszero\n      tag_557\n      jumpi\n        /* \"#utility.yul\":10295:10313   */\n      tag_558\n      tag_443\n      jump\t// in\n    tag_558:\n        /* \"#utility.yul\":10279:10315   */\n    tag_557:\n        /* \"#utility.yul\":10131:10322   */\n      swap3\n      swap2\n      pop\n      pop\n      jump\t// out\n        /* \"#utility.yul\":10328:10522   */\n    tag_320:\n        /* \"#utility.yul\":10368:10372   */\n      0x00\n        /* \"#utility.yul\":10388:10408   */\n      tag_560\n        /* \"#utility.yul\":10406:10407   */\n      dup3\n        /* \"#utility.yul\":10388:10408   */\n      tag_427\n      jump\t// in\n    tag_560:\n        /* \"#utility.yul\":10383:10408   */\n      swap2\n      pop\n        /* \"#utility.yul\":10422:10442   */\n      tag_561\n        /* \"#utility.yul\":10440:10441   */\n      dup4\n        /* \"#utility.yul\":10422:10442   */\n      tag_427\n      jump\t// in\n    tag_561:\n        /* \"#utility.yul\":10417:10442   */\n      swap3\n      pop\n        /* \"#utility.yul\":10466:10467   */\n      dup3\n        /* \"#utility.yul\":10463:10464   */\n      dup3\n        /* \"#utility.yul\":10459:10468   */\n      sub\n        /* \"#utility.yul\":10451:10468   */\n      swap1\n      pop\n        /* \"#utility.yul\":10490:10491   */\n      dup2\n        /* \"#utility.yul\":10484:10488   */\n      dup2\n        /* \"#utility.yul\":10481:10492   */\n      gt\n        /* \"#utility.yul\":10478:10515   */\n      iszero\n      tag_562\n      jumpi\n        /* \"#utility.yul\":10495:10513   */\n      tag_563\n      tag_443\n      jump\t// in\n    tag_563:\n        /* \"#utility.yul\":10478:10515   */\n    tag_562:\n        /* \"#utility.yul\":10328:10522   */\n      swap3\n      swap2\n      pop\n      pop\n      jump\t// out\n        /* \"#utility.yul\":10528:10630   */\n    tag_444:\n        /* \"#utility.yul\":10570:10578   */\n      0x00\n        /* \"#utility.yul\":10617:10622   */\n      dup2\n        /* \"#utility.yul\":10614:10615   */\n      0x01\n        /* \"#utility.yul\":10610:10623   */\n      shr\n        /* \"#utility.yul\":10589:10623   */\n      swap1\n      pop\n        /* \"#utility.yul\":10528:10630   */\n      swap2\n      swap1\n      pop\n      jump\t// out\n        /* \"#utility.yul\":10636:11484   */\n    tag_445:\n        /* \"#utility.yul\":10697:10702   */\n      0x00\n        /* \"#utility.yul\":10704:10708   */\n      dup1\n        /* \"#utility.yul\":10728:10734   */\n      dup3\n        /* \"#utility.yul\":10719:10734   */\n      swap2\n      pop\n        /* \"#utility.yul\":10752:10757   */\n      dup4\n        /* \"#utility.yul\":10743:10757   */\n      swap1\n      pop\n        /* \"#utility.yul\":10766:11478   */\n    tag_566:\n        /* \"#utility.yul\":10787:10788   */\n      0x01\n        /* \"#utility.yul\":10777:10785   */\n      dup6\n        /* \"#utility.yul\":10774:10789   */\n      gt\n        /* \"#utility.yul\":10766:11478   */\n      iszero\n      tag_568\n      jumpi\n        /* \"#utility.yul\":10882:10886   */\n      dup1\n        /* \"#utility.yul\":10877:10880   */\n      dup7\n        /* \"#utility.yul\":10873:10887   */\n      div\n        /* \"#utility.yul\":10867:10871   */\n      dup2\n        /* \"#utility.yul\":10864:10888   */\n      gt\n        /* \"#utility.yul\":10861:10911   */\n      iszero\n      tag_569\n      jumpi\n        /* \"#utility.yul\":10891:10909   */\n      tag_570\n      tag_443\n      jump\t// in\n    tag_570:\n        /* \"#utility.yul\":10861:10911   */\n    tag_569:\n        /* \"#utility.yul\":10941:10942   */\n      0x01\n        /* \"#utility.yul\":10931:10939   */\n      dup6\n        /* \"#utility.yul\":10927:10943   */\n      and\n        /* \"#utility.yul\":10924:11375   */\n      iszero\n      tag_571\n      jumpi\n        /* \"#utility.yul\":11356:11360   */\n      dup1\n        /* \"#utility.yul\":11349:11354   */\n      dup3\n        /* \"#utility.yul\":11345:11361   */\n      mul\n        /* \"#utility.yul\":11336:11361   */\n      swap2\n      pop\n        /* \"#utility.yul\":10924:11375   */\n    tag_571:\n        /* \"#utility.yul\":11406:11410   */\n      dup1\n        /* \"#utility.yul\":11400:11404   */\n      dup2\n        /* \"#utility.yul\":11396:11411   */\n      mul\n        /* \"#utility.yul\":11388:11411   */\n      swap1\n      pop\n        /* \"#utility.yul\":11436:11468   */\n      tag_572\n        /* \"#utility.yul\":11459:11467   */\n      dup6\n        /* \"#utility.yul\":11436:11468   */\n      tag_444\n      jump\t// in\n    tag_572:\n        /* \"#utility.yul\":11424:11468   */\n      swap5\n      pop\n        /* \"#utility.yul\":10766:11478   */\n      jump(tag_566)\n    tag_568:\n        /* \"#utility.yul\":10636:11484   */\n      swap5\n      pop\n      swap5\n      swap3\n      pop\n      pop\n      pop\n      jump\t// out\n        /* \"#utility.yul\":11490:12563   */\n    tag_446:\n        /* \"#utility.yul\":11544:11549   */\n      0x00\n        /* \"#utility.yul\":11735:11743   */\n      dup3\n        /* \"#utility.yul\":11725:11765   */\n      tag_574\n      jumpi\n        /* \"#utility.yul\":11756:11757   */\n      0x01\n        /* \"#utility.yul\":11747:11757   */\n      swap1\n      pop\n        /* \"#utility.yul\":11758:11763   */\n      jump(tag_573)\n        /* \"#utility.yul\":11725:11765   */\n    tag_574:\n        /* \"#utility.yul\":11784:11788   */\n      dup2\n        /* \"#utility.yul\":11774:11810   */\n      tag_575\n      jumpi\n        /* \"#utility.yul\":11801:11802   */\n      0x00\n        /* \"#utility.yul\":11792:11802   */\n      swap1\n      pop\n        /* \"#utility.yul\":11803:11808   */\n      jump(tag_573)\n        /* \"#utility.yul\":11774:11810   */\n    tag_575:\n        /* \"#utility.yul\":11870:11874   */\n      dup2\n        /* \"#utility.yul\":11918:11919   */\n      0x01\n        /* \"#utility.yul\":11913:11940   */\n      dup2\n      eq\n      tag_577\n      jumpi\n        /* \"#utility.yul\":11954:11955   */\n      0x02\n        /* \"#utility.yul\":11949:12140   */\n      dup2\n      eq\n      tag_578\n      jumpi\n        /* \"#utility.yul\":11863:12140   */\n      jump(tag_576)\n        /* \"#utility.yul\":11913:11940   */\n    tag_577:\n        /* \"#utility.yul\":11931:11932   */\n      0x01\n        /* \"#utility.yul\":11922:11932   */\n      swap2\n      pop\n        /* \"#utility.yul\":11933:11938   */\n      pop\n      jump(tag_573)\n        /* \"#utility.yul\":11949:12140   */\n    tag_578:\n        /* \"#utility.yul\":11994:11997   */\n      0xff\n        /* \"#utility.yul\":11984:11992   */\n      dup5\n        /* \"#utility.yul\":11981:11998   */\n      gt\n        /* \"#utility.yul\":11978:12021   */\n      iszero\n      tag_579\n      jumpi\n        /* \"#utility.yul\":12001:12019   */\n      tag_580\n      tag_443\n      jump\t// in\n    tag_580:\n        /* \"#utility.yul\":11978:12021   */\n    tag_579:\n        /* \"#utility.yul\":12050:12058   */\n      dup4\n        /* \"#utility.yul\":12047:12048   */\n      0x02\n        /* \"#utility.yul\":12043:12059   */\n      exp\n        /* \"#utility.yul\":12034:12059   */\n      swap2\n      pop\n        /* \"#utility.yul\":12085:12088   */\n      dup5\n        /* \"#utility.yul\":12078:12083   */\n      dup3\n        /* \"#utility.yul\":12075:12089   */\n      gt\n        /* \"#utility.yul\":12072:12112   */\n      iszero\n      tag_581\n      jumpi\n        /* \"#utility.yul\":12092:12110   */\n      tag_582\n      tag_443\n      jump\t// in\n    tag_582:\n        /* \"#utility.yul\":12072:12112   */\n    tag_581:\n        /* \"#utility.yul\":12125:12130   */\n      pop\n      jump(tag_573)\n        /* \"#utility.yul\":11863:12140   */\n    tag_576:\n      pop\n        /* \"#utility.yul\":12249:12251   */\n      0x20\n        /* \"#utility.yul\":12239:12247   */\n      dup4\n        /* \"#utility.yul\":12236:12252   */\n      lt\n        /* \"#utility.yul\":12230:12233   */\n      0x0133\n        /* \"#utility.yul\":12224:12228   */\n      dup4\n        /* \"#utility.yul\":12221:12234   */\n      lt\n        /* \"#utility.yul\":12217:12253   */\n      and\n        /* \"#utility.yul\":12199:12201   */\n      0x4e\n        /* \"#utility.yul\":12189:12197   */\n      dup5\n        /* \"#utility.yul\":12186:12202   */\n      lt\n        /* \"#utility.yul\":12181:12183   */\n      0x0b\n        /* \"#utility.yul\":12175:12179   */\n      dup5\n        /* \"#utility.yul\":12172:12184   */\n      lt\n        /* \"#utility.yul\":12168:12203   */\n      and\n        /* \"#utility.yul\":12152:12263   */\n      or\n        /* \"#utility.yul\":12149:12395   */\n      iszero\n      tag_583\n      jumpi\n        /* \"#utility.yul\":12305:12313   */\n      dup3\n        /* \"#utility.yul\":12299:12303   */\n      dup3\n        /* \"#utility.yul\":12295:12314   */\n      exp\n        /* \"#utility.yul\":12286:12314   */\n      swap1\n      pop\n        /* \"#utility.yul\":12340:12343   */\n      dup4\n        /* \"#utility.yul\":12333:12338   */\n      dup2\n        /* \"#utility.yul\":12330:12344   */\n      gt\n        /* \"#utility.yul\":12327:12367   */\n      iszero\n      tag_584\n      jumpi\n        /* \"#utility.yul\":12347:12365   */\n      tag_585\n      tag_443\n      jump\t// in\n    tag_585:\n        /* \"#utility.yul\":12327:12367   */\n    tag_584:\n        /* \"#utility.yul\":12380:12385   */\n      jump(tag_573)\n        /* \"#utility.yul\":12149:12395   */\n    tag_583:\n        /* \"#utility.yul\":12420:12462   */\n      tag_586\n        /* \"#utility.yul\":12458:12461   */\n      dup5\n        /* \"#utility.yul\":12448:12456   */\n      dup5\n        /* \"#utility.yul\":12442:12446   */\n      dup5\n        /* \"#utility.yul\":12439:12440   */\n      0x01\n        /* \"#utility.yul\":12420:12462   */\n      tag_445\n      jump\t// in\n    tag_586:\n        /* \"#utility.yul\":12405:12462   */\n      swap3\n      pop\n      swap1\n      pop\n        /* \"#utility.yul\":12494:12498   */\n      dup2\n        /* \"#utility.yul\":12489:12492   */\n      dup5\n        /* \"#utility.yul\":12485:12499   */\n      div\n        /* \"#utility.yul\":12478:12483   */\n      dup2\n        /* \"#utility.yul\":12475:12500   */\n      gt\n        /* \"#utility.yul\":12472:12523   */\n      iszero\n      tag_587\n      jumpi\n        /* \"#utility.yul\":12503:12521   */\n      tag_588\n      tag_443\n      jump\t// in\n    tag_588:\n        /* \"#utility.yul\":12472:12523   */\n    tag_587:\n        /* \"#utility.yul\":12552:12556   */\n      dup2\n        /* \"#utility.yul\":12545:12550   */\n      dup2\n        /* \"#utility.yul\":12541:12557   */\n      mul\n        /* \"#utility.yul\":12532:12557   */\n      swap1\n      pop\n        /* \"#utility.yul\":11490:12563   */\n    tag_573:\n      swap4\n      swap3\n      pop\n      pop\n      pop\n      jump\t// out\n        /* \"#utility.yul\":12569:12850   */\n    tag_329:\n        /* \"#utility.yul\":12627:12632   */\n      0x00\n        /* \"#utility.yul\":12651:12674   */\n      tag_590\n        /* \"#utility.yul\":12669:12673   */\n      dup3\n        /* \"#utility.yul\":12651:12674   */\n      tag_427\n      jump\t// in\n    tag_590:\n        /* \"#utility.yul\":12643:12674   */\n      swap2\n      pop\n        /* \"#utility.yul\":12695:12720   */\n      tag_591\n        /* \"#utility.yul\":12711:12719   */\n      dup4\n        /* \"#utility.yul\":12695:12720   */\n      tag_433\n      jump\t// in\n    tag_591:\n        /* \"#utility.yul\":12683:12720   */\n      swap3\n      pop\n        /* \"#utility.yul\":12739:12843   */\n      tag_592\n        /* \"#utility.yul\":12776:12842   */\n      0xffffffffffffffffffffffffffffffffffffffffffffffffffffffffffffffff\n        /* \"#utility.yul\":12766:12774   */\n      dup5\n        /* \"#utility.yul\":12760:12764   */\n      dup5\n        /* \"#utility.yul\":12739:12843   */\n      tag_446\n      jump\t// in\n    tag_592:\n        /* \"#utility.yul\":12730:12843   */\n      swap1\n      pop\n        /* \"#utility.yul\":12569:12850   */\n      swap3\n      swap2\n      pop\n      pop\n      jump\t// out\n        /* \"#utility.yul\":12856:13266   */\n    tag_331:\n        /* \"#utility.yul\":12896:12903   */\n      0x00\n        /* \"#utility.yul\":12919:12939   */\n      tag_594\n        /* \"#utility.yul\":12937:12938   */\n      dup3\n        /* \"#utility.yul\":12919:12939   */\n      tag_427\n      jump\t// in\n    tag_594:\n        /* \"#utility.yul\":12914:12939   */\n      swap2\n      pop\n        /* \"#utility.yul\":12953:12973   */\n      tag_595\n        /* \"#utility.yul\":12971:12972   */\n      dup4\n        /* \"#utility.yul\":12953:12973   */\n      tag_427\n      jump\t// in\n    tag_595:\n        /* \"#utility.yul\":12948:12973   */\n      swap3\n      pop\n        /* \"#utility.yul\":13008:13009   */\n      dup3\n        /* \"#utility.yul\":13005:13006   */\n      dup3\n        /* \"#utility.yul\":13001:13010   */\n      mul\n        /* \"#utility.yul\":13030:13060   */\n      tag_596\n        /* \"#utility.yul\":13048:13059   */\n      dup2\n        /* \"#utility.yul\":13030:13060   */\n      tag_427\n      jump\t// in\n    tag_596:\n        /* \"#utility.yul\":13019:13060   */\n      swap2\n      pop\n        /* \"#utility.yul\":13209:13210   */\n      dup3\n        /* \"#utility.yul\":13200:13207   */\n      dup3\n        /* \"#utility.yul\":13196:13211   */\n      div\n        /* \"#utility.yul\":13193:13194   */\n      dup5\n        /* \"#utility.yul\":13190:13212   */\n      eq\n        /* \"#utility.yul\":13170:13171   */\n      dup4\n        /* \"#utility.yul\":13163:13172   */\n      iszero\n        /* \"#utility.yul\":13143:13226   */\n      or\n        /* \"#utility.yul\":13120:13259   */\n      tag_597\n      jumpi\n        /* \"#utility.yul\":13239:13257   */\n      tag_598\n      tag_443\n      jump\t// in\n    tag_598:\n        /* \"#utility.yul\":13120:13259   */\n    tag_597:\n        /* \"#utility.yul\":12904:13266   */\n      pop\n        /* \"#utility.yul\":12856:13266   */\n      swap3\n      swap2\n      pop\n      pop\n      jump\t// out\n        /* \"#utility.yul\":13272:13452   */\n    tag_390:\n        /* \"#utility.yul\":13320:13397   */\n      0x4e487b7100000000000000000000000000000000000000000000000000000000\n        /* \"#utility.yul\":13317:13318   */\n      0x00\n        /* \"#utility.yul\":13310:13398   */\n      mstore\n        /* \"#utility.yul\":13417:13421   */\n      0x32\n        /* \"#utility.yul\":13414:13415   */\n      0x04\n        /* \"#utility.yul\":13407:13422   */\n      mstore\n        /* \"#utility.yul\":13441:13445   */\n      0x24\n        /* \"#utility.yul\":13438:13439   */\n      0x00\n        /* \"#utility.yul\":13431:13446   */\n      revert\n        /* \"#utility.yul\":13458:13638   */\n    tag_447:\n        /* \"#utility.yul\":13506:13583   */\n      0x4e487b7100000000000000000000000000000000000000000000000000000000\n        /* \"#utility.yul\":13503:13504   */\n      0x00\n        /* \"#utility.yul\":13496:13584   */\n      mstore\n        /* \"#utility.yul\":13603:13607   */\n      0x12\n        /* \"#utility.yul\":13600:13601   */\n      0x04\n        /* \"#utility.yul\":13593:13608   */\n      mstore\n        /* \"#utility.yul\":13627:13631   */\n      0x24\n        /* \"#utility.yul\":13624:13625   */\n      0x00\n        /* \"#utility.yul\":13617:13632   */\n      revert\n        /* \"#utility.yul\":13644:13829   */\n    tag_404:\n        /* \"#utility.yul\":13684:13685   */\n      0x00\n        /* \"#utility.yul\":13701:13721   */\n      tag_602\n        /* \"#utility.yul\":13719:13720   */\n      dup3\n        /* \"#utility.yul\":13701:13721   */\n      tag_427\n      jump\t// in\n    tag_602:\n        /* \"#utility.yul\":13696:13721   */\n      swap2\n      pop\n        /* \"#utility.yul\":13735:13755   */\n      tag_603\n        /* \"#utility.yul\":13753:13754   */\n      dup4\n        /* \"#utility.yul\":13735:13755   */\n      tag_427\n      jump\t// in\n    tag_603:\n        /* \"#utility.yul\":13730:13755   */\n      swap3\n      pop\n        /* \"#utility.yul\":13774:13775   */\n      dup3\n        /* \"#utility.yul\":13764:13799   */\n      tag_604\n      jumpi\n        /* \"#utility.yul\":13779:13797   */\n      tag_605\n      tag_447\n      jump\t// in\n    tag_605:\n        /* \"#utility.yul\":13764:13799   */\n    tag_604:\n        /* \"#utility.yul\":13821:13822   */\n      dup3\n        /* \"#utility.yul\":13818:13819   */\n      dup3\n        /* \"#utility.yul\":13814:13823   */\n      div\n        /* \"#utility.yul\":13809:13823   */\n      swap1\n      pop\n        /* \"#utility.yul\":13644:13829   */\n      swap3\n      swap2\n      pop\n      pop\n      jump\t// out\n\n    auxdata: 0xa264697066735822122072f40169768f23e84c18200df85e8f8c59e161e6c475496a6ff5efa2a6c016b264736f6c63430008180033\n}\n",
				"bytecode": {
					"linkReferences": {},
					"object": "608060405260636003556102586004555f601160146101000a81548160ff02191690831515021790555034801562000035575f80fd5b506040518060400160405280600481526020017f424f4d42000000000000000000000000000000000000000000000000000000008152506040518060400160405280600481526020017f424f4d42000000000000000000000000000000000000000000000000000000008152506005825f9081620000b4919062000533565b508160019081620000c6919062000533565b508060025f6101000a81548160ff021916908360ff16021790555050505033600260016101000a81548173ffffffffffffffffffffffffffffffffffffffff021916908373ffffffffffffffffffffffffffffffffffffffff1602179055506005600a620001359190620007a0565b6204f588620001459190620007f0565b6008819055504260068190555042600781905550600160055f6101000a81548160ff0219169083151502179055506001600d5f3073ffffffffffffffffffffffffffffffffffffffff1673ffffffffffffffffffffffffffffffffffffffff1681526020019081526020015f205f6101000a81548160ff02191690831515021790555073d7f655e3376ce2d7a2b08ff01eb3b1023191a90160105f6101000a81548173ffffffffffffffffffffffffffffffffffffffff021916908373ffffffffffffffffffffffffffffffffffffffff160217905550600854600b5f3373ffffffffffffffffffffffffffffffffffffffff1673ffffffffffffffffffffffffffffffffffffffff1681526020019081526020015f20819055503373ffffffffffffffffffffffffffffffffffffffff163073ffffffffffffffffffffffffffffffffffffffff167fddf252ad1be2c89b69c2b068fc378daa952ba7f163c4a11628f55a4df523b3ef600854604051620002c191906200084b565b60405180910390a362000866565b5f81519050919050565b7f4e487b71000000000000000000000000000000000000000000000000000000005f52604160045260245ffd5b7f4e487b71000000000000000000000000000000000000000000000000000000005f52602260045260245ffd5b5f60028204905060018216806200034b57607f821691505b60208210810362000361576200036062000306565b5b50919050565b5f819050815f5260205f209050919050565b5f6020601f8301049050919050565b5f82821b905092915050565b5f60088302620003c57fffffffffffffffffffffffffffffffffffffffffffffffffffffffffffffffff8262000388565b620003d1868362000388565b95508019841693508086168417925050509392505050565b5f819050919050565b5f819050919050565b5f6200041b620004156200040f84620003e9565b620003f2565b620003e9565b9050919050565b5f819050919050565b6200043683620003fb565b6200044e620004458262000422565b84845462000394565b825550505050565b5f90565b6200046462000456565b620004718184846200042b565b505050565b5b8181101562000498576200048c5f826200045a565b60018101905062000477565b5050565b601f821115620004e757620004b18162000367565b620004bc8462000379565b81016020851015620004cc578190505b620004e4620004db8562000379565b83018262000476565b50505b505050565b5f82821c905092915050565b5f620005095f1984600802620004ec565b1980831691505092915050565b5f620005238383620004f8565b9150826002028217905092915050565b6200053e82620002cf565b67ffffffffffffffff8111156200055a5762000559620002d9565b5b62000566825462000333565b620005738282856200049c565b5f60209050601f831160018114620005a9575f841562000594578287015190505b620005a0858262000516565b8655506200060f565b601f198416620005b98662000367565b5f5b82811015620005e257848901518255600182019150602085019450602081019050620005bb565b86831015620006025784890151620005fe601f891682620004f8565b8355505b6001600288020188555050505b505050505050565b7f4e487b71000000000000000000000000000000000000000000000000000000005f52601160045260245ffd5b5f8160011c9050919050565b5f808291508390505b6001851115620006a15780860481111562000679576200067862000617565b5b6001851615620006895780820291505b8081029050620006998562000644565b945062000659565b94509492505050565b5f82620006bb57600190506200078d565b81620006ca575f90506200078d565b8160018114620006e35760028114620006ee5762000724565b60019150506200078d565b60ff84111562000703576200070262000617565b5b8360020a9150848211156200071d576200071c62000617565b5b506200078d565b5060208310610133831016604e8410600b84101617156200075e5782820a90508381111562000758576200075762000617565b5b6200078d565b6200076d848484600162000650565b9250905081840481111562000787576200078662000617565b5b81810290505b9392505050565b5f60ff82169050919050565b5f620007ac82620003e9565b9150620007b98362000794565b9250620007e87fffffffffffffffffffffffffffffffffffffffffffffffffffffffffffffffff8484620006aa565b905092915050565b5f620007fc82620003e9565b91506200080983620003e9565b92508282026200081981620003e9565b9150828204841483151762000833576200083262000617565b5b5092915050565b6200084581620003e9565b82525050565b5f602082019050620008605f8301846200083a565b92915050565b612bdc80620008745f395ff3fe6080604052600436106101e6575f3560e01c806383b4ac6811610101578063a9059cbb11610094578063d439979011610063578063d4399790146106d5578063dd62ed3e14610711578063e15beb801461074d578063f2fde38b14610775576101ed565b8063a9059cbb1461061d578063ae06c1b714610659578063afb9cf6d14610681578063c737a49b146106ab576101ed565b806395d89b41116100d057806395d89b41146105515780639b87676c1461057b578063a20623ce146105a5578063a457c2d7146105e1576101ed565b806383b4ac68146104ab578063854cff2f146104d55780638da5cb5b146104fd5780638f32d59b14610527576101ed565b806332b75683116101795780636922294811610148578063692229481461041957806370a0823114610443578063715018a61461047f578063753d02a114610495576101ed565b806332b756831461036157806337c9be871461038b57806339509351146103b35780633eaaf86b146103ef576101ed565b80632910164a116101b55780632910164a146102bd5780632f34d282146102e5578063313ce5671461030d57806331b216ed14610337576101ed565b806306fdde03146101f1578063095ea7b31461021b57806318160ddd1461025757806323b872dd14610281576101ed565b366101ed57005b5f80fd5b3480156101fc575f80fd5b5061020561079d565b604051610212919061245f565b60405180910390f35b348015610226575f80fd5b50610241600480360381019061023c9190612510565b61082c565b60405161024e9190612568565b60405180910390f35b348015610262575f80fd5b5061026b610919565b6040516102789190612590565b60405180910390f35b34801561028c575f80fd5b506102a760048036038101906102a291906125a9565b610922565b6040516102b49190612568565b60405180910390f35b3480156102c8575f80fd5b506102e360048036038101906102de91906125f9565b610b47565b005b3480156102f0575f80fd5b5061030b60048036038101906103069190612624565b610b61565b005b348015610318575f80fd5b50610321610bb4565b60405161032e919061266a565b60405180910390f35b348015610342575f80fd5b5061034b610bc9565b6040516103589190612568565b60405180910390f35b34801561036c575f80fd5b50610375610bdb565b6040516103829190612590565b60405180910390f35b348015610396575f80fd5b506103b160048036038101906103ac91906126ad565b610be1565b005b3480156103be575f80fd5b506103d960048036038101906103d49190612510565b610c91565b6040516103e69190612568565b60405180910390f35b3480156103fa575f80fd5b50610403610e80565b6040516104109190612590565b60405180910390f35b348015610424575f80fd5b5061042d610e86565b60405161043a9190612590565b60405180910390f35b34801561044e575f80fd5b5061046960048036038101906104649190612624565b610e8c565b6040516104769190612590565b60405180910390f35b34801561048a575f80fd5b50610493610ed2565b005b3480156104a0575f80fd5b506104a9610f8a565b005b3480156104b6575f80fd5b506104bf611008565b6040516104cc9190612568565b60405180910390f35b3480156104e0575f80fd5b506104fb60048036038101906104f69190612624565b61101f565b005b348015610508575f80fd5b50610511611087565b60405161051e91906126fa565b60405180910390f35b348015610532575f80fd5b5061053b6110b0565b6040516105489190612568565b60405180910390f35b34801561055c575f80fd5b50610565611107565b604051610572919061245f565b60405180910390f35b348015610586575f80fd5b5061058f611197565b60405161059c9190612590565b60405180910390f35b3480156105b0575f80fd5b506105cb60048036038101906105c69190612624565b61119d565b6040516105d89190612568565b60405180910390f35b3480156105ec575f80fd5b5061060760048036038101906106029190612510565b6111ba565b6040516106149190612568565b60405180910390f35b348015610628575f80fd5b50610643600480360381019061063e9190612510565b611438565b6040516106509190612568565b60405180910390f35b348015610664575f80fd5b5061067f600480360381019061067a91906125f9565b611488565b005b34801561068c575f80fd5b506106956114a2565b6040516106a29190612568565b60405180910390f35b3480156106b6575f80fd5b506106bf6114b4565b6040516106cc9190612590565b60405180910390f35b3480156106e0575f80fd5b506106fb60048036038101906106f69190612624565b6114ba565b6040516107089190612568565b60405180910390f35b34801561071c575f80fd5b5061073760048036038101906107329190612713565b61150c565b6040516107449190612590565b60405180910390f35b348015610758575f80fd5b50610773600480360381019061076e9190612751565b61158e565b005b348015610780575f80fd5b5061079b60048036038101906107969190612624565b6115e6565b005b60605f80546107ab906127a9565b80601f01602080910402602001604051908101604052809291908181526020018280546107d7906127a9565b80156108225780601f106107f957610100808354040283529160200191610822565b820191905f5260205f20905b81548152906001019060200180831161080557829003601f168201915b5050505050905090565b5f8160125f3373ffffffffffffffffffffffffffffffffffffffff1673ffffffffffffffffffffffffffffffffffffffff1681526020019081526020015f205f8573ffffffffffffffffffffffffffffffffffffffff1673ffffffffffffffffffffffffffffffffffffffff1681526020019081526020015f20819055508273ffffffffffffffffffffffffffffffffffffffff163373ffffffffffffffffffffffffffffffffffffffff167f8c5be1e5ebec7d5bd14f71427d1e84f3dd0314c0f7b2291e5b200ac8c7c3b925846040516109079190612590565b60405180910390a36001905092915050565b5f600854905090565b5f825f73ffffffffffffffffffffffffffffffffffffffff168173ffffffffffffffffffffffffffffffffffffffff160361095b575f80fd5b3073ffffffffffffffffffffffffffffffffffffffff168573ffffffffffffffffffffffffffffffffffffffff161480156109e2575060105f9054906101000a900473ffffffffffffffffffffffffffffffffffffffff1673ffffffffffffffffffffffffffffffffffffffff168473ffffffffffffffffffffffffffffffffffffffff16145b156109f05760019150610b3f565b610ab2836040518060400160405280601681526020017f496e73756666696369656e7420416c6c6f77616e63650000000000000000000081525060125f8973ffffffffffffffffffffffffffffffffffffffff1673ffffffffffffffffffffffffffffffffffffffff1681526020019081526020015f205f3373ffffffffffffffffffffffffffffffffffffffff1673ffffffffffffffffffffffffffffffffffffffff1681526020019081526020015f20546116029092919063ffffffff16565b60125f8773ffffffffffffffffffffffffffffffffffffffff1673ffffffffffffffffffffffffffffffffffffffff1681526020019081526020015f205f3373ffffffffffffffffffffffffffffffffffffffff1673ffffffffffffffffffffffffffffffffffffffff1681526020019081526020015f2081905550610b39858585611656565b50600191505b509392505050565b610b4f6110b0565b610b57575f80fd5b8060048190555050565b610b696110b0565b610b71575f80fd5b8060115f6101000a81548173ffffffffffffffffffffffffffffffffffffffff021916908373ffffffffffffffffffffffffffffffffffffffff16021790555050565b5f60025f9054906101000a900460ff16905090565b600a5f9054906101000a900460ff1681565b60075481565b610be96110b0565b610bf1575f80fd5b610bfa8261182f565b610c39576040517f08c379a0000000000000000000000000000000000000000000000000000000008152600401610c3090612849565b60405180910390fd5b80600e5f8473ffffffffffffffffffffffffffffffffffffffff1673ffffffffffffffffffffffffffffffffffffffff1681526020019081526020015f205f6101000a81548160ff0219169083151502179055505050565b5f610d1d8260125f3373ffffffffffffffffffffffffffffffffffffffff1673ffffffffffffffffffffffffffffffffffffffff1681526020019081526020015f205f8673ffffffffffffffffffffffffffffffffffffffff1673ffffffffffffffffffffffffffffffffffffffff1681526020019081526020015f205461184090919063ffffffff16565b60125f3373ffffffffffffffffffffffffffffffffffffffff1673ffffffffffffffffffffffffffffffffffffffff1681526020019081526020015f205f8573ffffffffffffffffffffffffffffffffffffffff1673ffffffffffffffffffffffffffffffffffffffff1681526020019081526020015f20819055508273ffffffffffffffffffffffffffffffffffffffff163373ffffffffffffffffffffffffffffffffffffffff167f8c5be1e5ebec7d5bd14f71427d1e84f3dd0314c0f7b2291e5b200ac8c7c3b92560125f3373ffffffffffffffffffffffffffffffffffffffff1673ffffffffffffffffffffffffffffffffffffffff1681526020019081526020015f205f8773ffffffffffffffffffffffffffffffffffffffff1673ffffffffffffffffffffffffffffffffffffffff1681526020019081526020015f2054604051610e6e9190612590565b60405180910390a36001905092915050565b60085481565b60035481565b5f600b5f8373ffffffffffffffffffffffffffffffffffffffff1673ffffffffffffffffffffffffffffffffffffffff1681526020019081526020015f20549050919050565b610eda6110b0565b610ee2575f80fd5b600260019054906101000a900473ffffffffffffffffffffffffffffffffffffffff1673ffffffffffffffffffffffffffffffffffffffff167ff8df31144d9c2f0f6b59d69b8b98abd5459d07f2742c4df920b25aae33c6482060405160405180910390a25f600260016101000a81548173ffffffffffffffffffffffffffffffffffffffff021916908373ffffffffffffffffffffffffffffffffffffffff160217905550565b60115f9054906101000a900473ffffffffffffffffffffffffffffffffffffffff1673ffffffffffffffffffffffffffffffffffffffff1663fff6cae96040518163ffffffff1660e01b81526004015f604051808303815f87803b158015610ff0575f80fd5b505af1158015611002573d5f803e3d5ffd5b50505050565b5f601160149054906101000a900460ff1615905090565b6110276110b0565b61102f575f80fd5b6001600d5f8373ffffffffffffffffffffffffffffffffffffffff1673ffffffffffffffffffffffffffffffffffffffff1681526020019081526020015f205f6101000a81548160ff02191690831515021790555050565b5f600260019054906101000a900473ffffffffffffffffffffffffffffffffffffffff16905090565b5f600260019054906101000a900473ffffffffffffffffffffffffffffffffffffffff1673ffffffffffffffffffffffffffffffffffffffff163373ffffffffffffffffffffffffffffffffffffffff1614905090565b606060018054611116906127a9565b80601f0160208091040260200160405190810160405280929190818152602001828054611142906127a9565b801561118d5780601f106111645761010080835404028352916020019161118d565b820191905f5260205f20905b81548152906001019060200180831161117057829003601f168201915b5050505050905090565b60065481565b600e602052805f5260405f205f915054906101000a900460ff1681565b5f8060125f3373ffffffffffffffffffffffffffffffffffffffff1673ffffffffffffffffffffffffffffffffffffffff1681526020019081526020015f205f8573ffffffffffffffffffffffffffffffffffffffff1673ffffffffffffffffffffffffffffffffffffffff1681526020019081526020015f205490508083106112c0575f60125f3373ffffffffffffffffffffffffffffffffffffffff1673ffffffffffffffffffffffffffffffffffffffff1681526020019081526020015f205f8673ffffffffffffffffffffffffffffffffffffffff1673ffffffffffffffffffffffffffffffffffffffff1681526020019081526020015f2081905550611350565b6112d3838261185590919063ffffffff16565b60125f3373ffffffffffffffffffffffffffffffffffffffff1673ffffffffffffffffffffffffffffffffffffffff1681526020019081526020015f205f8673ffffffffffffffffffffffffffffffffffffffff1673ffffffffffffffffffffffffffffffffffffffff1681526020019081526020015f20819055505b8373ffffffffffffffffffffffffffffffffffffffff163373ffffffffffffffffffffffffffffffffffffffff167f8c5be1e5ebec7d5bd14f71427d1e84f3dd0314c0f7b2291e5b200ac8c7c3b92560125f3373ffffffffffffffffffffffffffffffffffffffff1673ffffffffffffffffffffffffffffffffffffffff1681526020019081526020015f205f8873ffffffffffffffffffffffffffffffffffffffff1673ffffffffffffffffffffffffffffffffffffffff1681526020019081526020015f20546040516114259190612590565b60405180910390a3600191505092915050565b5f825f73ffffffffffffffffffffffffffffffffffffffff168173ffffffffffffffffffffffffffffffffffffffff1603611471575f80fd5b61147c338585611656565b50600191505092915050565b6114906110b0565b611498575f80fd5b8060038190555050565b60055f9054906101000a900460ff1681565b60045481565b5f600d5f8373ffffffffffffffffffffffffffffffffffffffff1673ffffffffffffffffffffffffffffffffffffffff1681526020019081526020015f205f9054906101000a900460ff169050919050565b5f60125f8473ffffffffffffffffffffffffffffffffffffffff1673ffffffffffffffffffffffffffffffffffffffff1681526020019081526020015f205f8373ffffffffffffffffffffffffffffffffffffffff1673ffffffffffffffffffffffffffffffffffffffff1681526020019081526020015f2054905092915050565b6115966110b0565b61159e575f80fd5b80156115c9578060055f6101000a81548160ff021916908315150217905550426007819055506115e3565b8060055f6101000a81548160ff0219169083151502179055505b50565b6115ee6110b0565b6115f6575f80fd5b6115ff8161186a565b50565b5f838311158290611649576040517f08c379a0000000000000000000000000000000000000000000000000000000008152600401611640919061245f565b60405180910390fd5b5082840390509392505050565b5f600e5f8573ffffffffffffffffffffffffffffffffffffffff1673ffffffffffffffffffffffffffffffffffffffff1681526020019081526020015f205f9054906101000a900460ff161580156116f55750600e5f8473ffffffffffffffffffffffffffffffffffffffff1673ffffffffffffffffffffffffffffffffffffffff1681526020019081526020015f205f9054906101000a900460ff16155b611734576040517f08c379a000000000000000000000000000000000000000000000000000000000815260040161172b906128b1565b60405180910390fd5b601160149054906101000a900460ff161561175b57611754848484611961565b9050611828565b611763611981565b1561177157611770611a4c565b5b61177b8483611c61565b5f6117868585611cbe565b611790578261179b565b61179a8584611dc1565b5b90506117a78482611e78565b8373ffffffffffffffffffffffffffffffffffffffff168573ffffffffffffffffffffffffffffffffffffffff167fddf252ad1be2c89b69c2b068fc378daa952ba7f163c4a11628f55a4df523b3ef836040516118049190612590565b60405180910390a3611814611ed5565b1561182257611821611f36565b5b60019150505b9392505050565b5f80823b90505f8111915050919050565b5f818361184d91906128fc565b905092915050565b5f8183611862919061292f565b905092915050565b5f73ffffffffffffffffffffffffffffffffffffffff168173ffffffffffffffffffffffffffffffffffffffff16036118a1575f80fd5b8073ffffffffffffffffffffffffffffffffffffffff16600260019054906101000a900473ffffffffffffffffffffffffffffffffffffffff1673ffffffffffffffffffffffffffffffffffffffff167f8be0079c531659141344cd1fd0a4f28419497f9722a3daafe3b4186f6b6457e060405160405180910390a380600260016101000a81548173ffffffffffffffffffffffffffffffffffffffff021916908373ffffffffffffffffffffffffffffffffffffffff16021790555050565b5f61196c8483611c61565b6119768383611e78565b600190509392505050565b5f60055f9054906101000a900460ff1680156119ba57506005600a6119a69190612a91565b63c1b710806119b59190612adb565b600854105b8015611a13575060115f9054906101000a900473ffffffffffffffffffffffffffffffffffffffff1673ffffffffffffffffffffffffffffffffffffffff163373ffffffffffffffffffffffffffffffffffffffff1614155b8015611a2c5750601160149054906101000a900460ff16155b8015611a475750610384600754611a4391906128fc565b4210155b905090565b601160149054906101000a900460ff16611c5f575f8060065442611a70919061292f565b90505f60075442611a81919061292f565b90505f611a99610384836121ba90919063ffffffff16565b90505f611ab0600f836121cf90919063ffffffff16565b90506301e13380841015611ac8576109339450611b03565b6301e133808410611adc5760d39450611b02565b6302d1cd408410611af057600e9450611b01565b630d2868808410611b0057600294505b5b5b5b5f5b82811015611b7357611b606007600a611b1e9190612a91565b611b52611b41896007600a611b339190612a91565b61184090919063ffffffff16565b6008546121cf90919063ffffffff16565b6121ba90919063ffffffff16565b6008819055508080600101915050611b05565b50611b9d611b8c610384846121cf90919063ffffffff16565b60075461184090919063ffffffff16565b60078190555060115f9054906101000a900473ffffffffffffffffffffffffffffffffffffffff1673ffffffffffffffffffffffffffffffffffffffff1663fff6cae96040518163ffffffff1660e01b81526004015f604051808303815f87803b158015611c09575f80fd5b505af1158015611c1b573d5f803e3d5ffd5b50505050807f72725a3b1e5bd622d6bcd1339bb31279c351abe8f541ac7fd320f24e1b1641f2600854604051611c519190612590565b60405180910390a250505050505b565b611cba82611cb583600b5f8773ffffffffffffffffffffffffffffffffffffffff1673ffffffffffffffffffffffffffffffffffffffff1681526020019081526020015f205461185590919063ffffffff16565b6121e4565b5050565b5f8273ffffffffffffffffffffffffffffffffffffffff1660115f9054906101000a900473ffffffffffffffffffffffffffffffffffffffff1673ffffffffffffffffffffffffffffffffffffffff161480611d6657508173ffffffffffffffffffffffffffffffffffffffff1660115f9054906101000a900473ffffffffffffffffffffffffffffffffffffffff1673ffffffffffffffffffffffffffffffffffffffff16145b8015611db95750600d5f8473ffffffffffffffffffffffffffffffffffffffff1673ffffffffffffffffffffffffffffffffffffffff1681526020019081526020015f205f9054906101000a900460ff16155b905092915050565b5f80611deb600354611ddd6064866121ba90919063ffffffff16565b6121cf90919063ffffffff16565b9050611df73082611e78565b3073ffffffffffffffffffffffffffffffffffffffff168473ffffffffffffffffffffffffffffffffffffffff167fddf252ad1be2c89b69c2b068fc378daa952ba7f163c4a11628f55a4df523b3ef83604051611e549190612590565b60405180910390a3611e6f818461185590919063ffffffff16565b91505092915050565b611ed182611ecc83600b5f8773ffffffffffffffffffffffffffffffffffffffff1673ffffffffffffffffffffffffffffffffffffffff1681526020019081526020015f205461184090919063ffffffff16565b6121e4565b5050565b5f80600b5f3073ffffffffffffffffffffffffffffffffffffffff1673ffffffffffffffffffffffffffffffffffffffff1681526020019081526020015f2054118015611f315750600454600954611f2d91906128fc565b4210155b905090565b5f805f806008549050426009819055505f600b5f3073ffffffffffffffffffffffffffffffffffffffff1673ffffffffffffffffffffffffffffffffffffffff1681526020019081526020015f205490505f600b5f3073ffffffffffffffffffffffffffffffffffffffff1673ffffffffffffffffffffffffffffffffffffffff1681526020019081526020015f20819055505f5b600f8054905081101561219857600f8181548110611fec57611feb612b1c565b5b905f5260205f20015f9054906101000a900473ffffffffffffffffffffffffffffffffffffffff16955060115f9054906101000a900473ffffffffffffffffffffffffffffffffffffffff1673ffffffffffffffffffffffffffffffffffffffff168673ffffffffffffffffffffffffffffffffffffffff16148061209c57503073ffffffffffffffffffffffffffffffffffffffff168673ffffffffffffffffffffffffffffffffffffffff16145b61218b57612102836120f484600b5f8b73ffffffffffffffffffffffffffffffffffffffff1673ffffffffffffffffffffffffffffffffffffffff1681526020019081526020015f20546121cf90919063ffffffff16565b6121ba90919063ffffffff16565b9450848461211091906128fc565b93505f85111561218a576121248686611e78565b8573ffffffffffffffffffffffffffffffffffffffff163073ffffffffffffffffffffffffffffffffffffffff167fddf252ad1be2c89b69c2b068fc378daa952ba7f163c4a11628f55a4df523b3ef876040516121819190612590565b60405180910390a35b5b8080600101915050611fcb565b505f83826121a6919061292f565b90506121b23082611e78565b505050505050565b5f81836121c79190612b76565b905092915050565b5f81836121dc9190612adb565b905092915050565b6121ed82612344565b156122fe5760011515600c5f8473ffffffffffffffffffffffffffffffffffffffff1673ffffffffffffffffffffffffffffffffffffffff1681526020019081526020015f205f9054906101000a900460ff161515146122fd57600f82908060018154018082558091505060019003905f5260205f20015f9091909190916101000a81548173ffffffffffffffffffffffffffffffffffffffff021916908373ffffffffffffffffffffffffffffffffffffffff1602179055506001600c5f8473ffffffffffffffffffffffffffffffffffffffff1673ffffffffffffffffffffffffffffffffffffffff1681526020019081526020015f205f6101000a81548160ff0219169083151502179055505b5b80600b5f8473ffffffffffffffffffffffffffffffffffffffff1673ffffffffffffffffffffffffffffffffffffffff1681526020019081526020015f20819055505050565b5f3073ffffffffffffffffffffffffffffffffffffffff168273ffffffffffffffffffffffffffffffffffffffff16141580156123ce575060115f9054906101000a900473ffffffffffffffffffffffffffffffffffffffff1673ffffffffffffffffffffffffffffffffffffffff168273ffffffffffffffffffffffffffffffffffffffff1614155b9050919050565b5f81519050919050565b5f82825260208201905092915050565b5f5b8381101561240c5780820151818401526020810190506123f1565b5f8484015250505050565b5f601f19601f8301169050919050565b5f612431826123d5565b61243b81856123df565b935061244b8185602086016123ef565b61245481612417565b840191505092915050565b5f6020820190508181035f8301526124778184612427565b905092915050565b5f80fd5b5f73ffffffffffffffffffffffffffffffffffffffff82169050919050565b5f6124ac82612483565b9050919050565b6124bc816124a2565b81146124c6575f80fd5b50565b5f813590506124d7816124b3565b92915050565b5f819050919050565b6124ef816124dd565b81146124f9575f80fd5b50565b5f8135905061250a816124e6565b92915050565b5f80604083850312156125265761252561247f565b5b5f612533858286016124c9565b9250506020612544858286016124fc565b9150509250929050565b5f8115159050919050565b6125628161254e565b82525050565b5f60208201905061257b5f830184612559565b92915050565b61258a816124dd565b82525050565b5f6020820190506125a35f830184612581565b92915050565b5f805f606084860312156125c0576125bf61247f565b5b5f6125cd868287016124c9565b93505060206125de868287016124c9565b92505060406125ef868287016124fc565b9150509250925092565b5f6020828403121561260e5761260d61247f565b5b5f61261b848285016124fc565b91505092915050565b5f602082840312156126395761263861247f565b5b5f612646848285016124c9565b91505092915050565b5f60ff82169050919050565b6126648161264f565b82525050565b5f60208201905061267d5f83018461265b565b92915050565b61268c8161254e565b8114612696575f80fd5b50565b5f813590506126a781612683565b92915050565b5f80604083850312156126c3576126c261247f565b5b5f6126d0858286016124c9565b92505060206126e185828601612699565b9150509250929050565b6126f4816124a2565b82525050565b5f60208201905061270d5f8301846126eb565b92915050565b5f80604083850312156127295761272861247f565b5b5f612736858286016124c9565b9250506020612747858286016124c9565b9150509250929050565b5f602082840312156127665761276561247f565b5b5f61277384828501612699565b91505092915050565b7f4e487b71000000000000000000000000000000000000000000000000000000005f52602260045260245ffd5b5f60028204905060018216806127c057607f821691505b6020821081036127d3576127d261277c565b5b50919050565b7f6f6e6c7920636f6e747261637420616464726573732c206e6f7420616c6c6f775f8201527f6564206578746572616e6c6c79206f776e6564206163636f756e740000000000602082015250565b5f612833603b836123df565b915061283e826127d9565b604082019050919050565b5f6020820190508181035f83015261286081612827565b9050919050565b7f696e5f626c61636b6c69737400000000000000000000000000000000000000005f82015250565b5f61289b600c836123df565b91506128a682612867565b602082019050919050565b5f6020820190508181035f8301526128c88161288f565b9050919050565b7f4e487b71000000000000000000000000000000000000000000000000000000005f52601160045260245ffd5b5f612906826124dd565b9150612911836124dd565b9250828201905080821115612929576129286128cf565b5b92915050565b5f612939826124dd565b9150612944836124dd565b925082820390508181111561295c5761295b6128cf565b5b92915050565b5f8160011c9050919050565b5f808291508390505b60018511156129b757808604811115612993576129926128cf565b5b60018516156129a25780820291505b80810290506129b085612962565b9450612977565b94509492505050565b5f826129cf5760019050612a8a565b816129dc575f9050612a8a565b81600181146129f257600281146129fc57612a2b565b6001915050612a8a565b60ff841115612a0e57612a0d6128cf565b5b8360020a915084821115612a2557612a246128cf565b5b50612a8a565b5060208310610133831016604e8410600b8410161715612a605782820a905083811115612a5b57612a5a6128cf565b5b612a8a565b612a6d848484600161296e565b92509050818404811115612a8457612a836128cf565b5b81810290505b9392505050565b5f612a9b826124dd565b9150612aa68361264f565b9250612ad37fffffffffffffffffffffffffffffffffffffffffffffffffffffffffffffffff84846129c0565b905092915050565b5f612ae5826124dd565b9150612af0836124dd565b9250828202612afe816124dd565b91508282048414831517612b1557612b146128cf565b5b5092915050565b7f4e487b71000000000000000000000000000000000000000000000000000000005f52603260045260245ffd5b7f4e487b71000000000000000000000000000000000000000000000000000000005f52601260045260245ffd5b5f612b80826124dd565b9150612b8b836124dd565b925082612b9b57612b9a612b49565b5b82820490509291505056fea264697066735822122072f40169768f23e84c18200df85e8f8c59e161e6c475496a6ff5efa2a6c016b264736f6c63430008180033",
					"opcodes": "PUSH1 0x80 PUSH1 0x40 MSTORE PUSH1 0x63 PUSH1 0x3 SSTORE PUSH2 0x258 PUSH1 0x4 SSTORE PUSH0 PUSH1 0x11 PUSH1 0x14 PUSH2 0x100 EXP DUP2 SLOAD DUP2 PUSH1 0xFF MUL NOT AND SWAP1 DUP4 ISZERO ISZERO MUL OR SWAP1 SSTORE POP CALLVALUE DUP1 ISZERO PUSH3 0x35 JUMPI PUSH0 DUP1 REVERT JUMPDEST POP PUSH1 0x40 MLOAD DUP1 PUSH1 0x40 ADD PUSH1 0x40 MSTORE DUP1 PUSH1 0x4 DUP2 MSTORE PUSH1 0x20 ADD PUSH32 0x424F4D4200000000000000000000000000000000000000000000000000000000 DUP2 MSTORE POP PUSH1 0x40 MLOAD DUP1 PUSH1 0x40 ADD PUSH1 0x40 MSTORE DUP1 PUSH1 0x4 DUP2 MSTORE PUSH1 0x20 ADD PUSH32 0x424F4D4200000000000000000000000000000000000000000000000000000000 DUP2 MSTORE POP PUSH1 0x5 DUP3 PUSH0 SWAP1 DUP2 PUSH3 0xB4 SWAP2 SWAP1 PUSH3 0x533 JUMP JUMPDEST POP DUP2 PUSH1 0x1 SWAP1 DUP2 PUSH3 0xC6 SWAP2 SWAP1 PUSH3 0x533 JUMP JUMPDEST POP DUP1 PUSH1 0x2 PUSH0 PUSH2 0x100 EXP DUP2 SLOAD DUP2 PUSH1 0xFF MUL NOT AND SWAP1 DUP4 PUSH1 0xFF AND MUL OR SWAP1 SSTORE POP POP POP POP CALLER PUSH1 0x2 PUSH1 0x1 PUSH2 0x100 EXP DUP2 SLOAD DUP2 PUSH20 0xFFFFFFFFFFFFFFFFFFFFFFFFFFFFFFFFFFFFFFFF MUL NOT AND SWAP1 DUP4 PUSH20 0xFFFFFFFFFFFFFFFFFFFFFFFFFFFFFFFFFFFFFFFF AND MUL OR SWAP1 SSTORE POP PUSH1 0x5 PUSH1 0xA PUSH3 0x135 SWAP2 SWAP1 PUSH3 0x7A0 JUMP JUMPDEST PUSH3 0x4F588 PUSH3 0x145 SWAP2 SWAP1 PUSH3 0x7F0 JUMP JUMPDEST PUSH1 0x8 DUP2 SWAP1 SSTORE POP TIMESTAMP PUSH1 0x6 DUP2 SWAP1 SSTORE POP TIMESTAMP PUSH1 0x7 DUP2 SWAP1 SSTORE POP PUSH1 0x1 PUSH1 0x5 PUSH0 PUSH2 0x100 EXP DUP2 SLOAD DUP2 PUSH1 0xFF MUL NOT AND SWAP1 DUP4 ISZERO ISZERO MUL OR SWAP1 SSTORE POP PUSH1 0x1 PUSH1 0xD PUSH0 ADDRESS PUSH20 0xFFFFFFFFFFFFFFFFFFFFFFFFFFFFFFFFFFFFFFFF AND PUSH20 0xFFFFFFFFFFFFFFFFFFFFFFFFFFFFFFFFFFFFFFFF AND DUP2 MSTORE PUSH1 0x20 ADD SWAP1 DUP2 MSTORE PUSH1 0x20 ADD PUSH0 KECCAK256 PUSH0 PUSH2 0x100 EXP DUP2 SLOAD DUP2 PUSH1 0xFF MUL NOT AND SWAP1 DUP4 ISZERO ISZERO MUL OR SWAP1 SSTORE POP PUSH20 0xD7F655E3376CE2D7A2B08FF01EB3B1023191A901 PUSH1 0x10 PUSH0 PUSH2 0x100 EXP DUP2 SLOAD DUP2 PUSH20 0xFFFFFFFFFFFFFFFFFFFFFFFFFFFFFFFFFFFFFFFF MUL NOT AND SWAP1 DUP4 PUSH20 0xFFFFFFFFFFFFFFFFFFFFFFFFFFFFFFFFFFFFFFFF AND MUL OR SWAP1 SSTORE POP PUSH1 0x8 SLOAD PUSH1 0xB PUSH0 CALLER PUSH20 0xFFFFFFFFFFFFFFFFFFFFFFFFFFFFFFFFFFFFFFFF AND PUSH20 0xFFFFFFFFFFFFFFFFFFFFFFFFFFFFFFFFFFFFFFFF AND DUP2 MSTORE PUSH1 0x20 ADD SWAP1 DUP2 MSTORE PUSH1 0x20 ADD PUSH0 KECCAK256 DUP2 SWAP1 SSTORE POP CALLER PUSH20 0xFFFFFFFFFFFFFFFFFFFFFFFFFFFFFFFFFFFFFFFF AND ADDRESS PUSH20 0xFFFFFFFFFFFFFFFFFFFFFFFFFFFFFFFFFFFFFFFF AND PUSH32 0xDDF252AD1BE2C89B69C2B068FC378DAA952BA7F163C4A11628F55A4DF523B3EF PUSH1 0x8 SLOAD PUSH1 0x40 MLOAD PUSH3 0x2C1 SWAP2 SWAP1 PUSH3 0x84B JUMP JUMPDEST PUSH1 0x40 MLOAD DUP1 SWAP2 SUB SWAP1 LOG3 PUSH3 0x866 JUMP JUMPDEST PUSH0 DUP2 MLOAD SWAP1 POP SWAP2 SWAP1 POP JUMP JUMPDEST PUSH32 0x4E487B7100000000000000000000000000000000000000000000000000000000 PUSH0 MSTORE PUSH1 0x41 PUSH1 0x4 MSTORE PUSH1 0x24 PUSH0 REVERT JUMPDEST PUSH32 0x4E487B7100000000000000000000000000000000000000000000000000000000 PUSH0 MSTORE PUSH1 0x22 PUSH1 0x4 MSTORE PUSH1 0x24 PUSH0 REVERT JUMPDEST PUSH0 PUSH1 0x2 DUP3 DIV SWAP1 POP PUSH1 0x1 DUP3 AND DUP1 PUSH3 0x34B JUMPI PUSH1 0x7F DUP3 AND SWAP2 POP JUMPDEST PUSH1 0x20 DUP3 LT DUP2 SUB PUSH3 0x361 JUMPI PUSH3 0x360 PUSH3 0x306 JUMP JUMPDEST JUMPDEST POP SWAP2 SWAP1 POP JUMP JUMPDEST PUSH0 DUP2 SWAP1 POP DUP2 PUSH0 MSTORE PUSH1 0x20 PUSH0 KECCAK256 SWAP1 POP SWAP2 SWAP1 POP JUMP JUMPDEST PUSH0 PUSH1 0x20 PUSH1 0x1F DUP4 ADD DIV SWAP1 POP SWAP2 SWAP1 POP JUMP JUMPDEST PUSH0 DUP3 DUP3 SHL SWAP1 POP SWAP3 SWAP2 POP POP JUMP JUMPDEST PUSH0 PUSH1 0x8 DUP4 MUL PUSH3 0x3C5 PUSH32 0xFFFFFFFFFFFFFFFFFFFFFFFFFFFFFFFFFFFFFFFFFFFFFFFFFFFFFFFFFFFFFFFF DUP3 PUSH3 0x388 JUMP JUMPDEST PUSH3 0x3D1 DUP7 DUP4 PUSH3 0x388 JUMP JUMPDEST SWAP6 POP DUP1 NOT DUP5 AND SWAP4 POP DUP1 DUP7 AND DUP5 OR SWAP3 POP POP POP SWAP4 SWAP3 POP POP POP JUMP JUMPDEST PUSH0 DUP2 SWAP1 POP SWAP2 SWAP1 POP JUMP JUMPDEST PUSH0 DUP2 SWAP1 POP SWAP2 SWAP1 POP JUMP JUMPDEST PUSH0 PUSH3 0x41B PUSH3 0x415 PUSH3 0x40F DUP5 PUSH3 0x3E9 JUMP JUMPDEST PUSH3 0x3F2 JUMP JUMPDEST PUSH3 0x3E9 JUMP JUMPDEST SWAP1 POP SWAP2 SWAP1 POP JUMP JUMPDEST PUSH0 DUP2 SWAP1 POP SWAP2 SWAP1 POP JUMP JUMPDEST PUSH3 0x436 DUP4 PUSH3 0x3FB JUMP JUMPDEST PUSH3 0x44E PUSH3 0x445 DUP3 PUSH3 0x422 JUMP JUMPDEST DUP5 DUP5 SLOAD PUSH3 0x394 JUMP JUMPDEST DUP3 SSTORE POP POP POP POP JUMP JUMPDEST PUSH0 SWAP1 JUMP JUMPDEST PUSH3 0x464 PUSH3 0x456 JUMP JUMPDEST PUSH3 0x471 DUP2 DUP5 DUP5 PUSH3 0x42B JUMP JUMPDEST POP POP POP JUMP JUMPDEST JUMPDEST DUP2 DUP2 LT ISZERO PUSH3 0x498 JUMPI PUSH3 0x48C PUSH0 DUP3 PUSH3 0x45A JUMP JUMPDEST PUSH1 0x1 DUP2 ADD SWAP1 POP PUSH3 0x477 JUMP JUMPDEST POP POP JUMP JUMPDEST PUSH1 0x1F DUP3 GT ISZERO PUSH3 0x4E7 JUMPI PUSH3 0x4B1 DUP2 PUSH3 0x367 JUMP JUMPDEST PUSH3 0x4BC DUP5 PUSH3 0x379 JUMP JUMPDEST DUP2 ADD PUSH1 0x20 DUP6 LT ISZERO PUSH3 0x4CC JUMPI DUP2 SWAP1 POP JUMPDEST PUSH3 0x4E4 PUSH3 0x4DB DUP6 PUSH3 0x379 JUMP JUMPDEST DUP4 ADD DUP3 PUSH3 0x476 JUMP JUMPDEST POP POP JUMPDEST POP POP POP JUMP JUMPDEST PUSH0 DUP3 DUP3 SHR SWAP1 POP SWAP3 SWAP2 POP POP JUMP JUMPDEST PUSH0 PUSH3 0x509 PUSH0 NOT DUP5 PUSH1 0x8 MUL PUSH3 0x4EC JUMP JUMPDEST NOT DUP1 DUP4 AND SWAP2 POP POP SWAP3 SWAP2 POP POP JUMP JUMPDEST PUSH0 PUSH3 0x523 DUP4 DUP4 PUSH3 0x4F8 JUMP JUMPDEST SWAP2 POP DUP3 PUSH1 0x2 MUL DUP3 OR SWAP1 POP SWAP3 SWAP2 POP POP JUMP JUMPDEST PUSH3 0x53E DUP3 PUSH3 0x2CF JUMP JUMPDEST PUSH8 0xFFFFFFFFFFFFFFFF DUP2 GT ISZERO PUSH3 0x55A JUMPI PUSH3 0x559 PUSH3 0x2D9 JUMP JUMPDEST JUMPDEST PUSH3 0x566 DUP3 SLOAD PUSH3 0x333 JUMP JUMPDEST PUSH3 0x573 DUP3 DUP3 DUP6 PUSH3 0x49C JUMP JUMPDEST PUSH0 PUSH1 0x20 SWAP1 POP PUSH1 0x1F DUP4 GT PUSH1 0x1 DUP2 EQ PUSH3 0x5A9 JUMPI PUSH0 DUP5 ISZERO PUSH3 0x594 JUMPI DUP3 DUP8 ADD MLOAD SWAP1 POP JUMPDEST PUSH3 0x5A0 DUP6 DUP3 PUSH3 0x516 JUMP JUMPDEST DUP7 SSTORE POP PUSH3 0x60F JUMP JUMPDEST PUSH1 0x1F NOT DUP5 AND PUSH3 0x5B9 DUP7 PUSH3 0x367 JUMP JUMPDEST PUSH0 JUMPDEST DUP3 DUP2 LT ISZERO PUSH3 0x5E2 JUMPI DUP5 DUP10 ADD MLOAD DUP3 SSTORE PUSH1 0x1 DUP3 ADD SWAP2 POP PUSH1 0x20 DUP6 ADD SWAP5 POP PUSH1 0x20 DUP2 ADD SWAP1 POP PUSH3 0x5BB JUMP JUMPDEST DUP7 DUP4 LT ISZERO PUSH3 0x602 JUMPI DUP5 DUP10 ADD MLOAD PUSH3 0x5FE PUSH1 0x1F DUP10 AND DUP3 PUSH3 0x4F8 JUMP JUMPDEST DUP4 SSTORE POP JUMPDEST PUSH1 0x1 PUSH1 0x2 DUP9 MUL ADD DUP9 SSTORE POP POP POP JUMPDEST POP POP POP POP POP POP JUMP JUMPDEST PUSH32 0x4E487B7100000000000000000000000000000000000000000000000000000000 PUSH0 MSTORE PUSH1 0x11 PUSH1 0x4 MSTORE PUSH1 0x24 PUSH0 REVERT JUMPDEST PUSH0 DUP2 PUSH1 0x1 SHR SWAP1 POP SWAP2 SWAP1 POP JUMP JUMPDEST PUSH0 DUP1 DUP3 SWAP2 POP DUP4 SWAP1 POP JUMPDEST PUSH1 0x1 DUP6 GT ISZERO PUSH3 0x6A1 JUMPI DUP1 DUP7 DIV DUP2 GT ISZERO PUSH3 0x679 JUMPI PUSH3 0x678 PUSH3 0x617 JUMP JUMPDEST JUMPDEST PUSH1 0x1 DUP6 AND ISZERO PUSH3 0x689 JUMPI DUP1 DUP3 MUL SWAP2 POP JUMPDEST DUP1 DUP2 MUL SWAP1 POP PUSH3 0x699 DUP6 PUSH3 0x644 JUMP JUMPDEST SWAP5 POP PUSH3 0x659 JUMP JUMPDEST SWAP5 POP SWAP5 SWAP3 POP POP POP JUMP JUMPDEST PUSH0 DUP3 PUSH3 0x6BB JUMPI PUSH1 0x1 SWAP1 POP PUSH3 0x78D JUMP JUMPDEST DUP2 PUSH3 0x6CA JUMPI PUSH0 SWAP1 POP PUSH3 0x78D JUMP JUMPDEST DUP2 PUSH1 0x1 DUP2 EQ PUSH3 0x6E3 JUMPI PUSH1 0x2 DUP2 EQ PUSH3 0x6EE JUMPI PUSH3 0x724 JUMP JUMPDEST PUSH1 0x1 SWAP2 POP POP PUSH3 0x78D JUMP JUMPDEST PUSH1 0xFF DUP5 GT ISZERO PUSH3 0x703 JUMPI PUSH3 0x702 PUSH3 0x617 JUMP JUMPDEST JUMPDEST DUP4 PUSH1 0x2 EXP SWAP2 POP DUP5 DUP3 GT ISZERO PUSH3 0x71D JUMPI PUSH3 0x71C PUSH3 0x617 JUMP JUMPDEST JUMPDEST POP PUSH3 0x78D JUMP JUMPDEST POP PUSH1 0x20 DUP4 LT PUSH2 0x133 DUP4 LT AND PUSH1 0x4E DUP5 LT PUSH1 0xB DUP5 LT AND OR ISZERO PUSH3 0x75E JUMPI DUP3 DUP3 EXP SWAP1 POP DUP4 DUP2 GT ISZERO PUSH3 0x758 JUMPI PUSH3 0x757 PUSH3 0x617 JUMP JUMPDEST JUMPDEST PUSH3 0x78D JUMP JUMPDEST PUSH3 0x76D DUP5 DUP5 DUP5 PUSH1 0x1 PUSH3 0x650 JUMP JUMPDEST SWAP3 POP SWAP1 POP DUP2 DUP5 DIV DUP2 GT ISZERO PUSH3 0x787 JUMPI PUSH3 0x786 PUSH3 0x617 JUMP JUMPDEST JUMPDEST DUP2 DUP2 MUL SWAP1 POP JUMPDEST SWAP4 SWAP3 POP POP POP JUMP JUMPDEST PUSH0 PUSH1 0xFF DUP3 AND SWAP1 POP SWAP2 SWAP1 POP JUMP JUMPDEST PUSH0 PUSH3 0x7AC DUP3 PUSH3 0x3E9 JUMP JUMPDEST SWAP2 POP PUSH3 0x7B9 DUP4 PUSH3 0x794 JUMP JUMPDEST SWAP3 POP PUSH3 0x7E8 PUSH32 0xFFFFFFFFFFFFFFFFFFFFFFFFFFFFFFFFFFFFFFFFFFFFFFFFFFFFFFFFFFFFFFFF DUP5 DUP5 PUSH3 0x6AA JUMP JUMPDEST SWAP1 POP SWAP3 SWAP2 POP POP JUMP JUMPDEST PUSH0 PUSH3 0x7FC DUP3 PUSH3 0x3E9 JUMP JUMPDEST SWAP2 POP PUSH3 0x809 DUP4 PUSH3 0x3E9 JUMP JUMPDEST SWAP3 POP DUP3 DUP3 MUL PUSH3 0x819 DUP2 PUSH3 0x3E9 JUMP JUMPDEST SWAP2 POP DUP3 DUP3 DIV DUP5 EQ DUP4 ISZERO OR PUSH3 0x833 JUMPI PUSH3 0x832 PUSH3 0x617 JUMP JUMPDEST JUMPDEST POP SWAP3 SWAP2 POP POP JUMP JUMPDEST PUSH3 0x845 DUP2 PUSH3 0x3E9 JUMP JUMPDEST DUP3 MSTORE POP POP JUMP JUMPDEST PUSH0 PUSH1 0x20 DUP3 ADD SWAP1 POP PUSH3 0x860 PUSH0 DUP4 ADD DUP5 PUSH3 0x83A JUMP JUMPDEST SWAP3 SWAP2 POP POP JUMP JUMPDEST PUSH2 0x2BDC DUP1 PUSH3 0x874 PUSH0 CODECOPY PUSH0 RETURN INVALID PUSH1 0x80 PUSH1 0x40 MSTORE PUSH1 0x4 CALLDATASIZE LT PUSH2 0x1E6 JUMPI PUSH0 CALLDATALOAD PUSH1 0xE0 SHR DUP1 PUSH4 0x83B4AC68 GT PUSH2 0x101 JUMPI DUP1 PUSH4 0xA9059CBB GT PUSH2 0x94 JUMPI DUP1 PUSH4 0xD4399790 GT PUSH2 0x63 JUMPI DUP1 PUSH4 0xD4399790 EQ PUSH2 0x6D5 JUMPI DUP1 PUSH4 0xDD62ED3E EQ PUSH2 0x711 JUMPI DUP1 PUSH4 0xE15BEB80 EQ PUSH2 0x74D JUMPI DUP1 PUSH4 0xF2FDE38B EQ PUSH2 0x775 JUMPI PUSH2 0x1ED JUMP JUMPDEST DUP1 PUSH4 0xA9059CBB EQ PUSH2 0x61D JUMPI DUP1 PUSH4 0xAE06C1B7 EQ PUSH2 0x659 JUMPI DUP1 PUSH4 0xAFB9CF6D EQ PUSH2 0x681 JUMPI DUP1 PUSH4 0xC737A49B EQ PUSH2 0x6AB JUMPI PUSH2 0x1ED JUMP JUMPDEST DUP1 PUSH4 0x95D89B41 GT PUSH2 0xD0 JUMPI DUP1 PUSH4 0x95D89B41 EQ PUSH2 0x551 JUMPI DUP1 PUSH4 0x9B87676C EQ PUSH2 0x57B JUMPI DUP1 PUSH4 0xA20623CE EQ PUSH2 0x5A5 JUMPI DUP1 PUSH4 0xA457C2D7 EQ PUSH2 0x5E1 JUMPI PUSH2 0x1ED JUMP JUMPDEST DUP1 PUSH4 0x83B4AC68 EQ PUSH2 0x4AB JUMPI DUP1 PUSH4 0x854CFF2F EQ PUSH2 0x4D5 JUMPI DUP1 PUSH4 0x8DA5CB5B EQ PUSH2 0x4FD JUMPI DUP1 PUSH4 0x8F32D59B EQ PUSH2 0x527 JUMPI PUSH2 0x1ED JUMP JUMPDEST DUP1 PUSH4 0x32B75683 GT PUSH2 0x179 JUMPI DUP1 PUSH4 0x69222948 GT PUSH2 0x148 JUMPI DUP1 PUSH4 0x69222948 EQ PUSH2 0x419 JUMPI DUP1 PUSH4 0x70A08231 EQ PUSH2 0x443 JUMPI DUP1 PUSH4 0x715018A6 EQ PUSH2 0x47F JUMPI DUP1 PUSH4 0x753D02A1 EQ PUSH2 0x495 JUMPI PUSH2 0x1ED JUMP JUMPDEST DUP1 PUSH4 0x32B75683 EQ PUSH2 0x361 JUMPI DUP1 PUSH4 0x37C9BE87 EQ PUSH2 0x38B JUMPI DUP1 PUSH4 0x39509351 EQ PUSH2 0x3B3 JUMPI DUP1 PUSH4 0x3EAAF86B EQ PUSH2 0x3EF JUMPI PUSH2 0x1ED JUMP JUMPDEST DUP1 PUSH4 0x2910164A GT PUSH2 0x1B5 JUMPI DUP1 PUSH4 0x2910164A EQ PUSH2 0x2BD JUMPI DUP1 PUSH4 0x2F34D282 EQ PUSH2 0x2E5 JUMPI DUP1 PUSH4 0x313CE567 EQ PUSH2 0x30D JUMPI DUP1 PUSH4 0x31B216ED EQ PUSH2 0x337 JUMPI PUSH2 0x1ED JUMP JUMPDEST DUP1 PUSH4 0x6FDDE03 EQ PUSH2 0x1F1 JUMPI DUP1 PUSH4 0x95EA7B3 EQ PUSH2 0x21B JUMPI DUP1 PUSH4 0x18160DDD EQ PUSH2 0x257 JUMPI DUP1 PUSH4 0x23B872DD EQ PUSH2 0x281 JUMPI PUSH2 0x1ED JUMP JUMPDEST CALLDATASIZE PUSH2 0x1ED JUMPI STOP JUMPDEST PUSH0 DUP1 REVERT JUMPDEST CALLVALUE DUP1 ISZERO PUSH2 0x1FC JUMPI PUSH0 DUP1 REVERT JUMPDEST POP PUSH2 0x205 PUSH2 0x79D JUMP JUMPDEST PUSH1 0x40 MLOAD PUSH2 0x212 SWAP2 SWAP1 PUSH2 0x245F JUMP JUMPDEST PUSH1 0x40 MLOAD DUP1 SWAP2 SUB SWAP1 RETURN JUMPDEST CALLVALUE DUP1 ISZERO PUSH2 0x226 JUMPI PUSH0 DUP1 REVERT JUMPDEST POP PUSH2 0x241 PUSH1 0x4 DUP1 CALLDATASIZE SUB DUP2 ADD SWAP1 PUSH2 0x23C SWAP2 SWAP1 PUSH2 0x2510 JUMP JUMPDEST PUSH2 0x82C JUMP JUMPDEST PUSH1 0x40 MLOAD PUSH2 0x24E SWAP2 SWAP1 PUSH2 0x2568 JUMP JUMPDEST PUSH1 0x40 MLOAD DUP1 SWAP2 SUB SWAP1 RETURN JUMPDEST CALLVALUE DUP1 ISZERO PUSH2 0x262 JUMPI PUSH0 DUP1 REVERT JUMPDEST POP PUSH2 0x26B PUSH2 0x919 JUMP JUMPDEST PUSH1 0x40 MLOAD PUSH2 0x278 SWAP2 SWAP1 PUSH2 0x2590 JUMP JUMPDEST PUSH1 0x40 MLOAD DUP1 SWAP2 SUB SWAP1 RETURN JUMPDEST CALLVALUE DUP1 ISZERO PUSH2 0x28C JUMPI PUSH0 DUP1 REVERT JUMPDEST POP PUSH2 0x2A7 PUSH1 0x4 DUP1 CALLDATASIZE SUB DUP2 ADD SWAP1 PUSH2 0x2A2 SWAP2 SWAP1 PUSH2 0x25A9 JUMP JUMPDEST PUSH2 0x922 JUMP JUMPDEST PUSH1 0x40 MLOAD PUSH2 0x2B4 SWAP2 SWAP1 PUSH2 0x2568 JUMP JUMPDEST PUSH1 0x40 MLOAD DUP1 SWAP2 SUB SWAP1 RETURN JUMPDEST CALLVALUE DUP1 ISZERO PUSH2 0x2C8 JUMPI PUSH0 DUP1 REVERT JUMPDEST POP PUSH2 0x2E3 PUSH1 0x4 DUP1 CALLDATASIZE SUB DUP2 ADD SWAP1 PUSH2 0x2DE SWAP2 SWAP1 PUSH2 0x25F9 JUMP JUMPDEST PUSH2 0xB47 JUMP JUMPDEST STOP JUMPDEST CALLVALUE DUP1 ISZERO PUSH2 0x2F0 JUMPI PUSH0 DUP1 REVERT JUMPDEST POP PUSH2 0x30B PUSH1 0x4 DUP1 CALLDATASIZE SUB DUP2 ADD SWAP1 PUSH2 0x306 SWAP2 SWAP1 PUSH2 0x2624 JUMP JUMPDEST PUSH2 0xB61 JUMP JUMPDEST STOP JUMPDEST CALLVALUE DUP1 ISZERO PUSH2 0x318 JUMPI PUSH0 DUP1 REVERT JUMPDEST POP PUSH2 0x321 PUSH2 0xBB4 JUMP JUMPDEST PUSH1 0x40 MLOAD PUSH2 0x32E SWAP2 SWAP1 PUSH2 0x266A JUMP JUMPDEST PUSH1 0x40 MLOAD DUP1 SWAP2 SUB SWAP1 RETURN JUMPDEST CALLVALUE DUP1 ISZERO PUSH2 0x342 JUMPI PUSH0 DUP1 REVERT JUMPDEST POP PUSH2 0x34B PUSH2 0xBC9 JUMP JUMPDEST PUSH1 0x40 MLOAD PUSH2 0x358 SWAP2 SWAP1 PUSH2 0x2568 JUMP JUMPDEST PUSH1 0x40 MLOAD DUP1 SWAP2 SUB SWAP1 RETURN JUMPDEST CALLVALUE DUP1 ISZERO PUSH2 0x36C JUMPI PUSH0 DUP1 REVERT JUMPDEST POP PUSH2 0x375 PUSH2 0xBDB JUMP JUMPDEST PUSH1 0x40 MLOAD PUSH2 0x382 SWAP2 SWAP1 PUSH2 0x2590 JUMP JUMPDEST PUSH1 0x40 MLOAD DUP1 SWAP2 SUB SWAP1 RETURN JUMPDEST CALLVALUE DUP1 ISZERO PUSH2 0x396 JUMPI PUSH0 DUP1 REVERT JUMPDEST POP PUSH2 0x3B1 PUSH1 0x4 DUP1 CALLDATASIZE SUB DUP2 ADD SWAP1 PUSH2 0x3AC SWAP2 SWAP1 PUSH2 0x26AD JUMP JUMPDEST PUSH2 0xBE1 JUMP JUMPDEST STOP JUMPDEST CALLVALUE DUP1 ISZERO PUSH2 0x3BE JUMPI PUSH0 DUP1 REVERT JUMPDEST POP PUSH2 0x3D9 PUSH1 0x4 DUP1 CALLDATASIZE SUB DUP2 ADD SWAP1 PUSH2 0x3D4 SWAP2 SWAP1 PUSH2 0x2510 JUMP JUMPDEST PUSH2 0xC91 JUMP JUMPDEST PUSH1 0x40 MLOAD PUSH2 0x3E6 SWAP2 SWAP1 PUSH2 0x2568 JUMP JUMPDEST PUSH1 0x40 MLOAD DUP1 SWAP2 SUB SWAP1 RETURN JUMPDEST CALLVALUE DUP1 ISZERO PUSH2 0x3FA JUMPI PUSH0 DUP1 REVERT JUMPDEST POP PUSH2 0x403 PUSH2 0xE80 JUMP JUMPDEST PUSH1 0x40 MLOAD PUSH2 0x410 SWAP2 SWAP1 PUSH2 0x2590 JUMP JUMPDEST PUSH1 0x40 MLOAD DUP1 SWAP2 SUB SWAP1 RETURN JUMPDEST CALLVALUE DUP1 ISZERO PUSH2 0x424 JUMPI PUSH0 DUP1 REVERT JUMPDEST POP PUSH2 0x42D PUSH2 0xE86 JUMP JUMPDEST PUSH1 0x40 MLOAD PUSH2 0x43A SWAP2 SWAP1 PUSH2 0x2590 JUMP JUMPDEST PUSH1 0x40 MLOAD DUP1 SWAP2 SUB SWAP1 RETURN JUMPDEST CALLVALUE DUP1 ISZERO PUSH2 0x44E JUMPI PUSH0 DUP1 REVERT JUMPDEST POP PUSH2 0x469 PUSH1 0x4 DUP1 CALLDATASIZE SUB DUP2 ADD SWAP1 PUSH2 0x464 SWAP2 SWAP1 PUSH2 0x2624 JUMP JUMPDEST PUSH2 0xE8C JUMP JUMPDEST PUSH1 0x40 MLOAD PUSH2 0x476 SWAP2 SWAP1 PUSH2 0x2590 JUMP JUMPDEST PUSH1 0x40 MLOAD DUP1 SWAP2 SUB SWAP1 RETURN JUMPDEST CALLVALUE DUP1 ISZERO PUSH2 0x48A JUMPI PUSH0 DUP1 REVERT JUMPDEST POP PUSH2 0x493 PUSH2 0xED2 JUMP JUMPDEST STOP JUMPDEST CALLVALUE DUP1 ISZERO PUSH2 0x4A0 JUMPI PUSH0 DUP1 REVERT JUMPDEST POP PUSH2 0x4A9 PUSH2 0xF8A JUMP JUMPDEST STOP JUMPDEST CALLVALUE DUP1 ISZERO PUSH2 0x4B6 JUMPI PUSH0 DUP1 REVERT JUMPDEST POP PUSH2 0x4BF PUSH2 0x1008 JUMP JUMPDEST PUSH1 0x40 MLOAD PUSH2 0x4CC SWAP2 SWAP1 PUSH2 0x2568 JUMP JUMPDEST PUSH1 0x40 MLOAD DUP1 SWAP2 SUB SWAP1 RETURN JUMPDEST CALLVALUE DUP1 ISZERO PUSH2 0x4E0 JUMPI PUSH0 DUP1 REVERT JUMPDEST POP PUSH2 0x4FB PUSH1 0x4 DUP1 CALLDATASIZE SUB DUP2 ADD SWAP1 PUSH2 0x4F6 SWAP2 SWAP1 PUSH2 0x2624 JUMP JUMPDEST PUSH2 0x101F JUMP JUMPDEST STOP JUMPDEST CALLVALUE DUP1 ISZERO PUSH2 0x508 JUMPI PUSH0 DUP1 REVERT JUMPDEST POP PUSH2 0x511 PUSH2 0x1087 JUMP JUMPDEST PUSH1 0x40 MLOAD PUSH2 0x51E SWAP2 SWAP1 PUSH2 0x26FA JUMP JUMPDEST PUSH1 0x40 MLOAD DUP1 SWAP2 SUB SWAP1 RETURN JUMPDEST CALLVALUE DUP1 ISZERO PUSH2 0x532 JUMPI PUSH0 DUP1 REVERT JUMPDEST POP PUSH2 0x53B PUSH2 0x10B0 JUMP JUMPDEST PUSH1 0x40 MLOAD PUSH2 0x548 SWAP2 SWAP1 PUSH2 0x2568 JUMP JUMPDEST PUSH1 0x40 MLOAD DUP1 SWAP2 SUB SWAP1 RETURN JUMPDEST CALLVALUE DUP1 ISZERO PUSH2 0x55C JUMPI PUSH0 DUP1 REVERT JUMPDEST POP PUSH2 0x565 PUSH2 0x1107 JUMP JUMPDEST PUSH1 0x40 MLOAD PUSH2 0x572 SWAP2 SWAP1 PUSH2 0x245F JUMP JUMPDEST PUSH1 0x40 MLOAD DUP1 SWAP2 SUB SWAP1 RETURN JUMPDEST CALLVALUE DUP1 ISZERO PUSH2 0x586 JUMPI PUSH0 DUP1 REVERT JUMPDEST POP PUSH2 0x58F PUSH2 0x1197 JUMP JUMPDEST PUSH1 0x40 MLOAD PUSH2 0x59C SWAP2 SWAP1 PUSH2 0x2590 JUMP JUMPDEST PUSH1 0x40 MLOAD DUP1 SWAP2 SUB SWAP1 RETURN JUMPDEST CALLVALUE DUP1 ISZERO PUSH2 0x5B0 JUMPI PUSH0 DUP1 REVERT JUMPDEST POP PUSH2 0x5CB PUSH1 0x4 DUP1 CALLDATASIZE SUB DUP2 ADD SWAP1 PUSH2 0x5C6 SWAP2 SWAP1 PUSH2 0x2624 JUMP JUMPDEST PUSH2 0x119D JUMP JUMPDEST PUSH1 0x40 MLOAD PUSH2 0x5D8 SWAP2 SWAP1 PUSH2 0x2568 JUMP JUMPDEST PUSH1 0x40 MLOAD DUP1 SWAP2 SUB SWAP1 RETURN JUMPDEST CALLVALUE DUP1 ISZERO PUSH2 0x5EC JUMPI PUSH0 DUP1 REVERT JUMPDEST POP PUSH2 0x607 PUSH1 0x4 DUP1 CALLDATASIZE SUB DUP2 ADD SWAP1 PUSH2 0x602 SWAP2 SWAP1 PUSH2 0x2510 JUMP JUMPDEST PUSH2 0x11BA JUMP JUMPDEST PUSH1 0x40 MLOAD PUSH2 0x614 SWAP2 SWAP1 PUSH2 0x2568 JUMP JUMPDEST PUSH1 0x40 MLOAD DUP1 SWAP2 SUB SWAP1 RETURN JUMPDEST CALLVALUE DUP1 ISZERO PUSH2 0x628 JUMPI PUSH0 DUP1 REVERT JUMPDEST POP PUSH2 0x643 PUSH1 0x4 DUP1 CALLDATASIZE SUB DUP2 ADD SWAP1 PUSH2 0x63E SWAP2 SWAP1 PUSH2 0x2510 JUMP JUMPDEST PUSH2 0x1438 JUMP JUMPDEST PUSH1 0x40 MLOAD PUSH2 0x650 SWAP2 SWAP1 PUSH2 0x2568 JUMP JUMPDEST PUSH1 0x40 MLOAD DUP1 SWAP2 SUB SWAP1 RETURN JUMPDEST CALLVALUE DUP1 ISZERO PUSH2 0x664 JUMPI PUSH0 DUP1 REVERT JUMPDEST POP PUSH2 0x67F PUSH1 0x4 DUP1 CALLDATASIZE SUB DUP2 ADD SWAP1 PUSH2 0x67A SWAP2 SWAP1 PUSH2 0x25F9 JUMP JUMPDEST PUSH2 0x1488 JUMP JUMPDEST STOP JUMPDEST CALLVALUE DUP1 ISZERO PUSH2 0x68C JUMPI PUSH0 DUP1 REVERT JUMPDEST POP PUSH2 0x695 PUSH2 0x14A2 JUMP JUMPDEST PUSH1 0x40 MLOAD PUSH2 0x6A2 SWAP2 SWAP1 PUSH2 0x2568 JUMP JUMPDEST PUSH1 0x40 MLOAD DUP1 SWAP2 SUB SWAP1 RETURN JUMPDEST CALLVALUE DUP1 ISZERO PUSH2 0x6B6 JUMPI PUSH0 DUP1 REVERT JUMPDEST POP PUSH2 0x6BF PUSH2 0x14B4 JUMP JUMPDEST PUSH1 0x40 MLOAD PUSH2 0x6CC SWAP2 SWAP1 PUSH2 0x2590 JUMP JUMPDEST PUSH1 0x40 MLOAD DUP1 SWAP2 SUB SWAP1 RETURN JUMPDEST CALLVALUE DUP1 ISZERO PUSH2 0x6E0 JUMPI PUSH0 DUP1 REVERT JUMPDEST POP PUSH2 0x6FB PUSH1 0x4 DUP1 CALLDATASIZE SUB DUP2 ADD SWAP1 PUSH2 0x6F6 SWAP2 SWAP1 PUSH2 0x2624 JUMP JUMPDEST PUSH2 0x14BA JUMP JUMPDEST PUSH1 0x40 MLOAD PUSH2 0x708 SWAP2 SWAP1 PUSH2 0x2568 JUMP JUMPDEST PUSH1 0x40 MLOAD DUP1 SWAP2 SUB SWAP1 RETURN JUMPDEST CALLVALUE DUP1 ISZERO PUSH2 0x71C JUMPI PUSH0 DUP1 REVERT JUMPDEST POP PUSH2 0x737 PUSH1 0x4 DUP1 CALLDATASIZE SUB DUP2 ADD SWAP1 PUSH2 0x732 SWAP2 SWAP1 PUSH2 0x2713 JUMP JUMPDEST PUSH2 0x150C JUMP JUMPDEST PUSH1 0x40 MLOAD PUSH2 0x744 SWAP2 SWAP1 PUSH2 0x2590 JUMP JUMPDEST PUSH1 0x40 MLOAD DUP1 SWAP2 SUB SWAP1 RETURN JUMPDEST CALLVALUE DUP1 ISZERO PUSH2 0x758 JUMPI PUSH0 DUP1 REVERT JUMPDEST POP PUSH2 0x773 PUSH1 0x4 DUP1 CALLDATASIZE SUB DUP2 ADD SWAP1 PUSH2 0x76E SWAP2 SWAP1 PUSH2 0x2751 JUMP JUMPDEST PUSH2 0x158E JUMP JUMPDEST STOP JUMPDEST CALLVALUE DUP1 ISZERO PUSH2 0x780 JUMPI PUSH0 DUP1 REVERT JUMPDEST POP PUSH2 0x79B PUSH1 0x4 DUP1 CALLDATASIZE SUB DUP2 ADD SWAP1 PUSH2 0x796 SWAP2 SWAP1 PUSH2 0x2624 JUMP JUMPDEST PUSH2 0x15E6 JUMP JUMPDEST STOP JUMPDEST PUSH1 0x60 PUSH0 DUP1 SLOAD PUSH2 0x7AB SWAP1 PUSH2 0x27A9 JUMP JUMPDEST DUP1 PUSH1 0x1F ADD PUSH1 0x20 DUP1 SWAP2 DIV MUL PUSH1 0x20 ADD PUSH1 0x40 MLOAD SWAP1 DUP2 ADD PUSH1 0x40 MSTORE DUP1 SWAP3 SWAP2 SWAP1 DUP2 DUP2 MSTORE PUSH1 0x20 ADD DUP3 DUP1 SLOAD PUSH2 0x7D7 SWAP1 PUSH2 0x27A9 JUMP JUMPDEST DUP1 ISZERO PUSH2 0x822 JUMPI DUP1 PUSH1 0x1F LT PUSH2 0x7F9 JUMPI PUSH2 0x100 DUP1 DUP4 SLOAD DIV MUL DUP4 MSTORE SWAP2 PUSH1 0x20 ADD SWAP2 PUSH2 0x822 JUMP JUMPDEST DUP3 ADD SWAP2 SWAP1 PUSH0 MSTORE PUSH1 0x20 PUSH0 KECCAK256 SWAP1 JUMPDEST DUP2 SLOAD DUP2 MSTORE SWAP1 PUSH1 0x1 ADD SWAP1 PUSH1 0x20 ADD DUP1 DUP4 GT PUSH2 0x805 JUMPI DUP3 SWAP1 SUB PUSH1 0x1F AND DUP3 ADD SWAP2 JUMPDEST POP POP POP POP POP SWAP1 POP SWAP1 JUMP JUMPDEST PUSH0 DUP2 PUSH1 0x12 PUSH0 CALLER PUSH20 0xFFFFFFFFFFFFFFFFFFFFFFFFFFFFFFFFFFFFFFFF AND PUSH20 0xFFFFFFFFFFFFFFFFFFFFFFFFFFFFFFFFFFFFFFFF AND DUP2 MSTORE PUSH1 0x20 ADD SWAP1 DUP2 MSTORE PUSH1 0x20 ADD PUSH0 KECCAK256 PUSH0 DUP6 PUSH20 0xFFFFFFFFFFFFFFFFFFFFFFFFFFFFFFFFFFFFFFFF AND PUSH20 0xFFFFFFFFFFFFFFFFFFFFFFFFFFFFFFFFFFFFFFFF AND DUP2 MSTORE PUSH1 0x20 ADD SWAP1 DUP2 MSTORE PUSH1 0x20 ADD PUSH0 KECCAK256 DUP2 SWAP1 SSTORE POP DUP3 PUSH20 0xFFFFFFFFFFFFFFFFFFFFFFFFFFFFFFFFFFFFFFFF AND CALLER PUSH20 0xFFFFFFFFFFFFFFFFFFFFFFFFFFFFFFFFFFFFFFFF AND PUSH32 0x8C5BE1E5EBEC7D5BD14F71427D1E84F3DD0314C0F7B2291E5B200AC8C7C3B925 DUP5 PUSH1 0x40 MLOAD PUSH2 0x907 SWAP2 SWAP1 PUSH2 0x2590 JUMP JUMPDEST PUSH1 0x40 MLOAD DUP1 SWAP2 SUB SWAP1 LOG3 PUSH1 0x1 SWAP1 POP SWAP3 SWAP2 POP POP JUMP JUMPDEST PUSH0 PUSH1 0x8 SLOAD SWAP1 POP SWAP1 JUMP JUMPDEST PUSH0 DUP3 PUSH0 PUSH20 0xFFFFFFFFFFFFFFFFFFFFFFFFFFFFFFFFFFFFFFFF AND DUP2 PUSH20 0xFFFFFFFFFFFFFFFFFFFFFFFFFFFFFFFFFFFFFFFF AND SUB PUSH2 0x95B JUMPI PUSH0 DUP1 REVERT JUMPDEST ADDRESS PUSH20 0xFFFFFFFFFFFFFFFFFFFFFFFFFFFFFFFFFFFFFFFF AND DUP6 PUSH20 0xFFFFFFFFFFFFFFFFFFFFFFFFFFFFFFFFFFFFFFFF AND EQ DUP1 ISZERO PUSH2 0x9E2 JUMPI POP PUSH1 0x10 PUSH0 SWAP1 SLOAD SWAP1 PUSH2 0x100 EXP SWAP1 DIV PUSH20 0xFFFFFFFFFFFFFFFFFFFFFFFFFFFFFFFFFFFFFFFF AND PUSH20 0xFFFFFFFFFFFFFFFFFFFFFFFFFFFFFFFFFFFFFFFF AND DUP5 PUSH20 0xFFFFFFFFFFFFFFFFFFFFFFFFFFFFFFFFFFFFFFFF AND EQ JUMPDEST ISZERO PUSH2 0x9F0 JUMPI PUSH1 0x1 SWAP2 POP PUSH2 0xB3F JUMP JUMPDEST PUSH2 0xAB2 DUP4 PUSH1 0x40 MLOAD DUP1 PUSH1 0x40 ADD PUSH1 0x40 MSTORE DUP1 PUSH1 0x16 DUP2 MSTORE PUSH1 0x20 ADD PUSH32 0x496E73756666696369656E7420416C6C6F77616E636500000000000000000000 DUP2 MSTORE POP PUSH1 0x12 PUSH0 DUP10 PUSH20 0xFFFFFFFFFFFFFFFFFFFFFFFFFFFFFFFFFFFFFFFF AND PUSH20 0xFFFFFFFFFFFFFFFFFFFFFFFFFFFFFFFFFFFFFFFF AND DUP2 MSTORE PUSH1 0x20 ADD SWAP1 DUP2 MSTORE PUSH1 0x20 ADD PUSH0 KECCAK256 PUSH0 CALLER PUSH20 0xFFFFFFFFFFFFFFFFFFFFFFFFFFFFFFFFFFFFFFFF AND PUSH20 0xFFFFFFFFFFFFFFFFFFFFFFFFFFFFFFFFFFFFFFFF AND DUP2 MSTORE PUSH1 0x20 ADD SWAP1 DUP2 MSTORE PUSH1 0x20 ADD PUSH0 KECCAK256 SLOAD PUSH2 0x1602 SWAP1 SWAP3 SWAP2 SWAP1 PUSH4 0xFFFFFFFF AND JUMP JUMPDEST PUSH1 0x12 PUSH0 DUP8 PUSH20 0xFFFFFFFFFFFFFFFFFFFFFFFFFFFFFFFFFFFFFFFF AND PUSH20 0xFFFFFFFFFFFFFFFFFFFFFFFFFFFFFFFFFFFFFFFF AND DUP2 MSTORE PUSH1 0x20 ADD SWAP1 DUP2 MSTORE PUSH1 0x20 ADD PUSH0 KECCAK256 PUSH0 CALLER PUSH20 0xFFFFFFFFFFFFFFFFFFFFFFFFFFFFFFFFFFFFFFFF AND PUSH20 0xFFFFFFFFFFFFFFFFFFFFFFFFFFFFFFFFFFFFFFFF AND DUP2 MSTORE PUSH1 0x20 ADD SWAP1 DUP2 MSTORE PUSH1 0x20 ADD PUSH0 KECCAK256 DUP2 SWAP1 SSTORE POP PUSH2 0xB39 DUP6 DUP6 DUP6 PUSH2 0x1656 JUMP JUMPDEST POP PUSH1 0x1 SWAP2 POP JUMPDEST POP SWAP4 SWAP3 POP POP POP JUMP JUMPDEST PUSH2 0xB4F PUSH2 0x10B0 JUMP JUMPDEST PUSH2 0xB57 JUMPI PUSH0 DUP1 REVERT JUMPDEST DUP1 PUSH1 0x4 DUP2 SWAP1 SSTORE POP POP JUMP JUMPDEST PUSH2 0xB69 PUSH2 0x10B0 JUMP JUMPDEST PUSH2 0xB71 JUMPI PUSH0 DUP1 REVERT JUMPDEST DUP1 PUSH1 0x11 PUSH0 PUSH2 0x100 EXP DUP2 SLOAD DUP2 PUSH20 0xFFFFFFFFFFFFFFFFFFFFFFFFFFFFFFFFFFFFFFFF MUL NOT AND SWAP1 DUP4 PUSH20 0xFFFFFFFFFFFFFFFFFFFFFFFFFFFFFFFFFFFFFFFF AND MUL OR SWAP1 SSTORE POP POP JUMP JUMPDEST PUSH0 PUSH1 0x2 PUSH0 SWAP1 SLOAD SWAP1 PUSH2 0x100 EXP SWAP1 DIV PUSH1 0xFF AND SWAP1 POP SWAP1 JUMP JUMPDEST PUSH1 0xA PUSH0 SWAP1 SLOAD SWAP1 PUSH2 0x100 EXP SWAP1 DIV PUSH1 0xFF AND DUP2 JUMP JUMPDEST PUSH1 0x7 SLOAD DUP2 JUMP JUMPDEST PUSH2 0xBE9 PUSH2 0x10B0 JUMP JUMPDEST PUSH2 0xBF1 JUMPI PUSH0 DUP1 REVERT JUMPDEST PUSH2 0xBFA DUP3 PUSH2 0x182F JUMP JUMPDEST PUSH2 0xC39 JUMPI PUSH1 0x40 MLOAD PUSH32 0x8C379A000000000000000000000000000000000000000000000000000000000 DUP2 MSTORE PUSH1 0x4 ADD PUSH2 0xC30 SWAP1 PUSH2 0x2849 JUMP JUMPDEST PUSH1 0x40 MLOAD DUP1 SWAP2 SUB SWAP1 REVERT JUMPDEST DUP1 PUSH1 0xE PUSH0 DUP5 PUSH20 0xFFFFFFFFFFFFFFFFFFFFFFFFFFFFFFFFFFFFFFFF AND PUSH20 0xFFFFFFFFFFFFFFFFFFFFFFFFFFFFFFFFFFFFFFFF AND DUP2 MSTORE PUSH1 0x20 ADD SWAP1 DUP2 MSTORE PUSH1 0x20 ADD PUSH0 KECCAK256 PUSH0 PUSH2 0x100 EXP DUP2 SLOAD DUP2 PUSH1 0xFF MUL NOT AND SWAP1 DUP4 ISZERO ISZERO MUL OR SWAP1 SSTORE POP POP POP JUMP JUMPDEST PUSH0 PUSH2 0xD1D DUP3 PUSH1 0x12 PUSH0 CALLER PUSH20 0xFFFFFFFFFFFFFFFFFFFFFFFFFFFFFFFFFFFFFFFF AND PUSH20 0xFFFFFFFFFFFFFFFFFFFFFFFFFFFFFFFFFFFFFFFF AND DUP2 MSTORE PUSH1 0x20 ADD SWAP1 DUP2 MSTORE PUSH1 0x20 ADD PUSH0 KECCAK256 PUSH0 DUP7 PUSH20 0xFFFFFFFFFFFFFFFFFFFFFFFFFFFFFFFFFFFFFFFF AND PUSH20 0xFFFFFFFFFFFFFFFFFFFFFFFFFFFFFFFFFFFFFFFF AND DUP2 MSTORE PUSH1 0x20 ADD SWAP1 DUP2 MSTORE PUSH1 0x20 ADD PUSH0 KECCAK256 SLOAD PUSH2 0x1840 SWAP1 SWAP2 SWAP1 PUSH4 0xFFFFFFFF AND JUMP JUMPDEST PUSH1 0x12 PUSH0 CALLER PUSH20 0xFFFFFFFFFFFFFFFFFFFFFFFFFFFFFFFFFFFFFFFF AND PUSH20 0xFFFFFFFFFFFFFFFFFFFFFFFFFFFFFFFFFFFFFFFF AND DUP2 MSTORE PUSH1 0x20 ADD SWAP1 DUP2 MSTORE PUSH1 0x20 ADD PUSH0 KECCAK256 PUSH0 DUP6 PUSH20 0xFFFFFFFFFFFFFFFFFFFFFFFFFFFFFFFFFFFFFFFF AND PUSH20 0xFFFFFFFFFFFFFFFFFFFFFFFFFFFFFFFFFFFFFFFF AND DUP2 MSTORE PUSH1 0x20 ADD SWAP1 DUP2 MSTORE PUSH1 0x20 ADD PUSH0 KECCAK256 DUP2 SWAP1 SSTORE POP DUP3 PUSH20 0xFFFFFFFFFFFFFFFFFFFFFFFFFFFFFFFFFFFFFFFF AND CALLER PUSH20 0xFFFFFFFFFFFFFFFFFFFFFFFFFFFFFFFFFFFFFFFF AND PUSH32 0x8C5BE1E5EBEC7D5BD14F71427D1E84F3DD0314C0F7B2291E5B200AC8C7C3B925 PUSH1 0x12 PUSH0 CALLER PUSH20 0xFFFFFFFFFFFFFFFFFFFFFFFFFFFFFFFFFFFFFFFF AND PUSH20 0xFFFFFFFFFFFFFFFFFFFFFFFFFFFFFFFFFFFFFFFF AND DUP2 MSTORE PUSH1 0x20 ADD SWAP1 DUP2 MSTORE PUSH1 0x20 ADD PUSH0 KECCAK256 PUSH0 DUP8 PUSH20 0xFFFFFFFFFFFFFFFFFFFFFFFFFFFFFFFFFFFFFFFF AND PUSH20 0xFFFFFFFFFFFFFFFFFFFFFFFFFFFFFFFFFFFFFFFF AND DUP2 MSTORE PUSH1 0x20 ADD SWAP1 DUP2 MSTORE PUSH1 0x20 ADD PUSH0 KECCAK256 SLOAD PUSH1 0x40 MLOAD PUSH2 0xE6E SWAP2 SWAP1 PUSH2 0x2590 JUMP JUMPDEST PUSH1 0x40 MLOAD DUP1 SWAP2 SUB SWAP1 LOG3 PUSH1 0x1 SWAP1 POP SWAP3 SWAP2 POP POP JUMP JUMPDEST PUSH1 0x8 SLOAD DUP2 JUMP JUMPDEST PUSH1 0x3 SLOAD DUP2 JUMP JUMPDEST PUSH0 PUSH1 0xB PUSH0 DUP4 PUSH20 0xFFFFFFFFFFFFFFFFFFFFFFFFFFFFFFFFFFFFFFFF AND PUSH20 0xFFFFFFFFFFFFFFFFFFFFFFFFFFFFFFFFFFFFFFFF AND DUP2 MSTORE PUSH1 0x20 ADD SWAP1 DUP2 MSTORE PUSH1 0x20 ADD PUSH0 KECCAK256 SLOAD SWAP1 POP SWAP2 SWAP1 POP JUMP JUMPDEST PUSH2 0xEDA PUSH2 0x10B0 JUMP JUMPDEST PUSH2 0xEE2 JUMPI PUSH0 DUP1 REVERT JUMPDEST PUSH1 0x2 PUSH1 0x1 SWAP1 SLOAD SWAP1 PUSH2 0x100 EXP SWAP1 DIV PUSH20 0xFFFFFFFFFFFFFFFFFFFFFFFFFFFFFFFFFFFFFFFF AND PUSH20 0xFFFFFFFFFFFFFFFFFFFFFFFFFFFFFFFFFFFFFFFF AND PUSH32 0xF8DF31144D9C2F0F6B59D69B8B98ABD5459D07F2742C4DF920B25AAE33C64820 PUSH1 0x40 MLOAD PUSH1 0x40 MLOAD DUP1 SWAP2 SUB SWAP1 LOG2 PUSH0 PUSH1 0x2 PUSH1 0x1 PUSH2 0x100 EXP DUP2 SLOAD DUP2 PUSH20 0xFFFFFFFFFFFFFFFFFFFFFFFFFFFFFFFFFFFFFFFF MUL NOT AND SWAP1 DUP4 PUSH20 0xFFFFFFFFFFFFFFFFFFFFFFFFFFFFFFFFFFFFFFFF AND MUL OR SWAP1 SSTORE POP JUMP JUMPDEST PUSH1 0x11 PUSH0 SWAP1 SLOAD SWAP1 PUSH2 0x100 EXP SWAP1 DIV PUSH20 0xFFFFFFFFFFFFFFFFFFFFFFFFFFFFFFFFFFFFFFFF AND PUSH20 0xFFFFFFFFFFFFFFFFFFFFFFFFFFFFFFFFFFFFFFFF AND PUSH4 0xFFF6CAE9 PUSH1 0x40 MLOAD DUP2 PUSH4 0xFFFFFFFF AND PUSH1 0xE0 SHL DUP2 MSTORE PUSH1 0x4 ADD PUSH0 PUSH1 0x40 MLOAD DUP1 DUP4 SUB DUP2 PUSH0 DUP8 DUP1 EXTCODESIZE ISZERO DUP1 ISZERO PUSH2 0xFF0 JUMPI PUSH0 DUP1 REVERT JUMPDEST POP GAS CALL ISZERO DUP1 ISZERO PUSH2 0x1002 JUMPI RETURNDATASIZE PUSH0 DUP1 RETURNDATACOPY RETURNDATASIZE PUSH0 REVERT JUMPDEST POP POP POP POP JUMP JUMPDEST PUSH0 PUSH1 0x11 PUSH1 0x14 SWAP1 SLOAD SWAP1 PUSH2 0x100 EXP SWAP1 DIV PUSH1 0xFF AND ISZERO SWAP1 POP SWAP1 JUMP JUMPDEST PUSH2 0x1027 PUSH2 0x10B0 JUMP JUMPDEST PUSH2 0x102F JUMPI PUSH0 DUP1 REVERT JUMPDEST PUSH1 0x1 PUSH1 0xD PUSH0 DUP4 PUSH20 0xFFFFFFFFFFFFFFFFFFFFFFFFFFFFFFFFFFFFFFFF AND PUSH20 0xFFFFFFFFFFFFFFFFFFFFFFFFFFFFFFFFFFFFFFFF AND DUP2 MSTORE PUSH1 0x20 ADD SWAP1 DUP2 MSTORE PUSH1 0x20 ADD PUSH0 KECCAK256 PUSH0 PUSH2 0x100 EXP DUP2 SLOAD DUP2 PUSH1 0xFF MUL NOT AND SWAP1 DUP4 ISZERO ISZERO MUL OR SWAP1 SSTORE POP POP JUMP JUMPDEST PUSH0 PUSH1 0x2 PUSH1 0x1 SWAP1 SLOAD SWAP1 PUSH2 0x100 EXP SWAP1 DIV PUSH20 0xFFFFFFFFFFFFFFFFFFFFFFFFFFFFFFFFFFFFFFFF AND SWAP1 POP SWAP1 JUMP JUMPDEST PUSH0 PUSH1 0x2 PUSH1 0x1 SWAP1 SLOAD SWAP1 PUSH2 0x100 EXP SWAP1 DIV PUSH20 0xFFFFFFFFFFFFFFFFFFFFFFFFFFFFFFFFFFFFFFFF AND PUSH20 0xFFFFFFFFFFFFFFFFFFFFFFFFFFFFFFFFFFFFFFFF AND CALLER PUSH20 0xFFFFFFFFFFFFFFFFFFFFFFFFFFFFFFFFFFFFFFFF AND EQ SWAP1 POP SWAP1 JUMP JUMPDEST PUSH1 0x60 PUSH1 0x1 DUP1 SLOAD PUSH2 0x1116 SWAP1 PUSH2 0x27A9 JUMP JUMPDEST DUP1 PUSH1 0x1F ADD PUSH1 0x20 DUP1 SWAP2 DIV MUL PUSH1 0x20 ADD PUSH1 0x40 MLOAD SWAP1 DUP2 ADD PUSH1 0x40 MSTORE DUP1 SWAP3 SWAP2 SWAP1 DUP2 DUP2 MSTORE PUSH1 0x20 ADD DUP3 DUP1 SLOAD PUSH2 0x1142 SWAP1 PUSH2 0x27A9 JUMP JUMPDEST DUP1 ISZERO PUSH2 0x118D JUMPI DUP1 PUSH1 0x1F LT PUSH2 0x1164 JUMPI PUSH2 0x100 DUP1 DUP4 SLOAD DIV MUL DUP4 MSTORE SWAP2 PUSH1 0x20 ADD SWAP2 PUSH2 0x118D JUMP JUMPDEST DUP3 ADD SWAP2 SWAP1 PUSH0 MSTORE PUSH1 0x20 PUSH0 KECCAK256 SWAP1 JUMPDEST DUP2 SLOAD DUP2 MSTORE SWAP1 PUSH1 0x1 ADD SWAP1 PUSH1 0x20 ADD DUP1 DUP4 GT PUSH2 0x1170 JUMPI DUP3 SWAP1 SUB PUSH1 0x1F AND DUP3 ADD SWAP2 JUMPDEST POP POP POP POP POP SWAP1 POP SWAP1 JUMP JUMPDEST PUSH1 0x6 SLOAD DUP2 JUMP JUMPDEST PUSH1 0xE PUSH1 0x20 MSTORE DUP1 PUSH0 MSTORE PUSH1 0x40 PUSH0 KECCAK256 PUSH0 SWAP2 POP SLOAD SWAP1 PUSH2 0x100 EXP SWAP1 DIV PUSH1 0xFF AND DUP2 JUMP JUMPDEST PUSH0 DUP1 PUSH1 0x12 PUSH0 CALLER PUSH20 0xFFFFFFFFFFFFFFFFFFFFFFFFFFFFFFFFFFFFFFFF AND PUSH20 0xFFFFFFFFFFFFFFFFFFFFFFFFFFFFFFFFFFFFFFFF AND DUP2 MSTORE PUSH1 0x20 ADD SWAP1 DUP2 MSTORE PUSH1 0x20 ADD PUSH0 KECCAK256 PUSH0 DUP6 PUSH20 0xFFFFFFFFFFFFFFFFFFFFFFFFFFFFFFFFFFFFFFFF AND PUSH20 0xFFFFFFFFFFFFFFFFFFFFFFFFFFFFFFFFFFFFFFFF AND DUP2 MSTORE PUSH1 0x20 ADD SWAP1 DUP2 MSTORE PUSH1 0x20 ADD PUSH0 KECCAK256 SLOAD SWAP1 POP DUP1 DUP4 LT PUSH2 0x12C0 JUMPI PUSH0 PUSH1 0x12 PUSH0 CALLER PUSH20 0xFFFFFFFFFFFFFFFFFFFFFFFFFFFFFFFFFFFFFFFF AND PUSH20 0xFFFFFFFFFFFFFFFFFFFFFFFFFFFFFFFFFFFFFFFF AND DUP2 MSTORE PUSH1 0x20 ADD SWAP1 DUP2 MSTORE PUSH1 0x20 ADD PUSH0 KECCAK256 PUSH0 DUP7 PUSH20 0xFFFFFFFFFFFFFFFFFFFFFFFFFFFFFFFFFFFFFFFF AND PUSH20 0xFFFFFFFFFFFFFFFFFFFFFFFFFFFFFFFFFFFFFFFF AND DUP2 MSTORE PUSH1 0x20 ADD SWAP1 DUP2 MSTORE PUSH1 0x20 ADD PUSH0 KECCAK256 DUP2 SWAP1 SSTORE POP PUSH2 0x1350 JUMP JUMPDEST PUSH2 0x12D3 DUP4 DUP3 PUSH2 0x1855 SWAP1 SWAP2 SWAP1 PUSH4 0xFFFFFFFF AND JUMP JUMPDEST PUSH1 0x12 PUSH0 CALLER PUSH20 0xFFFFFFFFFFFFFFFFFFFFFFFFFFFFFFFFFFFFFFFF AND PUSH20 0xFFFFFFFFFFFFFFFFFFFFFFFFFFFFFFFFFFFFFFFF AND DUP2 MSTORE PUSH1 0x20 ADD SWAP1 DUP2 MSTORE PUSH1 0x20 ADD PUSH0 KECCAK256 PUSH0 DUP7 PUSH20 0xFFFFFFFFFFFFFFFFFFFFFFFFFFFFFFFFFFFFFFFF AND PUSH20 0xFFFFFFFFFFFFFFFFFFFFFFFFFFFFFFFFFFFFFFFF AND DUP2 MSTORE PUSH1 0x20 ADD SWAP1 DUP2 MSTORE PUSH1 0x20 ADD PUSH0 KECCAK256 DUP2 SWAP1 SSTORE POP JUMPDEST DUP4 PUSH20 0xFFFFFFFFFFFFFFFFFFFFFFFFFFFFFFFFFFFFFFFF AND CALLER PUSH20 0xFFFFFFFFFFFFFFFFFFFFFFFFFFFFFFFFFFFFFFFF AND PUSH32 0x8C5BE1E5EBEC7D5BD14F71427D1E84F3DD0314C0F7B2291E5B200AC8C7C3B925 PUSH1 0x12 PUSH0 CALLER PUSH20 0xFFFFFFFFFFFFFFFFFFFFFFFFFFFFFFFFFFFFFFFF AND PUSH20 0xFFFFFFFFFFFFFFFFFFFFFFFFFFFFFFFFFFFFFFFF AND DUP2 MSTORE PUSH1 0x20 ADD SWAP1 DUP2 MSTORE PUSH1 0x20 ADD PUSH0 KECCAK256 PUSH0 DUP9 PUSH20 0xFFFFFFFFFFFFFFFFFFFFFFFFFFFFFFFFFFFFFFFF AND PUSH20 0xFFFFFFFFFFFFFFFFFFFFFFFFFFFFFFFFFFFFFFFF AND DUP2 MSTORE PUSH1 0x20 ADD SWAP1 DUP2 MSTORE PUSH1 0x20 ADD PUSH0 KECCAK256 SLOAD PUSH1 0x40 MLOAD PUSH2 0x1425 SWAP2 SWAP1 PUSH2 0x2590 JUMP JUMPDEST PUSH1 0x40 MLOAD DUP1 SWAP2 SUB SWAP1 LOG3 PUSH1 0x1 SWAP2 POP POP SWAP3 SWAP2 POP POP JUMP JUMPDEST PUSH0 DUP3 PUSH0 PUSH20 0xFFFFFFFFFFFFFFFFFFFFFFFFFFFFFFFFFFFFFFFF AND DUP2 PUSH20 0xFFFFFFFFFFFFFFFFFFFFFFFFFFFFFFFFFFFFFFFF AND SUB PUSH2 0x1471 JUMPI PUSH0 DUP1 REVERT JUMPDEST PUSH2 0x147C CALLER DUP6 DUP6 PUSH2 0x1656 JUMP JUMPDEST POP PUSH1 0x1 SWAP2 POP POP SWAP3 SWAP2 POP POP JUMP JUMPDEST PUSH2 0x1490 PUSH2 0x10B0 JUMP JUMPDEST PUSH2 0x1498 JUMPI PUSH0 DUP1 REVERT JUMPDEST DUP1 PUSH1 0x3 DUP2 SWAP1 SSTORE POP POP JUMP JUMPDEST PUSH1 0x5 PUSH0 SWAP1 SLOAD SWAP1 PUSH2 0x100 EXP SWAP1 DIV PUSH1 0xFF AND DUP2 JUMP JUMPDEST PUSH1 0x4 SLOAD DUP2 JUMP JUMPDEST PUSH0 PUSH1 0xD PUSH0 DUP4 PUSH20 0xFFFFFFFFFFFFFFFFFFFFFFFFFFFFFFFFFFFFFFFF AND PUSH20 0xFFFFFFFFFFFFFFFFFFFFFFFFFFFFFFFFFFFFFFFF AND DUP2 MSTORE PUSH1 0x20 ADD SWAP1 DUP2 MSTORE PUSH1 0x20 ADD PUSH0 KECCAK256 PUSH0 SWAP1 SLOAD SWAP1 PUSH2 0x100 EXP SWAP1 DIV PUSH1 0xFF AND SWAP1 POP SWAP2 SWAP1 POP JUMP JUMPDEST PUSH0 PUSH1 0x12 PUSH0 DUP5 PUSH20 0xFFFFFFFFFFFFFFFFFFFFFFFFFFFFFFFFFFFFFFFF AND PUSH20 0xFFFFFFFFFFFFFFFFFFFFFFFFFFFFFFFFFFFFFFFF AND DUP2 MSTORE PUSH1 0x20 ADD SWAP1 DUP2 MSTORE PUSH1 0x20 ADD PUSH0 KECCAK256 PUSH0 DUP4 PUSH20 0xFFFFFFFFFFFFFFFFFFFFFFFFFFFFFFFFFFFFFFFF AND PUSH20 0xFFFFFFFFFFFFFFFFFFFFFFFFFFFFFFFFFFFFFFFF AND DUP2 MSTORE PUSH1 0x20 ADD SWAP1 DUP2 MSTORE PUSH1 0x20 ADD PUSH0 KECCAK256 SLOAD SWAP1 POP SWAP3 SWAP2 POP POP JUMP JUMPDEST PUSH2 0x1596 PUSH2 0x10B0 JUMP JUMPDEST PUSH2 0x159E JUMPI PUSH0 DUP1 REVERT JUMPDEST DUP1 ISZERO PUSH2 0x15C9 JUMPI DUP1 PUSH1 0x5 PUSH0 PUSH2 0x100 EXP DUP2 SLOAD DUP2 PUSH1 0xFF MUL NOT AND SWAP1 DUP4 ISZERO ISZERO MUL OR SWAP1 SSTORE POP TIMESTAMP PUSH1 0x7 DUP2 SWAP1 SSTORE POP PUSH2 0x15E3 JUMP JUMPDEST DUP1 PUSH1 0x5 PUSH0 PUSH2 0x100 EXP DUP2 SLOAD DUP2 PUSH1 0xFF MUL NOT AND SWAP1 DUP4 ISZERO ISZERO MUL OR SWAP1 SSTORE POP JUMPDEST POP JUMP JUMPDEST PUSH2 0x15EE PUSH2 0x10B0 JUMP JUMPDEST PUSH2 0x15F6 JUMPI PUSH0 DUP1 REVERT JUMPDEST PUSH2 0x15FF DUP2 PUSH2 0x186A JUMP JUMPDEST POP JUMP JUMPDEST PUSH0 DUP4 DUP4 GT ISZERO DUP3 SWAP1 PUSH2 0x1649 JUMPI PUSH1 0x40 MLOAD PUSH32 0x8C379A000000000000000000000000000000000000000000000000000000000 DUP2 MSTORE PUSH1 0x4 ADD PUSH2 0x1640 SWAP2 SWAP1 PUSH2 0x245F JUMP JUMPDEST PUSH1 0x40 MLOAD DUP1 SWAP2 SUB SWAP1 REVERT JUMPDEST POP DUP3 DUP5 SUB SWAP1 POP SWAP4 SWAP3 POP POP POP JUMP JUMPDEST PUSH0 PUSH1 0xE PUSH0 DUP6 PUSH20 0xFFFFFFFFFFFFFFFFFFFFFFFFFFFFFFFFFFFFFFFF AND PUSH20 0xFFFFFFFFFFFFFFFFFFFFFFFFFFFFFFFFFFFFFFFF AND DUP2 MSTORE PUSH1 0x20 ADD SWAP1 DUP2 MSTORE PUSH1 0x20 ADD PUSH0 KECCAK256 PUSH0 SWAP1 SLOAD SWAP1 PUSH2 0x100 EXP SWAP1 DIV PUSH1 0xFF AND ISZERO DUP1 ISZERO PUSH2 0x16F5 JUMPI POP PUSH1 0xE PUSH0 DUP5 PUSH20 0xFFFFFFFFFFFFFFFFFFFFFFFFFFFFFFFFFFFFFFFF AND PUSH20 0xFFFFFFFFFFFFFFFFFFFFFFFFFFFFFFFFFFFFFFFF AND DUP2 MSTORE PUSH1 0x20 ADD SWAP1 DUP2 MSTORE PUSH1 0x20 ADD PUSH0 KECCAK256 PUSH0 SWAP1 SLOAD SWAP1 PUSH2 0x100 EXP SWAP1 DIV PUSH1 0xFF AND ISZERO JUMPDEST PUSH2 0x1734 JUMPI PUSH1 0x40 MLOAD PUSH32 0x8C379A000000000000000000000000000000000000000000000000000000000 DUP2 MSTORE PUSH1 0x4 ADD PUSH2 0x172B SWAP1 PUSH2 0x28B1 JUMP JUMPDEST PUSH1 0x40 MLOAD DUP1 SWAP2 SUB SWAP1 REVERT JUMPDEST PUSH1 0x11 PUSH1 0x14 SWAP1 SLOAD SWAP1 PUSH2 0x100 EXP SWAP1 DIV PUSH1 0xFF AND ISZERO PUSH2 0x175B JUMPI PUSH2 0x1754 DUP5 DUP5 DUP5 PUSH2 0x1961 JUMP JUMPDEST SWAP1 POP PUSH2 0x1828 JUMP JUMPDEST PUSH2 0x1763 PUSH2 0x1981 JUMP JUMPDEST ISZERO PUSH2 0x1771 JUMPI PUSH2 0x1770 PUSH2 0x1A4C JUMP JUMPDEST JUMPDEST PUSH2 0x177B DUP5 DUP4 PUSH2 0x1C61 JUMP JUMPDEST PUSH0 PUSH2 0x1786 DUP6 DUP6 PUSH2 0x1CBE JUMP JUMPDEST PUSH2 0x1790 JUMPI DUP3 PUSH2 0x179B JUMP JUMPDEST PUSH2 0x179A DUP6 DUP5 PUSH2 0x1DC1 JUMP JUMPDEST JUMPDEST SWAP1 POP PUSH2 0x17A7 DUP5 DUP3 PUSH2 0x1E78 JUMP JUMPDEST DUP4 PUSH20 0xFFFFFFFFFFFFFFFFFFFFFFFFFFFFFFFFFFFFFFFF AND DUP6 PUSH20 0xFFFFFFFFFFFFFFFFFFFFFFFFFFFFFFFFFFFFFFFF AND PUSH32 0xDDF252AD1BE2C89B69C2B068FC378DAA952BA7F163C4A11628F55A4DF523B3EF DUP4 PUSH1 0x40 MLOAD PUSH2 0x1804 SWAP2 SWAP1 PUSH2 0x2590 JUMP JUMPDEST PUSH1 0x40 MLOAD DUP1 SWAP2 SUB SWAP1 LOG3 PUSH2 0x1814 PUSH2 0x1ED5 JUMP JUMPDEST ISZERO PUSH2 0x1822 JUMPI PUSH2 0x1821 PUSH2 0x1F36 JUMP JUMPDEST JUMPDEST PUSH1 0x1 SWAP2 POP POP JUMPDEST SWAP4 SWAP3 POP POP POP JUMP JUMPDEST PUSH0 DUP1 DUP3 EXTCODESIZE SWAP1 POP PUSH0 DUP2 GT SWAP2 POP POP SWAP2 SWAP1 POP JUMP JUMPDEST PUSH0 DUP2 DUP4 PUSH2 0x184D SWAP2 SWAP1 PUSH2 0x28FC JUMP JUMPDEST SWAP1 POP SWAP3 SWAP2 POP POP JUMP JUMPDEST PUSH0 DUP2 DUP4 PUSH2 0x1862 SWAP2 SWAP1 PUSH2 0x292F JUMP JUMPDEST SWAP1 POP SWAP3 SWAP2 POP POP JUMP JUMPDEST PUSH0 PUSH20 0xFFFFFFFFFFFFFFFFFFFFFFFFFFFFFFFFFFFFFFFF AND DUP2 PUSH20 0xFFFFFFFFFFFFFFFFFFFFFFFFFFFFFFFFFFFFFFFF AND SUB PUSH2 0x18A1 JUMPI PUSH0 DUP1 REVERT JUMPDEST DUP1 PUSH20 0xFFFFFFFFFFFFFFFFFFFFFFFFFFFFFFFFFFFFFFFF AND PUSH1 0x2 PUSH1 0x1 SWAP1 SLOAD SWAP1 PUSH2 0x100 EXP SWAP1 DIV PUSH20 0xFFFFFFFFFFFFFFFFFFFFFFFFFFFFFFFFFFFFFFFF AND PUSH20 0xFFFFFFFFFFFFFFFFFFFFFFFFFFFFFFFFFFFFFFFF AND PUSH32 0x8BE0079C531659141344CD1FD0A4F28419497F9722A3DAAFE3B4186F6B6457E0 PUSH1 0x40 MLOAD PUSH1 0x40 MLOAD DUP1 SWAP2 SUB SWAP1 LOG3 DUP1 PUSH1 0x2 PUSH1 0x1 PUSH2 0x100 EXP DUP2 SLOAD DUP2 PUSH20 0xFFFFFFFFFFFFFFFFFFFFFFFFFFFFFFFFFFFFFFFF MUL NOT AND SWAP1 DUP4 PUSH20 0xFFFFFFFFFFFFFFFFFFFFFFFFFFFFFFFFFFFFFFFF AND MUL OR SWAP1 SSTORE POP POP JUMP JUMPDEST PUSH0 PUSH2 0x196C DUP5 DUP4 PUSH2 0x1C61 JUMP JUMPDEST PUSH2 0x1976 DUP4 DUP4 PUSH2 0x1E78 JUMP JUMPDEST PUSH1 0x1 SWAP1 POP SWAP4 SWAP3 POP POP POP JUMP JUMPDEST PUSH0 PUSH1 0x5 PUSH0 SWAP1 SLOAD SWAP1 PUSH2 0x100 EXP SWAP1 DIV PUSH1 0xFF AND DUP1 ISZERO PUSH2 0x19BA JUMPI POP PUSH1 0x5 PUSH1 0xA PUSH2 0x19A6 SWAP2 SWAP1 PUSH2 0x2A91 JUMP JUMPDEST PUSH4 0xC1B71080 PUSH2 0x19B5 SWAP2 SWAP1 PUSH2 0x2ADB JUMP JUMPDEST PUSH1 0x8 SLOAD LT JUMPDEST DUP1 ISZERO PUSH2 0x1A13 JUMPI POP PUSH1 0x11 PUSH0 SWAP1 SLOAD SWAP1 PUSH2 0x100 EXP SWAP1 DIV PUSH20 0xFFFFFFFFFFFFFFFFFFFFFFFFFFFFFFFFFFFFFFFF AND PUSH20 0xFFFFFFFFFFFFFFFFFFFFFFFFFFFFFFFFFFFFFFFF AND CALLER PUSH20 0xFFFFFFFFFFFFFFFFFFFFFFFFFFFFFFFFFFFFFFFF AND EQ ISZERO JUMPDEST DUP1 ISZERO PUSH2 0x1A2C JUMPI POP PUSH1 0x11 PUSH1 0x14 SWAP1 SLOAD SWAP1 PUSH2 0x100 EXP SWAP1 DIV PUSH1 0xFF AND ISZERO JUMPDEST DUP1 ISZERO PUSH2 0x1A47 JUMPI POP PUSH2 0x384 PUSH1 0x7 SLOAD PUSH2 0x1A43 SWAP2 SWAP1 PUSH2 0x28FC JUMP JUMPDEST TIMESTAMP LT ISZERO JUMPDEST SWAP1 POP SWAP1 JUMP JUMPDEST PUSH1 0x11 PUSH1 0x14 SWAP1 SLOAD SWAP1 PUSH2 0x100 EXP SWAP1 DIV PUSH1 0xFF AND PUSH2 0x1C5F JUMPI PUSH0 DUP1 PUSH1 0x6 SLOAD TIMESTAMP PUSH2 0x1A70 SWAP2 SWAP1 PUSH2 0x292F JUMP JUMPDEST SWAP1 POP PUSH0 PUSH1 0x7 SLOAD TIMESTAMP PUSH2 0x1A81 SWAP2 SWAP1 PUSH2 0x292F JUMP JUMPDEST SWAP1 POP PUSH0 PUSH2 0x1A99 PUSH2 0x384 DUP4 PUSH2 0x21BA SWAP1 SWAP2 SWAP1 PUSH4 0xFFFFFFFF AND JUMP JUMPDEST SWAP1 POP PUSH0 PUSH2 0x1AB0 PUSH1 0xF DUP4 PUSH2 0x21CF SWAP1 SWAP2 SWAP1 PUSH4 0xFFFFFFFF AND JUMP JUMPDEST SWAP1 POP PUSH4 0x1E13380 DUP5 LT ISZERO PUSH2 0x1AC8 JUMPI PUSH2 0x933 SWAP5 POP PUSH2 0x1B03 JUMP JUMPDEST PUSH4 0x1E13380 DUP5 LT PUSH2 0x1ADC JUMPI PUSH1 0xD3 SWAP5 POP PUSH2 0x1B02 JUMP JUMPDEST PUSH4 0x2D1CD40 DUP5 LT PUSH2 0x1AF0 JUMPI PUSH1 0xE SWAP5 POP PUSH2 0x1B01 JUMP JUMPDEST PUSH4 0xD286880 DUP5 LT PUSH2 0x1B00 JUMPI PUSH1 0x2 SWAP5 POP JUMPDEST JUMPDEST JUMPDEST JUMPDEST PUSH0 JUMPDEST DUP3 DUP2 LT ISZERO PUSH2 0x1B73 JUMPI PUSH2 0x1B60 PUSH1 0x7 PUSH1 0xA PUSH2 0x1B1E SWAP2 SWAP1 PUSH2 0x2A91 JUMP JUMPDEST PUSH2 0x1B52 PUSH2 0x1B41 DUP10 PUSH1 0x7 PUSH1 0xA PUSH2 0x1B33 SWAP2 SWAP1 PUSH2 0x2A91 JUMP JUMPDEST PUSH2 0x1840 SWAP1 SWAP2 SWAP1 PUSH4 0xFFFFFFFF AND JUMP JUMPDEST PUSH1 0x8 SLOAD PUSH2 0x21CF SWAP1 SWAP2 SWAP1 PUSH4 0xFFFFFFFF AND JUMP JUMPDEST PUSH2 0x21BA SWAP1 SWAP2 SWAP1 PUSH4 0xFFFFFFFF AND JUMP JUMPDEST PUSH1 0x8 DUP2 SWAP1 SSTORE POP DUP1 DUP1 PUSH1 0x1 ADD SWAP2 POP POP PUSH2 0x1B05 JUMP JUMPDEST POP PUSH2 0x1B9D PUSH2 0x1B8C PUSH2 0x384 DUP5 PUSH2 0x21CF SWAP1 SWAP2 SWAP1 PUSH4 0xFFFFFFFF AND JUMP JUMPDEST PUSH1 0x7 SLOAD PUSH2 0x1840 SWAP1 SWAP2 SWAP1 PUSH4 0xFFFFFFFF AND JUMP JUMPDEST PUSH1 0x7 DUP2 SWAP1 SSTORE POP PUSH1 0x11 PUSH0 SWAP1 SLOAD SWAP1 PUSH2 0x100 EXP SWAP1 DIV PUSH20 0xFFFFFFFFFFFFFFFFFFFFFFFFFFFFFFFFFFFFFFFF AND PUSH20 0xFFFFFFFFFFFFFFFFFFFFFFFFFFFFFFFFFFFFFFFF AND PUSH4 0xFFF6CAE9 PUSH1 0x40 MLOAD DUP2 PUSH4 0xFFFFFFFF AND PUSH1 0xE0 SHL DUP2 MSTORE PUSH1 0x4 ADD PUSH0 PUSH1 0x40 MLOAD DUP1 DUP4 SUB DUP2 PUSH0 DUP8 DUP1 EXTCODESIZE ISZERO DUP1 ISZERO PUSH2 0x1C09 JUMPI PUSH0 DUP1 REVERT JUMPDEST POP GAS CALL ISZERO DUP1 ISZERO PUSH2 0x1C1B JUMPI RETURNDATASIZE PUSH0 DUP1 RETURNDATACOPY RETURNDATASIZE PUSH0 REVERT JUMPDEST POP POP POP POP DUP1 PUSH32 0x72725A3B1E5BD622D6BCD1339BB31279C351ABE8F541AC7FD320F24E1B1641F2 PUSH1 0x8 SLOAD PUSH1 0x40 MLOAD PUSH2 0x1C51 SWAP2 SWAP1 PUSH2 0x2590 JUMP JUMPDEST PUSH1 0x40 MLOAD DUP1 SWAP2 SUB SWAP1 LOG2 POP POP POP POP POP JUMPDEST JUMP JUMPDEST PUSH2 0x1CBA DUP3 PUSH2 0x1CB5 DUP4 PUSH1 0xB PUSH0 DUP8 PUSH20 0xFFFFFFFFFFFFFFFFFFFFFFFFFFFFFFFFFFFFFFFF AND PUSH20 0xFFFFFFFFFFFFFFFFFFFFFFFFFFFFFFFFFFFFFFFF AND DUP2 MSTORE PUSH1 0x20 ADD SWAP1 DUP2 MSTORE PUSH1 0x20 ADD PUSH0 KECCAK256 SLOAD PUSH2 0x1855 SWAP1 SWAP2 SWAP1 PUSH4 0xFFFFFFFF AND JUMP JUMPDEST PUSH2 0x21E4 JUMP JUMPDEST POP POP JUMP JUMPDEST PUSH0 DUP3 PUSH20 0xFFFFFFFFFFFFFFFFFFFFFFFFFFFFFFFFFFFFFFFF AND PUSH1 0x11 PUSH0 SWAP1 SLOAD SWAP1 PUSH2 0x100 EXP SWAP1 DIV PUSH20 0xFFFFFFFFFFFFFFFFFFFFFFFFFFFFFFFFFFFFFFFF AND PUSH20 0xFFFFFFFFFFFFFFFFFFFFFFFFFFFFFFFFFFFFFFFF AND EQ DUP1 PUSH2 0x1D66 JUMPI POP DUP2 PUSH20 0xFFFFFFFFFFFFFFFFFFFFFFFFFFFFFFFFFFFFFFFF AND PUSH1 0x11 PUSH0 SWAP1 SLOAD SWAP1 PUSH2 0x100 EXP SWAP1 DIV PUSH20 0xFFFFFFFFFFFFFFFFFFFFFFFFFFFFFFFFFFFFFFFF AND PUSH20 0xFFFFFFFFFFFFFFFFFFFFFFFFFFFFFFFFFFFFFFFF AND EQ JUMPDEST DUP1 ISZERO PUSH2 0x1DB9 JUMPI POP PUSH1 0xD PUSH0 DUP5 PUSH20 0xFFFFFFFFFFFFFFFFFFFFFFFFFFFFFFFFFFFFFFFF AND PUSH20 0xFFFFFFFFFFFFFFFFFFFFFFFFFFFFFFFFFFFFFFFF AND DUP2 MSTORE PUSH1 0x20 ADD SWAP1 DUP2 MSTORE PUSH1 0x20 ADD PUSH0 KECCAK256 PUSH0 SWAP1 SLOAD SWAP1 PUSH2 0x100 EXP SWAP1 DIV PUSH1 0xFF AND ISZERO JUMPDEST SWAP1 POP SWAP3 SWAP2 POP POP JUMP JUMPDEST PUSH0 DUP1 PUSH2 0x1DEB PUSH1 0x3 SLOAD PUSH2 0x1DDD PUSH1 0x64 DUP7 PUSH2 0x21BA SWAP1 SWAP2 SWAP1 PUSH4 0xFFFFFFFF AND JUMP JUMPDEST PUSH2 0x21CF SWAP1 SWAP2 SWAP1 PUSH4 0xFFFFFFFF AND JUMP JUMPDEST SWAP1 POP PUSH2 0x1DF7 ADDRESS DUP3 PUSH2 0x1E78 JUMP JUMPDEST ADDRESS PUSH20 0xFFFFFFFFFFFFFFFFFFFFFFFFFFFFFFFFFFFFFFFF AND DUP5 PUSH20 0xFFFFFFFFFFFFFFFFFFFFFFFFFFFFFFFFFFFFFFFF AND PUSH32 0xDDF252AD1BE2C89B69C2B068FC378DAA952BA7F163C4A11628F55A4DF523B3EF DUP4 PUSH1 0x40 MLOAD PUSH2 0x1E54 SWAP2 SWAP1 PUSH2 0x2590 JUMP JUMPDEST PUSH1 0x40 MLOAD DUP1 SWAP2 SUB SWAP1 LOG3 PUSH2 0x1E6F DUP2 DUP5 PUSH2 0x1855 SWAP1 SWAP2 SWAP1 PUSH4 0xFFFFFFFF AND JUMP JUMPDEST SWAP2 POP POP SWAP3 SWAP2 POP POP JUMP JUMPDEST PUSH2 0x1ED1 DUP3 PUSH2 0x1ECC DUP4 PUSH1 0xB PUSH0 DUP8 PUSH20 0xFFFFFFFFFFFFFFFFFFFFFFFFFFFFFFFFFFFFFFFF AND PUSH20 0xFFFFFFFFFFFFFFFFFFFFFFFFFFFFFFFFFFFFFFFF AND DUP2 MSTORE PUSH1 0x20 ADD SWAP1 DUP2 MSTORE PUSH1 0x20 ADD PUSH0 KECCAK256 SLOAD PUSH2 0x1840 SWAP1 SWAP2 SWAP1 PUSH4 0xFFFFFFFF AND JUMP JUMPDEST PUSH2 0x21E4 JUMP JUMPDEST POP POP JUMP JUMPDEST PUSH0 DUP1 PUSH1 0xB PUSH0 ADDRESS PUSH20 0xFFFFFFFFFFFFFFFFFFFFFFFFFFFFFFFFFFFFFFFF AND PUSH20 0xFFFFFFFFFFFFFFFFFFFFFFFFFFFFFFFFFFFFFFFF AND DUP2 MSTORE PUSH1 0x20 ADD SWAP1 DUP2 MSTORE PUSH1 0x20 ADD PUSH0 KECCAK256 SLOAD GT DUP1 ISZERO PUSH2 0x1F31 JUMPI POP PUSH1 0x4 SLOAD PUSH1 0x9 SLOAD PUSH2 0x1F2D SWAP2 SWAP1 PUSH2 0x28FC JUMP JUMPDEST TIMESTAMP LT ISZERO JUMPDEST SWAP1 POP SWAP1 JUMP JUMPDEST PUSH0 DUP1 PUSH0 DUP1 PUSH1 0x8 SLOAD SWAP1 POP TIMESTAMP PUSH1 0x9 DUP2 SWAP1 SSTORE POP PUSH0 PUSH1 0xB PUSH0 ADDRESS PUSH20 0xFFFFFFFFFFFFFFFFFFFFFFFFFFFFFFFFFFFFFFFF AND PUSH20 0xFFFFFFFFFFFFFFFFFFFFFFFFFFFFFFFFFFFFFFFF AND DUP2 MSTORE PUSH1 0x20 ADD SWAP1 DUP2 MSTORE PUSH1 0x20 ADD PUSH0 KECCAK256 SLOAD SWAP1 POP PUSH0 PUSH1 0xB PUSH0 ADDRESS PUSH20 0xFFFFFFFFFFFFFFFFFFFFFFFFFFFFFFFFFFFFFFFF AND PUSH20 0xFFFFFFFFFFFFFFFFFFFFFFFFFFFFFFFFFFFFFFFF AND DUP2 MSTORE PUSH1 0x20 ADD SWAP1 DUP2 MSTORE PUSH1 0x20 ADD PUSH0 KECCAK256 DUP2 SWAP1 SSTORE POP PUSH0 JUMPDEST PUSH1 0xF DUP1 SLOAD SWAP1 POP DUP2 LT ISZERO PUSH2 0x2198 JUMPI PUSH1 0xF DUP2 DUP2 SLOAD DUP2 LT PUSH2 0x1FEC JUMPI PUSH2 0x1FEB PUSH2 0x2B1C JUMP JUMPDEST JUMPDEST SWAP1 PUSH0 MSTORE PUSH1 0x20 PUSH0 KECCAK256 ADD PUSH0 SWAP1 SLOAD SWAP1 PUSH2 0x100 EXP SWAP1 DIV PUSH20 0xFFFFFFFFFFFFFFFFFFFFFFFFFFFFFFFFFFFFFFFF AND SWAP6 POP PUSH1 0x11 PUSH0 SWAP1 SLOAD SWAP1 PUSH2 0x100 EXP SWAP1 DIV PUSH20 0xFFFFFFFFFFFFFFFFFFFFFFFFFFFFFFFFFFFFFFFF AND PUSH20 0xFFFFFFFFFFFFFFFFFFFFFFFFFFFFFFFFFFFFFFFF AND DUP7 PUSH20 0xFFFFFFFFFFFFFFFFFFFFFFFFFFFFFFFFFFFFFFFF AND EQ DUP1 PUSH2 0x209C JUMPI POP ADDRESS PUSH20 0xFFFFFFFFFFFFFFFFFFFFFFFFFFFFFFFFFFFFFFFF AND DUP7 PUSH20 0xFFFFFFFFFFFFFFFFFFFFFFFFFFFFFFFFFFFFFFFF AND EQ JUMPDEST PUSH2 0x218B JUMPI PUSH2 0x2102 DUP4 PUSH2 0x20F4 DUP5 PUSH1 0xB PUSH0 DUP12 PUSH20 0xFFFFFFFFFFFFFFFFFFFFFFFFFFFFFFFFFFFFFFFF AND PUSH20 0xFFFFFFFFFFFFFFFFFFFFFFFFFFFFFFFFFFFFFFFF AND DUP2 MSTORE PUSH1 0x20 ADD SWAP1 DUP2 MSTORE PUSH1 0x20 ADD PUSH0 KECCAK256 SLOAD PUSH2 0x21CF SWAP1 SWAP2 SWAP1 PUSH4 0xFFFFFFFF AND JUMP JUMPDEST PUSH2 0x21BA SWAP1 SWAP2 SWAP1 PUSH4 0xFFFFFFFF AND JUMP JUMPDEST SWAP5 POP DUP5 DUP5 PUSH2 0x2110 SWAP2 SWAP1 PUSH2 0x28FC JUMP JUMPDEST SWAP4 POP PUSH0 DUP6 GT ISZERO PUSH2 0x218A JUMPI PUSH2 0x2124 DUP7 DUP7 PUSH2 0x1E78 JUMP JUMPDEST DUP6 PUSH20 0xFFFFFFFFFFFFFFFFFFFFFFFFFFFFFFFFFFFFFFFF AND ADDRESS PUSH20 0xFFFFFFFFFFFFFFFFFFFFFFFFFFFFFFFFFFFFFFFF AND PUSH32 0xDDF252AD1BE2C89B69C2B068FC378DAA952BA7F163C4A11628F55A4DF523B3EF DUP8 PUSH1 0x40 MLOAD PUSH2 0x2181 SWAP2 SWAP1 PUSH2 0x2590 JUMP JUMPDEST PUSH1 0x40 MLOAD DUP1 SWAP2 SUB SWAP1 LOG3 JUMPDEST JUMPDEST DUP1 DUP1 PUSH1 0x1 ADD SWAP2 POP POP PUSH2 0x1FCB JUMP JUMPDEST POP PUSH0 DUP4 DUP3 PUSH2 0x21A6 SWAP2 SWAP1 PUSH2 0x292F JUMP JUMPDEST SWAP1 POP PUSH2 0x21B2 ADDRESS DUP3 PUSH2 0x1E78 JUMP JUMPDEST POP POP POP POP POP POP JUMP JUMPDEST PUSH0 DUP2 DUP4 PUSH2 0x21C7 SWAP2 SWAP1 PUSH2 0x2B76 JUMP JUMPDEST SWAP1 POP SWAP3 SWAP2 POP POP JUMP JUMPDEST PUSH0 DUP2 DUP4 PUSH2 0x21DC SWAP2 SWAP1 PUSH2 0x2ADB JUMP JUMPDEST SWAP1 POP SWAP3 SWAP2 POP POP JUMP JUMPDEST PUSH2 0x21ED DUP3 PUSH2 0x2344 JUMP JUMPDEST ISZERO PUSH2 0x22FE JUMPI PUSH1 0x1 ISZERO ISZERO PUSH1 0xC PUSH0 DUP5 PUSH20 0xFFFFFFFFFFFFFFFFFFFFFFFFFFFFFFFFFFFFFFFF AND PUSH20 0xFFFFFFFFFFFFFFFFFFFFFFFFFFFFFFFFFFFFFFFF AND DUP2 MSTORE PUSH1 0x20 ADD SWAP1 DUP2 MSTORE PUSH1 0x20 ADD PUSH0 KECCAK256 PUSH0 SWAP1 SLOAD SWAP1 PUSH2 0x100 EXP SWAP1 DIV PUSH1 0xFF AND ISZERO ISZERO EQ PUSH2 0x22FD JUMPI PUSH1 0xF DUP3 SWAP1 DUP1 PUSH1 0x1 DUP2 SLOAD ADD DUP1 DUP3 SSTORE DUP1 SWAP2 POP POP PUSH1 0x1 SWAP1 SUB SWAP1 PUSH0 MSTORE PUSH1 0x20 PUSH0 KECCAK256 ADD PUSH0 SWAP1 SWAP2 SWAP1 SWAP2 SWAP1 SWAP2 PUSH2 0x100 EXP DUP2 SLOAD DUP2 PUSH20 0xFFFFFFFFFFFFFFFFFFFFFFFFFFFFFFFFFFFFFFFF MUL NOT AND SWAP1 DUP4 PUSH20 0xFFFFFFFFFFFFFFFFFFFFFFFFFFFFFFFFFFFFFFFF AND MUL OR SWAP1 SSTORE POP PUSH1 0x1 PUSH1 0xC PUSH0 DUP5 PUSH20 0xFFFFFFFFFFFFFFFFFFFFFFFFFFFFFFFFFFFFFFFF AND PUSH20 0xFFFFFFFFFFFFFFFFFFFFFFFFFFFFFFFFFFFFFFFF AND DUP2 MSTORE PUSH1 0x20 ADD SWAP1 DUP2 MSTORE PUSH1 0x20 ADD PUSH0 KECCAK256 PUSH0 PUSH2 0x100 EXP DUP2 SLOAD DUP2 PUSH1 0xFF MUL NOT AND SWAP1 DUP4 ISZERO ISZERO MUL OR SWAP1 SSTORE POP JUMPDEST JUMPDEST DUP1 PUSH1 0xB PUSH0 DUP5 PUSH20 0xFFFFFFFFFFFFFFFFFFFFFFFFFFFFFFFFFFFFFFFF AND PUSH20 0xFFFFFFFFFFFFFFFFFFFFFFFFFFFFFFFFFFFFFFFF AND DUP2 MSTORE PUSH1 0x20 ADD SWAP1 DUP2 MSTORE PUSH1 0x20 ADD PUSH0 KECCAK256 DUP2 SWAP1 SSTORE POP POP POP JUMP JUMPDEST PUSH0 ADDRESS PUSH20 0xFFFFFFFFFFFFFFFFFFFFFFFFFFFFFFFFFFFFFFFF AND DUP3 PUSH20 0xFFFFFFFFFFFFFFFFFFFFFFFFFFFFFFFFFFFFFFFF AND EQ ISZERO DUP1 ISZERO PUSH2 0x23CE JUMPI POP PUSH1 0x11 PUSH0 SWAP1 SLOAD SWAP1 PUSH2 0x100 EXP SWAP1 DIV PUSH20 0xFFFFFFFFFFFFFFFFFFFFFFFFFFFFFFFFFFFFFFFF AND PUSH20 0xFFFFFFFFFFFFFFFFFFFFFFFFFFFFFFFFFFFFFFFF AND DUP3 PUSH20 0xFFFFFFFFFFFFFFFFFFFFFFFFFFFFFFFFFFFFFFFF AND EQ ISZERO JUMPDEST SWAP1 POP SWAP2 SWAP1 POP JUMP JUMPDEST PUSH0 DUP2 MLOAD SWAP1 POP SWAP2 SWAP1 POP JUMP JUMPDEST PUSH0 DUP3 DUP3 MSTORE PUSH1 0x20 DUP3 ADD SWAP1 POP SWAP3 SWAP2 POP POP JUMP JUMPDEST PUSH0 JUMPDEST DUP4 DUP2 LT ISZERO PUSH2 0x240C JUMPI DUP1 DUP3 ADD MLOAD DUP2 DUP5 ADD MSTORE PUSH1 0x20 DUP2 ADD SWAP1 POP PUSH2 0x23F1 JUMP JUMPDEST PUSH0 DUP5 DUP5 ADD MSTORE POP POP POP POP JUMP JUMPDEST PUSH0 PUSH1 0x1F NOT PUSH1 0x1F DUP4 ADD AND SWAP1 POP SWAP2 SWAP1 POP JUMP JUMPDEST PUSH0 PUSH2 0x2431 DUP3 PUSH2 0x23D5 JUMP JUMPDEST PUSH2 0x243B DUP2 DUP6 PUSH2 0x23DF JUMP JUMPDEST SWAP4 POP PUSH2 0x244B DUP2 DUP6 PUSH1 0x20 DUP7 ADD PUSH2 0x23EF JUMP JUMPDEST PUSH2 0x2454 DUP2 PUSH2 0x2417 JUMP JUMPDEST DUP5 ADD SWAP2 POP POP SWAP3 SWAP2 POP POP JUMP JUMPDEST PUSH0 PUSH1 0x20 DUP3 ADD SWAP1 POP DUP2 DUP2 SUB PUSH0 DUP4 ADD MSTORE PUSH2 0x2477 DUP2 DUP5 PUSH2 0x2427 JUMP JUMPDEST SWAP1 POP SWAP3 SWAP2 POP POP JUMP JUMPDEST PUSH0 DUP1 REVERT JUMPDEST PUSH0 PUSH20 0xFFFFFFFFFFFFFFFFFFFFFFFFFFFFFFFFFFFFFFFF DUP3 AND SWAP1 POP SWAP2 SWAP1 POP JUMP JUMPDEST PUSH0 PUSH2 0x24AC DUP3 PUSH2 0x2483 JUMP JUMPDEST SWAP1 POP SWAP2 SWAP1 POP JUMP JUMPDEST PUSH2 0x24BC DUP2 PUSH2 0x24A2 JUMP JUMPDEST DUP2 EQ PUSH2 0x24C6 JUMPI PUSH0 DUP1 REVERT JUMPDEST POP JUMP JUMPDEST PUSH0 DUP2 CALLDATALOAD SWAP1 POP PUSH2 0x24D7 DUP2 PUSH2 0x24B3 JUMP JUMPDEST SWAP3 SWAP2 POP POP JUMP JUMPDEST PUSH0 DUP2 SWAP1 POP SWAP2 SWAP1 POP JUMP JUMPDEST PUSH2 0x24EF DUP2 PUSH2 0x24DD JUMP JUMPDEST DUP2 EQ PUSH2 0x24F9 JUMPI PUSH0 DUP1 REVERT JUMPDEST POP JUMP JUMPDEST PUSH0 DUP2 CALLDATALOAD SWAP1 POP PUSH2 0x250A DUP2 PUSH2 0x24E6 JUMP JUMPDEST SWAP3 SWAP2 POP POP JUMP JUMPDEST PUSH0 DUP1 PUSH1 0x40 DUP4 DUP6 SUB SLT ISZERO PUSH2 0x2526 JUMPI PUSH2 0x2525 PUSH2 0x247F JUMP JUMPDEST JUMPDEST PUSH0 PUSH2 0x2533 DUP6 DUP3 DUP7 ADD PUSH2 0x24C9 JUMP JUMPDEST SWAP3 POP POP PUSH1 0x20 PUSH2 0x2544 DUP6 DUP3 DUP7 ADD PUSH2 0x24FC JUMP JUMPDEST SWAP2 POP POP SWAP3 POP SWAP3 SWAP1 POP JUMP JUMPDEST PUSH0 DUP2 ISZERO ISZERO SWAP1 POP SWAP2 SWAP1 POP JUMP JUMPDEST PUSH2 0x2562 DUP2 PUSH2 0x254E JUMP JUMPDEST DUP3 MSTORE POP POP JUMP JUMPDEST PUSH0 PUSH1 0x20 DUP3 ADD SWAP1 POP PUSH2 0x257B PUSH0 DUP4 ADD DUP5 PUSH2 0x2559 JUMP JUMPDEST SWAP3 SWAP2 POP POP JUMP JUMPDEST PUSH2 0x258A DUP2 PUSH2 0x24DD JUMP JUMPDEST DUP3 MSTORE POP POP JUMP JUMPDEST PUSH0 PUSH1 0x20 DUP3 ADD SWAP1 POP PUSH2 0x25A3 PUSH0 DUP4 ADD DUP5 PUSH2 0x2581 JUMP JUMPDEST SWAP3 SWAP2 POP POP JUMP JUMPDEST PUSH0 DUP1 PUSH0 PUSH1 0x60 DUP5 DUP7 SUB SLT ISZERO PUSH2 0x25C0 JUMPI PUSH2 0x25BF PUSH2 0x247F JUMP JUMPDEST JUMPDEST PUSH0 PUSH2 0x25CD DUP7 DUP3 DUP8 ADD PUSH2 0x24C9 JUMP JUMPDEST SWAP4 POP POP PUSH1 0x20 PUSH2 0x25DE DUP7 DUP3 DUP8 ADD PUSH2 0x24C9 JUMP JUMPDEST SWAP3 POP POP PUSH1 0x40 PUSH2 0x25EF DUP7 DUP3 DUP8 ADD PUSH2 0x24FC JUMP JUMPDEST SWAP2 POP POP SWAP3 POP SWAP3 POP SWAP3 JUMP JUMPDEST PUSH0 PUSH1 0x20 DUP3 DUP5 SUB SLT ISZERO PUSH2 0x260E JUMPI PUSH2 0x260D PUSH2 0x247F JUMP JUMPDEST JUMPDEST PUSH0 PUSH2 0x261B DUP5 DUP3 DUP6 ADD PUSH2 0x24FC JUMP JUMPDEST SWAP2 POP POP SWAP3 SWAP2 POP POP JUMP JUMPDEST PUSH0 PUSH1 0x20 DUP3 DUP5 SUB SLT ISZERO PUSH2 0x2639 JUMPI PUSH2 0x2638 PUSH2 0x247F JUMP JUMPDEST JUMPDEST PUSH0 PUSH2 0x2646 DUP5 DUP3 DUP6 ADD PUSH2 0x24C9 JUMP JUMPDEST SWAP2 POP POP SWAP3 SWAP2 POP POP JUMP JUMPDEST PUSH0 PUSH1 0xFF DUP3 AND SWAP1 POP SWAP2 SWAP1 POP JUMP JUMPDEST PUSH2 0x2664 DUP2 PUSH2 0x264F JUMP JUMPDEST DUP3 MSTORE POP POP JUMP JUMPDEST PUSH0 PUSH1 0x20 DUP3 ADD SWAP1 POP PUSH2 0x267D PUSH0 DUP4 ADD DUP5 PUSH2 0x265B JUMP JUMPDEST SWAP3 SWAP2 POP POP JUMP JUMPDEST PUSH2 0x268C DUP2 PUSH2 0x254E JUMP JUMPDEST DUP2 EQ PUSH2 0x2696 JUMPI PUSH0 DUP1 REVERT JUMPDEST POP JUMP JUMPDEST PUSH0 DUP2 CALLDATALOAD SWAP1 POP PUSH2 0x26A7 DUP2 PUSH2 0x2683 JUMP JUMPDEST SWAP3 SWAP2 POP POP JUMP JUMPDEST PUSH0 DUP1 PUSH1 0x40 DUP4 DUP6 SUB SLT ISZERO PUSH2 0x26C3 JUMPI PUSH2 0x26C2 PUSH2 0x247F JUMP JUMPDEST JUMPDEST PUSH0 PUSH2 0x26D0 DUP6 DUP3 DUP7 ADD PUSH2 0x24C9 JUMP JUMPDEST SWAP3 POP POP PUSH1 0x20 PUSH2 0x26E1 DUP6 DUP3 DUP7 ADD PUSH2 0x2699 JUMP JUMPDEST SWAP2 POP POP SWAP3 POP SWAP3 SWAP1 POP JUMP JUMPDEST PUSH2 0x26F4 DUP2 PUSH2 0x24A2 JUMP JUMPDEST DUP3 MSTORE POP POP JUMP JUMPDEST PUSH0 PUSH1 0x20 DUP3 ADD SWAP1 POP PUSH2 0x270D PUSH0 DUP4 ADD DUP5 PUSH2 0x26EB JUMP JUMPDEST SWAP3 SWAP2 POP POP JUMP JUMPDEST PUSH0 DUP1 PUSH1 0x40 DUP4 DUP6 SUB SLT ISZERO PUSH2 0x2729 JUMPI PUSH2 0x2728 PUSH2 0x247F JUMP JUMPDEST JUMPDEST PUSH0 PUSH2 0x2736 DUP6 DUP3 DUP7 ADD PUSH2 0x24C9 JUMP JUMPDEST SWAP3 POP POP PUSH1 0x20 PUSH2 0x2747 DUP6 DUP3 DUP7 ADD PUSH2 0x24C9 JUMP JUMPDEST SWAP2 POP POP SWAP3 POP SWAP3 SWAP1 POP JUMP JUMPDEST PUSH0 PUSH1 0x20 DUP3 DUP5 SUB SLT ISZERO PUSH2 0x2766 JUMPI PUSH2 0x2765 PUSH2 0x247F JUMP JUMPDEST JUMPDEST PUSH0 PUSH2 0x2773 DUP5 DUP3 DUP6 ADD PUSH2 0x2699 JUMP JUMPDEST SWAP2 POP POP SWAP3 SWAP2 POP POP JUMP JUMPDEST PUSH32 0x4E487B7100000000000000000000000000000000000000000000000000000000 PUSH0 MSTORE PUSH1 0x22 PUSH1 0x4 MSTORE PUSH1 0x24 PUSH0 REVERT JUMPDEST PUSH0 PUSH1 0x2 DUP3 DIV SWAP1 POP PUSH1 0x1 DUP3 AND DUP1 PUSH2 0x27C0 JUMPI PUSH1 0x7F DUP3 AND SWAP2 POP JUMPDEST PUSH1 0x20 DUP3 LT DUP2 SUB PUSH2 0x27D3 JUMPI PUSH2 0x27D2 PUSH2 0x277C JUMP JUMPDEST JUMPDEST POP SWAP2 SWAP1 POP JUMP JUMPDEST PUSH32 0x6F6E6C7920636F6E747261637420616464726573732C206E6F7420616C6C6F77 PUSH0 DUP3 ADD MSTORE PUSH32 0x6564206578746572616E6C6C79206F776E6564206163636F756E740000000000 PUSH1 0x20 DUP3 ADD MSTORE POP JUMP JUMPDEST PUSH0 PUSH2 0x2833 PUSH1 0x3B DUP4 PUSH2 0x23DF JUMP JUMPDEST SWAP2 POP PUSH2 0x283E DUP3 PUSH2 0x27D9 JUMP JUMPDEST PUSH1 0x40 DUP3 ADD SWAP1 POP SWAP2 SWAP1 POP JUMP JUMPDEST PUSH0 PUSH1 0x20 DUP3 ADD SWAP1 POP DUP2 DUP2 SUB PUSH0 DUP4 ADD MSTORE PUSH2 0x2860 DUP2 PUSH2 0x2827 JUMP JUMPDEST SWAP1 POP SWAP2 SWAP1 POP JUMP JUMPDEST PUSH32 0x696E5F626C61636B6C6973740000000000000000000000000000000000000000 PUSH0 DUP3 ADD MSTORE POP JUMP JUMPDEST PUSH0 PUSH2 0x289B PUSH1 0xC DUP4 PUSH2 0x23DF JUMP JUMPDEST SWAP2 POP PUSH2 0x28A6 DUP3 PUSH2 0x2867 JUMP JUMPDEST PUSH1 0x20 DUP3 ADD SWAP1 POP SWAP2 SWAP1 POP JUMP JUMPDEST PUSH0 PUSH1 0x20 DUP3 ADD SWAP1 POP DUP2 DUP2 SUB PUSH0 DUP4 ADD MSTORE PUSH2 0x28C8 DUP2 PUSH2 0x288F JUMP JUMPDEST SWAP1 POP SWAP2 SWAP1 POP JUMP JUMPDEST PUSH32 0x4E487B7100000000000000000000000000000000000000000000000000000000 PUSH0 MSTORE PUSH1 0x11 PUSH1 0x4 MSTORE PUSH1 0x24 PUSH0 REVERT JUMPDEST PUSH0 PUSH2 0x2906 DUP3 PUSH2 0x24DD JUMP JUMPDEST SWAP2 POP PUSH2 0x2911 DUP4 PUSH2 0x24DD JUMP JUMPDEST SWAP3 POP DUP3 DUP3 ADD SWAP1 POP DUP1 DUP3 GT ISZERO PUSH2 0x2929 JUMPI PUSH2 0x2928 PUSH2 0x28CF JUMP JUMPDEST JUMPDEST SWAP3 SWAP2 POP POP JUMP JUMPDEST PUSH0 PUSH2 0x2939 DUP3 PUSH2 0x24DD JUMP JUMPDEST SWAP2 POP PUSH2 0x2944 DUP4 PUSH2 0x24DD JUMP JUMPDEST SWAP3 POP DUP3 DUP3 SUB SWAP1 POP DUP2 DUP2 GT ISZERO PUSH2 0x295C JUMPI PUSH2 0x295B PUSH2 0x28CF JUMP JUMPDEST JUMPDEST SWAP3 SWAP2 POP POP JUMP JUMPDEST PUSH0 DUP2 PUSH1 0x1 SHR SWAP1 POP SWAP2 SWAP1 POP JUMP JUMPDEST PUSH0 DUP1 DUP3 SWAP2 POP DUP4 SWAP1 POP JUMPDEST PUSH1 0x1 DUP6 GT ISZERO PUSH2 0x29B7 JUMPI DUP1 DUP7 DIV DUP2 GT ISZERO PUSH2 0x2993 JUMPI PUSH2 0x2992 PUSH2 0x28CF JUMP JUMPDEST JUMPDEST PUSH1 0x1 DUP6 AND ISZERO PUSH2 0x29A2 JUMPI DUP1 DUP3 MUL SWAP2 POP JUMPDEST DUP1 DUP2 MUL SWAP1 POP PUSH2 0x29B0 DUP6 PUSH2 0x2962 JUMP JUMPDEST SWAP5 POP PUSH2 0x2977 JUMP JUMPDEST SWAP5 POP SWAP5 SWAP3 POP POP POP JUMP JUMPDEST PUSH0 DUP3 PUSH2 0x29CF JUMPI PUSH1 0x1 SWAP1 POP PUSH2 0x2A8A JUMP JUMPDEST DUP2 PUSH2 0x29DC JUMPI PUSH0 SWAP1 POP PUSH2 0x2A8A JUMP JUMPDEST DUP2 PUSH1 0x1 DUP2 EQ PUSH2 0x29F2 JUMPI PUSH1 0x2 DUP2 EQ PUSH2 0x29FC JUMPI PUSH2 0x2A2B JUMP JUMPDEST PUSH1 0x1 SWAP2 POP POP PUSH2 0x2A8A JUMP JUMPDEST PUSH1 0xFF DUP5 GT ISZERO PUSH2 0x2A0E JUMPI PUSH2 0x2A0D PUSH2 0x28CF JUMP JUMPDEST JUMPDEST DUP4 PUSH1 0x2 EXP SWAP2 POP DUP5 DUP3 GT ISZERO PUSH2 0x2A25 JUMPI PUSH2 0x2A24 PUSH2 0x28CF JUMP JUMPDEST JUMPDEST POP PUSH2 0x2A8A JUMP JUMPDEST POP PUSH1 0x20 DUP4 LT PUSH2 0x133 DUP4 LT AND PUSH1 0x4E DUP5 LT PUSH1 0xB DUP5 LT AND OR ISZERO PUSH2 0x2A60 JUMPI DUP3 DUP3 EXP SWAP1 POP DUP4 DUP2 GT ISZERO PUSH2 0x2A5B JUMPI PUSH2 0x2A5A PUSH2 0x28CF JUMP JUMPDEST JUMPDEST PUSH2 0x2A8A JUMP JUMPDEST PUSH2 0x2A6D DUP5 DUP5 DUP5 PUSH1 0x1 PUSH2 0x296E JUMP JUMPDEST SWAP3 POP SWAP1 POP DUP2 DUP5 DIV DUP2 GT ISZERO PUSH2 0x2A84 JUMPI PUSH2 0x2A83 PUSH2 0x28CF JUMP JUMPDEST JUMPDEST DUP2 DUP2 MUL SWAP1 POP JUMPDEST SWAP4 SWAP3 POP POP POP JUMP JUMPDEST PUSH0 PUSH2 0x2A9B DUP3 PUSH2 0x24DD JUMP JUMPDEST SWAP2 POP PUSH2 0x2AA6 DUP4 PUSH2 0x264F JUMP JUMPDEST SWAP3 POP PUSH2 0x2AD3 PUSH32 0xFFFFFFFFFFFFFFFFFFFFFFFFFFFFFFFFFFFFFFFFFFFFFFFFFFFFFFFFFFFFFFFF DUP5 DUP5 PUSH2 0x29C0 JUMP JUMPDEST SWAP1 POP SWAP3 SWAP2 POP POP JUMP JUMPDEST PUSH0 PUSH2 0x2AE5 DUP3 PUSH2 0x24DD JUMP JUMPDEST SWAP2 POP PUSH2 0x2AF0 DUP4 PUSH2 0x24DD JUMP JUMPDEST SWAP3 POP DUP3 DUP3 MUL PUSH2 0x2AFE DUP2 PUSH2 0x24DD JUMP JUMPDEST SWAP2 POP DUP3 DUP3 DIV DUP5 EQ DUP4 ISZERO OR PUSH2 0x2B15 JUMPI PUSH2 0x2B14 PUSH2 0x28CF JUMP JUMPDEST JUMPDEST POP SWAP3 SWAP2 POP POP JUMP JUMPDEST PUSH32 0x4E487B7100000000000000000000000000000000000000000000000000000000 PUSH0 MSTORE PUSH1 0x32 PUSH1 0x4 MSTORE PUSH1 0x24 PUSH0 REVERT JUMPDEST PUSH32 0x4E487B7100000000000000000000000000000000000000000000000000000000 PUSH0 MSTORE PUSH1 0x12 PUSH1 0x4 MSTORE PUSH1 0x24 PUSH0 REVERT JUMPDEST PUSH0 PUSH2 0x2B80 DUP3 PUSH2 0x24DD JUMP JUMPDEST SWAP2 POP PUSH2 0x2B8B DUP4 PUSH2 0x24DD JUMP JUMPDEST SWAP3 POP DUP3 PUSH2 0x2B9B JUMPI PUSH2 0x2B9A PUSH2 0x2B49 JUMP JUMPDEST JUMPDEST DUP3 DUP3 DIV SWAP1 POP SWAP3 SWAP2 POP POP JUMP INVALID LOG2 PUSH5 0x6970667358 0x22 SLT KECCAK256 PUSH19 0xF40169768F23E84C18200DF85E8F8C59E161E6 0xC4 PUSH22 0x496A6FF5EFA2A6C016B264736F6C6343000818003300 "
				},
				"gasEstimates": {
					"creation": {
						"codeDepositCost": "2245600",
						"executionCost": "infinite",
						"totalCost": "infinite"
					},
					"external": {
						"_autoRebase()": "2555",
						"_blacklist(address)": "2922",
						"_distributionInterval()": "2536",
						"_feePercent()": "2470",
						"_initComplete()": "2578",
						"_initRebaseStartTime()": "2492",
						"_lastRebasedTime()": "2471",
						"_totalSupply()": "2537",
						"allowance(address,address)": "infinite",
						"approve(address,uint256)": "infinite",
						"balanceOf(address)": "2896",
						"checkFeeExempt(address)": "2914",
						"decimals()": "2563",
						"decreaseAllowance(address,uint256)": "infinite",
						"increaseAllowance(address,uint256)": "infinite",
						"isNotInSwap()": "2573",
						"isOwner()": "2653",
						"manualSync()": "infinite",
						"name()": "infinite",
						"owner()": "2656",
						"renounceOwnership()": "30149",
						"setAutoRebase(bool)": "49159",
						"setBotBlacklist(address,bool)": "29979",
						"setDistributeInterval(uint256)": "24815",
						"setFeePercentage(uint256)": "24836",
						"setLP(address)": "27037",
						"setWhitelist(address)": "27125",
						"symbol()": "infinite",
						"totalSupply()": "2523",
						"transfer(address,uint256)": "infinite",
						"transferFrom(address,address,uint256)": "infinite",
						"transferOwnership(address)": "30924"
					},
					"internal": {
						"_basicTransfer(address,address,uint256)": "infinite",
						"_distribute()": "infinite",
						"_rebase()": "infinite",
						"_takeFee(address,uint256)": "infinite",
						"_transferFrom(address,address,uint256)": "infinite"
					}
				},
				"methodIdentifiers": {
					"_autoRebase()": "afb9cf6d",
					"_blacklist(address)": "a20623ce",
					"_distributionInterval()": "c737a49b",
					"_feePercent()": "69222948",
					"_initComplete()": "31b216ed",
					"_initRebaseStartTime()": "9b87676c",
					"_lastRebasedTime()": "32b75683",
					"_totalSupply()": "3eaaf86b",
					"allowance(address,address)": "dd62ed3e",
					"approve(address,uint256)": "095ea7b3",
					"balanceOf(address)": "70a08231",
					"checkFeeExempt(address)": "d4399790",
					"decimals()": "313ce567",
					"decreaseAllowance(address,uint256)": "a457c2d7",
					"increaseAllowance(address,uint256)": "39509351",
					"isNotInSwap()": "83b4ac68",
					"isOwner()": "8f32d59b",
					"manualSync()": "753d02a1",
					"name()": "06fdde03",
					"owner()": "8da5cb5b",
					"renounceOwnership()": "715018a6",
					"setAutoRebase(bool)": "e15beb80",
					"setBotBlacklist(address,bool)": "37c9be87",
					"setDistributeInterval(uint256)": "2910164a",
					"setFeePercentage(uint256)": "ae06c1b7",
					"setLP(address)": "2f34d282",
					"setWhitelist(address)": "854cff2f",
					"symbol()": "95d89b41",
					"totalSupply()": "18160ddd",
					"transfer(address,uint256)": "a9059cbb",
					"transferFrom(address,address,uint256)": "23b872dd",
					"transferOwnership(address)": "f2fde38b"
				}
			},
			"storageLayout": {
				"storage": [
					{
						"astId": 1290,
						"contract": "contracts/BOMB_flattened.sol:BOMB",
						"label": "_name",
						"offset": 0,
						"slot": "0",
						"type": "t_string_storage"
					},
					{
						"astId": 1292,
						"contract": "contracts/BOMB_flattened.sol:BOMB",
						"label": "_symbol",
						"offset": 0,
						"slot": "1",
						"type": "t_string_storage"
					},
					{
						"astId": 1294,
						"contract": "contracts/BOMB_flattened.sol:BOMB",
						"label": "_decimals",
						"offset": 0,
						"slot": "2",
						"type": "t_uint8"
					},
					{
						"astId": 1344,
						"contract": "contracts/BOMB_flattened.sol:BOMB",
						"label": "_owner",
						"offset": 1,
						"slot": "2",
						"type": "t_address"
					},
					{
						"astId": 1509,
						"contract": "contracts/BOMB_flattened.sol:BOMB",
						"label": "_feePercent",
						"offset": 0,
						"slot": "3",
						"type": "t_uint256"
					},
					{
						"astId": 1512,
						"contract": "contracts/BOMB_flattened.sol:BOMB",
						"label": "_distributionInterval",
						"offset": 0,
						"slot": "4",
						"type": "t_uint256"
					},
					{
						"astId": 1514,
						"contract": "contracts/BOMB_flattened.sol:BOMB",
						"label": "_autoRebase",
						"offset": 0,
						"slot": "5",
						"type": "t_bool"
					},
					{
						"astId": 1516,
						"contract": "contracts/BOMB_flattened.sol:BOMB",
						"label": "_initRebaseStartTime",
						"offset": 0,
						"slot": "6",
						"type": "t_uint256"
					},
					{
						"astId": 1518,
						"contract": "contracts/BOMB_flattened.sol:BOMB",
						"label": "_lastRebasedTime",
						"offset": 0,
						"slot": "7",
						"type": "t_uint256"
					},
					{
						"astId": 1520,
						"contract": "contracts/BOMB_flattened.sol:BOMB",
						"label": "_totalSupply",
						"offset": 0,
						"slot": "8",
						"type": "t_uint256"
					},
					{
						"astId": 1522,
						"contract": "contracts/BOMB_flattened.sol:BOMB",
						"label": "_lastDistribution",
						"offset": 0,
						"slot": "9",
						"type": "t_uint256"
					},
					{
						"astId": 1524,
						"contract": "contracts/BOMB_flattened.sol:BOMB",
						"label": "_initComplete",
						"offset": 0,
						"slot": "10",
						"type": "t_bool"
					},
					{
						"astId": 1528,
						"contract": "contracts/BOMB_flattened.sol:BOMB",
						"label": "_balances",
						"offset": 0,
						"slot": "11",
						"type": "t_mapping(t_address,t_uint256)"
					},
					{
						"astId": 1532,
						"contract": "contracts/BOMB_flattened.sol:BOMB",
						"label": "_isHolder",
						"offset": 0,
						"slot": "12",
						"type": "t_mapping(t_address,t_bool)"
					},
					{
						"astId": 1536,
						"contract": "contracts/BOMB_flattened.sol:BOMB",
						"label": "_isFeeExempt",
						"offset": 0,
						"slot": "13",
						"type": "t_mapping(t_address,t_bool)"
					},
					{
						"astId": 1540,
						"contract": "contracts/BOMB_flattened.sol:BOMB",
						"label": "_blacklist",
						"offset": 0,
						"slot": "14",
						"type": "t_mapping(t_address,t_bool)"
					},
					{
						"astId": 1543,
						"contract": "contracts/BOMB_flattened.sol:BOMB",
						"label": "_holders",
						"offset": 0,
						"slot": "15",
						"type": "t_array(t_address)dyn_storage"
					},
					{
						"astId": 1546,
						"contract": "contracts/BOMB_flattened.sol:BOMB",
						"label": "_router",
						"offset": 0,
						"slot": "16",
						"type": "t_contract(IPancakeSwapRouter)1130"
					},
					{
						"astId": 1549,
						"contract": "contracts/BOMB_flattened.sol:BOMB",
						"label": "_pair",
						"offset": 0,
						"slot": "17",
						"type": "t_contract(IPancakeSwapPair)742"
					},
					{
						"astId": 1552,
						"contract": "contracts/BOMB_flattened.sol:BOMB",
						"label": "_inSwap",
						"offset": 20,
						"slot": "17",
						"type": "t_bool"
					},
					{
						"astId": 1958,
						"contract": "contracts/BOMB_flattened.sol:BOMB",
						"label": "_allowedFragments",
						"offset": 0,
						"slot": "18",
						"type": "t_mapping(t_address,t_mapping(t_address,t_uint256))"
					}
				],
				"types": {
					"t_address": {
						"encoding": "inplace",
						"label": "address",
						"numberOfBytes": "20"
					},
					"t_array(t_address)dyn_storage": {
						"base": "t_address",
						"encoding": "dynamic_array",
						"label": "address[]",
						"numberOfBytes": "32"
					},
					"t_bool": {
						"encoding": "inplace",
						"label": "bool",
						"numberOfBytes": "1"
					},
					"t_contract(IPancakeSwapPair)742": {
						"encoding": "inplace",
						"label": "contract IPancakeSwapPair",
						"numberOfBytes": "20"
					},
					"t_contract(IPancakeSwapRouter)1130": {
						"encoding": "inplace",
						"label": "contract IPancakeSwapRouter",
						"numberOfBytes": "20"
					},
					"t_mapping(t_address,t_bool)": {
						"encoding": "mapping",
						"key": "t_address",
						"label": "mapping(address => bool)",
						"numberOfBytes": "32",
						"value": "t_bool"
					},
					"t_mapping(t_address,t_mapping(t_address,t_uint256))": {
						"encoding": "mapping",
						"key": "t_address",
						"label": "mapping(address => mapping(address => uint256))",
						"numberOfBytes": "32",
						"value": "t_mapping(t_address,t_uint256)"
					},
					"t_mapping(t_address,t_uint256)": {
						"encoding": "mapping",
						"key": "t_address",
						"label": "mapping(address => uint256)",
						"numberOfBytes": "32",
						"value": "t_uint256"
					},
					"t_string_storage": {
						"encoding": "bytes",
						"label": "string",
						"numberOfBytes": "32"
					},
					"t_uint256": {
						"encoding": "inplace",
						"label": "uint256",
						"numberOfBytes": "32"
					},
					"t_uint8": {
						"encoding": "inplace",
						"label": "uint8",
						"numberOfBytes": "1"
					}
				}
			},
			"userdoc": {
				"kind": "user",
				"methods": {},
				"version": 1
			}
		}
	}
}