{
	"contracts/BlastFurnace.sol": {
		"BlastFurnace": {
			"abi": [
				{
					"inputs": [],
					"stateMutability": "nonpayable",
					"type": "constructor"
				},
				{
					"anonymous": false,
					"inputs": [
						{
							"indexed": false,
							"internalType": "address",
							"name": "recipient",
							"type": "address"
						},
						{
							"indexed": false,
							"internalType": "uint256",
							"name": "amount",
							"type": "uint256"
						}
					],
					"name": "NativeTransfer",
					"type": "event"
				},
				{
					"anonymous": false,
					"inputs": [
						{
							"indexed": true,
							"internalType": "address",
							"name": "previousOwner",
							"type": "address"
						}
					],
					"name": "OwnershipRenounced",
					"type": "event"
				},
				{
					"anonymous": false,
					"inputs": [
						{
							"indexed": true,
							"internalType": "address",
							"name": "previousOwner",
							"type": "address"
						},
						{
							"indexed": true,
							"internalType": "address",
							"name": "newOwner",
							"type": "address"
						}
					],
					"name": "OwnershipTransferred",
					"type": "event"
				},
				{
					"inputs": [],
					"name": "BLAST",
					"outputs": [
						{
							"internalType": "contract IBlast",
							"name": "",
							"type": "address"
						}
					],
					"stateMutability": "view",
					"type": "function"
				},
				{
					"inputs": [],
					"name": "_blastClaimInterval",
					"outputs": [
						{
							"internalType": "uint256",
							"name": "",
							"type": "uint256"
						}
					],
					"stateMutability": "view",
					"type": "function"
				},
				{
					"inputs": [
						{
							"internalType": "uint256",
							"name": "",
							"type": "uint256"
						}
					],
					"name": "airdropQualifiers",
					"outputs": [
						{
							"internalType": "address",
							"name": "",
							"type": "address"
						}
					],
					"stateMutability": "view",
					"type": "function"
				},
				{
					"inputs": [
						{
							"internalType": "address",
							"name": "ref",
							"type": "address"
						}
					],
					"name": "buyIngots",
					"outputs": [],
					"stateMutability": "payable",
					"type": "function"
				},
				{
					"inputs": [
						{
							"internalType": "uint256",
							"name": "eth",
							"type": "uint256"
						},
						{
							"internalType": "uint256",
							"name": "contractBalance",
							"type": "uint256"
						}
					],
					"name": "calculateIngotBuy",
					"outputs": [
						{
							"internalType": "uint256",
							"name": "",
							"type": "uint256"
						}
					],
					"stateMutability": "view",
					"type": "function"
				},
				{
					"inputs": [
						{
							"internalType": "uint256",
							"name": "eth",
							"type": "uint256"
						}
					],
					"name": "calculateIngotBuySimple",
					"outputs": [
						{
							"internalType": "uint256",
							"name": "",
							"type": "uint256"
						}
					],
					"stateMutability": "view",
					"type": "function"
				},
				{
					"inputs": [
						{
							"internalType": "uint256",
							"name": "ingots",
							"type": "uint256"
						}
					],
					"name": "calculateIngotSell",
					"outputs": [
						{
							"internalType": "uint256",
							"name": "",
							"type": "uint256"
						}
					],
					"stateMutability": "view",
					"type": "function"
				},
				{
					"inputs": [],
					"name": "claimMyGasFees",
					"outputs": [],
					"stateMutability": "nonpayable",
					"type": "function"
				},
				{
					"inputs": [
						{
							"internalType": "address",
							"name": "adr",
							"type": "address"
						}
					],
					"name": "furnaceRewards",
					"outputs": [
						{
							"internalType": "uint256",
							"name": "",
							"type": "uint256"
						}
					],
					"stateMutability": "view",
					"type": "function"
				},
				{
					"inputs": [],
					"name": "getBalance",
					"outputs": [
						{
							"internalType": "uint256",
							"name": "",
							"type": "uint256"
						}
					],
					"stateMutability": "view",
					"type": "function"
				},
				{
					"inputs": [
						{
							"internalType": "address",
							"name": "adr",
							"type": "address"
						}
					],
					"name": "getIngotsSinceLastHatch",
					"outputs": [
						{
							"internalType": "uint256",
							"name": "",
							"type": "uint256"
						}
					],
					"stateMutability": "view",
					"type": "function"
				},
				{
					"inputs": [
						{
							"internalType": "address",
							"name": "adr",
							"type": "address"
						}
					],
					"name": "getMyIngots",
					"outputs": [
						{
							"internalType": "uint256",
							"name": "",
							"type": "uint256"
						}
					],
					"stateMutability": "view",
					"type": "function"
				},
				{
					"inputs": [
						{
							"internalType": "address",
							"name": "adr",
							"type": "address"
						}
					],
					"name": "getMyMiners",
					"outputs": [
						{
							"internalType": "uint256",
							"name": "",
							"type": "uint256"
						}
					],
					"stateMutability": "view",
					"type": "function"
				},
				{
					"inputs": [
						{
							"internalType": "address",
							"name": "ref",
							"type": "address"
						}
					],
					"name": "hatchIngots",
					"outputs": [],
					"stateMutability": "nonpayable",
					"type": "function"
				},
				{
					"inputs": [],
					"name": "isOwner",
					"outputs": [
						{
							"internalType": "bool",
							"name": "",
							"type": "bool"
						}
					],
					"stateMutability": "view",
					"type": "function"
				},
				{
					"inputs": [],
					"name": "owner",
					"outputs": [
						{
							"internalType": "address",
							"name": "",
							"type": "address"
						}
					],
					"stateMutability": "view",
					"type": "function"
				},
				{
					"inputs": [],
					"name": "renounceOwnership",
					"outputs": [],
					"stateMutability": "nonpayable",
					"type": "function"
				},
				{
					"inputs": [],
					"name": "seedMarket",
					"outputs": [],
					"stateMutability": "payable",
					"type": "function"
				},
				{
					"inputs": [],
					"name": "sellIngots",
					"outputs": [],
					"stateMutability": "nonpayable",
					"type": "function"
				},
				{
					"inputs": [
						{
							"internalType": "uint256",
							"name": "interval",
							"type": "uint256"
						}
					],
					"name": "setBlastClaimInterval",
					"outputs": [],
					"stateMutability": "nonpayable",
					"type": "function"
				},
				{
					"inputs": [
						{
							"internalType": "address",
							"name": "blastAddr",
							"type": "address"
						}
					],
					"name": "setupBlast",
					"outputs": [],
					"stateMutability": "nonpayable",
					"type": "function"
				},
				{
					"inputs": [
						{
							"internalType": "address",
							"name": "newOwner",
							"type": "address"
						}
					],
					"name": "transferOwnership",
					"outputs": [],
					"stateMutability": "nonpayable",
					"type": "function"
				}
			],
			"devdoc": {
				"kind": "dev",
				"methods": {},
				"version": 1
			},
			"evm": {
				"assembly": "    /* \"contracts/BlastFurnace.sol\":1797:6996  contract BlastFurnace is BlastClaimable, NativeTransferable {... */\n  mstore(0x40, 0x80)\n    /* \"contracts/BlastClaimable.sol\":410:416  1 days */\n  0x015180\n    /* \"contracts/BlastClaimable.sol\":373:416  uint256 public _blastClaimInterval = 1 days */\n  0x03\n  sstore\n    /* \"contracts/BlastFurnace.sol\":1935:1942  1080000 */\n  0x107ac0\n    /* \"contracts/BlastFurnace.sol\":1893:1942  uint256 private INGOTS_TO_HATCH_1MINERS = 1080000 */\n  0x05\n  sstore\n    /* \"contracts/BlastFurnace.sol\":2015:2020  10000 */\n  0x2710\n    /* \"contracts/BlastFurnace.sol\":1993:2020  uint256 private PSN = 10000 */\n  0x06\n  sstore\n    /* \"contracts/BlastFurnace.sol\":2047:2051  5000 */\n  0x1388\n    /* \"contracts/BlastFurnace.sol\":2024:2051  uint256 private PSNH = 5000 */\n  0x07\n  sstore\n    /* \"contracts/BlastFurnace.sol\":2083:2084  3 */\n  0x03\n    /* \"contracts/BlastFurnace.sol\":2055:2084  uint256 private devFeeVal = 3 */\n  0x08\n  sstore\n    /* \"contracts/BlastFurnace.sol\":2115:2120  false */\n  0x00\n    /* \"contracts/BlastFurnace.sol\":2088:2120  bool private initialized = false */\n  0x09\n  exp(0x0100, 0x00)\n  dup2\n  sload\n  dup2\n  0xff\n  mul\n  not\n  and\n  swap1\n  dup4\n  iszero\n  iszero\n  mul\n  or\n  swap1\n  sstore\n  pop\n    /* \"contracts/BlastFurnace.sol\":2569:2621  constructor() {... */\n  callvalue\n  dup1\n  iszero\n  tag_1\n  jumpi\n  0x00\n  dup1\n  revert\ntag_1:\n  pop\n    /* \"contracts/Ownable.sol\":288:298  msg.sender */\n  caller\n    /* \"contracts/Ownable.sol\":279:285  _owner */\n  0x00\n  dup1\n    /* \"contracts/Ownable.sol\":279:298  _owner = msg.sender */\n  0x0100\n  exp\n  dup2\n  sload\n  dup2\n  0xffffffffffffffffffffffffffffffffffffffff\n  mul\n  not\n  and\n  swap1\n  dup4\n  0xffffffffffffffffffffffffffffffffffffffff\n  and\n  mul\n  or\n  swap1\n  sstore\n  pop\n    /* \"contracts/BlastFurnace.sol\":2605:2615  msg.sender */\n  caller\n    /* \"contracts/BlastFurnace.sol\":2588:2594  recAdd */\n  0x09\n  0x01\n    /* \"contracts/BlastFurnace.sol\":2588:2616  recAdd = payable(msg.sender) */\n  0x0100\n  exp\n  dup2\n  sload\n  dup2\n  0xffffffffffffffffffffffffffffffffffffffff\n  mul\n  not\n  and\n  swap1\n  dup4\n  0xffffffffffffffffffffffffffffffffffffffff\n  and\n  mul\n  or\n  swap1\n  sstore\n  pop\n    /* \"contracts/BlastFurnace.sol\":1797:6996  contract BlastFurnace is BlastClaimable, NativeTransferable {... */\n  dataSize(sub_0)\n  dup1\n  dataOffset(sub_0)\n  0x00\n  codecopy\n  0x00\n  return\nstop\n\nsub_0: assembly {\n        /* \"contracts/BlastFurnace.sol\":1797:6996  contract BlastFurnace is BlastClaimable, NativeTransferable {... */\n      mstore(0x40, 0x80)\n      jumpi(tag_1, lt(calldatasize, 0x04))\n      shr(0xe0, calldataload(0x00))\n      dup1\n      0x8da5cb5b\n      gt\n      tag_24\n      jumpi\n      dup1\n      0xe5d782fc\n      gt\n      tag_25\n      jumpi\n      dup1\n      0xe5d782fc\n      eq\n      tag_18\n      jumpi\n      dup1\n      0xe953f982\n      eq\n      tag_19\n      jumpi\n      dup1\n      0xeaca243b\n      eq\n      tag_20\n      jumpi\n      dup1\n      0xf2e809e0\n      eq\n      tag_21\n      jumpi\n      dup1\n      0xf2fde38b\n      eq\n      tag_22\n      jumpi\n      dup1\n      0xfeeea92e\n      eq\n      tag_23\n      jumpi\n      jump(tag_1)\n    tag_25:\n      dup1\n      0x8da5cb5b\n      eq\n      tag_13\n      jumpi\n      dup1\n      0x8f32d59b\n      eq\n      tag_14\n      jumpi\n      dup1\n      0x97d75776\n      eq\n      tag_15\n      jumpi\n      dup1\n      0xb18a2f82\n      eq\n      tag_16\n      jumpi\n      dup1\n      0xc2a6856f\n      eq\n      tag_17\n      jumpi\n      jump(tag_1)\n    tag_24:\n      dup1\n      0x450c9d7d\n      gt\n      tag_26\n      jumpi\n      dup1\n      0x450c9d7d\n      eq\n      tag_7\n      jumpi\n      dup1\n      0x4addc0e8\n      eq\n      tag_8\n      jumpi\n      dup1\n      0x4b634b06\n      eq\n      tag_9\n      jumpi\n      dup1\n      0x53e3323b\n      eq\n      tag_10\n      jumpi\n      dup1\n      0x715018a6\n      eq\n      tag_11\n      jumpi\n      dup1\n      0x7a571ae1\n      eq\n      tag_12\n      jumpi\n      jump(tag_1)\n    tag_26:\n      dup1\n      0x012d754c\n      eq\n      tag_2\n      jumpi\n      dup1\n      0x12065fe0\n      eq\n      tag_3\n      jumpi\n      dup1\n      0x23084e5f\n      eq\n      tag_4\n      jumpi\n      dup1\n      0x2cf4f274\n      eq\n      tag_5\n      jumpi\n      dup1\n      0x3c5f07cb\n      eq\n      tag_6\n      jumpi\n    tag_1:\n      0x00\n      dup1\n      revert\n        /* \"contracts/BlastFurnace.sol\":3630:4053  function sellIngots() public {... */\n    tag_2:\n      callvalue\n      dup1\n      iszero\n      tag_27\n      jumpi\n      0x00\n      dup1\n      revert\n    tag_27:\n      pop\n      tag_28\n      tag_29\n      jump\t// in\n    tag_28:\n      stop\n        /* \"contracts/BlastFurnace.sol\":5849:5939  function getBalance() public view returns (uint256) {... */\n    tag_3:\n      callvalue\n      dup1\n      iszero\n      tag_30\n      jumpi\n      0x00\n      dup1\n      revert\n    tag_30:\n      pop\n      tag_31\n      tag_32\n      jump\t// in\n    tag_31:\n      mload(0x40)\n      tag_33\n      swap2\n      swap1\n      tag_34\n      jump\t// in\n    tag_33:\n      mload(0x40)\n      dup1\n      swap2\n      sub\n      swap1\n      return\n        /* \"contracts/BlastClaimable.sol\":455:866  function claimMyGasFees() external {... */\n    tag_4:\n      callvalue\n      dup1\n      iszero\n      tag_35\n      jumpi\n      0x00\n      dup1\n      revert\n    tag_35:\n      pop\n      tag_36\n      tag_37\n      jump\t// in\n    tag_36:\n      stop\n        /* \"contracts/BlastFurnace.sol\":6049:6192  function getMyIngots(address adr) public view returns (uint256) {... */\n    tag_5:\n      callvalue\n      dup1\n      iszero\n      tag_38\n      jumpi\n      0x00\n      dup1\n      revert\n    tag_38:\n      pop\n      tag_39\n      0x04\n      dup1\n      calldatasize\n      sub\n      dup2\n      add\n      swap1\n      tag_40\n      swap2\n      swap1\n      tag_41\n      jump\t// in\n    tag_40:\n      tag_42\n      jump\t// in\n    tag_39:\n      mload(0x40)\n      tag_43\n      swap2\n      swap1\n      tag_34\n      jump\t// in\n    tag_43:\n      mload(0x40)\n      dup1\n      swap2\n      sub\n      swap1\n      return\n        /* \"contracts/BlastFurnace.sol\":5706:5844  function seedMarket() public payable onlyOwner {... */\n    tag_6:\n      tag_44\n      tag_45\n      jump\t// in\n    tag_44:\n      stop\n        /* \"contracts/BlastFurnace.sol\":4058:4248  function furnaceRewards(address adr) public view returns (uint256) {... */\n    tag_7:\n      callvalue\n      dup1\n      iszero\n      tag_46\n      jumpi\n      0x00\n      dup1\n      revert\n    tag_46:\n      pop\n      tag_47\n      0x04\n      dup1\n      calldatasize\n      sub\n      dup2\n      add\n      swap1\n      tag_48\n      swap2\n      swap1\n      tag_41\n      jump\t// in\n    tag_48:\n      tag_49\n      jump\t// in\n    tag_47:\n      mload(0x40)\n      tag_50\n      swap2\n      swap1\n      tag_34\n      jump\t// in\n    tag_50:\n      mload(0x40)\n      dup1\n      swap2\n      sub\n      swap1\n      return\n        /* \"contracts/BlastClaimable.sol\":373:416  uint256 public _blastClaimInterval = 1 days */\n    tag_8:\n      callvalue\n      dup1\n      iszero\n      tag_51\n      jumpi\n      0x00\n      dup1\n      revert\n    tag_51:\n      pop\n      tag_52\n      tag_53\n      jump\t// in\n    tag_52:\n      mload(0x40)\n      tag_54\n      swap2\n      swap1\n      tag_34\n      jump\t// in\n    tag_54:\n      mload(0x40)\n      dup1\n      swap2\n      sub\n      swap1\n      return\n        /* \"contracts/BlastFurnace.sol\":5944:6044  function getMyMiners(address adr) public view returns (uint256) {... */\n    tag_9:\n      callvalue\n      dup1\n      iszero\n      tag_55\n      jumpi\n      0x00\n      dup1\n      revert\n    tag_55:\n      pop\n      tag_56\n      0x04\n      dup1\n      calldatasize\n      sub\n      dup2\n      add\n      swap1\n      tag_57\n      swap2\n      swap1\n      tag_41\n      jump\t// in\n    tag_57:\n      tag_58\n      jump\t// in\n    tag_56:\n      mload(0x40)\n      tag_59\n      swap2\n      swap1\n      tag_34\n      jump\t// in\n    tag_59:\n      mload(0x40)\n      dup1\n      swap2\n      sub\n      swap1\n      return\n        /* \"contracts/BlastFurnace.sol\":2395:2429  address[] public airdropQualifiers */\n    tag_10:\n      callvalue\n      dup1\n      iszero\n      tag_60\n      jumpi\n      0x00\n      dup1\n      revert\n    tag_60:\n      pop\n      tag_61\n      0x04\n      dup1\n      calldatasize\n      sub\n      dup2\n      add\n      swap1\n      tag_62\n      swap2\n      swap1\n      tag_63\n      jump\t// in\n    tag_62:\n      tag_64\n      jump\t// in\n    tag_61:\n      mload(0x40)\n      tag_65\n      swap2\n      swap1\n      tag_66\n      jump\t// in\n    tag_65:\n      mload(0x40)\n      dup1\n      swap2\n      sub\n      swap1\n      return\n        /* \"contracts/Ownable.sol\":531:642  function renounceOwnership() public onlyOwner {... */\n    tag_11:\n      callvalue\n      dup1\n      iszero\n      tag_67\n      jumpi\n      0x00\n      dup1\n      revert\n    tag_67:\n      pop\n      tag_68\n      tag_69\n      jump\t// in\n    tag_68:\n      stop\n        /* \"contracts/BlastFurnace.sol\":5261:5423  function calculateIngotBuy(uint256 eth, uint256 contractBalance) public view returns (uint256) {... */\n    tag_12:\n      callvalue\n      dup1\n      iszero\n      tag_70\n      jumpi\n      0x00\n      dup1\n      revert\n    tag_70:\n      pop\n      tag_71\n      0x04\n      dup1\n      calldatasize\n      sub\n      dup2\n      add\n      swap1\n      tag_72\n      swap2\n      swap1\n      tag_73\n      jump\t// in\n    tag_72:\n      tag_74\n      jump\t// in\n    tag_71:\n      mload(0x40)\n      tag_75\n      swap2\n      swap1\n      tag_34\n      jump\t// in\n    tag_75:\n      mload(0x40)\n      dup1\n      swap2\n      sub\n      swap1\n      return\n        /* \"contracts/Ownable.sol\":308:378  function owner() public view returns (address) {... */\n    tag_13:\n      callvalue\n      dup1\n      iszero\n      tag_76\n      jumpi\n      0x00\n      dup1\n      revert\n    tag_76:\n      pop\n      tag_77\n      tag_78\n      jump\t// in\n    tag_77:\n      mload(0x40)\n      tag_79\n      swap2\n      swap1\n      tag_66\n      jump\t// in\n    tag_79:\n      mload(0x40)\n      dup1\n      swap2\n      sub\n      swap1\n      return\n        /* \"contracts/Ownable.sol\":443:526  function isOwner() public view returns (bool) {... */\n    tag_14:\n      callvalue\n      dup1\n      iszero\n      tag_80\n      jumpi\n      0x00\n      dup1\n      revert\n    tag_80:\n      pop\n      tag_81\n      tag_82\n      jump\t// in\n    tag_81:\n      mload(0x40)\n      tag_83\n      swap2\n      swap1\n      tag_84\n      jump\t// in\n    tag_83:\n      mload(0x40)\n      dup1\n      swap2\n      sub\n      swap1\n      return\n        /* \"contracts/BlastClaimable.sol\":301:320  IBlast public BLAST */\n    tag_15:\n      callvalue\n      dup1\n      iszero\n      tag_85\n      jumpi\n      0x00\n      dup1\n      revert\n    tag_85:\n      pop\n      tag_86\n      tag_87\n      jump\t// in\n    tag_86:\n      mload(0x40)\n      tag_88\n      swap2\n      swap1\n      tag_89\n      jump\t// in\n    tag_88:\n      mload(0x40)\n      dup1\n      swap2\n      sub\n      swap1\n      return\n        /* \"contracts/BlastFurnace.sol\":5106:5256  function calculateIngotSell(uint256 ingots) public view returns (uint256) {... */\n    tag_16:\n      callvalue\n      dup1\n      iszero\n      tag_90\n      jumpi\n      0x00\n      dup1\n      revert\n    tag_90:\n      pop\n      tag_91\n      0x04\n      dup1\n      calldatasize\n      sub\n      dup2\n      add\n      swap1\n      tag_92\n      swap2\n      swap1\n      tag_63\n      jump\t// in\n    tag_92:\n      tag_93\n      jump\t// in\n    tag_91:\n      mload(0x40)\n      tag_94\n      swap2\n      swap1\n      tag_34\n      jump\t// in\n    tag_94:\n      mload(0x40)\n      dup1\n      swap2\n      sub\n      swap1\n      return\n        /* \"contracts/BlastFurnace.sol\":6197:6442  function getIngotsSinceLastHatch(address adr) public view returns (uint256) {... */\n    tag_17:\n      callvalue\n      dup1\n      iszero\n      tag_95\n      jumpi\n      0x00\n      dup1\n      revert\n    tag_95:\n      pop\n      tag_96\n      0x04\n      dup1\n      calldatasize\n      sub\n      dup2\n      add\n      swap1\n      tag_97\n      swap2\n      swap1\n      tag_41\n      jump\t// in\n    tag_97:\n      tag_98\n      jump\t// in\n    tag_96:\n      mload(0x40)\n      tag_99\n      swap2\n      swap1\n      tag_34\n      jump\t// in\n    tag_99:\n      mload(0x40)\n      dup1\n      swap2\n      sub\n      swap1\n      return\n        /* \"contracts/BlastFurnace.sol\":4253:4854  function buyIngots(address ref) public payable {... */\n    tag_18:\n      tag_100\n      0x04\n      dup1\n      calldatasize\n      sub\n      dup2\n      add\n      swap1\n      tag_101\n      swap2\n      swap1\n      tag_41\n      jump\t// in\n    tag_101:\n      tag_102\n      jump\t// in\n    tag_100:\n      stop\n        /* \"contracts/BlastFurnace.sol\":5428:5566  function calculateIngotBuySimple(uint256 eth) public view returns (uint256) {... */\n    tag_19:\n      callvalue\n      dup1\n      iszero\n      tag_103\n      jumpi\n      0x00\n      dup1\n      revert\n    tag_103:\n      pop\n      tag_104\n      0x04\n      dup1\n      calldatasize\n      sub\n      dup2\n      add\n      swap1\n      tag_105\n      swap2\n      swap1\n      tag_63\n      jump\t// in\n    tag_105:\n      tag_106\n      jump\t// in\n    tag_104:\n      mload(0x40)\n      tag_107\n      swap2\n      swap1\n      tag_34\n      jump\t// in\n    tag_107:\n      mload(0x40)\n      dup1\n      swap2\n      sub\n      swap1\n      return\n        /* \"contracts/BlastClaimable.sol\":1102:1210  function setBlastClaimInterval(uint256 interval) external onlyOwner {... */\n    tag_20:\n      callvalue\n      dup1\n      iszero\n      tag_108\n      jumpi\n      0x00\n      dup1\n      revert\n    tag_108:\n      pop\n      tag_109\n      0x04\n      dup1\n      calldatasize\n      sub\n      dup2\n      add\n      swap1\n      tag_110\n      swap2\n      swap1\n      tag_63\n      jump\t// in\n    tag_110:\n      tag_111\n      jump\t// in\n    tag_109:\n      stop\n        /* \"contracts/BlastClaimable.sol\":871:1097  function setupBlast(address blastAddr) external onlyOwner {... */\n    tag_21:\n      callvalue\n      dup1\n      iszero\n      tag_112\n      jumpi\n      0x00\n      dup1\n      revert\n    tag_112:\n      pop\n      tag_113\n      0x04\n      dup1\n      calldatasize\n      sub\n      dup2\n      add\n      swap1\n      tag_114\n      swap2\n      swap1\n      tag_41\n      jump\t// in\n    tag_114:\n      tag_115\n      jump\t// in\n    tag_113:\n      stop\n        /* \"contracts/Ownable.sol\":647:747  function transferOwnership(address newOwner) public onlyOwner {... */\n    tag_22:\n      callvalue\n      dup1\n      iszero\n      tag_116\n      jumpi\n      0x00\n      dup1\n      revert\n    tag_116:\n      pop\n      tag_117\n      0x04\n      dup1\n      calldatasize\n      sub\n      dup2\n      add\n      swap1\n      tag_118\n      swap2\n      swap1\n      tag_41\n      jump\t// in\n    tag_118:\n      tag_119\n      jump\t// in\n    tag_117:\n      stop\n        /* \"contracts/BlastFurnace.sol\":2820:3625  function hatchIngots(address ref) public {... */\n    tag_23:\n      callvalue\n      dup1\n      iszero\n      tag_120\n      jumpi\n      0x00\n      dup1\n      revert\n    tag_120:\n      pop\n      tag_121\n      0x04\n      dup1\n      calldatasize\n      sub\n      dup2\n      add\n      swap1\n      tag_122\n      swap2\n      swap1\n      tag_41\n      jump\t// in\n    tag_122:\n      tag_123\n      jump\t// in\n    tag_121:\n      stop\n        /* \"contracts/BlastFurnace.sol\":3630:4053  function sellIngots() public {... */\n    tag_29:\n        /* \"contracts/BlastFurnace.sol\":3672:3683  initialized */\n      0x09\n      0x00\n      swap1\n      sload\n      swap1\n      0x0100\n      exp\n      swap1\n      div\n      0xff\n      and\n        /* \"contracts/BlastFurnace.sol\":3664:3684  require(initialized) */\n      tag_125\n      jumpi\n      0x00\n      dup1\n      revert\n    tag_125:\n        /* \"contracts/BlastFurnace.sol\":3689:3706  uint256 hasIngots */\n      0x00\n        /* \"contracts/BlastFurnace.sol\":3709:3732  getMyIngots(msg.sender) */\n      tag_126\n        /* \"contracts/BlastFurnace.sol\":3721:3731  msg.sender */\n      caller\n        /* \"contracts/BlastFurnace.sol\":3709:3720  getMyIngots */\n      tag_42\n        /* \"contracts/BlastFurnace.sol\":3709:3732  getMyIngots(msg.sender) */\n      jump\t// in\n    tag_126:\n        /* \"contracts/BlastFurnace.sol\":3689:3732  uint256 hasIngots = getMyIngots(msg.sender) */\n      swap1\n      pop\n        /* \"contracts/BlastFurnace.sol\":3737:3755  uint256 IngotValue */\n      0x00\n        /* \"contracts/BlastFurnace.sol\":3758:3787  calculateIngotSell(hasIngots) */\n      tag_127\n        /* \"contracts/BlastFurnace.sol\":3777:3786  hasIngots */\n      dup3\n        /* \"contracts/BlastFurnace.sol\":3758:3776  calculateIngotSell */\n      tag_93\n        /* \"contracts/BlastFurnace.sol\":3758:3787  calculateIngotSell(hasIngots) */\n      jump\t// in\n    tag_127:\n        /* \"contracts/BlastFurnace.sol\":3737:3787  uint256 IngotValue = calculateIngotSell(hasIngots) */\n      swap1\n      pop\n        /* \"contracts/BlastFurnace.sol\":3792:3803  uint256 fee */\n      0x00\n        /* \"contracts/BlastFurnace.sol\":3806:3824  devFee(IngotValue) */\n      tag_128\n        /* \"contracts/BlastFurnace.sol\":3813:3823  IngotValue */\n      dup3\n        /* \"contracts/BlastFurnace.sol\":3806:3812  devFee */\n      tag_129\n        /* \"contracts/BlastFurnace.sol\":3806:3824  devFee(IngotValue) */\n      jump\t// in\n    tag_128:\n        /* \"contracts/BlastFurnace.sol\":3792:3824  uint256 fee = devFee(IngotValue) */\n      swap1\n      pop\n        /* \"contracts/BlastFurnace.sol\":3857:3858  0 */\n      0x00\n        /* \"contracts/BlastFurnace.sol\":3829:3842  claimedIngots */\n      0x0b\n        /* \"contracts/BlastFurnace.sol\":3829:3854  claimedIngots[msg.sender] */\n      0x00\n        /* \"contracts/BlastFurnace.sol\":3843:3853  msg.sender */\n      caller\n        /* \"contracts/BlastFurnace.sol\":3829:3854  claimedIngots[msg.sender] */\n      0xffffffffffffffffffffffffffffffffffffffff\n      and\n      0xffffffffffffffffffffffffffffffffffffffff\n      and\n      dup2\n      mstore\n      0x20\n      add\n      swap1\n      dup2\n      mstore\n      0x20\n      add\n      0x00\n      keccak256\n        /* \"contracts/BlastFurnace.sol\":3829:3858  claimedIngots[msg.sender] = 0 */\n      dup2\n      swap1\n      sstore\n      pop\n        /* \"contracts/BlastFurnace.sol\":3887:3902  block.timestamp */\n      timestamp\n        /* \"contracts/BlastFurnace.sol\":3863:3872  lastHatch */\n      0x0c\n        /* \"contracts/BlastFurnace.sol\":3863:3884  lastHatch[msg.sender] */\n      0x00\n        /* \"contracts/BlastFurnace.sol\":3873:3883  msg.sender */\n      caller\n        /* \"contracts/BlastFurnace.sol\":3863:3884  lastHatch[msg.sender] */\n      0xffffffffffffffffffffffffffffffffffffffff\n      and\n      0xffffffffffffffffffffffffffffffffffffffff\n      and\n      dup2\n      mstore\n      0x20\n      add\n      swap1\n      dup2\n      mstore\n      0x20\n      add\n      0x00\n      keccak256\n        /* \"contracts/BlastFurnace.sol\":3863:3902  lastHatch[msg.sender] = block.timestamp */\n      dup2\n      swap1\n      sstore\n      pop\n        /* \"contracts/BlastFurnace.sol\":3922:3959  SafeMath.add(marketIngots, hasIngots) */\n      tag_130\n        /* \"contracts/BlastFurnace.sol\":3935:3947  marketIngots */\n      sload(0x0e)\n        /* \"contracts/BlastFurnace.sol\":3949:3958  hasIngots */\n      dup5\n        /* \"contracts/BlastFurnace.sol\":3922:3934  SafeMath.add */\n      tag_131\n        /* \"contracts/BlastFurnace.sol\":3922:3959  SafeMath.add(marketIngots, hasIngots) */\n      jump\t// in\n    tag_130:\n        /* \"contracts/BlastFurnace.sol\":3907:3919  marketIngots */\n      0x0e\n        /* \"contracts/BlastFurnace.sol\":3907:3959  marketIngots = SafeMath.add(marketIngots, hasIngots) */\n      dup2\n      swap1\n      sstore\n      pop\n        /* \"contracts/BlastFurnace.sol\":3964:3970  recAdd */\n      0x09\n      0x01\n      swap1\n      sload\n      swap1\n      0x0100\n      exp\n      swap1\n      div\n      0xffffffffffffffffffffffffffffffffffffffff\n      and\n        /* \"contracts/BlastFurnace.sol\":3964:3979  recAdd.transfer */\n      0xffffffffffffffffffffffffffffffffffffffff\n      and\n        /* \"contracts/BlastFurnace.sol\":3964:3984  recAdd.transfer(fee) */\n      0x08fc\n        /* \"contracts/BlastFurnace.sol\":3980:3983  fee */\n      dup3\n        /* \"contracts/BlastFurnace.sol\":3964:3984  recAdd.transfer(fee) */\n      swap1\n      dup2\n      iszero\n      mul\n      swap1\n      mload(0x40)\n      0x00\n      mload(0x40)\n      dup1\n      dup4\n      sub\n      dup2\n      dup6\n      dup9\n      dup9\n      call\n      swap4\n      pop\n      pop\n      pop\n      pop\n      iszero\n      dup1\n      iszero\n      tag_133\n      jumpi\n      returndatasize\n      0x00\n      dup1\n      returndatacopy\n      revert(0x00, returndatasize)\n    tag_133:\n      pop\n        /* \"contracts/BlastFurnace.sol\":3997:4007  msg.sender */\n      caller\n        /* \"contracts/BlastFurnace.sol\":3989:4017  payable(msg.sender).transfer */\n      0xffffffffffffffffffffffffffffffffffffffff\n      and\n        /* \"contracts/BlastFurnace.sol\":3989:4048  payable(msg.sender).transfer(SafeMath.sub(IngotValue, fee)) */\n      0x08fc\n        /* \"contracts/BlastFurnace.sol\":4018:4047  SafeMath.sub(IngotValue, fee) */\n      tag_134\n        /* \"contracts/BlastFurnace.sol\":4031:4041  IngotValue */\n      dup5\n        /* \"contracts/BlastFurnace.sol\":4043:4046  fee */\n      dup5\n        /* \"contracts/BlastFurnace.sol\":4018:4030  SafeMath.sub */\n      tag_135\n        /* \"contracts/BlastFurnace.sol\":4018:4047  SafeMath.sub(IngotValue, fee) */\n      jump\t// in\n    tag_134:\n        /* \"contracts/BlastFurnace.sol\":3989:4048  payable(msg.sender).transfer(SafeMath.sub(IngotValue, fee)) */\n      swap1\n      dup2\n      iszero\n      mul\n      swap1\n      mload(0x40)\n      0x00\n      mload(0x40)\n      dup1\n      dup4\n      sub\n      dup2\n      dup6\n      dup9\n      dup9\n      call\n      swap4\n      pop\n      pop\n      pop\n      pop\n      iszero\n      dup1\n      iszero\n      tag_137\n      jumpi\n      returndatasize\n      0x00\n      dup1\n      returndatacopy\n      revert(0x00, returndatasize)\n    tag_137:\n      pop\n        /* \"contracts/BlastFurnace.sol\":3659:4053  {... */\n      pop\n      pop\n      pop\n        /* \"contracts/BlastFurnace.sol\":3630:4053  function sellIngots() public {... */\n      jump\t// out\n        /* \"contracts/BlastFurnace.sol\":5849:5939  function getBalance() public view returns (uint256) {... */\n    tag_32:\n        /* \"contracts/BlastFurnace.sol\":5892:5899  uint256 */\n      0x00\n        /* \"contracts/BlastFurnace.sol\":5913:5934  address(this).balance */\n      selfbalance\n        /* \"contracts/BlastFurnace.sol\":5906:5934  return address(this).balance */\n      swap1\n      pop\n        /* \"contracts/BlastFurnace.sol\":5849:5939  function getBalance() public view returns (uint256) {... */\n      swap1\n      jump\t// out\n        /* \"contracts/BlastClaimable.sol\":455:866  function claimMyGasFees() external {... */\n    tag_37:\n        /* \"contracts/BlastClaimable.sol\":495:512  address recipient */\n      0x00\n        /* \"contracts/BlastClaimable.sol\":515:525  msg.sender */\n      caller\n        /* \"contracts/BlastClaimable.sol\":495:525  address recipient = msg.sender */\n      swap1\n      pop\n        /* \"contracts/BlastClaimable.sol\":530:547  uint256 lastClaim */\n      0x00\n        /* \"contracts/BlastClaimable.sol\":550:565  _lastBlastClaim */\n      0x02\n        /* \"contracts/BlastClaimable.sol\":550:576  _lastBlastClaim[recipient] */\n      0x00\n        /* \"contracts/BlastClaimable.sol\":566:575  recipient */\n      dup4\n        /* \"contracts/BlastClaimable.sol\":550:576  _lastBlastClaim[recipient] */\n      0xffffffffffffffffffffffffffffffffffffffff\n      and\n      0xffffffffffffffffffffffffffffffffffffffff\n      and\n      dup2\n      mstore\n      0x20\n      add\n      swap1\n      dup2\n      mstore\n      0x20\n      add\n      0x00\n      keccak256\n      sload\n        /* \"contracts/BlastClaimable.sol\":530:576  uint256 lastClaim = _lastBlastClaim[recipient] */\n      swap1\n      pop\n        /* \"contracts/BlastClaimable.sol\":621:636  block.timestamp */\n      timestamp\n        /* \"contracts/BlastClaimable.sol\":599:618  _blastClaimInterval */\n      sload(0x03)\n        /* \"contracts/BlastClaimable.sol\":587:596  lastClaim */\n      dup3\n        /* \"contracts/BlastClaimable.sol\":587:618  lastClaim + _blastClaimInterval */\n      tag_140\n      swap2\n      swap1\n      tag_141\n      jump\t// in\n    tag_140:\n        /* \"contracts/BlastClaimable.sol\":587:636  lastClaim + _blastClaimInterval < block.timestamp */\n      lt\n        /* \"contracts/BlastClaimable.sol\":583:656  if (lastClaim + _blastClaimInterval < block.timestamp) {... */\n      iszero\n      tag_142\n      jumpi\n        /* \"contracts/BlastClaimable.sol\":644:651  return; */\n      pop\n      pop\n      jump(tag_139)\n        /* \"contracts/BlastClaimable.sol\":583:656  if (lastClaim + _blastClaimInterval < block.timestamp) {... */\n    tag_142:\n        /* \"contracts/BlastClaimable.sol\":691:706  block.timestamp */\n      timestamp\n        /* \"contracts/BlastClaimable.sol\":662:677  _lastBlastClaim */\n      0x02\n        /* \"contracts/BlastClaimable.sol\":662:688  _lastBlastClaim[recipient] */\n      0x00\n        /* \"contracts/BlastClaimable.sol\":678:687  recipient */\n      dup5\n        /* \"contracts/BlastClaimable.sol\":662:688  _lastBlastClaim[recipient] */\n      0xffffffffffffffffffffffffffffffffffffffff\n      and\n      0xffffffffffffffffffffffffffffffffffffffff\n      and\n      dup2\n      mstore\n      0x20\n      add\n      swap1\n      dup2\n      mstore\n      0x20\n      add\n      0x00\n      keccak256\n        /* \"contracts/BlastClaimable.sol\":662:706  _lastBlastClaim[recipient] = block.timestamp */\n      dup2\n      swap1\n      sstore\n      pop\n        /* \"contracts/BlastClaimable.sol\":711:726  uint256 claimed */\n      0x00\n        /* \"contracts/BlastClaimable.sol\":729:734  BLAST */\n      0x01\n      0x00\n      swap1\n      sload\n      swap1\n      0x0100\n      exp\n      swap1\n      div\n      0xffffffffffffffffffffffffffffffffffffffff\n      and\n        /* \"contracts/BlastClaimable.sol\":729:746  BLAST.claimAllGas */\n      0xffffffffffffffffffffffffffffffffffffffff\n      and\n      0x954fa5ee\n        /* \"contracts/BlastClaimable.sol\":755:759  this */\n      address\n        /* \"contracts/BlastClaimable.sol\":762:771  recipient */\n      dup6\n        /* \"contracts/BlastClaimable.sol\":729:772  BLAST.claimAllGas(address(this), recipient) */\n      mload(0x40)\n      dup4\n      0xffffffff\n      and\n      0xe0\n      shl\n      dup2\n      mstore\n      0x04\n      add\n      tag_143\n      swap3\n      swap2\n      swap1\n      tag_144\n      jump\t// in\n    tag_143:\n      0x20\n      mload(0x40)\n      dup1\n      dup4\n      sub\n      dup2\n      0x00\n      dup8\n      gas\n      call\n      iszero\n      dup1\n      iszero\n      tag_146\n      jumpi\n      returndatasize\n      0x00\n      dup1\n      returndatacopy\n      revert(0x00, returndatasize)\n    tag_146:\n      pop\n      pop\n      pop\n      pop\n      mload(0x40)\n      returndatasize\n      not(0x1f)\n      0x1f\n      dup3\n      add\n      and\n      dup3\n      add\n      dup1\n      0x40\n      mstore\n      pop\n      dup2\n      add\n      swap1\n      tag_147\n      swap2\n      swap1\n      tag_148\n      jump\t// in\n    tag_147:\n        /* \"contracts/BlastClaimable.sol\":711:772  uint256 claimed = BLAST.claimAllGas(address(this), recipient) */\n      swap1\n      pop\n        /* \"contracts/BlastClaimable.sol\":793:794  0 */\n      0x00\n        /* \"contracts/BlastClaimable.sol\":783:790  claimed */\n      dup2\n        /* \"contracts/BlastClaimable.sol\":783:794  claimed > 0 */\n      gt\n        /* \"contracts/BlastClaimable.sol\":779:862  if (claimed > 0) {... */\n      iszero\n      tag_149\n      jumpi\n        /* \"contracts/BlastClaimable.sol\":818:825  claimed */\n      dup1\n        /* \"contracts/BlastClaimable.sol\":802:814  _feesClaimed */\n      0x04\n      0x00\n        /* \"contracts/BlastClaimable.sol\":802:825  _feesClaimed += claimed */\n      dup3\n      dup3\n      sload\n      tag_150\n      swap2\n      swap1\n      tag_141\n      jump\t// in\n    tag_150:\n      swap3\n      pop\n      pop\n      dup2\n      swap1\n      sstore\n      pop\n        /* \"contracts/BlastClaimable.sol\":831:856  blastFeesClaimed(claimed) */\n      tag_151\n        /* \"contracts/BlastClaimable.sol\":848:855  claimed */\n      dup2\n        /* \"contracts/BlastClaimable.sol\":831:847  blastFeesClaimed */\n      tag_152\n        /* \"contracts/BlastClaimable.sol\":831:856  blastFeesClaimed(claimed) */\n      jump\t// in\n    tag_151:\n        /* \"contracts/BlastClaimable.sol\":779:862  if (claimed > 0) {... */\n    tag_149:\n        /* \"contracts/BlastClaimable.sol\":490:866  {... */\n      pop\n      pop\n      pop\n        /* \"contracts/BlastClaimable.sol\":455:866  function claimMyGasFees() external {... */\n    tag_139:\n      jump\t// out\n        /* \"contracts/BlastFurnace.sol\":6049:6192  function getMyIngots(address adr) public view returns (uint256) {... */\n    tag_42:\n        /* \"contracts/BlastFurnace.sol\":6104:6111  uint256 */\n      0x00\n        /* \"contracts/BlastFurnace.sol\":6125:6187  SafeMath.add(claimedIngots[adr], getIngotsSinceLastHatch(adr)) */\n      tag_154\n        /* \"contracts/BlastFurnace.sol\":6138:6151  claimedIngots */\n      0x0b\n        /* \"contracts/BlastFurnace.sol\":6138:6156  claimedIngots[adr] */\n      0x00\n        /* \"contracts/BlastFurnace.sol\":6152:6155  adr */\n      dup5\n        /* \"contracts/BlastFurnace.sol\":6138:6156  claimedIngots[adr] */\n      0xffffffffffffffffffffffffffffffffffffffff\n      and\n      0xffffffffffffffffffffffffffffffffffffffff\n      and\n      dup2\n      mstore\n      0x20\n      add\n      swap1\n      dup2\n      mstore\n      0x20\n      add\n      0x00\n      keccak256\n      sload\n        /* \"contracts/BlastFurnace.sol\":6158:6186  getIngotsSinceLastHatch(adr) */\n      tag_155\n        /* \"contracts/BlastFurnace.sol\":6182:6185  adr */\n      dup5\n        /* \"contracts/BlastFurnace.sol\":6158:6181  getIngotsSinceLastHatch */\n      tag_98\n        /* \"contracts/BlastFurnace.sol\":6158:6186  getIngotsSinceLastHatch(adr) */\n      jump\t// in\n    tag_155:\n        /* \"contracts/BlastFurnace.sol\":6125:6137  SafeMath.add */\n      tag_131\n        /* \"contracts/BlastFurnace.sol\":6125:6187  SafeMath.add(claimedIngots[adr], getIngotsSinceLastHatch(adr)) */\n      jump\t// in\n    tag_154:\n        /* \"contracts/BlastFurnace.sol\":6118:6187  return SafeMath.add(claimedIngots[adr], getIngotsSinceLastHatch(adr)) */\n      swap1\n      pop\n        /* \"contracts/BlastFurnace.sol\":6049:6192  function getMyIngots(address adr) public view returns (uint256) {... */\n      swap2\n      swap1\n      pop\n      jump\t// out\n        /* \"contracts/BlastFurnace.sol\":5706:5844  function seedMarket() public payable onlyOwner {... */\n    tag_45:\n        /* \"contracts/Ownable.sol\":417:426  isOwner() */\n      tag_157\n        /* \"contracts/Ownable.sol\":417:424  isOwner */\n      tag_82\n        /* \"contracts/Ownable.sol\":417:426  isOwner() */\n      jump\t// in\n    tag_157:\n        /* \"contracts/Ownable.sol\":409:427  require(isOwner()) */\n      tag_158\n      jumpi\n      0x00\n      dup1\n      revert\n    tag_158:\n        /* \"contracts/BlastFurnace.sol\":5782:5783  0 */\n      0x00\n        /* \"contracts/BlastFurnace.sol\":5766:5778  marketIngots */\n      sload(0x0e)\n        /* \"contracts/BlastFurnace.sol\":5766:5783  marketIngots == 0 */\n      eq\n        /* \"contracts/BlastFurnace.sol\":5758:5784  require(marketIngots == 0) */\n      tag_160\n      jumpi\n      0x00\n      dup1\n      revert\n    tag_160:\n        /* \"contracts/BlastFurnace.sol\":5803:5807  true */\n      0x01\n        /* \"contracts/BlastFurnace.sol\":5789:5800  initialized */\n      0x09\n      0x00\n        /* \"contracts/BlastFurnace.sol\":5789:5807  initialized = true */\n      0x0100\n      exp\n      dup2\n      sload\n      dup2\n      0xff\n      mul\n      not\n      and\n      swap1\n      dup4\n      iszero\n      iszero\n      mul\n      or\n      swap1\n      sstore\n      pop\n        /* \"contracts/BlastFurnace.sol\":5827:5839  108000000000 */\n      0x19254d3800\n        /* \"contracts/BlastFurnace.sol\":5812:5824  marketIngots */\n      0x0e\n        /* \"contracts/BlastFurnace.sol\":5812:5839  marketIngots = 108000000000 */\n      dup2\n      swap1\n      sstore\n      pop\n        /* \"contracts/BlastFurnace.sol\":5706:5844  function seedMarket() public payable onlyOwner {... */\n      jump\t// out\n        /* \"contracts/BlastFurnace.sol\":4058:4248  function furnaceRewards(address adr) public view returns (uint256) {... */\n    tag_49:\n        /* \"contracts/BlastFurnace.sol\":4116:4123  uint256 */\n      0x00\n        /* \"contracts/BlastFurnace.sol\":4130:4147  uint256 hasIngots */\n      dup1\n        /* \"contracts/BlastFurnace.sol\":4150:4166  getMyIngots(adr) */\n      tag_162\n        /* \"contracts/BlastFurnace.sol\":4162:4165  adr */\n      dup4\n        /* \"contracts/BlastFurnace.sol\":4150:4161  getMyIngots */\n      tag_42\n        /* \"contracts/BlastFurnace.sol\":4150:4166  getMyIngots(adr) */\n      jump\t// in\n    tag_162:\n        /* \"contracts/BlastFurnace.sol\":4130:4166  uint256 hasIngots = getMyIngots(adr) */\n      swap1\n      pop\n        /* \"contracts/BlastFurnace.sol\":4171:4189  uint256 IngotValue */\n      0x00\n        /* \"contracts/BlastFurnace.sol\":4192:4221  calculateIngotSell(hasIngots) */\n      tag_163\n        /* \"contracts/BlastFurnace.sol\":4211:4220  hasIngots */\n      dup3\n        /* \"contracts/BlastFurnace.sol\":4192:4210  calculateIngotSell */\n      tag_93\n        /* \"contracts/BlastFurnace.sol\":4192:4221  calculateIngotSell(hasIngots) */\n      jump\t// in\n    tag_163:\n        /* \"contracts/BlastFurnace.sol\":4171:4221  uint256 IngotValue = calculateIngotSell(hasIngots) */\n      swap1\n      pop\n        /* \"contracts/BlastFurnace.sol\":4233:4243  IngotValue */\n      dup1\n        /* \"contracts/BlastFurnace.sol\":4226:4243  return IngotValue */\n      swap3\n      pop\n      pop\n      pop\n        /* \"contracts/BlastFurnace.sol\":4058:4248  function furnaceRewards(address adr) public view returns (uint256) {... */\n      swap2\n      swap1\n      pop\n      jump\t// out\n        /* \"contracts/BlastClaimable.sol\":373:416  uint256 public _blastClaimInterval = 1 days */\n    tag_53:\n      sload(0x03)\n      dup2\n      jump\t// out\n        /* \"contracts/BlastFurnace.sol\":5944:6044  function getMyMiners(address adr) public view returns (uint256) {... */\n    tag_58:\n        /* \"contracts/BlastFurnace.sol\":5999:6006  uint256 */\n      0x00\n        /* \"contracts/BlastFurnace.sol\":6020:6034  hatcheryMiners */\n      0x0a\n        /* \"contracts/BlastFurnace.sol\":6020:6039  hatcheryMiners[adr] */\n      0x00\n        /* \"contracts/BlastFurnace.sol\":6035:6038  adr */\n      dup4\n        /* \"contracts/BlastFurnace.sol\":6020:6039  hatcheryMiners[adr] */\n      0xffffffffffffffffffffffffffffffffffffffff\n      and\n      0xffffffffffffffffffffffffffffffffffffffff\n      and\n      dup2\n      mstore\n      0x20\n      add\n      swap1\n      dup2\n      mstore\n      0x20\n      add\n      0x00\n      keccak256\n      sload\n        /* \"contracts/BlastFurnace.sol\":6013:6039  return hatcheryMiners[adr] */\n      swap1\n      pop\n        /* \"contracts/BlastFurnace.sol\":5944:6044  function getMyMiners(address adr) public view returns (uint256) {... */\n      swap2\n      swap1\n      pop\n      jump\t// out\n        /* \"contracts/BlastFurnace.sol\":2395:2429  address[] public airdropQualifiers */\n    tag_64:\n      0x0f\n      dup2\n      dup2\n      sload\n      dup2\n      lt\n      tag_165\n      jumpi\n      0x00\n      dup1\n      revert\n    tag_165:\n      swap1\n      0x00\n      mstore\n      keccak256(0x00, 0x20)\n      add\n      0x00\n      swap2\n      pop\n      sload\n      swap1\n      0x0100\n      exp\n      swap1\n      div\n      0xffffffffffffffffffffffffffffffffffffffff\n      and\n      dup2\n      jump\t// out\n        /* \"contracts/Ownable.sol\":531:642  function renounceOwnership() public onlyOwner {... */\n    tag_69:\n        /* \"contracts/Ownable.sol\":417:426  isOwner() */\n      tag_168\n        /* \"contracts/Ownable.sol\":417:424  isOwner */\n      tag_82\n        /* \"contracts/Ownable.sol\":417:426  isOwner() */\n      jump\t// in\n    tag_168:\n        /* \"contracts/Ownable.sol\":409:427  require(isOwner()) */\n      tag_169\n      jumpi\n      0x00\n      dup1\n      revert\n    tag_169:\n        /* \"contracts/Ownable.sol\":606:612  _owner */\n      0x00\n      dup1\n      sload\n      swap1\n      0x0100\n      exp\n      swap1\n      div\n      0xffffffffffffffffffffffffffffffffffffffff\n      and\n        /* \"contracts/Ownable.sol\":587:613  OwnershipRenounced(_owner) */\n      0xffffffffffffffffffffffffffffffffffffffff\n      and\n      0xf8df31144d9c2f0f6b59d69b8b98abd5459d07f2742c4df920b25aae33c64820\n      mload(0x40)\n      mload(0x40)\n      dup1\n      swap2\n      sub\n      swap1\n      log2\n        /* \"contracts/Ownable.sol\":635:636  0 */\n      0x00\n        /* \"contracts/Ownable.sol\":618:624  _owner */\n      dup1\n      0x00\n        /* \"contracts/Ownable.sol\":618:637  _owner = address(0) */\n      0x0100\n      exp\n      dup2\n      sload\n      dup2\n      0xffffffffffffffffffffffffffffffffffffffff\n      mul\n      not\n      and\n      swap1\n      dup4\n      0xffffffffffffffffffffffffffffffffffffffff\n      and\n      mul\n      or\n      swap1\n      sstore\n      pop\n        /* \"contracts/Ownable.sol\":531:642  function renounceOwnership() public onlyOwner {... */\n      jump\t// out\n        /* \"contracts/BlastFurnace.sol\":5261:5423  function calculateIngotBuy(uint256 eth, uint256 contractBalance) public view returns (uint256) {... */\n    tag_74:\n        /* \"contracts/BlastFurnace.sol\":5347:5354  uint256 */\n      0x00\n        /* \"contracts/BlastFurnace.sol\":5368:5418  calculateTrade(eth, contractBalance, marketIngots) */\n      tag_172\n        /* \"contracts/BlastFurnace.sol\":5383:5386  eth */\n      dup4\n        /* \"contracts/BlastFurnace.sol\":5388:5403  contractBalance */\n      dup4\n        /* \"contracts/BlastFurnace.sol\":5405:5417  marketIngots */\n      sload(0x0e)\n        /* \"contracts/BlastFurnace.sol\":5368:5382  calculateTrade */\n      tag_173\n        /* \"contracts/BlastFurnace.sol\":5368:5418  calculateTrade(eth, contractBalance, marketIngots) */\n      jump\t// in\n    tag_172:\n        /* \"contracts/BlastFurnace.sol\":5361:5418  return calculateTrade(eth, contractBalance, marketIngots) */\n      swap1\n      pop\n        /* \"contracts/BlastFurnace.sol\":5261:5423  function calculateIngotBuy(uint256 eth, uint256 contractBalance) public view returns (uint256) {... */\n      swap3\n      swap2\n      pop\n      pop\n      jump\t// out\n        /* \"contracts/Ownable.sol\":308:378  function owner() public view returns (address) {... */\n    tag_78:\n        /* \"contracts/Ownable.sol\":346:353  address */\n      0x00\n        /* \"contracts/Ownable.sol\":367:373  _owner */\n      dup1\n      0x00\n      swap1\n      sload\n      swap1\n      0x0100\n      exp\n      swap1\n      div\n      0xffffffffffffffffffffffffffffffffffffffff\n      and\n        /* \"contracts/Ownable.sol\":360:373  return _owner */\n      swap1\n      pop\n        /* \"contracts/Ownable.sol\":308:378  function owner() public view returns (address) {... */\n      swap1\n      jump\t// out\n        /* \"contracts/Ownable.sol\":443:526  function isOwner() public view returns (bool) {... */\n    tag_82:\n        /* \"contracts/Ownable.sol\":483:487  bool */\n      0x00\n        /* \"contracts/Ownable.sol\":515:521  _owner */\n      dup1\n      0x00\n      swap1\n      sload\n      swap1\n      0x0100\n      exp\n      swap1\n      div\n      0xffffffffffffffffffffffffffffffffffffffff\n      and\n        /* \"contracts/Ownable.sol\":501:521  msg.sender == _owner */\n      0xffffffffffffffffffffffffffffffffffffffff\n      and\n        /* \"contracts/Ownable.sol\":501:511  msg.sender */\n      caller\n        /* \"contracts/Ownable.sol\":501:521  msg.sender == _owner */\n      0xffffffffffffffffffffffffffffffffffffffff\n      and\n      eq\n        /* \"contracts/Ownable.sol\":494:521  return msg.sender == _owner */\n      swap1\n      pop\n        /* \"contracts/Ownable.sol\":443:526  function isOwner() public view returns (bool) {... */\n      swap1\n      jump\t// out\n        /* \"contracts/BlastClaimable.sol\":301:320  IBlast public BLAST */\n    tag_87:\n      0x01\n      0x00\n      swap1\n      sload\n      swap1\n      0x0100\n      exp\n      swap1\n      div\n      0xffffffffffffffffffffffffffffffffffffffff\n      and\n      dup2\n      jump\t// out\n        /* \"contracts/BlastFurnace.sol\":5106:5256  function calculateIngotSell(uint256 ingots) public view returns (uint256) {... */\n    tag_93:\n        /* \"contracts/BlastFurnace.sol\":5171:5178  uint256 */\n      0x00\n        /* \"contracts/BlastFurnace.sol\":5192:5251  calculateTrade(ingots, marketIngots, address(this).balance) */\n      tag_177\n        /* \"contracts/BlastFurnace.sol\":5207:5213  ingots */\n      dup3\n        /* \"contracts/BlastFurnace.sol\":5215:5227  marketIngots */\n      sload(0x0e)\n        /* \"contracts/BlastFurnace.sol\":5229:5250  address(this).balance */\n      selfbalance\n        /* \"contracts/BlastFurnace.sol\":5192:5206  calculateTrade */\n      tag_173\n        /* \"contracts/BlastFurnace.sol\":5192:5251  calculateTrade(ingots, marketIngots, address(this).balance) */\n      jump\t// in\n    tag_177:\n        /* \"contracts/BlastFurnace.sol\":5185:5251  return calculateTrade(ingots, marketIngots, address(this).balance) */\n      swap1\n      pop\n        /* \"contracts/BlastFurnace.sol\":5106:5256  function calculateIngotSell(uint256 ingots) public view returns (uint256) {... */\n      swap2\n      swap1\n      pop\n      jump\t// out\n        /* \"contracts/BlastFurnace.sol\":6197:6442  function getIngotsSinceLastHatch(address adr) public view returns (uint256) {... */\n    tag_98:\n        /* \"contracts/BlastFurnace.sol\":6264:6271  uint256 */\n      0x00\n        /* \"contracts/BlastFurnace.sol\":6278:6299  uint256 secondsPassed */\n      dup1\n        /* \"contracts/BlastFurnace.sol\":6302:6377  min(INGOTS_TO_HATCH_1MINERS, SafeMath.sub(block.timestamp, lastHatch[adr])) */\n      tag_179\n        /* \"contracts/BlastFurnace.sol\":6306:6329  INGOTS_TO_HATCH_1MINERS */\n      sload(0x05)\n        /* \"contracts/BlastFurnace.sol\":6331:6376  SafeMath.sub(block.timestamp, lastHatch[adr]) */\n      tag_180\n        /* \"contracts/BlastFurnace.sol\":6344:6359  block.timestamp */\n      timestamp\n        /* \"contracts/BlastFurnace.sol\":6361:6370  lastHatch */\n      0x0c\n        /* \"contracts/BlastFurnace.sol\":6361:6375  lastHatch[adr] */\n      0x00\n        /* \"contracts/BlastFurnace.sol\":6371:6374  adr */\n      dup9\n        /* \"contracts/BlastFurnace.sol\":6361:6375  lastHatch[adr] */\n      0xffffffffffffffffffffffffffffffffffffffff\n      and\n      0xffffffffffffffffffffffffffffffffffffffff\n      and\n      dup2\n      mstore\n      0x20\n      add\n      swap1\n      dup2\n      mstore\n      0x20\n      add\n      0x00\n      keccak256\n      sload\n        /* \"contracts/BlastFurnace.sol\":6331:6343  SafeMath.sub */\n      tag_135\n        /* \"contracts/BlastFurnace.sol\":6331:6376  SafeMath.sub(block.timestamp, lastHatch[adr]) */\n      jump\t// in\n    tag_180:\n        /* \"contracts/BlastFurnace.sol\":6302:6305  min */\n      tag_181\n        /* \"contracts/BlastFurnace.sol\":6302:6377  min(INGOTS_TO_HATCH_1MINERS, SafeMath.sub(block.timestamp, lastHatch[adr])) */\n      jump\t// in\n    tag_179:\n        /* \"contracts/BlastFurnace.sol\":6278:6377  uint256 secondsPassed = min(INGOTS_TO_HATCH_1MINERS, SafeMath.sub(block.timestamp, lastHatch[adr])) */\n      swap1\n      pop\n        /* \"contracts/BlastFurnace.sol\":6389:6437  SafeMath.mul(secondsPassed, hatcheryMiners[adr]) */\n      tag_182\n        /* \"contracts/BlastFurnace.sol\":6402:6415  secondsPassed */\n      dup2\n        /* \"contracts/BlastFurnace.sol\":6417:6431  hatcheryMiners */\n      0x0a\n        /* \"contracts/BlastFurnace.sol\":6417:6436  hatcheryMiners[adr] */\n      0x00\n        /* \"contracts/BlastFurnace.sol\":6432:6435  adr */\n      dup7\n        /* \"contracts/BlastFurnace.sol\":6417:6436  hatcheryMiners[adr] */\n      0xffffffffffffffffffffffffffffffffffffffff\n      and\n      0xffffffffffffffffffffffffffffffffffffffff\n      and\n      dup2\n      mstore\n      0x20\n      add\n      swap1\n      dup2\n      mstore\n      0x20\n      add\n      0x00\n      keccak256\n      sload\n        /* \"contracts/BlastFurnace.sol\":6389:6401  SafeMath.mul */\n      tag_183\n        /* \"contracts/BlastFurnace.sol\":6389:6437  SafeMath.mul(secondsPassed, hatcheryMiners[adr]) */\n      jump\t// in\n    tag_182:\n        /* \"contracts/BlastFurnace.sol\":6382:6437  return SafeMath.mul(secondsPassed, hatcheryMiners[adr]) */\n      swap2\n      pop\n      pop\n        /* \"contracts/BlastFurnace.sol\":6197:6442  function getIngotsSinceLastHatch(address adr) public view returns (uint256) {... */\n      swap2\n      swap1\n      pop\n      jump\t// out\n        /* \"contracts/BlastFurnace.sol\":4253:4854  function buyIngots(address ref) public payable {... */\n    tag_102:\n        /* \"contracts/BlastFurnace.sol\":4313:4324  initialized */\n      0x09\n      0x00\n      swap1\n      sload\n      swap1\n      0x0100\n      exp\n      swap1\n      div\n      0xff\n      and\n        /* \"contracts/BlastFurnace.sol\":4305:4325  require(initialized) */\n      tag_185\n      jumpi\n      0x00\n      dup1\n      revert\n    tag_185:\n        /* \"contracts/BlastFurnace.sol\":4330:4343  address buyer */\n      0x00\n        /* \"contracts/BlastFurnace.sol\":4346:4356  msg.sender */\n      caller\n        /* \"contracts/BlastFurnace.sol\":4330:4356  address buyer = msg.sender */\n      swap1\n      pop\n        /* \"contracts/BlastFurnace.sol\":4363:4383  uint256 ingotsBought */\n      0x00\n        /* \"contracts/BlastFurnace.sol\":4386:4462  calculateIngotBuy(msg.value, SafeMath.sub(address(this).balance, msg.value)) */\n      tag_186\n        /* \"contracts/BlastFurnace.sol\":4404:4413  msg.value */\n      callvalue\n        /* \"contracts/BlastFurnace.sol\":4415:4461  SafeMath.sub(address(this).balance, msg.value) */\n      tag_187\n        /* \"contracts/BlastFurnace.sol\":4428:4449  address(this).balance */\n      selfbalance\n        /* \"contracts/BlastFurnace.sol\":4451:4460  msg.value */\n      callvalue\n        /* \"contracts/BlastFurnace.sol\":4415:4427  SafeMath.sub */\n      tag_135\n        /* \"contracts/BlastFurnace.sol\":4415:4461  SafeMath.sub(address(this).balance, msg.value) */\n      jump\t// in\n    tag_187:\n        /* \"contracts/BlastFurnace.sol\":4386:4403  calculateIngotBuy */\n      tag_74\n        /* \"contracts/BlastFurnace.sol\":4386:4462  calculateIngotBuy(msg.value, SafeMath.sub(address(this).balance, msg.value)) */\n      jump\t// in\n    tag_186:\n        /* \"contracts/BlastFurnace.sol\":4363:4462  uint256 ingotsBought = calculateIngotBuy(msg.value, SafeMath.sub(address(this).balance, msg.value)) */\n      swap1\n      pop\n        /* \"contracts/BlastFurnace.sol\":4482:4530  SafeMath.sub(ingotsBought, devFee(ingotsBought)) */\n      tag_188\n        /* \"contracts/BlastFurnace.sol\":4495:4507  ingotsBought */\n      dup2\n        /* \"contracts/BlastFurnace.sol\":4509:4529  devFee(ingotsBought) */\n      tag_189\n        /* \"contracts/BlastFurnace.sol\":4516:4528  ingotsBought */\n      dup4\n        /* \"contracts/BlastFurnace.sol\":4509:4515  devFee */\n      tag_129\n        /* \"contracts/BlastFurnace.sol\":4509:4529  devFee(ingotsBought) */\n      jump\t// in\n    tag_189:\n        /* \"contracts/BlastFurnace.sol\":4482:4494  SafeMath.sub */\n      tag_135\n        /* \"contracts/BlastFurnace.sol\":4482:4530  SafeMath.sub(ingotsBought, devFee(ingotsBought)) */\n      jump\t// in\n    tag_188:\n        /* \"contracts/BlastFurnace.sol\":4467:4530  ingotsBought = SafeMath.sub(ingotsBought, devFee(ingotsBought)) */\n      swap1\n      pop\n        /* \"contracts/BlastFurnace.sol\":4535:4546  uint256 fee */\n      0x00\n        /* \"contracts/BlastFurnace.sol\":4549:4566  devFee(msg.value) */\n      tag_190\n        /* \"contracts/BlastFurnace.sol\":4556:4565  msg.value */\n      callvalue\n        /* \"contracts/BlastFurnace.sol\":4549:4555  devFee */\n      tag_129\n        /* \"contracts/BlastFurnace.sol\":4549:4566  devFee(msg.value) */\n      jump\t// in\n    tag_190:\n        /* \"contracts/BlastFurnace.sol\":4535:4566  uint256 fee = devFee(msg.value) */\n      swap1\n      pop\n        /* \"contracts/BlastFurnace.sol\":4571:4577  recAdd */\n      0x09\n      0x01\n      swap1\n      sload\n      swap1\n      0x0100\n      exp\n      swap1\n      div\n      0xffffffffffffffffffffffffffffffffffffffff\n      and\n        /* \"contracts/BlastFurnace.sol\":4571:4586  recAdd.transfer */\n      0xffffffffffffffffffffffffffffffffffffffff\n      and\n        /* \"contracts/BlastFurnace.sol\":4571:4591  recAdd.transfer(fee) */\n      0x08fc\n        /* \"contracts/BlastFurnace.sol\":4587:4590  fee */\n      dup3\n        /* \"contracts/BlastFurnace.sol\":4571:4591  recAdd.transfer(fee) */\n      swap1\n      dup2\n      iszero\n      mul\n      swap1\n      mload(0x40)\n      0x00\n      mload(0x40)\n      dup1\n      dup4\n      sub\n      dup2\n      dup6\n      dup9\n      dup9\n      call\n      swap4\n      pop\n      pop\n      pop\n      pop\n      iszero\n      dup1\n      iszero\n      tag_192\n      jumpi\n      returndatasize\n      0x00\n      dup1\n      returndatacopy\n      revert(0x00, returndatasize)\n    tag_192:\n      pop\n        /* \"contracts/BlastFurnace.sol\":4596:4664  _setClaimed(buyer, SafeMath.add(claimedIngots[buyer], ingotsBought)) */\n      tag_193\n        /* \"contracts/BlastFurnace.sol\":4608:4613  buyer */\n      dup4\n        /* \"contracts/BlastFurnace.sol\":4615:4663  SafeMath.add(claimedIngots[buyer], ingotsBought) */\n      tag_194\n        /* \"contracts/BlastFurnace.sol\":4628:4641  claimedIngots */\n      0x0b\n        /* \"contracts/BlastFurnace.sol\":4628:4648  claimedIngots[buyer] */\n      0x00\n        /* \"contracts/BlastFurnace.sol\":4642:4647  buyer */\n      dup8\n        /* \"contracts/BlastFurnace.sol\":4628:4648  claimedIngots[buyer] */\n      0xffffffffffffffffffffffffffffffffffffffff\n      and\n      0xffffffffffffffffffffffffffffffffffffffff\n      and\n      dup2\n      mstore\n      0x20\n      add\n      swap1\n      dup2\n      mstore\n      0x20\n      add\n      0x00\n      keccak256\n      sload\n        /* \"contracts/BlastFurnace.sol\":4650:4662  ingotsBought */\n      dup6\n        /* \"contracts/BlastFurnace.sol\":4615:4627  SafeMath.add */\n      tag_131\n        /* \"contracts/BlastFurnace.sol\":4615:4663  SafeMath.add(claimedIngots[buyer], ingotsBought) */\n      jump\t// in\n    tag_194:\n        /* \"contracts/BlastFurnace.sol\":4596:4607  _setClaimed */\n      tag_195\n        /* \"contracts/BlastFurnace.sol\":4596:4664  _setClaimed(buyer, SafeMath.add(claimedIngots[buyer], ingotsBought)) */\n      jump\t// in\n    tag_193:\n        /* \"contracts/BlastFurnace.sol\":4669:4685  hatchIngots(ref) */\n      tag_196\n        /* \"contracts/BlastFurnace.sol\":4681:4684  ref */\n      dup5\n        /* \"contracts/BlastFurnace.sol\":4669:4680  hatchIngots */\n      tag_123\n        /* \"contracts/BlastFurnace.sol\":4669:4685  hatchIngots(ref) */\n      jump\t// in\n    tag_196:\n        /* \"contracts/BlastFurnace.sol\":4709:4714  .5e18 */\n      0x06f05b59d3b20000\n        /* \"contracts/BlastFurnace.sol\":4696:4705  msg.value */\n      callvalue\n        /* \"contracts/BlastFurnace.sol\":4696:4714  msg.value >= .5e18 */\n      lt\n        /* \"contracts/BlastFurnace.sol\":4692:4850  if (msg.value >= .5e18) {... */\n      tag_197\n      jumpi\n        /* \"contracts/BlastFurnace.sol\":4756:4760  true */\n      0x01\n        /* \"contracts/BlastFurnace.sol\":4726:4760  _isAirDropQualifier[buyer] != true */\n      iszero\n      iszero\n        /* \"contracts/BlastFurnace.sol\":4726:4745  _isAirDropQualifier */\n      0x11\n        /* \"contracts/BlastFurnace.sol\":4726:4752  _isAirDropQualifier[buyer] */\n      0x00\n        /* \"contracts/BlastFurnace.sol\":4746:4751  buyer */\n      dup6\n        /* \"contracts/BlastFurnace.sol\":4726:4752  _isAirDropQualifier[buyer] */\n      0xffffffffffffffffffffffffffffffffffffffff\n      and\n      0xffffffffffffffffffffffffffffffffffffffff\n      and\n      dup2\n      mstore\n      0x20\n      add\n      swap1\n      dup2\n      mstore\n      0x20\n      add\n      0x00\n      keccak256\n      0x00\n      swap1\n      sload\n      swap1\n      0x0100\n      exp\n      swap1\n      div\n      0xff\n      and\n        /* \"contracts/BlastFurnace.sol\":4726:4760  _isAirDropQualifier[buyer] != true */\n      iszero\n      iszero\n      eq\n        /* \"contracts/BlastFurnace.sol\":4722:4845  if (_isAirDropQualifier[buyer] != true) {... */\n      tag_198\n      jumpi\n        /* \"contracts/BlastFurnace.sol\":4798:4802  true */\n      0x01\n        /* \"contracts/BlastFurnace.sol\":4769:4788  _isAirDropQualifier */\n      0x11\n        /* \"contracts/BlastFurnace.sol\":4769:4795  _isAirDropQualifier[buyer] */\n      0x00\n        /* \"contracts/BlastFurnace.sol\":4789:4794  buyer */\n      dup6\n        /* \"contracts/BlastFurnace.sol\":4769:4795  _isAirDropQualifier[buyer] */\n      0xffffffffffffffffffffffffffffffffffffffff\n      and\n      0xffffffffffffffffffffffffffffffffffffffff\n      and\n      dup2\n      mstore\n      0x20\n      add\n      swap1\n      dup2\n      mstore\n      0x20\n      add\n      0x00\n      keccak256\n      0x00\n        /* \"contracts/BlastFurnace.sol\":4769:4802  _isAirDropQualifier[buyer] = true */\n      0x0100\n      exp\n      dup2\n      sload\n      dup2\n      0xff\n      mul\n      not\n      and\n      swap1\n      dup4\n      iszero\n      iszero\n      mul\n      or\n      swap1\n      sstore\n      pop\n        /* \"contracts/BlastFurnace.sol\":4809:4826  airdropQualifiers */\n      0x0f\n        /* \"contracts/BlastFurnace.sol\":4832:4837  buyer */\n      dup4\n        /* \"contracts/BlastFurnace.sol\":4809:4838  airdropQualifiers.push(buyer) */\n      swap1\n      dup1\n      0x01\n      dup2\n      sload\n      add\n      dup1\n      dup3\n      sstore\n      dup1\n      swap2\n      pop\n      pop\n      0x01\n      swap1\n      sub\n      swap1\n      0x00\n      mstore\n      keccak256(0x00, 0x20)\n      add\n      0x00\n      swap1\n      swap2\n      swap1\n      swap2\n      swap1\n      swap2\n      0x0100\n      exp\n      dup2\n      sload\n      dup2\n      0xffffffffffffffffffffffffffffffffffffffff\n      mul\n      not\n      and\n      swap1\n      dup4\n      0xffffffffffffffffffffffffffffffffffffffff\n      and\n      mul\n      or\n      swap1\n      sstore\n      pop\n        /* \"contracts/BlastFurnace.sol\":4722:4845  if (_isAirDropQualifier[buyer] != true) {... */\n    tag_198:\n        /* \"contracts/BlastFurnace.sol\":4692:4850  if (msg.value >= .5e18) {... */\n    tag_197:\n        /* \"contracts/BlastFurnace.sol\":4300:4854  {... */\n      pop\n      pop\n      pop\n        /* \"contracts/BlastFurnace.sol\":4253:4854  function buyIngots(address ref) public payable {... */\n      pop\n      jump\t// out\n        /* \"contracts/BlastFurnace.sol\":5428:5566  function calculateIngotBuySimple(uint256 eth) public view returns (uint256) {... */\n    tag_106:\n        /* \"contracts/BlastFurnace.sol\":5495:5502  uint256 */\n      0x00\n        /* \"contracts/BlastFurnace.sol\":5516:5561  calculateIngotBuy(eth, address(this).balance) */\n      tag_201\n        /* \"contracts/BlastFurnace.sol\":5534:5537  eth */\n      dup3\n        /* \"contracts/BlastFurnace.sol\":5539:5560  address(this).balance */\n      selfbalance\n        /* \"contracts/BlastFurnace.sol\":5516:5533  calculateIngotBuy */\n      tag_74\n        /* \"contracts/BlastFurnace.sol\":5516:5561  calculateIngotBuy(eth, address(this).balance) */\n      jump\t// in\n    tag_201:\n        /* \"contracts/BlastFurnace.sol\":5509:5561  return calculateIngotBuy(eth, address(this).balance) */\n      swap1\n      pop\n        /* \"contracts/BlastFurnace.sol\":5428:5566  function calculateIngotBuySimple(uint256 eth) public view returns (uint256) {... */\n      swap2\n      swap1\n      pop\n      jump\t// out\n        /* \"contracts/BlastClaimable.sol\":1102:1210  function setBlastClaimInterval(uint256 interval) external onlyOwner {... */\n    tag_111:\n        /* \"contracts/Ownable.sol\":417:426  isOwner() */\n      tag_203\n        /* \"contracts/Ownable.sol\":417:424  isOwner */\n      tag_82\n        /* \"contracts/Ownable.sol\":417:426  isOwner() */\n      jump\t// in\n    tag_203:\n        /* \"contracts/Ownable.sol\":409:427  require(isOwner()) */\n      tag_204\n      jumpi\n      0x00\n      dup1\n      revert\n    tag_204:\n        /* \"contracts/BlastClaimable.sol\":1197:1205  interval */\n      dup1\n        /* \"contracts/BlastClaimable.sol\":1175:1194  _blastClaimInterval */\n      0x03\n        /* \"contracts/BlastClaimable.sol\":1175:1205  _blastClaimInterval = interval */\n      dup2\n      swap1\n      sstore\n      pop\n        /* \"contracts/BlastClaimable.sol\":1102:1210  function setBlastClaimInterval(uint256 interval) external onlyOwner {... */\n      pop\n      jump\t// out\n        /* \"contracts/BlastClaimable.sol\":871:1097  function setupBlast(address blastAddr) external onlyOwner {... */\n    tag_115:\n        /* \"contracts/Ownable.sol\":417:426  isOwner() */\n      tag_207\n        /* \"contracts/Ownable.sol\":417:424  isOwner */\n      tag_82\n        /* \"contracts/Ownable.sol\":417:426  isOwner() */\n      jump\t// in\n    tag_207:\n        /* \"contracts/Ownable.sol\":409:427  require(isOwner()) */\n      tag_208\n      jumpi\n      0x00\n      dup1\n      revert\n    tag_208:\n        /* \"contracts/BlastClaimable.sol\":959:960  0 */\n      0x00\n        /* \"contracts/BlastClaimable.sol\":938:961  blastAddr == address(0) */\n      0xffffffffffffffffffffffffffffffffffffffff\n      and\n        /* \"contracts/BlastClaimable.sol\":938:947  blastAddr */\n      dup2\n        /* \"contracts/BlastClaimable.sol\":938:961  blastAddr == address(0) */\n      0xffffffffffffffffffffffffffffffffffffffff\n      and\n      sub\n        /* \"contracts/BlastClaimable.sol\":934:1029  if (blastAddr == address(0)) {... */\n      tag_210\n      jumpi\n        /* \"contracts/BlastClaimable.sol\":981:1023  0x4300000000000000000000000000000000000002 */\n      0x4300000000000000000000000000000000000002\n        /* \"contracts/BlastClaimable.sol\":969:1023  blastAddr = 0x4300000000000000000000000000000000000002 */\n      swap1\n      pop\n        /* \"contracts/BlastClaimable.sol\":934:1029  if (blastAddr == address(0)) {... */\n    tag_210:\n        /* \"contracts/BlastClaimable.sol\":1048:1057  blastAddr */\n      dup1\n        /* \"contracts/BlastClaimable.sol\":1033:1038  BLAST */\n      0x01\n      0x00\n        /* \"contracts/BlastClaimable.sol\":1033:1058  BLAST = IBlast(blastAddr) */\n      0x0100\n      exp\n      dup2\n      sload\n      dup2\n      0xffffffffffffffffffffffffffffffffffffffff\n      mul\n      not\n      and\n      swap1\n      dup4\n      0xffffffffffffffffffffffffffffffffffffffff\n      and\n      mul\n      or\n      swap1\n      sstore\n      pop\n        /* \"contracts/BlastClaimable.sol\":1063:1068  BLAST */\n      0x01\n      0x00\n      swap1\n      sload\n      swap1\n      0x0100\n      exp\n      swap1\n      div\n      0xffffffffffffffffffffffffffffffffffffffff\n      and\n        /* \"contracts/BlastClaimable.sol\":1063:1090  BLAST.configureClaimableGas */\n      0xffffffffffffffffffffffffffffffffffffffff\n      and\n      0x4e606c47\n        /* \"contracts/BlastClaimable.sol\":1063:1092  BLAST.configureClaimableGas() */\n      mload(0x40)\n      dup2\n      0xffffffff\n      and\n      0xe0\n      shl\n      dup2\n      mstore\n      0x04\n      add\n      0x00\n      mload(0x40)\n      dup1\n      dup4\n      sub\n      dup2\n      0x00\n      dup8\n      dup1\n      extcodesize\n      iszero\n      dup1\n      iszero\n      tag_211\n      jumpi\n      0x00\n      dup1\n      revert\n    tag_211:\n      pop\n      gas\n      call\n      iszero\n      dup1\n      iszero\n      tag_213\n      jumpi\n      returndatasize\n      0x00\n      dup1\n      returndatacopy\n      revert(0x00, returndatasize)\n    tag_213:\n      pop\n      pop\n      pop\n      pop\n        /* \"contracts/BlastClaimable.sol\":871:1097  function setupBlast(address blastAddr) external onlyOwner {... */\n      pop\n      jump\t// out\n        /* \"contracts/Ownable.sol\":647:747  function transferOwnership(address newOwner) public onlyOwner {... */\n    tag_119:\n        /* \"contracts/Ownable.sol\":417:426  isOwner() */\n      tag_215\n        /* \"contracts/Ownable.sol\":417:424  isOwner */\n      tag_82\n        /* \"contracts/Ownable.sol\":417:426  isOwner() */\n      jump\t// in\n    tag_215:\n        /* \"contracts/Ownable.sol\":409:427  require(isOwner()) */\n      tag_216\n      jumpi\n      0x00\n      dup1\n      revert\n    tag_216:\n        /* \"contracts/Ownable.sol\":714:742  _transferOwnership(newOwner) */\n      tag_218\n        /* \"contracts/Ownable.sol\":733:741  newOwner */\n      dup2\n        /* \"contracts/Ownable.sol\":714:732  _transferOwnership */\n      tag_219\n        /* \"contracts/Ownable.sol\":714:742  _transferOwnership(newOwner) */\n      jump\t// in\n    tag_218:\n        /* \"contracts/Ownable.sol\":647:747  function transferOwnership(address newOwner) public onlyOwner {... */\n      pop\n      jump\t// out\n        /* \"contracts/BlastFurnace.sol\":2820:3625  function hatchIngots(address ref) public {... */\n    tag_123:\n        /* \"contracts/BlastFurnace.sol\":2874:2885  initialized */\n      0x09\n      0x00\n      swap1\n      sload\n      swap1\n      0x0100\n      exp\n      swap1\n      div\n      0xff\n      and\n        /* \"contracts/BlastFurnace.sol\":2866:2886  require(initialized) */\n      tag_221\n      jumpi\n      0x00\n      dup1\n      revert\n    tag_221:\n        /* \"contracts/BlastFurnace.sol\":2904:2914  msg.sender */\n      caller\n        /* \"contracts/BlastFurnace.sol\":2897:2914  ref == msg.sender */\n      0xffffffffffffffffffffffffffffffffffffffff\n      and\n        /* \"contracts/BlastFurnace.sol\":2897:2900  ref */\n      dup2\n        /* \"contracts/BlastFurnace.sol\":2897:2914  ref == msg.sender */\n      0xffffffffffffffffffffffffffffffffffffffff\n      and\n      sub\n        /* \"contracts/BlastFurnace.sol\":2893:2944  if (ref == msg.sender) {... */\n      tag_222\n      jumpi\n        /* \"contracts/BlastFurnace.sol\":2936:2937  0 */\n      0x00\n        /* \"contracts/BlastFurnace.sol\":2922:2938  ref = address(0) */\n      swap1\n      pop\n        /* \"contracts/BlastFurnace.sol\":2893:2944  if (ref == msg.sender) {... */\n    tag_222:\n        /* \"contracts/BlastFurnace.sol\":2987:2988  0 */\n      0x00\n        /* \"contracts/BlastFurnace.sol\":2954:2989  referrals[msg.sender] == address(0) */\n      0xffffffffffffffffffffffffffffffffffffffff\n      and\n        /* \"contracts/BlastFurnace.sol\":2954:2963  referrals */\n      0x0d\n        /* \"contracts/BlastFurnace.sol\":2954:2975  referrals[msg.sender] */\n      0x00\n        /* \"contracts/BlastFurnace.sol\":2964:2974  msg.sender */\n      caller\n        /* \"contracts/BlastFurnace.sol\":2954:2975  referrals[msg.sender] */\n      0xffffffffffffffffffffffffffffffffffffffff\n      and\n      0xffffffffffffffffffffffffffffffffffffffff\n      and\n      dup2\n      mstore\n      0x20\n      add\n      swap1\n      dup2\n      mstore\n      0x20\n      add\n      0x00\n      keccak256\n      0x00\n      swap1\n      sload\n      swap1\n      0x0100\n      exp\n      swap1\n      div\n      0xffffffffffffffffffffffffffffffffffffffff\n      and\n        /* \"contracts/BlastFurnace.sol\":2954:2989  referrals[msg.sender] == address(0) */\n      0xffffffffffffffffffffffffffffffffffffffff\n      and\n      eq\n        /* \"contracts/BlastFurnace.sol\":2954:3028  referrals[msg.sender] == address(0) && referrals[msg.sender] != msg.sender */\n      dup1\n      iszero\n      tag_223\n      jumpi\n      pop\n        /* \"contracts/BlastFurnace.sol\":3018:3028  msg.sender */\n      caller\n        /* \"contracts/BlastFurnace.sol\":2993:3028  referrals[msg.sender] != msg.sender */\n      0xffffffffffffffffffffffffffffffffffffffff\n      and\n        /* \"contracts/BlastFurnace.sol\":2993:3002  referrals */\n      0x0d\n        /* \"contracts/BlastFurnace.sol\":2993:3014  referrals[msg.sender] */\n      0x00\n        /* \"contracts/BlastFurnace.sol\":3003:3013  msg.sender */\n      caller\n        /* \"contracts/BlastFurnace.sol\":2993:3014  referrals[msg.sender] */\n      0xffffffffffffffffffffffffffffffffffffffff\n      and\n      0xffffffffffffffffffffffffffffffffffffffff\n      and\n      dup2\n      mstore\n      0x20\n      add\n      swap1\n      dup2\n      mstore\n      0x20\n      add\n      0x00\n      keccak256\n      0x00\n      swap1\n      sload\n      swap1\n      0x0100\n      exp\n      swap1\n      div\n      0xffffffffffffffffffffffffffffffffffffffff\n      and\n        /* \"contracts/BlastFurnace.sol\":2993:3028  referrals[msg.sender] != msg.sender */\n      0xffffffffffffffffffffffffffffffffffffffff\n      and\n      eq\n      iszero\n        /* \"contracts/BlastFurnace.sol\":2954:3028  referrals[msg.sender] == address(0) && referrals[msg.sender] != msg.sender */\n    tag_223:\n        /* \"contracts/BlastFurnace.sol\":2950:3069  if (referrals[msg.sender] == address(0) && referrals[msg.sender] != msg.sender) {... */\n      iszero\n      tag_224\n      jumpi\n        /* \"contracts/BlastFurnace.sol\":3060:3063  ref */\n      dup1\n        /* \"contracts/BlastFurnace.sol\":3036:3045  referrals */\n      0x0d\n        /* \"contracts/BlastFurnace.sol\":3036:3057  referrals[msg.sender] */\n      0x00\n        /* \"contracts/BlastFurnace.sol\":3046:3056  msg.sender */\n      caller\n        /* \"contracts/BlastFurnace.sol\":3036:3057  referrals[msg.sender] */\n      0xffffffffffffffffffffffffffffffffffffffff\n      and\n      0xffffffffffffffffffffffffffffffffffffffff\n      and\n      dup2\n      mstore\n      0x20\n      add\n      swap1\n      dup2\n      mstore\n      0x20\n      add\n      0x00\n      keccak256\n      0x00\n        /* \"contracts/BlastFurnace.sol\":3036:3063  referrals[msg.sender] = ref */\n      0x0100\n      exp\n      dup2\n      sload\n      dup2\n      0xffffffffffffffffffffffffffffffffffffffff\n      mul\n      not\n      and\n      swap1\n      dup4\n      0xffffffffffffffffffffffffffffffffffffffff\n      and\n      mul\n      or\n      swap1\n      sstore\n      pop\n        /* \"contracts/BlastFurnace.sol\":2950:3069  if (referrals[msg.sender] == address(0) && referrals[msg.sender] != msg.sender) {... */\n    tag_224:\n        /* \"contracts/BlastFurnace.sol\":3075:3093  uint256 ingotsUsed */\n      0x00\n        /* \"contracts/BlastFurnace.sol\":3096:3119  getMyIngots(msg.sender) */\n      tag_225\n        /* \"contracts/BlastFurnace.sol\":3108:3118  msg.sender */\n      caller\n        /* \"contracts/BlastFurnace.sol\":3096:3107  getMyIngots */\n      tag_42\n        /* \"contracts/BlastFurnace.sol\":3096:3119  getMyIngots(msg.sender) */\n      jump\t// in\n    tag_225:\n        /* \"contracts/BlastFurnace.sol\":3075:3119  uint256 ingotsUsed = getMyIngots(msg.sender) */\n      swap1\n      pop\n        /* \"contracts/BlastFurnace.sol\":3124:3141  uint256 newMiners */\n      0x00\n        /* \"contracts/BlastFurnace.sol\":3144:3193  SafeMath.div(ingotsUsed, INGOTS_TO_HATCH_1MINERS) */\n      tag_226\n        /* \"contracts/BlastFurnace.sol\":3157:3167  ingotsUsed */\n      dup3\n        /* \"contracts/BlastFurnace.sol\":3169:3192  INGOTS_TO_HATCH_1MINERS */\n      sload(0x05)\n        /* \"contracts/BlastFurnace.sol\":3144:3156  SafeMath.div */\n      tag_227\n        /* \"contracts/BlastFurnace.sol\":3144:3193  SafeMath.div(ingotsUsed, INGOTS_TO_HATCH_1MINERS) */\n      jump\t// in\n    tag_226:\n        /* \"contracts/BlastFurnace.sol\":3124:3193  uint256 newMiners = SafeMath.div(ingotsUsed, INGOTS_TO_HATCH_1MINERS) */\n      swap1\n      pop\n        /* \"contracts/BlastFurnace.sol\":3227:3278  SafeMath.add(hatcheryMiners[msg.sender], newMiners) */\n      tag_228\n        /* \"contracts/BlastFurnace.sol\":3240:3254  hatcheryMiners */\n      0x0a\n        /* \"contracts/BlastFurnace.sol\":3240:3266  hatcheryMiners[msg.sender] */\n      0x00\n        /* \"contracts/BlastFurnace.sol\":3255:3265  msg.sender */\n      caller\n        /* \"contracts/BlastFurnace.sol\":3240:3266  hatcheryMiners[msg.sender] */\n      0xffffffffffffffffffffffffffffffffffffffff\n      and\n      0xffffffffffffffffffffffffffffffffffffffff\n      and\n      dup2\n      mstore\n      0x20\n      add\n      swap1\n      dup2\n      mstore\n      0x20\n      add\n      0x00\n      keccak256\n      sload\n        /* \"contracts/BlastFurnace.sol\":3268:3277  newMiners */\n      dup3\n        /* \"contracts/BlastFurnace.sol\":3227:3239  SafeMath.add */\n      tag_131\n        /* \"contracts/BlastFurnace.sol\":3227:3278  SafeMath.add(hatcheryMiners[msg.sender], newMiners) */\n      jump\t// in\n    tag_228:\n        /* \"contracts/BlastFurnace.sol\":3198:3212  hatcheryMiners */\n      0x0a\n        /* \"contracts/BlastFurnace.sol\":3198:3224  hatcheryMiners[msg.sender] */\n      0x00\n        /* \"contracts/BlastFurnace.sol\":3213:3223  msg.sender */\n      caller\n        /* \"contracts/BlastFurnace.sol\":3198:3224  hatcheryMiners[msg.sender] */\n      0xffffffffffffffffffffffffffffffffffffffff\n      and\n      0xffffffffffffffffffffffffffffffffffffffff\n      and\n      dup2\n      mstore\n      0x20\n      add\n      swap1\n      dup2\n      mstore\n      0x20\n      add\n      0x00\n      keccak256\n        /* \"contracts/BlastFurnace.sol\":3198:3278  hatcheryMiners[msg.sender] = SafeMath.add(hatcheryMiners[msg.sender], newMiners) */\n      dup2\n      swap1\n      sstore\n      pop\n        /* \"contracts/BlastFurnace.sol\":3283:3309  _setClaimed(msg.sender, 0) */\n      tag_229\n        /* \"contracts/BlastFurnace.sol\":3295:3305  msg.sender */\n      caller\n        /* \"contracts/BlastFurnace.sol\":3307:3308  0 */\n      0x00\n        /* \"contracts/BlastFurnace.sol\":3283:3294  _setClaimed */\n      tag_195\n        /* \"contracts/BlastFurnace.sol\":3283:3309  _setClaimed(msg.sender, 0) */\n      jump\t// in\n    tag_229:\n        /* \"contracts/BlastFurnace.sol\":3338:3353  block.timestamp */\n      timestamp\n        /* \"contracts/BlastFurnace.sol\":3314:3323  lastHatch */\n      0x0c\n        /* \"contracts/BlastFurnace.sol\":3314:3335  lastHatch[msg.sender] */\n      0x00\n        /* \"contracts/BlastFurnace.sol\":3324:3334  msg.sender */\n      caller\n        /* \"contracts/BlastFurnace.sol\":3314:3335  lastHatch[msg.sender] */\n      0xffffffffffffffffffffffffffffffffffffffff\n      and\n      0xffffffffffffffffffffffffffffffffffffffff\n      and\n      dup2\n      mstore\n      0x20\n      add\n      swap1\n      dup2\n      mstore\n      0x20\n      add\n      0x00\n      keccak256\n        /* \"contracts/BlastFurnace.sol\":3314:3353  lastHatch[msg.sender] = block.timestamp */\n      dup2\n      swap1\n      sstore\n      pop\n        /* \"contracts/BlastFurnace.sol\":3386:3501  _setClaimed(referrals[msg.sender], SafeMath.add(claimedIngots[referrals[msg.sender]], SafeMath.div(ingotsUsed, 8))) */\n      tag_230\n        /* \"contracts/BlastFurnace.sol\":3398:3407  referrals */\n      0x0d\n        /* \"contracts/BlastFurnace.sol\":3398:3419  referrals[msg.sender] */\n      0x00\n        /* \"contracts/BlastFurnace.sol\":3408:3418  msg.sender */\n      caller\n        /* \"contracts/BlastFurnace.sol\":3398:3419  referrals[msg.sender] */\n      0xffffffffffffffffffffffffffffffffffffffff\n      and\n      0xffffffffffffffffffffffffffffffffffffffff\n      and\n      dup2\n      mstore\n      0x20\n      add\n      swap1\n      dup2\n      mstore\n      0x20\n      add\n      0x00\n      keccak256\n      0x00\n      swap1\n      sload\n      swap1\n      0x0100\n      exp\n      swap1\n      div\n      0xffffffffffffffffffffffffffffffffffffffff\n      and\n        /* \"contracts/BlastFurnace.sol\":3421:3500  SafeMath.add(claimedIngots[referrals[msg.sender]], SafeMath.div(ingotsUsed, 8)) */\n      tag_231\n        /* \"contracts/BlastFurnace.sol\":3434:3447  claimedIngots */\n      0x0b\n        /* \"contracts/BlastFurnace.sol\":3434:3470  claimedIngots[referrals[msg.sender]] */\n      0x00\n        /* \"contracts/BlastFurnace.sol\":3448:3457  referrals */\n      0x0d\n        /* \"contracts/BlastFurnace.sol\":3448:3469  referrals[msg.sender] */\n      0x00\n        /* \"contracts/BlastFurnace.sol\":3458:3468  msg.sender */\n      caller\n        /* \"contracts/BlastFurnace.sol\":3448:3469  referrals[msg.sender] */\n      0xffffffffffffffffffffffffffffffffffffffff\n      and\n      0xffffffffffffffffffffffffffffffffffffffff\n      and\n      dup2\n      mstore\n      0x20\n      add\n      swap1\n      dup2\n      mstore\n      0x20\n      add\n      0x00\n      keccak256\n      0x00\n      swap1\n      sload\n      swap1\n      0x0100\n      exp\n      swap1\n      div\n      0xffffffffffffffffffffffffffffffffffffffff\n      and\n        /* \"contracts/BlastFurnace.sol\":3434:3470  claimedIngots[referrals[msg.sender]] */\n      0xffffffffffffffffffffffffffffffffffffffff\n      and\n      0xffffffffffffffffffffffffffffffffffffffff\n      and\n      dup2\n      mstore\n      0x20\n      add\n      swap1\n      dup2\n      mstore\n      0x20\n      add\n      0x00\n      keccak256\n      sload\n        /* \"contracts/BlastFurnace.sol\":3472:3499  SafeMath.div(ingotsUsed, 8) */\n      tag_232\n        /* \"contracts/BlastFurnace.sol\":3485:3495  ingotsUsed */\n      dup7\n        /* \"contracts/BlastFurnace.sol\":3497:3498  8 */\n      0x08\n        /* \"contracts/BlastFurnace.sol\":3472:3484  SafeMath.div */\n      tag_227\n        /* \"contracts/BlastFurnace.sol\":3472:3499  SafeMath.div(ingotsUsed, 8) */\n      jump\t// in\n    tag_232:\n        /* \"contracts/BlastFurnace.sol\":3421:3433  SafeMath.add */\n      tag_131\n        /* \"contracts/BlastFurnace.sol\":3421:3500  SafeMath.add(claimedIngots[referrals[msg.sender]], SafeMath.div(ingotsUsed, 8)) */\n      jump\t// in\n    tag_231:\n        /* \"contracts/BlastFurnace.sol\":3386:3397  _setClaimed */\n      tag_195\n        /* \"contracts/BlastFurnace.sol\":3386:3501  _setClaimed(referrals[msg.sender], SafeMath.add(claimedIngots[referrals[msg.sender]], SafeMath.div(ingotsUsed, 8))) */\n      jump\t// in\n    tag_230:\n        /* \"contracts/BlastFurnace.sol\":3565:3620  SafeMath.add(marketIngots, SafeMath.div(ingotsUsed, 5)) */\n      tag_233\n        /* \"contracts/BlastFurnace.sol\":3578:3590  marketIngots */\n      sload(0x0e)\n        /* \"contracts/BlastFurnace.sol\":3592:3619  SafeMath.div(ingotsUsed, 5) */\n      tag_234\n        /* \"contracts/BlastFurnace.sol\":3605:3615  ingotsUsed */\n      dup5\n        /* \"contracts/BlastFurnace.sol\":3617:3618  5 */\n      0x05\n        /* \"contracts/BlastFurnace.sol\":3592:3604  SafeMath.div */\n      tag_227\n        /* \"contracts/BlastFurnace.sol\":3592:3619  SafeMath.div(ingotsUsed, 5) */\n      jump\t// in\n    tag_234:\n        /* \"contracts/BlastFurnace.sol\":3565:3577  SafeMath.add */\n      tag_131\n        /* \"contracts/BlastFurnace.sol\":3565:3620  SafeMath.add(marketIngots, SafeMath.div(ingotsUsed, 5)) */\n      jump\t// in\n    tag_233:\n        /* \"contracts/BlastFurnace.sol\":3550:3562  marketIngots */\n      0x0e\n        /* \"contracts/BlastFurnace.sol\":3550:3620  marketIngots = SafeMath.add(marketIngots, SafeMath.div(ingotsUsed, 5)) */\n      dup2\n      swap1\n      sstore\n      pop\n        /* \"contracts/BlastFurnace.sol\":2861:3625  {... */\n      pop\n      pop\n        /* \"contracts/BlastFurnace.sol\":2820:3625  function hatchIngots(address ref) public {... */\n      pop\n      jump\t// out\n        /* \"contracts/BlastFurnace.sol\":5571:5701  function devFee(uint256 amount) private view returns (uint256) {... */\n    tag_129:\n        /* \"contracts/BlastFurnace.sol\":5625:5632  uint256 */\n      0x00\n        /* \"contracts/BlastFurnace.sol\":5646:5696  SafeMath.div(SafeMath.mul(amount, devFeeVal), 100) */\n      tag_236\n        /* \"contracts/BlastFurnace.sol\":5659:5690  SafeMath.mul(amount, devFeeVal) */\n      tag_237\n        /* \"contracts/BlastFurnace.sol\":5672:5678  amount */\n      dup4\n        /* \"contracts/BlastFurnace.sol\":5680:5689  devFeeVal */\n      sload(0x08)\n        /* \"contracts/BlastFurnace.sol\":5659:5671  SafeMath.mul */\n      tag_183\n        /* \"contracts/BlastFurnace.sol\":5659:5690  SafeMath.mul(amount, devFeeVal) */\n      jump\t// in\n    tag_237:\n        /* \"contracts/BlastFurnace.sol\":5692:5695  100 */\n      0x64\n        /* \"contracts/BlastFurnace.sol\":5646:5658  SafeMath.div */\n      tag_227\n        /* \"contracts/BlastFurnace.sol\":5646:5696  SafeMath.div(SafeMath.mul(amount, devFeeVal), 100) */\n      jump\t// in\n    tag_236:\n        /* \"contracts/BlastFurnace.sol\":5639:5696  return SafeMath.div(SafeMath.mul(amount, devFeeVal), 100) */\n      swap1\n      pop\n        /* \"contracts/BlastFurnace.sol\":5571:5701  function devFee(uint256 amount) private view returns (uint256) {... */\n      swap2\n      swap1\n      pop\n      jump\t// out\n        /* \"contracts/libraries/SafeMath.sol\":2070:2159  function add(uint256 a, uint256 b) internal pure returns (uint256) {... */\n    tag_131:\n        /* \"contracts/libraries/SafeMath.sol\":2128:2135  uint256 */\n      0x00\n        /* \"contracts/libraries/SafeMath.sol\":2153:2154  b */\n      dup2\n        /* \"contracts/libraries/SafeMath.sol\":2149:2150  a */\n      dup4\n        /* \"contracts/libraries/SafeMath.sol\":2149:2154  a + b */\n      tag_239\n      swap2\n      swap1\n      tag_141\n      jump\t// in\n    tag_239:\n        /* \"contracts/libraries/SafeMath.sol\":2142:2154  return a + b */\n      swap1\n      pop\n        /* \"contracts/libraries/SafeMath.sol\":2070:2159  function add(uint256 a, uint256 b) internal pure returns (uint256) {... */\n      swap3\n      swap2\n      pop\n      pop\n      jump\t// out\n        /* \"contracts/libraries/SafeMath.sol\":2409:2498  function sub(uint256 a, uint256 b) internal pure returns (uint256) {... */\n    tag_135:\n        /* \"contracts/libraries/SafeMath.sol\":2467:2474  uint256 */\n      0x00\n        /* \"contracts/libraries/SafeMath.sol\":2492:2493  b */\n      dup2\n        /* \"contracts/libraries/SafeMath.sol\":2488:2489  a */\n      dup4\n        /* \"contracts/libraries/SafeMath.sol\":2488:2493  a - b */\n      tag_241\n      swap2\n      swap1\n      tag_242\n      jump\t// in\n    tag_241:\n        /* \"contracts/libraries/SafeMath.sol\":2481:2493  return a - b */\n      swap1\n      pop\n        /* \"contracts/libraries/SafeMath.sol\":2409:2498  function sub(uint256 a, uint256 b) internal pure returns (uint256) {... */\n      swap3\n      swap2\n      pop\n      pop\n      jump\t// out\n        /* \"contracts/BlastFurnace.sol\":6548:6649  function blastFeesClaimed(uint256 value) internal virtual override {... */\n    tag_152:\n        /* \"contracts/BlastFurnace.sol\":6620:6644  _distributeNative(value) */\n      tag_244\n        /* \"contracts/BlastFurnace.sol\":6638:6643  value */\n      dup2\n        /* \"contracts/BlastFurnace.sol\":6620:6637  _distributeNative */\n      tag_245\n        /* \"contracts/BlastFurnace.sol\":6620:6644  _distributeNative(value) */\n      jump\t// in\n    tag_244:\n        /* \"contracts/BlastFurnace.sol\":6548:6649  function blastFeesClaimed(uint256 value) internal virtual override {... */\n      pop\n      jump\t// out\n        /* \"contracts/BlastFurnace.sol\":4859:5101  function calculateTrade(uint256 rt, uint256 rs, uint256 bs) private view returns (uint256) {... */\n    tag_173:\n        /* \"contracts/BlastFurnace.sol\":4941:4948  uint256 */\n      0x00\n        /* \"contracts/BlastFurnace.sol\":4962:5096  SafeMath.div(SafeMath.mul(PSN, bs), SafeMath.add(PSNH, SafeMath.div(SafeMath.add(SafeMath.mul(PSN, rs), SafeMath.mul(PSNH, rt)), rt))) */\n      tag_247\n        /* \"contracts/BlastFurnace.sol\":4975:4996  SafeMath.mul(PSN, bs) */\n      tag_248\n        /* \"contracts/BlastFurnace.sol\":4988:4991  PSN */\n      sload(0x06)\n        /* \"contracts/BlastFurnace.sol\":4993:4995  bs */\n      dup5\n        /* \"contracts/BlastFurnace.sol\":4975:4987  SafeMath.mul */\n      tag_183\n        /* \"contracts/BlastFurnace.sol\":4975:4996  SafeMath.mul(PSN, bs) */\n      jump\t// in\n    tag_248:\n        /* \"contracts/BlastFurnace.sol\":4998:5095  SafeMath.add(PSNH, SafeMath.div(SafeMath.add(SafeMath.mul(PSN, rs), SafeMath.mul(PSNH, rt)), rt)) */\n      tag_249\n        /* \"contracts/BlastFurnace.sol\":5011:5015  PSNH */\n      sload(0x07)\n        /* \"contracts/BlastFurnace.sol\":5017:5094  SafeMath.div(SafeMath.add(SafeMath.mul(PSN, rs), SafeMath.mul(PSNH, rt)), rt) */\n      tag_250\n        /* \"contracts/BlastFurnace.sol\":5030:5089  SafeMath.add(SafeMath.mul(PSN, rs), SafeMath.mul(PSNH, rt)) */\n      tag_251\n        /* \"contracts/BlastFurnace.sol\":5043:5064  SafeMath.mul(PSN, rs) */\n      tag_252\n        /* \"contracts/BlastFurnace.sol\":5056:5059  PSN */\n      sload(0x06)\n        /* \"contracts/BlastFurnace.sol\":5061:5063  rs */\n      dup11\n        /* \"contracts/BlastFurnace.sol\":5043:5055  SafeMath.mul */\n      tag_183\n        /* \"contracts/BlastFurnace.sol\":5043:5064  SafeMath.mul(PSN, rs) */\n      jump\t// in\n    tag_252:\n        /* \"contracts/BlastFurnace.sol\":5066:5088  SafeMath.mul(PSNH, rt) */\n      tag_253\n        /* \"contracts/BlastFurnace.sol\":5079:5083  PSNH */\n      sload(0x07)\n        /* \"contracts/BlastFurnace.sol\":5085:5087  rt */\n      dup13\n        /* \"contracts/BlastFurnace.sol\":5066:5078  SafeMath.mul */\n      tag_183\n        /* \"contracts/BlastFurnace.sol\":5066:5088  SafeMath.mul(PSNH, rt) */\n      jump\t// in\n    tag_253:\n        /* \"contracts/BlastFurnace.sol\":5030:5042  SafeMath.add */\n      tag_131\n        /* \"contracts/BlastFurnace.sol\":5030:5089  SafeMath.add(SafeMath.mul(PSN, rs), SafeMath.mul(PSNH, rt)) */\n      jump\t// in\n    tag_251:\n        /* \"contracts/BlastFurnace.sol\":5091:5093  rt */\n      dup10\n        /* \"contracts/BlastFurnace.sol\":5017:5029  SafeMath.div */\n      tag_227\n        /* \"contracts/BlastFurnace.sol\":5017:5094  SafeMath.div(SafeMath.add(SafeMath.mul(PSN, rs), SafeMath.mul(PSNH, rt)), rt) */\n      jump\t// in\n    tag_250:\n        /* \"contracts/BlastFurnace.sol\":4998:5010  SafeMath.add */\n      tag_131\n        /* \"contracts/BlastFurnace.sol\":4998:5095  SafeMath.add(PSNH, SafeMath.div(SafeMath.add(SafeMath.mul(PSN, rs), SafeMath.mul(PSNH, rt)), rt)) */\n      jump\t// in\n    tag_249:\n        /* \"contracts/BlastFurnace.sol\":4962:4974  SafeMath.div */\n      tag_227\n        /* \"contracts/BlastFurnace.sol\":4962:5096  SafeMath.div(SafeMath.mul(PSN, bs), SafeMath.add(PSNH, SafeMath.div(SafeMath.add(SafeMath.mul(PSN, rs), SafeMath.mul(PSNH, rt)), rt))) */\n      jump\t// in\n    tag_247:\n        /* \"contracts/BlastFurnace.sol\":4955:5096  return SafeMath.div(SafeMath.mul(PSN, bs), SafeMath.add(PSNH, SafeMath.div(SafeMath.add(SafeMath.mul(PSN, rs), SafeMath.mul(PSNH, rt)), rt))) */\n      swap1\n      pop\n        /* \"contracts/BlastFurnace.sol\":4859:5101  function calculateTrade(uint256 rt, uint256 rs, uint256 bs) private view returns (uint256) {... */\n      swap4\n      swap3\n      pop\n      pop\n      pop\n      jump\t// out\n        /* \"contracts/BlastFurnace.sol\":6447:6543  function min(uint256 a, uint256 b) private pure returns (uint256) {... */\n    tag_181:\n        /* \"contracts/BlastFurnace.sol\":6504:6511  uint256 */\n      0x00\n        /* \"contracts/BlastFurnace.sol\":6529:6530  b */\n      dup2\n        /* \"contracts/BlastFurnace.sol\":6525:6526  a */\n      dup4\n        /* \"contracts/BlastFurnace.sol\":6525:6530  a < b */\n      lt\n        /* \"contracts/BlastFurnace.sol\":6525:6538  a < b ? a : b */\n      tag_255\n      jumpi\n        /* \"contracts/BlastFurnace.sol\":6537:6538  b */\n      dup2\n        /* \"contracts/BlastFurnace.sol\":6525:6538  a < b ? a : b */\n      jump(tag_256)\n    tag_255:\n        /* \"contracts/BlastFurnace.sol\":6533:6534  a */\n      dup3\n        /* \"contracts/BlastFurnace.sol\":6525:6538  a < b ? a : b */\n    tag_256:\n        /* \"contracts/BlastFurnace.sol\":6518:6538  return a < b ? a : b */\n      swap1\n      pop\n        /* \"contracts/BlastFurnace.sol\":6447:6543  function min(uint256 a, uint256 b) private pure returns (uint256) {... */\n      swap3\n      swap2\n      pop\n      pop\n      jump\t// out\n        /* \"contracts/libraries/SafeMath.sol\":2724:2813  function mul(uint256 a, uint256 b) internal pure returns (uint256) {... */\n    tag_183:\n        /* \"contracts/libraries/SafeMath.sol\":2782:2789  uint256 */\n      0x00\n        /* \"contracts/libraries/SafeMath.sol\":2807:2808  b */\n      dup2\n        /* \"contracts/libraries/SafeMath.sol\":2803:2804  a */\n      dup4\n        /* \"contracts/libraries/SafeMath.sol\":2803:2808  a * b */\n      tag_258\n      swap2\n      swap1\n      tag_259\n      jump\t// in\n    tag_258:\n        /* \"contracts/libraries/SafeMath.sol\":2796:2808  return a * b */\n      swap1\n      pop\n        /* \"contracts/libraries/SafeMath.sol\":2724:2813  function mul(uint256 a, uint256 b) internal pure returns (uint256) {... */\n      swap3\n      swap2\n      pop\n      pop\n      jump\t// out\n        /* \"contracts/BlastFurnace.sol\":2626:2815  function _setClaimed(address addr, uint256 value) private {... */\n    tag_195:\n        /* \"contracts/BlastFurnace.sol\":2712:2716  true */\n      0x01\n        /* \"contracts/BlastFurnace.sol\":2693:2716  _isHolder[addr] != true */\n      iszero\n      iszero\n        /* \"contracts/BlastFurnace.sol\":2693:2702  _isHolder */\n      0x10\n        /* \"contracts/BlastFurnace.sol\":2693:2708  _isHolder[addr] */\n      0x00\n        /* \"contracts/BlastFurnace.sol\":2703:2707  addr */\n      dup5\n        /* \"contracts/BlastFurnace.sol\":2693:2708  _isHolder[addr] */\n      0xffffffffffffffffffffffffffffffffffffffff\n      and\n      0xffffffffffffffffffffffffffffffffffffffff\n      and\n      dup2\n      mstore\n      0x20\n      add\n      swap1\n      dup2\n      mstore\n      0x20\n      add\n      0x00\n      keccak256\n      0x00\n      swap1\n      sload\n      swap1\n      0x0100\n      exp\n      swap1\n      div\n      0xff\n      and\n        /* \"contracts/BlastFurnace.sol\":2693:2716  _isHolder[addr] != true */\n      iszero\n      iszero\n      eq\n        /* \"contracts/BlastFurnace.sol\":2689:2777  if (_isHolder[addr] != true) {... */\n      tag_261\n      jumpi\n        /* \"contracts/BlastFurnace.sol\":2724:2732  _holders */\n      0x12\n        /* \"contracts/BlastFurnace.sol\":2738:2742  addr */\n      dup3\n        /* \"contracts/BlastFurnace.sol\":2724:2743  _holders.push(addr) */\n      swap1\n      dup1\n      0x01\n      dup2\n      sload\n      add\n      dup1\n      dup3\n      sstore\n      dup1\n      swap2\n      pop\n      pop\n      0x01\n      swap1\n      sub\n      swap1\n      0x00\n      mstore\n      keccak256(0x00, 0x20)\n      add\n      0x00\n      swap1\n      swap2\n      swap1\n      swap2\n      swap1\n      swap2\n      0x0100\n      exp\n      dup2\n      sload\n      dup2\n      0xffffffffffffffffffffffffffffffffffffffff\n      mul\n      not\n      and\n      swap1\n      dup4\n      0xffffffffffffffffffffffffffffffffffffffff\n      and\n      mul\n      or\n      swap1\n      sstore\n      pop\n        /* \"contracts/BlastFurnace.sol\":2767:2771  true */\n      0x01\n        /* \"contracts/BlastFurnace.sol\":2749:2758  _isHolder */\n      0x10\n        /* \"contracts/BlastFurnace.sol\":2749:2764  _isHolder[addr] */\n      0x00\n        /* \"contracts/BlastFurnace.sol\":2759:2763  addr */\n      dup5\n        /* \"contracts/BlastFurnace.sol\":2749:2764  _isHolder[addr] */\n      0xffffffffffffffffffffffffffffffffffffffff\n      and\n      0xffffffffffffffffffffffffffffffffffffffff\n      and\n      dup2\n      mstore\n      0x20\n      add\n      swap1\n      dup2\n      mstore\n      0x20\n      add\n      0x00\n      keccak256\n      0x00\n        /* \"contracts/BlastFurnace.sol\":2749:2771  _isHolder[addr] = true */\n      0x0100\n      exp\n      dup2\n      sload\n      dup2\n      0xff\n      mul\n      not\n      and\n      swap1\n      dup4\n      iszero\n      iszero\n      mul\n      or\n      swap1\n      sstore\n      pop\n        /* \"contracts/BlastFurnace.sol\":2689:2777  if (_isHolder[addr] != true) {... */\n    tag_261:\n        /* \"contracts/BlastFurnace.sol\":2805:2810  value */\n      dup1\n        /* \"contracts/BlastFurnace.sol\":2783:2796  claimedIngots */\n      0x0b\n        /* \"contracts/BlastFurnace.sol\":2783:2802  claimedIngots[addr] */\n      0x00\n        /* \"contracts/BlastFurnace.sol\":2797:2801  addr */\n      dup5\n        /* \"contracts/BlastFurnace.sol\":2783:2802  claimedIngots[addr] */\n      0xffffffffffffffffffffffffffffffffffffffff\n      and\n      0xffffffffffffffffffffffffffffffffffffffff\n      and\n      dup2\n      mstore\n      0x20\n      add\n      swap1\n      dup2\n      mstore\n      0x20\n      add\n      0x00\n      keccak256\n        /* \"contracts/BlastFurnace.sol\":2783:2810  claimedIngots[addr] = value */\n      dup2\n      swap1\n      sstore\n      pop\n        /* \"contracts/BlastFurnace.sol\":2626:2815  function _setClaimed(address addr, uint256 value) private {... */\n      pop\n      pop\n      jump\t// out\n        /* \"contracts/Ownable.sol\":752:918  function _transferOwnership(address newOwner) internal {... */\n    tag_219:\n        /* \"contracts/Ownable.sol\":840:841  0 */\n      0x00\n        /* \"contracts/Ownable.sol\":820:842  newOwner != address(0) */\n      0xffffffffffffffffffffffffffffffffffffffff\n      and\n        /* \"contracts/Ownable.sol\":820:828  newOwner */\n      dup2\n        /* \"contracts/Ownable.sol\":820:842  newOwner != address(0) */\n      0xffffffffffffffffffffffffffffffffffffffff\n      and\n      sub\n        /* \"contracts/Ownable.sol\":812:843  require(newOwner != address(0)) */\n      tag_264\n      jumpi\n      0x00\n      dup1\n      revert\n    tag_264:\n        /* \"contracts/Ownable.sol\":882:890  newOwner */\n      dup1\n        /* \"contracts/Ownable.sol\":853:891  OwnershipTransferred(_owner, newOwner) */\n      0xffffffffffffffffffffffffffffffffffffffff\n      and\n        /* \"contracts/Ownable.sol\":874:880  _owner */\n      0x00\n      dup1\n      sload\n      swap1\n      0x0100\n      exp\n      swap1\n      div\n      0xffffffffffffffffffffffffffffffffffffffff\n      and\n        /* \"contracts/Ownable.sol\":853:891  OwnershipTransferred(_owner, newOwner) */\n      0xffffffffffffffffffffffffffffffffffffffff\n      and\n      0x8be0079c531659141344cd1fd0a4f28419497f9722a3daafe3b4186f6b6457e0\n      mload(0x40)\n      mload(0x40)\n      dup1\n      swap2\n      sub\n      swap1\n      log3\n        /* \"contracts/Ownable.sol\":905:913  newOwner */\n      dup1\n        /* \"contracts/Ownable.sol\":896:902  _owner */\n      0x00\n      dup1\n        /* \"contracts/Ownable.sol\":896:913  _owner = newOwner */\n      0x0100\n      exp\n      dup2\n      sload\n      dup2\n      0xffffffffffffffffffffffffffffffffffffffff\n      mul\n      not\n      and\n      swap1\n      dup4\n      0xffffffffffffffffffffffffffffffffffffffff\n      and\n      mul\n      or\n      swap1\n      sstore\n      pop\n        /* \"contracts/Ownable.sol\":752:918  function _transferOwnership(address newOwner) internal {... */\n      pop\n      jump\t// out\n        /* \"contracts/libraries/SafeMath.sol\":3081:3170  function div(uint256 a, uint256 b) internal pure returns (uint256) {... */\n    tag_227:\n        /* \"contracts/libraries/SafeMath.sol\":3139:3146  uint256 */\n      0x00\n        /* \"contracts/libraries/SafeMath.sol\":3164:3165  b */\n      dup2\n        /* \"contracts/libraries/SafeMath.sol\":3160:3161  a */\n      dup4\n        /* \"contracts/libraries/SafeMath.sol\":3160:3165  a / b */\n      tag_266\n      swap2\n      swap1\n      tag_267\n      jump\t// in\n    tag_266:\n        /* \"contracts/libraries/SafeMath.sol\":3153:3165  return a / b */\n      swap1\n      pop\n        /* \"contracts/libraries/SafeMath.sol\":3081:3170  function div(uint256 a, uint256 b) internal pure returns (uint256) {... */\n      swap3\n      swap2\n      pop\n      pop\n      jump\t// out\n        /* \"contracts/BlastFurnace.sol\":6654:6993  function _distributeNative(uint256 amount) internal {... */\n    tag_245:\n        /* \"contracts/BlastFurnace.sol\":6725:6726  0 */\n      0x00\n        /* \"contracts/BlastFurnace.sol\":6715:6721  amount */\n      dup2\n        /* \"contracts/BlastFurnace.sol\":6715:6726  amount <= 0 */\n      gt\n        /* \"contracts/BlastFurnace.sol\":6711:6746  if (amount <= 0) {... */\n      iszero\n        /* \"contracts/BlastFurnace.sol\":6734:6741  return; */\n      tag_268\n        /* \"contracts/BlastFurnace.sol\":6711:6746  if (amount <= 0) {... */\n      jumpi\n        /* \"contracts/BlastFurnace.sol\":6752:6766  address holder */\n      0x00\n        /* \"contracts/BlastFurnace.sol\":6771:6782  uint256 cut */\n      dup1\n        /* \"contracts/BlastFurnace.sol\":6794:6800  uint i */\n      0x00\n        /* \"contracts/BlastFurnace.sol\":6789:6989  for (uint i = 0; i < _holders.length; i++) {... */\n    tag_270:\n        /* \"contracts/BlastFurnace.sol\":6810:6818  _holders */\n      0x12\n        /* \"contracts/BlastFurnace.sol\":6810:6825  _holders.length */\n      dup1\n      sload\n      swap1\n      pop\n        /* \"contracts/BlastFurnace.sol\":6806:6807  i */\n      dup2\n        /* \"contracts/BlastFurnace.sol\":6806:6825  i < _holders.length */\n      lt\n        /* \"contracts/BlastFurnace.sol\":6789:6989  for (uint i = 0; i < _holders.length; i++) {... */\n      iszero\n      tag_271\n      jumpi\n        /* \"contracts/BlastFurnace.sol\":6847:6855  _holders */\n      0x12\n        /* \"contracts/BlastFurnace.sol\":6856:6857  i */\n      dup2\n        /* \"contracts/BlastFurnace.sol\":6847:6858  _holders[i] */\n      dup2\n      sload\n      dup2\n      lt\n      tag_273\n      jumpi\n      tag_274\n      tag_275\n      jump\t// in\n    tag_274:\n    tag_273:\n      swap1\n      0x00\n      mstore\n      keccak256(0x00, 0x20)\n      add\n      0x00\n      swap1\n      sload\n      swap1\n      0x0100\n      exp\n      swap1\n      div\n      0xffffffffffffffffffffffffffffffffffffffff\n      and\n        /* \"contracts/BlastFurnace.sol\":6838:6858  holder = _holders[i] */\n      swap3\n      pop\n        /* \"contracts/BlastFurnace.sol\":6870:6921  amount.mul(claimedIngots[holder]).div(marketIngots) */\n      tag_277\n        /* \"contracts/BlastFurnace.sol\":6908:6920  marketIngots */\n      sload(0x0e)\n        /* \"contracts/BlastFurnace.sol\":6870:6903  amount.mul(claimedIngots[holder]) */\n      tag_278\n        /* \"contracts/BlastFurnace.sol\":6881:6894  claimedIngots */\n      0x0b\n        /* \"contracts/BlastFurnace.sol\":6881:6902  claimedIngots[holder] */\n      0x00\n        /* \"contracts/BlastFurnace.sol\":6895:6901  holder */\n      dup8\n        /* \"contracts/BlastFurnace.sol\":6881:6902  claimedIngots[holder] */\n      0xffffffffffffffffffffffffffffffffffffffff\n      and\n      0xffffffffffffffffffffffffffffffffffffffff\n      and\n      dup2\n      mstore\n      0x20\n      add\n      swap1\n      dup2\n      mstore\n      0x20\n      add\n      0x00\n      keccak256\n      sload\n        /* \"contracts/BlastFurnace.sol\":6870:6876  amount */\n      dup8\n        /* \"contracts/BlastFurnace.sol\":6870:6880  amount.mul */\n      tag_183\n      swap1\n        /* \"contracts/BlastFurnace.sol\":6870:6903  amount.mul(claimedIngots[holder]) */\n      swap2\n      swap1\n      0xffffffff\n      and\n      jump\t// in\n    tag_278:\n        /* \"contracts/BlastFurnace.sol\":6870:6907  amount.mul(claimedIngots[holder]).div */\n      tag_227\n      swap1\n        /* \"contracts/BlastFurnace.sol\":6870:6921  amount.mul(claimedIngots[holder]).div(marketIngots) */\n      swap2\n      swap1\n      0xffffffff\n      and\n      jump\t// in\n    tag_277:\n        /* \"contracts/BlastFurnace.sol\":6864:6921  cut = amount.mul(claimedIngots[holder]).div(marketIngots) */\n      swap2\n      pop\n        /* \"contracts/BlastFurnace.sol\":6939:6940  0 */\n      0x00\n        /* \"contracts/BlastFurnace.sol\":6933:6936  cut */\n      dup3\n        /* \"contracts/BlastFurnace.sol\":6933:6940  cut > 0 */\n      gt\n        /* \"contracts/BlastFurnace.sol\":6929:6984  if (cut > 0) {... */\n      iszero\n      tag_279\n      jumpi\n        /* \"contracts/BlastFurnace.sol\":6949:6977  _transferNative(holder, cut) */\n      tag_280\n        /* \"contracts/BlastFurnace.sol\":6965:6971  holder */\n      dup4\n        /* \"contracts/BlastFurnace.sol\":6973:6976  cut */\n      dup4\n        /* \"contracts/BlastFurnace.sol\":6949:6964  _transferNative */\n      tag_281\n        /* \"contracts/BlastFurnace.sol\":6949:6977  _transferNative(holder, cut) */\n      jump\t// in\n    tag_280:\n      pop\n        /* \"contracts/BlastFurnace.sol\":6929:6984  if (cut > 0) {... */\n    tag_279:\n        /* \"contracts/BlastFurnace.sol\":6827:6830  i++ */\n      dup1\n      dup1\n      0x01\n      add\n      swap2\n      pop\n      pop\n        /* \"contracts/BlastFurnace.sol\":6789:6989  for (uint i = 0; i < _holders.length; i++) {... */\n      jump(tag_270)\n    tag_271:\n      pop\n        /* \"contracts/BlastFurnace.sol\":6706:6993  {... */\n      pop\n      pop\n        /* \"contracts/BlastFurnace.sol\":6654:6993  function _distributeNative(uint256 amount) internal {... */\n    tag_268:\n      pop\n      jump\t// out\n        /* \"contracts/NativeTransferable.sol\":102:260  function _transferNative(address to, uint256 amount) internal returns (bool) {... */\n    tag_281:\n        /* \"contracts/NativeTransferable.sol\":173:177  bool */\n      0x00\n        /* \"contracts/NativeTransferable.sol\":196:198  to */\n      dup3\n        /* \"contracts/NativeTransferable.sol\":188:204  payable(to).send */\n      0xffffffffffffffffffffffffffffffffffffffff\n      and\n        /* \"contracts/NativeTransferable.sol\":188:212  payable(to).send(amount) */\n      0x08fc\n        /* \"contracts/NativeTransferable.sol\":205:211  amount */\n      dup4\n        /* \"contracts/NativeTransferable.sol\":188:212  payable(to).send(amount) */\n      swap1\n      dup2\n      iszero\n      mul\n      swap1\n      mload(0x40)\n      0x00\n      mload(0x40)\n      dup1\n      dup4\n      sub\n      dup2\n      dup6\n      dup9\n      dup9\n      call\n      swap4\n      pop\n      pop\n      pop\n      pop\n        /* \"contracts/NativeTransferable.sol\":184:237  if (payable(to).send(amount)) {... */\n      iszero\n      tag_284\n      jumpi\n        /* \"contracts/NativeTransferable.sol\":227:231  true */\n      0x01\n        /* \"contracts/NativeTransferable.sol\":220:231  return true */\n      swap1\n      pop\n      jump(tag_282)\n        /* \"contracts/NativeTransferable.sol\":184:237  if (payable(to).send(amount)) {... */\n    tag_284:\n        /* \"contracts/NativeTransferable.sol\":250:255  false */\n      0x00\n        /* \"contracts/NativeTransferable.sol\":243:255  return false */\n      swap1\n      pop\n        /* \"contracts/NativeTransferable.sol\":102:260  function _transferNative(address to, uint256 amount) internal returns (bool) {... */\n    tag_282:\n      swap3\n      swap2\n      pop\n      pop\n      jump\t// out\n        /* \"#utility.yul\":7:84   */\n    tag_285:\n        /* \"#utility.yul\":44:51   */\n      0x00\n        /* \"#utility.yul\":73:78   */\n      dup2\n        /* \"#utility.yul\":62:78   */\n      swap1\n      pop\n        /* \"#utility.yul\":7:84   */\n      swap2\n      swap1\n      pop\n      jump\t// out\n        /* \"#utility.yul\":90:208   */\n    tag_286:\n        /* \"#utility.yul\":177:201   */\n      tag_310\n        /* \"#utility.yul\":195:200   */\n      dup2\n        /* \"#utility.yul\":177:201   */\n      tag_285\n      jump\t// in\n    tag_310:\n        /* \"#utility.yul\":172:175   */\n      dup3\n        /* \"#utility.yul\":165:202   */\n      mstore\n        /* \"#utility.yul\":90:208   */\n      pop\n      pop\n      jump\t// out\n        /* \"#utility.yul\":214:436   */\n    tag_34:\n        /* \"#utility.yul\":307:311   */\n      0x00\n        /* \"#utility.yul\":345:347   */\n      0x20\n        /* \"#utility.yul\":334:343   */\n      dup3\n        /* \"#utility.yul\":330:348   */\n      add\n        /* \"#utility.yul\":322:348   */\n      swap1\n      pop\n        /* \"#utility.yul\":358:429   */\n      tag_312\n        /* \"#utility.yul\":426:427   */\n      0x00\n        /* \"#utility.yul\":415:424   */\n      dup4\n        /* \"#utility.yul\":411:428   */\n      add\n        /* \"#utility.yul\":402:408   */\n      dup5\n        /* \"#utility.yul\":358:429   */\n      tag_286\n      jump\t// in\n    tag_312:\n        /* \"#utility.yul\":214:436   */\n      swap3\n      swap2\n      pop\n      pop\n      jump\t// out\n        /* \"#utility.yul\":523:640   */\n    tag_288:\n        /* \"#utility.yul\":632:633   */\n      0x00\n        /* \"#utility.yul\":629:630   */\n      dup1\n        /* \"#utility.yul\":622:634   */\n      revert\n        /* \"#utility.yul\":769:895   */\n    tag_290:\n        /* \"#utility.yul\":806:813   */\n      0x00\n        /* \"#utility.yul\":846:888   */\n      0xffffffffffffffffffffffffffffffffffffffff\n        /* \"#utility.yul\":839:844   */\n      dup3\n        /* \"#utility.yul\":835:889   */\n      and\n        /* \"#utility.yul\":824:889   */\n      swap1\n      pop\n        /* \"#utility.yul\":769:895   */\n      swap2\n      swap1\n      pop\n      jump\t// out\n        /* \"#utility.yul\":901:997   */\n    tag_291:\n        /* \"#utility.yul\":938:945   */\n      0x00\n        /* \"#utility.yul\":967:991   */\n      tag_318\n        /* \"#utility.yul\":985:990   */\n      dup3\n        /* \"#utility.yul\":967:991   */\n      tag_290\n      jump\t// in\n    tag_318:\n        /* \"#utility.yul\":956:991   */\n      swap1\n      pop\n        /* \"#utility.yul\":901:997   */\n      swap2\n      swap1\n      pop\n      jump\t// out\n        /* \"#utility.yul\":1003:1125   */\n    tag_292:\n        /* \"#utility.yul\":1076:1100   */\n      tag_320\n        /* \"#utility.yul\":1094:1099   */\n      dup2\n        /* \"#utility.yul\":1076:1100   */\n      tag_291\n      jump\t// in\n    tag_320:\n        /* \"#utility.yul\":1069:1074   */\n      dup2\n        /* \"#utility.yul\":1066:1101   */\n      eq\n        /* \"#utility.yul\":1056:1119   */\n      tag_321\n      jumpi\n        /* \"#utility.yul\":1115:1116   */\n      0x00\n        /* \"#utility.yul\":1112:1113   */\n      dup1\n        /* \"#utility.yul\":1105:1117   */\n      revert\n        /* \"#utility.yul\":1056:1119   */\n    tag_321:\n        /* \"#utility.yul\":1003:1125   */\n      pop\n      jump\t// out\n        /* \"#utility.yul\":1131:1270   */\n    tag_293:\n        /* \"#utility.yul\":1177:1182   */\n      0x00\n        /* \"#utility.yul\":1215:1221   */\n      dup2\n        /* \"#utility.yul\":1202:1222   */\n      calldataload\n        /* \"#utility.yul\":1193:1222   */\n      swap1\n      pop\n        /* \"#utility.yul\":1231:1264   */\n      tag_323\n        /* \"#utility.yul\":1258:1263   */\n      dup2\n        /* \"#utility.yul\":1231:1264   */\n      tag_292\n      jump\t// in\n    tag_323:\n        /* \"#utility.yul\":1131:1270   */\n      swap3\n      swap2\n      pop\n      pop\n      jump\t// out\n        /* \"#utility.yul\":1276:1605   */\n    tag_41:\n        /* \"#utility.yul\":1335:1341   */\n      0x00\n        /* \"#utility.yul\":1384:1386   */\n      0x20\n        /* \"#utility.yul\":1372:1381   */\n      dup3\n        /* \"#utility.yul\":1363:1370   */\n      dup5\n        /* \"#utility.yul\":1359:1382   */\n      sub\n        /* \"#utility.yul\":1355:1387   */\n      slt\n        /* \"#utility.yul\":1352:1471   */\n      iszero\n      tag_325\n      jumpi\n        /* \"#utility.yul\":1390:1469   */\n      tag_326\n      tag_288\n      jump\t// in\n    tag_326:\n        /* \"#utility.yul\":1352:1471   */\n    tag_325:\n        /* \"#utility.yul\":1510:1511   */\n      0x00\n        /* \"#utility.yul\":1535:1588   */\n      tag_327\n        /* \"#utility.yul\":1580:1587   */\n      dup5\n        /* \"#utility.yul\":1571:1577   */\n      dup3\n        /* \"#utility.yul\":1560:1569   */\n      dup6\n        /* \"#utility.yul\":1556:1578   */\n      add\n        /* \"#utility.yul\":1535:1588   */\n      tag_293\n      jump\t// in\n    tag_327:\n        /* \"#utility.yul\":1525:1588   */\n      swap2\n      pop\n        /* \"#utility.yul\":1481:1598   */\n      pop\n        /* \"#utility.yul\":1276:1605   */\n      swap3\n      swap2\n      pop\n      pop\n      jump\t// out\n        /* \"#utility.yul\":1611:1733   */\n    tag_294:\n        /* \"#utility.yul\":1684:1708   */\n      tag_329\n        /* \"#utility.yul\":1702:1707   */\n      dup2\n        /* \"#utility.yul\":1684:1708   */\n      tag_285\n      jump\t// in\n    tag_329:\n        /* \"#utility.yul\":1677:1682   */\n      dup2\n        /* \"#utility.yul\":1674:1709   */\n      eq\n        /* \"#utility.yul\":1664:1727   */\n      tag_330\n      jumpi\n        /* \"#utility.yul\":1723:1724   */\n      0x00\n        /* \"#utility.yul\":1720:1721   */\n      dup1\n        /* \"#utility.yul\":1713:1725   */\n      revert\n        /* \"#utility.yul\":1664:1727   */\n    tag_330:\n        /* \"#utility.yul\":1611:1733   */\n      pop\n      jump\t// out\n        /* \"#utility.yul\":1739:1878   */\n    tag_295:\n        /* \"#utility.yul\":1785:1790   */\n      0x00\n        /* \"#utility.yul\":1823:1829   */\n      dup2\n        /* \"#utility.yul\":1810:1830   */\n      calldataload\n        /* \"#utility.yul\":1801:1830   */\n      swap1\n      pop\n        /* \"#utility.yul\":1839:1872   */\n      tag_332\n        /* \"#utility.yul\":1866:1871   */\n      dup2\n        /* \"#utility.yul\":1839:1872   */\n      tag_294\n      jump\t// in\n    tag_332:\n        /* \"#utility.yul\":1739:1878   */\n      swap3\n      swap2\n      pop\n      pop\n      jump\t// out\n        /* \"#utility.yul\":1884:2213   */\n    tag_63:\n        /* \"#utility.yul\":1943:1949   */\n      0x00\n        /* \"#utility.yul\":1992:1994   */\n      0x20\n        /* \"#utility.yul\":1980:1989   */\n      dup3\n        /* \"#utility.yul\":1971:1978   */\n      dup5\n        /* \"#utility.yul\":1967:1990   */\n      sub\n        /* \"#utility.yul\":1963:1995   */\n      slt\n        /* \"#utility.yul\":1960:2079   */\n      iszero\n      tag_334\n      jumpi\n        /* \"#utility.yul\":1998:2077   */\n      tag_335\n      tag_288\n      jump\t// in\n    tag_335:\n        /* \"#utility.yul\":1960:2079   */\n    tag_334:\n        /* \"#utility.yul\":2118:2119   */\n      0x00\n        /* \"#utility.yul\":2143:2196   */\n      tag_336\n        /* \"#utility.yul\":2188:2195   */\n      dup5\n        /* \"#utility.yul\":2179:2185   */\n      dup3\n        /* \"#utility.yul\":2168:2177   */\n      dup6\n        /* \"#utility.yul\":2164:2186   */\n      add\n        /* \"#utility.yul\":2143:2196   */\n      tag_295\n      jump\t// in\n    tag_336:\n        /* \"#utility.yul\":2133:2196   */\n      swap2\n      pop\n        /* \"#utility.yul\":2089:2206   */\n      pop\n        /* \"#utility.yul\":1884:2213   */\n      swap3\n      swap2\n      pop\n      pop\n      jump\t// out\n        /* \"#utility.yul\":2219:2337   */\n    tag_296:\n        /* \"#utility.yul\":2306:2330   */\n      tag_338\n        /* \"#utility.yul\":2324:2329   */\n      dup2\n        /* \"#utility.yul\":2306:2330   */\n      tag_291\n      jump\t// in\n    tag_338:\n        /* \"#utility.yul\":2301:2304   */\n      dup3\n        /* \"#utility.yul\":2294:2331   */\n      mstore\n        /* \"#utility.yul\":2219:2337   */\n      pop\n      pop\n      jump\t// out\n        /* \"#utility.yul\":2343:2565   */\n    tag_66:\n        /* \"#utility.yul\":2436:2440   */\n      0x00\n        /* \"#utility.yul\":2474:2476   */\n      0x20\n        /* \"#utility.yul\":2463:2472   */\n      dup3\n        /* \"#utility.yul\":2459:2477   */\n      add\n        /* \"#utility.yul\":2451:2477   */\n      swap1\n      pop\n        /* \"#utility.yul\":2487:2558   */\n      tag_340\n        /* \"#utility.yul\":2555:2556   */\n      0x00\n        /* \"#utility.yul\":2544:2553   */\n      dup4\n        /* \"#utility.yul\":2540:2557   */\n      add\n        /* \"#utility.yul\":2531:2537   */\n      dup5\n        /* \"#utility.yul\":2487:2558   */\n      tag_296\n      jump\t// in\n    tag_340:\n        /* \"#utility.yul\":2343:2565   */\n      swap3\n      swap2\n      pop\n      pop\n      jump\t// out\n        /* \"#utility.yul\":2571:3045   */\n    tag_73:\n        /* \"#utility.yul\":2639:2645   */\n      0x00\n        /* \"#utility.yul\":2647:2653   */\n      dup1\n        /* \"#utility.yul\":2696:2698   */\n      0x40\n        /* \"#utility.yul\":2684:2693   */\n      dup4\n        /* \"#utility.yul\":2675:2682   */\n      dup6\n        /* \"#utility.yul\":2671:2694   */\n      sub\n        /* \"#utility.yul\":2667:2699   */\n      slt\n        /* \"#utility.yul\":2664:2783   */\n      iszero\n      tag_342\n      jumpi\n        /* \"#utility.yul\":2702:2781   */\n      tag_343\n      tag_288\n      jump\t// in\n    tag_343:\n        /* \"#utility.yul\":2664:2783   */\n    tag_342:\n        /* \"#utility.yul\":2822:2823   */\n      0x00\n        /* \"#utility.yul\":2847:2900   */\n      tag_344\n        /* \"#utility.yul\":2892:2899   */\n      dup6\n        /* \"#utility.yul\":2883:2889   */\n      dup3\n        /* \"#utility.yul\":2872:2881   */\n      dup7\n        /* \"#utility.yul\":2868:2890   */\n      add\n        /* \"#utility.yul\":2847:2900   */\n      tag_295\n      jump\t// in\n    tag_344:\n        /* \"#utility.yul\":2837:2900   */\n      swap3\n      pop\n        /* \"#utility.yul\":2793:2910   */\n      pop\n        /* \"#utility.yul\":2949:2951   */\n      0x20\n        /* \"#utility.yul\":2975:3028   */\n      tag_345\n        /* \"#utility.yul\":3020:3027   */\n      dup6\n        /* \"#utility.yul\":3011:3017   */\n      dup3\n        /* \"#utility.yul\":3000:3009   */\n      dup7\n        /* \"#utility.yul\":2996:3018   */\n      add\n        /* \"#utility.yul\":2975:3028   */\n      tag_295\n      jump\t// in\n    tag_345:\n        /* \"#utility.yul\":2965:3028   */\n      swap2\n      pop\n        /* \"#utility.yul\":2920:3038   */\n      pop\n        /* \"#utility.yul\":2571:3045   */\n      swap3\n      pop\n      swap3\n      swap1\n      pop\n      jump\t// out\n        /* \"#utility.yul\":3051:3141   */\n    tag_297:\n        /* \"#utility.yul\":3085:3092   */\n      0x00\n        /* \"#utility.yul\":3128:3133   */\n      dup2\n        /* \"#utility.yul\":3121:3134   */\n      iszero\n        /* \"#utility.yul\":3114:3135   */\n      iszero\n        /* \"#utility.yul\":3103:3135   */\n      swap1\n      pop\n        /* \"#utility.yul\":3051:3141   */\n      swap2\n      swap1\n      pop\n      jump\t// out\n        /* \"#utility.yul\":3147:3256   */\n    tag_298:\n        /* \"#utility.yul\":3228:3249   */\n      tag_348\n        /* \"#utility.yul\":3243:3248   */\n      dup2\n        /* \"#utility.yul\":3228:3249   */\n      tag_297\n      jump\t// in\n    tag_348:\n        /* \"#utility.yul\":3223:3226   */\n      dup3\n        /* \"#utility.yul\":3216:3250   */\n      mstore\n        /* \"#utility.yul\":3147:3256   */\n      pop\n      pop\n      jump\t// out\n        /* \"#utility.yul\":3262:3472   */\n    tag_84:\n        /* \"#utility.yul\":3349:3353   */\n      0x00\n        /* \"#utility.yul\":3387:3389   */\n      0x20\n        /* \"#utility.yul\":3376:3385   */\n      dup3\n        /* \"#utility.yul\":3372:3390   */\n      add\n        /* \"#utility.yul\":3364:3390   */\n      swap1\n      pop\n        /* \"#utility.yul\":3400:3465   */\n      tag_350\n        /* \"#utility.yul\":3462:3463   */\n      0x00\n        /* \"#utility.yul\":3451:3460   */\n      dup4\n        /* \"#utility.yul\":3447:3464   */\n      add\n        /* \"#utility.yul\":3438:3444   */\n      dup5\n        /* \"#utility.yul\":3400:3465   */\n      tag_298\n      jump\t// in\n    tag_350:\n        /* \"#utility.yul\":3262:3472   */\n      swap3\n      swap2\n      pop\n      pop\n      jump\t// out\n        /* \"#utility.yul\":3478:3538   */\n    tag_299:\n        /* \"#utility.yul\":3506:3509   */\n      0x00\n        /* \"#utility.yul\":3527:3532   */\n      dup2\n        /* \"#utility.yul\":3520:3532   */\n      swap1\n      pop\n        /* \"#utility.yul\":3478:3538   */\n      swap2\n      swap1\n      pop\n      jump\t// out\n        /* \"#utility.yul\":3544:3686   */\n    tag_300:\n        /* \"#utility.yul\":3594:3603   */\n      0x00\n        /* \"#utility.yul\":3627:3680   */\n      tag_353\n        /* \"#utility.yul\":3645:3679   */\n      tag_354\n        /* \"#utility.yul\":3654:3678   */\n      tag_355\n        /* \"#utility.yul\":3672:3677   */\n      dup5\n        /* \"#utility.yul\":3654:3678   */\n      tag_290\n      jump\t// in\n    tag_355:\n        /* \"#utility.yul\":3645:3679   */\n      tag_299\n      jump\t// in\n    tag_354:\n        /* \"#utility.yul\":3627:3680   */\n      tag_290\n      jump\t// in\n    tag_353:\n        /* \"#utility.yul\":3614:3680   */\n      swap1\n      pop\n        /* \"#utility.yul\":3544:3686   */\n      swap2\n      swap1\n      pop\n      jump\t// out\n        /* \"#utility.yul\":3692:3818   */\n    tag_301:\n        /* \"#utility.yul\":3742:3751   */\n      0x00\n        /* \"#utility.yul\":3775:3812   */\n      tag_357\n        /* \"#utility.yul\":3806:3811   */\n      dup3\n        /* \"#utility.yul\":3775:3812   */\n      tag_300\n      jump\t// in\n    tag_357:\n        /* \"#utility.yul\":3762:3812   */\n      swap1\n      pop\n        /* \"#utility.yul\":3692:3818   */\n      swap2\n      swap1\n      pop\n      jump\t// out\n        /* \"#utility.yul\":3824:3963   */\n    tag_302:\n        /* \"#utility.yul\":3887:3896   */\n      0x00\n        /* \"#utility.yul\":3920:3957   */\n      tag_359\n        /* \"#utility.yul\":3951:3956   */\n      dup3\n        /* \"#utility.yul\":3920:3957   */\n      tag_301\n      jump\t// in\n    tag_359:\n        /* \"#utility.yul\":3907:3957   */\n      swap1\n      pop\n        /* \"#utility.yul\":3824:3963   */\n      swap2\n      swap1\n      pop\n      jump\t// out\n        /* \"#utility.yul\":3969:4126   */\n    tag_303:\n        /* \"#utility.yul\":4069:4119   */\n      tag_361\n        /* \"#utility.yul\":4113:4118   */\n      dup2\n        /* \"#utility.yul\":4069:4119   */\n      tag_302\n      jump\t// in\n    tag_361:\n        /* \"#utility.yul\":4064:4067   */\n      dup3\n        /* \"#utility.yul\":4057:4120   */\n      mstore\n        /* \"#utility.yul\":3969:4126   */\n      pop\n      pop\n      jump\t// out\n        /* \"#utility.yul\":4132:4380   */\n    tag_89:\n        /* \"#utility.yul\":4238:4242   */\n      0x00\n        /* \"#utility.yul\":4276:4278   */\n      0x20\n        /* \"#utility.yul\":4265:4274   */\n      dup3\n        /* \"#utility.yul\":4261:4279   */\n      add\n        /* \"#utility.yul\":4253:4279   */\n      swap1\n      pop\n        /* \"#utility.yul\":4289:4373   */\n      tag_363\n        /* \"#utility.yul\":4370:4371   */\n      0x00\n        /* \"#utility.yul\":4359:4368   */\n      dup4\n        /* \"#utility.yul\":4355:4372   */\n      add\n        /* \"#utility.yul\":4346:4352   */\n      dup5\n        /* \"#utility.yul\":4289:4373   */\n      tag_303\n      jump\t// in\n    tag_363:\n        /* \"#utility.yul\":4132:4380   */\n      swap3\n      swap2\n      pop\n      pop\n      jump\t// out\n        /* \"#utility.yul\":4386:4566   */\n    tag_304:\n        /* \"#utility.yul\":4434:4511   */\n      0x4e487b7100000000000000000000000000000000000000000000000000000000\n        /* \"#utility.yul\":4431:4432   */\n      0x00\n        /* \"#utility.yul\":4424:4512   */\n      mstore\n        /* \"#utility.yul\":4531:4535   */\n      0x11\n        /* \"#utility.yul\":4528:4529   */\n      0x04\n        /* \"#utility.yul\":4521:4536   */\n      mstore\n        /* \"#utility.yul\":4555:4559   */\n      0x24\n        /* \"#utility.yul\":4552:4553   */\n      0x00\n        /* \"#utility.yul\":4545:4560   */\n      revert\n        /* \"#utility.yul\":4572:4763   */\n    tag_141:\n        /* \"#utility.yul\":4612:4615   */\n      0x00\n        /* \"#utility.yul\":4631:4651   */\n      tag_366\n        /* \"#utility.yul\":4649:4650   */\n      dup3\n        /* \"#utility.yul\":4631:4651   */\n      tag_285\n      jump\t// in\n    tag_366:\n        /* \"#utility.yul\":4626:4651   */\n      swap2\n      pop\n        /* \"#utility.yul\":4665:4685   */\n      tag_367\n        /* \"#utility.yul\":4683:4684   */\n      dup4\n        /* \"#utility.yul\":4665:4685   */\n      tag_285\n      jump\t// in\n    tag_367:\n        /* \"#utility.yul\":4660:4685   */\n      swap3\n      pop\n        /* \"#utility.yul\":4708:4709   */\n      dup3\n        /* \"#utility.yul\":4705:4706   */\n      dup3\n        /* \"#utility.yul\":4701:4710   */\n      add\n        /* \"#utility.yul\":4694:4710   */\n      swap1\n      pop\n        /* \"#utility.yul\":4729:4732   */\n      dup1\n        /* \"#utility.yul\":4726:4727   */\n      dup3\n        /* \"#utility.yul\":4723:4733   */\n      gt\n        /* \"#utility.yul\":4720:4756   */\n      iszero\n      tag_368\n      jumpi\n        /* \"#utility.yul\":4736:4754   */\n      tag_369\n      tag_304\n      jump\t// in\n    tag_369:\n        /* \"#utility.yul\":4720:4756   */\n    tag_368:\n        /* \"#utility.yul\":4572:4763   */\n      swap3\n      swap2\n      pop\n      pop\n      jump\t// out\n        /* \"#utility.yul\":4769:5101   */\n    tag_144:\n        /* \"#utility.yul\":4890:4894   */\n      0x00\n        /* \"#utility.yul\":4928:4930   */\n      0x40\n        /* \"#utility.yul\":4917:4926   */\n      dup3\n        /* \"#utility.yul\":4913:4931   */\n      add\n        /* \"#utility.yul\":4905:4931   */\n      swap1\n      pop\n        /* \"#utility.yul\":4941:5012   */\n      tag_371\n        /* \"#utility.yul\":5009:5010   */\n      0x00\n        /* \"#utility.yul\":4998:5007   */\n      dup4\n        /* \"#utility.yul\":4994:5011   */\n      add\n        /* \"#utility.yul\":4985:4991   */\n      dup6\n        /* \"#utility.yul\":4941:5012   */\n      tag_296\n      jump\t// in\n    tag_371:\n        /* \"#utility.yul\":5022:5094   */\n      tag_372\n        /* \"#utility.yul\":5090:5092   */\n      0x20\n        /* \"#utility.yul\":5079:5088   */\n      dup4\n        /* \"#utility.yul\":5075:5093   */\n      add\n        /* \"#utility.yul\":5066:5072   */\n      dup5\n        /* \"#utility.yul\":5022:5094   */\n      tag_296\n      jump\t// in\n    tag_372:\n        /* \"#utility.yul\":4769:5101   */\n      swap4\n      swap3\n      pop\n      pop\n      pop\n      jump\t// out\n        /* \"#utility.yul\":5107:5250   */\n    tag_305:\n        /* \"#utility.yul\":5164:5169   */\n      0x00\n        /* \"#utility.yul\":5195:5201   */\n      dup2\n        /* \"#utility.yul\":5189:5202   */\n      mload\n        /* \"#utility.yul\":5180:5202   */\n      swap1\n      pop\n        /* \"#utility.yul\":5211:5244   */\n      tag_374\n        /* \"#utility.yul\":5238:5243   */\n      dup2\n        /* \"#utility.yul\":5211:5244   */\n      tag_294\n      jump\t// in\n    tag_374:\n        /* \"#utility.yul\":5107:5250   */\n      swap3\n      swap2\n      pop\n      pop\n      jump\t// out\n        /* \"#utility.yul\":5256:5607   */\n    tag_148:\n        /* \"#utility.yul\":5326:5332   */\n      0x00\n        /* \"#utility.yul\":5375:5377   */\n      0x20\n        /* \"#utility.yul\":5363:5372   */\n      dup3\n        /* \"#utility.yul\":5354:5361   */\n      dup5\n        /* \"#utility.yul\":5350:5373   */\n      sub\n        /* \"#utility.yul\":5346:5378   */\n      slt\n        /* \"#utility.yul\":5343:5462   */\n      iszero\n      tag_376\n      jumpi\n        /* \"#utility.yul\":5381:5460   */\n      tag_377\n      tag_288\n      jump\t// in\n    tag_377:\n        /* \"#utility.yul\":5343:5462   */\n    tag_376:\n        /* \"#utility.yul\":5501:5502   */\n      0x00\n        /* \"#utility.yul\":5526:5590   */\n      tag_378\n        /* \"#utility.yul\":5582:5589   */\n      dup5\n        /* \"#utility.yul\":5573:5579   */\n      dup3\n        /* \"#utility.yul\":5562:5571   */\n      dup6\n        /* \"#utility.yul\":5558:5580   */\n      add\n        /* \"#utility.yul\":5526:5590   */\n      tag_305\n      jump\t// in\n    tag_378:\n        /* \"#utility.yul\":5516:5590   */\n      swap2\n      pop\n        /* \"#utility.yul\":5472:5600   */\n      pop\n        /* \"#utility.yul\":5256:5607   */\n      swap3\n      swap2\n      pop\n      pop\n      jump\t// out\n        /* \"#utility.yul\":5613:5807   */\n    tag_242:\n        /* \"#utility.yul\":5653:5657   */\n      0x00\n        /* \"#utility.yul\":5673:5693   */\n      tag_380\n        /* \"#utility.yul\":5691:5692   */\n      dup3\n        /* \"#utility.yul\":5673:5693   */\n      tag_285\n      jump\t// in\n    tag_380:\n        /* \"#utility.yul\":5668:5693   */\n      swap2\n      pop\n        /* \"#utility.yul\":5707:5727   */\n      tag_381\n        /* \"#utility.yul\":5725:5726   */\n      dup4\n        /* \"#utility.yul\":5707:5727   */\n      tag_285\n      jump\t// in\n    tag_381:\n        /* \"#utility.yul\":5702:5727   */\n      swap3\n      pop\n        /* \"#utility.yul\":5751:5752   */\n      dup3\n        /* \"#utility.yul\":5748:5749   */\n      dup3\n        /* \"#utility.yul\":5744:5753   */\n      sub\n        /* \"#utility.yul\":5736:5753   */\n      swap1\n      pop\n        /* \"#utility.yul\":5775:5776   */\n      dup2\n        /* \"#utility.yul\":5769:5773   */\n      dup2\n        /* \"#utility.yul\":5766:5777   */\n      gt\n        /* \"#utility.yul\":5763:5800   */\n      iszero\n      tag_382\n      jumpi\n        /* \"#utility.yul\":5780:5798   */\n      tag_383\n      tag_304\n      jump\t// in\n    tag_383:\n        /* \"#utility.yul\":5763:5800   */\n    tag_382:\n        /* \"#utility.yul\":5613:5807   */\n      swap3\n      swap2\n      pop\n      pop\n      jump\t// out\n        /* \"#utility.yul\":5813:6223   */\n    tag_259:\n        /* \"#utility.yul\":5853:5860   */\n      0x00\n        /* \"#utility.yul\":5876:5896   */\n      tag_385\n        /* \"#utility.yul\":5894:5895   */\n      dup3\n        /* \"#utility.yul\":5876:5896   */\n      tag_285\n      jump\t// in\n    tag_385:\n        /* \"#utility.yul\":5871:5896   */\n      swap2\n      pop\n        /* \"#utility.yul\":5910:5930   */\n      tag_386\n        /* \"#utility.yul\":5928:5929   */\n      dup4\n        /* \"#utility.yul\":5910:5930   */\n      tag_285\n      jump\t// in\n    tag_386:\n        /* \"#utility.yul\":5905:5930   */\n      swap3\n      pop\n        /* \"#utility.yul\":5965:5966   */\n      dup3\n        /* \"#utility.yul\":5962:5963   */\n      dup3\n        /* \"#utility.yul\":5958:5967   */\n      mul\n        /* \"#utility.yul\":5987:6017   */\n      tag_387\n        /* \"#utility.yul\":6005:6016   */\n      dup2\n        /* \"#utility.yul\":5987:6017   */\n      tag_285\n      jump\t// in\n    tag_387:\n        /* \"#utility.yul\":5976:6017   */\n      swap2\n      pop\n        /* \"#utility.yul\":6166:6167   */\n      dup3\n        /* \"#utility.yul\":6157:6164   */\n      dup3\n        /* \"#utility.yul\":6153:6168   */\n      div\n        /* \"#utility.yul\":6150:6151   */\n      dup5\n        /* \"#utility.yul\":6147:6169   */\n      eq\n        /* \"#utility.yul\":6127:6128   */\n      dup4\n        /* \"#utility.yul\":6120:6129   */\n      iszero\n        /* \"#utility.yul\":6100:6183   */\n      or\n        /* \"#utility.yul\":6077:6216   */\n      tag_388\n      jumpi\n        /* \"#utility.yul\":6196:6214   */\n      tag_389\n      tag_304\n      jump\t// in\n    tag_389:\n        /* \"#utility.yul\":6077:6216   */\n    tag_388:\n        /* \"#utility.yul\":5861:6223   */\n      pop\n        /* \"#utility.yul\":5813:6223   */\n      swap3\n      swap2\n      pop\n      pop\n      jump\t// out\n        /* \"#utility.yul\":6229:6409   */\n    tag_306:\n        /* \"#utility.yul\":6277:6354   */\n      0x4e487b7100000000000000000000000000000000000000000000000000000000\n        /* \"#utility.yul\":6274:6275   */\n      0x00\n        /* \"#utility.yul\":6267:6355   */\n      mstore\n        /* \"#utility.yul\":6374:6378   */\n      0x12\n        /* \"#utility.yul\":6371:6372   */\n      0x04\n        /* \"#utility.yul\":6364:6379   */\n      mstore\n        /* \"#utility.yul\":6398:6402   */\n      0x24\n        /* \"#utility.yul\":6395:6396   */\n      0x00\n        /* \"#utility.yul\":6388:6403   */\n      revert\n        /* \"#utility.yul\":6415:6600   */\n    tag_267:\n        /* \"#utility.yul\":6455:6456   */\n      0x00\n        /* \"#utility.yul\":6472:6492   */\n      tag_392\n        /* \"#utility.yul\":6490:6491   */\n      dup3\n        /* \"#utility.yul\":6472:6492   */\n      tag_285\n      jump\t// in\n    tag_392:\n        /* \"#utility.yul\":6467:6492   */\n      swap2\n      pop\n        /* \"#utility.yul\":6506:6526   */\n      tag_393\n        /* \"#utility.yul\":6524:6525   */\n      dup4\n        /* \"#utility.yul\":6506:6526   */\n      tag_285\n      jump\t// in\n    tag_393:\n        /* \"#utility.yul\":6501:6526   */\n      swap3\n      pop\n        /* \"#utility.yul\":6545:6546   */\n      dup3\n        /* \"#utility.yul\":6535:6570   */\n      tag_394\n      jumpi\n        /* \"#utility.yul\":6550:6568   */\n      tag_395\n      tag_306\n      jump\t// in\n    tag_395:\n        /* \"#utility.yul\":6535:6570   */\n    tag_394:\n        /* \"#utility.yul\":6592:6593   */\n      dup3\n        /* \"#utility.yul\":6589:6590   */\n      dup3\n        /* \"#utility.yul\":6585:6594   */\n      div\n        /* \"#utility.yul\":6580:6594   */\n      swap1\n      pop\n        /* \"#utility.yul\":6415:6600   */\n      swap3\n      swap2\n      pop\n      pop\n      jump\t// out\n        /* \"#utility.yul\":6606:6786   */\n    tag_275:\n        /* \"#utility.yul\":6654:6731   */\n      0x4e487b7100000000000000000000000000000000000000000000000000000000\n        /* \"#utility.yul\":6651:6652   */\n      0x00\n        /* \"#utility.yul\":6644:6732   */\n      mstore\n        /* \"#utility.yul\":6751:6755   */\n      0x32\n        /* \"#utility.yul\":6748:6749   */\n      0x04\n        /* \"#utility.yul\":6741:6756   */\n      mstore\n        /* \"#utility.yul\":6775:6779   */\n      0x24\n        /* \"#utility.yul\":6772:6773   */\n      0x00\n        /* \"#utility.yul\":6765:6780   */\n      revert\n\n    auxdata: 0xa26469706673582212206a2f79ac37994ea56b054b14a61ee2bf409d2c7abd98d59767b8c08b6f9b6c9764736f6c63430008180033\n}\n",
				"bytecode": {
					"linkReferences": {},
					"object": "60806040526201518060035562107ac060055561271060065561138860075560036008555f60095f6101000a81548160ff021916908315150217905550348015610047575f80fd5b50335f806101000a81548173ffffffffffffffffffffffffffffffffffffffff021916908373ffffffffffffffffffffffffffffffffffffffff16021790555033600960016101000a81548173ffffffffffffffffffffffffffffffffffffffff021916908373ffffffffffffffffffffffffffffffffffffffff160217905550611b74806100d55f395ff3fe608060405260043610610134575f3560e01c80638da5cb5b116100aa578063e5d782fc1161006e578063e5d782fc146103fa578063e953f98214610416578063eaca243b14610452578063f2e809e01461047a578063f2fde38b146104a2578063feeea92e146104ca57610134565b80638da5cb5b146103045780638f32d59b1461032e57806397d7577614610358578063b18a2f8214610382578063c2a6856f146103be57610134565b8063450c9d7d116100fc578063450c9d7d146101d45780634addc0e8146102105780634b634b061461023a57806353e3323b14610276578063715018a6146102b25780637a571ae1146102c857610134565b8063012d754c1461013857806312065fe01461014e57806323084e5f146101785780632cf4f2741461018e5780633c5f07cb146101ca575b5f80fd5b348015610143575f80fd5b5061014c6104f2565b005b348015610159575f80fd5b5061016261067b565b60405161016f9190611776565b60405180910390f35b348015610183575f80fd5b5061018c610682565b005b348015610199575f80fd5b506101b460048036038101906101af91906117ed565b6107f4565b6040516101c19190611776565b60405180910390f35b6101d261084b565b005b3480156101df575f80fd5b506101fa60048036038101906101f591906117ed565b610890565b6040516102079190611776565b60405180910390f35b34801561021b575f80fd5b506102246108b3565b6040516102319190611776565b60405180910390f35b348015610245575f80fd5b50610260600480360381019061025b91906117ed565b6108b9565b60405161026d9190611776565b60405180910390f35b348015610281575f80fd5b5061029c60048036038101906102979190611842565b6108ff565b6040516102a9919061187c565b60405180910390f35b3480156102bd575f80fd5b506102c661093a565b005b3480156102d3575f80fd5b506102ee60048036038101906102e99190611895565b6109ed565b6040516102fb9190611776565b60405180910390f35b34801561030f575f80fd5b50610318610a03565b604051610325919061187c565b60405180910390f35b348015610339575f80fd5b50610342610a2a565b60405161034f91906118ed565b60405180910390f35b348015610363575f80fd5b5061036c610a7f565b6040516103799190611961565b60405180910390f35b34801561038d575f80fd5b506103a860048036038101906103a39190611842565b610aa4565b6040516103b59190611776565b60405180910390f35b3480156103c9575f80fd5b506103e460048036038101906103df91906117ed565b610ab9565b6040516103f19190611776565b60405180910390f35b610414600480360381019061040f91906117ed565b610b5e565b005b348015610421575f80fd5b5061043c60048036038101906104379190611842565b610d8f565b6040516104499190611776565b60405180910390f35b34801561045d575f80fd5b5061047860048036038101906104739190611842565b610da1565b005b348015610485575f80fd5b506104a0600480360381019061049b91906117ed565b610dbb565b005b3480156104ad575f80fd5b506104c860048036038101906104c391906117ed565b610ed5565b005b3480156104d5575f80fd5b506104f060048036038101906104eb91906117ed565b610ef1565b005b60095f9054906101000a900460ff16610509575f80fd5b5f610513336107f4565b90505f61051f82610aa4565b90505f61052b82611301565b90505f600b5f3373ffffffffffffffffffffffffffffffffffffffff1673ffffffffffffffffffffffffffffffffffffffff1681526020019081526020015f208190555042600c5f3373ffffffffffffffffffffffffffffffffffffffff1673ffffffffffffffffffffffffffffffffffffffff1681526020019081526020015f20819055506105bd600e548461131f565b600e81905550600960019054906101000a900473ffffffffffffffffffffffffffffffffffffffff1673ffffffffffffffffffffffffffffffffffffffff166108fc8290811502906040515f60405180830381858888f19350505050158015610628573d5f803e3d5ffd5b503373ffffffffffffffffffffffffffffffffffffffff166108fc61064d8484611334565b90811502906040515f60405180830381858888f19350505050158015610675573d5f803e3d5ffd5b50505050565b5f47905090565b5f3390505f60025f8373ffffffffffffffffffffffffffffffffffffffff1673ffffffffffffffffffffffffffffffffffffffff1681526020019081526020015f2054905042600354826106d691906119a7565b10156106e35750506107f2565b4260025f8473ffffffffffffffffffffffffffffffffffffffff1673ffffffffffffffffffffffffffffffffffffffff1681526020019081526020015f20819055505f60015f9054906101000a900473ffffffffffffffffffffffffffffffffffffffff1673ffffffffffffffffffffffffffffffffffffffff1663954fa5ee30856040518363ffffffff1660e01b81526004016107829291906119da565b6020604051808303815f875af115801561079e573d5f803e3d5ffd5b505050506040513d601f19601f820116820180604052508101906107c29190611a15565b90505f8111156107ee578060045f8282546107dd91906119a7565b925050819055506107ed81611349565b5b5050505b565b5f610844600b5f8473ffffffffffffffffffffffffffffffffffffffff1673ffffffffffffffffffffffffffffffffffffffff1681526020019081526020015f205461083f84610ab9565b61131f565b9050919050565b610853610a2a565b61085b575f80fd5b5f600e5414610868575f80fd5b600160095f6101000a81548160ff0219169083151502179055506419254d3800600e81905550565b5f8061089b836107f4565b90505f6108a782610aa4565b90508092505050919050565b60035481565b5f600a5f8373ffffffffffffffffffffffffffffffffffffffff1673ffffffffffffffffffffffffffffffffffffffff1681526020019081526020015f20549050919050565b600f818154811061090e575f80fd5b905f5260205f20015f915054906101000a900473ffffffffffffffffffffffffffffffffffffffff1681565b610942610a2a565b61094a575f80fd5b5f8054906101000a900473ffffffffffffffffffffffffffffffffffffffff1673ffffffffffffffffffffffffffffffffffffffff167ff8df31144d9c2f0f6b59d69b8b98abd5459d07f2742c4df920b25aae33c6482060405160405180910390a25f805f6101000a81548173ffffffffffffffffffffffffffffffffffffffff021916908373ffffffffffffffffffffffffffffffffffffffff160217905550565b5f6109fb8383600e54611355565b905092915050565b5f805f9054906101000a900473ffffffffffffffffffffffffffffffffffffffff16905090565b5f805f9054906101000a900473ffffffffffffffffffffffffffffffffffffffff1673ffffffffffffffffffffffffffffffffffffffff163373ffffffffffffffffffffffffffffffffffffffff1614905090565b60015f9054906101000a900473ffffffffffffffffffffffffffffffffffffffff1681565b5f610ab282600e5447611355565b9050919050565b5f80610b0d600554610b0842600c5f8873ffffffffffffffffffffffffffffffffffffffff1673ffffffffffffffffffffffffffffffffffffffff1681526020019081526020015f2054611334565b6113a7565b9050610b5681600a5f8673ffffffffffffffffffffffffffffffffffffffff1673ffffffffffffffffffffffffffffffffffffffff1681526020019081526020015f20546113bf565b915050919050565b60095f9054906101000a900460ff16610b75575f80fd5b5f3390505f610b8d34610b884734611334565b6109ed565b9050610ba181610b9c83611301565b611334565b90505f610bad34611301565b9050600960019054906101000a900473ffffffffffffffffffffffffffffffffffffffff1673ffffffffffffffffffffffffffffffffffffffff166108fc8290811502906040515f60405180830381858888f19350505050158015610c14573d5f803e3d5ffd5b50610c6583610c60600b5f8773ffffffffffffffffffffffffffffffffffffffff1673ffffffffffffffffffffffffffffffffffffffff1681526020019081526020015f20548561131f565b6113d4565b610c6e84610ef1565b6706f05b59d3b200003410610d89576001151560115f8573ffffffffffffffffffffffffffffffffffffffff1673ffffffffffffffffffffffffffffffffffffffff1681526020019081526020015f205f9054906101000a900460ff16151514610d8857600160115f8573ffffffffffffffffffffffffffffffffffffffff1673ffffffffffffffffffffffffffffffffffffffff1681526020019081526020015f205f6101000a81548160ff021916908315150217905550600f83908060018154018082558091505060019003905f5260205f20015f9091909190916101000a81548173ffffffffffffffffffffffffffffffffffffffff021916908373ffffffffffffffffffffffffffffffffffffffff1602179055505b5b50505050565b5f610d9a82476109ed565b9050919050565b610da9610a2a565b610db1575f80fd5b8060038190555050565b610dc3610a2a565b610dcb575f80fd5b5f73ffffffffffffffffffffffffffffffffffffffff168173ffffffffffffffffffffffffffffffffffffffff1603610e165773430000000000000000000000000000000000000290505b8060015f6101000a81548173ffffffffffffffffffffffffffffffffffffffff021916908373ffffffffffffffffffffffffffffffffffffffff16021790555060015f9054906101000a900473ffffffffffffffffffffffffffffffffffffffff1673ffffffffffffffffffffffffffffffffffffffff16634e606c476040518163ffffffff1660e01b81526004015f604051808303815f87803b158015610ebc575f80fd5b505af1158015610ece573d5f803e3d5ffd5b5050505050565b610edd610a2a565b610ee5575f80fd5b610eee81611525565b50565b60095f9054906101000a900460ff16610f08575f80fd5b3373ffffffffffffffffffffffffffffffffffffffff168173ffffffffffffffffffffffffffffffffffffffff1603610f3f575f90505b5f73ffffffffffffffffffffffffffffffffffffffff16600d5f3373ffffffffffffffffffffffffffffffffffffffff1673ffffffffffffffffffffffffffffffffffffffff1681526020019081526020015f205f9054906101000a900473ffffffffffffffffffffffffffffffffffffffff1673ffffffffffffffffffffffffffffffffffffffff1614801561105e57503373ffffffffffffffffffffffffffffffffffffffff16600d5f3373ffffffffffffffffffffffffffffffffffffffff1673ffffffffffffffffffffffffffffffffffffffff1681526020019081526020015f205f9054906101000a900473ffffffffffffffffffffffffffffffffffffffff1673ffffffffffffffffffffffffffffffffffffffff1614155b156110df5780600d5f3373ffffffffffffffffffffffffffffffffffffffff1673ffffffffffffffffffffffffffffffffffffffff1681526020019081526020015f205f6101000a81548173ffffffffffffffffffffffffffffffffffffffff021916908373ffffffffffffffffffffffffffffffffffffffff1602179055505b5f6110e9336107f4565b90505f6110f882600554611617565b9050611141600a5f3373ffffffffffffffffffffffffffffffffffffffff1673ffffffffffffffffffffffffffffffffffffffff1681526020019081526020015f20548261131f565b600a5f3373ffffffffffffffffffffffffffffffffffffffff1673ffffffffffffffffffffffffffffffffffffffff1681526020019081526020015f208190555061118c335f6113d4565b42600c5f3373ffffffffffffffffffffffffffffffffffffffff1673ffffffffffffffffffffffffffffffffffffffff1681526020019081526020015f20819055506112e0600d5f3373ffffffffffffffffffffffffffffffffffffffff1673ffffffffffffffffffffffffffffffffffffffff1681526020019081526020015f205f9054906101000a900473ffffffffffffffffffffffffffffffffffffffff166112db600b5f600d5f3373ffffffffffffffffffffffffffffffffffffffff1673ffffffffffffffffffffffffffffffffffffffff1681526020019081526020015f205f9054906101000a900473ffffffffffffffffffffffffffffffffffffffff1673ffffffffffffffffffffffffffffffffffffffff1673ffffffffffffffffffffffffffffffffffffffff1681526020019081526020015f20546112d6866008611617565b61131f565b6113d4565b6112f6600e546112f1846005611617565b61131f565b600e81905550505050565b5f611318611311836008546113bf565b6064611617565b9050919050565b5f818361132c91906119a7565b905092915050565b5f81836113419190611a40565b905092915050565b6113528161162c565b50565b5f61139e611365600654846113bf565b61139960075461139461138e61137d6006548a6113bf565b6113896007548c6113bf565b61131f565b89611617565b61131f565b611617565b90509392505050565b5f8183106113b557816113b7565b825b905092915050565b5f81836113cc9190611a73565b905092915050565b6001151560105f8473ffffffffffffffffffffffffffffffffffffffff1673ffffffffffffffffffffffffffffffffffffffff1681526020019081526020015f205f9054906101000a900460ff161515146114df57601282908060018154018082558091505060019003905f5260205f20015f9091909190916101000a81548173ffffffffffffffffffffffffffffffffffffffff021916908373ffffffffffffffffffffffffffffffffffffffff160217905550600160105f8473ffffffffffffffffffffffffffffffffffffffff1673ffffffffffffffffffffffffffffffffffffffff1681526020019081526020015f205f6101000a81548160ff0219169083151502179055505b80600b5f8473ffffffffffffffffffffffffffffffffffffffff1673ffffffffffffffffffffffffffffffffffffffff1681526020019081526020015f20819055505050565b5f73ffffffffffffffffffffffffffffffffffffffff168173ffffffffffffffffffffffffffffffffffffffff160361155c575f80fd5b8073ffffffffffffffffffffffffffffffffffffffff165f8054906101000a900473ffffffffffffffffffffffffffffffffffffffff1673ffffffffffffffffffffffffffffffffffffffff167f8be0079c531659141344cd1fd0a4f28419497f9722a3daafe3b4186f6b6457e060405160405180910390a3805f806101000a81548173ffffffffffffffffffffffffffffffffffffffff021916908373ffffffffffffffffffffffffffffffffffffffff16021790555050565b5f81836116249190611ae1565b905092915050565b5f81111561170e575f805f5b60128054905081101561170a576012818154811061165957611658611b11565b5b905f5260205f20015f9054906101000a900473ffffffffffffffffffffffffffffffffffffffff1692506116e7600e546116d9600b5f8773ffffffffffffffffffffffffffffffffffffffff1673ffffffffffffffffffffffffffffffffffffffff1681526020019081526020015f2054876113bf90919063ffffffff16565b61161790919063ffffffff16565b91505f8211156116fd576116fb8383611711565b505b8080600101915050611638565b5050505b50565b5f8273ffffffffffffffffffffffffffffffffffffffff166108fc8390811502906040515f60405180830381858888f19350505050156117545760019050611758565b5f90505b92915050565b5f819050919050565b6117708161175e565b82525050565b5f6020820190506117895f830184611767565b92915050565b5f80fd5b5f73ffffffffffffffffffffffffffffffffffffffff82169050919050565b5f6117bc82611793565b9050919050565b6117cc816117b2565b81146117d6575f80fd5b50565b5f813590506117e7816117c3565b92915050565b5f602082840312156118025761180161178f565b5b5f61180f848285016117d9565b91505092915050565b6118218161175e565b811461182b575f80fd5b50565b5f8135905061183c81611818565b92915050565b5f602082840312156118575761185661178f565b5b5f6118648482850161182e565b91505092915050565b611876816117b2565b82525050565b5f60208201905061188f5f83018461186d565b92915050565b5f80604083850312156118ab576118aa61178f565b5b5f6118b88582860161182e565b92505060206118c98582860161182e565b9150509250929050565b5f8115159050919050565b6118e7816118d3565b82525050565b5f6020820190506119005f8301846118de565b92915050565b5f819050919050565b5f61192961192461191f84611793565b611906565b611793565b9050919050565b5f61193a8261190f565b9050919050565b5f61194b82611930565b9050919050565b61195b81611941565b82525050565b5f6020820190506119745f830184611952565b92915050565b7f4e487b71000000000000000000000000000000000000000000000000000000005f52601160045260245ffd5b5f6119b18261175e565b91506119bc8361175e565b92508282019050808211156119d4576119d361197a565b5b92915050565b5f6040820190506119ed5f83018561186d565b6119fa602083018461186d565b9392505050565b5f81519050611a0f81611818565b92915050565b5f60208284031215611a2a57611a2961178f565b5b5f611a3784828501611a01565b91505092915050565b5f611a4a8261175e565b9150611a558361175e565b9250828203905081811115611a6d57611a6c61197a565b5b92915050565b5f611a7d8261175e565b9150611a888361175e565b9250828202611a968161175e565b91508282048414831517611aad57611aac61197a565b5b5092915050565b7f4e487b71000000000000000000000000000000000000000000000000000000005f52601260045260245ffd5b5f611aeb8261175e565b9150611af68361175e565b925082611b0657611b05611ab4565b5b828204905092915050565b7f4e487b71000000000000000000000000000000000000000000000000000000005f52603260045260245ffdfea26469706673582212206a2f79ac37994ea56b054b14a61ee2bf409d2c7abd98d59767b8c08b6f9b6c9764736f6c63430008180033",
					"opcodes": "PUSH1 0x80 PUSH1 0x40 MSTORE PUSH3 0x15180 PUSH1 0x3 SSTORE PUSH3 0x107AC0 PUSH1 0x5 SSTORE PUSH2 0x2710 PUSH1 0x6 SSTORE PUSH2 0x1388 PUSH1 0x7 SSTORE PUSH1 0x3 PUSH1 0x8 SSTORE PUSH0 PUSH1 0x9 PUSH0 PUSH2 0x100 EXP DUP2 SLOAD DUP2 PUSH1 0xFF MUL NOT AND SWAP1 DUP4 ISZERO ISZERO MUL OR SWAP1 SSTORE POP CALLVALUE DUP1 ISZERO PUSH2 0x47 JUMPI PUSH0 DUP1 REVERT JUMPDEST POP CALLER PUSH0 DUP1 PUSH2 0x100 EXP DUP2 SLOAD DUP2 PUSH20 0xFFFFFFFFFFFFFFFFFFFFFFFFFFFFFFFFFFFFFFFF MUL NOT AND SWAP1 DUP4 PUSH20 0xFFFFFFFFFFFFFFFFFFFFFFFFFFFFFFFFFFFFFFFF AND MUL OR SWAP1 SSTORE POP CALLER PUSH1 0x9 PUSH1 0x1 PUSH2 0x100 EXP DUP2 SLOAD DUP2 PUSH20 0xFFFFFFFFFFFFFFFFFFFFFFFFFFFFFFFFFFFFFFFF MUL NOT AND SWAP1 DUP4 PUSH20 0xFFFFFFFFFFFFFFFFFFFFFFFFFFFFFFFFFFFFFFFF AND MUL OR SWAP1 SSTORE POP PUSH2 0x1B74 DUP1 PUSH2 0xD5 PUSH0 CODECOPY PUSH0 RETURN INVALID PUSH1 0x80 PUSH1 0x40 MSTORE PUSH1 0x4 CALLDATASIZE LT PUSH2 0x134 JUMPI PUSH0 CALLDATALOAD PUSH1 0xE0 SHR DUP1 PUSH4 0x8DA5CB5B GT PUSH2 0xAA JUMPI DUP1 PUSH4 0xE5D782FC GT PUSH2 0x6E JUMPI DUP1 PUSH4 0xE5D782FC EQ PUSH2 0x3FA JUMPI DUP1 PUSH4 0xE953F982 EQ PUSH2 0x416 JUMPI DUP1 PUSH4 0xEACA243B EQ PUSH2 0x452 JUMPI DUP1 PUSH4 0xF2E809E0 EQ PUSH2 0x47A JUMPI DUP1 PUSH4 0xF2FDE38B EQ PUSH2 0x4A2 JUMPI DUP1 PUSH4 0xFEEEA92E EQ PUSH2 0x4CA JUMPI PUSH2 0x134 JUMP JUMPDEST DUP1 PUSH4 0x8DA5CB5B EQ PUSH2 0x304 JUMPI DUP1 PUSH4 0x8F32D59B EQ PUSH2 0x32E JUMPI DUP1 PUSH4 0x97D75776 EQ PUSH2 0x358 JUMPI DUP1 PUSH4 0xB18A2F82 EQ PUSH2 0x382 JUMPI DUP1 PUSH4 0xC2A6856F EQ PUSH2 0x3BE JUMPI PUSH2 0x134 JUMP JUMPDEST DUP1 PUSH4 0x450C9D7D GT PUSH2 0xFC JUMPI DUP1 PUSH4 0x450C9D7D EQ PUSH2 0x1D4 JUMPI DUP1 PUSH4 0x4ADDC0E8 EQ PUSH2 0x210 JUMPI DUP1 PUSH4 0x4B634B06 EQ PUSH2 0x23A JUMPI DUP1 PUSH4 0x53E3323B EQ PUSH2 0x276 JUMPI DUP1 PUSH4 0x715018A6 EQ PUSH2 0x2B2 JUMPI DUP1 PUSH4 0x7A571AE1 EQ PUSH2 0x2C8 JUMPI PUSH2 0x134 JUMP JUMPDEST DUP1 PUSH4 0x12D754C EQ PUSH2 0x138 JUMPI DUP1 PUSH4 0x12065FE0 EQ PUSH2 0x14E JUMPI DUP1 PUSH4 0x23084E5F EQ PUSH2 0x178 JUMPI DUP1 PUSH4 0x2CF4F274 EQ PUSH2 0x18E JUMPI DUP1 PUSH4 0x3C5F07CB EQ PUSH2 0x1CA JUMPI JUMPDEST PUSH0 DUP1 REVERT JUMPDEST CALLVALUE DUP1 ISZERO PUSH2 0x143 JUMPI PUSH0 DUP1 REVERT JUMPDEST POP PUSH2 0x14C PUSH2 0x4F2 JUMP JUMPDEST STOP JUMPDEST CALLVALUE DUP1 ISZERO PUSH2 0x159 JUMPI PUSH0 DUP1 REVERT JUMPDEST POP PUSH2 0x162 PUSH2 0x67B JUMP JUMPDEST PUSH1 0x40 MLOAD PUSH2 0x16F SWAP2 SWAP1 PUSH2 0x1776 JUMP JUMPDEST PUSH1 0x40 MLOAD DUP1 SWAP2 SUB SWAP1 RETURN JUMPDEST CALLVALUE DUP1 ISZERO PUSH2 0x183 JUMPI PUSH0 DUP1 REVERT JUMPDEST POP PUSH2 0x18C PUSH2 0x682 JUMP JUMPDEST STOP JUMPDEST CALLVALUE DUP1 ISZERO PUSH2 0x199 JUMPI PUSH0 DUP1 REVERT JUMPDEST POP PUSH2 0x1B4 PUSH1 0x4 DUP1 CALLDATASIZE SUB DUP2 ADD SWAP1 PUSH2 0x1AF SWAP2 SWAP1 PUSH2 0x17ED JUMP JUMPDEST PUSH2 0x7F4 JUMP JUMPDEST PUSH1 0x40 MLOAD PUSH2 0x1C1 SWAP2 SWAP1 PUSH2 0x1776 JUMP JUMPDEST PUSH1 0x40 MLOAD DUP1 SWAP2 SUB SWAP1 RETURN JUMPDEST PUSH2 0x1D2 PUSH2 0x84B JUMP JUMPDEST STOP JUMPDEST CALLVALUE DUP1 ISZERO PUSH2 0x1DF JUMPI PUSH0 DUP1 REVERT JUMPDEST POP PUSH2 0x1FA PUSH1 0x4 DUP1 CALLDATASIZE SUB DUP2 ADD SWAP1 PUSH2 0x1F5 SWAP2 SWAP1 PUSH2 0x17ED JUMP JUMPDEST PUSH2 0x890 JUMP JUMPDEST PUSH1 0x40 MLOAD PUSH2 0x207 SWAP2 SWAP1 PUSH2 0x1776 JUMP JUMPDEST PUSH1 0x40 MLOAD DUP1 SWAP2 SUB SWAP1 RETURN JUMPDEST CALLVALUE DUP1 ISZERO PUSH2 0x21B JUMPI PUSH0 DUP1 REVERT JUMPDEST POP PUSH2 0x224 PUSH2 0x8B3 JUMP JUMPDEST PUSH1 0x40 MLOAD PUSH2 0x231 SWAP2 SWAP1 PUSH2 0x1776 JUMP JUMPDEST PUSH1 0x40 MLOAD DUP1 SWAP2 SUB SWAP1 RETURN JUMPDEST CALLVALUE DUP1 ISZERO PUSH2 0x245 JUMPI PUSH0 DUP1 REVERT JUMPDEST POP PUSH2 0x260 PUSH1 0x4 DUP1 CALLDATASIZE SUB DUP2 ADD SWAP1 PUSH2 0x25B SWAP2 SWAP1 PUSH2 0x17ED JUMP JUMPDEST PUSH2 0x8B9 JUMP JUMPDEST PUSH1 0x40 MLOAD PUSH2 0x26D SWAP2 SWAP1 PUSH2 0x1776 JUMP JUMPDEST PUSH1 0x40 MLOAD DUP1 SWAP2 SUB SWAP1 RETURN JUMPDEST CALLVALUE DUP1 ISZERO PUSH2 0x281 JUMPI PUSH0 DUP1 REVERT JUMPDEST POP PUSH2 0x29C PUSH1 0x4 DUP1 CALLDATASIZE SUB DUP2 ADD SWAP1 PUSH2 0x297 SWAP2 SWAP1 PUSH2 0x1842 JUMP JUMPDEST PUSH2 0x8FF JUMP JUMPDEST PUSH1 0x40 MLOAD PUSH2 0x2A9 SWAP2 SWAP1 PUSH2 0x187C JUMP JUMPDEST PUSH1 0x40 MLOAD DUP1 SWAP2 SUB SWAP1 RETURN JUMPDEST CALLVALUE DUP1 ISZERO PUSH2 0x2BD JUMPI PUSH0 DUP1 REVERT JUMPDEST POP PUSH2 0x2C6 PUSH2 0x93A JUMP JUMPDEST STOP JUMPDEST CALLVALUE DUP1 ISZERO PUSH2 0x2D3 JUMPI PUSH0 DUP1 REVERT JUMPDEST POP PUSH2 0x2EE PUSH1 0x4 DUP1 CALLDATASIZE SUB DUP2 ADD SWAP1 PUSH2 0x2E9 SWAP2 SWAP1 PUSH2 0x1895 JUMP JUMPDEST PUSH2 0x9ED JUMP JUMPDEST PUSH1 0x40 MLOAD PUSH2 0x2FB SWAP2 SWAP1 PUSH2 0x1776 JUMP JUMPDEST PUSH1 0x40 MLOAD DUP1 SWAP2 SUB SWAP1 RETURN JUMPDEST CALLVALUE DUP1 ISZERO PUSH2 0x30F JUMPI PUSH0 DUP1 REVERT JUMPDEST POP PUSH2 0x318 PUSH2 0xA03 JUMP JUMPDEST PUSH1 0x40 MLOAD PUSH2 0x325 SWAP2 SWAP1 PUSH2 0x187C JUMP JUMPDEST PUSH1 0x40 MLOAD DUP1 SWAP2 SUB SWAP1 RETURN JUMPDEST CALLVALUE DUP1 ISZERO PUSH2 0x339 JUMPI PUSH0 DUP1 REVERT JUMPDEST POP PUSH2 0x342 PUSH2 0xA2A JUMP JUMPDEST PUSH1 0x40 MLOAD PUSH2 0x34F SWAP2 SWAP1 PUSH2 0x18ED JUMP JUMPDEST PUSH1 0x40 MLOAD DUP1 SWAP2 SUB SWAP1 RETURN JUMPDEST CALLVALUE DUP1 ISZERO PUSH2 0x363 JUMPI PUSH0 DUP1 REVERT JUMPDEST POP PUSH2 0x36C PUSH2 0xA7F JUMP JUMPDEST PUSH1 0x40 MLOAD PUSH2 0x379 SWAP2 SWAP1 PUSH2 0x1961 JUMP JUMPDEST PUSH1 0x40 MLOAD DUP1 SWAP2 SUB SWAP1 RETURN JUMPDEST CALLVALUE DUP1 ISZERO PUSH2 0x38D JUMPI PUSH0 DUP1 REVERT JUMPDEST POP PUSH2 0x3A8 PUSH1 0x4 DUP1 CALLDATASIZE SUB DUP2 ADD SWAP1 PUSH2 0x3A3 SWAP2 SWAP1 PUSH2 0x1842 JUMP JUMPDEST PUSH2 0xAA4 JUMP JUMPDEST PUSH1 0x40 MLOAD PUSH2 0x3B5 SWAP2 SWAP1 PUSH2 0x1776 JUMP JUMPDEST PUSH1 0x40 MLOAD DUP1 SWAP2 SUB SWAP1 RETURN JUMPDEST CALLVALUE DUP1 ISZERO PUSH2 0x3C9 JUMPI PUSH0 DUP1 REVERT JUMPDEST POP PUSH2 0x3E4 PUSH1 0x4 DUP1 CALLDATASIZE SUB DUP2 ADD SWAP1 PUSH2 0x3DF SWAP2 SWAP1 PUSH2 0x17ED JUMP JUMPDEST PUSH2 0xAB9 JUMP JUMPDEST PUSH1 0x40 MLOAD PUSH2 0x3F1 SWAP2 SWAP1 PUSH2 0x1776 JUMP JUMPDEST PUSH1 0x40 MLOAD DUP1 SWAP2 SUB SWAP1 RETURN JUMPDEST PUSH2 0x414 PUSH1 0x4 DUP1 CALLDATASIZE SUB DUP2 ADD SWAP1 PUSH2 0x40F SWAP2 SWAP1 PUSH2 0x17ED JUMP JUMPDEST PUSH2 0xB5E JUMP JUMPDEST STOP JUMPDEST CALLVALUE DUP1 ISZERO PUSH2 0x421 JUMPI PUSH0 DUP1 REVERT JUMPDEST POP PUSH2 0x43C PUSH1 0x4 DUP1 CALLDATASIZE SUB DUP2 ADD SWAP1 PUSH2 0x437 SWAP2 SWAP1 PUSH2 0x1842 JUMP JUMPDEST PUSH2 0xD8F JUMP JUMPDEST PUSH1 0x40 MLOAD PUSH2 0x449 SWAP2 SWAP1 PUSH2 0x1776 JUMP JUMPDEST PUSH1 0x40 MLOAD DUP1 SWAP2 SUB SWAP1 RETURN JUMPDEST CALLVALUE DUP1 ISZERO PUSH2 0x45D JUMPI PUSH0 DUP1 REVERT JUMPDEST POP PUSH2 0x478 PUSH1 0x4 DUP1 CALLDATASIZE SUB DUP2 ADD SWAP1 PUSH2 0x473 SWAP2 SWAP1 PUSH2 0x1842 JUMP JUMPDEST PUSH2 0xDA1 JUMP JUMPDEST STOP JUMPDEST CALLVALUE DUP1 ISZERO PUSH2 0x485 JUMPI PUSH0 DUP1 REVERT JUMPDEST POP PUSH2 0x4A0 PUSH1 0x4 DUP1 CALLDATASIZE SUB DUP2 ADD SWAP1 PUSH2 0x49B SWAP2 SWAP1 PUSH2 0x17ED JUMP JUMPDEST PUSH2 0xDBB JUMP JUMPDEST STOP JUMPDEST CALLVALUE DUP1 ISZERO PUSH2 0x4AD JUMPI PUSH0 DUP1 REVERT JUMPDEST POP PUSH2 0x4C8 PUSH1 0x4 DUP1 CALLDATASIZE SUB DUP2 ADD SWAP1 PUSH2 0x4C3 SWAP2 SWAP1 PUSH2 0x17ED JUMP JUMPDEST PUSH2 0xED5 JUMP JUMPDEST STOP JUMPDEST CALLVALUE DUP1 ISZERO PUSH2 0x4D5 JUMPI PUSH0 DUP1 REVERT JUMPDEST POP PUSH2 0x4F0 PUSH1 0x4 DUP1 CALLDATASIZE SUB DUP2 ADD SWAP1 PUSH2 0x4EB SWAP2 SWAP1 PUSH2 0x17ED JUMP JUMPDEST PUSH2 0xEF1 JUMP JUMPDEST STOP JUMPDEST PUSH1 0x9 PUSH0 SWAP1 SLOAD SWAP1 PUSH2 0x100 EXP SWAP1 DIV PUSH1 0xFF AND PUSH2 0x509 JUMPI PUSH0 DUP1 REVERT JUMPDEST PUSH0 PUSH2 0x513 CALLER PUSH2 0x7F4 JUMP JUMPDEST SWAP1 POP PUSH0 PUSH2 0x51F DUP3 PUSH2 0xAA4 JUMP JUMPDEST SWAP1 POP PUSH0 PUSH2 0x52B DUP3 PUSH2 0x1301 JUMP JUMPDEST SWAP1 POP PUSH0 PUSH1 0xB PUSH0 CALLER PUSH20 0xFFFFFFFFFFFFFFFFFFFFFFFFFFFFFFFFFFFFFFFF AND PUSH20 0xFFFFFFFFFFFFFFFFFFFFFFFFFFFFFFFFFFFFFFFF AND DUP2 MSTORE PUSH1 0x20 ADD SWAP1 DUP2 MSTORE PUSH1 0x20 ADD PUSH0 KECCAK256 DUP2 SWAP1 SSTORE POP TIMESTAMP PUSH1 0xC PUSH0 CALLER PUSH20 0xFFFFFFFFFFFFFFFFFFFFFFFFFFFFFFFFFFFFFFFF AND PUSH20 0xFFFFFFFFFFFFFFFFFFFFFFFFFFFFFFFFFFFFFFFF AND DUP2 MSTORE PUSH1 0x20 ADD SWAP1 DUP2 MSTORE PUSH1 0x20 ADD PUSH0 KECCAK256 DUP2 SWAP1 SSTORE POP PUSH2 0x5BD PUSH1 0xE SLOAD DUP5 PUSH2 0x131F JUMP JUMPDEST PUSH1 0xE DUP2 SWAP1 SSTORE POP PUSH1 0x9 PUSH1 0x1 SWAP1 SLOAD SWAP1 PUSH2 0x100 EXP SWAP1 DIV PUSH20 0xFFFFFFFFFFFFFFFFFFFFFFFFFFFFFFFFFFFFFFFF AND PUSH20 0xFFFFFFFFFFFFFFFFFFFFFFFFFFFFFFFFFFFFFFFF AND PUSH2 0x8FC DUP3 SWAP1 DUP2 ISZERO MUL SWAP1 PUSH1 0x40 MLOAD PUSH0 PUSH1 0x40 MLOAD DUP1 DUP4 SUB DUP2 DUP6 DUP9 DUP9 CALL SWAP4 POP POP POP POP ISZERO DUP1 ISZERO PUSH2 0x628 JUMPI RETURNDATASIZE PUSH0 DUP1 RETURNDATACOPY RETURNDATASIZE PUSH0 REVERT JUMPDEST POP CALLER PUSH20 0xFFFFFFFFFFFFFFFFFFFFFFFFFFFFFFFFFFFFFFFF AND PUSH2 0x8FC PUSH2 0x64D DUP5 DUP5 PUSH2 0x1334 JUMP JUMPDEST SWAP1 DUP2 ISZERO MUL SWAP1 PUSH1 0x40 MLOAD PUSH0 PUSH1 0x40 MLOAD DUP1 DUP4 SUB DUP2 DUP6 DUP9 DUP9 CALL SWAP4 POP POP POP POP ISZERO DUP1 ISZERO PUSH2 0x675 JUMPI RETURNDATASIZE PUSH0 DUP1 RETURNDATACOPY RETURNDATASIZE PUSH0 REVERT JUMPDEST POP POP POP POP JUMP JUMPDEST PUSH0 SELFBALANCE SWAP1 POP SWAP1 JUMP JUMPDEST PUSH0 CALLER SWAP1 POP PUSH0 PUSH1 0x2 PUSH0 DUP4 PUSH20 0xFFFFFFFFFFFFFFFFFFFFFFFFFFFFFFFFFFFFFFFF AND PUSH20 0xFFFFFFFFFFFFFFFFFFFFFFFFFFFFFFFFFFFFFFFF AND DUP2 MSTORE PUSH1 0x20 ADD SWAP1 DUP2 MSTORE PUSH1 0x20 ADD PUSH0 KECCAK256 SLOAD SWAP1 POP TIMESTAMP PUSH1 0x3 SLOAD DUP3 PUSH2 0x6D6 SWAP2 SWAP1 PUSH2 0x19A7 JUMP JUMPDEST LT ISZERO PUSH2 0x6E3 JUMPI POP POP PUSH2 0x7F2 JUMP JUMPDEST TIMESTAMP PUSH1 0x2 PUSH0 DUP5 PUSH20 0xFFFFFFFFFFFFFFFFFFFFFFFFFFFFFFFFFFFFFFFF AND PUSH20 0xFFFFFFFFFFFFFFFFFFFFFFFFFFFFFFFFFFFFFFFF AND DUP2 MSTORE PUSH1 0x20 ADD SWAP1 DUP2 MSTORE PUSH1 0x20 ADD PUSH0 KECCAK256 DUP2 SWAP1 SSTORE POP PUSH0 PUSH1 0x1 PUSH0 SWAP1 SLOAD SWAP1 PUSH2 0x100 EXP SWAP1 DIV PUSH20 0xFFFFFFFFFFFFFFFFFFFFFFFFFFFFFFFFFFFFFFFF AND PUSH20 0xFFFFFFFFFFFFFFFFFFFFFFFFFFFFFFFFFFFFFFFF AND PUSH4 0x954FA5EE ADDRESS DUP6 PUSH1 0x40 MLOAD DUP4 PUSH4 0xFFFFFFFF AND PUSH1 0xE0 SHL DUP2 MSTORE PUSH1 0x4 ADD PUSH2 0x782 SWAP3 SWAP2 SWAP1 PUSH2 0x19DA JUMP JUMPDEST PUSH1 0x20 PUSH1 0x40 MLOAD DUP1 DUP4 SUB DUP2 PUSH0 DUP8 GAS CALL ISZERO DUP1 ISZERO PUSH2 0x79E JUMPI RETURNDATASIZE PUSH0 DUP1 RETURNDATACOPY RETURNDATASIZE PUSH0 REVERT JUMPDEST POP POP POP POP PUSH1 0x40 MLOAD RETURNDATASIZE PUSH1 0x1F NOT PUSH1 0x1F DUP3 ADD AND DUP3 ADD DUP1 PUSH1 0x40 MSTORE POP DUP2 ADD SWAP1 PUSH2 0x7C2 SWAP2 SWAP1 PUSH2 0x1A15 JUMP JUMPDEST SWAP1 POP PUSH0 DUP2 GT ISZERO PUSH2 0x7EE JUMPI DUP1 PUSH1 0x4 PUSH0 DUP3 DUP3 SLOAD PUSH2 0x7DD SWAP2 SWAP1 PUSH2 0x19A7 JUMP JUMPDEST SWAP3 POP POP DUP2 SWAP1 SSTORE POP PUSH2 0x7ED DUP2 PUSH2 0x1349 JUMP JUMPDEST JUMPDEST POP POP POP JUMPDEST JUMP JUMPDEST PUSH0 PUSH2 0x844 PUSH1 0xB PUSH0 DUP5 PUSH20 0xFFFFFFFFFFFFFFFFFFFFFFFFFFFFFFFFFFFFFFFF AND PUSH20 0xFFFFFFFFFFFFFFFFFFFFFFFFFFFFFFFFFFFFFFFF AND DUP2 MSTORE PUSH1 0x20 ADD SWAP1 DUP2 MSTORE PUSH1 0x20 ADD PUSH0 KECCAK256 SLOAD PUSH2 0x83F DUP5 PUSH2 0xAB9 JUMP JUMPDEST PUSH2 0x131F JUMP JUMPDEST SWAP1 POP SWAP2 SWAP1 POP JUMP JUMPDEST PUSH2 0x853 PUSH2 0xA2A JUMP JUMPDEST PUSH2 0x85B JUMPI PUSH0 DUP1 REVERT JUMPDEST PUSH0 PUSH1 0xE SLOAD EQ PUSH2 0x868 JUMPI PUSH0 DUP1 REVERT JUMPDEST PUSH1 0x1 PUSH1 0x9 PUSH0 PUSH2 0x100 EXP DUP2 SLOAD DUP2 PUSH1 0xFF MUL NOT AND SWAP1 DUP4 ISZERO ISZERO MUL OR SWAP1 SSTORE POP PUSH5 0x19254D3800 PUSH1 0xE DUP2 SWAP1 SSTORE POP JUMP JUMPDEST PUSH0 DUP1 PUSH2 0x89B DUP4 PUSH2 0x7F4 JUMP JUMPDEST SWAP1 POP PUSH0 PUSH2 0x8A7 DUP3 PUSH2 0xAA4 JUMP JUMPDEST SWAP1 POP DUP1 SWAP3 POP POP POP SWAP2 SWAP1 POP JUMP JUMPDEST PUSH1 0x3 SLOAD DUP2 JUMP JUMPDEST PUSH0 PUSH1 0xA PUSH0 DUP4 PUSH20 0xFFFFFFFFFFFFFFFFFFFFFFFFFFFFFFFFFFFFFFFF AND PUSH20 0xFFFFFFFFFFFFFFFFFFFFFFFFFFFFFFFFFFFFFFFF AND DUP2 MSTORE PUSH1 0x20 ADD SWAP1 DUP2 MSTORE PUSH1 0x20 ADD PUSH0 KECCAK256 SLOAD SWAP1 POP SWAP2 SWAP1 POP JUMP JUMPDEST PUSH1 0xF DUP2 DUP2 SLOAD DUP2 LT PUSH2 0x90E JUMPI PUSH0 DUP1 REVERT JUMPDEST SWAP1 PUSH0 MSTORE PUSH1 0x20 PUSH0 KECCAK256 ADD PUSH0 SWAP2 POP SLOAD SWAP1 PUSH2 0x100 EXP SWAP1 DIV PUSH20 0xFFFFFFFFFFFFFFFFFFFFFFFFFFFFFFFFFFFFFFFF AND DUP2 JUMP JUMPDEST PUSH2 0x942 PUSH2 0xA2A JUMP JUMPDEST PUSH2 0x94A JUMPI PUSH0 DUP1 REVERT JUMPDEST PUSH0 DUP1 SLOAD SWAP1 PUSH2 0x100 EXP SWAP1 DIV PUSH20 0xFFFFFFFFFFFFFFFFFFFFFFFFFFFFFFFFFFFFFFFF AND PUSH20 0xFFFFFFFFFFFFFFFFFFFFFFFFFFFFFFFFFFFFFFFF AND PUSH32 0xF8DF31144D9C2F0F6B59D69B8B98ABD5459D07F2742C4DF920B25AAE33C64820 PUSH1 0x40 MLOAD PUSH1 0x40 MLOAD DUP1 SWAP2 SUB SWAP1 LOG2 PUSH0 DUP1 PUSH0 PUSH2 0x100 EXP DUP2 SLOAD DUP2 PUSH20 0xFFFFFFFFFFFFFFFFFFFFFFFFFFFFFFFFFFFFFFFF MUL NOT AND SWAP1 DUP4 PUSH20 0xFFFFFFFFFFFFFFFFFFFFFFFFFFFFFFFFFFFFFFFF AND MUL OR SWAP1 SSTORE POP JUMP JUMPDEST PUSH0 PUSH2 0x9FB DUP4 DUP4 PUSH1 0xE SLOAD PUSH2 0x1355 JUMP JUMPDEST SWAP1 POP SWAP3 SWAP2 POP POP JUMP JUMPDEST PUSH0 DUP1 PUSH0 SWAP1 SLOAD SWAP1 PUSH2 0x100 EXP SWAP1 DIV PUSH20 0xFFFFFFFFFFFFFFFFFFFFFFFFFFFFFFFFFFFFFFFF AND SWAP1 POP SWAP1 JUMP JUMPDEST PUSH0 DUP1 PUSH0 SWAP1 SLOAD SWAP1 PUSH2 0x100 EXP SWAP1 DIV PUSH20 0xFFFFFFFFFFFFFFFFFFFFFFFFFFFFFFFFFFFFFFFF AND PUSH20 0xFFFFFFFFFFFFFFFFFFFFFFFFFFFFFFFFFFFFFFFF AND CALLER PUSH20 0xFFFFFFFFFFFFFFFFFFFFFFFFFFFFFFFFFFFFFFFF AND EQ SWAP1 POP SWAP1 JUMP JUMPDEST PUSH1 0x1 PUSH0 SWAP1 SLOAD SWAP1 PUSH2 0x100 EXP SWAP1 DIV PUSH20 0xFFFFFFFFFFFFFFFFFFFFFFFFFFFFFFFFFFFFFFFF AND DUP2 JUMP JUMPDEST PUSH0 PUSH2 0xAB2 DUP3 PUSH1 0xE SLOAD SELFBALANCE PUSH2 0x1355 JUMP JUMPDEST SWAP1 POP SWAP2 SWAP1 POP JUMP JUMPDEST PUSH0 DUP1 PUSH2 0xB0D PUSH1 0x5 SLOAD PUSH2 0xB08 TIMESTAMP PUSH1 0xC PUSH0 DUP9 PUSH20 0xFFFFFFFFFFFFFFFFFFFFFFFFFFFFFFFFFFFFFFFF AND PUSH20 0xFFFFFFFFFFFFFFFFFFFFFFFFFFFFFFFFFFFFFFFF AND DUP2 MSTORE PUSH1 0x20 ADD SWAP1 DUP2 MSTORE PUSH1 0x20 ADD PUSH0 KECCAK256 SLOAD PUSH2 0x1334 JUMP JUMPDEST PUSH2 0x13A7 JUMP JUMPDEST SWAP1 POP PUSH2 0xB56 DUP2 PUSH1 0xA PUSH0 DUP7 PUSH20 0xFFFFFFFFFFFFFFFFFFFFFFFFFFFFFFFFFFFFFFFF AND PUSH20 0xFFFFFFFFFFFFFFFFFFFFFFFFFFFFFFFFFFFFFFFF AND DUP2 MSTORE PUSH1 0x20 ADD SWAP1 DUP2 MSTORE PUSH1 0x20 ADD PUSH0 KECCAK256 SLOAD PUSH2 0x13BF JUMP JUMPDEST SWAP2 POP POP SWAP2 SWAP1 POP JUMP JUMPDEST PUSH1 0x9 PUSH0 SWAP1 SLOAD SWAP1 PUSH2 0x100 EXP SWAP1 DIV PUSH1 0xFF AND PUSH2 0xB75 JUMPI PUSH0 DUP1 REVERT JUMPDEST PUSH0 CALLER SWAP1 POP PUSH0 PUSH2 0xB8D CALLVALUE PUSH2 0xB88 SELFBALANCE CALLVALUE PUSH2 0x1334 JUMP JUMPDEST PUSH2 0x9ED JUMP JUMPDEST SWAP1 POP PUSH2 0xBA1 DUP2 PUSH2 0xB9C DUP4 PUSH2 0x1301 JUMP JUMPDEST PUSH2 0x1334 JUMP JUMPDEST SWAP1 POP PUSH0 PUSH2 0xBAD CALLVALUE PUSH2 0x1301 JUMP JUMPDEST SWAP1 POP PUSH1 0x9 PUSH1 0x1 SWAP1 SLOAD SWAP1 PUSH2 0x100 EXP SWAP1 DIV PUSH20 0xFFFFFFFFFFFFFFFFFFFFFFFFFFFFFFFFFFFFFFFF AND PUSH20 0xFFFFFFFFFFFFFFFFFFFFFFFFFFFFFFFFFFFFFFFF AND PUSH2 0x8FC DUP3 SWAP1 DUP2 ISZERO MUL SWAP1 PUSH1 0x40 MLOAD PUSH0 PUSH1 0x40 MLOAD DUP1 DUP4 SUB DUP2 DUP6 DUP9 DUP9 CALL SWAP4 POP POP POP POP ISZERO DUP1 ISZERO PUSH2 0xC14 JUMPI RETURNDATASIZE PUSH0 DUP1 RETURNDATACOPY RETURNDATASIZE PUSH0 REVERT JUMPDEST POP PUSH2 0xC65 DUP4 PUSH2 0xC60 PUSH1 0xB PUSH0 DUP8 PUSH20 0xFFFFFFFFFFFFFFFFFFFFFFFFFFFFFFFFFFFFFFFF AND PUSH20 0xFFFFFFFFFFFFFFFFFFFFFFFFFFFFFFFFFFFFFFFF AND DUP2 MSTORE PUSH1 0x20 ADD SWAP1 DUP2 MSTORE PUSH1 0x20 ADD PUSH0 KECCAK256 SLOAD DUP6 PUSH2 0x131F JUMP JUMPDEST PUSH2 0x13D4 JUMP JUMPDEST PUSH2 0xC6E DUP5 PUSH2 0xEF1 JUMP JUMPDEST PUSH8 0x6F05B59D3B20000 CALLVALUE LT PUSH2 0xD89 JUMPI PUSH1 0x1 ISZERO ISZERO PUSH1 0x11 PUSH0 DUP6 PUSH20 0xFFFFFFFFFFFFFFFFFFFFFFFFFFFFFFFFFFFFFFFF AND PUSH20 0xFFFFFFFFFFFFFFFFFFFFFFFFFFFFFFFFFFFFFFFF AND DUP2 MSTORE PUSH1 0x20 ADD SWAP1 DUP2 MSTORE PUSH1 0x20 ADD PUSH0 KECCAK256 PUSH0 SWAP1 SLOAD SWAP1 PUSH2 0x100 EXP SWAP1 DIV PUSH1 0xFF AND ISZERO ISZERO EQ PUSH2 0xD88 JUMPI PUSH1 0x1 PUSH1 0x11 PUSH0 DUP6 PUSH20 0xFFFFFFFFFFFFFFFFFFFFFFFFFFFFFFFFFFFFFFFF AND PUSH20 0xFFFFFFFFFFFFFFFFFFFFFFFFFFFFFFFFFFFFFFFF AND DUP2 MSTORE PUSH1 0x20 ADD SWAP1 DUP2 MSTORE PUSH1 0x20 ADD PUSH0 KECCAK256 PUSH0 PUSH2 0x100 EXP DUP2 SLOAD DUP2 PUSH1 0xFF MUL NOT AND SWAP1 DUP4 ISZERO ISZERO MUL OR SWAP1 SSTORE POP PUSH1 0xF DUP4 SWAP1 DUP1 PUSH1 0x1 DUP2 SLOAD ADD DUP1 DUP3 SSTORE DUP1 SWAP2 POP POP PUSH1 0x1 SWAP1 SUB SWAP1 PUSH0 MSTORE PUSH1 0x20 PUSH0 KECCAK256 ADD PUSH0 SWAP1 SWAP2 SWAP1 SWAP2 SWAP1 SWAP2 PUSH2 0x100 EXP DUP2 SLOAD DUP2 PUSH20 0xFFFFFFFFFFFFFFFFFFFFFFFFFFFFFFFFFFFFFFFF MUL NOT AND SWAP1 DUP4 PUSH20 0xFFFFFFFFFFFFFFFFFFFFFFFFFFFFFFFFFFFFFFFF AND MUL OR SWAP1 SSTORE POP JUMPDEST JUMPDEST POP POP POP POP JUMP JUMPDEST PUSH0 PUSH2 0xD9A DUP3 SELFBALANCE PUSH2 0x9ED JUMP JUMPDEST SWAP1 POP SWAP2 SWAP1 POP JUMP JUMPDEST PUSH2 0xDA9 PUSH2 0xA2A JUMP JUMPDEST PUSH2 0xDB1 JUMPI PUSH0 DUP1 REVERT JUMPDEST DUP1 PUSH1 0x3 DUP2 SWAP1 SSTORE POP POP JUMP JUMPDEST PUSH2 0xDC3 PUSH2 0xA2A JUMP JUMPDEST PUSH2 0xDCB JUMPI PUSH0 DUP1 REVERT JUMPDEST PUSH0 PUSH20 0xFFFFFFFFFFFFFFFFFFFFFFFFFFFFFFFFFFFFFFFF AND DUP2 PUSH20 0xFFFFFFFFFFFFFFFFFFFFFFFFFFFFFFFFFFFFFFFF AND SUB PUSH2 0xE16 JUMPI PUSH20 0x4300000000000000000000000000000000000002 SWAP1 POP JUMPDEST DUP1 PUSH1 0x1 PUSH0 PUSH2 0x100 EXP DUP2 SLOAD DUP2 PUSH20 0xFFFFFFFFFFFFFFFFFFFFFFFFFFFFFFFFFFFFFFFF MUL NOT AND SWAP1 DUP4 PUSH20 0xFFFFFFFFFFFFFFFFFFFFFFFFFFFFFFFFFFFFFFFF AND MUL OR SWAP1 SSTORE POP PUSH1 0x1 PUSH0 SWAP1 SLOAD SWAP1 PUSH2 0x100 EXP SWAP1 DIV PUSH20 0xFFFFFFFFFFFFFFFFFFFFFFFFFFFFFFFFFFFFFFFF AND PUSH20 0xFFFFFFFFFFFFFFFFFFFFFFFFFFFFFFFFFFFFFFFF AND PUSH4 0x4E606C47 PUSH1 0x40 MLOAD DUP2 PUSH4 0xFFFFFFFF AND PUSH1 0xE0 SHL DUP2 MSTORE PUSH1 0x4 ADD PUSH0 PUSH1 0x40 MLOAD DUP1 DUP4 SUB DUP2 PUSH0 DUP8 DUP1 EXTCODESIZE ISZERO DUP1 ISZERO PUSH2 0xEBC JUMPI PUSH0 DUP1 REVERT JUMPDEST POP GAS CALL ISZERO DUP1 ISZERO PUSH2 0xECE JUMPI RETURNDATASIZE PUSH0 DUP1 RETURNDATACOPY RETURNDATASIZE PUSH0 REVERT JUMPDEST POP POP POP POP POP JUMP JUMPDEST PUSH2 0xEDD PUSH2 0xA2A JUMP JUMPDEST PUSH2 0xEE5 JUMPI PUSH0 DUP1 REVERT JUMPDEST PUSH2 0xEEE DUP2 PUSH2 0x1525 JUMP JUMPDEST POP JUMP JUMPDEST PUSH1 0x9 PUSH0 SWAP1 SLOAD SWAP1 PUSH2 0x100 EXP SWAP1 DIV PUSH1 0xFF AND PUSH2 0xF08 JUMPI PUSH0 DUP1 REVERT JUMPDEST CALLER PUSH20 0xFFFFFFFFFFFFFFFFFFFFFFFFFFFFFFFFFFFFFFFF AND DUP2 PUSH20 0xFFFFFFFFFFFFFFFFFFFFFFFFFFFFFFFFFFFFFFFF AND SUB PUSH2 0xF3F JUMPI PUSH0 SWAP1 POP JUMPDEST PUSH0 PUSH20 0xFFFFFFFFFFFFFFFFFFFFFFFFFFFFFFFFFFFFFFFF AND PUSH1 0xD PUSH0 CALLER PUSH20 0xFFFFFFFFFFFFFFFFFFFFFFFFFFFFFFFFFFFFFFFF AND PUSH20 0xFFFFFFFFFFFFFFFFFFFFFFFFFFFFFFFFFFFFFFFF AND DUP2 MSTORE PUSH1 0x20 ADD SWAP1 DUP2 MSTORE PUSH1 0x20 ADD PUSH0 KECCAK256 PUSH0 SWAP1 SLOAD SWAP1 PUSH2 0x100 EXP SWAP1 DIV PUSH20 0xFFFFFFFFFFFFFFFFFFFFFFFFFFFFFFFFFFFFFFFF AND PUSH20 0xFFFFFFFFFFFFFFFFFFFFFFFFFFFFFFFFFFFFFFFF AND EQ DUP1 ISZERO PUSH2 0x105E JUMPI POP CALLER PUSH20 0xFFFFFFFFFFFFFFFFFFFFFFFFFFFFFFFFFFFFFFFF AND PUSH1 0xD PUSH0 CALLER PUSH20 0xFFFFFFFFFFFFFFFFFFFFFFFFFFFFFFFFFFFFFFFF AND PUSH20 0xFFFFFFFFFFFFFFFFFFFFFFFFFFFFFFFFFFFFFFFF AND DUP2 MSTORE PUSH1 0x20 ADD SWAP1 DUP2 MSTORE PUSH1 0x20 ADD PUSH0 KECCAK256 PUSH0 SWAP1 SLOAD SWAP1 PUSH2 0x100 EXP SWAP1 DIV PUSH20 0xFFFFFFFFFFFFFFFFFFFFFFFFFFFFFFFFFFFFFFFF AND PUSH20 0xFFFFFFFFFFFFFFFFFFFFFFFFFFFFFFFFFFFFFFFF AND EQ ISZERO JUMPDEST ISZERO PUSH2 0x10DF JUMPI DUP1 PUSH1 0xD PUSH0 CALLER PUSH20 0xFFFFFFFFFFFFFFFFFFFFFFFFFFFFFFFFFFFFFFFF AND PUSH20 0xFFFFFFFFFFFFFFFFFFFFFFFFFFFFFFFFFFFFFFFF AND DUP2 MSTORE PUSH1 0x20 ADD SWAP1 DUP2 MSTORE PUSH1 0x20 ADD PUSH0 KECCAK256 PUSH0 PUSH2 0x100 EXP DUP2 SLOAD DUP2 PUSH20 0xFFFFFFFFFFFFFFFFFFFFFFFFFFFFFFFFFFFFFFFF MUL NOT AND SWAP1 DUP4 PUSH20 0xFFFFFFFFFFFFFFFFFFFFFFFFFFFFFFFFFFFFFFFF AND MUL OR SWAP1 SSTORE POP JUMPDEST PUSH0 PUSH2 0x10E9 CALLER PUSH2 0x7F4 JUMP JUMPDEST SWAP1 POP PUSH0 PUSH2 0x10F8 DUP3 PUSH1 0x5 SLOAD PUSH2 0x1617 JUMP JUMPDEST SWAP1 POP PUSH2 0x1141 PUSH1 0xA PUSH0 CALLER PUSH20 0xFFFFFFFFFFFFFFFFFFFFFFFFFFFFFFFFFFFFFFFF AND PUSH20 0xFFFFFFFFFFFFFFFFFFFFFFFFFFFFFFFFFFFFFFFF AND DUP2 MSTORE PUSH1 0x20 ADD SWAP1 DUP2 MSTORE PUSH1 0x20 ADD PUSH0 KECCAK256 SLOAD DUP3 PUSH2 0x131F JUMP JUMPDEST PUSH1 0xA PUSH0 CALLER PUSH20 0xFFFFFFFFFFFFFFFFFFFFFFFFFFFFFFFFFFFFFFFF AND PUSH20 0xFFFFFFFFFFFFFFFFFFFFFFFFFFFFFFFFFFFFFFFF AND DUP2 MSTORE PUSH1 0x20 ADD SWAP1 DUP2 MSTORE PUSH1 0x20 ADD PUSH0 KECCAK256 DUP2 SWAP1 SSTORE POP PUSH2 0x118C CALLER PUSH0 PUSH2 0x13D4 JUMP JUMPDEST TIMESTAMP PUSH1 0xC PUSH0 CALLER PUSH20 0xFFFFFFFFFFFFFFFFFFFFFFFFFFFFFFFFFFFFFFFF AND PUSH20 0xFFFFFFFFFFFFFFFFFFFFFFFFFFFFFFFFFFFFFFFF AND DUP2 MSTORE PUSH1 0x20 ADD SWAP1 DUP2 MSTORE PUSH1 0x20 ADD PUSH0 KECCAK256 DUP2 SWAP1 SSTORE POP PUSH2 0x12E0 PUSH1 0xD PUSH0 CALLER PUSH20 0xFFFFFFFFFFFFFFFFFFFFFFFFFFFFFFFFFFFFFFFF AND PUSH20 0xFFFFFFFFFFFFFFFFFFFFFFFFFFFFFFFFFFFFFFFF AND DUP2 MSTORE PUSH1 0x20 ADD SWAP1 DUP2 MSTORE PUSH1 0x20 ADD PUSH0 KECCAK256 PUSH0 SWAP1 SLOAD SWAP1 PUSH2 0x100 EXP SWAP1 DIV PUSH20 0xFFFFFFFFFFFFFFFFFFFFFFFFFFFFFFFFFFFFFFFF AND PUSH2 0x12DB PUSH1 0xB PUSH0 PUSH1 0xD PUSH0 CALLER PUSH20 0xFFFFFFFFFFFFFFFFFFFFFFFFFFFFFFFFFFFFFFFF AND PUSH20 0xFFFFFFFFFFFFFFFFFFFFFFFFFFFFFFFFFFFFFFFF AND DUP2 MSTORE PUSH1 0x20 ADD SWAP1 DUP2 MSTORE PUSH1 0x20 ADD PUSH0 KECCAK256 PUSH0 SWAP1 SLOAD SWAP1 PUSH2 0x100 EXP SWAP1 DIV PUSH20 0xFFFFFFFFFFFFFFFFFFFFFFFFFFFFFFFFFFFFFFFF AND PUSH20 0xFFFFFFFFFFFFFFFFFFFFFFFFFFFFFFFFFFFFFFFF AND PUSH20 0xFFFFFFFFFFFFFFFFFFFFFFFFFFFFFFFFFFFFFFFF AND DUP2 MSTORE PUSH1 0x20 ADD SWAP1 DUP2 MSTORE PUSH1 0x20 ADD PUSH0 KECCAK256 SLOAD PUSH2 0x12D6 DUP7 PUSH1 0x8 PUSH2 0x1617 JUMP JUMPDEST PUSH2 0x131F JUMP JUMPDEST PUSH2 0x13D4 JUMP JUMPDEST PUSH2 0x12F6 PUSH1 0xE SLOAD PUSH2 0x12F1 DUP5 PUSH1 0x5 PUSH2 0x1617 JUMP JUMPDEST PUSH2 0x131F JUMP JUMPDEST PUSH1 0xE DUP2 SWAP1 SSTORE POP POP POP POP JUMP JUMPDEST PUSH0 PUSH2 0x1318 PUSH2 0x1311 DUP4 PUSH1 0x8 SLOAD PUSH2 0x13BF JUMP JUMPDEST PUSH1 0x64 PUSH2 0x1617 JUMP JUMPDEST SWAP1 POP SWAP2 SWAP1 POP JUMP JUMPDEST PUSH0 DUP2 DUP4 PUSH2 0x132C SWAP2 SWAP1 PUSH2 0x19A7 JUMP JUMPDEST SWAP1 POP SWAP3 SWAP2 POP POP JUMP JUMPDEST PUSH0 DUP2 DUP4 PUSH2 0x1341 SWAP2 SWAP1 PUSH2 0x1A40 JUMP JUMPDEST SWAP1 POP SWAP3 SWAP2 POP POP JUMP JUMPDEST PUSH2 0x1352 DUP2 PUSH2 0x162C JUMP JUMPDEST POP JUMP JUMPDEST PUSH0 PUSH2 0x139E PUSH2 0x1365 PUSH1 0x6 SLOAD DUP5 PUSH2 0x13BF JUMP JUMPDEST PUSH2 0x1399 PUSH1 0x7 SLOAD PUSH2 0x1394 PUSH2 0x138E PUSH2 0x137D PUSH1 0x6 SLOAD DUP11 PUSH2 0x13BF JUMP JUMPDEST PUSH2 0x1389 PUSH1 0x7 SLOAD DUP13 PUSH2 0x13BF JUMP JUMPDEST PUSH2 0x131F JUMP JUMPDEST DUP10 PUSH2 0x1617 JUMP JUMPDEST PUSH2 0x131F JUMP JUMPDEST PUSH2 0x1617 JUMP JUMPDEST SWAP1 POP SWAP4 SWAP3 POP POP POP JUMP JUMPDEST PUSH0 DUP2 DUP4 LT PUSH2 0x13B5 JUMPI DUP2 PUSH2 0x13B7 JUMP JUMPDEST DUP3 JUMPDEST SWAP1 POP SWAP3 SWAP2 POP POP JUMP JUMPDEST PUSH0 DUP2 DUP4 PUSH2 0x13CC SWAP2 SWAP1 PUSH2 0x1A73 JUMP JUMPDEST SWAP1 POP SWAP3 SWAP2 POP POP JUMP JUMPDEST PUSH1 0x1 ISZERO ISZERO PUSH1 0x10 PUSH0 DUP5 PUSH20 0xFFFFFFFFFFFFFFFFFFFFFFFFFFFFFFFFFFFFFFFF AND PUSH20 0xFFFFFFFFFFFFFFFFFFFFFFFFFFFFFFFFFFFFFFFF AND DUP2 MSTORE PUSH1 0x20 ADD SWAP1 DUP2 MSTORE PUSH1 0x20 ADD PUSH0 KECCAK256 PUSH0 SWAP1 SLOAD SWAP1 PUSH2 0x100 EXP SWAP1 DIV PUSH1 0xFF AND ISZERO ISZERO EQ PUSH2 0x14DF JUMPI PUSH1 0x12 DUP3 SWAP1 DUP1 PUSH1 0x1 DUP2 SLOAD ADD DUP1 DUP3 SSTORE DUP1 SWAP2 POP POP PUSH1 0x1 SWAP1 SUB SWAP1 PUSH0 MSTORE PUSH1 0x20 PUSH0 KECCAK256 ADD PUSH0 SWAP1 SWAP2 SWAP1 SWAP2 SWAP1 SWAP2 PUSH2 0x100 EXP DUP2 SLOAD DUP2 PUSH20 0xFFFFFFFFFFFFFFFFFFFFFFFFFFFFFFFFFFFFFFFF MUL NOT AND SWAP1 DUP4 PUSH20 0xFFFFFFFFFFFFFFFFFFFFFFFFFFFFFFFFFFFFFFFF AND MUL OR SWAP1 SSTORE POP PUSH1 0x1 PUSH1 0x10 PUSH0 DUP5 PUSH20 0xFFFFFFFFFFFFFFFFFFFFFFFFFFFFFFFFFFFFFFFF AND PUSH20 0xFFFFFFFFFFFFFFFFFFFFFFFFFFFFFFFFFFFFFFFF AND DUP2 MSTORE PUSH1 0x20 ADD SWAP1 DUP2 MSTORE PUSH1 0x20 ADD PUSH0 KECCAK256 PUSH0 PUSH2 0x100 EXP DUP2 SLOAD DUP2 PUSH1 0xFF MUL NOT AND SWAP1 DUP4 ISZERO ISZERO MUL OR SWAP1 SSTORE POP JUMPDEST DUP1 PUSH1 0xB PUSH0 DUP5 PUSH20 0xFFFFFFFFFFFFFFFFFFFFFFFFFFFFFFFFFFFFFFFF AND PUSH20 0xFFFFFFFFFFFFFFFFFFFFFFFFFFFFFFFFFFFFFFFF AND DUP2 MSTORE PUSH1 0x20 ADD SWAP1 DUP2 MSTORE PUSH1 0x20 ADD PUSH0 KECCAK256 DUP2 SWAP1 SSTORE POP POP POP JUMP JUMPDEST PUSH0 PUSH20 0xFFFFFFFFFFFFFFFFFFFFFFFFFFFFFFFFFFFFFFFF AND DUP2 PUSH20 0xFFFFFFFFFFFFFFFFFFFFFFFFFFFFFFFFFFFFFFFF AND SUB PUSH2 0x155C JUMPI PUSH0 DUP1 REVERT JUMPDEST DUP1 PUSH20 0xFFFFFFFFFFFFFFFFFFFFFFFFFFFFFFFFFFFFFFFF AND PUSH0 DUP1 SLOAD SWAP1 PUSH2 0x100 EXP SWAP1 DIV PUSH20 0xFFFFFFFFFFFFFFFFFFFFFFFFFFFFFFFFFFFFFFFF AND PUSH20 0xFFFFFFFFFFFFFFFFFFFFFFFFFFFFFFFFFFFFFFFF AND PUSH32 0x8BE0079C531659141344CD1FD0A4F28419497F9722A3DAAFE3B4186F6B6457E0 PUSH1 0x40 MLOAD PUSH1 0x40 MLOAD DUP1 SWAP2 SUB SWAP1 LOG3 DUP1 PUSH0 DUP1 PUSH2 0x100 EXP DUP2 SLOAD DUP2 PUSH20 0xFFFFFFFFFFFFFFFFFFFFFFFFFFFFFFFFFFFFFFFF MUL NOT AND SWAP1 DUP4 PUSH20 0xFFFFFFFFFFFFFFFFFFFFFFFFFFFFFFFFFFFFFFFF AND MUL OR SWAP1 SSTORE POP POP JUMP JUMPDEST PUSH0 DUP2 DUP4 PUSH2 0x1624 SWAP2 SWAP1 PUSH2 0x1AE1 JUMP JUMPDEST SWAP1 POP SWAP3 SWAP2 POP POP JUMP JUMPDEST PUSH0 DUP2 GT ISZERO PUSH2 0x170E JUMPI PUSH0 DUP1 PUSH0 JUMPDEST PUSH1 0x12 DUP1 SLOAD SWAP1 POP DUP2 LT ISZERO PUSH2 0x170A JUMPI PUSH1 0x12 DUP2 DUP2 SLOAD DUP2 LT PUSH2 0x1659 JUMPI PUSH2 0x1658 PUSH2 0x1B11 JUMP JUMPDEST JUMPDEST SWAP1 PUSH0 MSTORE PUSH1 0x20 PUSH0 KECCAK256 ADD PUSH0 SWAP1 SLOAD SWAP1 PUSH2 0x100 EXP SWAP1 DIV PUSH20 0xFFFFFFFFFFFFFFFFFFFFFFFFFFFFFFFFFFFFFFFF AND SWAP3 POP PUSH2 0x16E7 PUSH1 0xE SLOAD PUSH2 0x16D9 PUSH1 0xB PUSH0 DUP8 PUSH20 0xFFFFFFFFFFFFFFFFFFFFFFFFFFFFFFFFFFFFFFFF AND PUSH20 0xFFFFFFFFFFFFFFFFFFFFFFFFFFFFFFFFFFFFFFFF AND DUP2 MSTORE PUSH1 0x20 ADD SWAP1 DUP2 MSTORE PUSH1 0x20 ADD PUSH0 KECCAK256 SLOAD DUP8 PUSH2 0x13BF SWAP1 SWAP2 SWAP1 PUSH4 0xFFFFFFFF AND JUMP JUMPDEST PUSH2 0x1617 SWAP1 SWAP2 SWAP1 PUSH4 0xFFFFFFFF AND JUMP JUMPDEST SWAP2 POP PUSH0 DUP3 GT ISZERO PUSH2 0x16FD JUMPI PUSH2 0x16FB DUP4 DUP4 PUSH2 0x1711 JUMP JUMPDEST POP JUMPDEST DUP1 DUP1 PUSH1 0x1 ADD SWAP2 POP POP PUSH2 0x1638 JUMP JUMPDEST POP POP POP JUMPDEST POP JUMP JUMPDEST PUSH0 DUP3 PUSH20 0xFFFFFFFFFFFFFFFFFFFFFFFFFFFFFFFFFFFFFFFF AND PUSH2 0x8FC DUP4 SWAP1 DUP2 ISZERO MUL SWAP1 PUSH1 0x40 MLOAD PUSH0 PUSH1 0x40 MLOAD DUP1 DUP4 SUB DUP2 DUP6 DUP9 DUP9 CALL SWAP4 POP POP POP POP ISZERO PUSH2 0x1754 JUMPI PUSH1 0x1 SWAP1 POP PUSH2 0x1758 JUMP JUMPDEST PUSH0 SWAP1 POP JUMPDEST SWAP3 SWAP2 POP POP JUMP JUMPDEST PUSH0 DUP2 SWAP1 POP SWAP2 SWAP1 POP JUMP JUMPDEST PUSH2 0x1770 DUP2 PUSH2 0x175E JUMP JUMPDEST DUP3 MSTORE POP POP JUMP JUMPDEST PUSH0 PUSH1 0x20 DUP3 ADD SWAP1 POP PUSH2 0x1789 PUSH0 DUP4 ADD DUP5 PUSH2 0x1767 JUMP JUMPDEST SWAP3 SWAP2 POP POP JUMP JUMPDEST PUSH0 DUP1 REVERT JUMPDEST PUSH0 PUSH20 0xFFFFFFFFFFFFFFFFFFFFFFFFFFFFFFFFFFFFFFFF DUP3 AND SWAP1 POP SWAP2 SWAP1 POP JUMP JUMPDEST PUSH0 PUSH2 0x17BC DUP3 PUSH2 0x1793 JUMP JUMPDEST SWAP1 POP SWAP2 SWAP1 POP JUMP JUMPDEST PUSH2 0x17CC DUP2 PUSH2 0x17B2 JUMP JUMPDEST DUP2 EQ PUSH2 0x17D6 JUMPI PUSH0 DUP1 REVERT JUMPDEST POP JUMP JUMPDEST PUSH0 DUP2 CALLDATALOAD SWAP1 POP PUSH2 0x17E7 DUP2 PUSH2 0x17C3 JUMP JUMPDEST SWAP3 SWAP2 POP POP JUMP JUMPDEST PUSH0 PUSH1 0x20 DUP3 DUP5 SUB SLT ISZERO PUSH2 0x1802 JUMPI PUSH2 0x1801 PUSH2 0x178F JUMP JUMPDEST JUMPDEST PUSH0 PUSH2 0x180F DUP5 DUP3 DUP6 ADD PUSH2 0x17D9 JUMP JUMPDEST SWAP2 POP POP SWAP3 SWAP2 POP POP JUMP JUMPDEST PUSH2 0x1821 DUP2 PUSH2 0x175E JUMP JUMPDEST DUP2 EQ PUSH2 0x182B JUMPI PUSH0 DUP1 REVERT JUMPDEST POP JUMP JUMPDEST PUSH0 DUP2 CALLDATALOAD SWAP1 POP PUSH2 0x183C DUP2 PUSH2 0x1818 JUMP JUMPDEST SWAP3 SWAP2 POP POP JUMP JUMPDEST PUSH0 PUSH1 0x20 DUP3 DUP5 SUB SLT ISZERO PUSH2 0x1857 JUMPI PUSH2 0x1856 PUSH2 0x178F JUMP JUMPDEST JUMPDEST PUSH0 PUSH2 0x1864 DUP5 DUP3 DUP6 ADD PUSH2 0x182E JUMP JUMPDEST SWAP2 POP POP SWAP3 SWAP2 POP POP JUMP JUMPDEST PUSH2 0x1876 DUP2 PUSH2 0x17B2 JUMP JUMPDEST DUP3 MSTORE POP POP JUMP JUMPDEST PUSH0 PUSH1 0x20 DUP3 ADD SWAP1 POP PUSH2 0x188F PUSH0 DUP4 ADD DUP5 PUSH2 0x186D JUMP JUMPDEST SWAP3 SWAP2 POP POP JUMP JUMPDEST PUSH0 DUP1 PUSH1 0x40 DUP4 DUP6 SUB SLT ISZERO PUSH2 0x18AB JUMPI PUSH2 0x18AA PUSH2 0x178F JUMP JUMPDEST JUMPDEST PUSH0 PUSH2 0x18B8 DUP6 DUP3 DUP7 ADD PUSH2 0x182E JUMP JUMPDEST SWAP3 POP POP PUSH1 0x20 PUSH2 0x18C9 DUP6 DUP3 DUP7 ADD PUSH2 0x182E JUMP JUMPDEST SWAP2 POP POP SWAP3 POP SWAP3 SWAP1 POP JUMP JUMPDEST PUSH0 DUP2 ISZERO ISZERO SWAP1 POP SWAP2 SWAP1 POP JUMP JUMPDEST PUSH2 0x18E7 DUP2 PUSH2 0x18D3 JUMP JUMPDEST DUP3 MSTORE POP POP JUMP JUMPDEST PUSH0 PUSH1 0x20 DUP3 ADD SWAP1 POP PUSH2 0x1900 PUSH0 DUP4 ADD DUP5 PUSH2 0x18DE JUMP JUMPDEST SWAP3 SWAP2 POP POP JUMP JUMPDEST PUSH0 DUP2 SWAP1 POP SWAP2 SWAP1 POP JUMP JUMPDEST PUSH0 PUSH2 0x1929 PUSH2 0x1924 PUSH2 0x191F DUP5 PUSH2 0x1793 JUMP JUMPDEST PUSH2 0x1906 JUMP JUMPDEST PUSH2 0x1793 JUMP JUMPDEST SWAP1 POP SWAP2 SWAP1 POP JUMP JUMPDEST PUSH0 PUSH2 0x193A DUP3 PUSH2 0x190F JUMP JUMPDEST SWAP1 POP SWAP2 SWAP1 POP JUMP JUMPDEST PUSH0 PUSH2 0x194B DUP3 PUSH2 0x1930 JUMP JUMPDEST SWAP1 POP SWAP2 SWAP1 POP JUMP JUMPDEST PUSH2 0x195B DUP2 PUSH2 0x1941 JUMP JUMPDEST DUP3 MSTORE POP POP JUMP JUMPDEST PUSH0 PUSH1 0x20 DUP3 ADD SWAP1 POP PUSH2 0x1974 PUSH0 DUP4 ADD DUP5 PUSH2 0x1952 JUMP JUMPDEST SWAP3 SWAP2 POP POP JUMP JUMPDEST PUSH32 0x4E487B7100000000000000000000000000000000000000000000000000000000 PUSH0 MSTORE PUSH1 0x11 PUSH1 0x4 MSTORE PUSH1 0x24 PUSH0 REVERT JUMPDEST PUSH0 PUSH2 0x19B1 DUP3 PUSH2 0x175E JUMP JUMPDEST SWAP2 POP PUSH2 0x19BC DUP4 PUSH2 0x175E JUMP JUMPDEST SWAP3 POP DUP3 DUP3 ADD SWAP1 POP DUP1 DUP3 GT ISZERO PUSH2 0x19D4 JUMPI PUSH2 0x19D3 PUSH2 0x197A JUMP JUMPDEST JUMPDEST SWAP3 SWAP2 POP POP JUMP JUMPDEST PUSH0 PUSH1 0x40 DUP3 ADD SWAP1 POP PUSH2 0x19ED PUSH0 DUP4 ADD DUP6 PUSH2 0x186D JUMP JUMPDEST PUSH2 0x19FA PUSH1 0x20 DUP4 ADD DUP5 PUSH2 0x186D JUMP JUMPDEST SWAP4 SWAP3 POP POP POP JUMP JUMPDEST PUSH0 DUP2 MLOAD SWAP1 POP PUSH2 0x1A0F DUP2 PUSH2 0x1818 JUMP JUMPDEST SWAP3 SWAP2 POP POP JUMP JUMPDEST PUSH0 PUSH1 0x20 DUP3 DUP5 SUB SLT ISZERO PUSH2 0x1A2A JUMPI PUSH2 0x1A29 PUSH2 0x178F JUMP JUMPDEST JUMPDEST PUSH0 PUSH2 0x1A37 DUP5 DUP3 DUP6 ADD PUSH2 0x1A01 JUMP JUMPDEST SWAP2 POP POP SWAP3 SWAP2 POP POP JUMP JUMPDEST PUSH0 PUSH2 0x1A4A DUP3 PUSH2 0x175E JUMP JUMPDEST SWAP2 POP PUSH2 0x1A55 DUP4 PUSH2 0x175E JUMP JUMPDEST SWAP3 POP DUP3 DUP3 SUB SWAP1 POP DUP2 DUP2 GT ISZERO PUSH2 0x1A6D JUMPI PUSH2 0x1A6C PUSH2 0x197A JUMP JUMPDEST JUMPDEST SWAP3 SWAP2 POP POP JUMP JUMPDEST PUSH0 PUSH2 0x1A7D DUP3 PUSH2 0x175E JUMP JUMPDEST SWAP2 POP PUSH2 0x1A88 DUP4 PUSH2 0x175E JUMP JUMPDEST SWAP3 POP DUP3 DUP3 MUL PUSH2 0x1A96 DUP2 PUSH2 0x175E JUMP JUMPDEST SWAP2 POP DUP3 DUP3 DIV DUP5 EQ DUP4 ISZERO OR PUSH2 0x1AAD JUMPI PUSH2 0x1AAC PUSH2 0x197A JUMP JUMPDEST JUMPDEST POP SWAP3 SWAP2 POP POP JUMP JUMPDEST PUSH32 0x4E487B7100000000000000000000000000000000000000000000000000000000 PUSH0 MSTORE PUSH1 0x12 PUSH1 0x4 MSTORE PUSH1 0x24 PUSH0 REVERT JUMPDEST PUSH0 PUSH2 0x1AEB DUP3 PUSH2 0x175E JUMP JUMPDEST SWAP2 POP PUSH2 0x1AF6 DUP4 PUSH2 0x175E JUMP JUMPDEST SWAP3 POP DUP3 PUSH2 0x1B06 JUMPI PUSH2 0x1B05 PUSH2 0x1AB4 JUMP JUMPDEST JUMPDEST DUP3 DUP3 DIV SWAP1 POP SWAP3 SWAP2 POP POP JUMP JUMPDEST PUSH32 0x4E487B7100000000000000000000000000000000000000000000000000000000 PUSH0 MSTORE PUSH1 0x32 PUSH1 0x4 MSTORE PUSH1 0x24 PUSH0 REVERT INVALID LOG2 PUSH5 0x6970667358 0x22 SLT KECCAK256 PUSH11 0x2F79AC37994EA56B054B14 0xA6 0x1E 0xE2 0xBF BLOCKHASH SWAP14 0x2C PUSH27 0xBD98D59767B8C08B6F9B6C9764736F6C6343000818003300000000 "
				},
				"gasEstimates": {
					"creation": {
						"codeDepositCost": "1405600",
						"executionCost": "184839",
						"totalCost": "1590439"
					},
					"external": {
						"BLAST()": "infinite",
						"_blastClaimInterval()": "2470",
						"airdropQualifiers(uint256)": "5033",
						"buyIngots(address)": "infinite",
						"calculateIngotBuy(uint256,uint256)": "infinite",
						"calculateIngotBuySimple(uint256)": "infinite",
						"calculateIngotSell(uint256)": "infinite",
						"claimMyGasFees()": "infinite",
						"furnaceRewards(address)": "infinite",
						"getBalance()": "380",
						"getIngotsSinceLastHatch(address)": "infinite",
						"getMyIngots(address)": "infinite",
						"getMyMiners(address)": "2896",
						"hatchIngots(address)": "infinite",
						"isOwner()": "2535",
						"owner()": "2538",
						"renounceOwnership()": "30015",
						"seedMarket()": "50936",
						"sellIngots()": "infinite",
						"setBlastClaimInterval(uint256)": "24784",
						"setupBlast(address)": "infinite",
						"transferOwnership(address)": "30768"
					},
					"internal": {
						"_distributeNative(uint256)": "infinite",
						"_setClaimed(address,uint256)": "97409",
						"blastFeesClaimed(uint256)": "infinite",
						"calculateTrade(uint256,uint256,uint256)": "infinite",
						"devFee(uint256)": "infinite",
						"min(uint256,uint256)": "63"
					}
				},
				"methodIdentifiers": {
					"BLAST()": "97d75776",
					"_blastClaimInterval()": "4addc0e8",
					"airdropQualifiers(uint256)": "53e3323b",
					"buyIngots(address)": "e5d782fc",
					"calculateIngotBuy(uint256,uint256)": "7a571ae1",
					"calculateIngotBuySimple(uint256)": "e953f982",
					"calculateIngotSell(uint256)": "b18a2f82",
					"claimMyGasFees()": "23084e5f",
					"furnaceRewards(address)": "450c9d7d",
					"getBalance()": "12065fe0",
					"getIngotsSinceLastHatch(address)": "c2a6856f",
					"getMyIngots(address)": "2cf4f274",
					"getMyMiners(address)": "4b634b06",
					"hatchIngots(address)": "feeea92e",
					"isOwner()": "8f32d59b",
					"owner()": "8da5cb5b",
					"renounceOwnership()": "715018a6",
					"seedMarket()": "3c5f07cb",
					"sellIngots()": "012d754c",
					"setBlastClaimInterval(uint256)": "eaca243b",
					"setupBlast(address)": "f2e809e0",
					"transferOwnership(address)": "f2fde38b"
				}
			},
			"storageLayout": {
				"storage": [
					{
						"astId": 878,
						"contract": "contracts/BlastFurnace.sol:BlastFurnace",
						"label": "_owner",
						"offset": 0,
						"slot": "0",
						"type": "t_address"
					},
					{
						"astId": 20,
						"contract": "contracts/BlastFurnace.sol:BlastFurnace",
						"label": "BLAST",
						"offset": 0,
						"slot": "1",
						"type": "t_contract(IBlast)15"
					},
					{
						"astId": 24,
						"contract": "contracts/BlastFurnace.sol:BlastFurnace",
						"label": "_lastBlastClaim",
						"offset": 0,
						"slot": "2",
						"type": "t_mapping(t_address,t_uint256)"
					},
					{
						"astId": 27,
						"contract": "contracts/BlastFurnace.sol:BlastFurnace",
						"label": "_blastClaimInterval",
						"offset": 0,
						"slot": "3",
						"type": "t_uint256"
					},
					{
						"astId": 29,
						"contract": "contracts/BlastFurnace.sol:BlastFurnace",
						"label": "_feesClaimed",
						"offset": 0,
						"slot": "4",
						"type": "t_uint256"
					},
					{
						"astId": 149,
						"contract": "contracts/BlastFurnace.sol:BlastFurnace",
						"label": "INGOTS_TO_HATCH_1MINERS",
						"offset": 0,
						"slot": "5",
						"type": "t_uint256"
					},
					{
						"astId": 152,
						"contract": "contracts/BlastFurnace.sol:BlastFurnace",
						"label": "PSN",
						"offset": 0,
						"slot": "6",
						"type": "t_uint256"
					},
					{
						"astId": 155,
						"contract": "contracts/BlastFurnace.sol:BlastFurnace",
						"label": "PSNH",
						"offset": 0,
						"slot": "7",
						"type": "t_uint256"
					},
					{
						"astId": 158,
						"contract": "contracts/BlastFurnace.sol:BlastFurnace",
						"label": "devFeeVal",
						"offset": 0,
						"slot": "8",
						"type": "t_uint256"
					},
					{
						"astId": 161,
						"contract": "contracts/BlastFurnace.sol:BlastFurnace",
						"label": "initialized",
						"offset": 0,
						"slot": "9",
						"type": "t_bool"
					},
					{
						"astId": 163,
						"contract": "contracts/BlastFurnace.sol:BlastFurnace",
						"label": "recAdd",
						"offset": 1,
						"slot": "9",
						"type": "t_address_payable"
					},
					{
						"astId": 167,
						"contract": "contracts/BlastFurnace.sol:BlastFurnace",
						"label": "hatcheryMiners",
						"offset": 0,
						"slot": "10",
						"type": "t_mapping(t_address,t_uint256)"
					},
					{
						"astId": 171,
						"contract": "contracts/BlastFurnace.sol:BlastFurnace",
						"label": "claimedIngots",
						"offset": 0,
						"slot": "11",
						"type": "t_mapping(t_address,t_uint256)"
					},
					{
						"astId": 175,
						"contract": "contracts/BlastFurnace.sol:BlastFurnace",
						"label": "lastHatch",
						"offset": 0,
						"slot": "12",
						"type": "t_mapping(t_address,t_uint256)"
					},
					{
						"astId": 179,
						"contract": "contracts/BlastFurnace.sol:BlastFurnace",
						"label": "referrals",
						"offset": 0,
						"slot": "13",
						"type": "t_mapping(t_address,t_address)"
					},
					{
						"astId": 181,
						"contract": "contracts/BlastFurnace.sol:BlastFurnace",
						"label": "marketIngots",
						"offset": 0,
						"slot": "14",
						"type": "t_uint256"
					},
					{
						"astId": 184,
						"contract": "contracts/BlastFurnace.sol:BlastFurnace",
						"label": "airdropQualifiers",
						"offset": 0,
						"slot": "15",
						"type": "t_array(t_address)dyn_storage"
					},
					{
						"astId": 188,
						"contract": "contracts/BlastFurnace.sol:BlastFurnace",
						"label": "_isHolder",
						"offset": 0,
						"slot": "16",
						"type": "t_mapping(t_address,t_bool)"
					},
					{
						"astId": 192,
						"contract": "contracts/BlastFurnace.sol:BlastFurnace",
						"label": "_isAirDropQualifier",
						"offset": 0,
						"slot": "17",
						"type": "t_mapping(t_address,t_bool)"
					},
					{
						"astId": 195,
						"contract": "contracts/BlastFurnace.sol:BlastFurnace",
						"label": "_holders",
						"offset": 0,
						"slot": "18",
						"type": "t_array(t_address)dyn_storage"
					}
				],
				"types": {
					"t_address": {
						"encoding": "inplace",
						"label": "address",
						"numberOfBytes": "20"
					},
					"t_address_payable": {
						"encoding": "inplace",
						"label": "address payable",
						"numberOfBytes": "20"
					},
					"t_array(t_address)dyn_storage": {
						"base": "t_address",
						"encoding": "dynamic_array",
						"label": "address[]",
						"numberOfBytes": "32"
					},
					"t_bool": {
						"encoding": "inplace",
						"label": "bool",
						"numberOfBytes": "1"
					},
					"t_contract(IBlast)15": {
						"encoding": "inplace",
						"label": "contract IBlast",
						"numberOfBytes": "20"
					},
					"t_mapping(t_address,t_address)": {
						"encoding": "mapping",
						"key": "t_address",
						"label": "mapping(address => address)",
						"numberOfBytes": "32",
						"value": "t_address"
					},
					"t_mapping(t_address,t_bool)": {
						"encoding": "mapping",
						"key": "t_address",
						"label": "mapping(address => bool)",
						"numberOfBytes": "32",
						"value": "t_bool"
					},
					"t_mapping(t_address,t_uint256)": {
						"encoding": "mapping",
						"key": "t_address",
						"label": "mapping(address => uint256)",
						"numberOfBytes": "32",
						"value": "t_uint256"
					},
					"t_uint256": {
						"encoding": "inplace",
						"label": "uint256",
						"numberOfBytes": "32"
					}
				}
			},
			"userdoc": {
				"kind": "user",
				"methods": {},
				"version": 1
			}
		}
	}
}