{
	"contracts/BlastFurnace_flattened.sol": {
		"BlastFurnace": {
			"abi": [
				{
					"inputs": [],
					"stateMutability": "nonpayable",
					"type": "constructor"
				},
				{
					"anonymous": false,
					"inputs": [
						{
							"indexed": false,
							"internalType": "address",
							"name": "recipient",
							"type": "address"
						},
						{
							"indexed": false,
							"internalType": "uint256",
							"name": "amount",
							"type": "uint256"
						}
					],
					"name": "NativeTransfer",
					"type": "event"
				},
				{
					"anonymous": false,
					"inputs": [
						{
							"indexed": true,
							"internalType": "address",
							"name": "previousOwner",
							"type": "address"
						}
					],
					"name": "OwnershipRenounced",
					"type": "event"
				},
				{
					"anonymous": false,
					"inputs": [
						{
							"indexed": true,
							"internalType": "address",
							"name": "previousOwner",
							"type": "address"
						},
						{
							"indexed": true,
							"internalType": "address",
							"name": "newOwner",
							"type": "address"
						}
					],
					"name": "OwnershipTransferred",
					"type": "event"
				},
				{
					"inputs": [],
					"name": "BLAST",
					"outputs": [
						{
							"internalType": "contract IBlast",
							"name": "",
							"type": "address"
						}
					],
					"stateMutability": "view",
					"type": "function"
				},
				{
					"inputs": [],
					"name": "_blastClaimInterval",
					"outputs": [
						{
							"internalType": "uint256",
							"name": "",
							"type": "uint256"
						}
					],
					"stateMutability": "view",
					"type": "function"
				},
				{
					"inputs": [
						{
							"internalType": "address",
							"name": "ref",
							"type": "address"
						}
					],
					"name": "buyOres",
					"outputs": [],
					"stateMutability": "payable",
					"type": "function"
				},
				{
					"inputs": [
						{
							"internalType": "uint256",
							"name": "eth",
							"type": "uint256"
						},
						{
							"internalType": "uint256",
							"name": "contractBalance",
							"type": "uint256"
						}
					],
					"name": "calculateOreBuy",
					"outputs": [
						{
							"internalType": "uint256",
							"name": "",
							"type": "uint256"
						}
					],
					"stateMutability": "view",
					"type": "function"
				},
				{
					"inputs": [
						{
							"internalType": "uint256",
							"name": "eth",
							"type": "uint256"
						}
					],
					"name": "calculateOreBuySimple",
					"outputs": [
						{
							"internalType": "uint256",
							"name": "",
							"type": "uint256"
						}
					],
					"stateMutability": "view",
					"type": "function"
				},
				{
					"inputs": [
						{
							"internalType": "uint256",
							"name": "ores",
							"type": "uint256"
						}
					],
					"name": "calculateOreSell",
					"outputs": [
						{
							"internalType": "uint256",
							"name": "",
							"type": "uint256"
						}
					],
					"stateMutability": "view",
					"type": "function"
				},
				{
					"inputs": [],
					"name": "claimMyGasFees",
					"outputs": [],
					"stateMutability": "nonpayable",
					"type": "function"
				},
				{
					"inputs": [
						{
							"internalType": "address",
							"name": "adr",
							"type": "address"
						}
					],
					"name": "furnaceRewards",
					"outputs": [
						{
							"internalType": "uint256",
							"name": "",
							"type": "uint256"
						}
					],
					"stateMutability": "view",
					"type": "function"
				},
				{
					"inputs": [
						{
							"internalType": "uint256",
							"name": "index",
							"type": "uint256"
						}
					],
					"name": "getAirdropQualifier",
					"outputs": [
						{
							"internalType": "address",
							"name": "",
							"type": "address"
						},
						{
							"internalType": "uint256",
							"name": "",
							"type": "uint256"
						}
					],
					"stateMutability": "view",
					"type": "function"
				},
				{
					"inputs": [],
					"name": "getBalance",
					"outputs": [
						{
							"internalType": "uint256",
							"name": "",
							"type": "uint256"
						}
					],
					"stateMutability": "view",
					"type": "function"
				},
				{
					"inputs": [
						{
							"internalType": "address",
							"name": "adr",
							"type": "address"
						}
					],
					"name": "getMyMiners",
					"outputs": [
						{
							"internalType": "uint256",
							"name": "",
							"type": "uint256"
						}
					],
					"stateMutability": "view",
					"type": "function"
				},
				{
					"inputs": [
						{
							"internalType": "address",
							"name": "adr",
							"type": "address"
						}
					],
					"name": "getMyOres",
					"outputs": [
						{
							"internalType": "uint256",
							"name": "",
							"type": "uint256"
						}
					],
					"stateMutability": "view",
					"type": "function"
				},
				{
					"inputs": [
						{
							"internalType": "address",
							"name": "addr",
							"type": "address"
						}
					],
					"name": "getOresSinceLastHatch",
					"outputs": [
						{
							"internalType": "uint256",
							"name": "",
							"type": "uint256"
						}
					],
					"stateMutability": "view",
					"type": "function"
				},
				{
					"inputs": [
						{
							"internalType": "address",
							"name": "who",
							"type": "address"
						}
					],
					"name": "ingotBalanceOf",
					"outputs": [
						{
							"internalType": "uint256",
							"name": "",
							"type": "uint256"
						}
					],
					"stateMutability": "view",
					"type": "function"
				},
				{
					"inputs": [],
					"name": "isOwner",
					"outputs": [
						{
							"internalType": "bool",
							"name": "",
							"type": "bool"
						}
					],
					"stateMutability": "view",
					"type": "function"
				},
				{
					"inputs": [],
					"name": "owner",
					"outputs": [
						{
							"internalType": "address",
							"name": "",
							"type": "address"
						}
					],
					"stateMutability": "view",
					"type": "function"
				},
				{
					"inputs": [],
					"name": "renounceOwnership",
					"outputs": [],
					"stateMutability": "nonpayable",
					"type": "function"
				},
				{
					"inputs": [],
					"name": "seedMarket",
					"outputs": [],
					"stateMutability": "payable",
					"type": "function"
				},
				{
					"inputs": [],
					"name": "sellOres",
					"outputs": [],
					"stateMutability": "nonpayable",
					"type": "function"
				},
				{
					"inputs": [
						{
							"internalType": "uint256",
							"name": "interval",
							"type": "uint256"
						}
					],
					"name": "setBlastClaimInterval",
					"outputs": [],
					"stateMutability": "nonpayable",
					"type": "function"
				},
				{
					"inputs": [
						{
							"internalType": "address",
							"name": "blastAddr",
							"type": "address"
						}
					],
					"name": "setupBlast",
					"outputs": [],
					"stateMutability": "nonpayable",
					"type": "function"
				},
				{
					"inputs": [
						{
							"internalType": "address",
							"name": "newOwner",
							"type": "address"
						}
					],
					"name": "transferOwnership",
					"outputs": [],
					"stateMutability": "nonpayable",
					"type": "function"
				}
			],
			"devdoc": {
				"kind": "dev",
				"methods": {},
				"version": 1
			},
			"evm": {
				"assembly": "    /* \"contracts/BlastFurnace_flattened.sol\":11595:18317  contract BlastFurnace is BlastClaimable, NativeTransferable {... */\n  mstore(0x40, 0x80)\n    /* \"contracts/BlastFurnace_flattened.sol\":9043:9049  1 days */\n  0x015180\n    /* \"contracts/BlastFurnace_flattened.sol\":9006:9049  uint256 public _blastClaimInterval = 1 days */\n  0x03\n  sstore\n    /* \"contracts/BlastFurnace_flattened.sol\":11731:11738  1080000 */\n  0x107ac0\n    /* \"contracts/BlastFurnace_flattened.sol\":11691:11738  uint256 private ORES_TO_HATCH_1MINERS = 1080000 */\n  0x05\n  sstore\n    /* \"contracts/BlastFurnace_flattened.sol\":12161:12166  10000 */\n  0x2710\n    /* \"contracts/BlastFurnace_flattened.sol\":12139:12166  uint256 private PSN = 10000 */\n  0x06\n  sstore\n    /* \"contracts/BlastFurnace_flattened.sol\":12193:12197  5000 */\n  0x1388\n    /* \"contracts/BlastFurnace_flattened.sol\":12170:12197  uint256 private PSNH = 5000 */\n  0x07\n  sstore\n    /* \"contracts/BlastFurnace_flattened.sol\":12229:12230  3 */\n  0x03\n    /* \"contracts/BlastFurnace_flattened.sol\":12201:12230  uint256 private devFeeVal = 3 */\n  0x08\n  sstore\n    /* \"contracts/BlastFurnace_flattened.sol\":12261:12266  false */\n  0x00\n    /* \"contracts/BlastFurnace_flattened.sol\":12234:12266  bool private initialized = false */\n  0x09\n  exp(0x0100, 0x00)\n  dup2\n  sload\n  dup2\n  0xff\n  mul\n  not\n  and\n  swap1\n  dup4\n  iszero\n  iszero\n  mul\n  or\n  swap1\n  sstore\n  pop\n    /* \"contracts/BlastFurnace_flattened.sol\":12713:12765  constructor() {... */\n  callvalue\n  dup1\n  iszero\n  tag_1\n  jumpi\n  0x00\n  dup1\n  revert\ntag_1:\n  pop\n    /* \"contracts/BlastFurnace_flattened.sol\":8009:8019  msg.sender */\n  caller\n    /* \"contracts/BlastFurnace_flattened.sol\":8000:8006  _owner */\n  0x00\n  dup1\n    /* \"contracts/BlastFurnace_flattened.sol\":8000:8019  _owner = msg.sender */\n  0x0100\n  exp\n  dup2\n  sload\n  dup2\n  0xffffffffffffffffffffffffffffffffffffffff\n  mul\n  not\n  and\n  swap1\n  dup4\n  0xffffffffffffffffffffffffffffffffffffffff\n  and\n  mul\n  or\n  swap1\n  sstore\n  pop\n    /* \"contracts/BlastFurnace_flattened.sol\":12749:12759  msg.sender */\n  caller\n    /* \"contracts/BlastFurnace_flattened.sol\":12732:12738  recAdd */\n  0x09\n  0x01\n    /* \"contracts/BlastFurnace_flattened.sol\":12732:12760  recAdd = payable(msg.sender) */\n  0x0100\n  exp\n  dup2\n  sload\n  dup2\n  0xffffffffffffffffffffffffffffffffffffffff\n  mul\n  not\n  and\n  swap1\n  dup4\n  0xffffffffffffffffffffffffffffffffffffffff\n  and\n  mul\n  or\n  swap1\n  sstore\n  pop\n    /* \"contracts/BlastFurnace_flattened.sol\":11595:18317  contract BlastFurnace is BlastClaimable, NativeTransferable {... */\n  dataSize(sub_0)\n  dup1\n  dataOffset(sub_0)\n  0x00\n  codecopy\n  0x00\n  return\nstop\n\nsub_0: assembly {\n        /* \"contracts/BlastFurnace_flattened.sol\":11595:18317  contract BlastFurnace is BlastClaimable, NativeTransferable {... */\n      mstore(0x40, 0x80)\n      jumpi(tag_1, lt(calldatasize, 0x04))\n      shr(0xe0, calldataload(0x00))\n      dup1\n      0x6dc39ec8\n      gt\n      tag_24\n      jumpi\n      dup1\n      0x97d75776\n      gt\n      tag_25\n      jumpi\n      dup1\n      0x97d75776\n      eq\n      tag_18\n      jumpi\n      dup1\n      0xe3931607\n      eq\n      tag_19\n      jumpi\n      dup1\n      0xeaca243b\n      eq\n      tag_20\n      jumpi\n      dup1\n      0xf2e809e0\n      eq\n      tag_21\n      jumpi\n      dup1\n      0xf2fde38b\n      eq\n      tag_22\n      jumpi\n      dup1\n      0xf36f7c62\n      eq\n      tag_23\n      jumpi\n      jump(tag_1)\n    tag_25:\n      dup1\n      0x6dc39ec8\n      eq\n      tag_13\n      jumpi\n      dup1\n      0x715018a6\n      eq\n      tag_14\n      jumpi\n      dup1\n      0x88bedf91\n      eq\n      tag_15\n      jumpi\n      dup1\n      0x8da5cb5b\n      eq\n      tag_16\n      jumpi\n      dup1\n      0x8f32d59b\n      eq\n      tag_17\n      jumpi\n      jump(tag_1)\n    tag_24:\n      dup1\n      0x450c9d7d\n      gt\n      tag_26\n      jumpi\n      dup1\n      0x450c9d7d\n      eq\n      tag_7\n      jumpi\n      dup1\n      0x4ad47291\n      eq\n      tag_8\n      jumpi\n      dup1\n      0x4addc0e8\n      eq\n      tag_9\n      jumpi\n      dup1\n      0x4b634b06\n      eq\n      tag_10\n      jumpi\n      dup1\n      0x51546044\n      eq\n      tag_11\n      jumpi\n      dup1\n      0x6bd22962\n      eq\n      tag_12\n      jumpi\n      jump(tag_1)\n    tag_26:\n      dup1\n      0x12065fe0\n      eq\n      tag_2\n      jumpi\n      dup1\n      0x224e80fc\n      eq\n      tag_3\n      jumpi\n      dup1\n      0x23084e5f\n      eq\n      tag_4\n      jumpi\n      dup1\n      0x3c5f07cb\n      eq\n      tag_5\n      jumpi\n      dup1\n      0x44bb9117\n      eq\n      tag_6\n      jumpi\n    tag_1:\n      0x00\n      dup1\n      revert\n        /* \"contracts/BlastFurnace_flattened.sol\":15786:15876  function getBalance() public view returns (uint256) {... */\n    tag_2:\n      callvalue\n      dup1\n      iszero\n      tag_27\n      jumpi\n      0x00\n      dup1\n      revert\n    tag_27:\n      pop\n      tag_28\n      tag_29\n      jump\t// in\n    tag_28:\n      mload(0x40)\n      tag_30\n      swap2\n      swap1\n      tag_31\n      jump\t// in\n    tag_30:\n      mload(0x40)\n      dup1\n      swap2\n      sub\n      swap1\n      return\n        /* \"contracts/BlastFurnace_flattened.sol\":15986:16123  function getMyOres(address adr) public view returns (uint256) {... */\n    tag_3:\n      callvalue\n      dup1\n      iszero\n      tag_32\n      jumpi\n      0x00\n      dup1\n      revert\n    tag_32:\n      pop\n      tag_33\n      0x04\n      dup1\n      calldatasize\n      sub\n      dup2\n      add\n      swap1\n      tag_34\n      swap2\n      swap1\n      tag_35\n      jump\t// in\n    tag_34:\n      tag_36\n      jump\t// in\n    tag_33:\n      mload(0x40)\n      tag_37\n      swap2\n      swap1\n      tag_31\n      jump\t// in\n    tag_37:\n      mload(0x40)\n      dup1\n      swap2\n      sub\n      swap1\n      return\n        /* \"contracts/BlastFurnace_flattened.sol\":9088:9499  function claimMyGasFees() external {... */\n    tag_4:\n      callvalue\n      dup1\n      iszero\n      tag_38\n      jumpi\n      0x00\n      dup1\n      revert\n    tag_38:\n      pop\n      tag_39\n      tag_40\n      jump\t// in\n    tag_39:\n      stop\n        /* \"contracts/BlastFurnace_flattened.sol\":15647:15781  function seedMarket() public payable onlyOwner {... */\n    tag_5:\n      tag_41\n      tag_42\n      jump\t// in\n    tag_41:\n      stop\n        /* \"contracts/BlastFurnace_flattened.sol\":15063:15205  function calculateOreSell(uint256 ores) public view returns (uint256) {... */\n    tag_6:\n      callvalue\n      dup1\n      iszero\n      tag_43\n      jumpi\n      0x00\n      dup1\n      revert\n    tag_43:\n      pop\n      tag_44\n      0x04\n      dup1\n      calldatasize\n      sub\n      dup2\n      add\n      swap1\n      tag_45\n      swap2\n      swap1\n      tag_46\n      jump\t// in\n    tag_45:\n      tag_47\n      jump\t// in\n    tag_44:\n      mload(0x40)\n      tag_48\n      swap2\n      swap1\n      tag_31\n      jump\t// in\n    tag_48:\n      mload(0x40)\n      dup1\n      swap2\n      sub\n      swap1\n      return\n        /* \"contracts/BlastFurnace_flattened.sol\":14178:14356  function furnaceRewards(address adr) public view returns (uint256) {... */\n    tag_7:\n      callvalue\n      dup1\n      iszero\n      tag_49\n      jumpi\n      0x00\n      dup1\n      revert\n    tag_49:\n      pop\n      tag_50\n      0x04\n      dup1\n      calldatasize\n      sub\n      dup2\n      add\n      swap1\n      tag_51\n      swap2\n      swap1\n      tag_35\n      jump\t// in\n    tag_51:\n      tag_52\n      jump\t// in\n    tag_50:\n      mload(0x40)\n      tag_53\n      swap2\n      swap1\n      tag_31\n      jump\t// in\n    tag_53:\n      mload(0x40)\n      dup1\n      swap2\n      sub\n      swap1\n      return\n        /* \"contracts/BlastFurnace_flattened.sol\":15210:15368  function calculateOreBuy(uint256 eth, uint256 contractBalance) public view returns (uint256) {... */\n    tag_8:\n      callvalue\n      dup1\n      iszero\n      tag_54\n      jumpi\n      0x00\n      dup1\n      revert\n    tag_54:\n      pop\n      tag_55\n      0x04\n      dup1\n      calldatasize\n      sub\n      dup2\n      add\n      swap1\n      tag_56\n      swap2\n      swap1\n      tag_57\n      jump\t// in\n    tag_56:\n      tag_58\n      jump\t// in\n    tag_55:\n      mload(0x40)\n      tag_59\n      swap2\n      swap1\n      tag_31\n      jump\t// in\n    tag_59:\n      mload(0x40)\n      dup1\n      swap2\n      sub\n      swap1\n      return\n        /* \"contracts/BlastFurnace_flattened.sol\":9006:9049  uint256 public _blastClaimInterval = 1 days */\n    tag_9:\n      callvalue\n      dup1\n      iszero\n      tag_60\n      jumpi\n      0x00\n      dup1\n      revert\n    tag_60:\n      pop\n      tag_61\n      tag_62\n      jump\t// in\n    tag_61:\n      mload(0x40)\n      tag_63\n      swap2\n      swap1\n      tag_31\n      jump\t// in\n    tag_63:\n      mload(0x40)\n      dup1\n      swap2\n      sub\n      swap1\n      return\n        /* \"contracts/BlastFurnace_flattened.sol\":15881:15981  function getMyMiners(address adr) public view returns (uint256) {... */\n    tag_10:\n      callvalue\n      dup1\n      iszero\n      tag_64\n      jumpi\n      0x00\n      dup1\n      revert\n    tag_64:\n      pop\n      tag_65\n      0x04\n      dup1\n      calldatasize\n      sub\n      dup2\n      add\n      swap1\n      tag_66\n      swap2\n      swap1\n      tag_35\n      jump\t// in\n    tag_66:\n      tag_67\n      jump\t// in\n    tag_65:\n      mload(0x40)\n      tag_68\n      swap2\n      swap1\n      tag_31\n      jump\t// in\n    tag_68:\n      mload(0x40)\n      dup1\n      swap2\n      sub\n      swap1\n      return\n        /* \"contracts/BlastFurnace_flattened.sol\":15373:15507  function calculateOreBuySimple(uint256 eth) public view returns (uint256) {... */\n    tag_11:\n      callvalue\n      dup1\n      iszero\n      tag_69\n      jumpi\n      0x00\n      dup1\n      revert\n    tag_69:\n      pop\n      tag_70\n      0x04\n      dup1\n      calldatasize\n      sub\n      dup2\n      add\n      swap1\n      tag_71\n      swap2\n      swap1\n      tag_46\n      jump\t// in\n    tag_71:\n      tag_72\n      jump\t// in\n    tag_70:\n      mload(0x40)\n      tag_73\n      swap2\n      swap1\n      tag_31\n      jump\t// in\n    tag_73:\n      mload(0x40)\n      dup1\n      swap2\n      sub\n      swap1\n      return\n        /* \"contracts/BlastFurnace_flattened.sol\":16128:16589  function getOresSinceLastHatch(address addr) public view returns (uint256) {... */\n    tag_12:\n      callvalue\n      dup1\n      iszero\n      tag_74\n      jumpi\n      0x00\n      dup1\n      revert\n    tag_74:\n      pop\n      tag_75\n      0x04\n      dup1\n      calldatasize\n      sub\n      dup2\n      add\n      swap1\n      tag_76\n      swap2\n      swap1\n      tag_35\n      jump\t// in\n    tag_76:\n      tag_77\n      jump\t// in\n    tag_75:\n      mload(0x40)\n      tag_78\n      swap2\n      swap1\n      tag_31\n      jump\t// in\n    tag_78:\n      mload(0x40)\n      dup1\n      swap2\n      sub\n      swap1\n      return\n        /* \"contracts/BlastFurnace_flattened.sol\":17272:17556  function getAirdropQualifier(uint256 index) external view returns (address, uint256) {... */\n    tag_13:\n      callvalue\n      dup1\n      iszero\n      tag_79\n      jumpi\n      0x00\n      dup1\n      revert\n    tag_79:\n      pop\n      tag_80\n      0x04\n      dup1\n      calldatasize\n      sub\n      dup2\n      add\n      swap1\n      tag_81\n      swap2\n      swap1\n      tag_46\n      jump\t// in\n    tag_81:\n      tag_82\n      jump\t// in\n    tag_80:\n      mload(0x40)\n      tag_83\n      swap3\n      swap2\n      swap1\n      tag_84\n      jump\t// in\n    tag_83:\n      mload(0x40)\n      dup1\n      swap2\n      sub\n      swap1\n      return\n        /* \"contracts/BlastFurnace_flattened.sol\":8252:8363  function renounceOwnership() public onlyOwner {... */\n    tag_14:\n      callvalue\n      dup1\n      iszero\n      tag_85\n      jumpi\n      0x00\n      dup1\n      revert\n    tag_85:\n      pop\n      tag_86\n      tag_87\n      jump\t// in\n    tag_86:\n      stop\n        /* \"contracts/BlastFurnace_flattened.sol\":14361:14811  function buyOres(address ref) public payable {... */\n    tag_15:\n      tag_88\n      0x04\n      dup1\n      calldatasize\n      sub\n      dup2\n      add\n      swap1\n      tag_89\n      swap2\n      swap1\n      tag_35\n      jump\t// in\n    tag_89:\n      tag_90\n      jump\t// in\n    tag_88:\n      stop\n        /* \"contracts/BlastFurnace_flattened.sol\":8029:8099  function owner() public view returns (address) {... */\n    tag_16:\n      callvalue\n      dup1\n      iszero\n      tag_91\n      jumpi\n      0x00\n      dup1\n      revert\n    tag_91:\n      pop\n      tag_92\n      tag_93\n      jump\t// in\n    tag_92:\n      mload(0x40)\n      tag_94\n      swap2\n      swap1\n      tag_95\n      jump\t// in\n    tag_94:\n      mload(0x40)\n      dup1\n      swap2\n      sub\n      swap1\n      return\n        /* \"contracts/BlastFurnace_flattened.sol\":8164:8247  function isOwner() public view returns (bool) {... */\n    tag_17:\n      callvalue\n      dup1\n      iszero\n      tag_96\n      jumpi\n      0x00\n      dup1\n      revert\n    tag_96:\n      pop\n      tag_97\n      tag_98\n      jump\t// in\n    tag_97:\n      mload(0x40)\n      tag_99\n      swap2\n      swap1\n      tag_100\n      jump\t// in\n    tag_99:\n      mload(0x40)\n      dup1\n      swap2\n      sub\n      swap1\n      return\n        /* \"contracts/BlastFurnace_flattened.sol\":8934:8953  IBlast public BLAST */\n    tag_18:\n      callvalue\n      dup1\n      iszero\n      tag_101\n      jumpi\n      0x00\n      dup1\n      revert\n    tag_101:\n      pop\n      tag_102\n      tag_103\n      jump\t// in\n    tag_102:\n      mload(0x40)\n      tag_104\n      swap2\n      swap1\n      tag_105\n      jump\t// in\n    tag_104:\n      mload(0x40)\n      dup1\n      swap2\n      sub\n      swap1\n      return\n        /* \"contracts/BlastFurnace_flattened.sol\":13775:14173  function sellOres() public {... */\n    tag_19:\n      callvalue\n      dup1\n      iszero\n      tag_106\n      jumpi\n      0x00\n      dup1\n      revert\n    tag_106:\n      pop\n      tag_107\n      tag_108\n      jump\t// in\n    tag_107:\n      stop\n        /* \"contracts/BlastFurnace_flattened.sol\":9735:9843  function setBlastClaimInterval(uint256 interval) external onlyOwner {... */\n    tag_20:\n      callvalue\n      dup1\n      iszero\n      tag_109\n      jumpi\n      0x00\n      dup1\n      revert\n    tag_109:\n      pop\n      tag_110\n      0x04\n      dup1\n      calldatasize\n      sub\n      dup2\n      add\n      swap1\n      tag_111\n      swap2\n      swap1\n      tag_46\n      jump\t// in\n    tag_111:\n      tag_112\n      jump\t// in\n    tag_110:\n      stop\n        /* \"contracts/BlastFurnace_flattened.sol\":9504:9730  function setupBlast(address blastAddr) external onlyOwner {... */\n    tag_21:\n      callvalue\n      dup1\n      iszero\n      tag_113\n      jumpi\n      0x00\n      dup1\n      revert\n    tag_113:\n      pop\n      tag_114\n      0x04\n      dup1\n      calldatasize\n      sub\n      dup2\n      add\n      swap1\n      tag_115\n      swap2\n      swap1\n      tag_35\n      jump\t// in\n    tag_115:\n      tag_116\n      jump\t// in\n    tag_114:\n      stop\n        /* \"contracts/BlastFurnace_flattened.sol\":8368:8468  function transferOwnership(address newOwner) public onlyOwner {... */\n    tag_22:\n      callvalue\n      dup1\n      iszero\n      tag_117\n      jumpi\n      0x00\n      dup1\n      revert\n    tag_117:\n      pop\n      tag_118\n      0x04\n      dup1\n      calldatasize\n      sub\n      dup2\n      add\n      swap1\n      tag_119\n      swap2\n      swap1\n      tag_35\n      jump\t// in\n    tag_119:\n      tag_120\n      jump\t// in\n    tag_118:\n      stop\n        /* \"contracts/BlastFurnace_flattened.sol\":12770:12873  function ingotBalanceOf(address who) public view returns (uint256) {... */\n    tag_23:\n      callvalue\n      dup1\n      iszero\n      tag_121\n      jumpi\n      0x00\n      dup1\n      revert\n    tag_121:\n      pop\n      tag_122\n      0x04\n      dup1\n      calldatasize\n      sub\n      dup2\n      add\n      swap1\n      tag_123\n      swap2\n      swap1\n      tag_35\n      jump\t// in\n    tag_123:\n      tag_124\n      jump\t// in\n    tag_122:\n      mload(0x40)\n      tag_125\n      swap2\n      swap1\n      tag_31\n      jump\t// in\n    tag_125:\n      mload(0x40)\n      dup1\n      swap2\n      sub\n      swap1\n      return\n        /* \"contracts/BlastFurnace_flattened.sol\":15786:15876  function getBalance() public view returns (uint256) {... */\n    tag_29:\n        /* \"contracts/BlastFurnace_flattened.sol\":15829:15836  uint256 */\n      0x00\n        /* \"contracts/BlastFurnace_flattened.sol\":15850:15871  address(this).balance */\n      selfbalance\n        /* \"contracts/BlastFurnace_flattened.sol\":15843:15871  return address(this).balance */\n      swap1\n      pop\n        /* \"contracts/BlastFurnace_flattened.sol\":15786:15876  function getBalance() public view returns (uint256) {... */\n      swap1\n      jump\t// out\n        /* \"contracts/BlastFurnace_flattened.sol\":15986:16123  function getMyOres(address adr) public view returns (uint256) {... */\n    tag_36:\n        /* \"contracts/BlastFurnace_flattened.sol\":16039:16046  uint256 */\n      0x00\n        /* \"contracts/BlastFurnace_flattened.sol\":16060:16118  SafeMath.add(claimedOres[adr], getOresSinceLastHatch(adr)) */\n      tag_128\n        /* \"contracts/BlastFurnace_flattened.sol\":16073:16084  claimedOres */\n      0x0b\n        /* \"contracts/BlastFurnace_flattened.sol\":16073:16089  claimedOres[adr] */\n      0x00\n        /* \"contracts/BlastFurnace_flattened.sol\":16085:16088  adr */\n      dup5\n        /* \"contracts/BlastFurnace_flattened.sol\":16073:16089  claimedOres[adr] */\n      0xffffffffffffffffffffffffffffffffffffffff\n      and\n      0xffffffffffffffffffffffffffffffffffffffff\n      and\n      dup2\n      mstore\n      0x20\n      add\n      swap1\n      dup2\n      mstore\n      0x20\n      add\n      0x00\n      keccak256\n      sload\n        /* \"contracts/BlastFurnace_flattened.sol\":16091:16117  getOresSinceLastHatch(adr) */\n      tag_129\n        /* \"contracts/BlastFurnace_flattened.sol\":16113:16116  adr */\n      dup5\n        /* \"contracts/BlastFurnace_flattened.sol\":16091:16112  getOresSinceLastHatch */\n      tag_77\n        /* \"contracts/BlastFurnace_flattened.sol\":16091:16117  getOresSinceLastHatch(adr) */\n      jump\t// in\n    tag_129:\n        /* \"contracts/BlastFurnace_flattened.sol\":16060:16072  SafeMath.add */\n      tag_130\n        /* \"contracts/BlastFurnace_flattened.sol\":16060:16118  SafeMath.add(claimedOres[adr], getOresSinceLastHatch(adr)) */\n      jump\t// in\n    tag_128:\n        /* \"contracts/BlastFurnace_flattened.sol\":16053:16118  return SafeMath.add(claimedOres[adr], getOresSinceLastHatch(adr)) */\n      swap1\n      pop\n        /* \"contracts/BlastFurnace_flattened.sol\":15986:16123  function getMyOres(address adr) public view returns (uint256) {... */\n      swap2\n      swap1\n      pop\n      jump\t// out\n        /* \"contracts/BlastFurnace_flattened.sol\":9088:9499  function claimMyGasFees() external {... */\n    tag_40:\n        /* \"contracts/BlastFurnace_flattened.sol\":9128:9145  address recipient */\n      0x00\n        /* \"contracts/BlastFurnace_flattened.sol\":9148:9158  msg.sender */\n      caller\n        /* \"contracts/BlastFurnace_flattened.sol\":9128:9158  address recipient = msg.sender */\n      swap1\n      pop\n        /* \"contracts/BlastFurnace_flattened.sol\":9163:9180  uint256 lastClaim */\n      0x00\n        /* \"contracts/BlastFurnace_flattened.sol\":9183:9198  _lastBlastClaim */\n      0x02\n        /* \"contracts/BlastFurnace_flattened.sol\":9183:9209  _lastBlastClaim[recipient] */\n      0x00\n        /* \"contracts/BlastFurnace_flattened.sol\":9199:9208  recipient */\n      dup4\n        /* \"contracts/BlastFurnace_flattened.sol\":9183:9209  _lastBlastClaim[recipient] */\n      0xffffffffffffffffffffffffffffffffffffffff\n      and\n      0xffffffffffffffffffffffffffffffffffffffff\n      and\n      dup2\n      mstore\n      0x20\n      add\n      swap1\n      dup2\n      mstore\n      0x20\n      add\n      0x00\n      keccak256\n      sload\n        /* \"contracts/BlastFurnace_flattened.sol\":9163:9209  uint256 lastClaim = _lastBlastClaim[recipient] */\n      swap1\n      pop\n        /* \"contracts/BlastFurnace_flattened.sol\":9254:9269  block.timestamp */\n      timestamp\n        /* \"contracts/BlastFurnace_flattened.sol\":9232:9251  _blastClaimInterval */\n      sload(0x03)\n        /* \"contracts/BlastFurnace_flattened.sol\":9220:9229  lastClaim */\n      dup3\n        /* \"contracts/BlastFurnace_flattened.sol\":9220:9251  lastClaim + _blastClaimInterval */\n      tag_132\n      swap2\n      swap1\n      tag_133\n      jump\t// in\n    tag_132:\n        /* \"contracts/BlastFurnace_flattened.sol\":9220:9269  lastClaim + _blastClaimInterval < block.timestamp */\n      lt\n        /* \"contracts/BlastFurnace_flattened.sol\":9216:9289  if (lastClaim + _blastClaimInterval < block.timestamp) {... */\n      iszero\n      tag_134\n      jumpi\n        /* \"contracts/BlastFurnace_flattened.sol\":9277:9284  return; */\n      pop\n      pop\n      jump(tag_131)\n        /* \"contracts/BlastFurnace_flattened.sol\":9216:9289  if (lastClaim + _blastClaimInterval < block.timestamp) {... */\n    tag_134:\n        /* \"contracts/BlastFurnace_flattened.sol\":9324:9339  block.timestamp */\n      timestamp\n        /* \"contracts/BlastFurnace_flattened.sol\":9295:9310  _lastBlastClaim */\n      0x02\n        /* \"contracts/BlastFurnace_flattened.sol\":9295:9321  _lastBlastClaim[recipient] */\n      0x00\n        /* \"contracts/BlastFurnace_flattened.sol\":9311:9320  recipient */\n      dup5\n        /* \"contracts/BlastFurnace_flattened.sol\":9295:9321  _lastBlastClaim[recipient] */\n      0xffffffffffffffffffffffffffffffffffffffff\n      and\n      0xffffffffffffffffffffffffffffffffffffffff\n      and\n      dup2\n      mstore\n      0x20\n      add\n      swap1\n      dup2\n      mstore\n      0x20\n      add\n      0x00\n      keccak256\n        /* \"contracts/BlastFurnace_flattened.sol\":9295:9339  _lastBlastClaim[recipient] = block.timestamp */\n      dup2\n      swap1\n      sstore\n      pop\n        /* \"contracts/BlastFurnace_flattened.sol\":9344:9359  uint256 claimed */\n      0x00\n        /* \"contracts/BlastFurnace_flattened.sol\":9362:9367  BLAST */\n      0x01\n      0x00\n      swap1\n      sload\n      swap1\n      0x0100\n      exp\n      swap1\n      div\n      0xffffffffffffffffffffffffffffffffffffffff\n      and\n        /* \"contracts/BlastFurnace_flattened.sol\":9362:9379  BLAST.claimAllGas */\n      0xffffffffffffffffffffffffffffffffffffffff\n      and\n      0x954fa5ee\n        /* \"contracts/BlastFurnace_flattened.sol\":9388:9392  this */\n      address\n        /* \"contracts/BlastFurnace_flattened.sol\":9395:9404  recipient */\n      dup6\n        /* \"contracts/BlastFurnace_flattened.sol\":9362:9405  BLAST.claimAllGas(address(this), recipient) */\n      mload(0x40)\n      dup4\n      0xffffffff\n      and\n      0xe0\n      shl\n      dup2\n      mstore\n      0x04\n      add\n      tag_135\n      swap3\n      swap2\n      swap1\n      tag_136\n      jump\t// in\n    tag_135:\n      0x20\n      mload(0x40)\n      dup1\n      dup4\n      sub\n      dup2\n      0x00\n      dup8\n      gas\n      call\n      iszero\n      dup1\n      iszero\n      tag_138\n      jumpi\n      returndatasize\n      0x00\n      dup1\n      returndatacopy\n      revert(0x00, returndatasize)\n    tag_138:\n      pop\n      pop\n      pop\n      pop\n      mload(0x40)\n      returndatasize\n      not(0x1f)\n      0x1f\n      dup3\n      add\n      and\n      dup3\n      add\n      dup1\n      0x40\n      mstore\n      pop\n      dup2\n      add\n      swap1\n      tag_139\n      swap2\n      swap1\n      tag_140\n      jump\t// in\n    tag_139:\n        /* \"contracts/BlastFurnace_flattened.sol\":9344:9405  uint256 claimed = BLAST.claimAllGas(address(this), recipient) */\n      swap1\n      pop\n        /* \"contracts/BlastFurnace_flattened.sol\":9426:9427  0 */\n      0x00\n        /* \"contracts/BlastFurnace_flattened.sol\":9416:9423  claimed */\n      dup2\n        /* \"contracts/BlastFurnace_flattened.sol\":9416:9427  claimed > 0 */\n      gt\n        /* \"contracts/BlastFurnace_flattened.sol\":9412:9495  if (claimed > 0) {... */\n      iszero\n      tag_141\n      jumpi\n        /* \"contracts/BlastFurnace_flattened.sol\":9451:9458  claimed */\n      dup1\n        /* \"contracts/BlastFurnace_flattened.sol\":9435:9447  _feesClaimed */\n      0x04\n      0x00\n        /* \"contracts/BlastFurnace_flattened.sol\":9435:9458  _feesClaimed += claimed */\n      dup3\n      dup3\n      sload\n      tag_142\n      swap2\n      swap1\n      tag_133\n      jump\t// in\n    tag_142:\n      swap3\n      pop\n      pop\n      dup2\n      swap1\n      sstore\n      pop\n        /* \"contracts/BlastFurnace_flattened.sol\":9464:9489  blastFeesClaimed(claimed) */\n      tag_143\n        /* \"contracts/BlastFurnace_flattened.sol\":9481:9488  claimed */\n      dup2\n        /* \"contracts/BlastFurnace_flattened.sol\":9464:9480  blastFeesClaimed */\n      tag_144\n        /* \"contracts/BlastFurnace_flattened.sol\":9464:9489  blastFeesClaimed(claimed) */\n      jump\t// in\n    tag_143:\n        /* \"contracts/BlastFurnace_flattened.sol\":9412:9495  if (claimed > 0) {... */\n    tag_141:\n        /* \"contracts/BlastFurnace_flattened.sol\":9123:9499  {... */\n      pop\n      pop\n      pop\n        /* \"contracts/BlastFurnace_flattened.sol\":9088:9499  function claimMyGasFees() external {... */\n    tag_131:\n      jump\t// out\n        /* \"contracts/BlastFurnace_flattened.sol\":15647:15781  function seedMarket() public payable onlyOwner {... */\n    tag_42:\n        /* \"contracts/BlastFurnace_flattened.sol\":8138:8147  isOwner() */\n      tag_146\n        /* \"contracts/BlastFurnace_flattened.sol\":8138:8145  isOwner */\n      tag_98\n        /* \"contracts/BlastFurnace_flattened.sol\":8138:8147  isOwner() */\n      jump\t// in\n    tag_146:\n        /* \"contracts/BlastFurnace_flattened.sol\":8130:8148  require(isOwner()) */\n      tag_147\n      jumpi\n      0x00\n      dup1\n      revert\n    tag_147:\n        /* \"contracts/BlastFurnace_flattened.sol\":15721:15722  0 */\n      0x00\n        /* \"contracts/BlastFurnace_flattened.sol\":15707:15717  marketOres */\n      sload(0x0e)\n        /* \"contracts/BlastFurnace_flattened.sol\":15707:15722  marketOres == 0 */\n      eq\n        /* \"contracts/BlastFurnace_flattened.sol\":15699:15723  require(marketOres == 0) */\n      tag_149\n      jumpi\n      0x00\n      dup1\n      revert\n    tag_149:\n        /* \"contracts/BlastFurnace_flattened.sol\":15742:15746  true */\n      0x01\n        /* \"contracts/BlastFurnace_flattened.sol\":15728:15739  initialized */\n      0x09\n      0x00\n        /* \"contracts/BlastFurnace_flattened.sol\":15728:15746  initialized = true */\n      0x0100\n      exp\n      dup2\n      sload\n      dup2\n      0xff\n      mul\n      not\n      and\n      swap1\n      dup4\n      iszero\n      iszero\n      mul\n      or\n      swap1\n      sstore\n      pop\n        /* \"contracts/BlastFurnace_flattened.sol\":15764:15776  108000000000 */\n      0x19254d3800\n        /* \"contracts/BlastFurnace_flattened.sol\":15751:15761  marketOres */\n      0x0e\n        /* \"contracts/BlastFurnace_flattened.sol\":15751:15776  marketOres = 108000000000 */\n      dup2\n      swap1\n      sstore\n      pop\n        /* \"contracts/BlastFurnace_flattened.sol\":15647:15781  function seedMarket() public payable onlyOwner {... */\n      jump\t// out\n        /* \"contracts/BlastFurnace_flattened.sol\":15063:15205  function calculateOreSell(uint256 ores) public view returns (uint256) {... */\n    tag_47:\n        /* \"contracts/BlastFurnace_flattened.sol\":15124:15131  uint256 */\n      0x00\n        /* \"contracts/BlastFurnace_flattened.sol\":15145:15200  calculateTrade(ores, marketOres, address(this).balance) */\n      tag_151\n        /* \"contracts/BlastFurnace_flattened.sol\":15160:15164  ores */\n      dup3\n        /* \"contracts/BlastFurnace_flattened.sol\":15166:15176  marketOres */\n      sload(0x0e)\n        /* \"contracts/BlastFurnace_flattened.sol\":15178:15199  address(this).balance */\n      selfbalance\n        /* \"contracts/BlastFurnace_flattened.sol\":15145:15159  calculateTrade */\n      tag_152\n        /* \"contracts/BlastFurnace_flattened.sol\":15145:15200  calculateTrade(ores, marketOres, address(this).balance) */\n      jump\t// in\n    tag_151:\n        /* \"contracts/BlastFurnace_flattened.sol\":15138:15200  return calculateTrade(ores, marketOres, address(this).balance) */\n      swap1\n      pop\n        /* \"contracts/BlastFurnace_flattened.sol\":15063:15205  function calculateOreSell(uint256 ores) public view returns (uint256) {... */\n      swap2\n      swap1\n      pop\n      jump\t// out\n        /* \"contracts/BlastFurnace_flattened.sol\":14178:14356  function furnaceRewards(address adr) public view returns (uint256) {... */\n    tag_52:\n        /* \"contracts/BlastFurnace_flattened.sol\":14236:14243  uint256 */\n      0x00\n        /* \"contracts/BlastFurnace_flattened.sol\":14250:14265  uint256 hasOres */\n      dup1\n        /* \"contracts/BlastFurnace_flattened.sol\":14268:14282  getMyOres(adr) */\n      tag_154\n        /* \"contracts/BlastFurnace_flattened.sol\":14278:14281  adr */\n      dup4\n        /* \"contracts/BlastFurnace_flattened.sol\":14268:14277  getMyOres */\n      tag_36\n        /* \"contracts/BlastFurnace_flattened.sol\":14268:14282  getMyOres(adr) */\n      jump\t// in\n    tag_154:\n        /* \"contracts/BlastFurnace_flattened.sol\":14250:14282  uint256 hasOres = getMyOres(adr) */\n      swap1\n      pop\n        /* \"contracts/BlastFurnace_flattened.sol\":14287:14303  uint256 oreValue */\n      0x00\n        /* \"contracts/BlastFurnace_flattened.sol\":14306:14331  calculateOreSell(hasOres) */\n      tag_155\n        /* \"contracts/BlastFurnace_flattened.sol\":14323:14330  hasOres */\n      dup3\n        /* \"contracts/BlastFurnace_flattened.sol\":14306:14322  calculateOreSell */\n      tag_47\n        /* \"contracts/BlastFurnace_flattened.sol\":14306:14331  calculateOreSell(hasOres) */\n      jump\t// in\n    tag_155:\n        /* \"contracts/BlastFurnace_flattened.sol\":14287:14331  uint256 oreValue = calculateOreSell(hasOres) */\n      swap1\n      pop\n        /* \"contracts/BlastFurnace_flattened.sol\":14343:14351  oreValue */\n      dup1\n        /* \"contracts/BlastFurnace_flattened.sol\":14336:14351  return oreValue */\n      swap3\n      pop\n      pop\n      pop\n        /* \"contracts/BlastFurnace_flattened.sol\":14178:14356  function furnaceRewards(address adr) public view returns (uint256) {... */\n      swap2\n      swap1\n      pop\n      jump\t// out\n        /* \"contracts/BlastFurnace_flattened.sol\":15210:15368  function calculateOreBuy(uint256 eth, uint256 contractBalance) public view returns (uint256) {... */\n    tag_58:\n        /* \"contracts/BlastFurnace_flattened.sol\":15294:15301  uint256 */\n      0x00\n        /* \"contracts/BlastFurnace_flattened.sol\":15315:15363  calculateTrade(eth, contractBalance, marketOres) */\n      tag_157\n        /* \"contracts/BlastFurnace_flattened.sol\":15330:15333  eth */\n      dup4\n        /* \"contracts/BlastFurnace_flattened.sol\":15335:15350  contractBalance */\n      dup4\n        /* \"contracts/BlastFurnace_flattened.sol\":15352:15362  marketOres */\n      sload(0x0e)\n        /* \"contracts/BlastFurnace_flattened.sol\":15315:15329  calculateTrade */\n      tag_152\n        /* \"contracts/BlastFurnace_flattened.sol\":15315:15363  calculateTrade(eth, contractBalance, marketOres) */\n      jump\t// in\n    tag_157:\n        /* \"contracts/BlastFurnace_flattened.sol\":15308:15363  return calculateTrade(eth, contractBalance, marketOres) */\n      swap1\n      pop\n        /* \"contracts/BlastFurnace_flattened.sol\":15210:15368  function calculateOreBuy(uint256 eth, uint256 contractBalance) public view returns (uint256) {... */\n      swap3\n      swap2\n      pop\n      pop\n      jump\t// out\n        /* \"contracts/BlastFurnace_flattened.sol\":9006:9049  uint256 public _blastClaimInterval = 1 days */\n    tag_62:\n      sload(0x03)\n      dup2\n      jump\t// out\n        /* \"contracts/BlastFurnace_flattened.sol\":15881:15981  function getMyMiners(address adr) public view returns (uint256) {... */\n    tag_67:\n        /* \"contracts/BlastFurnace_flattened.sol\":15936:15943  uint256 */\n      0x00\n        /* \"contracts/BlastFurnace_flattened.sol\":15957:15971  hatcheryMiners */\n      0x0a\n        /* \"contracts/BlastFurnace_flattened.sol\":15957:15976  hatcheryMiners[adr] */\n      0x00\n        /* \"contracts/BlastFurnace_flattened.sol\":15972:15975  adr */\n      dup4\n        /* \"contracts/BlastFurnace_flattened.sol\":15957:15976  hatcheryMiners[adr] */\n      0xffffffffffffffffffffffffffffffffffffffff\n      and\n      0xffffffffffffffffffffffffffffffffffffffff\n      and\n      dup2\n      mstore\n      0x20\n      add\n      swap1\n      dup2\n      mstore\n      0x20\n      add\n      0x00\n      keccak256\n      sload\n        /* \"contracts/BlastFurnace_flattened.sol\":15950:15976  return hatcheryMiners[adr] */\n      swap1\n      pop\n        /* \"contracts/BlastFurnace_flattened.sol\":15881:15981  function getMyMiners(address adr) public view returns (uint256) {... */\n      swap2\n      swap1\n      pop\n      jump\t// out\n        /* \"contracts/BlastFurnace_flattened.sol\":15373:15507  function calculateOreBuySimple(uint256 eth) public view returns (uint256) {... */\n    tag_72:\n        /* \"contracts/BlastFurnace_flattened.sol\":15438:15445  uint256 */\n      0x00\n        /* \"contracts/BlastFurnace_flattened.sol\":15459:15502  calculateOreBuy(eth, address(this).balance) */\n      tag_160\n        /* \"contracts/BlastFurnace_flattened.sol\":15475:15478  eth */\n      dup3\n        /* \"contracts/BlastFurnace_flattened.sol\":15480:15501  address(this).balance */\n      selfbalance\n        /* \"contracts/BlastFurnace_flattened.sol\":15459:15474  calculateOreBuy */\n      tag_58\n        /* \"contracts/BlastFurnace_flattened.sol\":15459:15502  calculateOreBuy(eth, address(this).balance) */\n      jump\t// in\n    tag_160:\n        /* \"contracts/BlastFurnace_flattened.sol\":15452:15502  return calculateOreBuy(eth, address(this).balance) */\n      swap1\n      pop\n        /* \"contracts/BlastFurnace_flattened.sol\":15373:15507  function calculateOreBuySimple(uint256 eth) public view returns (uint256) {... */\n      swap2\n      swap1\n      pop\n      jump\t// out\n        /* \"contracts/BlastFurnace_flattened.sol\":16128:16589  function getOresSinceLastHatch(address addr) public view returns (uint256) {... */\n    tag_77:\n        /* \"contracts/BlastFurnace_flattened.sol\":16194:16201  uint256 */\n      0x00\n        /* \"contracts/BlastFurnace_flattened.sol\":16208:16229  uint256 secondsPassed */\n      dup1\n        /* \"contracts/BlastFurnace_flattened.sol\":16232:16306  min(ORES_TO_HATCH_1MINERS, SafeMath.sub(block.timestamp, lastHatch[addr])) */\n      tag_162\n        /* \"contracts/BlastFurnace_flattened.sol\":16236:16257  ORES_TO_HATCH_1MINERS */\n      sload(0x05)\n        /* \"contracts/BlastFurnace_flattened.sol\":16259:16305  SafeMath.sub(block.timestamp, lastHatch[addr]) */\n      tag_163\n        /* \"contracts/BlastFurnace_flattened.sol\":16272:16287  block.timestamp */\n      timestamp\n        /* \"contracts/BlastFurnace_flattened.sol\":16289:16298  lastHatch */\n      0x0c\n        /* \"contracts/BlastFurnace_flattened.sol\":16289:16304  lastHatch[addr] */\n      0x00\n        /* \"contracts/BlastFurnace_flattened.sol\":16299:16303  addr */\n      dup9\n        /* \"contracts/BlastFurnace_flattened.sol\":16289:16304  lastHatch[addr] */\n      0xffffffffffffffffffffffffffffffffffffffff\n      and\n      0xffffffffffffffffffffffffffffffffffffffff\n      and\n      dup2\n      mstore\n      0x20\n      add\n      swap1\n      dup2\n      mstore\n      0x20\n      add\n      0x00\n      keccak256\n      sload\n        /* \"contracts/BlastFurnace_flattened.sol\":16259:16271  SafeMath.sub */\n      tag_164\n        /* \"contracts/BlastFurnace_flattened.sol\":16259:16305  SafeMath.sub(block.timestamp, lastHatch[addr]) */\n      jump\t// in\n    tag_163:\n        /* \"contracts/BlastFurnace_flattened.sol\":16232:16235  min */\n      tag_165\n        /* \"contracts/BlastFurnace_flattened.sol\":16232:16306  min(ORES_TO_HATCH_1MINERS, SafeMath.sub(block.timestamp, lastHatch[addr])) */\n      jump\t// in\n    tag_162:\n        /* \"contracts/BlastFurnace_flattened.sol\":16208:16306  uint256 secondsPassed = min(ORES_TO_HATCH_1MINERS, SafeMath.sub(block.timestamp, lastHatch[addr])) */\n      swap1\n      pop\n        /* \"contracts/BlastFurnace_flattened.sol\":16348:16362  uint256 ingots */\n      0x00\n        /* \"contracts/BlastFurnace_flattened.sol\":16365:16379  _ingotBalances */\n      0x0f\n        /* \"contracts/BlastFurnace_flattened.sol\":16365:16385  _ingotBalances[addr] */\n      0x00\n        /* \"contracts/BlastFurnace_flattened.sol\":16380:16384  addr */\n      dup6\n        /* \"contracts/BlastFurnace_flattened.sol\":16365:16385  _ingotBalances[addr] */\n      0xffffffffffffffffffffffffffffffffffffffff\n      and\n      0xffffffffffffffffffffffffffffffffffffffff\n      and\n      dup2\n      mstore\n      0x20\n      add\n      swap1\n      dup2\n      mstore\n      0x20\n      add\n      0x00\n      keccak256\n      sload\n        /* \"contracts/BlastFurnace_flattened.sol\":16348:16385  uint256 ingots = _ingotBalances[addr] */\n      swap1\n      pop\n        /* \"contracts/BlastFurnace_flattened.sol\":16390:16410  uint256 timeIncrease */\n      0x00\n        /* \"contracts/BlastFurnace_flattened.sol\":16413:16467  secondsPassed.mul(ingots).div(INGOT_FRAGMENT.mul(100)) */\n      tag_166\n        /* \"contracts/BlastFurnace_flattened.sol\":16443:16466  INGOT_FRAGMENT.mul(100) */\n      tag_167\n        /* \"contracts/BlastFurnace_flattened.sol\":16462:16465  100 */\n      0x64\n        /* \"contracts/BlastFurnace_flattened.sol\":11989:11992  200 */\n      0xc8\n        /* \"contracts/BlastFurnace_flattened.sol\":16443:16461  INGOT_FRAGMENT.mul */\n      tag_168\n      swap1\n        /* \"contracts/BlastFurnace_flattened.sol\":16443:16466  INGOT_FRAGMENT.mul(100) */\n      swap2\n      swap1\n      0xffffffff\n      and\n      jump\t// in\n    tag_167:\n        /* \"contracts/BlastFurnace_flattened.sol\":16413:16438  secondsPassed.mul(ingots) */\n      tag_169\n        /* \"contracts/BlastFurnace_flattened.sol\":16431:16437  ingots */\n      dup5\n        /* \"contracts/BlastFurnace_flattened.sol\":16413:16426  secondsPassed */\n      dup7\n        /* \"contracts/BlastFurnace_flattened.sol\":16413:16430  secondsPassed.mul */\n      tag_168\n      swap1\n        /* \"contracts/BlastFurnace_flattened.sol\":16413:16438  secondsPassed.mul(ingots) */\n      swap2\n      swap1\n      0xffffffff\n      and\n      jump\t// in\n    tag_169:\n        /* \"contracts/BlastFurnace_flattened.sol\":16413:16442  secondsPassed.mul(ingots).div */\n      tag_170\n      swap1\n        /* \"contracts/BlastFurnace_flattened.sol\":16413:16467  secondsPassed.mul(ingots).div(INGOT_FRAGMENT.mul(100)) */\n      swap2\n      swap1\n      0xffffffff\n      and\n      jump\t// in\n    tag_166:\n        /* \"contracts/BlastFurnace_flattened.sol\":16390:16467  uint256 timeIncrease = secondsPassed.mul(ingots).div(INGOT_FRAGMENT.mul(100)) */\n      swap1\n      pop\n        /* \"contracts/BlastFurnace_flattened.sol\":16490:16521  secondsPassed.add(timeIncrease) */\n      tag_171\n        /* \"contracts/BlastFurnace_flattened.sol\":16508:16520  timeIncrease */\n      dup2\n        /* \"contracts/BlastFurnace_flattened.sol\":16490:16503  secondsPassed */\n      dup5\n        /* \"contracts/BlastFurnace_flattened.sol\":16490:16507  secondsPassed.add */\n      tag_130\n      swap1\n        /* \"contracts/BlastFurnace_flattened.sol\":16490:16521  secondsPassed.add(timeIncrease) */\n      swap2\n      swap1\n      0xffffffff\n      and\n      jump\t// in\n    tag_171:\n        /* \"contracts/BlastFurnace_flattened.sol\":16474:16521  secondsPassed = secondsPassed.add(timeIncrease) */\n      swap3\n      pop\n        /* \"contracts/BlastFurnace_flattened.sol\":16535:16584  SafeMath.mul(secondsPassed, hatcheryMiners[addr]) */\n      tag_172\n        /* \"contracts/BlastFurnace_flattened.sol\":16548:16561  secondsPassed */\n      dup4\n        /* \"contracts/BlastFurnace_flattened.sol\":16563:16577  hatcheryMiners */\n      0x0a\n        /* \"contracts/BlastFurnace_flattened.sol\":16563:16583  hatcheryMiners[addr] */\n      0x00\n        /* \"contracts/BlastFurnace_flattened.sol\":16578:16582  addr */\n      dup9\n        /* \"contracts/BlastFurnace_flattened.sol\":16563:16583  hatcheryMiners[addr] */\n      0xffffffffffffffffffffffffffffffffffffffff\n      and\n      0xffffffffffffffffffffffffffffffffffffffff\n      and\n      dup2\n      mstore\n      0x20\n      add\n      swap1\n      dup2\n      mstore\n      0x20\n      add\n      0x00\n      keccak256\n      sload\n        /* \"contracts/BlastFurnace_flattened.sol\":16535:16547  SafeMath.mul */\n      tag_168\n        /* \"contracts/BlastFurnace_flattened.sol\":16535:16584  SafeMath.mul(secondsPassed, hatcheryMiners[addr]) */\n      jump\t// in\n    tag_172:\n        /* \"contracts/BlastFurnace_flattened.sol\":16528:16584  return SafeMath.mul(secondsPassed, hatcheryMiners[addr]) */\n      swap4\n      pop\n      pop\n      pop\n      pop\n        /* \"contracts/BlastFurnace_flattened.sol\":16128:16589  function getOresSinceLastHatch(address addr) public view returns (uint256) {... */\n      swap2\n      swap1\n      pop\n      jump\t// out\n        /* \"contracts/BlastFurnace_flattened.sol\":17272:17556  function getAirdropQualifier(uint256 index) external view returns (address, uint256) {... */\n    tag_82:\n        /* \"contracts/BlastFurnace_flattened.sol\":17339:17346  address */\n      0x00\n        /* \"contracts/BlastFurnace_flattened.sol\":17348:17355  uint256 */\n      dup1\n        /* \"contracts/BlastFurnace_flattened.sol\":17375:17393  _airdropQualifiers */\n      0x12\n        /* \"contracts/BlastFurnace_flattened.sol\":17375:17400  _airdropQualifiers.length */\n      dup1\n      sload\n      swap1\n      pop\n        /* \"contracts/BlastFurnace_flattened.sol\":17366:17371  index */\n      dup4\n        /* \"contracts/BlastFurnace_flattened.sol\":17366:17400  index >= _airdropQualifiers.length */\n      lt\n        /* \"contracts/BlastFurnace_flattened.sol\":17362:17436  if (index >= _airdropQualifiers.length) {... */\n      tag_174\n      jumpi\n        /* \"contracts/BlastFurnace_flattened.sol\":17424:17425  0 */\n      0x00\n        /* \"contracts/BlastFurnace_flattened.sol\":17428:17429  0 */\n      dup1\n        /* \"contracts/BlastFurnace_flattened.sol\":17408:17430  return (address(0), 0) */\n      swap2\n      pop\n      swap2\n      pop\n      jump(tag_173)\n        /* \"contracts/BlastFurnace_flattened.sol\":17362:17436  if (index >= _airdropQualifiers.length) {... */\n    tag_174:\n        /* \"contracts/BlastFurnace_flattened.sol\":17442:17454  address addr */\n      0x00\n        /* \"contracts/BlastFurnace_flattened.sol\":17457:17475  _airdropQualifiers */\n      0x12\n        /* \"contracts/BlastFurnace_flattened.sol\":17476:17481  index */\n      dup5\n        /* \"contracts/BlastFurnace_flattened.sol\":17457:17482  _airdropQualifiers[index] */\n      dup2\n      sload\n      dup2\n      lt\n      tag_175\n      jumpi\n      tag_176\n      tag_177\n      jump\t// in\n    tag_176:\n    tag_175:\n      swap1\n      0x00\n      mstore\n      keccak256(0x00, 0x20)\n      add\n      0x00\n      swap1\n      sload\n      swap1\n      0x0100\n      exp\n      swap1\n      div\n      0xffffffffffffffffffffffffffffffffffffffff\n      and\n        /* \"contracts/BlastFurnace_flattened.sol\":17442:17482  address addr = _airdropQualifiers[index] */\n      swap1\n      pop\n        /* \"contracts/BlastFurnace_flattened.sol\":17487:17502  uint256 balance */\n      0x00\n        /* \"contracts/BlastFurnace_flattened.sol\":17505:17516  claimedOres */\n      0x0b\n        /* \"contracts/BlastFurnace_flattened.sol\":17505:17522  claimedOres[addr] */\n      0x00\n        /* \"contracts/BlastFurnace_flattened.sol\":17517:17521  addr */\n      dup4\n        /* \"contracts/BlastFurnace_flattened.sol\":17505:17522  claimedOres[addr] */\n      0xffffffffffffffffffffffffffffffffffffffff\n      and\n      0xffffffffffffffffffffffffffffffffffffffff\n      and\n      dup2\n      mstore\n      0x20\n      add\n      swap1\n      dup2\n      mstore\n      0x20\n      add\n      0x00\n      keccak256\n      sload\n        /* \"contracts/BlastFurnace_flattened.sol\":17487:17522  uint256 balance = claimedOres[addr] */\n      swap1\n      pop\n        /* \"contracts/BlastFurnace_flattened.sol\":17537:17541  addr */\n      dup2\n        /* \"contracts/BlastFurnace_flattened.sol\":17543:17550  balance */\n      dup2\n        /* \"contracts/BlastFurnace_flattened.sol\":17529:17551  return (addr, balance) */\n      swap4\n      pop\n      swap4\n      pop\n      pop\n      pop\n        /* \"contracts/BlastFurnace_flattened.sol\":17272:17556  function getAirdropQualifier(uint256 index) external view returns (address, uint256) {... */\n    tag_173:\n      swap2\n      pop\n      swap2\n      jump\t// out\n        /* \"contracts/BlastFurnace_flattened.sol\":8252:8363  function renounceOwnership() public onlyOwner {... */\n    tag_87:\n        /* \"contracts/BlastFurnace_flattened.sol\":8138:8147  isOwner() */\n      tag_180\n        /* \"contracts/BlastFurnace_flattened.sol\":8138:8145  isOwner */\n      tag_98\n        /* \"contracts/BlastFurnace_flattened.sol\":8138:8147  isOwner() */\n      jump\t// in\n    tag_180:\n        /* \"contracts/BlastFurnace_flattened.sol\":8130:8148  require(isOwner()) */\n      tag_181\n      jumpi\n      0x00\n      dup1\n      revert\n    tag_181:\n        /* \"contracts/BlastFurnace_flattened.sol\":8327:8333  _owner */\n      0x00\n      dup1\n      sload\n      swap1\n      0x0100\n      exp\n      swap1\n      div\n      0xffffffffffffffffffffffffffffffffffffffff\n      and\n        /* \"contracts/BlastFurnace_flattened.sol\":8308:8334  OwnershipRenounced(_owner) */\n      0xffffffffffffffffffffffffffffffffffffffff\n      and\n      0xf8df31144d9c2f0f6b59d69b8b98abd5459d07f2742c4df920b25aae33c64820\n      mload(0x40)\n      mload(0x40)\n      dup1\n      swap2\n      sub\n      swap1\n      log2\n        /* \"contracts/BlastFurnace_flattened.sol\":8356:8357  0 */\n      0x00\n        /* \"contracts/BlastFurnace_flattened.sol\":8339:8345  _owner */\n      dup1\n      0x00\n        /* \"contracts/BlastFurnace_flattened.sol\":8339:8358  _owner = address(0) */\n      0x0100\n      exp\n      dup2\n      sload\n      dup2\n      0xffffffffffffffffffffffffffffffffffffffff\n      mul\n      not\n      and\n      swap1\n      dup4\n      0xffffffffffffffffffffffffffffffffffffffff\n      and\n      mul\n      or\n      swap1\n      sstore\n      pop\n        /* \"contracts/BlastFurnace_flattened.sol\":8252:8363  function renounceOwnership() public onlyOwner {... */\n      jump\t// out\n        /* \"contracts/BlastFurnace_flattened.sol\":14361:14811  function buyOres(address ref) public payable {... */\n    tag_90:\n        /* \"contracts/BlastFurnace_flattened.sol\":14419:14430  initialized */\n      0x09\n      0x00\n      swap1\n      sload\n      swap1\n      0x0100\n      exp\n      swap1\n      div\n      0xff\n      and\n        /* \"contracts/BlastFurnace_flattened.sol\":14411:14431  require(initialized) */\n      tag_184\n      jumpi\n      0x00\n      dup1\n      revert\n    tag_184:\n        /* \"contracts/BlastFurnace_flattened.sol\":14436:14454  uint256 oresBought */\n      0x00\n        /* \"contracts/BlastFurnace_flattened.sol\":14457:14531  calculateOreBuy(msg.value, SafeMath.sub(address(this).balance, msg.value)) */\n      tag_185\n        /* \"contracts/BlastFurnace_flattened.sol\":14473:14482  msg.value */\n      callvalue\n        /* \"contracts/BlastFurnace_flattened.sol\":14484:14530  SafeMath.sub(address(this).balance, msg.value) */\n      tag_186\n        /* \"contracts/BlastFurnace_flattened.sol\":14497:14518  address(this).balance */\n      selfbalance\n        /* \"contracts/BlastFurnace_flattened.sol\":14520:14529  msg.value */\n      callvalue\n        /* \"contracts/BlastFurnace_flattened.sol\":14484:14496  SafeMath.sub */\n      tag_164\n        /* \"contracts/BlastFurnace_flattened.sol\":14484:14530  SafeMath.sub(address(this).balance, msg.value) */\n      jump\t// in\n    tag_186:\n        /* \"contracts/BlastFurnace_flattened.sol\":14457:14472  calculateOreBuy */\n      tag_58\n        /* \"contracts/BlastFurnace_flattened.sol\":14457:14531  calculateOreBuy(msg.value, SafeMath.sub(address(this).balance, msg.value)) */\n      jump\t// in\n    tag_185:\n        /* \"contracts/BlastFurnace_flattened.sol\":14436:14531  uint256 oresBought = calculateOreBuy(msg.value, SafeMath.sub(address(this).balance, msg.value)) */\n      swap1\n      pop\n        /* \"contracts/BlastFurnace_flattened.sol\":14549:14593  SafeMath.sub(oresBought, devFee(oresBought)) */\n      tag_187\n        /* \"contracts/BlastFurnace_flattened.sol\":14562:14572  oresBought */\n      dup2\n        /* \"contracts/BlastFurnace_flattened.sol\":14574:14592  devFee(oresBought) */\n      tag_188\n        /* \"contracts/BlastFurnace_flattened.sol\":14581:14591  oresBought */\n      dup4\n        /* \"contracts/BlastFurnace_flattened.sol\":14574:14580  devFee */\n      tag_189\n        /* \"contracts/BlastFurnace_flattened.sol\":14574:14592  devFee(oresBought) */\n      jump\t// in\n    tag_188:\n        /* \"contracts/BlastFurnace_flattened.sol\":14549:14561  SafeMath.sub */\n      tag_164\n        /* \"contracts/BlastFurnace_flattened.sol\":14549:14593  SafeMath.sub(oresBought, devFee(oresBought)) */\n      jump\t// in\n    tag_187:\n        /* \"contracts/BlastFurnace_flattened.sol\":14536:14593  oresBought = SafeMath.sub(oresBought, devFee(oresBought)) */\n      swap1\n      pop\n        /* \"contracts/BlastFurnace_flattened.sol\":14598:14609  uint256 fee */\n      0x00\n        /* \"contracts/BlastFurnace_flattened.sol\":14612:14629  devFee(msg.value) */\n      tag_190\n        /* \"contracts/BlastFurnace_flattened.sol\":14619:14628  msg.value */\n      callvalue\n        /* \"contracts/BlastFurnace_flattened.sol\":14612:14618  devFee */\n      tag_189\n        /* \"contracts/BlastFurnace_flattened.sol\":14612:14629  devFee(msg.value) */\n      jump\t// in\n    tag_190:\n        /* \"contracts/BlastFurnace_flattened.sol\":14598:14629  uint256 fee = devFee(msg.value) */\n      swap1\n      pop\n        /* \"contracts/BlastFurnace_flattened.sol\":14634:14640  recAdd */\n      0x09\n      0x01\n      swap1\n      sload\n      swap1\n      0x0100\n      exp\n      swap1\n      div\n      0xffffffffffffffffffffffffffffffffffffffff\n      and\n        /* \"contracts/BlastFurnace_flattened.sol\":14634:14649  recAdd.transfer */\n      0xffffffffffffffffffffffffffffffffffffffff\n      and\n        /* \"contracts/BlastFurnace_flattened.sol\":14634:14654  recAdd.transfer(fee) */\n      0x08fc\n        /* \"contracts/BlastFurnace_flattened.sol\":14650:14653  fee */\n      dup3\n        /* \"contracts/BlastFurnace_flattened.sol\":14634:14654  recAdd.transfer(fee) */\n      swap1\n      dup2\n      iszero\n      mul\n      swap1\n      mload(0x40)\n      0x00\n      mload(0x40)\n      dup1\n      dup4\n      sub\n      dup2\n      dup6\n      dup9\n      dup9\n      call\n      swap4\n      pop\n      pop\n      pop\n      pop\n      iszero\n      dup1\n      iszero\n      tag_192\n      jumpi\n      returndatasize\n      0x00\n      dup1\n      returndatacopy\n      revert(0x00, returndatasize)\n    tag_192:\n      pop\n        /* \"contracts/BlastFurnace_flattened.sol\":14659:14694  _addClaimed(msg.sender, oresBought) */\n      tag_193\n        /* \"contracts/BlastFurnace_flattened.sol\":14671:14681  msg.sender */\n      caller\n        /* \"contracts/BlastFurnace_flattened.sol\":14683:14693  oresBought */\n      dup4\n        /* \"contracts/BlastFurnace_flattened.sol\":14659:14670  _addClaimed */\n      tag_194\n        /* \"contracts/BlastFurnace_flattened.sol\":14659:14694  _addClaimed(msg.sender, oresBought) */\n      jump\t// in\n    tag_193:\n        /* \"contracts/BlastFurnace_flattened.sol\":14699:14725  _hatchOres(ref, msg.value) */\n      tag_195\n        /* \"contracts/BlastFurnace_flattened.sol\":14710:14713  ref */\n      dup4\n        /* \"contracts/BlastFurnace_flattened.sol\":14715:14724  msg.value */\n      callvalue\n        /* \"contracts/BlastFurnace_flattened.sol\":14699:14709  _hatchOres */\n      tag_196\n        /* \"contracts/BlastFurnace_flattened.sol\":14699:14725  _hatchOres(ref, msg.value) */\n      jump\t// in\n    tag_195:\n        /* \"contracts/BlastFurnace_flattened.sol\":14749:14753  1e18 */\n      0x0de0b6b3a7640000\n        /* \"contracts/BlastFurnace_flattened.sol\":14736:14745  msg.value */\n      callvalue\n        /* \"contracts/BlastFurnace_flattened.sol\":14736:14753  msg.value >= 1e18 */\n      lt\n        /* \"contracts/BlastFurnace_flattened.sol\":14732:14807  if (msg.value >= 1e18) {... */\n      tag_197\n      jumpi\n        /* \"contracts/BlastFurnace_flattened.sol\":14761:14801  _addIngots(msg.sender, BIG_INGOT_REWARD) */\n      tag_198\n        /* \"contracts/BlastFurnace_flattened.sol\":14772:14782  msg.sender */\n      caller\n        /* \"contracts/BlastFurnace_flattened.sol\":11882:11885  200 */\n      0xc8\n        /* \"contracts/BlastFurnace_flattened.sol\":14761:14771  _addIngots */\n      tag_199\n        /* \"contracts/BlastFurnace_flattened.sol\":14761:14801  _addIngots(msg.sender, BIG_INGOT_REWARD) */\n      jump\t// in\n    tag_198:\n        /* \"contracts/BlastFurnace_flattened.sol\":14732:14807  if (msg.value >= 1e18) {... */\n    tag_197:\n        /* \"contracts/BlastFurnace_flattened.sol\":14406:14811  {... */\n      pop\n      pop\n        /* \"contracts/BlastFurnace_flattened.sol\":14361:14811  function buyOres(address ref) public payable {... */\n      pop\n      jump\t// out\n        /* \"contracts/BlastFurnace_flattened.sol\":8029:8099  function owner() public view returns (address) {... */\n    tag_93:\n        /* \"contracts/BlastFurnace_flattened.sol\":8067:8074  address */\n      0x00\n        /* \"contracts/BlastFurnace_flattened.sol\":8088:8094  _owner */\n      dup1\n      0x00\n      swap1\n      sload\n      swap1\n      0x0100\n      exp\n      swap1\n      div\n      0xffffffffffffffffffffffffffffffffffffffff\n      and\n        /* \"contracts/BlastFurnace_flattened.sol\":8081:8094  return _owner */\n      swap1\n      pop\n        /* \"contracts/BlastFurnace_flattened.sol\":8029:8099  function owner() public view returns (address) {... */\n      swap1\n      jump\t// out\n        /* \"contracts/BlastFurnace_flattened.sol\":8164:8247  function isOwner() public view returns (bool) {... */\n    tag_98:\n        /* \"contracts/BlastFurnace_flattened.sol\":8204:8208  bool */\n      0x00\n        /* \"contracts/BlastFurnace_flattened.sol\":8236:8242  _owner */\n      dup1\n      0x00\n      swap1\n      sload\n      swap1\n      0x0100\n      exp\n      swap1\n      div\n      0xffffffffffffffffffffffffffffffffffffffff\n      and\n        /* \"contracts/BlastFurnace_flattened.sol\":8222:8242  msg.sender == _owner */\n      0xffffffffffffffffffffffffffffffffffffffff\n      and\n        /* \"contracts/BlastFurnace_flattened.sol\":8222:8232  msg.sender */\n      caller\n        /* \"contracts/BlastFurnace_flattened.sol\":8222:8242  msg.sender == _owner */\n      0xffffffffffffffffffffffffffffffffffffffff\n      and\n      eq\n        /* \"contracts/BlastFurnace_flattened.sol\":8215:8242  return msg.sender == _owner */\n      swap1\n      pop\n        /* \"contracts/BlastFurnace_flattened.sol\":8164:8247  function isOwner() public view returns (bool) {... */\n      swap1\n      jump\t// out\n        /* \"contracts/BlastFurnace_flattened.sol\":8934:8953  IBlast public BLAST */\n    tag_103:\n      0x01\n      0x00\n      swap1\n      sload\n      swap1\n      0x0100\n      exp\n      swap1\n      div\n      0xffffffffffffffffffffffffffffffffffffffff\n      and\n      dup2\n      jump\t// out\n        /* \"contracts/BlastFurnace_flattened.sol\":13775:14173  function sellOres() public {... */\n    tag_108:\n        /* \"contracts/BlastFurnace_flattened.sol\":13815:13826  initialized */\n      0x09\n      0x00\n      swap1\n      sload\n      swap1\n      0x0100\n      exp\n      swap1\n      div\n      0xff\n      and\n        /* \"contracts/BlastFurnace_flattened.sol\":13807:13827  require(initialized) */\n      tag_203\n      jumpi\n      0x00\n      dup1\n      revert\n    tag_203:\n        /* \"contracts/BlastFurnace_flattened.sol\":13832:13847  uint256 hasOres */\n      0x00\n        /* \"contracts/BlastFurnace_flattened.sol\":13850:13871  getMyOres(msg.sender) */\n      tag_204\n        /* \"contracts/BlastFurnace_flattened.sol\":13860:13870  msg.sender */\n      caller\n        /* \"contracts/BlastFurnace_flattened.sol\":13850:13859  getMyOres */\n      tag_36\n        /* \"contracts/BlastFurnace_flattened.sol\":13850:13871  getMyOres(msg.sender) */\n      jump\t// in\n    tag_204:\n        /* \"contracts/BlastFurnace_flattened.sol\":13832:13871  uint256 hasOres = getMyOres(msg.sender) */\n      swap1\n      pop\n        /* \"contracts/BlastFurnace_flattened.sol\":13876:13892  uint256 oreValue */\n      0x00\n        /* \"contracts/BlastFurnace_flattened.sol\":13895:13920  calculateOreSell(hasOres) */\n      tag_205\n        /* \"contracts/BlastFurnace_flattened.sol\":13912:13919  hasOres */\n      dup3\n        /* \"contracts/BlastFurnace_flattened.sol\":13895:13911  calculateOreSell */\n      tag_47\n        /* \"contracts/BlastFurnace_flattened.sol\":13895:13920  calculateOreSell(hasOres) */\n      jump\t// in\n    tag_205:\n        /* \"contracts/BlastFurnace_flattened.sol\":13876:13920  uint256 oreValue = calculateOreSell(hasOres) */\n      swap1\n      pop\n        /* \"contracts/BlastFurnace_flattened.sol\":13925:13936  uint256 fee */\n      0x00\n        /* \"contracts/BlastFurnace_flattened.sol\":13939:13955  devFee(oreValue) */\n      tag_206\n        /* \"contracts/BlastFurnace_flattened.sol\":13946:13954  oreValue */\n      dup3\n        /* \"contracts/BlastFurnace_flattened.sol\":13939:13945  devFee */\n      tag_189\n        /* \"contracts/BlastFurnace_flattened.sol\":13939:13955  devFee(oreValue) */\n      jump\t// in\n    tag_206:\n        /* \"contracts/BlastFurnace_flattened.sol\":13925:13955  uint256 fee = devFee(oreValue) */\n      swap1\n      pop\n        /* \"contracts/BlastFurnace_flattened.sol\":13960:13986  _setClaimed(msg.sender, 0) */\n      tag_207\n        /* \"contracts/BlastFurnace_flattened.sol\":13972:13982  msg.sender */\n      caller\n        /* \"contracts/BlastFurnace_flattened.sol\":13984:13985  0 */\n      0x00\n        /* \"contracts/BlastFurnace_flattened.sol\":13960:13971  _setClaimed */\n      tag_208\n        /* \"contracts/BlastFurnace_flattened.sol\":13960:13986  _setClaimed(msg.sender, 0) */\n      jump\t// in\n    tag_207:\n        /* \"contracts/BlastFurnace_flattened.sol\":14015:14030  block.timestamp */\n      timestamp\n        /* \"contracts/BlastFurnace_flattened.sol\":13991:14000  lastHatch */\n      0x0c\n        /* \"contracts/BlastFurnace_flattened.sol\":13991:14012  lastHatch[msg.sender] */\n      0x00\n        /* \"contracts/BlastFurnace_flattened.sol\":14001:14011  msg.sender */\n      caller\n        /* \"contracts/BlastFurnace_flattened.sol\":13991:14012  lastHatch[msg.sender] */\n      0xffffffffffffffffffffffffffffffffffffffff\n      and\n      0xffffffffffffffffffffffffffffffffffffffff\n      and\n      dup2\n      mstore\n      0x20\n      add\n      swap1\n      dup2\n      mstore\n      0x20\n      add\n      0x00\n      keccak256\n        /* \"contracts/BlastFurnace_flattened.sol\":13991:14030  lastHatch[msg.sender] = block.timestamp */\n      dup2\n      swap1\n      sstore\n      pop\n        /* \"contracts/BlastFurnace_flattened.sol\":14048:14081  SafeMath.add(marketOres, hasOres) */\n      tag_209\n        /* \"contracts/BlastFurnace_flattened.sol\":14061:14071  marketOres */\n      sload(0x0e)\n        /* \"contracts/BlastFurnace_flattened.sol\":14073:14080  hasOres */\n      dup5\n        /* \"contracts/BlastFurnace_flattened.sol\":14048:14060  SafeMath.add */\n      tag_130\n        /* \"contracts/BlastFurnace_flattened.sol\":14048:14081  SafeMath.add(marketOres, hasOres) */\n      jump\t// in\n    tag_209:\n        /* \"contracts/BlastFurnace_flattened.sol\":14035:14045  marketOres */\n      0x0e\n        /* \"contracts/BlastFurnace_flattened.sol\":14035:14081  marketOres = SafeMath.add(marketOres, hasOres) */\n      dup2\n      swap1\n      sstore\n      pop\n        /* \"contracts/BlastFurnace_flattened.sol\":14086:14092  recAdd */\n      0x09\n      0x01\n      swap1\n      sload\n      swap1\n      0x0100\n      exp\n      swap1\n      div\n      0xffffffffffffffffffffffffffffffffffffffff\n      and\n        /* \"contracts/BlastFurnace_flattened.sol\":14086:14101  recAdd.transfer */\n      0xffffffffffffffffffffffffffffffffffffffff\n      and\n        /* \"contracts/BlastFurnace_flattened.sol\":14086:14106  recAdd.transfer(fee) */\n      0x08fc\n        /* \"contracts/BlastFurnace_flattened.sol\":14102:14105  fee */\n      dup3\n        /* \"contracts/BlastFurnace_flattened.sol\":14086:14106  recAdd.transfer(fee) */\n      swap1\n      dup2\n      iszero\n      mul\n      swap1\n      mload(0x40)\n      0x00\n      mload(0x40)\n      dup1\n      dup4\n      sub\n      dup2\n      dup6\n      dup9\n      dup9\n      call\n      swap4\n      pop\n      pop\n      pop\n      pop\n      iszero\n      dup1\n      iszero\n      tag_211\n      jumpi\n      returndatasize\n      0x00\n      dup1\n      returndatacopy\n      revert(0x00, returndatasize)\n    tag_211:\n      pop\n        /* \"contracts/BlastFurnace_flattened.sol\":14119:14129  msg.sender */\n      caller\n        /* \"contracts/BlastFurnace_flattened.sol\":14111:14139  payable(msg.sender).transfer */\n      0xffffffffffffffffffffffffffffffffffffffff\n      and\n        /* \"contracts/BlastFurnace_flattened.sol\":14111:14168  payable(msg.sender).transfer(SafeMath.sub(oreValue, fee)) */\n      0x08fc\n        /* \"contracts/BlastFurnace_flattened.sol\":14140:14167  SafeMath.sub(oreValue, fee) */\n      tag_212\n        /* \"contracts/BlastFurnace_flattened.sol\":14153:14161  oreValue */\n      dup5\n        /* \"contracts/BlastFurnace_flattened.sol\":14163:14166  fee */\n      dup5\n        /* \"contracts/BlastFurnace_flattened.sol\":14140:14152  SafeMath.sub */\n      tag_164\n        /* \"contracts/BlastFurnace_flattened.sol\":14140:14167  SafeMath.sub(oreValue, fee) */\n      jump\t// in\n    tag_212:\n        /* \"contracts/BlastFurnace_flattened.sol\":14111:14168  payable(msg.sender).transfer(SafeMath.sub(oreValue, fee)) */\n      swap1\n      dup2\n      iszero\n      mul\n      swap1\n      mload(0x40)\n      0x00\n      mload(0x40)\n      dup1\n      dup4\n      sub\n      dup2\n      dup6\n      dup9\n      dup9\n      call\n      swap4\n      pop\n      pop\n      pop\n      pop\n      iszero\n      dup1\n      iszero\n      tag_214\n      jumpi\n      returndatasize\n      0x00\n      dup1\n      returndatacopy\n      revert(0x00, returndatasize)\n    tag_214:\n      pop\n        /* \"contracts/BlastFurnace_flattened.sol\":13802:14173  {... */\n      pop\n      pop\n      pop\n        /* \"contracts/BlastFurnace_flattened.sol\":13775:14173  function sellOres() public {... */\n      jump\t// out\n        /* \"contracts/BlastFurnace_flattened.sol\":9735:9843  function setBlastClaimInterval(uint256 interval) external onlyOwner {... */\n    tag_112:\n        /* \"contracts/BlastFurnace_flattened.sol\":8138:8147  isOwner() */\n      tag_216\n        /* \"contracts/BlastFurnace_flattened.sol\":8138:8145  isOwner */\n      tag_98\n        /* \"contracts/BlastFurnace_flattened.sol\":8138:8147  isOwner() */\n      jump\t// in\n    tag_216:\n        /* \"contracts/BlastFurnace_flattened.sol\":8130:8148  require(isOwner()) */\n      tag_217\n      jumpi\n      0x00\n      dup1\n      revert\n    tag_217:\n        /* \"contracts/BlastFurnace_flattened.sol\":9830:9838  interval */\n      dup1\n        /* \"contracts/BlastFurnace_flattened.sol\":9808:9827  _blastClaimInterval */\n      0x03\n        /* \"contracts/BlastFurnace_flattened.sol\":9808:9838  _blastClaimInterval = interval */\n      dup2\n      swap1\n      sstore\n      pop\n        /* \"contracts/BlastFurnace_flattened.sol\":9735:9843  function setBlastClaimInterval(uint256 interval) external onlyOwner {... */\n      pop\n      jump\t// out\n        /* \"contracts/BlastFurnace_flattened.sol\":9504:9730  function setupBlast(address blastAddr) external onlyOwner {... */\n    tag_116:\n        /* \"contracts/BlastFurnace_flattened.sol\":8138:8147  isOwner() */\n      tag_220\n        /* \"contracts/BlastFurnace_flattened.sol\":8138:8145  isOwner */\n      tag_98\n        /* \"contracts/BlastFurnace_flattened.sol\":8138:8147  isOwner() */\n      jump\t// in\n    tag_220:\n        /* \"contracts/BlastFurnace_flattened.sol\":8130:8148  require(isOwner()) */\n      tag_221\n      jumpi\n      0x00\n      dup1\n      revert\n    tag_221:\n        /* \"contracts/BlastFurnace_flattened.sol\":9592:9593  0 */\n      0x00\n        /* \"contracts/BlastFurnace_flattened.sol\":9571:9594  blastAddr == address(0) */\n      0xffffffffffffffffffffffffffffffffffffffff\n      and\n        /* \"contracts/BlastFurnace_flattened.sol\":9571:9580  blastAddr */\n      dup2\n        /* \"contracts/BlastFurnace_flattened.sol\":9571:9594  blastAddr == address(0) */\n      0xffffffffffffffffffffffffffffffffffffffff\n      and\n      sub\n        /* \"contracts/BlastFurnace_flattened.sol\":9567:9662  if (blastAddr == address(0)) {... */\n      tag_223\n      jumpi\n        /* \"contracts/BlastFurnace_flattened.sol\":9614:9656  0x4300000000000000000000000000000000000002 */\n      0x4300000000000000000000000000000000000002\n        /* \"contracts/BlastFurnace_flattened.sol\":9602:9656  blastAddr = 0x4300000000000000000000000000000000000002 */\n      swap1\n      pop\n        /* \"contracts/BlastFurnace_flattened.sol\":9567:9662  if (blastAddr == address(0)) {... */\n    tag_223:\n        /* \"contracts/BlastFurnace_flattened.sol\":9681:9690  blastAddr */\n      dup1\n        /* \"contracts/BlastFurnace_flattened.sol\":9666:9671  BLAST */\n      0x01\n      0x00\n        /* \"contracts/BlastFurnace_flattened.sol\":9666:9691  BLAST = IBlast(blastAddr) */\n      0x0100\n      exp\n      dup2\n      sload\n      dup2\n      0xffffffffffffffffffffffffffffffffffffffff\n      mul\n      not\n      and\n      swap1\n      dup4\n      0xffffffffffffffffffffffffffffffffffffffff\n      and\n      mul\n      or\n      swap1\n      sstore\n      pop\n        /* \"contracts/BlastFurnace_flattened.sol\":9696:9701  BLAST */\n      0x01\n      0x00\n      swap1\n      sload\n      swap1\n      0x0100\n      exp\n      swap1\n      div\n      0xffffffffffffffffffffffffffffffffffffffff\n      and\n        /* \"contracts/BlastFurnace_flattened.sol\":9696:9723  BLAST.configureClaimableGas */\n      0xffffffffffffffffffffffffffffffffffffffff\n      and\n      0x4e606c47\n        /* \"contracts/BlastFurnace_flattened.sol\":9696:9725  BLAST.configureClaimableGas() */\n      mload(0x40)\n      dup2\n      0xffffffff\n      and\n      0xe0\n      shl\n      dup2\n      mstore\n      0x04\n      add\n      0x00\n      mload(0x40)\n      dup1\n      dup4\n      sub\n      dup2\n      0x00\n      dup8\n      dup1\n      extcodesize\n      iszero\n      dup1\n      iszero\n      tag_224\n      jumpi\n      0x00\n      dup1\n      revert\n    tag_224:\n      pop\n      gas\n      call\n      iszero\n      dup1\n      iszero\n      tag_226\n      jumpi\n      returndatasize\n      0x00\n      dup1\n      returndatacopy\n      revert(0x00, returndatasize)\n    tag_226:\n      pop\n      pop\n      pop\n      pop\n        /* \"contracts/BlastFurnace_flattened.sol\":9504:9730  function setupBlast(address blastAddr) external onlyOwner {... */\n      pop\n      jump\t// out\n        /* \"contracts/BlastFurnace_flattened.sol\":8368:8468  function transferOwnership(address newOwner) public onlyOwner {... */\n    tag_120:\n        /* \"contracts/BlastFurnace_flattened.sol\":8138:8147  isOwner() */\n      tag_228\n        /* \"contracts/BlastFurnace_flattened.sol\":8138:8145  isOwner */\n      tag_98\n        /* \"contracts/BlastFurnace_flattened.sol\":8138:8147  isOwner() */\n      jump\t// in\n    tag_228:\n        /* \"contracts/BlastFurnace_flattened.sol\":8130:8148  require(isOwner()) */\n      tag_229\n      jumpi\n      0x00\n      dup1\n      revert\n    tag_229:\n        /* \"contracts/BlastFurnace_flattened.sol\":8435:8463  _transferOwnership(newOwner) */\n      tag_231\n        /* \"contracts/BlastFurnace_flattened.sol\":8454:8462  newOwner */\n      dup2\n        /* \"contracts/BlastFurnace_flattened.sol\":8435:8453  _transferOwnership */\n      tag_232\n        /* \"contracts/BlastFurnace_flattened.sol\":8435:8463  _transferOwnership(newOwner) */\n      jump\t// in\n    tag_231:\n        /* \"contracts/BlastFurnace_flattened.sol\":8368:8468  function transferOwnership(address newOwner) public onlyOwner {... */\n      pop\n      jump\t// out\n        /* \"contracts/BlastFurnace_flattened.sol\":12770:12873  function ingotBalanceOf(address who) public view returns (uint256) {... */\n    tag_124:\n        /* \"contracts/BlastFurnace_flattened.sol\":12828:12835  uint256 */\n      0x00\n        /* \"contracts/BlastFurnace_flattened.sol\":12849:12863  _ingotBalances */\n      0x0f\n        /* \"contracts/BlastFurnace_flattened.sol\":12849:12868  _ingotBalances[who] */\n      0x00\n        /* \"contracts/BlastFurnace_flattened.sol\":12864:12867  who */\n      dup4\n        /* \"contracts/BlastFurnace_flattened.sol\":12849:12868  _ingotBalances[who] */\n      0xffffffffffffffffffffffffffffffffffffffff\n      and\n      0xffffffffffffffffffffffffffffffffffffffff\n      and\n      dup2\n      mstore\n      0x20\n      add\n      swap1\n      dup2\n      mstore\n      0x20\n      add\n      0x00\n      keccak256\n      sload\n        /* \"contracts/BlastFurnace_flattened.sol\":12842:12868  return _ingotBalances[who] */\n      swap1\n      pop\n        /* \"contracts/BlastFurnace_flattened.sol\":12770:12873  function ingotBalanceOf(address who) public view returns (uint256) {... */\n      swap2\n      swap1\n      pop\n      jump\t// out\n        /* \"contracts/BlastFurnace_flattened.sol\":3724:3813  function add(uint256 a, uint256 b) internal pure returns (uint256) {... */\n    tag_130:\n        /* \"contracts/BlastFurnace_flattened.sol\":3782:3789  uint256 */\n      0x00\n        /* \"contracts/BlastFurnace_flattened.sol\":3807:3808  b */\n      dup2\n        /* \"contracts/BlastFurnace_flattened.sol\":3803:3804  a */\n      dup4\n        /* \"contracts/BlastFurnace_flattened.sol\":3803:3808  a + b */\n      tag_235\n      swap2\n      swap1\n      tag_133\n      jump\t// in\n    tag_235:\n        /* \"contracts/BlastFurnace_flattened.sol\":3796:3808  return a + b */\n      swap1\n      pop\n        /* \"contracts/BlastFurnace_flattened.sol\":3724:3813  function add(uint256 a, uint256 b) internal pure returns (uint256) {... */\n      swap3\n      swap2\n      pop\n      pop\n      jump\t// out\n        /* \"contracts/BlastFurnace_flattened.sol\":17561:17662  function blastFeesClaimed(uint256 value) internal virtual override {... */\n    tag_144:\n        /* \"contracts/BlastFurnace_flattened.sol\":17633:17657  _distributeNative(value) */\n      tag_237\n        /* \"contracts/BlastFurnace_flattened.sol\":17651:17656  value */\n      dup2\n        /* \"contracts/BlastFurnace_flattened.sol\":17633:17650  _distributeNative */\n      tag_238\n        /* \"contracts/BlastFurnace_flattened.sol\":17633:17657  _distributeNative(value) */\n      jump\t// in\n    tag_237:\n        /* \"contracts/BlastFurnace_flattened.sol\":17561:17662  function blastFeesClaimed(uint256 value) internal virtual override {... */\n      pop\n      jump\t// out\n        /* \"contracts/BlastFurnace_flattened.sol\":14816:15058  function calculateTrade(uint256 rt, uint256 rs, uint256 bs) private view returns (uint256) {... */\n    tag_152:\n        /* \"contracts/BlastFurnace_flattened.sol\":14898:14905  uint256 */\n      0x00\n        /* \"contracts/BlastFurnace_flattened.sol\":14919:15053  SafeMath.div(SafeMath.mul(PSN, bs), SafeMath.add(PSNH, SafeMath.div(SafeMath.add(SafeMath.mul(PSN, rs), SafeMath.mul(PSNH, rt)), rt))) */\n      tag_240\n        /* \"contracts/BlastFurnace_flattened.sol\":14932:14953  SafeMath.mul(PSN, bs) */\n      tag_241\n        /* \"contracts/BlastFurnace_flattened.sol\":14945:14948  PSN */\n      sload(0x06)\n        /* \"contracts/BlastFurnace_flattened.sol\":14950:14952  bs */\n      dup5\n        /* \"contracts/BlastFurnace_flattened.sol\":14932:14944  SafeMath.mul */\n      tag_168\n        /* \"contracts/BlastFurnace_flattened.sol\":14932:14953  SafeMath.mul(PSN, bs) */\n      jump\t// in\n    tag_241:\n        /* \"contracts/BlastFurnace_flattened.sol\":14955:15052  SafeMath.add(PSNH, SafeMath.div(SafeMath.add(SafeMath.mul(PSN, rs), SafeMath.mul(PSNH, rt)), rt)) */\n      tag_242\n        /* \"contracts/BlastFurnace_flattened.sol\":14968:14972  PSNH */\n      sload(0x07)\n        /* \"contracts/BlastFurnace_flattened.sol\":14974:15051  SafeMath.div(SafeMath.add(SafeMath.mul(PSN, rs), SafeMath.mul(PSNH, rt)), rt) */\n      tag_243\n        /* \"contracts/BlastFurnace_flattened.sol\":14987:15046  SafeMath.add(SafeMath.mul(PSN, rs), SafeMath.mul(PSNH, rt)) */\n      tag_244\n        /* \"contracts/BlastFurnace_flattened.sol\":15000:15021  SafeMath.mul(PSN, rs) */\n      tag_245\n        /* \"contracts/BlastFurnace_flattened.sol\":15013:15016  PSN */\n      sload(0x06)\n        /* \"contracts/BlastFurnace_flattened.sol\":15018:15020  rs */\n      dup11\n        /* \"contracts/BlastFurnace_flattened.sol\":15000:15012  SafeMath.mul */\n      tag_168\n        /* \"contracts/BlastFurnace_flattened.sol\":15000:15021  SafeMath.mul(PSN, rs) */\n      jump\t// in\n    tag_245:\n        /* \"contracts/BlastFurnace_flattened.sol\":15023:15045  SafeMath.mul(PSNH, rt) */\n      tag_246\n        /* \"contracts/BlastFurnace_flattened.sol\":15036:15040  PSNH */\n      sload(0x07)\n        /* \"contracts/BlastFurnace_flattened.sol\":15042:15044  rt */\n      dup13\n        /* \"contracts/BlastFurnace_flattened.sol\":15023:15035  SafeMath.mul */\n      tag_168\n        /* \"contracts/BlastFurnace_flattened.sol\":15023:15045  SafeMath.mul(PSNH, rt) */\n      jump\t// in\n    tag_246:\n        /* \"contracts/BlastFurnace_flattened.sol\":14987:14999  SafeMath.add */\n      tag_130\n        /* \"contracts/BlastFurnace_flattened.sol\":14987:15046  SafeMath.add(SafeMath.mul(PSN, rs), SafeMath.mul(PSNH, rt)) */\n      jump\t// in\n    tag_244:\n        /* \"contracts/BlastFurnace_flattened.sol\":15048:15050  rt */\n      dup10\n        /* \"contracts/BlastFurnace_flattened.sol\":14974:14986  SafeMath.div */\n      tag_170\n        /* \"contracts/BlastFurnace_flattened.sol\":14974:15051  SafeMath.div(SafeMath.add(SafeMath.mul(PSN, rs), SafeMath.mul(PSNH, rt)), rt) */\n      jump\t// in\n    tag_243:\n        /* \"contracts/BlastFurnace_flattened.sol\":14955:14967  SafeMath.add */\n      tag_130\n        /* \"contracts/BlastFurnace_flattened.sol\":14955:15052  SafeMath.add(PSNH, SafeMath.div(SafeMath.add(SafeMath.mul(PSN, rs), SafeMath.mul(PSNH, rt)), rt)) */\n      jump\t// in\n    tag_242:\n        /* \"contracts/BlastFurnace_flattened.sol\":14919:14931  SafeMath.div */\n      tag_170\n        /* \"contracts/BlastFurnace_flattened.sol\":14919:15053  SafeMath.div(SafeMath.mul(PSN, bs), SafeMath.add(PSNH, SafeMath.div(SafeMath.add(SafeMath.mul(PSN, rs), SafeMath.mul(PSNH, rt)), rt))) */\n      jump\t// in\n    tag_240:\n        /* \"contracts/BlastFurnace_flattened.sol\":14912:15053  return SafeMath.div(SafeMath.mul(PSN, bs), SafeMath.add(PSNH, SafeMath.div(SafeMath.add(SafeMath.mul(PSN, rs), SafeMath.mul(PSNH, rt)), rt))) */\n      swap1\n      pop\n        /* \"contracts/BlastFurnace_flattened.sol\":14816:15058  function calculateTrade(uint256 rt, uint256 rs, uint256 bs) private view returns (uint256) {... */\n      swap4\n      swap3\n      pop\n      pop\n      pop\n      jump\t// out\n        /* \"contracts/BlastFurnace_flattened.sol\":4063:4152  function sub(uint256 a, uint256 b) internal pure returns (uint256) {... */\n    tag_164:\n        /* \"contracts/BlastFurnace_flattened.sol\":4121:4128  uint256 */\n      0x00\n        /* \"contracts/BlastFurnace_flattened.sol\":4146:4147  b */\n      dup2\n        /* \"contracts/BlastFurnace_flattened.sol\":4142:4143  a */\n      dup4\n        /* \"contracts/BlastFurnace_flattened.sol\":4142:4147  a - b */\n      tag_248\n      swap2\n      swap1\n      tag_249\n      jump\t// in\n    tag_248:\n        /* \"contracts/BlastFurnace_flattened.sol\":4135:4147  return a - b */\n      swap1\n      pop\n        /* \"contracts/BlastFurnace_flattened.sol\":4063:4152  function sub(uint256 a, uint256 b) internal pure returns (uint256) {... */\n      swap3\n      swap2\n      pop\n      pop\n      jump\t// out\n        /* \"contracts/BlastFurnace_flattened.sol\":16594:16690  function min(uint256 a, uint256 b) private pure returns (uint256) {... */\n    tag_165:\n        /* \"contracts/BlastFurnace_flattened.sol\":16651:16658  uint256 */\n      0x00\n        /* \"contracts/BlastFurnace_flattened.sol\":16676:16677  b */\n      dup2\n        /* \"contracts/BlastFurnace_flattened.sol\":16672:16673  a */\n      dup4\n        /* \"contracts/BlastFurnace_flattened.sol\":16672:16677  a < b */\n      lt\n        /* \"contracts/BlastFurnace_flattened.sol\":16672:16685  a < b ? a : b */\n      tag_251\n      jumpi\n        /* \"contracts/BlastFurnace_flattened.sol\":16684:16685  b */\n      dup2\n        /* \"contracts/BlastFurnace_flattened.sol\":16672:16685  a < b ? a : b */\n      jump(tag_252)\n    tag_251:\n        /* \"contracts/BlastFurnace_flattened.sol\":16680:16681  a */\n      dup3\n        /* \"contracts/BlastFurnace_flattened.sol\":16672:16685  a < b ? a : b */\n    tag_252:\n        /* \"contracts/BlastFurnace_flattened.sol\":16665:16685  return a < b ? a : b */\n      swap1\n      pop\n        /* \"contracts/BlastFurnace_flattened.sol\":16594:16690  function min(uint256 a, uint256 b) private pure returns (uint256) {... */\n      swap3\n      swap2\n      pop\n      pop\n      jump\t// out\n        /* \"contracts/BlastFurnace_flattened.sol\":4378:4467  function mul(uint256 a, uint256 b) internal pure returns (uint256) {... */\n    tag_168:\n        /* \"contracts/BlastFurnace_flattened.sol\":4436:4443  uint256 */\n      0x00\n        /* \"contracts/BlastFurnace_flattened.sol\":4461:4462  b */\n      dup2\n        /* \"contracts/BlastFurnace_flattened.sol\":4457:4458  a */\n      dup4\n        /* \"contracts/BlastFurnace_flattened.sol\":4457:4462  a * b */\n      tag_254\n      swap2\n      swap1\n      tag_255\n      jump\t// in\n    tag_254:\n        /* \"contracts/BlastFurnace_flattened.sol\":4450:4462  return a * b */\n      swap1\n      pop\n        /* \"contracts/BlastFurnace_flattened.sol\":4378:4467  function mul(uint256 a, uint256 b) internal pure returns (uint256) {... */\n      swap3\n      swap2\n      pop\n      pop\n      jump\t// out\n        /* \"contracts/BlastFurnace_flattened.sol\":4735:4824  function div(uint256 a, uint256 b) internal pure returns (uint256) {... */\n    tag_170:\n        /* \"contracts/BlastFurnace_flattened.sol\":4793:4800  uint256 */\n      0x00\n        /* \"contracts/BlastFurnace_flattened.sol\":4818:4819  b */\n      dup2\n        /* \"contracts/BlastFurnace_flattened.sol\":4814:4815  a */\n      dup4\n        /* \"contracts/BlastFurnace_flattened.sol\":4814:4819  a / b */\n      tag_257\n      swap2\n      swap1\n      tag_258\n      jump\t// in\n    tag_257:\n        /* \"contracts/BlastFurnace_flattened.sol\":4807:4819  return a / b */\n      swap1\n      pop\n        /* \"contracts/BlastFurnace_flattened.sol\":4735:4824  function div(uint256 a, uint256 b) internal pure returns (uint256) {... */\n      swap3\n      swap2\n      pop\n      pop\n      jump\t// out\n        /* \"contracts/BlastFurnace_flattened.sol\":15512:15642  function devFee(uint256 amount) private view returns (uint256) {... */\n    tag_189:\n        /* \"contracts/BlastFurnace_flattened.sol\":15566:15573  uint256 */\n      0x00\n        /* \"contracts/BlastFurnace_flattened.sol\":15587:15637  SafeMath.div(SafeMath.mul(amount, devFeeVal), 100) */\n      tag_260\n        /* \"contracts/BlastFurnace_flattened.sol\":15600:15631  SafeMath.mul(amount, devFeeVal) */\n      tag_261\n        /* \"contracts/BlastFurnace_flattened.sol\":15613:15619  amount */\n      dup4\n        /* \"contracts/BlastFurnace_flattened.sol\":15621:15630  devFeeVal */\n      sload(0x08)\n        /* \"contracts/BlastFurnace_flattened.sol\":15600:15612  SafeMath.mul */\n      tag_168\n        /* \"contracts/BlastFurnace_flattened.sol\":15600:15631  SafeMath.mul(amount, devFeeVal) */\n      jump\t// in\n    tag_261:\n        /* \"contracts/BlastFurnace_flattened.sol\":15633:15636  100 */\n      0x64\n        /* \"contracts/BlastFurnace_flattened.sol\":15587:15599  SafeMath.div */\n      tag_170\n        /* \"contracts/BlastFurnace_flattened.sol\":15587:15637  SafeMath.div(SafeMath.mul(amount, devFeeVal), 100) */\n      jump\t// in\n    tag_260:\n        /* \"contracts/BlastFurnace_flattened.sol\":15580:15637  return SafeMath.div(SafeMath.mul(amount, devFeeVal), 100) */\n      swap1\n      pop\n        /* \"contracts/BlastFurnace_flattened.sol\":15512:15642  function devFee(uint256 amount) private view returns (uint256) {... */\n      swap2\n      swap1\n      pop\n      jump\t// out\n        /* \"contracts/BlastFurnace_flattened.sol\":17667:17782  function _addClaimed(address addr, uint256 value) private {... */\n    tag_194:\n        /* \"contracts/BlastFurnace_flattened.sol\":17730:17777  _setClaimed(addr, claimedOres[addr].add(value)) */\n      tag_263\n        /* \"contracts/BlastFurnace_flattened.sol\":17742:17746  addr */\n      dup3\n        /* \"contracts/BlastFurnace_flattened.sol\":17748:17776  claimedOres[addr].add(value) */\n      tag_264\n        /* \"contracts/BlastFurnace_flattened.sol\":17770:17775  value */\n      dup4\n        /* \"contracts/BlastFurnace_flattened.sol\":17748:17759  claimedOres */\n      0x0b\n        /* \"contracts/BlastFurnace_flattened.sol\":17748:17765  claimedOres[addr] */\n      0x00\n        /* \"contracts/BlastFurnace_flattened.sol\":17760:17764  addr */\n      dup8\n        /* \"contracts/BlastFurnace_flattened.sol\":17748:17765  claimedOres[addr] */\n      0xffffffffffffffffffffffffffffffffffffffff\n      and\n      0xffffffffffffffffffffffffffffffffffffffff\n      and\n      dup2\n      mstore\n      0x20\n      add\n      swap1\n      dup2\n      mstore\n      0x20\n      add\n      0x00\n      keccak256\n      sload\n        /* \"contracts/BlastFurnace_flattened.sol\":17748:17769  claimedOres[addr].add */\n      tag_130\n      swap1\n        /* \"contracts/BlastFurnace_flattened.sol\":17748:17776  claimedOres[addr].add(value) */\n      swap2\n      swap1\n      0xffffffff\n      and\n      jump\t// in\n    tag_264:\n        /* \"contracts/BlastFurnace_flattened.sol\":17730:17741  _setClaimed */\n      tag_208\n        /* \"contracts/BlastFurnace_flattened.sol\":17730:17777  _setClaimed(addr, claimedOres[addr].add(value)) */\n      jump\t// in\n    tag_263:\n        /* \"contracts/BlastFurnace_flattened.sol\":17667:17782  function _addClaimed(address addr, uint256 value) private {... */\n      pop\n      pop\n      jump\t// out\n        /* \"contracts/BlastFurnace_flattened.sol\":12878:13770  function _hatchOres(address ref, uint256 amount) private {... */\n    tag_196:\n        /* \"contracts/BlastFurnace_flattened.sol\":12948:12959  initialized */\n      0x09\n      0x00\n      swap1\n      sload\n      swap1\n      0x0100\n      exp\n      swap1\n      div\n      0xff\n      and\n        /* \"contracts/BlastFurnace_flattened.sol\":12940:12960  require(initialized) */\n      tag_266\n      jumpi\n      0x00\n      dup1\n      revert\n    tag_266:\n        /* \"contracts/BlastFurnace_flattened.sol\":12978:12988  msg.sender */\n      caller\n        /* \"contracts/BlastFurnace_flattened.sol\":12971:12988  ref == msg.sender */\n      0xffffffffffffffffffffffffffffffffffffffff\n      and\n        /* \"contracts/BlastFurnace_flattened.sol\":12971:12974  ref */\n      dup3\n        /* \"contracts/BlastFurnace_flattened.sol\":12971:12988  ref == msg.sender */\n      0xffffffffffffffffffffffffffffffffffffffff\n      and\n      sub\n        /* \"contracts/BlastFurnace_flattened.sol\":12967:13018  if (ref == msg.sender) {... */\n      tag_267\n      jumpi\n        /* \"contracts/BlastFurnace_flattened.sol\":13010:13011  0 */\n      0x00\n        /* \"contracts/BlastFurnace_flattened.sol\":12996:13012  ref = address(0) */\n      swap2\n      pop\n        /* \"contracts/BlastFurnace_flattened.sol\":12967:13018  if (ref == msg.sender) {... */\n    tag_267:\n        /* \"contracts/BlastFurnace_flattened.sol\":13061:13062  0 */\n      0x00\n        /* \"contracts/BlastFurnace_flattened.sol\":13028:13063  referrals[msg.sender] == address(0) */\n      0xffffffffffffffffffffffffffffffffffffffff\n      and\n        /* \"contracts/BlastFurnace_flattened.sol\":13028:13037  referrals */\n      0x0d\n        /* \"contracts/BlastFurnace_flattened.sol\":13028:13049  referrals[msg.sender] */\n      0x00\n        /* \"contracts/BlastFurnace_flattened.sol\":13038:13048  msg.sender */\n      caller\n        /* \"contracts/BlastFurnace_flattened.sol\":13028:13049  referrals[msg.sender] */\n      0xffffffffffffffffffffffffffffffffffffffff\n      and\n      0xffffffffffffffffffffffffffffffffffffffff\n      and\n      dup2\n      mstore\n      0x20\n      add\n      swap1\n      dup2\n      mstore\n      0x20\n      add\n      0x00\n      keccak256\n      0x00\n      swap1\n      sload\n      swap1\n      0x0100\n      exp\n      swap1\n      div\n      0xffffffffffffffffffffffffffffffffffffffff\n      and\n        /* \"contracts/BlastFurnace_flattened.sol\":13028:13063  referrals[msg.sender] == address(0) */\n      0xffffffffffffffffffffffffffffffffffffffff\n      and\n      eq\n        /* \"contracts/BlastFurnace_flattened.sol\":13028:13102  referrals[msg.sender] == address(0) && referrals[msg.sender] != msg.sender */\n      dup1\n      iszero\n      tag_268\n      jumpi\n      pop\n        /* \"contracts/BlastFurnace_flattened.sol\":13092:13102  msg.sender */\n      caller\n        /* \"contracts/BlastFurnace_flattened.sol\":13067:13102  referrals[msg.sender] != msg.sender */\n      0xffffffffffffffffffffffffffffffffffffffff\n      and\n        /* \"contracts/BlastFurnace_flattened.sol\":13067:13076  referrals */\n      0x0d\n        /* \"contracts/BlastFurnace_flattened.sol\":13067:13088  referrals[msg.sender] */\n      0x00\n        /* \"contracts/BlastFurnace_flattened.sol\":13077:13087  msg.sender */\n      caller\n        /* \"contracts/BlastFurnace_flattened.sol\":13067:13088  referrals[msg.sender] */\n      0xffffffffffffffffffffffffffffffffffffffff\n      and\n      0xffffffffffffffffffffffffffffffffffffffff\n      and\n      dup2\n      mstore\n      0x20\n      add\n      swap1\n      dup2\n      mstore\n      0x20\n      add\n      0x00\n      keccak256\n      0x00\n      swap1\n      sload\n      swap1\n      0x0100\n      exp\n      swap1\n      div\n      0xffffffffffffffffffffffffffffffffffffffff\n      and\n        /* \"contracts/BlastFurnace_flattened.sol\":13067:13102  referrals[msg.sender] != msg.sender */\n      0xffffffffffffffffffffffffffffffffffffffff\n      and\n      eq\n      iszero\n        /* \"contracts/BlastFurnace_flattened.sol\":13028:13102  referrals[msg.sender] == address(0) && referrals[msg.sender] != msg.sender */\n    tag_268:\n        /* \"contracts/BlastFurnace_flattened.sol\":13024:13297  if (referrals[msg.sender] == address(0) && referrals[msg.sender] != msg.sender) {... */\n      iszero\n      tag_269\n      jumpi\n        /* \"contracts/BlastFurnace_flattened.sol\":13134:13137  ref */\n      dup2\n        /* \"contracts/BlastFurnace_flattened.sol\":13110:13119  referrals */\n      0x0d\n        /* \"contracts/BlastFurnace_flattened.sol\":13110:13131  referrals[msg.sender] */\n      0x00\n        /* \"contracts/BlastFurnace_flattened.sol\":13120:13130  msg.sender */\n      caller\n        /* \"contracts/BlastFurnace_flattened.sol\":13110:13131  referrals[msg.sender] */\n      0xffffffffffffffffffffffffffffffffffffffff\n      and\n      0xffffffffffffffffffffffffffffffffffffffff\n      and\n      dup2\n      mstore\n      0x20\n      add\n      swap1\n      dup2\n      mstore\n      0x20\n      add\n      0x00\n      keccak256\n      0x00\n        /* \"contracts/BlastFurnace_flattened.sol\":13110:13137  referrals[msg.sender] = ref */\n      0x0100\n      exp\n      dup2\n      sload\n      dup2\n      0xffffffffffffffffffffffffffffffffffffffff\n      mul\n      not\n      and\n      swap1\n      dup4\n      0xffffffffffffffffffffffffffffffffffffffff\n      and\n      mul\n      or\n      swap1\n      sstore\n      pop\n        /* \"contracts/BlastFurnace_flattened.sol\":13159:13163  1e18 */\n      0x0de0b6b3a7640000\n        /* \"contracts/BlastFurnace_flattened.sol\":13149:13155  amount */\n      dup2\n        /* \"contracts/BlastFurnace_flattened.sol\":13149:13163  amount >= 1e18 */\n      lt\n        /* \"contracts/BlastFurnace_flattened.sol\":13145:13292  if (amount >= 1e18) {... */\n      tag_270\n      jumpi\n        /* \"contracts/BlastFurnace_flattened.sol\":13172:13205  _addIngots(ref, BIG_INGOT_REWARD) */\n      tag_271\n        /* \"contracts/BlastFurnace_flattened.sol\":13183:13186  ref */\n      dup3\n        /* \"contracts/BlastFurnace_flattened.sol\":11882:11885  200 */\n      0xc8\n        /* \"contracts/BlastFurnace_flattened.sol\":13172:13182  _addIngots */\n      tag_199\n        /* \"contracts/BlastFurnace_flattened.sol\":13172:13205  _addIngots(ref, BIG_INGOT_REWARD) */\n      jump\t// in\n    tag_271:\n        /* \"contracts/BlastFurnace_flattened.sol\":13145:13292  if (amount >= 1e18) {... */\n      jump(tag_272)\n    tag_270:\n        /* \"contracts/BlastFurnace_flattened.sol\":13232:13237  .1e18 */\n      0x016345785d8a0000\n        /* \"contracts/BlastFurnace_flattened.sol\":13222:13228  amount */\n      dup2\n        /* \"contracts/BlastFurnace_flattened.sol\":13222:13237  amount >= .1e18 */\n      lt\n        /* \"contracts/BlastFurnace_flattened.sol\":13218:13292  if (amount >= .1e18) {... */\n      tag_273\n      jumpi\n        /* \"contracts/BlastFurnace_flattened.sol\":13246:13285  _addIngots(ref, SMALL_REF_INGOT_REWARD) */\n      tag_274\n        /* \"contracts/BlastFurnace_flattened.sol\":13257:13260  ref */\n      dup3\n        /* \"contracts/BlastFurnace_flattened.sol\":11939:11941  40 */\n      0x28\n        /* \"contracts/BlastFurnace_flattened.sol\":13246:13256  _addIngots */\n      tag_199\n        /* \"contracts/BlastFurnace_flattened.sol\":13246:13285  _addIngots(ref, SMALL_REF_INGOT_REWARD) */\n      jump\t// in\n    tag_274:\n        /* \"contracts/BlastFurnace_flattened.sol\":13218:13292  if (amount >= .1e18) {... */\n    tag_273:\n        /* \"contracts/BlastFurnace_flattened.sol\":13145:13292  if (amount >= 1e18) {... */\n    tag_272:\n        /* \"contracts/BlastFurnace_flattened.sol\":13024:13297  if (referrals[msg.sender] == address(0) && referrals[msg.sender] != msg.sender) {... */\n    tag_269:\n        /* \"contracts/BlastFurnace_flattened.sol\":13303:13319  uint256 oresUsed */\n      0x00\n        /* \"contracts/BlastFurnace_flattened.sol\":13322:13343  getMyOres(msg.sender) */\n      tag_275\n        /* \"contracts/BlastFurnace_flattened.sol\":13332:13342  msg.sender */\n      caller\n        /* \"contracts/BlastFurnace_flattened.sol\":13322:13331  getMyOres */\n      tag_36\n        /* \"contracts/BlastFurnace_flattened.sol\":13322:13343  getMyOres(msg.sender) */\n      jump\t// in\n    tag_275:\n        /* \"contracts/BlastFurnace_flattened.sol\":13303:13343  uint256 oresUsed = getMyOres(msg.sender) */\n      swap1\n      pop\n        /* \"contracts/BlastFurnace_flattened.sol\":13348:13365  uint256 newMiners */\n      0x00\n        /* \"contracts/BlastFurnace_flattened.sol\":13368:13413  SafeMath.div(oresUsed, ORES_TO_HATCH_1MINERS) */\n      tag_276\n        /* \"contracts/BlastFurnace_flattened.sol\":13381:13389  oresUsed */\n      dup3\n        /* \"contracts/BlastFurnace_flattened.sol\":13391:13412  ORES_TO_HATCH_1MINERS */\n      sload(0x05)\n        /* \"contracts/BlastFurnace_flattened.sol\":13368:13380  SafeMath.div */\n      tag_170\n        /* \"contracts/BlastFurnace_flattened.sol\":13368:13413  SafeMath.div(oresUsed, ORES_TO_HATCH_1MINERS) */\n      jump\t// in\n    tag_276:\n        /* \"contracts/BlastFurnace_flattened.sol\":13348:13413  uint256 newMiners = SafeMath.div(oresUsed, ORES_TO_HATCH_1MINERS) */\n      swap1\n      pop\n        /* \"contracts/BlastFurnace_flattened.sol\":13447:13498  SafeMath.add(hatcheryMiners[msg.sender], newMiners) */\n      tag_277\n        /* \"contracts/BlastFurnace_flattened.sol\":13460:13474  hatcheryMiners */\n      0x0a\n        /* \"contracts/BlastFurnace_flattened.sol\":13460:13486  hatcheryMiners[msg.sender] */\n      0x00\n        /* \"contracts/BlastFurnace_flattened.sol\":13475:13485  msg.sender */\n      caller\n        /* \"contracts/BlastFurnace_flattened.sol\":13460:13486  hatcheryMiners[msg.sender] */\n      0xffffffffffffffffffffffffffffffffffffffff\n      and\n      0xffffffffffffffffffffffffffffffffffffffff\n      and\n      dup2\n      mstore\n      0x20\n      add\n      swap1\n      dup2\n      mstore\n      0x20\n      add\n      0x00\n      keccak256\n      sload\n        /* \"contracts/BlastFurnace_flattened.sol\":13488:13497  newMiners */\n      dup3\n        /* \"contracts/BlastFurnace_flattened.sol\":13447:13459  SafeMath.add */\n      tag_130\n        /* \"contracts/BlastFurnace_flattened.sol\":13447:13498  SafeMath.add(hatcheryMiners[msg.sender], newMiners) */\n      jump\t// in\n    tag_277:\n        /* \"contracts/BlastFurnace_flattened.sol\":13418:13432  hatcheryMiners */\n      0x0a\n        /* \"contracts/BlastFurnace_flattened.sol\":13418:13444  hatcheryMiners[msg.sender] */\n      0x00\n        /* \"contracts/BlastFurnace_flattened.sol\":13433:13443  msg.sender */\n      caller\n        /* \"contracts/BlastFurnace_flattened.sol\":13418:13444  hatcheryMiners[msg.sender] */\n      0xffffffffffffffffffffffffffffffffffffffff\n      and\n      0xffffffffffffffffffffffffffffffffffffffff\n      and\n      dup2\n      mstore\n      0x20\n      add\n      swap1\n      dup2\n      mstore\n      0x20\n      add\n      0x00\n      keccak256\n        /* \"contracts/BlastFurnace_flattened.sol\":13418:13498  hatcheryMiners[msg.sender] = SafeMath.add(hatcheryMiners[msg.sender], newMiners) */\n      dup2\n      swap1\n      sstore\n      pop\n        /* \"contracts/BlastFurnace_flattened.sol\":13503:13529  _setClaimed(msg.sender, 0) */\n      tag_278\n        /* \"contracts/BlastFurnace_flattened.sol\":13515:13525  msg.sender */\n      caller\n        /* \"contracts/BlastFurnace_flattened.sol\":13527:13528  0 */\n      0x00\n        /* \"contracts/BlastFurnace_flattened.sol\":13503:13514  _setClaimed */\n      tag_208\n        /* \"contracts/BlastFurnace_flattened.sol\":13503:13529  _setClaimed(msg.sender, 0) */\n      jump\t// in\n    tag_278:\n        /* \"contracts/BlastFurnace_flattened.sol\":13558:13573  block.timestamp */\n      timestamp\n        /* \"contracts/BlastFurnace_flattened.sol\":13534:13543  lastHatch */\n      0x0c\n        /* \"contracts/BlastFurnace_flattened.sol\":13534:13555  lastHatch[msg.sender] */\n      0x00\n        /* \"contracts/BlastFurnace_flattened.sol\":13544:13554  msg.sender */\n      caller\n        /* \"contracts/BlastFurnace_flattened.sol\":13534:13555  lastHatch[msg.sender] */\n      0xffffffffffffffffffffffffffffffffffffffff\n      and\n      0xffffffffffffffffffffffffffffffffffffffff\n      and\n      dup2\n      mstore\n      0x20\n      add\n      swap1\n      dup2\n      mstore\n      0x20\n      add\n      0x00\n      keccak256\n        /* \"contracts/BlastFurnace_flattened.sol\":13534:13573  lastHatch[msg.sender] = block.timestamp */\n      dup2\n      swap1\n      sstore\n      pop\n        /* \"contracts/BlastFurnace_flattened.sol\":13604:13652  _rewardReferral(referrals[msg.sender], oresUsed) */\n      tag_279\n        /* \"contracts/BlastFurnace_flattened.sol\":13620:13629  referrals */\n      0x0d\n        /* \"contracts/BlastFurnace_flattened.sol\":13620:13641  referrals[msg.sender] */\n      0x00\n        /* \"contracts/BlastFurnace_flattened.sol\":13630:13640  msg.sender */\n      caller\n        /* \"contracts/BlastFurnace_flattened.sol\":13620:13641  referrals[msg.sender] */\n      0xffffffffffffffffffffffffffffffffffffffff\n      and\n      0xffffffffffffffffffffffffffffffffffffffff\n      and\n      dup2\n      mstore\n      0x20\n      add\n      swap1\n      dup2\n      mstore\n      0x20\n      add\n      0x00\n      keccak256\n      0x00\n      swap1\n      sload\n      swap1\n      0x0100\n      exp\n      swap1\n      div\n      0xffffffffffffffffffffffffffffffffffffffff\n      and\n        /* \"contracts/BlastFurnace_flattened.sol\":13643:13651  oresUsed */\n      dup4\n        /* \"contracts/BlastFurnace_flattened.sol\":13604:13619  _rewardReferral */\n      tag_280\n        /* \"contracts/BlastFurnace_flattened.sol\":13604:13652  _rewardReferral(referrals[msg.sender], oresUsed) */\n      jump\t// in\n    tag_279:\n        /* \"contracts/BlastFurnace_flattened.sol\":13714:13765  SafeMath.add(marketOres, SafeMath.div(oresUsed, 5)) */\n      tag_281\n        /* \"contracts/BlastFurnace_flattened.sol\":13727:13737  marketOres */\n      sload(0x0e)\n        /* \"contracts/BlastFurnace_flattened.sol\":13739:13764  SafeMath.div(oresUsed, 5) */\n      tag_282\n        /* \"contracts/BlastFurnace_flattened.sol\":13752:13760  oresUsed */\n      dup5\n        /* \"contracts/BlastFurnace_flattened.sol\":13762:13763  5 */\n      0x05\n        /* \"contracts/BlastFurnace_flattened.sol\":13739:13751  SafeMath.div */\n      tag_170\n        /* \"contracts/BlastFurnace_flattened.sol\":13739:13764  SafeMath.div(oresUsed, 5) */\n      jump\t// in\n    tag_282:\n        /* \"contracts/BlastFurnace_flattened.sol\":13714:13726  SafeMath.add */\n      tag_130\n        /* \"contracts/BlastFurnace_flattened.sol\":13714:13765  SafeMath.add(marketOres, SafeMath.div(oresUsed, 5)) */\n      jump\t// in\n    tag_281:\n        /* \"contracts/BlastFurnace_flattened.sol\":13701:13711  marketOres */\n      0x0e\n        /* \"contracts/BlastFurnace_flattened.sol\":13701:13765  marketOres = SafeMath.add(marketOres, SafeMath.div(oresUsed, 5)) */\n      dup2\n      swap1\n      sstore\n      pop\n        /* \"contracts/BlastFurnace_flattened.sol\":12935:13770  {... */\n      pop\n      pop\n        /* \"contracts/BlastFurnace_flattened.sol\":12878:13770  function _hatchOres(address ref, uint256 amount) private {... */\n      pop\n      pop\n      jump\t// out\n        /* \"contracts/BlastFurnace_flattened.sol\":16695:16914  function _addIngots(address addr, uint256 amount) private {... */\n    tag_199:\n        /* \"contracts/BlastFurnace_flattened.sol\":16758:16773  uint256 balance */\n      0x00\n        /* \"contracts/BlastFurnace_flattened.sol\":16776:16808  _ingotBalances[addr].add(amount) */\n      tag_284\n        /* \"contracts/BlastFurnace_flattened.sol\":16801:16807  amount */\n      dup3\n        /* \"contracts/BlastFurnace_flattened.sol\":16776:16790  _ingotBalances */\n      0x0f\n        /* \"contracts/BlastFurnace_flattened.sol\":16776:16796  _ingotBalances[addr] */\n      0x00\n        /* \"contracts/BlastFurnace_flattened.sol\":16791:16795  addr */\n      dup7\n        /* \"contracts/BlastFurnace_flattened.sol\":16776:16796  _ingotBalances[addr] */\n      0xffffffffffffffffffffffffffffffffffffffff\n      and\n      0xffffffffffffffffffffffffffffffffffffffff\n      and\n      dup2\n      mstore\n      0x20\n      add\n      swap1\n      dup2\n      mstore\n      0x20\n      add\n      0x00\n      keccak256\n      sload\n        /* \"contracts/BlastFurnace_flattened.sol\":16776:16800  _ingotBalances[addr].add */\n      tag_130\n      swap1\n        /* \"contracts/BlastFurnace_flattened.sol\":16776:16808  _ingotBalances[addr].add(amount) */\n      swap2\n      swap1\n      0xffffffff\n      and\n      jump\t// in\n    tag_284:\n        /* \"contracts/BlastFurnace_flattened.sol\":16758:16808  uint256 balance = _ingotBalances[addr].add(amount) */\n      swap1\n      pop\n        /* \"contracts/BlastFurnace_flattened.sol\":11829:11834  10000 */\n      0x2710\n        /* \"contracts/BlastFurnace_flattened.sol\":16819:16826  balance */\n      dup2\n        /* \"contracts/BlastFurnace_flattened.sol\":16819:16839  balance > MAX_INGOTS */\n      gt\n        /* \"contracts/BlastFurnace_flattened.sol\":16815:16873  if (balance > MAX_INGOTS) {... */\n      iszero\n      tag_285\n      jumpi\n        /* \"contracts/BlastFurnace_flattened.sol\":11829:11834  10000 */\n      0x2710\n        /* \"contracts/BlastFurnace_flattened.sol\":16847:16867  balance = MAX_INGOTS */\n      swap1\n      pop\n        /* \"contracts/BlastFurnace_flattened.sol\":16815:16873  if (balance > MAX_INGOTS) {... */\n    tag_285:\n        /* \"contracts/BlastFurnace_flattened.sol\":16902:16909  balance */\n      dup1\n        /* \"contracts/BlastFurnace_flattened.sol\":16879:16893  _ingotBalances */\n      0x0f\n        /* \"contracts/BlastFurnace_flattened.sol\":16879:16899  _ingotBalances[addr] */\n      0x00\n        /* \"contracts/BlastFurnace_flattened.sol\":16894:16898  addr */\n      dup6\n        /* \"contracts/BlastFurnace_flattened.sol\":16879:16899  _ingotBalances[addr] */\n      0xffffffffffffffffffffffffffffffffffffffff\n      and\n      0xffffffffffffffffffffffffffffffffffffffff\n      and\n      dup2\n      mstore\n      0x20\n      add\n      swap1\n      dup2\n      mstore\n      0x20\n      add\n      0x00\n      keccak256\n        /* \"contracts/BlastFurnace_flattened.sol\":16879:16909  _ingotBalances[addr] = balance */\n      dup2\n      swap1\n      sstore\n      pop\n        /* \"contracts/BlastFurnace_flattened.sol\":16753:16914  {... */\n      pop\n        /* \"contracts/BlastFurnace_flattened.sol\":16695:16914  function _addIngots(address addr, uint256 amount) private {... */\n      pop\n      pop\n      jump\t// out\n        /* \"contracts/BlastFurnace_flattened.sol\":17787:17974  function _setClaimed(address addr, uint256 value) private {... */\n    tag_208:\n        /* \"contracts/BlastFurnace_flattened.sol\":17873:17877  true */\n      0x01\n        /* \"contracts/BlastFurnace_flattened.sol\":17854:17877  _isHolder[addr] != true */\n      iszero\n      iszero\n        /* \"contracts/BlastFurnace_flattened.sol\":17854:17863  _isHolder */\n      0x11\n        /* \"contracts/BlastFurnace_flattened.sol\":17854:17869  _isHolder[addr] */\n      0x00\n        /* \"contracts/BlastFurnace_flattened.sol\":17864:17868  addr */\n      dup5\n        /* \"contracts/BlastFurnace_flattened.sol\":17854:17869  _isHolder[addr] */\n      0xffffffffffffffffffffffffffffffffffffffff\n      and\n      0xffffffffffffffffffffffffffffffffffffffff\n      and\n      dup2\n      mstore\n      0x20\n      add\n      swap1\n      dup2\n      mstore\n      0x20\n      add\n      0x00\n      keccak256\n      0x00\n      swap1\n      sload\n      swap1\n      0x0100\n      exp\n      swap1\n      div\n      0xff\n      and\n        /* \"contracts/BlastFurnace_flattened.sol\":17854:17877  _isHolder[addr] != true */\n      iszero\n      iszero\n      eq\n        /* \"contracts/BlastFurnace_flattened.sol\":17850:17938  if (_isHolder[addr] != true) {... */\n      tag_287\n      jumpi\n        /* \"contracts/BlastFurnace_flattened.sol\":17885:17893  _holders */\n      0x10\n        /* \"contracts/BlastFurnace_flattened.sol\":17899:17903  addr */\n      dup3\n        /* \"contracts/BlastFurnace_flattened.sol\":17885:17904  _holders.push(addr) */\n      swap1\n      dup1\n      0x01\n      dup2\n      sload\n      add\n      dup1\n      dup3\n      sstore\n      dup1\n      swap2\n      pop\n      pop\n      0x01\n      swap1\n      sub\n      swap1\n      0x00\n      mstore\n      keccak256(0x00, 0x20)\n      add\n      0x00\n      swap1\n      swap2\n      swap1\n      swap2\n      swap1\n      swap2\n      0x0100\n      exp\n      dup2\n      sload\n      dup2\n      0xffffffffffffffffffffffffffffffffffffffff\n      mul\n      not\n      and\n      swap1\n      dup4\n      0xffffffffffffffffffffffffffffffffffffffff\n      and\n      mul\n      or\n      swap1\n      sstore\n      pop\n        /* \"contracts/BlastFurnace_flattened.sol\":17928:17932  true */\n      0x01\n        /* \"contracts/BlastFurnace_flattened.sol\":17910:17919  _isHolder */\n      0x11\n        /* \"contracts/BlastFurnace_flattened.sol\":17910:17925  _isHolder[addr] */\n      0x00\n        /* \"contracts/BlastFurnace_flattened.sol\":17920:17924  addr */\n      dup5\n        /* \"contracts/BlastFurnace_flattened.sol\":17910:17925  _isHolder[addr] */\n      0xffffffffffffffffffffffffffffffffffffffff\n      and\n      0xffffffffffffffffffffffffffffffffffffffff\n      and\n      dup2\n      mstore\n      0x20\n      add\n      swap1\n      dup2\n      mstore\n      0x20\n      add\n      0x00\n      keccak256\n      0x00\n        /* \"contracts/BlastFurnace_flattened.sol\":17910:17932  _isHolder[addr] = true */\n      0x0100\n      exp\n      dup2\n      sload\n      dup2\n      0xff\n      mul\n      not\n      and\n      swap1\n      dup4\n      iszero\n      iszero\n      mul\n      or\n      swap1\n      sstore\n      pop\n        /* \"contracts/BlastFurnace_flattened.sol\":17850:17938  if (_isHolder[addr] != true) {... */\n    tag_287:\n        /* \"contracts/BlastFurnace_flattened.sol\":17964:17969  value */\n      dup1\n        /* \"contracts/BlastFurnace_flattened.sol\":17944:17955  claimedOres */\n      0x0b\n        /* \"contracts/BlastFurnace_flattened.sol\":17944:17961  claimedOres[addr] */\n      0x00\n        /* \"contracts/BlastFurnace_flattened.sol\":17956:17960  addr */\n      dup5\n        /* \"contracts/BlastFurnace_flattened.sol\":17944:17961  claimedOres[addr] */\n      0xffffffffffffffffffffffffffffffffffffffff\n      and\n      0xffffffffffffffffffffffffffffffffffffffff\n      and\n      dup2\n      mstore\n      0x20\n      add\n      swap1\n      dup2\n      mstore\n      0x20\n      add\n      0x00\n      keccak256\n        /* \"contracts/BlastFurnace_flattened.sol\":17944:17969  claimedOres[addr] = value */\n      dup2\n      swap1\n      sstore\n      pop\n        /* \"contracts/BlastFurnace_flattened.sol\":17787:17974  function _setClaimed(address addr, uint256 value) private {... */\n      pop\n      pop\n      jump\t// out\n        /* \"contracts/BlastFurnace_flattened.sol\":8473:8639  function _transferOwnership(address newOwner) internal {... */\n    tag_232:\n        /* \"contracts/BlastFurnace_flattened.sol\":8561:8562  0 */\n      0x00\n        /* \"contracts/BlastFurnace_flattened.sol\":8541:8563  newOwner != address(0) */\n      0xffffffffffffffffffffffffffffffffffffffff\n      and\n        /* \"contracts/BlastFurnace_flattened.sol\":8541:8549  newOwner */\n      dup2\n        /* \"contracts/BlastFurnace_flattened.sol\":8541:8563  newOwner != address(0) */\n      0xffffffffffffffffffffffffffffffffffffffff\n      and\n      sub\n        /* \"contracts/BlastFurnace_flattened.sol\":8533:8564  require(newOwner != address(0)) */\n      tag_290\n      jumpi\n      0x00\n      dup1\n      revert\n    tag_290:\n        /* \"contracts/BlastFurnace_flattened.sol\":8603:8611  newOwner */\n      dup1\n        /* \"contracts/BlastFurnace_flattened.sol\":8574:8612  OwnershipTransferred(_owner, newOwner) */\n      0xffffffffffffffffffffffffffffffffffffffff\n      and\n        /* \"contracts/BlastFurnace_flattened.sol\":8595:8601  _owner */\n      0x00\n      dup1\n      sload\n      swap1\n      0x0100\n      exp\n      swap1\n      div\n      0xffffffffffffffffffffffffffffffffffffffff\n      and\n        /* \"contracts/BlastFurnace_flattened.sol\":8574:8612  OwnershipTransferred(_owner, newOwner) */\n      0xffffffffffffffffffffffffffffffffffffffff\n      and\n      0x8be0079c531659141344cd1fd0a4f28419497f9722a3daafe3b4186f6b6457e0\n      mload(0x40)\n      mload(0x40)\n      dup1\n      swap2\n      sub\n      swap1\n      log3\n        /* \"contracts/BlastFurnace_flattened.sol\":8626:8634  newOwner */\n      dup1\n        /* \"contracts/BlastFurnace_flattened.sol\":8617:8623  _owner */\n      0x00\n      dup1\n        /* \"contracts/BlastFurnace_flattened.sol\":8617:8634  _owner = newOwner */\n      0x0100\n      exp\n      dup2\n      sload\n      dup2\n      0xffffffffffffffffffffffffffffffffffffffff\n      mul\n      not\n      and\n      swap1\n      dup4\n      0xffffffffffffffffffffffffffffffffffffffff\n      and\n      mul\n      or\n      swap1\n      sstore\n      pop\n        /* \"contracts/BlastFurnace_flattened.sol\":8473:8639  function _transferOwnership(address newOwner) internal {... */\n      pop\n      jump\t// out\n        /* \"contracts/BlastFurnace_flattened.sol\":17979:18314  function _distributeNative(uint256 amount) internal {... */\n    tag_238:\n        /* \"contracts/BlastFurnace_flattened.sol\":18050:18051  0 */\n      0x00\n        /* \"contracts/BlastFurnace_flattened.sol\":18040:18046  amount */\n      dup2\n        /* \"contracts/BlastFurnace_flattened.sol\":18040:18051  amount <= 0 */\n      gt\n        /* \"contracts/BlastFurnace_flattened.sol\":18036:18071  if (amount <= 0) {... */\n      iszero\n        /* \"contracts/BlastFurnace_flattened.sol\":18059:18066  return; */\n      tag_291\n        /* \"contracts/BlastFurnace_flattened.sol\":18036:18071  if (amount <= 0) {... */\n      jumpi\n        /* \"contracts/BlastFurnace_flattened.sol\":18077:18091  address holder */\n      0x00\n        /* \"contracts/BlastFurnace_flattened.sol\":18096:18107  uint256 cut */\n      dup1\n        /* \"contracts/BlastFurnace_flattened.sol\":18119:18125  uint i */\n      0x00\n        /* \"contracts/BlastFurnace_flattened.sol\":18114:18310  for (uint i = 0; i < _holders.length; i++) {... */\n    tag_293:\n        /* \"contracts/BlastFurnace_flattened.sol\":18135:18143  _holders */\n      0x10\n        /* \"contracts/BlastFurnace_flattened.sol\":18135:18150  _holders.length */\n      dup1\n      sload\n      swap1\n      pop\n        /* \"contracts/BlastFurnace_flattened.sol\":18131:18132  i */\n      dup2\n        /* \"contracts/BlastFurnace_flattened.sol\":18131:18150  i < _holders.length */\n      lt\n        /* \"contracts/BlastFurnace_flattened.sol\":18114:18310  for (uint i = 0; i < _holders.length; i++) {... */\n      iszero\n      tag_294\n      jumpi\n        /* \"contracts/BlastFurnace_flattened.sol\":18172:18180  _holders */\n      0x10\n        /* \"contracts/BlastFurnace_flattened.sol\":18181:18182  i */\n      dup2\n        /* \"contracts/BlastFurnace_flattened.sol\":18172:18183  _holders[i] */\n      dup2\n      sload\n      dup2\n      lt\n      tag_296\n      jumpi\n      tag_297\n      tag_177\n      jump\t// in\n    tag_297:\n    tag_296:\n      swap1\n      0x00\n      mstore\n      keccak256(0x00, 0x20)\n      add\n      0x00\n      swap1\n      sload\n      swap1\n      0x0100\n      exp\n      swap1\n      div\n      0xffffffffffffffffffffffffffffffffffffffff\n      and\n        /* \"contracts/BlastFurnace_flattened.sol\":18163:18183  holder = _holders[i] */\n      swap3\n      pop\n        /* \"contracts/BlastFurnace_flattened.sol\":18195:18242  amount.mul(claimedOres[holder]).div(marketOres) */\n      tag_299\n        /* \"contracts/BlastFurnace_flattened.sol\":18231:18241  marketOres */\n      sload(0x0e)\n        /* \"contracts/BlastFurnace_flattened.sol\":18195:18226  amount.mul(claimedOres[holder]) */\n      tag_300\n        /* \"contracts/BlastFurnace_flattened.sol\":18206:18217  claimedOres */\n      0x0b\n        /* \"contracts/BlastFurnace_flattened.sol\":18206:18225  claimedOres[holder] */\n      0x00\n        /* \"contracts/BlastFurnace_flattened.sol\":18218:18224  holder */\n      dup8\n        /* \"contracts/BlastFurnace_flattened.sol\":18206:18225  claimedOres[holder] */\n      0xffffffffffffffffffffffffffffffffffffffff\n      and\n      0xffffffffffffffffffffffffffffffffffffffff\n      and\n      dup2\n      mstore\n      0x20\n      add\n      swap1\n      dup2\n      mstore\n      0x20\n      add\n      0x00\n      keccak256\n      sload\n        /* \"contracts/BlastFurnace_flattened.sol\":18195:18201  amount */\n      dup8\n        /* \"contracts/BlastFurnace_flattened.sol\":18195:18205  amount.mul */\n      tag_168\n      swap1\n        /* \"contracts/BlastFurnace_flattened.sol\":18195:18226  amount.mul(claimedOres[holder]) */\n      swap2\n      swap1\n      0xffffffff\n      and\n      jump\t// in\n    tag_300:\n        /* \"contracts/BlastFurnace_flattened.sol\":18195:18230  amount.mul(claimedOres[holder]).div */\n      tag_170\n      swap1\n        /* \"contracts/BlastFurnace_flattened.sol\":18195:18242  amount.mul(claimedOres[holder]).div(marketOres) */\n      swap2\n      swap1\n      0xffffffff\n      and\n      jump\t// in\n    tag_299:\n        /* \"contracts/BlastFurnace_flattened.sol\":18189:18242  cut = amount.mul(claimedOres[holder]).div(marketOres) */\n      swap2\n      pop\n        /* \"contracts/BlastFurnace_flattened.sol\":18260:18261  0 */\n      0x00\n        /* \"contracts/BlastFurnace_flattened.sol\":18254:18257  cut */\n      dup3\n        /* \"contracts/BlastFurnace_flattened.sol\":18254:18261  cut > 0 */\n      gt\n        /* \"contracts/BlastFurnace_flattened.sol\":18250:18305  if (cut > 0) {... */\n      iszero\n      tag_301\n      jumpi\n        /* \"contracts/BlastFurnace_flattened.sol\":18270:18298  _transferNative(holder, cut) */\n      tag_302\n        /* \"contracts/BlastFurnace_flattened.sol\":18286:18292  holder */\n      dup4\n        /* \"contracts/BlastFurnace_flattened.sol\":18294:18297  cut */\n      dup4\n        /* \"contracts/BlastFurnace_flattened.sol\":18270:18285  _transferNative */\n      tag_303\n        /* \"contracts/BlastFurnace_flattened.sol\":18270:18298  _transferNative(holder, cut) */\n      jump\t// in\n    tag_302:\n      pop\n        /* \"contracts/BlastFurnace_flattened.sol\":18250:18305  if (cut > 0) {... */\n    tag_301:\n        /* \"contracts/BlastFurnace_flattened.sol\":18152:18155  i++ */\n      dup1\n      dup1\n      0x01\n      add\n      swap2\n      pop\n      pop\n        /* \"contracts/BlastFurnace_flattened.sol\":18114:18310  for (uint i = 0; i < _holders.length; i++) {... */\n      jump(tag_293)\n    tag_294:\n      pop\n        /* \"contracts/BlastFurnace_flattened.sol\":18031:18314  {... */\n      pop\n      pop\n        /* \"contracts/BlastFurnace_flattened.sol\":17979:18314  function _distributeNative(uint256 amount) internal {... */\n    tag_291:\n      pop\n      jump\t// out\n        /* \"contracts/BlastFurnace_flattened.sol\":16919:17267  function _rewardReferral(address ref, uint256 ores) private {... */\n    tag_280:\n        /* \"contracts/BlastFurnace_flattened.sol\":16984:16998  uint256 ingots */\n      0x00\n        /* \"contracts/BlastFurnace_flattened.sol\":17001:17015  _ingotBalances */\n      0x0f\n        /* \"contracts/BlastFurnace_flattened.sol\":17001:17020  _ingotBalances[ref] */\n      0x00\n        /* \"contracts/BlastFurnace_flattened.sol\":17016:17019  ref */\n      dup5\n        /* \"contracts/BlastFurnace_flattened.sol\":17001:17020  _ingotBalances[ref] */\n      0xffffffffffffffffffffffffffffffffffffffff\n      and\n      0xffffffffffffffffffffffffffffffffffffffff\n      and\n      dup2\n      mstore\n      0x20\n      add\n      swap1\n      dup2\n      mstore\n      0x20\n      add\n      0x00\n      keccak256\n      sload\n        /* \"contracts/BlastFurnace_flattened.sol\":16984:17020  uint256 ingots = _ingotBalances[ref] */\n      swap1\n      pop\n        /* \"contracts/BlastFurnace_flattened.sol\":17025:17040  uint256 ingotPM */\n      0x00\n        /* \"contracts/BlastFurnace_flattened.sol\":17044:17099  ingots.mul(INGOT_REWARD_MULTIPLIER).div(INGOT_FRAGMENT) */\n      tag_305\n        /* \"contracts/BlastFurnace_flattened.sol\":11989:11992  200 */\n      0xc8\n        /* \"contracts/BlastFurnace_flattened.sol\":17044:17079  ingots.mul(INGOT_REWARD_MULTIPLIER) */\n      tag_306\n        /* \"contracts/BlastFurnace_flattened.sol\":12047:12049  16 */\n      0x10\n        /* \"contracts/BlastFurnace_flattened.sol\":17044:17050  ingots */\n      dup6\n        /* \"contracts/BlastFurnace_flattened.sol\":17044:17054  ingots.mul */\n      tag_168\n      swap1\n        /* \"contracts/BlastFurnace_flattened.sol\":17044:17079  ingots.mul(INGOT_REWARD_MULTIPLIER) */\n      swap2\n      swap1\n      0xffffffff\n      and\n      jump\t// in\n    tag_306:\n        /* \"contracts/BlastFurnace_flattened.sol\":17044:17083  ingots.mul(INGOT_REWARD_MULTIPLIER).div */\n      tag_170\n      swap1\n        /* \"contracts/BlastFurnace_flattened.sol\":17044:17099  ingots.mul(INGOT_REWARD_MULTIPLIER).div(INGOT_FRAGMENT) */\n      swap2\n      swap1\n      0xffffffff\n      and\n      jump\t// in\n    tag_305:\n        /* \"contracts/BlastFurnace_flattened.sol\":17025:17100  uint256 ingotPM = (ingots.mul(INGOT_REWARD_MULTIPLIER).div(INGOT_FRAGMENT)) */\n      swap1\n      pop\n        /* \"contracts/BlastFurnace_flattened.sol\":17105:17125  uint256 rewardIncByT */\n      0x00\n        /* \"contracts/BlastFurnace_flattened.sol\":17146:17153  ingotPM */\n      dup2\n        /* \"contracts/BlastFurnace_flattened.sol\":12106:12112  12_500 */\n      0x30d4\n        /* \"contracts/BlastFurnace_flattened.sol\":17128:17153  REFERRAL_REWARD + ingotPM */\n      tag_307\n      swap2\n      swap1\n      tag_133\n      jump\t// in\n    tag_307:\n        /* \"contracts/BlastFurnace_flattened.sol\":17105:17153  uint256 rewardIncByT = REFERRAL_REWARD + ingotPM */\n      swap1\n      pop\n        /* \"contracts/BlastFurnace_flattened.sol\":17160:17180  uint256 referralOres */\n      0x00\n        /* \"contracts/BlastFurnace_flattened.sol\":17183:17227  SafeMath.mul(ores, rewardIncByT).div(100000) */\n      tag_308\n        /* \"contracts/BlastFurnace_flattened.sol\":17220:17226  100000 */\n      0x0186a0\n        /* \"contracts/BlastFurnace_flattened.sol\":17183:17215  SafeMath.mul(ores, rewardIncByT) */\n      tag_309\n        /* \"contracts/BlastFurnace_flattened.sol\":17196:17200  ores */\n      dup8\n        /* \"contracts/BlastFurnace_flattened.sol\":17202:17214  rewardIncByT */\n      dup6\n        /* \"contracts/BlastFurnace_flattened.sol\":17183:17195  SafeMath.mul */\n      tag_168\n        /* \"contracts/BlastFurnace_flattened.sol\":17183:17215  SafeMath.mul(ores, rewardIncByT) */\n      jump\t// in\n    tag_309:\n        /* \"contracts/BlastFurnace_flattened.sol\":17183:17219  SafeMath.mul(ores, rewardIncByT).div */\n      tag_170\n      swap1\n        /* \"contracts/BlastFurnace_flattened.sol\":17183:17227  SafeMath.mul(ores, rewardIncByT).div(100000) */\n      swap2\n      swap1\n      0xffffffff\n      and\n      jump\t// in\n    tag_308:\n        /* \"contracts/BlastFurnace_flattened.sol\":17160:17227  uint256 referralOres = SafeMath.mul(ores, rewardIncByT).div(100000) */\n      swap1\n      pop\n        /* \"contracts/BlastFurnace_flattened.sol\":17232:17262  _addClaimed(ref, referralOres) */\n      tag_310\n        /* \"contracts/BlastFurnace_flattened.sol\":17244:17247  ref */\n      dup7\n        /* \"contracts/BlastFurnace_flattened.sol\":17249:17261  referralOres */\n      dup3\n        /* \"contracts/BlastFurnace_flattened.sol\":17232:17243  _addClaimed */\n      tag_194\n        /* \"contracts/BlastFurnace_flattened.sol\":17232:17262  _addClaimed(ref, referralOres) */\n      jump\t// in\n    tag_310:\n        /* \"contracts/BlastFurnace_flattened.sol\":16979:17267  {... */\n      pop\n      pop\n      pop\n      pop\n        /* \"contracts/BlastFurnace_flattened.sol\":16919:17267  function _rewardReferral(address ref, uint256 ores) private {... */\n      pop\n      pop\n      jump\t// out\n        /* \"contracts/BlastFurnace_flattened.sol\":7492:7650  function _transferNative(address to, uint256 amount) internal returns (bool) {... */\n    tag_303:\n        /* \"contracts/BlastFurnace_flattened.sol\":7563:7567  bool */\n      0x00\n        /* \"contracts/BlastFurnace_flattened.sol\":7586:7588  to */\n      dup3\n        /* \"contracts/BlastFurnace_flattened.sol\":7578:7594  payable(to).send */\n      0xffffffffffffffffffffffffffffffffffffffff\n      and\n        /* \"contracts/BlastFurnace_flattened.sol\":7578:7602  payable(to).send(amount) */\n      0x08fc\n        /* \"contracts/BlastFurnace_flattened.sol\":7595:7601  amount */\n      dup4\n        /* \"contracts/BlastFurnace_flattened.sol\":7578:7602  payable(to).send(amount) */\n      swap1\n      dup2\n      iszero\n      mul\n      swap1\n      mload(0x40)\n      0x00\n      mload(0x40)\n      dup1\n      dup4\n      sub\n      dup2\n      dup6\n      dup9\n      dup9\n      call\n      swap4\n      pop\n      pop\n      pop\n      pop\n        /* \"contracts/BlastFurnace_flattened.sol\":7574:7627  if (payable(to).send(amount)) {... */\n      iszero\n      tag_313\n      jumpi\n        /* \"contracts/BlastFurnace_flattened.sol\":7617:7621  true */\n      0x01\n        /* \"contracts/BlastFurnace_flattened.sol\":7610:7621  return true */\n      swap1\n      pop\n      jump(tag_311)\n        /* \"contracts/BlastFurnace_flattened.sol\":7574:7627  if (payable(to).send(amount)) {... */\n    tag_313:\n        /* \"contracts/BlastFurnace_flattened.sol\":7640:7645  false */\n      0x00\n        /* \"contracts/BlastFurnace_flattened.sol\":7633:7645  return false */\n      swap1\n      pop\n        /* \"contracts/BlastFurnace_flattened.sol\":7492:7650  function _transferNative(address to, uint256 amount) internal returns (bool) {... */\n    tag_311:\n      swap3\n      swap2\n      pop\n      pop\n      jump\t// out\n        /* \"#utility.yul\":7:84   */\n    tag_314:\n        /* \"#utility.yul\":44:51   */\n      0x00\n        /* \"#utility.yul\":73:78   */\n      dup2\n        /* \"#utility.yul\":62:78   */\n      swap1\n      pop\n        /* \"#utility.yul\":7:84   */\n      swap2\n      swap1\n      pop\n      jump\t// out\n        /* \"#utility.yul\":90:208   */\n    tag_315:\n        /* \"#utility.yul\":177:201   */\n      tag_339\n        /* \"#utility.yul\":195:200   */\n      dup2\n        /* \"#utility.yul\":177:201   */\n      tag_314\n      jump\t// in\n    tag_339:\n        /* \"#utility.yul\":172:175   */\n      dup3\n        /* \"#utility.yul\":165:202   */\n      mstore\n        /* \"#utility.yul\":90:208   */\n      pop\n      pop\n      jump\t// out\n        /* \"#utility.yul\":214:436   */\n    tag_31:\n        /* \"#utility.yul\":307:311   */\n      0x00\n        /* \"#utility.yul\":345:347   */\n      0x20\n        /* \"#utility.yul\":334:343   */\n      dup3\n        /* \"#utility.yul\":330:348   */\n      add\n        /* \"#utility.yul\":322:348   */\n      swap1\n      pop\n        /* \"#utility.yul\":358:429   */\n      tag_341\n        /* \"#utility.yul\":426:427   */\n      0x00\n        /* \"#utility.yul\":415:424   */\n      dup4\n        /* \"#utility.yul\":411:428   */\n      add\n        /* \"#utility.yul\":402:408   */\n      dup5\n        /* \"#utility.yul\":358:429   */\n      tag_315\n      jump\t// in\n    tag_341:\n        /* \"#utility.yul\":214:436   */\n      swap3\n      swap2\n      pop\n      pop\n      jump\t// out\n        /* \"#utility.yul\":523:640   */\n    tag_317:\n        /* \"#utility.yul\":632:633   */\n      0x00\n        /* \"#utility.yul\":629:630   */\n      dup1\n        /* \"#utility.yul\":622:634   */\n      revert\n        /* \"#utility.yul\":769:895   */\n    tag_319:\n        /* \"#utility.yul\":806:813   */\n      0x00\n        /* \"#utility.yul\":846:888   */\n      0xffffffffffffffffffffffffffffffffffffffff\n        /* \"#utility.yul\":839:844   */\n      dup3\n        /* \"#utility.yul\":835:889   */\n      and\n        /* \"#utility.yul\":824:889   */\n      swap1\n      pop\n        /* \"#utility.yul\":769:895   */\n      swap2\n      swap1\n      pop\n      jump\t// out\n        /* \"#utility.yul\":901:997   */\n    tag_320:\n        /* \"#utility.yul\":938:945   */\n      0x00\n        /* \"#utility.yul\":967:991   */\n      tag_347\n        /* \"#utility.yul\":985:990   */\n      dup3\n        /* \"#utility.yul\":967:991   */\n      tag_319\n      jump\t// in\n    tag_347:\n        /* \"#utility.yul\":956:991   */\n      swap1\n      pop\n        /* \"#utility.yul\":901:997   */\n      swap2\n      swap1\n      pop\n      jump\t// out\n        /* \"#utility.yul\":1003:1125   */\n    tag_321:\n        /* \"#utility.yul\":1076:1100   */\n      tag_349\n        /* \"#utility.yul\":1094:1099   */\n      dup2\n        /* \"#utility.yul\":1076:1100   */\n      tag_320\n      jump\t// in\n    tag_349:\n        /* \"#utility.yul\":1069:1074   */\n      dup2\n        /* \"#utility.yul\":1066:1101   */\n      eq\n        /* \"#utility.yul\":1056:1119   */\n      tag_350\n      jumpi\n        /* \"#utility.yul\":1115:1116   */\n      0x00\n        /* \"#utility.yul\":1112:1113   */\n      dup1\n        /* \"#utility.yul\":1105:1117   */\n      revert\n        /* \"#utility.yul\":1056:1119   */\n    tag_350:\n        /* \"#utility.yul\":1003:1125   */\n      pop\n      jump\t// out\n        /* \"#utility.yul\":1131:1270   */\n    tag_322:\n        /* \"#utility.yul\":1177:1182   */\n      0x00\n        /* \"#utility.yul\":1215:1221   */\n      dup2\n        /* \"#utility.yul\":1202:1222   */\n      calldataload\n        /* \"#utility.yul\":1193:1222   */\n      swap1\n      pop\n        /* \"#utility.yul\":1231:1264   */\n      tag_352\n        /* \"#utility.yul\":1258:1263   */\n      dup2\n        /* \"#utility.yul\":1231:1264   */\n      tag_321\n      jump\t// in\n    tag_352:\n        /* \"#utility.yul\":1131:1270   */\n      swap3\n      swap2\n      pop\n      pop\n      jump\t// out\n        /* \"#utility.yul\":1276:1605   */\n    tag_35:\n        /* \"#utility.yul\":1335:1341   */\n      0x00\n        /* \"#utility.yul\":1384:1386   */\n      0x20\n        /* \"#utility.yul\":1372:1381   */\n      dup3\n        /* \"#utility.yul\":1363:1370   */\n      dup5\n        /* \"#utility.yul\":1359:1382   */\n      sub\n        /* \"#utility.yul\":1355:1387   */\n      slt\n        /* \"#utility.yul\":1352:1471   */\n      iszero\n      tag_354\n      jumpi\n        /* \"#utility.yul\":1390:1469   */\n      tag_355\n      tag_317\n      jump\t// in\n    tag_355:\n        /* \"#utility.yul\":1352:1471   */\n    tag_354:\n        /* \"#utility.yul\":1510:1511   */\n      0x00\n        /* \"#utility.yul\":1535:1588   */\n      tag_356\n        /* \"#utility.yul\":1580:1587   */\n      dup5\n        /* \"#utility.yul\":1571:1577   */\n      dup3\n        /* \"#utility.yul\":1560:1569   */\n      dup6\n        /* \"#utility.yul\":1556:1578   */\n      add\n        /* \"#utility.yul\":1535:1588   */\n      tag_322\n      jump\t// in\n    tag_356:\n        /* \"#utility.yul\":1525:1588   */\n      swap2\n      pop\n        /* \"#utility.yul\":1481:1598   */\n      pop\n        /* \"#utility.yul\":1276:1605   */\n      swap3\n      swap2\n      pop\n      pop\n      jump\t// out\n        /* \"#utility.yul\":1611:1733   */\n    tag_323:\n        /* \"#utility.yul\":1684:1708   */\n      tag_358\n        /* \"#utility.yul\":1702:1707   */\n      dup2\n        /* \"#utility.yul\":1684:1708   */\n      tag_314\n      jump\t// in\n    tag_358:\n        /* \"#utility.yul\":1677:1682   */\n      dup2\n        /* \"#utility.yul\":1674:1709   */\n      eq\n        /* \"#utility.yul\":1664:1727   */\n      tag_359\n      jumpi\n        /* \"#utility.yul\":1723:1724   */\n      0x00\n        /* \"#utility.yul\":1720:1721   */\n      dup1\n        /* \"#utility.yul\":1713:1725   */\n      revert\n        /* \"#utility.yul\":1664:1727   */\n    tag_359:\n        /* \"#utility.yul\":1611:1733   */\n      pop\n      jump\t// out\n        /* \"#utility.yul\":1739:1878   */\n    tag_324:\n        /* \"#utility.yul\":1785:1790   */\n      0x00\n        /* \"#utility.yul\":1823:1829   */\n      dup2\n        /* \"#utility.yul\":1810:1830   */\n      calldataload\n        /* \"#utility.yul\":1801:1830   */\n      swap1\n      pop\n        /* \"#utility.yul\":1839:1872   */\n      tag_361\n        /* \"#utility.yul\":1866:1871   */\n      dup2\n        /* \"#utility.yul\":1839:1872   */\n      tag_323\n      jump\t// in\n    tag_361:\n        /* \"#utility.yul\":1739:1878   */\n      swap3\n      swap2\n      pop\n      pop\n      jump\t// out\n        /* \"#utility.yul\":1884:2213   */\n    tag_46:\n        /* \"#utility.yul\":1943:1949   */\n      0x00\n        /* \"#utility.yul\":1992:1994   */\n      0x20\n        /* \"#utility.yul\":1980:1989   */\n      dup3\n        /* \"#utility.yul\":1971:1978   */\n      dup5\n        /* \"#utility.yul\":1967:1990   */\n      sub\n        /* \"#utility.yul\":1963:1995   */\n      slt\n        /* \"#utility.yul\":1960:2079   */\n      iszero\n      tag_363\n      jumpi\n        /* \"#utility.yul\":1998:2077   */\n      tag_364\n      tag_317\n      jump\t// in\n    tag_364:\n        /* \"#utility.yul\":1960:2079   */\n    tag_363:\n        /* \"#utility.yul\":2118:2119   */\n      0x00\n        /* \"#utility.yul\":2143:2196   */\n      tag_365\n        /* \"#utility.yul\":2188:2195   */\n      dup5\n        /* \"#utility.yul\":2179:2185   */\n      dup3\n        /* \"#utility.yul\":2168:2177   */\n      dup6\n        /* \"#utility.yul\":2164:2186   */\n      add\n        /* \"#utility.yul\":2143:2196   */\n      tag_324\n      jump\t// in\n    tag_365:\n        /* \"#utility.yul\":2133:2196   */\n      swap2\n      pop\n        /* \"#utility.yul\":2089:2206   */\n      pop\n        /* \"#utility.yul\":1884:2213   */\n      swap3\n      swap2\n      pop\n      pop\n      jump\t// out\n        /* \"#utility.yul\":2219:2693   */\n    tag_57:\n        /* \"#utility.yul\":2287:2293   */\n      0x00\n        /* \"#utility.yul\":2295:2301   */\n      dup1\n        /* \"#utility.yul\":2344:2346   */\n      0x40\n        /* \"#utility.yul\":2332:2341   */\n      dup4\n        /* \"#utility.yul\":2323:2330   */\n      dup6\n        /* \"#utility.yul\":2319:2342   */\n      sub\n        /* \"#utility.yul\":2315:2347   */\n      slt\n        /* \"#utility.yul\":2312:2431   */\n      iszero\n      tag_367\n      jumpi\n        /* \"#utility.yul\":2350:2429   */\n      tag_368\n      tag_317\n      jump\t// in\n    tag_368:\n        /* \"#utility.yul\":2312:2431   */\n    tag_367:\n        /* \"#utility.yul\":2470:2471   */\n      0x00\n        /* \"#utility.yul\":2495:2548   */\n      tag_369\n        /* \"#utility.yul\":2540:2547   */\n      dup6\n        /* \"#utility.yul\":2531:2537   */\n      dup3\n        /* \"#utility.yul\":2520:2529   */\n      dup7\n        /* \"#utility.yul\":2516:2538   */\n      add\n        /* \"#utility.yul\":2495:2548   */\n      tag_324\n      jump\t// in\n    tag_369:\n        /* \"#utility.yul\":2485:2548   */\n      swap3\n      pop\n        /* \"#utility.yul\":2441:2558   */\n      pop\n        /* \"#utility.yul\":2597:2599   */\n      0x20\n        /* \"#utility.yul\":2623:2676   */\n      tag_370\n        /* \"#utility.yul\":2668:2675   */\n      dup6\n        /* \"#utility.yul\":2659:2665   */\n      dup3\n        /* \"#utility.yul\":2648:2657   */\n      dup7\n        /* \"#utility.yul\":2644:2666   */\n      add\n        /* \"#utility.yul\":2623:2676   */\n      tag_324\n      jump\t// in\n    tag_370:\n        /* \"#utility.yul\":2613:2676   */\n      swap2\n      pop\n        /* \"#utility.yul\":2568:2686   */\n      pop\n        /* \"#utility.yul\":2219:2693   */\n      swap3\n      pop\n      swap3\n      swap1\n      pop\n      jump\t// out\n        /* \"#utility.yul\":2699:2817   */\n    tag_325:\n        /* \"#utility.yul\":2786:2810   */\n      tag_372\n        /* \"#utility.yul\":2804:2809   */\n      dup2\n        /* \"#utility.yul\":2786:2810   */\n      tag_320\n      jump\t// in\n    tag_372:\n        /* \"#utility.yul\":2781:2784   */\n      dup3\n        /* \"#utility.yul\":2774:2811   */\n      mstore\n        /* \"#utility.yul\":2699:2817   */\n      pop\n      pop\n      jump\t// out\n        /* \"#utility.yul\":2823:3155   */\n    tag_84:\n        /* \"#utility.yul\":2944:2948   */\n      0x00\n        /* \"#utility.yul\":2982:2984   */\n      0x40\n        /* \"#utility.yul\":2971:2980   */\n      dup3\n        /* \"#utility.yul\":2967:2985   */\n      add\n        /* \"#utility.yul\":2959:2985   */\n      swap1\n      pop\n        /* \"#utility.yul\":2995:3066   */\n      tag_374\n        /* \"#utility.yul\":3063:3064   */\n      0x00\n        /* \"#utility.yul\":3052:3061   */\n      dup4\n        /* \"#utility.yul\":3048:3065   */\n      add\n        /* \"#utility.yul\":3039:3045   */\n      dup6\n        /* \"#utility.yul\":2995:3066   */\n      tag_325\n      jump\t// in\n    tag_374:\n        /* \"#utility.yul\":3076:3148   */\n      tag_375\n        /* \"#utility.yul\":3144:3146   */\n      0x20\n        /* \"#utility.yul\":3133:3142   */\n      dup4\n        /* \"#utility.yul\":3129:3147   */\n      add\n        /* \"#utility.yul\":3120:3126   */\n      dup5\n        /* \"#utility.yul\":3076:3148   */\n      tag_315\n      jump\t// in\n    tag_375:\n        /* \"#utility.yul\":2823:3155   */\n      swap4\n      swap3\n      pop\n      pop\n      pop\n      jump\t// out\n        /* \"#utility.yul\":3161:3383   */\n    tag_95:\n        /* \"#utility.yul\":3254:3258   */\n      0x00\n        /* \"#utility.yul\":3292:3294   */\n      0x20\n        /* \"#utility.yul\":3281:3290   */\n      dup3\n        /* \"#utility.yul\":3277:3295   */\n      add\n        /* \"#utility.yul\":3269:3295   */\n      swap1\n      pop\n        /* \"#utility.yul\":3305:3376   */\n      tag_377\n        /* \"#utility.yul\":3373:3374   */\n      0x00\n        /* \"#utility.yul\":3362:3371   */\n      dup4\n        /* \"#utility.yul\":3358:3375   */\n      add\n        /* \"#utility.yul\":3349:3355   */\n      dup5\n        /* \"#utility.yul\":3305:3376   */\n      tag_325\n      jump\t// in\n    tag_377:\n        /* \"#utility.yul\":3161:3383   */\n      swap3\n      swap2\n      pop\n      pop\n      jump\t// out\n        /* \"#utility.yul\":3389:3479   */\n    tag_326:\n        /* \"#utility.yul\":3423:3430   */\n      0x00\n        /* \"#utility.yul\":3466:3471   */\n      dup2\n        /* \"#utility.yul\":3459:3472   */\n      iszero\n        /* \"#utility.yul\":3452:3473   */\n      iszero\n        /* \"#utility.yul\":3441:3473   */\n      swap1\n      pop\n        /* \"#utility.yul\":3389:3479   */\n      swap2\n      swap1\n      pop\n      jump\t// out\n        /* \"#utility.yul\":3485:3594   */\n    tag_327:\n        /* \"#utility.yul\":3566:3587   */\n      tag_380\n        /* \"#utility.yul\":3581:3586   */\n      dup2\n        /* \"#utility.yul\":3566:3587   */\n      tag_326\n      jump\t// in\n    tag_380:\n        /* \"#utility.yul\":3561:3564   */\n      dup3\n        /* \"#utility.yul\":3554:3588   */\n      mstore\n        /* \"#utility.yul\":3485:3594   */\n      pop\n      pop\n      jump\t// out\n        /* \"#utility.yul\":3600:3810   */\n    tag_100:\n        /* \"#utility.yul\":3687:3691   */\n      0x00\n        /* \"#utility.yul\":3725:3727   */\n      0x20\n        /* \"#utility.yul\":3714:3723   */\n      dup3\n        /* \"#utility.yul\":3710:3728   */\n      add\n        /* \"#utility.yul\":3702:3728   */\n      swap1\n      pop\n        /* \"#utility.yul\":3738:3803   */\n      tag_382\n        /* \"#utility.yul\":3800:3801   */\n      0x00\n        /* \"#utility.yul\":3789:3798   */\n      dup4\n        /* \"#utility.yul\":3785:3802   */\n      add\n        /* \"#utility.yul\":3776:3782   */\n      dup5\n        /* \"#utility.yul\":3738:3803   */\n      tag_327\n      jump\t// in\n    tag_382:\n        /* \"#utility.yul\":3600:3810   */\n      swap3\n      swap2\n      pop\n      pop\n      jump\t// out\n        /* \"#utility.yul\":3816:3876   */\n    tag_328:\n        /* \"#utility.yul\":3844:3847   */\n      0x00\n        /* \"#utility.yul\":3865:3870   */\n      dup2\n        /* \"#utility.yul\":3858:3870   */\n      swap1\n      pop\n        /* \"#utility.yul\":3816:3876   */\n      swap2\n      swap1\n      pop\n      jump\t// out\n        /* \"#utility.yul\":3882:4024   */\n    tag_329:\n        /* \"#utility.yul\":3932:3941   */\n      0x00\n        /* \"#utility.yul\":3965:4018   */\n      tag_385\n        /* \"#utility.yul\":3983:4017   */\n      tag_386\n        /* \"#utility.yul\":3992:4016   */\n      tag_387\n        /* \"#utility.yul\":4010:4015   */\n      dup5\n        /* \"#utility.yul\":3992:4016   */\n      tag_319\n      jump\t// in\n    tag_387:\n        /* \"#utility.yul\":3983:4017   */\n      tag_328\n      jump\t// in\n    tag_386:\n        /* \"#utility.yul\":3965:4018   */\n      tag_319\n      jump\t// in\n    tag_385:\n        /* \"#utility.yul\":3952:4018   */\n      swap1\n      pop\n        /* \"#utility.yul\":3882:4024   */\n      swap2\n      swap1\n      pop\n      jump\t// out\n        /* \"#utility.yul\":4030:4156   */\n    tag_330:\n        /* \"#utility.yul\":4080:4089   */\n      0x00\n        /* \"#utility.yul\":4113:4150   */\n      tag_389\n        /* \"#utility.yul\":4144:4149   */\n      dup3\n        /* \"#utility.yul\":4113:4150   */\n      tag_329\n      jump\t// in\n    tag_389:\n        /* \"#utility.yul\":4100:4150   */\n      swap1\n      pop\n        /* \"#utility.yul\":4030:4156   */\n      swap2\n      swap1\n      pop\n      jump\t// out\n        /* \"#utility.yul\":4162:4302   */\n    tag_331:\n        /* \"#utility.yul\":4226:4235   */\n      0x00\n        /* \"#utility.yul\":4259:4296   */\n      tag_391\n        /* \"#utility.yul\":4290:4295   */\n      dup3\n        /* \"#utility.yul\":4259:4296   */\n      tag_330\n      jump\t// in\n    tag_391:\n        /* \"#utility.yul\":4246:4296   */\n      swap1\n      pop\n        /* \"#utility.yul\":4162:4302   */\n      swap2\n      swap1\n      pop\n      jump\t// out\n        /* \"#utility.yul\":4308:4467   */\n    tag_332:\n        /* \"#utility.yul\":4409:4460   */\n      tag_393\n        /* \"#utility.yul\":4454:4459   */\n      dup2\n        /* \"#utility.yul\":4409:4460   */\n      tag_331\n      jump\t// in\n    tag_393:\n        /* \"#utility.yul\":4404:4407   */\n      dup3\n        /* \"#utility.yul\":4397:4461   */\n      mstore\n        /* \"#utility.yul\":4308:4467   */\n      pop\n      pop\n      jump\t// out\n        /* \"#utility.yul\":4473:4723   */\n    tag_105:\n        /* \"#utility.yul\":4580:4584   */\n      0x00\n        /* \"#utility.yul\":4618:4620   */\n      0x20\n        /* \"#utility.yul\":4607:4616   */\n      dup3\n        /* \"#utility.yul\":4603:4621   */\n      add\n        /* \"#utility.yul\":4595:4621   */\n      swap1\n      pop\n        /* \"#utility.yul\":4631:4716   */\n      tag_395\n        /* \"#utility.yul\":4713:4714   */\n      0x00\n        /* \"#utility.yul\":4702:4711   */\n      dup4\n        /* \"#utility.yul\":4698:4715   */\n      add\n        /* \"#utility.yul\":4689:4695   */\n      dup5\n        /* \"#utility.yul\":4631:4716   */\n      tag_332\n      jump\t// in\n    tag_395:\n        /* \"#utility.yul\":4473:4723   */\n      swap3\n      swap2\n      pop\n      pop\n      jump\t// out\n        /* \"#utility.yul\":4729:4909   */\n    tag_333:\n        /* \"#utility.yul\":4777:4854   */\n      0x4e487b7100000000000000000000000000000000000000000000000000000000\n        /* \"#utility.yul\":4774:4775   */\n      0x00\n        /* \"#utility.yul\":4767:4855   */\n      mstore\n        /* \"#utility.yul\":4874:4878   */\n      0x11\n        /* \"#utility.yul\":4871:4872   */\n      0x04\n        /* \"#utility.yul\":4864:4879   */\n      mstore\n        /* \"#utility.yul\":4898:4902   */\n      0x24\n        /* \"#utility.yul\":4895:4896   */\n      0x00\n        /* \"#utility.yul\":4888:4903   */\n      revert\n        /* \"#utility.yul\":4915:5106   */\n    tag_133:\n        /* \"#utility.yul\":4955:4958   */\n      0x00\n        /* \"#utility.yul\":4974:4994   */\n      tag_398\n        /* \"#utility.yul\":4992:4993   */\n      dup3\n        /* \"#utility.yul\":4974:4994   */\n      tag_314\n      jump\t// in\n    tag_398:\n        /* \"#utility.yul\":4969:4994   */\n      swap2\n      pop\n        /* \"#utility.yul\":5008:5028   */\n      tag_399\n        /* \"#utility.yul\":5026:5027   */\n      dup4\n        /* \"#utility.yul\":5008:5028   */\n      tag_314\n      jump\t// in\n    tag_399:\n        /* \"#utility.yul\":5003:5028   */\n      swap3\n      pop\n        /* \"#utility.yul\":5051:5052   */\n      dup3\n        /* \"#utility.yul\":5048:5049   */\n      dup3\n        /* \"#utility.yul\":5044:5053   */\n      add\n        /* \"#utility.yul\":5037:5053   */\n      swap1\n      pop\n        /* \"#utility.yul\":5072:5075   */\n      dup1\n        /* \"#utility.yul\":5069:5070   */\n      dup3\n        /* \"#utility.yul\":5066:5076   */\n      gt\n        /* \"#utility.yul\":5063:5099   */\n      iszero\n      tag_400\n      jumpi\n        /* \"#utility.yul\":5079:5097   */\n      tag_401\n      tag_333\n      jump\t// in\n    tag_401:\n        /* \"#utility.yul\":5063:5099   */\n    tag_400:\n        /* \"#utility.yul\":4915:5106   */\n      swap3\n      swap2\n      pop\n      pop\n      jump\t// out\n        /* \"#utility.yul\":5112:5444   */\n    tag_136:\n        /* \"#utility.yul\":5233:5237   */\n      0x00\n        /* \"#utility.yul\":5271:5273   */\n      0x40\n        /* \"#utility.yul\":5260:5269   */\n      dup3\n        /* \"#utility.yul\":5256:5274   */\n      add\n        /* \"#utility.yul\":5248:5274   */\n      swap1\n      pop\n        /* \"#utility.yul\":5284:5355   */\n      tag_403\n        /* \"#utility.yul\":5352:5353   */\n      0x00\n        /* \"#utility.yul\":5341:5350   */\n      dup4\n        /* \"#utility.yul\":5337:5354   */\n      add\n        /* \"#utility.yul\":5328:5334   */\n      dup6\n        /* \"#utility.yul\":5284:5355   */\n      tag_325\n      jump\t// in\n    tag_403:\n        /* \"#utility.yul\":5365:5437   */\n      tag_404\n        /* \"#utility.yul\":5433:5435   */\n      0x20\n        /* \"#utility.yul\":5422:5431   */\n      dup4\n        /* \"#utility.yul\":5418:5436   */\n      add\n        /* \"#utility.yul\":5409:5415   */\n      dup5\n        /* \"#utility.yul\":5365:5437   */\n      tag_325\n      jump\t// in\n    tag_404:\n        /* \"#utility.yul\":5112:5444   */\n      swap4\n      swap3\n      pop\n      pop\n      pop\n      jump\t// out\n        /* \"#utility.yul\":5450:5593   */\n    tag_334:\n        /* \"#utility.yul\":5507:5512   */\n      0x00\n        /* \"#utility.yul\":5538:5544   */\n      dup2\n        /* \"#utility.yul\":5532:5545   */\n      mload\n        /* \"#utility.yul\":5523:5545   */\n      swap1\n      pop\n        /* \"#utility.yul\":5554:5587   */\n      tag_406\n        /* \"#utility.yul\":5581:5586   */\n      dup2\n        /* \"#utility.yul\":5554:5587   */\n      tag_323\n      jump\t// in\n    tag_406:\n        /* \"#utility.yul\":5450:5593   */\n      swap3\n      swap2\n      pop\n      pop\n      jump\t// out\n        /* \"#utility.yul\":5599:5950   */\n    tag_140:\n        /* \"#utility.yul\":5669:5675   */\n      0x00\n        /* \"#utility.yul\":5718:5720   */\n      0x20\n        /* \"#utility.yul\":5706:5715   */\n      dup3\n        /* \"#utility.yul\":5697:5704   */\n      dup5\n        /* \"#utility.yul\":5693:5716   */\n      sub\n        /* \"#utility.yul\":5689:5721   */\n      slt\n        /* \"#utility.yul\":5686:5805   */\n      iszero\n      tag_408\n      jumpi\n        /* \"#utility.yul\":5724:5803   */\n      tag_409\n      tag_317\n      jump\t// in\n    tag_409:\n        /* \"#utility.yul\":5686:5805   */\n    tag_408:\n        /* \"#utility.yul\":5844:5845   */\n      0x00\n        /* \"#utility.yul\":5869:5933   */\n      tag_410\n        /* \"#utility.yul\":5925:5932   */\n      dup5\n        /* \"#utility.yul\":5916:5922   */\n      dup3\n        /* \"#utility.yul\":5905:5914   */\n      dup6\n        /* \"#utility.yul\":5901:5923   */\n      add\n        /* \"#utility.yul\":5869:5933   */\n      tag_334\n      jump\t// in\n    tag_410:\n        /* \"#utility.yul\":5859:5933   */\n      swap2\n      pop\n        /* \"#utility.yul\":5815:5943   */\n      pop\n        /* \"#utility.yul\":5599:5950   */\n      swap3\n      swap2\n      pop\n      pop\n      jump\t// out\n        /* \"#utility.yul\":5956:6136   */\n    tag_177:\n        /* \"#utility.yul\":6004:6081   */\n      0x4e487b7100000000000000000000000000000000000000000000000000000000\n        /* \"#utility.yul\":6001:6002   */\n      0x00\n        /* \"#utility.yul\":5994:6082   */\n      mstore\n        /* \"#utility.yul\":6101:6105   */\n      0x32\n        /* \"#utility.yul\":6098:6099   */\n      0x04\n        /* \"#utility.yul\":6091:6106   */\n      mstore\n        /* \"#utility.yul\":6125:6129   */\n      0x24\n        /* \"#utility.yul\":6122:6123   */\n      0x00\n        /* \"#utility.yul\":6115:6130   */\n      revert\n        /* \"#utility.yul\":6142:6336   */\n    tag_249:\n        /* \"#utility.yul\":6182:6186   */\n      0x00\n        /* \"#utility.yul\":6202:6222   */\n      tag_413\n        /* \"#utility.yul\":6220:6221   */\n      dup3\n        /* \"#utility.yul\":6202:6222   */\n      tag_314\n      jump\t// in\n    tag_413:\n        /* \"#utility.yul\":6197:6222   */\n      swap2\n      pop\n        /* \"#utility.yul\":6236:6256   */\n      tag_414\n        /* \"#utility.yul\":6254:6255   */\n      dup4\n        /* \"#utility.yul\":6236:6256   */\n      tag_314\n      jump\t// in\n    tag_414:\n        /* \"#utility.yul\":6231:6256   */\n      swap3\n      pop\n        /* \"#utility.yul\":6280:6281   */\n      dup3\n        /* \"#utility.yul\":6277:6278   */\n      dup3\n        /* \"#utility.yul\":6273:6282   */\n      sub\n        /* \"#utility.yul\":6265:6282   */\n      swap1\n      pop\n        /* \"#utility.yul\":6304:6305   */\n      dup2\n        /* \"#utility.yul\":6298:6302   */\n      dup2\n        /* \"#utility.yul\":6295:6306   */\n      gt\n        /* \"#utility.yul\":6292:6329   */\n      iszero\n      tag_415\n      jumpi\n        /* \"#utility.yul\":6309:6327   */\n      tag_416\n      tag_333\n      jump\t// in\n    tag_416:\n        /* \"#utility.yul\":6292:6329   */\n    tag_415:\n        /* \"#utility.yul\":6142:6336   */\n      swap3\n      swap2\n      pop\n      pop\n      jump\t// out\n        /* \"#utility.yul\":6342:6752   */\n    tag_255:\n        /* \"#utility.yul\":6382:6389   */\n      0x00\n        /* \"#utility.yul\":6405:6425   */\n      tag_418\n        /* \"#utility.yul\":6423:6424   */\n      dup3\n        /* \"#utility.yul\":6405:6425   */\n      tag_314\n      jump\t// in\n    tag_418:\n        /* \"#utility.yul\":6400:6425   */\n      swap2\n      pop\n        /* \"#utility.yul\":6439:6459   */\n      tag_419\n        /* \"#utility.yul\":6457:6458   */\n      dup4\n        /* \"#utility.yul\":6439:6459   */\n      tag_314\n      jump\t// in\n    tag_419:\n        /* \"#utility.yul\":6434:6459   */\n      swap3\n      pop\n        /* \"#utility.yul\":6494:6495   */\n      dup3\n        /* \"#utility.yul\":6491:6492   */\n      dup3\n        /* \"#utility.yul\":6487:6496   */\n      mul\n        /* \"#utility.yul\":6516:6546   */\n      tag_420\n        /* \"#utility.yul\":6534:6545   */\n      dup2\n        /* \"#utility.yul\":6516:6546   */\n      tag_314\n      jump\t// in\n    tag_420:\n        /* \"#utility.yul\":6505:6546   */\n      swap2\n      pop\n        /* \"#utility.yul\":6695:6696   */\n      dup3\n        /* \"#utility.yul\":6686:6693   */\n      dup3\n        /* \"#utility.yul\":6682:6697   */\n      div\n        /* \"#utility.yul\":6679:6680   */\n      dup5\n        /* \"#utility.yul\":6676:6698   */\n      eq\n        /* \"#utility.yul\":6656:6657   */\n      dup4\n        /* \"#utility.yul\":6649:6658   */\n      iszero\n        /* \"#utility.yul\":6629:6712   */\n      or\n        /* \"#utility.yul\":6606:6745   */\n      tag_421\n      jumpi\n        /* \"#utility.yul\":6725:6743   */\n      tag_422\n      tag_333\n      jump\t// in\n    tag_422:\n        /* \"#utility.yul\":6606:6745   */\n    tag_421:\n        /* \"#utility.yul\":6390:6752   */\n      pop\n        /* \"#utility.yul\":6342:6752   */\n      swap3\n      swap2\n      pop\n      pop\n      jump\t// out\n        /* \"#utility.yul\":6758:6938   */\n    tag_335:\n        /* \"#utility.yul\":6806:6883   */\n      0x4e487b7100000000000000000000000000000000000000000000000000000000\n        /* \"#utility.yul\":6803:6804   */\n      0x00\n        /* \"#utility.yul\":6796:6884   */\n      mstore\n        /* \"#utility.yul\":6903:6907   */\n      0x12\n        /* \"#utility.yul\":6900:6901   */\n      0x04\n        /* \"#utility.yul\":6893:6908   */\n      mstore\n        /* \"#utility.yul\":6927:6931   */\n      0x24\n        /* \"#utility.yul\":6924:6925   */\n      0x00\n        /* \"#utility.yul\":6917:6932   */\n      revert\n        /* \"#utility.yul\":6944:7129   */\n    tag_258:\n        /* \"#utility.yul\":6984:6985   */\n      0x00\n        /* \"#utility.yul\":7001:7021   */\n      tag_425\n        /* \"#utility.yul\":7019:7020   */\n      dup3\n        /* \"#utility.yul\":7001:7021   */\n      tag_314\n      jump\t// in\n    tag_425:\n        /* \"#utility.yul\":6996:7021   */\n      swap2\n      pop\n        /* \"#utility.yul\":7035:7055   */\n      tag_426\n        /* \"#utility.yul\":7053:7054   */\n      dup4\n        /* \"#utility.yul\":7035:7055   */\n      tag_314\n      jump\t// in\n    tag_426:\n        /* \"#utility.yul\":7030:7055   */\n      swap3\n      pop\n        /* \"#utility.yul\":7074:7075   */\n      dup3\n        /* \"#utility.yul\":7064:7099   */\n      tag_427\n      jumpi\n        /* \"#utility.yul\":7079:7097   */\n      tag_428\n      tag_335\n      jump\t// in\n    tag_428:\n        /* \"#utility.yul\":7064:7099   */\n    tag_427:\n        /* \"#utility.yul\":7121:7122   */\n      dup3\n        /* \"#utility.yul\":7118:7119   */\n      dup3\n        /* \"#utility.yul\":7114:7123   */\n      div\n        /* \"#utility.yul\":7109:7123   */\n      swap1\n      pop\n        /* \"#utility.yul\":6944:7129   */\n      swap3\n      swap2\n      pop\n      pop\n      jump\t// out\n\n    auxdata: 0xa26469706673582212205184ad80737f572087165ab3d502eea0d2f9b81bc6b559e5ea39fccf77b003c664736f6c63430008180033\n}\n",
				"bytecode": {
					"linkReferences": {},
					"object": "60806040526201518060035562107ac060055561271060065561138860075560036008555f60095f6101000a81548160ff021916908315150217905550348015610047575f80fd5b50335f806101000a81548173ffffffffffffffffffffffffffffffffffffffff021916908373ffffffffffffffffffffffffffffffffffffffff16021790555033600960016101000a81548173ffffffffffffffffffffffffffffffffffffffff021916908373ffffffffffffffffffffffffffffffffffffffff160217905550611cbb806100d55f395ff3fe608060405260043610610134575f3560e01c80636dc39ec8116100aa57806397d757761161006e57806397d7577614610413578063e39316071461043d578063eaca243b14610453578063f2e809e01461047b578063f2fde38b146104a3578063f36f7c62146104cb57610134565b80636dc39ec814610350578063715018a61461038d57806388bedf91146103a35780638da5cb5b146103bf5780638f32d59b146103e957610134565b8063450c9d7d116100fc578063450c9d7d146101fa5780634ad47291146102365780634addc0e8146102725780634b634b061461029c57806351546044146102d85780636bd229621461031457610134565b806312065fe014610138578063224e80fc1461016257806323084e5f1461019e5780633c5f07cb146101b457806344bb9117146101be575b5f80fd5b348015610143575f80fd5b5061014c610507565b6040516101599190611896565b60405180910390f35b34801561016d575f80fd5b506101886004803603810190610183919061190d565b61050e565b6040516101959190611896565b60405180910390f35b3480156101a9575f80fd5b506101b2610565565b005b6101bc6106d7565b005b3480156101c9575f80fd5b506101e460048036038101906101df9190611962565b61071c565b6040516101f19190611896565b60405180910390f35b348015610205575f80fd5b50610220600480360381019061021b919061190d565b610731565b60405161022d9190611896565b60405180910390f35b348015610241575f80fd5b5061025c6004803603810190610257919061198d565b610754565b6040516102699190611896565b60405180910390f35b34801561027d575f80fd5b5061028661076a565b6040516102939190611896565b60405180910390f35b3480156102a7575f80fd5b506102c260048036038101906102bd919061190d565b610770565b6040516102cf9190611896565b60405180910390f35b3480156102e3575f80fd5b506102fe60048036038101906102f99190611962565b6107b6565b60405161030b9190611896565b60405180910390f35b34801561031f575f80fd5b5061033a6004803603810190610335919061190d565b6107c8565b6040516103479190611896565b60405180910390f35b34801561035b575f80fd5b5061037660048036038101906103719190611962565b610901565b6040516103849291906119da565b60405180910390f35b348015610398575f80fd5b506103a16109a8565b005b6103bd60048036038101906103b8919061190d565b610a5b565b005b3480156103ca575f80fd5b506103d3610b42565b6040516103e09190611a01565b60405180910390f35b3480156103f4575f80fd5b506103fd610b69565b60405161040a9190611a34565b60405180910390f35b34801561041e575f80fd5b50610427610bbe565b6040516104349190611aa8565b60405180910390f35b348015610448575f80fd5b50610451610be3565b005b34801561045e575f80fd5b5061047960048036038101906104749190611962565b610d34565b005b348015610486575f80fd5b506104a1600480360381019061049c919061190d565b610d4e565b005b3480156104ae575f80fd5b506104c960048036038101906104c4919061190d565b610e68565b005b3480156104d6575f80fd5b506104f160048036038101906104ec919061190d565b610e84565b6040516104fe9190611896565b60405180910390f35b5f47905090565b5f61055e600b5f8473ffffffffffffffffffffffffffffffffffffffff1673ffffffffffffffffffffffffffffffffffffffff1681526020019081526020015f2054610559846107c8565b610eca565b9050919050565b5f3390505f60025f8373ffffffffffffffffffffffffffffffffffffffff1673ffffffffffffffffffffffffffffffffffffffff1681526020019081526020015f2054905042600354826105b99190611aee565b10156105c65750506106d5565b4260025f8473ffffffffffffffffffffffffffffffffffffffff1673ffffffffffffffffffffffffffffffffffffffff1681526020019081526020015f20819055505f60015f9054906101000a900473ffffffffffffffffffffffffffffffffffffffff1673ffffffffffffffffffffffffffffffffffffffff1663954fa5ee30856040518363ffffffff1660e01b8152600401610665929190611b21565b6020604051808303815f875af1158015610681573d5f803e3d5ffd5b505050506040513d601f19601f820116820180604052508101906106a59190611b5c565b90505f8111156106d1578060045f8282546106c09190611aee565b925050819055506106d081610edf565b5b5050505b565b6106df610b69565b6106e7575f80fd5b5f600e54146106f4575f80fd5b600160095f6101000a81548160ff0219169083151502179055506419254d3800600e81905550565b5f61072a82600e5447610eeb565b9050919050565b5f8061073c8361050e565b90505f6107488261071c565b90508092505050919050565b5f6107628383600e54610eeb565b905092915050565b60035481565b5f600a5f8373ffffffffffffffffffffffffffffffffffffffff1673ffffffffffffffffffffffffffffffffffffffff1681526020019081526020015f20549050919050565b5f6107c18247610754565b9050919050565b5f8061081c60055461081742600c5f8873ffffffffffffffffffffffffffffffffffffffff1673ffffffffffffffffffffffffffffffffffffffff1681526020019081526020015f2054610f3d565b610f52565b90505f600f5f8573ffffffffffffffffffffffffffffffffffffffff1673ffffffffffffffffffffffffffffffffffffffff1681526020019081526020015f205490505f610899610878606460c8610f6a90919063ffffffff16565b61088b8486610f6a90919063ffffffff16565b610f7f90919063ffffffff16565b90506108ae8184610eca90919063ffffffff16565b92506108f783600a5f8873ffffffffffffffffffffffffffffffffffffffff1673ffffffffffffffffffffffffffffffffffffffff1681526020019081526020015f2054610f6a565b9350505050919050565b5f80601280549050831061091a575f80915091506109a3565b5f6012848154811061092f5761092e611b87565b5b905f5260205f20015f9054906101000a900473ffffffffffffffffffffffffffffffffffffffff1690505f600b5f8373ffffffffffffffffffffffffffffffffffffffff1673ffffffffffffffffffffffffffffffffffffffff1681526020019081526020015f2054905081819350935050505b915091565b6109b0610b69565b6109b8575f80fd5b5f8054906101000a900473ffffffffffffffffffffffffffffffffffffffff1673ffffffffffffffffffffffffffffffffffffffff167ff8df31144d9c2f0f6b59d69b8b98abd5459d07f2742c4df920b25aae33c6482060405160405180910390a25f805f6101000a81548173ffffffffffffffffffffffffffffffffffffffff021916908373ffffffffffffffffffffffffffffffffffffffff160217905550565b60095f9054906101000a900460ff16610a72575f80fd5b5f610a8634610a814734610f3d565b610754565b9050610a9a81610a9583610f94565b610f3d565b90505f610aa634610f94565b9050600960019054906101000a900473ffffffffffffffffffffffffffffffffffffffff1673ffffffffffffffffffffffffffffffffffffffff166108fc8290811502906040515f60405180830381858888f19350505050158015610b0d573d5f803e3d5ffd5b50610b183383610fb2565b610b22833461100f565b670de0b6b3a76400003410610b3d57610b3c3360c86113af565b5b505050565b5f805f9054906101000a900473ffffffffffffffffffffffffffffffffffffffff16905090565b5f805f9054906101000a900473ffffffffffffffffffffffffffffffffffffffff1673ffffffffffffffffffffffffffffffffffffffff163373ffffffffffffffffffffffffffffffffffffffff1614905090565b60015f9054906101000a900473ffffffffffffffffffffffffffffffffffffffff1681565b60095f9054906101000a900460ff16610bfa575f80fd5b5f610c043361050e565b90505f610c108261071c565b90505f610c1c82610f94565b9050610c28335f611459565b42600c5f3373ffffffffffffffffffffffffffffffffffffffff1673ffffffffffffffffffffffffffffffffffffffff1681526020019081526020015f2081905550610c76600e5484610eca565b600e81905550600960019054906101000a900473ffffffffffffffffffffffffffffffffffffffff1673ffffffffffffffffffffffffffffffffffffffff166108fc8290811502906040515f60405180830381858888f19350505050158015610ce1573d5f803e3d5ffd5b503373ffffffffffffffffffffffffffffffffffffffff166108fc610d068484610f3d565b90811502906040515f60405180830381858888f19350505050158015610d2e573d5f803e3d5ffd5b50505050565b610d3c610b69565b610d44575f80fd5b8060038190555050565b610d56610b69565b610d5e575f80fd5b5f73ffffffffffffffffffffffffffffffffffffffff168173ffffffffffffffffffffffffffffffffffffffff1603610da95773430000000000000000000000000000000000000290505b8060015f6101000a81548173ffffffffffffffffffffffffffffffffffffffff021916908373ffffffffffffffffffffffffffffffffffffffff16021790555060015f9054906101000a900473ffffffffffffffffffffffffffffffffffffffff1673ffffffffffffffffffffffffffffffffffffffff16634e606c476040518163ffffffff1660e01b81526004015f604051808303815f87803b158015610e4f575f80fd5b505af1158015610e61573d5f803e3d5ffd5b5050505050565b610e70610b69565b610e78575f80fd5b610e81816115aa565b50565b5f600f5f8373ffffffffffffffffffffffffffffffffffffffff1673ffffffffffffffffffffffffffffffffffffffff1681526020019081526020015f20549050919050565b5f8183610ed79190611aee565b905092915050565b610ee88161169c565b50565b5f610f34610efb60065484610f6a565b610f2f600754610f2a610f24610f136006548a610f6a565b610f1f6007548c610f6a565b610eca565b89610f7f565b610eca565b610f7f565b90509392505050565b5f8183610f4a9190611bb4565b905092915050565b5f818310610f605781610f62565b825b905092915050565b5f8183610f779190611be7565b905092915050565b5f8183610f8c9190611c55565b905092915050565b5f610fab610fa483600854610f6a565b6064610f7f565b9050919050565b61100b8261100683600b5f8773ffffffffffffffffffffffffffffffffffffffff1673ffffffffffffffffffffffffffffffffffffffff1681526020019081526020015f2054610eca90919063ffffffff16565b611459565b5050565b60095f9054906101000a900460ff16611026575f80fd5b3373ffffffffffffffffffffffffffffffffffffffff168273ffffffffffffffffffffffffffffffffffffffff160361105d575f91505b5f73ffffffffffffffffffffffffffffffffffffffff16600d5f3373ffffffffffffffffffffffffffffffffffffffff1673ffffffffffffffffffffffffffffffffffffffff1681526020019081526020015f205f9054906101000a900473ffffffffffffffffffffffffffffffffffffffff1673ffffffffffffffffffffffffffffffffffffffff1614801561117c57503373ffffffffffffffffffffffffffffffffffffffff16600d5f3373ffffffffffffffffffffffffffffffffffffffff1673ffffffffffffffffffffffffffffffffffffffff1681526020019081526020015f205f9054906101000a900473ffffffffffffffffffffffffffffffffffffffff1673ffffffffffffffffffffffffffffffffffffffff1614155b156112385781600d5f3373ffffffffffffffffffffffffffffffffffffffff1673ffffffffffffffffffffffffffffffffffffffff1681526020019081526020015f205f6101000a81548173ffffffffffffffffffffffffffffffffffffffff021916908373ffffffffffffffffffffffffffffffffffffffff160217905550670de0b6b3a7640000811061121b576112168260c86113af565b611237565b67016345785d8a00008110611236576112358260286113af565b5b5b5b5f6112423361050e565b90505f61125182600554610f7f565b905061129a600a5f3373ffffffffffffffffffffffffffffffffffffffff1673ffffffffffffffffffffffffffffffffffffffff1681526020019081526020015f205482610eca565b600a5f3373ffffffffffffffffffffffffffffffffffffffff1673ffffffffffffffffffffffffffffffffffffffff1681526020019081526020015f20819055506112e5335f611459565b42600c5f3373ffffffffffffffffffffffffffffffffffffffff1673ffffffffffffffffffffffffffffffffffffffff1681526020019081526020015f208190555061138d600d5f3373ffffffffffffffffffffffffffffffffffffffff1673ffffffffffffffffffffffffffffffffffffffff1681526020019081526020015f205f9054906101000a900473ffffffffffffffffffffffffffffffffffffffff1683611781565b6113a3600e5461139e846005610f7f565b610eca565b600e8190555050505050565b5f61140082600f5f8673ffffffffffffffffffffffffffffffffffffffff1673ffffffffffffffffffffffffffffffffffffffff1681526020019081526020015f2054610eca90919063ffffffff16565b90506127108111156114125761271090505b80600f5f8573ffffffffffffffffffffffffffffffffffffffff1673ffffffffffffffffffffffffffffffffffffffff1681526020019081526020015f2081905550505050565b6001151560115f8473ffffffffffffffffffffffffffffffffffffffff1673ffffffffffffffffffffffffffffffffffffffff1681526020019081526020015f205f9054906101000a900460ff1615151461156457601082908060018154018082558091505060019003905f5260205f20015f9091909190916101000a81548173ffffffffffffffffffffffffffffffffffffffff021916908373ffffffffffffffffffffffffffffffffffffffff160217905550600160115f8473ffffffffffffffffffffffffffffffffffffffff1673ffffffffffffffffffffffffffffffffffffffff1681526020019081526020015f205f6101000a81548160ff0219169083151502179055505b80600b5f8473ffffffffffffffffffffffffffffffffffffffff1673ffffffffffffffffffffffffffffffffffffffff1681526020019081526020015f20819055505050565b5f73ffffffffffffffffffffffffffffffffffffffff168173ffffffffffffffffffffffffffffffffffffffff16036115e1575f80fd5b8073ffffffffffffffffffffffffffffffffffffffff165f8054906101000a900473ffffffffffffffffffffffffffffffffffffffff1673ffffffffffffffffffffffffffffffffffffffff167f8be0079c531659141344cd1fd0a4f28419497f9722a3daafe3b4186f6b6457e060405160405180910390a3805f806101000a81548173ffffffffffffffffffffffffffffffffffffffff021916908373ffffffffffffffffffffffffffffffffffffffff16021790555050565b5f81111561177e575f805f5b60108054905081101561177a57601081815481106116c9576116c8611b87565b5b905f5260205f20015f9054906101000a900473ffffffffffffffffffffffffffffffffffffffff169250611757600e54611749600b5f8773ffffffffffffffffffffffffffffffffffffffff1673ffffffffffffffffffffffffffffffffffffffff1681526020019081526020015f205487610f6a90919063ffffffff16565b610f7f90919063ffffffff16565b91505f82111561176d5761176b8383611831565b505b80806001019150506116a8565b5050505b50565b5f600f5f8473ffffffffffffffffffffffffffffffffffffffff1673ffffffffffffffffffffffffffffffffffffffff1681526020019081526020015f205490505f6117ea60c86117dc601085610f6a90919063ffffffff16565b610f7f90919063ffffffff16565b90505f816130d46117fb9190611aee565b90505f61181d620186a061180f8785610f6a565b610f7f90919063ffffffff16565b90506118298682610fb2565b505050505050565b5f8273ffffffffffffffffffffffffffffffffffffffff166108fc8390811502906040515f60405180830381858888f19350505050156118745760019050611878565b5f90505b92915050565b5f819050919050565b6118908161187e565b82525050565b5f6020820190506118a95f830184611887565b92915050565b5f80fd5b5f73ffffffffffffffffffffffffffffffffffffffff82169050919050565b5f6118dc826118b3565b9050919050565b6118ec816118d2565b81146118f6575f80fd5b50565b5f81359050611907816118e3565b92915050565b5f60208284031215611922576119216118af565b5b5f61192f848285016118f9565b91505092915050565b6119418161187e565b811461194b575f80fd5b50565b5f8135905061195c81611938565b92915050565b5f60208284031215611977576119766118af565b5b5f6119848482850161194e565b91505092915050565b5f80604083850312156119a3576119a26118af565b5b5f6119b08582860161194e565b92505060206119c18582860161194e565b9150509250929050565b6119d4816118d2565b82525050565b5f6040820190506119ed5f8301856119cb565b6119fa6020830184611887565b9392505050565b5f602082019050611a145f8301846119cb565b92915050565b5f8115159050919050565b611a2e81611a1a565b82525050565b5f602082019050611a475f830184611a25565b92915050565b5f819050919050565b5f611a70611a6b611a66846118b3565b611a4d565b6118b3565b9050919050565b5f611a8182611a56565b9050919050565b5f611a9282611a77565b9050919050565b611aa281611a88565b82525050565b5f602082019050611abb5f830184611a99565b92915050565b7f4e487b71000000000000000000000000000000000000000000000000000000005f52601160045260245ffd5b5f611af88261187e565b9150611b038361187e565b9250828201905080821115611b1b57611b1a611ac1565b5b92915050565b5f604082019050611b345f8301856119cb565b611b4160208301846119cb565b9392505050565b5f81519050611b5681611938565b92915050565b5f60208284031215611b7157611b706118af565b5b5f611b7e84828501611b48565b91505092915050565b7f4e487b71000000000000000000000000000000000000000000000000000000005f52603260045260245ffd5b5f611bbe8261187e565b9150611bc98361187e565b9250828203905081811115611be157611be0611ac1565b5b92915050565b5f611bf18261187e565b9150611bfc8361187e565b9250828202611c0a8161187e565b91508282048414831517611c2157611c20611ac1565b5b5092915050565b7f4e487b71000000000000000000000000000000000000000000000000000000005f52601260045260245ffd5b5f611c5f8261187e565b9150611c6a8361187e565b925082611c7a57611c79611c28565b5b82820490509291505056fea26469706673582212205184ad80737f572087165ab3d502eea0d2f9b81bc6b559e5ea39fccf77b003c664736f6c63430008180033",
					"opcodes": "PUSH1 0x80 PUSH1 0x40 MSTORE PUSH3 0x15180 PUSH1 0x3 SSTORE PUSH3 0x107AC0 PUSH1 0x5 SSTORE PUSH2 0x2710 PUSH1 0x6 SSTORE PUSH2 0x1388 PUSH1 0x7 SSTORE PUSH1 0x3 PUSH1 0x8 SSTORE PUSH0 PUSH1 0x9 PUSH0 PUSH2 0x100 EXP DUP2 SLOAD DUP2 PUSH1 0xFF MUL NOT AND SWAP1 DUP4 ISZERO ISZERO MUL OR SWAP1 SSTORE POP CALLVALUE DUP1 ISZERO PUSH2 0x47 JUMPI PUSH0 DUP1 REVERT JUMPDEST POP CALLER PUSH0 DUP1 PUSH2 0x100 EXP DUP2 SLOAD DUP2 PUSH20 0xFFFFFFFFFFFFFFFFFFFFFFFFFFFFFFFFFFFFFFFF MUL NOT AND SWAP1 DUP4 PUSH20 0xFFFFFFFFFFFFFFFFFFFFFFFFFFFFFFFFFFFFFFFF AND MUL OR SWAP1 SSTORE POP CALLER PUSH1 0x9 PUSH1 0x1 PUSH2 0x100 EXP DUP2 SLOAD DUP2 PUSH20 0xFFFFFFFFFFFFFFFFFFFFFFFFFFFFFFFFFFFFFFFF MUL NOT AND SWAP1 DUP4 PUSH20 0xFFFFFFFFFFFFFFFFFFFFFFFFFFFFFFFFFFFFFFFF AND MUL OR SWAP1 SSTORE POP PUSH2 0x1CBB DUP1 PUSH2 0xD5 PUSH0 CODECOPY PUSH0 RETURN INVALID PUSH1 0x80 PUSH1 0x40 MSTORE PUSH1 0x4 CALLDATASIZE LT PUSH2 0x134 JUMPI PUSH0 CALLDATALOAD PUSH1 0xE0 SHR DUP1 PUSH4 0x6DC39EC8 GT PUSH2 0xAA JUMPI DUP1 PUSH4 0x97D75776 GT PUSH2 0x6E JUMPI DUP1 PUSH4 0x97D75776 EQ PUSH2 0x413 JUMPI DUP1 PUSH4 0xE3931607 EQ PUSH2 0x43D JUMPI DUP1 PUSH4 0xEACA243B EQ PUSH2 0x453 JUMPI DUP1 PUSH4 0xF2E809E0 EQ PUSH2 0x47B JUMPI DUP1 PUSH4 0xF2FDE38B EQ PUSH2 0x4A3 JUMPI DUP1 PUSH4 0xF36F7C62 EQ PUSH2 0x4CB JUMPI PUSH2 0x134 JUMP JUMPDEST DUP1 PUSH4 0x6DC39EC8 EQ PUSH2 0x350 JUMPI DUP1 PUSH4 0x715018A6 EQ PUSH2 0x38D JUMPI DUP1 PUSH4 0x88BEDF91 EQ PUSH2 0x3A3 JUMPI DUP1 PUSH4 0x8DA5CB5B EQ PUSH2 0x3BF JUMPI DUP1 PUSH4 0x8F32D59B EQ PUSH2 0x3E9 JUMPI PUSH2 0x134 JUMP JUMPDEST DUP1 PUSH4 0x450C9D7D GT PUSH2 0xFC JUMPI DUP1 PUSH4 0x450C9D7D EQ PUSH2 0x1FA JUMPI DUP1 PUSH4 0x4AD47291 EQ PUSH2 0x236 JUMPI DUP1 PUSH4 0x4ADDC0E8 EQ PUSH2 0x272 JUMPI DUP1 PUSH4 0x4B634B06 EQ PUSH2 0x29C JUMPI DUP1 PUSH4 0x51546044 EQ PUSH2 0x2D8 JUMPI DUP1 PUSH4 0x6BD22962 EQ PUSH2 0x314 JUMPI PUSH2 0x134 JUMP JUMPDEST DUP1 PUSH4 0x12065FE0 EQ PUSH2 0x138 JUMPI DUP1 PUSH4 0x224E80FC EQ PUSH2 0x162 JUMPI DUP1 PUSH4 0x23084E5F EQ PUSH2 0x19E JUMPI DUP1 PUSH4 0x3C5F07CB EQ PUSH2 0x1B4 JUMPI DUP1 PUSH4 0x44BB9117 EQ PUSH2 0x1BE JUMPI JUMPDEST PUSH0 DUP1 REVERT JUMPDEST CALLVALUE DUP1 ISZERO PUSH2 0x143 JUMPI PUSH0 DUP1 REVERT JUMPDEST POP PUSH2 0x14C PUSH2 0x507 JUMP JUMPDEST PUSH1 0x40 MLOAD PUSH2 0x159 SWAP2 SWAP1 PUSH2 0x1896 JUMP JUMPDEST PUSH1 0x40 MLOAD DUP1 SWAP2 SUB SWAP1 RETURN JUMPDEST CALLVALUE DUP1 ISZERO PUSH2 0x16D JUMPI PUSH0 DUP1 REVERT JUMPDEST POP PUSH2 0x188 PUSH1 0x4 DUP1 CALLDATASIZE SUB DUP2 ADD SWAP1 PUSH2 0x183 SWAP2 SWAP1 PUSH2 0x190D JUMP JUMPDEST PUSH2 0x50E JUMP JUMPDEST PUSH1 0x40 MLOAD PUSH2 0x195 SWAP2 SWAP1 PUSH2 0x1896 JUMP JUMPDEST PUSH1 0x40 MLOAD DUP1 SWAP2 SUB SWAP1 RETURN JUMPDEST CALLVALUE DUP1 ISZERO PUSH2 0x1A9 JUMPI PUSH0 DUP1 REVERT JUMPDEST POP PUSH2 0x1B2 PUSH2 0x565 JUMP JUMPDEST STOP JUMPDEST PUSH2 0x1BC PUSH2 0x6D7 JUMP JUMPDEST STOP JUMPDEST CALLVALUE DUP1 ISZERO PUSH2 0x1C9 JUMPI PUSH0 DUP1 REVERT JUMPDEST POP PUSH2 0x1E4 PUSH1 0x4 DUP1 CALLDATASIZE SUB DUP2 ADD SWAP1 PUSH2 0x1DF SWAP2 SWAP1 PUSH2 0x1962 JUMP JUMPDEST PUSH2 0x71C JUMP JUMPDEST PUSH1 0x40 MLOAD PUSH2 0x1F1 SWAP2 SWAP1 PUSH2 0x1896 JUMP JUMPDEST PUSH1 0x40 MLOAD DUP1 SWAP2 SUB SWAP1 RETURN JUMPDEST CALLVALUE DUP1 ISZERO PUSH2 0x205 JUMPI PUSH0 DUP1 REVERT JUMPDEST POP PUSH2 0x220 PUSH1 0x4 DUP1 CALLDATASIZE SUB DUP2 ADD SWAP1 PUSH2 0x21B SWAP2 SWAP1 PUSH2 0x190D JUMP JUMPDEST PUSH2 0x731 JUMP JUMPDEST PUSH1 0x40 MLOAD PUSH2 0x22D SWAP2 SWAP1 PUSH2 0x1896 JUMP JUMPDEST PUSH1 0x40 MLOAD DUP1 SWAP2 SUB SWAP1 RETURN JUMPDEST CALLVALUE DUP1 ISZERO PUSH2 0x241 JUMPI PUSH0 DUP1 REVERT JUMPDEST POP PUSH2 0x25C PUSH1 0x4 DUP1 CALLDATASIZE SUB DUP2 ADD SWAP1 PUSH2 0x257 SWAP2 SWAP1 PUSH2 0x198D JUMP JUMPDEST PUSH2 0x754 JUMP JUMPDEST PUSH1 0x40 MLOAD PUSH2 0x269 SWAP2 SWAP1 PUSH2 0x1896 JUMP JUMPDEST PUSH1 0x40 MLOAD DUP1 SWAP2 SUB SWAP1 RETURN JUMPDEST CALLVALUE DUP1 ISZERO PUSH2 0x27D JUMPI PUSH0 DUP1 REVERT JUMPDEST POP PUSH2 0x286 PUSH2 0x76A JUMP JUMPDEST PUSH1 0x40 MLOAD PUSH2 0x293 SWAP2 SWAP1 PUSH2 0x1896 JUMP JUMPDEST PUSH1 0x40 MLOAD DUP1 SWAP2 SUB SWAP1 RETURN JUMPDEST CALLVALUE DUP1 ISZERO PUSH2 0x2A7 JUMPI PUSH0 DUP1 REVERT JUMPDEST POP PUSH2 0x2C2 PUSH1 0x4 DUP1 CALLDATASIZE SUB DUP2 ADD SWAP1 PUSH2 0x2BD SWAP2 SWAP1 PUSH2 0x190D JUMP JUMPDEST PUSH2 0x770 JUMP JUMPDEST PUSH1 0x40 MLOAD PUSH2 0x2CF SWAP2 SWAP1 PUSH2 0x1896 JUMP JUMPDEST PUSH1 0x40 MLOAD DUP1 SWAP2 SUB SWAP1 RETURN JUMPDEST CALLVALUE DUP1 ISZERO PUSH2 0x2E3 JUMPI PUSH0 DUP1 REVERT JUMPDEST POP PUSH2 0x2FE PUSH1 0x4 DUP1 CALLDATASIZE SUB DUP2 ADD SWAP1 PUSH2 0x2F9 SWAP2 SWAP1 PUSH2 0x1962 JUMP JUMPDEST PUSH2 0x7B6 JUMP JUMPDEST PUSH1 0x40 MLOAD PUSH2 0x30B SWAP2 SWAP1 PUSH2 0x1896 JUMP JUMPDEST PUSH1 0x40 MLOAD DUP1 SWAP2 SUB SWAP1 RETURN JUMPDEST CALLVALUE DUP1 ISZERO PUSH2 0x31F JUMPI PUSH0 DUP1 REVERT JUMPDEST POP PUSH2 0x33A PUSH1 0x4 DUP1 CALLDATASIZE SUB DUP2 ADD SWAP1 PUSH2 0x335 SWAP2 SWAP1 PUSH2 0x190D JUMP JUMPDEST PUSH2 0x7C8 JUMP JUMPDEST PUSH1 0x40 MLOAD PUSH2 0x347 SWAP2 SWAP1 PUSH2 0x1896 JUMP JUMPDEST PUSH1 0x40 MLOAD DUP1 SWAP2 SUB SWAP1 RETURN JUMPDEST CALLVALUE DUP1 ISZERO PUSH2 0x35B JUMPI PUSH0 DUP1 REVERT JUMPDEST POP PUSH2 0x376 PUSH1 0x4 DUP1 CALLDATASIZE SUB DUP2 ADD SWAP1 PUSH2 0x371 SWAP2 SWAP1 PUSH2 0x1962 JUMP JUMPDEST PUSH2 0x901 JUMP JUMPDEST PUSH1 0x40 MLOAD PUSH2 0x384 SWAP3 SWAP2 SWAP1 PUSH2 0x19DA JUMP JUMPDEST PUSH1 0x40 MLOAD DUP1 SWAP2 SUB SWAP1 RETURN JUMPDEST CALLVALUE DUP1 ISZERO PUSH2 0x398 JUMPI PUSH0 DUP1 REVERT JUMPDEST POP PUSH2 0x3A1 PUSH2 0x9A8 JUMP JUMPDEST STOP JUMPDEST PUSH2 0x3BD PUSH1 0x4 DUP1 CALLDATASIZE SUB DUP2 ADD SWAP1 PUSH2 0x3B8 SWAP2 SWAP1 PUSH2 0x190D JUMP JUMPDEST PUSH2 0xA5B JUMP JUMPDEST STOP JUMPDEST CALLVALUE DUP1 ISZERO PUSH2 0x3CA JUMPI PUSH0 DUP1 REVERT JUMPDEST POP PUSH2 0x3D3 PUSH2 0xB42 JUMP JUMPDEST PUSH1 0x40 MLOAD PUSH2 0x3E0 SWAP2 SWAP1 PUSH2 0x1A01 JUMP JUMPDEST PUSH1 0x40 MLOAD DUP1 SWAP2 SUB SWAP1 RETURN JUMPDEST CALLVALUE DUP1 ISZERO PUSH2 0x3F4 JUMPI PUSH0 DUP1 REVERT JUMPDEST POP PUSH2 0x3FD PUSH2 0xB69 JUMP JUMPDEST PUSH1 0x40 MLOAD PUSH2 0x40A SWAP2 SWAP1 PUSH2 0x1A34 JUMP JUMPDEST PUSH1 0x40 MLOAD DUP1 SWAP2 SUB SWAP1 RETURN JUMPDEST CALLVALUE DUP1 ISZERO PUSH2 0x41E JUMPI PUSH0 DUP1 REVERT JUMPDEST POP PUSH2 0x427 PUSH2 0xBBE JUMP JUMPDEST PUSH1 0x40 MLOAD PUSH2 0x434 SWAP2 SWAP1 PUSH2 0x1AA8 JUMP JUMPDEST PUSH1 0x40 MLOAD DUP1 SWAP2 SUB SWAP1 RETURN JUMPDEST CALLVALUE DUP1 ISZERO PUSH2 0x448 JUMPI PUSH0 DUP1 REVERT JUMPDEST POP PUSH2 0x451 PUSH2 0xBE3 JUMP JUMPDEST STOP JUMPDEST CALLVALUE DUP1 ISZERO PUSH2 0x45E JUMPI PUSH0 DUP1 REVERT JUMPDEST POP PUSH2 0x479 PUSH1 0x4 DUP1 CALLDATASIZE SUB DUP2 ADD SWAP1 PUSH2 0x474 SWAP2 SWAP1 PUSH2 0x1962 JUMP JUMPDEST PUSH2 0xD34 JUMP JUMPDEST STOP JUMPDEST CALLVALUE DUP1 ISZERO PUSH2 0x486 JUMPI PUSH0 DUP1 REVERT JUMPDEST POP PUSH2 0x4A1 PUSH1 0x4 DUP1 CALLDATASIZE SUB DUP2 ADD SWAP1 PUSH2 0x49C SWAP2 SWAP1 PUSH2 0x190D JUMP JUMPDEST PUSH2 0xD4E JUMP JUMPDEST STOP JUMPDEST CALLVALUE DUP1 ISZERO PUSH2 0x4AE JUMPI PUSH0 DUP1 REVERT JUMPDEST POP PUSH2 0x4C9 PUSH1 0x4 DUP1 CALLDATASIZE SUB DUP2 ADD SWAP1 PUSH2 0x4C4 SWAP2 SWAP1 PUSH2 0x190D JUMP JUMPDEST PUSH2 0xE68 JUMP JUMPDEST STOP JUMPDEST CALLVALUE DUP1 ISZERO PUSH2 0x4D6 JUMPI PUSH0 DUP1 REVERT JUMPDEST POP PUSH2 0x4F1 PUSH1 0x4 DUP1 CALLDATASIZE SUB DUP2 ADD SWAP1 PUSH2 0x4EC SWAP2 SWAP1 PUSH2 0x190D JUMP JUMPDEST PUSH2 0xE84 JUMP JUMPDEST PUSH1 0x40 MLOAD PUSH2 0x4FE SWAP2 SWAP1 PUSH2 0x1896 JUMP JUMPDEST PUSH1 0x40 MLOAD DUP1 SWAP2 SUB SWAP1 RETURN JUMPDEST PUSH0 SELFBALANCE SWAP1 POP SWAP1 JUMP JUMPDEST PUSH0 PUSH2 0x55E PUSH1 0xB PUSH0 DUP5 PUSH20 0xFFFFFFFFFFFFFFFFFFFFFFFFFFFFFFFFFFFFFFFF AND PUSH20 0xFFFFFFFFFFFFFFFFFFFFFFFFFFFFFFFFFFFFFFFF AND DUP2 MSTORE PUSH1 0x20 ADD SWAP1 DUP2 MSTORE PUSH1 0x20 ADD PUSH0 KECCAK256 SLOAD PUSH2 0x559 DUP5 PUSH2 0x7C8 JUMP JUMPDEST PUSH2 0xECA JUMP JUMPDEST SWAP1 POP SWAP2 SWAP1 POP JUMP JUMPDEST PUSH0 CALLER SWAP1 POP PUSH0 PUSH1 0x2 PUSH0 DUP4 PUSH20 0xFFFFFFFFFFFFFFFFFFFFFFFFFFFFFFFFFFFFFFFF AND PUSH20 0xFFFFFFFFFFFFFFFFFFFFFFFFFFFFFFFFFFFFFFFF AND DUP2 MSTORE PUSH1 0x20 ADD SWAP1 DUP2 MSTORE PUSH1 0x20 ADD PUSH0 KECCAK256 SLOAD SWAP1 POP TIMESTAMP PUSH1 0x3 SLOAD DUP3 PUSH2 0x5B9 SWAP2 SWAP1 PUSH2 0x1AEE JUMP JUMPDEST LT ISZERO PUSH2 0x5C6 JUMPI POP POP PUSH2 0x6D5 JUMP JUMPDEST TIMESTAMP PUSH1 0x2 PUSH0 DUP5 PUSH20 0xFFFFFFFFFFFFFFFFFFFFFFFFFFFFFFFFFFFFFFFF AND PUSH20 0xFFFFFFFFFFFFFFFFFFFFFFFFFFFFFFFFFFFFFFFF AND DUP2 MSTORE PUSH1 0x20 ADD SWAP1 DUP2 MSTORE PUSH1 0x20 ADD PUSH0 KECCAK256 DUP2 SWAP1 SSTORE POP PUSH0 PUSH1 0x1 PUSH0 SWAP1 SLOAD SWAP1 PUSH2 0x100 EXP SWAP1 DIV PUSH20 0xFFFFFFFFFFFFFFFFFFFFFFFFFFFFFFFFFFFFFFFF AND PUSH20 0xFFFFFFFFFFFFFFFFFFFFFFFFFFFFFFFFFFFFFFFF AND PUSH4 0x954FA5EE ADDRESS DUP6 PUSH1 0x40 MLOAD DUP4 PUSH4 0xFFFFFFFF AND PUSH1 0xE0 SHL DUP2 MSTORE PUSH1 0x4 ADD PUSH2 0x665 SWAP3 SWAP2 SWAP1 PUSH2 0x1B21 JUMP JUMPDEST PUSH1 0x20 PUSH1 0x40 MLOAD DUP1 DUP4 SUB DUP2 PUSH0 DUP8 GAS CALL ISZERO DUP1 ISZERO PUSH2 0x681 JUMPI RETURNDATASIZE PUSH0 DUP1 RETURNDATACOPY RETURNDATASIZE PUSH0 REVERT JUMPDEST POP POP POP POP PUSH1 0x40 MLOAD RETURNDATASIZE PUSH1 0x1F NOT PUSH1 0x1F DUP3 ADD AND DUP3 ADD DUP1 PUSH1 0x40 MSTORE POP DUP2 ADD SWAP1 PUSH2 0x6A5 SWAP2 SWAP1 PUSH2 0x1B5C JUMP JUMPDEST SWAP1 POP PUSH0 DUP2 GT ISZERO PUSH2 0x6D1 JUMPI DUP1 PUSH1 0x4 PUSH0 DUP3 DUP3 SLOAD PUSH2 0x6C0 SWAP2 SWAP1 PUSH2 0x1AEE JUMP JUMPDEST SWAP3 POP POP DUP2 SWAP1 SSTORE POP PUSH2 0x6D0 DUP2 PUSH2 0xEDF JUMP JUMPDEST JUMPDEST POP POP POP JUMPDEST JUMP JUMPDEST PUSH2 0x6DF PUSH2 0xB69 JUMP JUMPDEST PUSH2 0x6E7 JUMPI PUSH0 DUP1 REVERT JUMPDEST PUSH0 PUSH1 0xE SLOAD EQ PUSH2 0x6F4 JUMPI PUSH0 DUP1 REVERT JUMPDEST PUSH1 0x1 PUSH1 0x9 PUSH0 PUSH2 0x100 EXP DUP2 SLOAD DUP2 PUSH1 0xFF MUL NOT AND SWAP1 DUP4 ISZERO ISZERO MUL OR SWAP1 SSTORE POP PUSH5 0x19254D3800 PUSH1 0xE DUP2 SWAP1 SSTORE POP JUMP JUMPDEST PUSH0 PUSH2 0x72A DUP3 PUSH1 0xE SLOAD SELFBALANCE PUSH2 0xEEB JUMP JUMPDEST SWAP1 POP SWAP2 SWAP1 POP JUMP JUMPDEST PUSH0 DUP1 PUSH2 0x73C DUP4 PUSH2 0x50E JUMP JUMPDEST SWAP1 POP PUSH0 PUSH2 0x748 DUP3 PUSH2 0x71C JUMP JUMPDEST SWAP1 POP DUP1 SWAP3 POP POP POP SWAP2 SWAP1 POP JUMP JUMPDEST PUSH0 PUSH2 0x762 DUP4 DUP4 PUSH1 0xE SLOAD PUSH2 0xEEB JUMP JUMPDEST SWAP1 POP SWAP3 SWAP2 POP POP JUMP JUMPDEST PUSH1 0x3 SLOAD DUP2 JUMP JUMPDEST PUSH0 PUSH1 0xA PUSH0 DUP4 PUSH20 0xFFFFFFFFFFFFFFFFFFFFFFFFFFFFFFFFFFFFFFFF AND PUSH20 0xFFFFFFFFFFFFFFFFFFFFFFFFFFFFFFFFFFFFFFFF AND DUP2 MSTORE PUSH1 0x20 ADD SWAP1 DUP2 MSTORE PUSH1 0x20 ADD PUSH0 KECCAK256 SLOAD SWAP1 POP SWAP2 SWAP1 POP JUMP JUMPDEST PUSH0 PUSH2 0x7C1 DUP3 SELFBALANCE PUSH2 0x754 JUMP JUMPDEST SWAP1 POP SWAP2 SWAP1 POP JUMP JUMPDEST PUSH0 DUP1 PUSH2 0x81C PUSH1 0x5 SLOAD PUSH2 0x817 TIMESTAMP PUSH1 0xC PUSH0 DUP9 PUSH20 0xFFFFFFFFFFFFFFFFFFFFFFFFFFFFFFFFFFFFFFFF AND PUSH20 0xFFFFFFFFFFFFFFFFFFFFFFFFFFFFFFFFFFFFFFFF AND DUP2 MSTORE PUSH1 0x20 ADD SWAP1 DUP2 MSTORE PUSH1 0x20 ADD PUSH0 KECCAK256 SLOAD PUSH2 0xF3D JUMP JUMPDEST PUSH2 0xF52 JUMP JUMPDEST SWAP1 POP PUSH0 PUSH1 0xF PUSH0 DUP6 PUSH20 0xFFFFFFFFFFFFFFFFFFFFFFFFFFFFFFFFFFFFFFFF AND PUSH20 0xFFFFFFFFFFFFFFFFFFFFFFFFFFFFFFFFFFFFFFFF AND DUP2 MSTORE PUSH1 0x20 ADD SWAP1 DUP2 MSTORE PUSH1 0x20 ADD PUSH0 KECCAK256 SLOAD SWAP1 POP PUSH0 PUSH2 0x899 PUSH2 0x878 PUSH1 0x64 PUSH1 0xC8 PUSH2 0xF6A SWAP1 SWAP2 SWAP1 PUSH4 0xFFFFFFFF AND JUMP JUMPDEST PUSH2 0x88B DUP5 DUP7 PUSH2 0xF6A SWAP1 SWAP2 SWAP1 PUSH4 0xFFFFFFFF AND JUMP JUMPDEST PUSH2 0xF7F SWAP1 SWAP2 SWAP1 PUSH4 0xFFFFFFFF AND JUMP JUMPDEST SWAP1 POP PUSH2 0x8AE DUP2 DUP5 PUSH2 0xECA SWAP1 SWAP2 SWAP1 PUSH4 0xFFFFFFFF AND JUMP JUMPDEST SWAP3 POP PUSH2 0x8F7 DUP4 PUSH1 0xA PUSH0 DUP9 PUSH20 0xFFFFFFFFFFFFFFFFFFFFFFFFFFFFFFFFFFFFFFFF AND PUSH20 0xFFFFFFFFFFFFFFFFFFFFFFFFFFFFFFFFFFFFFFFF AND DUP2 MSTORE PUSH1 0x20 ADD SWAP1 DUP2 MSTORE PUSH1 0x20 ADD PUSH0 KECCAK256 SLOAD PUSH2 0xF6A JUMP JUMPDEST SWAP4 POP POP POP POP SWAP2 SWAP1 POP JUMP JUMPDEST PUSH0 DUP1 PUSH1 0x12 DUP1 SLOAD SWAP1 POP DUP4 LT PUSH2 0x91A JUMPI PUSH0 DUP1 SWAP2 POP SWAP2 POP PUSH2 0x9A3 JUMP JUMPDEST PUSH0 PUSH1 0x12 DUP5 DUP2 SLOAD DUP2 LT PUSH2 0x92F JUMPI PUSH2 0x92E PUSH2 0x1B87 JUMP JUMPDEST JUMPDEST SWAP1 PUSH0 MSTORE PUSH1 0x20 PUSH0 KECCAK256 ADD PUSH0 SWAP1 SLOAD SWAP1 PUSH2 0x100 EXP SWAP1 DIV PUSH20 0xFFFFFFFFFFFFFFFFFFFFFFFFFFFFFFFFFFFFFFFF AND SWAP1 POP PUSH0 PUSH1 0xB PUSH0 DUP4 PUSH20 0xFFFFFFFFFFFFFFFFFFFFFFFFFFFFFFFFFFFFFFFF AND PUSH20 0xFFFFFFFFFFFFFFFFFFFFFFFFFFFFFFFFFFFFFFFF AND DUP2 MSTORE PUSH1 0x20 ADD SWAP1 DUP2 MSTORE PUSH1 0x20 ADD PUSH0 KECCAK256 SLOAD SWAP1 POP DUP2 DUP2 SWAP4 POP SWAP4 POP POP POP JUMPDEST SWAP2 POP SWAP2 JUMP JUMPDEST PUSH2 0x9B0 PUSH2 0xB69 JUMP JUMPDEST PUSH2 0x9B8 JUMPI PUSH0 DUP1 REVERT JUMPDEST PUSH0 DUP1 SLOAD SWAP1 PUSH2 0x100 EXP SWAP1 DIV PUSH20 0xFFFFFFFFFFFFFFFFFFFFFFFFFFFFFFFFFFFFFFFF AND PUSH20 0xFFFFFFFFFFFFFFFFFFFFFFFFFFFFFFFFFFFFFFFF AND PUSH32 0xF8DF31144D9C2F0F6B59D69B8B98ABD5459D07F2742C4DF920B25AAE33C64820 PUSH1 0x40 MLOAD PUSH1 0x40 MLOAD DUP1 SWAP2 SUB SWAP1 LOG2 PUSH0 DUP1 PUSH0 PUSH2 0x100 EXP DUP2 SLOAD DUP2 PUSH20 0xFFFFFFFFFFFFFFFFFFFFFFFFFFFFFFFFFFFFFFFF MUL NOT AND SWAP1 DUP4 PUSH20 0xFFFFFFFFFFFFFFFFFFFFFFFFFFFFFFFFFFFFFFFF AND MUL OR SWAP1 SSTORE POP JUMP JUMPDEST PUSH1 0x9 PUSH0 SWAP1 SLOAD SWAP1 PUSH2 0x100 EXP SWAP1 DIV PUSH1 0xFF AND PUSH2 0xA72 JUMPI PUSH0 DUP1 REVERT JUMPDEST PUSH0 PUSH2 0xA86 CALLVALUE PUSH2 0xA81 SELFBALANCE CALLVALUE PUSH2 0xF3D JUMP JUMPDEST PUSH2 0x754 JUMP JUMPDEST SWAP1 POP PUSH2 0xA9A DUP2 PUSH2 0xA95 DUP4 PUSH2 0xF94 JUMP JUMPDEST PUSH2 0xF3D JUMP JUMPDEST SWAP1 POP PUSH0 PUSH2 0xAA6 CALLVALUE PUSH2 0xF94 JUMP JUMPDEST SWAP1 POP PUSH1 0x9 PUSH1 0x1 SWAP1 SLOAD SWAP1 PUSH2 0x100 EXP SWAP1 DIV PUSH20 0xFFFFFFFFFFFFFFFFFFFFFFFFFFFFFFFFFFFFFFFF AND PUSH20 0xFFFFFFFFFFFFFFFFFFFFFFFFFFFFFFFFFFFFFFFF AND PUSH2 0x8FC DUP3 SWAP1 DUP2 ISZERO MUL SWAP1 PUSH1 0x40 MLOAD PUSH0 PUSH1 0x40 MLOAD DUP1 DUP4 SUB DUP2 DUP6 DUP9 DUP9 CALL SWAP4 POP POP POP POP ISZERO DUP1 ISZERO PUSH2 0xB0D JUMPI RETURNDATASIZE PUSH0 DUP1 RETURNDATACOPY RETURNDATASIZE PUSH0 REVERT JUMPDEST POP PUSH2 0xB18 CALLER DUP4 PUSH2 0xFB2 JUMP JUMPDEST PUSH2 0xB22 DUP4 CALLVALUE PUSH2 0x100F JUMP JUMPDEST PUSH8 0xDE0B6B3A7640000 CALLVALUE LT PUSH2 0xB3D JUMPI PUSH2 0xB3C CALLER PUSH1 0xC8 PUSH2 0x13AF JUMP JUMPDEST JUMPDEST POP POP POP JUMP JUMPDEST PUSH0 DUP1 PUSH0 SWAP1 SLOAD SWAP1 PUSH2 0x100 EXP SWAP1 DIV PUSH20 0xFFFFFFFFFFFFFFFFFFFFFFFFFFFFFFFFFFFFFFFF AND SWAP1 POP SWAP1 JUMP JUMPDEST PUSH0 DUP1 PUSH0 SWAP1 SLOAD SWAP1 PUSH2 0x100 EXP SWAP1 DIV PUSH20 0xFFFFFFFFFFFFFFFFFFFFFFFFFFFFFFFFFFFFFFFF AND PUSH20 0xFFFFFFFFFFFFFFFFFFFFFFFFFFFFFFFFFFFFFFFF AND CALLER PUSH20 0xFFFFFFFFFFFFFFFFFFFFFFFFFFFFFFFFFFFFFFFF AND EQ SWAP1 POP SWAP1 JUMP JUMPDEST PUSH1 0x1 PUSH0 SWAP1 SLOAD SWAP1 PUSH2 0x100 EXP SWAP1 DIV PUSH20 0xFFFFFFFFFFFFFFFFFFFFFFFFFFFFFFFFFFFFFFFF AND DUP2 JUMP JUMPDEST PUSH1 0x9 PUSH0 SWAP1 SLOAD SWAP1 PUSH2 0x100 EXP SWAP1 DIV PUSH1 0xFF AND PUSH2 0xBFA JUMPI PUSH0 DUP1 REVERT JUMPDEST PUSH0 PUSH2 0xC04 CALLER PUSH2 0x50E JUMP JUMPDEST SWAP1 POP PUSH0 PUSH2 0xC10 DUP3 PUSH2 0x71C JUMP JUMPDEST SWAP1 POP PUSH0 PUSH2 0xC1C DUP3 PUSH2 0xF94 JUMP JUMPDEST SWAP1 POP PUSH2 0xC28 CALLER PUSH0 PUSH2 0x1459 JUMP JUMPDEST TIMESTAMP PUSH1 0xC PUSH0 CALLER PUSH20 0xFFFFFFFFFFFFFFFFFFFFFFFFFFFFFFFFFFFFFFFF AND PUSH20 0xFFFFFFFFFFFFFFFFFFFFFFFFFFFFFFFFFFFFFFFF AND DUP2 MSTORE PUSH1 0x20 ADD SWAP1 DUP2 MSTORE PUSH1 0x20 ADD PUSH0 KECCAK256 DUP2 SWAP1 SSTORE POP PUSH2 0xC76 PUSH1 0xE SLOAD DUP5 PUSH2 0xECA JUMP JUMPDEST PUSH1 0xE DUP2 SWAP1 SSTORE POP PUSH1 0x9 PUSH1 0x1 SWAP1 SLOAD SWAP1 PUSH2 0x100 EXP SWAP1 DIV PUSH20 0xFFFFFFFFFFFFFFFFFFFFFFFFFFFFFFFFFFFFFFFF AND PUSH20 0xFFFFFFFFFFFFFFFFFFFFFFFFFFFFFFFFFFFFFFFF AND PUSH2 0x8FC DUP3 SWAP1 DUP2 ISZERO MUL SWAP1 PUSH1 0x40 MLOAD PUSH0 PUSH1 0x40 MLOAD DUP1 DUP4 SUB DUP2 DUP6 DUP9 DUP9 CALL SWAP4 POP POP POP POP ISZERO DUP1 ISZERO PUSH2 0xCE1 JUMPI RETURNDATASIZE PUSH0 DUP1 RETURNDATACOPY RETURNDATASIZE PUSH0 REVERT JUMPDEST POP CALLER PUSH20 0xFFFFFFFFFFFFFFFFFFFFFFFFFFFFFFFFFFFFFFFF AND PUSH2 0x8FC PUSH2 0xD06 DUP5 DUP5 PUSH2 0xF3D JUMP JUMPDEST SWAP1 DUP2 ISZERO MUL SWAP1 PUSH1 0x40 MLOAD PUSH0 PUSH1 0x40 MLOAD DUP1 DUP4 SUB DUP2 DUP6 DUP9 DUP9 CALL SWAP4 POP POP POP POP ISZERO DUP1 ISZERO PUSH2 0xD2E JUMPI RETURNDATASIZE PUSH0 DUP1 RETURNDATACOPY RETURNDATASIZE PUSH0 REVERT JUMPDEST POP POP POP POP JUMP JUMPDEST PUSH2 0xD3C PUSH2 0xB69 JUMP JUMPDEST PUSH2 0xD44 JUMPI PUSH0 DUP1 REVERT JUMPDEST DUP1 PUSH1 0x3 DUP2 SWAP1 SSTORE POP POP JUMP JUMPDEST PUSH2 0xD56 PUSH2 0xB69 JUMP JUMPDEST PUSH2 0xD5E JUMPI PUSH0 DUP1 REVERT JUMPDEST PUSH0 PUSH20 0xFFFFFFFFFFFFFFFFFFFFFFFFFFFFFFFFFFFFFFFF AND DUP2 PUSH20 0xFFFFFFFFFFFFFFFFFFFFFFFFFFFFFFFFFFFFFFFF AND SUB PUSH2 0xDA9 JUMPI PUSH20 0x4300000000000000000000000000000000000002 SWAP1 POP JUMPDEST DUP1 PUSH1 0x1 PUSH0 PUSH2 0x100 EXP DUP2 SLOAD DUP2 PUSH20 0xFFFFFFFFFFFFFFFFFFFFFFFFFFFFFFFFFFFFFFFF MUL NOT AND SWAP1 DUP4 PUSH20 0xFFFFFFFFFFFFFFFFFFFFFFFFFFFFFFFFFFFFFFFF AND MUL OR SWAP1 SSTORE POP PUSH1 0x1 PUSH0 SWAP1 SLOAD SWAP1 PUSH2 0x100 EXP SWAP1 DIV PUSH20 0xFFFFFFFFFFFFFFFFFFFFFFFFFFFFFFFFFFFFFFFF AND PUSH20 0xFFFFFFFFFFFFFFFFFFFFFFFFFFFFFFFFFFFFFFFF AND PUSH4 0x4E606C47 PUSH1 0x40 MLOAD DUP2 PUSH4 0xFFFFFFFF AND PUSH1 0xE0 SHL DUP2 MSTORE PUSH1 0x4 ADD PUSH0 PUSH1 0x40 MLOAD DUP1 DUP4 SUB DUP2 PUSH0 DUP8 DUP1 EXTCODESIZE ISZERO DUP1 ISZERO PUSH2 0xE4F JUMPI PUSH0 DUP1 REVERT JUMPDEST POP GAS CALL ISZERO DUP1 ISZERO PUSH2 0xE61 JUMPI RETURNDATASIZE PUSH0 DUP1 RETURNDATACOPY RETURNDATASIZE PUSH0 REVERT JUMPDEST POP POP POP POP POP JUMP JUMPDEST PUSH2 0xE70 PUSH2 0xB69 JUMP JUMPDEST PUSH2 0xE78 JUMPI PUSH0 DUP1 REVERT JUMPDEST PUSH2 0xE81 DUP2 PUSH2 0x15AA JUMP JUMPDEST POP JUMP JUMPDEST PUSH0 PUSH1 0xF PUSH0 DUP4 PUSH20 0xFFFFFFFFFFFFFFFFFFFFFFFFFFFFFFFFFFFFFFFF AND PUSH20 0xFFFFFFFFFFFFFFFFFFFFFFFFFFFFFFFFFFFFFFFF AND DUP2 MSTORE PUSH1 0x20 ADD SWAP1 DUP2 MSTORE PUSH1 0x20 ADD PUSH0 KECCAK256 SLOAD SWAP1 POP SWAP2 SWAP1 POP JUMP JUMPDEST PUSH0 DUP2 DUP4 PUSH2 0xED7 SWAP2 SWAP1 PUSH2 0x1AEE JUMP JUMPDEST SWAP1 POP SWAP3 SWAP2 POP POP JUMP JUMPDEST PUSH2 0xEE8 DUP2 PUSH2 0x169C JUMP JUMPDEST POP JUMP JUMPDEST PUSH0 PUSH2 0xF34 PUSH2 0xEFB PUSH1 0x6 SLOAD DUP5 PUSH2 0xF6A JUMP JUMPDEST PUSH2 0xF2F PUSH1 0x7 SLOAD PUSH2 0xF2A PUSH2 0xF24 PUSH2 0xF13 PUSH1 0x6 SLOAD DUP11 PUSH2 0xF6A JUMP JUMPDEST PUSH2 0xF1F PUSH1 0x7 SLOAD DUP13 PUSH2 0xF6A JUMP JUMPDEST PUSH2 0xECA JUMP JUMPDEST DUP10 PUSH2 0xF7F JUMP JUMPDEST PUSH2 0xECA JUMP JUMPDEST PUSH2 0xF7F JUMP JUMPDEST SWAP1 POP SWAP4 SWAP3 POP POP POP JUMP JUMPDEST PUSH0 DUP2 DUP4 PUSH2 0xF4A SWAP2 SWAP1 PUSH2 0x1BB4 JUMP JUMPDEST SWAP1 POP SWAP3 SWAP2 POP POP JUMP JUMPDEST PUSH0 DUP2 DUP4 LT PUSH2 0xF60 JUMPI DUP2 PUSH2 0xF62 JUMP JUMPDEST DUP3 JUMPDEST SWAP1 POP SWAP3 SWAP2 POP POP JUMP JUMPDEST PUSH0 DUP2 DUP4 PUSH2 0xF77 SWAP2 SWAP1 PUSH2 0x1BE7 JUMP JUMPDEST SWAP1 POP SWAP3 SWAP2 POP POP JUMP JUMPDEST PUSH0 DUP2 DUP4 PUSH2 0xF8C SWAP2 SWAP1 PUSH2 0x1C55 JUMP JUMPDEST SWAP1 POP SWAP3 SWAP2 POP POP JUMP JUMPDEST PUSH0 PUSH2 0xFAB PUSH2 0xFA4 DUP4 PUSH1 0x8 SLOAD PUSH2 0xF6A JUMP JUMPDEST PUSH1 0x64 PUSH2 0xF7F JUMP JUMPDEST SWAP1 POP SWAP2 SWAP1 POP JUMP JUMPDEST PUSH2 0x100B DUP3 PUSH2 0x1006 DUP4 PUSH1 0xB PUSH0 DUP8 PUSH20 0xFFFFFFFFFFFFFFFFFFFFFFFFFFFFFFFFFFFFFFFF AND PUSH20 0xFFFFFFFFFFFFFFFFFFFFFFFFFFFFFFFFFFFFFFFF AND DUP2 MSTORE PUSH1 0x20 ADD SWAP1 DUP2 MSTORE PUSH1 0x20 ADD PUSH0 KECCAK256 SLOAD PUSH2 0xECA SWAP1 SWAP2 SWAP1 PUSH4 0xFFFFFFFF AND JUMP JUMPDEST PUSH2 0x1459 JUMP JUMPDEST POP POP JUMP JUMPDEST PUSH1 0x9 PUSH0 SWAP1 SLOAD SWAP1 PUSH2 0x100 EXP SWAP1 DIV PUSH1 0xFF AND PUSH2 0x1026 JUMPI PUSH0 DUP1 REVERT JUMPDEST CALLER PUSH20 0xFFFFFFFFFFFFFFFFFFFFFFFFFFFFFFFFFFFFFFFF AND DUP3 PUSH20 0xFFFFFFFFFFFFFFFFFFFFFFFFFFFFFFFFFFFFFFFF AND SUB PUSH2 0x105D JUMPI PUSH0 SWAP2 POP JUMPDEST PUSH0 PUSH20 0xFFFFFFFFFFFFFFFFFFFFFFFFFFFFFFFFFFFFFFFF AND PUSH1 0xD PUSH0 CALLER PUSH20 0xFFFFFFFFFFFFFFFFFFFFFFFFFFFFFFFFFFFFFFFF AND PUSH20 0xFFFFFFFFFFFFFFFFFFFFFFFFFFFFFFFFFFFFFFFF AND DUP2 MSTORE PUSH1 0x20 ADD SWAP1 DUP2 MSTORE PUSH1 0x20 ADD PUSH0 KECCAK256 PUSH0 SWAP1 SLOAD SWAP1 PUSH2 0x100 EXP SWAP1 DIV PUSH20 0xFFFFFFFFFFFFFFFFFFFFFFFFFFFFFFFFFFFFFFFF AND PUSH20 0xFFFFFFFFFFFFFFFFFFFFFFFFFFFFFFFFFFFFFFFF AND EQ DUP1 ISZERO PUSH2 0x117C JUMPI POP CALLER PUSH20 0xFFFFFFFFFFFFFFFFFFFFFFFFFFFFFFFFFFFFFFFF AND PUSH1 0xD PUSH0 CALLER PUSH20 0xFFFFFFFFFFFFFFFFFFFFFFFFFFFFFFFFFFFFFFFF AND PUSH20 0xFFFFFFFFFFFFFFFFFFFFFFFFFFFFFFFFFFFFFFFF AND DUP2 MSTORE PUSH1 0x20 ADD SWAP1 DUP2 MSTORE PUSH1 0x20 ADD PUSH0 KECCAK256 PUSH0 SWAP1 SLOAD SWAP1 PUSH2 0x100 EXP SWAP1 DIV PUSH20 0xFFFFFFFFFFFFFFFFFFFFFFFFFFFFFFFFFFFFFFFF AND PUSH20 0xFFFFFFFFFFFFFFFFFFFFFFFFFFFFFFFFFFFFFFFF AND EQ ISZERO JUMPDEST ISZERO PUSH2 0x1238 JUMPI DUP2 PUSH1 0xD PUSH0 CALLER PUSH20 0xFFFFFFFFFFFFFFFFFFFFFFFFFFFFFFFFFFFFFFFF AND PUSH20 0xFFFFFFFFFFFFFFFFFFFFFFFFFFFFFFFFFFFFFFFF AND DUP2 MSTORE PUSH1 0x20 ADD SWAP1 DUP2 MSTORE PUSH1 0x20 ADD PUSH0 KECCAK256 PUSH0 PUSH2 0x100 EXP DUP2 SLOAD DUP2 PUSH20 0xFFFFFFFFFFFFFFFFFFFFFFFFFFFFFFFFFFFFFFFF MUL NOT AND SWAP1 DUP4 PUSH20 0xFFFFFFFFFFFFFFFFFFFFFFFFFFFFFFFFFFFFFFFF AND MUL OR SWAP1 SSTORE POP PUSH8 0xDE0B6B3A7640000 DUP2 LT PUSH2 0x121B JUMPI PUSH2 0x1216 DUP3 PUSH1 0xC8 PUSH2 0x13AF JUMP JUMPDEST PUSH2 0x1237 JUMP JUMPDEST PUSH8 0x16345785D8A0000 DUP2 LT PUSH2 0x1236 JUMPI PUSH2 0x1235 DUP3 PUSH1 0x28 PUSH2 0x13AF JUMP JUMPDEST JUMPDEST JUMPDEST JUMPDEST PUSH0 PUSH2 0x1242 CALLER PUSH2 0x50E JUMP JUMPDEST SWAP1 POP PUSH0 PUSH2 0x1251 DUP3 PUSH1 0x5 SLOAD PUSH2 0xF7F JUMP JUMPDEST SWAP1 POP PUSH2 0x129A PUSH1 0xA PUSH0 CALLER PUSH20 0xFFFFFFFFFFFFFFFFFFFFFFFFFFFFFFFFFFFFFFFF AND PUSH20 0xFFFFFFFFFFFFFFFFFFFFFFFFFFFFFFFFFFFFFFFF AND DUP2 MSTORE PUSH1 0x20 ADD SWAP1 DUP2 MSTORE PUSH1 0x20 ADD PUSH0 KECCAK256 SLOAD DUP3 PUSH2 0xECA JUMP JUMPDEST PUSH1 0xA PUSH0 CALLER PUSH20 0xFFFFFFFFFFFFFFFFFFFFFFFFFFFFFFFFFFFFFFFF AND PUSH20 0xFFFFFFFFFFFFFFFFFFFFFFFFFFFFFFFFFFFFFFFF AND DUP2 MSTORE PUSH1 0x20 ADD SWAP1 DUP2 MSTORE PUSH1 0x20 ADD PUSH0 KECCAK256 DUP2 SWAP1 SSTORE POP PUSH2 0x12E5 CALLER PUSH0 PUSH2 0x1459 JUMP JUMPDEST TIMESTAMP PUSH1 0xC PUSH0 CALLER PUSH20 0xFFFFFFFFFFFFFFFFFFFFFFFFFFFFFFFFFFFFFFFF AND PUSH20 0xFFFFFFFFFFFFFFFFFFFFFFFFFFFFFFFFFFFFFFFF AND DUP2 MSTORE PUSH1 0x20 ADD SWAP1 DUP2 MSTORE PUSH1 0x20 ADD PUSH0 KECCAK256 DUP2 SWAP1 SSTORE POP PUSH2 0x138D PUSH1 0xD PUSH0 CALLER PUSH20 0xFFFFFFFFFFFFFFFFFFFFFFFFFFFFFFFFFFFFFFFF AND PUSH20 0xFFFFFFFFFFFFFFFFFFFFFFFFFFFFFFFFFFFFFFFF AND DUP2 MSTORE PUSH1 0x20 ADD SWAP1 DUP2 MSTORE PUSH1 0x20 ADD PUSH0 KECCAK256 PUSH0 SWAP1 SLOAD SWAP1 PUSH2 0x100 EXP SWAP1 DIV PUSH20 0xFFFFFFFFFFFFFFFFFFFFFFFFFFFFFFFFFFFFFFFF AND DUP4 PUSH2 0x1781 JUMP JUMPDEST PUSH2 0x13A3 PUSH1 0xE SLOAD PUSH2 0x139E DUP5 PUSH1 0x5 PUSH2 0xF7F JUMP JUMPDEST PUSH2 0xECA JUMP JUMPDEST PUSH1 0xE DUP2 SWAP1 SSTORE POP POP POP POP POP JUMP JUMPDEST PUSH0 PUSH2 0x1400 DUP3 PUSH1 0xF PUSH0 DUP7 PUSH20 0xFFFFFFFFFFFFFFFFFFFFFFFFFFFFFFFFFFFFFFFF AND PUSH20 0xFFFFFFFFFFFFFFFFFFFFFFFFFFFFFFFFFFFFFFFF AND DUP2 MSTORE PUSH1 0x20 ADD SWAP1 DUP2 MSTORE PUSH1 0x20 ADD PUSH0 KECCAK256 SLOAD PUSH2 0xECA SWAP1 SWAP2 SWAP1 PUSH4 0xFFFFFFFF AND JUMP JUMPDEST SWAP1 POP PUSH2 0x2710 DUP2 GT ISZERO PUSH2 0x1412 JUMPI PUSH2 0x2710 SWAP1 POP JUMPDEST DUP1 PUSH1 0xF PUSH0 DUP6 PUSH20 0xFFFFFFFFFFFFFFFFFFFFFFFFFFFFFFFFFFFFFFFF AND PUSH20 0xFFFFFFFFFFFFFFFFFFFFFFFFFFFFFFFFFFFFFFFF AND DUP2 MSTORE PUSH1 0x20 ADD SWAP1 DUP2 MSTORE PUSH1 0x20 ADD PUSH0 KECCAK256 DUP2 SWAP1 SSTORE POP POP POP POP JUMP JUMPDEST PUSH1 0x1 ISZERO ISZERO PUSH1 0x11 PUSH0 DUP5 PUSH20 0xFFFFFFFFFFFFFFFFFFFFFFFFFFFFFFFFFFFFFFFF AND PUSH20 0xFFFFFFFFFFFFFFFFFFFFFFFFFFFFFFFFFFFFFFFF AND DUP2 MSTORE PUSH1 0x20 ADD SWAP1 DUP2 MSTORE PUSH1 0x20 ADD PUSH0 KECCAK256 PUSH0 SWAP1 SLOAD SWAP1 PUSH2 0x100 EXP SWAP1 DIV PUSH1 0xFF AND ISZERO ISZERO EQ PUSH2 0x1564 JUMPI PUSH1 0x10 DUP3 SWAP1 DUP1 PUSH1 0x1 DUP2 SLOAD ADD DUP1 DUP3 SSTORE DUP1 SWAP2 POP POP PUSH1 0x1 SWAP1 SUB SWAP1 PUSH0 MSTORE PUSH1 0x20 PUSH0 KECCAK256 ADD PUSH0 SWAP1 SWAP2 SWAP1 SWAP2 SWAP1 SWAP2 PUSH2 0x100 EXP DUP2 SLOAD DUP2 PUSH20 0xFFFFFFFFFFFFFFFFFFFFFFFFFFFFFFFFFFFFFFFF MUL NOT AND SWAP1 DUP4 PUSH20 0xFFFFFFFFFFFFFFFFFFFFFFFFFFFFFFFFFFFFFFFF AND MUL OR SWAP1 SSTORE POP PUSH1 0x1 PUSH1 0x11 PUSH0 DUP5 PUSH20 0xFFFFFFFFFFFFFFFFFFFFFFFFFFFFFFFFFFFFFFFF AND PUSH20 0xFFFFFFFFFFFFFFFFFFFFFFFFFFFFFFFFFFFFFFFF AND DUP2 MSTORE PUSH1 0x20 ADD SWAP1 DUP2 MSTORE PUSH1 0x20 ADD PUSH0 KECCAK256 PUSH0 PUSH2 0x100 EXP DUP2 SLOAD DUP2 PUSH1 0xFF MUL NOT AND SWAP1 DUP4 ISZERO ISZERO MUL OR SWAP1 SSTORE POP JUMPDEST DUP1 PUSH1 0xB PUSH0 DUP5 PUSH20 0xFFFFFFFFFFFFFFFFFFFFFFFFFFFFFFFFFFFFFFFF AND PUSH20 0xFFFFFFFFFFFFFFFFFFFFFFFFFFFFFFFFFFFFFFFF AND DUP2 MSTORE PUSH1 0x20 ADD SWAP1 DUP2 MSTORE PUSH1 0x20 ADD PUSH0 KECCAK256 DUP2 SWAP1 SSTORE POP POP POP JUMP JUMPDEST PUSH0 PUSH20 0xFFFFFFFFFFFFFFFFFFFFFFFFFFFFFFFFFFFFFFFF AND DUP2 PUSH20 0xFFFFFFFFFFFFFFFFFFFFFFFFFFFFFFFFFFFFFFFF AND SUB PUSH2 0x15E1 JUMPI PUSH0 DUP1 REVERT JUMPDEST DUP1 PUSH20 0xFFFFFFFFFFFFFFFFFFFFFFFFFFFFFFFFFFFFFFFF AND PUSH0 DUP1 SLOAD SWAP1 PUSH2 0x100 EXP SWAP1 DIV PUSH20 0xFFFFFFFFFFFFFFFFFFFFFFFFFFFFFFFFFFFFFFFF AND PUSH20 0xFFFFFFFFFFFFFFFFFFFFFFFFFFFFFFFFFFFFFFFF AND PUSH32 0x8BE0079C531659141344CD1FD0A4F28419497F9722A3DAAFE3B4186F6B6457E0 PUSH1 0x40 MLOAD PUSH1 0x40 MLOAD DUP1 SWAP2 SUB SWAP1 LOG3 DUP1 PUSH0 DUP1 PUSH2 0x100 EXP DUP2 SLOAD DUP2 PUSH20 0xFFFFFFFFFFFFFFFFFFFFFFFFFFFFFFFFFFFFFFFF MUL NOT AND SWAP1 DUP4 PUSH20 0xFFFFFFFFFFFFFFFFFFFFFFFFFFFFFFFFFFFFFFFF AND MUL OR SWAP1 SSTORE POP POP JUMP JUMPDEST PUSH0 DUP2 GT ISZERO PUSH2 0x177E JUMPI PUSH0 DUP1 PUSH0 JUMPDEST PUSH1 0x10 DUP1 SLOAD SWAP1 POP DUP2 LT ISZERO PUSH2 0x177A JUMPI PUSH1 0x10 DUP2 DUP2 SLOAD DUP2 LT PUSH2 0x16C9 JUMPI PUSH2 0x16C8 PUSH2 0x1B87 JUMP JUMPDEST JUMPDEST SWAP1 PUSH0 MSTORE PUSH1 0x20 PUSH0 KECCAK256 ADD PUSH0 SWAP1 SLOAD SWAP1 PUSH2 0x100 EXP SWAP1 DIV PUSH20 0xFFFFFFFFFFFFFFFFFFFFFFFFFFFFFFFFFFFFFFFF AND SWAP3 POP PUSH2 0x1757 PUSH1 0xE SLOAD PUSH2 0x1749 PUSH1 0xB PUSH0 DUP8 PUSH20 0xFFFFFFFFFFFFFFFFFFFFFFFFFFFFFFFFFFFFFFFF AND PUSH20 0xFFFFFFFFFFFFFFFFFFFFFFFFFFFFFFFFFFFFFFFF AND DUP2 MSTORE PUSH1 0x20 ADD SWAP1 DUP2 MSTORE PUSH1 0x20 ADD PUSH0 KECCAK256 SLOAD DUP8 PUSH2 0xF6A SWAP1 SWAP2 SWAP1 PUSH4 0xFFFFFFFF AND JUMP JUMPDEST PUSH2 0xF7F SWAP1 SWAP2 SWAP1 PUSH4 0xFFFFFFFF AND JUMP JUMPDEST SWAP2 POP PUSH0 DUP3 GT ISZERO PUSH2 0x176D JUMPI PUSH2 0x176B DUP4 DUP4 PUSH2 0x1831 JUMP JUMPDEST POP JUMPDEST DUP1 DUP1 PUSH1 0x1 ADD SWAP2 POP POP PUSH2 0x16A8 JUMP JUMPDEST POP POP POP JUMPDEST POP JUMP JUMPDEST PUSH0 PUSH1 0xF PUSH0 DUP5 PUSH20 0xFFFFFFFFFFFFFFFFFFFFFFFFFFFFFFFFFFFFFFFF AND PUSH20 0xFFFFFFFFFFFFFFFFFFFFFFFFFFFFFFFFFFFFFFFF AND DUP2 MSTORE PUSH1 0x20 ADD SWAP1 DUP2 MSTORE PUSH1 0x20 ADD PUSH0 KECCAK256 SLOAD SWAP1 POP PUSH0 PUSH2 0x17EA PUSH1 0xC8 PUSH2 0x17DC PUSH1 0x10 DUP6 PUSH2 0xF6A SWAP1 SWAP2 SWAP1 PUSH4 0xFFFFFFFF AND JUMP JUMPDEST PUSH2 0xF7F SWAP1 SWAP2 SWAP1 PUSH4 0xFFFFFFFF AND JUMP JUMPDEST SWAP1 POP PUSH0 DUP2 PUSH2 0x30D4 PUSH2 0x17FB SWAP2 SWAP1 PUSH2 0x1AEE JUMP JUMPDEST SWAP1 POP PUSH0 PUSH2 0x181D PUSH3 0x186A0 PUSH2 0x180F DUP8 DUP6 PUSH2 0xF6A JUMP JUMPDEST PUSH2 0xF7F SWAP1 SWAP2 SWAP1 PUSH4 0xFFFFFFFF AND JUMP JUMPDEST SWAP1 POP PUSH2 0x1829 DUP7 DUP3 PUSH2 0xFB2 JUMP JUMPDEST POP POP POP POP POP POP JUMP JUMPDEST PUSH0 DUP3 PUSH20 0xFFFFFFFFFFFFFFFFFFFFFFFFFFFFFFFFFFFFFFFF AND PUSH2 0x8FC DUP4 SWAP1 DUP2 ISZERO MUL SWAP1 PUSH1 0x40 MLOAD PUSH0 PUSH1 0x40 MLOAD DUP1 DUP4 SUB DUP2 DUP6 DUP9 DUP9 CALL SWAP4 POP POP POP POP ISZERO PUSH2 0x1874 JUMPI PUSH1 0x1 SWAP1 POP PUSH2 0x1878 JUMP JUMPDEST PUSH0 SWAP1 POP JUMPDEST SWAP3 SWAP2 POP POP JUMP JUMPDEST PUSH0 DUP2 SWAP1 POP SWAP2 SWAP1 POP JUMP JUMPDEST PUSH2 0x1890 DUP2 PUSH2 0x187E JUMP JUMPDEST DUP3 MSTORE POP POP JUMP JUMPDEST PUSH0 PUSH1 0x20 DUP3 ADD SWAP1 POP PUSH2 0x18A9 PUSH0 DUP4 ADD DUP5 PUSH2 0x1887 JUMP JUMPDEST SWAP3 SWAP2 POP POP JUMP JUMPDEST PUSH0 DUP1 REVERT JUMPDEST PUSH0 PUSH20 0xFFFFFFFFFFFFFFFFFFFFFFFFFFFFFFFFFFFFFFFF DUP3 AND SWAP1 POP SWAP2 SWAP1 POP JUMP JUMPDEST PUSH0 PUSH2 0x18DC DUP3 PUSH2 0x18B3 JUMP JUMPDEST SWAP1 POP SWAP2 SWAP1 POP JUMP JUMPDEST PUSH2 0x18EC DUP2 PUSH2 0x18D2 JUMP JUMPDEST DUP2 EQ PUSH2 0x18F6 JUMPI PUSH0 DUP1 REVERT JUMPDEST POP JUMP JUMPDEST PUSH0 DUP2 CALLDATALOAD SWAP1 POP PUSH2 0x1907 DUP2 PUSH2 0x18E3 JUMP JUMPDEST SWAP3 SWAP2 POP POP JUMP JUMPDEST PUSH0 PUSH1 0x20 DUP3 DUP5 SUB SLT ISZERO PUSH2 0x1922 JUMPI PUSH2 0x1921 PUSH2 0x18AF JUMP JUMPDEST JUMPDEST PUSH0 PUSH2 0x192F DUP5 DUP3 DUP6 ADD PUSH2 0x18F9 JUMP JUMPDEST SWAP2 POP POP SWAP3 SWAP2 POP POP JUMP JUMPDEST PUSH2 0x1941 DUP2 PUSH2 0x187E JUMP JUMPDEST DUP2 EQ PUSH2 0x194B JUMPI PUSH0 DUP1 REVERT JUMPDEST POP JUMP JUMPDEST PUSH0 DUP2 CALLDATALOAD SWAP1 POP PUSH2 0x195C DUP2 PUSH2 0x1938 JUMP JUMPDEST SWAP3 SWAP2 POP POP JUMP JUMPDEST PUSH0 PUSH1 0x20 DUP3 DUP5 SUB SLT ISZERO PUSH2 0x1977 JUMPI PUSH2 0x1976 PUSH2 0x18AF JUMP JUMPDEST JUMPDEST PUSH0 PUSH2 0x1984 DUP5 DUP3 DUP6 ADD PUSH2 0x194E JUMP JUMPDEST SWAP2 POP POP SWAP3 SWAP2 POP POP JUMP JUMPDEST PUSH0 DUP1 PUSH1 0x40 DUP4 DUP6 SUB SLT ISZERO PUSH2 0x19A3 JUMPI PUSH2 0x19A2 PUSH2 0x18AF JUMP JUMPDEST JUMPDEST PUSH0 PUSH2 0x19B0 DUP6 DUP3 DUP7 ADD PUSH2 0x194E JUMP JUMPDEST SWAP3 POP POP PUSH1 0x20 PUSH2 0x19C1 DUP6 DUP3 DUP7 ADD PUSH2 0x194E JUMP JUMPDEST SWAP2 POP POP SWAP3 POP SWAP3 SWAP1 POP JUMP JUMPDEST PUSH2 0x19D4 DUP2 PUSH2 0x18D2 JUMP JUMPDEST DUP3 MSTORE POP POP JUMP JUMPDEST PUSH0 PUSH1 0x40 DUP3 ADD SWAP1 POP PUSH2 0x19ED PUSH0 DUP4 ADD DUP6 PUSH2 0x19CB JUMP JUMPDEST PUSH2 0x19FA PUSH1 0x20 DUP4 ADD DUP5 PUSH2 0x1887 JUMP JUMPDEST SWAP4 SWAP3 POP POP POP JUMP JUMPDEST PUSH0 PUSH1 0x20 DUP3 ADD SWAP1 POP PUSH2 0x1A14 PUSH0 DUP4 ADD DUP5 PUSH2 0x19CB JUMP JUMPDEST SWAP3 SWAP2 POP POP JUMP JUMPDEST PUSH0 DUP2 ISZERO ISZERO SWAP1 POP SWAP2 SWAP1 POP JUMP JUMPDEST PUSH2 0x1A2E DUP2 PUSH2 0x1A1A JUMP JUMPDEST DUP3 MSTORE POP POP JUMP JUMPDEST PUSH0 PUSH1 0x20 DUP3 ADD SWAP1 POP PUSH2 0x1A47 PUSH0 DUP4 ADD DUP5 PUSH2 0x1A25 JUMP JUMPDEST SWAP3 SWAP2 POP POP JUMP JUMPDEST PUSH0 DUP2 SWAP1 POP SWAP2 SWAP1 POP JUMP JUMPDEST PUSH0 PUSH2 0x1A70 PUSH2 0x1A6B PUSH2 0x1A66 DUP5 PUSH2 0x18B3 JUMP JUMPDEST PUSH2 0x1A4D JUMP JUMPDEST PUSH2 0x18B3 JUMP JUMPDEST SWAP1 POP SWAP2 SWAP1 POP JUMP JUMPDEST PUSH0 PUSH2 0x1A81 DUP3 PUSH2 0x1A56 JUMP JUMPDEST SWAP1 POP SWAP2 SWAP1 POP JUMP JUMPDEST PUSH0 PUSH2 0x1A92 DUP3 PUSH2 0x1A77 JUMP JUMPDEST SWAP1 POP SWAP2 SWAP1 POP JUMP JUMPDEST PUSH2 0x1AA2 DUP2 PUSH2 0x1A88 JUMP JUMPDEST DUP3 MSTORE POP POP JUMP JUMPDEST PUSH0 PUSH1 0x20 DUP3 ADD SWAP1 POP PUSH2 0x1ABB PUSH0 DUP4 ADD DUP5 PUSH2 0x1A99 JUMP JUMPDEST SWAP3 SWAP2 POP POP JUMP JUMPDEST PUSH32 0x4E487B7100000000000000000000000000000000000000000000000000000000 PUSH0 MSTORE PUSH1 0x11 PUSH1 0x4 MSTORE PUSH1 0x24 PUSH0 REVERT JUMPDEST PUSH0 PUSH2 0x1AF8 DUP3 PUSH2 0x187E JUMP JUMPDEST SWAP2 POP PUSH2 0x1B03 DUP4 PUSH2 0x187E JUMP JUMPDEST SWAP3 POP DUP3 DUP3 ADD SWAP1 POP DUP1 DUP3 GT ISZERO PUSH2 0x1B1B JUMPI PUSH2 0x1B1A PUSH2 0x1AC1 JUMP JUMPDEST JUMPDEST SWAP3 SWAP2 POP POP JUMP JUMPDEST PUSH0 PUSH1 0x40 DUP3 ADD SWAP1 POP PUSH2 0x1B34 PUSH0 DUP4 ADD DUP6 PUSH2 0x19CB JUMP JUMPDEST PUSH2 0x1B41 PUSH1 0x20 DUP4 ADD DUP5 PUSH2 0x19CB JUMP JUMPDEST SWAP4 SWAP3 POP POP POP JUMP JUMPDEST PUSH0 DUP2 MLOAD SWAP1 POP PUSH2 0x1B56 DUP2 PUSH2 0x1938 JUMP JUMPDEST SWAP3 SWAP2 POP POP JUMP JUMPDEST PUSH0 PUSH1 0x20 DUP3 DUP5 SUB SLT ISZERO PUSH2 0x1B71 JUMPI PUSH2 0x1B70 PUSH2 0x18AF JUMP JUMPDEST JUMPDEST PUSH0 PUSH2 0x1B7E DUP5 DUP3 DUP6 ADD PUSH2 0x1B48 JUMP JUMPDEST SWAP2 POP POP SWAP3 SWAP2 POP POP JUMP JUMPDEST PUSH32 0x4E487B7100000000000000000000000000000000000000000000000000000000 PUSH0 MSTORE PUSH1 0x32 PUSH1 0x4 MSTORE PUSH1 0x24 PUSH0 REVERT JUMPDEST PUSH0 PUSH2 0x1BBE DUP3 PUSH2 0x187E JUMP JUMPDEST SWAP2 POP PUSH2 0x1BC9 DUP4 PUSH2 0x187E JUMP JUMPDEST SWAP3 POP DUP3 DUP3 SUB SWAP1 POP DUP2 DUP2 GT ISZERO PUSH2 0x1BE1 JUMPI PUSH2 0x1BE0 PUSH2 0x1AC1 JUMP JUMPDEST JUMPDEST SWAP3 SWAP2 POP POP JUMP JUMPDEST PUSH0 PUSH2 0x1BF1 DUP3 PUSH2 0x187E JUMP JUMPDEST SWAP2 POP PUSH2 0x1BFC DUP4 PUSH2 0x187E JUMP JUMPDEST SWAP3 POP DUP3 DUP3 MUL PUSH2 0x1C0A DUP2 PUSH2 0x187E JUMP JUMPDEST SWAP2 POP DUP3 DUP3 DIV DUP5 EQ DUP4 ISZERO OR PUSH2 0x1C21 JUMPI PUSH2 0x1C20 PUSH2 0x1AC1 JUMP JUMPDEST JUMPDEST POP SWAP3 SWAP2 POP POP JUMP JUMPDEST PUSH32 0x4E487B7100000000000000000000000000000000000000000000000000000000 PUSH0 MSTORE PUSH1 0x12 PUSH1 0x4 MSTORE PUSH1 0x24 PUSH0 REVERT JUMPDEST PUSH0 PUSH2 0x1C5F DUP3 PUSH2 0x187E JUMP JUMPDEST SWAP2 POP PUSH2 0x1C6A DUP4 PUSH2 0x187E JUMP JUMPDEST SWAP3 POP DUP3 PUSH2 0x1C7A JUMPI PUSH2 0x1C79 PUSH2 0x1C28 JUMP JUMPDEST JUMPDEST DUP3 DUP3 DIV SWAP1 POP SWAP3 SWAP2 POP POP JUMP INVALID LOG2 PUSH5 0x6970667358 0x22 SLT KECCAK256 MLOAD DUP5 0xAD DUP1 PUSH20 0x7F572087165AB3D502EEA0D2F9B81BC6B559E5EA CODECOPY 0xFC 0xCF PUSH24 0xB003C664736F6C6343000818003300000000000000000000 "
				},
				"gasEstimates": {
					"creation": {
						"codeDepositCost": "1471000",
						"executionCost": "184908",
						"totalCost": "1655908"
					},
					"external": {
						"BLAST()": "infinite",
						"_blastClaimInterval()": "2492",
						"buyOres(address)": "infinite",
						"calculateOreBuy(uint256,uint256)": "infinite",
						"calculateOreBuySimple(uint256)": "infinite",
						"calculateOreSell(uint256)": "infinite",
						"claimMyGasFees()": "infinite",
						"furnaceRewards(address)": "infinite",
						"getAirdropQualifier(uint256)": "infinite",
						"getBalance()": "358",
						"getMyMiners(address)": "2918",
						"getMyOres(address)": "infinite",
						"getOresSinceLastHatch(address)": "infinite",
						"ingotBalanceOf(address)": "2961",
						"isOwner()": "2601",
						"owner()": "2604",
						"renounceOwnership()": "29949",
						"seedMarket()": "50914",
						"sellOres()": "infinite",
						"setBlastClaimInterval(uint256)": "24784",
						"setupBlast(address)": "infinite",
						"transferOwnership(address)": "30768"
					},
					"internal": {
						"_addClaimed(address,uint256)": "infinite",
						"_addIngots(address,uint256)": "infinite",
						"_distributeNative(uint256)": "infinite",
						"_hatchOres(address,uint256)": "infinite",
						"_rewardReferral(address,uint256)": "infinite",
						"_setClaimed(address,uint256)": "97409",
						"blastFeesClaimed(uint256)": "infinite",
						"calculateTrade(uint256,uint256,uint256)": "infinite",
						"devFee(uint256)": "infinite",
						"min(uint256,uint256)": "63"
					}
				},
				"methodIdentifiers": {
					"BLAST()": "97d75776",
					"_blastClaimInterval()": "4addc0e8",
					"buyOres(address)": "88bedf91",
					"calculateOreBuy(uint256,uint256)": "4ad47291",
					"calculateOreBuySimple(uint256)": "51546044",
					"calculateOreSell(uint256)": "44bb9117",
					"claimMyGasFees()": "23084e5f",
					"furnaceRewards(address)": "450c9d7d",
					"getAirdropQualifier(uint256)": "6dc39ec8",
					"getBalance()": "12065fe0",
					"getMyMiners(address)": "4b634b06",
					"getMyOres(address)": "224e80fc",
					"getOresSinceLastHatch(address)": "6bd22962",
					"ingotBalanceOf(address)": "f36f7c62",
					"isOwner()": "8f32d59b",
					"owner()": "8da5cb5b",
					"renounceOwnership()": "715018a6",
					"seedMarket()": "3c5f07cb",
					"sellOres()": "e3931607",
					"setBlastClaimInterval(uint256)": "eaca243b",
					"setupBlast(address)": "f2e809e0",
					"transferOwnership(address)": "f2fde38b"
				}
			},
			"storageLayout": {
				"storage": [
					{
						"astId": 344,
						"contract": "contracts/BlastFurnace_flattened.sol:BlastFurnace",
						"label": "_owner",
						"offset": 0,
						"slot": "0",
						"type": "t_address"
					},
					{
						"astId": 464,
						"contract": "contracts/BlastFurnace_flattened.sol:BlastFurnace",
						"label": "BLAST",
						"offset": 0,
						"slot": "1",
						"type": "t_contract(IBlast)459"
					},
					{
						"astId": 468,
						"contract": "contracts/BlastFurnace_flattened.sol:BlastFurnace",
						"label": "_lastBlastClaim",
						"offset": 0,
						"slot": "2",
						"type": "t_mapping(t_address,t_uint256)"
					},
					{
						"astId": 471,
						"contract": "contracts/BlastFurnace_flattened.sol:BlastFurnace",
						"label": "_blastClaimInterval",
						"offset": 0,
						"slot": "3",
						"type": "t_uint256"
					},
					{
						"astId": 473,
						"contract": "contracts/BlastFurnace_flattened.sol:BlastFurnace",
						"label": "_feesClaimed",
						"offset": 0,
						"slot": "4",
						"type": "t_uint256"
					},
					{
						"astId": 588,
						"contract": "contracts/BlastFurnace_flattened.sol:BlastFurnace",
						"label": "ORES_TO_HATCH_1MINERS",
						"offset": 0,
						"slot": "5",
						"type": "t_uint256"
					},
					{
						"astId": 609,
						"contract": "contracts/BlastFurnace_flattened.sol:BlastFurnace",
						"label": "PSN",
						"offset": 0,
						"slot": "6",
						"type": "t_uint256"
					},
					{
						"astId": 612,
						"contract": "contracts/BlastFurnace_flattened.sol:BlastFurnace",
						"label": "PSNH",
						"offset": 0,
						"slot": "7",
						"type": "t_uint256"
					},
					{
						"astId": 615,
						"contract": "contracts/BlastFurnace_flattened.sol:BlastFurnace",
						"label": "devFeeVal",
						"offset": 0,
						"slot": "8",
						"type": "t_uint256"
					},
					{
						"astId": 618,
						"contract": "contracts/BlastFurnace_flattened.sol:BlastFurnace",
						"label": "initialized",
						"offset": 0,
						"slot": "9",
						"type": "t_bool"
					},
					{
						"astId": 620,
						"contract": "contracts/BlastFurnace_flattened.sol:BlastFurnace",
						"label": "recAdd",
						"offset": 1,
						"slot": "9",
						"type": "t_address_payable"
					},
					{
						"astId": 624,
						"contract": "contracts/BlastFurnace_flattened.sol:BlastFurnace",
						"label": "hatcheryMiners",
						"offset": 0,
						"slot": "10",
						"type": "t_mapping(t_address,t_uint256)"
					},
					{
						"astId": 628,
						"contract": "contracts/BlastFurnace_flattened.sol:BlastFurnace",
						"label": "claimedOres",
						"offset": 0,
						"slot": "11",
						"type": "t_mapping(t_address,t_uint256)"
					},
					{
						"astId": 632,
						"contract": "contracts/BlastFurnace_flattened.sol:BlastFurnace",
						"label": "lastHatch",
						"offset": 0,
						"slot": "12",
						"type": "t_mapping(t_address,t_uint256)"
					},
					{
						"astId": 636,
						"contract": "contracts/BlastFurnace_flattened.sol:BlastFurnace",
						"label": "referrals",
						"offset": 0,
						"slot": "13",
						"type": "t_mapping(t_address,t_address)"
					},
					{
						"astId": 638,
						"contract": "contracts/BlastFurnace_flattened.sol:BlastFurnace",
						"label": "marketOres",
						"offset": 0,
						"slot": "14",
						"type": "t_uint256"
					},
					{
						"astId": 642,
						"contract": "contracts/BlastFurnace_flattened.sol:BlastFurnace",
						"label": "_ingotBalances",
						"offset": 0,
						"slot": "15",
						"type": "t_mapping(t_address,t_uint256)"
					},
					{
						"astId": 645,
						"contract": "contracts/BlastFurnace_flattened.sol:BlastFurnace",
						"label": "_holders",
						"offset": 0,
						"slot": "16",
						"type": "t_array(t_address)dyn_storage"
					},
					{
						"astId": 649,
						"contract": "contracts/BlastFurnace_flattened.sol:BlastFurnace",
						"label": "_isHolder",
						"offset": 0,
						"slot": "17",
						"type": "t_mapping(t_address,t_bool)"
					},
					{
						"astId": 652,
						"contract": "contracts/BlastFurnace_flattened.sol:BlastFurnace",
						"label": "_airdropQualifiers",
						"offset": 0,
						"slot": "18",
						"type": "t_array(t_address)dyn_storage"
					}
				],
				"types": {
					"t_address": {
						"encoding": "inplace",
						"label": "address",
						"numberOfBytes": "20"
					},
					"t_address_payable": {
						"encoding": "inplace",
						"label": "address payable",
						"numberOfBytes": "20"
					},
					"t_array(t_address)dyn_storage": {
						"base": "t_address",
						"encoding": "dynamic_array",
						"label": "address[]",
						"numberOfBytes": "32"
					},
					"t_bool": {
						"encoding": "inplace",
						"label": "bool",
						"numberOfBytes": "1"
					},
					"t_contract(IBlast)459": {
						"encoding": "inplace",
						"label": "contract IBlast",
						"numberOfBytes": "20"
					},
					"t_mapping(t_address,t_address)": {
						"encoding": "mapping",
						"key": "t_address",
						"label": "mapping(address => address)",
						"numberOfBytes": "32",
						"value": "t_address"
					},
					"t_mapping(t_address,t_bool)": {
						"encoding": "mapping",
						"key": "t_address",
						"label": "mapping(address => bool)",
						"numberOfBytes": "32",
						"value": "t_bool"
					},
					"t_mapping(t_address,t_uint256)": {
						"encoding": "mapping",
						"key": "t_address",
						"label": "mapping(address => uint256)",
						"numberOfBytes": "32",
						"value": "t_uint256"
					},
					"t_uint256": {
						"encoding": "inplace",
						"label": "uint256",
						"numberOfBytes": "32"
					}
				}
			},
			"userdoc": {
				"kind": "user",
				"methods": {},
				"version": 1
			}
		}
	}
}