{
	"contracts/BOMB_flattened.sol": {
		"BOMB": {
			"abi": [
				{
					"anonymous": false,
					"inputs": [
						{
							"indexed": true,
							"internalType": "address",
							"name": "owner",
							"type": "address"
						},
						{
							"indexed": true,
							"internalType": "address",
							"name": "spender",
							"type": "address"
						},
						{
							"indexed": false,
							"internalType": "uint256",
							"name": "value",
							"type": "uint256"
						}
					],
					"name": "Approval",
					"type": "event"
				},
				{
					"anonymous": false,
					"inputs": [
						{
							"indexed": true,
							"internalType": "uint256",
							"name": "epoch",
							"type": "uint256"
						},
						{
							"indexed": false,
							"internalType": "uint256",
							"name": "totalSupply",
							"type": "uint256"
						}
					],
					"name": "LogRebase",
					"type": "event"
				},
				{
					"anonymous": false,
					"inputs": [
						{
							"indexed": true,
							"internalType": "address",
							"name": "previousOwner",
							"type": "address"
						}
					],
					"name": "OwnershipRenounced",
					"type": "event"
				},
				{
					"anonymous": false,
					"inputs": [
						{
							"indexed": true,
							"internalType": "address",
							"name": "previousOwner",
							"type": "address"
						},
						{
							"indexed": true,
							"internalType": "address",
							"name": "newOwner",
							"type": "address"
						}
					],
					"name": "OwnershipTransferred",
					"type": "event"
				},
				{
					"anonymous": false,
					"inputs": [
						{
							"indexed": true,
							"internalType": "address",
							"name": "from",
							"type": "address"
						},
						{
							"indexed": true,
							"internalType": "address",
							"name": "to",
							"type": "address"
						},
						{
							"indexed": false,
							"internalType": "uint256",
							"name": "value",
							"type": "uint256"
						}
					],
					"name": "Transfer",
					"type": "event"
				},
				{
					"inputs": [],
					"name": "_autoRebase",
					"outputs": [
						{
							"internalType": "bool",
							"name": "",
							"type": "bool"
						}
					],
					"stateMutability": "view",
					"type": "function"
				},
				{
					"inputs": [
						{
							"internalType": "address",
							"name": "",
							"type": "address"
						}
					],
					"name": "_blacklist",
					"outputs": [
						{
							"internalType": "bool",
							"name": "",
							"type": "bool"
						}
					],
					"stateMutability": "view",
					"type": "function"
				},
				{
					"inputs": [],
					"name": "_distributionInterval",
					"outputs": [
						{
							"internalType": "uint256",
							"name": "",
							"type": "uint256"
						}
					],
					"stateMutability": "view",
					"type": "function"
				},
				{
					"inputs": [],
					"name": "_feePercent",
					"outputs": [
						{
							"internalType": "uint256",
							"name": "",
							"type": "uint256"
						}
					],
					"stateMutability": "view",
					"type": "function"
				},
				{
					"inputs": [],
					"name": "_init",
					"outputs": [],
					"stateMutability": "nonpayable",
					"type": "function"
				},
				{
					"inputs": [],
					"name": "_initComplete",
					"outputs": [
						{
							"internalType": "bool",
							"name": "",
							"type": "bool"
						}
					],
					"stateMutability": "view",
					"type": "function"
				},
				{
					"inputs": [],
					"name": "_initRebaseStartTime",
					"outputs": [
						{
							"internalType": "uint256",
							"name": "",
							"type": "uint256"
						}
					],
					"stateMutability": "view",
					"type": "function"
				},
				{
					"inputs": [],
					"name": "_lastRebasedTime",
					"outputs": [
						{
							"internalType": "uint256",
							"name": "",
							"type": "uint256"
						}
					],
					"stateMutability": "view",
					"type": "function"
				},
				{
					"inputs": [],
					"name": "_pairAddr",
					"outputs": [
						{
							"internalType": "address",
							"name": "",
							"type": "address"
						}
					],
					"stateMutability": "view",
					"type": "function"
				},
				{
					"inputs": [],
					"name": "_totalSupply",
					"outputs": [
						{
							"internalType": "uint256",
							"name": "",
							"type": "uint256"
						}
					],
					"stateMutability": "view",
					"type": "function"
				},
				{
					"inputs": [
						{
							"internalType": "address",
							"name": "owner_",
							"type": "address"
						},
						{
							"internalType": "address",
							"name": "spender",
							"type": "address"
						}
					],
					"name": "allowance",
					"outputs": [
						{
							"internalType": "uint256",
							"name": "",
							"type": "uint256"
						}
					],
					"stateMutability": "view",
					"type": "function"
				},
				{
					"inputs": [
						{
							"internalType": "address",
							"name": "spender",
							"type": "address"
						},
						{
							"internalType": "uint256",
							"name": "value",
							"type": "uint256"
						}
					],
					"name": "approve",
					"outputs": [
						{
							"internalType": "bool",
							"name": "",
							"type": "bool"
						}
					],
					"stateMutability": "nonpayable",
					"type": "function"
				},
				{
					"inputs": [
						{
							"internalType": "address",
							"name": "who",
							"type": "address"
						}
					],
					"name": "balanceOf",
					"outputs": [
						{
							"internalType": "uint256",
							"name": "",
							"type": "uint256"
						}
					],
					"stateMutability": "view",
					"type": "function"
				},
				{
					"inputs": [
						{
							"internalType": "address",
							"name": "_addr",
							"type": "address"
						}
					],
					"name": "checkFeeExempt",
					"outputs": [
						{
							"internalType": "bool",
							"name": "",
							"type": "bool"
						}
					],
					"stateMutability": "view",
					"type": "function"
				},
				{
					"inputs": [],
					"name": "decimals",
					"outputs": [
						{
							"internalType": "uint8",
							"name": "",
							"type": "uint8"
						}
					],
					"stateMutability": "view",
					"type": "function"
				},
				{
					"inputs": [
						{
							"internalType": "address",
							"name": "spender",
							"type": "address"
						},
						{
							"internalType": "uint256",
							"name": "subtractedValue",
							"type": "uint256"
						}
					],
					"name": "decreaseAllowance",
					"outputs": [
						{
							"internalType": "bool",
							"name": "",
							"type": "bool"
						}
					],
					"stateMutability": "nonpayable",
					"type": "function"
				},
				{
					"inputs": [],
					"name": "getCirculatingSupply",
					"outputs": [
						{
							"internalType": "uint256",
							"name": "",
							"type": "uint256"
						}
					],
					"stateMutability": "view",
					"type": "function"
				},
				{
					"inputs": [
						{
							"internalType": "address",
							"name": "spender",
							"type": "address"
						},
						{
							"internalType": "uint256",
							"name": "addedValue",
							"type": "uint256"
						}
					],
					"name": "increaseAllowance",
					"outputs": [
						{
							"internalType": "bool",
							"name": "",
							"type": "bool"
						}
					],
					"stateMutability": "nonpayable",
					"type": "function"
				},
				{
					"inputs": [],
					"name": "isNotInSwap",
					"outputs": [
						{
							"internalType": "bool",
							"name": "",
							"type": "bool"
						}
					],
					"stateMutability": "view",
					"type": "function"
				},
				{
					"inputs": [],
					"name": "isOwner",
					"outputs": [
						{
							"internalType": "bool",
							"name": "",
							"type": "bool"
						}
					],
					"stateMutability": "view",
					"type": "function"
				},
				{
					"inputs": [],
					"name": "manualSync",
					"outputs": [],
					"stateMutability": "nonpayable",
					"type": "function"
				},
				{
					"inputs": [],
					"name": "name",
					"outputs": [
						{
							"internalType": "string",
							"name": "",
							"type": "string"
						}
					],
					"stateMutability": "view",
					"type": "function"
				},
				{
					"inputs": [],
					"name": "owner",
					"outputs": [
						{
							"internalType": "address",
							"name": "",
							"type": "address"
						}
					],
					"stateMutability": "view",
					"type": "function"
				},
				{
					"inputs": [],
					"name": "renounceOwnership",
					"outputs": [],
					"stateMutability": "nonpayable",
					"type": "function"
				},
				{
					"inputs": [
						{
							"internalType": "bool",
							"name": "_flag",
							"type": "bool"
						}
					],
					"name": "setAutoRebase",
					"outputs": [],
					"stateMutability": "nonpayable",
					"type": "function"
				},
				{
					"inputs": [
						{
							"internalType": "address",
							"name": "_botAddress",
							"type": "address"
						},
						{
							"internalType": "bool",
							"name": "_flag",
							"type": "bool"
						}
					],
					"name": "setBotBlacklist",
					"outputs": [],
					"stateMutability": "nonpayable",
					"type": "function"
				},
				{
					"inputs": [
						{
							"internalType": "uint256",
							"name": "interval",
							"type": "uint256"
						}
					],
					"name": "setDistributeInterval",
					"outputs": [],
					"stateMutability": "nonpayable",
					"type": "function"
				},
				{
					"inputs": [
						{
							"internalType": "uint256",
							"name": "percent",
							"type": "uint256"
						}
					],
					"name": "setFeePercentage",
					"outputs": [],
					"stateMutability": "nonpayable",
					"type": "function"
				},
				{
					"inputs": [
						{
							"internalType": "address",
							"name": "_address",
							"type": "address"
						}
					],
					"name": "setLP",
					"outputs": [],
					"stateMutability": "nonpayable",
					"type": "function"
				},
				{
					"inputs": [
						{
							"internalType": "address",
							"name": "_addr",
							"type": "address"
						}
					],
					"name": "setWhitelist",
					"outputs": [],
					"stateMutability": "nonpayable",
					"type": "function"
				},
				{
					"inputs": [],
					"name": "symbol",
					"outputs": [
						{
							"internalType": "string",
							"name": "",
							"type": "string"
						}
					],
					"stateMutability": "view",
					"type": "function"
				},
				{
					"inputs": [],
					"name": "totalSupply",
					"outputs": [
						{
							"internalType": "uint256",
							"name": "",
							"type": "uint256"
						}
					],
					"stateMutability": "view",
					"type": "function"
				},
				{
					"inputs": [
						{
							"internalType": "address",
							"name": "to",
							"type": "address"
						},
						{
							"internalType": "uint256",
							"name": "value",
							"type": "uint256"
						}
					],
					"name": "transfer",
					"outputs": [
						{
							"internalType": "bool",
							"name": "",
							"type": "bool"
						}
					],
					"stateMutability": "nonpayable",
					"type": "function"
				},
				{
					"inputs": [
						{
							"internalType": "address",
							"name": "from",
							"type": "address"
						},
						{
							"internalType": "address",
							"name": "to",
							"type": "address"
						},
						{
							"internalType": "uint256",
							"name": "value",
							"type": "uint256"
						}
					],
					"name": "transferFrom",
					"outputs": [
						{
							"internalType": "bool",
							"name": "",
							"type": "bool"
						}
					],
					"stateMutability": "nonpayable",
					"type": "function"
				},
				{
					"inputs": [
						{
							"internalType": "address",
							"name": "newOwner",
							"type": "address"
						}
					],
					"name": "transferOwnership",
					"outputs": [],
					"stateMutability": "nonpayable",
					"type": "function"
				},
				{
					"stateMutability": "payable",
					"type": "receive"
				}
			],
			"devdoc": {
				"events": {
					"Approval(address,address,uint256)": {
						"details": "Emitted when the allowance of a `spender` for an `owner` is set by a call to {approve}. `value` is the new allowance."
					},
					"Transfer(address,address,uint256)": {
						"details": "Emitted when `value` tokens are moved from one account (`from`) to another (`to`). Note that `value` may be zero."
					}
				},
				"kind": "dev",
				"methods": {
					"approve(address,uint256)": {
						"details": "Sets a `value` amount of tokens as the allowance of `spender` over the caller's tokens. Returns a boolean value indicating whether the operation succeeded. IMPORTANT: Beware that changing an allowance with this method brings the risk that someone may use both the old and the new allowance by unfortunate transaction ordering. One possible solution to mitigate this race condition is to first reduce the spender's allowance to 0 and set the desired value afterwards: https://github.com/ethereum/EIPs/issues/20#issuecomment-263524729 Emits an {Approval} event."
					},
					"decimals()": {
						"details": "OPTIONAL Returns the amount of decimals supported by the token"
					},
					"name()": {
						"details": "OPTIONAL Returns the name of the token"
					},
					"symbol()": {
						"details": "OPTIONAL Returns the symbol of the token"
					},
					"totalSupply()": {
						"details": "Returns the value of tokens in existence."
					},
					"transfer(address,uint256)": {
						"details": "Moves a `value` amount of tokens from the caller's account to `to`. Returns a boolean value indicating whether the operation succeeded. Emits a {Transfer} event."
					},
					"transferFrom(address,address,uint256)": {
						"details": "Moves a `value` amount of tokens from `from` to `to` using the allowance mechanism. `value` is then deducted from the caller's allowance. Returns a boolean value indicating whether the operation succeeded. Emits a {Transfer} event."
					}
				},
				"version": 1
			},
			"evm": {
				"assembly": "    /* \"contracts/BOMB_flattened.sol\":23312:28698  contract BOMB is BOMBBase {... */\n  mstore(0x40, 0x80)\n    /* \"contracts/BOMB_flattened.sol\":19702:19704  99 */\n  0x63\n    /* \"contracts/BOMB_flattened.sol\":19673:19704  uint256 public _feePercent = 99 */\n  0x03\n  sstore\n    /* \"contracts/BOMB_flattened.sol\":19747:19757  10 minutes */\n  0x0258\n    /* \"contracts/BOMB_flattened.sol\":19708:19757  uint256 public _distributionInterval = 10 minutes */\n  0x04\n  sstore\n    /* \"contracts/BOMB_flattened.sol\":20355:20360  false */\n  0x00\n    /* \"contracts/BOMB_flattened.sol\":20331:20360  bool internal _inSwap = false */\n  0x12\n  exp(0x0100, 0x14)\n  dup2\n  sload\n  dup2\n  0xff\n  mul\n  not\n  and\n  swap1\n  dup4\n  iszero\n  iszero\n  mul\n  or\n  swap1\n  sstore\n  pop\n    /* \"contracts/BOMB_flattened.sol\":23312:28698  contract BOMB is BOMBBase {... */\n  callvalue\n  dup1\n  iszero\n  tag_1\n  jumpi\n  0x00\n  dup1\n  revert\ntag_1:\n  pop\n    /* \"contracts/BOMB_flattened.sol\":20551:20555  NAME */\n  mload(0x40)\n  dup1\n  0x40\n  add\n  0x40\n  mstore\n  dup1\n  0x04\n  dup2\n  mstore\n  0x20\n  add\n  0x424f4d4200000000000000000000000000000000000000000000000000000000\n  dup2\n  mstore\n  pop\n    /* \"contracts/BOMB_flattened.sol\":20557:20560  SYM */\n  mload(0x40)\n  dup1\n  0x40\n  add\n  0x40\n  mstore\n  dup1\n  0x04\n  dup2\n  mstore\n  0x20\n  add\n  0x424f4d4200000000000000000000000000000000000000000000000000000000\n  dup2\n  mstore\n  pop\n    /* \"contracts/BOMB_flattened.sol\":19053:19054  5 */\n  0x05\n    /* \"contracts/BOMB_flattened.sol\":17506:17511  name_ */\n  dup3\n    /* \"contracts/BOMB_flattened.sol\":17498:17503  _name */\n  0x00\n    /* \"contracts/BOMB_flattened.sol\":17498:17511  _name = name_ */\n  swap1\n  dup2\n  tag_6\n  swap2\n  swap1\n  tag_7\n  jump\t// in\ntag_6:\n  pop\n    /* \"contracts/BOMB_flattened.sol\":17526:17533  symbol_ */\n  dup2\n    /* \"contracts/BOMB_flattened.sol\":17516:17523  _symbol */\n  0x01\n    /* \"contracts/BOMB_flattened.sol\":17516:17533  _symbol = symbol_ */\n  swap1\n  dup2\n  tag_8\n  swap2\n  swap1\n  tag_7\n  jump\t// in\ntag_8:\n  pop\n    /* \"contracts/BOMB_flattened.sol\":17550:17559  decimals_ */\n  dup1\n    /* \"contracts/BOMB_flattened.sol\":17538:17547  _decimals */\n  0x02\n  0x00\n    /* \"contracts/BOMB_flattened.sol\":17538:17559  _decimals = decimals_ */\n  0x0100\n  exp\n  dup2\n  sload\n  dup2\n  0xff\n  mul\n  not\n  and\n  swap1\n  dup4\n  0xff\n  and\n  mul\n  or\n  swap1\n  sstore\n  pop\n    /* \"contracts/BOMB_flattened.sol\":17420:17564  constructor(string memory name_, string memory symbol_, uint8 decimals_) {... */\n  pop\n  pop\n  pop\n    /* \"contracts/BOMB_flattened.sol\":18103:18113  msg.sender */\n  caller\n    /* \"contracts/BOMB_flattened.sol\":18094:18100  _owner */\n  0x02\n  0x01\n    /* \"contracts/BOMB_flattened.sol\":18094:18113  _owner = msg.sender */\n  0x0100\n  exp\n  dup2\n  sload\n  dup2\n  0xffffffffffffffffffffffffffffffffffffffff\n  mul\n  not\n  and\n  swap1\n  dup4\n  0xffffffffffffffffffffffffffffffffffffffff\n  and\n  mul\n  or\n  swap1\n  sstore\n  pop\n    /* \"contracts/BOMB_flattened.sol\":19053:19054  5 */\n  0x05\n    /* \"contracts/BOMB_flattened.sol\":19299:19301  10 */\n  0x0a\n    /* \"contracts/BOMB_flattened.sol\":19299:19313  10 ** DECIMALS */\n  tag_11\n  swap2\n  swap1\n  tag_12\n  jump\t// in\ntag_11:\n    /* \"contracts/BOMB_flattened.sol\":19283:19296  325 * 10 ** 3 */\n  0x04f588\n    /* \"contracts/BOMB_flattened.sol\":19283:19313  325 * 10 ** 3 * 10 ** DECIMALS */\n  tag_13\n  swap2\n  swap1\n  tag_14\n  jump\t// in\ntag_13:\n    /* \"contracts/BOMB_flattened.sol\":20587:20599  _totalSupply */\n  0x08\n    /* \"contracts/BOMB_flattened.sol\":20587:20626  _totalSupply = INITIAL_FRAGMENTS_SUPPLY */\n  dup2\n  swap1\n  sstore\n  pop\n    /* \"contracts/BOMB_flattened.sol\":20650:20678  TOTAL_GONS.div(_totalSupply) */\n  tag_15\n    /* \"contracts/BOMB_flattened.sol\":20665:20677  _totalSupply */\n  sload(0x08)\n    /* \"contracts/BOMB_flattened.sol\":19053:19054  5 */\n  0x05\n    /* \"contracts/BOMB_flattened.sol\":19299:19301  10 */\n  0x0a\n    /* \"contracts/BOMB_flattened.sol\":19299:19313  10 ** DECIMALS */\n  tag_16\n  swap2\n  swap1\n  tag_12\n  jump\t// in\ntag_16:\n    /* \"contracts/BOMB_flattened.sol\":19283:19296  325 * 10 ** 3 */\n  0x04f588\n    /* \"contracts/BOMB_flattened.sol\":19283:19313  325 * 10 ** 3 * 10 ** DECIMALS */\n  tag_17\n  swap2\n  swap1\n  tag_14\n  jump\t// in\ntag_17:\n    /* \"contracts/BOMB_flattened.sol\":19153:19154  0 */\n  0x00\n    /* \"contracts/BOMB_flattened.sol\":19144:19155  ~uint256(0) */\n  not\n    /* \"contracts/BOMB_flattened.sol\":19371:19409  MAX_UINT256 % INITIAL_FRAGMENTS_SUPPLY */\n  tag_18\n  swap2\n  swap1\n  tag_19\n  jump\t// in\ntag_18:\n    /* \"contracts/BOMB_flattened.sol\":19153:19154  0 */\n  0x00\n    /* \"contracts/BOMB_flattened.sol\":19144:19155  ~uint256(0) */\n  not\n    /* \"contracts/BOMB_flattened.sol\":19356:19410  MAX_UINT256 - (MAX_UINT256 % INITIAL_FRAGMENTS_SUPPLY) */\n  tag_20\n  swap2\n  swap1\n  tag_21\n  jump\t// in\ntag_20:\n    /* \"contracts/BOMB_flattened.sol\":20650:20664  TOTAL_GONS.div */\n  shl(0x20, tag_22)\n  swap1\n    /* \"contracts/BOMB_flattened.sol\":20650:20678  TOTAL_GONS.div(_totalSupply) */\n  swap2\n  swap1\n  0x20\n  shr\n  jump\t// in\ntag_15:\n    /* \"contracts/BOMB_flattened.sol\":20631:20647  _gonsPerFragment */\n  0x09\n    /* \"contracts/BOMB_flattened.sol\":20631:20678  _gonsPerFragment = TOTAL_GONS.div(_totalSupply) */\n  dup2\n  swap1\n  sstore\n  pop\n    /* \"contracts/BOMB_flattened.sol\":20706:20721  block.timestamp */\n  timestamp\n    /* \"contracts/BOMB_flattened.sol\":20683:20703  _initRebaseStartTime */\n  0x06\n    /* \"contracts/BOMB_flattened.sol\":20683:20721  _initRebaseStartTime = block.timestamp */\n  dup2\n  swap1\n  sstore\n  pop\n    /* \"contracts/BOMB_flattened.sol\":20745:20760  block.timestamp */\n  timestamp\n    /* \"contracts/BOMB_flattened.sol\":20726:20742  _lastRebasedTime */\n  0x07\n    /* \"contracts/BOMB_flattened.sol\":20726:20760  _lastRebasedTime = block.timestamp */\n  dup2\n  swap1\n  sstore\n  pop\n    /* \"contracts/BOMB_flattened.sol\":20779:20783  true */\n  0x01\n    /* \"contracts/BOMB_flattened.sol\":20765:20776  _autoRebase */\n  0x05\n  0x00\n    /* \"contracts/BOMB_flattened.sol\":20765:20783  _autoRebase = true */\n  0x0100\n  exp\n  dup2\n  sload\n  dup2\n  0xff\n  mul\n  not\n  and\n  swap1\n  dup4\n  iszero\n  iszero\n  mul\n  or\n  swap1\n  sstore\n  pop\n    /* \"contracts/BOMB_flattened.sol\":20818:20822  true */\n  0x01\n    /* \"contracts/BOMB_flattened.sol\":20788:20800  _isFeeExempt */\n  0x0e\n    /* \"contracts/BOMB_flattened.sol\":20788:20815  _isFeeExempt[address(this)] */\n  0x00\n    /* \"contracts/BOMB_flattened.sol\":20809:20813  this */\n  address\n    /* \"contracts/BOMB_flattened.sol\":20788:20815  _isFeeExempt[address(this)] */\n  0xffffffffffffffffffffffffffffffffffffffff\n  and\n  0xffffffffffffffffffffffffffffffffffffffff\n  and\n  dup2\n  mstore\n  0x20\n  add\n  swap1\n  dup2\n  mstore\n  0x20\n  add\n  0x00\n  keccak256\n  0x00\n    /* \"contracts/BOMB_flattened.sol\":20788:20822  _isFeeExempt[address(this)] = true */\n  0x0100\n  exp\n  dup2\n  sload\n  dup2\n  0xff\n  mul\n  not\n  and\n  swap1\n  dup4\n  iszero\n  iszero\n  mul\n  or\n  swap1\n  sstore\n  pop\n    /* \"contracts/BOMB_flattened.sol\":20856:20868  _totalSupply */\n  sload(0x08)\n    /* \"contracts/BOMB_flattened.sol\":20829:20841  _gonBalances */\n  0x0c\n    /* \"contracts/BOMB_flattened.sol\":20829:20853  _gonBalances[msg.sender] */\n  0x00\n    /* \"contracts/BOMB_flattened.sol\":20842:20852  msg.sender */\n  caller\n    /* \"contracts/BOMB_flattened.sol\":20829:20853  _gonBalances[msg.sender] */\n  0xffffffffffffffffffffffffffffffffffffffff\n  and\n  0xffffffffffffffffffffffffffffffffffffffff\n  and\n  dup2\n  mstore\n  0x20\n  add\n  swap1\n  dup2\n  mstore\n  0x20\n  add\n  0x00\n  keccak256\n    /* \"contracts/BOMB_flattened.sol\":20829:20868  _gonBalances[msg.sender] = _totalSupply */\n  dup2\n  swap1\n  sstore\n  pop\n    /* \"contracts/BOMB_flattened.sol\":23312:28698  contract BOMB is BOMBBase {... */\n  jump(tag_23)\n    /* \"contracts/BOMB_flattened.sol\":4475:4564  function div(uint256 a, uint256 b) internal pure returns (uint256) {... */\ntag_22:\n    /* \"contracts/BOMB_flattened.sol\":4533:4540  uint256 */\n  0x00\n    /* \"contracts/BOMB_flattened.sol\":4558:4559  b */\n  dup2\n    /* \"contracts/BOMB_flattened.sol\":4554:4555  a */\n  dup4\n    /* \"contracts/BOMB_flattened.sol\":4554:4559  a / b */\n  tag_25\n  swap2\n  swap1\n  tag_26\n  jump\t// in\ntag_25:\n    /* \"contracts/BOMB_flattened.sol\":4547:4559  return a / b */\n  swap1\n  pop\n    /* \"contracts/BOMB_flattened.sol\":4475:4564  function div(uint256 a, uint256 b) internal pure returns (uint256) {... */\n  swap3\n  swap2\n  pop\n  pop\n  jump\t// out\n    /* \"#utility.yul\":7:106   */\ntag_27:\n    /* \"#utility.yul\":59:65   */\n  0x00\n    /* \"#utility.yul\":93:98   */\n  dup2\n    /* \"#utility.yul\":87:99   */\n  mload\n    /* \"#utility.yul\":77:99   */\n  swap1\n  pop\n    /* \"#utility.yul\":7:106   */\n  swap2\n  swap1\n  pop\n  jump\t// out\n    /* \"#utility.yul\":112:292   */\ntag_28:\n    /* \"#utility.yul\":160:237   */\n  0x4e487b7100000000000000000000000000000000000000000000000000000000\n    /* \"#utility.yul\":157:158   */\n  0x00\n    /* \"#utility.yul\":150:238   */\n  mstore\n    /* \"#utility.yul\":257:261   */\n  0x41\n    /* \"#utility.yul\":254:255   */\n  0x04\n    /* \"#utility.yul\":247:262   */\n  mstore\n    /* \"#utility.yul\":281:285   */\n  0x24\n    /* \"#utility.yul\":278:279   */\n  0x00\n    /* \"#utility.yul\":271:286   */\n  revert\n    /* \"#utility.yul\":298:478   */\ntag_29:\n    /* \"#utility.yul\":346:423   */\n  0x4e487b7100000000000000000000000000000000000000000000000000000000\n    /* \"#utility.yul\":343:344   */\n  0x00\n    /* \"#utility.yul\":336:424   */\n  mstore\n    /* \"#utility.yul\":443:447   */\n  0x22\n    /* \"#utility.yul\":440:441   */\n  0x04\n    /* \"#utility.yul\":433:448   */\n  mstore\n    /* \"#utility.yul\":467:471   */\n  0x24\n    /* \"#utility.yul\":464:465   */\n  0x00\n    /* \"#utility.yul\":457:472   */\n  revert\n    /* \"#utility.yul\":484:804   */\ntag_30:\n    /* \"#utility.yul\":528:534   */\n  0x00\n    /* \"#utility.yul\":565:566   */\n  0x02\n    /* \"#utility.yul\":559:563   */\n  dup3\n    /* \"#utility.yul\":555:567   */\n  div\n    /* \"#utility.yul\":545:567   */\n  swap1\n  pop\n    /* \"#utility.yul\":612:613   */\n  0x01\n    /* \"#utility.yul\":606:610   */\n  dup3\n    /* \"#utility.yul\":602:614   */\n  and\n    /* \"#utility.yul\":633:651   */\n  dup1\n    /* \"#utility.yul\":623:704   */\n  tag_58\n  jumpi\n    /* \"#utility.yul\":689:693   */\n  0x7f\n    /* \"#utility.yul\":681:687   */\n  dup3\n    /* \"#utility.yul\":677:694   */\n  and\n    /* \"#utility.yul\":667:694   */\n  swap2\n  pop\n    /* \"#utility.yul\":623:704   */\ntag_58:\n    /* \"#utility.yul\":751:753   */\n  0x20\n    /* \"#utility.yul\":743:749   */\n  dup3\n    /* \"#utility.yul\":740:754   */\n  lt\n    /* \"#utility.yul\":720:738   */\n  dup2\n    /* \"#utility.yul\":717:755   */\n  sub\n    /* \"#utility.yul\":714:798   */\n  tag_59\n  jumpi\n    /* \"#utility.yul\":770:788   */\n  tag_60\n  tag_29\n  jump\t// in\ntag_60:\n    /* \"#utility.yul\":714:798   */\ntag_59:\n    /* \"#utility.yul\":535:804   */\n  pop\n    /* \"#utility.yul\":484:804   */\n  swap2\n  swap1\n  pop\n  jump\t// out\n    /* \"#utility.yul\":810:951   */\ntag_31:\n    /* \"#utility.yul\":859:863   */\n  0x00\n    /* \"#utility.yul\":882:885   */\n  dup2\n    /* \"#utility.yul\":874:885   */\n  swap1\n  pop\n    /* \"#utility.yul\":905:908   */\n  dup2\n    /* \"#utility.yul\":902:903   */\n  0x00\n    /* \"#utility.yul\":895:909   */\n  mstore\n    /* \"#utility.yul\":939:943   */\n  0x20\n    /* \"#utility.yul\":936:937   */\n  0x00\n    /* \"#utility.yul\":926:944   */\n  keccak256\n    /* \"#utility.yul\":918:944   */\n  swap1\n  pop\n    /* \"#utility.yul\":810:951   */\n  swap2\n  swap1\n  pop\n  jump\t// out\n    /* \"#utility.yul\":957:1050   */\ntag_32:\n    /* \"#utility.yul\":994:1000   */\n  0x00\n    /* \"#utility.yul\":1041:1043   */\n  0x20\n    /* \"#utility.yul\":1036:1038   */\n  0x1f\n    /* \"#utility.yul\":1029:1034   */\n  dup4\n    /* \"#utility.yul\":1025:1039   */\n  add\n    /* \"#utility.yul\":1021:1044   */\n  div\n    /* \"#utility.yul\":1011:1044   */\n  swap1\n  pop\n    /* \"#utility.yul\":957:1050   */\n  swap2\n  swap1\n  pop\n  jump\t// out\n    /* \"#utility.yul\":1056:1163   */\ntag_33:\n    /* \"#utility.yul\":1100:1108   */\n  0x00\n    /* \"#utility.yul\":1150:1155   */\n  dup3\n    /* \"#utility.yul\":1144:1148   */\n  dup3\n    /* \"#utility.yul\":1140:1156   */\n  shl\n    /* \"#utility.yul\":1119:1156   */\n  swap1\n  pop\n    /* \"#utility.yul\":1056:1163   */\n  swap3\n  swap2\n  pop\n  pop\n  jump\t// out\n    /* \"#utility.yul\":1169:1562   */\ntag_34:\n    /* \"#utility.yul\":1238:1244   */\n  0x00\n    /* \"#utility.yul\":1288:1289   */\n  0x08\n    /* \"#utility.yul\":1276:1286   */\n  dup4\n    /* \"#utility.yul\":1272:1290   */\n  mul\n    /* \"#utility.yul\":1311:1408   */\n  tag_65\n    /* \"#utility.yul\":1341:1407   */\n  0xffffffffffffffffffffffffffffffffffffffffffffffffffffffffffffffff\n    /* \"#utility.yul\":1330:1339   */\n  dup3\n    /* \"#utility.yul\":1311:1408   */\n  tag_33\n  jump\t// in\ntag_65:\n    /* \"#utility.yul\":1429:1468   */\n  tag_66\n    /* \"#utility.yul\":1459:1467   */\n  dup7\n    /* \"#utility.yul\":1448:1457   */\n  dup4\n    /* \"#utility.yul\":1429:1468   */\n  tag_33\n  jump\t// in\ntag_66:\n    /* \"#utility.yul\":1417:1468   */\n  swap6\n  pop\n    /* \"#utility.yul\":1501:1505   */\n  dup1\n    /* \"#utility.yul\":1497:1506   */\n  not\n    /* \"#utility.yul\":1490:1495   */\n  dup5\n    /* \"#utility.yul\":1486:1507   */\n  and\n    /* \"#utility.yul\":1477:1507   */\n  swap4\n  pop\n    /* \"#utility.yul\":1550:1554   */\n  dup1\n    /* \"#utility.yul\":1540:1548   */\n  dup7\n    /* \"#utility.yul\":1536:1555   */\n  and\n    /* \"#utility.yul\":1529:1534   */\n  dup5\n    /* \"#utility.yul\":1526:1556   */\n  or\n    /* \"#utility.yul\":1516:1556   */\n  swap3\n  pop\n    /* \"#utility.yul\":1245:1562   */\n  pop\n  pop\n    /* \"#utility.yul\":1169:1562   */\n  swap4\n  swap3\n  pop\n  pop\n  pop\n  jump\t// out\n    /* \"#utility.yul\":1568:1645   */\ntag_35:\n    /* \"#utility.yul\":1605:1612   */\n  0x00\n    /* \"#utility.yul\":1634:1639   */\n  dup2\n    /* \"#utility.yul\":1623:1639   */\n  swap1\n  pop\n    /* \"#utility.yul\":1568:1645   */\n  swap2\n  swap1\n  pop\n  jump\t// out\n    /* \"#utility.yul\":1651:1711   */\ntag_36:\n    /* \"#utility.yul\":1679:1682   */\n  0x00\n    /* \"#utility.yul\":1700:1705   */\n  dup2\n    /* \"#utility.yul\":1693:1705   */\n  swap1\n  pop\n    /* \"#utility.yul\":1651:1711   */\n  swap2\n  swap1\n  pop\n  jump\t// out\n    /* \"#utility.yul\":1717:1859   */\ntag_37:\n    /* \"#utility.yul\":1767:1776   */\n  0x00\n    /* \"#utility.yul\":1800:1853   */\n  tag_70\n    /* \"#utility.yul\":1818:1852   */\n  tag_71\n    /* \"#utility.yul\":1827:1851   */\n  tag_72\n    /* \"#utility.yul\":1845:1850   */\n  dup5\n    /* \"#utility.yul\":1827:1851   */\n  tag_35\n  jump\t// in\ntag_72:\n    /* \"#utility.yul\":1818:1852   */\n  tag_36\n  jump\t// in\ntag_71:\n    /* \"#utility.yul\":1800:1853   */\n  tag_35\n  jump\t// in\ntag_70:\n    /* \"#utility.yul\":1787:1853   */\n  swap1\n  pop\n    /* \"#utility.yul\":1717:1859   */\n  swap2\n  swap1\n  pop\n  jump\t// out\n    /* \"#utility.yul\":1865:1940   */\ntag_38:\n    /* \"#utility.yul\":1908:1911   */\n  0x00\n    /* \"#utility.yul\":1929:1934   */\n  dup2\n    /* \"#utility.yul\":1922:1934   */\n  swap1\n  pop\n    /* \"#utility.yul\":1865:1940   */\n  swap2\n  swap1\n  pop\n  jump\t// out\n    /* \"#utility.yul\":1946:2215   */\ntag_39:\n    /* \"#utility.yul\":2056:2095   */\n  tag_75\n    /* \"#utility.yul\":2087:2094   */\n  dup4\n    /* \"#utility.yul\":2056:2095   */\n  tag_37\n  jump\t// in\ntag_75:\n    /* \"#utility.yul\":2117:2208   */\n  tag_76\n    /* \"#utility.yul\":2166:2207   */\n  tag_77\n    /* \"#utility.yul\":2190:2206   */\n  dup3\n    /* \"#utility.yul\":2166:2207   */\n  tag_38\n  jump\t// in\ntag_77:\n    /* \"#utility.yul\":2158:2164   */\n  dup5\n    /* \"#utility.yul\":2151:2155   */\n  dup5\n    /* \"#utility.yul\":2145:2156   */\n  sload\n    /* \"#utility.yul\":2117:2208   */\n  tag_34\n  jump\t// in\ntag_76:\n    /* \"#utility.yul\":2111:2115   */\n  dup3\n    /* \"#utility.yul\":2104:2209   */\n  sstore\n    /* \"#utility.yul\":2022:2215   */\n  pop\n    /* \"#utility.yul\":1946:2215   */\n  pop\n  pop\n  pop\n  jump\t// out\n    /* \"#utility.yul\":2221:2294   */\ntag_40:\n    /* \"#utility.yul\":2266:2269   */\n  0x00\n    /* \"#utility.yul\":2221:2294   */\n  swap1\n  jump\t// out\n    /* \"#utility.yul\":2300:2489   */\ntag_41:\n    /* \"#utility.yul\":2377:2409   */\n  tag_80\n  tag_40\n  jump\t// in\ntag_80:\n    /* \"#utility.yul\":2418:2483   */\n  tag_81\n    /* \"#utility.yul\":2476:2482   */\n  dup2\n    /* \"#utility.yul\":2468:2474   */\n  dup5\n    /* \"#utility.yul\":2462:2466   */\n  dup5\n    /* \"#utility.yul\":2418:2483   */\n  tag_39\n  jump\t// in\ntag_81:\n    /* \"#utility.yul\":2353:2489   */\n  pop\n    /* \"#utility.yul\":2300:2489   */\n  pop\n  pop\n  jump\t// out\n    /* \"#utility.yul\":2495:2681   */\ntag_42:\n    /* \"#utility.yul\":2555:2675   */\ntag_83:\n    /* \"#utility.yul\":2572:2575   */\n  dup2\n    /* \"#utility.yul\":2565:2570   */\n  dup2\n    /* \"#utility.yul\":2562:2576   */\n  lt\n    /* \"#utility.yul\":2555:2675   */\n  iszero\n  tag_85\n  jumpi\n    /* \"#utility.yul\":2626:2665   */\n  tag_86\n    /* \"#utility.yul\":2663:2664   */\n  0x00\n    /* \"#utility.yul\":2656:2661   */\n  dup3\n    /* \"#utility.yul\":2626:2665   */\n  tag_41\n  jump\t// in\ntag_86:\n    /* \"#utility.yul\":2599:2600   */\n  0x01\n    /* \"#utility.yul\":2592:2597   */\n  dup2\n    /* \"#utility.yul\":2588:2601   */\n  add\n    /* \"#utility.yul\":2579:2601   */\n  swap1\n  pop\n    /* \"#utility.yul\":2555:2675   */\n  jump(tag_83)\ntag_85:\n    /* \"#utility.yul\":2495:2681   */\n  pop\n  pop\n  jump\t// out\n    /* \"#utility.yul\":2687:3230   */\ntag_43:\n    /* \"#utility.yul\":2788:2790   */\n  0x1f\n    /* \"#utility.yul\":2783:2786   */\n  dup3\n    /* \"#utility.yul\":2780:2791   */\n  gt\n    /* \"#utility.yul\":2777:3223   */\n  iszero\n  tag_88\n  jumpi\n    /* \"#utility.yul\":2822:2860   */\n  tag_89\n    /* \"#utility.yul\":2854:2859   */\n  dup2\n    /* \"#utility.yul\":2822:2860   */\n  tag_31\n  jump\t// in\ntag_89:\n    /* \"#utility.yul\":2906:2935   */\n  tag_90\n    /* \"#utility.yul\":2924:2934   */\n  dup5\n    /* \"#utility.yul\":2906:2935   */\n  tag_32\n  jump\t// in\ntag_90:\n    /* \"#utility.yul\":2896:2904   */\n  dup2\n    /* \"#utility.yul\":2892:2936   */\n  add\n    /* \"#utility.yul\":3089:3091   */\n  0x20\n    /* \"#utility.yul\":3077:3087   */\n  dup6\n    /* \"#utility.yul\":3074:3092   */\n  lt\n    /* \"#utility.yul\":3071:3120   */\n  iszero\n  tag_91\n  jumpi\n    /* \"#utility.yul\":3110:3118   */\n  dup2\n    /* \"#utility.yul\":3095:3118   */\n  swap1\n  pop\n    /* \"#utility.yul\":3071:3120   */\ntag_91:\n    /* \"#utility.yul\":3133:3213   */\n  tag_92\n    /* \"#utility.yul\":3189:3211   */\n  tag_93\n    /* \"#utility.yul\":3207:3210   */\n  dup6\n    /* \"#utility.yul\":3189:3211   */\n  tag_32\n  jump\t// in\ntag_93:\n    /* \"#utility.yul\":3179:3187   */\n  dup4\n    /* \"#utility.yul\":3175:3212   */\n  add\n    /* \"#utility.yul\":3162:3173   */\n  dup3\n    /* \"#utility.yul\":3133:3213   */\n  tag_42\n  jump\t// in\ntag_92:\n    /* \"#utility.yul\":2792:3223   */\n  pop\n  pop\n    /* \"#utility.yul\":2777:3223   */\ntag_88:\n    /* \"#utility.yul\":2687:3230   */\n  pop\n  pop\n  pop\n  jump\t// out\n    /* \"#utility.yul\":3236:3353   */\ntag_44:\n    /* \"#utility.yul\":3290:3298   */\n  0x00\n    /* \"#utility.yul\":3340:3345   */\n  dup3\n    /* \"#utility.yul\":3334:3338   */\n  dup3\n    /* \"#utility.yul\":3330:3346   */\n  shr\n    /* \"#utility.yul\":3309:3346   */\n  swap1\n  pop\n    /* \"#utility.yul\":3236:3353   */\n  swap3\n  swap2\n  pop\n  pop\n  jump\t// out\n    /* \"#utility.yul\":3359:3528   */\ntag_45:\n    /* \"#utility.yul\":3403:3409   */\n  0x00\n    /* \"#utility.yul\":3436:3487   */\n  tag_96\n    /* \"#utility.yul\":3484:3485   */\n  0x00\n    /* \"#utility.yul\":3480:3486   */\n  not\n    /* \"#utility.yul\":3472:3477   */\n  dup5\n    /* \"#utility.yul\":3469:3470   */\n  0x08\n    /* \"#utility.yul\":3465:3478   */\n  mul\n    /* \"#utility.yul\":3436:3487   */\n  tag_44\n  jump\t// in\ntag_96:\n    /* \"#utility.yul\":3432:3488   */\n  not\n    /* \"#utility.yul\":3517:3521   */\n  dup1\n    /* \"#utility.yul\":3511:3515   */\n  dup4\n    /* \"#utility.yul\":3507:3522   */\n  and\n    /* \"#utility.yul\":3497:3522   */\n  swap2\n  pop\n    /* \"#utility.yul\":3410:3528   */\n  pop\n    /* \"#utility.yul\":3359:3528   */\n  swap3\n  swap2\n  pop\n  pop\n  jump\t// out\n    /* \"#utility.yul\":3533:3828   */\ntag_46:\n    /* \"#utility.yul\":3609:3613   */\n  0x00\n    /* \"#utility.yul\":3755:3784   */\n  tag_98\n    /* \"#utility.yul\":3780:3783   */\n  dup4\n    /* \"#utility.yul\":3774:3778   */\n  dup4\n    /* \"#utility.yul\":3755:3784   */\n  tag_45\n  jump\t// in\ntag_98:\n    /* \"#utility.yul\":3747:3784   */\n  swap2\n  pop\n    /* \"#utility.yul\":3817:3820   */\n  dup3\n    /* \"#utility.yul\":3814:3815   */\n  0x02\n    /* \"#utility.yul\":3810:3821   */\n  mul\n    /* \"#utility.yul\":3804:3808   */\n  dup3\n    /* \"#utility.yul\":3801:3822   */\n  or\n    /* \"#utility.yul\":3793:3822   */\n  swap1\n  pop\n    /* \"#utility.yul\":3533:3828   */\n  swap3\n  swap2\n  pop\n  pop\n  jump\t// out\n    /* \"#utility.yul\":3833:5228   */\ntag_7:\n    /* \"#utility.yul\":3950:3987   */\n  tag_100\n    /* \"#utility.yul\":3983:3986   */\n  dup3\n    /* \"#utility.yul\":3950:3987   */\n  tag_27\n  jump\t// in\ntag_100:\n    /* \"#utility.yul\":4052:4070   */\n  0xffffffffffffffff\n    /* \"#utility.yul\":4044:4050   */\n  dup2\n    /* \"#utility.yul\":4041:4071   */\n  gt\n    /* \"#utility.yul\":4038:4094   */\n  iszero\n  tag_101\n  jumpi\n    /* \"#utility.yul\":4074:4092   */\n  tag_102\n  tag_28\n  jump\t// in\ntag_102:\n    /* \"#utility.yul\":4038:4094   */\ntag_101:\n    /* \"#utility.yul\":4118:4156   */\n  tag_103\n    /* \"#utility.yul\":4150:4154   */\n  dup3\n    /* \"#utility.yul\":4144:4155   */\n  sload\n    /* \"#utility.yul\":4118:4156   */\n  tag_30\n  jump\t// in\ntag_103:\n    /* \"#utility.yul\":4203:4270   */\n  tag_104\n    /* \"#utility.yul\":4263:4269   */\n  dup3\n    /* \"#utility.yul\":4255:4261   */\n  dup3\n    /* \"#utility.yul\":4249:4253   */\n  dup6\n    /* \"#utility.yul\":4203:4270   */\n  tag_43\n  jump\t// in\ntag_104:\n    /* \"#utility.yul\":4297:4298   */\n  0x00\n    /* \"#utility.yul\":4321:4325   */\n  0x20\n    /* \"#utility.yul\":4308:4325   */\n  swap1\n  pop\n    /* \"#utility.yul\":4353:4355   */\n  0x1f\n    /* \"#utility.yul\":4345:4351   */\n  dup4\n    /* \"#utility.yul\":4342:4356   */\n  gt\n    /* \"#utility.yul\":4370:4371   */\n  0x01\n    /* \"#utility.yul\":4365:4983   */\n  dup2\n  eq\n  tag_106\n  jumpi\n    /* \"#utility.yul\":5027:5028   */\n  0x00\n    /* \"#utility.yul\":5044:5050   */\n  dup5\n    /* \"#utility.yul\":5041:5118   */\n  iszero\n  tag_107\n  jumpi\n    /* \"#utility.yul\":5093:5102   */\n  dup3\n    /* \"#utility.yul\":5088:5091   */\n  dup8\n    /* \"#utility.yul\":5084:5103   */\n  add\n    /* \"#utility.yul\":5078:5104   */\n  mload\n    /* \"#utility.yul\":5069:5104   */\n  swap1\n  pop\n    /* \"#utility.yul\":5041:5118   */\ntag_107:\n    /* \"#utility.yul\":5144:5211   */\n  tag_108\n    /* \"#utility.yul\":5204:5210   */\n  dup6\n    /* \"#utility.yul\":5197:5202   */\n  dup3\n    /* \"#utility.yul\":5144:5211   */\n  tag_46\n  jump\t// in\ntag_108:\n    /* \"#utility.yul\":5138:5142   */\n  dup7\n    /* \"#utility.yul\":5131:5212   */\n  sstore\n    /* \"#utility.yul\":5000:5222   */\n  pop\n    /* \"#utility.yul\":4335:5222   */\n  jump(tag_105)\n    /* \"#utility.yul\":4365:4983   */\ntag_106:\n    /* \"#utility.yul\":4417:4421   */\n  0x1f\n    /* \"#utility.yul\":4413:4422   */\n  not\n    /* \"#utility.yul\":4405:4411   */\n  dup5\n    /* \"#utility.yul\":4401:4423   */\n  and\n    /* \"#utility.yul\":4451:4488   */\n  tag_109\n    /* \"#utility.yul\":4483:4487   */\n  dup7\n    /* \"#utility.yul\":4451:4488   */\n  tag_31\n  jump\t// in\ntag_109:\n    /* \"#utility.yul\":4510:4511   */\n  0x00\n    /* \"#utility.yul\":4524:4732   */\ntag_110:\n    /* \"#utility.yul\":4538:4545   */\n  dup3\n    /* \"#utility.yul\":4535:4536   */\n  dup2\n    /* \"#utility.yul\":4532:4546   */\n  lt\n    /* \"#utility.yul\":4524:4732   */\n  iszero\n  tag_112\n  jumpi\n    /* \"#utility.yul\":4617:4626   */\n  dup5\n    /* \"#utility.yul\":4612:4615   */\n  dup10\n    /* \"#utility.yul\":4608:4627   */\n  add\n    /* \"#utility.yul\":4602:4628   */\n  mload\n    /* \"#utility.yul\":4594:4600   */\n  dup3\n    /* \"#utility.yul\":4587:4629   */\n  sstore\n    /* \"#utility.yul\":4668:4669   */\n  0x01\n    /* \"#utility.yul\":4660:4666   */\n  dup3\n    /* \"#utility.yul\":4656:4670   */\n  add\n    /* \"#utility.yul\":4646:4670   */\n  swap2\n  pop\n    /* \"#utility.yul\":4715:4717   */\n  0x20\n    /* \"#utility.yul\":4704:4713   */\n  dup6\n    /* \"#utility.yul\":4700:4718   */\n  add\n    /* \"#utility.yul\":4687:4718   */\n  swap5\n  pop\n    /* \"#utility.yul\":4561:4565   */\n  0x20\n    /* \"#utility.yul\":4558:4559   */\n  dup2\n    /* \"#utility.yul\":4554:4566   */\n  add\n    /* \"#utility.yul\":4549:4566   */\n  swap1\n  pop\n    /* \"#utility.yul\":4524:4732   */\n  jump(tag_110)\ntag_112:\n    /* \"#utility.yul\":4760:4766   */\n  dup7\n    /* \"#utility.yul\":4751:4758   */\n  dup4\n    /* \"#utility.yul\":4748:4767   */\n  lt\n    /* \"#utility.yul\":4745:4924   */\n  iszero\n  tag_113\n  jumpi\n    /* \"#utility.yul\":4818:4827   */\n  dup5\n    /* \"#utility.yul\":4813:4816   */\n  dup10\n    /* \"#utility.yul\":4809:4828   */\n  add\n    /* \"#utility.yul\":4803:4829   */\n  mload\n    /* \"#utility.yul\":4861:4909   */\n  tag_114\n    /* \"#utility.yul\":4903:4907   */\n  0x1f\n    /* \"#utility.yul\":4895:4901   */\n  dup10\n    /* \"#utility.yul\":4891:4908   */\n  and\n    /* \"#utility.yul\":4880:4889   */\n  dup3\n    /* \"#utility.yul\":4861:4909   */\n  tag_45\n  jump\t// in\ntag_114:\n    /* \"#utility.yul\":4853:4859   */\n  dup4\n    /* \"#utility.yul\":4846:4910   */\n  sstore\n    /* \"#utility.yul\":4768:4924   */\n  pop\n    /* \"#utility.yul\":4745:4924   */\ntag_113:\n    /* \"#utility.yul\":4970:4971   */\n  0x01\n    /* \"#utility.yul\":4966:4967   */\n  0x02\n    /* \"#utility.yul\":4958:4964   */\n  dup9\n    /* \"#utility.yul\":4954:4968   */\n  mul\n    /* \"#utility.yul\":4950:4972   */\n  add\n    /* \"#utility.yul\":4944:4948   */\n  dup9\n    /* \"#utility.yul\":4937:4973   */\n  sstore\n    /* \"#utility.yul\":4372:4983   */\n  pop\n  pop\n  pop\n    /* \"#utility.yul\":4335:5222   */\ntag_105:\n  pop\n    /* \"#utility.yul\":3925:5228   */\n  pop\n  pop\n  pop\n    /* \"#utility.yul\":3833:5228   */\n  pop\n  pop\n  jump\t// out\n    /* \"#utility.yul\":5234:5414   */\ntag_47:\n    /* \"#utility.yul\":5282:5359   */\n  0x4e487b7100000000000000000000000000000000000000000000000000000000\n    /* \"#utility.yul\":5279:5280   */\n  0x00\n    /* \"#utility.yul\":5272:5360   */\n  mstore\n    /* \"#utility.yul\":5379:5383   */\n  0x11\n    /* \"#utility.yul\":5376:5377   */\n  0x04\n    /* \"#utility.yul\":5369:5384   */\n  mstore\n    /* \"#utility.yul\":5403:5407   */\n  0x24\n    /* \"#utility.yul\":5400:5401   */\n  0x00\n    /* \"#utility.yul\":5393:5408   */\n  revert\n    /* \"#utility.yul\":5420:5522   */\ntag_48:\n    /* \"#utility.yul\":5462:5470   */\n  0x00\n    /* \"#utility.yul\":5509:5514   */\n  dup2\n    /* \"#utility.yul\":5506:5507   */\n  0x01\n    /* \"#utility.yul\":5502:5515   */\n  shr\n    /* \"#utility.yul\":5481:5515   */\n  swap1\n  pop\n    /* \"#utility.yul\":5420:5522   */\n  swap2\n  swap1\n  pop\n  jump\t// out\n    /* \"#utility.yul\":5528:6376   */\ntag_49:\n    /* \"#utility.yul\":5589:5594   */\n  0x00\n    /* \"#utility.yul\":5596:5600   */\n  dup1\n    /* \"#utility.yul\":5620:5626   */\n  dup3\n    /* \"#utility.yul\":5611:5626   */\n  swap2\n  pop\n    /* \"#utility.yul\":5644:5649   */\n  dup4\n    /* \"#utility.yul\":5635:5649   */\n  swap1\n  pop\n    /* \"#utility.yul\":5658:6370   */\ntag_118:\n    /* \"#utility.yul\":5679:5680   */\n  0x01\n    /* \"#utility.yul\":5669:5677   */\n  dup6\n    /* \"#utility.yul\":5666:5681   */\n  gt\n    /* \"#utility.yul\":5658:6370   */\n  iszero\n  tag_120\n  jumpi\n    /* \"#utility.yul\":5774:5778   */\n  dup1\n    /* \"#utility.yul\":5769:5772   */\n  dup7\n    /* \"#utility.yul\":5765:5779   */\n  div\n    /* \"#utility.yul\":5759:5763   */\n  dup2\n    /* \"#utility.yul\":5756:5780   */\n  gt\n    /* \"#utility.yul\":5753:5803   */\n  iszero\n  tag_121\n  jumpi\n    /* \"#utility.yul\":5783:5801   */\n  tag_122\n  tag_47\n  jump\t// in\ntag_122:\n    /* \"#utility.yul\":5753:5803   */\ntag_121:\n    /* \"#utility.yul\":5833:5834   */\n  0x01\n    /* \"#utility.yul\":5823:5831   */\n  dup6\n    /* \"#utility.yul\":5819:5835   */\n  and\n    /* \"#utility.yul\":5816:6267   */\n  iszero\n  tag_123\n  jumpi\n    /* \"#utility.yul\":6248:6252   */\n  dup1\n    /* \"#utility.yul\":6241:6246   */\n  dup3\n    /* \"#utility.yul\":6237:6253   */\n  mul\n    /* \"#utility.yul\":6228:6253   */\n  swap2\n  pop\n    /* \"#utility.yul\":5816:6267   */\ntag_123:\n    /* \"#utility.yul\":6298:6302   */\n  dup1\n    /* \"#utility.yul\":6292:6296   */\n  dup2\n    /* \"#utility.yul\":6288:6303   */\n  mul\n    /* \"#utility.yul\":6280:6303   */\n  swap1\n  pop\n    /* \"#utility.yul\":6328:6360   */\n  tag_124\n    /* \"#utility.yul\":6351:6359   */\n  dup6\n    /* \"#utility.yul\":6328:6360   */\n  tag_48\n  jump\t// in\ntag_124:\n    /* \"#utility.yul\":6316:6360   */\n  swap5\n  pop\n    /* \"#utility.yul\":5658:6370   */\n  jump(tag_118)\ntag_120:\n    /* \"#utility.yul\":5528:6376   */\n  swap5\n  pop\n  swap5\n  swap3\n  pop\n  pop\n  pop\n  jump\t// out\n    /* \"#utility.yul\":6382:7455   */\ntag_50:\n    /* \"#utility.yul\":6436:6441   */\n  0x00\n    /* \"#utility.yul\":6627:6635   */\n  dup3\n    /* \"#utility.yul\":6617:6657   */\n  tag_126\n  jumpi\n    /* \"#utility.yul\":6648:6649   */\n  0x01\n    /* \"#utility.yul\":6639:6649   */\n  swap1\n  pop\n    /* \"#utility.yul\":6650:6655   */\n  jump(tag_125)\n    /* \"#utility.yul\":6617:6657   */\ntag_126:\n    /* \"#utility.yul\":6676:6680   */\n  dup2\n    /* \"#utility.yul\":6666:6702   */\n  tag_127\n  jumpi\n    /* \"#utility.yul\":6693:6694   */\n  0x00\n    /* \"#utility.yul\":6684:6694   */\n  swap1\n  pop\n    /* \"#utility.yul\":6695:6700   */\n  jump(tag_125)\n    /* \"#utility.yul\":6666:6702   */\ntag_127:\n    /* \"#utility.yul\":6762:6766   */\n  dup2\n    /* \"#utility.yul\":6810:6811   */\n  0x01\n    /* \"#utility.yul\":6805:6832   */\n  dup2\n  eq\n  tag_129\n  jumpi\n    /* \"#utility.yul\":6846:6847   */\n  0x02\n    /* \"#utility.yul\":6841:7032   */\n  dup2\n  eq\n  tag_130\n  jumpi\n    /* \"#utility.yul\":6755:7032   */\n  jump(tag_128)\n    /* \"#utility.yul\":6805:6832   */\ntag_129:\n    /* \"#utility.yul\":6823:6824   */\n  0x01\n    /* \"#utility.yul\":6814:6824   */\n  swap2\n  pop\n    /* \"#utility.yul\":6825:6830   */\n  pop\n  jump(tag_125)\n    /* \"#utility.yul\":6841:7032   */\ntag_130:\n    /* \"#utility.yul\":6886:6889   */\n  0xff\n    /* \"#utility.yul\":6876:6884   */\n  dup5\n    /* \"#utility.yul\":6873:6890   */\n  gt\n    /* \"#utility.yul\":6870:6913   */\n  iszero\n  tag_131\n  jumpi\n    /* \"#utility.yul\":6893:6911   */\n  tag_132\n  tag_47\n  jump\t// in\ntag_132:\n    /* \"#utility.yul\":6870:6913   */\ntag_131:\n    /* \"#utility.yul\":6942:6950   */\n  dup4\n    /* \"#utility.yul\":6939:6940   */\n  0x02\n    /* \"#utility.yul\":6935:6951   */\n  exp\n    /* \"#utility.yul\":6926:6951   */\n  swap2\n  pop\n    /* \"#utility.yul\":6977:6980   */\n  dup5\n    /* \"#utility.yul\":6970:6975   */\n  dup3\n    /* \"#utility.yul\":6967:6981   */\n  gt\n    /* \"#utility.yul\":6964:7004   */\n  iszero\n  tag_133\n  jumpi\n    /* \"#utility.yul\":6984:7002   */\n  tag_134\n  tag_47\n  jump\t// in\ntag_134:\n    /* \"#utility.yul\":6964:7004   */\ntag_133:\n    /* \"#utility.yul\":7017:7022   */\n  pop\n  jump(tag_125)\n    /* \"#utility.yul\":6755:7032   */\ntag_128:\n  pop\n    /* \"#utility.yul\":7141:7143   */\n  0x20\n    /* \"#utility.yul\":7131:7139   */\n  dup4\n    /* \"#utility.yul\":7128:7144   */\n  lt\n    /* \"#utility.yul\":7122:7125   */\n  0x0133\n    /* \"#utility.yul\":7116:7120   */\n  dup4\n    /* \"#utility.yul\":7113:7126   */\n  lt\n    /* \"#utility.yul\":7109:7145   */\n  and\n    /* \"#utility.yul\":7091:7093   */\n  0x4e\n    /* \"#utility.yul\":7081:7089   */\n  dup5\n    /* \"#utility.yul\":7078:7094   */\n  lt\n    /* \"#utility.yul\":7073:7075   */\n  0x0b\n    /* \"#utility.yul\":7067:7071   */\n  dup5\n    /* \"#utility.yul\":7064:7076   */\n  lt\n    /* \"#utility.yul\":7060:7095   */\n  and\n    /* \"#utility.yul\":7044:7155   */\n  or\n    /* \"#utility.yul\":7041:7287   */\n  iszero\n  tag_135\n  jumpi\n    /* \"#utility.yul\":7197:7205   */\n  dup3\n    /* \"#utility.yul\":7191:7195   */\n  dup3\n    /* \"#utility.yul\":7187:7206   */\n  exp\n    /* \"#utility.yul\":7178:7206   */\n  swap1\n  pop\n    /* \"#utility.yul\":7232:7235   */\n  dup4\n    /* \"#utility.yul\":7225:7230   */\n  dup2\n    /* \"#utility.yul\":7222:7236   */\n  gt\n    /* \"#utility.yul\":7219:7259   */\n  iszero\n  tag_136\n  jumpi\n    /* \"#utility.yul\":7239:7257   */\n  tag_137\n  tag_47\n  jump\t// in\ntag_137:\n    /* \"#utility.yul\":7219:7259   */\ntag_136:\n    /* \"#utility.yul\":7272:7277   */\n  jump(tag_125)\n    /* \"#utility.yul\":7041:7287   */\ntag_135:\n    /* \"#utility.yul\":7312:7354   */\n  tag_138\n    /* \"#utility.yul\":7350:7353   */\n  dup5\n    /* \"#utility.yul\":7340:7348   */\n  dup5\n    /* \"#utility.yul\":7334:7338   */\n  dup5\n    /* \"#utility.yul\":7331:7332   */\n  0x01\n    /* \"#utility.yul\":7312:7354   */\n  tag_49\n  jump\t// in\ntag_138:\n    /* \"#utility.yul\":7297:7354   */\n  swap3\n  pop\n  swap1\n  pop\n    /* \"#utility.yul\":7386:7390   */\n  dup2\n    /* \"#utility.yul\":7381:7384   */\n  dup5\n    /* \"#utility.yul\":7377:7391   */\n  div\n    /* \"#utility.yul\":7370:7375   */\n  dup2\n    /* \"#utility.yul\":7367:7392   */\n  gt\n    /* \"#utility.yul\":7364:7415   */\n  iszero\n  tag_139\n  jumpi\n    /* \"#utility.yul\":7395:7413   */\n  tag_140\n  tag_47\n  jump\t// in\ntag_140:\n    /* \"#utility.yul\":7364:7415   */\ntag_139:\n    /* \"#utility.yul\":7444:7448   */\n  dup2\n    /* \"#utility.yul\":7437:7442   */\n  dup2\n    /* \"#utility.yul\":7433:7449   */\n  mul\n    /* \"#utility.yul\":7424:7449   */\n  swap1\n  pop\n    /* \"#utility.yul\":6382:7455   */\ntag_125:\n  swap4\n  swap3\n  pop\n  pop\n  pop\n  jump\t// out\n    /* \"#utility.yul\":7461:7547   */\ntag_51:\n    /* \"#utility.yul\":7496:7503   */\n  0x00\n    /* \"#utility.yul\":7536:7540   */\n  0xff\n    /* \"#utility.yul\":7529:7534   */\n  dup3\n    /* \"#utility.yul\":7525:7541   */\n  and\n    /* \"#utility.yul\":7514:7541   */\n  swap1\n  pop\n    /* \"#utility.yul\":7461:7547   */\n  swap2\n  swap1\n  pop\n  jump\t// out\n    /* \"#utility.yul\":7553:7834   */\ntag_12:\n    /* \"#utility.yul\":7611:7616   */\n  0x00\n    /* \"#utility.yul\":7635:7658   */\n  tag_143\n    /* \"#utility.yul\":7653:7657   */\n  dup3\n    /* \"#utility.yul\":7635:7658   */\n  tag_35\n  jump\t// in\ntag_143:\n    /* \"#utility.yul\":7627:7658   */\n  swap2\n  pop\n    /* \"#utility.yul\":7679:7704   */\n  tag_144\n    /* \"#utility.yul\":7695:7703   */\n  dup4\n    /* \"#utility.yul\":7679:7704   */\n  tag_51\n  jump\t// in\ntag_144:\n    /* \"#utility.yul\":7667:7704   */\n  swap3\n  pop\n    /* \"#utility.yul\":7723:7827   */\n  tag_145\n    /* \"#utility.yul\":7760:7826   */\n  0xffffffffffffffffffffffffffffffffffffffffffffffffffffffffffffffff\n    /* \"#utility.yul\":7750:7758   */\n  dup5\n    /* \"#utility.yul\":7744:7748   */\n  dup5\n    /* \"#utility.yul\":7723:7827   */\n  tag_50\n  jump\t// in\ntag_145:\n    /* \"#utility.yul\":7714:7827   */\n  swap1\n  pop\n    /* \"#utility.yul\":7553:7834   */\n  swap3\n  swap2\n  pop\n  pop\n  jump\t// out\n    /* \"#utility.yul\":7840:8250   */\ntag_14:\n    /* \"#utility.yul\":7880:7887   */\n  0x00\n    /* \"#utility.yul\":7903:7923   */\n  tag_147\n    /* \"#utility.yul\":7921:7922   */\n  dup3\n    /* \"#utility.yul\":7903:7923   */\n  tag_35\n  jump\t// in\ntag_147:\n    /* \"#utility.yul\":7898:7923   */\n  swap2\n  pop\n    /* \"#utility.yul\":7937:7957   */\n  tag_148\n    /* \"#utility.yul\":7955:7956   */\n  dup4\n    /* \"#utility.yul\":7937:7957   */\n  tag_35\n  jump\t// in\ntag_148:\n    /* \"#utility.yul\":7932:7957   */\n  swap3\n  pop\n    /* \"#utility.yul\":7992:7993   */\n  dup3\n    /* \"#utility.yul\":7989:7990   */\n  dup3\n    /* \"#utility.yul\":7985:7994   */\n  mul\n    /* \"#utility.yul\":8014:8044   */\n  tag_149\n    /* \"#utility.yul\":8032:8043   */\n  dup2\n    /* \"#utility.yul\":8014:8044   */\n  tag_35\n  jump\t// in\ntag_149:\n    /* \"#utility.yul\":8003:8044   */\n  swap2\n  pop\n    /* \"#utility.yul\":8193:8194   */\n  dup3\n    /* \"#utility.yul\":8184:8191   */\n  dup3\n    /* \"#utility.yul\":8180:8195   */\n  div\n    /* \"#utility.yul\":8177:8178   */\n  dup5\n    /* \"#utility.yul\":8174:8196   */\n  eq\n    /* \"#utility.yul\":8154:8155   */\n  dup4\n    /* \"#utility.yul\":8147:8156   */\n  iszero\n    /* \"#utility.yul\":8127:8210   */\n  or\n    /* \"#utility.yul\":8104:8243   */\n  tag_150\n  jumpi\n    /* \"#utility.yul\":8223:8241   */\n  tag_151\n  tag_47\n  jump\t// in\ntag_151:\n    /* \"#utility.yul\":8104:8243   */\ntag_150:\n    /* \"#utility.yul\":7888:8250   */\n  pop\n    /* \"#utility.yul\":7840:8250   */\n  swap3\n  swap2\n  pop\n  pop\n  jump\t// out\n    /* \"#utility.yul\":8256:8436   */\ntag_52:\n    /* \"#utility.yul\":8304:8381   */\n  0x4e487b7100000000000000000000000000000000000000000000000000000000\n    /* \"#utility.yul\":8301:8302   */\n  0x00\n    /* \"#utility.yul\":8294:8382   */\n  mstore\n    /* \"#utility.yul\":8401:8405   */\n  0x12\n    /* \"#utility.yul\":8398:8399   */\n  0x04\n    /* \"#utility.yul\":8391:8406   */\n  mstore\n    /* \"#utility.yul\":8425:8429   */\n  0x24\n    /* \"#utility.yul\":8422:8423   */\n  0x00\n    /* \"#utility.yul\":8415:8430   */\n  revert\n    /* \"#utility.yul\":8442:8618   */\ntag_19:\n    /* \"#utility.yul\":8474:8475   */\n  0x00\n    /* \"#utility.yul\":8491:8511   */\n  tag_154\n    /* \"#utility.yul\":8509:8510   */\n  dup3\n    /* \"#utility.yul\":8491:8511   */\n  tag_35\n  jump\t// in\ntag_154:\n    /* \"#utility.yul\":8486:8511   */\n  swap2\n  pop\n    /* \"#utility.yul\":8525:8545   */\n  tag_155\n    /* \"#utility.yul\":8543:8544   */\n  dup4\n    /* \"#utility.yul\":8525:8545   */\n  tag_35\n  jump\t// in\ntag_155:\n    /* \"#utility.yul\":8520:8545   */\n  swap3\n  pop\n    /* \"#utility.yul\":8564:8565   */\n  dup3\n    /* \"#utility.yul\":8554:8589   */\n  tag_156\n  jumpi\n    /* \"#utility.yul\":8569:8587   */\n  tag_157\n  tag_52\n  jump\t// in\ntag_157:\n    /* \"#utility.yul\":8554:8589   */\ntag_156:\n    /* \"#utility.yul\":8610:8611   */\n  dup3\n    /* \"#utility.yul\":8607:8608   */\n  dup3\n    /* \"#utility.yul\":8603:8612   */\n  mod\n    /* \"#utility.yul\":8598:8612   */\n  swap1\n  pop\n    /* \"#utility.yul\":8442:8618   */\n  swap3\n  swap2\n  pop\n  pop\n  jump\t// out\n    /* \"#utility.yul\":8624:8818   */\ntag_21:\n    /* \"#utility.yul\":8664:8668   */\n  0x00\n    /* \"#utility.yul\":8684:8704   */\n  tag_159\n    /* \"#utility.yul\":8702:8703   */\n  dup3\n    /* \"#utility.yul\":8684:8704   */\n  tag_35\n  jump\t// in\ntag_159:\n    /* \"#utility.yul\":8679:8704   */\n  swap2\n  pop\n    /* \"#utility.yul\":8718:8738   */\n  tag_160\n    /* \"#utility.yul\":8736:8737   */\n  dup4\n    /* \"#utility.yul\":8718:8738   */\n  tag_35\n  jump\t// in\ntag_160:\n    /* \"#utility.yul\":8713:8738   */\n  swap3\n  pop\n    /* \"#utility.yul\":8762:8763   */\n  dup3\n    /* \"#utility.yul\":8759:8760   */\n  dup3\n    /* \"#utility.yul\":8755:8764   */\n  sub\n    /* \"#utility.yul\":8747:8764   */\n  swap1\n  pop\n    /* \"#utility.yul\":8786:8787   */\n  dup2\n    /* \"#utility.yul\":8780:8784   */\n  dup2\n    /* \"#utility.yul\":8777:8788   */\n  gt\n    /* \"#utility.yul\":8774:8811   */\n  iszero\n  tag_161\n  jumpi\n    /* \"#utility.yul\":8791:8809   */\n  tag_162\n  tag_47\n  jump\t// in\ntag_162:\n    /* \"#utility.yul\":8774:8811   */\ntag_161:\n    /* \"#utility.yul\":8624:8818   */\n  swap3\n  swap2\n  pop\n  pop\n  jump\t// out\n    /* \"#utility.yul\":8824:9009   */\ntag_26:\n    /* \"#utility.yul\":8864:8865   */\n  0x00\n    /* \"#utility.yul\":8881:8901   */\n  tag_164\n    /* \"#utility.yul\":8899:8900   */\n  dup3\n    /* \"#utility.yul\":8881:8901   */\n  tag_35\n  jump\t// in\ntag_164:\n    /* \"#utility.yul\":8876:8901   */\n  swap2\n  pop\n    /* \"#utility.yul\":8915:8935   */\n  tag_165\n    /* \"#utility.yul\":8933:8934   */\n  dup4\n    /* \"#utility.yul\":8915:8935   */\n  tag_35\n  jump\t// in\ntag_165:\n    /* \"#utility.yul\":8910:8935   */\n  swap3\n  pop\n    /* \"#utility.yul\":8954:8955   */\n  dup3\n    /* \"#utility.yul\":8944:8979   */\n  tag_166\n  jumpi\n    /* \"#utility.yul\":8959:8977   */\n  tag_167\n  tag_52\n  jump\t// in\ntag_167:\n    /* \"#utility.yul\":8944:8979   */\ntag_166:\n    /* \"#utility.yul\":9001:9002   */\n  dup3\n    /* \"#utility.yul\":8998:8999   */\n  dup3\n    /* \"#utility.yul\":8994:9003   */\n  div\n    /* \"#utility.yul\":8989:9003   */\n  swap1\n  pop\n    /* \"#utility.yul\":8824:9009   */\n  swap3\n  swap2\n  pop\n  pop\n  jump\t// out\n    /* \"contracts/BOMB_flattened.sol\":23312:28698  contract BOMB is BOMBBase {... */\ntag_23:\n  dataSize(sub_0)\n  dup1\n  dataOffset(sub_0)\n  0x00\n  codecopy\n  0x00\n  return\nstop\n\nsub_0: assembly {\n        /* \"contracts/BOMB_flattened.sol\":23312:28698  contract BOMB is BOMBBase {... */\n      mstore(0x40, 0x80)\n      jumpi(tag_1, lt(calldatasize, 0x04))\n      shr(0xe0, calldataload(0x00))\n      dup1\n      0x83b4ac68\n      gt\n      tag_38\n      jumpi\n      dup1\n      0xae06c1b7\n      gt\n      tag_39\n      jumpi\n      dup1\n      0xd4399790\n      gt\n      tag_40\n      jumpi\n      dup1\n      0xd4399790\n      eq\n      tag_33\n      jumpi\n      dup1\n      0xdd62ed3e\n      eq\n      tag_34\n      jumpi\n      dup1\n      0xe15beb80\n      eq\n      tag_35\n      jumpi\n      dup1\n      0xeb531c57\n      eq\n      tag_36\n      jumpi\n      dup1\n      0xf2fde38b\n      eq\n      tag_37\n      jumpi\n      jump(tag_2)\n    tag_40:\n      dup1\n      0xae06c1b7\n      eq\n      tag_29\n      jumpi\n      dup1\n      0xafb9cf6d\n      eq\n      tag_30\n      jumpi\n      dup1\n      0xb349b973\n      eq\n      tag_31\n      jumpi\n      dup1\n      0xc737a49b\n      eq\n      tag_32\n      jumpi\n      jump(tag_2)\n    tag_39:\n      dup1\n      0x95d89b41\n      gt\n      tag_41\n      jumpi\n      dup1\n      0x95d89b41\n      eq\n      tag_24\n      jumpi\n      dup1\n      0x9b87676c\n      eq\n      tag_25\n      jumpi\n      dup1\n      0xa20623ce\n      eq\n      tag_26\n      jumpi\n      dup1\n      0xa457c2d7\n      eq\n      tag_27\n      jumpi\n      dup1\n      0xa9059cbb\n      eq\n      tag_28\n      jumpi\n      jump(tag_2)\n    tag_41:\n      dup1\n      0x83b4ac68\n      eq\n      tag_20\n      jumpi\n      dup1\n      0x854cff2f\n      eq\n      tag_21\n      jumpi\n      dup1\n      0x8da5cb5b\n      eq\n      tag_22\n      jumpi\n      dup1\n      0x8f32d59b\n      eq\n      tag_23\n      jumpi\n      jump(tag_2)\n    tag_38:\n      dup1\n      0x31b216ed\n      gt\n      tag_42\n      jumpi\n      dup1\n      0x3eaaf86b\n      gt\n      tag_43\n      jumpi\n      dup1\n      0x3eaaf86b\n      eq\n      tag_15\n      jumpi\n      dup1\n      0x69222948\n      eq\n      tag_16\n      jumpi\n      dup1\n      0x70a08231\n      eq\n      tag_17\n      jumpi\n      dup1\n      0x715018a6\n      eq\n      tag_18\n      jumpi\n      dup1\n      0x753d02a1\n      eq\n      tag_19\n      jumpi\n      jump(tag_2)\n    tag_43:\n      dup1\n      0x31b216ed\n      eq\n      tag_11\n      jumpi\n      dup1\n      0x32b75683\n      eq\n      tag_12\n      jumpi\n      dup1\n      0x37c9be87\n      eq\n      tag_13\n      jumpi\n      dup1\n      0x39509351\n      eq\n      tag_14\n      jumpi\n      jump(tag_2)\n    tag_42:\n      dup1\n      0x2910164a\n      gt\n      tag_44\n      jumpi\n      dup1\n      0x2910164a\n      eq\n      tag_7\n      jumpi\n      dup1\n      0x2b112e49\n      eq\n      tag_8\n      jumpi\n      dup1\n      0x2f34d282\n      eq\n      tag_9\n      jumpi\n      dup1\n      0x313ce567\n      eq\n      tag_10\n      jumpi\n      jump(tag_2)\n    tag_44:\n      dup1\n      0x06fdde03\n      eq\n      tag_3\n      jumpi\n      dup1\n      0x095ea7b3\n      eq\n      tag_4\n      jumpi\n      dup1\n      0x18160ddd\n      eq\n      tag_5\n      jumpi\n      dup1\n      0x23b872dd\n      eq\n      tag_6\n      jumpi\n      jump(tag_2)\n    tag_1:\n      jumpi(tag_2, calldatasize)\n      stop\n    tag_2:\n      0x00\n      dup1\n      revert\n        /* \"contracts/BOMB_flattened.sol\":17569:17643  function name() public view returns (string memory) {... */\n    tag_3:\n      callvalue\n      dup1\n      iszero\n      tag_47\n      jumpi\n      0x00\n      dup1\n      revert\n    tag_47:\n      pop\n      tag_48\n      tag_49\n      jump\t// in\n    tag_48:\n      mload(0x40)\n      tag_50\n      swap2\n      swap1\n      tag_51\n      jump\t// in\n    tag_50:\n      mload(0x40)\n      dup1\n      swap2\n      sub\n      swap1\n      return\n        /* \"contracts/BOMB_flattened.sol\":24199:24399  function approve(address spender, uint256 value) external override returns (bool) {... */\n    tag_4:\n      callvalue\n      dup1\n      iszero\n      tag_52\n      jumpi\n      0x00\n      dup1\n      revert\n    tag_52:\n      pop\n      tag_53\n      0x04\n      dup1\n      calldatasize\n      sub\n      dup2\n      add\n      swap1\n      tag_54\n      swap2\n      swap1\n      tag_55\n      jump\t// in\n    tag_54:\n      tag_56\n      jump\t// in\n    tag_53:\n      mload(0x40)\n      tag_57\n      swap2\n      swap1\n      tag_58\n      jump\t// in\n    tag_57:\n      mload(0x40)\n      dup1\n      swap2\n      sub\n      swap1\n      return\n        /* \"contracts/BOMB_flattened.sol\":23967:24060  function totalSupply() external view override returns (uint256) {... */\n    tag_5:\n      callvalue\n      dup1\n      iszero\n      tag_59\n      jumpi\n      0x00\n      dup1\n      revert\n    tag_59:\n      pop\n      tag_60\n      tag_61\n      jump\t// in\n    tag_60:\n      mload(0x40)\n      tag_62\n      swap2\n      swap1\n      tag_63\n      jump\t// in\n    tag_62:\n      mload(0x40)\n      dup1\n      swap2\n      sub\n      swap1\n      return\n        /* \"contracts/BOMB_flattened.sol\":24568:24936  function transferFrom(address from, address to, uint256 value) external override validRecipient(to) returns (bool) {... */\n    tag_6:\n      callvalue\n      dup1\n      iszero\n      tag_64\n      jumpi\n      0x00\n      dup1\n      revert\n    tag_64:\n      pop\n      tag_65\n      0x04\n      dup1\n      calldatasize\n      sub\n      dup2\n      add\n      swap1\n      tag_66\n      swap2\n      swap1\n      tag_67\n      jump\t// in\n    tag_66:\n      tag_68\n      jump\t// in\n    tag_65:\n      mload(0x40)\n      tag_69\n      swap2\n      swap1\n      tag_58\n      jump\t// in\n    tag_69:\n      mload(0x40)\n      dup1\n      swap2\n      sub\n      swap1\n      return\n        /* \"contracts/BOMB_flattened.sol\":23063:23173  function setDistributeInterval(uint256 interval) external onlyOwner {... */\n    tag_7:\n      callvalue\n      dup1\n      iszero\n      tag_70\n      jumpi\n      0x00\n      dup1\n      revert\n    tag_70:\n      pop\n      tag_71\n      0x04\n      dup1\n      calldatasize\n      sub\n      dup2\n      add\n      swap1\n      tag_72\n      swap2\n      swap1\n      tag_73\n      jump\t// in\n    tag_72:\n      tag_74\n      jump\t// in\n    tag_71:\n      stop\n        /* \"contracts/BOMB_flattened.sol\":23628:23800  function getCirculatingSupply() public view returns (uint256) {... */\n    tag_8:\n      callvalue\n      dup1\n      iszero\n      tag_75\n      jumpi\n      0x00\n      dup1\n      revert\n    tag_75:\n      pop\n      tag_76\n      tag_77\n      jump\t// in\n    tag_76:\n      mload(0x40)\n      tag_78\n      swap2\n      swap1\n      tag_63\n      jump\t// in\n    tag_78:\n      mload(0x40)\n      dup1\n      swap2\n      sub\n      swap1\n      return\n        /* \"contracts/BOMB_flattened.sol\":22936:23058  function setLP(address _address) external onlyOwner {... */\n    tag_9:\n      callvalue\n      dup1\n      iszero\n      tag_79\n      jumpi\n      0x00\n      dup1\n      revert\n    tag_79:\n      pop\n      tag_80\n      0x04\n      dup1\n      calldatasize\n      sub\n      dup2\n      add\n      swap1\n      tag_81\n      swap2\n      swap1\n      tag_82\n      jump\t// in\n    tag_81:\n      tag_83\n      jump\t// in\n    tag_80:\n      stop\n        /* \"contracts/BOMB_flattened.sol\":17731:17805  function decimals() public view returns (uint8) {... */\n    tag_10:\n      callvalue\n      dup1\n      iszero\n      tag_84\n      jumpi\n      0x00\n      dup1\n      revert\n    tag_84:\n      pop\n      tag_85\n      tag_86\n      jump\t// in\n    tag_85:\n      mload(0x40)\n      tag_87\n      swap2\n      swap1\n      tag_88\n      jump\t// in\n    tag_87:\n      mload(0x40)\n      dup1\n      swap2\n      sub\n      swap1\n      return\n        /* \"contracts/BOMB_flattened.sol\":20004:20029  bool public _initComplete */\n    tag_11:\n      callvalue\n      dup1\n      iszero\n      tag_89\n      jumpi\n      0x00\n      dup1\n      revert\n    tag_89:\n      pop\n      tag_90\n      tag_91\n      jump\t// in\n    tag_90:\n      mload(0x40)\n      tag_92\n      swap2\n      swap1\n      tag_58\n      jump\t// in\n    tag_92:\n      mload(0x40)\n      dup1\n      swap2\n      sub\n      swap1\n      return\n        /* \"contracts/BOMB_flattened.sol\":19859:19890  uint256 public _lastRebasedTime */\n    tag_12:\n      callvalue\n      dup1\n      iszero\n      tag_93\n      jumpi\n      0x00\n      dup1\n      revert\n    tag_93:\n      pop\n      tag_94\n      tag_95\n      jump\t// in\n    tag_94:\n      mload(0x40)\n      tag_96\n      swap2\n      swap1\n      tag_63\n      jump\t// in\n    tag_96:\n      mload(0x40)\n      dup1\n      swap2\n      sub\n      swap1\n      return\n        /* \"contracts/BOMB_flattened.sol\":22088:22306  function setBotBlacklist(address _botAddress, bool _flag) external onlyOwner {... */\n    tag_13:\n      callvalue\n      dup1\n      iszero\n      tag_97\n      jumpi\n      0x00\n      dup1\n      revert\n    tag_97:\n      pop\n      tag_98\n      0x04\n      dup1\n      calldatasize\n      sub\n      dup2\n      add\n      swap1\n      tag_99\n      swap2\n      swap1\n      tag_100\n      jump\t// in\n    tag_99:\n      tag_101\n      jump\t// in\n    tag_98:\n      stop\n        /* \"contracts/BOMB_flattened.sol\":25090:25378  function increaseAllowance(address spender, uint256 addedValue) external returns (bool) {... */\n    tag_14:\n      callvalue\n      dup1\n      iszero\n      tag_102\n      jumpi\n      0x00\n      dup1\n      revert\n    tag_102:\n      pop\n      tag_103\n      0x04\n      dup1\n      calldatasize\n      sub\n      dup2\n      add\n      swap1\n      tag_104\n      swap2\n      swap1\n      tag_55\n      jump\t// in\n    tag_104:\n      tag_105\n      jump\t// in\n    tag_103:\n      mload(0x40)\n      tag_106\n      swap2\n      swap1\n      tag_58\n      jump\t// in\n    tag_106:\n      mload(0x40)\n      dup1\n      swap2\n      sub\n      swap1\n      return\n        /* \"contracts/BOMB_flattened.sol\":19894:19921  uint256 public _totalSupply */\n    tag_15:\n      callvalue\n      dup1\n      iszero\n      tag_107\n      jumpi\n      0x00\n      dup1\n      revert\n    tag_107:\n      pop\n      tag_108\n      tag_109\n      jump\t// in\n    tag_108:\n      mload(0x40)\n      tag_110\n      swap2\n      swap1\n      tag_63\n      jump\t// in\n    tag_110:\n      mload(0x40)\n      dup1\n      swap2\n      sub\n      swap1\n      return\n        /* \"contracts/BOMB_flattened.sol\":19673:19704  uint256 public _feePercent = 99 */\n    tag_16:\n      callvalue\n      dup1\n      iszero\n      tag_111\n      jumpi\n      0x00\n      dup1\n      revert\n    tag_111:\n      pop\n      tag_112\n      tag_113\n      jump\t// in\n    tag_112:\n      mload(0x40)\n      tag_114\n      swap2\n      swap1\n      tag_63\n      jump\t// in\n    tag_114:\n      mload(0x40)\n      dup1\n      swap2\n      sub\n      swap1\n      return\n        /* \"contracts/BOMB_flattened.sol\":24065:24194  function balanceOf(address who) external view override returns (uint256) {... */\n    tag_17:\n      callvalue\n      dup1\n      iszero\n      tag_115\n      jumpi\n      0x00\n      dup1\n      revert\n    tag_115:\n      pop\n      tag_116\n      0x04\n      dup1\n      calldatasize\n      sub\n      dup2\n      add\n      swap1\n      tag_117\n      swap2\n      swap1\n      tag_82\n      jump\t// in\n    tag_117:\n      tag_118\n      jump\t// in\n    tag_116:\n      mload(0x40)\n      tag_119\n      swap2\n      swap1\n      tag_63\n      jump\t// in\n    tag_119:\n      mload(0x40)\n      dup1\n      swap2\n      sub\n      swap1\n      return\n        /* \"contracts/BOMB_flattened.sol\":18346:18457  function renounceOwnership() public onlyOwner {... */\n    tag_18:\n      callvalue\n      dup1\n      iszero\n      tag_120\n      jumpi\n      0x00\n      dup1\n      revert\n    tag_120:\n      pop\n      tag_121\n      tag_122\n      jump\t// in\n    tag_121:\n      stop\n        /* \"contracts/BOMB_flattened.sol\":23887:23962  function manualSync() external {... */\n    tag_19:\n      callvalue\n      dup1\n      iszero\n      tag_123\n      jumpi\n      0x00\n      dup1\n      revert\n    tag_123:\n      pop\n      tag_124\n      tag_125\n      jump\t// in\n    tag_124:\n      stop\n        /* \"contracts/BOMB_flattened.sol\":23805:23882  function isNotInSwap() external view returns (bool) {... */\n    tag_20:\n      callvalue\n      dup1\n      iszero\n      tag_126\n      jumpi\n      0x00\n      dup1\n      revert\n    tag_126:\n      pop\n      tag_127\n      tag_128\n      jump\t// in\n    tag_127:\n      mload(0x40)\n      tag_129\n      swap2\n      swap1\n      tag_58\n      jump\t// in\n    tag_129:\n      mload(0x40)\n      dup1\n      swap2\n      sub\n      swap1\n      return\n        /* \"contracts/BOMB_flattened.sol\":21991:22083  function setWhitelist(address _addr) external onlyOwner {... */\n    tag_21:\n      callvalue\n      dup1\n      iszero\n      tag_130\n      jumpi\n      0x00\n      dup1\n      revert\n    tag_130:\n      pop\n      tag_131\n      0x04\n      dup1\n      calldatasize\n      sub\n      dup2\n      add\n      swap1\n      tag_132\n      swap2\n      swap1\n      tag_82\n      jump\t// in\n    tag_132:\n      tag_133\n      jump\t// in\n    tag_131:\n      stop\n        /* \"contracts/BOMB_flattened.sol\":18123:18193  function owner() public view returns (address) {... */\n    tag_22:\n      callvalue\n      dup1\n      iszero\n      tag_134\n      jumpi\n      0x00\n      dup1\n      revert\n    tag_134:\n      pop\n      tag_135\n      tag_136\n      jump\t// in\n    tag_135:\n      mload(0x40)\n      tag_137\n      swap2\n      swap1\n      tag_138\n      jump\t// in\n    tag_137:\n      mload(0x40)\n      dup1\n      swap2\n      sub\n      swap1\n      return\n        /* \"contracts/BOMB_flattened.sol\":18258:18341  function isOwner() public view returns (bool) {... */\n    tag_23:\n      callvalue\n      dup1\n      iszero\n      tag_139\n      jumpi\n      0x00\n      dup1\n      revert\n    tag_139:\n      pop\n      tag_140\n      tag_141\n      jump\t// in\n    tag_140:\n      mload(0x40)\n      tag_142\n      swap2\n      swap1\n      tag_58\n      jump\t// in\n    tag_142:\n      mload(0x40)\n      dup1\n      swap2\n      sub\n      swap1\n      return\n        /* \"contracts/BOMB_flattened.sol\":17648:17726  function symbol() public view returns (string memory) {... */\n    tag_24:\n      callvalue\n      dup1\n      iszero\n      tag_143\n      jumpi\n      0x00\n      dup1\n      revert\n    tag_143:\n      pop\n      tag_144\n      tag_145\n      jump\t// in\n    tag_144:\n      mload(0x40)\n      tag_146\n      swap2\n      swap1\n      tag_51\n      jump\t// in\n    tag_146:\n      mload(0x40)\n      dup1\n      swap2\n      sub\n      swap1\n      return\n        /* \"contracts/BOMB_flattened.sol\":19820:19855  uint256 public _initRebaseStartTime */\n    tag_25:\n      callvalue\n      dup1\n      iszero\n      tag_147\n      jumpi\n      0x00\n      dup1\n      revert\n    tag_147:\n      pop\n      tag_148\n      tag_149\n      jump\t// in\n    tag_148:\n      mload(0x40)\n      tag_150\n      swap2\n      swap1\n      tag_63\n      jump\t// in\n    tag_150:\n      mload(0x40)\n      dup1\n      swap2\n      sub\n      swap1\n      return\n        /* \"contracts/BOMB_flattened.sol\":20185:20227  mapping(address => bool) public _blacklist */\n    tag_26:\n      callvalue\n      dup1\n      iszero\n      tag_151\n      jumpi\n      0x00\n      dup1\n      revert\n    tag_151:\n      pop\n      tag_152\n      0x04\n      dup1\n      calldatasize\n      sub\n      dup2\n      add\n      swap1\n      tag_153\n      swap2\n      swap1\n      tag_82\n      jump\t// in\n    tag_153:\n      tag_154\n      jump\t// in\n    tag_152:\n      mload(0x40)\n      tag_155\n      swap2\n      swap1\n      tag_58\n      jump\t// in\n    tag_155:\n      mload(0x40)\n      dup1\n      swap2\n      sub\n      swap1\n      return\n        /* \"contracts/BOMB_flattened.sol\":25383:25817  function decreaseAllowance(address spender, uint256 subtractedValue) external returns (bool) {... */\n    tag_27:\n      callvalue\n      dup1\n      iszero\n      tag_156\n      jumpi\n      0x00\n      dup1\n      revert\n    tag_156:\n      pop\n      tag_157\n      0x04\n      dup1\n      calldatasize\n      sub\n      dup2\n      add\n      swap1\n      tag_158\n      swap2\n      swap1\n      tag_55\n      jump\t// in\n    tag_158:\n      tag_159\n      jump\t// in\n    tag_157:\n      mload(0x40)\n      tag_160\n      swap2\n      swap1\n      tag_58\n      jump\t// in\n    tag_160:\n      mload(0x40)\n      dup1\n      swap2\n      sub\n      swap1\n      return\n        /* \"contracts/BOMB_flattened.sol\":24404:24563  function transfer(address to, uint256 value) external override validRecipient(to) returns (bool) {... */\n    tag_28:\n      callvalue\n      dup1\n      iszero\n      tag_161\n      jumpi\n      0x00\n      dup1\n      revert\n    tag_161:\n      pop\n      tag_162\n      0x04\n      dup1\n      calldatasize\n      sub\n      dup2\n      add\n      swap1\n      tag_163\n      swap2\n      swap1\n      tag_55\n      jump\t// in\n    tag_163:\n      tag_164\n      jump\t// in\n    tag_162:\n      mload(0x40)\n      tag_165\n      swap2\n      swap1\n      tag_58\n      jump\t// in\n    tag_165:\n      mload(0x40)\n      dup1\n      swap2\n      sub\n      swap1\n      return\n        /* \"contracts/BOMB_flattened.sol\":22311:22404  function setFeePercentage(uint256 percent) external onlyOwner {... */\n    tag_29:\n      callvalue\n      dup1\n      iszero\n      tag_166\n      jumpi\n      0x00\n      dup1\n      revert\n    tag_166:\n      pop\n      tag_167\n      0x04\n      dup1\n      calldatasize\n      sub\n      dup2\n      add\n      swap1\n      tag_168\n      swap2\n      swap1\n      tag_73\n      jump\t// in\n    tag_168:\n      tag_169\n      jump\t// in\n    tag_167:\n      stop\n        /* \"contracts/BOMB_flattened.sol\":19763:19786  bool public _autoRebase */\n    tag_30:\n      callvalue\n      dup1\n      iszero\n      tag_170\n      jumpi\n      0x00\n      dup1\n      revert\n    tag_170:\n      pop\n      tag_171\n      tag_172\n      jump\t// in\n    tag_171:\n      mload(0x40)\n      tag_173\n      swap2\n      swap1\n      tag_58\n      jump\t// in\n    tag_173:\n      mload(0x40)\n      dup1\n      swap2\n      sub\n      swap1\n      return\n        /* \"contracts/BOMB_flattened.sol\":20878:21145  function _init() external onlyOwner {... */\n    tag_31:\n      callvalue\n      dup1\n      iszero\n      tag_174\n      jumpi\n      0x00\n      dup1\n      revert\n    tag_174:\n      pop\n      tag_175\n      tag_176\n      jump\t// in\n    tag_175:\n      stop\n        /* \"contracts/BOMB_flattened.sol\":19708:19757  uint256 public _distributionInterval = 10 minutes */\n    tag_32:\n      callvalue\n      dup1\n      iszero\n      tag_177\n      jumpi\n      0x00\n      dup1\n      revert\n    tag_177:\n      pop\n      tag_178\n      tag_179\n      jump\t// in\n    tag_178:\n      mload(0x40)\n      tag_180\n      swap2\n      swap1\n      tag_63\n      jump\t// in\n    tag_180:\n      mload(0x40)\n      dup1\n      swap2\n      sub\n      swap1\n      return\n        /* \"contracts/BOMB_flattened.sol\":23519:23623  function checkFeeExempt(address _addr) external view returns (bool) {... */\n    tag_33:\n      callvalue\n      dup1\n      iszero\n      tag_181\n      jumpi\n      0x00\n      dup1\n      revert\n    tag_181:\n      pop\n      tag_182\n      0x04\n      dup1\n      calldatasize\n      sub\n      dup2\n      add\n      swap1\n      tag_183\n      swap2\n      swap1\n      tag_82\n      jump\t// in\n    tag_183:\n      tag_184\n      jump\t// in\n    tag_182:\n      mload(0x40)\n      tag_185\n      swap2\n      swap1\n      tag_58\n      jump\t// in\n    tag_185:\n      mload(0x40)\n      dup1\n      swap2\n      sub\n      swap1\n      return\n        /* \"contracts/BOMB_flattened.sol\":24941:25085  function allowance(address owner_, address spender) external view override returns (uint256) {... */\n    tag_34:\n      callvalue\n      dup1\n      iszero\n      tag_186\n      jumpi\n      0x00\n      dup1\n      revert\n    tag_186:\n      pop\n      tag_187\n      0x04\n      dup1\n      calldatasize\n      sub\n      dup2\n      add\n      swap1\n      tag_188\n      swap2\n      swap1\n      tag_189\n      jump\t// in\n    tag_188:\n      tag_190\n      jump\t// in\n    tag_187:\n      mload(0x40)\n      tag_191\n      swap2\n      swap1\n      tag_63\n      jump\t// in\n    tag_191:\n      mload(0x40)\n      dup1\n      swap2\n      sub\n      swap1\n      return\n        /* \"contracts/BOMB_flattened.sol\":21804:21986  function setAutoRebase(bool _flag) external onlyOwner {... */\n    tag_35:\n      callvalue\n      dup1\n      iszero\n      tag_192\n      jumpi\n      0x00\n      dup1\n      revert\n    tag_192:\n      pop\n      tag_193\n      0x04\n      dup1\n      calldatasize\n      sub\n      dup2\n      add\n      swap1\n      tag_194\n      swap2\n      swap1\n      tag_195\n      jump\t// in\n    tag_194:\n      tag_196\n      jump\t// in\n    tag_193:\n      stop\n        /* \"contracts/BOMB_flattened.sol\":19792:19816  address public _pairAddr */\n    tag_36:\n      callvalue\n      dup1\n      iszero\n      tag_197\n      jumpi\n      0x00\n      dup1\n      revert\n    tag_197:\n      pop\n      tag_198\n      tag_199\n      jump\t// in\n    tag_198:\n      mload(0x40)\n      tag_200\n      swap2\n      swap1\n      tag_138\n      jump\t// in\n    tag_200:\n      mload(0x40)\n      dup1\n      swap2\n      sub\n      swap1\n      return\n        /* \"contracts/BOMB_flattened.sol\":18462:18562  function transferOwnership(address newOwner) public onlyOwner {... */\n    tag_37:\n      callvalue\n      dup1\n      iszero\n      tag_201\n      jumpi\n      0x00\n      dup1\n      revert\n    tag_201:\n      pop\n      tag_202\n      0x04\n      dup1\n      calldatasize\n      sub\n      dup2\n      add\n      swap1\n      tag_203\n      swap2\n      swap1\n      tag_82\n      jump\t// in\n    tag_203:\n      tag_204\n      jump\t// in\n    tag_202:\n      stop\n        /* \"contracts/BOMB_flattened.sol\":17569:17643  function name() public view returns (string memory) {... */\n    tag_49:\n        /* \"contracts/BOMB_flattened.sol\":17606:17619  string memory */\n      0x60\n        /* \"contracts/BOMB_flattened.sol\":17633:17638  _name */\n      0x00\n        /* \"contracts/BOMB_flattened.sol\":17626:17638  return _name */\n      dup1\n      sload\n      tag_206\n      swap1\n      tag_207\n      jump\t// in\n    tag_206:\n      dup1\n      0x1f\n      add\n      0x20\n      dup1\n      swap2\n      div\n      mul\n      0x20\n      add\n      mload(0x40)\n      swap1\n      dup2\n      add\n      0x40\n      mstore\n      dup1\n      swap3\n      swap2\n      swap1\n      dup2\n      dup2\n      mstore\n      0x20\n      add\n      dup3\n      dup1\n      sload\n      tag_208\n      swap1\n      tag_207\n      jump\t// in\n    tag_208:\n      dup1\n      iszero\n      tag_209\n      jumpi\n      dup1\n      0x1f\n      lt\n      tag_210\n      jumpi\n      0x0100\n      dup1\n      dup4\n      sload\n      div\n      mul\n      dup4\n      mstore\n      swap2\n      0x20\n      add\n      swap2\n      jump(tag_209)\n    tag_210:\n      dup3\n      add\n      swap2\n      swap1\n      0x00\n      mstore\n      keccak256(0x00, 0x20)\n      swap1\n    tag_211:\n      dup2\n      sload\n      dup2\n      mstore\n      swap1\n      0x01\n      add\n      swap1\n      0x20\n      add\n      dup1\n      dup4\n      gt\n      tag_211\n      jumpi\n      dup3\n      swap1\n      sub\n      0x1f\n      and\n      dup3\n      add\n      swap2\n    tag_209:\n      pop\n      pop\n      pop\n      pop\n      pop\n      swap1\n      pop\n        /* \"contracts/BOMB_flattened.sol\":17569:17643  function name() public view returns (string memory) {... */\n      swap1\n      jump\t// out\n        /* \"contracts/BOMB_flattened.sol\":24199:24399  function approve(address spender, uint256 value) external override returns (bool) {... */\n    tag_56:\n        /* \"contracts/BOMB_flattened.sol\":24275:24279  bool */\n      0x00\n        /* \"contracts/BOMB_flattened.sol\":24327:24332  value */\n      dup2\n        /* \"contracts/BOMB_flattened.sol\":24286:24303  _allowedFragments */\n      0x13\n        /* \"contracts/BOMB_flattened.sol\":24286:24315  _allowedFragments[msg.sender] */\n      0x00\n        /* \"contracts/BOMB_flattened.sol\":24304:24314  msg.sender */\n      caller\n        /* \"contracts/BOMB_flattened.sol\":24286:24315  _allowedFragments[msg.sender] */\n      0xffffffffffffffffffffffffffffffffffffffff\n      and\n      0xffffffffffffffffffffffffffffffffffffffff\n      and\n      dup2\n      mstore\n      0x20\n      add\n      swap1\n      dup2\n      mstore\n      0x20\n      add\n      0x00\n      keccak256\n        /* \"contracts/BOMB_flattened.sol\":24286:24324  _allowedFragments[msg.sender][spender] */\n      0x00\n        /* \"contracts/BOMB_flattened.sol\":24316:24323  spender */\n      dup6\n        /* \"contracts/BOMB_flattened.sol\":24286:24324  _allowedFragments[msg.sender][spender] */\n      0xffffffffffffffffffffffffffffffffffffffff\n      and\n      0xffffffffffffffffffffffffffffffffffffffff\n      and\n      dup2\n      mstore\n      0x20\n      add\n      swap1\n      dup2\n      mstore\n      0x20\n      add\n      0x00\n      keccak256\n        /* \"contracts/BOMB_flattened.sol\":24286:24332  _allowedFragments[msg.sender][spender] = value */\n      dup2\n      swap1\n      sstore\n      pop\n        /* \"contracts/BOMB_flattened.sol\":24363:24370  spender */\n      dup3\n        /* \"contracts/BOMB_flattened.sol\":24342:24378  Approval(msg.sender, spender, value) */\n      0xffffffffffffffffffffffffffffffffffffffff\n      and\n        /* \"contracts/BOMB_flattened.sol\":24351:24361  msg.sender */\n      caller\n        /* \"contracts/BOMB_flattened.sol\":24342:24378  Approval(msg.sender, spender, value) */\n      0xffffffffffffffffffffffffffffffffffffffff\n      and\n      0x8c5be1e5ebec7d5bd14f71427d1e84f3dd0314c0f7b2291e5b200ac8c7c3b925\n        /* \"contracts/BOMB_flattened.sol\":24372:24377  value */\n      dup5\n        /* \"contracts/BOMB_flattened.sol\":24342:24378  Approval(msg.sender, spender, value) */\n      mload(0x40)\n      tag_213\n      swap2\n      swap1\n      tag_63\n      jump\t// in\n    tag_213:\n      mload(0x40)\n      dup1\n      swap2\n      sub\n      swap1\n      log3\n        /* \"contracts/BOMB_flattened.sol\":24390:24394  true */\n      0x01\n        /* \"contracts/BOMB_flattened.sol\":24383:24394  return true */\n      swap1\n      pop\n        /* \"contracts/BOMB_flattened.sol\":24199:24399  function approve(address spender, uint256 value) external override returns (bool) {... */\n      swap3\n      swap2\n      pop\n      pop\n      jump\t// out\n        /* \"contracts/BOMB_flattened.sol\":23967:24060  function totalSupply() external view override returns (uint256) {... */\n    tag_61:\n        /* \"contracts/BOMB_flattened.sol\":24022:24029  uint256 */\n      0x00\n        /* \"contracts/BOMB_flattened.sol\":24043:24055  _totalSupply */\n      sload(0x08)\n        /* \"contracts/BOMB_flattened.sol\":24036:24055  return _totalSupply */\n      swap1\n      pop\n        /* \"contracts/BOMB_flattened.sol\":23967:24060  function totalSupply() external view override returns (uint256) {... */\n      swap1\n      jump\t// out\n        /* \"contracts/BOMB_flattened.sol\":24568:24936  function transferFrom(address from, address to, uint256 value) external override validRecipient(to) returns (bool) {... */\n    tag_68:\n        /* \"contracts/BOMB_flattened.sol\":24677:24681  bool */\n      0x00\n        /* \"contracts/BOMB_flattened.sol\":24664:24666  to */\n      dup3\n        /* \"contracts/BOMB_flattened.sol\":20502:20505  0x0 */\n      0x00\n        /* \"contracts/BOMB_flattened.sol\":20488:20506  to != address(0x0) */\n      0xffffffffffffffffffffffffffffffffffffffff\n      and\n        /* \"contracts/BOMB_flattened.sol\":20488:20490  to */\n      dup2\n        /* \"contracts/BOMB_flattened.sol\":20488:20506  to != address(0x0) */\n      0xffffffffffffffffffffffffffffffffffffffff\n      and\n      sub\n        /* \"contracts/BOMB_flattened.sol\":20480:20507  require(to != address(0x0)) */\n      tag_216\n      jumpi\n      0x00\n      dup1\n      revert\n    tag_216:\n        /* \"contracts/BOMB_flattened.sol\":24708:24712  this */\n      address\n        /* \"contracts/BOMB_flattened.sol\":24692:24713  from == address(this) */\n      0xffffffffffffffffffffffffffffffffffffffff\n      and\n        /* \"contracts/BOMB_flattened.sol\":24692:24696  from */\n      dup6\n        /* \"contracts/BOMB_flattened.sol\":24692:24713  from == address(this) */\n      0xffffffffffffffffffffffffffffffffffffffff\n      and\n      eq\n        /* \"contracts/BOMB_flattened.sol\":24692:24739  from == address(this) && to == address(_router) */\n      dup1\n      iszero\n      tag_218\n      jumpi\n      pop\n        /* \"contracts/BOMB_flattened.sol\":24731:24738  _router */\n      0x11\n      0x00\n      swap1\n      sload\n      swap1\n      0x0100\n      exp\n      swap1\n      div\n      0xffffffffffffffffffffffffffffffffffffffff\n      and\n        /* \"contracts/BOMB_flattened.sol\":24717:24739  to == address(_router) */\n      0xffffffffffffffffffffffffffffffffffffffff\n      and\n        /* \"contracts/BOMB_flattened.sol\":24717:24719  to */\n      dup5\n        /* \"contracts/BOMB_flattened.sol\":24717:24739  to == address(_router) */\n      0xffffffffffffffffffffffffffffffffffffffff\n      and\n      eq\n        /* \"contracts/BOMB_flattened.sol\":24692:24739  from == address(this) && to == address(_router) */\n    tag_218:\n        /* \"contracts/BOMB_flattened.sol\":24688:24764  if (from == address(this) && to == address(_router)) {... */\n      iszero\n      tag_219\n      jumpi\n        /* \"contracts/BOMB_flattened.sol\":24754:24758  true */\n      0x01\n        /* \"contracts/BOMB_flattened.sol\":24747:24758  return true */\n      swap2\n      pop\n      jump(tag_217)\n        /* \"contracts/BOMB_flattened.sol\":24688:24764  if (from == address(this) && to == address(_router)) {... */\n    tag_219:\n        /* \"contracts/BOMB_flattened.sol\":24808:24880  _allowedFragments[from][msg.sender].sub(value, \"Insufficient Allowance\") */\n      tag_220\n        /* \"contracts/BOMB_flattened.sol\":24848:24853  value */\n      dup4\n        /* \"contracts/BOMB_flattened.sol\":24808:24880  _allowedFragments[from][msg.sender].sub(value, \"Insufficient Allowance\") */\n      mload(0x40)\n      dup1\n      0x40\n      add\n      0x40\n      mstore\n      dup1\n      0x16\n      dup2\n      mstore\n      0x20\n      add\n      0x496e73756666696369656e7420416c6c6f77616e636500000000000000000000\n      dup2\n      mstore\n      pop\n        /* \"contracts/BOMB_flattened.sol\":24808:24825  _allowedFragments */\n      0x13\n        /* \"contracts/BOMB_flattened.sol\":24808:24831  _allowedFragments[from] */\n      0x00\n        /* \"contracts/BOMB_flattened.sol\":24826:24830  from */\n      dup10\n        /* \"contracts/BOMB_flattened.sol\":24808:24831  _allowedFragments[from] */\n      0xffffffffffffffffffffffffffffffffffffffff\n      and\n      0xffffffffffffffffffffffffffffffffffffffff\n      and\n      dup2\n      mstore\n      0x20\n      add\n      swap1\n      dup2\n      mstore\n      0x20\n      add\n      0x00\n      keccak256\n        /* \"contracts/BOMB_flattened.sol\":24808:24843  _allowedFragments[from][msg.sender] */\n      0x00\n        /* \"contracts/BOMB_flattened.sol\":24832:24842  msg.sender */\n      caller\n        /* \"contracts/BOMB_flattened.sol\":24808:24843  _allowedFragments[from][msg.sender] */\n      0xffffffffffffffffffffffffffffffffffffffff\n      and\n      0xffffffffffffffffffffffffffffffffffffffff\n      and\n      dup2\n      mstore\n      0x20\n      add\n      swap1\n      dup2\n      mstore\n      0x20\n      add\n      0x00\n      keccak256\n      sload\n        /* \"contracts/BOMB_flattened.sol\":24808:24847  _allowedFragments[from][msg.sender].sub */\n      tag_221\n      swap1\n        /* \"contracts/BOMB_flattened.sol\":24808:24880  _allowedFragments[from][msg.sender].sub(value, \"Insufficient Allowance\") */\n      swap3\n      swap2\n      swap1\n      0xffffffff\n      and\n      jump\t// in\n    tag_220:\n        /* \"contracts/BOMB_flattened.sol\":24770:24787  _allowedFragments */\n      0x13\n        /* \"contracts/BOMB_flattened.sol\":24770:24793  _allowedFragments[from] */\n      0x00\n        /* \"contracts/BOMB_flattened.sol\":24788:24792  from */\n      dup8\n        /* \"contracts/BOMB_flattened.sol\":24770:24793  _allowedFragments[from] */\n      0xffffffffffffffffffffffffffffffffffffffff\n      and\n      0xffffffffffffffffffffffffffffffffffffffff\n      and\n      dup2\n      mstore\n      0x20\n      add\n      swap1\n      dup2\n      mstore\n      0x20\n      add\n      0x00\n      keccak256\n        /* \"contracts/BOMB_flattened.sol\":24770:24805  _allowedFragments[from][msg.sender] */\n      0x00\n        /* \"contracts/BOMB_flattened.sol\":24794:24804  msg.sender */\n      caller\n        /* \"contracts/BOMB_flattened.sol\":24770:24805  _allowedFragments[from][msg.sender] */\n      0xffffffffffffffffffffffffffffffffffffffff\n      and\n      0xffffffffffffffffffffffffffffffffffffffff\n      and\n      dup2\n      mstore\n      0x20\n      add\n      swap1\n      dup2\n      mstore\n      0x20\n      add\n      0x00\n      keccak256\n        /* \"contracts/BOMB_flattened.sol\":24770:24880  _allowedFragments[from][msg.sender] = _allowedFragments[from][msg.sender].sub(value, \"Insufficient Allowance\") */\n      dup2\n      swap1\n      sstore\n      pop\n        /* \"contracts/BOMB_flattened.sol\":24885:24915  _transferFrom(from, to, value) */\n      tag_222\n        /* \"contracts/BOMB_flattened.sol\":24899:24903  from */\n      dup6\n        /* \"contracts/BOMB_flattened.sol\":24905:24907  to */\n      dup6\n        /* \"contracts/BOMB_flattened.sol\":24909:24914  value */\n      dup6\n        /* \"contracts/BOMB_flattened.sol\":24885:24898  _transferFrom */\n      tag_223\n        /* \"contracts/BOMB_flattened.sol\":24885:24915  _transferFrom(from, to, value) */\n      jump\t// in\n    tag_222:\n      pop\n        /* \"contracts/BOMB_flattened.sol\":24927:24931  true */\n      0x01\n        /* \"contracts/BOMB_flattened.sol\":24920:24931  return true */\n      swap2\n      pop\n        /* \"contracts/BOMB_flattened.sol\":20512:20513  _ */\n    tag_217:\n        /* \"contracts/BOMB_flattened.sol\":24568:24936  function transferFrom(address from, address to, uint256 value) external override validRecipient(to) returns (bool) {... */\n      pop\n      swap4\n      swap3\n      pop\n      pop\n      pop\n      jump\t// out\n        /* \"contracts/BOMB_flattened.sol\":23063:23173  function setDistributeInterval(uint256 interval) external onlyOwner {... */\n    tag_74:\n        /* \"contracts/BOMB_flattened.sol\":18232:18241  isOwner() */\n      tag_225\n        /* \"contracts/BOMB_flattened.sol\":18232:18239  isOwner */\n      tag_141\n        /* \"contracts/BOMB_flattened.sol\":18232:18241  isOwner() */\n      jump\t// in\n    tag_225:\n        /* \"contracts/BOMB_flattened.sol\":18224:18242  require(isOwner()) */\n      tag_226\n      jumpi\n      0x00\n      dup1\n      revert\n    tag_226:\n        /* \"contracts/BOMB_flattened.sol\":23160:23168  interval */\n      dup1\n        /* \"contracts/BOMB_flattened.sol\":23136:23157  _distributionInterval */\n      0x04\n        /* \"contracts/BOMB_flattened.sol\":23136:23168  _distributionInterval = interval */\n      dup2\n      swap1\n      sstore\n      pop\n        /* \"contracts/BOMB_flattened.sol\":23063:23173  function setDistributeInterval(uint256 interval) external onlyOwner {... */\n      pop\n      jump\t// out\n        /* \"contracts/BOMB_flattened.sol\":23628:23800  function getCirculatingSupply() public view returns (uint256) {... */\n    tag_77:\n        /* \"contracts/BOMB_flattened.sol\":23681:23688  uint256 */\n      0x00\n        /* \"contracts/BOMB_flattened.sol\":23702:23795  (TOTAL_GONS.sub(_gonBalances[ADDR_DEAD]).sub(_gonBalances[address(0)])).div(_gonsPerFragment) */\n      tag_229\n        /* \"contracts/BOMB_flattened.sol\":23778:23794  _gonsPerFragment */\n      sload(0x09)\n        /* \"contracts/BOMB_flattened.sol\":23703:23772  TOTAL_GONS.sub(_gonBalances[ADDR_DEAD]).sub(_gonBalances[address(0)]) */\n      tag_230\n        /* \"contracts/BOMB_flattened.sol\":23747:23759  _gonBalances */\n      0x0c\n        /* \"contracts/BOMB_flattened.sol\":23747:23771  _gonBalances[address(0)] */\n      0x00\n        /* \"contracts/BOMB_flattened.sol\":23768:23769  0 */\n      dup1\n        /* \"contracts/BOMB_flattened.sol\":23747:23771  _gonBalances[address(0)] */\n      0xffffffffffffffffffffffffffffffffffffffff\n      and\n      0xffffffffffffffffffffffffffffffffffffffff\n      and\n      dup2\n      mstore\n      0x20\n      add\n      swap1\n      dup2\n      mstore\n      0x20\n      add\n      0x00\n      keccak256\n      sload\n        /* \"contracts/BOMB_flattened.sol\":23703:23742  TOTAL_GONS.sub(_gonBalances[ADDR_DEAD]) */\n      tag_231\n        /* \"contracts/BOMB_flattened.sol\":23718:23730  _gonBalances */\n      0x0c\n        /* \"contracts/BOMB_flattened.sol\":23718:23741  _gonBalances[ADDR_DEAD] */\n      0x00\n        /* \"contracts/BOMB_flattened.sol\":19625:19667  0x000000000000000000000000000000000000dEaD */\n      0xdead\n        /* \"contracts/BOMB_flattened.sol\":23718:23741  _gonBalances[ADDR_DEAD] */\n      0xffffffffffffffffffffffffffffffffffffffff\n      and\n      0xffffffffffffffffffffffffffffffffffffffff\n      and\n      dup2\n      mstore\n      0x20\n      add\n      swap1\n      dup2\n      mstore\n      0x20\n      add\n      0x00\n      keccak256\n      sload\n        /* \"contracts/BOMB_flattened.sol\":19053:19054  5 */\n      0x05\n        /* \"contracts/BOMB_flattened.sol\":19299:19301  10 */\n      0x0a\n        /* \"contracts/BOMB_flattened.sol\":19299:19313  10 ** DECIMALS */\n      tag_232\n      swap2\n      swap1\n      tag_233\n      jump\t// in\n    tag_232:\n        /* \"contracts/BOMB_flattened.sol\":19283:19296  325 * 10 ** 3 */\n      0x04f588\n        /* \"contracts/BOMB_flattened.sol\":19283:19313  325 * 10 ** 3 * 10 ** DECIMALS */\n      tag_234\n      swap2\n      swap1\n      tag_235\n      jump\t// in\n    tag_234:\n        /* \"contracts/BOMB_flattened.sol\":19153:19154  0 */\n      0x00\n        /* \"contracts/BOMB_flattened.sol\":19144:19155  ~uint256(0) */\n      not\n        /* \"contracts/BOMB_flattened.sol\":19371:19409  MAX_UINT256 % INITIAL_FRAGMENTS_SUPPLY */\n      tag_236\n      swap2\n      swap1\n      tag_237\n      jump\t// in\n    tag_236:\n        /* \"contracts/BOMB_flattened.sol\":19153:19154  0 */\n      0x00\n        /* \"contracts/BOMB_flattened.sol\":19144:19155  ~uint256(0) */\n      not\n        /* \"contracts/BOMB_flattened.sol\":19356:19410  MAX_UINT256 - (MAX_UINT256 % INITIAL_FRAGMENTS_SUPPLY) */\n      tag_238\n      swap2\n      swap1\n      tag_239\n      jump\t// in\n    tag_238:\n        /* \"contracts/BOMB_flattened.sol\":23703:23717  TOTAL_GONS.sub */\n      tag_240\n      swap1\n        /* \"contracts/BOMB_flattened.sol\":23703:23742  TOTAL_GONS.sub(_gonBalances[ADDR_DEAD]) */\n      swap2\n      swap1\n      0xffffffff\n      and\n      jump\t// in\n    tag_231:\n        /* \"contracts/BOMB_flattened.sol\":23703:23746  TOTAL_GONS.sub(_gonBalances[ADDR_DEAD]).sub */\n      tag_240\n      swap1\n        /* \"contracts/BOMB_flattened.sol\":23703:23772  TOTAL_GONS.sub(_gonBalances[ADDR_DEAD]).sub(_gonBalances[address(0)]) */\n      swap2\n      swap1\n      0xffffffff\n      and\n      jump\t// in\n    tag_230:\n        /* \"contracts/BOMB_flattened.sol\":23702:23777  (TOTAL_GONS.sub(_gonBalances[ADDR_DEAD]).sub(_gonBalances[address(0)])).div */\n      tag_241\n      swap1\n        /* \"contracts/BOMB_flattened.sol\":23702:23795  (TOTAL_GONS.sub(_gonBalances[ADDR_DEAD]).sub(_gonBalances[address(0)])).div(_gonsPerFragment) */\n      swap2\n      swap1\n      0xffffffff\n      and\n      jump\t// in\n    tag_229:\n        /* \"contracts/BOMB_flattened.sol\":23695:23795  return (TOTAL_GONS.sub(_gonBalances[ADDR_DEAD]).sub(_gonBalances[address(0)])).div(_gonsPerFragment) */\n      swap1\n      pop\n        /* \"contracts/BOMB_flattened.sol\":23628:23800  function getCirculatingSupply() public view returns (uint256) {... */\n      swap1\n      jump\t// out\n        /* \"contracts/BOMB_flattened.sol\":22936:23058  function setLP(address _address) external onlyOwner {... */\n    tag_83:\n        /* \"contracts/BOMB_flattened.sol\":18232:18241  isOwner() */\n      tag_243\n        /* \"contracts/BOMB_flattened.sol\":18232:18239  isOwner */\n      tag_141\n        /* \"contracts/BOMB_flattened.sol\":18232:18241  isOwner() */\n      jump\t// in\n    tag_243:\n        /* \"contracts/BOMB_flattened.sol\":18224:18242  require(isOwner()) */\n      tag_244\n      jumpi\n      0x00\n      dup1\n      revert\n    tag_244:\n        /* \"contracts/BOMB_flattened.sol\":23005:23013  _address */\n      dup1\n        /* \"contracts/BOMB_flattened.sol\":22993:23002  _pairAddr */\n      0x05\n      0x01\n        /* \"contracts/BOMB_flattened.sol\":22993:23013  _pairAddr = _address */\n      0x0100\n      exp\n      dup2\n      sload\n      dup2\n      0xffffffffffffffffffffffffffffffffffffffff\n      mul\n      not\n      and\n      swap1\n      dup4\n      0xffffffffffffffffffffffffffffffffffffffff\n      and\n      mul\n      or\n      swap1\n      sstore\n      pop\n        /* \"contracts/BOMB_flattened.sol\":23043:23052  _pairAddr */\n      0x05\n      0x01\n      swap1\n      sload\n      swap1\n      0x0100\n      exp\n      swap1\n      div\n      0xffffffffffffffffffffffffffffffffffffffff\n      and\n        /* \"contracts/BOMB_flattened.sol\":23018:23023  _pair */\n      0x12\n      0x00\n        /* \"contracts/BOMB_flattened.sol\":23018:23053  _pair = IPancakeSwapPair(_pairAddr) */\n      0x0100\n      exp\n      dup2\n      sload\n      dup2\n      0xffffffffffffffffffffffffffffffffffffffff\n      mul\n      not\n      and\n      swap1\n      dup4\n      0xffffffffffffffffffffffffffffffffffffffff\n      and\n      mul\n      or\n      swap1\n      sstore\n      pop\n        /* \"contracts/BOMB_flattened.sol\":22936:23058  function setLP(address _address) external onlyOwner {... */\n      pop\n      jump\t// out\n        /* \"contracts/BOMB_flattened.sol\":17731:17805  function decimals() public view returns (uint8) {... */\n    tag_86:\n        /* \"contracts/BOMB_flattened.sol\":17772:17777  uint8 */\n      0x00\n        /* \"contracts/BOMB_flattened.sol\":17791:17800  _decimals */\n      0x02\n      0x00\n      swap1\n      sload\n      swap1\n      0x0100\n      exp\n      swap1\n      div\n      0xff\n      and\n        /* \"contracts/BOMB_flattened.sol\":17784:17800  return _decimals */\n      swap1\n      pop\n        /* \"contracts/BOMB_flattened.sol\":17731:17805  function decimals() public view returns (uint8) {... */\n      swap1\n      jump\t// out\n        /* \"contracts/BOMB_flattened.sol\":20004:20029  bool public _initComplete */\n    tag_91:\n      0x0b\n      0x00\n      swap1\n      sload\n      swap1\n      0x0100\n      exp\n      swap1\n      div\n      0xff\n      and\n      dup2\n      jump\t// out\n        /* \"contracts/BOMB_flattened.sol\":19859:19890  uint256 public _lastRebasedTime */\n    tag_95:\n      sload(0x07)\n      dup2\n      jump\t// out\n        /* \"contracts/BOMB_flattened.sol\":22088:22306  function setBotBlacklist(address _botAddress, bool _flag) external onlyOwner {... */\n    tag_101:\n        /* \"contracts/BOMB_flattened.sol\":18232:18241  isOwner() */\n      tag_248\n        /* \"contracts/BOMB_flattened.sol\":18232:18239  isOwner */\n      tag_141\n        /* \"contracts/BOMB_flattened.sol\":18232:18241  isOwner() */\n      jump\t// in\n    tag_248:\n        /* \"contracts/BOMB_flattened.sol\":18224:18242  require(isOwner()) */\n      tag_249\n      jumpi\n      0x00\n      dup1\n      revert\n    tag_249:\n        /* \"contracts/BOMB_flattened.sol\":22178:22201  isContract(_botAddress) */\n      tag_251\n        /* \"contracts/BOMB_flattened.sol\":22189:22200  _botAddress */\n      dup3\n        /* \"contracts/BOMB_flattened.sol\":22178:22188  isContract */\n      tag_252\n        /* \"contracts/BOMB_flattened.sol\":22178:22201  isContract(_botAddress) */\n      jump\t// in\n    tag_251:\n        /* \"contracts/BOMB_flattened.sol\":22170:22265  require(isContract(_botAddress), \"only contract address, not allowed exteranlly owned account\") */\n      tag_253\n      jumpi\n      mload(0x40)\n      0x08c379a000000000000000000000000000000000000000000000000000000000\n      dup2\n      mstore\n      0x04\n      add\n      tag_254\n      swap1\n      tag_255\n      jump\t// in\n    tag_254:\n      mload(0x40)\n      dup1\n      swap2\n      sub\n      swap1\n      revert\n    tag_253:\n        /* \"contracts/BOMB_flattened.sol\":22296:22301  _flag */\n      dup1\n        /* \"contracts/BOMB_flattened.sol\":22270:22280  _blacklist */\n      0x0f\n        /* \"contracts/BOMB_flattened.sol\":22270:22293  _blacklist[_botAddress] */\n      0x00\n        /* \"contracts/BOMB_flattened.sol\":22281:22292  _botAddress */\n      dup5\n        /* \"contracts/BOMB_flattened.sol\":22270:22293  _blacklist[_botAddress] */\n      0xffffffffffffffffffffffffffffffffffffffff\n      and\n      0xffffffffffffffffffffffffffffffffffffffff\n      and\n      dup2\n      mstore\n      0x20\n      add\n      swap1\n      dup2\n      mstore\n      0x20\n      add\n      0x00\n      keccak256\n      0x00\n        /* \"contracts/BOMB_flattened.sol\":22270:22301  _blacklist[_botAddress] = _flag */\n      0x0100\n      exp\n      dup2\n      sload\n      dup2\n      0xff\n      mul\n      not\n      and\n      swap1\n      dup4\n      iszero\n      iszero\n      mul\n      or\n      swap1\n      sstore\n      pop\n        /* \"contracts/BOMB_flattened.sol\":22088:22306  function setBotBlacklist(address _botAddress, bool _flag) external onlyOwner {... */\n      pop\n      pop\n      jump\t// out\n        /* \"contracts/BOMB_flattened.sol\":25090:25378  function increaseAllowance(address spender, uint256 addedValue) external returns (bool) {... */\n    tag_105:\n        /* \"contracts/BOMB_flattened.sol\":25172:25176  bool */\n      0x00\n        /* \"contracts/BOMB_flattened.sol\":25224:25278  _allowedFragments[msg.sender][spender].add(addedValue) */\n      tag_257\n        /* \"contracts/BOMB_flattened.sol\":25267:25277  addedValue */\n      dup3\n        /* \"contracts/BOMB_flattened.sol\":25224:25241  _allowedFragments */\n      0x13\n        /* \"contracts/BOMB_flattened.sol\":25224:25253  _allowedFragments[msg.sender] */\n      0x00\n        /* \"contracts/BOMB_flattened.sol\":25242:25252  msg.sender */\n      caller\n        /* \"contracts/BOMB_flattened.sol\":25224:25253  _allowedFragments[msg.sender] */\n      0xffffffffffffffffffffffffffffffffffffffff\n      and\n      0xffffffffffffffffffffffffffffffffffffffff\n      and\n      dup2\n      mstore\n      0x20\n      add\n      swap1\n      dup2\n      mstore\n      0x20\n      add\n      0x00\n      keccak256\n        /* \"contracts/BOMB_flattened.sol\":25224:25262  _allowedFragments[msg.sender][spender] */\n      0x00\n        /* \"contracts/BOMB_flattened.sol\":25254:25261  spender */\n      dup7\n        /* \"contracts/BOMB_flattened.sol\":25224:25262  _allowedFragments[msg.sender][spender] */\n      0xffffffffffffffffffffffffffffffffffffffff\n      and\n      0xffffffffffffffffffffffffffffffffffffffff\n      and\n      dup2\n      mstore\n      0x20\n      add\n      swap1\n      dup2\n      mstore\n      0x20\n      add\n      0x00\n      keccak256\n      sload\n        /* \"contracts/BOMB_flattened.sol\":25224:25266  _allowedFragments[msg.sender][spender].add */\n      tag_258\n      swap1\n        /* \"contracts/BOMB_flattened.sol\":25224:25278  _allowedFragments[msg.sender][spender].add(addedValue) */\n      swap2\n      swap1\n      0xffffffff\n      and\n      jump\t// in\n    tag_257:\n        /* \"contracts/BOMB_flattened.sol\":25183:25200  _allowedFragments */\n      0x13\n        /* \"contracts/BOMB_flattened.sol\":25183:25212  _allowedFragments[msg.sender] */\n      0x00\n        /* \"contracts/BOMB_flattened.sol\":25201:25211  msg.sender */\n      caller\n        /* \"contracts/BOMB_flattened.sol\":25183:25212  _allowedFragments[msg.sender] */\n      0xffffffffffffffffffffffffffffffffffffffff\n      and\n      0xffffffffffffffffffffffffffffffffffffffff\n      and\n      dup2\n      mstore\n      0x20\n      add\n      swap1\n      dup2\n      mstore\n      0x20\n      add\n      0x00\n      keccak256\n        /* \"contracts/BOMB_flattened.sol\":25183:25221  _allowedFragments[msg.sender][spender] */\n      0x00\n        /* \"contracts/BOMB_flattened.sol\":25213:25220  spender */\n      dup6\n        /* \"contracts/BOMB_flattened.sol\":25183:25221  _allowedFragments[msg.sender][spender] */\n      0xffffffffffffffffffffffffffffffffffffffff\n      and\n      0xffffffffffffffffffffffffffffffffffffffff\n      and\n      dup2\n      mstore\n      0x20\n      add\n      swap1\n      dup2\n      mstore\n      0x20\n      add\n      0x00\n      keccak256\n        /* \"contracts/BOMB_flattened.sol\":25183:25278  _allowedFragments[msg.sender][spender] = _allowedFragments[msg.sender][spender].add(addedValue) */\n      dup2\n      swap1\n      sstore\n      pop\n        /* \"contracts/BOMB_flattened.sol\":25309:25316  spender */\n      dup3\n        /* \"contracts/BOMB_flattened.sol\":25288:25357  Approval(msg.sender, spender, _allowedFragments[msg.sender][spender]) */\n      0xffffffffffffffffffffffffffffffffffffffff\n      and\n        /* \"contracts/BOMB_flattened.sol\":25297:25307  msg.sender */\n      caller\n        /* \"contracts/BOMB_flattened.sol\":25288:25357  Approval(msg.sender, spender, _allowedFragments[msg.sender][spender]) */\n      0xffffffffffffffffffffffffffffffffffffffff\n      and\n      0x8c5be1e5ebec7d5bd14f71427d1e84f3dd0314c0f7b2291e5b200ac8c7c3b925\n        /* \"contracts/BOMB_flattened.sol\":25318:25335  _allowedFragments */\n      0x13\n        /* \"contracts/BOMB_flattened.sol\":25318:25347  _allowedFragments[msg.sender] */\n      0x00\n        /* \"contracts/BOMB_flattened.sol\":25336:25346  msg.sender */\n      caller\n        /* \"contracts/BOMB_flattened.sol\":25318:25347  _allowedFragments[msg.sender] */\n      0xffffffffffffffffffffffffffffffffffffffff\n      and\n      0xffffffffffffffffffffffffffffffffffffffff\n      and\n      dup2\n      mstore\n      0x20\n      add\n      swap1\n      dup2\n      mstore\n      0x20\n      add\n      0x00\n      keccak256\n        /* \"contracts/BOMB_flattened.sol\":25318:25356  _allowedFragments[msg.sender][spender] */\n      0x00\n        /* \"contracts/BOMB_flattened.sol\":25348:25355  spender */\n      dup8\n        /* \"contracts/BOMB_flattened.sol\":25318:25356  _allowedFragments[msg.sender][spender] */\n      0xffffffffffffffffffffffffffffffffffffffff\n      and\n      0xffffffffffffffffffffffffffffffffffffffff\n      and\n      dup2\n      mstore\n      0x20\n      add\n      swap1\n      dup2\n      mstore\n      0x20\n      add\n      0x00\n      keccak256\n      sload\n        /* \"contracts/BOMB_flattened.sol\":25288:25357  Approval(msg.sender, spender, _allowedFragments[msg.sender][spender]) */\n      mload(0x40)\n      tag_259\n      swap2\n      swap1\n      tag_63\n      jump\t// in\n    tag_259:\n      mload(0x40)\n      dup1\n      swap2\n      sub\n      swap1\n      log3\n        /* \"contracts/BOMB_flattened.sol\":25369:25373  true */\n      0x01\n        /* \"contracts/BOMB_flattened.sol\":25362:25373  return true */\n      swap1\n      pop\n        /* \"contracts/BOMB_flattened.sol\":25090:25378  function increaseAllowance(address spender, uint256 addedValue) external returns (bool) {... */\n      swap3\n      swap2\n      pop\n      pop\n      jump\t// out\n        /* \"contracts/BOMB_flattened.sol\":19894:19921  uint256 public _totalSupply */\n    tag_109:\n      sload(0x08)\n      dup2\n      jump\t// out\n        /* \"contracts/BOMB_flattened.sol\":19673:19704  uint256 public _feePercent = 99 */\n    tag_113:\n      sload(0x03)\n      dup2\n      jump\t// out\n        /* \"contracts/BOMB_flattened.sol\":24065:24194  function balanceOf(address who) external view override returns (uint256) {... */\n    tag_118:\n        /* \"contracts/BOMB_flattened.sol\":24129:24136  uint256 */\n      0x00\n        /* \"contracts/BOMB_flattened.sol\":24150:24189  _gonBalances[who].div(_gonsPerFragment) */\n      tag_261\n        /* \"contracts/BOMB_flattened.sol\":24172:24188  _gonsPerFragment */\n      sload(0x09)\n        /* \"contracts/BOMB_flattened.sol\":24150:24162  _gonBalances */\n      0x0c\n        /* \"contracts/BOMB_flattened.sol\":24150:24167  _gonBalances[who] */\n      0x00\n        /* \"contracts/BOMB_flattened.sol\":24163:24166  who */\n      dup6\n        /* \"contracts/BOMB_flattened.sol\":24150:24167  _gonBalances[who] */\n      0xffffffffffffffffffffffffffffffffffffffff\n      and\n      0xffffffffffffffffffffffffffffffffffffffff\n      and\n      dup2\n      mstore\n      0x20\n      add\n      swap1\n      dup2\n      mstore\n      0x20\n      add\n      0x00\n      keccak256\n      sload\n        /* \"contracts/BOMB_flattened.sol\":24150:24171  _gonBalances[who].div */\n      tag_241\n      swap1\n        /* \"contracts/BOMB_flattened.sol\":24150:24189  _gonBalances[who].div(_gonsPerFragment) */\n      swap2\n      swap1\n      0xffffffff\n      and\n      jump\t// in\n    tag_261:\n        /* \"contracts/BOMB_flattened.sol\":24143:24189  return _gonBalances[who].div(_gonsPerFragment) */\n      swap1\n      pop\n        /* \"contracts/BOMB_flattened.sol\":24065:24194  function balanceOf(address who) external view override returns (uint256) {... */\n      swap2\n      swap1\n      pop\n      jump\t// out\n        /* \"contracts/BOMB_flattened.sol\":18346:18457  function renounceOwnership() public onlyOwner {... */\n    tag_122:\n        /* \"contracts/BOMB_flattened.sol\":18232:18241  isOwner() */\n      tag_263\n        /* \"contracts/BOMB_flattened.sol\":18232:18239  isOwner */\n      tag_141\n        /* \"contracts/BOMB_flattened.sol\":18232:18241  isOwner() */\n      jump\t// in\n    tag_263:\n        /* \"contracts/BOMB_flattened.sol\":18224:18242  require(isOwner()) */\n      tag_264\n      jumpi\n      0x00\n      dup1\n      revert\n    tag_264:\n        /* \"contracts/BOMB_flattened.sol\":18421:18427  _owner */\n      0x02\n      0x01\n      swap1\n      sload\n      swap1\n      0x0100\n      exp\n      swap1\n      div\n      0xffffffffffffffffffffffffffffffffffffffff\n      and\n        /* \"contracts/BOMB_flattened.sol\":18402:18428  OwnershipRenounced(_owner) */\n      0xffffffffffffffffffffffffffffffffffffffff\n      and\n      0xf8df31144d9c2f0f6b59d69b8b98abd5459d07f2742c4df920b25aae33c64820\n      mload(0x40)\n      mload(0x40)\n      dup1\n      swap2\n      sub\n      swap1\n      log2\n        /* \"contracts/BOMB_flattened.sol\":18450:18451  0 */\n      0x00\n        /* \"contracts/BOMB_flattened.sol\":18433:18439  _owner */\n      0x02\n      0x01\n        /* \"contracts/BOMB_flattened.sol\":18433:18452  _owner = address(0) */\n      0x0100\n      exp\n      dup2\n      sload\n      dup2\n      0xffffffffffffffffffffffffffffffffffffffff\n      mul\n      not\n      and\n      swap1\n      dup4\n      0xffffffffffffffffffffffffffffffffffffffff\n      and\n      mul\n      or\n      swap1\n      sstore\n      pop\n        /* \"contracts/BOMB_flattened.sol\":18346:18457  function renounceOwnership() public onlyOwner {... */\n      jump\t// out\n        /* \"contracts/BOMB_flattened.sol\":23887:23962  function manualSync() external {... */\n    tag_125:\n        /* \"contracts/BOMB_flattened.sol\":23940:23949  _pairAddr */\n      0x05\n      0x01\n      swap1\n      sload\n      swap1\n      0x0100\n      exp\n      swap1\n      div\n      0xffffffffffffffffffffffffffffffffffffffff\n      and\n        /* \"contracts/BOMB_flattened.sol\":23923:23955  IPancakeSwapPair(_pairAddr).sync */\n      0xffffffffffffffffffffffffffffffffffffffff\n      and\n      0xfff6cae9\n        /* \"contracts/BOMB_flattened.sol\":23923:23957  IPancakeSwapPair(_pairAddr).sync() */\n      mload(0x40)\n      dup2\n      0xffffffff\n      and\n      0xe0\n      shl\n      dup2\n      mstore\n      0x04\n      add\n      0x00\n      mload(0x40)\n      dup1\n      dup4\n      sub\n      dup2\n      0x00\n      dup8\n      dup1\n      extcodesize\n      iszero\n      dup1\n      iszero\n      tag_267\n      jumpi\n      0x00\n      dup1\n      revert\n    tag_267:\n      pop\n      gas\n      call\n      iszero\n      dup1\n      iszero\n      tag_269\n      jumpi\n      returndatasize\n      0x00\n      dup1\n      returndatacopy\n      revert(0x00, returndatasize)\n    tag_269:\n      pop\n      pop\n      pop\n      pop\n        /* \"contracts/BOMB_flattened.sol\":23887:23962  function manualSync() external {... */\n      jump\t// out\n        /* \"contracts/BOMB_flattened.sol\":23805:23882  function isNotInSwap() external view returns (bool) {... */\n    tag_128:\n        /* \"contracts/BOMB_flattened.sol\":23851:23855  bool */\n      0x00\n        /* \"contracts/BOMB_flattened.sol\":23870:23877  _inSwap */\n      0x12\n      0x14\n      swap1\n      sload\n      swap1\n      0x0100\n      exp\n      swap1\n      div\n      0xff\n      and\n        /* \"contracts/BOMB_flattened.sol\":23869:23877  !_inSwap */\n      iszero\n        /* \"contracts/BOMB_flattened.sol\":23862:23877  return !_inSwap */\n      swap1\n      pop\n        /* \"contracts/BOMB_flattened.sol\":23805:23882  function isNotInSwap() external view returns (bool) {... */\n      swap1\n      jump\t// out\n        /* \"contracts/BOMB_flattened.sol\":21991:22083  function setWhitelist(address _addr) external onlyOwner {... */\n    tag_133:\n        /* \"contracts/BOMB_flattened.sol\":18232:18241  isOwner() */\n      tag_272\n        /* \"contracts/BOMB_flattened.sol\":18232:18239  isOwner */\n      tag_141\n        /* \"contracts/BOMB_flattened.sol\":18232:18241  isOwner() */\n      jump\t// in\n    tag_272:\n        /* \"contracts/BOMB_flattened.sol\":18224:18242  require(isOwner()) */\n      tag_273\n      jumpi\n      0x00\n      dup1\n      revert\n    tag_273:\n        /* \"contracts/BOMB_flattened.sol\":22074:22078  true */\n      0x01\n        /* \"contracts/BOMB_flattened.sol\":22052:22064  _isFeeExempt */\n      0x0e\n        /* \"contracts/BOMB_flattened.sol\":22052:22071  _isFeeExempt[_addr] */\n      0x00\n        /* \"contracts/BOMB_flattened.sol\":22065:22070  _addr */\n      dup4\n        /* \"contracts/BOMB_flattened.sol\":22052:22071  _isFeeExempt[_addr] */\n      0xffffffffffffffffffffffffffffffffffffffff\n      and\n      0xffffffffffffffffffffffffffffffffffffffff\n      and\n      dup2\n      mstore\n      0x20\n      add\n      swap1\n      dup2\n      mstore\n      0x20\n      add\n      0x00\n      keccak256\n      0x00\n        /* \"contracts/BOMB_flattened.sol\":22052:22078  _isFeeExempt[_addr] = true */\n      0x0100\n      exp\n      dup2\n      sload\n      dup2\n      0xff\n      mul\n      not\n      and\n      swap1\n      dup4\n      iszero\n      iszero\n      mul\n      or\n      swap1\n      sstore\n      pop\n        /* \"contracts/BOMB_flattened.sol\":21991:22083  function setWhitelist(address _addr) external onlyOwner {... */\n      pop\n      jump\t// out\n        /* \"contracts/BOMB_flattened.sol\":18123:18193  function owner() public view returns (address) {... */\n    tag_136:\n        /* \"contracts/BOMB_flattened.sol\":18161:18168  address */\n      0x00\n        /* \"contracts/BOMB_flattened.sol\":18182:18188  _owner */\n      0x02\n      0x01\n      swap1\n      sload\n      swap1\n      0x0100\n      exp\n      swap1\n      div\n      0xffffffffffffffffffffffffffffffffffffffff\n      and\n        /* \"contracts/BOMB_flattened.sol\":18175:18188  return _owner */\n      swap1\n      pop\n        /* \"contracts/BOMB_flattened.sol\":18123:18193  function owner() public view returns (address) {... */\n      swap1\n      jump\t// out\n        /* \"contracts/BOMB_flattened.sol\":18258:18341  function isOwner() public view returns (bool) {... */\n    tag_141:\n        /* \"contracts/BOMB_flattened.sol\":18298:18302  bool */\n      0x00\n        /* \"contracts/BOMB_flattened.sol\":18330:18336  _owner */\n      0x02\n      0x01\n      swap1\n      sload\n      swap1\n      0x0100\n      exp\n      swap1\n      div\n      0xffffffffffffffffffffffffffffffffffffffff\n      and\n        /* \"contracts/BOMB_flattened.sol\":18316:18336  msg.sender == _owner */\n      0xffffffffffffffffffffffffffffffffffffffff\n      and\n        /* \"contracts/BOMB_flattened.sol\":18316:18326  msg.sender */\n      caller\n        /* \"contracts/BOMB_flattened.sol\":18316:18336  msg.sender == _owner */\n      0xffffffffffffffffffffffffffffffffffffffff\n      and\n      eq\n        /* \"contracts/BOMB_flattened.sol\":18309:18336  return msg.sender == _owner */\n      swap1\n      pop\n        /* \"contracts/BOMB_flattened.sol\":18258:18341  function isOwner() public view returns (bool) {... */\n      swap1\n      jump\t// out\n        /* \"contracts/BOMB_flattened.sol\":17648:17726  function symbol() public view returns (string memory) {... */\n    tag_145:\n        /* \"contracts/BOMB_flattened.sol\":17687:17700  string memory */\n      0x60\n        /* \"contracts/BOMB_flattened.sol\":17714:17721  _symbol */\n      0x01\n        /* \"contracts/BOMB_flattened.sol\":17707:17721  return _symbol */\n      dup1\n      sload\n      tag_278\n      swap1\n      tag_207\n      jump\t// in\n    tag_278:\n      dup1\n      0x1f\n      add\n      0x20\n      dup1\n      swap2\n      div\n      mul\n      0x20\n      add\n      mload(0x40)\n      swap1\n      dup2\n      add\n      0x40\n      mstore\n      dup1\n      swap3\n      swap2\n      swap1\n      dup2\n      dup2\n      mstore\n      0x20\n      add\n      dup3\n      dup1\n      sload\n      tag_279\n      swap1\n      tag_207\n      jump\t// in\n    tag_279:\n      dup1\n      iszero\n      tag_280\n      jumpi\n      dup1\n      0x1f\n      lt\n      tag_281\n      jumpi\n      0x0100\n      dup1\n      dup4\n      sload\n      div\n      mul\n      dup4\n      mstore\n      swap2\n      0x20\n      add\n      swap2\n      jump(tag_280)\n    tag_281:\n      dup3\n      add\n      swap2\n      swap1\n      0x00\n      mstore\n      keccak256(0x00, 0x20)\n      swap1\n    tag_282:\n      dup2\n      sload\n      dup2\n      mstore\n      swap1\n      0x01\n      add\n      swap1\n      0x20\n      add\n      dup1\n      dup4\n      gt\n      tag_282\n      jumpi\n      dup3\n      swap1\n      sub\n      0x1f\n      and\n      dup3\n      add\n      swap2\n    tag_280:\n      pop\n      pop\n      pop\n      pop\n      pop\n      swap1\n      pop\n        /* \"contracts/BOMB_flattened.sol\":17648:17726  function symbol() public view returns (string memory) {... */\n      swap1\n      jump\t// out\n        /* \"contracts/BOMB_flattened.sol\":19820:19855  uint256 public _initRebaseStartTime */\n    tag_149:\n      sload(0x06)\n      dup2\n      jump\t// out\n        /* \"contracts/BOMB_flattened.sol\":20185:20227  mapping(address => bool) public _blacklist */\n    tag_154:\n      mstore(0x20, 0x0f)\n      dup1\n      0x00\n      mstore\n      keccak256(0x00, 0x40)\n      0x00\n      swap2\n      pop\n      sload\n      swap1\n      0x0100\n      exp\n      swap1\n      div\n      0xff\n      and\n      dup2\n      jump\t// out\n        /* \"contracts/BOMB_flattened.sol\":25383:25817  function decreaseAllowance(address spender, uint256 subtractedValue) external returns (bool) {... */\n    tag_159:\n        /* \"contracts/BOMB_flattened.sol\":25470:25474  bool */\n      0x00\n        /* \"contracts/BOMB_flattened.sol\":25481:25497  uint256 oldValue */\n      dup1\n        /* \"contracts/BOMB_flattened.sol\":25500:25517  _allowedFragments */\n      0x13\n        /* \"contracts/BOMB_flattened.sol\":25500:25529  _allowedFragments[msg.sender] */\n      0x00\n        /* \"contracts/BOMB_flattened.sol\":25518:25528  msg.sender */\n      caller\n        /* \"contracts/BOMB_flattened.sol\":25500:25529  _allowedFragments[msg.sender] */\n      0xffffffffffffffffffffffffffffffffffffffff\n      and\n      0xffffffffffffffffffffffffffffffffffffffff\n      and\n      dup2\n      mstore\n      0x20\n      add\n      swap1\n      dup2\n      mstore\n      0x20\n      add\n      0x00\n      keccak256\n        /* \"contracts/BOMB_flattened.sol\":25500:25538  _allowedFragments[msg.sender][spender] */\n      0x00\n        /* \"contracts/BOMB_flattened.sol\":25530:25537  spender */\n      dup6\n        /* \"contracts/BOMB_flattened.sol\":25500:25538  _allowedFragments[msg.sender][spender] */\n      0xffffffffffffffffffffffffffffffffffffffff\n      and\n      0xffffffffffffffffffffffffffffffffffffffff\n      and\n      dup2\n      mstore\n      0x20\n      add\n      swap1\n      dup2\n      mstore\n      0x20\n      add\n      0x00\n      keccak256\n      sload\n        /* \"contracts/BOMB_flattened.sol\":25481:25538  uint256 oldValue = _allowedFragments[msg.sender][spender] */\n      swap1\n      pop\n        /* \"contracts/BOMB_flattened.sol\":25566:25574  oldValue */\n      dup1\n        /* \"contracts/BOMB_flattened.sol\":25547:25562  subtractedValue */\n      dup4\n        /* \"contracts/BOMB_flattened.sol\":25547:25574  subtractedValue >= oldValue */\n      lt\n        /* \"contracts/BOMB_flattened.sol\":25543:25718  if (subtractedValue >= oldValue) {... */\n      tag_284\n      jumpi\n        /* \"contracts/BOMB_flattened.sol\":25623:25624  0 */\n      0x00\n        /* \"contracts/BOMB_flattened.sol\":25582:25599  _allowedFragments */\n      0x13\n        /* \"contracts/BOMB_flattened.sol\":25582:25611  _allowedFragments[msg.sender] */\n      0x00\n        /* \"contracts/BOMB_flattened.sol\":25600:25610  msg.sender */\n      caller\n        /* \"contracts/BOMB_flattened.sol\":25582:25611  _allowedFragments[msg.sender] */\n      0xffffffffffffffffffffffffffffffffffffffff\n      and\n      0xffffffffffffffffffffffffffffffffffffffff\n      and\n      dup2\n      mstore\n      0x20\n      add\n      swap1\n      dup2\n      mstore\n      0x20\n      add\n      0x00\n      keccak256\n        /* \"contracts/BOMB_flattened.sol\":25582:25620  _allowedFragments[msg.sender][spender] */\n      0x00\n        /* \"contracts/BOMB_flattened.sol\":25612:25619  spender */\n      dup7\n        /* \"contracts/BOMB_flattened.sol\":25582:25620  _allowedFragments[msg.sender][spender] */\n      0xffffffffffffffffffffffffffffffffffffffff\n      and\n      0xffffffffffffffffffffffffffffffffffffffff\n      and\n      dup2\n      mstore\n      0x20\n      add\n      swap1\n      dup2\n      mstore\n      0x20\n      add\n      0x00\n      keccak256\n        /* \"contracts/BOMB_flattened.sol\":25582:25624  _allowedFragments[msg.sender][spender] = 0 */\n      dup2\n      swap1\n      sstore\n      pop\n        /* \"contracts/BOMB_flattened.sol\":25543:25718  if (subtractedValue >= oldValue) {... */\n      jump(tag_285)\n    tag_284:\n        /* \"contracts/BOMB_flattened.sol\":25683:25712  oldValue.sub(subtractedValue) */\n      tag_286\n        /* \"contracts/BOMB_flattened.sol\":25696:25711  subtractedValue */\n      dup4\n        /* \"contracts/BOMB_flattened.sol\":25683:25691  oldValue */\n      dup3\n        /* \"contracts/BOMB_flattened.sol\":25683:25695  oldValue.sub */\n      tag_240\n      swap1\n        /* \"contracts/BOMB_flattened.sol\":25683:25712  oldValue.sub(subtractedValue) */\n      swap2\n      swap1\n      0xffffffff\n      and\n      jump\t// in\n    tag_286:\n        /* \"contracts/BOMB_flattened.sol\":25642:25659  _allowedFragments */\n      0x13\n        /* \"contracts/BOMB_flattened.sol\":25642:25671  _allowedFragments[msg.sender] */\n      0x00\n        /* \"contracts/BOMB_flattened.sol\":25660:25670  msg.sender */\n      caller\n        /* \"contracts/BOMB_flattened.sol\":25642:25671  _allowedFragments[msg.sender] */\n      0xffffffffffffffffffffffffffffffffffffffff\n      and\n      0xffffffffffffffffffffffffffffffffffffffff\n      and\n      dup2\n      mstore\n      0x20\n      add\n      swap1\n      dup2\n      mstore\n      0x20\n      add\n      0x00\n      keccak256\n        /* \"contracts/BOMB_flattened.sol\":25642:25680  _allowedFragments[msg.sender][spender] */\n      0x00\n        /* \"contracts/BOMB_flattened.sol\":25672:25679  spender */\n      dup7\n        /* \"contracts/BOMB_flattened.sol\":25642:25680  _allowedFragments[msg.sender][spender] */\n      0xffffffffffffffffffffffffffffffffffffffff\n      and\n      0xffffffffffffffffffffffffffffffffffffffff\n      and\n      dup2\n      mstore\n      0x20\n      add\n      swap1\n      dup2\n      mstore\n      0x20\n      add\n      0x00\n      keccak256\n        /* \"contracts/BOMB_flattened.sol\":25642:25712  _allowedFragments[msg.sender][spender] = oldValue.sub(subtractedValue) */\n      dup2\n      swap1\n      sstore\n      pop\n        /* \"contracts/BOMB_flattened.sol\":25543:25718  if (subtractedValue >= oldValue) {... */\n    tag_285:\n        /* \"contracts/BOMB_flattened.sol\":25748:25755  spender */\n      dup4\n        /* \"contracts/BOMB_flattened.sol\":25727:25796  Approval(msg.sender, spender, _allowedFragments[msg.sender][spender]) */\n      0xffffffffffffffffffffffffffffffffffffffff\n      and\n        /* \"contracts/BOMB_flattened.sol\":25736:25746  msg.sender */\n      caller\n        /* \"contracts/BOMB_flattened.sol\":25727:25796  Approval(msg.sender, spender, _allowedFragments[msg.sender][spender]) */\n      0xffffffffffffffffffffffffffffffffffffffff\n      and\n      0x8c5be1e5ebec7d5bd14f71427d1e84f3dd0314c0f7b2291e5b200ac8c7c3b925\n        /* \"contracts/BOMB_flattened.sol\":25757:25774  _allowedFragments */\n      0x13\n        /* \"contracts/BOMB_flattened.sol\":25757:25786  _allowedFragments[msg.sender] */\n      0x00\n        /* \"contracts/BOMB_flattened.sol\":25775:25785  msg.sender */\n      caller\n        /* \"contracts/BOMB_flattened.sol\":25757:25786  _allowedFragments[msg.sender] */\n      0xffffffffffffffffffffffffffffffffffffffff\n      and\n      0xffffffffffffffffffffffffffffffffffffffff\n      and\n      dup2\n      mstore\n      0x20\n      add\n      swap1\n      dup2\n      mstore\n      0x20\n      add\n      0x00\n      keccak256\n        /* \"contracts/BOMB_flattened.sol\":25757:25795  _allowedFragments[msg.sender][spender] */\n      0x00\n        /* \"contracts/BOMB_flattened.sol\":25787:25794  spender */\n      dup9\n        /* \"contracts/BOMB_flattened.sol\":25757:25795  _allowedFragments[msg.sender][spender] */\n      0xffffffffffffffffffffffffffffffffffffffff\n      and\n      0xffffffffffffffffffffffffffffffffffffffff\n      and\n      dup2\n      mstore\n      0x20\n      add\n      swap1\n      dup2\n      mstore\n      0x20\n      add\n      0x00\n      keccak256\n      sload\n        /* \"contracts/BOMB_flattened.sol\":25727:25796  Approval(msg.sender, spender, _allowedFragments[msg.sender][spender]) */\n      mload(0x40)\n      tag_287\n      swap2\n      swap1\n      tag_63\n      jump\t// in\n    tag_287:\n      mload(0x40)\n      dup1\n      swap2\n      sub\n      swap1\n      log3\n        /* \"contracts/BOMB_flattened.sol\":25808:25812  true */\n      0x01\n        /* \"contracts/BOMB_flattened.sol\":25801:25812  return true */\n      swap2\n      pop\n      pop\n        /* \"contracts/BOMB_flattened.sol\":25383:25817  function decreaseAllowance(address spender, uint256 subtractedValue) external returns (bool) {... */\n      swap3\n      swap2\n      pop\n      pop\n      jump\t// out\n        /* \"contracts/BOMB_flattened.sol\":24404:24563  function transfer(address to, uint256 value) external override validRecipient(to) returns (bool) {... */\n    tag_164:\n        /* \"contracts/BOMB_flattened.sol\":24495:24499  bool */\n      0x00\n        /* \"contracts/BOMB_flattened.sol\":24482:24484  to */\n      dup3\n        /* \"contracts/BOMB_flattened.sol\":20502:20505  0x0 */\n      0x00\n        /* \"contracts/BOMB_flattened.sol\":20488:20506  to != address(0x0) */\n      0xffffffffffffffffffffffffffffffffffffffff\n      and\n        /* \"contracts/BOMB_flattened.sol\":20488:20490  to */\n      dup2\n        /* \"contracts/BOMB_flattened.sol\":20488:20506  to != address(0x0) */\n      0xffffffffffffffffffffffffffffffffffffffff\n      and\n      sub\n        /* \"contracts/BOMB_flattened.sol\":20480:20507  require(to != address(0x0)) */\n      tag_289\n      jumpi\n      0x00\n      dup1\n      revert\n    tag_289:\n        /* \"contracts/BOMB_flattened.sol\":24506:24542  _transferFrom(msg.sender, to, value) */\n      tag_291\n        /* \"contracts/BOMB_flattened.sol\":24520:24530  msg.sender */\n      caller\n        /* \"contracts/BOMB_flattened.sol\":24532:24534  to */\n      dup6\n        /* \"contracts/BOMB_flattened.sol\":24536:24541  value */\n      dup6\n        /* \"contracts/BOMB_flattened.sol\":24506:24519  _transferFrom */\n      tag_223\n        /* \"contracts/BOMB_flattened.sol\":24506:24542  _transferFrom(msg.sender, to, value) */\n      jump\t// in\n    tag_291:\n      pop\n        /* \"contracts/BOMB_flattened.sol\":24554:24558  true */\n      0x01\n        /* \"contracts/BOMB_flattened.sol\":24547:24558  return true */\n      swap2\n      pop\n        /* \"contracts/BOMB_flattened.sol\":24404:24563  function transfer(address to, uint256 value) external override validRecipient(to) returns (bool) {... */\n      pop\n      swap3\n      swap2\n      pop\n      pop\n      jump\t// out\n        /* \"contracts/BOMB_flattened.sol\":22311:22404  function setFeePercentage(uint256 percent) external onlyOwner {... */\n    tag_169:\n        /* \"contracts/BOMB_flattened.sol\":18232:18241  isOwner() */\n      tag_293\n        /* \"contracts/BOMB_flattened.sol\":18232:18239  isOwner */\n      tag_141\n        /* \"contracts/BOMB_flattened.sol\":18232:18241  isOwner() */\n      jump\t// in\n    tag_293:\n        /* \"contracts/BOMB_flattened.sol\":18224:18242  require(isOwner()) */\n      tag_294\n      jumpi\n      0x00\n      dup1\n      revert\n    tag_294:\n        /* \"contracts/BOMB_flattened.sol\":22392:22399  percent */\n      dup1\n        /* \"contracts/BOMB_flattened.sol\":22378:22389  _feePercent */\n      0x03\n        /* \"contracts/BOMB_flattened.sol\":22378:22399  _feePercent = percent */\n      dup2\n      swap1\n      sstore\n      pop\n        /* \"contracts/BOMB_flattened.sol\":22311:22404  function setFeePercentage(uint256 percent) external onlyOwner {... */\n      pop\n      jump\t// out\n        /* \"contracts/BOMB_flattened.sol\":19763:19786  bool public _autoRebase */\n    tag_172:\n      0x05\n      0x00\n      swap1\n      sload\n      swap1\n      0x0100\n      exp\n      swap1\n      div\n      0xff\n      and\n      dup2\n      jump\t// out\n        /* \"contracts/BOMB_flattened.sol\":20878:21145  function _init() external onlyOwner {... */\n    tag_176:\n        /* \"contracts/BOMB_flattened.sol\":18232:18241  isOwner() */\n      tag_297\n        /* \"contracts/BOMB_flattened.sol\":18232:18239  isOwner */\n      tag_141\n        /* \"contracts/BOMB_flattened.sol\":18232:18241  isOwner() */\n      jump\t// in\n    tag_297:\n        /* \"contracts/BOMB_flattened.sol\":18224:18242  require(isOwner()) */\n      tag_298\n      jumpi\n      0x00\n      dup1\n      revert\n    tag_298:\n        /* \"contracts/BOMB_flattened.sol\":20923:20936  _initComplete */\n      0x0b\n      0x00\n      swap1\n      sload\n      swap1\n      0x0100\n      exp\n      swap1\n      div\n      0xff\n      and\n        /* \"contracts/BOMB_flattened.sol\":20944:20951  return; */\n      tag_299\n        /* \"contracts/BOMB_flattened.sol\":20919:20956  if (_initComplete) {... */\n      jumpi\n        /* \"contracts/BOMB_flattened.sol\":19455:19497  0xd7f655E3376cE2D7A2b08fF01Eb3B1023191A901 */\n      0xd7f655e3376ce2d7a2b08ff01eb3b1023191a901\n        /* \"contracts/BOMB_flattened.sol\":20962:20969  _router */\n      0x11\n      0x00\n        /* \"contracts/BOMB_flattened.sol\":20962:21003  _router = IPancakeSwapRouter(ADDR_ROUTER) */\n      0x0100\n      exp\n      dup2\n      sload\n      dup2\n      0xffffffffffffffffffffffffffffffffffffffff\n      mul\n      not\n      and\n      swap1\n      dup4\n      0xffffffffffffffffffffffffffffffffffffffff\n      and\n      mul\n      or\n      swap1\n      sstore\n      pop\n        /* \"contracts/BOMB_flattened.sol\":21040:21047  _router */\n      0x11\n      0x00\n      swap1\n      sload\n      swap1\n      0x0100\n      exp\n      swap1\n      div\n      0xffffffffffffffffffffffffffffffffffffffff\n      and\n        /* \"contracts/BOMB_flattened.sol\":21040:21055  _router.factory */\n      0xffffffffffffffffffffffffffffffffffffffff\n      and\n      0xc45a0155\n        /* \"contracts/BOMB_flattened.sol\":21040:21057  _router.factory() */\n      mload(0x40)\n      dup2\n      0xffffffff\n      and\n      0xe0\n      shl\n      dup2\n      mstore\n      0x04\n      add\n      0x20\n      mload(0x40)\n      dup1\n      dup4\n      sub\n      dup2\n      dup7\n      gas\n      staticcall\n      iszero\n      dup1\n      iszero\n      tag_302\n      jumpi\n      returndatasize\n      0x00\n      dup1\n      returndatacopy\n      revert(0x00, returndatasize)\n    tag_302:\n      pop\n      pop\n      pop\n      pop\n      mload(0x40)\n      returndatasize\n      not(0x1f)\n      0x1f\n      dup3\n      add\n      and\n      dup3\n      add\n      dup1\n      0x40\n      mstore\n      pop\n      dup2\n      add\n      swap1\n      tag_303\n      swap2\n      swap1\n      tag_304\n      jump\t// in\n    tag_303:\n        /* \"contracts/BOMB_flattened.sol\":21020:21069  IPancakeSwapFactory(_router.factory()).createPair */\n      0xffffffffffffffffffffffffffffffffffffffff\n      and\n      0xc9c65396\n        /* \"contracts/BOMB_flattened.sol\":21070:21077  _router */\n      0x11\n      0x00\n      swap1\n      sload\n      swap1\n      0x0100\n      exp\n      swap1\n      div\n      0xffffffffffffffffffffffffffffffffffffffff\n      and\n        /* \"contracts/BOMB_flattened.sol\":21070:21082  _router.WETH */\n      0xffffffffffffffffffffffffffffffffffffffff\n      and\n      0xad5c4648\n        /* \"contracts/BOMB_flattened.sol\":21070:21084  _router.WETH() */\n      mload(0x40)\n      dup2\n      0xffffffff\n      and\n      0xe0\n      shl\n      dup2\n      mstore\n      0x04\n      add\n      0x20\n      mload(0x40)\n      dup1\n      dup4\n      sub\n      dup2\n      dup7\n      gas\n      staticcall\n      iszero\n      dup1\n      iszero\n      tag_306\n      jumpi\n      returndatasize\n      0x00\n      dup1\n      returndatacopy\n      revert(0x00, returndatasize)\n    tag_306:\n      pop\n      pop\n      pop\n      pop\n      mload(0x40)\n      returndatasize\n      not(0x1f)\n      0x1f\n      dup3\n      add\n      and\n      dup3\n      add\n      dup1\n      0x40\n      mstore\n      pop\n      dup2\n      add\n      swap1\n      tag_307\n      swap2\n      swap1\n      tag_304\n      jump\t// in\n    tag_307:\n        /* \"contracts/BOMB_flattened.sol\":21094:21098  this */\n      address\n        /* \"contracts/BOMB_flattened.sol\":21020:21100  IPancakeSwapFactory(_router.factory()).createPair(_router.WETH(), address(this)) */\n      mload(0x40)\n      dup4\n      0xffffffff\n      and\n      0xe0\n      shl\n      dup2\n      mstore\n      0x04\n      add\n      tag_308\n      swap3\n      swap2\n      swap1\n      tag_309\n      jump\t// in\n    tag_308:\n      0x20\n      mload(0x40)\n      dup1\n      dup4\n      sub\n      dup2\n      0x00\n      dup8\n      gas\n      call\n      iszero\n      dup1\n      iszero\n      tag_311\n      jumpi\n      returndatasize\n      0x00\n      dup1\n      returndatacopy\n      revert(0x00, returndatasize)\n    tag_311:\n      pop\n      pop\n      pop\n      pop\n      mload(0x40)\n      returndatasize\n      not(0x1f)\n      0x1f\n      dup3\n      add\n      and\n      dup3\n      add\n      dup1\n      0x40\n      mstore\n      pop\n      dup2\n      add\n      swap1\n      tag_312\n      swap2\n      swap1\n      tag_304\n      jump\t// in\n    tag_312:\n        /* \"contracts/BOMB_flattened.sol\":21008:21017  _pairAddr */\n      0x05\n      0x01\n        /* \"contracts/BOMB_flattened.sol\":21008:21100  _pairAddr = IPancakeSwapFactory(_router.factory()).createPair(_router.WETH(), address(this)) */\n      0x0100\n      exp\n      dup2\n      sload\n      dup2\n      0xffffffffffffffffffffffffffffffffffffffff\n      mul\n      not\n      and\n      swap1\n      dup4\n      0xffffffffffffffffffffffffffffffffffffffff\n      and\n      mul\n      or\n      swap1\n      sstore\n      pop\n        /* \"contracts/BOMB_flattened.sol\":21130:21139  _pairAddr */\n      0x05\n      0x01\n      swap1\n      sload\n      swap1\n      0x0100\n      exp\n      swap1\n      div\n      0xffffffffffffffffffffffffffffffffffffffff\n      and\n        /* \"contracts/BOMB_flattened.sol\":21105:21110  _pair */\n      0x12\n      0x00\n        /* \"contracts/BOMB_flattened.sol\":21105:21140  _pair = IPancakeSwapPair(_pairAddr) */\n      0x0100\n      exp\n      dup2\n      sload\n      dup2\n      0xffffffffffffffffffffffffffffffffffffffff\n      mul\n      not\n      and\n      swap1\n      dup4\n      0xffffffffffffffffffffffffffffffffffffffff\n      and\n      mul\n      or\n      swap1\n      sstore\n      pop\n        /* \"contracts/BOMB_flattened.sol\":18247:18248  _ */\n    tag_299:\n        /* \"contracts/BOMB_flattened.sol\":20878:21145  function _init() external onlyOwner {... */\n      jump\t// out\n        /* \"contracts/BOMB_flattened.sol\":19708:19757  uint256 public _distributionInterval = 10 minutes */\n    tag_179:\n      sload(0x04)\n      dup2\n      jump\t// out\n        /* \"contracts/BOMB_flattened.sol\":23519:23623  function checkFeeExempt(address _addr) external view returns (bool) {... */\n    tag_184:\n        /* \"contracts/BOMB_flattened.sol\":23581:23585  bool */\n      0x00\n        /* \"contracts/BOMB_flattened.sol\":23599:23611  _isFeeExempt */\n      0x0e\n        /* \"contracts/BOMB_flattened.sol\":23599:23618  _isFeeExempt[_addr] */\n      0x00\n        /* \"contracts/BOMB_flattened.sol\":23612:23617  _addr */\n      dup4\n        /* \"contracts/BOMB_flattened.sol\":23599:23618  _isFeeExempt[_addr] */\n      0xffffffffffffffffffffffffffffffffffffffff\n      and\n      0xffffffffffffffffffffffffffffffffffffffff\n      and\n      dup2\n      mstore\n      0x20\n      add\n      swap1\n      dup2\n      mstore\n      0x20\n      add\n      0x00\n      keccak256\n      0x00\n      swap1\n      sload\n      swap1\n      0x0100\n      exp\n      swap1\n      div\n      0xff\n      and\n        /* \"contracts/BOMB_flattened.sol\":23592:23618  return _isFeeExempt[_addr] */\n      swap1\n      pop\n        /* \"contracts/BOMB_flattened.sol\":23519:23623  function checkFeeExempt(address _addr) external view returns (bool) {... */\n      swap2\n      swap1\n      pop\n      jump\t// out\n        /* \"contracts/BOMB_flattened.sol\":24941:25085  function allowance(address owner_, address spender) external view override returns (uint256) {... */\n    tag_190:\n        /* \"contracts/BOMB_flattened.sol\":25025:25032  uint256 */\n      0x00\n        /* \"contracts/BOMB_flattened.sol\":25046:25063  _allowedFragments */\n      0x13\n        /* \"contracts/BOMB_flattened.sol\":25046:25071  _allowedFragments[owner_] */\n      0x00\n        /* \"contracts/BOMB_flattened.sol\":25064:25070  owner_ */\n      dup5\n        /* \"contracts/BOMB_flattened.sol\":25046:25071  _allowedFragments[owner_] */\n      0xffffffffffffffffffffffffffffffffffffffff\n      and\n      0xffffffffffffffffffffffffffffffffffffffff\n      and\n      dup2\n      mstore\n      0x20\n      add\n      swap1\n      dup2\n      mstore\n      0x20\n      add\n      0x00\n      keccak256\n        /* \"contracts/BOMB_flattened.sol\":25046:25080  _allowedFragments[owner_][spender] */\n      0x00\n        /* \"contracts/BOMB_flattened.sol\":25072:25079  spender */\n      dup4\n        /* \"contracts/BOMB_flattened.sol\":25046:25080  _allowedFragments[owner_][spender] */\n      0xffffffffffffffffffffffffffffffffffffffff\n      and\n      0xffffffffffffffffffffffffffffffffffffffff\n      and\n      dup2\n      mstore\n      0x20\n      add\n      swap1\n      dup2\n      mstore\n      0x20\n      add\n      0x00\n      keccak256\n      sload\n        /* \"contracts/BOMB_flattened.sol\":25039:25080  return _allowedFragments[owner_][spender] */\n      swap1\n      pop\n        /* \"contracts/BOMB_flattened.sol\":24941:25085  function allowance(address owner_, address spender) external view override returns (uint256) {... */\n      swap3\n      swap2\n      pop\n      pop\n      jump\t// out\n        /* \"contracts/BOMB_flattened.sol\":21804:21986  function setAutoRebase(bool _flag) external onlyOwner {... */\n    tag_196:\n        /* \"contracts/BOMB_flattened.sol\":18232:18241  isOwner() */\n      tag_316\n        /* \"contracts/BOMB_flattened.sol\":18232:18239  isOwner */\n      tag_141\n        /* \"contracts/BOMB_flattened.sol\":18232:18241  isOwner() */\n      jump\t// in\n    tag_316:\n        /* \"contracts/BOMB_flattened.sol\":18224:18242  require(isOwner()) */\n      tag_317\n      jumpi\n      0x00\n      dup1\n      revert\n    tag_317:\n        /* \"contracts/BOMB_flattened.sol\":21867:21872  _flag */\n      dup1\n        /* \"contracts/BOMB_flattened.sol\":21863:21982  if (_flag) {... */\n      iszero\n      tag_319\n      jumpi\n        /* \"contracts/BOMB_flattened.sol\":21894:21899  _flag */\n      dup1\n        /* \"contracts/BOMB_flattened.sol\":21880:21891  _autoRebase */\n      0x05\n      0x00\n        /* \"contracts/BOMB_flattened.sol\":21880:21899  _autoRebase = _flag */\n      0x0100\n      exp\n      dup2\n      sload\n      dup2\n      0xff\n      mul\n      not\n      and\n      swap1\n      dup4\n      iszero\n      iszero\n      mul\n      or\n      swap1\n      sstore\n      pop\n        /* \"contracts/BOMB_flattened.sol\":21924:21939  block.timestamp */\n      timestamp\n        /* \"contracts/BOMB_flattened.sol\":21905:21921  _lastRebasedTime */\n      0x07\n        /* \"contracts/BOMB_flattened.sol\":21905:21939  _lastRebasedTime = block.timestamp */\n      dup2\n      swap1\n      sstore\n      pop\n        /* \"contracts/BOMB_flattened.sol\":21863:21982  if (_flag) {... */\n      jump(tag_320)\n    tag_319:\n        /* \"contracts/BOMB_flattened.sol\":21971:21976  _flag */\n      dup1\n        /* \"contracts/BOMB_flattened.sol\":21957:21968  _autoRebase */\n      0x05\n      0x00\n        /* \"contracts/BOMB_flattened.sol\":21957:21976  _autoRebase = _flag */\n      0x0100\n      exp\n      dup2\n      sload\n      dup2\n      0xff\n      mul\n      not\n      and\n      swap1\n      dup4\n      iszero\n      iszero\n      mul\n      or\n      swap1\n      sstore\n      pop\n        /* \"contracts/BOMB_flattened.sol\":21863:21982  if (_flag) {... */\n    tag_320:\n        /* \"contracts/BOMB_flattened.sol\":21804:21986  function setAutoRebase(bool _flag) external onlyOwner {... */\n      pop\n      jump\t// out\n        /* \"contracts/BOMB_flattened.sol\":19792:19816  address public _pairAddr */\n    tag_199:\n      0x05\n      0x01\n      swap1\n      sload\n      swap1\n      0x0100\n      exp\n      swap1\n      div\n      0xffffffffffffffffffffffffffffffffffffffff\n      and\n      dup2\n      jump\t// out\n        /* \"contracts/BOMB_flattened.sol\":18462:18562  function transferOwnership(address newOwner) public onlyOwner {... */\n    tag_204:\n        /* \"contracts/BOMB_flattened.sol\":18232:18241  isOwner() */\n      tag_322\n        /* \"contracts/BOMB_flattened.sol\":18232:18239  isOwner */\n      tag_141\n        /* \"contracts/BOMB_flattened.sol\":18232:18241  isOwner() */\n      jump\t// in\n    tag_322:\n        /* \"contracts/BOMB_flattened.sol\":18224:18242  require(isOwner()) */\n      tag_323\n      jumpi\n      0x00\n      dup1\n      revert\n    tag_323:\n        /* \"contracts/BOMB_flattened.sol\":18529:18557  _transferOwnership(newOwner) */\n      tag_325\n        /* \"contracts/BOMB_flattened.sol\":18548:18556  newOwner */\n      dup2\n        /* \"contracts/BOMB_flattened.sol\":18529:18547  _transferOwnership */\n      tag_326\n        /* \"contracts/BOMB_flattened.sol\":18529:18557  _transferOwnership(newOwner) */\n      jump\t// in\n    tag_325:\n        /* \"contracts/BOMB_flattened.sol\":18462:18562  function transferOwnership(address newOwner) public onlyOwner {... */\n      pop\n      jump\t// out\n        /* \"contracts/BOMB_flattened.sol\":5518:5691  function sub(uint256 a, uint256 b, string memory errorMessage) internal pure returns (uint256) {... */\n    tag_221:\n        /* \"contracts/BOMB_flattened.sol\":5604:5611  uint256 */\n      0x00\n        /* \"contracts/BOMB_flattened.sol\":5647:5648  a */\n      dup4\n        /* \"contracts/BOMB_flattened.sol\":5642:5643  b */\n      dup4\n        /* \"contracts/BOMB_flattened.sol\":5642:5648  b <= a */\n      gt\n      iszero\n        /* \"contracts/BOMB_flattened.sol\":5650:5662  errorMessage */\n      dup3\n        /* \"contracts/BOMB_flattened.sol\":5634:5663  require(b <= a, errorMessage) */\n      swap1\n      tag_328\n      jumpi\n      mload(0x40)\n      0x08c379a000000000000000000000000000000000000000000000000000000000\n      dup2\n      mstore\n      0x04\n      add\n      tag_329\n      swap2\n      swap1\n      tag_51\n      jump\t// in\n    tag_329:\n      mload(0x40)\n      dup1\n      swap2\n      sub\n      swap1\n      revert\n    tag_328:\n      pop\n        /* \"contracts/BOMB_flattened.sol\":5680:5681  b */\n      dup3\n        /* \"contracts/BOMB_flattened.sol\":5676:5677  a */\n      dup5\n        /* \"contracts/BOMB_flattened.sol\":5676:5681  a - b */\n      sub\n        /* \"contracts/BOMB_flattened.sol\":5669:5681  return a - b */\n      swap1\n      pop\n        /* \"contracts/BOMB_flattened.sol\":5518:5691  function sub(uint256 a, uint256 b, string memory errorMessage) internal pure returns (uint256) {... */\n      swap4\n      swap3\n      pop\n      pop\n      pop\n      jump\t// out\n        /* \"contracts/BOMB_flattened.sol\":26057:26701  function _transferFrom(address sender, address recipient, uint256 amount) internal returns (bool) {... */\n    tag_223:\n        /* \"contracts/BOMB_flattened.sol\":26149:26153  bool */\n      0x00\n        /* \"contracts/BOMB_flattened.sol\":26169:26179  _blacklist */\n      0x0f\n        /* \"contracts/BOMB_flattened.sol\":26169:26187  _blacklist[sender] */\n      0x00\n        /* \"contracts/BOMB_flattened.sol\":26180:26186  sender */\n      dup6\n        /* \"contracts/BOMB_flattened.sol\":26169:26187  _blacklist[sender] */\n      0xffffffffffffffffffffffffffffffffffffffff\n      and\n      0xffffffffffffffffffffffffffffffffffffffff\n      and\n      dup2\n      mstore\n      0x20\n      add\n      swap1\n      dup2\n      mstore\n      0x20\n      add\n      0x00\n      keccak256\n      0x00\n      swap1\n      sload\n      swap1\n      0x0100\n      exp\n      swap1\n      div\n      0xff\n      and\n        /* \"contracts/BOMB_flattened.sol\":26168:26187  !_blacklist[sender] */\n      iszero\n        /* \"contracts/BOMB_flattened.sol\":26168:26213  !_blacklist[sender] && !_blacklist[recipient] */\n      dup1\n      iszero\n      tag_331\n      jumpi\n      pop\n        /* \"contracts/BOMB_flattened.sol\":26192:26202  _blacklist */\n      0x0f\n        /* \"contracts/BOMB_flattened.sol\":26192:26213  _blacklist[recipient] */\n      0x00\n        /* \"contracts/BOMB_flattened.sol\":26203:26212  recipient */\n      dup5\n        /* \"contracts/BOMB_flattened.sol\":26192:26213  _blacklist[recipient] */\n      0xffffffffffffffffffffffffffffffffffffffff\n      and\n      0xffffffffffffffffffffffffffffffffffffffff\n      and\n      dup2\n      mstore\n      0x20\n      add\n      swap1\n      dup2\n      mstore\n      0x20\n      add\n      0x00\n      keccak256\n      0x00\n      swap1\n      sload\n      swap1\n      0x0100\n      exp\n      swap1\n      div\n      0xff\n      and\n        /* \"contracts/BOMB_flattened.sol\":26191:26213  !_blacklist[recipient] */\n      iszero\n        /* \"contracts/BOMB_flattened.sol\":26168:26213  !_blacklist[sender] && !_blacklist[recipient] */\n    tag_331:\n        /* \"contracts/BOMB_flattened.sol\":26160:26230  require(!_blacklist[sender] && !_blacklist[recipient], \"in_blacklist\") */\n      tag_332\n      jumpi\n      mload(0x40)\n      0x08c379a000000000000000000000000000000000000000000000000000000000\n      dup2\n      mstore\n      0x04\n      add\n      tag_333\n      swap1\n      tag_334\n      jump\t// in\n    tag_333:\n      mload(0x40)\n      dup1\n      swap2\n      sub\n      swap1\n      revert\n    tag_332:\n        /* \"contracts/BOMB_flattened.sol\":26241:26248  _inSwap */\n      0x12\n      0x14\n      swap1\n      sload\n      swap1\n      0x0100\n      exp\n      swap1\n      div\n      0xff\n      and\n        /* \"contracts/BOMB_flattened.sol\":26237:26310  if (_inSwap) {... */\n      iszero\n      tag_335\n      jumpi\n        /* \"contracts/BOMB_flattened.sol\":26263:26304  _basicTransfer(sender, recipient, amount) */\n      tag_336\n        /* \"contracts/BOMB_flattened.sol\":26278:26284  sender */\n      dup5\n        /* \"contracts/BOMB_flattened.sol\":26286:26295  recipient */\n      dup5\n        /* \"contracts/BOMB_flattened.sol\":26297:26303  amount */\n      dup5\n        /* \"contracts/BOMB_flattened.sol\":26263:26277  _basicTransfer */\n      tag_337\n        /* \"contracts/BOMB_flattened.sol\":26263:26304  _basicTransfer(sender, recipient, amount) */\n      jump\t// in\n    tag_336:\n        /* \"contracts/BOMB_flattened.sol\":26256:26304  return _basicTransfer(sender, recipient, amount) */\n      swap1\n      pop\n      jump(tag_330)\n        /* \"contracts/BOMB_flattened.sol\":26237:26310  if (_inSwap) {... */\n    tag_335:\n        /* \"contracts/BOMB_flattened.sol\":26318:26332  shouldRebase() */\n      tag_338\n        /* \"contracts/BOMB_flattened.sol\":26318:26330  shouldRebase */\n      tag_339\n        /* \"contracts/BOMB_flattened.sol\":26318:26332  shouldRebase() */\n      jump\t// in\n    tag_338:\n        /* \"contracts/BOMB_flattened.sol\":26314:26354  if (shouldRebase()) {... */\n      iszero\n      tag_340\n      jumpi\n        /* \"contracts/BOMB_flattened.sol\":26340:26348  rebase() */\n      tag_341\n        /* \"contracts/BOMB_flattened.sol\":26340:26346  rebase */\n      tag_342\n        /* \"contracts/BOMB_flattened.sol\":26340:26348  rebase() */\n      jump\t// in\n    tag_341:\n        /* \"contracts/BOMB_flattened.sol\":26314:26354  if (shouldRebase()) {... */\n    tag_340:\n        /* \"contracts/BOMB_flattened.sol\":26360:26377  uint256 gonAmount */\n      0x00\n        /* \"contracts/BOMB_flattened.sol\":26380:26408  amount.mul(_gonsPerFragment) */\n      tag_343\n        /* \"contracts/BOMB_flattened.sol\":26391:26407  _gonsPerFragment */\n      sload(0x09)\n        /* \"contracts/BOMB_flattened.sol\":26380:26386  amount */\n      dup5\n        /* \"contracts/BOMB_flattened.sol\":26380:26390  amount.mul */\n      tag_344\n      swap1\n        /* \"contracts/BOMB_flattened.sol\":26380:26408  amount.mul(_gonsPerFragment) */\n      swap2\n      swap1\n      0xffffffff\n      and\n      jump\t// in\n    tag_343:\n        /* \"contracts/BOMB_flattened.sol\":26360:26408  uint256 gonAmount = amount.mul(_gonsPerFragment) */\n      swap1\n      pop\n        /* \"contracts/BOMB_flattened.sol\":26415:26445  _subBalance(sender, gonAmount) */\n      tag_345\n        /* \"contracts/BOMB_flattened.sol\":26427:26433  sender */\n      dup6\n        /* \"contracts/BOMB_flattened.sol\":26435:26444  gonAmount */\n      dup3\n        /* \"contracts/BOMB_flattened.sol\":26415:26426  _subBalance */\n      tag_346\n        /* \"contracts/BOMB_flattened.sol\":26415:26445  _subBalance(sender, gonAmount) */\n      jump\t// in\n    tag_345:\n        /* \"contracts/BOMB_flattened.sol\":26452:26477  uint256 gonAmountReceived */\n      0x00\n        /* \"contracts/BOMB_flattened.sol\":26480:26512  shouldTakeFee(sender, recipient) */\n      tag_347\n        /* \"contracts/BOMB_flattened.sol\":26494:26500  sender */\n      dup7\n        /* \"contracts/BOMB_flattened.sol\":26502:26511  recipient */\n      dup7\n        /* \"contracts/BOMB_flattened.sol\":26480:26493  shouldTakeFee */\n      tag_348\n        /* \"contracts/BOMB_flattened.sol\":26480:26512  shouldTakeFee(sender, recipient) */\n      jump\t// in\n    tag_347:\n        /* \"contracts/BOMB_flattened.sol\":26480:26554  shouldTakeFee(sender, recipient) ? _takeFee(sender, gonAmount) : gonAmount */\n      tag_349\n      jumpi\n        /* \"contracts/BOMB_flattened.sol\":26545:26554  gonAmount */\n      dup2\n        /* \"contracts/BOMB_flattened.sol\":26480:26554  shouldTakeFee(sender, recipient) ? _takeFee(sender, gonAmount) : gonAmount */\n      jump(tag_350)\n    tag_349:\n        /* \"contracts/BOMB_flattened.sol\":26515:26542  _takeFee(sender, gonAmount) */\n      tag_351\n        /* \"contracts/BOMB_flattened.sol\":26524:26530  sender */\n      dup7\n        /* \"contracts/BOMB_flattened.sol\":26532:26541  gonAmount */\n      dup4\n        /* \"contracts/BOMB_flattened.sol\":26515:26523  _takeFee */\n      tag_352\n        /* \"contracts/BOMB_flattened.sol\":26515:26542  _takeFee(sender, gonAmount) */\n      jump\t// in\n    tag_351:\n        /* \"contracts/BOMB_flattened.sol\":26480:26554  shouldTakeFee(sender, recipient) ? _takeFee(sender, gonAmount) : gonAmount */\n    tag_350:\n        /* \"contracts/BOMB_flattened.sol\":26452:26554  uint256 gonAmountReceived = shouldTakeFee(sender, recipient) ? _takeFee(sender, gonAmount) : gonAmount */\n      swap1\n      pop\n        /* \"contracts/BOMB_flattened.sol\":26559:26600  _addBalance(recipient, gonAmountReceived) */\n      tag_353\n        /* \"contracts/BOMB_flattened.sol\":26571:26580  recipient */\n      dup6\n        /* \"contracts/BOMB_flattened.sol\":26582:26599  gonAmountReceived */\n      dup3\n        /* \"contracts/BOMB_flattened.sol\":26559:26570  _addBalance */\n      tag_354\n        /* \"contracts/BOMB_flattened.sol\":26559:26600  _addBalance(recipient, gonAmountReceived) */\n      jump\t// in\n    tag_353:\n        /* \"contracts/BOMB_flattened.sol\":26629:26638  recipient */\n      dup5\n        /* \"contracts/BOMB_flattened.sol\":26612:26680  Transfer(sender, recipient, gonAmountReceived.div(_gonsPerFragment)) */\n      0xffffffffffffffffffffffffffffffffffffffff\n      and\n        /* \"contracts/BOMB_flattened.sol\":26621:26627  sender */\n      dup7\n        /* \"contracts/BOMB_flattened.sol\":26612:26680  Transfer(sender, recipient, gonAmountReceived.div(_gonsPerFragment)) */\n      0xffffffffffffffffffffffffffffffffffffffff\n      and\n      0xddf252ad1be2c89b69c2b068fc378daa952ba7f163c4a11628f55a4df523b3ef\n        /* \"contracts/BOMB_flattened.sol\":26640:26679  gonAmountReceived.div(_gonsPerFragment) */\n      tag_355\n        /* \"contracts/BOMB_flattened.sol\":26662:26678  _gonsPerFragment */\n      sload(0x09)\n        /* \"contracts/BOMB_flattened.sol\":26640:26657  gonAmountReceived */\n      dup6\n        /* \"contracts/BOMB_flattened.sol\":26640:26661  gonAmountReceived.div */\n      tag_241\n      swap1\n        /* \"contracts/BOMB_flattened.sol\":26640:26679  gonAmountReceived.div(_gonsPerFragment) */\n      swap2\n      swap1\n      0xffffffff\n      and\n      jump\t// in\n    tag_355:\n        /* \"contracts/BOMB_flattened.sol\":26612:26680  Transfer(sender, recipient, gonAmountReceived.div(_gonsPerFragment)) */\n      mload(0x40)\n      tag_356\n      swap2\n      swap1\n      tag_63\n      jump\t// in\n    tag_356:\n      mload(0x40)\n      dup1\n      swap2\n      sub\n      swap1\n      log3\n        /* \"contracts/BOMB_flattened.sol\":26692:26696  true */\n      0x01\n        /* \"contracts/BOMB_flattened.sol\":26685:26696  return true */\n      swap3\n      pop\n      pop\n      pop\n        /* \"contracts/BOMB_flattened.sol\":26057:26701  function _transferFrom(address sender, address recipient, uint256 amount) internal returns (bool) {... */\n    tag_330:\n      swap4\n      swap3\n      pop\n      pop\n      pop\n      jump\t// out\n        /* \"contracts/BOMB_flattened.sol\":3803:3892  function sub(uint256 a, uint256 b) internal pure returns (uint256) {... */\n    tag_240:\n        /* \"contracts/BOMB_flattened.sol\":3861:3868  uint256 */\n      0x00\n        /* \"contracts/BOMB_flattened.sol\":3886:3887  b */\n      dup2\n        /* \"contracts/BOMB_flattened.sol\":3882:3883  a */\n      dup4\n        /* \"contracts/BOMB_flattened.sol\":3882:3887  a - b */\n      tag_358\n      swap2\n      swap1\n      tag_239\n      jump\t// in\n    tag_358:\n        /* \"contracts/BOMB_flattened.sol\":3875:3887  return a - b */\n      swap1\n      pop\n        /* \"contracts/BOMB_flattened.sol\":3803:3892  function sub(uint256 a, uint256 b) internal pure returns (uint256) {... */\n      swap3\n      swap2\n      pop\n      pop\n      jump\t// out\n        /* \"contracts/BOMB_flattened.sol\":4475:4564  function div(uint256 a, uint256 b) internal pure returns (uint256) {... */\n    tag_241:\n        /* \"contracts/BOMB_flattened.sol\":4533:4540  uint256 */\n      0x00\n        /* \"contracts/BOMB_flattened.sol\":4558:4559  b */\n      dup2\n        /* \"contracts/BOMB_flattened.sol\":4554:4555  a */\n      dup4\n        /* \"contracts/BOMB_flattened.sol\":4554:4559  a / b */\n      tag_360\n      swap2\n      swap1\n      tag_361\n      jump\t// in\n    tag_360:\n        /* \"contracts/BOMB_flattened.sol\":4547:4559  return a / b */\n      swap1\n      pop\n        /* \"contracts/BOMB_flattened.sol\":4475:4564  function div(uint256 a, uint256 b) internal pure returns (uint256) {... */\n      swap3\n      swap2\n      pop\n      pop\n      jump\t// out\n        /* \"contracts/BOMB_flattened.sol\":22409:22560  function isContract(address addr) internal view returns (bool) {... */\n    tag_252:\n        /* \"contracts/BOMB_flattened.sol\":22466:22470  bool */\n      0x00\n        /* \"contracts/BOMB_flattened.sol\":22477:22486  uint size */\n      dup1\n        /* \"contracts/BOMB_flattened.sol\":22526:22530  addr */\n      dup3\n        /* \"contracts/BOMB_flattened.sol\":22514:22531  extcodesize(addr) */\n      extcodesize\n        /* \"contracts/BOMB_flattened.sol\":22506:22531  size := extcodesize(addr) */\n      swap1\n      pop\n        /* \"contracts/BOMB_flattened.sol\":22554:22555  0 */\n      0x00\n        /* \"contracts/BOMB_flattened.sol\":22547:22551  size */\n      dup2\n        /* \"contracts/BOMB_flattened.sol\":22547:22555  size > 0 */\n      gt\n        /* \"contracts/BOMB_flattened.sol\":22540:22555  return size > 0 */\n      swap2\n      pop\n      pop\n        /* \"contracts/BOMB_flattened.sol\":22409:22560  function isContract(address addr) internal view returns (bool) {... */\n      swap2\n      swap1\n      pop\n      jump\t// out\n        /* \"contracts/BOMB_flattened.sol\":3464:3553  function add(uint256 a, uint256 b) internal pure returns (uint256) {... */\n    tag_258:\n        /* \"contracts/BOMB_flattened.sol\":3522:3529  uint256 */\n      0x00\n        /* \"contracts/BOMB_flattened.sol\":3547:3548  b */\n      dup2\n        /* \"contracts/BOMB_flattened.sol\":3543:3544  a */\n      dup4\n        /* \"contracts/BOMB_flattened.sol\":3543:3548  a + b */\n      tag_364\n      swap2\n      swap1\n      tag_365\n      jump\t// in\n    tag_364:\n        /* \"contracts/BOMB_flattened.sol\":3536:3548  return a + b */\n      swap1\n      pop\n        /* \"contracts/BOMB_flattened.sol\":3464:3553  function add(uint256 a, uint256 b) internal pure returns (uint256) {... */\n      swap3\n      swap2\n      pop\n      pop\n      jump\t// out\n        /* \"contracts/BOMB_flattened.sol\":18567:18733  function _transferOwnership(address newOwner) internal {... */\n    tag_326:\n        /* \"contracts/BOMB_flattened.sol\":18655:18656  0 */\n      0x00\n        /* \"contracts/BOMB_flattened.sol\":18635:18657  newOwner != address(0) */\n      0xffffffffffffffffffffffffffffffffffffffff\n      and\n        /* \"contracts/BOMB_flattened.sol\":18635:18643  newOwner */\n      dup2\n        /* \"contracts/BOMB_flattened.sol\":18635:18657  newOwner != address(0) */\n      0xffffffffffffffffffffffffffffffffffffffff\n      and\n      sub\n        /* \"contracts/BOMB_flattened.sol\":18627:18658  require(newOwner != address(0)) */\n      tag_367\n      jumpi\n      0x00\n      dup1\n      revert\n    tag_367:\n        /* \"contracts/BOMB_flattened.sol\":18697:18705  newOwner */\n      dup1\n        /* \"contracts/BOMB_flattened.sol\":18668:18706  OwnershipTransferred(_owner, newOwner) */\n      0xffffffffffffffffffffffffffffffffffffffff\n      and\n        /* \"contracts/BOMB_flattened.sol\":18689:18695  _owner */\n      0x02\n      0x01\n      swap1\n      sload\n      swap1\n      0x0100\n      exp\n      swap1\n      div\n      0xffffffffffffffffffffffffffffffffffffffff\n      and\n        /* \"contracts/BOMB_flattened.sol\":18668:18706  OwnershipTransferred(_owner, newOwner) */\n      0xffffffffffffffffffffffffffffffffffffffff\n      and\n      0x8be0079c531659141344cd1fd0a4f28419497f9722a3daafe3b4186f6b6457e0\n      mload(0x40)\n      mload(0x40)\n      dup1\n      swap2\n      sub\n      swap1\n      log3\n        /* \"contracts/BOMB_flattened.sol\":18720:18728  newOwner */\n      dup1\n        /* \"contracts/BOMB_flattened.sol\":18711:18717  _owner */\n      0x02\n      0x01\n        /* \"contracts/BOMB_flattened.sol\":18711:18728  _owner = newOwner */\n      0x0100\n      exp\n      dup2\n      sload\n      dup2\n      0xffffffffffffffffffffffffffffffffffffffff\n      mul\n      not\n      and\n      swap1\n      dup4\n      0xffffffffffffffffffffffffffffffffffffffff\n      and\n      mul\n      or\n      swap1\n      sstore\n      pop\n        /* \"contracts/BOMB_flattened.sol\":18567:18733  function _transferOwnership(address newOwner) internal {... */\n      pop\n      jump\t// out\n        /* \"contracts/BOMB_flattened.sol\":25822:26052  function _basicTransfer(address from, address to, uint256 amount) internal returns (bool) {... */\n    tag_337:\n        /* \"contracts/BOMB_flattened.sol\":25906:25910  bool */\n      0x00\n        /* \"contracts/BOMB_flattened.sol\":25917:25934  uint256 gonAmount */\n      dup1\n        /* \"contracts/BOMB_flattened.sol\":25937:25965  amount.mul(_gonsPerFragment) */\n      tag_369\n        /* \"contracts/BOMB_flattened.sol\":25948:25964  _gonsPerFragment */\n      sload(0x09)\n        /* \"contracts/BOMB_flattened.sol\":25937:25943  amount */\n      dup5\n        /* \"contracts/BOMB_flattened.sol\":25937:25947  amount.mul */\n      tag_344\n      swap1\n        /* \"contracts/BOMB_flattened.sol\":25937:25965  amount.mul(_gonsPerFragment) */\n      swap2\n      swap1\n      0xffffffff\n      and\n      jump\t// in\n    tag_369:\n        /* \"contracts/BOMB_flattened.sol\":25917:25965  uint256 gonAmount = amount.mul(_gonsPerFragment) */\n      swap1\n      pop\n        /* \"contracts/BOMB_flattened.sol\":25972:26000  _subBalance(from, gonAmount) */\n      tag_370\n        /* \"contracts/BOMB_flattened.sol\":25984:25988  from */\n      dup6\n        /* \"contracts/BOMB_flattened.sol\":25990:25999  gonAmount */\n      dup3\n        /* \"contracts/BOMB_flattened.sol\":25972:25983  _subBalance */\n      tag_346\n        /* \"contracts/BOMB_flattened.sol\":25972:26000  _subBalance(from, gonAmount) */\n      jump\t// in\n    tag_370:\n        /* \"contracts/BOMB_flattened.sol\":26005:26031  _addBalance(to, gonAmount) */\n      tag_371\n        /* \"contracts/BOMB_flattened.sol\":26017:26019  to */\n      dup5\n        /* \"contracts/BOMB_flattened.sol\":26021:26030  gonAmount */\n      dup3\n        /* \"contracts/BOMB_flattened.sol\":26005:26016  _addBalance */\n      tag_354\n        /* \"contracts/BOMB_flattened.sol\":26005:26031  _addBalance(to, gonAmount) */\n      jump\t// in\n    tag_371:\n        /* \"contracts/BOMB_flattened.sol\":26043:26047  true */\n      0x01\n        /* \"contracts/BOMB_flattened.sol\":26036:26047  return true */\n      swap2\n      pop\n      pop\n        /* \"contracts/BOMB_flattened.sol\":25822:26052  function _basicTransfer(address from, address to, uint256 amount) internal returns (bool) {... */\n      swap4\n      swap3\n      pop\n      pop\n      pop\n      jump\t// out\n        /* \"contracts/BOMB_flattened.sol\":22726:22931  function shouldRebase() internal view returns (bool) {... */\n    tag_339:\n        /* \"contracts/BOMB_flattened.sol\":22773:22777  bool */\n      0x00\n        /* \"contracts/BOMB_flattened.sol\":22791:22802  _autoRebase */\n      0x05\n      0x00\n      swap1\n      sload\n      swap1\n      0x0100\n      exp\n      swap1\n      div\n      0xff\n      and\n        /* \"contracts/BOMB_flattened.sol\":22791:22833  _autoRebase && (_totalSupply < MAX_SUPPLY) */\n      dup1\n      iszero\n      tag_373\n      jumpi\n      pop\n        /* \"contracts/BOMB_flattened.sol\":19053:19054  5 */\n      0x05\n        /* \"contracts/BOMB_flattened.sol\":19213:19215  10 */\n      0x0a\n        /* \"contracts/BOMB_flattened.sol\":19213:19227  10 ** DECIMALS */\n      tag_374\n      swap2\n      swap1\n      tag_233\n      jump\t// in\n    tag_374:\n        /* \"contracts/BOMB_flattened.sol\":19197:19210  325 * 10 ** 7 */\n      0xc1b71080\n        /* \"contracts/BOMB_flattened.sol\":19197:19227  325 * 10 ** 7 * 10 ** DECIMALS */\n      tag_375\n      swap2\n      swap1\n      tag_235\n      jump\t// in\n    tag_375:\n        /* \"contracts/BOMB_flattened.sol\":22807:22819  _totalSupply */\n      sload(0x08)\n        /* \"contracts/BOMB_flattened.sol\":22807:22832  _totalSupply < MAX_SUPPLY */\n      lt\n        /* \"contracts/BOMB_flattened.sol\":22791:22833  _autoRebase && (_totalSupply < MAX_SUPPLY) */\n    tag_373:\n        /* \"contracts/BOMB_flattened.sol\":22791:22860  _autoRebase && (_totalSupply < MAX_SUPPLY) && msg.sender != _pairAddr */\n      dup1\n      iszero\n      tag_376\n      jumpi\n      pop\n        /* \"contracts/BOMB_flattened.sol\":22851:22860  _pairAddr */\n      0x05\n      0x01\n      swap1\n      sload\n      swap1\n      0x0100\n      exp\n      swap1\n      div\n      0xffffffffffffffffffffffffffffffffffffffff\n      and\n        /* \"contracts/BOMB_flattened.sol\":22837:22860  msg.sender != _pairAddr */\n      0xffffffffffffffffffffffffffffffffffffffff\n      and\n        /* \"contracts/BOMB_flattened.sol\":22837:22847  msg.sender */\n      caller\n        /* \"contracts/BOMB_flattened.sol\":22837:22860  msg.sender != _pairAddr */\n      0xffffffffffffffffffffffffffffffffffffffff\n      and\n      eq\n      iszero\n        /* \"contracts/BOMB_flattened.sol\":22791:22860  _autoRebase && (_totalSupply < MAX_SUPPLY) && msg.sender != _pairAddr */\n    tag_376:\n        /* \"contracts/BOMB_flattened.sol\":22791:22872  _autoRebase && (_totalSupply < MAX_SUPPLY) && msg.sender != _pairAddr && !_inSwap */\n      dup1\n      iszero\n      tag_377\n      jumpi\n      pop\n        /* \"contracts/BOMB_flattened.sol\":22865:22872  _inSwap */\n      0x12\n      0x14\n      swap1\n      sload\n      swap1\n      0x0100\n      exp\n      swap1\n      div\n      0xff\n      and\n        /* \"contracts/BOMB_flattened.sol\":22864:22872  !_inSwap */\n      iszero\n        /* \"contracts/BOMB_flattened.sol\":22791:22872  _autoRebase && (_totalSupply < MAX_SUPPLY) && msg.sender != _pairAddr && !_inSwap */\n    tag_377:\n        /* \"contracts/BOMB_flattened.sol\":22791:22926  _autoRebase && (_totalSupply < MAX_SUPPLY) && msg.sender != _pairAddr && !_inSwap && block.timestamp >= (_lastRebasedTime + 15 minutes) */\n      dup1\n      iszero\n      tag_378\n      jumpi\n      pop\n        /* \"contracts/BOMB_flattened.sol\":22915:22925  15 minutes */\n      0x0384\n        /* \"contracts/BOMB_flattened.sol\":22896:22912  _lastRebasedTime */\n      sload(0x07)\n        /* \"contracts/BOMB_flattened.sol\":22896:22925  _lastRebasedTime + 15 minutes */\n      tag_379\n      swap2\n      swap1\n      tag_365\n      jump\t// in\n    tag_379:\n        /* \"contracts/BOMB_flattened.sol\":22876:22891  block.timestamp */\n      timestamp\n        /* \"contracts/BOMB_flattened.sol\":22876:22926  block.timestamp >= (_lastRebasedTime + 15 minutes) */\n      lt\n      iszero\n        /* \"contracts/BOMB_flattened.sol\":22791:22926  _autoRebase && (_totalSupply < MAX_SUPPLY) && msg.sender != _pairAddr && !_inSwap && block.timestamp >= (_lastRebasedTime + 15 minutes) */\n    tag_378:\n        /* \"contracts/BOMB_flattened.sol\":22784:22926  return _autoRebase && (_totalSupply < MAX_SUPPLY) && msg.sender != _pairAddr && !_inSwap && block.timestamp >= (_lastRebasedTime + 15 minutes) */\n      swap1\n      pop\n        /* \"contracts/BOMB_flattened.sol\":22726:22931  function shouldRebase() internal view returns (bool) {... */\n      swap1\n      jump\t// out\n        /* \"contracts/BOMB_flattened.sol\":27778:28695  function rebase() internal {... */\n    tag_342:\n        /* \"contracts/BOMB_flattened.sol\":27814:27821  _inSwap */\n      0x12\n      0x14\n      swap1\n      sload\n      swap1\n      0x0100\n      exp\n      swap1\n      div\n      0xff\n      and\n        /* \"contracts/BOMB_flattened.sol\":27823:27830  return; */\n      tag_380\n        /* \"contracts/BOMB_flattened.sol\":27810:27830  if (_inSwap) return; */\n      jumpi\n        /* \"contracts/BOMB_flattened.sol\":27834:27852  uint256 rebaseRate */\n      0x00\n        /* \"contracts/BOMB_flattened.sol\":27857:27882  uint256 deltaTimeFromInit */\n      dup1\n        /* \"contracts/BOMB_flattened.sol\":27903:27923  _initRebaseStartTime */\n      sload(0x06)\n        /* \"contracts/BOMB_flattened.sol\":27885:27900  block.timestamp */\n      timestamp\n        /* \"contracts/BOMB_flattened.sol\":27885:27923  block.timestamp - _initRebaseStartTime */\n      tag_382\n      swap2\n      swap1\n      tag_239\n      jump\t// in\n    tag_382:\n        /* \"contracts/BOMB_flattened.sol\":27857:27923  uint256 deltaTimeFromInit = block.timestamp - _initRebaseStartTime */\n      swap1\n      pop\n        /* \"contracts/BOMB_flattened.sol\":27928:27945  uint256 deltaTime */\n      0x00\n        /* \"contracts/BOMB_flattened.sol\":27966:27982  _lastRebasedTime */\n      sload(0x07)\n        /* \"contracts/BOMB_flattened.sol\":27948:27963  block.timestamp */\n      timestamp\n        /* \"contracts/BOMB_flattened.sol\":27948:27982  block.timestamp - _lastRebasedTime */\n      tag_383\n      swap2\n      swap1\n      tag_239\n      jump\t// in\n    tag_383:\n        /* \"contracts/BOMB_flattened.sol\":27928:27982  uint256 deltaTime = block.timestamp - _lastRebasedTime */\n      swap1\n      pop\n        /* \"contracts/BOMB_flattened.sol\":27987:28000  uint256 times */\n      0x00\n        /* \"contracts/BOMB_flattened.sol\":28003:28028  deltaTime.div(15 minutes) */\n      tag_384\n        /* \"contracts/BOMB_flattened.sol\":28017:28027  15 minutes */\n      0x0384\n        /* \"contracts/BOMB_flattened.sol\":28003:28012  deltaTime */\n      dup4\n        /* \"contracts/BOMB_flattened.sol\":28003:28016  deltaTime.div */\n      tag_241\n      swap1\n        /* \"contracts/BOMB_flattened.sol\":28003:28028  deltaTime.div(15 minutes) */\n      swap2\n      swap1\n      0xffffffff\n      and\n      jump\t// in\n    tag_384:\n        /* \"contracts/BOMB_flattened.sol\":27987:28028  uint256 times = deltaTime.div(15 minutes) */\n      swap1\n      pop\n        /* \"contracts/BOMB_flattened.sol\":28033:28046  uint256 epoch */\n      0x00\n        /* \"contracts/BOMB_flattened.sol\":28049:28062  times.mul(15) */\n      tag_385\n        /* \"contracts/BOMB_flattened.sol\":28059:28061  15 */\n      0x0f\n        /* \"contracts/BOMB_flattened.sol\":28049:28054  times */\n      dup4\n        /* \"contracts/BOMB_flattened.sol\":28049:28058  times.mul */\n      tag_344\n      swap1\n        /* \"contracts/BOMB_flattened.sol\":28049:28062  times.mul(15) */\n      swap2\n      swap1\n      0xffffffff\n      and\n      jump\t// in\n    tag_385:\n        /* \"contracts/BOMB_flattened.sol\":28033:28062  uint256 epoch = times.mul(15) */\n      swap1\n      pop\n        /* \"contracts/BOMB_flattened.sol\":28094:28102  365 days */\n      0x01e13380\n        /* \"contracts/BOMB_flattened.sol\":28073:28090  deltaTimeFromInit */\n      dup5\n        /* \"contracts/BOMB_flattened.sol\":28073:28103  deltaTimeFromInit < (365 days) */\n      lt\n        /* \"contracts/BOMB_flattened.sol\":28069:28360  if (deltaTimeFromInit < (365 days)) {... */\n      iszero\n      tag_386\n      jumpi\n        /* \"contracts/BOMB_flattened.sol\":28124:28128  2355 */\n      0x0933\n        /* \"contracts/BOMB_flattened.sol\":28111:28128  rebaseRate = 2355 */\n      swap5\n      pop\n        /* \"contracts/BOMB_flattened.sol\":28069:28360  if (deltaTimeFromInit < (365 days)) {... */\n      jump(tag_387)\n    tag_386:\n        /* \"contracts/BOMB_flattened.sol\":28166:28174  365 days */\n      0x01e13380\n        /* \"contracts/BOMB_flattened.sol\":28144:28161  deltaTimeFromInit */\n      dup5\n        /* \"contracts/BOMB_flattened.sol\":28144:28175  deltaTimeFromInit >= (365 days) */\n      lt\n        /* \"contracts/BOMB_flattened.sol\":28140:28360  if (deltaTimeFromInit >= (365 days)) {... */\n      tag_388\n      jumpi\n        /* \"contracts/BOMB_flattened.sol\":28196:28199  211 */\n      0xd3\n        /* \"contracts/BOMB_flattened.sol\":28183:28199  rebaseRate = 211 */\n      swap5\n      pop\n        /* \"contracts/BOMB_flattened.sol\":28140:28360  if (deltaTimeFromInit >= (365 days)) {... */\n      jump(tag_389)\n    tag_388:\n        /* \"contracts/BOMB_flattened.sol\":28237:28257  (15 * 365 days) / 10 */\n      0x02d1cd40\n        /* \"contracts/BOMB_flattened.sol\":28215:28232  deltaTimeFromInit */\n      dup5\n        /* \"contracts/BOMB_flattened.sol\":28215:28258  deltaTimeFromInit >= ((15 * 365 days) / 10) */\n      lt\n        /* \"contracts/BOMB_flattened.sol\":28211:28360  if (deltaTimeFromInit >= ((15 * 365 days) / 10)) {... */\n      tag_390\n      jumpi\n        /* \"contracts/BOMB_flattened.sol\":28279:28281  14 */\n      0x0e\n        /* \"contracts/BOMB_flattened.sol\":28266:28281  rebaseRate = 14 */\n      swap5\n      pop\n        /* \"contracts/BOMB_flattened.sol\":28211:28360  if (deltaTimeFromInit >= ((15 * 365 days) / 10)) {... */\n      jump(tag_391)\n    tag_390:\n        /* \"contracts/BOMB_flattened.sol\":28319:28331  7 * 365 days */\n      0x0d286880\n        /* \"contracts/BOMB_flattened.sol\":28297:28314  deltaTimeFromInit */\n      dup5\n        /* \"contracts/BOMB_flattened.sol\":28297:28332  deltaTimeFromInit >= (7 * 365 days) */\n      lt\n        /* \"contracts/BOMB_flattened.sol\":28293:28360  if (deltaTimeFromInit >= (7 * 365 days)) {... */\n      tag_392\n      jumpi\n        /* \"contracts/BOMB_flattened.sol\":28353:28354  2 */\n      0x02\n        /* \"contracts/BOMB_flattened.sol\":28340:28354  rebaseRate = 2 */\n      swap5\n      pop\n        /* \"contracts/BOMB_flattened.sol\":28293:28360  if (deltaTimeFromInit >= (7 * 365 days)) {... */\n    tag_392:\n        /* \"contracts/BOMB_flattened.sol\":28211:28360  if (deltaTimeFromInit >= ((15 * 365 days) / 10)) {... */\n    tag_391:\n        /* \"contracts/BOMB_flattened.sol\":28140:28360  if (deltaTimeFromInit >= (365 days)) {... */\n    tag_389:\n        /* \"contracts/BOMB_flattened.sol\":28069:28360  if (deltaTimeFromInit < (365 days)) {... */\n    tag_387:\n        /* \"contracts/BOMB_flattened.sol\":28371:28380  uint256 i */\n      0x00\n        /* \"contracts/BOMB_flattened.sol\":28366:28509  for (uint256 i = 0; i < times; i++) {... */\n    tag_393:\n        /* \"contracts/BOMB_flattened.sol\":28390:28395  times */\n      dup3\n        /* \"contracts/BOMB_flattened.sol\":28386:28387  i */\n      dup2\n        /* \"contracts/BOMB_flattened.sol\":28386:28395  i < times */\n      lt\n        /* \"contracts/BOMB_flattened.sol\":28366:28509  for (uint256 i = 0; i < times; i++) {... */\n      iszero\n      tag_394\n      jumpi\n        /* \"contracts/BOMB_flattened.sol\":28423:28503  _totalSupply.mul((10 ** RATE_DECIMALS).add(rebaseRate)).div(10 ** RATE_DECIMALS) */\n      tag_396\n        /* \"contracts/BOMB_flattened.sol\":19098:19099  7 */\n      0x07\n        /* \"contracts/BOMB_flattened.sol\":28483:28485  10 */\n      0x0a\n        /* \"contracts/BOMB_flattened.sol\":28483:28502  10 ** RATE_DECIMALS */\n      tag_397\n      swap2\n      swap1\n      tag_233\n      jump\t// in\n    tag_397:\n        /* \"contracts/BOMB_flattened.sol\":28423:28478  _totalSupply.mul((10 ** RATE_DECIMALS).add(rebaseRate)) */\n      tag_398\n        /* \"contracts/BOMB_flattened.sol\":28440:28477  (10 ** RATE_DECIMALS).add(rebaseRate) */\n      tag_399\n        /* \"contracts/BOMB_flattened.sol\":28466:28476  rebaseRate */\n      dup10\n        /* \"contracts/BOMB_flattened.sol\":19098:19099  7 */\n      0x07\n        /* \"contracts/BOMB_flattened.sol\":28441:28443  10 */\n      0x0a\n        /* \"contracts/BOMB_flattened.sol\":28441:28460  10 ** RATE_DECIMALS */\n      tag_400\n      swap2\n      swap1\n      tag_233\n      jump\t// in\n    tag_400:\n        /* \"contracts/BOMB_flattened.sol\":28440:28465  (10 ** RATE_DECIMALS).add */\n      tag_258\n      swap1\n        /* \"contracts/BOMB_flattened.sol\":28440:28477  (10 ** RATE_DECIMALS).add(rebaseRate) */\n      swap2\n      swap1\n      0xffffffff\n      and\n      jump\t// in\n    tag_399:\n        /* \"contracts/BOMB_flattened.sol\":28423:28435  _totalSupply */\n      sload(0x08)\n        /* \"contracts/BOMB_flattened.sol\":28423:28439  _totalSupply.mul */\n      tag_344\n      swap1\n        /* \"contracts/BOMB_flattened.sol\":28423:28478  _totalSupply.mul((10 ** RATE_DECIMALS).add(rebaseRate)) */\n      swap2\n      swap1\n      0xffffffff\n      and\n      jump\t// in\n    tag_398:\n        /* \"contracts/BOMB_flattened.sol\":28423:28482  _totalSupply.mul((10 ** RATE_DECIMALS).add(rebaseRate)).div */\n      tag_241\n      swap1\n        /* \"contracts/BOMB_flattened.sol\":28423:28503  _totalSupply.mul((10 ** RATE_DECIMALS).add(rebaseRate)).div(10 ** RATE_DECIMALS) */\n      swap2\n      swap1\n      0xffffffff\n      and\n      jump\t// in\n    tag_396:\n        /* \"contracts/BOMB_flattened.sol\":28408:28420  _totalSupply */\n      0x08\n        /* \"contracts/BOMB_flattened.sol\":28408:28503  _totalSupply = _totalSupply.mul((10 ** RATE_DECIMALS).add(rebaseRate)).div(10 ** RATE_DECIMALS) */\n      dup2\n      swap1\n      sstore\n      pop\n        /* \"contracts/BOMB_flattened.sol\":28397:28400  i++ */\n      dup1\n      dup1\n      0x01\n      add\n      swap2\n      pop\n      pop\n        /* \"contracts/BOMB_flattened.sol\":28366:28509  for (uint256 i = 0; i < times; i++) {... */\n      jump(tag_393)\n    tag_394:\n      pop\n        /* \"contracts/BOMB_flattened.sol\":28534:28562  TOTAL_GONS.div(_totalSupply) */\n      tag_401\n        /* \"contracts/BOMB_flattened.sol\":28549:28561  _totalSupply */\n      sload(0x08)\n        /* \"contracts/BOMB_flattened.sol\":19053:19054  5 */\n      0x05\n        /* \"contracts/BOMB_flattened.sol\":19299:19301  10 */\n      0x0a\n        /* \"contracts/BOMB_flattened.sol\":19299:19313  10 ** DECIMALS */\n      tag_402\n      swap2\n      swap1\n      tag_233\n      jump\t// in\n    tag_402:\n        /* \"contracts/BOMB_flattened.sol\":19283:19296  325 * 10 ** 3 */\n      0x04f588\n        /* \"contracts/BOMB_flattened.sol\":19283:19313  325 * 10 ** 3 * 10 ** DECIMALS */\n      tag_403\n      swap2\n      swap1\n      tag_235\n      jump\t// in\n    tag_403:\n        /* \"contracts/BOMB_flattened.sol\":19153:19154  0 */\n      0x00\n        /* \"contracts/BOMB_flattened.sol\":19144:19155  ~uint256(0) */\n      not\n        /* \"contracts/BOMB_flattened.sol\":19371:19409  MAX_UINT256 % INITIAL_FRAGMENTS_SUPPLY */\n      tag_404\n      swap2\n      swap1\n      tag_237\n      jump\t// in\n    tag_404:\n        /* \"contracts/BOMB_flattened.sol\":19153:19154  0 */\n      0x00\n        /* \"contracts/BOMB_flattened.sol\":19144:19155  ~uint256(0) */\n      not\n        /* \"contracts/BOMB_flattened.sol\":19356:19410  MAX_UINT256 - (MAX_UINT256 % INITIAL_FRAGMENTS_SUPPLY) */\n      tag_405\n      swap2\n      swap1\n      tag_239\n      jump\t// in\n    tag_405:\n        /* \"contracts/BOMB_flattened.sol\":28534:28548  TOTAL_GONS.div */\n      tag_241\n      swap1\n        /* \"contracts/BOMB_flattened.sol\":28534:28562  TOTAL_GONS.div(_totalSupply) */\n      swap2\n      swap1\n      0xffffffff\n      and\n      jump\t// in\n    tag_401:\n        /* \"contracts/BOMB_flattened.sol\":28515:28531  _gonsPerFragment */\n      0x09\n        /* \"contracts/BOMB_flattened.sol\":28515:28562  _gonsPerFragment = TOTAL_GONS.div(_totalSupply) */\n      dup2\n      swap1\n      sstore\n      pop\n        /* \"contracts/BOMB_flattened.sol\":28586:28629  _lastRebasedTime.add(times.mul(15 minutes)) */\n      tag_406\n        /* \"contracts/BOMB_flattened.sol\":28607:28628  times.mul(15 minutes) */\n      tag_407\n        /* \"contracts/BOMB_flattened.sol\":28617:28627  15 minutes */\n      0x0384\n        /* \"contracts/BOMB_flattened.sol\":28607:28612  times */\n      dup5\n        /* \"contracts/BOMB_flattened.sol\":28607:28616  times.mul */\n      tag_344\n      swap1\n        /* \"contracts/BOMB_flattened.sol\":28607:28628  times.mul(15 minutes) */\n      swap2\n      swap1\n      0xffffffff\n      and\n      jump\t// in\n    tag_407:\n        /* \"contracts/BOMB_flattened.sol\":28586:28602  _lastRebasedTime */\n      sload(0x07)\n        /* \"contracts/BOMB_flattened.sol\":28586:28606  _lastRebasedTime.add */\n      tag_258\n      swap1\n        /* \"contracts/BOMB_flattened.sol\":28586:28629  _lastRebasedTime.add(times.mul(15 minutes)) */\n      swap2\n      swap1\n      0xffffffff\n      and\n      jump\t// in\n    tag_406:\n        /* \"contracts/BOMB_flattened.sol\":28567:28583  _lastRebasedTime */\n      0x07\n        /* \"contracts/BOMB_flattened.sol\":28567:28629  _lastRebasedTime = _lastRebasedTime.add(times.mul(15 minutes)) */\n      dup2\n      swap1\n      sstore\n      pop\n        /* \"contracts/BOMB_flattened.sol\":28636:28641  _pair */\n      0x12\n      0x00\n      swap1\n      sload\n      swap1\n      0x0100\n      exp\n      swap1\n      div\n      0xffffffffffffffffffffffffffffffffffffffff\n      and\n        /* \"contracts/BOMB_flattened.sol\":28636:28646  _pair.sync */\n      0xffffffffffffffffffffffffffffffffffffffff\n      and\n      0xfff6cae9\n        /* \"contracts/BOMB_flattened.sol\":28636:28648  _pair.sync() */\n      mload(0x40)\n      dup2\n      0xffffffff\n      and\n      0xe0\n      shl\n      dup2\n      mstore\n      0x04\n      add\n      0x00\n      mload(0x40)\n      dup1\n      dup4\n      sub\n      dup2\n      0x00\n      dup8\n      dup1\n      extcodesize\n      iszero\n      dup1\n      iszero\n      tag_408\n      jumpi\n      0x00\n      dup1\n      revert\n    tag_408:\n      pop\n      gas\n      call\n      iszero\n      dup1\n      iszero\n      tag_410\n      jumpi\n      returndatasize\n      0x00\n      dup1\n      returndatacopy\n      revert(0x00, returndatasize)\n    tag_410:\n      pop\n      pop\n      pop\n      pop\n        /* \"contracts/BOMB_flattened.sol\":28670:28675  epoch */\n      dup1\n        /* \"contracts/BOMB_flattened.sol\":28660:28690  LogRebase(epoch, _totalSupply) */\n      0x72725a3b1e5bd622d6bcd1339bb31279c351abe8f541ac7fd320f24e1b1641f2\n        /* \"contracts/BOMB_flattened.sol\":28677:28689  _totalSupply */\n      sload(0x08)\n        /* \"contracts/BOMB_flattened.sol\":28660:28690  LogRebase(epoch, _totalSupply) */\n      mload(0x40)\n      tag_411\n      swap2\n      swap1\n      tag_63\n      jump\t// in\n    tag_411:\n      mload(0x40)\n      dup1\n      swap2\n      sub\n      swap1\n      log2\n        /* \"contracts/BOMB_flattened.sol\":27805:28695  {... */\n      pop\n      pop\n      pop\n      pop\n      pop\n        /* \"contracts/BOMB_flattened.sol\":27778:28695  function rebase() internal {... */\n    tag_380:\n      jump\t// out\n        /* \"contracts/BOMB_flattened.sol\":4118:4207  function mul(uint256 a, uint256 b) internal pure returns (uint256) {... */\n    tag_344:\n        /* \"contracts/BOMB_flattened.sol\":4176:4183  uint256 */\n      0x00\n        /* \"contracts/BOMB_flattened.sol\":4201:4202  b */\n      dup2\n        /* \"contracts/BOMB_flattened.sol\":4197:4198  a */\n      dup4\n        /* \"contracts/BOMB_flattened.sol\":4197:4202  a * b */\n      tag_413\n      swap2\n      swap1\n      tag_235\n      jump\t// in\n    tag_413:\n        /* \"contracts/BOMB_flattened.sol\":4190:4202  return a * b */\n      swap1\n      pop\n        /* \"contracts/BOMB_flattened.sol\":4118:4207  function mul(uint256 a, uint256 b) internal pure returns (uint256) {... */\n      swap3\n      swap2\n      pop\n      pop\n      jump\t// out\n        /* \"contracts/BOMB_flattened.sol\":21405:21520  function _subBalance(address addr, uint256 diff) internal {... */\n    tag_346:\n        /* \"contracts/BOMB_flattened.sol\":21468:21515  _setBalance(addr, _gonBalances[addr].sub(diff)) */\n      tag_415\n        /* \"contracts/BOMB_flattened.sol\":21480:21484  addr */\n      dup3\n        /* \"contracts/BOMB_flattened.sol\":21486:21514  _gonBalances[addr].sub(diff) */\n      tag_416\n        /* \"contracts/BOMB_flattened.sol\":21509:21513  diff */\n      dup4\n        /* \"contracts/BOMB_flattened.sol\":21486:21498  _gonBalances */\n      0x0c\n        /* \"contracts/BOMB_flattened.sol\":21486:21504  _gonBalances[addr] */\n      0x00\n        /* \"contracts/BOMB_flattened.sol\":21499:21503  addr */\n      dup8\n        /* \"contracts/BOMB_flattened.sol\":21486:21504  _gonBalances[addr] */\n      0xffffffffffffffffffffffffffffffffffffffff\n      and\n      0xffffffffffffffffffffffffffffffffffffffff\n      and\n      dup2\n      mstore\n      0x20\n      add\n      swap1\n      dup2\n      mstore\n      0x20\n      add\n      0x00\n      keccak256\n      sload\n        /* \"contracts/BOMB_flattened.sol\":21486:21508  _gonBalances[addr].sub */\n      tag_240\n      swap1\n        /* \"contracts/BOMB_flattened.sol\":21486:21514  _gonBalances[addr].sub(diff) */\n      swap2\n      swap1\n      0xffffffff\n      and\n      jump\t// in\n    tag_416:\n        /* \"contracts/BOMB_flattened.sol\":21468:21479  _setBalance */\n      tag_417\n        /* \"contracts/BOMB_flattened.sol\":21468:21515  _setBalance(addr, _gonBalances[addr].sub(diff)) */\n      jump\t// in\n    tag_415:\n        /* \"contracts/BOMB_flattened.sol\":21405:21520  function _subBalance(address addr, uint256 diff) internal {... */\n      pop\n      pop\n      jump\t// out\n        /* \"contracts/BOMB_flattened.sol\":22565:22721  function shouldTakeFee(address from, address to) internal view returns (bool) {... */\n    tag_348:\n        /* \"contracts/BOMB_flattened.sol\":22637:22641  bool */\n      0x00\n        /* \"contracts/BOMB_flattened.sol\":22669:22673  from */\n      dup3\n        /* \"contracts/BOMB_flattened.sol\":22656:22673  _pairAddr == from */\n      0xffffffffffffffffffffffffffffffffffffffff\n      and\n        /* \"contracts/BOMB_flattened.sol\":22656:22665  _pairAddr */\n      0x05\n      0x01\n      swap1\n      sload\n      swap1\n      0x0100\n      exp\n      swap1\n      div\n      0xffffffffffffffffffffffffffffffffffffffff\n      and\n        /* \"contracts/BOMB_flattened.sol\":22656:22673  _pairAddr == from */\n      0xffffffffffffffffffffffffffffffffffffffff\n      and\n      eq\n        /* \"contracts/BOMB_flattened.sol\":22656:22692  _pairAddr == from || _pairAddr == to */\n      dup1\n      tag_419\n      jumpi\n      pop\n        /* \"contracts/BOMB_flattened.sol\":22690:22692  to */\n      dup2\n        /* \"contracts/BOMB_flattened.sol\":22677:22692  _pairAddr == to */\n      0xffffffffffffffffffffffffffffffffffffffff\n      and\n        /* \"contracts/BOMB_flattened.sol\":22677:22686  _pairAddr */\n      0x05\n      0x01\n      swap1\n      sload\n      swap1\n      0x0100\n      exp\n      swap1\n      div\n      0xffffffffffffffffffffffffffffffffffffffff\n      and\n        /* \"contracts/BOMB_flattened.sol\":22677:22692  _pairAddr == to */\n      0xffffffffffffffffffffffffffffffffffffffff\n      and\n      eq\n        /* \"contracts/BOMB_flattened.sol\":22656:22692  _pairAddr == from || _pairAddr == to */\n    tag_419:\n        /* \"contracts/BOMB_flattened.sol\":22655:22716  (_pairAddr == from || _pairAddr == to) && !_isFeeExempt[from] */\n      dup1\n      iszero\n      tag_420\n      jumpi\n      pop\n        /* \"contracts/BOMB_flattened.sol\":22698:22710  _isFeeExempt */\n      0x0e\n        /* \"contracts/BOMB_flattened.sol\":22698:22716  _isFeeExempt[from] */\n      0x00\n        /* \"contracts/BOMB_flattened.sol\":22711:22715  from */\n      dup5\n        /* \"contracts/BOMB_flattened.sol\":22698:22716  _isFeeExempt[from] */\n      0xffffffffffffffffffffffffffffffffffffffff\n      and\n      0xffffffffffffffffffffffffffffffffffffffff\n      and\n      dup2\n      mstore\n      0x20\n      add\n      swap1\n      dup2\n      mstore\n      0x20\n      add\n      0x00\n      keccak256\n      0x00\n      swap1\n      sload\n      swap1\n      0x0100\n      exp\n      swap1\n      div\n      0xff\n      and\n        /* \"contracts/BOMB_flattened.sol\":22697:22716  !_isFeeExempt[from] */\n      iszero\n        /* \"contracts/BOMB_flattened.sol\":22655:22716  (_pairAddr == from || _pairAddr == to) && !_isFeeExempt[from] */\n    tag_420:\n        /* \"contracts/BOMB_flattened.sol\":22648:22716  return (_pairAddr == from || _pairAddr == to) && !_isFeeExempt[from] */\n      swap1\n      pop\n        /* \"contracts/BOMB_flattened.sol\":22565:22721  function shouldTakeFee(address from, address to) internal view returns (bool) {... */\n      swap3\n      swap2\n      pop\n      pop\n      jump\t// out\n        /* \"contracts/BOMB_flattened.sol\":26706:27080  function _takeFee(address sender, uint256 gonAmount) internal returns (uint256) {... */\n    tag_352:\n        /* \"contracts/BOMB_flattened.sol\":26777:26784  uint256 */\n      0x00\n        /* \"contracts/BOMB_flattened.sol\":26791:26808  uint256 feeAmount */\n      dup1\n        /* \"contracts/BOMB_flattened.sol\":26811:26846  gonAmount.div(100).mul(_feePercent) */\n      tag_422\n        /* \"contracts/BOMB_flattened.sol\":26834:26845  _feePercent */\n      sload(0x03)\n        /* \"contracts/BOMB_flattened.sol\":26811:26829  gonAmount.div(100) */\n      tag_423\n        /* \"contracts/BOMB_flattened.sol\":26825:26828  100 */\n      0x64\n        /* \"contracts/BOMB_flattened.sol\":26811:26820  gonAmount */\n      dup7\n        /* \"contracts/BOMB_flattened.sol\":26811:26824  gonAmount.div */\n      tag_241\n      swap1\n        /* \"contracts/BOMB_flattened.sol\":26811:26829  gonAmount.div(100) */\n      swap2\n      swap1\n      0xffffffff\n      and\n      jump\t// in\n    tag_423:\n        /* \"contracts/BOMB_flattened.sol\":26811:26833  gonAmount.div(100).mul */\n      tag_344\n      swap1\n        /* \"contracts/BOMB_flattened.sol\":26811:26846  gonAmount.div(100).mul(_feePercent) */\n      swap2\n      swap1\n      0xffffffff\n      and\n      jump\t// in\n    tag_422:\n        /* \"contracts/BOMB_flattened.sol\":26791:26846  uint256 feeAmount = gonAmount.div(100).mul(_feePercent) */\n      swap1\n      pop\n        /* \"contracts/BOMB_flattened.sol\":26851:26888  _addBalance(address(this), feeAmount) */\n      tag_424\n        /* \"contracts/BOMB_flattened.sol\":26871:26875  this */\n      address\n        /* \"contracts/BOMB_flattened.sol\":26878:26887  feeAmount */\n      dup3\n        /* \"contracts/BOMB_flattened.sol\":26851:26862  _addBalance */\n      tag_354\n        /* \"contracts/BOMB_flattened.sol\":26851:26888  _addBalance(address(this), feeAmount) */\n      jump\t// in\n    tag_424:\n        /* \"contracts/BOMB_flattened.sol\":26944:26959  block.timestamp */\n      timestamp\n        /* \"contracts/BOMB_flattened.sol\":26919:26940  _distributionInterval */\n      sload(0x04)\n        /* \"contracts/BOMB_flattened.sol\":26899:26916  _lastDistribution */\n      sload(0x0a)\n        /* \"contracts/BOMB_flattened.sol\":26899:26940  _lastDistribution + _distributionInterval */\n      tag_425\n      swap2\n      swap1\n      tag_365\n      jump\t// in\n    tag_425:\n        /* \"contracts/BOMB_flattened.sol\":26899:26959  _lastDistribution + _distributionInterval >= block.timestamp */\n      lt\n        /* \"contracts/BOMB_flattened.sol\":26895:26986  if (_lastDistribution + _distributionInterval >= block.timestamp) {... */\n      tag_426\n      jumpi\n        /* \"contracts/BOMB_flattened.sol\":26967:26980  _distribute() */\n      tag_427\n        /* \"contracts/BOMB_flattened.sol\":26967:26978  _distribute */\n      tag_428\n        /* \"contracts/BOMB_flattened.sol\":26967:26980  _distribute() */\n      jump\t// in\n    tag_427:\n        /* \"contracts/BOMB_flattened.sol\":26895:26986  if (_lastDistribution + _distributionInterval >= block.timestamp) {... */\n    tag_426:\n        /* \"contracts/BOMB_flattened.sol\":27022:27026  this */\n      address\n        /* \"contracts/BOMB_flattened.sol\":26997:27039  Transfer(sender, address(this), feeAmount) */\n      0xffffffffffffffffffffffffffffffffffffffff\n      and\n        /* \"contracts/BOMB_flattened.sol\":27006:27012  sender */\n      dup5\n        /* \"contracts/BOMB_flattened.sol\":26997:27039  Transfer(sender, address(this), feeAmount) */\n      0xffffffffffffffffffffffffffffffffffffffff\n      and\n      0xddf252ad1be2c89b69c2b068fc378daa952ba7f163c4a11628f55a4df523b3ef\n        /* \"contracts/BOMB_flattened.sol\":27029:27038  feeAmount */\n      dup4\n        /* \"contracts/BOMB_flattened.sol\":26997:27039  Transfer(sender, address(this), feeAmount) */\n      mload(0x40)\n      tag_429\n      swap2\n      swap1\n      tag_63\n      jump\t// in\n    tag_429:\n      mload(0x40)\n      dup1\n      swap2\n      sub\n      swap1\n      log3\n        /* \"contracts/BOMB_flattened.sol\":27051:27075  gonAmount.sub(feeAmount) */\n      tag_430\n        /* \"contracts/BOMB_flattened.sol\":27065:27074  feeAmount */\n      dup2\n        /* \"contracts/BOMB_flattened.sol\":27051:27060  gonAmount */\n      dup5\n        /* \"contracts/BOMB_flattened.sol\":27051:27064  gonAmount.sub */\n      tag_240\n      swap1\n        /* \"contracts/BOMB_flattened.sol\":27051:27075  gonAmount.sub(feeAmount) */\n      swap2\n      swap1\n      0xffffffff\n      and\n      jump\t// in\n    tag_430:\n        /* \"contracts/BOMB_flattened.sol\":27044:27075  return gonAmount.sub(feeAmount) */\n      swap2\n      pop\n      pop\n        /* \"contracts/BOMB_flattened.sol\":26706:27080  function _takeFee(address sender, uint256 gonAmount) internal returns (uint256) {... */\n      swap3\n      swap2\n      pop\n      pop\n      jump\t// out\n        /* \"contracts/BOMB_flattened.sol\":21287:21400  function _addBalance(address addr, uint256 sum) internal {... */\n    tag_354:\n        /* \"contracts/BOMB_flattened.sol\":21349:21395  _setBalance(addr, _gonBalances[addr].add(sum)) */\n      tag_432\n        /* \"contracts/BOMB_flattened.sol\":21361:21365  addr */\n      dup3\n        /* \"contracts/BOMB_flattened.sol\":21367:21394  _gonBalances[addr].add(sum) */\n      tag_433\n        /* \"contracts/BOMB_flattened.sol\":21390:21393  sum */\n      dup4\n        /* \"contracts/BOMB_flattened.sol\":21367:21379  _gonBalances */\n      0x0c\n        /* \"contracts/BOMB_flattened.sol\":21367:21385  _gonBalances[addr] */\n      0x00\n        /* \"contracts/BOMB_flattened.sol\":21380:21384  addr */\n      dup8\n        /* \"contracts/BOMB_flattened.sol\":21367:21385  _gonBalances[addr] */\n      0xffffffffffffffffffffffffffffffffffffffff\n      and\n      0xffffffffffffffffffffffffffffffffffffffff\n      and\n      dup2\n      mstore\n      0x20\n      add\n      swap1\n      dup2\n      mstore\n      0x20\n      add\n      0x00\n      keccak256\n      sload\n        /* \"contracts/BOMB_flattened.sol\":21367:21389  _gonBalances[addr].add */\n      tag_258\n      swap1\n        /* \"contracts/BOMB_flattened.sol\":21367:21394  _gonBalances[addr].add(sum) */\n      swap2\n      swap1\n      0xffffffff\n      and\n      jump\t// in\n    tag_433:\n        /* \"contracts/BOMB_flattened.sol\":21349:21360  _setBalance */\n      tag_417\n        /* \"contracts/BOMB_flattened.sol\":21349:21395  _setBalance(addr, _gonBalances[addr].add(sum)) */\n      jump\t// in\n    tag_432:\n        /* \"contracts/BOMB_flattened.sol\":21287:21400  function _addBalance(address addr, uint256 sum) internal {... */\n      pop\n      pop\n      jump\t// out\n        /* \"contracts/BOMB_flattened.sol\":21525:21799  function _setBalance(address addr, uint256 balance) internal {... */\n    tag_417:\n        /* \"contracts/BOMB_flattened.sol\":21635:21656  _isExternalAddr(addr) */\n      tag_435\n        /* \"contracts/BOMB_flattened.sol\":21651:21655  addr */\n      dup3\n        /* \"contracts/BOMB_flattened.sol\":21635:21650  _isExternalAddr */\n      tag_436\n        /* \"contracts/BOMB_flattened.sol\":21635:21656  _isExternalAddr(addr) */\n      jump\t// in\n    tag_435:\n        /* \"contracts/BOMB_flattened.sol\":21631:21760  if (_isExternalAddr(addr)) {... */\n      iszero\n      tag_437\n      jumpi\n        /* \"contracts/BOMB_flattened.sol\":21687:21691  true */\n      0x01\n        /* \"contracts/BOMB_flattened.sol\":21668:21691  _isHolder[addr] != true */\n      iszero\n      iszero\n        /* \"contracts/BOMB_flattened.sol\":21668:21677  _isHolder */\n      0x0d\n        /* \"contracts/BOMB_flattened.sol\":21668:21683  _isHolder[addr] */\n      0x00\n        /* \"contracts/BOMB_flattened.sol\":21678:21682  addr */\n      dup5\n        /* \"contracts/BOMB_flattened.sol\":21668:21683  _isHolder[addr] */\n      0xffffffffffffffffffffffffffffffffffffffff\n      and\n      0xffffffffffffffffffffffffffffffffffffffff\n      and\n      dup2\n      mstore\n      0x20\n      add\n      swap1\n      dup2\n      mstore\n      0x20\n      add\n      0x00\n      keccak256\n      0x00\n      swap1\n      sload\n      swap1\n      0x0100\n      exp\n      swap1\n      div\n      0xff\n      and\n        /* \"contracts/BOMB_flattened.sol\":21668:21691  _isHolder[addr] != true */\n      iszero\n      iszero\n      eq\n        /* \"contracts/BOMB_flattened.sol\":21664:21755  if (_isHolder[addr] != true) {... */\n      tag_438\n      jumpi\n        /* \"contracts/BOMB_flattened.sol\":21700:21708  _holders */\n      0x10\n        /* \"contracts/BOMB_flattened.sol\":21714:21718  addr */\n      dup3\n        /* \"contracts/BOMB_flattened.sol\":21700:21719  _holders.push(addr) */\n      swap1\n      dup1\n      0x01\n      dup2\n      sload\n      add\n      dup1\n      dup3\n      sstore\n      dup1\n      swap2\n      pop\n      pop\n      0x01\n      swap1\n      sub\n      swap1\n      0x00\n      mstore\n      keccak256(0x00, 0x20)\n      add\n      0x00\n      swap1\n      swap2\n      swap1\n      swap2\n      swap1\n      swap2\n      0x0100\n      exp\n      dup2\n      sload\n      dup2\n      0xffffffffffffffffffffffffffffffffffffffff\n      mul\n      not\n      and\n      swap1\n      dup4\n      0xffffffffffffffffffffffffffffffffffffffff\n      and\n      mul\n      or\n      swap1\n      sstore\n      pop\n        /* \"contracts/BOMB_flattened.sol\":21744:21748  true */\n      0x01\n        /* \"contracts/BOMB_flattened.sol\":21726:21735  _isHolder */\n      0x0d\n        /* \"contracts/BOMB_flattened.sol\":21726:21741  _isHolder[addr] */\n      0x00\n        /* \"contracts/BOMB_flattened.sol\":21736:21740  addr */\n      dup5\n        /* \"contracts/BOMB_flattened.sol\":21726:21741  _isHolder[addr] */\n      0xffffffffffffffffffffffffffffffffffffffff\n      and\n      0xffffffffffffffffffffffffffffffffffffffff\n      and\n      dup2\n      mstore\n      0x20\n      add\n      swap1\n      dup2\n      mstore\n      0x20\n      add\n      0x00\n      keccak256\n      0x00\n        /* \"contracts/BOMB_flattened.sol\":21726:21748  _isHolder[addr] = true */\n      0x0100\n      exp\n      dup2\n      sload\n      dup2\n      0xff\n      mul\n      not\n      and\n      swap1\n      dup4\n      iszero\n      iszero\n      mul\n      or\n      swap1\n      sstore\n      pop\n        /* \"contracts/BOMB_flattened.sol\":21664:21755  if (_isHolder[addr] != true) {... */\n    tag_438:\n        /* \"contracts/BOMB_flattened.sol\":21631:21760  if (_isExternalAddr(addr)) {... */\n    tag_437:\n        /* \"contracts/BOMB_flattened.sol\":21787:21794  balance */\n      dup1\n        /* \"contracts/BOMB_flattened.sol\":21766:21778  _gonBalances */\n      0x0c\n        /* \"contracts/BOMB_flattened.sol\":21766:21784  _gonBalances[addr] */\n      0x00\n        /* \"contracts/BOMB_flattened.sol\":21779:21783  addr */\n      dup5\n        /* \"contracts/BOMB_flattened.sol\":21766:21784  _gonBalances[addr] */\n      0xffffffffffffffffffffffffffffffffffffffff\n      and\n      0xffffffffffffffffffffffffffffffffffffffff\n      and\n      dup2\n      mstore\n      0x20\n      add\n      swap1\n      dup2\n      mstore\n      0x20\n      add\n      0x00\n      keccak256\n        /* \"contracts/BOMB_flattened.sol\":21766:21794  _gonBalances[addr] = balance */\n      dup2\n      swap1\n      sstore\n      pop\n        /* \"contracts/BOMB_flattened.sol\":21525:21799  function _setBalance(address addr, uint256 balance) internal {... */\n      pop\n      pop\n      jump\t// out\n        /* \"contracts/BOMB_flattened.sol\":27085:27773  function _distribute() internal {... */\n    tag_428:\n        /* \"contracts/BOMB_flattened.sol\":27122:27136  address holder */\n      0x00\n        /* \"contracts/BOMB_flattened.sol\":27143:27154  uint256 cut */\n      dup1\n        /* \"contracts/BOMB_flattened.sol\":27159:27178  uint256 distributed */\n      0x00\n        /* \"contracts/BOMB_flattened.sol\":27183:27197  uint256 supply */\n      dup1\n        /* \"contracts/BOMB_flattened.sol\":27200:27212  _totalSupply */\n      sload(0x08)\n        /* \"contracts/BOMB_flattened.sol\":27183:27212  uint256 supply = _totalSupply */\n      swap1\n      pop\n        /* \"contracts/BOMB_flattened.sol\":27239:27254  block.timestamp */\n      timestamp\n        /* \"contracts/BOMB_flattened.sol\":27219:27236  _lastDistribution */\n      0x0a\n        /* \"contracts/BOMB_flattened.sol\":27219:27254  _lastDistribution = block.timestamp */\n      dup2\n      swap1\n      sstore\n      pop\n        /* \"contracts/BOMB_flattened.sol\":27259:27272  uint256 funds */\n      0x00\n        /* \"contracts/BOMB_flattened.sol\":27275:27287  _gonBalances */\n      0x0c\n        /* \"contracts/BOMB_flattened.sol\":27275:27302  _gonBalances[address(this)] */\n      0x00\n        /* \"contracts/BOMB_flattened.sol\":27296:27300  this */\n      address\n        /* \"contracts/BOMB_flattened.sol\":27275:27302  _gonBalances[address(this)] */\n      0xffffffffffffffffffffffffffffffffffffffff\n      and\n      0xffffffffffffffffffffffffffffffffffffffff\n      and\n      dup2\n      mstore\n      0x20\n      add\n      swap1\n      dup2\n      mstore\n      0x20\n      add\n      0x00\n      keccak256\n      sload\n        /* \"contracts/BOMB_flattened.sol\":27259:27302  uint256 funds = _gonBalances[address(this)] */\n      swap1\n      pop\n        /* \"contracts/BOMB_flattened.sol\":27337:27338  0 */\n      0x00\n        /* \"contracts/BOMB_flattened.sol\":27307:27319  _gonBalances */\n      0x0c\n        /* \"contracts/BOMB_flattened.sol\":27307:27334  _gonBalances[address(this)] */\n      0x00\n        /* \"contracts/BOMB_flattened.sol\":27328:27332  this */\n      address\n        /* \"contracts/BOMB_flattened.sol\":27307:27334  _gonBalances[address(this)] */\n      0xffffffffffffffffffffffffffffffffffffffff\n      and\n      0xffffffffffffffffffffffffffffffffffffffff\n      and\n      dup2\n      mstore\n      0x20\n      add\n      swap1\n      dup2\n      mstore\n      0x20\n      add\n      0x00\n      keccak256\n        /* \"contracts/BOMB_flattened.sol\":27307:27338  _gonBalances[address(this)] = 0 */\n      dup2\n      swap1\n      sstore\n      pop\n        /* \"contracts/BOMB_flattened.sol\":27350:27356  uint i */\n      0x00\n        /* \"contracts/BOMB_flattened.sol\":27345:27693  for (uint i = 0; i < _holders.length; i++) {... */\n    tag_441:\n        /* \"contracts/BOMB_flattened.sol\":27366:27374  _holders */\n      0x10\n        /* \"contracts/BOMB_flattened.sol\":27366:27381  _holders.length */\n      dup1\n      sload\n      swap1\n      pop\n        /* \"contracts/BOMB_flattened.sol\":27362:27363  i */\n      dup2\n        /* \"contracts/BOMB_flattened.sol\":27362:27381  i < _holders.length */\n      lt\n        /* \"contracts/BOMB_flattened.sol\":27345:27693  for (uint i = 0; i < _holders.length; i++) {... */\n      iszero\n      tag_442\n      jumpi\n        /* \"contracts/BOMB_flattened.sol\":27403:27411  _holders */\n      0x10\n        /* \"contracts/BOMB_flattened.sol\":27412:27413  i */\n      dup2\n        /* \"contracts/BOMB_flattened.sol\":27403:27414  _holders[i] */\n      dup2\n      sload\n      dup2\n      lt\n      tag_444\n      jumpi\n      tag_445\n      tag_446\n      jump\t// in\n    tag_445:\n    tag_444:\n      swap1\n      0x00\n      mstore\n      keccak256(0x00, 0x20)\n      add\n      0x00\n      swap1\n      sload\n      swap1\n      0x0100\n      exp\n      swap1\n      div\n      0xffffffffffffffffffffffffffffffffffffffff\n      and\n        /* \"contracts/BOMB_flattened.sol\":27394:27414  holder = _holders[i] */\n      swap6\n      pop\n        /* \"contracts/BOMB_flattened.sol\":27444:27449  _pair */\n      0x12\n      0x00\n      swap1\n      sload\n      swap1\n      0x0100\n      exp\n      swap1\n      div\n      0xffffffffffffffffffffffffffffffffffffffff\n      and\n        /* \"contracts/BOMB_flattened.sol\":27426:27450  holder == address(_pair) */\n      0xffffffffffffffffffffffffffffffffffffffff\n      and\n        /* \"contracts/BOMB_flattened.sol\":27426:27432  holder */\n      dup7\n        /* \"contracts/BOMB_flattened.sol\":27426:27450  holder == address(_pair) */\n      0xffffffffffffffffffffffffffffffffffffffff\n      and\n      eq\n        /* \"contracts/BOMB_flattened.sol\":27426:27477  holder == address(_pair) || holder == address(this) */\n      dup1\n      tag_448\n      jumpi\n      pop\n        /* \"contracts/BOMB_flattened.sol\":27472:27476  this */\n      address\n        /* \"contracts/BOMB_flattened.sol\":27454:27477  holder == address(this) */\n      0xffffffffffffffffffffffffffffffffffffffff\n      and\n        /* \"contracts/BOMB_flattened.sol\":27454:27460  holder */\n      dup7\n        /* \"contracts/BOMB_flattened.sol\":27454:27477  holder == address(this) */\n      0xffffffffffffffffffffffffffffffffffffffff\n      and\n      eq\n        /* \"contracts/BOMB_flattened.sol\":27426:27477  holder == address(_pair) || holder == address(this) */\n    tag_448:\n        /* \"contracts/BOMB_flattened.sol\":27486:27494  continue */\n      tag_443\n        /* \"contracts/BOMB_flattened.sol\":27422:27501  if (holder == address(_pair) || holder == address(this)) {... */\n      jumpi\n        /* \"contracts/BOMB_flattened.sol\":27514:27557  _gonBalances[holder].mul(funds).div(supply) */\n      tag_450\n        /* \"contracts/BOMB_flattened.sol\":27550:27556  supply */\n      dup4\n        /* \"contracts/BOMB_flattened.sol\":27514:27545  _gonBalances[holder].mul(funds) */\n      tag_451\n        /* \"contracts/BOMB_flattened.sol\":27539:27544  funds */\n      dup5\n        /* \"contracts/BOMB_flattened.sol\":27514:27526  _gonBalances */\n      0x0c\n        /* \"contracts/BOMB_flattened.sol\":27514:27534  _gonBalances[holder] */\n      0x00\n        /* \"contracts/BOMB_flattened.sol\":27527:27533  holder */\n      dup12\n        /* \"contracts/BOMB_flattened.sol\":27514:27534  _gonBalances[holder] */\n      0xffffffffffffffffffffffffffffffffffffffff\n      and\n      0xffffffffffffffffffffffffffffffffffffffff\n      and\n      dup2\n      mstore\n      0x20\n      add\n      swap1\n      dup2\n      mstore\n      0x20\n      add\n      0x00\n      keccak256\n      sload\n        /* \"contracts/BOMB_flattened.sol\":27514:27538  _gonBalances[holder].mul */\n      tag_344\n      swap1\n        /* \"contracts/BOMB_flattened.sol\":27514:27545  _gonBalances[holder].mul(funds) */\n      swap2\n      swap1\n      0xffffffff\n      and\n      jump\t// in\n    tag_451:\n        /* \"contracts/BOMB_flattened.sol\":27514:27549  _gonBalances[holder].mul(funds).div */\n      tag_241\n      swap1\n        /* \"contracts/BOMB_flattened.sol\":27514:27557  _gonBalances[holder].mul(funds).div(supply) */\n      swap2\n      swap1\n      0xffffffff\n      and\n      jump\t// in\n    tag_450:\n        /* \"contracts/BOMB_flattened.sol\":27508:27557  cut = _gonBalances[holder].mul(funds).div(supply) */\n      swap5\n      pop\n        /* \"contracts/BOMB_flattened.sol\":27578:27581  cut */\n      dup5\n        /* \"contracts/BOMB_flattened.sol\":27563:27581  distributed += cut */\n      dup5\n      tag_452\n      swap2\n      swap1\n      tag_365\n      jump\t// in\n    tag_452:\n      swap4\n      pop\n        /* \"contracts/BOMB_flattened.sol\":27599:27600  0 */\n      0x00\n        /* \"contracts/BOMB_flattened.sol\":27593:27596  cut */\n      dup6\n        /* \"contracts/BOMB_flattened.sol\":27593:27600  cut > 0 */\n      gt\n        /* \"contracts/BOMB_flattened.sol\":27589:27688  if (cut > 0) {... */\n      iszero\n      tag_453\n      jumpi\n        /* \"contracts/BOMB_flattened.sol\":27609:27633  _addBalance(holder, cut) */\n      tag_454\n        /* \"contracts/BOMB_flattened.sol\":27621:27627  holder */\n      dup7\n        /* \"contracts/BOMB_flattened.sol\":27629:27632  cut */\n      dup7\n        /* \"contracts/BOMB_flattened.sol\":27609:27620  _addBalance */\n      tag_354\n        /* \"contracts/BOMB_flattened.sol\":27609:27633  _addBalance(holder, cut) */\n      jump\t// in\n    tag_454:\n        /* \"contracts/BOMB_flattened.sol\":27669:27675  holder */\n      dup6\n        /* \"contracts/BOMB_flattened.sol\":27645:27681  Transfer(address(this), holder, cut) */\n      0xffffffffffffffffffffffffffffffffffffffff\n      and\n        /* \"contracts/BOMB_flattened.sol\":27662:27666  this */\n      address\n        /* \"contracts/BOMB_flattened.sol\":27645:27681  Transfer(address(this), holder, cut) */\n      0xffffffffffffffffffffffffffffffffffffffff\n      and\n      0xddf252ad1be2c89b69c2b068fc378daa952ba7f163c4a11628f55a4df523b3ef\n        /* \"contracts/BOMB_flattened.sol\":27677:27680  cut */\n      dup8\n        /* \"contracts/BOMB_flattened.sol\":27645:27681  Transfer(address(this), holder, cut) */\n      mload(0x40)\n      tag_455\n      swap2\n      swap1\n      tag_63\n      jump\t// in\n    tag_455:\n      mload(0x40)\n      dup1\n      swap2\n      sub\n      swap1\n      log3\n        /* \"contracts/BOMB_flattened.sol\":27589:27688  if (cut > 0) {... */\n    tag_453:\n        /* \"contracts/BOMB_flattened.sol\":27345:27693  for (uint i = 0; i < _holders.length; i++) {... */\n    tag_443:\n        /* \"contracts/BOMB_flattened.sol\":27383:27386  i++ */\n      dup1\n      dup1\n      0x01\n      add\n      swap2\n      pop\n      pop\n        /* \"contracts/BOMB_flattened.sol\":27345:27693  for (uint i = 0; i < _holders.length; i++) {... */\n      jump(tag_441)\n    tag_442:\n      pop\n        /* \"contracts/BOMB_flattened.sol\":27699:27710  uint256 rem */\n      0x00\n        /* \"contracts/BOMB_flattened.sol\":27721:27732  distributed */\n      dup4\n        /* \"contracts/BOMB_flattened.sol\":27713:27718  funds */\n      dup3\n        /* \"contracts/BOMB_flattened.sol\":27713:27732  funds - distributed */\n      tag_456\n      swap2\n      swap1\n      tag_239\n      jump\t// in\n    tag_456:\n        /* \"contracts/BOMB_flattened.sol\":27699:27732  uint256 rem = funds - distributed */\n      swap1\n      pop\n        /* \"contracts/BOMB_flattened.sol\":27737:27768  _addBalance(address(this), rem) */\n      tag_457\n        /* \"contracts/BOMB_flattened.sol\":27757:27761  this */\n      address\n        /* \"contracts/BOMB_flattened.sol\":27764:27767  rem */\n      dup3\n        /* \"contracts/BOMB_flattened.sol\":27737:27748  _addBalance */\n      tag_354\n        /* \"contracts/BOMB_flattened.sol\":27737:27768  _addBalance(address(this), rem) */\n      jump\t// in\n    tag_457:\n        /* \"contracts/BOMB_flattened.sol\":27117:27773  {... */\n      pop\n      pop\n      pop\n      pop\n      pop\n      pop\n        /* \"contracts/BOMB_flattened.sol\":27085:27773  function _distribute() internal {... */\n      jump\t// out\n        /* \"contracts/BOMB_flattened.sol\":21150:21282  function _isExternalAddr(address addr) internal view returns (bool) {... */\n    tag_436:\n        /* \"contracts/BOMB_flattened.sol\":21212:21216  bool */\n      0x00\n        /* \"contracts/BOMB_flattened.sol\":21246:21250  this */\n      address\n        /* \"contracts/BOMB_flattened.sol\":21230:21251  addr != address(this) */\n      0xffffffffffffffffffffffffffffffffffffffff\n      and\n        /* \"contracts/BOMB_flattened.sol\":21230:21234  addr */\n      dup3\n        /* \"contracts/BOMB_flattened.sol\":21230:21251  addr != address(this) */\n      0xffffffffffffffffffffffffffffffffffffffff\n      and\n      eq\n      iszero\n        /* \"contracts/BOMB_flattened.sol\":21230:21277  addr != address(this) && addr != address(_pair) */\n      dup1\n      iszero\n      tag_459\n      jumpi\n      pop\n        /* \"contracts/BOMB_flattened.sol\":21271:21276  _pair */\n      0x12\n      0x00\n      swap1\n      sload\n      swap1\n      0x0100\n      exp\n      swap1\n      div\n      0xffffffffffffffffffffffffffffffffffffffff\n      and\n        /* \"contracts/BOMB_flattened.sol\":21255:21277  addr != address(_pair) */\n      0xffffffffffffffffffffffffffffffffffffffff\n      and\n        /* \"contracts/BOMB_flattened.sol\":21255:21259  addr */\n      dup3\n        /* \"contracts/BOMB_flattened.sol\":21255:21277  addr != address(_pair) */\n      0xffffffffffffffffffffffffffffffffffffffff\n      and\n      eq\n      iszero\n        /* \"contracts/BOMB_flattened.sol\":21230:21277  addr != address(this) && addr != address(_pair) */\n    tag_459:\n        /* \"contracts/BOMB_flattened.sol\":21223:21277  return addr != address(this) && addr != address(_pair) */\n      swap1\n      pop\n        /* \"contracts/BOMB_flattened.sol\":21150:21282  function _isExternalAddr(address addr) internal view returns (bool) {... */\n      swap2\n      swap1\n      pop\n      jump\t// out\n        /* \"#utility.yul\":7:106   */\n    tag_460:\n        /* \"#utility.yul\":59:65   */\n      0x00\n        /* \"#utility.yul\":93:98   */\n      dup2\n        /* \"#utility.yul\":87:99   */\n      mload\n        /* \"#utility.yul\":77:99   */\n      swap1\n      pop\n        /* \"#utility.yul\":7:106   */\n      swap2\n      swap1\n      pop\n      jump\t// out\n        /* \"#utility.yul\":112:281   */\n    tag_461:\n        /* \"#utility.yul\":196:207   */\n      0x00\n        /* \"#utility.yul\":230:236   */\n      dup3\n        /* \"#utility.yul\":225:228   */\n      dup3\n        /* \"#utility.yul\":218:237   */\n      mstore\n        /* \"#utility.yul\":270:274   */\n      0x20\n        /* \"#utility.yul\":265:268   */\n      dup3\n        /* \"#utility.yul\":261:275   */\n      add\n        /* \"#utility.yul\":246:275   */\n      swap1\n      pop\n        /* \"#utility.yul\":112:281   */\n      swap3\n      swap2\n      pop\n      pop\n      jump\t// out\n        /* \"#utility.yul\":287:533   */\n    tag_462:\n        /* \"#utility.yul\":368:369   */\n      0x00\n        /* \"#utility.yul\":378:491   */\n    tag_498:\n        /* \"#utility.yul\":392:398   */\n      dup4\n        /* \"#utility.yul\":389:390   */\n      dup2\n        /* \"#utility.yul\":386:399   */\n      lt\n        /* \"#utility.yul\":378:491   */\n      iszero\n      tag_500\n      jumpi\n        /* \"#utility.yul\":477:478   */\n      dup1\n        /* \"#utility.yul\":472:475   */\n      dup3\n        /* \"#utility.yul\":468:479   */\n      add\n        /* \"#utility.yul\":462:480   */\n      mload\n        /* \"#utility.yul\":458:459   */\n      dup2\n        /* \"#utility.yul\":453:456   */\n      dup5\n        /* \"#utility.yul\":449:460   */\n      add\n        /* \"#utility.yul\":442:481   */\n      mstore\n        /* \"#utility.yul\":414:416   */\n      0x20\n        /* \"#utility.yul\":411:412   */\n      dup2\n        /* \"#utility.yul\":407:417   */\n      add\n        /* \"#utility.yul\":402:417   */\n      swap1\n      pop\n        /* \"#utility.yul\":378:491   */\n      jump(tag_498)\n    tag_500:\n        /* \"#utility.yul\":525:526   */\n      0x00\n        /* \"#utility.yul\":516:522   */\n      dup5\n        /* \"#utility.yul\":511:514   */\n      dup5\n        /* \"#utility.yul\":507:523   */\n      add\n        /* \"#utility.yul\":500:527   */\n      mstore\n        /* \"#utility.yul\":349:533   */\n      pop\n        /* \"#utility.yul\":287:533   */\n      pop\n      pop\n      pop\n      jump\t// out\n        /* \"#utility.yul\":539:641   */\n    tag_463:\n        /* \"#utility.yul\":580:586   */\n      0x00\n        /* \"#utility.yul\":631:633   */\n      0x1f\n        /* \"#utility.yul\":627:634   */\n      not\n        /* \"#utility.yul\":622:624   */\n      0x1f\n        /* \"#utility.yul\":615:620   */\n      dup4\n        /* \"#utility.yul\":611:625   */\n      add\n        /* \"#utility.yul\":607:635   */\n      and\n        /* \"#utility.yul\":597:635   */\n      swap1\n      pop\n        /* \"#utility.yul\":539:641   */\n      swap2\n      swap1\n      pop\n      jump\t// out\n        /* \"#utility.yul\":647:1024   */\n    tag_464:\n        /* \"#utility.yul\":735:738   */\n      0x00\n        /* \"#utility.yul\":763:802   */\n      tag_503\n        /* \"#utility.yul\":796:801   */\n      dup3\n        /* \"#utility.yul\":763:802   */\n      tag_460\n      jump\t// in\n    tag_503:\n        /* \"#utility.yul\":818:889   */\n      tag_504\n        /* \"#utility.yul\":882:888   */\n      dup2\n        /* \"#utility.yul\":877:880   */\n      dup6\n        /* \"#utility.yul\":818:889   */\n      tag_461\n      jump\t// in\n    tag_504:\n        /* \"#utility.yul\":811:889   */\n      swap4\n      pop\n        /* \"#utility.yul\":898:963   */\n      tag_505\n        /* \"#utility.yul\":956:962   */\n      dup2\n        /* \"#utility.yul\":951:954   */\n      dup6\n        /* \"#utility.yul\":944:948   */\n      0x20\n        /* \"#utility.yul\":937:942   */\n      dup7\n        /* \"#utility.yul\":933:949   */\n      add\n        /* \"#utility.yul\":898:963   */\n      tag_462\n      jump\t// in\n    tag_505:\n        /* \"#utility.yul\":988:1017   */\n      tag_506\n        /* \"#utility.yul\":1010:1016   */\n      dup2\n        /* \"#utility.yul\":988:1017   */\n      tag_463\n      jump\t// in\n    tag_506:\n        /* \"#utility.yul\":983:986   */\n      dup5\n        /* \"#utility.yul\":979:1018   */\n      add\n        /* \"#utility.yul\":972:1018   */\n      swap2\n      pop\n        /* \"#utility.yul\":739:1024   */\n      pop\n        /* \"#utility.yul\":647:1024   */\n      swap3\n      swap2\n      pop\n      pop\n      jump\t// out\n        /* \"#utility.yul\":1030:1343   */\n    tag_51:\n        /* \"#utility.yul\":1143:1147   */\n      0x00\n        /* \"#utility.yul\":1181:1183   */\n      0x20\n        /* \"#utility.yul\":1170:1179   */\n      dup3\n        /* \"#utility.yul\":1166:1184   */\n      add\n        /* \"#utility.yul\":1158:1184   */\n      swap1\n      pop\n        /* \"#utility.yul\":1230:1239   */\n      dup2\n        /* \"#utility.yul\":1224:1228   */\n      dup2\n        /* \"#utility.yul\":1220:1240   */\n      sub\n        /* \"#utility.yul\":1216:1217   */\n      0x00\n        /* \"#utility.yul\":1205:1214   */\n      dup4\n        /* \"#utility.yul\":1201:1218   */\n      add\n        /* \"#utility.yul\":1194:1241   */\n      mstore\n        /* \"#utility.yul\":1258:1336   */\n      tag_508\n        /* \"#utility.yul\":1331:1335   */\n      dup2\n        /* \"#utility.yul\":1322:1328   */\n      dup5\n        /* \"#utility.yul\":1258:1336   */\n      tag_464\n      jump\t// in\n    tag_508:\n        /* \"#utility.yul\":1250:1336   */\n      swap1\n      pop\n        /* \"#utility.yul\":1030:1343   */\n      swap3\n      swap2\n      pop\n      pop\n      jump\t// out\n        /* \"#utility.yul\":1430:1547   */\n    tag_466:\n        /* \"#utility.yul\":1539:1540   */\n      0x00\n        /* \"#utility.yul\":1536:1537   */\n      dup1\n        /* \"#utility.yul\":1529:1541   */\n      revert\n        /* \"#utility.yul\":1676:1802   */\n    tag_468:\n        /* \"#utility.yul\":1713:1720   */\n      0x00\n        /* \"#utility.yul\":1753:1795   */\n      0xffffffffffffffffffffffffffffffffffffffff\n        /* \"#utility.yul\":1746:1751   */\n      dup3\n        /* \"#utility.yul\":1742:1796   */\n      and\n        /* \"#utility.yul\":1731:1796   */\n      swap1\n      pop\n        /* \"#utility.yul\":1676:1802   */\n      swap2\n      swap1\n      pop\n      jump\t// out\n        /* \"#utility.yul\":1808:1904   */\n    tag_469:\n        /* \"#utility.yul\":1845:1852   */\n      0x00\n        /* \"#utility.yul\":1874:1898   */\n      tag_514\n        /* \"#utility.yul\":1892:1897   */\n      dup3\n        /* \"#utility.yul\":1874:1898   */\n      tag_468\n      jump\t// in\n    tag_514:\n        /* \"#utility.yul\":1863:1898   */\n      swap1\n      pop\n        /* \"#utility.yul\":1808:1904   */\n      swap2\n      swap1\n      pop\n      jump\t// out\n        /* \"#utility.yul\":1910:2032   */\n    tag_470:\n        /* \"#utility.yul\":1983:2007   */\n      tag_516\n        /* \"#utility.yul\":2001:2006   */\n      dup2\n        /* \"#utility.yul\":1983:2007   */\n      tag_469\n      jump\t// in\n    tag_516:\n        /* \"#utility.yul\":1976:1981   */\n      dup2\n        /* \"#utility.yul\":1973:2008   */\n      eq\n        /* \"#utility.yul\":1963:2026   */\n      tag_517\n      jumpi\n        /* \"#utility.yul\":2022:2023   */\n      0x00\n        /* \"#utility.yul\":2019:2020   */\n      dup1\n        /* \"#utility.yul\":2012:2024   */\n      revert\n        /* \"#utility.yul\":1963:2026   */\n    tag_517:\n        /* \"#utility.yul\":1910:2032   */\n      pop\n      jump\t// out\n        /* \"#utility.yul\":2038:2177   */\n    tag_471:\n        /* \"#utility.yul\":2084:2089   */\n      0x00\n        /* \"#utility.yul\":2122:2128   */\n      dup2\n        /* \"#utility.yul\":2109:2129   */\n      calldataload\n        /* \"#utility.yul\":2100:2129   */\n      swap1\n      pop\n        /* \"#utility.yul\":2138:2171   */\n      tag_519\n        /* \"#utility.yul\":2165:2170   */\n      dup2\n        /* \"#utility.yul\":2138:2171   */\n      tag_470\n      jump\t// in\n    tag_519:\n        /* \"#utility.yul\":2038:2177   */\n      swap3\n      swap2\n      pop\n      pop\n      jump\t// out\n        /* \"#utility.yul\":2183:2260   */\n    tag_472:\n        /* \"#utility.yul\":2220:2227   */\n      0x00\n        /* \"#utility.yul\":2249:2254   */\n      dup2\n        /* \"#utility.yul\":2238:2254   */\n      swap1\n      pop\n        /* \"#utility.yul\":2183:2260   */\n      swap2\n      swap1\n      pop\n      jump\t// out\n        /* \"#utility.yul\":2266:2388   */\n    tag_473:\n        /* \"#utility.yul\":2339:2363   */\n      tag_522\n        /* \"#utility.yul\":2357:2362   */\n      dup2\n        /* \"#utility.yul\":2339:2363   */\n      tag_472\n      jump\t// in\n    tag_522:\n        /* \"#utility.yul\":2332:2337   */\n      dup2\n        /* \"#utility.yul\":2329:2364   */\n      eq\n        /* \"#utility.yul\":2319:2382   */\n      tag_523\n      jumpi\n        /* \"#utility.yul\":2378:2379   */\n      0x00\n        /* \"#utility.yul\":2375:2376   */\n      dup1\n        /* \"#utility.yul\":2368:2380   */\n      revert\n        /* \"#utility.yul\":2319:2382   */\n    tag_523:\n        /* \"#utility.yul\":2266:2388   */\n      pop\n      jump\t// out\n        /* \"#utility.yul\":2394:2533   */\n    tag_474:\n        /* \"#utility.yul\":2440:2445   */\n      0x00\n        /* \"#utility.yul\":2478:2484   */\n      dup2\n        /* \"#utility.yul\":2465:2485   */\n      calldataload\n        /* \"#utility.yul\":2456:2485   */\n      swap1\n      pop\n        /* \"#utility.yul\":2494:2527   */\n      tag_525\n        /* \"#utility.yul\":2521:2526   */\n      dup2\n        /* \"#utility.yul\":2494:2527   */\n      tag_473\n      jump\t// in\n    tag_525:\n        /* \"#utility.yul\":2394:2533   */\n      swap3\n      swap2\n      pop\n      pop\n      jump\t// out\n        /* \"#utility.yul\":2539:3013   */\n    tag_55:\n        /* \"#utility.yul\":2607:2613   */\n      0x00\n        /* \"#utility.yul\":2615:2621   */\n      dup1\n        /* \"#utility.yul\":2664:2666   */\n      0x40\n        /* \"#utility.yul\":2652:2661   */\n      dup4\n        /* \"#utility.yul\":2643:2650   */\n      dup6\n        /* \"#utility.yul\":2639:2662   */\n      sub\n        /* \"#utility.yul\":2635:2667   */\n      slt\n        /* \"#utility.yul\":2632:2751   */\n      iszero\n      tag_527\n      jumpi\n        /* \"#utility.yul\":2670:2749   */\n      tag_528\n      tag_466\n      jump\t// in\n    tag_528:\n        /* \"#utility.yul\":2632:2751   */\n    tag_527:\n        /* \"#utility.yul\":2790:2791   */\n      0x00\n        /* \"#utility.yul\":2815:2868   */\n      tag_529\n        /* \"#utility.yul\":2860:2867   */\n      dup6\n        /* \"#utility.yul\":2851:2857   */\n      dup3\n        /* \"#utility.yul\":2840:2849   */\n      dup7\n        /* \"#utility.yul\":2836:2858   */\n      add\n        /* \"#utility.yul\":2815:2868   */\n      tag_471\n      jump\t// in\n    tag_529:\n        /* \"#utility.yul\":2805:2868   */\n      swap3\n      pop\n        /* \"#utility.yul\":2761:2878   */\n      pop\n        /* \"#utility.yul\":2917:2919   */\n      0x20\n        /* \"#utility.yul\":2943:2996   */\n      tag_530\n        /* \"#utility.yul\":2988:2995   */\n      dup6\n        /* \"#utility.yul\":2979:2985   */\n      dup3\n        /* \"#utility.yul\":2968:2977   */\n      dup7\n        /* \"#utility.yul\":2964:2986   */\n      add\n        /* \"#utility.yul\":2943:2996   */\n      tag_474\n      jump\t// in\n    tag_530:\n        /* \"#utility.yul\":2933:2996   */\n      swap2\n      pop\n        /* \"#utility.yul\":2888:3006   */\n      pop\n        /* \"#utility.yul\":2539:3013   */\n      swap3\n      pop\n      swap3\n      swap1\n      pop\n      jump\t// out\n        /* \"#utility.yul\":3019:3109   */\n    tag_475:\n        /* \"#utility.yul\":3053:3060   */\n      0x00\n        /* \"#utility.yul\":3096:3101   */\n      dup2\n        /* \"#utility.yul\":3089:3102   */\n      iszero\n        /* \"#utility.yul\":3082:3103   */\n      iszero\n        /* \"#utility.yul\":3071:3103   */\n      swap1\n      pop\n        /* \"#utility.yul\":3019:3109   */\n      swap2\n      swap1\n      pop\n      jump\t// out\n        /* \"#utility.yul\":3115:3224   */\n    tag_476:\n        /* \"#utility.yul\":3196:3217   */\n      tag_533\n        /* \"#utility.yul\":3211:3216   */\n      dup2\n        /* \"#utility.yul\":3196:3217   */\n      tag_475\n      jump\t// in\n    tag_533:\n        /* \"#utility.yul\":3191:3194   */\n      dup3\n        /* \"#utility.yul\":3184:3218   */\n      mstore\n        /* \"#utility.yul\":3115:3224   */\n      pop\n      pop\n      jump\t// out\n        /* \"#utility.yul\":3230:3440   */\n    tag_58:\n        /* \"#utility.yul\":3317:3321   */\n      0x00\n        /* \"#utility.yul\":3355:3357   */\n      0x20\n        /* \"#utility.yul\":3344:3353   */\n      dup3\n        /* \"#utility.yul\":3340:3358   */\n      add\n        /* \"#utility.yul\":3332:3358   */\n      swap1\n      pop\n        /* \"#utility.yul\":3368:3433   */\n      tag_535\n        /* \"#utility.yul\":3430:3431   */\n      0x00\n        /* \"#utility.yul\":3419:3428   */\n      dup4\n        /* \"#utility.yul\":3415:3432   */\n      add\n        /* \"#utility.yul\":3406:3412   */\n      dup5\n        /* \"#utility.yul\":3368:3433   */\n      tag_476\n      jump\t// in\n    tag_535:\n        /* \"#utility.yul\":3230:3440   */\n      swap3\n      swap2\n      pop\n      pop\n      jump\t// out\n        /* \"#utility.yul\":3446:3564   */\n    tag_477:\n        /* \"#utility.yul\":3533:3557   */\n      tag_537\n        /* \"#utility.yul\":3551:3556   */\n      dup2\n        /* \"#utility.yul\":3533:3557   */\n      tag_472\n      jump\t// in\n    tag_537:\n        /* \"#utility.yul\":3528:3531   */\n      dup3\n        /* \"#utility.yul\":3521:3558   */\n      mstore\n        /* \"#utility.yul\":3446:3564   */\n      pop\n      pop\n      jump\t// out\n        /* \"#utility.yul\":3570:3792   */\n    tag_63:\n        /* \"#utility.yul\":3663:3667   */\n      0x00\n        /* \"#utility.yul\":3701:3703   */\n      0x20\n        /* \"#utility.yul\":3690:3699   */\n      dup3\n        /* \"#utility.yul\":3686:3704   */\n      add\n        /* \"#utility.yul\":3678:3704   */\n      swap1\n      pop\n        /* \"#utility.yul\":3714:3785   */\n      tag_539\n        /* \"#utility.yul\":3782:3783   */\n      0x00\n        /* \"#utility.yul\":3771:3780   */\n      dup4\n        /* \"#utility.yul\":3767:3784   */\n      add\n        /* \"#utility.yul\":3758:3764   */\n      dup5\n        /* \"#utility.yul\":3714:3785   */\n      tag_477\n      jump\t// in\n    tag_539:\n        /* \"#utility.yul\":3570:3792   */\n      swap3\n      swap2\n      pop\n      pop\n      jump\t// out\n        /* \"#utility.yul\":3798:4417   */\n    tag_67:\n        /* \"#utility.yul\":3875:3881   */\n      0x00\n        /* \"#utility.yul\":3883:3889   */\n      dup1\n        /* \"#utility.yul\":3891:3897   */\n      0x00\n        /* \"#utility.yul\":3940:3942   */\n      0x60\n        /* \"#utility.yul\":3928:3937   */\n      dup5\n        /* \"#utility.yul\":3919:3926   */\n      dup7\n        /* \"#utility.yul\":3915:3938   */\n      sub\n        /* \"#utility.yul\":3911:3943   */\n      slt\n        /* \"#utility.yul\":3908:4027   */\n      iszero\n      tag_541\n      jumpi\n        /* \"#utility.yul\":3946:4025   */\n      tag_542\n      tag_466\n      jump\t// in\n    tag_542:\n        /* \"#utility.yul\":3908:4027   */\n    tag_541:\n        /* \"#utility.yul\":4066:4067   */\n      0x00\n        /* \"#utility.yul\":4091:4144   */\n      tag_543\n        /* \"#utility.yul\":4136:4143   */\n      dup7\n        /* \"#utility.yul\":4127:4133   */\n      dup3\n        /* \"#utility.yul\":4116:4125   */\n      dup8\n        /* \"#utility.yul\":4112:4134   */\n      add\n        /* \"#utility.yul\":4091:4144   */\n      tag_471\n      jump\t// in\n    tag_543:\n        /* \"#utility.yul\":4081:4144   */\n      swap4\n      pop\n        /* \"#utility.yul\":4037:4154   */\n      pop\n        /* \"#utility.yul\":4193:4195   */\n      0x20\n        /* \"#utility.yul\":4219:4272   */\n      tag_544\n        /* \"#utility.yul\":4264:4271   */\n      dup7\n        /* \"#utility.yul\":4255:4261   */\n      dup3\n        /* \"#utility.yul\":4244:4253   */\n      dup8\n        /* \"#utility.yul\":4240:4262   */\n      add\n        /* \"#utility.yul\":4219:4272   */\n      tag_471\n      jump\t// in\n    tag_544:\n        /* \"#utility.yul\":4209:4272   */\n      swap3\n      pop\n        /* \"#utility.yul\":4164:4282   */\n      pop\n        /* \"#utility.yul\":4321:4323   */\n      0x40\n        /* \"#utility.yul\":4347:4400   */\n      tag_545\n        /* \"#utility.yul\":4392:4399   */\n      dup7\n        /* \"#utility.yul\":4383:4389   */\n      dup3\n        /* \"#utility.yul\":4372:4381   */\n      dup8\n        /* \"#utility.yul\":4368:4390   */\n      add\n        /* \"#utility.yul\":4347:4400   */\n      tag_474\n      jump\t// in\n    tag_545:\n        /* \"#utility.yul\":4337:4400   */\n      swap2\n      pop\n        /* \"#utility.yul\":4292:4410   */\n      pop\n        /* \"#utility.yul\":3798:4417   */\n      swap3\n      pop\n      swap3\n      pop\n      swap3\n      jump\t// out\n        /* \"#utility.yul\":4423:4752   */\n    tag_73:\n        /* \"#utility.yul\":4482:4488   */\n      0x00\n        /* \"#utility.yul\":4531:4533   */\n      0x20\n        /* \"#utility.yul\":4519:4528   */\n      dup3\n        /* \"#utility.yul\":4510:4517   */\n      dup5\n        /* \"#utility.yul\":4506:4529   */\n      sub\n        /* \"#utility.yul\":4502:4534   */\n      slt\n        /* \"#utility.yul\":4499:4618   */\n      iszero\n      tag_547\n      jumpi\n        /* \"#utility.yul\":4537:4616   */\n      tag_548\n      tag_466\n      jump\t// in\n    tag_548:\n        /* \"#utility.yul\":4499:4618   */\n    tag_547:\n        /* \"#utility.yul\":4657:4658   */\n      0x00\n        /* \"#utility.yul\":4682:4735   */\n      tag_549\n        /* \"#utility.yul\":4727:4734   */\n      dup5\n        /* \"#utility.yul\":4718:4724   */\n      dup3\n        /* \"#utility.yul\":4707:4716   */\n      dup6\n        /* \"#utility.yul\":4703:4725   */\n      add\n        /* \"#utility.yul\":4682:4735   */\n      tag_474\n      jump\t// in\n    tag_549:\n        /* \"#utility.yul\":4672:4735   */\n      swap2\n      pop\n        /* \"#utility.yul\":4628:4745   */\n      pop\n        /* \"#utility.yul\":4423:4752   */\n      swap3\n      swap2\n      pop\n      pop\n      jump\t// out\n        /* \"#utility.yul\":4758:5087   */\n    tag_82:\n        /* \"#utility.yul\":4817:4823   */\n      0x00\n        /* \"#utility.yul\":4866:4868   */\n      0x20\n        /* \"#utility.yul\":4854:4863   */\n      dup3\n        /* \"#utility.yul\":4845:4852   */\n      dup5\n        /* \"#utility.yul\":4841:4864   */\n      sub\n        /* \"#utility.yul\":4837:4869   */\n      slt\n        /* \"#utility.yul\":4834:4953   */\n      iszero\n      tag_551\n      jumpi\n        /* \"#utility.yul\":4872:4951   */\n      tag_552\n      tag_466\n      jump\t// in\n    tag_552:\n        /* \"#utility.yul\":4834:4953   */\n    tag_551:\n        /* \"#utility.yul\":4992:4993   */\n      0x00\n        /* \"#utility.yul\":5017:5070   */\n      tag_553\n        /* \"#utility.yul\":5062:5069   */\n      dup5\n        /* \"#utility.yul\":5053:5059   */\n      dup3\n        /* \"#utility.yul\":5042:5051   */\n      dup6\n        /* \"#utility.yul\":5038:5060   */\n      add\n        /* \"#utility.yul\":5017:5070   */\n      tag_471\n      jump\t// in\n    tag_553:\n        /* \"#utility.yul\":5007:5070   */\n      swap2\n      pop\n        /* \"#utility.yul\":4963:5080   */\n      pop\n        /* \"#utility.yul\":4758:5087   */\n      swap3\n      swap2\n      pop\n      pop\n      jump\t// out\n        /* \"#utility.yul\":5093:5179   */\n    tag_478:\n        /* \"#utility.yul\":5128:5135   */\n      0x00\n        /* \"#utility.yul\":5168:5172   */\n      0xff\n        /* \"#utility.yul\":5161:5166   */\n      dup3\n        /* \"#utility.yul\":5157:5173   */\n      and\n        /* \"#utility.yul\":5146:5173   */\n      swap1\n      pop\n        /* \"#utility.yul\":5093:5179   */\n      swap2\n      swap1\n      pop\n      jump\t// out\n        /* \"#utility.yul\":5185:5297   */\n    tag_479:\n        /* \"#utility.yul\":5268:5290   */\n      tag_556\n        /* \"#utility.yul\":5284:5289   */\n      dup2\n        /* \"#utility.yul\":5268:5290   */\n      tag_478\n      jump\t// in\n    tag_556:\n        /* \"#utility.yul\":5263:5266   */\n      dup3\n        /* \"#utility.yul\":5256:5291   */\n      mstore\n        /* \"#utility.yul\":5185:5297   */\n      pop\n      pop\n      jump\t// out\n        /* \"#utility.yul\":5303:5517   */\n    tag_88:\n        /* \"#utility.yul\":5392:5396   */\n      0x00\n        /* \"#utility.yul\":5430:5432   */\n      0x20\n        /* \"#utility.yul\":5419:5428   */\n      dup3\n        /* \"#utility.yul\":5415:5433   */\n      add\n        /* \"#utility.yul\":5407:5433   */\n      swap1\n      pop\n        /* \"#utility.yul\":5443:5510   */\n      tag_558\n        /* \"#utility.yul\":5507:5508   */\n      0x00\n        /* \"#utility.yul\":5496:5505   */\n      dup4\n        /* \"#utility.yul\":5492:5509   */\n      add\n        /* \"#utility.yul\":5483:5489   */\n      dup5\n        /* \"#utility.yul\":5443:5510   */\n      tag_479\n      jump\t// in\n    tag_558:\n        /* \"#utility.yul\":5303:5517   */\n      swap3\n      swap2\n      pop\n      pop\n      jump\t// out\n        /* \"#utility.yul\":5523:5639   */\n    tag_480:\n        /* \"#utility.yul\":5593:5614   */\n      tag_560\n        /* \"#utility.yul\":5608:5613   */\n      dup2\n        /* \"#utility.yul\":5593:5614   */\n      tag_475\n      jump\t// in\n    tag_560:\n        /* \"#utility.yul\":5586:5591   */\n      dup2\n        /* \"#utility.yul\":5583:5615   */\n      eq\n        /* \"#utility.yul\":5573:5633   */\n      tag_561\n      jumpi\n        /* \"#utility.yul\":5629:5630   */\n      0x00\n        /* \"#utility.yul\":5626:5627   */\n      dup1\n        /* \"#utility.yul\":5619:5631   */\n      revert\n        /* \"#utility.yul\":5573:5633   */\n    tag_561:\n        /* \"#utility.yul\":5523:5639   */\n      pop\n      jump\t// out\n        /* \"#utility.yul\":5645:5778   */\n    tag_481:\n        /* \"#utility.yul\":5688:5693   */\n      0x00\n        /* \"#utility.yul\":5726:5732   */\n      dup2\n        /* \"#utility.yul\":5713:5733   */\n      calldataload\n        /* \"#utility.yul\":5704:5733   */\n      swap1\n      pop\n        /* \"#utility.yul\":5742:5772   */\n      tag_563\n        /* \"#utility.yul\":5766:5771   */\n      dup2\n        /* \"#utility.yul\":5742:5772   */\n      tag_480\n      jump\t// in\n    tag_563:\n        /* \"#utility.yul\":5645:5778   */\n      swap3\n      swap2\n      pop\n      pop\n      jump\t// out\n        /* \"#utility.yul\":5784:6252   */\n    tag_100:\n        /* \"#utility.yul\":5849:5855   */\n      0x00\n        /* \"#utility.yul\":5857:5863   */\n      dup1\n        /* \"#utility.yul\":5906:5908   */\n      0x40\n        /* \"#utility.yul\":5894:5903   */\n      dup4\n        /* \"#utility.yul\":5885:5892   */\n      dup6\n        /* \"#utility.yul\":5881:5904   */\n      sub\n        /* \"#utility.yul\":5877:5909   */\n      slt\n        /* \"#utility.yul\":5874:5993   */\n      iszero\n      tag_565\n      jumpi\n        /* \"#utility.yul\":5912:5991   */\n      tag_566\n      tag_466\n      jump\t// in\n    tag_566:\n        /* \"#utility.yul\":5874:5993   */\n    tag_565:\n        /* \"#utility.yul\":6032:6033   */\n      0x00\n        /* \"#utility.yul\":6057:6110   */\n      tag_567\n        /* \"#utility.yul\":6102:6109   */\n      dup6\n        /* \"#utility.yul\":6093:6099   */\n      dup3\n        /* \"#utility.yul\":6082:6091   */\n      dup7\n        /* \"#utility.yul\":6078:6100   */\n      add\n        /* \"#utility.yul\":6057:6110   */\n      tag_471\n      jump\t// in\n    tag_567:\n        /* \"#utility.yul\":6047:6110   */\n      swap3\n      pop\n        /* \"#utility.yul\":6003:6120   */\n      pop\n        /* \"#utility.yul\":6159:6161   */\n      0x20\n        /* \"#utility.yul\":6185:6235   */\n      tag_568\n        /* \"#utility.yul\":6227:6234   */\n      dup6\n        /* \"#utility.yul\":6218:6224   */\n      dup3\n        /* \"#utility.yul\":6207:6216   */\n      dup7\n        /* \"#utility.yul\":6203:6225   */\n      add\n        /* \"#utility.yul\":6185:6235   */\n      tag_481\n      jump\t// in\n    tag_568:\n        /* \"#utility.yul\":6175:6235   */\n      swap2\n      pop\n        /* \"#utility.yul\":6130:6245   */\n      pop\n        /* \"#utility.yul\":5784:6252   */\n      swap3\n      pop\n      swap3\n      swap1\n      pop\n      jump\t// out\n        /* \"#utility.yul\":6258:6376   */\n    tag_482:\n        /* \"#utility.yul\":6345:6369   */\n      tag_570\n        /* \"#utility.yul\":6363:6368   */\n      dup2\n        /* \"#utility.yul\":6345:6369   */\n      tag_469\n      jump\t// in\n    tag_570:\n        /* \"#utility.yul\":6340:6343   */\n      dup3\n        /* \"#utility.yul\":6333:6370   */\n      mstore\n        /* \"#utility.yul\":6258:6376   */\n      pop\n      pop\n      jump\t// out\n        /* \"#utility.yul\":6382:6604   */\n    tag_138:\n        /* \"#utility.yul\":6475:6479   */\n      0x00\n        /* \"#utility.yul\":6513:6515   */\n      0x20\n        /* \"#utility.yul\":6502:6511   */\n      dup3\n        /* \"#utility.yul\":6498:6516   */\n      add\n        /* \"#utility.yul\":6490:6516   */\n      swap1\n      pop\n        /* \"#utility.yul\":6526:6597   */\n      tag_572\n        /* \"#utility.yul\":6594:6595   */\n      0x00\n        /* \"#utility.yul\":6583:6592   */\n      dup4\n        /* \"#utility.yul\":6579:6596   */\n      add\n        /* \"#utility.yul\":6570:6576   */\n      dup5\n        /* \"#utility.yul\":6526:6597   */\n      tag_482\n      jump\t// in\n    tag_572:\n        /* \"#utility.yul\":6382:6604   */\n      swap3\n      swap2\n      pop\n      pop\n      jump\t// out\n        /* \"#utility.yul\":6610:7084   */\n    tag_189:\n        /* \"#utility.yul\":6678:6684   */\n      0x00\n        /* \"#utility.yul\":6686:6692   */\n      dup1\n        /* \"#utility.yul\":6735:6737   */\n      0x40\n        /* \"#utility.yul\":6723:6732   */\n      dup4\n        /* \"#utility.yul\":6714:6721   */\n      dup6\n        /* \"#utility.yul\":6710:6733   */\n      sub\n        /* \"#utility.yul\":6706:6738   */\n      slt\n        /* \"#utility.yul\":6703:6822   */\n      iszero\n      tag_574\n      jumpi\n        /* \"#utility.yul\":6741:6820   */\n      tag_575\n      tag_466\n      jump\t// in\n    tag_575:\n        /* \"#utility.yul\":6703:6822   */\n    tag_574:\n        /* \"#utility.yul\":6861:6862   */\n      0x00\n        /* \"#utility.yul\":6886:6939   */\n      tag_576\n        /* \"#utility.yul\":6931:6938   */\n      dup6\n        /* \"#utility.yul\":6922:6928   */\n      dup3\n        /* \"#utility.yul\":6911:6920   */\n      dup7\n        /* \"#utility.yul\":6907:6929   */\n      add\n        /* \"#utility.yul\":6886:6939   */\n      tag_471\n      jump\t// in\n    tag_576:\n        /* \"#utility.yul\":6876:6939   */\n      swap3\n      pop\n        /* \"#utility.yul\":6832:6949   */\n      pop\n        /* \"#utility.yul\":6988:6990   */\n      0x20\n        /* \"#utility.yul\":7014:7067   */\n      tag_577\n        /* \"#utility.yul\":7059:7066   */\n      dup6\n        /* \"#utility.yul\":7050:7056   */\n      dup3\n        /* \"#utility.yul\":7039:7048   */\n      dup7\n        /* \"#utility.yul\":7035:7057   */\n      add\n        /* \"#utility.yul\":7014:7067   */\n      tag_471\n      jump\t// in\n    tag_577:\n        /* \"#utility.yul\":7004:7067   */\n      swap2\n      pop\n        /* \"#utility.yul\":6959:7077   */\n      pop\n        /* \"#utility.yul\":6610:7084   */\n      swap3\n      pop\n      swap3\n      swap1\n      pop\n      jump\t// out\n        /* \"#utility.yul\":7090:7413   */\n    tag_195:\n        /* \"#utility.yul\":7146:7152   */\n      0x00\n        /* \"#utility.yul\":7195:7197   */\n      0x20\n        /* \"#utility.yul\":7183:7192   */\n      dup3\n        /* \"#utility.yul\":7174:7181   */\n      dup5\n        /* \"#utility.yul\":7170:7193   */\n      sub\n        /* \"#utility.yul\":7166:7198   */\n      slt\n        /* \"#utility.yul\":7163:7282   */\n      iszero\n      tag_579\n      jumpi\n        /* \"#utility.yul\":7201:7280   */\n      tag_580\n      tag_466\n      jump\t// in\n    tag_580:\n        /* \"#utility.yul\":7163:7282   */\n    tag_579:\n        /* \"#utility.yul\":7321:7322   */\n      0x00\n        /* \"#utility.yul\":7346:7396   */\n      tag_581\n        /* \"#utility.yul\":7388:7395   */\n      dup5\n        /* \"#utility.yul\":7379:7385   */\n      dup3\n        /* \"#utility.yul\":7368:7377   */\n      dup6\n        /* \"#utility.yul\":7364:7386   */\n      add\n        /* \"#utility.yul\":7346:7396   */\n      tag_481\n      jump\t// in\n    tag_581:\n        /* \"#utility.yul\":7336:7396   */\n      swap2\n      pop\n        /* \"#utility.yul\":7292:7406   */\n      pop\n        /* \"#utility.yul\":7090:7413   */\n      swap3\n      swap2\n      pop\n      pop\n      jump\t// out\n        /* \"#utility.yul\":7419:7599   */\n    tag_483:\n        /* \"#utility.yul\":7467:7544   */\n      0x4e487b7100000000000000000000000000000000000000000000000000000000\n        /* \"#utility.yul\":7464:7465   */\n      0x00\n        /* \"#utility.yul\":7457:7545   */\n      mstore\n        /* \"#utility.yul\":7564:7568   */\n      0x22\n        /* \"#utility.yul\":7561:7562   */\n      0x04\n        /* \"#utility.yul\":7554:7569   */\n      mstore\n        /* \"#utility.yul\":7588:7592   */\n      0x24\n        /* \"#utility.yul\":7585:7586   */\n      0x00\n        /* \"#utility.yul\":7578:7593   */\n      revert\n        /* \"#utility.yul\":7605:7925   */\n    tag_207:\n        /* \"#utility.yul\":7649:7655   */\n      0x00\n        /* \"#utility.yul\":7686:7687   */\n      0x02\n        /* \"#utility.yul\":7680:7684   */\n      dup3\n        /* \"#utility.yul\":7676:7688   */\n      div\n        /* \"#utility.yul\":7666:7688   */\n      swap1\n      pop\n        /* \"#utility.yul\":7733:7734   */\n      0x01\n        /* \"#utility.yul\":7727:7731   */\n      dup3\n        /* \"#utility.yul\":7723:7735   */\n      and\n        /* \"#utility.yul\":7754:7772   */\n      dup1\n        /* \"#utility.yul\":7744:7825   */\n      tag_584\n      jumpi\n        /* \"#utility.yul\":7810:7814   */\n      0x7f\n        /* \"#utility.yul\":7802:7808   */\n      dup3\n        /* \"#utility.yul\":7798:7815   */\n      and\n        /* \"#utility.yul\":7788:7815   */\n      swap2\n      pop\n        /* \"#utility.yul\":7744:7825   */\n    tag_584:\n        /* \"#utility.yul\":7872:7874   */\n      0x20\n        /* \"#utility.yul\":7864:7870   */\n      dup3\n        /* \"#utility.yul\":7861:7875   */\n      lt\n        /* \"#utility.yul\":7841:7859   */\n      dup2\n        /* \"#utility.yul\":7838:7876   */\n      sub\n        /* \"#utility.yul\":7835:7919   */\n      tag_585\n      jumpi\n        /* \"#utility.yul\":7891:7909   */\n      tag_586\n      tag_483\n      jump\t// in\n    tag_586:\n        /* \"#utility.yul\":7835:7919   */\n    tag_585:\n        /* \"#utility.yul\":7656:7925   */\n      pop\n        /* \"#utility.yul\":7605:7925   */\n      swap2\n      swap1\n      pop\n      jump\t// out\n        /* \"#utility.yul\":7931:8111   */\n    tag_484:\n        /* \"#utility.yul\":7979:8056   */\n      0x4e487b7100000000000000000000000000000000000000000000000000000000\n        /* \"#utility.yul\":7976:7977   */\n      0x00\n        /* \"#utility.yul\":7969:8057   */\n      mstore\n        /* \"#utility.yul\":8076:8080   */\n      0x11\n        /* \"#utility.yul\":8073:8074   */\n      0x04\n        /* \"#utility.yul\":8066:8081   */\n      mstore\n        /* \"#utility.yul\":8100:8104   */\n      0x24\n        /* \"#utility.yul\":8097:8098   */\n      0x00\n        /* \"#utility.yul\":8090:8105   */\n      revert\n        /* \"#utility.yul\":8117:8219   */\n    tag_485:\n        /* \"#utility.yul\":8159:8167   */\n      0x00\n        /* \"#utility.yul\":8206:8211   */\n      dup2\n        /* \"#utility.yul\":8203:8204   */\n      0x01\n        /* \"#utility.yul\":8199:8212   */\n      shr\n        /* \"#utility.yul\":8178:8212   */\n      swap1\n      pop\n        /* \"#utility.yul\":8117:8219   */\n      swap2\n      swap1\n      pop\n      jump\t// out\n        /* \"#utility.yul\":8225:9073   */\n    tag_486:\n        /* \"#utility.yul\":8286:8291   */\n      0x00\n        /* \"#utility.yul\":8293:8297   */\n      dup1\n        /* \"#utility.yul\":8317:8323   */\n      dup3\n        /* \"#utility.yul\":8308:8323   */\n      swap2\n      pop\n        /* \"#utility.yul\":8341:8346   */\n      dup4\n        /* \"#utility.yul\":8332:8346   */\n      swap1\n      pop\n        /* \"#utility.yul\":8355:9067   */\n    tag_590:\n        /* \"#utility.yul\":8376:8377   */\n      0x01\n        /* \"#utility.yul\":8366:8374   */\n      dup6\n        /* \"#utility.yul\":8363:8378   */\n      gt\n        /* \"#utility.yul\":8355:9067   */\n      iszero\n      tag_592\n      jumpi\n        /* \"#utility.yul\":8471:8475   */\n      dup1\n        /* \"#utility.yul\":8466:8469   */\n      dup7\n        /* \"#utility.yul\":8462:8476   */\n      div\n        /* \"#utility.yul\":8456:8460   */\n      dup2\n        /* \"#utility.yul\":8453:8477   */\n      gt\n        /* \"#utility.yul\":8450:8500   */\n      iszero\n      tag_593\n      jumpi\n        /* \"#utility.yul\":8480:8498   */\n      tag_594\n      tag_484\n      jump\t// in\n    tag_594:\n        /* \"#utility.yul\":8450:8500   */\n    tag_593:\n        /* \"#utility.yul\":8530:8531   */\n      0x01\n        /* \"#utility.yul\":8520:8528   */\n      dup6\n        /* \"#utility.yul\":8516:8532   */\n      and\n        /* \"#utility.yul\":8513:8964   */\n      iszero\n      tag_595\n      jumpi\n        /* \"#utility.yul\":8945:8949   */\n      dup1\n        /* \"#utility.yul\":8938:8943   */\n      dup3\n        /* \"#utility.yul\":8934:8950   */\n      mul\n        /* \"#utility.yul\":8925:8950   */\n      swap2\n      pop\n        /* \"#utility.yul\":8513:8964   */\n    tag_595:\n        /* \"#utility.yul\":8995:8999   */\n      dup1\n        /* \"#utility.yul\":8989:8993   */\n      dup2\n        /* \"#utility.yul\":8985:9000   */\n      mul\n        /* \"#utility.yul\":8977:9000   */\n      swap1\n      pop\n        /* \"#utility.yul\":9025:9057   */\n      tag_596\n        /* \"#utility.yul\":9048:9056   */\n      dup6\n        /* \"#utility.yul\":9025:9057   */\n      tag_485\n      jump\t// in\n    tag_596:\n        /* \"#utility.yul\":9013:9057   */\n      swap5\n      pop\n        /* \"#utility.yul\":8355:9067   */\n      jump(tag_590)\n    tag_592:\n        /* \"#utility.yul\":8225:9073   */\n      swap5\n      pop\n      swap5\n      swap3\n      pop\n      pop\n      pop\n      jump\t// out\n        /* \"#utility.yul\":9079:10152   */\n    tag_487:\n        /* \"#utility.yul\":9133:9138   */\n      0x00\n        /* \"#utility.yul\":9324:9332   */\n      dup3\n        /* \"#utility.yul\":9314:9354   */\n      tag_598\n      jumpi\n        /* \"#utility.yul\":9345:9346   */\n      0x01\n        /* \"#utility.yul\":9336:9346   */\n      swap1\n      pop\n        /* \"#utility.yul\":9347:9352   */\n      jump(tag_597)\n        /* \"#utility.yul\":9314:9354   */\n    tag_598:\n        /* \"#utility.yul\":9373:9377   */\n      dup2\n        /* \"#utility.yul\":9363:9399   */\n      tag_599\n      jumpi\n        /* \"#utility.yul\":9390:9391   */\n      0x00\n        /* \"#utility.yul\":9381:9391   */\n      swap1\n      pop\n        /* \"#utility.yul\":9392:9397   */\n      jump(tag_597)\n        /* \"#utility.yul\":9363:9399   */\n    tag_599:\n        /* \"#utility.yul\":9459:9463   */\n      dup2\n        /* \"#utility.yul\":9507:9508   */\n      0x01\n        /* \"#utility.yul\":9502:9529   */\n      dup2\n      eq\n      tag_601\n      jumpi\n        /* \"#utility.yul\":9543:9544   */\n      0x02\n        /* \"#utility.yul\":9538:9729   */\n      dup2\n      eq\n      tag_602\n      jumpi\n        /* \"#utility.yul\":9452:9729   */\n      jump(tag_600)\n        /* \"#utility.yul\":9502:9529   */\n    tag_601:\n        /* \"#utility.yul\":9520:9521   */\n      0x01\n        /* \"#utility.yul\":9511:9521   */\n      swap2\n      pop\n        /* \"#utility.yul\":9522:9527   */\n      pop\n      jump(tag_597)\n        /* \"#utility.yul\":9538:9729   */\n    tag_602:\n        /* \"#utility.yul\":9583:9586   */\n      0xff\n        /* \"#utility.yul\":9573:9581   */\n      dup5\n        /* \"#utility.yul\":9570:9587   */\n      gt\n        /* \"#utility.yul\":9567:9610   */\n      iszero\n      tag_603\n      jumpi\n        /* \"#utility.yul\":9590:9608   */\n      tag_604\n      tag_484\n      jump\t// in\n    tag_604:\n        /* \"#utility.yul\":9567:9610   */\n    tag_603:\n        /* \"#utility.yul\":9639:9647   */\n      dup4\n        /* \"#utility.yul\":9636:9637   */\n      0x02\n        /* \"#utility.yul\":9632:9648   */\n      exp\n        /* \"#utility.yul\":9623:9648   */\n      swap2\n      pop\n        /* \"#utility.yul\":9674:9677   */\n      dup5\n        /* \"#utility.yul\":9667:9672   */\n      dup3\n        /* \"#utility.yul\":9664:9678   */\n      gt\n        /* \"#utility.yul\":9661:9701   */\n      iszero\n      tag_605\n      jumpi\n        /* \"#utility.yul\":9681:9699   */\n      tag_606\n      tag_484\n      jump\t// in\n    tag_606:\n        /* \"#utility.yul\":9661:9701   */\n    tag_605:\n        /* \"#utility.yul\":9714:9719   */\n      pop\n      jump(tag_597)\n        /* \"#utility.yul\":9452:9729   */\n    tag_600:\n      pop\n        /* \"#utility.yul\":9838:9840   */\n      0x20\n        /* \"#utility.yul\":9828:9836   */\n      dup4\n        /* \"#utility.yul\":9825:9841   */\n      lt\n        /* \"#utility.yul\":9819:9822   */\n      0x0133\n        /* \"#utility.yul\":9813:9817   */\n      dup4\n        /* \"#utility.yul\":9810:9823   */\n      lt\n        /* \"#utility.yul\":9806:9842   */\n      and\n        /* \"#utility.yul\":9788:9790   */\n      0x4e\n        /* \"#utility.yul\":9778:9786   */\n      dup5\n        /* \"#utility.yul\":9775:9791   */\n      lt\n        /* \"#utility.yul\":9770:9772   */\n      0x0b\n        /* \"#utility.yul\":9764:9768   */\n      dup5\n        /* \"#utility.yul\":9761:9773   */\n      lt\n        /* \"#utility.yul\":9757:9792   */\n      and\n        /* \"#utility.yul\":9741:9852   */\n      or\n        /* \"#utility.yul\":9738:9984   */\n      iszero\n      tag_607\n      jumpi\n        /* \"#utility.yul\":9894:9902   */\n      dup3\n        /* \"#utility.yul\":9888:9892   */\n      dup3\n        /* \"#utility.yul\":9884:9903   */\n      exp\n        /* \"#utility.yul\":9875:9903   */\n      swap1\n      pop\n        /* \"#utility.yul\":9929:9932   */\n      dup4\n        /* \"#utility.yul\":9922:9927   */\n      dup2\n        /* \"#utility.yul\":9919:9933   */\n      gt\n        /* \"#utility.yul\":9916:9956   */\n      iszero\n      tag_608\n      jumpi\n        /* \"#utility.yul\":9936:9954   */\n      tag_609\n      tag_484\n      jump\t// in\n    tag_609:\n        /* \"#utility.yul\":9916:9956   */\n    tag_608:\n        /* \"#utility.yul\":9969:9974   */\n      jump(tag_597)\n        /* \"#utility.yul\":9738:9984   */\n    tag_607:\n        /* \"#utility.yul\":10009:10051   */\n      tag_610\n        /* \"#utility.yul\":10047:10050   */\n      dup5\n        /* \"#utility.yul\":10037:10045   */\n      dup5\n        /* \"#utility.yul\":10031:10035   */\n      dup5\n        /* \"#utility.yul\":10028:10029   */\n      0x01\n        /* \"#utility.yul\":10009:10051   */\n      tag_486\n      jump\t// in\n    tag_610:\n        /* \"#utility.yul\":9994:10051   */\n      swap3\n      pop\n      swap1\n      pop\n        /* \"#utility.yul\":10083:10087   */\n      dup2\n        /* \"#utility.yul\":10078:10081   */\n      dup5\n        /* \"#utility.yul\":10074:10088   */\n      div\n        /* \"#utility.yul\":10067:10072   */\n      dup2\n        /* \"#utility.yul\":10064:10089   */\n      gt\n        /* \"#utility.yul\":10061:10112   */\n      iszero\n      tag_611\n      jumpi\n        /* \"#utility.yul\":10092:10110   */\n      tag_612\n      tag_484\n      jump\t// in\n    tag_612:\n        /* \"#utility.yul\":10061:10112   */\n    tag_611:\n        /* \"#utility.yul\":10141:10145   */\n      dup2\n        /* \"#utility.yul\":10134:10139   */\n      dup2\n        /* \"#utility.yul\":10130:10146   */\n      mul\n        /* \"#utility.yul\":10121:10146   */\n      swap1\n      pop\n        /* \"#utility.yul\":9079:10152   */\n    tag_597:\n      swap4\n      swap3\n      pop\n      pop\n      pop\n      jump\t// out\n        /* \"#utility.yul\":10158:10439   */\n    tag_233:\n        /* \"#utility.yul\":10216:10221   */\n      0x00\n        /* \"#utility.yul\":10240:10263   */\n      tag_614\n        /* \"#utility.yul\":10258:10262   */\n      dup3\n        /* \"#utility.yul\":10240:10263   */\n      tag_472\n      jump\t// in\n    tag_614:\n        /* \"#utility.yul\":10232:10263   */\n      swap2\n      pop\n        /* \"#utility.yul\":10284:10309   */\n      tag_615\n        /* \"#utility.yul\":10300:10308   */\n      dup4\n        /* \"#utility.yul\":10284:10309   */\n      tag_478\n      jump\t// in\n    tag_615:\n        /* \"#utility.yul\":10272:10309   */\n      swap3\n      pop\n        /* \"#utility.yul\":10328:10432   */\n      tag_616\n        /* \"#utility.yul\":10365:10431   */\n      0xffffffffffffffffffffffffffffffffffffffffffffffffffffffffffffffff\n        /* \"#utility.yul\":10355:10363   */\n      dup5\n        /* \"#utility.yul\":10349:10353   */\n      dup5\n        /* \"#utility.yul\":10328:10432   */\n      tag_487\n      jump\t// in\n    tag_616:\n        /* \"#utility.yul\":10319:10432   */\n      swap1\n      pop\n        /* \"#utility.yul\":10158:10439   */\n      swap3\n      swap2\n      pop\n      pop\n      jump\t// out\n        /* \"#utility.yul\":10445:10855   */\n    tag_235:\n        /* \"#utility.yul\":10485:10492   */\n      0x00\n        /* \"#utility.yul\":10508:10528   */\n      tag_618\n        /* \"#utility.yul\":10526:10527   */\n      dup3\n        /* \"#utility.yul\":10508:10528   */\n      tag_472\n      jump\t// in\n    tag_618:\n        /* \"#utility.yul\":10503:10528   */\n      swap2\n      pop\n        /* \"#utility.yul\":10542:10562   */\n      tag_619\n        /* \"#utility.yul\":10560:10561   */\n      dup4\n        /* \"#utility.yul\":10542:10562   */\n      tag_472\n      jump\t// in\n    tag_619:\n        /* \"#utility.yul\":10537:10562   */\n      swap3\n      pop\n        /* \"#utility.yul\":10597:10598   */\n      dup3\n        /* \"#utility.yul\":10594:10595   */\n      dup3\n        /* \"#utility.yul\":10590:10599   */\n      mul\n        /* \"#utility.yul\":10619:10649   */\n      tag_620\n        /* \"#utility.yul\":10637:10648   */\n      dup2\n        /* \"#utility.yul\":10619:10649   */\n      tag_472\n      jump\t// in\n    tag_620:\n        /* \"#utility.yul\":10608:10649   */\n      swap2\n      pop\n        /* \"#utility.yul\":10798:10799   */\n      dup3\n        /* \"#utility.yul\":10789:10796   */\n      dup3\n        /* \"#utility.yul\":10785:10800   */\n      div\n        /* \"#utility.yul\":10782:10783   */\n      dup5\n        /* \"#utility.yul\":10779:10801   */\n      eq\n        /* \"#utility.yul\":10759:10760   */\n      dup4\n        /* \"#utility.yul\":10752:10761   */\n      iszero\n        /* \"#utility.yul\":10732:10815   */\n      or\n        /* \"#utility.yul\":10709:10848   */\n      tag_621\n      jumpi\n        /* \"#utility.yul\":10828:10846   */\n      tag_622\n      tag_484\n      jump\t// in\n    tag_622:\n        /* \"#utility.yul\":10709:10848   */\n    tag_621:\n        /* \"#utility.yul\":10493:10855   */\n      pop\n        /* \"#utility.yul\":10445:10855   */\n      swap3\n      swap2\n      pop\n      pop\n      jump\t// out\n        /* \"#utility.yul\":10861:11041   */\n    tag_488:\n        /* \"#utility.yul\":10909:10986   */\n      0x4e487b7100000000000000000000000000000000000000000000000000000000\n        /* \"#utility.yul\":10906:10907   */\n      0x00\n        /* \"#utility.yul\":10899:10987   */\n      mstore\n        /* \"#utility.yul\":11006:11010   */\n      0x12\n        /* \"#utility.yul\":11003:11004   */\n      0x04\n        /* \"#utility.yul\":10996:11011   */\n      mstore\n        /* \"#utility.yul\":11030:11034   */\n      0x24\n        /* \"#utility.yul\":11027:11028   */\n      0x00\n        /* \"#utility.yul\":11020:11035   */\n      revert\n        /* \"#utility.yul\":11047:11223   */\n    tag_237:\n        /* \"#utility.yul\":11079:11080   */\n      0x00\n        /* \"#utility.yul\":11096:11116   */\n      tag_625\n        /* \"#utility.yul\":11114:11115   */\n      dup3\n        /* \"#utility.yul\":11096:11116   */\n      tag_472\n      jump\t// in\n    tag_625:\n        /* \"#utility.yul\":11091:11116   */\n      swap2\n      pop\n        /* \"#utility.yul\":11130:11150   */\n      tag_626\n        /* \"#utility.yul\":11148:11149   */\n      dup4\n        /* \"#utility.yul\":11130:11150   */\n      tag_472\n      jump\t// in\n    tag_626:\n        /* \"#utility.yul\":11125:11150   */\n      swap3\n      pop\n        /* \"#utility.yul\":11169:11170   */\n      dup3\n        /* \"#utility.yul\":11159:11194   */\n      tag_627\n      jumpi\n        /* \"#utility.yul\":11174:11192   */\n      tag_628\n      tag_488\n      jump\t// in\n    tag_628:\n        /* \"#utility.yul\":11159:11194   */\n    tag_627:\n        /* \"#utility.yul\":11215:11216   */\n      dup3\n        /* \"#utility.yul\":11212:11213   */\n      dup3\n        /* \"#utility.yul\":11208:11217   */\n      mod\n        /* \"#utility.yul\":11203:11217   */\n      swap1\n      pop\n        /* \"#utility.yul\":11047:11223   */\n      swap3\n      swap2\n      pop\n      pop\n      jump\t// out\n        /* \"#utility.yul\":11229:11423   */\n    tag_239:\n        /* \"#utility.yul\":11269:11273   */\n      0x00\n        /* \"#utility.yul\":11289:11309   */\n      tag_630\n        /* \"#utility.yul\":11307:11308   */\n      dup3\n        /* \"#utility.yul\":11289:11309   */\n      tag_472\n      jump\t// in\n    tag_630:\n        /* \"#utility.yul\":11284:11309   */\n      swap2\n      pop\n        /* \"#utility.yul\":11323:11343   */\n      tag_631\n        /* \"#utility.yul\":11341:11342   */\n      dup4\n        /* \"#utility.yul\":11323:11343   */\n      tag_472\n      jump\t// in\n    tag_631:\n        /* \"#utility.yul\":11318:11343   */\n      swap3\n      pop\n        /* \"#utility.yul\":11367:11368   */\n      dup3\n        /* \"#utility.yul\":11364:11365   */\n      dup3\n        /* \"#utility.yul\":11360:11369   */\n      sub\n        /* \"#utility.yul\":11352:11369   */\n      swap1\n      pop\n        /* \"#utility.yul\":11391:11392   */\n      dup2\n        /* \"#utility.yul\":11385:11389   */\n      dup2\n        /* \"#utility.yul\":11382:11393   */\n      gt\n        /* \"#utility.yul\":11379:11416   */\n      iszero\n      tag_632\n      jumpi\n        /* \"#utility.yul\":11396:11414   */\n      tag_633\n      tag_484\n      jump\t// in\n    tag_633:\n        /* \"#utility.yul\":11379:11416   */\n    tag_632:\n        /* \"#utility.yul\":11229:11423   */\n      swap3\n      swap2\n      pop\n      pop\n      jump\t// out\n        /* \"#utility.yul\":11429:11675   */\n    tag_489:\n        /* \"#utility.yul\":11569:11603   */\n      0x6f6e6c7920636f6e747261637420616464726573732c206e6f7420616c6c6f77\n        /* \"#utility.yul\":11565:11566   */\n      0x00\n        /* \"#utility.yul\":11557:11563   */\n      dup3\n        /* \"#utility.yul\":11553:11567   */\n      add\n        /* \"#utility.yul\":11546:11604   */\n      mstore\n        /* \"#utility.yul\":11638:11667   */\n      0x6564206578746572616e6c6c79206f776e6564206163636f756e740000000000\n        /* \"#utility.yul\":11633:11635   */\n      0x20\n        /* \"#utility.yul\":11625:11631   */\n      dup3\n        /* \"#utility.yul\":11621:11636   */\n      add\n        /* \"#utility.yul\":11614:11668   */\n      mstore\n        /* \"#utility.yul\":11429:11675   */\n      pop\n      jump\t// out\n        /* \"#utility.yul\":11681:12047   */\n    tag_490:\n        /* \"#utility.yul\":11823:11826   */\n      0x00\n        /* \"#utility.yul\":11844:11911   */\n      tag_636\n        /* \"#utility.yul\":11908:11910   */\n      0x3b\n        /* \"#utility.yul\":11903:11906   */\n      dup4\n        /* \"#utility.yul\":11844:11911   */\n      tag_461\n      jump\t// in\n    tag_636:\n        /* \"#utility.yul\":11837:11911   */\n      swap2\n      pop\n        /* \"#utility.yul\":11920:12013   */\n      tag_637\n        /* \"#utility.yul\":12009:12012   */\n      dup3\n        /* \"#utility.yul\":11920:12013   */\n      tag_489\n      jump\t// in\n    tag_637:\n        /* \"#utility.yul\":12038:12040   */\n      0x40\n        /* \"#utility.yul\":12033:12036   */\n      dup3\n        /* \"#utility.yul\":12029:12041   */\n      add\n        /* \"#utility.yul\":12022:12041   */\n      swap1\n      pop\n        /* \"#utility.yul\":11681:12047   */\n      swap2\n      swap1\n      pop\n      jump\t// out\n        /* \"#utility.yul\":12053:12472   */\n    tag_255:\n        /* \"#utility.yul\":12219:12223   */\n      0x00\n        /* \"#utility.yul\":12257:12259   */\n      0x20\n        /* \"#utility.yul\":12246:12255   */\n      dup3\n        /* \"#utility.yul\":12242:12260   */\n      add\n        /* \"#utility.yul\":12234:12260   */\n      swap1\n      pop\n        /* \"#utility.yul\":12306:12315   */\n      dup2\n        /* \"#utility.yul\":12300:12304   */\n      dup2\n        /* \"#utility.yul\":12296:12316   */\n      sub\n        /* \"#utility.yul\":12292:12293   */\n      0x00\n        /* \"#utility.yul\":12281:12290   */\n      dup4\n        /* \"#utility.yul\":12277:12294   */\n      add\n        /* \"#utility.yul\":12270:12317   */\n      mstore\n        /* \"#utility.yul\":12334:12465   */\n      tag_639\n        /* \"#utility.yul\":12460:12464   */\n      dup2\n        /* \"#utility.yul\":12334:12465   */\n      tag_490\n      jump\t// in\n    tag_639:\n        /* \"#utility.yul\":12326:12465   */\n      swap1\n      pop\n        /* \"#utility.yul\":12053:12472   */\n      swap2\n      swap1\n      pop\n      jump\t// out\n        /* \"#utility.yul\":12478:12621   */\n    tag_491:\n        /* \"#utility.yul\":12535:12540   */\n      0x00\n        /* \"#utility.yul\":12566:12572   */\n      dup2\n        /* \"#utility.yul\":12560:12573   */\n      mload\n        /* \"#utility.yul\":12551:12573   */\n      swap1\n      pop\n        /* \"#utility.yul\":12582:12615   */\n      tag_641\n        /* \"#utility.yul\":12609:12614   */\n      dup2\n        /* \"#utility.yul\":12582:12615   */\n      tag_470\n      jump\t// in\n    tag_641:\n        /* \"#utility.yul\":12478:12621   */\n      swap3\n      swap2\n      pop\n      pop\n      jump\t// out\n        /* \"#utility.yul\":12627:12978   */\n    tag_304:\n        /* \"#utility.yul\":12697:12703   */\n      0x00\n        /* \"#utility.yul\":12746:12748   */\n      0x20\n        /* \"#utility.yul\":12734:12743   */\n      dup3\n        /* \"#utility.yul\":12725:12732   */\n      dup5\n        /* \"#utility.yul\":12721:12744   */\n      sub\n        /* \"#utility.yul\":12717:12749   */\n      slt\n        /* \"#utility.yul\":12714:12833   */\n      iszero\n      tag_643\n      jumpi\n        /* \"#utility.yul\":12752:12831   */\n      tag_644\n      tag_466\n      jump\t// in\n    tag_644:\n        /* \"#utility.yul\":12714:12833   */\n    tag_643:\n        /* \"#utility.yul\":12872:12873   */\n      0x00\n        /* \"#utility.yul\":12897:12961   */\n      tag_645\n        /* \"#utility.yul\":12953:12960   */\n      dup5\n        /* \"#utility.yul\":12944:12950   */\n      dup3\n        /* \"#utility.yul\":12933:12942   */\n      dup6\n        /* \"#utility.yul\":12929:12951   */\n      add\n        /* \"#utility.yul\":12897:12961   */\n      tag_491\n      jump\t// in\n    tag_645:\n        /* \"#utility.yul\":12887:12961   */\n      swap2\n      pop\n        /* \"#utility.yul\":12843:12971   */\n      pop\n        /* \"#utility.yul\":12627:12978   */\n      swap3\n      swap2\n      pop\n      pop\n      jump\t// out\n        /* \"#utility.yul\":12984:13316   */\n    tag_309:\n        /* \"#utility.yul\":13105:13109   */\n      0x00\n        /* \"#utility.yul\":13143:13145   */\n      0x40\n        /* \"#utility.yul\":13132:13141   */\n      dup3\n        /* \"#utility.yul\":13128:13146   */\n      add\n        /* \"#utility.yul\":13120:13146   */\n      swap1\n      pop\n        /* \"#utility.yul\":13156:13227   */\n      tag_647\n        /* \"#utility.yul\":13224:13225   */\n      0x00\n        /* \"#utility.yul\":13213:13222   */\n      dup4\n        /* \"#utility.yul\":13209:13226   */\n      add\n        /* \"#utility.yul\":13200:13206   */\n      dup6\n        /* \"#utility.yul\":13156:13227   */\n      tag_482\n      jump\t// in\n    tag_647:\n        /* \"#utility.yul\":13237:13309   */\n      tag_648\n        /* \"#utility.yul\":13305:13307   */\n      0x20\n        /* \"#utility.yul\":13294:13303   */\n      dup4\n        /* \"#utility.yul\":13290:13308   */\n      add\n        /* \"#utility.yul\":13281:13287   */\n      dup5\n        /* \"#utility.yul\":13237:13309   */\n      tag_482\n      jump\t// in\n    tag_648:\n        /* \"#utility.yul\":12984:13316   */\n      swap4\n      swap3\n      pop\n      pop\n      pop\n      jump\t// out\n        /* \"#utility.yul\":13322:13484   */\n    tag_492:\n        /* \"#utility.yul\":13462:13476   */\n      0x696e5f626c61636b6c6973740000000000000000000000000000000000000000\n        /* \"#utility.yul\":13458:13459   */\n      0x00\n        /* \"#utility.yul\":13450:13456   */\n      dup3\n        /* \"#utility.yul\":13446:13460   */\n      add\n        /* \"#utility.yul\":13439:13477   */\n      mstore\n        /* \"#utility.yul\":13322:13484   */\n      pop\n      jump\t// out\n        /* \"#utility.yul\":13490:13856   */\n    tag_493:\n        /* \"#utility.yul\":13632:13635   */\n      0x00\n        /* \"#utility.yul\":13653:13720   */\n      tag_651\n        /* \"#utility.yul\":13717:13719   */\n      0x0c\n        /* \"#utility.yul\":13712:13715   */\n      dup4\n        /* \"#utility.yul\":13653:13720   */\n      tag_461\n      jump\t// in\n    tag_651:\n        /* \"#utility.yul\":13646:13720   */\n      swap2\n      pop\n        /* \"#utility.yul\":13729:13822   */\n      tag_652\n        /* \"#utility.yul\":13818:13821   */\n      dup3\n        /* \"#utility.yul\":13729:13822   */\n      tag_492\n      jump\t// in\n    tag_652:\n        /* \"#utility.yul\":13847:13849   */\n      0x20\n        /* \"#utility.yul\":13842:13845   */\n      dup3\n        /* \"#utility.yul\":13838:13850   */\n      add\n        /* \"#utility.yul\":13831:13850   */\n      swap1\n      pop\n        /* \"#utility.yul\":13490:13856   */\n      swap2\n      swap1\n      pop\n      jump\t// out\n        /* \"#utility.yul\":13862:14281   */\n    tag_334:\n        /* \"#utility.yul\":14028:14032   */\n      0x00\n        /* \"#utility.yul\":14066:14068   */\n      0x20\n        /* \"#utility.yul\":14055:14064   */\n      dup3\n        /* \"#utility.yul\":14051:14069   */\n      add\n        /* \"#utility.yul\":14043:14069   */\n      swap1\n      pop\n        /* \"#utility.yul\":14115:14124   */\n      dup2\n        /* \"#utility.yul\":14109:14113   */\n      dup2\n        /* \"#utility.yul\":14105:14125   */\n      sub\n        /* \"#utility.yul\":14101:14102   */\n      0x00\n        /* \"#utility.yul\":14090:14099   */\n      dup4\n        /* \"#utility.yul\":14086:14103   */\n      add\n        /* \"#utility.yul\":14079:14126   */\n      mstore\n        /* \"#utility.yul\":14143:14274   */\n      tag_654\n        /* \"#utility.yul\":14269:14273   */\n      dup2\n        /* \"#utility.yul\":14143:14274   */\n      tag_493\n      jump\t// in\n    tag_654:\n        /* \"#utility.yul\":14135:14274   */\n      swap1\n      pop\n        /* \"#utility.yul\":13862:14281   */\n      swap2\n      swap1\n      pop\n      jump\t// out\n        /* \"#utility.yul\":14287:14472   */\n    tag_361:\n        /* \"#utility.yul\":14327:14328   */\n      0x00\n        /* \"#utility.yul\":14344:14364   */\n      tag_656\n        /* \"#utility.yul\":14362:14363   */\n      dup3\n        /* \"#utility.yul\":14344:14364   */\n      tag_472\n      jump\t// in\n    tag_656:\n        /* \"#utility.yul\":14339:14364   */\n      swap2\n      pop\n        /* \"#utility.yul\":14378:14398   */\n      tag_657\n        /* \"#utility.yul\":14396:14397   */\n      dup4\n        /* \"#utility.yul\":14378:14398   */\n      tag_472\n      jump\t// in\n    tag_657:\n        /* \"#utility.yul\":14373:14398   */\n      swap3\n      pop\n        /* \"#utility.yul\":14417:14418   */\n      dup3\n        /* \"#utility.yul\":14407:14442   */\n      tag_658\n      jumpi\n        /* \"#utility.yul\":14422:14440   */\n      tag_659\n      tag_488\n      jump\t// in\n    tag_659:\n        /* \"#utility.yul\":14407:14442   */\n    tag_658:\n        /* \"#utility.yul\":14464:14465   */\n      dup3\n        /* \"#utility.yul\":14461:14462   */\n      dup3\n        /* \"#utility.yul\":14457:14466   */\n      div\n        /* \"#utility.yul\":14452:14466   */\n      swap1\n      pop\n        /* \"#utility.yul\":14287:14472   */\n      swap3\n      swap2\n      pop\n      pop\n      jump\t// out\n        /* \"#utility.yul\":14478:14669   */\n    tag_365:\n        /* \"#utility.yul\":14518:14521   */\n      0x00\n        /* \"#utility.yul\":14537:14557   */\n      tag_661\n        /* \"#utility.yul\":14555:14556   */\n      dup3\n        /* \"#utility.yul\":14537:14557   */\n      tag_472\n      jump\t// in\n    tag_661:\n        /* \"#utility.yul\":14532:14557   */\n      swap2\n      pop\n        /* \"#utility.yul\":14571:14591   */\n      tag_662\n        /* \"#utility.yul\":14589:14590   */\n      dup4\n        /* \"#utility.yul\":14571:14591   */\n      tag_472\n      jump\t// in\n    tag_662:\n        /* \"#utility.yul\":14566:14591   */\n      swap3\n      pop\n        /* \"#utility.yul\":14614:14615   */\n      dup3\n        /* \"#utility.yul\":14611:14612   */\n      dup3\n        /* \"#utility.yul\":14607:14616   */\n      add\n        /* \"#utility.yul\":14600:14616   */\n      swap1\n      pop\n        /* \"#utility.yul\":14635:14638   */\n      dup1\n        /* \"#utility.yul\":14632:14633   */\n      dup3\n        /* \"#utility.yul\":14629:14639   */\n      gt\n        /* \"#utility.yul\":14626:14662   */\n      iszero\n      tag_663\n      jumpi\n        /* \"#utility.yul\":14642:14660   */\n      tag_664\n      tag_484\n      jump\t// in\n    tag_664:\n        /* \"#utility.yul\":14626:14662   */\n    tag_663:\n        /* \"#utility.yul\":14478:14669   */\n      swap3\n      swap2\n      pop\n      pop\n      jump\t// out\n        /* \"#utility.yul\":14675:14855   */\n    tag_446:\n        /* \"#utility.yul\":14723:14800   */\n      0x4e487b7100000000000000000000000000000000000000000000000000000000\n        /* \"#utility.yul\":14720:14721   */\n      0x00\n        /* \"#utility.yul\":14713:14801   */\n      mstore\n        /* \"#utility.yul\":14820:14824   */\n      0x32\n        /* \"#utility.yul\":14817:14818   */\n      0x04\n        /* \"#utility.yul\":14810:14825   */\n      mstore\n        /* \"#utility.yul\":14844:14848   */\n      0x24\n        /* \"#utility.yul\":14841:14842   */\n      0x00\n        /* \"#utility.yul\":14834:14849   */\n      revert\n\n    auxdata: 0xa26469706673582212208d73ff07aa31d8d5d098d258071a62f76cf5f7511e63b1a41801b7d0fe66591964736f6c63430008180033\n}\n",
				"bytecode": {
					"linkReferences": {},
					"object": "608060405260636003556102586004555f601260146101000a81548160ff02191690831515021790555034801562000035575f80fd5b506040518060400160405280600481526020017f424f4d42000000000000000000000000000000000000000000000000000000008152506040518060400160405280600481526020017f424f4d42000000000000000000000000000000000000000000000000000000008152506005825f9081620000b49190620004e5565b508160019081620000c69190620004e5565b508060025f6101000a81548160ff021916908360ff16021790555050505033600260016101000a81548173ffffffffffffffffffffffffffffffffffffffff021916908373ffffffffffffffffffffffffffffffffffffffff1602179055506005600a62000135919062000752565b6204f588620001459190620007a2565b6008819055506200019d6008546005600a62000162919062000752565b6204f588620001729190620007a2565b5f1962000180919062000819565b5f196200018e919062000850565b6200026a60201b90919060201c565b6009819055504260068190555042600781905550600160055f6101000a81548160ff0219169083151502179055506001600e5f3073ffffffffffffffffffffffffffffffffffffffff1673ffffffffffffffffffffffffffffffffffffffff1681526020019081526020015f205f6101000a81548160ff021916908315150217905550600854600c5f3373ffffffffffffffffffffffffffffffffffffffff1673ffffffffffffffffffffffffffffffffffffffff1681526020019081526020015f2081905550620008c1565b5f81836200027991906200088a565b905092915050565b5f81519050919050565b7f4e487b71000000000000000000000000000000000000000000000000000000005f52604160045260245ffd5b7f4e487b71000000000000000000000000000000000000000000000000000000005f52602260045260245ffd5b5f6002820490506001821680620002fd57607f821691505b602082108103620003135762000312620002b8565b5b50919050565b5f819050815f5260205f209050919050565b5f6020601f8301049050919050565b5f82821b905092915050565b5f60088302620003777fffffffffffffffffffffffffffffffffffffffffffffffffffffffffffffffff826200033a565b6200038386836200033a565b95508019841693508086168417925050509392505050565b5f819050919050565b5f819050919050565b5f620003cd620003c7620003c1846200039b565b620003a4565b6200039b565b9050919050565b5f819050919050565b620003e883620003ad565b62000400620003f782620003d4565b84845462000346565b825550505050565b5f90565b6200041662000408565b62000423818484620003dd565b505050565b5b818110156200044a576200043e5f826200040c565b60018101905062000429565b5050565b601f8211156200049957620004638162000319565b6200046e846200032b565b810160208510156200047e578190505b620004966200048d856200032b565b83018262000428565b50505b505050565b5f82821c905092915050565b5f620004bb5f19846008026200049e565b1980831691505092915050565b5f620004d58383620004aa565b9150826002028217905092915050565b620004f08262000281565b67ffffffffffffffff8111156200050c576200050b6200028b565b5b620005188254620002e5565b620005258282856200044e565b5f60209050601f8311600181146200055b575f841562000546578287015190505b620005528582620004c8565b865550620005c1565b601f1984166200056b8662000319565b5f5b8281101562000594578489015182556001820191506020850194506020810190506200056d565b86831015620005b45784890151620005b0601f891682620004aa565b8355505b6001600288020188555050505b505050505050565b7f4e487b71000000000000000000000000000000000000000000000000000000005f52601160045260245ffd5b5f8160011c9050919050565b5f808291508390505b600185111562000653578086048111156200062b576200062a620005c9565b5b60018516156200063b5780820291505b80810290506200064b85620005f6565b94506200060b565b94509492505050565b5f826200066d57600190506200073f565b816200067c575f90506200073f565b8160018114620006955760028114620006a057620006d6565b60019150506200073f565b60ff841115620006b557620006b4620005c9565b5b8360020a915084821115620006cf57620006ce620005c9565b5b506200073f565b5060208310610133831016604e8410600b8410161715620007105782820a9050838111156200070a5762000709620005c9565b5b6200073f565b6200071f848484600162000602565b92509050818404811115620007395762000738620005c9565b5b81810290505b9392505050565b5f60ff82169050919050565b5f6200075e826200039b565b91506200076b8362000746565b92506200079a7fffffffffffffffffffffffffffffffffffffffffffffffffffffffffffffffff84846200065c565b905092915050565b5f620007ae826200039b565b9150620007bb836200039b565b9250828202620007cb816200039b565b91508282048414831517620007e557620007e4620005c9565b5b5092915050565b7f4e487b71000000000000000000000000000000000000000000000000000000005f52601260045260245ffd5b5f62000825826200039b565b915062000832836200039b565b925082620008455762000844620007ec565b5b828206905092915050565b5f6200085c826200039b565b915062000869836200039b565b9250828203905081811115620008845762000883620005c9565b5b92915050565b5f62000896826200039b565b9150620008a3836200039b565b925082620008b657620008b5620007ec565b5b828204905092915050565b61317980620008cf5f395ff3fe608060405260043610610207575f3560e01c806383b4ac6811610117578063ae06c1b71161009f578063d43997901161006e578063d439979014610736578063dd62ed3e14610772578063e15beb80146107ae578063eb531c57146107d6578063f2fde38b146108005761020e565b8063ae06c1b7146106a4578063afb9cf6d146106cc578063b349b973146106f6578063c737a49b1461070c5761020e565b806395d89b41116100e657806395d89b411461059c5780639b87676c146105c6578063a20623ce146105f0578063a457c2d71461062c578063a9059cbb146106685761020e565b806383b4ac68146104f6578063854cff2f146105205780638da5cb5b146105485780638f32d59b146105725761020e565b806331b216ed1161019a5780633eaaf86b116101695780633eaaf86b1461043a578063692229481461046457806370a082311461048e578063715018a6146104ca578063753d02a1146104e05761020e565b806331b216ed1461038257806332b75683146103ac57806337c9be87146103d657806339509351146103fe5761020e565b80632910164a116101d65780632910164a146102de5780632b112e49146103065780632f34d28214610330578063313ce567146103585761020e565b806306fdde0314610212578063095ea7b31461023c57806318160ddd1461027857806323b872dd146102a25761020e565b3661020e57005b5f80fd5b34801561021d575f80fd5b50610226610828565b6040516102339190612966565b60405180910390f35b348015610247575f80fd5b50610262600480360381019061025d9190612a17565b6108b7565b60405161026f9190612a6f565b60405180910390f35b348015610283575f80fd5b5061028c6109a4565b6040516102999190612a97565b60405180910390f35b3480156102ad575f80fd5b506102c860048036038101906102c39190612ab0565b6109ad565b6040516102d59190612a6f565b60405180910390f35b3480156102e9575f80fd5b5061030460048036038101906102ff9190612b00565b610bd2565b005b348015610311575f80fd5b5061031a610bec565b6040516103279190612a97565b60405180910390f35b34801561033b575f80fd5b5061035660048036038101906103519190612b2b565b610cda565b005b348015610363575f80fd5b5061036c610d90565b6040516103799190612b71565b60405180910390f35b34801561038d575f80fd5b50610396610da5565b6040516103a39190612a6f565b60405180910390f35b3480156103b7575f80fd5b506103c0610db7565b6040516103cd9190612a97565b60405180910390f35b3480156103e1575f80fd5b506103fc60048036038101906103f79190612bb4565b610dbd565b005b348015610409575f80fd5b50610424600480360381019061041f9190612a17565b610e6d565b6040516104319190612a6f565b60405180910390f35b348015610445575f80fd5b5061044e61105c565b60405161045b9190612a97565b60405180910390f35b34801561046f575f80fd5b50610478611062565b6040516104859190612a97565b60405180910390f35b348015610499575f80fd5b506104b460048036038101906104af9190612b2b565b611068565b6040516104c19190612a97565b60405180910390f35b3480156104d5575f80fd5b506104de6110c2565b005b3480156104eb575f80fd5b506104f461117a565b005b348015610501575f80fd5b5061050a6111f9565b6040516105179190612a6f565b60405180910390f35b34801561052b575f80fd5b5061054660048036038101906105419190612b2b565b611210565b005b348015610553575f80fd5b5061055c611278565b6040516105699190612c01565b60405180910390f35b34801561057d575f80fd5b506105866112a1565b6040516105939190612a6f565b60405180910390f35b3480156105a7575f80fd5b506105b06112f8565b6040516105bd9190612966565b60405180910390f35b3480156105d1575f80fd5b506105da611388565b6040516105e79190612a97565b60405180910390f35b3480156105fb575f80fd5b5061061660048036038101906106119190612b2b565b61138e565b6040516106239190612a6f565b60405180910390f35b348015610637575f80fd5b50610652600480360381019061064d9190612a17565b6113ab565b60405161065f9190612a6f565b60405180910390f35b348015610673575f80fd5b5061068e60048036038101906106899190612a17565b611629565b60405161069b9190612a6f565b60405180910390f35b3480156106af575f80fd5b506106ca60048036038101906106c59190612b00565b611679565b005b3480156106d7575f80fd5b506106e0611693565b6040516106ed9190612a6f565b60405180910390f35b348015610701575f80fd5b5061070a6116a5565b005b348015610717575f80fd5b50610720611956565b60405161072d9190612a97565b60405180910390f35b348015610741575f80fd5b5061075c60048036038101906107579190612b2b565b61195c565b6040516107699190612a6f565b60405180910390f35b34801561077d575f80fd5b5061079860048036038101906107939190612c1a565b6119ae565b6040516107a59190612a97565b60405180910390f35b3480156107b9575f80fd5b506107d460048036038101906107cf9190612c58565b611a30565b005b3480156107e1575f80fd5b506107ea611a88565b6040516107f79190612c01565b60405180910390f35b34801561080b575f80fd5b5061082660048036038101906108219190612b2b565b611aae565b005b60605f805461083690612cb0565b80601f016020809104026020016040519081016040528092919081815260200182805461086290612cb0565b80156108ad5780601f10610884576101008083540402835291602001916108ad565b820191905f5260205f20905b81548152906001019060200180831161089057829003601f168201915b5050505050905090565b5f8160135f3373ffffffffffffffffffffffffffffffffffffffff1673ffffffffffffffffffffffffffffffffffffffff1681526020019081526020015f205f8573ffffffffffffffffffffffffffffffffffffffff1673ffffffffffffffffffffffffffffffffffffffff1681526020019081526020015f20819055508273ffffffffffffffffffffffffffffffffffffffff163373ffffffffffffffffffffffffffffffffffffffff167f8c5be1e5ebec7d5bd14f71427d1e84f3dd0314c0f7b2291e5b200ac8c7c3b925846040516109929190612a97565b60405180910390a36001905092915050565b5f600854905090565b5f825f73ffffffffffffffffffffffffffffffffffffffff168173ffffffffffffffffffffffffffffffffffffffff16036109e6575f80fd5b3073ffffffffffffffffffffffffffffffffffffffff168573ffffffffffffffffffffffffffffffffffffffff16148015610a6d575060115f9054906101000a900473ffffffffffffffffffffffffffffffffffffffff1673ffffffffffffffffffffffffffffffffffffffff168473ffffffffffffffffffffffffffffffffffffffff16145b15610a7b5760019150610bca565b610b3d836040518060400160405280601681526020017f496e73756666696369656e7420416c6c6f77616e63650000000000000000000081525060135f8973ffffffffffffffffffffffffffffffffffffffff1673ffffffffffffffffffffffffffffffffffffffff1681526020019081526020015f205f3373ffffffffffffffffffffffffffffffffffffffff1673ffffffffffffffffffffffffffffffffffffffff1681526020019081526020015f2054611aca9092919063ffffffff16565b60135f8773ffffffffffffffffffffffffffffffffffffffff1673ffffffffffffffffffffffffffffffffffffffff1681526020019081526020015f205f3373ffffffffffffffffffffffffffffffffffffffff1673ffffffffffffffffffffffffffffffffffffffff1681526020019081526020015f2081905550610bc4858585611b1e565b50600191505b509392505050565b610bda6112a1565b610be2575f80fd5b8060048190555050565b5f610cd5600954610cc7600c5f8073ffffffffffffffffffffffffffffffffffffffff1673ffffffffffffffffffffffffffffffffffffffff1681526020019081526020015f2054610cb9600c5f61dead73ffffffffffffffffffffffffffffffffffffffff1673ffffffffffffffffffffffffffffffffffffffff1681526020019081526020015f20546005600a610c859190612e3c565b6204f588610c939190612e86565b5f19610c9f9190612ef4565b5f19610cab9190612f24565b611d0e90919063ffffffff16565b611d0e90919063ffffffff16565b611d2390919063ffffffff16565b905090565b610ce26112a1565b610cea575f80fd5b80600560016101000a81548173ffffffffffffffffffffffffffffffffffffffff021916908373ffffffffffffffffffffffffffffffffffffffff160217905550600560019054906101000a900473ffffffffffffffffffffffffffffffffffffffff1660125f6101000a81548173ffffffffffffffffffffffffffffffffffffffff021916908373ffffffffffffffffffffffffffffffffffffffff16021790555050565b5f60025f9054906101000a900460ff16905090565b600b5f9054906101000a900460ff1681565b60075481565b610dc56112a1565b610dcd575f80fd5b610dd682611d38565b610e15576040517f08c379a0000000000000000000000000000000000000000000000000000000008152600401610e0c90612fc7565b60405180910390fd5b80600f5f8473ffffffffffffffffffffffffffffffffffffffff1673ffffffffffffffffffffffffffffffffffffffff1681526020019081526020015f205f6101000a81548160ff0219169083151502179055505050565b5f610ef98260135f3373ffffffffffffffffffffffffffffffffffffffff1673ffffffffffffffffffffffffffffffffffffffff1681526020019081526020015f205f8673ffffffffffffffffffffffffffffffffffffffff1673ffffffffffffffffffffffffffffffffffffffff1681526020019081526020015f2054611d4990919063ffffffff16565b60135f3373ffffffffffffffffffffffffffffffffffffffff1673ffffffffffffffffffffffffffffffffffffffff1681526020019081526020015f205f8573ffffffffffffffffffffffffffffffffffffffff1673ffffffffffffffffffffffffffffffffffffffff1681526020019081526020015f20819055508273ffffffffffffffffffffffffffffffffffffffff163373ffffffffffffffffffffffffffffffffffffffff167f8c5be1e5ebec7d5bd14f71427d1e84f3dd0314c0f7b2291e5b200ac8c7c3b92560135f3373ffffffffffffffffffffffffffffffffffffffff1673ffffffffffffffffffffffffffffffffffffffff1681526020019081526020015f205f8773ffffffffffffffffffffffffffffffffffffffff1673ffffffffffffffffffffffffffffffffffffffff1681526020019081526020015f205460405161104a9190612a97565b60405180910390a36001905092915050565b60085481565b60035481565b5f6110bb600954600c5f8573ffffffffffffffffffffffffffffffffffffffff1673ffffffffffffffffffffffffffffffffffffffff1681526020019081526020015f2054611d2390919063ffffffff16565b9050919050565b6110ca6112a1565b6110d2575f80fd5b600260019054906101000a900473ffffffffffffffffffffffffffffffffffffffff1673ffffffffffffffffffffffffffffffffffffffff167ff8df31144d9c2f0f6b59d69b8b98abd5459d07f2742c4df920b25aae33c6482060405160405180910390a25f600260016101000a81548173ffffffffffffffffffffffffffffffffffffffff021916908373ffffffffffffffffffffffffffffffffffffffff160217905550565b600560019054906101000a900473ffffffffffffffffffffffffffffffffffffffff1673ffffffffffffffffffffffffffffffffffffffff1663fff6cae96040518163ffffffff1660e01b81526004015f604051808303815f87803b1580156111e1575f80fd5b505af11580156111f3573d5f803e3d5ffd5b50505050565b5f601260149054906101000a900460ff1615905090565b6112186112a1565b611220575f80fd5b6001600e5f8373ffffffffffffffffffffffffffffffffffffffff1673ffffffffffffffffffffffffffffffffffffffff1681526020019081526020015f205f6101000a81548160ff02191690831515021790555050565b5f600260019054906101000a900473ffffffffffffffffffffffffffffffffffffffff16905090565b5f600260019054906101000a900473ffffffffffffffffffffffffffffffffffffffff1673ffffffffffffffffffffffffffffffffffffffff163373ffffffffffffffffffffffffffffffffffffffff1614905090565b60606001805461130790612cb0565b80601f016020809104026020016040519081016040528092919081815260200182805461133390612cb0565b801561137e5780601f106113555761010080835404028352916020019161137e565b820191905f5260205f20905b81548152906001019060200180831161136157829003601f168201915b5050505050905090565b60065481565b600f602052805f5260405f205f915054906101000a900460ff1681565b5f8060135f3373ffffffffffffffffffffffffffffffffffffffff1673ffffffffffffffffffffffffffffffffffffffff1681526020019081526020015f205f8573ffffffffffffffffffffffffffffffffffffffff1673ffffffffffffffffffffffffffffffffffffffff1681526020019081526020015f205490508083106114b1575f60135f3373ffffffffffffffffffffffffffffffffffffffff1673ffffffffffffffffffffffffffffffffffffffff1681526020019081526020015f205f8673ffffffffffffffffffffffffffffffffffffffff1673ffffffffffffffffffffffffffffffffffffffff1681526020019081526020015f2081905550611541565b6114c48382611d0e90919063ffffffff16565b60135f3373ffffffffffffffffffffffffffffffffffffffff1673ffffffffffffffffffffffffffffffffffffffff1681526020019081526020015f205f8673ffffffffffffffffffffffffffffffffffffffff1673ffffffffffffffffffffffffffffffffffffffff1681526020019081526020015f20819055505b8373ffffffffffffffffffffffffffffffffffffffff163373ffffffffffffffffffffffffffffffffffffffff167f8c5be1e5ebec7d5bd14f71427d1e84f3dd0314c0f7b2291e5b200ac8c7c3b92560135f3373ffffffffffffffffffffffffffffffffffffffff1673ffffffffffffffffffffffffffffffffffffffff1681526020019081526020015f205f8873ffffffffffffffffffffffffffffffffffffffff1673ffffffffffffffffffffffffffffffffffffffff1681526020019081526020015f20546040516116169190612a97565b60405180910390a3600191505092915050565b5f825f73ffffffffffffffffffffffffffffffffffffffff168173ffffffffffffffffffffffffffffffffffffffff1603611662575f80fd5b61166d338585611b1e565b50600191505092915050565b6116816112a1565b611689575f80fd5b8060038190555050565b60055f9054906101000a900460ff1681565b6116ad6112a1565b6116b5575f80fd5b600b5f9054906101000a900460ff166119545773d7f655e3376ce2d7a2b08ff01eb3b1023191a90160115f6101000a81548173ffffffffffffffffffffffffffffffffffffffff021916908373ffffffffffffffffffffffffffffffffffffffff16021790555060115f9054906101000a900473ffffffffffffffffffffffffffffffffffffffff1673ffffffffffffffffffffffffffffffffffffffff1663c45a01556040518163ffffffff1660e01b8152600401602060405180830381865afa158015611786573d5f803e3d5ffd5b505050506040513d601f19601f820116820180604052508101906117aa9190612ff9565b73ffffffffffffffffffffffffffffffffffffffff1663c9c6539660115f9054906101000a900473ffffffffffffffffffffffffffffffffffffffff1673ffffffffffffffffffffffffffffffffffffffff1663ad5c46486040518163ffffffff1660e01b8152600401602060405180830381865afa15801561182f573d5f803e3d5ffd5b505050506040513d601f19601f820116820180604052508101906118539190612ff9565b306040518363ffffffff1660e01b8152600401611871929190613024565b6020604051808303815f875af115801561188d573d5f803e3d5ffd5b505050506040513d601f19601f820116820180604052508101906118b19190612ff9565b600560016101000a81548173ffffffffffffffffffffffffffffffffffffffff021916908373ffffffffffffffffffffffffffffffffffffffff160217905550600560019054906101000a900473ffffffffffffffffffffffffffffffffffffffff1660125f6101000a81548173ffffffffffffffffffffffffffffffffffffffff021916908373ffffffffffffffffffffffffffffffffffffffff1602179055505b565b60045481565b5f600e5f8373ffffffffffffffffffffffffffffffffffffffff1673ffffffffffffffffffffffffffffffffffffffff1681526020019081526020015f205f9054906101000a900460ff169050919050565b5f60135f8473ffffffffffffffffffffffffffffffffffffffff1673ffffffffffffffffffffffffffffffffffffffff1681526020019081526020015f205f8373ffffffffffffffffffffffffffffffffffffffff1673ffffffffffffffffffffffffffffffffffffffff1681526020019081526020015f2054905092915050565b611a386112a1565b611a40575f80fd5b8015611a6b578060055f6101000a81548160ff02191690831515021790555042600781905550611a85565b8060055f6101000a81548160ff0219169083151502179055505b50565b600560019054906101000a900473ffffffffffffffffffffffffffffffffffffffff1681565b611ab66112a1565b611abe575f80fd5b611ac781611d5e565b50565b5f838311158290611b11576040517f08c379a0000000000000000000000000000000000000000000000000000000008152600401611b089190612966565b60405180910390fd5b5082840390509392505050565b5f600f5f8573ffffffffffffffffffffffffffffffffffffffff1673ffffffffffffffffffffffffffffffffffffffff1681526020019081526020015f205f9054906101000a900460ff16158015611bbd5750600f5f8473ffffffffffffffffffffffffffffffffffffffff1673ffffffffffffffffffffffffffffffffffffffff1681526020019081526020015f205f9054906101000a900460ff16155b611bfc576040517f08c379a0000000000000000000000000000000000000000000000000000000008152600401611bf390613095565b60405180910390fd5b601260149054906101000a900460ff1615611c2357611c1c848484611e55565b9050611d07565b611c2b611e8e565b15611c3957611c38611f5a565b5b5f611c4f600954846121bd90919063ffffffff16565b9050611c5b85826121d2565b5f611c66868661222f565b611c705781611c7b565b611c7a8683612334565b5b9050611c87858261240a565b8473ffffffffffffffffffffffffffffffffffffffff168673ffffffffffffffffffffffffffffffffffffffff167fddf252ad1be2c89b69c2b068fc378daa952ba7f163c4a11628f55a4df523b3ef611ceb60095485611d2390919063ffffffff16565b604051611cf89190612a97565b60405180910390a36001925050505b9392505050565b5f8183611d1b9190612f24565b905092915050565b5f8183611d3091906130b3565b905092915050565b5f80823b90505f8111915050919050565b5f8183611d5691906130e3565b905092915050565b5f73ffffffffffffffffffffffffffffffffffffffff168173ffffffffffffffffffffffffffffffffffffffff1603611d95575f80fd5b8073ffffffffffffffffffffffffffffffffffffffff16600260019054906101000a900473ffffffffffffffffffffffffffffffffffffffff1673ffffffffffffffffffffffffffffffffffffffff167f8be0079c531659141344cd1fd0a4f28419497f9722a3daafe3b4186f6b6457e060405160405180910390a380600260016101000a81548173ffffffffffffffffffffffffffffffffffffffff021916908373ffffffffffffffffffffffffffffffffffffffff16021790555050565b5f80611e6c600954846121bd90919063ffffffff16565b9050611e7885826121d2565b611e82848261240a565b60019150509392505050565b5f60055f9054906101000a900460ff168015611ec757506005600a611eb39190612e3c565b63c1b71080611ec29190612e86565b600854105b8015611f215750600560019054906101000a900473ffffffffffffffffffffffffffffffffffffffff1673ffffffffffffffffffffffffffffffffffffffff163373ffffffffffffffffffffffffffffffffffffffff1614155b8015611f3a5750601260149054906101000a900460ff16155b8015611f555750610384600754611f5191906130e3565b4210155b905090565b601260149054906101000a900460ff166121bb575f8060065442611f7e9190612f24565b90505f60075442611f8f9190612f24565b90505f611fa761038483611d2390919063ffffffff16565b90505f611fbe600f836121bd90919063ffffffff16565b90506301e13380841015611fd6576109339450612011565b6301e133808410611fea5760d39450612010565b6302d1cd408410611ffe57600e945061200f565b630d286880841061200e57600294505b5b5b5b5f5b828110156120815761206e6007600a61202c9190612e3c565b61206061204f896007600a6120419190612e3c565b611d4990919063ffffffff16565b6008546121bd90919063ffffffff16565b611d2390919063ffffffff16565b6008819055508080600101915050612013565b506120ca6008546005600a6120969190612e3c565b6204f5886120a49190612e86565b5f196120b09190612ef4565b5f196120bc9190612f24565b611d2390919063ffffffff16565b6009819055506120f96120e8610384846121bd90919063ffffffff16565b600754611d4990919063ffffffff16565b60078190555060125f9054906101000a900473ffffffffffffffffffffffffffffffffffffffff1673ffffffffffffffffffffffffffffffffffffffff1663fff6cae96040518163ffffffff1660e01b81526004015f604051808303815f87803b158015612165575f80fd5b505af1158015612177573d5f803e3d5ffd5b50505050807f72725a3b1e5bd622d6bcd1339bb31279c351abe8f541ac7fd320f24e1b1641f26008546040516121ad9190612a97565b60405180910390a250505050505b565b5f81836121ca9190612e86565b905092915050565b61222b8261222683600c5f8773ffffffffffffffffffffffffffffffffffffffff1673ffffffffffffffffffffffffffffffffffffffff1681526020019081526020015f2054611d0e90919063ffffffff16565b612467565b5050565b5f8273ffffffffffffffffffffffffffffffffffffffff16600560019054906101000a900473ffffffffffffffffffffffffffffffffffffffff1673ffffffffffffffffffffffffffffffffffffffff1614806122d957508173ffffffffffffffffffffffffffffffffffffffff16600560019054906101000a900473ffffffffffffffffffffffffffffffffffffffff1673ffffffffffffffffffffffffffffffffffffffff16145b801561232c5750600e5f8473ffffffffffffffffffffffffffffffffffffffff1673ffffffffffffffffffffffffffffffffffffffff1681526020019081526020015f205f9054906101000a900460ff16155b905092915050565b5f8061235e600354612350606486611d2390919063ffffffff16565b6121bd90919063ffffffff16565b905061236a308261240a565b42600454600a5461237b91906130e3565b10612389576123886125c7565b5b3073ffffffffffffffffffffffffffffffffffffffff168473ffffffffffffffffffffffffffffffffffffffff167fddf252ad1be2c89b69c2b068fc378daa952ba7f163c4a11628f55a4df523b3ef836040516123e69190612a97565b60405180910390a36124018184611d0e90919063ffffffff16565b91505092915050565b6124638261245e83600c5f8773ffffffffffffffffffffffffffffffffffffffff1673ffffffffffffffffffffffffffffffffffffffff1681526020019081526020015f2054611d4990919063ffffffff16565b612467565b5050565b6124708261284b565b156125815760011515600d5f8473ffffffffffffffffffffffffffffffffffffffff1673ffffffffffffffffffffffffffffffffffffffff1681526020019081526020015f205f9054906101000a900460ff1615151461258057601082908060018154018082558091505060019003905f5260205f20015f9091909190916101000a81548173ffffffffffffffffffffffffffffffffffffffff021916908373ffffffffffffffffffffffffffffffffffffffff1602179055506001600d5f8473ffffffffffffffffffffffffffffffffffffffff1673ffffffffffffffffffffffffffffffffffffffff1681526020019081526020015f205f6101000a81548160ff0219169083151502179055505b5b80600c5f8473ffffffffffffffffffffffffffffffffffffffff1673ffffffffffffffffffffffffffffffffffffffff1681526020019081526020015f20819055505050565b5f805f80600854905042600a819055505f600c5f3073ffffffffffffffffffffffffffffffffffffffff1673ffffffffffffffffffffffffffffffffffffffff1681526020019081526020015f205490505f600c5f3073ffffffffffffffffffffffffffffffffffffffff1673ffffffffffffffffffffffffffffffffffffffff1681526020019081526020015f20819055505f5b601080549050811015612829576010818154811061267d5761267c613116565b5b905f5260205f20015f9054906101000a900473ffffffffffffffffffffffffffffffffffffffff16955060125f9054906101000a900473ffffffffffffffffffffffffffffffffffffffff1673ffffffffffffffffffffffffffffffffffffffff168673ffffffffffffffffffffffffffffffffffffffff16148061272d57503073ffffffffffffffffffffffffffffffffffffffff168673ffffffffffffffffffffffffffffffffffffffff16145b61281c576127938361278584600c5f8b73ffffffffffffffffffffffffffffffffffffffff1673ffffffffffffffffffffffffffffffffffffffff1681526020019081526020015f20546121bd90919063ffffffff16565b611d2390919063ffffffff16565b945084846127a191906130e3565b93505f85111561281b576127b5868661240a565b8573ffffffffffffffffffffffffffffffffffffffff163073ffffffffffffffffffffffffffffffffffffffff167fddf252ad1be2c89b69c2b068fc378daa952ba7f163c4a11628f55a4df523b3ef876040516128129190612a97565b60405180910390a35b5b808060010191505061265c565b505f83826128379190612f24565b9050612843308261240a565b505050505050565b5f3073ffffffffffffffffffffffffffffffffffffffff168273ffffffffffffffffffffffffffffffffffffffff16141580156128d5575060125f9054906101000a900473ffffffffffffffffffffffffffffffffffffffff1673ffffffffffffffffffffffffffffffffffffffff168273ffffffffffffffffffffffffffffffffffffffff1614155b9050919050565b5f81519050919050565b5f82825260208201905092915050565b5f5b838110156129135780820151818401526020810190506128f8565b5f8484015250505050565b5f601f19601f8301169050919050565b5f612938826128dc565b61294281856128e6565b93506129528185602086016128f6565b61295b8161291e565b840191505092915050565b5f6020820190508181035f83015261297e818461292e565b905092915050565b5f80fd5b5f73ffffffffffffffffffffffffffffffffffffffff82169050919050565b5f6129b38261298a565b9050919050565b6129c3816129a9565b81146129cd575f80fd5b50565b5f813590506129de816129ba565b92915050565b5f819050919050565b6129f6816129e4565b8114612a00575f80fd5b50565b5f81359050612a11816129ed565b92915050565b5f8060408385031215612a2d57612a2c612986565b5b5f612a3a858286016129d0565b9250506020612a4b85828601612a03565b9150509250929050565b5f8115159050919050565b612a6981612a55565b82525050565b5f602082019050612a825f830184612a60565b92915050565b612a91816129e4565b82525050565b5f602082019050612aaa5f830184612a88565b92915050565b5f805f60608486031215612ac757612ac6612986565b5b5f612ad4868287016129d0565b9350506020612ae5868287016129d0565b9250506040612af686828701612a03565b9150509250925092565b5f60208284031215612b1557612b14612986565b5b5f612b2284828501612a03565b91505092915050565b5f60208284031215612b4057612b3f612986565b5b5f612b4d848285016129d0565b91505092915050565b5f60ff82169050919050565b612b6b81612b56565b82525050565b5f602082019050612b845f830184612b62565b92915050565b612b9381612a55565b8114612b9d575f80fd5b50565b5f81359050612bae81612b8a565b92915050565b5f8060408385031215612bca57612bc9612986565b5b5f612bd7858286016129d0565b9250506020612be885828601612ba0565b9150509250929050565b612bfb816129a9565b82525050565b5f602082019050612c145f830184612bf2565b92915050565b5f8060408385031215612c3057612c2f612986565b5b5f612c3d858286016129d0565b9250506020612c4e858286016129d0565b9150509250929050565b5f60208284031215612c6d57612c6c612986565b5b5f612c7a84828501612ba0565b91505092915050565b7f4e487b71000000000000000000000000000000000000000000000000000000005f52602260045260245ffd5b5f6002820490506001821680612cc757607f821691505b602082108103612cda57612cd9612c83565b5b50919050565b7f4e487b71000000000000000000000000000000000000000000000000000000005f52601160045260245ffd5b5f8160011c9050919050565b5f808291508390505b6001851115612d6257808604811115612d3e57612d3d612ce0565b5b6001851615612d4d5780820291505b8081029050612d5b85612d0d565b9450612d22565b94509492505050565b5f82612d7a5760019050612e35565b81612d87575f9050612e35565b8160018114612d9d5760028114612da757612dd6565b6001915050612e35565b60ff841115612db957612db8612ce0565b5b8360020a915084821115612dd057612dcf612ce0565b5b50612e35565b5060208310610133831016604e8410600b8410161715612e0b5782820a905083811115612e0657612e05612ce0565b5b612e35565b612e188484846001612d19565b92509050818404811115612e2f57612e2e612ce0565b5b81810290505b9392505050565b5f612e46826129e4565b9150612e5183612b56565b9250612e7e7fffffffffffffffffffffffffffffffffffffffffffffffffffffffffffffffff8484612d6b565b905092915050565b5f612e90826129e4565b9150612e9b836129e4565b9250828202612ea9816129e4565b91508282048414831517612ec057612ebf612ce0565b5b5092915050565b7f4e487b71000000000000000000000000000000000000000000000000000000005f52601260045260245ffd5b5f612efe826129e4565b9150612f09836129e4565b925082612f1957612f18612ec7565b5b828206905092915050565b5f612f2e826129e4565b9150612f39836129e4565b9250828203905081811115612f5157612f50612ce0565b5b92915050565b7f6f6e6c7920636f6e747261637420616464726573732c206e6f7420616c6c6f775f8201527f6564206578746572616e6c6c79206f776e6564206163636f756e740000000000602082015250565b5f612fb1603b836128e6565b9150612fbc82612f57565b604082019050919050565b5f6020820190508181035f830152612fde81612fa5565b9050919050565b5f81519050612ff3816129ba565b92915050565b5f6020828403121561300e5761300d612986565b5b5f61301b84828501612fe5565b91505092915050565b5f6040820190506130375f830185612bf2565b6130446020830184612bf2565b9392505050565b7f696e5f626c61636b6c69737400000000000000000000000000000000000000005f82015250565b5f61307f600c836128e6565b915061308a8261304b565b602082019050919050565b5f6020820190508181035f8301526130ac81613073565b9050919050565b5f6130bd826129e4565b91506130c8836129e4565b9250826130d8576130d7612ec7565b5b828204905092915050565b5f6130ed826129e4565b91506130f8836129e4565b92508282019050808211156131105761310f612ce0565b5b92915050565b7f4e487b71000000000000000000000000000000000000000000000000000000005f52603260045260245ffdfea26469706673582212208d73ff07aa31d8d5d098d258071a62f76cf5f7511e63b1a41801b7d0fe66591964736f6c63430008180033",
					"opcodes": "PUSH1 0x80 PUSH1 0x40 MSTORE PUSH1 0x63 PUSH1 0x3 SSTORE PUSH2 0x258 PUSH1 0x4 SSTORE PUSH0 PUSH1 0x12 PUSH1 0x14 PUSH2 0x100 EXP DUP2 SLOAD DUP2 PUSH1 0xFF MUL NOT AND SWAP1 DUP4 ISZERO ISZERO MUL OR SWAP1 SSTORE POP CALLVALUE DUP1 ISZERO PUSH3 0x35 JUMPI PUSH0 DUP1 REVERT JUMPDEST POP PUSH1 0x40 MLOAD DUP1 PUSH1 0x40 ADD PUSH1 0x40 MSTORE DUP1 PUSH1 0x4 DUP2 MSTORE PUSH1 0x20 ADD PUSH32 0x424F4D4200000000000000000000000000000000000000000000000000000000 DUP2 MSTORE POP PUSH1 0x40 MLOAD DUP1 PUSH1 0x40 ADD PUSH1 0x40 MSTORE DUP1 PUSH1 0x4 DUP2 MSTORE PUSH1 0x20 ADD PUSH32 0x424F4D4200000000000000000000000000000000000000000000000000000000 DUP2 MSTORE POP PUSH1 0x5 DUP3 PUSH0 SWAP1 DUP2 PUSH3 0xB4 SWAP2 SWAP1 PUSH3 0x4E5 JUMP JUMPDEST POP DUP2 PUSH1 0x1 SWAP1 DUP2 PUSH3 0xC6 SWAP2 SWAP1 PUSH3 0x4E5 JUMP JUMPDEST POP DUP1 PUSH1 0x2 PUSH0 PUSH2 0x100 EXP DUP2 SLOAD DUP2 PUSH1 0xFF MUL NOT AND SWAP1 DUP4 PUSH1 0xFF AND MUL OR SWAP1 SSTORE POP POP POP POP CALLER PUSH1 0x2 PUSH1 0x1 PUSH2 0x100 EXP DUP2 SLOAD DUP2 PUSH20 0xFFFFFFFFFFFFFFFFFFFFFFFFFFFFFFFFFFFFFFFF MUL NOT AND SWAP1 DUP4 PUSH20 0xFFFFFFFFFFFFFFFFFFFFFFFFFFFFFFFFFFFFFFFF AND MUL OR SWAP1 SSTORE POP PUSH1 0x5 PUSH1 0xA PUSH3 0x135 SWAP2 SWAP1 PUSH3 0x752 JUMP JUMPDEST PUSH3 0x4F588 PUSH3 0x145 SWAP2 SWAP1 PUSH3 0x7A2 JUMP JUMPDEST PUSH1 0x8 DUP2 SWAP1 SSTORE POP PUSH3 0x19D PUSH1 0x8 SLOAD PUSH1 0x5 PUSH1 0xA PUSH3 0x162 SWAP2 SWAP1 PUSH3 0x752 JUMP JUMPDEST PUSH3 0x4F588 PUSH3 0x172 SWAP2 SWAP1 PUSH3 0x7A2 JUMP JUMPDEST PUSH0 NOT PUSH3 0x180 SWAP2 SWAP1 PUSH3 0x819 JUMP JUMPDEST PUSH0 NOT PUSH3 0x18E SWAP2 SWAP1 PUSH3 0x850 JUMP JUMPDEST PUSH3 0x26A PUSH1 0x20 SHL SWAP1 SWAP2 SWAP1 PUSH1 0x20 SHR JUMP JUMPDEST PUSH1 0x9 DUP2 SWAP1 SSTORE POP TIMESTAMP PUSH1 0x6 DUP2 SWAP1 SSTORE POP TIMESTAMP PUSH1 0x7 DUP2 SWAP1 SSTORE POP PUSH1 0x1 PUSH1 0x5 PUSH0 PUSH2 0x100 EXP DUP2 SLOAD DUP2 PUSH1 0xFF MUL NOT AND SWAP1 DUP4 ISZERO ISZERO MUL OR SWAP1 SSTORE POP PUSH1 0x1 PUSH1 0xE PUSH0 ADDRESS PUSH20 0xFFFFFFFFFFFFFFFFFFFFFFFFFFFFFFFFFFFFFFFF AND PUSH20 0xFFFFFFFFFFFFFFFFFFFFFFFFFFFFFFFFFFFFFFFF AND DUP2 MSTORE PUSH1 0x20 ADD SWAP1 DUP2 MSTORE PUSH1 0x20 ADD PUSH0 KECCAK256 PUSH0 PUSH2 0x100 EXP DUP2 SLOAD DUP2 PUSH1 0xFF MUL NOT AND SWAP1 DUP4 ISZERO ISZERO MUL OR SWAP1 SSTORE POP PUSH1 0x8 SLOAD PUSH1 0xC PUSH0 CALLER PUSH20 0xFFFFFFFFFFFFFFFFFFFFFFFFFFFFFFFFFFFFFFFF AND PUSH20 0xFFFFFFFFFFFFFFFFFFFFFFFFFFFFFFFFFFFFFFFF AND DUP2 MSTORE PUSH1 0x20 ADD SWAP1 DUP2 MSTORE PUSH1 0x20 ADD PUSH0 KECCAK256 DUP2 SWAP1 SSTORE POP PUSH3 0x8C1 JUMP JUMPDEST PUSH0 DUP2 DUP4 PUSH3 0x279 SWAP2 SWAP1 PUSH3 0x88A JUMP JUMPDEST SWAP1 POP SWAP3 SWAP2 POP POP JUMP JUMPDEST PUSH0 DUP2 MLOAD SWAP1 POP SWAP2 SWAP1 POP JUMP JUMPDEST PUSH32 0x4E487B7100000000000000000000000000000000000000000000000000000000 PUSH0 MSTORE PUSH1 0x41 PUSH1 0x4 MSTORE PUSH1 0x24 PUSH0 REVERT JUMPDEST PUSH32 0x4E487B7100000000000000000000000000000000000000000000000000000000 PUSH0 MSTORE PUSH1 0x22 PUSH1 0x4 MSTORE PUSH1 0x24 PUSH0 REVERT JUMPDEST PUSH0 PUSH1 0x2 DUP3 DIV SWAP1 POP PUSH1 0x1 DUP3 AND DUP1 PUSH3 0x2FD JUMPI PUSH1 0x7F DUP3 AND SWAP2 POP JUMPDEST PUSH1 0x20 DUP3 LT DUP2 SUB PUSH3 0x313 JUMPI PUSH3 0x312 PUSH3 0x2B8 JUMP JUMPDEST JUMPDEST POP SWAP2 SWAP1 POP JUMP JUMPDEST PUSH0 DUP2 SWAP1 POP DUP2 PUSH0 MSTORE PUSH1 0x20 PUSH0 KECCAK256 SWAP1 POP SWAP2 SWAP1 POP JUMP JUMPDEST PUSH0 PUSH1 0x20 PUSH1 0x1F DUP4 ADD DIV SWAP1 POP SWAP2 SWAP1 POP JUMP JUMPDEST PUSH0 DUP3 DUP3 SHL SWAP1 POP SWAP3 SWAP2 POP POP JUMP JUMPDEST PUSH0 PUSH1 0x8 DUP4 MUL PUSH3 0x377 PUSH32 0xFFFFFFFFFFFFFFFFFFFFFFFFFFFFFFFFFFFFFFFFFFFFFFFFFFFFFFFFFFFFFFFF DUP3 PUSH3 0x33A JUMP JUMPDEST PUSH3 0x383 DUP7 DUP4 PUSH3 0x33A JUMP JUMPDEST SWAP6 POP DUP1 NOT DUP5 AND SWAP4 POP DUP1 DUP7 AND DUP5 OR SWAP3 POP POP POP SWAP4 SWAP3 POP POP POP JUMP JUMPDEST PUSH0 DUP2 SWAP1 POP SWAP2 SWAP1 POP JUMP JUMPDEST PUSH0 DUP2 SWAP1 POP SWAP2 SWAP1 POP JUMP JUMPDEST PUSH0 PUSH3 0x3CD PUSH3 0x3C7 PUSH3 0x3C1 DUP5 PUSH3 0x39B JUMP JUMPDEST PUSH3 0x3A4 JUMP JUMPDEST PUSH3 0x39B JUMP JUMPDEST SWAP1 POP SWAP2 SWAP1 POP JUMP JUMPDEST PUSH0 DUP2 SWAP1 POP SWAP2 SWAP1 POP JUMP JUMPDEST PUSH3 0x3E8 DUP4 PUSH3 0x3AD JUMP JUMPDEST PUSH3 0x400 PUSH3 0x3F7 DUP3 PUSH3 0x3D4 JUMP JUMPDEST DUP5 DUP5 SLOAD PUSH3 0x346 JUMP JUMPDEST DUP3 SSTORE POP POP POP POP JUMP JUMPDEST PUSH0 SWAP1 JUMP JUMPDEST PUSH3 0x416 PUSH3 0x408 JUMP JUMPDEST PUSH3 0x423 DUP2 DUP5 DUP5 PUSH3 0x3DD JUMP JUMPDEST POP POP POP JUMP JUMPDEST JUMPDEST DUP2 DUP2 LT ISZERO PUSH3 0x44A JUMPI PUSH3 0x43E PUSH0 DUP3 PUSH3 0x40C JUMP JUMPDEST PUSH1 0x1 DUP2 ADD SWAP1 POP PUSH3 0x429 JUMP JUMPDEST POP POP JUMP JUMPDEST PUSH1 0x1F DUP3 GT ISZERO PUSH3 0x499 JUMPI PUSH3 0x463 DUP2 PUSH3 0x319 JUMP JUMPDEST PUSH3 0x46E DUP5 PUSH3 0x32B JUMP JUMPDEST DUP2 ADD PUSH1 0x20 DUP6 LT ISZERO PUSH3 0x47E JUMPI DUP2 SWAP1 POP JUMPDEST PUSH3 0x496 PUSH3 0x48D DUP6 PUSH3 0x32B JUMP JUMPDEST DUP4 ADD DUP3 PUSH3 0x428 JUMP JUMPDEST POP POP JUMPDEST POP POP POP JUMP JUMPDEST PUSH0 DUP3 DUP3 SHR SWAP1 POP SWAP3 SWAP2 POP POP JUMP JUMPDEST PUSH0 PUSH3 0x4BB PUSH0 NOT DUP5 PUSH1 0x8 MUL PUSH3 0x49E JUMP JUMPDEST NOT DUP1 DUP4 AND SWAP2 POP POP SWAP3 SWAP2 POP POP JUMP JUMPDEST PUSH0 PUSH3 0x4D5 DUP4 DUP4 PUSH3 0x4AA JUMP JUMPDEST SWAP2 POP DUP3 PUSH1 0x2 MUL DUP3 OR SWAP1 POP SWAP3 SWAP2 POP POP JUMP JUMPDEST PUSH3 0x4F0 DUP3 PUSH3 0x281 JUMP JUMPDEST PUSH8 0xFFFFFFFFFFFFFFFF DUP2 GT ISZERO PUSH3 0x50C JUMPI PUSH3 0x50B PUSH3 0x28B JUMP JUMPDEST JUMPDEST PUSH3 0x518 DUP3 SLOAD PUSH3 0x2E5 JUMP JUMPDEST PUSH3 0x525 DUP3 DUP3 DUP6 PUSH3 0x44E JUMP JUMPDEST PUSH0 PUSH1 0x20 SWAP1 POP PUSH1 0x1F DUP4 GT PUSH1 0x1 DUP2 EQ PUSH3 0x55B JUMPI PUSH0 DUP5 ISZERO PUSH3 0x546 JUMPI DUP3 DUP8 ADD MLOAD SWAP1 POP JUMPDEST PUSH3 0x552 DUP6 DUP3 PUSH3 0x4C8 JUMP JUMPDEST DUP7 SSTORE POP PUSH3 0x5C1 JUMP JUMPDEST PUSH1 0x1F NOT DUP5 AND PUSH3 0x56B DUP7 PUSH3 0x319 JUMP JUMPDEST PUSH0 JUMPDEST DUP3 DUP2 LT ISZERO PUSH3 0x594 JUMPI DUP5 DUP10 ADD MLOAD DUP3 SSTORE PUSH1 0x1 DUP3 ADD SWAP2 POP PUSH1 0x20 DUP6 ADD SWAP5 POP PUSH1 0x20 DUP2 ADD SWAP1 POP PUSH3 0x56D JUMP JUMPDEST DUP7 DUP4 LT ISZERO PUSH3 0x5B4 JUMPI DUP5 DUP10 ADD MLOAD PUSH3 0x5B0 PUSH1 0x1F DUP10 AND DUP3 PUSH3 0x4AA JUMP JUMPDEST DUP4 SSTORE POP JUMPDEST PUSH1 0x1 PUSH1 0x2 DUP9 MUL ADD DUP9 SSTORE POP POP POP JUMPDEST POP POP POP POP POP POP JUMP JUMPDEST PUSH32 0x4E487B7100000000000000000000000000000000000000000000000000000000 PUSH0 MSTORE PUSH1 0x11 PUSH1 0x4 MSTORE PUSH1 0x24 PUSH0 REVERT JUMPDEST PUSH0 DUP2 PUSH1 0x1 SHR SWAP1 POP SWAP2 SWAP1 POP JUMP JUMPDEST PUSH0 DUP1 DUP3 SWAP2 POP DUP4 SWAP1 POP JUMPDEST PUSH1 0x1 DUP6 GT ISZERO PUSH3 0x653 JUMPI DUP1 DUP7 DIV DUP2 GT ISZERO PUSH3 0x62B JUMPI PUSH3 0x62A PUSH3 0x5C9 JUMP JUMPDEST JUMPDEST PUSH1 0x1 DUP6 AND ISZERO PUSH3 0x63B JUMPI DUP1 DUP3 MUL SWAP2 POP JUMPDEST DUP1 DUP2 MUL SWAP1 POP PUSH3 0x64B DUP6 PUSH3 0x5F6 JUMP JUMPDEST SWAP5 POP PUSH3 0x60B JUMP JUMPDEST SWAP5 POP SWAP5 SWAP3 POP POP POP JUMP JUMPDEST PUSH0 DUP3 PUSH3 0x66D JUMPI PUSH1 0x1 SWAP1 POP PUSH3 0x73F JUMP JUMPDEST DUP2 PUSH3 0x67C JUMPI PUSH0 SWAP1 POP PUSH3 0x73F JUMP JUMPDEST DUP2 PUSH1 0x1 DUP2 EQ PUSH3 0x695 JUMPI PUSH1 0x2 DUP2 EQ PUSH3 0x6A0 JUMPI PUSH3 0x6D6 JUMP JUMPDEST PUSH1 0x1 SWAP2 POP POP PUSH3 0x73F JUMP JUMPDEST PUSH1 0xFF DUP5 GT ISZERO PUSH3 0x6B5 JUMPI PUSH3 0x6B4 PUSH3 0x5C9 JUMP JUMPDEST JUMPDEST DUP4 PUSH1 0x2 EXP SWAP2 POP DUP5 DUP3 GT ISZERO PUSH3 0x6CF JUMPI PUSH3 0x6CE PUSH3 0x5C9 JUMP JUMPDEST JUMPDEST POP PUSH3 0x73F JUMP JUMPDEST POP PUSH1 0x20 DUP4 LT PUSH2 0x133 DUP4 LT AND PUSH1 0x4E DUP5 LT PUSH1 0xB DUP5 LT AND OR ISZERO PUSH3 0x710 JUMPI DUP3 DUP3 EXP SWAP1 POP DUP4 DUP2 GT ISZERO PUSH3 0x70A JUMPI PUSH3 0x709 PUSH3 0x5C9 JUMP JUMPDEST JUMPDEST PUSH3 0x73F JUMP JUMPDEST PUSH3 0x71F DUP5 DUP5 DUP5 PUSH1 0x1 PUSH3 0x602 JUMP JUMPDEST SWAP3 POP SWAP1 POP DUP2 DUP5 DIV DUP2 GT ISZERO PUSH3 0x739 JUMPI PUSH3 0x738 PUSH3 0x5C9 JUMP JUMPDEST JUMPDEST DUP2 DUP2 MUL SWAP1 POP JUMPDEST SWAP4 SWAP3 POP POP POP JUMP JUMPDEST PUSH0 PUSH1 0xFF DUP3 AND SWAP1 POP SWAP2 SWAP1 POP JUMP JUMPDEST PUSH0 PUSH3 0x75E DUP3 PUSH3 0x39B JUMP JUMPDEST SWAP2 POP PUSH3 0x76B DUP4 PUSH3 0x746 JUMP JUMPDEST SWAP3 POP PUSH3 0x79A PUSH32 0xFFFFFFFFFFFFFFFFFFFFFFFFFFFFFFFFFFFFFFFFFFFFFFFFFFFFFFFFFFFFFFFF DUP5 DUP5 PUSH3 0x65C JUMP JUMPDEST SWAP1 POP SWAP3 SWAP2 POP POP JUMP JUMPDEST PUSH0 PUSH3 0x7AE DUP3 PUSH3 0x39B JUMP JUMPDEST SWAP2 POP PUSH3 0x7BB DUP4 PUSH3 0x39B JUMP JUMPDEST SWAP3 POP DUP3 DUP3 MUL PUSH3 0x7CB DUP2 PUSH3 0x39B JUMP JUMPDEST SWAP2 POP DUP3 DUP3 DIV DUP5 EQ DUP4 ISZERO OR PUSH3 0x7E5 JUMPI PUSH3 0x7E4 PUSH3 0x5C9 JUMP JUMPDEST JUMPDEST POP SWAP3 SWAP2 POP POP JUMP JUMPDEST PUSH32 0x4E487B7100000000000000000000000000000000000000000000000000000000 PUSH0 MSTORE PUSH1 0x12 PUSH1 0x4 MSTORE PUSH1 0x24 PUSH0 REVERT JUMPDEST PUSH0 PUSH3 0x825 DUP3 PUSH3 0x39B JUMP JUMPDEST SWAP2 POP PUSH3 0x832 DUP4 PUSH3 0x39B JUMP JUMPDEST SWAP3 POP DUP3 PUSH3 0x845 JUMPI PUSH3 0x844 PUSH3 0x7EC JUMP JUMPDEST JUMPDEST DUP3 DUP3 MOD SWAP1 POP SWAP3 SWAP2 POP POP JUMP JUMPDEST PUSH0 PUSH3 0x85C DUP3 PUSH3 0x39B JUMP JUMPDEST SWAP2 POP PUSH3 0x869 DUP4 PUSH3 0x39B JUMP JUMPDEST SWAP3 POP DUP3 DUP3 SUB SWAP1 POP DUP2 DUP2 GT ISZERO PUSH3 0x884 JUMPI PUSH3 0x883 PUSH3 0x5C9 JUMP JUMPDEST JUMPDEST SWAP3 SWAP2 POP POP JUMP JUMPDEST PUSH0 PUSH3 0x896 DUP3 PUSH3 0x39B JUMP JUMPDEST SWAP2 POP PUSH3 0x8A3 DUP4 PUSH3 0x39B JUMP JUMPDEST SWAP3 POP DUP3 PUSH3 0x8B6 JUMPI PUSH3 0x8B5 PUSH3 0x7EC JUMP JUMPDEST JUMPDEST DUP3 DUP3 DIV SWAP1 POP SWAP3 SWAP2 POP POP JUMP JUMPDEST PUSH2 0x3179 DUP1 PUSH3 0x8CF PUSH0 CODECOPY PUSH0 RETURN INVALID PUSH1 0x80 PUSH1 0x40 MSTORE PUSH1 0x4 CALLDATASIZE LT PUSH2 0x207 JUMPI PUSH0 CALLDATALOAD PUSH1 0xE0 SHR DUP1 PUSH4 0x83B4AC68 GT PUSH2 0x117 JUMPI DUP1 PUSH4 0xAE06C1B7 GT PUSH2 0x9F JUMPI DUP1 PUSH4 0xD4399790 GT PUSH2 0x6E JUMPI DUP1 PUSH4 0xD4399790 EQ PUSH2 0x736 JUMPI DUP1 PUSH4 0xDD62ED3E EQ PUSH2 0x772 JUMPI DUP1 PUSH4 0xE15BEB80 EQ PUSH2 0x7AE JUMPI DUP1 PUSH4 0xEB531C57 EQ PUSH2 0x7D6 JUMPI DUP1 PUSH4 0xF2FDE38B EQ PUSH2 0x800 JUMPI PUSH2 0x20E JUMP JUMPDEST DUP1 PUSH4 0xAE06C1B7 EQ PUSH2 0x6A4 JUMPI DUP1 PUSH4 0xAFB9CF6D EQ PUSH2 0x6CC JUMPI DUP1 PUSH4 0xB349B973 EQ PUSH2 0x6F6 JUMPI DUP1 PUSH4 0xC737A49B EQ PUSH2 0x70C JUMPI PUSH2 0x20E JUMP JUMPDEST DUP1 PUSH4 0x95D89B41 GT PUSH2 0xE6 JUMPI DUP1 PUSH4 0x95D89B41 EQ PUSH2 0x59C JUMPI DUP1 PUSH4 0x9B87676C EQ PUSH2 0x5C6 JUMPI DUP1 PUSH4 0xA20623CE EQ PUSH2 0x5F0 JUMPI DUP1 PUSH4 0xA457C2D7 EQ PUSH2 0x62C JUMPI DUP1 PUSH4 0xA9059CBB EQ PUSH2 0x668 JUMPI PUSH2 0x20E JUMP JUMPDEST DUP1 PUSH4 0x83B4AC68 EQ PUSH2 0x4F6 JUMPI DUP1 PUSH4 0x854CFF2F EQ PUSH2 0x520 JUMPI DUP1 PUSH4 0x8DA5CB5B EQ PUSH2 0x548 JUMPI DUP1 PUSH4 0x8F32D59B EQ PUSH2 0x572 JUMPI PUSH2 0x20E JUMP JUMPDEST DUP1 PUSH4 0x31B216ED GT PUSH2 0x19A JUMPI DUP1 PUSH4 0x3EAAF86B GT PUSH2 0x169 JUMPI DUP1 PUSH4 0x3EAAF86B EQ PUSH2 0x43A JUMPI DUP1 PUSH4 0x69222948 EQ PUSH2 0x464 JUMPI DUP1 PUSH4 0x70A08231 EQ PUSH2 0x48E JUMPI DUP1 PUSH4 0x715018A6 EQ PUSH2 0x4CA JUMPI DUP1 PUSH4 0x753D02A1 EQ PUSH2 0x4E0 JUMPI PUSH2 0x20E JUMP JUMPDEST DUP1 PUSH4 0x31B216ED EQ PUSH2 0x382 JUMPI DUP1 PUSH4 0x32B75683 EQ PUSH2 0x3AC JUMPI DUP1 PUSH4 0x37C9BE87 EQ PUSH2 0x3D6 JUMPI DUP1 PUSH4 0x39509351 EQ PUSH2 0x3FE JUMPI PUSH2 0x20E JUMP JUMPDEST DUP1 PUSH4 0x2910164A GT PUSH2 0x1D6 JUMPI DUP1 PUSH4 0x2910164A EQ PUSH2 0x2DE JUMPI DUP1 PUSH4 0x2B112E49 EQ PUSH2 0x306 JUMPI DUP1 PUSH4 0x2F34D282 EQ PUSH2 0x330 JUMPI DUP1 PUSH4 0x313CE567 EQ PUSH2 0x358 JUMPI PUSH2 0x20E JUMP JUMPDEST DUP1 PUSH4 0x6FDDE03 EQ PUSH2 0x212 JUMPI DUP1 PUSH4 0x95EA7B3 EQ PUSH2 0x23C JUMPI DUP1 PUSH4 0x18160DDD EQ PUSH2 0x278 JUMPI DUP1 PUSH4 0x23B872DD EQ PUSH2 0x2A2 JUMPI PUSH2 0x20E JUMP JUMPDEST CALLDATASIZE PUSH2 0x20E JUMPI STOP JUMPDEST PUSH0 DUP1 REVERT JUMPDEST CALLVALUE DUP1 ISZERO PUSH2 0x21D JUMPI PUSH0 DUP1 REVERT JUMPDEST POP PUSH2 0x226 PUSH2 0x828 JUMP JUMPDEST PUSH1 0x40 MLOAD PUSH2 0x233 SWAP2 SWAP1 PUSH2 0x2966 JUMP JUMPDEST PUSH1 0x40 MLOAD DUP1 SWAP2 SUB SWAP1 RETURN JUMPDEST CALLVALUE DUP1 ISZERO PUSH2 0x247 JUMPI PUSH0 DUP1 REVERT JUMPDEST POP PUSH2 0x262 PUSH1 0x4 DUP1 CALLDATASIZE SUB DUP2 ADD SWAP1 PUSH2 0x25D SWAP2 SWAP1 PUSH2 0x2A17 JUMP JUMPDEST PUSH2 0x8B7 JUMP JUMPDEST PUSH1 0x40 MLOAD PUSH2 0x26F SWAP2 SWAP1 PUSH2 0x2A6F JUMP JUMPDEST PUSH1 0x40 MLOAD DUP1 SWAP2 SUB SWAP1 RETURN JUMPDEST CALLVALUE DUP1 ISZERO PUSH2 0x283 JUMPI PUSH0 DUP1 REVERT JUMPDEST POP PUSH2 0x28C PUSH2 0x9A4 JUMP JUMPDEST PUSH1 0x40 MLOAD PUSH2 0x299 SWAP2 SWAP1 PUSH2 0x2A97 JUMP JUMPDEST PUSH1 0x40 MLOAD DUP1 SWAP2 SUB SWAP1 RETURN JUMPDEST CALLVALUE DUP1 ISZERO PUSH2 0x2AD JUMPI PUSH0 DUP1 REVERT JUMPDEST POP PUSH2 0x2C8 PUSH1 0x4 DUP1 CALLDATASIZE SUB DUP2 ADD SWAP1 PUSH2 0x2C3 SWAP2 SWAP1 PUSH2 0x2AB0 JUMP JUMPDEST PUSH2 0x9AD JUMP JUMPDEST PUSH1 0x40 MLOAD PUSH2 0x2D5 SWAP2 SWAP1 PUSH2 0x2A6F JUMP JUMPDEST PUSH1 0x40 MLOAD DUP1 SWAP2 SUB SWAP1 RETURN JUMPDEST CALLVALUE DUP1 ISZERO PUSH2 0x2E9 JUMPI PUSH0 DUP1 REVERT JUMPDEST POP PUSH2 0x304 PUSH1 0x4 DUP1 CALLDATASIZE SUB DUP2 ADD SWAP1 PUSH2 0x2FF SWAP2 SWAP1 PUSH2 0x2B00 JUMP JUMPDEST PUSH2 0xBD2 JUMP JUMPDEST STOP JUMPDEST CALLVALUE DUP1 ISZERO PUSH2 0x311 JUMPI PUSH0 DUP1 REVERT JUMPDEST POP PUSH2 0x31A PUSH2 0xBEC JUMP JUMPDEST PUSH1 0x40 MLOAD PUSH2 0x327 SWAP2 SWAP1 PUSH2 0x2A97 JUMP JUMPDEST PUSH1 0x40 MLOAD DUP1 SWAP2 SUB SWAP1 RETURN JUMPDEST CALLVALUE DUP1 ISZERO PUSH2 0x33B JUMPI PUSH0 DUP1 REVERT JUMPDEST POP PUSH2 0x356 PUSH1 0x4 DUP1 CALLDATASIZE SUB DUP2 ADD SWAP1 PUSH2 0x351 SWAP2 SWAP1 PUSH2 0x2B2B JUMP JUMPDEST PUSH2 0xCDA JUMP JUMPDEST STOP JUMPDEST CALLVALUE DUP1 ISZERO PUSH2 0x363 JUMPI PUSH0 DUP1 REVERT JUMPDEST POP PUSH2 0x36C PUSH2 0xD90 JUMP JUMPDEST PUSH1 0x40 MLOAD PUSH2 0x379 SWAP2 SWAP1 PUSH2 0x2B71 JUMP JUMPDEST PUSH1 0x40 MLOAD DUP1 SWAP2 SUB SWAP1 RETURN JUMPDEST CALLVALUE DUP1 ISZERO PUSH2 0x38D JUMPI PUSH0 DUP1 REVERT JUMPDEST POP PUSH2 0x396 PUSH2 0xDA5 JUMP JUMPDEST PUSH1 0x40 MLOAD PUSH2 0x3A3 SWAP2 SWAP1 PUSH2 0x2A6F JUMP JUMPDEST PUSH1 0x40 MLOAD DUP1 SWAP2 SUB SWAP1 RETURN JUMPDEST CALLVALUE DUP1 ISZERO PUSH2 0x3B7 JUMPI PUSH0 DUP1 REVERT JUMPDEST POP PUSH2 0x3C0 PUSH2 0xDB7 JUMP JUMPDEST PUSH1 0x40 MLOAD PUSH2 0x3CD SWAP2 SWAP1 PUSH2 0x2A97 JUMP JUMPDEST PUSH1 0x40 MLOAD DUP1 SWAP2 SUB SWAP1 RETURN JUMPDEST CALLVALUE DUP1 ISZERO PUSH2 0x3E1 JUMPI PUSH0 DUP1 REVERT JUMPDEST POP PUSH2 0x3FC PUSH1 0x4 DUP1 CALLDATASIZE SUB DUP2 ADD SWAP1 PUSH2 0x3F7 SWAP2 SWAP1 PUSH2 0x2BB4 JUMP JUMPDEST PUSH2 0xDBD JUMP JUMPDEST STOP JUMPDEST CALLVALUE DUP1 ISZERO PUSH2 0x409 JUMPI PUSH0 DUP1 REVERT JUMPDEST POP PUSH2 0x424 PUSH1 0x4 DUP1 CALLDATASIZE SUB DUP2 ADD SWAP1 PUSH2 0x41F SWAP2 SWAP1 PUSH2 0x2A17 JUMP JUMPDEST PUSH2 0xE6D JUMP JUMPDEST PUSH1 0x40 MLOAD PUSH2 0x431 SWAP2 SWAP1 PUSH2 0x2A6F JUMP JUMPDEST PUSH1 0x40 MLOAD DUP1 SWAP2 SUB SWAP1 RETURN JUMPDEST CALLVALUE DUP1 ISZERO PUSH2 0x445 JUMPI PUSH0 DUP1 REVERT JUMPDEST POP PUSH2 0x44E PUSH2 0x105C JUMP JUMPDEST PUSH1 0x40 MLOAD PUSH2 0x45B SWAP2 SWAP1 PUSH2 0x2A97 JUMP JUMPDEST PUSH1 0x40 MLOAD DUP1 SWAP2 SUB SWAP1 RETURN JUMPDEST CALLVALUE DUP1 ISZERO PUSH2 0x46F JUMPI PUSH0 DUP1 REVERT JUMPDEST POP PUSH2 0x478 PUSH2 0x1062 JUMP JUMPDEST PUSH1 0x40 MLOAD PUSH2 0x485 SWAP2 SWAP1 PUSH2 0x2A97 JUMP JUMPDEST PUSH1 0x40 MLOAD DUP1 SWAP2 SUB SWAP1 RETURN JUMPDEST CALLVALUE DUP1 ISZERO PUSH2 0x499 JUMPI PUSH0 DUP1 REVERT JUMPDEST POP PUSH2 0x4B4 PUSH1 0x4 DUP1 CALLDATASIZE SUB DUP2 ADD SWAP1 PUSH2 0x4AF SWAP2 SWAP1 PUSH2 0x2B2B JUMP JUMPDEST PUSH2 0x1068 JUMP JUMPDEST PUSH1 0x40 MLOAD PUSH2 0x4C1 SWAP2 SWAP1 PUSH2 0x2A97 JUMP JUMPDEST PUSH1 0x40 MLOAD DUP1 SWAP2 SUB SWAP1 RETURN JUMPDEST CALLVALUE DUP1 ISZERO PUSH2 0x4D5 JUMPI PUSH0 DUP1 REVERT JUMPDEST POP PUSH2 0x4DE PUSH2 0x10C2 JUMP JUMPDEST STOP JUMPDEST CALLVALUE DUP1 ISZERO PUSH2 0x4EB JUMPI PUSH0 DUP1 REVERT JUMPDEST POP PUSH2 0x4F4 PUSH2 0x117A JUMP JUMPDEST STOP JUMPDEST CALLVALUE DUP1 ISZERO PUSH2 0x501 JUMPI PUSH0 DUP1 REVERT JUMPDEST POP PUSH2 0x50A PUSH2 0x11F9 JUMP JUMPDEST PUSH1 0x40 MLOAD PUSH2 0x517 SWAP2 SWAP1 PUSH2 0x2A6F JUMP JUMPDEST PUSH1 0x40 MLOAD DUP1 SWAP2 SUB SWAP1 RETURN JUMPDEST CALLVALUE DUP1 ISZERO PUSH2 0x52B JUMPI PUSH0 DUP1 REVERT JUMPDEST POP PUSH2 0x546 PUSH1 0x4 DUP1 CALLDATASIZE SUB DUP2 ADD SWAP1 PUSH2 0x541 SWAP2 SWAP1 PUSH2 0x2B2B JUMP JUMPDEST PUSH2 0x1210 JUMP JUMPDEST STOP JUMPDEST CALLVALUE DUP1 ISZERO PUSH2 0x553 JUMPI PUSH0 DUP1 REVERT JUMPDEST POP PUSH2 0x55C PUSH2 0x1278 JUMP JUMPDEST PUSH1 0x40 MLOAD PUSH2 0x569 SWAP2 SWAP1 PUSH2 0x2C01 JUMP JUMPDEST PUSH1 0x40 MLOAD DUP1 SWAP2 SUB SWAP1 RETURN JUMPDEST CALLVALUE DUP1 ISZERO PUSH2 0x57D JUMPI PUSH0 DUP1 REVERT JUMPDEST POP PUSH2 0x586 PUSH2 0x12A1 JUMP JUMPDEST PUSH1 0x40 MLOAD PUSH2 0x593 SWAP2 SWAP1 PUSH2 0x2A6F JUMP JUMPDEST PUSH1 0x40 MLOAD DUP1 SWAP2 SUB SWAP1 RETURN JUMPDEST CALLVALUE DUP1 ISZERO PUSH2 0x5A7 JUMPI PUSH0 DUP1 REVERT JUMPDEST POP PUSH2 0x5B0 PUSH2 0x12F8 JUMP JUMPDEST PUSH1 0x40 MLOAD PUSH2 0x5BD SWAP2 SWAP1 PUSH2 0x2966 JUMP JUMPDEST PUSH1 0x40 MLOAD DUP1 SWAP2 SUB SWAP1 RETURN JUMPDEST CALLVALUE DUP1 ISZERO PUSH2 0x5D1 JUMPI PUSH0 DUP1 REVERT JUMPDEST POP PUSH2 0x5DA PUSH2 0x1388 JUMP JUMPDEST PUSH1 0x40 MLOAD PUSH2 0x5E7 SWAP2 SWAP1 PUSH2 0x2A97 JUMP JUMPDEST PUSH1 0x40 MLOAD DUP1 SWAP2 SUB SWAP1 RETURN JUMPDEST CALLVALUE DUP1 ISZERO PUSH2 0x5FB JUMPI PUSH0 DUP1 REVERT JUMPDEST POP PUSH2 0x616 PUSH1 0x4 DUP1 CALLDATASIZE SUB DUP2 ADD SWAP1 PUSH2 0x611 SWAP2 SWAP1 PUSH2 0x2B2B JUMP JUMPDEST PUSH2 0x138E JUMP JUMPDEST PUSH1 0x40 MLOAD PUSH2 0x623 SWAP2 SWAP1 PUSH2 0x2A6F JUMP JUMPDEST PUSH1 0x40 MLOAD DUP1 SWAP2 SUB SWAP1 RETURN JUMPDEST CALLVALUE DUP1 ISZERO PUSH2 0x637 JUMPI PUSH0 DUP1 REVERT JUMPDEST POP PUSH2 0x652 PUSH1 0x4 DUP1 CALLDATASIZE SUB DUP2 ADD SWAP1 PUSH2 0x64D SWAP2 SWAP1 PUSH2 0x2A17 JUMP JUMPDEST PUSH2 0x13AB JUMP JUMPDEST PUSH1 0x40 MLOAD PUSH2 0x65F SWAP2 SWAP1 PUSH2 0x2A6F JUMP JUMPDEST PUSH1 0x40 MLOAD DUP1 SWAP2 SUB SWAP1 RETURN JUMPDEST CALLVALUE DUP1 ISZERO PUSH2 0x673 JUMPI PUSH0 DUP1 REVERT JUMPDEST POP PUSH2 0x68E PUSH1 0x4 DUP1 CALLDATASIZE SUB DUP2 ADD SWAP1 PUSH2 0x689 SWAP2 SWAP1 PUSH2 0x2A17 JUMP JUMPDEST PUSH2 0x1629 JUMP JUMPDEST PUSH1 0x40 MLOAD PUSH2 0x69B SWAP2 SWAP1 PUSH2 0x2A6F JUMP JUMPDEST PUSH1 0x40 MLOAD DUP1 SWAP2 SUB SWAP1 RETURN JUMPDEST CALLVALUE DUP1 ISZERO PUSH2 0x6AF JUMPI PUSH0 DUP1 REVERT JUMPDEST POP PUSH2 0x6CA PUSH1 0x4 DUP1 CALLDATASIZE SUB DUP2 ADD SWAP1 PUSH2 0x6C5 SWAP2 SWAP1 PUSH2 0x2B00 JUMP JUMPDEST PUSH2 0x1679 JUMP JUMPDEST STOP JUMPDEST CALLVALUE DUP1 ISZERO PUSH2 0x6D7 JUMPI PUSH0 DUP1 REVERT JUMPDEST POP PUSH2 0x6E0 PUSH2 0x1693 JUMP JUMPDEST PUSH1 0x40 MLOAD PUSH2 0x6ED SWAP2 SWAP1 PUSH2 0x2A6F JUMP JUMPDEST PUSH1 0x40 MLOAD DUP1 SWAP2 SUB SWAP1 RETURN JUMPDEST CALLVALUE DUP1 ISZERO PUSH2 0x701 JUMPI PUSH0 DUP1 REVERT JUMPDEST POP PUSH2 0x70A PUSH2 0x16A5 JUMP JUMPDEST STOP JUMPDEST CALLVALUE DUP1 ISZERO PUSH2 0x717 JUMPI PUSH0 DUP1 REVERT JUMPDEST POP PUSH2 0x720 PUSH2 0x1956 JUMP JUMPDEST PUSH1 0x40 MLOAD PUSH2 0x72D SWAP2 SWAP1 PUSH2 0x2A97 JUMP JUMPDEST PUSH1 0x40 MLOAD DUP1 SWAP2 SUB SWAP1 RETURN JUMPDEST CALLVALUE DUP1 ISZERO PUSH2 0x741 JUMPI PUSH0 DUP1 REVERT JUMPDEST POP PUSH2 0x75C PUSH1 0x4 DUP1 CALLDATASIZE SUB DUP2 ADD SWAP1 PUSH2 0x757 SWAP2 SWAP1 PUSH2 0x2B2B JUMP JUMPDEST PUSH2 0x195C JUMP JUMPDEST PUSH1 0x40 MLOAD PUSH2 0x769 SWAP2 SWAP1 PUSH2 0x2A6F JUMP JUMPDEST PUSH1 0x40 MLOAD DUP1 SWAP2 SUB SWAP1 RETURN JUMPDEST CALLVALUE DUP1 ISZERO PUSH2 0x77D JUMPI PUSH0 DUP1 REVERT JUMPDEST POP PUSH2 0x798 PUSH1 0x4 DUP1 CALLDATASIZE SUB DUP2 ADD SWAP1 PUSH2 0x793 SWAP2 SWAP1 PUSH2 0x2C1A JUMP JUMPDEST PUSH2 0x19AE JUMP JUMPDEST PUSH1 0x40 MLOAD PUSH2 0x7A5 SWAP2 SWAP1 PUSH2 0x2A97 JUMP JUMPDEST PUSH1 0x40 MLOAD DUP1 SWAP2 SUB SWAP1 RETURN JUMPDEST CALLVALUE DUP1 ISZERO PUSH2 0x7B9 JUMPI PUSH0 DUP1 REVERT JUMPDEST POP PUSH2 0x7D4 PUSH1 0x4 DUP1 CALLDATASIZE SUB DUP2 ADD SWAP1 PUSH2 0x7CF SWAP2 SWAP1 PUSH2 0x2C58 JUMP JUMPDEST PUSH2 0x1A30 JUMP JUMPDEST STOP JUMPDEST CALLVALUE DUP1 ISZERO PUSH2 0x7E1 JUMPI PUSH0 DUP1 REVERT JUMPDEST POP PUSH2 0x7EA PUSH2 0x1A88 JUMP JUMPDEST PUSH1 0x40 MLOAD PUSH2 0x7F7 SWAP2 SWAP1 PUSH2 0x2C01 JUMP JUMPDEST PUSH1 0x40 MLOAD DUP1 SWAP2 SUB SWAP1 RETURN JUMPDEST CALLVALUE DUP1 ISZERO PUSH2 0x80B JUMPI PUSH0 DUP1 REVERT JUMPDEST POP PUSH2 0x826 PUSH1 0x4 DUP1 CALLDATASIZE SUB DUP2 ADD SWAP1 PUSH2 0x821 SWAP2 SWAP1 PUSH2 0x2B2B JUMP JUMPDEST PUSH2 0x1AAE JUMP JUMPDEST STOP JUMPDEST PUSH1 0x60 PUSH0 DUP1 SLOAD PUSH2 0x836 SWAP1 PUSH2 0x2CB0 JUMP JUMPDEST DUP1 PUSH1 0x1F ADD PUSH1 0x20 DUP1 SWAP2 DIV MUL PUSH1 0x20 ADD PUSH1 0x40 MLOAD SWAP1 DUP2 ADD PUSH1 0x40 MSTORE DUP1 SWAP3 SWAP2 SWAP1 DUP2 DUP2 MSTORE PUSH1 0x20 ADD DUP3 DUP1 SLOAD PUSH2 0x862 SWAP1 PUSH2 0x2CB0 JUMP JUMPDEST DUP1 ISZERO PUSH2 0x8AD JUMPI DUP1 PUSH1 0x1F LT PUSH2 0x884 JUMPI PUSH2 0x100 DUP1 DUP4 SLOAD DIV MUL DUP4 MSTORE SWAP2 PUSH1 0x20 ADD SWAP2 PUSH2 0x8AD JUMP JUMPDEST DUP3 ADD SWAP2 SWAP1 PUSH0 MSTORE PUSH1 0x20 PUSH0 KECCAK256 SWAP1 JUMPDEST DUP2 SLOAD DUP2 MSTORE SWAP1 PUSH1 0x1 ADD SWAP1 PUSH1 0x20 ADD DUP1 DUP4 GT PUSH2 0x890 JUMPI DUP3 SWAP1 SUB PUSH1 0x1F AND DUP3 ADD SWAP2 JUMPDEST POP POP POP POP POP SWAP1 POP SWAP1 JUMP JUMPDEST PUSH0 DUP2 PUSH1 0x13 PUSH0 CALLER PUSH20 0xFFFFFFFFFFFFFFFFFFFFFFFFFFFFFFFFFFFFFFFF AND PUSH20 0xFFFFFFFFFFFFFFFFFFFFFFFFFFFFFFFFFFFFFFFF AND DUP2 MSTORE PUSH1 0x20 ADD SWAP1 DUP2 MSTORE PUSH1 0x20 ADD PUSH0 KECCAK256 PUSH0 DUP6 PUSH20 0xFFFFFFFFFFFFFFFFFFFFFFFFFFFFFFFFFFFFFFFF AND PUSH20 0xFFFFFFFFFFFFFFFFFFFFFFFFFFFFFFFFFFFFFFFF AND DUP2 MSTORE PUSH1 0x20 ADD SWAP1 DUP2 MSTORE PUSH1 0x20 ADD PUSH0 KECCAK256 DUP2 SWAP1 SSTORE POP DUP3 PUSH20 0xFFFFFFFFFFFFFFFFFFFFFFFFFFFFFFFFFFFFFFFF AND CALLER PUSH20 0xFFFFFFFFFFFFFFFFFFFFFFFFFFFFFFFFFFFFFFFF AND PUSH32 0x8C5BE1E5EBEC7D5BD14F71427D1E84F3DD0314C0F7B2291E5B200AC8C7C3B925 DUP5 PUSH1 0x40 MLOAD PUSH2 0x992 SWAP2 SWAP1 PUSH2 0x2A97 JUMP JUMPDEST PUSH1 0x40 MLOAD DUP1 SWAP2 SUB SWAP1 LOG3 PUSH1 0x1 SWAP1 POP SWAP3 SWAP2 POP POP JUMP JUMPDEST PUSH0 PUSH1 0x8 SLOAD SWAP1 POP SWAP1 JUMP JUMPDEST PUSH0 DUP3 PUSH0 PUSH20 0xFFFFFFFFFFFFFFFFFFFFFFFFFFFFFFFFFFFFFFFF AND DUP2 PUSH20 0xFFFFFFFFFFFFFFFFFFFFFFFFFFFFFFFFFFFFFFFF AND SUB PUSH2 0x9E6 JUMPI PUSH0 DUP1 REVERT JUMPDEST ADDRESS PUSH20 0xFFFFFFFFFFFFFFFFFFFFFFFFFFFFFFFFFFFFFFFF AND DUP6 PUSH20 0xFFFFFFFFFFFFFFFFFFFFFFFFFFFFFFFFFFFFFFFF AND EQ DUP1 ISZERO PUSH2 0xA6D JUMPI POP PUSH1 0x11 PUSH0 SWAP1 SLOAD SWAP1 PUSH2 0x100 EXP SWAP1 DIV PUSH20 0xFFFFFFFFFFFFFFFFFFFFFFFFFFFFFFFFFFFFFFFF AND PUSH20 0xFFFFFFFFFFFFFFFFFFFFFFFFFFFFFFFFFFFFFFFF AND DUP5 PUSH20 0xFFFFFFFFFFFFFFFFFFFFFFFFFFFFFFFFFFFFFFFF AND EQ JUMPDEST ISZERO PUSH2 0xA7B JUMPI PUSH1 0x1 SWAP2 POP PUSH2 0xBCA JUMP JUMPDEST PUSH2 0xB3D DUP4 PUSH1 0x40 MLOAD DUP1 PUSH1 0x40 ADD PUSH1 0x40 MSTORE DUP1 PUSH1 0x16 DUP2 MSTORE PUSH1 0x20 ADD PUSH32 0x496E73756666696369656E7420416C6C6F77616E636500000000000000000000 DUP2 MSTORE POP PUSH1 0x13 PUSH0 DUP10 PUSH20 0xFFFFFFFFFFFFFFFFFFFFFFFFFFFFFFFFFFFFFFFF AND PUSH20 0xFFFFFFFFFFFFFFFFFFFFFFFFFFFFFFFFFFFFFFFF AND DUP2 MSTORE PUSH1 0x20 ADD SWAP1 DUP2 MSTORE PUSH1 0x20 ADD PUSH0 KECCAK256 PUSH0 CALLER PUSH20 0xFFFFFFFFFFFFFFFFFFFFFFFFFFFFFFFFFFFFFFFF AND PUSH20 0xFFFFFFFFFFFFFFFFFFFFFFFFFFFFFFFFFFFFFFFF AND DUP2 MSTORE PUSH1 0x20 ADD SWAP1 DUP2 MSTORE PUSH1 0x20 ADD PUSH0 KECCAK256 SLOAD PUSH2 0x1ACA SWAP1 SWAP3 SWAP2 SWAP1 PUSH4 0xFFFFFFFF AND JUMP JUMPDEST PUSH1 0x13 PUSH0 DUP8 PUSH20 0xFFFFFFFFFFFFFFFFFFFFFFFFFFFFFFFFFFFFFFFF AND PUSH20 0xFFFFFFFFFFFFFFFFFFFFFFFFFFFFFFFFFFFFFFFF AND DUP2 MSTORE PUSH1 0x20 ADD SWAP1 DUP2 MSTORE PUSH1 0x20 ADD PUSH0 KECCAK256 PUSH0 CALLER PUSH20 0xFFFFFFFFFFFFFFFFFFFFFFFFFFFFFFFFFFFFFFFF AND PUSH20 0xFFFFFFFFFFFFFFFFFFFFFFFFFFFFFFFFFFFFFFFF AND DUP2 MSTORE PUSH1 0x20 ADD SWAP1 DUP2 MSTORE PUSH1 0x20 ADD PUSH0 KECCAK256 DUP2 SWAP1 SSTORE POP PUSH2 0xBC4 DUP6 DUP6 DUP6 PUSH2 0x1B1E JUMP JUMPDEST POP PUSH1 0x1 SWAP2 POP JUMPDEST POP SWAP4 SWAP3 POP POP POP JUMP JUMPDEST PUSH2 0xBDA PUSH2 0x12A1 JUMP JUMPDEST PUSH2 0xBE2 JUMPI PUSH0 DUP1 REVERT JUMPDEST DUP1 PUSH1 0x4 DUP2 SWAP1 SSTORE POP POP JUMP JUMPDEST PUSH0 PUSH2 0xCD5 PUSH1 0x9 SLOAD PUSH2 0xCC7 PUSH1 0xC PUSH0 DUP1 PUSH20 0xFFFFFFFFFFFFFFFFFFFFFFFFFFFFFFFFFFFFFFFF AND PUSH20 0xFFFFFFFFFFFFFFFFFFFFFFFFFFFFFFFFFFFFFFFF AND DUP2 MSTORE PUSH1 0x20 ADD SWAP1 DUP2 MSTORE PUSH1 0x20 ADD PUSH0 KECCAK256 SLOAD PUSH2 0xCB9 PUSH1 0xC PUSH0 PUSH2 0xDEAD PUSH20 0xFFFFFFFFFFFFFFFFFFFFFFFFFFFFFFFFFFFFFFFF AND PUSH20 0xFFFFFFFFFFFFFFFFFFFFFFFFFFFFFFFFFFFFFFFF AND DUP2 MSTORE PUSH1 0x20 ADD SWAP1 DUP2 MSTORE PUSH1 0x20 ADD PUSH0 KECCAK256 SLOAD PUSH1 0x5 PUSH1 0xA PUSH2 0xC85 SWAP2 SWAP1 PUSH2 0x2E3C JUMP JUMPDEST PUSH3 0x4F588 PUSH2 0xC93 SWAP2 SWAP1 PUSH2 0x2E86 JUMP JUMPDEST PUSH0 NOT PUSH2 0xC9F SWAP2 SWAP1 PUSH2 0x2EF4 JUMP JUMPDEST PUSH0 NOT PUSH2 0xCAB SWAP2 SWAP1 PUSH2 0x2F24 JUMP JUMPDEST PUSH2 0x1D0E SWAP1 SWAP2 SWAP1 PUSH4 0xFFFFFFFF AND JUMP JUMPDEST PUSH2 0x1D0E SWAP1 SWAP2 SWAP1 PUSH4 0xFFFFFFFF AND JUMP JUMPDEST PUSH2 0x1D23 SWAP1 SWAP2 SWAP1 PUSH4 0xFFFFFFFF AND JUMP JUMPDEST SWAP1 POP SWAP1 JUMP JUMPDEST PUSH2 0xCE2 PUSH2 0x12A1 JUMP JUMPDEST PUSH2 0xCEA JUMPI PUSH0 DUP1 REVERT JUMPDEST DUP1 PUSH1 0x5 PUSH1 0x1 PUSH2 0x100 EXP DUP2 SLOAD DUP2 PUSH20 0xFFFFFFFFFFFFFFFFFFFFFFFFFFFFFFFFFFFFFFFF MUL NOT AND SWAP1 DUP4 PUSH20 0xFFFFFFFFFFFFFFFFFFFFFFFFFFFFFFFFFFFFFFFF AND MUL OR SWAP1 SSTORE POP PUSH1 0x5 PUSH1 0x1 SWAP1 SLOAD SWAP1 PUSH2 0x100 EXP SWAP1 DIV PUSH20 0xFFFFFFFFFFFFFFFFFFFFFFFFFFFFFFFFFFFFFFFF AND PUSH1 0x12 PUSH0 PUSH2 0x100 EXP DUP2 SLOAD DUP2 PUSH20 0xFFFFFFFFFFFFFFFFFFFFFFFFFFFFFFFFFFFFFFFF MUL NOT AND SWAP1 DUP4 PUSH20 0xFFFFFFFFFFFFFFFFFFFFFFFFFFFFFFFFFFFFFFFF AND MUL OR SWAP1 SSTORE POP POP JUMP JUMPDEST PUSH0 PUSH1 0x2 PUSH0 SWAP1 SLOAD SWAP1 PUSH2 0x100 EXP SWAP1 DIV PUSH1 0xFF AND SWAP1 POP SWAP1 JUMP JUMPDEST PUSH1 0xB PUSH0 SWAP1 SLOAD SWAP1 PUSH2 0x100 EXP SWAP1 DIV PUSH1 0xFF AND DUP2 JUMP JUMPDEST PUSH1 0x7 SLOAD DUP2 JUMP JUMPDEST PUSH2 0xDC5 PUSH2 0x12A1 JUMP JUMPDEST PUSH2 0xDCD JUMPI PUSH0 DUP1 REVERT JUMPDEST PUSH2 0xDD6 DUP3 PUSH2 0x1D38 JUMP JUMPDEST PUSH2 0xE15 JUMPI PUSH1 0x40 MLOAD PUSH32 0x8C379A000000000000000000000000000000000000000000000000000000000 DUP2 MSTORE PUSH1 0x4 ADD PUSH2 0xE0C SWAP1 PUSH2 0x2FC7 JUMP JUMPDEST PUSH1 0x40 MLOAD DUP1 SWAP2 SUB SWAP1 REVERT JUMPDEST DUP1 PUSH1 0xF PUSH0 DUP5 PUSH20 0xFFFFFFFFFFFFFFFFFFFFFFFFFFFFFFFFFFFFFFFF AND PUSH20 0xFFFFFFFFFFFFFFFFFFFFFFFFFFFFFFFFFFFFFFFF AND DUP2 MSTORE PUSH1 0x20 ADD SWAP1 DUP2 MSTORE PUSH1 0x20 ADD PUSH0 KECCAK256 PUSH0 PUSH2 0x100 EXP DUP2 SLOAD DUP2 PUSH1 0xFF MUL NOT AND SWAP1 DUP4 ISZERO ISZERO MUL OR SWAP1 SSTORE POP POP POP JUMP JUMPDEST PUSH0 PUSH2 0xEF9 DUP3 PUSH1 0x13 PUSH0 CALLER PUSH20 0xFFFFFFFFFFFFFFFFFFFFFFFFFFFFFFFFFFFFFFFF AND PUSH20 0xFFFFFFFFFFFFFFFFFFFFFFFFFFFFFFFFFFFFFFFF AND DUP2 MSTORE PUSH1 0x20 ADD SWAP1 DUP2 MSTORE PUSH1 0x20 ADD PUSH0 KECCAK256 PUSH0 DUP7 PUSH20 0xFFFFFFFFFFFFFFFFFFFFFFFFFFFFFFFFFFFFFFFF AND PUSH20 0xFFFFFFFFFFFFFFFFFFFFFFFFFFFFFFFFFFFFFFFF AND DUP2 MSTORE PUSH1 0x20 ADD SWAP1 DUP2 MSTORE PUSH1 0x20 ADD PUSH0 KECCAK256 SLOAD PUSH2 0x1D49 SWAP1 SWAP2 SWAP1 PUSH4 0xFFFFFFFF AND JUMP JUMPDEST PUSH1 0x13 PUSH0 CALLER PUSH20 0xFFFFFFFFFFFFFFFFFFFFFFFFFFFFFFFFFFFFFFFF AND PUSH20 0xFFFFFFFFFFFFFFFFFFFFFFFFFFFFFFFFFFFFFFFF AND DUP2 MSTORE PUSH1 0x20 ADD SWAP1 DUP2 MSTORE PUSH1 0x20 ADD PUSH0 KECCAK256 PUSH0 DUP6 PUSH20 0xFFFFFFFFFFFFFFFFFFFFFFFFFFFFFFFFFFFFFFFF AND PUSH20 0xFFFFFFFFFFFFFFFFFFFFFFFFFFFFFFFFFFFFFFFF AND DUP2 MSTORE PUSH1 0x20 ADD SWAP1 DUP2 MSTORE PUSH1 0x20 ADD PUSH0 KECCAK256 DUP2 SWAP1 SSTORE POP DUP3 PUSH20 0xFFFFFFFFFFFFFFFFFFFFFFFFFFFFFFFFFFFFFFFF AND CALLER PUSH20 0xFFFFFFFFFFFFFFFFFFFFFFFFFFFFFFFFFFFFFFFF AND PUSH32 0x8C5BE1E5EBEC7D5BD14F71427D1E84F3DD0314C0F7B2291E5B200AC8C7C3B925 PUSH1 0x13 PUSH0 CALLER PUSH20 0xFFFFFFFFFFFFFFFFFFFFFFFFFFFFFFFFFFFFFFFF AND PUSH20 0xFFFFFFFFFFFFFFFFFFFFFFFFFFFFFFFFFFFFFFFF AND DUP2 MSTORE PUSH1 0x20 ADD SWAP1 DUP2 MSTORE PUSH1 0x20 ADD PUSH0 KECCAK256 PUSH0 DUP8 PUSH20 0xFFFFFFFFFFFFFFFFFFFFFFFFFFFFFFFFFFFFFFFF AND PUSH20 0xFFFFFFFFFFFFFFFFFFFFFFFFFFFFFFFFFFFFFFFF AND DUP2 MSTORE PUSH1 0x20 ADD SWAP1 DUP2 MSTORE PUSH1 0x20 ADD PUSH0 KECCAK256 SLOAD PUSH1 0x40 MLOAD PUSH2 0x104A SWAP2 SWAP1 PUSH2 0x2A97 JUMP JUMPDEST PUSH1 0x40 MLOAD DUP1 SWAP2 SUB SWAP1 LOG3 PUSH1 0x1 SWAP1 POP SWAP3 SWAP2 POP POP JUMP JUMPDEST PUSH1 0x8 SLOAD DUP2 JUMP JUMPDEST PUSH1 0x3 SLOAD DUP2 JUMP JUMPDEST PUSH0 PUSH2 0x10BB PUSH1 0x9 SLOAD PUSH1 0xC PUSH0 DUP6 PUSH20 0xFFFFFFFFFFFFFFFFFFFFFFFFFFFFFFFFFFFFFFFF AND PUSH20 0xFFFFFFFFFFFFFFFFFFFFFFFFFFFFFFFFFFFFFFFF AND DUP2 MSTORE PUSH1 0x20 ADD SWAP1 DUP2 MSTORE PUSH1 0x20 ADD PUSH0 KECCAK256 SLOAD PUSH2 0x1D23 SWAP1 SWAP2 SWAP1 PUSH4 0xFFFFFFFF AND JUMP JUMPDEST SWAP1 POP SWAP2 SWAP1 POP JUMP JUMPDEST PUSH2 0x10CA PUSH2 0x12A1 JUMP JUMPDEST PUSH2 0x10D2 JUMPI PUSH0 DUP1 REVERT JUMPDEST PUSH1 0x2 PUSH1 0x1 SWAP1 SLOAD SWAP1 PUSH2 0x100 EXP SWAP1 DIV PUSH20 0xFFFFFFFFFFFFFFFFFFFFFFFFFFFFFFFFFFFFFFFF AND PUSH20 0xFFFFFFFFFFFFFFFFFFFFFFFFFFFFFFFFFFFFFFFF AND PUSH32 0xF8DF31144D9C2F0F6B59D69B8B98ABD5459D07F2742C4DF920B25AAE33C64820 PUSH1 0x40 MLOAD PUSH1 0x40 MLOAD DUP1 SWAP2 SUB SWAP1 LOG2 PUSH0 PUSH1 0x2 PUSH1 0x1 PUSH2 0x100 EXP DUP2 SLOAD DUP2 PUSH20 0xFFFFFFFFFFFFFFFFFFFFFFFFFFFFFFFFFFFFFFFF MUL NOT AND SWAP1 DUP4 PUSH20 0xFFFFFFFFFFFFFFFFFFFFFFFFFFFFFFFFFFFFFFFF AND MUL OR SWAP1 SSTORE POP JUMP JUMPDEST PUSH1 0x5 PUSH1 0x1 SWAP1 SLOAD SWAP1 PUSH2 0x100 EXP SWAP1 DIV PUSH20 0xFFFFFFFFFFFFFFFFFFFFFFFFFFFFFFFFFFFFFFFF AND PUSH20 0xFFFFFFFFFFFFFFFFFFFFFFFFFFFFFFFFFFFFFFFF AND PUSH4 0xFFF6CAE9 PUSH1 0x40 MLOAD DUP2 PUSH4 0xFFFFFFFF AND PUSH1 0xE0 SHL DUP2 MSTORE PUSH1 0x4 ADD PUSH0 PUSH1 0x40 MLOAD DUP1 DUP4 SUB DUP2 PUSH0 DUP8 DUP1 EXTCODESIZE ISZERO DUP1 ISZERO PUSH2 0x11E1 JUMPI PUSH0 DUP1 REVERT JUMPDEST POP GAS CALL ISZERO DUP1 ISZERO PUSH2 0x11F3 JUMPI RETURNDATASIZE PUSH0 DUP1 RETURNDATACOPY RETURNDATASIZE PUSH0 REVERT JUMPDEST POP POP POP POP JUMP JUMPDEST PUSH0 PUSH1 0x12 PUSH1 0x14 SWAP1 SLOAD SWAP1 PUSH2 0x100 EXP SWAP1 DIV PUSH1 0xFF AND ISZERO SWAP1 POP SWAP1 JUMP JUMPDEST PUSH2 0x1218 PUSH2 0x12A1 JUMP JUMPDEST PUSH2 0x1220 JUMPI PUSH0 DUP1 REVERT JUMPDEST PUSH1 0x1 PUSH1 0xE PUSH0 DUP4 PUSH20 0xFFFFFFFFFFFFFFFFFFFFFFFFFFFFFFFFFFFFFFFF AND PUSH20 0xFFFFFFFFFFFFFFFFFFFFFFFFFFFFFFFFFFFFFFFF AND DUP2 MSTORE PUSH1 0x20 ADD SWAP1 DUP2 MSTORE PUSH1 0x20 ADD PUSH0 KECCAK256 PUSH0 PUSH2 0x100 EXP DUP2 SLOAD DUP2 PUSH1 0xFF MUL NOT AND SWAP1 DUP4 ISZERO ISZERO MUL OR SWAP1 SSTORE POP POP JUMP JUMPDEST PUSH0 PUSH1 0x2 PUSH1 0x1 SWAP1 SLOAD SWAP1 PUSH2 0x100 EXP SWAP1 DIV PUSH20 0xFFFFFFFFFFFFFFFFFFFFFFFFFFFFFFFFFFFFFFFF AND SWAP1 POP SWAP1 JUMP JUMPDEST PUSH0 PUSH1 0x2 PUSH1 0x1 SWAP1 SLOAD SWAP1 PUSH2 0x100 EXP SWAP1 DIV PUSH20 0xFFFFFFFFFFFFFFFFFFFFFFFFFFFFFFFFFFFFFFFF AND PUSH20 0xFFFFFFFFFFFFFFFFFFFFFFFFFFFFFFFFFFFFFFFF AND CALLER PUSH20 0xFFFFFFFFFFFFFFFFFFFFFFFFFFFFFFFFFFFFFFFF AND EQ SWAP1 POP SWAP1 JUMP JUMPDEST PUSH1 0x60 PUSH1 0x1 DUP1 SLOAD PUSH2 0x1307 SWAP1 PUSH2 0x2CB0 JUMP JUMPDEST DUP1 PUSH1 0x1F ADD PUSH1 0x20 DUP1 SWAP2 DIV MUL PUSH1 0x20 ADD PUSH1 0x40 MLOAD SWAP1 DUP2 ADD PUSH1 0x40 MSTORE DUP1 SWAP3 SWAP2 SWAP1 DUP2 DUP2 MSTORE PUSH1 0x20 ADD DUP3 DUP1 SLOAD PUSH2 0x1333 SWAP1 PUSH2 0x2CB0 JUMP JUMPDEST DUP1 ISZERO PUSH2 0x137E JUMPI DUP1 PUSH1 0x1F LT PUSH2 0x1355 JUMPI PUSH2 0x100 DUP1 DUP4 SLOAD DIV MUL DUP4 MSTORE SWAP2 PUSH1 0x20 ADD SWAP2 PUSH2 0x137E JUMP JUMPDEST DUP3 ADD SWAP2 SWAP1 PUSH0 MSTORE PUSH1 0x20 PUSH0 KECCAK256 SWAP1 JUMPDEST DUP2 SLOAD DUP2 MSTORE SWAP1 PUSH1 0x1 ADD SWAP1 PUSH1 0x20 ADD DUP1 DUP4 GT PUSH2 0x1361 JUMPI DUP3 SWAP1 SUB PUSH1 0x1F AND DUP3 ADD SWAP2 JUMPDEST POP POP POP POP POP SWAP1 POP SWAP1 JUMP JUMPDEST PUSH1 0x6 SLOAD DUP2 JUMP JUMPDEST PUSH1 0xF PUSH1 0x20 MSTORE DUP1 PUSH0 MSTORE PUSH1 0x40 PUSH0 KECCAK256 PUSH0 SWAP2 POP SLOAD SWAP1 PUSH2 0x100 EXP SWAP1 DIV PUSH1 0xFF AND DUP2 JUMP JUMPDEST PUSH0 DUP1 PUSH1 0x13 PUSH0 CALLER PUSH20 0xFFFFFFFFFFFFFFFFFFFFFFFFFFFFFFFFFFFFFFFF AND PUSH20 0xFFFFFFFFFFFFFFFFFFFFFFFFFFFFFFFFFFFFFFFF AND DUP2 MSTORE PUSH1 0x20 ADD SWAP1 DUP2 MSTORE PUSH1 0x20 ADD PUSH0 KECCAK256 PUSH0 DUP6 PUSH20 0xFFFFFFFFFFFFFFFFFFFFFFFFFFFFFFFFFFFFFFFF AND PUSH20 0xFFFFFFFFFFFFFFFFFFFFFFFFFFFFFFFFFFFFFFFF AND DUP2 MSTORE PUSH1 0x20 ADD SWAP1 DUP2 MSTORE PUSH1 0x20 ADD PUSH0 KECCAK256 SLOAD SWAP1 POP DUP1 DUP4 LT PUSH2 0x14B1 JUMPI PUSH0 PUSH1 0x13 PUSH0 CALLER PUSH20 0xFFFFFFFFFFFFFFFFFFFFFFFFFFFFFFFFFFFFFFFF AND PUSH20 0xFFFFFFFFFFFFFFFFFFFFFFFFFFFFFFFFFFFFFFFF AND DUP2 MSTORE PUSH1 0x20 ADD SWAP1 DUP2 MSTORE PUSH1 0x20 ADD PUSH0 KECCAK256 PUSH0 DUP7 PUSH20 0xFFFFFFFFFFFFFFFFFFFFFFFFFFFFFFFFFFFFFFFF AND PUSH20 0xFFFFFFFFFFFFFFFFFFFFFFFFFFFFFFFFFFFFFFFF AND DUP2 MSTORE PUSH1 0x20 ADD SWAP1 DUP2 MSTORE PUSH1 0x20 ADD PUSH0 KECCAK256 DUP2 SWAP1 SSTORE POP PUSH2 0x1541 JUMP JUMPDEST PUSH2 0x14C4 DUP4 DUP3 PUSH2 0x1D0E SWAP1 SWAP2 SWAP1 PUSH4 0xFFFFFFFF AND JUMP JUMPDEST PUSH1 0x13 PUSH0 CALLER PUSH20 0xFFFFFFFFFFFFFFFFFFFFFFFFFFFFFFFFFFFFFFFF AND PUSH20 0xFFFFFFFFFFFFFFFFFFFFFFFFFFFFFFFFFFFFFFFF AND DUP2 MSTORE PUSH1 0x20 ADD SWAP1 DUP2 MSTORE PUSH1 0x20 ADD PUSH0 KECCAK256 PUSH0 DUP7 PUSH20 0xFFFFFFFFFFFFFFFFFFFFFFFFFFFFFFFFFFFFFFFF AND PUSH20 0xFFFFFFFFFFFFFFFFFFFFFFFFFFFFFFFFFFFFFFFF AND DUP2 MSTORE PUSH1 0x20 ADD SWAP1 DUP2 MSTORE PUSH1 0x20 ADD PUSH0 KECCAK256 DUP2 SWAP1 SSTORE POP JUMPDEST DUP4 PUSH20 0xFFFFFFFFFFFFFFFFFFFFFFFFFFFFFFFFFFFFFFFF AND CALLER PUSH20 0xFFFFFFFFFFFFFFFFFFFFFFFFFFFFFFFFFFFFFFFF AND PUSH32 0x8C5BE1E5EBEC7D5BD14F71427D1E84F3DD0314C0F7B2291E5B200AC8C7C3B925 PUSH1 0x13 PUSH0 CALLER PUSH20 0xFFFFFFFFFFFFFFFFFFFFFFFFFFFFFFFFFFFFFFFF AND PUSH20 0xFFFFFFFFFFFFFFFFFFFFFFFFFFFFFFFFFFFFFFFF AND DUP2 MSTORE PUSH1 0x20 ADD SWAP1 DUP2 MSTORE PUSH1 0x20 ADD PUSH0 KECCAK256 PUSH0 DUP9 PUSH20 0xFFFFFFFFFFFFFFFFFFFFFFFFFFFFFFFFFFFFFFFF AND PUSH20 0xFFFFFFFFFFFFFFFFFFFFFFFFFFFFFFFFFFFFFFFF AND DUP2 MSTORE PUSH1 0x20 ADD SWAP1 DUP2 MSTORE PUSH1 0x20 ADD PUSH0 KECCAK256 SLOAD PUSH1 0x40 MLOAD PUSH2 0x1616 SWAP2 SWAP1 PUSH2 0x2A97 JUMP JUMPDEST PUSH1 0x40 MLOAD DUP1 SWAP2 SUB SWAP1 LOG3 PUSH1 0x1 SWAP2 POP POP SWAP3 SWAP2 POP POP JUMP JUMPDEST PUSH0 DUP3 PUSH0 PUSH20 0xFFFFFFFFFFFFFFFFFFFFFFFFFFFFFFFFFFFFFFFF AND DUP2 PUSH20 0xFFFFFFFFFFFFFFFFFFFFFFFFFFFFFFFFFFFFFFFF AND SUB PUSH2 0x1662 JUMPI PUSH0 DUP1 REVERT JUMPDEST PUSH2 0x166D CALLER DUP6 DUP6 PUSH2 0x1B1E JUMP JUMPDEST POP PUSH1 0x1 SWAP2 POP POP SWAP3 SWAP2 POP POP JUMP JUMPDEST PUSH2 0x1681 PUSH2 0x12A1 JUMP JUMPDEST PUSH2 0x1689 JUMPI PUSH0 DUP1 REVERT JUMPDEST DUP1 PUSH1 0x3 DUP2 SWAP1 SSTORE POP POP JUMP JUMPDEST PUSH1 0x5 PUSH0 SWAP1 SLOAD SWAP1 PUSH2 0x100 EXP SWAP1 DIV PUSH1 0xFF AND DUP2 JUMP JUMPDEST PUSH2 0x16AD PUSH2 0x12A1 JUMP JUMPDEST PUSH2 0x16B5 JUMPI PUSH0 DUP1 REVERT JUMPDEST PUSH1 0xB PUSH0 SWAP1 SLOAD SWAP1 PUSH2 0x100 EXP SWAP1 DIV PUSH1 0xFF AND PUSH2 0x1954 JUMPI PUSH20 0xD7F655E3376CE2D7A2B08FF01EB3B1023191A901 PUSH1 0x11 PUSH0 PUSH2 0x100 EXP DUP2 SLOAD DUP2 PUSH20 0xFFFFFFFFFFFFFFFFFFFFFFFFFFFFFFFFFFFFFFFF MUL NOT AND SWAP1 DUP4 PUSH20 0xFFFFFFFFFFFFFFFFFFFFFFFFFFFFFFFFFFFFFFFF AND MUL OR SWAP1 SSTORE POP PUSH1 0x11 PUSH0 SWAP1 SLOAD SWAP1 PUSH2 0x100 EXP SWAP1 DIV PUSH20 0xFFFFFFFFFFFFFFFFFFFFFFFFFFFFFFFFFFFFFFFF AND PUSH20 0xFFFFFFFFFFFFFFFFFFFFFFFFFFFFFFFFFFFFFFFF AND PUSH4 0xC45A0155 PUSH1 0x40 MLOAD DUP2 PUSH4 0xFFFFFFFF AND PUSH1 0xE0 SHL DUP2 MSTORE PUSH1 0x4 ADD PUSH1 0x20 PUSH1 0x40 MLOAD DUP1 DUP4 SUB DUP2 DUP7 GAS STATICCALL ISZERO DUP1 ISZERO PUSH2 0x1786 JUMPI RETURNDATASIZE PUSH0 DUP1 RETURNDATACOPY RETURNDATASIZE PUSH0 REVERT JUMPDEST POP POP POP POP PUSH1 0x40 MLOAD RETURNDATASIZE PUSH1 0x1F NOT PUSH1 0x1F DUP3 ADD AND DUP3 ADD DUP1 PUSH1 0x40 MSTORE POP DUP2 ADD SWAP1 PUSH2 0x17AA SWAP2 SWAP1 PUSH2 0x2FF9 JUMP JUMPDEST PUSH20 0xFFFFFFFFFFFFFFFFFFFFFFFFFFFFFFFFFFFFFFFF AND PUSH4 0xC9C65396 PUSH1 0x11 PUSH0 SWAP1 SLOAD SWAP1 PUSH2 0x100 EXP SWAP1 DIV PUSH20 0xFFFFFFFFFFFFFFFFFFFFFFFFFFFFFFFFFFFFFFFF AND PUSH20 0xFFFFFFFFFFFFFFFFFFFFFFFFFFFFFFFFFFFFFFFF AND PUSH4 0xAD5C4648 PUSH1 0x40 MLOAD DUP2 PUSH4 0xFFFFFFFF AND PUSH1 0xE0 SHL DUP2 MSTORE PUSH1 0x4 ADD PUSH1 0x20 PUSH1 0x40 MLOAD DUP1 DUP4 SUB DUP2 DUP7 GAS STATICCALL ISZERO DUP1 ISZERO PUSH2 0x182F JUMPI RETURNDATASIZE PUSH0 DUP1 RETURNDATACOPY RETURNDATASIZE PUSH0 REVERT JUMPDEST POP POP POP POP PUSH1 0x40 MLOAD RETURNDATASIZE PUSH1 0x1F NOT PUSH1 0x1F DUP3 ADD AND DUP3 ADD DUP1 PUSH1 0x40 MSTORE POP DUP2 ADD SWAP1 PUSH2 0x1853 SWAP2 SWAP1 PUSH2 0x2FF9 JUMP JUMPDEST ADDRESS PUSH1 0x40 MLOAD DUP4 PUSH4 0xFFFFFFFF AND PUSH1 0xE0 SHL DUP2 MSTORE PUSH1 0x4 ADD PUSH2 0x1871 SWAP3 SWAP2 SWAP1 PUSH2 0x3024 JUMP JUMPDEST PUSH1 0x20 PUSH1 0x40 MLOAD DUP1 DUP4 SUB DUP2 PUSH0 DUP8 GAS CALL ISZERO DUP1 ISZERO PUSH2 0x188D JUMPI RETURNDATASIZE PUSH0 DUP1 RETURNDATACOPY RETURNDATASIZE PUSH0 REVERT JUMPDEST POP POP POP POP PUSH1 0x40 MLOAD RETURNDATASIZE PUSH1 0x1F NOT PUSH1 0x1F DUP3 ADD AND DUP3 ADD DUP1 PUSH1 0x40 MSTORE POP DUP2 ADD SWAP1 PUSH2 0x18B1 SWAP2 SWAP1 PUSH2 0x2FF9 JUMP JUMPDEST PUSH1 0x5 PUSH1 0x1 PUSH2 0x100 EXP DUP2 SLOAD DUP2 PUSH20 0xFFFFFFFFFFFFFFFFFFFFFFFFFFFFFFFFFFFFFFFF MUL NOT AND SWAP1 DUP4 PUSH20 0xFFFFFFFFFFFFFFFFFFFFFFFFFFFFFFFFFFFFFFFF AND MUL OR SWAP1 SSTORE POP PUSH1 0x5 PUSH1 0x1 SWAP1 SLOAD SWAP1 PUSH2 0x100 EXP SWAP1 DIV PUSH20 0xFFFFFFFFFFFFFFFFFFFFFFFFFFFFFFFFFFFFFFFF AND PUSH1 0x12 PUSH0 PUSH2 0x100 EXP DUP2 SLOAD DUP2 PUSH20 0xFFFFFFFFFFFFFFFFFFFFFFFFFFFFFFFFFFFFFFFF MUL NOT AND SWAP1 DUP4 PUSH20 0xFFFFFFFFFFFFFFFFFFFFFFFFFFFFFFFFFFFFFFFF AND MUL OR SWAP1 SSTORE POP JUMPDEST JUMP JUMPDEST PUSH1 0x4 SLOAD DUP2 JUMP JUMPDEST PUSH0 PUSH1 0xE PUSH0 DUP4 PUSH20 0xFFFFFFFFFFFFFFFFFFFFFFFFFFFFFFFFFFFFFFFF AND PUSH20 0xFFFFFFFFFFFFFFFFFFFFFFFFFFFFFFFFFFFFFFFF AND DUP2 MSTORE PUSH1 0x20 ADD SWAP1 DUP2 MSTORE PUSH1 0x20 ADD PUSH0 KECCAK256 PUSH0 SWAP1 SLOAD SWAP1 PUSH2 0x100 EXP SWAP1 DIV PUSH1 0xFF AND SWAP1 POP SWAP2 SWAP1 POP JUMP JUMPDEST PUSH0 PUSH1 0x13 PUSH0 DUP5 PUSH20 0xFFFFFFFFFFFFFFFFFFFFFFFFFFFFFFFFFFFFFFFF AND PUSH20 0xFFFFFFFFFFFFFFFFFFFFFFFFFFFFFFFFFFFFFFFF AND DUP2 MSTORE PUSH1 0x20 ADD SWAP1 DUP2 MSTORE PUSH1 0x20 ADD PUSH0 KECCAK256 PUSH0 DUP4 PUSH20 0xFFFFFFFFFFFFFFFFFFFFFFFFFFFFFFFFFFFFFFFF AND PUSH20 0xFFFFFFFFFFFFFFFFFFFFFFFFFFFFFFFFFFFFFFFF AND DUP2 MSTORE PUSH1 0x20 ADD SWAP1 DUP2 MSTORE PUSH1 0x20 ADD PUSH0 KECCAK256 SLOAD SWAP1 POP SWAP3 SWAP2 POP POP JUMP JUMPDEST PUSH2 0x1A38 PUSH2 0x12A1 JUMP JUMPDEST PUSH2 0x1A40 JUMPI PUSH0 DUP1 REVERT JUMPDEST DUP1 ISZERO PUSH2 0x1A6B JUMPI DUP1 PUSH1 0x5 PUSH0 PUSH2 0x100 EXP DUP2 SLOAD DUP2 PUSH1 0xFF MUL NOT AND SWAP1 DUP4 ISZERO ISZERO MUL OR SWAP1 SSTORE POP TIMESTAMP PUSH1 0x7 DUP2 SWAP1 SSTORE POP PUSH2 0x1A85 JUMP JUMPDEST DUP1 PUSH1 0x5 PUSH0 PUSH2 0x100 EXP DUP2 SLOAD DUP2 PUSH1 0xFF MUL NOT AND SWAP1 DUP4 ISZERO ISZERO MUL OR SWAP1 SSTORE POP JUMPDEST POP JUMP JUMPDEST PUSH1 0x5 PUSH1 0x1 SWAP1 SLOAD SWAP1 PUSH2 0x100 EXP SWAP1 DIV PUSH20 0xFFFFFFFFFFFFFFFFFFFFFFFFFFFFFFFFFFFFFFFF AND DUP2 JUMP JUMPDEST PUSH2 0x1AB6 PUSH2 0x12A1 JUMP JUMPDEST PUSH2 0x1ABE JUMPI PUSH0 DUP1 REVERT JUMPDEST PUSH2 0x1AC7 DUP2 PUSH2 0x1D5E JUMP JUMPDEST POP JUMP JUMPDEST PUSH0 DUP4 DUP4 GT ISZERO DUP3 SWAP1 PUSH2 0x1B11 JUMPI PUSH1 0x40 MLOAD PUSH32 0x8C379A000000000000000000000000000000000000000000000000000000000 DUP2 MSTORE PUSH1 0x4 ADD PUSH2 0x1B08 SWAP2 SWAP1 PUSH2 0x2966 JUMP JUMPDEST PUSH1 0x40 MLOAD DUP1 SWAP2 SUB SWAP1 REVERT JUMPDEST POP DUP3 DUP5 SUB SWAP1 POP SWAP4 SWAP3 POP POP POP JUMP JUMPDEST PUSH0 PUSH1 0xF PUSH0 DUP6 PUSH20 0xFFFFFFFFFFFFFFFFFFFFFFFFFFFFFFFFFFFFFFFF AND PUSH20 0xFFFFFFFFFFFFFFFFFFFFFFFFFFFFFFFFFFFFFFFF AND DUP2 MSTORE PUSH1 0x20 ADD SWAP1 DUP2 MSTORE PUSH1 0x20 ADD PUSH0 KECCAK256 PUSH0 SWAP1 SLOAD SWAP1 PUSH2 0x100 EXP SWAP1 DIV PUSH1 0xFF AND ISZERO DUP1 ISZERO PUSH2 0x1BBD JUMPI POP PUSH1 0xF PUSH0 DUP5 PUSH20 0xFFFFFFFFFFFFFFFFFFFFFFFFFFFFFFFFFFFFFFFF AND PUSH20 0xFFFFFFFFFFFFFFFFFFFFFFFFFFFFFFFFFFFFFFFF AND DUP2 MSTORE PUSH1 0x20 ADD SWAP1 DUP2 MSTORE PUSH1 0x20 ADD PUSH0 KECCAK256 PUSH0 SWAP1 SLOAD SWAP1 PUSH2 0x100 EXP SWAP1 DIV PUSH1 0xFF AND ISZERO JUMPDEST PUSH2 0x1BFC JUMPI PUSH1 0x40 MLOAD PUSH32 0x8C379A000000000000000000000000000000000000000000000000000000000 DUP2 MSTORE PUSH1 0x4 ADD PUSH2 0x1BF3 SWAP1 PUSH2 0x3095 JUMP JUMPDEST PUSH1 0x40 MLOAD DUP1 SWAP2 SUB SWAP1 REVERT JUMPDEST PUSH1 0x12 PUSH1 0x14 SWAP1 SLOAD SWAP1 PUSH2 0x100 EXP SWAP1 DIV PUSH1 0xFF AND ISZERO PUSH2 0x1C23 JUMPI PUSH2 0x1C1C DUP5 DUP5 DUP5 PUSH2 0x1E55 JUMP JUMPDEST SWAP1 POP PUSH2 0x1D07 JUMP JUMPDEST PUSH2 0x1C2B PUSH2 0x1E8E JUMP JUMPDEST ISZERO PUSH2 0x1C39 JUMPI PUSH2 0x1C38 PUSH2 0x1F5A JUMP JUMPDEST JUMPDEST PUSH0 PUSH2 0x1C4F PUSH1 0x9 SLOAD DUP5 PUSH2 0x21BD SWAP1 SWAP2 SWAP1 PUSH4 0xFFFFFFFF AND JUMP JUMPDEST SWAP1 POP PUSH2 0x1C5B DUP6 DUP3 PUSH2 0x21D2 JUMP JUMPDEST PUSH0 PUSH2 0x1C66 DUP7 DUP7 PUSH2 0x222F JUMP JUMPDEST PUSH2 0x1C70 JUMPI DUP2 PUSH2 0x1C7B JUMP JUMPDEST PUSH2 0x1C7A DUP7 DUP4 PUSH2 0x2334 JUMP JUMPDEST JUMPDEST SWAP1 POP PUSH2 0x1C87 DUP6 DUP3 PUSH2 0x240A JUMP JUMPDEST DUP5 PUSH20 0xFFFFFFFFFFFFFFFFFFFFFFFFFFFFFFFFFFFFFFFF AND DUP7 PUSH20 0xFFFFFFFFFFFFFFFFFFFFFFFFFFFFFFFFFFFFFFFF AND PUSH32 0xDDF252AD1BE2C89B69C2B068FC378DAA952BA7F163C4A11628F55A4DF523B3EF PUSH2 0x1CEB PUSH1 0x9 SLOAD DUP6 PUSH2 0x1D23 SWAP1 SWAP2 SWAP1 PUSH4 0xFFFFFFFF AND JUMP JUMPDEST PUSH1 0x40 MLOAD PUSH2 0x1CF8 SWAP2 SWAP1 PUSH2 0x2A97 JUMP JUMPDEST PUSH1 0x40 MLOAD DUP1 SWAP2 SUB SWAP1 LOG3 PUSH1 0x1 SWAP3 POP POP POP JUMPDEST SWAP4 SWAP3 POP POP POP JUMP JUMPDEST PUSH0 DUP2 DUP4 PUSH2 0x1D1B SWAP2 SWAP1 PUSH2 0x2F24 JUMP JUMPDEST SWAP1 POP SWAP3 SWAP2 POP POP JUMP JUMPDEST PUSH0 DUP2 DUP4 PUSH2 0x1D30 SWAP2 SWAP1 PUSH2 0x30B3 JUMP JUMPDEST SWAP1 POP SWAP3 SWAP2 POP POP JUMP JUMPDEST PUSH0 DUP1 DUP3 EXTCODESIZE SWAP1 POP PUSH0 DUP2 GT SWAP2 POP POP SWAP2 SWAP1 POP JUMP JUMPDEST PUSH0 DUP2 DUP4 PUSH2 0x1D56 SWAP2 SWAP1 PUSH2 0x30E3 JUMP JUMPDEST SWAP1 POP SWAP3 SWAP2 POP POP JUMP JUMPDEST PUSH0 PUSH20 0xFFFFFFFFFFFFFFFFFFFFFFFFFFFFFFFFFFFFFFFF AND DUP2 PUSH20 0xFFFFFFFFFFFFFFFFFFFFFFFFFFFFFFFFFFFFFFFF AND SUB PUSH2 0x1D95 JUMPI PUSH0 DUP1 REVERT JUMPDEST DUP1 PUSH20 0xFFFFFFFFFFFFFFFFFFFFFFFFFFFFFFFFFFFFFFFF AND PUSH1 0x2 PUSH1 0x1 SWAP1 SLOAD SWAP1 PUSH2 0x100 EXP SWAP1 DIV PUSH20 0xFFFFFFFFFFFFFFFFFFFFFFFFFFFFFFFFFFFFFFFF AND PUSH20 0xFFFFFFFFFFFFFFFFFFFFFFFFFFFFFFFFFFFFFFFF AND PUSH32 0x8BE0079C531659141344CD1FD0A4F28419497F9722A3DAAFE3B4186F6B6457E0 PUSH1 0x40 MLOAD PUSH1 0x40 MLOAD DUP1 SWAP2 SUB SWAP1 LOG3 DUP1 PUSH1 0x2 PUSH1 0x1 PUSH2 0x100 EXP DUP2 SLOAD DUP2 PUSH20 0xFFFFFFFFFFFFFFFFFFFFFFFFFFFFFFFFFFFFFFFF MUL NOT AND SWAP1 DUP4 PUSH20 0xFFFFFFFFFFFFFFFFFFFFFFFFFFFFFFFFFFFFFFFF AND MUL OR SWAP1 SSTORE POP POP JUMP JUMPDEST PUSH0 DUP1 PUSH2 0x1E6C PUSH1 0x9 SLOAD DUP5 PUSH2 0x21BD SWAP1 SWAP2 SWAP1 PUSH4 0xFFFFFFFF AND JUMP JUMPDEST SWAP1 POP PUSH2 0x1E78 DUP6 DUP3 PUSH2 0x21D2 JUMP JUMPDEST PUSH2 0x1E82 DUP5 DUP3 PUSH2 0x240A JUMP JUMPDEST PUSH1 0x1 SWAP2 POP POP SWAP4 SWAP3 POP POP POP JUMP JUMPDEST PUSH0 PUSH1 0x5 PUSH0 SWAP1 SLOAD SWAP1 PUSH2 0x100 EXP SWAP1 DIV PUSH1 0xFF AND DUP1 ISZERO PUSH2 0x1EC7 JUMPI POP PUSH1 0x5 PUSH1 0xA PUSH2 0x1EB3 SWAP2 SWAP1 PUSH2 0x2E3C JUMP JUMPDEST PUSH4 0xC1B71080 PUSH2 0x1EC2 SWAP2 SWAP1 PUSH2 0x2E86 JUMP JUMPDEST PUSH1 0x8 SLOAD LT JUMPDEST DUP1 ISZERO PUSH2 0x1F21 JUMPI POP PUSH1 0x5 PUSH1 0x1 SWAP1 SLOAD SWAP1 PUSH2 0x100 EXP SWAP1 DIV PUSH20 0xFFFFFFFFFFFFFFFFFFFFFFFFFFFFFFFFFFFFFFFF AND PUSH20 0xFFFFFFFFFFFFFFFFFFFFFFFFFFFFFFFFFFFFFFFF AND CALLER PUSH20 0xFFFFFFFFFFFFFFFFFFFFFFFFFFFFFFFFFFFFFFFF AND EQ ISZERO JUMPDEST DUP1 ISZERO PUSH2 0x1F3A JUMPI POP PUSH1 0x12 PUSH1 0x14 SWAP1 SLOAD SWAP1 PUSH2 0x100 EXP SWAP1 DIV PUSH1 0xFF AND ISZERO JUMPDEST DUP1 ISZERO PUSH2 0x1F55 JUMPI POP PUSH2 0x384 PUSH1 0x7 SLOAD PUSH2 0x1F51 SWAP2 SWAP1 PUSH2 0x30E3 JUMP JUMPDEST TIMESTAMP LT ISZERO JUMPDEST SWAP1 POP SWAP1 JUMP JUMPDEST PUSH1 0x12 PUSH1 0x14 SWAP1 SLOAD SWAP1 PUSH2 0x100 EXP SWAP1 DIV PUSH1 0xFF AND PUSH2 0x21BB JUMPI PUSH0 DUP1 PUSH1 0x6 SLOAD TIMESTAMP PUSH2 0x1F7E SWAP2 SWAP1 PUSH2 0x2F24 JUMP JUMPDEST SWAP1 POP PUSH0 PUSH1 0x7 SLOAD TIMESTAMP PUSH2 0x1F8F SWAP2 SWAP1 PUSH2 0x2F24 JUMP JUMPDEST SWAP1 POP PUSH0 PUSH2 0x1FA7 PUSH2 0x384 DUP4 PUSH2 0x1D23 SWAP1 SWAP2 SWAP1 PUSH4 0xFFFFFFFF AND JUMP JUMPDEST SWAP1 POP PUSH0 PUSH2 0x1FBE PUSH1 0xF DUP4 PUSH2 0x21BD SWAP1 SWAP2 SWAP1 PUSH4 0xFFFFFFFF AND JUMP JUMPDEST SWAP1 POP PUSH4 0x1E13380 DUP5 LT ISZERO PUSH2 0x1FD6 JUMPI PUSH2 0x933 SWAP5 POP PUSH2 0x2011 JUMP JUMPDEST PUSH4 0x1E13380 DUP5 LT PUSH2 0x1FEA JUMPI PUSH1 0xD3 SWAP5 POP PUSH2 0x2010 JUMP JUMPDEST PUSH4 0x2D1CD40 DUP5 LT PUSH2 0x1FFE JUMPI PUSH1 0xE SWAP5 POP PUSH2 0x200F JUMP JUMPDEST PUSH4 0xD286880 DUP5 LT PUSH2 0x200E JUMPI PUSH1 0x2 SWAP5 POP JUMPDEST JUMPDEST JUMPDEST JUMPDEST PUSH0 JUMPDEST DUP3 DUP2 LT ISZERO PUSH2 0x2081 JUMPI PUSH2 0x206E PUSH1 0x7 PUSH1 0xA PUSH2 0x202C SWAP2 SWAP1 PUSH2 0x2E3C JUMP JUMPDEST PUSH2 0x2060 PUSH2 0x204F DUP10 PUSH1 0x7 PUSH1 0xA PUSH2 0x2041 SWAP2 SWAP1 PUSH2 0x2E3C JUMP JUMPDEST PUSH2 0x1D49 SWAP1 SWAP2 SWAP1 PUSH4 0xFFFFFFFF AND JUMP JUMPDEST PUSH1 0x8 SLOAD PUSH2 0x21BD SWAP1 SWAP2 SWAP1 PUSH4 0xFFFFFFFF AND JUMP JUMPDEST PUSH2 0x1D23 SWAP1 SWAP2 SWAP1 PUSH4 0xFFFFFFFF AND JUMP JUMPDEST PUSH1 0x8 DUP2 SWAP1 SSTORE POP DUP1 DUP1 PUSH1 0x1 ADD SWAP2 POP POP PUSH2 0x2013 JUMP JUMPDEST POP PUSH2 0x20CA PUSH1 0x8 SLOAD PUSH1 0x5 PUSH1 0xA PUSH2 0x2096 SWAP2 SWAP1 PUSH2 0x2E3C JUMP JUMPDEST PUSH3 0x4F588 PUSH2 0x20A4 SWAP2 SWAP1 PUSH2 0x2E86 JUMP JUMPDEST PUSH0 NOT PUSH2 0x20B0 SWAP2 SWAP1 PUSH2 0x2EF4 JUMP JUMPDEST PUSH0 NOT PUSH2 0x20BC SWAP2 SWAP1 PUSH2 0x2F24 JUMP JUMPDEST PUSH2 0x1D23 SWAP1 SWAP2 SWAP1 PUSH4 0xFFFFFFFF AND JUMP JUMPDEST PUSH1 0x9 DUP2 SWAP1 SSTORE POP PUSH2 0x20F9 PUSH2 0x20E8 PUSH2 0x384 DUP5 PUSH2 0x21BD SWAP1 SWAP2 SWAP1 PUSH4 0xFFFFFFFF AND JUMP JUMPDEST PUSH1 0x7 SLOAD PUSH2 0x1D49 SWAP1 SWAP2 SWAP1 PUSH4 0xFFFFFFFF AND JUMP JUMPDEST PUSH1 0x7 DUP2 SWAP1 SSTORE POP PUSH1 0x12 PUSH0 SWAP1 SLOAD SWAP1 PUSH2 0x100 EXP SWAP1 DIV PUSH20 0xFFFFFFFFFFFFFFFFFFFFFFFFFFFFFFFFFFFFFFFF AND PUSH20 0xFFFFFFFFFFFFFFFFFFFFFFFFFFFFFFFFFFFFFFFF AND PUSH4 0xFFF6CAE9 PUSH1 0x40 MLOAD DUP2 PUSH4 0xFFFFFFFF AND PUSH1 0xE0 SHL DUP2 MSTORE PUSH1 0x4 ADD PUSH0 PUSH1 0x40 MLOAD DUP1 DUP4 SUB DUP2 PUSH0 DUP8 DUP1 EXTCODESIZE ISZERO DUP1 ISZERO PUSH2 0x2165 JUMPI PUSH0 DUP1 REVERT JUMPDEST POP GAS CALL ISZERO DUP1 ISZERO PUSH2 0x2177 JUMPI RETURNDATASIZE PUSH0 DUP1 RETURNDATACOPY RETURNDATASIZE PUSH0 REVERT JUMPDEST POP POP POP POP DUP1 PUSH32 0x72725A3B1E5BD622D6BCD1339BB31279C351ABE8F541AC7FD320F24E1B1641F2 PUSH1 0x8 SLOAD PUSH1 0x40 MLOAD PUSH2 0x21AD SWAP2 SWAP1 PUSH2 0x2A97 JUMP JUMPDEST PUSH1 0x40 MLOAD DUP1 SWAP2 SUB SWAP1 LOG2 POP POP POP POP POP JUMPDEST JUMP JUMPDEST PUSH0 DUP2 DUP4 PUSH2 0x21CA SWAP2 SWAP1 PUSH2 0x2E86 JUMP JUMPDEST SWAP1 POP SWAP3 SWAP2 POP POP JUMP JUMPDEST PUSH2 0x222B DUP3 PUSH2 0x2226 DUP4 PUSH1 0xC PUSH0 DUP8 PUSH20 0xFFFFFFFFFFFFFFFFFFFFFFFFFFFFFFFFFFFFFFFF AND PUSH20 0xFFFFFFFFFFFFFFFFFFFFFFFFFFFFFFFFFFFFFFFF AND DUP2 MSTORE PUSH1 0x20 ADD SWAP1 DUP2 MSTORE PUSH1 0x20 ADD PUSH0 KECCAK256 SLOAD PUSH2 0x1D0E SWAP1 SWAP2 SWAP1 PUSH4 0xFFFFFFFF AND JUMP JUMPDEST PUSH2 0x2467 JUMP JUMPDEST POP POP JUMP JUMPDEST PUSH0 DUP3 PUSH20 0xFFFFFFFFFFFFFFFFFFFFFFFFFFFFFFFFFFFFFFFF AND PUSH1 0x5 PUSH1 0x1 SWAP1 SLOAD SWAP1 PUSH2 0x100 EXP SWAP1 DIV PUSH20 0xFFFFFFFFFFFFFFFFFFFFFFFFFFFFFFFFFFFFFFFF AND PUSH20 0xFFFFFFFFFFFFFFFFFFFFFFFFFFFFFFFFFFFFFFFF AND EQ DUP1 PUSH2 0x22D9 JUMPI POP DUP2 PUSH20 0xFFFFFFFFFFFFFFFFFFFFFFFFFFFFFFFFFFFFFFFF AND PUSH1 0x5 PUSH1 0x1 SWAP1 SLOAD SWAP1 PUSH2 0x100 EXP SWAP1 DIV PUSH20 0xFFFFFFFFFFFFFFFFFFFFFFFFFFFFFFFFFFFFFFFF AND PUSH20 0xFFFFFFFFFFFFFFFFFFFFFFFFFFFFFFFFFFFFFFFF AND EQ JUMPDEST DUP1 ISZERO PUSH2 0x232C JUMPI POP PUSH1 0xE PUSH0 DUP5 PUSH20 0xFFFFFFFFFFFFFFFFFFFFFFFFFFFFFFFFFFFFFFFF AND PUSH20 0xFFFFFFFFFFFFFFFFFFFFFFFFFFFFFFFFFFFFFFFF AND DUP2 MSTORE PUSH1 0x20 ADD SWAP1 DUP2 MSTORE PUSH1 0x20 ADD PUSH0 KECCAK256 PUSH0 SWAP1 SLOAD SWAP1 PUSH2 0x100 EXP SWAP1 DIV PUSH1 0xFF AND ISZERO JUMPDEST SWAP1 POP SWAP3 SWAP2 POP POP JUMP JUMPDEST PUSH0 DUP1 PUSH2 0x235E PUSH1 0x3 SLOAD PUSH2 0x2350 PUSH1 0x64 DUP7 PUSH2 0x1D23 SWAP1 SWAP2 SWAP1 PUSH4 0xFFFFFFFF AND JUMP JUMPDEST PUSH2 0x21BD SWAP1 SWAP2 SWAP1 PUSH4 0xFFFFFFFF AND JUMP JUMPDEST SWAP1 POP PUSH2 0x236A ADDRESS DUP3 PUSH2 0x240A JUMP JUMPDEST TIMESTAMP PUSH1 0x4 SLOAD PUSH1 0xA SLOAD PUSH2 0x237B SWAP2 SWAP1 PUSH2 0x30E3 JUMP JUMPDEST LT PUSH2 0x2389 JUMPI PUSH2 0x2388 PUSH2 0x25C7 JUMP JUMPDEST JUMPDEST ADDRESS PUSH20 0xFFFFFFFFFFFFFFFFFFFFFFFFFFFFFFFFFFFFFFFF AND DUP5 PUSH20 0xFFFFFFFFFFFFFFFFFFFFFFFFFFFFFFFFFFFFFFFF AND PUSH32 0xDDF252AD1BE2C89B69C2B068FC378DAA952BA7F163C4A11628F55A4DF523B3EF DUP4 PUSH1 0x40 MLOAD PUSH2 0x23E6 SWAP2 SWAP1 PUSH2 0x2A97 JUMP JUMPDEST PUSH1 0x40 MLOAD DUP1 SWAP2 SUB SWAP1 LOG3 PUSH2 0x2401 DUP2 DUP5 PUSH2 0x1D0E SWAP1 SWAP2 SWAP1 PUSH4 0xFFFFFFFF AND JUMP JUMPDEST SWAP2 POP POP SWAP3 SWAP2 POP POP JUMP JUMPDEST PUSH2 0x2463 DUP3 PUSH2 0x245E DUP4 PUSH1 0xC PUSH0 DUP8 PUSH20 0xFFFFFFFFFFFFFFFFFFFFFFFFFFFFFFFFFFFFFFFF AND PUSH20 0xFFFFFFFFFFFFFFFFFFFFFFFFFFFFFFFFFFFFFFFF AND DUP2 MSTORE PUSH1 0x20 ADD SWAP1 DUP2 MSTORE PUSH1 0x20 ADD PUSH0 KECCAK256 SLOAD PUSH2 0x1D49 SWAP1 SWAP2 SWAP1 PUSH4 0xFFFFFFFF AND JUMP JUMPDEST PUSH2 0x2467 JUMP JUMPDEST POP POP JUMP JUMPDEST PUSH2 0x2470 DUP3 PUSH2 0x284B JUMP JUMPDEST ISZERO PUSH2 0x2581 JUMPI PUSH1 0x1 ISZERO ISZERO PUSH1 0xD PUSH0 DUP5 PUSH20 0xFFFFFFFFFFFFFFFFFFFFFFFFFFFFFFFFFFFFFFFF AND PUSH20 0xFFFFFFFFFFFFFFFFFFFFFFFFFFFFFFFFFFFFFFFF AND DUP2 MSTORE PUSH1 0x20 ADD SWAP1 DUP2 MSTORE PUSH1 0x20 ADD PUSH0 KECCAK256 PUSH0 SWAP1 SLOAD SWAP1 PUSH2 0x100 EXP SWAP1 DIV PUSH1 0xFF AND ISZERO ISZERO EQ PUSH2 0x2580 JUMPI PUSH1 0x10 DUP3 SWAP1 DUP1 PUSH1 0x1 DUP2 SLOAD ADD DUP1 DUP3 SSTORE DUP1 SWAP2 POP POP PUSH1 0x1 SWAP1 SUB SWAP1 PUSH0 MSTORE PUSH1 0x20 PUSH0 KECCAK256 ADD PUSH0 SWAP1 SWAP2 SWAP1 SWAP2 SWAP1 SWAP2 PUSH2 0x100 EXP DUP2 SLOAD DUP2 PUSH20 0xFFFFFFFFFFFFFFFFFFFFFFFFFFFFFFFFFFFFFFFF MUL NOT AND SWAP1 DUP4 PUSH20 0xFFFFFFFFFFFFFFFFFFFFFFFFFFFFFFFFFFFFFFFF AND MUL OR SWAP1 SSTORE POP PUSH1 0x1 PUSH1 0xD PUSH0 DUP5 PUSH20 0xFFFFFFFFFFFFFFFFFFFFFFFFFFFFFFFFFFFFFFFF AND PUSH20 0xFFFFFFFFFFFFFFFFFFFFFFFFFFFFFFFFFFFFFFFF AND DUP2 MSTORE PUSH1 0x20 ADD SWAP1 DUP2 MSTORE PUSH1 0x20 ADD PUSH0 KECCAK256 PUSH0 PUSH2 0x100 EXP DUP2 SLOAD DUP2 PUSH1 0xFF MUL NOT AND SWAP1 DUP4 ISZERO ISZERO MUL OR SWAP1 SSTORE POP JUMPDEST JUMPDEST DUP1 PUSH1 0xC PUSH0 DUP5 PUSH20 0xFFFFFFFFFFFFFFFFFFFFFFFFFFFFFFFFFFFFFFFF AND PUSH20 0xFFFFFFFFFFFFFFFFFFFFFFFFFFFFFFFFFFFFFFFF AND DUP2 MSTORE PUSH1 0x20 ADD SWAP1 DUP2 MSTORE PUSH1 0x20 ADD PUSH0 KECCAK256 DUP2 SWAP1 SSTORE POP POP POP JUMP JUMPDEST PUSH0 DUP1 PUSH0 DUP1 PUSH1 0x8 SLOAD SWAP1 POP TIMESTAMP PUSH1 0xA DUP2 SWAP1 SSTORE POP PUSH0 PUSH1 0xC PUSH0 ADDRESS PUSH20 0xFFFFFFFFFFFFFFFFFFFFFFFFFFFFFFFFFFFFFFFF AND PUSH20 0xFFFFFFFFFFFFFFFFFFFFFFFFFFFFFFFFFFFFFFFF AND DUP2 MSTORE PUSH1 0x20 ADD SWAP1 DUP2 MSTORE PUSH1 0x20 ADD PUSH0 KECCAK256 SLOAD SWAP1 POP PUSH0 PUSH1 0xC PUSH0 ADDRESS PUSH20 0xFFFFFFFFFFFFFFFFFFFFFFFFFFFFFFFFFFFFFFFF AND PUSH20 0xFFFFFFFFFFFFFFFFFFFFFFFFFFFFFFFFFFFFFFFF AND DUP2 MSTORE PUSH1 0x20 ADD SWAP1 DUP2 MSTORE PUSH1 0x20 ADD PUSH0 KECCAK256 DUP2 SWAP1 SSTORE POP PUSH0 JUMPDEST PUSH1 0x10 DUP1 SLOAD SWAP1 POP DUP2 LT ISZERO PUSH2 0x2829 JUMPI PUSH1 0x10 DUP2 DUP2 SLOAD DUP2 LT PUSH2 0x267D JUMPI PUSH2 0x267C PUSH2 0x3116 JUMP JUMPDEST JUMPDEST SWAP1 PUSH0 MSTORE PUSH1 0x20 PUSH0 KECCAK256 ADD PUSH0 SWAP1 SLOAD SWAP1 PUSH2 0x100 EXP SWAP1 DIV PUSH20 0xFFFFFFFFFFFFFFFFFFFFFFFFFFFFFFFFFFFFFFFF AND SWAP6 POP PUSH1 0x12 PUSH0 SWAP1 SLOAD SWAP1 PUSH2 0x100 EXP SWAP1 DIV PUSH20 0xFFFFFFFFFFFFFFFFFFFFFFFFFFFFFFFFFFFFFFFF AND PUSH20 0xFFFFFFFFFFFFFFFFFFFFFFFFFFFFFFFFFFFFFFFF AND DUP7 PUSH20 0xFFFFFFFFFFFFFFFFFFFFFFFFFFFFFFFFFFFFFFFF AND EQ DUP1 PUSH2 0x272D JUMPI POP ADDRESS PUSH20 0xFFFFFFFFFFFFFFFFFFFFFFFFFFFFFFFFFFFFFFFF AND DUP7 PUSH20 0xFFFFFFFFFFFFFFFFFFFFFFFFFFFFFFFFFFFFFFFF AND EQ JUMPDEST PUSH2 0x281C JUMPI PUSH2 0x2793 DUP4 PUSH2 0x2785 DUP5 PUSH1 0xC PUSH0 DUP12 PUSH20 0xFFFFFFFFFFFFFFFFFFFFFFFFFFFFFFFFFFFFFFFF AND PUSH20 0xFFFFFFFFFFFFFFFFFFFFFFFFFFFFFFFFFFFFFFFF AND DUP2 MSTORE PUSH1 0x20 ADD SWAP1 DUP2 MSTORE PUSH1 0x20 ADD PUSH0 KECCAK256 SLOAD PUSH2 0x21BD SWAP1 SWAP2 SWAP1 PUSH4 0xFFFFFFFF AND JUMP JUMPDEST PUSH2 0x1D23 SWAP1 SWAP2 SWAP1 PUSH4 0xFFFFFFFF AND JUMP JUMPDEST SWAP5 POP DUP5 DUP5 PUSH2 0x27A1 SWAP2 SWAP1 PUSH2 0x30E3 JUMP JUMPDEST SWAP4 POP PUSH0 DUP6 GT ISZERO PUSH2 0x281B JUMPI PUSH2 0x27B5 DUP7 DUP7 PUSH2 0x240A JUMP JUMPDEST DUP6 PUSH20 0xFFFFFFFFFFFFFFFFFFFFFFFFFFFFFFFFFFFFFFFF AND ADDRESS PUSH20 0xFFFFFFFFFFFFFFFFFFFFFFFFFFFFFFFFFFFFFFFF AND PUSH32 0xDDF252AD1BE2C89B69C2B068FC378DAA952BA7F163C4A11628F55A4DF523B3EF DUP8 PUSH1 0x40 MLOAD PUSH2 0x2812 SWAP2 SWAP1 PUSH2 0x2A97 JUMP JUMPDEST PUSH1 0x40 MLOAD DUP1 SWAP2 SUB SWAP1 LOG3 JUMPDEST JUMPDEST DUP1 DUP1 PUSH1 0x1 ADD SWAP2 POP POP PUSH2 0x265C JUMP JUMPDEST POP PUSH0 DUP4 DUP3 PUSH2 0x2837 SWAP2 SWAP1 PUSH2 0x2F24 JUMP JUMPDEST SWAP1 POP PUSH2 0x2843 ADDRESS DUP3 PUSH2 0x240A JUMP JUMPDEST POP POP POP POP POP POP JUMP JUMPDEST PUSH0 ADDRESS PUSH20 0xFFFFFFFFFFFFFFFFFFFFFFFFFFFFFFFFFFFFFFFF AND DUP3 PUSH20 0xFFFFFFFFFFFFFFFFFFFFFFFFFFFFFFFFFFFFFFFF AND EQ ISZERO DUP1 ISZERO PUSH2 0x28D5 JUMPI POP PUSH1 0x12 PUSH0 SWAP1 SLOAD SWAP1 PUSH2 0x100 EXP SWAP1 DIV PUSH20 0xFFFFFFFFFFFFFFFFFFFFFFFFFFFFFFFFFFFFFFFF AND PUSH20 0xFFFFFFFFFFFFFFFFFFFFFFFFFFFFFFFFFFFFFFFF AND DUP3 PUSH20 0xFFFFFFFFFFFFFFFFFFFFFFFFFFFFFFFFFFFFFFFF AND EQ ISZERO JUMPDEST SWAP1 POP SWAP2 SWAP1 POP JUMP JUMPDEST PUSH0 DUP2 MLOAD SWAP1 POP SWAP2 SWAP1 POP JUMP JUMPDEST PUSH0 DUP3 DUP3 MSTORE PUSH1 0x20 DUP3 ADD SWAP1 POP SWAP3 SWAP2 POP POP JUMP JUMPDEST PUSH0 JUMPDEST DUP4 DUP2 LT ISZERO PUSH2 0x2913 JUMPI DUP1 DUP3 ADD MLOAD DUP2 DUP5 ADD MSTORE PUSH1 0x20 DUP2 ADD SWAP1 POP PUSH2 0x28F8 JUMP JUMPDEST PUSH0 DUP5 DUP5 ADD MSTORE POP POP POP POP JUMP JUMPDEST PUSH0 PUSH1 0x1F NOT PUSH1 0x1F DUP4 ADD AND SWAP1 POP SWAP2 SWAP1 POP JUMP JUMPDEST PUSH0 PUSH2 0x2938 DUP3 PUSH2 0x28DC JUMP JUMPDEST PUSH2 0x2942 DUP2 DUP6 PUSH2 0x28E6 JUMP JUMPDEST SWAP4 POP PUSH2 0x2952 DUP2 DUP6 PUSH1 0x20 DUP7 ADD PUSH2 0x28F6 JUMP JUMPDEST PUSH2 0x295B DUP2 PUSH2 0x291E JUMP JUMPDEST DUP5 ADD SWAP2 POP POP SWAP3 SWAP2 POP POP JUMP JUMPDEST PUSH0 PUSH1 0x20 DUP3 ADD SWAP1 POP DUP2 DUP2 SUB PUSH0 DUP4 ADD MSTORE PUSH2 0x297E DUP2 DUP5 PUSH2 0x292E JUMP JUMPDEST SWAP1 POP SWAP3 SWAP2 POP POP JUMP JUMPDEST PUSH0 DUP1 REVERT JUMPDEST PUSH0 PUSH20 0xFFFFFFFFFFFFFFFFFFFFFFFFFFFFFFFFFFFFFFFF DUP3 AND SWAP1 POP SWAP2 SWAP1 POP JUMP JUMPDEST PUSH0 PUSH2 0x29B3 DUP3 PUSH2 0x298A JUMP JUMPDEST SWAP1 POP SWAP2 SWAP1 POP JUMP JUMPDEST PUSH2 0x29C3 DUP2 PUSH2 0x29A9 JUMP JUMPDEST DUP2 EQ PUSH2 0x29CD JUMPI PUSH0 DUP1 REVERT JUMPDEST POP JUMP JUMPDEST PUSH0 DUP2 CALLDATALOAD SWAP1 POP PUSH2 0x29DE DUP2 PUSH2 0x29BA JUMP JUMPDEST SWAP3 SWAP2 POP POP JUMP JUMPDEST PUSH0 DUP2 SWAP1 POP SWAP2 SWAP1 POP JUMP JUMPDEST PUSH2 0x29F6 DUP2 PUSH2 0x29E4 JUMP JUMPDEST DUP2 EQ PUSH2 0x2A00 JUMPI PUSH0 DUP1 REVERT JUMPDEST POP JUMP JUMPDEST PUSH0 DUP2 CALLDATALOAD SWAP1 POP PUSH2 0x2A11 DUP2 PUSH2 0x29ED JUMP JUMPDEST SWAP3 SWAP2 POP POP JUMP JUMPDEST PUSH0 DUP1 PUSH1 0x40 DUP4 DUP6 SUB SLT ISZERO PUSH2 0x2A2D JUMPI PUSH2 0x2A2C PUSH2 0x2986 JUMP JUMPDEST JUMPDEST PUSH0 PUSH2 0x2A3A DUP6 DUP3 DUP7 ADD PUSH2 0x29D0 JUMP JUMPDEST SWAP3 POP POP PUSH1 0x20 PUSH2 0x2A4B DUP6 DUP3 DUP7 ADD PUSH2 0x2A03 JUMP JUMPDEST SWAP2 POP POP SWAP3 POP SWAP3 SWAP1 POP JUMP JUMPDEST PUSH0 DUP2 ISZERO ISZERO SWAP1 POP SWAP2 SWAP1 POP JUMP JUMPDEST PUSH2 0x2A69 DUP2 PUSH2 0x2A55 JUMP JUMPDEST DUP3 MSTORE POP POP JUMP JUMPDEST PUSH0 PUSH1 0x20 DUP3 ADD SWAP1 POP PUSH2 0x2A82 PUSH0 DUP4 ADD DUP5 PUSH2 0x2A60 JUMP JUMPDEST SWAP3 SWAP2 POP POP JUMP JUMPDEST PUSH2 0x2A91 DUP2 PUSH2 0x29E4 JUMP JUMPDEST DUP3 MSTORE POP POP JUMP JUMPDEST PUSH0 PUSH1 0x20 DUP3 ADD SWAP1 POP PUSH2 0x2AAA PUSH0 DUP4 ADD DUP5 PUSH2 0x2A88 JUMP JUMPDEST SWAP3 SWAP2 POP POP JUMP JUMPDEST PUSH0 DUP1 PUSH0 PUSH1 0x60 DUP5 DUP7 SUB SLT ISZERO PUSH2 0x2AC7 JUMPI PUSH2 0x2AC6 PUSH2 0x2986 JUMP JUMPDEST JUMPDEST PUSH0 PUSH2 0x2AD4 DUP7 DUP3 DUP8 ADD PUSH2 0x29D0 JUMP JUMPDEST SWAP4 POP POP PUSH1 0x20 PUSH2 0x2AE5 DUP7 DUP3 DUP8 ADD PUSH2 0x29D0 JUMP JUMPDEST SWAP3 POP POP PUSH1 0x40 PUSH2 0x2AF6 DUP7 DUP3 DUP8 ADD PUSH2 0x2A03 JUMP JUMPDEST SWAP2 POP POP SWAP3 POP SWAP3 POP SWAP3 JUMP JUMPDEST PUSH0 PUSH1 0x20 DUP3 DUP5 SUB SLT ISZERO PUSH2 0x2B15 JUMPI PUSH2 0x2B14 PUSH2 0x2986 JUMP JUMPDEST JUMPDEST PUSH0 PUSH2 0x2B22 DUP5 DUP3 DUP6 ADD PUSH2 0x2A03 JUMP JUMPDEST SWAP2 POP POP SWAP3 SWAP2 POP POP JUMP JUMPDEST PUSH0 PUSH1 0x20 DUP3 DUP5 SUB SLT ISZERO PUSH2 0x2B40 JUMPI PUSH2 0x2B3F PUSH2 0x2986 JUMP JUMPDEST JUMPDEST PUSH0 PUSH2 0x2B4D DUP5 DUP3 DUP6 ADD PUSH2 0x29D0 JUMP JUMPDEST SWAP2 POP POP SWAP3 SWAP2 POP POP JUMP JUMPDEST PUSH0 PUSH1 0xFF DUP3 AND SWAP1 POP SWAP2 SWAP1 POP JUMP JUMPDEST PUSH2 0x2B6B DUP2 PUSH2 0x2B56 JUMP JUMPDEST DUP3 MSTORE POP POP JUMP JUMPDEST PUSH0 PUSH1 0x20 DUP3 ADD SWAP1 POP PUSH2 0x2B84 PUSH0 DUP4 ADD DUP5 PUSH2 0x2B62 JUMP JUMPDEST SWAP3 SWAP2 POP POP JUMP JUMPDEST PUSH2 0x2B93 DUP2 PUSH2 0x2A55 JUMP JUMPDEST DUP2 EQ PUSH2 0x2B9D JUMPI PUSH0 DUP1 REVERT JUMPDEST POP JUMP JUMPDEST PUSH0 DUP2 CALLDATALOAD SWAP1 POP PUSH2 0x2BAE DUP2 PUSH2 0x2B8A JUMP JUMPDEST SWAP3 SWAP2 POP POP JUMP JUMPDEST PUSH0 DUP1 PUSH1 0x40 DUP4 DUP6 SUB SLT ISZERO PUSH2 0x2BCA JUMPI PUSH2 0x2BC9 PUSH2 0x2986 JUMP JUMPDEST JUMPDEST PUSH0 PUSH2 0x2BD7 DUP6 DUP3 DUP7 ADD PUSH2 0x29D0 JUMP JUMPDEST SWAP3 POP POP PUSH1 0x20 PUSH2 0x2BE8 DUP6 DUP3 DUP7 ADD PUSH2 0x2BA0 JUMP JUMPDEST SWAP2 POP POP SWAP3 POP SWAP3 SWAP1 POP JUMP JUMPDEST PUSH2 0x2BFB DUP2 PUSH2 0x29A9 JUMP JUMPDEST DUP3 MSTORE POP POP JUMP JUMPDEST PUSH0 PUSH1 0x20 DUP3 ADD SWAP1 POP PUSH2 0x2C14 PUSH0 DUP4 ADD DUP5 PUSH2 0x2BF2 JUMP JUMPDEST SWAP3 SWAP2 POP POP JUMP JUMPDEST PUSH0 DUP1 PUSH1 0x40 DUP4 DUP6 SUB SLT ISZERO PUSH2 0x2C30 JUMPI PUSH2 0x2C2F PUSH2 0x2986 JUMP JUMPDEST JUMPDEST PUSH0 PUSH2 0x2C3D DUP6 DUP3 DUP7 ADD PUSH2 0x29D0 JUMP JUMPDEST SWAP3 POP POP PUSH1 0x20 PUSH2 0x2C4E DUP6 DUP3 DUP7 ADD PUSH2 0x29D0 JUMP JUMPDEST SWAP2 POP POP SWAP3 POP SWAP3 SWAP1 POP JUMP JUMPDEST PUSH0 PUSH1 0x20 DUP3 DUP5 SUB SLT ISZERO PUSH2 0x2C6D JUMPI PUSH2 0x2C6C PUSH2 0x2986 JUMP JUMPDEST JUMPDEST PUSH0 PUSH2 0x2C7A DUP5 DUP3 DUP6 ADD PUSH2 0x2BA0 JUMP JUMPDEST SWAP2 POP POP SWAP3 SWAP2 POP POP JUMP JUMPDEST PUSH32 0x4E487B7100000000000000000000000000000000000000000000000000000000 PUSH0 MSTORE PUSH1 0x22 PUSH1 0x4 MSTORE PUSH1 0x24 PUSH0 REVERT JUMPDEST PUSH0 PUSH1 0x2 DUP3 DIV SWAP1 POP PUSH1 0x1 DUP3 AND DUP1 PUSH2 0x2CC7 JUMPI PUSH1 0x7F DUP3 AND SWAP2 POP JUMPDEST PUSH1 0x20 DUP3 LT DUP2 SUB PUSH2 0x2CDA JUMPI PUSH2 0x2CD9 PUSH2 0x2C83 JUMP JUMPDEST JUMPDEST POP SWAP2 SWAP1 POP JUMP JUMPDEST PUSH32 0x4E487B7100000000000000000000000000000000000000000000000000000000 PUSH0 MSTORE PUSH1 0x11 PUSH1 0x4 MSTORE PUSH1 0x24 PUSH0 REVERT JUMPDEST PUSH0 DUP2 PUSH1 0x1 SHR SWAP1 POP SWAP2 SWAP1 POP JUMP JUMPDEST PUSH0 DUP1 DUP3 SWAP2 POP DUP4 SWAP1 POP JUMPDEST PUSH1 0x1 DUP6 GT ISZERO PUSH2 0x2D62 JUMPI DUP1 DUP7 DIV DUP2 GT ISZERO PUSH2 0x2D3E JUMPI PUSH2 0x2D3D PUSH2 0x2CE0 JUMP JUMPDEST JUMPDEST PUSH1 0x1 DUP6 AND ISZERO PUSH2 0x2D4D JUMPI DUP1 DUP3 MUL SWAP2 POP JUMPDEST DUP1 DUP2 MUL SWAP1 POP PUSH2 0x2D5B DUP6 PUSH2 0x2D0D JUMP JUMPDEST SWAP5 POP PUSH2 0x2D22 JUMP JUMPDEST SWAP5 POP SWAP5 SWAP3 POP POP POP JUMP JUMPDEST PUSH0 DUP3 PUSH2 0x2D7A JUMPI PUSH1 0x1 SWAP1 POP PUSH2 0x2E35 JUMP JUMPDEST DUP2 PUSH2 0x2D87 JUMPI PUSH0 SWAP1 POP PUSH2 0x2E35 JUMP JUMPDEST DUP2 PUSH1 0x1 DUP2 EQ PUSH2 0x2D9D JUMPI PUSH1 0x2 DUP2 EQ PUSH2 0x2DA7 JUMPI PUSH2 0x2DD6 JUMP JUMPDEST PUSH1 0x1 SWAP2 POP POP PUSH2 0x2E35 JUMP JUMPDEST PUSH1 0xFF DUP5 GT ISZERO PUSH2 0x2DB9 JUMPI PUSH2 0x2DB8 PUSH2 0x2CE0 JUMP JUMPDEST JUMPDEST DUP4 PUSH1 0x2 EXP SWAP2 POP DUP5 DUP3 GT ISZERO PUSH2 0x2DD0 JUMPI PUSH2 0x2DCF PUSH2 0x2CE0 JUMP JUMPDEST JUMPDEST POP PUSH2 0x2E35 JUMP JUMPDEST POP PUSH1 0x20 DUP4 LT PUSH2 0x133 DUP4 LT AND PUSH1 0x4E DUP5 LT PUSH1 0xB DUP5 LT AND OR ISZERO PUSH2 0x2E0B JUMPI DUP3 DUP3 EXP SWAP1 POP DUP4 DUP2 GT ISZERO PUSH2 0x2E06 JUMPI PUSH2 0x2E05 PUSH2 0x2CE0 JUMP JUMPDEST JUMPDEST PUSH2 0x2E35 JUMP JUMPDEST PUSH2 0x2E18 DUP5 DUP5 DUP5 PUSH1 0x1 PUSH2 0x2D19 JUMP JUMPDEST SWAP3 POP SWAP1 POP DUP2 DUP5 DIV DUP2 GT ISZERO PUSH2 0x2E2F JUMPI PUSH2 0x2E2E PUSH2 0x2CE0 JUMP JUMPDEST JUMPDEST DUP2 DUP2 MUL SWAP1 POP JUMPDEST SWAP4 SWAP3 POP POP POP JUMP JUMPDEST PUSH0 PUSH2 0x2E46 DUP3 PUSH2 0x29E4 JUMP JUMPDEST SWAP2 POP PUSH2 0x2E51 DUP4 PUSH2 0x2B56 JUMP JUMPDEST SWAP3 POP PUSH2 0x2E7E PUSH32 0xFFFFFFFFFFFFFFFFFFFFFFFFFFFFFFFFFFFFFFFFFFFFFFFFFFFFFFFFFFFFFFFF DUP5 DUP5 PUSH2 0x2D6B JUMP JUMPDEST SWAP1 POP SWAP3 SWAP2 POP POP JUMP JUMPDEST PUSH0 PUSH2 0x2E90 DUP3 PUSH2 0x29E4 JUMP JUMPDEST SWAP2 POP PUSH2 0x2E9B DUP4 PUSH2 0x29E4 JUMP JUMPDEST SWAP3 POP DUP3 DUP3 MUL PUSH2 0x2EA9 DUP2 PUSH2 0x29E4 JUMP JUMPDEST SWAP2 POP DUP3 DUP3 DIV DUP5 EQ DUP4 ISZERO OR PUSH2 0x2EC0 JUMPI PUSH2 0x2EBF PUSH2 0x2CE0 JUMP JUMPDEST JUMPDEST POP SWAP3 SWAP2 POP POP JUMP JUMPDEST PUSH32 0x4E487B7100000000000000000000000000000000000000000000000000000000 PUSH0 MSTORE PUSH1 0x12 PUSH1 0x4 MSTORE PUSH1 0x24 PUSH0 REVERT JUMPDEST PUSH0 PUSH2 0x2EFE DUP3 PUSH2 0x29E4 JUMP JUMPDEST SWAP2 POP PUSH2 0x2F09 DUP4 PUSH2 0x29E4 JUMP JUMPDEST SWAP3 POP DUP3 PUSH2 0x2F19 JUMPI PUSH2 0x2F18 PUSH2 0x2EC7 JUMP JUMPDEST JUMPDEST DUP3 DUP3 MOD SWAP1 POP SWAP3 SWAP2 POP POP JUMP JUMPDEST PUSH0 PUSH2 0x2F2E DUP3 PUSH2 0x29E4 JUMP JUMPDEST SWAP2 POP PUSH2 0x2F39 DUP4 PUSH2 0x29E4 JUMP JUMPDEST SWAP3 POP DUP3 DUP3 SUB SWAP1 POP DUP2 DUP2 GT ISZERO PUSH2 0x2F51 JUMPI PUSH2 0x2F50 PUSH2 0x2CE0 JUMP JUMPDEST JUMPDEST SWAP3 SWAP2 POP POP JUMP JUMPDEST PUSH32 0x6F6E6C7920636F6E747261637420616464726573732C206E6F7420616C6C6F77 PUSH0 DUP3 ADD MSTORE PUSH32 0x6564206578746572616E6C6C79206F776E6564206163636F756E740000000000 PUSH1 0x20 DUP3 ADD MSTORE POP JUMP JUMPDEST PUSH0 PUSH2 0x2FB1 PUSH1 0x3B DUP4 PUSH2 0x28E6 JUMP JUMPDEST SWAP2 POP PUSH2 0x2FBC DUP3 PUSH2 0x2F57 JUMP JUMPDEST PUSH1 0x40 DUP3 ADD SWAP1 POP SWAP2 SWAP1 POP JUMP JUMPDEST PUSH0 PUSH1 0x20 DUP3 ADD SWAP1 POP DUP2 DUP2 SUB PUSH0 DUP4 ADD MSTORE PUSH2 0x2FDE DUP2 PUSH2 0x2FA5 JUMP JUMPDEST SWAP1 POP SWAP2 SWAP1 POP JUMP JUMPDEST PUSH0 DUP2 MLOAD SWAP1 POP PUSH2 0x2FF3 DUP2 PUSH2 0x29BA JUMP JUMPDEST SWAP3 SWAP2 POP POP JUMP JUMPDEST PUSH0 PUSH1 0x20 DUP3 DUP5 SUB SLT ISZERO PUSH2 0x300E JUMPI PUSH2 0x300D PUSH2 0x2986 JUMP JUMPDEST JUMPDEST PUSH0 PUSH2 0x301B DUP5 DUP3 DUP6 ADD PUSH2 0x2FE5 JUMP JUMPDEST SWAP2 POP POP SWAP3 SWAP2 POP POP JUMP JUMPDEST PUSH0 PUSH1 0x40 DUP3 ADD SWAP1 POP PUSH2 0x3037 PUSH0 DUP4 ADD DUP6 PUSH2 0x2BF2 JUMP JUMPDEST PUSH2 0x3044 PUSH1 0x20 DUP4 ADD DUP5 PUSH2 0x2BF2 JUMP JUMPDEST SWAP4 SWAP3 POP POP POP JUMP JUMPDEST PUSH32 0x696E5F626C61636B6C6973740000000000000000000000000000000000000000 PUSH0 DUP3 ADD MSTORE POP JUMP JUMPDEST PUSH0 PUSH2 0x307F PUSH1 0xC DUP4 PUSH2 0x28E6 JUMP JUMPDEST SWAP2 POP PUSH2 0x308A DUP3 PUSH2 0x304B JUMP JUMPDEST PUSH1 0x20 DUP3 ADD SWAP1 POP SWAP2 SWAP1 POP JUMP JUMPDEST PUSH0 PUSH1 0x20 DUP3 ADD SWAP1 POP DUP2 DUP2 SUB PUSH0 DUP4 ADD MSTORE PUSH2 0x30AC DUP2 PUSH2 0x3073 JUMP JUMPDEST SWAP1 POP SWAP2 SWAP1 POP JUMP JUMPDEST PUSH0 PUSH2 0x30BD DUP3 PUSH2 0x29E4 JUMP JUMPDEST SWAP2 POP PUSH2 0x30C8 DUP4 PUSH2 0x29E4 JUMP JUMPDEST SWAP3 POP DUP3 PUSH2 0x30D8 JUMPI PUSH2 0x30D7 PUSH2 0x2EC7 JUMP JUMPDEST JUMPDEST DUP3 DUP3 DIV SWAP1 POP SWAP3 SWAP2 POP POP JUMP JUMPDEST PUSH0 PUSH2 0x30ED DUP3 PUSH2 0x29E4 JUMP JUMPDEST SWAP2 POP PUSH2 0x30F8 DUP4 PUSH2 0x29E4 JUMP JUMPDEST SWAP3 POP DUP3 DUP3 ADD SWAP1 POP DUP1 DUP3 GT ISZERO PUSH2 0x3110 JUMPI PUSH2 0x310F PUSH2 0x2CE0 JUMP JUMPDEST JUMPDEST SWAP3 SWAP2 POP POP JUMP JUMPDEST PUSH32 0x4E487B7100000000000000000000000000000000000000000000000000000000 PUSH0 MSTORE PUSH1 0x32 PUSH1 0x4 MSTORE PUSH1 0x24 PUSH0 REVERT INVALID LOG2 PUSH5 0x6970667358 0x22 SLT KECCAK256 DUP14 PUSH20 0xFF07AA31D8D5D098D258071A62F76CF5F7511E63 0xB1 LOG4 XOR ADD 0xB7 0xD0 INVALID PUSH7 0x591964736F6C63 NUMBER STOP ADDMOD XOR STOP CALLER "
				},
				"gasEstimates": {
					"creation": {
						"codeDepositCost": "2533000",
						"executionCost": "infinite",
						"totalCost": "infinite"
					},
					"external": {
						"_autoRebase()": "2533",
						"_blacklist(address)": "2922",
						"_distributionInterval()": "2536",
						"_feePercent()": "2492",
						"_init()": "infinite",
						"_initComplete()": "2512",
						"_initRebaseStartTime()": "2492",
						"_lastRebasedTime()": "2493",
						"_pairAddr()": "2669",
						"_totalSupply()": "2470",
						"allowance(address,address)": "infinite",
						"approve(address,uint256)": "infinite",
						"balanceOf(address)": "infinite",
						"checkFeeExempt(address)": "2914",
						"decimals()": "2585",
						"decreaseAllowance(address,uint256)": "infinite",
						"getCirculatingSupply()": "infinite",
						"increaseAllowance(address,uint256)": "infinite",
						"isNotInSwap()": "2573",
						"isOwner()": "2653",
						"manualSync()": "infinite",
						"name()": "infinite",
						"owner()": "2656",
						"renounceOwnership()": "30171",
						"setAutoRebase(bool)": "49159",
						"setBotBlacklist(address,bool)": "30001",
						"setDistributeInterval(uint256)": "24815",
						"setFeePercentage(uint256)": "24814",
						"setLP(address)": "53562",
						"setWhitelist(address)": "27125",
						"symbol()": "infinite",
						"totalSupply()": "2523",
						"transfer(address,uint256)": "infinite",
						"transferFrom(address,address,uint256)": "infinite",
						"transferOwnership(address)": "30946"
					},
					"internal": {
						"_basicTransfer(address,address,uint256)": "infinite",
						"_distribute()": "infinite",
						"_takeFee(address,uint256)": "infinite",
						"_transferFrom(address,address,uint256)": "infinite",
						"rebase()": "infinite"
					}
				},
				"methodIdentifiers": {
					"_autoRebase()": "afb9cf6d",
					"_blacklist(address)": "a20623ce",
					"_distributionInterval()": "c737a49b",
					"_feePercent()": "69222948",
					"_init()": "b349b973",
					"_initComplete()": "31b216ed",
					"_initRebaseStartTime()": "9b87676c",
					"_lastRebasedTime()": "32b75683",
					"_pairAddr()": "eb531c57",
					"_totalSupply()": "3eaaf86b",
					"allowance(address,address)": "dd62ed3e",
					"approve(address,uint256)": "095ea7b3",
					"balanceOf(address)": "70a08231",
					"checkFeeExempt(address)": "d4399790",
					"decimals()": "313ce567",
					"decreaseAllowance(address,uint256)": "a457c2d7",
					"getCirculatingSupply()": "2b112e49",
					"increaseAllowance(address,uint256)": "39509351",
					"isNotInSwap()": "83b4ac68",
					"isOwner()": "8f32d59b",
					"manualSync()": "753d02a1",
					"name()": "06fdde03",
					"owner()": "8da5cb5b",
					"renounceOwnership()": "715018a6",
					"setAutoRebase(bool)": "e15beb80",
					"setBotBlacklist(address,bool)": "37c9be87",
					"setDistributeInterval(uint256)": "2910164a",
					"setFeePercentage(uint256)": "ae06c1b7",
					"setLP(address)": "2f34d282",
					"setWhitelist(address)": "854cff2f",
					"symbol()": "95d89b41",
					"totalSupply()": "18160ddd",
					"transfer(address,uint256)": "a9059cbb",
					"transferFrom(address,address,uint256)": "23b872dd",
					"transferOwnership(address)": "f2fde38b"
				}
			},
			"storageLayout": {
				"storage": [
					{
						"astId": 1290,
						"contract": "contracts/BOMB_flattened.sol:BOMB",
						"label": "_name",
						"offset": 0,
						"slot": "0",
						"type": "t_string_storage"
					},
					{
						"astId": 1292,
						"contract": "contracts/BOMB_flattened.sol:BOMB",
						"label": "_symbol",
						"offset": 0,
						"slot": "1",
						"type": "t_string_storage"
					},
					{
						"astId": 1294,
						"contract": "contracts/BOMB_flattened.sol:BOMB",
						"label": "_decimals",
						"offset": 0,
						"slot": "2",
						"type": "t_uint8"
					},
					{
						"astId": 1344,
						"contract": "contracts/BOMB_flattened.sol:BOMB",
						"label": "_owner",
						"offset": 1,
						"slot": "2",
						"type": "t_address"
					},
					{
						"astId": 1517,
						"contract": "contracts/BOMB_flattened.sol:BOMB",
						"label": "_feePercent",
						"offset": 0,
						"slot": "3",
						"type": "t_uint256"
					},
					{
						"astId": 1520,
						"contract": "contracts/BOMB_flattened.sol:BOMB",
						"label": "_distributionInterval",
						"offset": 0,
						"slot": "4",
						"type": "t_uint256"
					},
					{
						"astId": 1522,
						"contract": "contracts/BOMB_flattened.sol:BOMB",
						"label": "_autoRebase",
						"offset": 0,
						"slot": "5",
						"type": "t_bool"
					},
					{
						"astId": 1524,
						"contract": "contracts/BOMB_flattened.sol:BOMB",
						"label": "_pairAddr",
						"offset": 1,
						"slot": "5",
						"type": "t_address"
					},
					{
						"astId": 1526,
						"contract": "contracts/BOMB_flattened.sol:BOMB",
						"label": "_initRebaseStartTime",
						"offset": 0,
						"slot": "6",
						"type": "t_uint256"
					},
					{
						"astId": 1528,
						"contract": "contracts/BOMB_flattened.sol:BOMB",
						"label": "_lastRebasedTime",
						"offset": 0,
						"slot": "7",
						"type": "t_uint256"
					},
					{
						"astId": 1530,
						"contract": "contracts/BOMB_flattened.sol:BOMB",
						"label": "_totalSupply",
						"offset": 0,
						"slot": "8",
						"type": "t_uint256"
					},
					{
						"astId": 1532,
						"contract": "contracts/BOMB_flattened.sol:BOMB",
						"label": "_gonsPerFragment",
						"offset": 0,
						"slot": "9",
						"type": "t_uint256"
					},
					{
						"astId": 1534,
						"contract": "contracts/BOMB_flattened.sol:BOMB",
						"label": "_lastDistribution",
						"offset": 0,
						"slot": "10",
						"type": "t_uint256"
					},
					{
						"astId": 1536,
						"contract": "contracts/BOMB_flattened.sol:BOMB",
						"label": "_initComplete",
						"offset": 0,
						"slot": "11",
						"type": "t_bool"
					},
					{
						"astId": 1540,
						"contract": "contracts/BOMB_flattened.sol:BOMB",
						"label": "_gonBalances",
						"offset": 0,
						"slot": "12",
						"type": "t_mapping(t_address,t_uint256)"
					},
					{
						"astId": 1544,
						"contract": "contracts/BOMB_flattened.sol:BOMB",
						"label": "_isHolder",
						"offset": 0,
						"slot": "13",
						"type": "t_mapping(t_address,t_bool)"
					},
					{
						"astId": 1548,
						"contract": "contracts/BOMB_flattened.sol:BOMB",
						"label": "_isFeeExempt",
						"offset": 0,
						"slot": "14",
						"type": "t_mapping(t_address,t_bool)"
					},
					{
						"astId": 1552,
						"contract": "contracts/BOMB_flattened.sol:BOMB",
						"label": "_blacklist",
						"offset": 0,
						"slot": "15",
						"type": "t_mapping(t_address,t_bool)"
					},
					{
						"astId": 1555,
						"contract": "contracts/BOMB_flattened.sol:BOMB",
						"label": "_holders",
						"offset": 0,
						"slot": "16",
						"type": "t_array(t_address)dyn_storage"
					},
					{
						"astId": 1558,
						"contract": "contracts/BOMB_flattened.sol:BOMB",
						"label": "_router",
						"offset": 0,
						"slot": "17",
						"type": "t_contract(IPancakeSwapRouter)1130"
					},
					{
						"astId": 1561,
						"contract": "contracts/BOMB_flattened.sol:BOMB",
						"label": "_pair",
						"offset": 0,
						"slot": "18",
						"type": "t_contract(IPancakeSwapPair)742"
					},
					{
						"astId": 1564,
						"contract": "contracts/BOMB_flattened.sol:BOMB",
						"label": "_inSwap",
						"offset": 20,
						"slot": "18",
						"type": "t_bool"
					},
					{
						"astId": 1973,
						"contract": "contracts/BOMB_flattened.sol:BOMB",
						"label": "_allowedFragments",
						"offset": 0,
						"slot": "19",
						"type": "t_mapping(t_address,t_mapping(t_address,t_uint256))"
					}
				],
				"types": {
					"t_address": {
						"encoding": "inplace",
						"label": "address",
						"numberOfBytes": "20"
					},
					"t_array(t_address)dyn_storage": {
						"base": "t_address",
						"encoding": "dynamic_array",
						"label": "address[]",
						"numberOfBytes": "32"
					},
					"t_bool": {
						"encoding": "inplace",
						"label": "bool",
						"numberOfBytes": "1"
					},
					"t_contract(IPancakeSwapPair)742": {
						"encoding": "inplace",
						"label": "contract IPancakeSwapPair",
						"numberOfBytes": "20"
					},
					"t_contract(IPancakeSwapRouter)1130": {
						"encoding": "inplace",
						"label": "contract IPancakeSwapRouter",
						"numberOfBytes": "20"
					},
					"t_mapping(t_address,t_bool)": {
						"encoding": "mapping",
						"key": "t_address",
						"label": "mapping(address => bool)",
						"numberOfBytes": "32",
						"value": "t_bool"
					},
					"t_mapping(t_address,t_mapping(t_address,t_uint256))": {
						"encoding": "mapping",
						"key": "t_address",
						"label": "mapping(address => mapping(address => uint256))",
						"numberOfBytes": "32",
						"value": "t_mapping(t_address,t_uint256)"
					},
					"t_mapping(t_address,t_uint256)": {
						"encoding": "mapping",
						"key": "t_address",
						"label": "mapping(address => uint256)",
						"numberOfBytes": "32",
						"value": "t_uint256"
					},
					"t_string_storage": {
						"encoding": "bytes",
						"label": "string",
						"numberOfBytes": "32"
					},
					"t_uint256": {
						"encoding": "inplace",
						"label": "uint256",
						"numberOfBytes": "32"
					},
					"t_uint8": {
						"encoding": "inplace",
						"label": "uint8",
						"numberOfBytes": "1"
					}
				}
			},
			"userdoc": {
				"kind": "user",
				"methods": {},
				"version": 1
			}
		}
	}
}