{
	"contracts/BlastFurnace_flattened.sol": {
		"BlastFurnace": {
			"abi": [
				{
					"inputs": [],
					"stateMutability": "nonpayable",
					"type": "constructor"
				},
				{
					"anonymous": false,
					"inputs": [
						{
							"indexed": true,
							"internalType": "address",
							"name": "previousOwner",
							"type": "address"
						}
					],
					"name": "OwnershipRenounced",
					"type": "event"
				},
				{
					"anonymous": false,
					"inputs": [
						{
							"indexed": true,
							"internalType": "address",
							"name": "previousOwner",
							"type": "address"
						},
						{
							"indexed": true,
							"internalType": "address",
							"name": "newOwner",
							"type": "address"
						}
					],
					"name": "OwnershipTransferred",
					"type": "event"
				},
				{
					"inputs": [
						{
							"internalType": "address",
							"name": "ref",
							"type": "address"
						}
					],
					"name": "buyEggs",
					"outputs": [],
					"stateMutability": "payable",
					"type": "function"
				},
				{
					"inputs": [
						{
							"internalType": "uint256",
							"name": "eth",
							"type": "uint256"
						},
						{
							"internalType": "uint256",
							"name": "contractBalance",
							"type": "uint256"
						}
					],
					"name": "calculateEggBuy",
					"outputs": [
						{
							"internalType": "uint256",
							"name": "",
							"type": "uint256"
						}
					],
					"stateMutability": "view",
					"type": "function"
				},
				{
					"inputs": [
						{
							"internalType": "uint256",
							"name": "eth",
							"type": "uint256"
						}
					],
					"name": "calculateEggBuySimple",
					"outputs": [
						{
							"internalType": "uint256",
							"name": "",
							"type": "uint256"
						}
					],
					"stateMutability": "view",
					"type": "function"
				},
				{
					"inputs": [
						{
							"internalType": "uint256",
							"name": "eggs",
							"type": "uint256"
						}
					],
					"name": "calculateEggSell",
					"outputs": [
						{
							"internalType": "uint256",
							"name": "",
							"type": "uint256"
						}
					],
					"stateMutability": "view",
					"type": "function"
				},
				{
					"inputs": [
						{
							"internalType": "address",
							"name": "adr",
							"type": "address"
						}
					],
					"name": "furnaceRewards",
					"outputs": [
						{
							"internalType": "uint256",
							"name": "",
							"type": "uint256"
						}
					],
					"stateMutability": "view",
					"type": "function"
				},
				{
					"inputs": [],
					"name": "getBalance",
					"outputs": [
						{
							"internalType": "uint256",
							"name": "",
							"type": "uint256"
						}
					],
					"stateMutability": "view",
					"type": "function"
				},
				{
					"inputs": [
						{
							"internalType": "address",
							"name": "adr",
							"type": "address"
						}
					],
					"name": "getEggsSinceLastHatch",
					"outputs": [
						{
							"internalType": "uint256",
							"name": "",
							"type": "uint256"
						}
					],
					"stateMutability": "view",
					"type": "function"
				},
				{
					"inputs": [
						{
							"internalType": "address",
							"name": "adr",
							"type": "address"
						}
					],
					"name": "getMyEggs",
					"outputs": [
						{
							"internalType": "uint256",
							"name": "",
							"type": "uint256"
						}
					],
					"stateMutability": "view",
					"type": "function"
				},
				{
					"inputs": [
						{
							"internalType": "address",
							"name": "adr",
							"type": "address"
						}
					],
					"name": "getMyMiners",
					"outputs": [
						{
							"internalType": "uint256",
							"name": "",
							"type": "uint256"
						}
					],
					"stateMutability": "view",
					"type": "function"
				},
				{
					"inputs": [
						{
							"internalType": "address",
							"name": "ref",
							"type": "address"
						}
					],
					"name": "hatchEggs",
					"outputs": [],
					"stateMutability": "nonpayable",
					"type": "function"
				},
				{
					"inputs": [],
					"name": "isOwner",
					"outputs": [
						{
							"internalType": "bool",
							"name": "",
							"type": "bool"
						}
					],
					"stateMutability": "view",
					"type": "function"
				},
				{
					"inputs": [],
					"name": "owner",
					"outputs": [
						{
							"internalType": "address",
							"name": "",
							"type": "address"
						}
					],
					"stateMutability": "view",
					"type": "function"
				},
				{
					"inputs": [],
					"name": "renounceOwnership",
					"outputs": [],
					"stateMutability": "nonpayable",
					"type": "function"
				},
				{
					"inputs": [],
					"name": "seedMarket",
					"outputs": [],
					"stateMutability": "payable",
					"type": "function"
				},
				{
					"inputs": [],
					"name": "sellEggs",
					"outputs": [],
					"stateMutability": "nonpayable",
					"type": "function"
				},
				{
					"inputs": [
						{
							"internalType": "address",
							"name": "newOwner",
							"type": "address"
						}
					],
					"name": "transferOwnership",
					"outputs": [],
					"stateMutability": "nonpayable",
					"type": "function"
				}
			],
			"devdoc": {
				"kind": "dev",
				"methods": {},
				"version": 1
			},
			"evm": {
				"assembly": "    /* \"contracts/BlastFurnace_flattened.sol\":9076:13145  contract BlastFurnace is Context, Ownable {... */\n  mstore(0x40, 0x80)\n    /* \"contracts/BlastFurnace_flattened.sol\":9194:9201  1080000 */\n  0x107ac0\n    /* \"contracts/BlastFurnace_flattened.sol\":9154:9201  uint256 private EGGS_TO_HATCH_1MINERS = 1080000 */\n  0x01\n  sstore\n    /* \"contracts/BlastFurnace_flattened.sol\":9274:9279  10000 */\n  0x2710\n    /* \"contracts/BlastFurnace_flattened.sol\":9252:9279  uint256 private PSN = 10000 */\n  0x02\n  sstore\n    /* \"contracts/BlastFurnace_flattened.sol\":9306:9310  5000 */\n  0x1388\n    /* \"contracts/BlastFurnace_flattened.sol\":9283:9310  uint256 private PSNH = 5000 */\n  0x03\n  sstore\n    /* \"contracts/BlastFurnace_flattened.sol\":9342:9343  3 */\n  0x03\n    /* \"contracts/BlastFurnace_flattened.sol\":9314:9343  uint256 private devFeeVal = 3 */\n  0x04\n  sstore\n    /* \"contracts/BlastFurnace_flattened.sol\":9374:9379  false */\n  0x00\n    /* \"contracts/BlastFurnace_flattened.sol\":9347:9379  bool private initialized = false */\n  0x05\n  exp(0x0100, 0x00)\n  dup2\n  sload\n  dup2\n  0xff\n  mul\n  not\n  and\n  swap1\n  dup4\n  iszero\n  iszero\n  mul\n  or\n  swap1\n  sstore\n  pop\n    /* \"contracts/BlastFurnace_flattened.sol\":9652:9704  constructor() {... */\n  callvalue\n  dup1\n  iszero\n  tag_1\n  jumpi\n  0x00\n  dup1\n  revert\ntag_1:\n  pop\n    /* \"contracts/BlastFurnace_flattened.sol\":6029:6039  msg.sender */\n  caller\n    /* \"contracts/BlastFurnace_flattened.sol\":6020:6026  _owner */\n  0x00\n  dup1\n    /* \"contracts/BlastFurnace_flattened.sol\":6020:6039  _owner = msg.sender */\n  0x0100\n  exp\n  dup2\n  sload\n  dup2\n  0xffffffffffffffffffffffffffffffffffffffff\n  mul\n  not\n  and\n  swap1\n  dup4\n  0xffffffffffffffffffffffffffffffffffffffff\n  and\n  mul\n  or\n  swap1\n  sstore\n  pop\n    /* \"contracts/BlastFurnace_flattened.sol\":9688:9698  msg.sender */\n  caller\n    /* \"contracts/BlastFurnace_flattened.sol\":9671:9677  recAdd */\n  0x05\n  0x01\n    /* \"contracts/BlastFurnace_flattened.sol\":9671:9699  recAdd = payable(msg.sender) */\n  0x0100\n  exp\n  dup2\n  sload\n  dup2\n  0xffffffffffffffffffffffffffffffffffffffff\n  mul\n  not\n  and\n  swap1\n  dup4\n  0xffffffffffffffffffffffffffffffffffffffff\n  and\n  mul\n  or\n  swap1\n  sstore\n  pop\n    /* \"contracts/BlastFurnace_flattened.sol\":9076:13145  contract BlastFurnace is Context, Ownable {... */\n  dataSize(sub_0)\n  dup1\n  dataOffset(sub_0)\n  0x00\n  codecopy\n  0x00\n  return\nstop\n\nsub_0: assembly {\n        /* \"contracts/BlastFurnace_flattened.sol\":9076:13145  contract BlastFurnace is Context, Ownable {... */\n      mstore(0x40, 0x80)\n      jumpi(tag_1, lt(calldatasize, 0x04))\n      shr(0xe0, calldataload(0x00))\n      dup1\n      0x715018a6\n      gt\n      tag_18\n      jumpi\n      dup1\n      0x8f32d59b\n      gt\n      tag_19\n      jumpi\n      dup1\n      0x8f32d59b\n      eq\n      tag_14\n      jumpi\n      dup1\n      0xd7c8843b\n      eq\n      tag_15\n      jumpi\n      dup1\n      0xdb663865\n      eq\n      tag_16\n      jumpi\n      dup1\n      0xf2fde38b\n      eq\n      tag_17\n      jumpi\n      jump(tag_1)\n    tag_19:\n      dup1\n      0x715018a6\n      eq\n      tag_10\n      jumpi\n      dup1\n      0x7e56fde5\n      eq\n      tag_11\n      jumpi\n      dup1\n      0x8da5cb5b\n      eq\n      tag_12\n      jumpi\n      dup1\n      0x8e316327\n      eq\n      tag_13\n      jumpi\n      jump(tag_1)\n    tag_18:\n      dup1\n      0x3c5f07cb\n      gt\n      tag_20\n      jumpi\n      dup1\n      0x3c5f07cb\n      eq\n      tag_6\n      jumpi\n      dup1\n      0x3ec862a8\n      eq\n      tag_7\n      jumpi\n      dup1\n      0x450c9d7d\n      eq\n      tag_8\n      jumpi\n      dup1\n      0x4b634b06\n      eq\n      tag_9\n      jumpi\n      jump(tag_1)\n    tag_20:\n      dup1\n      0x12065fe0\n      eq\n      tag_2\n      jumpi\n      dup1\n      0x26fd8422\n      eq\n      tag_3\n      jumpi\n      dup1\n      0x2ef6a743\n      eq\n      tag_4\n      jumpi\n      dup1\n      0x3955f0fe\n      eq\n      tag_5\n      jumpi\n    tag_1:\n      0x00\n      dup1\n      revert\n        /* \"contracts/BlastFurnace_flattened.sol\":12458:12548  function getBalance() public view returns (uint256) {... */\n    tag_2:\n      callvalue\n      dup1\n      iszero\n      tag_21\n      jumpi\n      0x00\n      dup1\n      revert\n    tag_21:\n      pop\n      tag_22\n      tag_23\n      jump\t// in\n    tag_22:\n      mload(0x40)\n      tag_24\n      swap2\n      swap1\n      tag_25\n      jump\t// in\n    tag_24:\n      mload(0x40)\n      dup1\n      swap2\n      sub\n      swap1\n      return\n        /* \"contracts/BlastFurnace_flattened.sol\":11882:12040  function calculateEggBuy(uint256 eth, uint256 contractBalance) public view returns (uint256) {... */\n    tag_3:\n      callvalue\n      dup1\n      iszero\n      tag_26\n      jumpi\n      0x00\n      dup1\n      revert\n    tag_26:\n      pop\n      tag_27\n      0x04\n      dup1\n      calldatasize\n      sub\n      dup2\n      add\n      swap1\n      tag_28\n      swap2\n      swap1\n      tag_29\n      jump\t// in\n    tag_28:\n      tag_30\n      jump\t// in\n    tag_27:\n      mload(0x40)\n      tag_31\n      swap2\n      swap1\n      tag_25\n      jump\t// in\n    tag_31:\n      mload(0x40)\n      dup1\n      swap2\n      sub\n      swap1\n      return\n        /* \"contracts/BlastFurnace_flattened.sol\":12658:12795  function getMyEggs(address adr) public view returns (uint256) {... */\n    tag_4:\n      callvalue\n      dup1\n      iszero\n      tag_32\n      jumpi\n      0x00\n      dup1\n      revert\n    tag_32:\n      pop\n      tag_33\n      0x04\n      dup1\n      calldatasize\n      sub\n      dup2\n      add\n      swap1\n      tag_34\n      swap2\n      swap1\n      tag_35\n      jump\t// in\n    tag_34:\n      tag_36\n      jump\t// in\n    tag_33:\n      mload(0x40)\n      tag_37\n      swap2\n      swap1\n      tag_25\n      jump\t// in\n    tag_37:\n      mload(0x40)\n      dup1\n      swap2\n      sub\n      swap1\n      return\n        /* \"contracts/BlastFurnace_flattened.sol\":10499:10898  function sellEggs() public {... */\n    tag_5:\n      callvalue\n      dup1\n      iszero\n      tag_38\n      jumpi\n      0x00\n      dup1\n      revert\n    tag_38:\n      pop\n      tag_39\n      tag_40\n      jump\t// in\n    tag_39:\n      stop\n        /* \"contracts/BlastFurnace_flattened.sol\":12319:12453  function seedMarket() public payable onlyOwner {... */\n    tag_6:\n      tag_41\n      tag_42\n      jump\t// in\n    tag_41:\n      stop\n        /* \"contracts/BlastFurnace_flattened.sol\":9709:10494  function hatchEggs(address ref) public {... */\n    tag_7:\n      callvalue\n      dup1\n      iszero\n      tag_43\n      jumpi\n      0x00\n      dup1\n      revert\n    tag_43:\n      pop\n      tag_44\n      0x04\n      dup1\n      calldatasize\n      sub\n      dup2\n      add\n      swap1\n      tag_45\n      swap2\n      swap1\n      tag_35\n      jump\t// in\n    tag_45:\n      tag_46\n      jump\t// in\n    tag_44:\n      stop\n        /* \"contracts/BlastFurnace_flattened.sol\":10903:11081  function furnaceRewards(address adr) public view returns (uint256) {... */\n    tag_8:\n      callvalue\n      dup1\n      iszero\n      tag_47\n      jumpi\n      0x00\n      dup1\n      revert\n    tag_47:\n      pop\n      tag_48\n      0x04\n      dup1\n      calldatasize\n      sub\n      dup2\n      add\n      swap1\n      tag_49\n      swap2\n      swap1\n      tag_35\n      jump\t// in\n    tag_49:\n      tag_50\n      jump\t// in\n    tag_48:\n      mload(0x40)\n      tag_51\n      swap2\n      swap1\n      tag_25\n      jump\t// in\n    tag_51:\n      mload(0x40)\n      dup1\n      swap2\n      sub\n      swap1\n      return\n        /* \"contracts/BlastFurnace_flattened.sol\":12553:12653  function getMyMiners(address adr) public view returns (uint256) {... */\n    tag_9:\n      callvalue\n      dup1\n      iszero\n      tag_52\n      jumpi\n      0x00\n      dup1\n      revert\n    tag_52:\n      pop\n      tag_53\n      0x04\n      dup1\n      calldatasize\n      sub\n      dup2\n      add\n      swap1\n      tag_54\n      swap2\n      swap1\n      tag_35\n      jump\t// in\n    tag_54:\n      tag_55\n      jump\t// in\n    tag_53:\n      mload(0x40)\n      tag_56\n      swap2\n      swap1\n      tag_25\n      jump\t// in\n    tag_56:\n      mload(0x40)\n      dup1\n      swap2\n      sub\n      swap1\n      return\n        /* \"contracts/BlastFurnace_flattened.sol\":6272:6383  function renounceOwnership() public onlyOwner {... */\n    tag_10:\n      callvalue\n      dup1\n      iszero\n      tag_57\n      jumpi\n      0x00\n      dup1\n      revert\n    tag_57:\n      pop\n      tag_58\n      tag_59\n      jump\t// in\n    tag_58:\n      stop\n        /* \"contracts/BlastFurnace_flattened.sol\":12045:12179  function calculateEggBuySimple(uint256 eth) public view returns (uint256) {... */\n    tag_11:\n      callvalue\n      dup1\n      iszero\n      tag_60\n      jumpi\n      0x00\n      dup1\n      revert\n    tag_60:\n      pop\n      tag_61\n      0x04\n      dup1\n      calldatasize\n      sub\n      dup2\n      add\n      swap1\n      tag_62\n      swap2\n      swap1\n      tag_63\n      jump\t// in\n    tag_62:\n      tag_64\n      jump\t// in\n    tag_61:\n      mload(0x40)\n      tag_65\n      swap2\n      swap1\n      tag_25\n      jump\t// in\n    tag_65:\n      mload(0x40)\n      dup1\n      swap2\n      sub\n      swap1\n      return\n        /* \"contracts/BlastFurnace_flattened.sol\":6049:6119  function owner() public view returns (address) {... */\n    tag_12:\n      callvalue\n      dup1\n      iszero\n      tag_66\n      jumpi\n      0x00\n      dup1\n      revert\n    tag_66:\n      pop\n      tag_67\n      tag_68\n      jump\t// in\n    tag_67:\n      mload(0x40)\n      tag_69\n      swap2\n      swap1\n      tag_70\n      jump\t// in\n    tag_69:\n      mload(0x40)\n      dup1\n      swap2\n      sub\n      swap1\n      return\n        /* \"contracts/BlastFurnace_flattened.sol\":11735:11877  function calculateEggSell(uint256 eggs) public view returns (uint256) {... */\n    tag_13:\n      callvalue\n      dup1\n      iszero\n      tag_71\n      jumpi\n      0x00\n      dup1\n      revert\n    tag_71:\n      pop\n      tag_72\n      0x04\n      dup1\n      calldatasize\n      sub\n      dup2\n      add\n      swap1\n      tag_73\n      swap2\n      swap1\n      tag_63\n      jump\t// in\n    tag_73:\n      tag_74\n      jump\t// in\n    tag_72:\n      mload(0x40)\n      tag_75\n      swap2\n      swap1\n      tag_25\n      jump\t// in\n    tag_75:\n      mload(0x40)\n      dup1\n      swap2\n      sub\n      swap1\n      return\n        /* \"contracts/BlastFurnace_flattened.sol\":6184:6267  function isOwner() public view returns (bool) {... */\n    tag_14:\n      callvalue\n      dup1\n      iszero\n      tag_76\n      jumpi\n      0x00\n      dup1\n      revert\n    tag_76:\n      pop\n      tag_77\n      tag_78\n      jump\t// in\n    tag_77:\n      mload(0x40)\n      tag_79\n      swap2\n      swap1\n      tag_80\n      jump\t// in\n    tag_79:\n      mload(0x40)\n      dup1\n      swap2\n      sub\n      swap1\n      return\n        /* \"contracts/BlastFurnace_flattened.sol\":12800:13041  function getEggsSinceLastHatch(address adr) public view returns (uint256) {... */\n    tag_15:\n      callvalue\n      dup1\n      iszero\n      tag_81\n      jumpi\n      0x00\n      dup1\n      revert\n    tag_81:\n      pop\n      tag_82\n      0x04\n      dup1\n      calldatasize\n      sub\n      dup2\n      add\n      swap1\n      tag_83\n      swap2\n      swap1\n      tag_35\n      jump\t// in\n    tag_83:\n      tag_84\n      jump\t// in\n    tag_82:\n      mload(0x40)\n      tag_85\n      swap2\n      swap1\n      tag_25\n      jump\t// in\n    tag_85:\n      mload(0x40)\n      dup1\n      swap2\n      sub\n      swap1\n      return\n        /* \"contracts/BlastFurnace_flattened.sol\":11086:11483  function buyEggs(address ref) public payable {... */\n    tag_16:\n      tag_86\n      0x04\n      dup1\n      calldatasize\n      sub\n      dup2\n      add\n      swap1\n      tag_87\n      swap2\n      swap1\n      tag_35\n      jump\t// in\n    tag_87:\n      tag_88\n      jump\t// in\n    tag_86:\n      stop\n        /* \"contracts/BlastFurnace_flattened.sol\":6388:6488  function transferOwnership(address newOwner) public onlyOwner {... */\n    tag_17:\n      callvalue\n      dup1\n      iszero\n      tag_89\n      jumpi\n      0x00\n      dup1\n      revert\n    tag_89:\n      pop\n      tag_90\n      0x04\n      dup1\n      calldatasize\n      sub\n      dup2\n      add\n      swap1\n      tag_91\n      swap2\n      swap1\n      tag_35\n      jump\t// in\n    tag_91:\n      tag_92\n      jump\t// in\n    tag_90:\n      stop\n        /* \"contracts/BlastFurnace_flattened.sol\":12458:12548  function getBalance() public view returns (uint256) {... */\n    tag_23:\n        /* \"contracts/BlastFurnace_flattened.sol\":12501:12508  uint256 */\n      0x00\n        /* \"contracts/BlastFurnace_flattened.sol\":12522:12543  address(this).balance */\n      selfbalance\n        /* \"contracts/BlastFurnace_flattened.sol\":12515:12543  return address(this).balance */\n      swap1\n      pop\n        /* \"contracts/BlastFurnace_flattened.sol\":12458:12548  function getBalance() public view returns (uint256) {... */\n      swap1\n      jump\t// out\n        /* \"contracts/BlastFurnace_flattened.sol\":11882:12040  function calculateEggBuy(uint256 eth, uint256 contractBalance) public view returns (uint256) {... */\n    tag_30:\n        /* \"contracts/BlastFurnace_flattened.sol\":11966:11973  uint256 */\n      0x00\n        /* \"contracts/BlastFurnace_flattened.sol\":11987:12035  calculateTrade(eth, contractBalance, marketEggs) */\n      tag_95\n        /* \"contracts/BlastFurnace_flattened.sol\":12002:12005  eth */\n      dup4\n        /* \"contracts/BlastFurnace_flattened.sol\":12007:12022  contractBalance */\n      dup4\n        /* \"contracts/BlastFurnace_flattened.sol\":12024:12034  marketEggs */\n      sload(0x0a)\n        /* \"contracts/BlastFurnace_flattened.sol\":11987:12001  calculateTrade */\n      tag_96\n        /* \"contracts/BlastFurnace_flattened.sol\":11987:12035  calculateTrade(eth, contractBalance, marketEggs) */\n      jump\t// in\n    tag_95:\n        /* \"contracts/BlastFurnace_flattened.sol\":11980:12035  return calculateTrade(eth, contractBalance, marketEggs) */\n      swap1\n      pop\n        /* \"contracts/BlastFurnace_flattened.sol\":11882:12040  function calculateEggBuy(uint256 eth, uint256 contractBalance) public view returns (uint256) {... */\n      swap3\n      swap2\n      pop\n      pop\n      jump\t// out\n        /* \"contracts/BlastFurnace_flattened.sol\":12658:12795  function getMyEggs(address adr) public view returns (uint256) {... */\n    tag_36:\n        /* \"contracts/BlastFurnace_flattened.sol\":12711:12718  uint256 */\n      0x00\n        /* \"contracts/BlastFurnace_flattened.sol\":12732:12790  SafeMath.add(claimedEggs[adr], getEggsSinceLastHatch(adr)) */\n      tag_98\n        /* \"contracts/BlastFurnace_flattened.sol\":12745:12756  claimedEggs */\n      0x07\n        /* \"contracts/BlastFurnace_flattened.sol\":12745:12761  claimedEggs[adr] */\n      0x00\n        /* \"contracts/BlastFurnace_flattened.sol\":12757:12760  adr */\n      dup5\n        /* \"contracts/BlastFurnace_flattened.sol\":12745:12761  claimedEggs[adr] */\n      0xffffffffffffffffffffffffffffffffffffffff\n      and\n      0xffffffffffffffffffffffffffffffffffffffff\n      and\n      dup2\n      mstore\n      0x20\n      add\n      swap1\n      dup2\n      mstore\n      0x20\n      add\n      0x00\n      keccak256\n      sload\n        /* \"contracts/BlastFurnace_flattened.sol\":12763:12789  getEggsSinceLastHatch(adr) */\n      tag_99\n        /* \"contracts/BlastFurnace_flattened.sol\":12785:12788  adr */\n      dup5\n        /* \"contracts/BlastFurnace_flattened.sol\":12763:12784  getEggsSinceLastHatch */\n      tag_84\n        /* \"contracts/BlastFurnace_flattened.sol\":12763:12789  getEggsSinceLastHatch(adr) */\n      jump\t// in\n    tag_99:\n        /* \"contracts/BlastFurnace_flattened.sol\":12732:12744  SafeMath.add */\n      tag_100\n        /* \"contracts/BlastFurnace_flattened.sol\":12732:12790  SafeMath.add(claimedEggs[adr], getEggsSinceLastHatch(adr)) */\n      jump\t// in\n    tag_98:\n        /* \"contracts/BlastFurnace_flattened.sol\":12725:12790  return SafeMath.add(claimedEggs[adr], getEggsSinceLastHatch(adr)) */\n      swap1\n      pop\n        /* \"contracts/BlastFurnace_flattened.sol\":12658:12795  function getMyEggs(address adr) public view returns (uint256) {... */\n      swap2\n      swap1\n      pop\n      jump\t// out\n        /* \"contracts/BlastFurnace_flattened.sol\":10499:10898  function sellEggs() public {... */\n    tag_40:\n        /* \"contracts/BlastFurnace_flattened.sol\":10539:10550  initialized */\n      0x05\n      0x00\n      swap1\n      sload\n      swap1\n      0x0100\n      exp\n      swap1\n      div\n      0xff\n      and\n        /* \"contracts/BlastFurnace_flattened.sol\":10531:10551  require(initialized) */\n      tag_102\n      jumpi\n      0x00\n      dup1\n      revert\n    tag_102:\n        /* \"contracts/BlastFurnace_flattened.sol\":10556:10571  uint256 hasEggs */\n      0x00\n        /* \"contracts/BlastFurnace_flattened.sol\":10574:10595  getMyEggs(msg.sender) */\n      tag_103\n        /* \"contracts/BlastFurnace_flattened.sol\":10584:10594  msg.sender */\n      caller\n        /* \"contracts/BlastFurnace_flattened.sol\":10574:10583  getMyEggs */\n      tag_36\n        /* \"contracts/BlastFurnace_flattened.sol\":10574:10595  getMyEggs(msg.sender) */\n      jump\t// in\n    tag_103:\n        /* \"contracts/BlastFurnace_flattened.sol\":10556:10595  uint256 hasEggs = getMyEggs(msg.sender) */\n      swap1\n      pop\n        /* \"contracts/BlastFurnace_flattened.sol\":10600:10616  uint256 eggValue */\n      0x00\n        /* \"contracts/BlastFurnace_flattened.sol\":10619:10644  calculateEggSell(hasEggs) */\n      tag_104\n        /* \"contracts/BlastFurnace_flattened.sol\":10636:10643  hasEggs */\n      dup3\n        /* \"contracts/BlastFurnace_flattened.sol\":10619:10635  calculateEggSell */\n      tag_74\n        /* \"contracts/BlastFurnace_flattened.sol\":10619:10644  calculateEggSell(hasEggs) */\n      jump\t// in\n    tag_104:\n        /* \"contracts/BlastFurnace_flattened.sol\":10600:10644  uint256 eggValue = calculateEggSell(hasEggs) */\n      swap1\n      pop\n        /* \"contracts/BlastFurnace_flattened.sol\":10649:10660  uint256 fee */\n      0x00\n        /* \"contracts/BlastFurnace_flattened.sol\":10663:10679  devFee(eggValue) */\n      tag_105\n        /* \"contracts/BlastFurnace_flattened.sol\":10670:10678  eggValue */\n      dup3\n        /* \"contracts/BlastFurnace_flattened.sol\":10663:10669  devFee */\n      tag_106\n        /* \"contracts/BlastFurnace_flattened.sol\":10663:10679  devFee(eggValue) */\n      jump\t// in\n    tag_105:\n        /* \"contracts/BlastFurnace_flattened.sol\":10649:10679  uint256 fee = devFee(eggValue) */\n      swap1\n      pop\n        /* \"contracts/BlastFurnace_flattened.sol\":10710:10711  0 */\n      0x00\n        /* \"contracts/BlastFurnace_flattened.sol\":10684:10695  claimedEggs */\n      0x07\n        /* \"contracts/BlastFurnace_flattened.sol\":10684:10707  claimedEggs[msg.sender] */\n      0x00\n        /* \"contracts/BlastFurnace_flattened.sol\":10696:10706  msg.sender */\n      caller\n        /* \"contracts/BlastFurnace_flattened.sol\":10684:10707  claimedEggs[msg.sender] */\n      0xffffffffffffffffffffffffffffffffffffffff\n      and\n      0xffffffffffffffffffffffffffffffffffffffff\n      and\n      dup2\n      mstore\n      0x20\n      add\n      swap1\n      dup2\n      mstore\n      0x20\n      add\n      0x00\n      keccak256\n        /* \"contracts/BlastFurnace_flattened.sol\":10684:10711  claimedEggs[msg.sender] = 0 */\n      dup2\n      swap1\n      sstore\n      pop\n        /* \"contracts/BlastFurnace_flattened.sol\":10740:10755  block.timestamp */\n      timestamp\n        /* \"contracts/BlastFurnace_flattened.sol\":10716:10725  lastHatch */\n      0x08\n        /* \"contracts/BlastFurnace_flattened.sol\":10716:10737  lastHatch[msg.sender] */\n      0x00\n        /* \"contracts/BlastFurnace_flattened.sol\":10726:10736  msg.sender */\n      caller\n        /* \"contracts/BlastFurnace_flattened.sol\":10716:10737  lastHatch[msg.sender] */\n      0xffffffffffffffffffffffffffffffffffffffff\n      and\n      0xffffffffffffffffffffffffffffffffffffffff\n      and\n      dup2\n      mstore\n      0x20\n      add\n      swap1\n      dup2\n      mstore\n      0x20\n      add\n      0x00\n      keccak256\n        /* \"contracts/BlastFurnace_flattened.sol\":10716:10755  lastHatch[msg.sender] = block.timestamp */\n      dup2\n      swap1\n      sstore\n      pop\n        /* \"contracts/BlastFurnace_flattened.sol\":10773:10806  SafeMath.add(marketEggs, hasEggs) */\n      tag_107\n        /* \"contracts/BlastFurnace_flattened.sol\":10786:10796  marketEggs */\n      sload(0x0a)\n        /* \"contracts/BlastFurnace_flattened.sol\":10798:10805  hasEggs */\n      dup5\n        /* \"contracts/BlastFurnace_flattened.sol\":10773:10785  SafeMath.add */\n      tag_100\n        /* \"contracts/BlastFurnace_flattened.sol\":10773:10806  SafeMath.add(marketEggs, hasEggs) */\n      jump\t// in\n    tag_107:\n        /* \"contracts/BlastFurnace_flattened.sol\":10760:10770  marketEggs */\n      0x0a\n        /* \"contracts/BlastFurnace_flattened.sol\":10760:10806  marketEggs = SafeMath.add(marketEggs, hasEggs) */\n      dup2\n      swap1\n      sstore\n      pop\n        /* \"contracts/BlastFurnace_flattened.sol\":10811:10817  recAdd */\n      0x05\n      0x01\n      swap1\n      sload\n      swap1\n      0x0100\n      exp\n      swap1\n      div\n      0xffffffffffffffffffffffffffffffffffffffff\n      and\n        /* \"contracts/BlastFurnace_flattened.sol\":10811:10826  recAdd.transfer */\n      0xffffffffffffffffffffffffffffffffffffffff\n      and\n        /* \"contracts/BlastFurnace_flattened.sol\":10811:10831  recAdd.transfer(fee) */\n      0x08fc\n        /* \"contracts/BlastFurnace_flattened.sol\":10827:10830  fee */\n      dup3\n        /* \"contracts/BlastFurnace_flattened.sol\":10811:10831  recAdd.transfer(fee) */\n      swap1\n      dup2\n      iszero\n      mul\n      swap1\n      mload(0x40)\n      0x00\n      mload(0x40)\n      dup1\n      dup4\n      sub\n      dup2\n      dup6\n      dup9\n      dup9\n      call\n      swap4\n      pop\n      pop\n      pop\n      pop\n      iszero\n      dup1\n      iszero\n      tag_109\n      jumpi\n      returndatasize\n      0x00\n      dup1\n      returndatacopy\n      revert(0x00, returndatasize)\n    tag_109:\n      pop\n        /* \"contracts/BlastFurnace_flattened.sol\":10844:10854  msg.sender */\n      caller\n        /* \"contracts/BlastFurnace_flattened.sol\":10836:10864  payable(msg.sender).transfer */\n      0xffffffffffffffffffffffffffffffffffffffff\n      and\n        /* \"contracts/BlastFurnace_flattened.sol\":10836:10893  payable(msg.sender).transfer(SafeMath.sub(eggValue, fee)) */\n      0x08fc\n        /* \"contracts/BlastFurnace_flattened.sol\":10865:10892  SafeMath.sub(eggValue, fee) */\n      tag_110\n        /* \"contracts/BlastFurnace_flattened.sol\":10878:10886  eggValue */\n      dup5\n        /* \"contracts/BlastFurnace_flattened.sol\":10888:10891  fee */\n      dup5\n        /* \"contracts/BlastFurnace_flattened.sol\":10865:10877  SafeMath.sub */\n      tag_111\n        /* \"contracts/BlastFurnace_flattened.sol\":10865:10892  SafeMath.sub(eggValue, fee) */\n      jump\t// in\n    tag_110:\n        /* \"contracts/BlastFurnace_flattened.sol\":10836:10893  payable(msg.sender).transfer(SafeMath.sub(eggValue, fee)) */\n      swap1\n      dup2\n      iszero\n      mul\n      swap1\n      mload(0x40)\n      0x00\n      mload(0x40)\n      dup1\n      dup4\n      sub\n      dup2\n      dup6\n      dup9\n      dup9\n      call\n      swap4\n      pop\n      pop\n      pop\n      pop\n      iszero\n      dup1\n      iszero\n      tag_113\n      jumpi\n      returndatasize\n      0x00\n      dup1\n      returndatacopy\n      revert(0x00, returndatasize)\n    tag_113:\n      pop\n        /* \"contracts/BlastFurnace_flattened.sol\":10526:10898  {... */\n      pop\n      pop\n      pop\n        /* \"contracts/BlastFurnace_flattened.sol\":10499:10898  function sellEggs() public {... */\n      jump\t// out\n        /* \"contracts/BlastFurnace_flattened.sol\":12319:12453  function seedMarket() public payable onlyOwner {... */\n    tag_42:\n        /* \"contracts/BlastFurnace_flattened.sol\":6158:6167  isOwner() */\n      tag_115\n        /* \"contracts/BlastFurnace_flattened.sol\":6158:6165  isOwner */\n      tag_78\n        /* \"contracts/BlastFurnace_flattened.sol\":6158:6167  isOwner() */\n      jump\t// in\n    tag_115:\n        /* \"contracts/BlastFurnace_flattened.sol\":6150:6168  require(isOwner()) */\n      tag_116\n      jumpi\n      0x00\n      dup1\n      revert\n    tag_116:\n        /* \"contracts/BlastFurnace_flattened.sol\":12393:12394  0 */\n      0x00\n        /* \"contracts/BlastFurnace_flattened.sol\":12379:12389  marketEggs */\n      sload(0x0a)\n        /* \"contracts/BlastFurnace_flattened.sol\":12379:12394  marketEggs == 0 */\n      eq\n        /* \"contracts/BlastFurnace_flattened.sol\":12371:12395  require(marketEggs == 0) */\n      tag_118\n      jumpi\n      0x00\n      dup1\n      revert\n    tag_118:\n        /* \"contracts/BlastFurnace_flattened.sol\":12414:12418  true */\n      0x01\n        /* \"contracts/BlastFurnace_flattened.sol\":12400:12411  initialized */\n      0x05\n      0x00\n        /* \"contracts/BlastFurnace_flattened.sol\":12400:12418  initialized = true */\n      0x0100\n      exp\n      dup2\n      sload\n      dup2\n      0xff\n      mul\n      not\n      and\n      swap1\n      dup4\n      iszero\n      iszero\n      mul\n      or\n      swap1\n      sstore\n      pop\n        /* \"contracts/BlastFurnace_flattened.sol\":12436:12448  108000000000 */\n      0x19254d3800\n        /* \"contracts/BlastFurnace_flattened.sol\":12423:12433  marketEggs */\n      0x0a\n        /* \"contracts/BlastFurnace_flattened.sol\":12423:12448  marketEggs = 108000000000 */\n      dup2\n      swap1\n      sstore\n      pop\n        /* \"contracts/BlastFurnace_flattened.sol\":12319:12453  function seedMarket() public payable onlyOwner {... */\n      jump\t// out\n        /* \"contracts/BlastFurnace_flattened.sol\":9709:10494  function hatchEggs(address ref) public {... */\n    tag_46:\n        /* \"contracts/BlastFurnace_flattened.sol\":9761:9772  initialized */\n      0x05\n      0x00\n      swap1\n      sload\n      swap1\n      0x0100\n      exp\n      swap1\n      div\n      0xff\n      and\n        /* \"contracts/BlastFurnace_flattened.sol\":9753:9773  require(initialized) */\n      tag_120\n      jumpi\n      0x00\n      dup1\n      revert\n    tag_120:\n        /* \"contracts/BlastFurnace_flattened.sol\":9791:9801  msg.sender */\n      caller\n        /* \"contracts/BlastFurnace_flattened.sol\":9784:9801  ref == msg.sender */\n      0xffffffffffffffffffffffffffffffffffffffff\n      and\n        /* \"contracts/BlastFurnace_flattened.sol\":9784:9787  ref */\n      dup2\n        /* \"contracts/BlastFurnace_flattened.sol\":9784:9801  ref == msg.sender */\n      0xffffffffffffffffffffffffffffffffffffffff\n      and\n      sub\n        /* \"contracts/BlastFurnace_flattened.sol\":9780:9831  if (ref == msg.sender) {... */\n      tag_121\n      jumpi\n        /* \"contracts/BlastFurnace_flattened.sol\":9823:9824  0 */\n      0x00\n        /* \"contracts/BlastFurnace_flattened.sol\":9809:9825  ref = address(0) */\n      swap1\n      pop\n        /* \"contracts/BlastFurnace_flattened.sol\":9780:9831  if (ref == msg.sender) {... */\n    tag_121:\n        /* \"contracts/BlastFurnace_flattened.sol\":9874:9875  0 */\n      0x00\n        /* \"contracts/BlastFurnace_flattened.sol\":9841:9876  referrals[msg.sender] == address(0) */\n      0xffffffffffffffffffffffffffffffffffffffff\n      and\n        /* \"contracts/BlastFurnace_flattened.sol\":9841:9850  referrals */\n      0x09\n        /* \"contracts/BlastFurnace_flattened.sol\":9841:9862  referrals[msg.sender] */\n      0x00\n        /* \"contracts/BlastFurnace_flattened.sol\":9851:9861  msg.sender */\n      caller\n        /* \"contracts/BlastFurnace_flattened.sol\":9841:9862  referrals[msg.sender] */\n      0xffffffffffffffffffffffffffffffffffffffff\n      and\n      0xffffffffffffffffffffffffffffffffffffffff\n      and\n      dup2\n      mstore\n      0x20\n      add\n      swap1\n      dup2\n      mstore\n      0x20\n      add\n      0x00\n      keccak256\n      0x00\n      swap1\n      sload\n      swap1\n      0x0100\n      exp\n      swap1\n      div\n      0xffffffffffffffffffffffffffffffffffffffff\n      and\n        /* \"contracts/BlastFurnace_flattened.sol\":9841:9876  referrals[msg.sender] == address(0) */\n      0xffffffffffffffffffffffffffffffffffffffff\n      and\n      eq\n        /* \"contracts/BlastFurnace_flattened.sol\":9841:9915  referrals[msg.sender] == address(0) && referrals[msg.sender] != msg.sender */\n      dup1\n      iszero\n      tag_122\n      jumpi\n      pop\n        /* \"contracts/BlastFurnace_flattened.sol\":9905:9915  msg.sender */\n      caller\n        /* \"contracts/BlastFurnace_flattened.sol\":9880:9915  referrals[msg.sender] != msg.sender */\n      0xffffffffffffffffffffffffffffffffffffffff\n      and\n        /* \"contracts/BlastFurnace_flattened.sol\":9880:9889  referrals */\n      0x09\n        /* \"contracts/BlastFurnace_flattened.sol\":9880:9901  referrals[msg.sender] */\n      0x00\n        /* \"contracts/BlastFurnace_flattened.sol\":9890:9900  msg.sender */\n      caller\n        /* \"contracts/BlastFurnace_flattened.sol\":9880:9901  referrals[msg.sender] */\n      0xffffffffffffffffffffffffffffffffffffffff\n      and\n      0xffffffffffffffffffffffffffffffffffffffff\n      and\n      dup2\n      mstore\n      0x20\n      add\n      swap1\n      dup2\n      mstore\n      0x20\n      add\n      0x00\n      keccak256\n      0x00\n      swap1\n      sload\n      swap1\n      0x0100\n      exp\n      swap1\n      div\n      0xffffffffffffffffffffffffffffffffffffffff\n      and\n        /* \"contracts/BlastFurnace_flattened.sol\":9880:9915  referrals[msg.sender] != msg.sender */\n      0xffffffffffffffffffffffffffffffffffffffff\n      and\n      eq\n      iszero\n        /* \"contracts/BlastFurnace_flattened.sol\":9841:9915  referrals[msg.sender] == address(0) && referrals[msg.sender] != msg.sender */\n    tag_122:\n        /* \"contracts/BlastFurnace_flattened.sol\":9837:9956  if (referrals[msg.sender] == address(0) && referrals[msg.sender] != msg.sender) {... */\n      iszero\n      tag_123\n      jumpi\n        /* \"contracts/BlastFurnace_flattened.sol\":9947:9950  ref */\n      dup1\n        /* \"contracts/BlastFurnace_flattened.sol\":9923:9932  referrals */\n      0x09\n        /* \"contracts/BlastFurnace_flattened.sol\":9923:9944  referrals[msg.sender] */\n      0x00\n        /* \"contracts/BlastFurnace_flattened.sol\":9933:9943  msg.sender */\n      caller\n        /* \"contracts/BlastFurnace_flattened.sol\":9923:9944  referrals[msg.sender] */\n      0xffffffffffffffffffffffffffffffffffffffff\n      and\n      0xffffffffffffffffffffffffffffffffffffffff\n      and\n      dup2\n      mstore\n      0x20\n      add\n      swap1\n      dup2\n      mstore\n      0x20\n      add\n      0x00\n      keccak256\n      0x00\n        /* \"contracts/BlastFurnace_flattened.sol\":9923:9950  referrals[msg.sender] = ref */\n      0x0100\n      exp\n      dup2\n      sload\n      dup2\n      0xffffffffffffffffffffffffffffffffffffffff\n      mul\n      not\n      and\n      swap1\n      dup4\n      0xffffffffffffffffffffffffffffffffffffffff\n      and\n      mul\n      or\n      swap1\n      sstore\n      pop\n        /* \"contracts/BlastFurnace_flattened.sol\":9837:9956  if (referrals[msg.sender] == address(0) && referrals[msg.sender] != msg.sender) {... */\n    tag_123:\n        /* \"contracts/BlastFurnace_flattened.sol\":9962:9978  uint256 eggsUsed */\n      0x00\n        /* \"contracts/BlastFurnace_flattened.sol\":9981:10002  getMyEggs(msg.sender) */\n      tag_124\n        /* \"contracts/BlastFurnace_flattened.sol\":9991:10001  msg.sender */\n      caller\n        /* \"contracts/BlastFurnace_flattened.sol\":9981:9990  getMyEggs */\n      tag_36\n        /* \"contracts/BlastFurnace_flattened.sol\":9981:10002  getMyEggs(msg.sender) */\n      jump\t// in\n    tag_124:\n        /* \"contracts/BlastFurnace_flattened.sol\":9962:10002  uint256 eggsUsed = getMyEggs(msg.sender) */\n      swap1\n      pop\n        /* \"contracts/BlastFurnace_flattened.sol\":10007:10024  uint256 newMiners */\n      0x00\n        /* \"contracts/BlastFurnace_flattened.sol\":10027:10072  SafeMath.div(eggsUsed, EGGS_TO_HATCH_1MINERS) */\n      tag_125\n        /* \"contracts/BlastFurnace_flattened.sol\":10040:10048  eggsUsed */\n      dup3\n        /* \"contracts/BlastFurnace_flattened.sol\":10050:10071  EGGS_TO_HATCH_1MINERS */\n      sload(0x01)\n        /* \"contracts/BlastFurnace_flattened.sol\":10027:10039  SafeMath.div */\n      tag_126\n        /* \"contracts/BlastFurnace_flattened.sol\":10027:10072  SafeMath.div(eggsUsed, EGGS_TO_HATCH_1MINERS) */\n      jump\t// in\n    tag_125:\n        /* \"contracts/BlastFurnace_flattened.sol\":10007:10072  uint256 newMiners = SafeMath.div(eggsUsed, EGGS_TO_HATCH_1MINERS) */\n      swap1\n      pop\n        /* \"contracts/BlastFurnace_flattened.sol\":10106:10157  SafeMath.add(hatcheryMiners[msg.sender], newMiners) */\n      tag_127\n        /* \"contracts/BlastFurnace_flattened.sol\":10119:10133  hatcheryMiners */\n      0x06\n        /* \"contracts/BlastFurnace_flattened.sol\":10119:10145  hatcheryMiners[msg.sender] */\n      0x00\n        /* \"contracts/BlastFurnace_flattened.sol\":10134:10144  msg.sender */\n      caller\n        /* \"contracts/BlastFurnace_flattened.sol\":10119:10145  hatcheryMiners[msg.sender] */\n      0xffffffffffffffffffffffffffffffffffffffff\n      and\n      0xffffffffffffffffffffffffffffffffffffffff\n      and\n      dup2\n      mstore\n      0x20\n      add\n      swap1\n      dup2\n      mstore\n      0x20\n      add\n      0x00\n      keccak256\n      sload\n        /* \"contracts/BlastFurnace_flattened.sol\":10147:10156  newMiners */\n      dup3\n        /* \"contracts/BlastFurnace_flattened.sol\":10106:10118  SafeMath.add */\n      tag_100\n        /* \"contracts/BlastFurnace_flattened.sol\":10106:10157  SafeMath.add(hatcheryMiners[msg.sender], newMiners) */\n      jump\t// in\n    tag_127:\n        /* \"contracts/BlastFurnace_flattened.sol\":10077:10091  hatcheryMiners */\n      0x06\n        /* \"contracts/BlastFurnace_flattened.sol\":10077:10103  hatcheryMiners[msg.sender] */\n      0x00\n        /* \"contracts/BlastFurnace_flattened.sol\":10092:10102  msg.sender */\n      caller\n        /* \"contracts/BlastFurnace_flattened.sol\":10077:10103  hatcheryMiners[msg.sender] */\n      0xffffffffffffffffffffffffffffffffffffffff\n      and\n      0xffffffffffffffffffffffffffffffffffffffff\n      and\n      dup2\n      mstore\n      0x20\n      add\n      swap1\n      dup2\n      mstore\n      0x20\n      add\n      0x00\n      keccak256\n        /* \"contracts/BlastFurnace_flattened.sol\":10077:10157  hatcheryMiners[msg.sender] = SafeMath.add(hatcheryMiners[msg.sender], newMiners) */\n      dup2\n      swap1\n      sstore\n      pop\n        /* \"contracts/BlastFurnace_flattened.sol\":10188:10189  0 */\n      0x00\n        /* \"contracts/BlastFurnace_flattened.sol\":10162:10173  claimedEggs */\n      0x07\n        /* \"contracts/BlastFurnace_flattened.sol\":10162:10185  claimedEggs[msg.sender] */\n      0x00\n        /* \"contracts/BlastFurnace_flattened.sol\":10174:10184  msg.sender */\n      caller\n        /* \"contracts/BlastFurnace_flattened.sol\":10162:10185  claimedEggs[msg.sender] */\n      0xffffffffffffffffffffffffffffffffffffffff\n      and\n      0xffffffffffffffffffffffffffffffffffffffff\n      and\n      dup2\n      mstore\n      0x20\n      add\n      swap1\n      dup2\n      mstore\n      0x20\n      add\n      0x00\n      keccak256\n        /* \"contracts/BlastFurnace_flattened.sol\":10162:10189  claimedEggs[msg.sender] = 0 */\n      dup2\n      swap1\n      sstore\n      pop\n        /* \"contracts/BlastFurnace_flattened.sol\":10218:10233  block.timestamp */\n      timestamp\n        /* \"contracts/BlastFurnace_flattened.sol\":10194:10203  lastHatch */\n      0x08\n        /* \"contracts/BlastFurnace_flattened.sol\":10194:10215  lastHatch[msg.sender] */\n      0x00\n        /* \"contracts/BlastFurnace_flattened.sol\":10204:10214  msg.sender */\n      caller\n        /* \"contracts/BlastFurnace_flattened.sol\":10194:10215  lastHatch[msg.sender] */\n      0xffffffffffffffffffffffffffffffffffffffff\n      and\n      0xffffffffffffffffffffffffffffffffffffffff\n      and\n      dup2\n      mstore\n      0x20\n      add\n      swap1\n      dup2\n      mstore\n      0x20\n      add\n      0x00\n      keccak256\n        /* \"contracts/BlastFurnace_flattened.sol\":10194:10233  lastHatch[msg.sender] = block.timestamp */\n      dup2\n      swap1\n      sstore\n      pop\n        /* \"contracts/BlastFurnace_flattened.sol\":10301:10376  SafeMath.add(claimedEggs[referrals[msg.sender]], SafeMath.div(eggsUsed, 8)) */\n      tag_128\n        /* \"contracts/BlastFurnace_flattened.sol\":10314:10325  claimedEggs */\n      0x07\n        /* \"contracts/BlastFurnace_flattened.sol\":10314:10348  claimedEggs[referrals[msg.sender]] */\n      0x00\n        /* \"contracts/BlastFurnace_flattened.sol\":10326:10335  referrals */\n      0x09\n        /* \"contracts/BlastFurnace_flattened.sol\":10326:10347  referrals[msg.sender] */\n      0x00\n        /* \"contracts/BlastFurnace_flattened.sol\":10336:10346  msg.sender */\n      caller\n        /* \"contracts/BlastFurnace_flattened.sol\":10326:10347  referrals[msg.sender] */\n      0xffffffffffffffffffffffffffffffffffffffff\n      and\n      0xffffffffffffffffffffffffffffffffffffffff\n      and\n      dup2\n      mstore\n      0x20\n      add\n      swap1\n      dup2\n      mstore\n      0x20\n      add\n      0x00\n      keccak256\n      0x00\n      swap1\n      sload\n      swap1\n      0x0100\n      exp\n      swap1\n      div\n      0xffffffffffffffffffffffffffffffffffffffff\n      and\n        /* \"contracts/BlastFurnace_flattened.sol\":10314:10348  claimedEggs[referrals[msg.sender]] */\n      0xffffffffffffffffffffffffffffffffffffffff\n      and\n      0xffffffffffffffffffffffffffffffffffffffff\n      and\n      dup2\n      mstore\n      0x20\n      add\n      swap1\n      dup2\n      mstore\n      0x20\n      add\n      0x00\n      keccak256\n      sload\n        /* \"contracts/BlastFurnace_flattened.sol\":10350:10375  SafeMath.div(eggsUsed, 8) */\n      tag_129\n        /* \"contracts/BlastFurnace_flattened.sol\":10363:10371  eggsUsed */\n      dup5\n        /* \"contracts/BlastFurnace_flattened.sol\":10373:10374  8 */\n      0x08\n        /* \"contracts/BlastFurnace_flattened.sol\":10350:10362  SafeMath.div */\n      tag_126\n        /* \"contracts/BlastFurnace_flattened.sol\":10350:10375  SafeMath.div(eggsUsed, 8) */\n      jump\t// in\n    tag_129:\n        /* \"contracts/BlastFurnace_flattened.sol\":10301:10313  SafeMath.add */\n      tag_100\n        /* \"contracts/BlastFurnace_flattened.sol\":10301:10376  SafeMath.add(claimedEggs[referrals[msg.sender]], SafeMath.div(eggsUsed, 8)) */\n      jump\t// in\n    tag_128:\n        /* \"contracts/BlastFurnace_flattened.sol\":10264:10275  claimedEggs */\n      0x07\n        /* \"contracts/BlastFurnace_flattened.sol\":10264:10298  claimedEggs[referrals[msg.sender]] */\n      0x00\n        /* \"contracts/BlastFurnace_flattened.sol\":10276:10285  referrals */\n      0x09\n        /* \"contracts/BlastFurnace_flattened.sol\":10276:10297  referrals[msg.sender] */\n      0x00\n        /* \"contracts/BlastFurnace_flattened.sol\":10286:10296  msg.sender */\n      caller\n        /* \"contracts/BlastFurnace_flattened.sol\":10276:10297  referrals[msg.sender] */\n      0xffffffffffffffffffffffffffffffffffffffff\n      and\n      0xffffffffffffffffffffffffffffffffffffffff\n      and\n      dup2\n      mstore\n      0x20\n      add\n      swap1\n      dup2\n      mstore\n      0x20\n      add\n      0x00\n      keccak256\n      0x00\n      swap1\n      sload\n      swap1\n      0x0100\n      exp\n      swap1\n      div\n      0xffffffffffffffffffffffffffffffffffffffff\n      and\n        /* \"contracts/BlastFurnace_flattened.sol\":10264:10298  claimedEggs[referrals[msg.sender]] */\n      0xffffffffffffffffffffffffffffffffffffffff\n      and\n      0xffffffffffffffffffffffffffffffffffffffff\n      and\n      dup2\n      mstore\n      0x20\n      add\n      swap1\n      dup2\n      mstore\n      0x20\n      add\n      0x00\n      keccak256\n        /* \"contracts/BlastFurnace_flattened.sol\":10264:10376  claimedEggs[referrals[msg.sender]] = SafeMath.add(claimedEggs[referrals[msg.sender]], SafeMath.div(eggsUsed, 8)) */\n      dup2\n      swap1\n      sstore\n      pop\n        /* \"contracts/BlastFurnace_flattened.sol\":10438:10489  SafeMath.add(marketEggs, SafeMath.div(eggsUsed, 5)) */\n      tag_130\n        /* \"contracts/BlastFurnace_flattened.sol\":10451:10461  marketEggs */\n      sload(0x0a)\n        /* \"contracts/BlastFurnace_flattened.sol\":10463:10488  SafeMath.div(eggsUsed, 5) */\n      tag_131\n        /* \"contracts/BlastFurnace_flattened.sol\":10476:10484  eggsUsed */\n      dup5\n        /* \"contracts/BlastFurnace_flattened.sol\":10486:10487  5 */\n      0x05\n        /* \"contracts/BlastFurnace_flattened.sol\":10463:10475  SafeMath.div */\n      tag_126\n        /* \"contracts/BlastFurnace_flattened.sol\":10463:10488  SafeMath.div(eggsUsed, 5) */\n      jump\t// in\n    tag_131:\n        /* \"contracts/BlastFurnace_flattened.sol\":10438:10450  SafeMath.add */\n      tag_100\n        /* \"contracts/BlastFurnace_flattened.sol\":10438:10489  SafeMath.add(marketEggs, SafeMath.div(eggsUsed, 5)) */\n      jump\t// in\n    tag_130:\n        /* \"contracts/BlastFurnace_flattened.sol\":10425:10435  marketEggs */\n      0x0a\n        /* \"contracts/BlastFurnace_flattened.sol\":10425:10489  marketEggs = SafeMath.add(marketEggs, SafeMath.div(eggsUsed, 5)) */\n      dup2\n      swap1\n      sstore\n      pop\n        /* \"contracts/BlastFurnace_flattened.sol\":9748:10494  {... */\n      pop\n      pop\n        /* \"contracts/BlastFurnace_flattened.sol\":9709:10494  function hatchEggs(address ref) public {... */\n      pop\n      jump\t// out\n        /* \"contracts/BlastFurnace_flattened.sol\":10903:11081  function furnaceRewards(address adr) public view returns (uint256) {... */\n    tag_50:\n        /* \"contracts/BlastFurnace_flattened.sol\":10961:10968  uint256 */\n      0x00\n        /* \"contracts/BlastFurnace_flattened.sol\":10975:10990  uint256 hasEggs */\n      dup1\n        /* \"contracts/BlastFurnace_flattened.sol\":10993:11007  getMyEggs(adr) */\n      tag_133\n        /* \"contracts/BlastFurnace_flattened.sol\":11003:11006  adr */\n      dup4\n        /* \"contracts/BlastFurnace_flattened.sol\":10993:11002  getMyEggs */\n      tag_36\n        /* \"contracts/BlastFurnace_flattened.sol\":10993:11007  getMyEggs(adr) */\n      jump\t// in\n    tag_133:\n        /* \"contracts/BlastFurnace_flattened.sol\":10975:11007  uint256 hasEggs = getMyEggs(adr) */\n      swap1\n      pop\n        /* \"contracts/BlastFurnace_flattened.sol\":11012:11028  uint256 eggValue */\n      0x00\n        /* \"contracts/BlastFurnace_flattened.sol\":11031:11056  calculateEggSell(hasEggs) */\n      tag_134\n        /* \"contracts/BlastFurnace_flattened.sol\":11048:11055  hasEggs */\n      dup3\n        /* \"contracts/BlastFurnace_flattened.sol\":11031:11047  calculateEggSell */\n      tag_74\n        /* \"contracts/BlastFurnace_flattened.sol\":11031:11056  calculateEggSell(hasEggs) */\n      jump\t// in\n    tag_134:\n        /* \"contracts/BlastFurnace_flattened.sol\":11012:11056  uint256 eggValue = calculateEggSell(hasEggs) */\n      swap1\n      pop\n        /* \"contracts/BlastFurnace_flattened.sol\":11068:11076  eggValue */\n      dup1\n        /* \"contracts/BlastFurnace_flattened.sol\":11061:11076  return eggValue */\n      swap3\n      pop\n      pop\n      pop\n        /* \"contracts/BlastFurnace_flattened.sol\":10903:11081  function furnaceRewards(address adr) public view returns (uint256) {... */\n      swap2\n      swap1\n      pop\n      jump\t// out\n        /* \"contracts/BlastFurnace_flattened.sol\":12553:12653  function getMyMiners(address adr) public view returns (uint256) {... */\n    tag_55:\n        /* \"contracts/BlastFurnace_flattened.sol\":12608:12615  uint256 */\n      0x00\n        /* \"contracts/BlastFurnace_flattened.sol\":12629:12643  hatcheryMiners */\n      0x06\n        /* \"contracts/BlastFurnace_flattened.sol\":12629:12648  hatcheryMiners[adr] */\n      0x00\n        /* \"contracts/BlastFurnace_flattened.sol\":12644:12647  adr */\n      dup4\n        /* \"contracts/BlastFurnace_flattened.sol\":12629:12648  hatcheryMiners[adr] */\n      0xffffffffffffffffffffffffffffffffffffffff\n      and\n      0xffffffffffffffffffffffffffffffffffffffff\n      and\n      dup2\n      mstore\n      0x20\n      add\n      swap1\n      dup2\n      mstore\n      0x20\n      add\n      0x00\n      keccak256\n      sload\n        /* \"contracts/BlastFurnace_flattened.sol\":12622:12648  return hatcheryMiners[adr] */\n      swap1\n      pop\n        /* \"contracts/BlastFurnace_flattened.sol\":12553:12653  function getMyMiners(address adr) public view returns (uint256) {... */\n      swap2\n      swap1\n      pop\n      jump\t// out\n        /* \"contracts/BlastFurnace_flattened.sol\":6272:6383  function renounceOwnership() public onlyOwner {... */\n    tag_59:\n        /* \"contracts/BlastFurnace_flattened.sol\":6158:6167  isOwner() */\n      tag_137\n        /* \"contracts/BlastFurnace_flattened.sol\":6158:6165  isOwner */\n      tag_78\n        /* \"contracts/BlastFurnace_flattened.sol\":6158:6167  isOwner() */\n      jump\t// in\n    tag_137:\n        /* \"contracts/BlastFurnace_flattened.sol\":6150:6168  require(isOwner()) */\n      tag_138\n      jumpi\n      0x00\n      dup1\n      revert\n    tag_138:\n        /* \"contracts/BlastFurnace_flattened.sol\":6347:6353  _owner */\n      0x00\n      dup1\n      sload\n      swap1\n      0x0100\n      exp\n      swap1\n      div\n      0xffffffffffffffffffffffffffffffffffffffff\n      and\n        /* \"contracts/BlastFurnace_flattened.sol\":6328:6354  OwnershipRenounced(_owner) */\n      0xffffffffffffffffffffffffffffffffffffffff\n      and\n      0xf8df31144d9c2f0f6b59d69b8b98abd5459d07f2742c4df920b25aae33c64820\n      mload(0x40)\n      mload(0x40)\n      dup1\n      swap2\n      sub\n      swap1\n      log2\n        /* \"contracts/BlastFurnace_flattened.sol\":6376:6377  0 */\n      0x00\n        /* \"contracts/BlastFurnace_flattened.sol\":6359:6365  _owner */\n      dup1\n      0x00\n        /* \"contracts/BlastFurnace_flattened.sol\":6359:6378  _owner = address(0) */\n      0x0100\n      exp\n      dup2\n      sload\n      dup2\n      0xffffffffffffffffffffffffffffffffffffffff\n      mul\n      not\n      and\n      swap1\n      dup4\n      0xffffffffffffffffffffffffffffffffffffffff\n      and\n      mul\n      or\n      swap1\n      sstore\n      pop\n        /* \"contracts/BlastFurnace_flattened.sol\":6272:6383  function renounceOwnership() public onlyOwner {... */\n      jump\t// out\n        /* \"contracts/BlastFurnace_flattened.sol\":12045:12179  function calculateEggBuySimple(uint256 eth) public view returns (uint256) {... */\n    tag_64:\n        /* \"contracts/BlastFurnace_flattened.sol\":12110:12117  uint256 */\n      0x00\n        /* \"contracts/BlastFurnace_flattened.sol\":12131:12174  calculateEggBuy(eth, address(this).balance) */\n      tag_141\n        /* \"contracts/BlastFurnace_flattened.sol\":12147:12150  eth */\n      dup3\n        /* \"contracts/BlastFurnace_flattened.sol\":12152:12173  address(this).balance */\n      selfbalance\n        /* \"contracts/BlastFurnace_flattened.sol\":12131:12146  calculateEggBuy */\n      tag_30\n        /* \"contracts/BlastFurnace_flattened.sol\":12131:12174  calculateEggBuy(eth, address(this).balance) */\n      jump\t// in\n    tag_141:\n        /* \"contracts/BlastFurnace_flattened.sol\":12124:12174  return calculateEggBuy(eth, address(this).balance) */\n      swap1\n      pop\n        /* \"contracts/BlastFurnace_flattened.sol\":12045:12179  function calculateEggBuySimple(uint256 eth) public view returns (uint256) {... */\n      swap2\n      swap1\n      pop\n      jump\t// out\n        /* \"contracts/BlastFurnace_flattened.sol\":6049:6119  function owner() public view returns (address) {... */\n    tag_68:\n        /* \"contracts/BlastFurnace_flattened.sol\":6087:6094  address */\n      0x00\n        /* \"contracts/BlastFurnace_flattened.sol\":6108:6114  _owner */\n      dup1\n      0x00\n      swap1\n      sload\n      swap1\n      0x0100\n      exp\n      swap1\n      div\n      0xffffffffffffffffffffffffffffffffffffffff\n      and\n        /* \"contracts/BlastFurnace_flattened.sol\":6101:6114  return _owner */\n      swap1\n      pop\n        /* \"contracts/BlastFurnace_flattened.sol\":6049:6119  function owner() public view returns (address) {... */\n      swap1\n      jump\t// out\n        /* \"contracts/BlastFurnace_flattened.sol\":11735:11877  function calculateEggSell(uint256 eggs) public view returns (uint256) {... */\n    tag_74:\n        /* \"contracts/BlastFurnace_flattened.sol\":11796:11803  uint256 */\n      0x00\n        /* \"contracts/BlastFurnace_flattened.sol\":11817:11872  calculateTrade(eggs, marketEggs, address(this).balance) */\n      tag_144\n        /* \"contracts/BlastFurnace_flattened.sol\":11832:11836  eggs */\n      dup3\n        /* \"contracts/BlastFurnace_flattened.sol\":11838:11848  marketEggs */\n      sload(0x0a)\n        /* \"contracts/BlastFurnace_flattened.sol\":11850:11871  address(this).balance */\n      selfbalance\n        /* \"contracts/BlastFurnace_flattened.sol\":11817:11831  calculateTrade */\n      tag_96\n        /* \"contracts/BlastFurnace_flattened.sol\":11817:11872  calculateTrade(eggs, marketEggs, address(this).balance) */\n      jump\t// in\n    tag_144:\n        /* \"contracts/BlastFurnace_flattened.sol\":11810:11872  return calculateTrade(eggs, marketEggs, address(this).balance) */\n      swap1\n      pop\n        /* \"contracts/BlastFurnace_flattened.sol\":11735:11877  function calculateEggSell(uint256 eggs) public view returns (uint256) {... */\n      swap2\n      swap1\n      pop\n      jump\t// out\n        /* \"contracts/BlastFurnace_flattened.sol\":6184:6267  function isOwner() public view returns (bool) {... */\n    tag_78:\n        /* \"contracts/BlastFurnace_flattened.sol\":6224:6228  bool */\n      0x00\n        /* \"contracts/BlastFurnace_flattened.sol\":6256:6262  _owner */\n      dup1\n      0x00\n      swap1\n      sload\n      swap1\n      0x0100\n      exp\n      swap1\n      div\n      0xffffffffffffffffffffffffffffffffffffffff\n      and\n        /* \"contracts/BlastFurnace_flattened.sol\":6242:6262  msg.sender == _owner */\n      0xffffffffffffffffffffffffffffffffffffffff\n      and\n        /* \"contracts/BlastFurnace_flattened.sol\":6242:6252  msg.sender */\n      caller\n        /* \"contracts/BlastFurnace_flattened.sol\":6242:6262  msg.sender == _owner */\n      0xffffffffffffffffffffffffffffffffffffffff\n      and\n      eq\n        /* \"contracts/BlastFurnace_flattened.sol\":6235:6262  return msg.sender == _owner */\n      swap1\n      pop\n        /* \"contracts/BlastFurnace_flattened.sol\":6184:6267  function isOwner() public view returns (bool) {... */\n      swap1\n      jump\t// out\n        /* \"contracts/BlastFurnace_flattened.sol\":12800:13041  function getEggsSinceLastHatch(address adr) public view returns (uint256) {... */\n    tag_84:\n        /* \"contracts/BlastFurnace_flattened.sol\":12865:12872  uint256 */\n      0x00\n        /* \"contracts/BlastFurnace_flattened.sol\":12879:12900  uint256 secondsPassed */\n      dup1\n        /* \"contracts/BlastFurnace_flattened.sol\":12903:12976  min(EGGS_TO_HATCH_1MINERS, SafeMath.sub(block.timestamp, lastHatch[adr])) */\n      tag_147\n        /* \"contracts/BlastFurnace_flattened.sol\":12907:12928  EGGS_TO_HATCH_1MINERS */\n      sload(0x01)\n        /* \"contracts/BlastFurnace_flattened.sol\":12930:12975  SafeMath.sub(block.timestamp, lastHatch[adr]) */\n      tag_148\n        /* \"contracts/BlastFurnace_flattened.sol\":12943:12958  block.timestamp */\n      timestamp\n        /* \"contracts/BlastFurnace_flattened.sol\":12960:12969  lastHatch */\n      0x08\n        /* \"contracts/BlastFurnace_flattened.sol\":12960:12974  lastHatch[adr] */\n      0x00\n        /* \"contracts/BlastFurnace_flattened.sol\":12970:12973  adr */\n      dup9\n        /* \"contracts/BlastFurnace_flattened.sol\":12960:12974  lastHatch[adr] */\n      0xffffffffffffffffffffffffffffffffffffffff\n      and\n      0xffffffffffffffffffffffffffffffffffffffff\n      and\n      dup2\n      mstore\n      0x20\n      add\n      swap1\n      dup2\n      mstore\n      0x20\n      add\n      0x00\n      keccak256\n      sload\n        /* \"contracts/BlastFurnace_flattened.sol\":12930:12942  SafeMath.sub */\n      tag_111\n        /* \"contracts/BlastFurnace_flattened.sol\":12930:12975  SafeMath.sub(block.timestamp, lastHatch[adr]) */\n      jump\t// in\n    tag_148:\n        /* \"contracts/BlastFurnace_flattened.sol\":12903:12906  min */\n      tag_149\n        /* \"contracts/BlastFurnace_flattened.sol\":12903:12976  min(EGGS_TO_HATCH_1MINERS, SafeMath.sub(block.timestamp, lastHatch[adr])) */\n      jump\t// in\n    tag_147:\n        /* \"contracts/BlastFurnace_flattened.sol\":12879:12976  uint256 secondsPassed = min(EGGS_TO_HATCH_1MINERS, SafeMath.sub(block.timestamp, lastHatch[adr])) */\n      swap1\n      pop\n        /* \"contracts/BlastFurnace_flattened.sol\":12988:13036  SafeMath.mul(secondsPassed, hatcheryMiners[adr]) */\n      tag_150\n        /* \"contracts/BlastFurnace_flattened.sol\":13001:13014  secondsPassed */\n      dup2\n        /* \"contracts/BlastFurnace_flattened.sol\":13016:13030  hatcheryMiners */\n      0x06\n        /* \"contracts/BlastFurnace_flattened.sol\":13016:13035  hatcheryMiners[adr] */\n      0x00\n        /* \"contracts/BlastFurnace_flattened.sol\":13031:13034  adr */\n      dup7\n        /* \"contracts/BlastFurnace_flattened.sol\":13016:13035  hatcheryMiners[adr] */\n      0xffffffffffffffffffffffffffffffffffffffff\n      and\n      0xffffffffffffffffffffffffffffffffffffffff\n      and\n      dup2\n      mstore\n      0x20\n      add\n      swap1\n      dup2\n      mstore\n      0x20\n      add\n      0x00\n      keccak256\n      sload\n        /* \"contracts/BlastFurnace_flattened.sol\":12988:13000  SafeMath.mul */\n      tag_151\n        /* \"contracts/BlastFurnace_flattened.sol\":12988:13036  SafeMath.mul(secondsPassed, hatcheryMiners[adr]) */\n      jump\t// in\n    tag_150:\n        /* \"contracts/BlastFurnace_flattened.sol\":12981:13036  return SafeMath.mul(secondsPassed, hatcheryMiners[adr]) */\n      swap2\n      pop\n      pop\n        /* \"contracts/BlastFurnace_flattened.sol\":12800:13041  function getEggsSinceLastHatch(address adr) public view returns (uint256) {... */\n      swap2\n      swap1\n      pop\n      jump\t// out\n        /* \"contracts/BlastFurnace_flattened.sol\":11086:11483  function buyEggs(address ref) public payable {... */\n    tag_88:\n        /* \"contracts/BlastFurnace_flattened.sol\":11144:11155  initialized */\n      0x05\n      0x00\n      swap1\n      sload\n      swap1\n      0x0100\n      exp\n      swap1\n      div\n      0xff\n      and\n        /* \"contracts/BlastFurnace_flattened.sol\":11136:11156  require(initialized) */\n      tag_153\n      jumpi\n      0x00\n      dup1\n      revert\n    tag_153:\n        /* \"contracts/BlastFurnace_flattened.sol\":11161:11179  uint256 eggsBought */\n      0x00\n        /* \"contracts/BlastFurnace_flattened.sol\":11182:11256  calculateEggBuy(msg.value, SafeMath.sub(address(this).balance, msg.value)) */\n      tag_154\n        /* \"contracts/BlastFurnace_flattened.sol\":11198:11207  msg.value */\n      callvalue\n        /* \"contracts/BlastFurnace_flattened.sol\":11209:11255  SafeMath.sub(address(this).balance, msg.value) */\n      tag_155\n        /* \"contracts/BlastFurnace_flattened.sol\":11222:11243  address(this).balance */\n      selfbalance\n        /* \"contracts/BlastFurnace_flattened.sol\":11245:11254  msg.value */\n      callvalue\n        /* \"contracts/BlastFurnace_flattened.sol\":11209:11221  SafeMath.sub */\n      tag_111\n        /* \"contracts/BlastFurnace_flattened.sol\":11209:11255  SafeMath.sub(address(this).balance, msg.value) */\n      jump\t// in\n    tag_155:\n        /* \"contracts/BlastFurnace_flattened.sol\":11182:11197  calculateEggBuy */\n      tag_30\n        /* \"contracts/BlastFurnace_flattened.sol\":11182:11256  calculateEggBuy(msg.value, SafeMath.sub(address(this).balance, msg.value)) */\n      jump\t// in\n    tag_154:\n        /* \"contracts/BlastFurnace_flattened.sol\":11161:11256  uint256 eggsBought = calculateEggBuy(msg.value, SafeMath.sub(address(this).balance, msg.value)) */\n      swap1\n      pop\n        /* \"contracts/BlastFurnace_flattened.sol\":11274:11318  SafeMath.sub(eggsBought, devFee(eggsBought)) */\n      tag_156\n        /* \"contracts/BlastFurnace_flattened.sol\":11287:11297  eggsBought */\n      dup2\n        /* \"contracts/BlastFurnace_flattened.sol\":11299:11317  devFee(eggsBought) */\n      tag_157\n        /* \"contracts/BlastFurnace_flattened.sol\":11306:11316  eggsBought */\n      dup4\n        /* \"contracts/BlastFurnace_flattened.sol\":11299:11305  devFee */\n      tag_106\n        /* \"contracts/BlastFurnace_flattened.sol\":11299:11317  devFee(eggsBought) */\n      jump\t// in\n    tag_157:\n        /* \"contracts/BlastFurnace_flattened.sol\":11274:11286  SafeMath.sub */\n      tag_111\n        /* \"contracts/BlastFurnace_flattened.sol\":11274:11318  SafeMath.sub(eggsBought, devFee(eggsBought)) */\n      jump\t// in\n    tag_156:\n        /* \"contracts/BlastFurnace_flattened.sol\":11261:11318  eggsBought = SafeMath.sub(eggsBought, devFee(eggsBought)) */\n      swap1\n      pop\n        /* \"contracts/BlastFurnace_flattened.sol\":11323:11334  uint256 fee */\n      0x00\n        /* \"contracts/BlastFurnace_flattened.sol\":11337:11354  devFee(msg.value) */\n      tag_158\n        /* \"contracts/BlastFurnace_flattened.sol\":11344:11353  msg.value */\n      callvalue\n        /* \"contracts/BlastFurnace_flattened.sol\":11337:11343  devFee */\n      tag_106\n        /* \"contracts/BlastFurnace_flattened.sol\":11337:11354  devFee(msg.value) */\n      jump\t// in\n    tag_158:\n        /* \"contracts/BlastFurnace_flattened.sol\":11323:11354  uint256 fee = devFee(msg.value) */\n      swap1\n      pop\n        /* \"contracts/BlastFurnace_flattened.sol\":11359:11365  recAdd */\n      0x05\n      0x01\n      swap1\n      sload\n      swap1\n      0x0100\n      exp\n      swap1\n      div\n      0xffffffffffffffffffffffffffffffffffffffff\n      and\n        /* \"contracts/BlastFurnace_flattened.sol\":11359:11374  recAdd.transfer */\n      0xffffffffffffffffffffffffffffffffffffffff\n      and\n        /* \"contracts/BlastFurnace_flattened.sol\":11359:11379  recAdd.transfer(fee) */\n      0x08fc\n        /* \"contracts/BlastFurnace_flattened.sol\":11375:11378  fee */\n      dup3\n        /* \"contracts/BlastFurnace_flattened.sol\":11359:11379  recAdd.transfer(fee) */\n      swap1\n      dup2\n      iszero\n      mul\n      swap1\n      mload(0x40)\n      0x00\n      mload(0x40)\n      dup1\n      dup4\n      sub\n      dup2\n      dup6\n      dup9\n      dup9\n      call\n      swap4\n      pop\n      pop\n      pop\n      pop\n      iszero\n      dup1\n      iszero\n      tag_160\n      jumpi\n      returndatasize\n      0x00\n      dup1\n      returndatacopy\n      revert(0x00, returndatasize)\n    tag_160:\n      pop\n        /* \"contracts/BlastFurnace_flattened.sol\":11410:11459  SafeMath.add(claimedEggs[msg.sender], eggsBought) */\n      tag_161\n        /* \"contracts/BlastFurnace_flattened.sol\":11423:11434  claimedEggs */\n      0x07\n        /* \"contracts/BlastFurnace_flattened.sol\":11423:11446  claimedEggs[msg.sender] */\n      0x00\n        /* \"contracts/BlastFurnace_flattened.sol\":11435:11445  msg.sender */\n      caller\n        /* \"contracts/BlastFurnace_flattened.sol\":11423:11446  claimedEggs[msg.sender] */\n      0xffffffffffffffffffffffffffffffffffffffff\n      and\n      0xffffffffffffffffffffffffffffffffffffffff\n      and\n      dup2\n      mstore\n      0x20\n      add\n      swap1\n      dup2\n      mstore\n      0x20\n      add\n      0x00\n      keccak256\n      sload\n        /* \"contracts/BlastFurnace_flattened.sol\":11448:11458  eggsBought */\n      dup4\n        /* \"contracts/BlastFurnace_flattened.sol\":11410:11422  SafeMath.add */\n      tag_100\n        /* \"contracts/BlastFurnace_flattened.sol\":11410:11459  SafeMath.add(claimedEggs[msg.sender], eggsBought) */\n      jump\t// in\n    tag_161:\n        /* \"contracts/BlastFurnace_flattened.sol\":11384:11395  claimedEggs */\n      0x07\n        /* \"contracts/BlastFurnace_flattened.sol\":11384:11407  claimedEggs[msg.sender] */\n      0x00\n        /* \"contracts/BlastFurnace_flattened.sol\":11396:11406  msg.sender */\n      caller\n        /* \"contracts/BlastFurnace_flattened.sol\":11384:11407  claimedEggs[msg.sender] */\n      0xffffffffffffffffffffffffffffffffffffffff\n      and\n      0xffffffffffffffffffffffffffffffffffffffff\n      and\n      dup2\n      mstore\n      0x20\n      add\n      swap1\n      dup2\n      mstore\n      0x20\n      add\n      0x00\n      keccak256\n        /* \"contracts/BlastFurnace_flattened.sol\":11384:11459  claimedEggs[msg.sender] = SafeMath.add(claimedEggs[msg.sender], eggsBought) */\n      dup2\n      swap1\n      sstore\n      pop\n        /* \"contracts/BlastFurnace_flattened.sol\":11464:11478  hatchEggs(ref) */\n      tag_162\n        /* \"contracts/BlastFurnace_flattened.sol\":11474:11477  ref */\n      dup4\n        /* \"contracts/BlastFurnace_flattened.sol\":11464:11473  hatchEggs */\n      tag_46\n        /* \"contracts/BlastFurnace_flattened.sol\":11464:11478  hatchEggs(ref) */\n      jump\t// in\n    tag_162:\n        /* \"contracts/BlastFurnace_flattened.sol\":11131:11483  {... */\n      pop\n      pop\n        /* \"contracts/BlastFurnace_flattened.sol\":11086:11483  function buyEggs(address ref) public payable {... */\n      pop\n      jump\t// out\n        /* \"contracts/BlastFurnace_flattened.sol\":6388:6488  function transferOwnership(address newOwner) public onlyOwner {... */\n    tag_92:\n        /* \"contracts/BlastFurnace_flattened.sol\":6158:6167  isOwner() */\n      tag_164\n        /* \"contracts/BlastFurnace_flattened.sol\":6158:6165  isOwner */\n      tag_78\n        /* \"contracts/BlastFurnace_flattened.sol\":6158:6167  isOwner() */\n      jump\t// in\n    tag_164:\n        /* \"contracts/BlastFurnace_flattened.sol\":6150:6168  require(isOwner()) */\n      tag_165\n      jumpi\n      0x00\n      dup1\n      revert\n    tag_165:\n        /* \"contracts/BlastFurnace_flattened.sol\":6455:6483  _transferOwnership(newOwner) */\n      tag_167\n        /* \"contracts/BlastFurnace_flattened.sol\":6474:6482  newOwner */\n      dup2\n        /* \"contracts/BlastFurnace_flattened.sol\":6455:6473  _transferOwnership */\n      tag_168\n        /* \"contracts/BlastFurnace_flattened.sol\":6455:6483  _transferOwnership(newOwner) */\n      jump\t// in\n    tag_167:\n        /* \"contracts/BlastFurnace_flattened.sol\":6388:6488  function transferOwnership(address newOwner) public onlyOwner {... */\n      pop\n      jump\t// out\n        /* \"contracts/BlastFurnace_flattened.sol\":11488:11730  function calculateTrade(uint256 rt, uint256 rs, uint256 bs) private view returns (uint256) {... */\n    tag_96:\n        /* \"contracts/BlastFurnace_flattened.sol\":11570:11577  uint256 */\n      0x00\n        /* \"contracts/BlastFurnace_flattened.sol\":11591:11725  SafeMath.div(SafeMath.mul(PSN, bs), SafeMath.add(PSNH, SafeMath.div(SafeMath.add(SafeMath.mul(PSN, rs), SafeMath.mul(PSNH, rt)), rt))) */\n      tag_170\n        /* \"contracts/BlastFurnace_flattened.sol\":11604:11625  SafeMath.mul(PSN, bs) */\n      tag_171\n        /* \"contracts/BlastFurnace_flattened.sol\":11617:11620  PSN */\n      sload(0x02)\n        /* \"contracts/BlastFurnace_flattened.sol\":11622:11624  bs */\n      dup5\n        /* \"contracts/BlastFurnace_flattened.sol\":11604:11616  SafeMath.mul */\n      tag_151\n        /* \"contracts/BlastFurnace_flattened.sol\":11604:11625  SafeMath.mul(PSN, bs) */\n      jump\t// in\n    tag_171:\n        /* \"contracts/BlastFurnace_flattened.sol\":11627:11724  SafeMath.add(PSNH, SafeMath.div(SafeMath.add(SafeMath.mul(PSN, rs), SafeMath.mul(PSNH, rt)), rt)) */\n      tag_172\n        /* \"contracts/BlastFurnace_flattened.sol\":11640:11644  PSNH */\n      sload(0x03)\n        /* \"contracts/BlastFurnace_flattened.sol\":11646:11723  SafeMath.div(SafeMath.add(SafeMath.mul(PSN, rs), SafeMath.mul(PSNH, rt)), rt) */\n      tag_173\n        /* \"contracts/BlastFurnace_flattened.sol\":11659:11718  SafeMath.add(SafeMath.mul(PSN, rs), SafeMath.mul(PSNH, rt)) */\n      tag_174\n        /* \"contracts/BlastFurnace_flattened.sol\":11672:11693  SafeMath.mul(PSN, rs) */\n      tag_175\n        /* \"contracts/BlastFurnace_flattened.sol\":11685:11688  PSN */\n      sload(0x02)\n        /* \"contracts/BlastFurnace_flattened.sol\":11690:11692  rs */\n      dup11\n        /* \"contracts/BlastFurnace_flattened.sol\":11672:11684  SafeMath.mul */\n      tag_151\n        /* \"contracts/BlastFurnace_flattened.sol\":11672:11693  SafeMath.mul(PSN, rs) */\n      jump\t// in\n    tag_175:\n        /* \"contracts/BlastFurnace_flattened.sol\":11695:11717  SafeMath.mul(PSNH, rt) */\n      tag_176\n        /* \"contracts/BlastFurnace_flattened.sol\":11708:11712  PSNH */\n      sload(0x03)\n        /* \"contracts/BlastFurnace_flattened.sol\":11714:11716  rt */\n      dup13\n        /* \"contracts/BlastFurnace_flattened.sol\":11695:11707  SafeMath.mul */\n      tag_151\n        /* \"contracts/BlastFurnace_flattened.sol\":11695:11717  SafeMath.mul(PSNH, rt) */\n      jump\t// in\n    tag_176:\n        /* \"contracts/BlastFurnace_flattened.sol\":11659:11671  SafeMath.add */\n      tag_100\n        /* \"contracts/BlastFurnace_flattened.sol\":11659:11718  SafeMath.add(SafeMath.mul(PSN, rs), SafeMath.mul(PSNH, rt)) */\n      jump\t// in\n    tag_174:\n        /* \"contracts/BlastFurnace_flattened.sol\":11720:11722  rt */\n      dup10\n        /* \"contracts/BlastFurnace_flattened.sol\":11646:11658  SafeMath.div */\n      tag_126\n        /* \"contracts/BlastFurnace_flattened.sol\":11646:11723  SafeMath.div(SafeMath.add(SafeMath.mul(PSN, rs), SafeMath.mul(PSNH, rt)), rt) */\n      jump\t// in\n    tag_173:\n        /* \"contracts/BlastFurnace_flattened.sol\":11627:11639  SafeMath.add */\n      tag_100\n        /* \"contracts/BlastFurnace_flattened.sol\":11627:11724  SafeMath.add(PSNH, SafeMath.div(SafeMath.add(SafeMath.mul(PSN, rs), SafeMath.mul(PSNH, rt)), rt)) */\n      jump\t// in\n    tag_172:\n        /* \"contracts/BlastFurnace_flattened.sol\":11591:11603  SafeMath.div */\n      tag_126\n        /* \"contracts/BlastFurnace_flattened.sol\":11591:11725  SafeMath.div(SafeMath.mul(PSN, bs), SafeMath.add(PSNH, SafeMath.div(SafeMath.add(SafeMath.mul(PSN, rs), SafeMath.mul(PSNH, rt)), rt))) */\n      jump\t// in\n    tag_170:\n        /* \"contracts/BlastFurnace_flattened.sol\":11584:11725  return SafeMath.div(SafeMath.mul(PSN, bs), SafeMath.add(PSNH, SafeMath.div(SafeMath.add(SafeMath.mul(PSN, rs), SafeMath.mul(PSNH, rt)), rt))) */\n      swap1\n      pop\n        /* \"contracts/BlastFurnace_flattened.sol\":11488:11730  function calculateTrade(uint256 rt, uint256 rs, uint256 bs) private view returns (uint256) {... */\n      swap4\n      swap3\n      pop\n      pop\n      pop\n      jump\t// out\n        /* \"contracts/BlastFurnace_flattened.sol\":2086:2175  function add(uint256 a, uint256 b) internal pure returns (uint256) {... */\n    tag_100:\n        /* \"contracts/BlastFurnace_flattened.sol\":2144:2151  uint256 */\n      0x00\n        /* \"contracts/BlastFurnace_flattened.sol\":2169:2170  b */\n      dup2\n        /* \"contracts/BlastFurnace_flattened.sol\":2165:2166  a */\n      dup4\n        /* \"contracts/BlastFurnace_flattened.sol\":2165:2170  a + b */\n      tag_178\n      swap2\n      swap1\n      tag_179\n      jump\t// in\n    tag_178:\n        /* \"contracts/BlastFurnace_flattened.sol\":2158:2170  return a + b */\n      swap1\n      pop\n        /* \"contracts/BlastFurnace_flattened.sol\":2086:2175  function add(uint256 a, uint256 b) internal pure returns (uint256) {... */\n      swap3\n      swap2\n      pop\n      pop\n      jump\t// out\n        /* \"contracts/BlastFurnace_flattened.sol\":12184:12314  function devFee(uint256 amount) private view returns (uint256) {... */\n    tag_106:\n        /* \"contracts/BlastFurnace_flattened.sol\":12238:12245  uint256 */\n      0x00\n        /* \"contracts/BlastFurnace_flattened.sol\":12259:12309  SafeMath.div(SafeMath.mul(amount, devFeeVal), 100) */\n      tag_181\n        /* \"contracts/BlastFurnace_flattened.sol\":12272:12303  SafeMath.mul(amount, devFeeVal) */\n      tag_182\n        /* \"contracts/BlastFurnace_flattened.sol\":12285:12291  amount */\n      dup4\n        /* \"contracts/BlastFurnace_flattened.sol\":12293:12302  devFeeVal */\n      sload(0x04)\n        /* \"contracts/BlastFurnace_flattened.sol\":12272:12284  SafeMath.mul */\n      tag_151\n        /* \"contracts/BlastFurnace_flattened.sol\":12272:12303  SafeMath.mul(amount, devFeeVal) */\n      jump\t// in\n    tag_182:\n        /* \"contracts/BlastFurnace_flattened.sol\":12305:12308  100 */\n      0x64\n        /* \"contracts/BlastFurnace_flattened.sol\":12259:12271  SafeMath.div */\n      tag_126\n        /* \"contracts/BlastFurnace_flattened.sol\":12259:12309  SafeMath.div(SafeMath.mul(amount, devFeeVal), 100) */\n      jump\t// in\n    tag_181:\n        /* \"contracts/BlastFurnace_flattened.sol\":12252:12309  return SafeMath.div(SafeMath.mul(amount, devFeeVal), 100) */\n      swap1\n      pop\n        /* \"contracts/BlastFurnace_flattened.sol\":12184:12314  function devFee(uint256 amount) private view returns (uint256) {... */\n      swap2\n      swap1\n      pop\n      jump\t// out\n        /* \"contracts/BlastFurnace_flattened.sol\":2425:2514  function sub(uint256 a, uint256 b) internal pure returns (uint256) {... */\n    tag_111:\n        /* \"contracts/BlastFurnace_flattened.sol\":2483:2490  uint256 */\n      0x00\n        /* \"contracts/BlastFurnace_flattened.sol\":2508:2509  b */\n      dup2\n        /* \"contracts/BlastFurnace_flattened.sol\":2504:2505  a */\n      dup4\n        /* \"contracts/BlastFurnace_flattened.sol\":2504:2509  a - b */\n      tag_184\n      swap2\n      swap1\n      tag_185\n      jump\t// in\n    tag_184:\n        /* \"contracts/BlastFurnace_flattened.sol\":2497:2509  return a - b */\n      swap1\n      pop\n        /* \"contracts/BlastFurnace_flattened.sol\":2425:2514  function sub(uint256 a, uint256 b) internal pure returns (uint256) {... */\n      swap3\n      swap2\n      pop\n      pop\n      jump\t// out\n        /* \"contracts/BlastFurnace_flattened.sol\":3097:3186  function div(uint256 a, uint256 b) internal pure returns (uint256) {... */\n    tag_126:\n        /* \"contracts/BlastFurnace_flattened.sol\":3155:3162  uint256 */\n      0x00\n        /* \"contracts/BlastFurnace_flattened.sol\":3180:3181  b */\n      dup2\n        /* \"contracts/BlastFurnace_flattened.sol\":3176:3177  a */\n      dup4\n        /* \"contracts/BlastFurnace_flattened.sol\":3176:3181  a / b */\n      tag_187\n      swap2\n      swap1\n      tag_188\n      jump\t// in\n    tag_187:\n        /* \"contracts/BlastFurnace_flattened.sol\":3169:3181  return a / b */\n      swap1\n      pop\n        /* \"contracts/BlastFurnace_flattened.sol\":3097:3186  function div(uint256 a, uint256 b) internal pure returns (uint256) {... */\n      swap3\n      swap2\n      pop\n      pop\n      jump\t// out\n        /* \"contracts/BlastFurnace_flattened.sol\":13046:13142  function min(uint256 a, uint256 b) private pure returns (uint256) {... */\n    tag_149:\n        /* \"contracts/BlastFurnace_flattened.sol\":13103:13110  uint256 */\n      0x00\n        /* \"contracts/BlastFurnace_flattened.sol\":13128:13129  b */\n      dup2\n        /* \"contracts/BlastFurnace_flattened.sol\":13124:13125  a */\n      dup4\n        /* \"contracts/BlastFurnace_flattened.sol\":13124:13129  a < b */\n      lt\n        /* \"contracts/BlastFurnace_flattened.sol\":13124:13137  a < b ? a : b */\n      tag_190\n      jumpi\n        /* \"contracts/BlastFurnace_flattened.sol\":13136:13137  b */\n      dup2\n        /* \"contracts/BlastFurnace_flattened.sol\":13124:13137  a < b ? a : b */\n      jump(tag_191)\n    tag_190:\n        /* \"contracts/BlastFurnace_flattened.sol\":13132:13133  a */\n      dup3\n        /* \"contracts/BlastFurnace_flattened.sol\":13124:13137  a < b ? a : b */\n    tag_191:\n        /* \"contracts/BlastFurnace_flattened.sol\":13117:13137  return a < b ? a : b */\n      swap1\n      pop\n        /* \"contracts/BlastFurnace_flattened.sol\":13046:13142  function min(uint256 a, uint256 b) private pure returns (uint256) {... */\n      swap3\n      swap2\n      pop\n      pop\n      jump\t// out\n        /* \"contracts/BlastFurnace_flattened.sol\":2740:2829  function mul(uint256 a, uint256 b) internal pure returns (uint256) {... */\n    tag_151:\n        /* \"contracts/BlastFurnace_flattened.sol\":2798:2805  uint256 */\n      0x00\n        /* \"contracts/BlastFurnace_flattened.sol\":2823:2824  b */\n      dup2\n        /* \"contracts/BlastFurnace_flattened.sol\":2819:2820  a */\n      dup4\n        /* \"contracts/BlastFurnace_flattened.sol\":2819:2824  a * b */\n      tag_193\n      swap2\n      swap1\n      tag_194\n      jump\t// in\n    tag_193:\n        /* \"contracts/BlastFurnace_flattened.sol\":2812:2824  return a * b */\n      swap1\n      pop\n        /* \"contracts/BlastFurnace_flattened.sol\":2740:2829  function mul(uint256 a, uint256 b) internal pure returns (uint256) {... */\n      swap3\n      swap2\n      pop\n      pop\n      jump\t// out\n        /* \"contracts/BlastFurnace_flattened.sol\":6493:6659  function _transferOwnership(address newOwner) internal {... */\n    tag_168:\n        /* \"contracts/BlastFurnace_flattened.sol\":6581:6582  0 */\n      0x00\n        /* \"contracts/BlastFurnace_flattened.sol\":6561:6583  newOwner != address(0) */\n      0xffffffffffffffffffffffffffffffffffffffff\n      and\n        /* \"contracts/BlastFurnace_flattened.sol\":6561:6569  newOwner */\n      dup2\n        /* \"contracts/BlastFurnace_flattened.sol\":6561:6583  newOwner != address(0) */\n      0xffffffffffffffffffffffffffffffffffffffff\n      and\n      sub\n        /* \"contracts/BlastFurnace_flattened.sol\":6553:6584  require(newOwner != address(0)) */\n      tag_196\n      jumpi\n      0x00\n      dup1\n      revert\n    tag_196:\n        /* \"contracts/BlastFurnace_flattened.sol\":6623:6631  newOwner */\n      dup1\n        /* \"contracts/BlastFurnace_flattened.sol\":6594:6632  OwnershipTransferred(_owner, newOwner) */\n      0xffffffffffffffffffffffffffffffffffffffff\n      and\n        /* \"contracts/BlastFurnace_flattened.sol\":6615:6621  _owner */\n      0x00\n      dup1\n      sload\n      swap1\n      0x0100\n      exp\n      swap1\n      div\n      0xffffffffffffffffffffffffffffffffffffffff\n      and\n        /* \"contracts/BlastFurnace_flattened.sol\":6594:6632  OwnershipTransferred(_owner, newOwner) */\n      0xffffffffffffffffffffffffffffffffffffffff\n      and\n      0x8be0079c531659141344cd1fd0a4f28419497f9722a3daafe3b4186f6b6457e0\n      mload(0x40)\n      mload(0x40)\n      dup1\n      swap2\n      sub\n      swap1\n      log3\n        /* \"contracts/BlastFurnace_flattened.sol\":6646:6654  newOwner */\n      dup1\n        /* \"contracts/BlastFurnace_flattened.sol\":6637:6643  _owner */\n      0x00\n      dup1\n        /* \"contracts/BlastFurnace_flattened.sol\":6637:6654  _owner = newOwner */\n      0x0100\n      exp\n      dup2\n      sload\n      dup2\n      0xffffffffffffffffffffffffffffffffffffffff\n      mul\n      not\n      and\n      swap1\n      dup4\n      0xffffffffffffffffffffffffffffffffffffffff\n      and\n      mul\n      or\n      swap1\n      sstore\n      pop\n        /* \"contracts/BlastFurnace_flattened.sol\":6493:6659  function _transferOwnership(address newOwner) internal {... */\n      pop\n      jump\t// out\n        /* \"#utility.yul\":7:84   */\n    tag_197:\n        /* \"#utility.yul\":44:51   */\n      0x00\n        /* \"#utility.yul\":73:78   */\n      dup2\n        /* \"#utility.yul\":62:78   */\n      swap1\n      pop\n        /* \"#utility.yul\":7:84   */\n      swap2\n      swap1\n      pop\n      jump\t// out\n        /* \"#utility.yul\":90:208   */\n    tag_198:\n        /* \"#utility.yul\":177:201   */\n      tag_216\n        /* \"#utility.yul\":195:200   */\n      dup2\n        /* \"#utility.yul\":177:201   */\n      tag_197\n      jump\t// in\n    tag_216:\n        /* \"#utility.yul\":172:175   */\n      dup3\n        /* \"#utility.yul\":165:202   */\n      mstore\n        /* \"#utility.yul\":90:208   */\n      pop\n      pop\n      jump\t// out\n        /* \"#utility.yul\":214:436   */\n    tag_25:\n        /* \"#utility.yul\":307:311   */\n      0x00\n        /* \"#utility.yul\":345:347   */\n      0x20\n        /* \"#utility.yul\":334:343   */\n      dup3\n        /* \"#utility.yul\":330:348   */\n      add\n        /* \"#utility.yul\":322:348   */\n      swap1\n      pop\n        /* \"#utility.yul\":358:429   */\n      tag_218\n        /* \"#utility.yul\":426:427   */\n      0x00\n        /* \"#utility.yul\":415:424   */\n      dup4\n        /* \"#utility.yul\":411:428   */\n      add\n        /* \"#utility.yul\":402:408   */\n      dup5\n        /* \"#utility.yul\":358:429   */\n      tag_198\n      jump\t// in\n    tag_218:\n        /* \"#utility.yul\":214:436   */\n      swap3\n      swap2\n      pop\n      pop\n      jump\t// out\n        /* \"#utility.yul\":523:640   */\n    tag_200:\n        /* \"#utility.yul\":632:633   */\n      0x00\n        /* \"#utility.yul\":629:630   */\n      dup1\n        /* \"#utility.yul\":622:634   */\n      revert\n        /* \"#utility.yul\":769:891   */\n    tag_202:\n        /* \"#utility.yul\":842:866   */\n      tag_223\n        /* \"#utility.yul\":860:865   */\n      dup2\n        /* \"#utility.yul\":842:866   */\n      tag_197\n      jump\t// in\n    tag_223:\n        /* \"#utility.yul\":835:840   */\n      dup2\n        /* \"#utility.yul\":832:867   */\n      eq\n        /* \"#utility.yul\":822:885   */\n      tag_224\n      jumpi\n        /* \"#utility.yul\":881:882   */\n      0x00\n        /* \"#utility.yul\":878:879   */\n      dup1\n        /* \"#utility.yul\":871:883   */\n      revert\n        /* \"#utility.yul\":822:885   */\n    tag_224:\n        /* \"#utility.yul\":769:891   */\n      pop\n      jump\t// out\n        /* \"#utility.yul\":897:1036   */\n    tag_203:\n        /* \"#utility.yul\":943:948   */\n      0x00\n        /* \"#utility.yul\":981:987   */\n      dup2\n        /* \"#utility.yul\":968:988   */\n      calldataload\n        /* \"#utility.yul\":959:988   */\n      swap1\n      pop\n        /* \"#utility.yul\":997:1030   */\n      tag_226\n        /* \"#utility.yul\":1024:1029   */\n      dup2\n        /* \"#utility.yul\":997:1030   */\n      tag_202\n      jump\t// in\n    tag_226:\n        /* \"#utility.yul\":897:1036   */\n      swap3\n      swap2\n      pop\n      pop\n      jump\t// out\n        /* \"#utility.yul\":1042:1516   */\n    tag_29:\n        /* \"#utility.yul\":1110:1116   */\n      0x00\n        /* \"#utility.yul\":1118:1124   */\n      dup1\n        /* \"#utility.yul\":1167:1169   */\n      0x40\n        /* \"#utility.yul\":1155:1164   */\n      dup4\n        /* \"#utility.yul\":1146:1153   */\n      dup6\n        /* \"#utility.yul\":1142:1165   */\n      sub\n        /* \"#utility.yul\":1138:1170   */\n      slt\n        /* \"#utility.yul\":1135:1254   */\n      iszero\n      tag_228\n      jumpi\n        /* \"#utility.yul\":1173:1252   */\n      tag_229\n      tag_200\n      jump\t// in\n    tag_229:\n        /* \"#utility.yul\":1135:1254   */\n    tag_228:\n        /* \"#utility.yul\":1293:1294   */\n      0x00\n        /* \"#utility.yul\":1318:1371   */\n      tag_230\n        /* \"#utility.yul\":1363:1370   */\n      dup6\n        /* \"#utility.yul\":1354:1360   */\n      dup3\n        /* \"#utility.yul\":1343:1352   */\n      dup7\n        /* \"#utility.yul\":1339:1361   */\n      add\n        /* \"#utility.yul\":1318:1371   */\n      tag_203\n      jump\t// in\n    tag_230:\n        /* \"#utility.yul\":1308:1371   */\n      swap3\n      pop\n        /* \"#utility.yul\":1264:1381   */\n      pop\n        /* \"#utility.yul\":1420:1422   */\n      0x20\n        /* \"#utility.yul\":1446:1499   */\n      tag_231\n        /* \"#utility.yul\":1491:1498   */\n      dup6\n        /* \"#utility.yul\":1482:1488   */\n      dup3\n        /* \"#utility.yul\":1471:1480   */\n      dup7\n        /* \"#utility.yul\":1467:1489   */\n      add\n        /* \"#utility.yul\":1446:1499   */\n      tag_203\n      jump\t// in\n    tag_231:\n        /* \"#utility.yul\":1436:1499   */\n      swap2\n      pop\n        /* \"#utility.yul\":1391:1509   */\n      pop\n        /* \"#utility.yul\":1042:1516   */\n      swap3\n      pop\n      swap3\n      swap1\n      pop\n      jump\t// out\n        /* \"#utility.yul\":1522:1648   */\n    tag_204:\n        /* \"#utility.yul\":1559:1566   */\n      0x00\n        /* \"#utility.yul\":1599:1641   */\n      0xffffffffffffffffffffffffffffffffffffffff\n        /* \"#utility.yul\":1592:1597   */\n      dup3\n        /* \"#utility.yul\":1588:1642   */\n      and\n        /* \"#utility.yul\":1577:1642   */\n      swap1\n      pop\n        /* \"#utility.yul\":1522:1648   */\n      swap2\n      swap1\n      pop\n      jump\t// out\n        /* \"#utility.yul\":1654:1750   */\n    tag_205:\n        /* \"#utility.yul\":1691:1698   */\n      0x00\n        /* \"#utility.yul\":1720:1744   */\n      tag_234\n        /* \"#utility.yul\":1738:1743   */\n      dup3\n        /* \"#utility.yul\":1720:1744   */\n      tag_204\n      jump\t// in\n    tag_234:\n        /* \"#utility.yul\":1709:1744   */\n      swap1\n      pop\n        /* \"#utility.yul\":1654:1750   */\n      swap2\n      swap1\n      pop\n      jump\t// out\n        /* \"#utility.yul\":1756:1878   */\n    tag_206:\n        /* \"#utility.yul\":1829:1853   */\n      tag_236\n        /* \"#utility.yul\":1847:1852   */\n      dup2\n        /* \"#utility.yul\":1829:1853   */\n      tag_205\n      jump\t// in\n    tag_236:\n        /* \"#utility.yul\":1822:1827   */\n      dup2\n        /* \"#utility.yul\":1819:1854   */\n      eq\n        /* \"#utility.yul\":1809:1872   */\n      tag_237\n      jumpi\n        /* \"#utility.yul\":1868:1869   */\n      0x00\n        /* \"#utility.yul\":1865:1866   */\n      dup1\n        /* \"#utility.yul\":1858:1870   */\n      revert\n        /* \"#utility.yul\":1809:1872   */\n    tag_237:\n        /* \"#utility.yul\":1756:1878   */\n      pop\n      jump\t// out\n        /* \"#utility.yul\":1884:2023   */\n    tag_207:\n        /* \"#utility.yul\":1930:1935   */\n      0x00\n        /* \"#utility.yul\":1968:1974   */\n      dup2\n        /* \"#utility.yul\":1955:1975   */\n      calldataload\n        /* \"#utility.yul\":1946:1975   */\n      swap1\n      pop\n        /* \"#utility.yul\":1984:2017   */\n      tag_239\n        /* \"#utility.yul\":2011:2016   */\n      dup2\n        /* \"#utility.yul\":1984:2017   */\n      tag_206\n      jump\t// in\n    tag_239:\n        /* \"#utility.yul\":1884:2023   */\n      swap3\n      swap2\n      pop\n      pop\n      jump\t// out\n        /* \"#utility.yul\":2029:2358   */\n    tag_35:\n        /* \"#utility.yul\":2088:2094   */\n      0x00\n        /* \"#utility.yul\":2137:2139   */\n      0x20\n        /* \"#utility.yul\":2125:2134   */\n      dup3\n        /* \"#utility.yul\":2116:2123   */\n      dup5\n        /* \"#utility.yul\":2112:2135   */\n      sub\n        /* \"#utility.yul\":2108:2140   */\n      slt\n        /* \"#utility.yul\":2105:2224   */\n      iszero\n      tag_241\n      jumpi\n        /* \"#utility.yul\":2143:2222   */\n      tag_242\n      tag_200\n      jump\t// in\n    tag_242:\n        /* \"#utility.yul\":2105:2224   */\n    tag_241:\n        /* \"#utility.yul\":2263:2264   */\n      0x00\n        /* \"#utility.yul\":2288:2341   */\n      tag_243\n        /* \"#utility.yul\":2333:2340   */\n      dup5\n        /* \"#utility.yul\":2324:2330   */\n      dup3\n        /* \"#utility.yul\":2313:2322   */\n      dup6\n        /* \"#utility.yul\":2309:2331   */\n      add\n        /* \"#utility.yul\":2288:2341   */\n      tag_207\n      jump\t// in\n    tag_243:\n        /* \"#utility.yul\":2278:2341   */\n      swap2\n      pop\n        /* \"#utility.yul\":2234:2351   */\n      pop\n        /* \"#utility.yul\":2029:2358   */\n      swap3\n      swap2\n      pop\n      pop\n      jump\t// out\n        /* \"#utility.yul\":2364:2693   */\n    tag_63:\n        /* \"#utility.yul\":2423:2429   */\n      0x00\n        /* \"#utility.yul\":2472:2474   */\n      0x20\n        /* \"#utility.yul\":2460:2469   */\n      dup3\n        /* \"#utility.yul\":2451:2458   */\n      dup5\n        /* \"#utility.yul\":2447:2470   */\n      sub\n        /* \"#utility.yul\":2443:2475   */\n      slt\n        /* \"#utility.yul\":2440:2559   */\n      iszero\n      tag_245\n      jumpi\n        /* \"#utility.yul\":2478:2557   */\n      tag_246\n      tag_200\n      jump\t// in\n    tag_246:\n        /* \"#utility.yul\":2440:2559   */\n    tag_245:\n        /* \"#utility.yul\":2598:2599   */\n      0x00\n        /* \"#utility.yul\":2623:2676   */\n      tag_247\n        /* \"#utility.yul\":2668:2675   */\n      dup5\n        /* \"#utility.yul\":2659:2665   */\n      dup3\n        /* \"#utility.yul\":2648:2657   */\n      dup6\n        /* \"#utility.yul\":2644:2666   */\n      add\n        /* \"#utility.yul\":2623:2676   */\n      tag_203\n      jump\t// in\n    tag_247:\n        /* \"#utility.yul\":2613:2676   */\n      swap2\n      pop\n        /* \"#utility.yul\":2569:2686   */\n      pop\n        /* \"#utility.yul\":2364:2693   */\n      swap3\n      swap2\n      pop\n      pop\n      jump\t// out\n        /* \"#utility.yul\":2699:2817   */\n    tag_208:\n        /* \"#utility.yul\":2786:2810   */\n      tag_249\n        /* \"#utility.yul\":2804:2809   */\n      dup2\n        /* \"#utility.yul\":2786:2810   */\n      tag_205\n      jump\t// in\n    tag_249:\n        /* \"#utility.yul\":2781:2784   */\n      dup3\n        /* \"#utility.yul\":2774:2811   */\n      mstore\n        /* \"#utility.yul\":2699:2817   */\n      pop\n      pop\n      jump\t// out\n        /* \"#utility.yul\":2823:3045   */\n    tag_70:\n        /* \"#utility.yul\":2916:2920   */\n      0x00\n        /* \"#utility.yul\":2954:2956   */\n      0x20\n        /* \"#utility.yul\":2943:2952   */\n      dup3\n        /* \"#utility.yul\":2939:2957   */\n      add\n        /* \"#utility.yul\":2931:2957   */\n      swap1\n      pop\n        /* \"#utility.yul\":2967:3038   */\n      tag_251\n        /* \"#utility.yul\":3035:3036   */\n      0x00\n        /* \"#utility.yul\":3024:3033   */\n      dup4\n        /* \"#utility.yul\":3020:3037   */\n      add\n        /* \"#utility.yul\":3011:3017   */\n      dup5\n        /* \"#utility.yul\":2967:3038   */\n      tag_208\n      jump\t// in\n    tag_251:\n        /* \"#utility.yul\":2823:3045   */\n      swap3\n      swap2\n      pop\n      pop\n      jump\t// out\n        /* \"#utility.yul\":3051:3141   */\n    tag_209:\n        /* \"#utility.yul\":3085:3092   */\n      0x00\n        /* \"#utility.yul\":3128:3133   */\n      dup2\n        /* \"#utility.yul\":3121:3134   */\n      iszero\n        /* \"#utility.yul\":3114:3135   */\n      iszero\n        /* \"#utility.yul\":3103:3135   */\n      swap1\n      pop\n        /* \"#utility.yul\":3051:3141   */\n      swap2\n      swap1\n      pop\n      jump\t// out\n        /* \"#utility.yul\":3147:3256   */\n    tag_210:\n        /* \"#utility.yul\":3228:3249   */\n      tag_254\n        /* \"#utility.yul\":3243:3248   */\n      dup2\n        /* \"#utility.yul\":3228:3249   */\n      tag_209\n      jump\t// in\n    tag_254:\n        /* \"#utility.yul\":3223:3226   */\n      dup3\n        /* \"#utility.yul\":3216:3250   */\n      mstore\n        /* \"#utility.yul\":3147:3256   */\n      pop\n      pop\n      jump\t// out\n        /* \"#utility.yul\":3262:3472   */\n    tag_80:\n        /* \"#utility.yul\":3349:3353   */\n      0x00\n        /* \"#utility.yul\":3387:3389   */\n      0x20\n        /* \"#utility.yul\":3376:3385   */\n      dup3\n        /* \"#utility.yul\":3372:3390   */\n      add\n        /* \"#utility.yul\":3364:3390   */\n      swap1\n      pop\n        /* \"#utility.yul\":3400:3465   */\n      tag_256\n        /* \"#utility.yul\":3462:3463   */\n      0x00\n        /* \"#utility.yul\":3451:3460   */\n      dup4\n        /* \"#utility.yul\":3447:3464   */\n      add\n        /* \"#utility.yul\":3438:3444   */\n      dup5\n        /* \"#utility.yul\":3400:3465   */\n      tag_210\n      jump\t// in\n    tag_256:\n        /* \"#utility.yul\":3262:3472   */\n      swap3\n      swap2\n      pop\n      pop\n      jump\t// out\n        /* \"#utility.yul\":3478:3658   */\n    tag_211:\n        /* \"#utility.yul\":3526:3603   */\n      0x4e487b7100000000000000000000000000000000000000000000000000000000\n        /* \"#utility.yul\":3523:3524   */\n      0x00\n        /* \"#utility.yul\":3516:3604   */\n      mstore\n        /* \"#utility.yul\":3623:3627   */\n      0x11\n        /* \"#utility.yul\":3620:3621   */\n      0x04\n        /* \"#utility.yul\":3613:3628   */\n      mstore\n        /* \"#utility.yul\":3647:3651   */\n      0x24\n        /* \"#utility.yul\":3644:3645   */\n      0x00\n        /* \"#utility.yul\":3637:3652   */\n      revert\n        /* \"#utility.yul\":3664:3855   */\n    tag_179:\n        /* \"#utility.yul\":3704:3707   */\n      0x00\n        /* \"#utility.yul\":3723:3743   */\n      tag_259\n        /* \"#utility.yul\":3741:3742   */\n      dup3\n        /* \"#utility.yul\":3723:3743   */\n      tag_197\n      jump\t// in\n    tag_259:\n        /* \"#utility.yul\":3718:3743   */\n      swap2\n      pop\n        /* \"#utility.yul\":3757:3777   */\n      tag_260\n        /* \"#utility.yul\":3775:3776   */\n      dup4\n        /* \"#utility.yul\":3757:3777   */\n      tag_197\n      jump\t// in\n    tag_260:\n        /* \"#utility.yul\":3752:3777   */\n      swap3\n      pop\n        /* \"#utility.yul\":3800:3801   */\n      dup3\n        /* \"#utility.yul\":3797:3798   */\n      dup3\n        /* \"#utility.yul\":3793:3802   */\n      add\n        /* \"#utility.yul\":3786:3802   */\n      swap1\n      pop\n        /* \"#utility.yul\":3821:3824   */\n      dup1\n        /* \"#utility.yul\":3818:3819   */\n      dup3\n        /* \"#utility.yul\":3815:3825   */\n      gt\n        /* \"#utility.yul\":3812:3848   */\n      iszero\n      tag_261\n      jumpi\n        /* \"#utility.yul\":3828:3846   */\n      tag_262\n      tag_211\n      jump\t// in\n    tag_262:\n        /* \"#utility.yul\":3812:3848   */\n    tag_261:\n        /* \"#utility.yul\":3664:3855   */\n      swap3\n      swap2\n      pop\n      pop\n      jump\t// out\n        /* \"#utility.yul\":3861:4055   */\n    tag_185:\n        /* \"#utility.yul\":3901:3905   */\n      0x00\n        /* \"#utility.yul\":3921:3941   */\n      tag_264\n        /* \"#utility.yul\":3939:3940   */\n      dup3\n        /* \"#utility.yul\":3921:3941   */\n      tag_197\n      jump\t// in\n    tag_264:\n        /* \"#utility.yul\":3916:3941   */\n      swap2\n      pop\n        /* \"#utility.yul\":3955:3975   */\n      tag_265\n        /* \"#utility.yul\":3973:3974   */\n      dup4\n        /* \"#utility.yul\":3955:3975   */\n      tag_197\n      jump\t// in\n    tag_265:\n        /* \"#utility.yul\":3950:3975   */\n      swap3\n      pop\n        /* \"#utility.yul\":3999:4000   */\n      dup3\n        /* \"#utility.yul\":3996:3997   */\n      dup3\n        /* \"#utility.yul\":3992:4001   */\n      sub\n        /* \"#utility.yul\":3984:4001   */\n      swap1\n      pop\n        /* \"#utility.yul\":4023:4024   */\n      dup2\n        /* \"#utility.yul\":4017:4021   */\n      dup2\n        /* \"#utility.yul\":4014:4025   */\n      gt\n        /* \"#utility.yul\":4011:4048   */\n      iszero\n      tag_266\n      jumpi\n        /* \"#utility.yul\":4028:4046   */\n      tag_267\n      tag_211\n      jump\t// in\n    tag_267:\n        /* \"#utility.yul\":4011:4048   */\n    tag_266:\n        /* \"#utility.yul\":3861:4055   */\n      swap3\n      swap2\n      pop\n      pop\n      jump\t// out\n        /* \"#utility.yul\":4061:4241   */\n    tag_212:\n        /* \"#utility.yul\":4109:4186   */\n      0x4e487b7100000000000000000000000000000000000000000000000000000000\n        /* \"#utility.yul\":4106:4107   */\n      0x00\n        /* \"#utility.yul\":4099:4187   */\n      mstore\n        /* \"#utility.yul\":4206:4210   */\n      0x12\n        /* \"#utility.yul\":4203:4204   */\n      0x04\n        /* \"#utility.yul\":4196:4211   */\n      mstore\n        /* \"#utility.yul\":4230:4234   */\n      0x24\n        /* \"#utility.yul\":4227:4228   */\n      0x00\n        /* \"#utility.yul\":4220:4235   */\n      revert\n        /* \"#utility.yul\":4247:4432   */\n    tag_188:\n        /* \"#utility.yul\":4287:4288   */\n      0x00\n        /* \"#utility.yul\":4304:4324   */\n      tag_270\n        /* \"#utility.yul\":4322:4323   */\n      dup3\n        /* \"#utility.yul\":4304:4324   */\n      tag_197\n      jump\t// in\n    tag_270:\n        /* \"#utility.yul\":4299:4324   */\n      swap2\n      pop\n        /* \"#utility.yul\":4338:4358   */\n      tag_271\n        /* \"#utility.yul\":4356:4357   */\n      dup4\n        /* \"#utility.yul\":4338:4358   */\n      tag_197\n      jump\t// in\n    tag_271:\n        /* \"#utility.yul\":4333:4358   */\n      swap3\n      pop\n        /* \"#utility.yul\":4377:4378   */\n      dup3\n        /* \"#utility.yul\":4367:4402   */\n      tag_272\n      jumpi\n        /* \"#utility.yul\":4382:4400   */\n      tag_273\n      tag_212\n      jump\t// in\n    tag_273:\n        /* \"#utility.yul\":4367:4402   */\n    tag_272:\n        /* \"#utility.yul\":4424:4425   */\n      dup3\n        /* \"#utility.yul\":4421:4422   */\n      dup3\n        /* \"#utility.yul\":4417:4426   */\n      div\n        /* \"#utility.yul\":4412:4426   */\n      swap1\n      pop\n        /* \"#utility.yul\":4247:4432   */\n      swap3\n      swap2\n      pop\n      pop\n      jump\t// out\n        /* \"#utility.yul\":4438:4848   */\n    tag_194:\n        /* \"#utility.yul\":4478:4485   */\n      0x00\n        /* \"#utility.yul\":4501:4521   */\n      tag_275\n        /* \"#utility.yul\":4519:4520   */\n      dup3\n        /* \"#utility.yul\":4501:4521   */\n      tag_197\n      jump\t// in\n    tag_275:\n        /* \"#utility.yul\":4496:4521   */\n      swap2\n      pop\n        /* \"#utility.yul\":4535:4555   */\n      tag_276\n        /* \"#utility.yul\":4553:4554   */\n      dup4\n        /* \"#utility.yul\":4535:4555   */\n      tag_197\n      jump\t// in\n    tag_276:\n        /* \"#utility.yul\":4530:4555   */\n      swap3\n      pop\n        /* \"#utility.yul\":4590:4591   */\n      dup3\n        /* \"#utility.yul\":4587:4588   */\n      dup3\n        /* \"#utility.yul\":4583:4592   */\n      mul\n        /* \"#utility.yul\":4612:4642   */\n      tag_277\n        /* \"#utility.yul\":4630:4641   */\n      dup2\n        /* \"#utility.yul\":4612:4642   */\n      tag_197\n      jump\t// in\n    tag_277:\n        /* \"#utility.yul\":4601:4642   */\n      swap2\n      pop\n        /* \"#utility.yul\":4791:4792   */\n      dup3\n        /* \"#utility.yul\":4782:4789   */\n      dup3\n        /* \"#utility.yul\":4778:4793   */\n      div\n        /* \"#utility.yul\":4775:4776   */\n      dup5\n        /* \"#utility.yul\":4772:4794   */\n      eq\n        /* \"#utility.yul\":4752:4753   */\n      dup4\n        /* \"#utility.yul\":4745:4754   */\n      iszero\n        /* \"#utility.yul\":4725:4808   */\n      or\n        /* \"#utility.yul\":4702:4841   */\n      tag_278\n      jumpi\n        /* \"#utility.yul\":4821:4839   */\n      tag_279\n      tag_211\n      jump\t// in\n    tag_279:\n        /* \"#utility.yul\":4702:4841   */\n    tag_278:\n        /* \"#utility.yul\":4486:4848   */\n      pop\n        /* \"#utility.yul\":4438:4848   */\n      swap3\n      swap2\n      pop\n      pop\n      jump\t// out\n\n    auxdata: 0xa26469706673582212204945e8f7c5c0e579b57bd6cb0f9ba3150e31d0e2c941c39704316cd66af569e864736f6c63430008180033\n}\n",
				"bytecode": {
					"linkReferences": {},
					"object": "608060405262107ac060015561271060025561138860035560036004555f60055f6101000a81548160ff021916908315150217905550348015610040575f80fd5b50335f806101000a81548173ffffffffffffffffffffffffffffffffffffffff021916908373ffffffffffffffffffffffffffffffffffffffff16021790555033600560016101000a81548173ffffffffffffffffffffffffffffffffffffffff021916908373ffffffffffffffffffffffffffffffffffffffff160217905550611322806100ce5f395ff3fe6080604052600436106100f2575f3560e01c8063715018a6116100895780638f32d59b116100585780638f32d59b14610310578063d7c8843b1461033a578063db66386514610376578063f2fde38b14610392576100f2565b8063715018a6146102585780637e56fde51461026e5780638da5cb5b146102aa5780638e316327146102d4576100f2565b80633c5f07cb116100c55780633c5f07cb146101ae5780633ec862a8146101b8578063450c9d7d146101e05780634b634b061461021c576100f2565b806312065fe0146100f657806326fd8422146101205780632ef6a7431461015c5780633955f0fe14610198575b5f80fd5b348015610101575f80fd5b5061010a6103ba565b604051610117919061102b565b60405180910390f35b34801561012b575f80fd5b5061014660048036038101906101419190611072565b6103c1565b604051610153919061102b565b60405180910390f35b348015610167575f80fd5b50610182600480360381019061017d919061110a565b6103d7565b60405161018f919061102b565b60405180910390f35b3480156101a3575f80fd5b506101ac61042e565b005b6101b66105b7565b005b3480156101c3575f80fd5b506101de60048036038101906101d9919061110a565b6105fc565b005b3480156101eb575f80fd5b506102066004803603810190610201919061110a565b610a7c565b604051610213919061102b565b60405180910390f35b348015610227575f80fd5b50610242600480360381019061023d919061110a565b610a9f565b60405161024f919061102b565b60405180910390f35b348015610263575f80fd5b5061026c610ae5565b005b348015610279575f80fd5b50610294600480360381019061028f9190611135565b610b98565b6040516102a1919061102b565b60405180910390f35b3480156102b5575f80fd5b506102be610baa565b6040516102cb919061116f565b60405180910390f35b3480156102df575f80fd5b506102fa60048036038101906102f59190611135565b610bd1565b604051610307919061102b565b60405180910390f35b34801561031b575f80fd5b50610324610be6565b60405161033191906111a2565b60405180910390f35b348015610345575f80fd5b50610360600480360381019061035b919061110a565b610c3b565b60405161036d919061102b565b60405180910390f35b610390600480360381019061038b919061110a565b610ce0565b005b34801561039d575f80fd5b506103b860048036038101906103b3919061110a565b610e29565b005b5f47905090565b5f6103cf8383600a54610e45565b905092915050565b5f61042760075f8473ffffffffffffffffffffffffffffffffffffffff1673ffffffffffffffffffffffffffffffffffffffff1681526020019081526020015f205461042284610c3b565b610e97565b9050919050565b60055f9054906101000a900460ff16610445575f80fd5b5f61044f336103d7565b90505f61045b82610bd1565b90505f61046782610eac565b90505f60075f3373ffffffffffffffffffffffffffffffffffffffff1673ffffffffffffffffffffffffffffffffffffffff1681526020019081526020015f20819055504260085f3373ffffffffffffffffffffffffffffffffffffffff1673ffffffffffffffffffffffffffffffffffffffff1681526020019081526020015f20819055506104f9600a5484610e97565b600a81905550600560019054906101000a900473ffffffffffffffffffffffffffffffffffffffff1673ffffffffffffffffffffffffffffffffffffffff166108fc8290811502906040515f60405180830381858888f19350505050158015610564573d5f803e3d5ffd5b503373ffffffffffffffffffffffffffffffffffffffff166108fc6105898484610eca565b90811502906040515f60405180830381858888f193505050501580156105b1573d5f803e3d5ffd5b50505050565b6105bf610be6565b6105c7575f80fd5b5f600a54146105d4575f80fd5b600160055f6101000a81548160ff0219169083151502179055506419254d3800600a81905550565b60055f9054906101000a900460ff16610613575f80fd5b3373ffffffffffffffffffffffffffffffffffffffff168173ffffffffffffffffffffffffffffffffffffffff160361064a575f90505b5f73ffffffffffffffffffffffffffffffffffffffff1660095f3373ffffffffffffffffffffffffffffffffffffffff1673ffffffffffffffffffffffffffffffffffffffff1681526020019081526020015f205f9054906101000a900473ffffffffffffffffffffffffffffffffffffffff1673ffffffffffffffffffffffffffffffffffffffff1614801561076957503373ffffffffffffffffffffffffffffffffffffffff1660095f3373ffffffffffffffffffffffffffffffffffffffff1673ffffffffffffffffffffffffffffffffffffffff1681526020019081526020015f205f9054906101000a900473ffffffffffffffffffffffffffffffffffffffff1673ffffffffffffffffffffffffffffffffffffffff1614155b156107ea578060095f3373ffffffffffffffffffffffffffffffffffffffff1673ffffffffffffffffffffffffffffffffffffffff1681526020019081526020015f205f6101000a81548173ffffffffffffffffffffffffffffffffffffffff021916908373ffffffffffffffffffffffffffffffffffffffff1602179055505b5f6107f4336103d7565b90505f61080382600154610edf565b905061084c60065f3373ffffffffffffffffffffffffffffffffffffffff1673ffffffffffffffffffffffffffffffffffffffff1681526020019081526020015f205482610e97565b60065f3373ffffffffffffffffffffffffffffffffffffffff1673ffffffffffffffffffffffffffffffffffffffff1681526020019081526020015f20819055505f60075f3373ffffffffffffffffffffffffffffffffffffffff1673ffffffffffffffffffffffffffffffffffffffff1681526020019081526020015f20819055504260085f3373ffffffffffffffffffffffffffffffffffffffff1673ffffffffffffffffffffffffffffffffffffffff1681526020019081526020015f20819055506109be60075f60095f3373ffffffffffffffffffffffffffffffffffffffff1673ffffffffffffffffffffffffffffffffffffffff1681526020019081526020015f205f9054906101000a900473ffffffffffffffffffffffffffffffffffffffff1673ffffffffffffffffffffffffffffffffffffffff1673ffffffffffffffffffffffffffffffffffffffff1681526020019081526020015f20546109b9846008610edf565b610e97565b60075f60095f3373ffffffffffffffffffffffffffffffffffffffff1673ffffffffffffffffffffffffffffffffffffffff1681526020019081526020015f205f9054906101000a900473ffffffffffffffffffffffffffffffffffffffff1673ffffffffffffffffffffffffffffffffffffffff1673ffffffffffffffffffffffffffffffffffffffff1681526020019081526020015f2081905550610a71600a54610a6c846005610edf565b610e97565b600a81905550505050565b5f80610a87836103d7565b90505f610a9382610bd1565b90508092505050919050565b5f60065f8373ffffffffffffffffffffffffffffffffffffffff1673ffffffffffffffffffffffffffffffffffffffff1681526020019081526020015f20549050919050565b610aed610be6565b610af5575f80fd5b5f8054906101000a900473ffffffffffffffffffffffffffffffffffffffff1673ffffffffffffffffffffffffffffffffffffffff167ff8df31144d9c2f0f6b59d69b8b98abd5459d07f2742c4df920b25aae33c6482060405160405180910390a25f805f6101000a81548173ffffffffffffffffffffffffffffffffffffffff021916908373ffffffffffffffffffffffffffffffffffffffff160217905550565b5f610ba382476103c1565b9050919050565b5f805f9054906101000a900473ffffffffffffffffffffffffffffffffffffffff16905090565b5f610bdf82600a5447610e45565b9050919050565b5f805f9054906101000a900473ffffffffffffffffffffffffffffffffffffffff1673ffffffffffffffffffffffffffffffffffffffff163373ffffffffffffffffffffffffffffffffffffffff1614905090565b5f80610c8f600154610c8a4260085f8873ffffffffffffffffffffffffffffffffffffffff1673ffffffffffffffffffffffffffffffffffffffff1681526020019081526020015f2054610eca565b610ef4565b9050610cd88160065f8673ffffffffffffffffffffffffffffffffffffffff1673ffffffffffffffffffffffffffffffffffffffff1681526020019081526020015f2054610f0c565b915050919050565b60055f9054906101000a900460ff16610cf7575f80fd5b5f610d0b34610d064734610eca565b6103c1565b9050610d1f81610d1a83610eac565b610eca565b90505f610d2b34610eac565b9050600560019054906101000a900473ffffffffffffffffffffffffffffffffffffffff1673ffffffffffffffffffffffffffffffffffffffff166108fc8290811502906040515f60405180830381858888f19350505050158015610d92573d5f803e3d5ffd5b50610dda60075f3373ffffffffffffffffffffffffffffffffffffffff1673ffffffffffffffffffffffffffffffffffffffff1681526020019081526020015f205483610e97565b60075f3373ffffffffffffffffffffffffffffffffffffffff1673ffffffffffffffffffffffffffffffffffffffff1681526020019081526020015f2081905550610e24836105fc565b505050565b610e31610be6565b610e39575f80fd5b610e4281610f21565b50565b5f610e8e610e5560025484610f0c565b610e89600354610e84610e7e610e6d6002548a610f0c565b610e796003548c610f0c565b610e97565b89610edf565b610e97565b610edf565b90509392505050565b5f8183610ea491906111e8565b905092915050565b5f610ec3610ebc83600454610f0c565b6064610edf565b9050919050565b5f8183610ed7919061121b565b905092915050565b5f8183610eec919061127b565b905092915050565b5f818310610f025781610f04565b825b905092915050565b5f8183610f1991906112ab565b905092915050565b5f73ffffffffffffffffffffffffffffffffffffffff168173ffffffffffffffffffffffffffffffffffffffff1603610f58575f80fd5b8073ffffffffffffffffffffffffffffffffffffffff165f8054906101000a900473ffffffffffffffffffffffffffffffffffffffff1673ffffffffffffffffffffffffffffffffffffffff167f8be0079c531659141344cd1fd0a4f28419497f9722a3daafe3b4186f6b6457e060405160405180910390a3805f806101000a81548173ffffffffffffffffffffffffffffffffffffffff021916908373ffffffffffffffffffffffffffffffffffffffff16021790555050565b5f819050919050565b61102581611013565b82525050565b5f60208201905061103e5f83018461101c565b92915050565b5f80fd5b61105181611013565b811461105b575f80fd5b50565b5f8135905061106c81611048565b92915050565b5f806040838503121561108857611087611044565b5b5f6110958582860161105e565b92505060206110a68582860161105e565b9150509250929050565b5f73ffffffffffffffffffffffffffffffffffffffff82169050919050565b5f6110d9826110b0565b9050919050565b6110e9816110cf565b81146110f3575f80fd5b50565b5f81359050611104816110e0565b92915050565b5f6020828403121561111f5761111e611044565b5b5f61112c848285016110f6565b91505092915050565b5f6020828403121561114a57611149611044565b5b5f6111578482850161105e565b91505092915050565b611169816110cf565b82525050565b5f6020820190506111825f830184611160565b92915050565b5f8115159050919050565b61119c81611188565b82525050565b5f6020820190506111b55f830184611193565b92915050565b7f4e487b71000000000000000000000000000000000000000000000000000000005f52601160045260245ffd5b5f6111f282611013565b91506111fd83611013565b9250828201905080821115611215576112146111bb565b5b92915050565b5f61122582611013565b915061123083611013565b9250828203905081811115611248576112476111bb565b5b92915050565b7f4e487b71000000000000000000000000000000000000000000000000000000005f52601260045260245ffd5b5f61128582611013565b915061129083611013565b9250826112a05761129f61124e565b5b828204905092915050565b5f6112b582611013565b91506112c083611013565b92508282026112ce81611013565b915082820484148315176112e5576112e46111bb565b5b509291505056fea26469706673582212204945e8f7c5c0e579b57bd6cb0f9ba3150e31d0e2c941c39704316cd66af569e864736f6c63430008180033",
					"opcodes": "PUSH1 0x80 PUSH1 0x40 MSTORE PUSH3 0x107AC0 PUSH1 0x1 SSTORE PUSH2 0x2710 PUSH1 0x2 SSTORE PUSH2 0x1388 PUSH1 0x3 SSTORE PUSH1 0x3 PUSH1 0x4 SSTORE PUSH0 PUSH1 0x5 PUSH0 PUSH2 0x100 EXP DUP2 SLOAD DUP2 PUSH1 0xFF MUL NOT AND SWAP1 DUP4 ISZERO ISZERO MUL OR SWAP1 SSTORE POP CALLVALUE DUP1 ISZERO PUSH2 0x40 JUMPI PUSH0 DUP1 REVERT JUMPDEST POP CALLER PUSH0 DUP1 PUSH2 0x100 EXP DUP2 SLOAD DUP2 PUSH20 0xFFFFFFFFFFFFFFFFFFFFFFFFFFFFFFFFFFFFFFFF MUL NOT AND SWAP1 DUP4 PUSH20 0xFFFFFFFFFFFFFFFFFFFFFFFFFFFFFFFFFFFFFFFF AND MUL OR SWAP1 SSTORE POP CALLER PUSH1 0x5 PUSH1 0x1 PUSH2 0x100 EXP DUP2 SLOAD DUP2 PUSH20 0xFFFFFFFFFFFFFFFFFFFFFFFFFFFFFFFFFFFFFFFF MUL NOT AND SWAP1 DUP4 PUSH20 0xFFFFFFFFFFFFFFFFFFFFFFFFFFFFFFFFFFFFFFFF AND MUL OR SWAP1 SSTORE POP PUSH2 0x1322 DUP1 PUSH2 0xCE PUSH0 CODECOPY PUSH0 RETURN INVALID PUSH1 0x80 PUSH1 0x40 MSTORE PUSH1 0x4 CALLDATASIZE LT PUSH2 0xF2 JUMPI PUSH0 CALLDATALOAD PUSH1 0xE0 SHR DUP1 PUSH4 0x715018A6 GT PUSH2 0x89 JUMPI DUP1 PUSH4 0x8F32D59B GT PUSH2 0x58 JUMPI DUP1 PUSH4 0x8F32D59B EQ PUSH2 0x310 JUMPI DUP1 PUSH4 0xD7C8843B EQ PUSH2 0x33A JUMPI DUP1 PUSH4 0xDB663865 EQ PUSH2 0x376 JUMPI DUP1 PUSH4 0xF2FDE38B EQ PUSH2 0x392 JUMPI PUSH2 0xF2 JUMP JUMPDEST DUP1 PUSH4 0x715018A6 EQ PUSH2 0x258 JUMPI DUP1 PUSH4 0x7E56FDE5 EQ PUSH2 0x26E JUMPI DUP1 PUSH4 0x8DA5CB5B EQ PUSH2 0x2AA JUMPI DUP1 PUSH4 0x8E316327 EQ PUSH2 0x2D4 JUMPI PUSH2 0xF2 JUMP JUMPDEST DUP1 PUSH4 0x3C5F07CB GT PUSH2 0xC5 JUMPI DUP1 PUSH4 0x3C5F07CB EQ PUSH2 0x1AE JUMPI DUP1 PUSH4 0x3EC862A8 EQ PUSH2 0x1B8 JUMPI DUP1 PUSH4 0x450C9D7D EQ PUSH2 0x1E0 JUMPI DUP1 PUSH4 0x4B634B06 EQ PUSH2 0x21C JUMPI PUSH2 0xF2 JUMP JUMPDEST DUP1 PUSH4 0x12065FE0 EQ PUSH2 0xF6 JUMPI DUP1 PUSH4 0x26FD8422 EQ PUSH2 0x120 JUMPI DUP1 PUSH4 0x2EF6A743 EQ PUSH2 0x15C JUMPI DUP1 PUSH4 0x3955F0FE EQ PUSH2 0x198 JUMPI JUMPDEST PUSH0 DUP1 REVERT JUMPDEST CALLVALUE DUP1 ISZERO PUSH2 0x101 JUMPI PUSH0 DUP1 REVERT JUMPDEST POP PUSH2 0x10A PUSH2 0x3BA JUMP JUMPDEST PUSH1 0x40 MLOAD PUSH2 0x117 SWAP2 SWAP1 PUSH2 0x102B JUMP JUMPDEST PUSH1 0x40 MLOAD DUP1 SWAP2 SUB SWAP1 RETURN JUMPDEST CALLVALUE DUP1 ISZERO PUSH2 0x12B JUMPI PUSH0 DUP1 REVERT JUMPDEST POP PUSH2 0x146 PUSH1 0x4 DUP1 CALLDATASIZE SUB DUP2 ADD SWAP1 PUSH2 0x141 SWAP2 SWAP1 PUSH2 0x1072 JUMP JUMPDEST PUSH2 0x3C1 JUMP JUMPDEST PUSH1 0x40 MLOAD PUSH2 0x153 SWAP2 SWAP1 PUSH2 0x102B JUMP JUMPDEST PUSH1 0x40 MLOAD DUP1 SWAP2 SUB SWAP1 RETURN JUMPDEST CALLVALUE DUP1 ISZERO PUSH2 0x167 JUMPI PUSH0 DUP1 REVERT JUMPDEST POP PUSH2 0x182 PUSH1 0x4 DUP1 CALLDATASIZE SUB DUP2 ADD SWAP1 PUSH2 0x17D SWAP2 SWAP1 PUSH2 0x110A JUMP JUMPDEST PUSH2 0x3D7 JUMP JUMPDEST PUSH1 0x40 MLOAD PUSH2 0x18F SWAP2 SWAP1 PUSH2 0x102B JUMP JUMPDEST PUSH1 0x40 MLOAD DUP1 SWAP2 SUB SWAP1 RETURN JUMPDEST CALLVALUE DUP1 ISZERO PUSH2 0x1A3 JUMPI PUSH0 DUP1 REVERT JUMPDEST POP PUSH2 0x1AC PUSH2 0x42E JUMP JUMPDEST STOP JUMPDEST PUSH2 0x1B6 PUSH2 0x5B7 JUMP JUMPDEST STOP JUMPDEST CALLVALUE DUP1 ISZERO PUSH2 0x1C3 JUMPI PUSH0 DUP1 REVERT JUMPDEST POP PUSH2 0x1DE PUSH1 0x4 DUP1 CALLDATASIZE SUB DUP2 ADD SWAP1 PUSH2 0x1D9 SWAP2 SWAP1 PUSH2 0x110A JUMP JUMPDEST PUSH2 0x5FC JUMP JUMPDEST STOP JUMPDEST CALLVALUE DUP1 ISZERO PUSH2 0x1EB JUMPI PUSH0 DUP1 REVERT JUMPDEST POP PUSH2 0x206 PUSH1 0x4 DUP1 CALLDATASIZE SUB DUP2 ADD SWAP1 PUSH2 0x201 SWAP2 SWAP1 PUSH2 0x110A JUMP JUMPDEST PUSH2 0xA7C JUMP JUMPDEST PUSH1 0x40 MLOAD PUSH2 0x213 SWAP2 SWAP1 PUSH2 0x102B JUMP JUMPDEST PUSH1 0x40 MLOAD DUP1 SWAP2 SUB SWAP1 RETURN JUMPDEST CALLVALUE DUP1 ISZERO PUSH2 0x227 JUMPI PUSH0 DUP1 REVERT JUMPDEST POP PUSH2 0x242 PUSH1 0x4 DUP1 CALLDATASIZE SUB DUP2 ADD SWAP1 PUSH2 0x23D SWAP2 SWAP1 PUSH2 0x110A JUMP JUMPDEST PUSH2 0xA9F JUMP JUMPDEST PUSH1 0x40 MLOAD PUSH2 0x24F SWAP2 SWAP1 PUSH2 0x102B JUMP JUMPDEST PUSH1 0x40 MLOAD DUP1 SWAP2 SUB SWAP1 RETURN JUMPDEST CALLVALUE DUP1 ISZERO PUSH2 0x263 JUMPI PUSH0 DUP1 REVERT JUMPDEST POP PUSH2 0x26C PUSH2 0xAE5 JUMP JUMPDEST STOP JUMPDEST CALLVALUE DUP1 ISZERO PUSH2 0x279 JUMPI PUSH0 DUP1 REVERT JUMPDEST POP PUSH2 0x294 PUSH1 0x4 DUP1 CALLDATASIZE SUB DUP2 ADD SWAP1 PUSH2 0x28F SWAP2 SWAP1 PUSH2 0x1135 JUMP JUMPDEST PUSH2 0xB98 JUMP JUMPDEST PUSH1 0x40 MLOAD PUSH2 0x2A1 SWAP2 SWAP1 PUSH2 0x102B JUMP JUMPDEST PUSH1 0x40 MLOAD DUP1 SWAP2 SUB SWAP1 RETURN JUMPDEST CALLVALUE DUP1 ISZERO PUSH2 0x2B5 JUMPI PUSH0 DUP1 REVERT JUMPDEST POP PUSH2 0x2BE PUSH2 0xBAA JUMP JUMPDEST PUSH1 0x40 MLOAD PUSH2 0x2CB SWAP2 SWAP1 PUSH2 0x116F JUMP JUMPDEST PUSH1 0x40 MLOAD DUP1 SWAP2 SUB SWAP1 RETURN JUMPDEST CALLVALUE DUP1 ISZERO PUSH2 0x2DF JUMPI PUSH0 DUP1 REVERT JUMPDEST POP PUSH2 0x2FA PUSH1 0x4 DUP1 CALLDATASIZE SUB DUP2 ADD SWAP1 PUSH2 0x2F5 SWAP2 SWAP1 PUSH2 0x1135 JUMP JUMPDEST PUSH2 0xBD1 JUMP JUMPDEST PUSH1 0x40 MLOAD PUSH2 0x307 SWAP2 SWAP1 PUSH2 0x102B JUMP JUMPDEST PUSH1 0x40 MLOAD DUP1 SWAP2 SUB SWAP1 RETURN JUMPDEST CALLVALUE DUP1 ISZERO PUSH2 0x31B JUMPI PUSH0 DUP1 REVERT JUMPDEST POP PUSH2 0x324 PUSH2 0xBE6 JUMP JUMPDEST PUSH1 0x40 MLOAD PUSH2 0x331 SWAP2 SWAP1 PUSH2 0x11A2 JUMP JUMPDEST PUSH1 0x40 MLOAD DUP1 SWAP2 SUB SWAP1 RETURN JUMPDEST CALLVALUE DUP1 ISZERO PUSH2 0x345 JUMPI PUSH0 DUP1 REVERT JUMPDEST POP PUSH2 0x360 PUSH1 0x4 DUP1 CALLDATASIZE SUB DUP2 ADD SWAP1 PUSH2 0x35B SWAP2 SWAP1 PUSH2 0x110A JUMP JUMPDEST PUSH2 0xC3B JUMP JUMPDEST PUSH1 0x40 MLOAD PUSH2 0x36D SWAP2 SWAP1 PUSH2 0x102B JUMP JUMPDEST PUSH1 0x40 MLOAD DUP1 SWAP2 SUB SWAP1 RETURN JUMPDEST PUSH2 0x390 PUSH1 0x4 DUP1 CALLDATASIZE SUB DUP2 ADD SWAP1 PUSH2 0x38B SWAP2 SWAP1 PUSH2 0x110A JUMP JUMPDEST PUSH2 0xCE0 JUMP JUMPDEST STOP JUMPDEST CALLVALUE DUP1 ISZERO PUSH2 0x39D JUMPI PUSH0 DUP1 REVERT JUMPDEST POP PUSH2 0x3B8 PUSH1 0x4 DUP1 CALLDATASIZE SUB DUP2 ADD SWAP1 PUSH2 0x3B3 SWAP2 SWAP1 PUSH2 0x110A JUMP JUMPDEST PUSH2 0xE29 JUMP JUMPDEST STOP JUMPDEST PUSH0 SELFBALANCE SWAP1 POP SWAP1 JUMP JUMPDEST PUSH0 PUSH2 0x3CF DUP4 DUP4 PUSH1 0xA SLOAD PUSH2 0xE45 JUMP JUMPDEST SWAP1 POP SWAP3 SWAP2 POP POP JUMP JUMPDEST PUSH0 PUSH2 0x427 PUSH1 0x7 PUSH0 DUP5 PUSH20 0xFFFFFFFFFFFFFFFFFFFFFFFFFFFFFFFFFFFFFFFF AND PUSH20 0xFFFFFFFFFFFFFFFFFFFFFFFFFFFFFFFFFFFFFFFF AND DUP2 MSTORE PUSH1 0x20 ADD SWAP1 DUP2 MSTORE PUSH1 0x20 ADD PUSH0 KECCAK256 SLOAD PUSH2 0x422 DUP5 PUSH2 0xC3B JUMP JUMPDEST PUSH2 0xE97 JUMP JUMPDEST SWAP1 POP SWAP2 SWAP1 POP JUMP JUMPDEST PUSH1 0x5 PUSH0 SWAP1 SLOAD SWAP1 PUSH2 0x100 EXP SWAP1 DIV PUSH1 0xFF AND PUSH2 0x445 JUMPI PUSH0 DUP1 REVERT JUMPDEST PUSH0 PUSH2 0x44F CALLER PUSH2 0x3D7 JUMP JUMPDEST SWAP1 POP PUSH0 PUSH2 0x45B DUP3 PUSH2 0xBD1 JUMP JUMPDEST SWAP1 POP PUSH0 PUSH2 0x467 DUP3 PUSH2 0xEAC JUMP JUMPDEST SWAP1 POP PUSH0 PUSH1 0x7 PUSH0 CALLER PUSH20 0xFFFFFFFFFFFFFFFFFFFFFFFFFFFFFFFFFFFFFFFF AND PUSH20 0xFFFFFFFFFFFFFFFFFFFFFFFFFFFFFFFFFFFFFFFF AND DUP2 MSTORE PUSH1 0x20 ADD SWAP1 DUP2 MSTORE PUSH1 0x20 ADD PUSH0 KECCAK256 DUP2 SWAP1 SSTORE POP TIMESTAMP PUSH1 0x8 PUSH0 CALLER PUSH20 0xFFFFFFFFFFFFFFFFFFFFFFFFFFFFFFFFFFFFFFFF AND PUSH20 0xFFFFFFFFFFFFFFFFFFFFFFFFFFFFFFFFFFFFFFFF AND DUP2 MSTORE PUSH1 0x20 ADD SWAP1 DUP2 MSTORE PUSH1 0x20 ADD PUSH0 KECCAK256 DUP2 SWAP1 SSTORE POP PUSH2 0x4F9 PUSH1 0xA SLOAD DUP5 PUSH2 0xE97 JUMP JUMPDEST PUSH1 0xA DUP2 SWAP1 SSTORE POP PUSH1 0x5 PUSH1 0x1 SWAP1 SLOAD SWAP1 PUSH2 0x100 EXP SWAP1 DIV PUSH20 0xFFFFFFFFFFFFFFFFFFFFFFFFFFFFFFFFFFFFFFFF AND PUSH20 0xFFFFFFFFFFFFFFFFFFFFFFFFFFFFFFFFFFFFFFFF AND PUSH2 0x8FC DUP3 SWAP1 DUP2 ISZERO MUL SWAP1 PUSH1 0x40 MLOAD PUSH0 PUSH1 0x40 MLOAD DUP1 DUP4 SUB DUP2 DUP6 DUP9 DUP9 CALL SWAP4 POP POP POP POP ISZERO DUP1 ISZERO PUSH2 0x564 JUMPI RETURNDATASIZE PUSH0 DUP1 RETURNDATACOPY RETURNDATASIZE PUSH0 REVERT JUMPDEST POP CALLER PUSH20 0xFFFFFFFFFFFFFFFFFFFFFFFFFFFFFFFFFFFFFFFF AND PUSH2 0x8FC PUSH2 0x589 DUP5 DUP5 PUSH2 0xECA JUMP JUMPDEST SWAP1 DUP2 ISZERO MUL SWAP1 PUSH1 0x40 MLOAD PUSH0 PUSH1 0x40 MLOAD DUP1 DUP4 SUB DUP2 DUP6 DUP9 DUP9 CALL SWAP4 POP POP POP POP ISZERO DUP1 ISZERO PUSH2 0x5B1 JUMPI RETURNDATASIZE PUSH0 DUP1 RETURNDATACOPY RETURNDATASIZE PUSH0 REVERT JUMPDEST POP POP POP POP JUMP JUMPDEST PUSH2 0x5BF PUSH2 0xBE6 JUMP JUMPDEST PUSH2 0x5C7 JUMPI PUSH0 DUP1 REVERT JUMPDEST PUSH0 PUSH1 0xA SLOAD EQ PUSH2 0x5D4 JUMPI PUSH0 DUP1 REVERT JUMPDEST PUSH1 0x1 PUSH1 0x5 PUSH0 PUSH2 0x100 EXP DUP2 SLOAD DUP2 PUSH1 0xFF MUL NOT AND SWAP1 DUP4 ISZERO ISZERO MUL OR SWAP1 SSTORE POP PUSH5 0x19254D3800 PUSH1 0xA DUP2 SWAP1 SSTORE POP JUMP JUMPDEST PUSH1 0x5 PUSH0 SWAP1 SLOAD SWAP1 PUSH2 0x100 EXP SWAP1 DIV PUSH1 0xFF AND PUSH2 0x613 JUMPI PUSH0 DUP1 REVERT JUMPDEST CALLER PUSH20 0xFFFFFFFFFFFFFFFFFFFFFFFFFFFFFFFFFFFFFFFF AND DUP2 PUSH20 0xFFFFFFFFFFFFFFFFFFFFFFFFFFFFFFFFFFFFFFFF AND SUB PUSH2 0x64A JUMPI PUSH0 SWAP1 POP JUMPDEST PUSH0 PUSH20 0xFFFFFFFFFFFFFFFFFFFFFFFFFFFFFFFFFFFFFFFF AND PUSH1 0x9 PUSH0 CALLER PUSH20 0xFFFFFFFFFFFFFFFFFFFFFFFFFFFFFFFFFFFFFFFF AND PUSH20 0xFFFFFFFFFFFFFFFFFFFFFFFFFFFFFFFFFFFFFFFF AND DUP2 MSTORE PUSH1 0x20 ADD SWAP1 DUP2 MSTORE PUSH1 0x20 ADD PUSH0 KECCAK256 PUSH0 SWAP1 SLOAD SWAP1 PUSH2 0x100 EXP SWAP1 DIV PUSH20 0xFFFFFFFFFFFFFFFFFFFFFFFFFFFFFFFFFFFFFFFF AND PUSH20 0xFFFFFFFFFFFFFFFFFFFFFFFFFFFFFFFFFFFFFFFF AND EQ DUP1 ISZERO PUSH2 0x769 JUMPI POP CALLER PUSH20 0xFFFFFFFFFFFFFFFFFFFFFFFFFFFFFFFFFFFFFFFF AND PUSH1 0x9 PUSH0 CALLER PUSH20 0xFFFFFFFFFFFFFFFFFFFFFFFFFFFFFFFFFFFFFFFF AND PUSH20 0xFFFFFFFFFFFFFFFFFFFFFFFFFFFFFFFFFFFFFFFF AND DUP2 MSTORE PUSH1 0x20 ADD SWAP1 DUP2 MSTORE PUSH1 0x20 ADD PUSH0 KECCAK256 PUSH0 SWAP1 SLOAD SWAP1 PUSH2 0x100 EXP SWAP1 DIV PUSH20 0xFFFFFFFFFFFFFFFFFFFFFFFFFFFFFFFFFFFFFFFF AND PUSH20 0xFFFFFFFFFFFFFFFFFFFFFFFFFFFFFFFFFFFFFFFF AND EQ ISZERO JUMPDEST ISZERO PUSH2 0x7EA JUMPI DUP1 PUSH1 0x9 PUSH0 CALLER PUSH20 0xFFFFFFFFFFFFFFFFFFFFFFFFFFFFFFFFFFFFFFFF AND PUSH20 0xFFFFFFFFFFFFFFFFFFFFFFFFFFFFFFFFFFFFFFFF AND DUP2 MSTORE PUSH1 0x20 ADD SWAP1 DUP2 MSTORE PUSH1 0x20 ADD PUSH0 KECCAK256 PUSH0 PUSH2 0x100 EXP DUP2 SLOAD DUP2 PUSH20 0xFFFFFFFFFFFFFFFFFFFFFFFFFFFFFFFFFFFFFFFF MUL NOT AND SWAP1 DUP4 PUSH20 0xFFFFFFFFFFFFFFFFFFFFFFFFFFFFFFFFFFFFFFFF AND MUL OR SWAP1 SSTORE POP JUMPDEST PUSH0 PUSH2 0x7F4 CALLER PUSH2 0x3D7 JUMP JUMPDEST SWAP1 POP PUSH0 PUSH2 0x803 DUP3 PUSH1 0x1 SLOAD PUSH2 0xEDF JUMP JUMPDEST SWAP1 POP PUSH2 0x84C PUSH1 0x6 PUSH0 CALLER PUSH20 0xFFFFFFFFFFFFFFFFFFFFFFFFFFFFFFFFFFFFFFFF AND PUSH20 0xFFFFFFFFFFFFFFFFFFFFFFFFFFFFFFFFFFFFFFFF AND DUP2 MSTORE PUSH1 0x20 ADD SWAP1 DUP2 MSTORE PUSH1 0x20 ADD PUSH0 KECCAK256 SLOAD DUP3 PUSH2 0xE97 JUMP JUMPDEST PUSH1 0x6 PUSH0 CALLER PUSH20 0xFFFFFFFFFFFFFFFFFFFFFFFFFFFFFFFFFFFFFFFF AND PUSH20 0xFFFFFFFFFFFFFFFFFFFFFFFFFFFFFFFFFFFFFFFF AND DUP2 MSTORE PUSH1 0x20 ADD SWAP1 DUP2 MSTORE PUSH1 0x20 ADD PUSH0 KECCAK256 DUP2 SWAP1 SSTORE POP PUSH0 PUSH1 0x7 PUSH0 CALLER PUSH20 0xFFFFFFFFFFFFFFFFFFFFFFFFFFFFFFFFFFFFFFFF AND PUSH20 0xFFFFFFFFFFFFFFFFFFFFFFFFFFFFFFFFFFFFFFFF AND DUP2 MSTORE PUSH1 0x20 ADD SWAP1 DUP2 MSTORE PUSH1 0x20 ADD PUSH0 KECCAK256 DUP2 SWAP1 SSTORE POP TIMESTAMP PUSH1 0x8 PUSH0 CALLER PUSH20 0xFFFFFFFFFFFFFFFFFFFFFFFFFFFFFFFFFFFFFFFF AND PUSH20 0xFFFFFFFFFFFFFFFFFFFFFFFFFFFFFFFFFFFFFFFF AND DUP2 MSTORE PUSH1 0x20 ADD SWAP1 DUP2 MSTORE PUSH1 0x20 ADD PUSH0 KECCAK256 DUP2 SWAP1 SSTORE POP PUSH2 0x9BE PUSH1 0x7 PUSH0 PUSH1 0x9 PUSH0 CALLER PUSH20 0xFFFFFFFFFFFFFFFFFFFFFFFFFFFFFFFFFFFFFFFF AND PUSH20 0xFFFFFFFFFFFFFFFFFFFFFFFFFFFFFFFFFFFFFFFF AND DUP2 MSTORE PUSH1 0x20 ADD SWAP1 DUP2 MSTORE PUSH1 0x20 ADD PUSH0 KECCAK256 PUSH0 SWAP1 SLOAD SWAP1 PUSH2 0x100 EXP SWAP1 DIV PUSH20 0xFFFFFFFFFFFFFFFFFFFFFFFFFFFFFFFFFFFFFFFF AND PUSH20 0xFFFFFFFFFFFFFFFFFFFFFFFFFFFFFFFFFFFFFFFF AND PUSH20 0xFFFFFFFFFFFFFFFFFFFFFFFFFFFFFFFFFFFFFFFF AND DUP2 MSTORE PUSH1 0x20 ADD SWAP1 DUP2 MSTORE PUSH1 0x20 ADD PUSH0 KECCAK256 SLOAD PUSH2 0x9B9 DUP5 PUSH1 0x8 PUSH2 0xEDF JUMP JUMPDEST PUSH2 0xE97 JUMP JUMPDEST PUSH1 0x7 PUSH0 PUSH1 0x9 PUSH0 CALLER PUSH20 0xFFFFFFFFFFFFFFFFFFFFFFFFFFFFFFFFFFFFFFFF AND PUSH20 0xFFFFFFFFFFFFFFFFFFFFFFFFFFFFFFFFFFFFFFFF AND DUP2 MSTORE PUSH1 0x20 ADD SWAP1 DUP2 MSTORE PUSH1 0x20 ADD PUSH0 KECCAK256 PUSH0 SWAP1 SLOAD SWAP1 PUSH2 0x100 EXP SWAP1 DIV PUSH20 0xFFFFFFFFFFFFFFFFFFFFFFFFFFFFFFFFFFFFFFFF AND PUSH20 0xFFFFFFFFFFFFFFFFFFFFFFFFFFFFFFFFFFFFFFFF AND PUSH20 0xFFFFFFFFFFFFFFFFFFFFFFFFFFFFFFFFFFFFFFFF AND DUP2 MSTORE PUSH1 0x20 ADD SWAP1 DUP2 MSTORE PUSH1 0x20 ADD PUSH0 KECCAK256 DUP2 SWAP1 SSTORE POP PUSH2 0xA71 PUSH1 0xA SLOAD PUSH2 0xA6C DUP5 PUSH1 0x5 PUSH2 0xEDF JUMP JUMPDEST PUSH2 0xE97 JUMP JUMPDEST PUSH1 0xA DUP2 SWAP1 SSTORE POP POP POP POP JUMP JUMPDEST PUSH0 DUP1 PUSH2 0xA87 DUP4 PUSH2 0x3D7 JUMP JUMPDEST SWAP1 POP PUSH0 PUSH2 0xA93 DUP3 PUSH2 0xBD1 JUMP JUMPDEST SWAP1 POP DUP1 SWAP3 POP POP POP SWAP2 SWAP1 POP JUMP JUMPDEST PUSH0 PUSH1 0x6 PUSH0 DUP4 PUSH20 0xFFFFFFFFFFFFFFFFFFFFFFFFFFFFFFFFFFFFFFFF AND PUSH20 0xFFFFFFFFFFFFFFFFFFFFFFFFFFFFFFFFFFFFFFFF AND DUP2 MSTORE PUSH1 0x20 ADD SWAP1 DUP2 MSTORE PUSH1 0x20 ADD PUSH0 KECCAK256 SLOAD SWAP1 POP SWAP2 SWAP1 POP JUMP JUMPDEST PUSH2 0xAED PUSH2 0xBE6 JUMP JUMPDEST PUSH2 0xAF5 JUMPI PUSH0 DUP1 REVERT JUMPDEST PUSH0 DUP1 SLOAD SWAP1 PUSH2 0x100 EXP SWAP1 DIV PUSH20 0xFFFFFFFFFFFFFFFFFFFFFFFFFFFFFFFFFFFFFFFF AND PUSH20 0xFFFFFFFFFFFFFFFFFFFFFFFFFFFFFFFFFFFFFFFF AND PUSH32 0xF8DF31144D9C2F0F6B59D69B8B98ABD5459D07F2742C4DF920B25AAE33C64820 PUSH1 0x40 MLOAD PUSH1 0x40 MLOAD DUP1 SWAP2 SUB SWAP1 LOG2 PUSH0 DUP1 PUSH0 PUSH2 0x100 EXP DUP2 SLOAD DUP2 PUSH20 0xFFFFFFFFFFFFFFFFFFFFFFFFFFFFFFFFFFFFFFFF MUL NOT AND SWAP1 DUP4 PUSH20 0xFFFFFFFFFFFFFFFFFFFFFFFFFFFFFFFFFFFFFFFF AND MUL OR SWAP1 SSTORE POP JUMP JUMPDEST PUSH0 PUSH2 0xBA3 DUP3 SELFBALANCE PUSH2 0x3C1 JUMP JUMPDEST SWAP1 POP SWAP2 SWAP1 POP JUMP JUMPDEST PUSH0 DUP1 PUSH0 SWAP1 SLOAD SWAP1 PUSH2 0x100 EXP SWAP1 DIV PUSH20 0xFFFFFFFFFFFFFFFFFFFFFFFFFFFFFFFFFFFFFFFF AND SWAP1 POP SWAP1 JUMP JUMPDEST PUSH0 PUSH2 0xBDF DUP3 PUSH1 0xA SLOAD SELFBALANCE PUSH2 0xE45 JUMP JUMPDEST SWAP1 POP SWAP2 SWAP1 POP JUMP JUMPDEST PUSH0 DUP1 PUSH0 SWAP1 SLOAD SWAP1 PUSH2 0x100 EXP SWAP1 DIV PUSH20 0xFFFFFFFFFFFFFFFFFFFFFFFFFFFFFFFFFFFFFFFF AND PUSH20 0xFFFFFFFFFFFFFFFFFFFFFFFFFFFFFFFFFFFFFFFF AND CALLER PUSH20 0xFFFFFFFFFFFFFFFFFFFFFFFFFFFFFFFFFFFFFFFF AND EQ SWAP1 POP SWAP1 JUMP JUMPDEST PUSH0 DUP1 PUSH2 0xC8F PUSH1 0x1 SLOAD PUSH2 0xC8A TIMESTAMP PUSH1 0x8 PUSH0 DUP9 PUSH20 0xFFFFFFFFFFFFFFFFFFFFFFFFFFFFFFFFFFFFFFFF AND PUSH20 0xFFFFFFFFFFFFFFFFFFFFFFFFFFFFFFFFFFFFFFFF AND DUP2 MSTORE PUSH1 0x20 ADD SWAP1 DUP2 MSTORE PUSH1 0x20 ADD PUSH0 KECCAK256 SLOAD PUSH2 0xECA JUMP JUMPDEST PUSH2 0xEF4 JUMP JUMPDEST SWAP1 POP PUSH2 0xCD8 DUP2 PUSH1 0x6 PUSH0 DUP7 PUSH20 0xFFFFFFFFFFFFFFFFFFFFFFFFFFFFFFFFFFFFFFFF AND PUSH20 0xFFFFFFFFFFFFFFFFFFFFFFFFFFFFFFFFFFFFFFFF AND DUP2 MSTORE PUSH1 0x20 ADD SWAP1 DUP2 MSTORE PUSH1 0x20 ADD PUSH0 KECCAK256 SLOAD PUSH2 0xF0C JUMP JUMPDEST SWAP2 POP POP SWAP2 SWAP1 POP JUMP JUMPDEST PUSH1 0x5 PUSH0 SWAP1 SLOAD SWAP1 PUSH2 0x100 EXP SWAP1 DIV PUSH1 0xFF AND PUSH2 0xCF7 JUMPI PUSH0 DUP1 REVERT JUMPDEST PUSH0 PUSH2 0xD0B CALLVALUE PUSH2 0xD06 SELFBALANCE CALLVALUE PUSH2 0xECA JUMP JUMPDEST PUSH2 0x3C1 JUMP JUMPDEST SWAP1 POP PUSH2 0xD1F DUP2 PUSH2 0xD1A DUP4 PUSH2 0xEAC JUMP JUMPDEST PUSH2 0xECA JUMP JUMPDEST SWAP1 POP PUSH0 PUSH2 0xD2B CALLVALUE PUSH2 0xEAC JUMP JUMPDEST SWAP1 POP PUSH1 0x5 PUSH1 0x1 SWAP1 SLOAD SWAP1 PUSH2 0x100 EXP SWAP1 DIV PUSH20 0xFFFFFFFFFFFFFFFFFFFFFFFFFFFFFFFFFFFFFFFF AND PUSH20 0xFFFFFFFFFFFFFFFFFFFFFFFFFFFFFFFFFFFFFFFF AND PUSH2 0x8FC DUP3 SWAP1 DUP2 ISZERO MUL SWAP1 PUSH1 0x40 MLOAD PUSH0 PUSH1 0x40 MLOAD DUP1 DUP4 SUB DUP2 DUP6 DUP9 DUP9 CALL SWAP4 POP POP POP POP ISZERO DUP1 ISZERO PUSH2 0xD92 JUMPI RETURNDATASIZE PUSH0 DUP1 RETURNDATACOPY RETURNDATASIZE PUSH0 REVERT JUMPDEST POP PUSH2 0xDDA PUSH1 0x7 PUSH0 CALLER PUSH20 0xFFFFFFFFFFFFFFFFFFFFFFFFFFFFFFFFFFFFFFFF AND PUSH20 0xFFFFFFFFFFFFFFFFFFFFFFFFFFFFFFFFFFFFFFFF AND DUP2 MSTORE PUSH1 0x20 ADD SWAP1 DUP2 MSTORE PUSH1 0x20 ADD PUSH0 KECCAK256 SLOAD DUP4 PUSH2 0xE97 JUMP JUMPDEST PUSH1 0x7 PUSH0 CALLER PUSH20 0xFFFFFFFFFFFFFFFFFFFFFFFFFFFFFFFFFFFFFFFF AND PUSH20 0xFFFFFFFFFFFFFFFFFFFFFFFFFFFFFFFFFFFFFFFF AND DUP2 MSTORE PUSH1 0x20 ADD SWAP1 DUP2 MSTORE PUSH1 0x20 ADD PUSH0 KECCAK256 DUP2 SWAP1 SSTORE POP PUSH2 0xE24 DUP4 PUSH2 0x5FC JUMP JUMPDEST POP POP POP JUMP JUMPDEST PUSH2 0xE31 PUSH2 0xBE6 JUMP JUMPDEST PUSH2 0xE39 JUMPI PUSH0 DUP1 REVERT JUMPDEST PUSH2 0xE42 DUP2 PUSH2 0xF21 JUMP JUMPDEST POP JUMP JUMPDEST PUSH0 PUSH2 0xE8E PUSH2 0xE55 PUSH1 0x2 SLOAD DUP5 PUSH2 0xF0C JUMP JUMPDEST PUSH2 0xE89 PUSH1 0x3 SLOAD PUSH2 0xE84 PUSH2 0xE7E PUSH2 0xE6D PUSH1 0x2 SLOAD DUP11 PUSH2 0xF0C JUMP JUMPDEST PUSH2 0xE79 PUSH1 0x3 SLOAD DUP13 PUSH2 0xF0C JUMP JUMPDEST PUSH2 0xE97 JUMP JUMPDEST DUP10 PUSH2 0xEDF JUMP JUMPDEST PUSH2 0xE97 JUMP JUMPDEST PUSH2 0xEDF JUMP JUMPDEST SWAP1 POP SWAP4 SWAP3 POP POP POP JUMP JUMPDEST PUSH0 DUP2 DUP4 PUSH2 0xEA4 SWAP2 SWAP1 PUSH2 0x11E8 JUMP JUMPDEST SWAP1 POP SWAP3 SWAP2 POP POP JUMP JUMPDEST PUSH0 PUSH2 0xEC3 PUSH2 0xEBC DUP4 PUSH1 0x4 SLOAD PUSH2 0xF0C JUMP JUMPDEST PUSH1 0x64 PUSH2 0xEDF JUMP JUMPDEST SWAP1 POP SWAP2 SWAP1 POP JUMP JUMPDEST PUSH0 DUP2 DUP4 PUSH2 0xED7 SWAP2 SWAP1 PUSH2 0x121B JUMP JUMPDEST SWAP1 POP SWAP3 SWAP2 POP POP JUMP JUMPDEST PUSH0 DUP2 DUP4 PUSH2 0xEEC SWAP2 SWAP1 PUSH2 0x127B JUMP JUMPDEST SWAP1 POP SWAP3 SWAP2 POP POP JUMP JUMPDEST PUSH0 DUP2 DUP4 LT PUSH2 0xF02 JUMPI DUP2 PUSH2 0xF04 JUMP JUMPDEST DUP3 JUMPDEST SWAP1 POP SWAP3 SWAP2 POP POP JUMP JUMPDEST PUSH0 DUP2 DUP4 PUSH2 0xF19 SWAP2 SWAP1 PUSH2 0x12AB JUMP JUMPDEST SWAP1 POP SWAP3 SWAP2 POP POP JUMP JUMPDEST PUSH0 PUSH20 0xFFFFFFFFFFFFFFFFFFFFFFFFFFFFFFFFFFFFFFFF AND DUP2 PUSH20 0xFFFFFFFFFFFFFFFFFFFFFFFFFFFFFFFFFFFFFFFF AND SUB PUSH2 0xF58 JUMPI PUSH0 DUP1 REVERT JUMPDEST DUP1 PUSH20 0xFFFFFFFFFFFFFFFFFFFFFFFFFFFFFFFFFFFFFFFF AND PUSH0 DUP1 SLOAD SWAP1 PUSH2 0x100 EXP SWAP1 DIV PUSH20 0xFFFFFFFFFFFFFFFFFFFFFFFFFFFFFFFFFFFFFFFF AND PUSH20 0xFFFFFFFFFFFFFFFFFFFFFFFFFFFFFFFFFFFFFFFF AND PUSH32 0x8BE0079C531659141344CD1FD0A4F28419497F9722A3DAAFE3B4186F6B6457E0 PUSH1 0x40 MLOAD PUSH1 0x40 MLOAD DUP1 SWAP2 SUB SWAP1 LOG3 DUP1 PUSH0 DUP1 PUSH2 0x100 EXP DUP2 SLOAD DUP2 PUSH20 0xFFFFFFFFFFFFFFFFFFFFFFFFFFFFFFFFFFFFFFFF MUL NOT AND SWAP1 DUP4 PUSH20 0xFFFFFFFFFFFFFFFFFFFFFFFFFFFFFFFFFFFFFFFF AND MUL OR SWAP1 SSTORE POP POP JUMP JUMPDEST PUSH0 DUP2 SWAP1 POP SWAP2 SWAP1 POP JUMP JUMPDEST PUSH2 0x1025 DUP2 PUSH2 0x1013 JUMP JUMPDEST DUP3 MSTORE POP POP JUMP JUMPDEST PUSH0 PUSH1 0x20 DUP3 ADD SWAP1 POP PUSH2 0x103E PUSH0 DUP4 ADD DUP5 PUSH2 0x101C JUMP JUMPDEST SWAP3 SWAP2 POP POP JUMP JUMPDEST PUSH0 DUP1 REVERT JUMPDEST PUSH2 0x1051 DUP2 PUSH2 0x1013 JUMP JUMPDEST DUP2 EQ PUSH2 0x105B JUMPI PUSH0 DUP1 REVERT JUMPDEST POP JUMP JUMPDEST PUSH0 DUP2 CALLDATALOAD SWAP1 POP PUSH2 0x106C DUP2 PUSH2 0x1048 JUMP JUMPDEST SWAP3 SWAP2 POP POP JUMP JUMPDEST PUSH0 DUP1 PUSH1 0x40 DUP4 DUP6 SUB SLT ISZERO PUSH2 0x1088 JUMPI PUSH2 0x1087 PUSH2 0x1044 JUMP JUMPDEST JUMPDEST PUSH0 PUSH2 0x1095 DUP6 DUP3 DUP7 ADD PUSH2 0x105E JUMP JUMPDEST SWAP3 POP POP PUSH1 0x20 PUSH2 0x10A6 DUP6 DUP3 DUP7 ADD PUSH2 0x105E JUMP JUMPDEST SWAP2 POP POP SWAP3 POP SWAP3 SWAP1 POP JUMP JUMPDEST PUSH0 PUSH20 0xFFFFFFFFFFFFFFFFFFFFFFFFFFFFFFFFFFFFFFFF DUP3 AND SWAP1 POP SWAP2 SWAP1 POP JUMP JUMPDEST PUSH0 PUSH2 0x10D9 DUP3 PUSH2 0x10B0 JUMP JUMPDEST SWAP1 POP SWAP2 SWAP1 POP JUMP JUMPDEST PUSH2 0x10E9 DUP2 PUSH2 0x10CF JUMP JUMPDEST DUP2 EQ PUSH2 0x10F3 JUMPI PUSH0 DUP1 REVERT JUMPDEST POP JUMP JUMPDEST PUSH0 DUP2 CALLDATALOAD SWAP1 POP PUSH2 0x1104 DUP2 PUSH2 0x10E0 JUMP JUMPDEST SWAP3 SWAP2 POP POP JUMP JUMPDEST PUSH0 PUSH1 0x20 DUP3 DUP5 SUB SLT ISZERO PUSH2 0x111F JUMPI PUSH2 0x111E PUSH2 0x1044 JUMP JUMPDEST JUMPDEST PUSH0 PUSH2 0x112C DUP5 DUP3 DUP6 ADD PUSH2 0x10F6 JUMP JUMPDEST SWAP2 POP POP SWAP3 SWAP2 POP POP JUMP JUMPDEST PUSH0 PUSH1 0x20 DUP3 DUP5 SUB SLT ISZERO PUSH2 0x114A JUMPI PUSH2 0x1149 PUSH2 0x1044 JUMP JUMPDEST JUMPDEST PUSH0 PUSH2 0x1157 DUP5 DUP3 DUP6 ADD PUSH2 0x105E JUMP JUMPDEST SWAP2 POP POP SWAP3 SWAP2 POP POP JUMP JUMPDEST PUSH2 0x1169 DUP2 PUSH2 0x10CF JUMP JUMPDEST DUP3 MSTORE POP POP JUMP JUMPDEST PUSH0 PUSH1 0x20 DUP3 ADD SWAP1 POP PUSH2 0x1182 PUSH0 DUP4 ADD DUP5 PUSH2 0x1160 JUMP JUMPDEST SWAP3 SWAP2 POP POP JUMP JUMPDEST PUSH0 DUP2 ISZERO ISZERO SWAP1 POP SWAP2 SWAP1 POP JUMP JUMPDEST PUSH2 0x119C DUP2 PUSH2 0x1188 JUMP JUMPDEST DUP3 MSTORE POP POP JUMP JUMPDEST PUSH0 PUSH1 0x20 DUP3 ADD SWAP1 POP PUSH2 0x11B5 PUSH0 DUP4 ADD DUP5 PUSH2 0x1193 JUMP JUMPDEST SWAP3 SWAP2 POP POP JUMP JUMPDEST PUSH32 0x4E487B7100000000000000000000000000000000000000000000000000000000 PUSH0 MSTORE PUSH1 0x11 PUSH1 0x4 MSTORE PUSH1 0x24 PUSH0 REVERT JUMPDEST PUSH0 PUSH2 0x11F2 DUP3 PUSH2 0x1013 JUMP JUMPDEST SWAP2 POP PUSH2 0x11FD DUP4 PUSH2 0x1013 JUMP JUMPDEST SWAP3 POP DUP3 DUP3 ADD SWAP1 POP DUP1 DUP3 GT ISZERO PUSH2 0x1215 JUMPI PUSH2 0x1214 PUSH2 0x11BB JUMP JUMPDEST JUMPDEST SWAP3 SWAP2 POP POP JUMP JUMPDEST PUSH0 PUSH2 0x1225 DUP3 PUSH2 0x1013 JUMP JUMPDEST SWAP2 POP PUSH2 0x1230 DUP4 PUSH2 0x1013 JUMP JUMPDEST SWAP3 POP DUP3 DUP3 SUB SWAP1 POP DUP2 DUP2 GT ISZERO PUSH2 0x1248 JUMPI PUSH2 0x1247 PUSH2 0x11BB JUMP JUMPDEST JUMPDEST SWAP3 SWAP2 POP POP JUMP JUMPDEST PUSH32 0x4E487B7100000000000000000000000000000000000000000000000000000000 PUSH0 MSTORE PUSH1 0x12 PUSH1 0x4 MSTORE PUSH1 0x24 PUSH0 REVERT JUMPDEST PUSH0 PUSH2 0x1285 DUP3 PUSH2 0x1013 JUMP JUMPDEST SWAP2 POP PUSH2 0x1290 DUP4 PUSH2 0x1013 JUMP JUMPDEST SWAP3 POP DUP3 PUSH2 0x12A0 JUMPI PUSH2 0x129F PUSH2 0x124E JUMP JUMPDEST JUMPDEST DUP3 DUP3 DIV SWAP1 POP SWAP3 SWAP2 POP POP JUMP JUMPDEST PUSH0 PUSH2 0x12B5 DUP3 PUSH2 0x1013 JUMP JUMPDEST SWAP2 POP PUSH2 0x12C0 DUP4 PUSH2 0x1013 JUMP JUMPDEST SWAP3 POP DUP3 DUP3 MUL PUSH2 0x12CE DUP2 PUSH2 0x1013 JUMP JUMPDEST SWAP2 POP DUP3 DUP3 DIV DUP5 EQ DUP4 ISZERO OR PUSH2 0x12E5 JUMPI PUSH2 0x12E4 PUSH2 0x11BB JUMP JUMPDEST JUMPDEST POP SWAP3 SWAP2 POP POP JUMP INVALID LOG2 PUSH5 0x6970667358 0x22 SLT KECCAK256 BLOBHASH GASLIMIT 0xE8 0xF7 0xC5 0xC0 0xE5 PUSH26 0xB57BD6CB0F9BA3150E31D0E2C941C39704316CD66AF569E86473 PUSH16 0x6C634300081800330000000000000000 "
				},
				"gasEstimates": {
					"creation": {
						"codeDepositCost": "979600",
						"executionCost": "162289",
						"totalCost": "1141889"
					},
					"external": {
						"buyEggs(address)": "infinite",
						"calculateEggBuy(uint256,uint256)": "infinite",
						"calculateEggBuySimple(uint256)": "infinite",
						"calculateEggSell(uint256)": "infinite",
						"furnaceRewards(address)": "infinite",
						"getBalance()": "358",
						"getEggsSinceLastHatch(address)": "infinite",
						"getMyEggs(address)": "infinite",
						"getMyMiners(address)": "2918",
						"hatchEggs(address)": "infinite",
						"isOwner()": "2512",
						"owner()": "2582",
						"renounceOwnership()": "29927",
						"seedMarket()": "50847",
						"sellEggs()": "infinite",
						"transferOwnership(address)": "30746"
					},
					"internal": {
						"calculateTrade(uint256,uint256,uint256)": "infinite",
						"devFee(uint256)": "infinite",
						"min(uint256,uint256)": "63"
					}
				},
				"methodIdentifiers": {
					"buyEggs(address)": "db663865",
					"calculateEggBuy(uint256,uint256)": "26fd8422",
					"calculateEggBuySimple(uint256)": "7e56fde5",
					"calculateEggSell(uint256)": "8e316327",
					"furnaceRewards(address)": "450c9d7d",
					"getBalance()": "12065fe0",
					"getEggsSinceLastHatch(address)": "d7c8843b",
					"getMyEggs(address)": "2ef6a743",
					"getMyMiners(address)": "4b634b06",
					"hatchEggs(address)": "3ec862a8",
					"isOwner()": "8f32d59b",
					"owner()": "8da5cb5b",
					"renounceOwnership()": "715018a6",
					"seedMarket()": "3c5f07cb",
					"sellEggs()": "3955f0fe",
					"transferOwnership(address)": "f2fde38b"
				}
			},
			"storageLayout": {
				"storage": [
					{
						"astId": 313,
						"contract": "contracts/BlastFurnace_flattened.sol:BlastFurnace",
						"label": "_owner",
						"offset": 0,
						"slot": "0",
						"type": "t_address"
					},
					{
						"astId": 445,
						"contract": "contracts/BlastFurnace_flattened.sol:BlastFurnace",
						"label": "EGGS_TO_HATCH_1MINERS",
						"offset": 0,
						"slot": "1",
						"type": "t_uint256"
					},
					{
						"astId": 448,
						"contract": "contracts/BlastFurnace_flattened.sol:BlastFurnace",
						"label": "PSN",
						"offset": 0,
						"slot": "2",
						"type": "t_uint256"
					},
					{
						"astId": 451,
						"contract": "contracts/BlastFurnace_flattened.sol:BlastFurnace",
						"label": "PSNH",
						"offset": 0,
						"slot": "3",
						"type": "t_uint256"
					},
					{
						"astId": 454,
						"contract": "contracts/BlastFurnace_flattened.sol:BlastFurnace",
						"label": "devFeeVal",
						"offset": 0,
						"slot": "4",
						"type": "t_uint256"
					},
					{
						"astId": 457,
						"contract": "contracts/BlastFurnace_flattened.sol:BlastFurnace",
						"label": "initialized",
						"offset": 0,
						"slot": "5",
						"type": "t_bool"
					},
					{
						"astId": 459,
						"contract": "contracts/BlastFurnace_flattened.sol:BlastFurnace",
						"label": "recAdd",
						"offset": 1,
						"slot": "5",
						"type": "t_address_payable"
					},
					{
						"astId": 463,
						"contract": "contracts/BlastFurnace_flattened.sol:BlastFurnace",
						"label": "hatcheryMiners",
						"offset": 0,
						"slot": "6",
						"type": "t_mapping(t_address,t_uint256)"
					},
					{
						"astId": 467,
						"contract": "contracts/BlastFurnace_flattened.sol:BlastFurnace",
						"label": "claimedEggs",
						"offset": 0,
						"slot": "7",
						"type": "t_mapping(t_address,t_uint256)"
					},
					{
						"astId": 471,
						"contract": "contracts/BlastFurnace_flattened.sol:BlastFurnace",
						"label": "lastHatch",
						"offset": 0,
						"slot": "8",
						"type": "t_mapping(t_address,t_uint256)"
					},
					{
						"astId": 475,
						"contract": "contracts/BlastFurnace_flattened.sol:BlastFurnace",
						"label": "referrals",
						"offset": 0,
						"slot": "9",
						"type": "t_mapping(t_address,t_address)"
					},
					{
						"astId": 477,
						"contract": "contracts/BlastFurnace_flattened.sol:BlastFurnace",
						"label": "marketEggs",
						"offset": 0,
						"slot": "10",
						"type": "t_uint256"
					}
				],
				"types": {
					"t_address": {
						"encoding": "inplace",
						"label": "address",
						"numberOfBytes": "20"
					},
					"t_address_payable": {
						"encoding": "inplace",
						"label": "address payable",
						"numberOfBytes": "20"
					},
					"t_bool": {
						"encoding": "inplace",
						"label": "bool",
						"numberOfBytes": "1"
					},
					"t_mapping(t_address,t_address)": {
						"encoding": "mapping",
						"key": "t_address",
						"label": "mapping(address => address)",
						"numberOfBytes": "32",
						"value": "t_address"
					},
					"t_mapping(t_address,t_uint256)": {
						"encoding": "mapping",
						"key": "t_address",
						"label": "mapping(address => uint256)",
						"numberOfBytes": "32",
						"value": "t_uint256"
					},
					"t_uint256": {
						"encoding": "inplace",
						"label": "uint256",
						"numberOfBytes": "32"
					}
				}
			},
			"userdoc": {
				"kind": "user",
				"methods": {},
				"version": 1
			}
		}
	}
}