{
	"contracts/BlastFurnace.sol": {
		"BlastFurnace": {
			"abi": [
				{
					"inputs": [],
					"stateMutability": "nonpayable",
					"type": "constructor"
				},
				{
					"anonymous": false,
					"inputs": [
						{
							"indexed": false,
							"internalType": "address",
							"name": "recipient",
							"type": "address"
						},
						{
							"indexed": false,
							"internalType": "uint256",
							"name": "amount",
							"type": "uint256"
						}
					],
					"name": "NativeTransfer",
					"type": "event"
				},
				{
					"anonymous": false,
					"inputs": [
						{
							"indexed": true,
							"internalType": "address",
							"name": "previousOwner",
							"type": "address"
						}
					],
					"name": "OwnershipRenounced",
					"type": "event"
				},
				{
					"anonymous": false,
					"inputs": [
						{
							"indexed": true,
							"internalType": "address",
							"name": "previousOwner",
							"type": "address"
						},
						{
							"indexed": true,
							"internalType": "address",
							"name": "newOwner",
							"type": "address"
						}
					],
					"name": "OwnershipTransferred",
					"type": "event"
				},
				{
					"inputs": [],
					"name": "BLAST",
					"outputs": [
						{
							"internalType": "contract IBlast",
							"name": "",
							"type": "address"
						}
					],
					"stateMutability": "view",
					"type": "function"
				},
				{
					"inputs": [],
					"name": "_blastClaimInterval",
					"outputs": [
						{
							"internalType": "uint256",
							"name": "",
							"type": "uint256"
						}
					],
					"stateMutability": "view",
					"type": "function"
				},
				{
					"inputs": [
						{
							"internalType": "address",
							"name": "ref",
							"type": "address"
						}
					],
					"name": "buyOres",
					"outputs": [],
					"stateMutability": "payable",
					"type": "function"
				},
				{
					"inputs": [
						{
							"internalType": "uint256",
							"name": "eth",
							"type": "uint256"
						},
						{
							"internalType": "uint256",
							"name": "contractBalance",
							"type": "uint256"
						}
					],
					"name": "calculateOreBuy",
					"outputs": [
						{
							"internalType": "uint256",
							"name": "",
							"type": "uint256"
						}
					],
					"stateMutability": "view",
					"type": "function"
				},
				{
					"inputs": [
						{
							"internalType": "uint256",
							"name": "eth",
							"type": "uint256"
						}
					],
					"name": "calculateOreBuySimple",
					"outputs": [
						{
							"internalType": "uint256",
							"name": "",
							"type": "uint256"
						}
					],
					"stateMutability": "view",
					"type": "function"
				},
				{
					"inputs": [
						{
							"internalType": "uint256",
							"name": "ores",
							"type": "uint256"
						}
					],
					"name": "calculateOreSell",
					"outputs": [
						{
							"internalType": "uint256",
							"name": "",
							"type": "uint256"
						}
					],
					"stateMutability": "view",
					"type": "function"
				},
				{
					"inputs": [],
					"name": "claimMyGasFees",
					"outputs": [],
					"stateMutability": "nonpayable",
					"type": "function"
				},
				{
					"inputs": [
						{
							"internalType": "address",
							"name": "adr",
							"type": "address"
						}
					],
					"name": "furnaceRewards",
					"outputs": [
						{
							"internalType": "uint256",
							"name": "",
							"type": "uint256"
						}
					],
					"stateMutability": "view",
					"type": "function"
				},
				{
					"inputs": [
						{
							"internalType": "uint256",
							"name": "index",
							"type": "uint256"
						}
					],
					"name": "getAirdropQualifier",
					"outputs": [
						{
							"internalType": "address",
							"name": "",
							"type": "address"
						},
						{
							"internalType": "uint256",
							"name": "",
							"type": "uint256"
						}
					],
					"stateMutability": "view",
					"type": "function"
				},
				{
					"inputs": [],
					"name": "getBalance",
					"outputs": [
						{
							"internalType": "uint256",
							"name": "",
							"type": "uint256"
						}
					],
					"stateMutability": "view",
					"type": "function"
				},
				{
					"inputs": [
						{
							"internalType": "address",
							"name": "adr",
							"type": "address"
						}
					],
					"name": "getMyMiners",
					"outputs": [
						{
							"internalType": "uint256",
							"name": "",
							"type": "uint256"
						}
					],
					"stateMutability": "view",
					"type": "function"
				},
				{
					"inputs": [
						{
							"internalType": "address",
							"name": "adr",
							"type": "address"
						}
					],
					"name": "getMyOres",
					"outputs": [
						{
							"internalType": "uint256",
							"name": "",
							"type": "uint256"
						}
					],
					"stateMutability": "view",
					"type": "function"
				},
				{
					"inputs": [
						{
							"internalType": "address",
							"name": "addr",
							"type": "address"
						}
					],
					"name": "getOresSinceLastHatch",
					"outputs": [
						{
							"internalType": "uint256",
							"name": "",
							"type": "uint256"
						}
					],
					"stateMutability": "view",
					"type": "function"
				},
				{
					"inputs": [
						{
							"internalType": "address",
							"name": "who",
							"type": "address"
						}
					],
					"name": "ingotBalanceOf",
					"outputs": [
						{
							"internalType": "uint256",
							"name": "",
							"type": "uint256"
						}
					],
					"stateMutability": "view",
					"type": "function"
				},
				{
					"inputs": [],
					"name": "isOwner",
					"outputs": [
						{
							"internalType": "bool",
							"name": "",
							"type": "bool"
						}
					],
					"stateMutability": "view",
					"type": "function"
				},
				{
					"inputs": [],
					"name": "owner",
					"outputs": [
						{
							"internalType": "address",
							"name": "",
							"type": "address"
						}
					],
					"stateMutability": "view",
					"type": "function"
				},
				{
					"inputs": [],
					"name": "renounceOwnership",
					"outputs": [],
					"stateMutability": "nonpayable",
					"type": "function"
				},
				{
					"inputs": [],
					"name": "seedMarket",
					"outputs": [],
					"stateMutability": "payable",
					"type": "function"
				},
				{
					"inputs": [],
					"name": "sellOres",
					"outputs": [],
					"stateMutability": "nonpayable",
					"type": "function"
				},
				{
					"inputs": [
						{
							"internalType": "uint256",
							"name": "interval",
							"type": "uint256"
						}
					],
					"name": "setBlastClaimInterval",
					"outputs": [],
					"stateMutability": "nonpayable",
					"type": "function"
				},
				{
					"inputs": [
						{
							"internalType": "address",
							"name": "blastAddr",
							"type": "address"
						}
					],
					"name": "setupBlast",
					"outputs": [],
					"stateMutability": "nonpayable",
					"type": "function"
				},
				{
					"inputs": [
						{
							"internalType": "address",
							"name": "newOwner",
							"type": "address"
						}
					],
					"name": "transferOwnership",
					"outputs": [],
					"stateMutability": "nonpayable",
					"type": "function"
				}
			],
			"devdoc": {
				"kind": "dev",
				"methods": {},
				"version": 1
			},
			"evm": {
				"assembly": "    /* \"contracts/BlastFurnace.sol\":1772:8494  contract BlastFurnace is BlastClaimable, NativeTransferable {... */\n  mstore(0x40, 0x80)\n    /* \"contracts/BlastClaimable.sol\":410:416  1 days */\n  0x015180\n    /* \"contracts/BlastClaimable.sol\":373:416  uint256 public _blastClaimInterval = 1 days */\n  0x03\n  sstore\n    /* \"contracts/BlastFurnace.sol\":1908:1915  1080000 */\n  0x107ac0\n    /* \"contracts/BlastFurnace.sol\":1868:1915  uint256 private ORES_TO_HATCH_1MINERS = 1080000 */\n  0x05\n  sstore\n    /* \"contracts/BlastFurnace.sol\":2338:2343  10000 */\n  0x2710\n    /* \"contracts/BlastFurnace.sol\":2316:2343  uint256 private PSN = 10000 */\n  0x06\n  sstore\n    /* \"contracts/BlastFurnace.sol\":2370:2374  5000 */\n  0x1388\n    /* \"contracts/BlastFurnace.sol\":2347:2374  uint256 private PSNH = 5000 */\n  0x07\n  sstore\n    /* \"contracts/BlastFurnace.sol\":2406:2407  3 */\n  0x03\n    /* \"contracts/BlastFurnace.sol\":2378:2407  uint256 private devFeeVal = 3 */\n  0x08\n  sstore\n    /* \"contracts/BlastFurnace.sol\":2438:2443  false */\n  0x00\n    /* \"contracts/BlastFurnace.sol\":2411:2443  bool private initialized = false */\n  0x09\n  exp(0x0100, 0x00)\n  dup2\n  sload\n  dup2\n  0xff\n  mul\n  not\n  and\n  swap1\n  dup4\n  iszero\n  iszero\n  mul\n  or\n  swap1\n  sstore\n  pop\n    /* \"contracts/BlastFurnace.sol\":2890:2942  constructor() {... */\n  callvalue\n  dup1\n  iszero\n  tag_1\n  jumpi\n  0x00\n  dup1\n  revert\ntag_1:\n  pop\n    /* \"contracts/Ownable.sol\":288:298  msg.sender */\n  caller\n    /* \"contracts/Ownable.sol\":279:285  _owner */\n  0x00\n  dup1\n    /* \"contracts/Ownable.sol\":279:298  _owner = msg.sender */\n  0x0100\n  exp\n  dup2\n  sload\n  dup2\n  0xffffffffffffffffffffffffffffffffffffffff\n  mul\n  not\n  and\n  swap1\n  dup4\n  0xffffffffffffffffffffffffffffffffffffffff\n  and\n  mul\n  or\n  swap1\n  sstore\n  pop\n    /* \"contracts/BlastFurnace.sol\":2926:2936  msg.sender */\n  caller\n    /* \"contracts/BlastFurnace.sol\":2909:2915  recAdd */\n  0x09\n  0x01\n    /* \"contracts/BlastFurnace.sol\":2909:2937  recAdd = payable(msg.sender) */\n  0x0100\n  exp\n  dup2\n  sload\n  dup2\n  0xffffffffffffffffffffffffffffffffffffffff\n  mul\n  not\n  and\n  swap1\n  dup4\n  0xffffffffffffffffffffffffffffffffffffffff\n  and\n  mul\n  or\n  swap1\n  sstore\n  pop\n    /* \"contracts/BlastFurnace.sol\":1772:8494  contract BlastFurnace is BlastClaimable, NativeTransferable {... */\n  dataSize(sub_0)\n  dup1\n  dataOffset(sub_0)\n  0x00\n  codecopy\n  0x00\n  return\nstop\n\nsub_0: assembly {\n        /* \"contracts/BlastFurnace.sol\":1772:8494  contract BlastFurnace is BlastClaimable, NativeTransferable {... */\n      mstore(0x40, 0x80)\n      jumpi(tag_1, lt(calldatasize, 0x04))\n      shr(0xe0, calldataload(0x00))\n      dup1\n      0x6dc39ec8\n      gt\n      tag_24\n      jumpi\n      dup1\n      0x97d75776\n      gt\n      tag_25\n      jumpi\n      dup1\n      0x97d75776\n      eq\n      tag_18\n      jumpi\n      dup1\n      0xe3931607\n      eq\n      tag_19\n      jumpi\n      dup1\n      0xeaca243b\n      eq\n      tag_20\n      jumpi\n      dup1\n      0xf2e809e0\n      eq\n      tag_21\n      jumpi\n      dup1\n      0xf2fde38b\n      eq\n      tag_22\n      jumpi\n      dup1\n      0xf36f7c62\n      eq\n      tag_23\n      jumpi\n      jump(tag_1)\n    tag_25:\n      dup1\n      0x6dc39ec8\n      eq\n      tag_13\n      jumpi\n      dup1\n      0x715018a6\n      eq\n      tag_14\n      jumpi\n      dup1\n      0x88bedf91\n      eq\n      tag_15\n      jumpi\n      dup1\n      0x8da5cb5b\n      eq\n      tag_16\n      jumpi\n      dup1\n      0x8f32d59b\n      eq\n      tag_17\n      jumpi\n      jump(tag_1)\n    tag_24:\n      dup1\n      0x450c9d7d\n      gt\n      tag_26\n      jumpi\n      dup1\n      0x450c9d7d\n      eq\n      tag_7\n      jumpi\n      dup1\n      0x4ad47291\n      eq\n      tag_8\n      jumpi\n      dup1\n      0x4addc0e8\n      eq\n      tag_9\n      jumpi\n      dup1\n      0x4b634b06\n      eq\n      tag_10\n      jumpi\n      dup1\n      0x51546044\n      eq\n      tag_11\n      jumpi\n      dup1\n      0x6bd22962\n      eq\n      tag_12\n      jumpi\n      jump(tag_1)\n    tag_26:\n      dup1\n      0x12065fe0\n      eq\n      tag_2\n      jumpi\n      dup1\n      0x224e80fc\n      eq\n      tag_3\n      jumpi\n      dup1\n      0x23084e5f\n      eq\n      tag_4\n      jumpi\n      dup1\n      0x3c5f07cb\n      eq\n      tag_5\n      jumpi\n      dup1\n      0x44bb9117\n      eq\n      tag_6\n      jumpi\n    tag_1:\n      0x00\n      dup1\n      revert\n        /* \"contracts/BlastFurnace.sol\":5963:6053  function getBalance() public view returns (uint256) {... */\n    tag_2:\n      callvalue\n      dup1\n      iszero\n      tag_27\n      jumpi\n      0x00\n      dup1\n      revert\n    tag_27:\n      pop\n      tag_28\n      tag_29\n      jump\t// in\n    tag_28:\n      mload(0x40)\n      tag_30\n      swap2\n      swap1\n      tag_31\n      jump\t// in\n    tag_30:\n      mload(0x40)\n      dup1\n      swap2\n      sub\n      swap1\n      return\n        /* \"contracts/BlastFurnace.sol\":6163:6300  function getMyOres(address adr) public view returns (uint256) {... */\n    tag_3:\n      callvalue\n      dup1\n      iszero\n      tag_32\n      jumpi\n      0x00\n      dup1\n      revert\n    tag_32:\n      pop\n      tag_33\n      0x04\n      dup1\n      calldatasize\n      sub\n      dup2\n      add\n      swap1\n      tag_34\n      swap2\n      swap1\n      tag_35\n      jump\t// in\n    tag_34:\n      tag_36\n      jump\t// in\n    tag_33:\n      mload(0x40)\n      tag_37\n      swap2\n      swap1\n      tag_31\n      jump\t// in\n    tag_37:\n      mload(0x40)\n      dup1\n      swap2\n      sub\n      swap1\n      return\n        /* \"contracts/BlastClaimable.sol\":455:866  function claimMyGasFees() external {... */\n    tag_4:\n      callvalue\n      dup1\n      iszero\n      tag_38\n      jumpi\n      0x00\n      dup1\n      revert\n    tag_38:\n      pop\n      tag_39\n      tag_40\n      jump\t// in\n    tag_39:\n      stop\n        /* \"contracts/BlastFurnace.sol\":5824:5958  function seedMarket() public payable onlyOwner {... */\n    tag_5:\n      tag_41\n      tag_42\n      jump\t// in\n    tag_41:\n      stop\n        /* \"contracts/BlastFurnace.sol\":5240:5382  function calculateOreSell(uint256 ores) public view returns (uint256) {... */\n    tag_6:\n      callvalue\n      dup1\n      iszero\n      tag_43\n      jumpi\n      0x00\n      dup1\n      revert\n    tag_43:\n      pop\n      tag_44\n      0x04\n      dup1\n      calldatasize\n      sub\n      dup2\n      add\n      swap1\n      tag_45\n      swap2\n      swap1\n      tag_46\n      jump\t// in\n    tag_45:\n      tag_47\n      jump\t// in\n    tag_44:\n      mload(0x40)\n      tag_48\n      swap2\n      swap1\n      tag_31\n      jump\t// in\n    tag_48:\n      mload(0x40)\n      dup1\n      swap2\n      sub\n      swap1\n      return\n        /* \"contracts/BlastFurnace.sol\":4355:4533  function furnaceRewards(address adr) public view returns (uint256) {... */\n    tag_7:\n      callvalue\n      dup1\n      iszero\n      tag_49\n      jumpi\n      0x00\n      dup1\n      revert\n    tag_49:\n      pop\n      tag_50\n      0x04\n      dup1\n      calldatasize\n      sub\n      dup2\n      add\n      swap1\n      tag_51\n      swap2\n      swap1\n      tag_35\n      jump\t// in\n    tag_51:\n      tag_52\n      jump\t// in\n    tag_50:\n      mload(0x40)\n      tag_53\n      swap2\n      swap1\n      tag_31\n      jump\t// in\n    tag_53:\n      mload(0x40)\n      dup1\n      swap2\n      sub\n      swap1\n      return\n        /* \"contracts/BlastFurnace.sol\":5387:5545  function calculateOreBuy(uint256 eth, uint256 contractBalance) public view returns (uint256) {... */\n    tag_8:\n      callvalue\n      dup1\n      iszero\n      tag_54\n      jumpi\n      0x00\n      dup1\n      revert\n    tag_54:\n      pop\n      tag_55\n      0x04\n      dup1\n      calldatasize\n      sub\n      dup2\n      add\n      swap1\n      tag_56\n      swap2\n      swap1\n      tag_57\n      jump\t// in\n    tag_56:\n      tag_58\n      jump\t// in\n    tag_55:\n      mload(0x40)\n      tag_59\n      swap2\n      swap1\n      tag_31\n      jump\t// in\n    tag_59:\n      mload(0x40)\n      dup1\n      swap2\n      sub\n      swap1\n      return\n        /* \"contracts/BlastClaimable.sol\":373:416  uint256 public _blastClaimInterval = 1 days */\n    tag_9:\n      callvalue\n      dup1\n      iszero\n      tag_60\n      jumpi\n      0x00\n      dup1\n      revert\n    tag_60:\n      pop\n      tag_61\n      tag_62\n      jump\t// in\n    tag_61:\n      mload(0x40)\n      tag_63\n      swap2\n      swap1\n      tag_31\n      jump\t// in\n    tag_63:\n      mload(0x40)\n      dup1\n      swap2\n      sub\n      swap1\n      return\n        /* \"contracts/BlastFurnace.sol\":6058:6158  function getMyMiners(address adr) public view returns (uint256) {... */\n    tag_10:\n      callvalue\n      dup1\n      iszero\n      tag_64\n      jumpi\n      0x00\n      dup1\n      revert\n    tag_64:\n      pop\n      tag_65\n      0x04\n      dup1\n      calldatasize\n      sub\n      dup2\n      add\n      swap1\n      tag_66\n      swap2\n      swap1\n      tag_35\n      jump\t// in\n    tag_66:\n      tag_67\n      jump\t// in\n    tag_65:\n      mload(0x40)\n      tag_68\n      swap2\n      swap1\n      tag_31\n      jump\t// in\n    tag_68:\n      mload(0x40)\n      dup1\n      swap2\n      sub\n      swap1\n      return\n        /* \"contracts/BlastFurnace.sol\":5550:5684  function calculateOreBuySimple(uint256 eth) public view returns (uint256) {... */\n    tag_11:\n      callvalue\n      dup1\n      iszero\n      tag_69\n      jumpi\n      0x00\n      dup1\n      revert\n    tag_69:\n      pop\n      tag_70\n      0x04\n      dup1\n      calldatasize\n      sub\n      dup2\n      add\n      swap1\n      tag_71\n      swap2\n      swap1\n      tag_46\n      jump\t// in\n    tag_71:\n      tag_72\n      jump\t// in\n    tag_70:\n      mload(0x40)\n      tag_73\n      swap2\n      swap1\n      tag_31\n      jump\t// in\n    tag_73:\n      mload(0x40)\n      dup1\n      swap2\n      sub\n      swap1\n      return\n        /* \"contracts/BlastFurnace.sol\":6305:6766  function getOresSinceLastHatch(address addr) public view returns (uint256) {... */\n    tag_12:\n      callvalue\n      dup1\n      iszero\n      tag_74\n      jumpi\n      0x00\n      dup1\n      revert\n    tag_74:\n      pop\n      tag_75\n      0x04\n      dup1\n      calldatasize\n      sub\n      dup2\n      add\n      swap1\n      tag_76\n      swap2\n      swap1\n      tag_35\n      jump\t// in\n    tag_76:\n      tag_77\n      jump\t// in\n    tag_75:\n      mload(0x40)\n      tag_78\n      swap2\n      swap1\n      tag_31\n      jump\t// in\n    tag_78:\n      mload(0x40)\n      dup1\n      swap2\n      sub\n      swap1\n      return\n        /* \"contracts/BlastFurnace.sol\":7449:7733  function getAirdropQualifier(uint256 index) external view returns (address, uint256) {... */\n    tag_13:\n      callvalue\n      dup1\n      iszero\n      tag_79\n      jumpi\n      0x00\n      dup1\n      revert\n    tag_79:\n      pop\n      tag_80\n      0x04\n      dup1\n      calldatasize\n      sub\n      dup2\n      add\n      swap1\n      tag_81\n      swap2\n      swap1\n      tag_46\n      jump\t// in\n    tag_81:\n      tag_82\n      jump\t// in\n    tag_80:\n      mload(0x40)\n      tag_83\n      swap3\n      swap2\n      swap1\n      tag_84\n      jump\t// in\n    tag_83:\n      mload(0x40)\n      dup1\n      swap2\n      sub\n      swap1\n      return\n        /* \"contracts/Ownable.sol\":531:642  function renounceOwnership() public onlyOwner {... */\n    tag_14:\n      callvalue\n      dup1\n      iszero\n      tag_85\n      jumpi\n      0x00\n      dup1\n      revert\n    tag_85:\n      pop\n      tag_86\n      tag_87\n      jump\t// in\n    tag_86:\n      stop\n        /* \"contracts/BlastFurnace.sol\":4538:4988  function buyOres(address ref) public payable {... */\n    tag_15:\n      tag_88\n      0x04\n      dup1\n      calldatasize\n      sub\n      dup2\n      add\n      swap1\n      tag_89\n      swap2\n      swap1\n      tag_35\n      jump\t// in\n    tag_89:\n      tag_90\n      jump\t// in\n    tag_88:\n      stop\n        /* \"contracts/Ownable.sol\":308:378  function owner() public view returns (address) {... */\n    tag_16:\n      callvalue\n      dup1\n      iszero\n      tag_91\n      jumpi\n      0x00\n      dup1\n      revert\n    tag_91:\n      pop\n      tag_92\n      tag_93\n      jump\t// in\n    tag_92:\n      mload(0x40)\n      tag_94\n      swap2\n      swap1\n      tag_95\n      jump\t// in\n    tag_94:\n      mload(0x40)\n      dup1\n      swap2\n      sub\n      swap1\n      return\n        /* \"contracts/Ownable.sol\":443:526  function isOwner() public view returns (bool) {... */\n    tag_17:\n      callvalue\n      dup1\n      iszero\n      tag_96\n      jumpi\n      0x00\n      dup1\n      revert\n    tag_96:\n      pop\n      tag_97\n      tag_98\n      jump\t// in\n    tag_97:\n      mload(0x40)\n      tag_99\n      swap2\n      swap1\n      tag_100\n      jump\t// in\n    tag_99:\n      mload(0x40)\n      dup1\n      swap2\n      sub\n      swap1\n      return\n        /* \"contracts/BlastClaimable.sol\":301:320  IBlast public BLAST */\n    tag_18:\n      callvalue\n      dup1\n      iszero\n      tag_101\n      jumpi\n      0x00\n      dup1\n      revert\n    tag_101:\n      pop\n      tag_102\n      tag_103\n      jump\t// in\n    tag_102:\n      mload(0x40)\n      tag_104\n      swap2\n      swap1\n      tag_105\n      jump\t// in\n    tag_104:\n      mload(0x40)\n      dup1\n      swap2\n      sub\n      swap1\n      return\n        /* \"contracts/BlastFurnace.sol\":3952:4350  function sellOres() public {... */\n    tag_19:\n      callvalue\n      dup1\n      iszero\n      tag_106\n      jumpi\n      0x00\n      dup1\n      revert\n    tag_106:\n      pop\n      tag_107\n      tag_108\n      jump\t// in\n    tag_107:\n      stop\n        /* \"contracts/BlastClaimable.sol\":1102:1210  function setBlastClaimInterval(uint256 interval) external onlyOwner {... */\n    tag_20:\n      callvalue\n      dup1\n      iszero\n      tag_109\n      jumpi\n      0x00\n      dup1\n      revert\n    tag_109:\n      pop\n      tag_110\n      0x04\n      dup1\n      calldatasize\n      sub\n      dup2\n      add\n      swap1\n      tag_111\n      swap2\n      swap1\n      tag_46\n      jump\t// in\n    tag_111:\n      tag_112\n      jump\t// in\n    tag_110:\n      stop\n        /* \"contracts/BlastClaimable.sol\":871:1097  function setupBlast(address blastAddr) external onlyOwner {... */\n    tag_21:\n      callvalue\n      dup1\n      iszero\n      tag_113\n      jumpi\n      0x00\n      dup1\n      revert\n    tag_113:\n      pop\n      tag_114\n      0x04\n      dup1\n      calldatasize\n      sub\n      dup2\n      add\n      swap1\n      tag_115\n      swap2\n      swap1\n      tag_35\n      jump\t// in\n    tag_115:\n      tag_116\n      jump\t// in\n    tag_114:\n      stop\n        /* \"contracts/Ownable.sol\":647:747  function transferOwnership(address newOwner) public onlyOwner {... */\n    tag_22:\n      callvalue\n      dup1\n      iszero\n      tag_117\n      jumpi\n      0x00\n      dup1\n      revert\n    tag_117:\n      pop\n      tag_118\n      0x04\n      dup1\n      calldatasize\n      sub\n      dup2\n      add\n      swap1\n      tag_119\n      swap2\n      swap1\n      tag_35\n      jump\t// in\n    tag_119:\n      tag_120\n      jump\t// in\n    tag_118:\n      stop\n        /* \"contracts/BlastFurnace.sol\":2947:3050  function ingotBalanceOf(address who) public view returns (uint256) {... */\n    tag_23:\n      callvalue\n      dup1\n      iszero\n      tag_121\n      jumpi\n      0x00\n      dup1\n      revert\n    tag_121:\n      pop\n      tag_122\n      0x04\n      dup1\n      calldatasize\n      sub\n      dup2\n      add\n      swap1\n      tag_123\n      swap2\n      swap1\n      tag_35\n      jump\t// in\n    tag_123:\n      tag_124\n      jump\t// in\n    tag_122:\n      mload(0x40)\n      tag_125\n      swap2\n      swap1\n      tag_31\n      jump\t// in\n    tag_125:\n      mload(0x40)\n      dup1\n      swap2\n      sub\n      swap1\n      return\n        /* \"contracts/BlastFurnace.sol\":5963:6053  function getBalance() public view returns (uint256) {... */\n    tag_29:\n        /* \"contracts/BlastFurnace.sol\":6006:6013  uint256 */\n      0x00\n        /* \"contracts/BlastFurnace.sol\":6027:6048  address(this).balance */\n      selfbalance\n        /* \"contracts/BlastFurnace.sol\":6020:6048  return address(this).balance */\n      swap1\n      pop\n        /* \"contracts/BlastFurnace.sol\":5963:6053  function getBalance() public view returns (uint256) {... */\n      swap1\n      jump\t// out\n        /* \"contracts/BlastFurnace.sol\":6163:6300  function getMyOres(address adr) public view returns (uint256) {... */\n    tag_36:\n        /* \"contracts/BlastFurnace.sol\":6216:6223  uint256 */\n      0x00\n        /* \"contracts/BlastFurnace.sol\":6237:6295  SafeMath.add(claimedOres[adr], getOresSinceLastHatch(adr)) */\n      tag_128\n        /* \"contracts/BlastFurnace.sol\":6250:6261  claimedOres */\n      0x0b\n        /* \"contracts/BlastFurnace.sol\":6250:6266  claimedOres[adr] */\n      0x00\n        /* \"contracts/BlastFurnace.sol\":6262:6265  adr */\n      dup5\n        /* \"contracts/BlastFurnace.sol\":6250:6266  claimedOres[adr] */\n      0xffffffffffffffffffffffffffffffffffffffff\n      and\n      0xffffffffffffffffffffffffffffffffffffffff\n      and\n      dup2\n      mstore\n      0x20\n      add\n      swap1\n      dup2\n      mstore\n      0x20\n      add\n      0x00\n      keccak256\n      sload\n        /* \"contracts/BlastFurnace.sol\":6268:6294  getOresSinceLastHatch(adr) */\n      tag_129\n        /* \"contracts/BlastFurnace.sol\":6290:6293  adr */\n      dup5\n        /* \"contracts/BlastFurnace.sol\":6268:6289  getOresSinceLastHatch */\n      tag_77\n        /* \"contracts/BlastFurnace.sol\":6268:6294  getOresSinceLastHatch(adr) */\n      jump\t// in\n    tag_129:\n        /* \"contracts/BlastFurnace.sol\":6237:6249  SafeMath.add */\n      tag_130\n        /* \"contracts/BlastFurnace.sol\":6237:6295  SafeMath.add(claimedOres[adr], getOresSinceLastHatch(adr)) */\n      jump\t// in\n    tag_128:\n        /* \"contracts/BlastFurnace.sol\":6230:6295  return SafeMath.add(claimedOres[adr], getOresSinceLastHatch(adr)) */\n      swap1\n      pop\n        /* \"contracts/BlastFurnace.sol\":6163:6300  function getMyOres(address adr) public view returns (uint256) {... */\n      swap2\n      swap1\n      pop\n      jump\t// out\n        /* \"contracts/BlastClaimable.sol\":455:866  function claimMyGasFees() external {... */\n    tag_40:\n        /* \"contracts/BlastClaimable.sol\":495:512  address recipient */\n      0x00\n        /* \"contracts/BlastClaimable.sol\":515:525  msg.sender */\n      caller\n        /* \"contracts/BlastClaimable.sol\":495:525  address recipient = msg.sender */\n      swap1\n      pop\n        /* \"contracts/BlastClaimable.sol\":530:547  uint256 lastClaim */\n      0x00\n        /* \"contracts/BlastClaimable.sol\":550:565  _lastBlastClaim */\n      0x02\n        /* \"contracts/BlastClaimable.sol\":550:576  _lastBlastClaim[recipient] */\n      0x00\n        /* \"contracts/BlastClaimable.sol\":566:575  recipient */\n      dup4\n        /* \"contracts/BlastClaimable.sol\":550:576  _lastBlastClaim[recipient] */\n      0xffffffffffffffffffffffffffffffffffffffff\n      and\n      0xffffffffffffffffffffffffffffffffffffffff\n      and\n      dup2\n      mstore\n      0x20\n      add\n      swap1\n      dup2\n      mstore\n      0x20\n      add\n      0x00\n      keccak256\n      sload\n        /* \"contracts/BlastClaimable.sol\":530:576  uint256 lastClaim = _lastBlastClaim[recipient] */\n      swap1\n      pop\n        /* \"contracts/BlastClaimable.sol\":621:636  block.timestamp */\n      timestamp\n        /* \"contracts/BlastClaimable.sol\":599:618  _blastClaimInterval */\n      sload(0x03)\n        /* \"contracts/BlastClaimable.sol\":587:596  lastClaim */\n      dup3\n        /* \"contracts/BlastClaimable.sol\":587:618  lastClaim + _blastClaimInterval */\n      tag_132\n      swap2\n      swap1\n      tag_133\n      jump\t// in\n    tag_132:\n        /* \"contracts/BlastClaimable.sol\":587:636  lastClaim + _blastClaimInterval < block.timestamp */\n      lt\n        /* \"contracts/BlastClaimable.sol\":583:656  if (lastClaim + _blastClaimInterval < block.timestamp) {... */\n      iszero\n      tag_134\n      jumpi\n        /* \"contracts/BlastClaimable.sol\":644:651  return; */\n      pop\n      pop\n      jump(tag_131)\n        /* \"contracts/BlastClaimable.sol\":583:656  if (lastClaim + _blastClaimInterval < block.timestamp) {... */\n    tag_134:\n        /* \"contracts/BlastClaimable.sol\":691:706  block.timestamp */\n      timestamp\n        /* \"contracts/BlastClaimable.sol\":662:677  _lastBlastClaim */\n      0x02\n        /* \"contracts/BlastClaimable.sol\":662:688  _lastBlastClaim[recipient] */\n      0x00\n        /* \"contracts/BlastClaimable.sol\":678:687  recipient */\n      dup5\n        /* \"contracts/BlastClaimable.sol\":662:688  _lastBlastClaim[recipient] */\n      0xffffffffffffffffffffffffffffffffffffffff\n      and\n      0xffffffffffffffffffffffffffffffffffffffff\n      and\n      dup2\n      mstore\n      0x20\n      add\n      swap1\n      dup2\n      mstore\n      0x20\n      add\n      0x00\n      keccak256\n        /* \"contracts/BlastClaimable.sol\":662:706  _lastBlastClaim[recipient] = block.timestamp */\n      dup2\n      swap1\n      sstore\n      pop\n        /* \"contracts/BlastClaimable.sol\":711:726  uint256 claimed */\n      0x00\n        /* \"contracts/BlastClaimable.sol\":729:734  BLAST */\n      0x01\n      0x00\n      swap1\n      sload\n      swap1\n      0x0100\n      exp\n      swap1\n      div\n      0xffffffffffffffffffffffffffffffffffffffff\n      and\n        /* \"contracts/BlastClaimable.sol\":729:746  BLAST.claimAllGas */\n      0xffffffffffffffffffffffffffffffffffffffff\n      and\n      0x954fa5ee\n        /* \"contracts/BlastClaimable.sol\":755:759  this */\n      address\n        /* \"contracts/BlastClaimable.sol\":762:771  recipient */\n      dup6\n        /* \"contracts/BlastClaimable.sol\":729:772  BLAST.claimAllGas(address(this), recipient) */\n      mload(0x40)\n      dup4\n      0xffffffff\n      and\n      0xe0\n      shl\n      dup2\n      mstore\n      0x04\n      add\n      tag_135\n      swap3\n      swap2\n      swap1\n      tag_136\n      jump\t// in\n    tag_135:\n      0x20\n      mload(0x40)\n      dup1\n      dup4\n      sub\n      dup2\n      0x00\n      dup8\n      gas\n      call\n      iszero\n      dup1\n      iszero\n      tag_138\n      jumpi\n      returndatasize\n      0x00\n      dup1\n      returndatacopy\n      revert(0x00, returndatasize)\n    tag_138:\n      pop\n      pop\n      pop\n      pop\n      mload(0x40)\n      returndatasize\n      not(0x1f)\n      0x1f\n      dup3\n      add\n      and\n      dup3\n      add\n      dup1\n      0x40\n      mstore\n      pop\n      dup2\n      add\n      swap1\n      tag_139\n      swap2\n      swap1\n      tag_140\n      jump\t// in\n    tag_139:\n        /* \"contracts/BlastClaimable.sol\":711:772  uint256 claimed = BLAST.claimAllGas(address(this), recipient) */\n      swap1\n      pop\n        /* \"contracts/BlastClaimable.sol\":793:794  0 */\n      0x00\n        /* \"contracts/BlastClaimable.sol\":783:790  claimed */\n      dup2\n        /* \"contracts/BlastClaimable.sol\":783:794  claimed > 0 */\n      gt\n        /* \"contracts/BlastClaimable.sol\":779:862  if (claimed > 0) {... */\n      iszero\n      tag_141\n      jumpi\n        /* \"contracts/BlastClaimable.sol\":818:825  claimed */\n      dup1\n        /* \"contracts/BlastClaimable.sol\":802:814  _feesClaimed */\n      0x04\n      0x00\n        /* \"contracts/BlastClaimable.sol\":802:825  _feesClaimed += claimed */\n      dup3\n      dup3\n      sload\n      tag_142\n      swap2\n      swap1\n      tag_133\n      jump\t// in\n    tag_142:\n      swap3\n      pop\n      pop\n      dup2\n      swap1\n      sstore\n      pop\n        /* \"contracts/BlastClaimable.sol\":831:856  blastFeesClaimed(claimed) */\n      tag_143\n        /* \"contracts/BlastClaimable.sol\":848:855  claimed */\n      dup2\n        /* \"contracts/BlastClaimable.sol\":831:847  blastFeesClaimed */\n      tag_144\n        /* \"contracts/BlastClaimable.sol\":831:856  blastFeesClaimed(claimed) */\n      jump\t// in\n    tag_143:\n        /* \"contracts/BlastClaimable.sol\":779:862  if (claimed > 0) {... */\n    tag_141:\n        /* \"contracts/BlastClaimable.sol\":490:866  {... */\n      pop\n      pop\n      pop\n        /* \"contracts/BlastClaimable.sol\":455:866  function claimMyGasFees() external {... */\n    tag_131:\n      jump\t// out\n        /* \"contracts/BlastFurnace.sol\":5824:5958  function seedMarket() public payable onlyOwner {... */\n    tag_42:\n        /* \"contracts/Ownable.sol\":417:426  isOwner() */\n      tag_146\n        /* \"contracts/Ownable.sol\":417:424  isOwner */\n      tag_98\n        /* \"contracts/Ownable.sol\":417:426  isOwner() */\n      jump\t// in\n    tag_146:\n        /* \"contracts/Ownable.sol\":409:427  require(isOwner()) */\n      tag_147\n      jumpi\n      0x00\n      dup1\n      revert\n    tag_147:\n        /* \"contracts/BlastFurnace.sol\":5898:5899  0 */\n      0x00\n        /* \"contracts/BlastFurnace.sol\":5884:5894  marketOres */\n      sload(0x0e)\n        /* \"contracts/BlastFurnace.sol\":5884:5899  marketOres == 0 */\n      eq\n        /* \"contracts/BlastFurnace.sol\":5876:5900  require(marketOres == 0) */\n      tag_149\n      jumpi\n      0x00\n      dup1\n      revert\n    tag_149:\n        /* \"contracts/BlastFurnace.sol\":5919:5923  true */\n      0x01\n        /* \"contracts/BlastFurnace.sol\":5905:5916  initialized */\n      0x09\n      0x00\n        /* \"contracts/BlastFurnace.sol\":5905:5923  initialized = true */\n      0x0100\n      exp\n      dup2\n      sload\n      dup2\n      0xff\n      mul\n      not\n      and\n      swap1\n      dup4\n      iszero\n      iszero\n      mul\n      or\n      swap1\n      sstore\n      pop\n        /* \"contracts/BlastFurnace.sol\":5941:5953  108000000000 */\n      0x19254d3800\n        /* \"contracts/BlastFurnace.sol\":5928:5938  marketOres */\n      0x0e\n        /* \"contracts/BlastFurnace.sol\":5928:5953  marketOres = 108000000000 */\n      dup2\n      swap1\n      sstore\n      pop\n        /* \"contracts/BlastFurnace.sol\":5824:5958  function seedMarket() public payable onlyOwner {... */\n      jump\t// out\n        /* \"contracts/BlastFurnace.sol\":5240:5382  function calculateOreSell(uint256 ores) public view returns (uint256) {... */\n    tag_47:\n        /* \"contracts/BlastFurnace.sol\":5301:5308  uint256 */\n      0x00\n        /* \"contracts/BlastFurnace.sol\":5322:5377  calculateTrade(ores, marketOres, address(this).balance) */\n      tag_151\n        /* \"contracts/BlastFurnace.sol\":5337:5341  ores */\n      dup3\n        /* \"contracts/BlastFurnace.sol\":5343:5353  marketOres */\n      sload(0x0e)\n        /* \"contracts/BlastFurnace.sol\":5355:5376  address(this).balance */\n      selfbalance\n        /* \"contracts/BlastFurnace.sol\":5322:5336  calculateTrade */\n      tag_152\n        /* \"contracts/BlastFurnace.sol\":5322:5377  calculateTrade(ores, marketOres, address(this).balance) */\n      jump\t// in\n    tag_151:\n        /* \"contracts/BlastFurnace.sol\":5315:5377  return calculateTrade(ores, marketOres, address(this).balance) */\n      swap1\n      pop\n        /* \"contracts/BlastFurnace.sol\":5240:5382  function calculateOreSell(uint256 ores) public view returns (uint256) {... */\n      swap2\n      swap1\n      pop\n      jump\t// out\n        /* \"contracts/BlastFurnace.sol\":4355:4533  function furnaceRewards(address adr) public view returns (uint256) {... */\n    tag_52:\n        /* \"contracts/BlastFurnace.sol\":4413:4420  uint256 */\n      0x00\n        /* \"contracts/BlastFurnace.sol\":4427:4442  uint256 hasOres */\n      dup1\n        /* \"contracts/BlastFurnace.sol\":4445:4459  getMyOres(adr) */\n      tag_154\n        /* \"contracts/BlastFurnace.sol\":4455:4458  adr */\n      dup4\n        /* \"contracts/BlastFurnace.sol\":4445:4454  getMyOres */\n      tag_36\n        /* \"contracts/BlastFurnace.sol\":4445:4459  getMyOres(adr) */\n      jump\t// in\n    tag_154:\n        /* \"contracts/BlastFurnace.sol\":4427:4459  uint256 hasOres = getMyOres(adr) */\n      swap1\n      pop\n        /* \"contracts/BlastFurnace.sol\":4464:4480  uint256 oreValue */\n      0x00\n        /* \"contracts/BlastFurnace.sol\":4483:4508  calculateOreSell(hasOres) */\n      tag_155\n        /* \"contracts/BlastFurnace.sol\":4500:4507  hasOres */\n      dup3\n        /* \"contracts/BlastFurnace.sol\":4483:4499  calculateOreSell */\n      tag_47\n        /* \"contracts/BlastFurnace.sol\":4483:4508  calculateOreSell(hasOres) */\n      jump\t// in\n    tag_155:\n        /* \"contracts/BlastFurnace.sol\":4464:4508  uint256 oreValue = calculateOreSell(hasOres) */\n      swap1\n      pop\n        /* \"contracts/BlastFurnace.sol\":4520:4528  oreValue */\n      dup1\n        /* \"contracts/BlastFurnace.sol\":4513:4528  return oreValue */\n      swap3\n      pop\n      pop\n      pop\n        /* \"contracts/BlastFurnace.sol\":4355:4533  function furnaceRewards(address adr) public view returns (uint256) {... */\n      swap2\n      swap1\n      pop\n      jump\t// out\n        /* \"contracts/BlastFurnace.sol\":5387:5545  function calculateOreBuy(uint256 eth, uint256 contractBalance) public view returns (uint256) {... */\n    tag_58:\n        /* \"contracts/BlastFurnace.sol\":5471:5478  uint256 */\n      0x00\n        /* \"contracts/BlastFurnace.sol\":5492:5540  calculateTrade(eth, contractBalance, marketOres) */\n      tag_157\n        /* \"contracts/BlastFurnace.sol\":5507:5510  eth */\n      dup4\n        /* \"contracts/BlastFurnace.sol\":5512:5527  contractBalance */\n      dup4\n        /* \"contracts/BlastFurnace.sol\":5529:5539  marketOres */\n      sload(0x0e)\n        /* \"contracts/BlastFurnace.sol\":5492:5506  calculateTrade */\n      tag_152\n        /* \"contracts/BlastFurnace.sol\":5492:5540  calculateTrade(eth, contractBalance, marketOres) */\n      jump\t// in\n    tag_157:\n        /* \"contracts/BlastFurnace.sol\":5485:5540  return calculateTrade(eth, contractBalance, marketOres) */\n      swap1\n      pop\n        /* \"contracts/BlastFurnace.sol\":5387:5545  function calculateOreBuy(uint256 eth, uint256 contractBalance) public view returns (uint256) {... */\n      swap3\n      swap2\n      pop\n      pop\n      jump\t// out\n        /* \"contracts/BlastClaimable.sol\":373:416  uint256 public _blastClaimInterval = 1 days */\n    tag_62:\n      sload(0x03)\n      dup2\n      jump\t// out\n        /* \"contracts/BlastFurnace.sol\":6058:6158  function getMyMiners(address adr) public view returns (uint256) {... */\n    tag_67:\n        /* \"contracts/BlastFurnace.sol\":6113:6120  uint256 */\n      0x00\n        /* \"contracts/BlastFurnace.sol\":6134:6148  hatcheryMiners */\n      0x0a\n        /* \"contracts/BlastFurnace.sol\":6134:6153  hatcheryMiners[adr] */\n      0x00\n        /* \"contracts/BlastFurnace.sol\":6149:6152  adr */\n      dup4\n        /* \"contracts/BlastFurnace.sol\":6134:6153  hatcheryMiners[adr] */\n      0xffffffffffffffffffffffffffffffffffffffff\n      and\n      0xffffffffffffffffffffffffffffffffffffffff\n      and\n      dup2\n      mstore\n      0x20\n      add\n      swap1\n      dup2\n      mstore\n      0x20\n      add\n      0x00\n      keccak256\n      sload\n        /* \"contracts/BlastFurnace.sol\":6127:6153  return hatcheryMiners[adr] */\n      swap1\n      pop\n        /* \"contracts/BlastFurnace.sol\":6058:6158  function getMyMiners(address adr) public view returns (uint256) {... */\n      swap2\n      swap1\n      pop\n      jump\t// out\n        /* \"contracts/BlastFurnace.sol\":5550:5684  function calculateOreBuySimple(uint256 eth) public view returns (uint256) {... */\n    tag_72:\n        /* \"contracts/BlastFurnace.sol\":5615:5622  uint256 */\n      0x00\n        /* \"contracts/BlastFurnace.sol\":5636:5679  calculateOreBuy(eth, address(this).balance) */\n      tag_160\n        /* \"contracts/BlastFurnace.sol\":5652:5655  eth */\n      dup3\n        /* \"contracts/BlastFurnace.sol\":5657:5678  address(this).balance */\n      selfbalance\n        /* \"contracts/BlastFurnace.sol\":5636:5651  calculateOreBuy */\n      tag_58\n        /* \"contracts/BlastFurnace.sol\":5636:5679  calculateOreBuy(eth, address(this).balance) */\n      jump\t// in\n    tag_160:\n        /* \"contracts/BlastFurnace.sol\":5629:5679  return calculateOreBuy(eth, address(this).balance) */\n      swap1\n      pop\n        /* \"contracts/BlastFurnace.sol\":5550:5684  function calculateOreBuySimple(uint256 eth) public view returns (uint256) {... */\n      swap2\n      swap1\n      pop\n      jump\t// out\n        /* \"contracts/BlastFurnace.sol\":6305:6766  function getOresSinceLastHatch(address addr) public view returns (uint256) {... */\n    tag_77:\n        /* \"contracts/BlastFurnace.sol\":6371:6378  uint256 */\n      0x00\n        /* \"contracts/BlastFurnace.sol\":6385:6406  uint256 secondsPassed */\n      dup1\n        /* \"contracts/BlastFurnace.sol\":6409:6483  min(ORES_TO_HATCH_1MINERS, SafeMath.sub(block.timestamp, lastHatch[addr])) */\n      tag_162\n        /* \"contracts/BlastFurnace.sol\":6413:6434  ORES_TO_HATCH_1MINERS */\n      sload(0x05)\n        /* \"contracts/BlastFurnace.sol\":6436:6482  SafeMath.sub(block.timestamp, lastHatch[addr]) */\n      tag_163\n        /* \"contracts/BlastFurnace.sol\":6449:6464  block.timestamp */\n      timestamp\n        /* \"contracts/BlastFurnace.sol\":6466:6475  lastHatch */\n      0x0c\n        /* \"contracts/BlastFurnace.sol\":6466:6481  lastHatch[addr] */\n      0x00\n        /* \"contracts/BlastFurnace.sol\":6476:6480  addr */\n      dup9\n        /* \"contracts/BlastFurnace.sol\":6466:6481  lastHatch[addr] */\n      0xffffffffffffffffffffffffffffffffffffffff\n      and\n      0xffffffffffffffffffffffffffffffffffffffff\n      and\n      dup2\n      mstore\n      0x20\n      add\n      swap1\n      dup2\n      mstore\n      0x20\n      add\n      0x00\n      keccak256\n      sload\n        /* \"contracts/BlastFurnace.sol\":6436:6448  SafeMath.sub */\n      tag_164\n        /* \"contracts/BlastFurnace.sol\":6436:6482  SafeMath.sub(block.timestamp, lastHatch[addr]) */\n      jump\t// in\n    tag_163:\n        /* \"contracts/BlastFurnace.sol\":6409:6412  min */\n      tag_165\n        /* \"contracts/BlastFurnace.sol\":6409:6483  min(ORES_TO_HATCH_1MINERS, SafeMath.sub(block.timestamp, lastHatch[addr])) */\n      jump\t// in\n    tag_162:\n        /* \"contracts/BlastFurnace.sol\":6385:6483  uint256 secondsPassed = min(ORES_TO_HATCH_1MINERS, SafeMath.sub(block.timestamp, lastHatch[addr])) */\n      swap1\n      pop\n        /* \"contracts/BlastFurnace.sol\":6525:6539  uint256 ingots */\n      0x00\n        /* \"contracts/BlastFurnace.sol\":6542:6556  _ingotBalances */\n      0x0f\n        /* \"contracts/BlastFurnace.sol\":6542:6562  _ingotBalances[addr] */\n      0x00\n        /* \"contracts/BlastFurnace.sol\":6557:6561  addr */\n      dup6\n        /* \"contracts/BlastFurnace.sol\":6542:6562  _ingotBalances[addr] */\n      0xffffffffffffffffffffffffffffffffffffffff\n      and\n      0xffffffffffffffffffffffffffffffffffffffff\n      and\n      dup2\n      mstore\n      0x20\n      add\n      swap1\n      dup2\n      mstore\n      0x20\n      add\n      0x00\n      keccak256\n      sload\n        /* \"contracts/BlastFurnace.sol\":6525:6562  uint256 ingots = _ingotBalances[addr] */\n      swap1\n      pop\n        /* \"contracts/BlastFurnace.sol\":6567:6587  uint256 timeIncrease */\n      0x00\n        /* \"contracts/BlastFurnace.sol\":6590:6644  secondsPassed.mul(ingots).div(INGOT_FRAGMENT.mul(100)) */\n      tag_166\n        /* \"contracts/BlastFurnace.sol\":6620:6643  INGOT_FRAGMENT.mul(100) */\n      tag_167\n        /* \"contracts/BlastFurnace.sol\":6639:6642  100 */\n      0x64\n        /* \"contracts/BlastFurnace.sol\":2166:2169  200 */\n      0xc8\n        /* \"contracts/BlastFurnace.sol\":6620:6638  INGOT_FRAGMENT.mul */\n      tag_168\n      swap1\n        /* \"contracts/BlastFurnace.sol\":6620:6643  INGOT_FRAGMENT.mul(100) */\n      swap2\n      swap1\n      0xffffffff\n      and\n      jump\t// in\n    tag_167:\n        /* \"contracts/BlastFurnace.sol\":6590:6615  secondsPassed.mul(ingots) */\n      tag_169\n        /* \"contracts/BlastFurnace.sol\":6608:6614  ingots */\n      dup5\n        /* \"contracts/BlastFurnace.sol\":6590:6603  secondsPassed */\n      dup7\n        /* \"contracts/BlastFurnace.sol\":6590:6607  secondsPassed.mul */\n      tag_168\n      swap1\n        /* \"contracts/BlastFurnace.sol\":6590:6615  secondsPassed.mul(ingots) */\n      swap2\n      swap1\n      0xffffffff\n      and\n      jump\t// in\n    tag_169:\n        /* \"contracts/BlastFurnace.sol\":6590:6619  secondsPassed.mul(ingots).div */\n      tag_170\n      swap1\n        /* \"contracts/BlastFurnace.sol\":6590:6644  secondsPassed.mul(ingots).div(INGOT_FRAGMENT.mul(100)) */\n      swap2\n      swap1\n      0xffffffff\n      and\n      jump\t// in\n    tag_166:\n        /* \"contracts/BlastFurnace.sol\":6567:6644  uint256 timeIncrease = secondsPassed.mul(ingots).div(INGOT_FRAGMENT.mul(100)) */\n      swap1\n      pop\n        /* \"contracts/BlastFurnace.sol\":6667:6698  secondsPassed.add(timeIncrease) */\n      tag_171\n        /* \"contracts/BlastFurnace.sol\":6685:6697  timeIncrease */\n      dup2\n        /* \"contracts/BlastFurnace.sol\":6667:6680  secondsPassed */\n      dup5\n        /* \"contracts/BlastFurnace.sol\":6667:6684  secondsPassed.add */\n      tag_130\n      swap1\n        /* \"contracts/BlastFurnace.sol\":6667:6698  secondsPassed.add(timeIncrease) */\n      swap2\n      swap1\n      0xffffffff\n      and\n      jump\t// in\n    tag_171:\n        /* \"contracts/BlastFurnace.sol\":6651:6698  secondsPassed = secondsPassed.add(timeIncrease) */\n      swap3\n      pop\n        /* \"contracts/BlastFurnace.sol\":6712:6761  SafeMath.mul(secondsPassed, hatcheryMiners[addr]) */\n      tag_172\n        /* \"contracts/BlastFurnace.sol\":6725:6738  secondsPassed */\n      dup4\n        /* \"contracts/BlastFurnace.sol\":6740:6754  hatcheryMiners */\n      0x0a\n        /* \"contracts/BlastFurnace.sol\":6740:6760  hatcheryMiners[addr] */\n      0x00\n        /* \"contracts/BlastFurnace.sol\":6755:6759  addr */\n      dup9\n        /* \"contracts/BlastFurnace.sol\":6740:6760  hatcheryMiners[addr] */\n      0xffffffffffffffffffffffffffffffffffffffff\n      and\n      0xffffffffffffffffffffffffffffffffffffffff\n      and\n      dup2\n      mstore\n      0x20\n      add\n      swap1\n      dup2\n      mstore\n      0x20\n      add\n      0x00\n      keccak256\n      sload\n        /* \"contracts/BlastFurnace.sol\":6712:6724  SafeMath.mul */\n      tag_168\n        /* \"contracts/BlastFurnace.sol\":6712:6761  SafeMath.mul(secondsPassed, hatcheryMiners[addr]) */\n      jump\t// in\n    tag_172:\n        /* \"contracts/BlastFurnace.sol\":6705:6761  return SafeMath.mul(secondsPassed, hatcheryMiners[addr]) */\n      swap4\n      pop\n      pop\n      pop\n      pop\n        /* \"contracts/BlastFurnace.sol\":6305:6766  function getOresSinceLastHatch(address addr) public view returns (uint256) {... */\n      swap2\n      swap1\n      pop\n      jump\t// out\n        /* \"contracts/BlastFurnace.sol\":7449:7733  function getAirdropQualifier(uint256 index) external view returns (address, uint256) {... */\n    tag_82:\n        /* \"contracts/BlastFurnace.sol\":7516:7523  address */\n      0x00\n        /* \"contracts/BlastFurnace.sol\":7525:7532  uint256 */\n      dup1\n        /* \"contracts/BlastFurnace.sol\":7552:7570  _airdropQualifiers */\n      0x12\n        /* \"contracts/BlastFurnace.sol\":7552:7577  _airdropQualifiers.length */\n      dup1\n      sload\n      swap1\n      pop\n        /* \"contracts/BlastFurnace.sol\":7543:7548  index */\n      dup4\n        /* \"contracts/BlastFurnace.sol\":7543:7577  index >= _airdropQualifiers.length */\n      lt\n        /* \"contracts/BlastFurnace.sol\":7539:7613  if (index >= _airdropQualifiers.length) {... */\n      tag_174\n      jumpi\n        /* \"contracts/BlastFurnace.sol\":7601:7602  0 */\n      0x00\n        /* \"contracts/BlastFurnace.sol\":7605:7606  0 */\n      dup1\n        /* \"contracts/BlastFurnace.sol\":7585:7607  return (address(0), 0) */\n      swap2\n      pop\n      swap2\n      pop\n      jump(tag_173)\n        /* \"contracts/BlastFurnace.sol\":7539:7613  if (index >= _airdropQualifiers.length) {... */\n    tag_174:\n        /* \"contracts/BlastFurnace.sol\":7619:7631  address addr */\n      0x00\n        /* \"contracts/BlastFurnace.sol\":7634:7652  _airdropQualifiers */\n      0x12\n        /* \"contracts/BlastFurnace.sol\":7653:7658  index */\n      dup5\n        /* \"contracts/BlastFurnace.sol\":7634:7659  _airdropQualifiers[index] */\n      dup2\n      sload\n      dup2\n      lt\n      tag_175\n      jumpi\n      tag_176\n      tag_177\n      jump\t// in\n    tag_176:\n    tag_175:\n      swap1\n      0x00\n      mstore\n      keccak256(0x00, 0x20)\n      add\n      0x00\n      swap1\n      sload\n      swap1\n      0x0100\n      exp\n      swap1\n      div\n      0xffffffffffffffffffffffffffffffffffffffff\n      and\n        /* \"contracts/BlastFurnace.sol\":7619:7659  address addr = _airdropQualifiers[index] */\n      swap1\n      pop\n        /* \"contracts/BlastFurnace.sol\":7664:7679  uint256 balance */\n      0x00\n        /* \"contracts/BlastFurnace.sol\":7682:7693  claimedOres */\n      0x0b\n        /* \"contracts/BlastFurnace.sol\":7682:7699  claimedOres[addr] */\n      0x00\n        /* \"contracts/BlastFurnace.sol\":7694:7698  addr */\n      dup4\n        /* \"contracts/BlastFurnace.sol\":7682:7699  claimedOres[addr] */\n      0xffffffffffffffffffffffffffffffffffffffff\n      and\n      0xffffffffffffffffffffffffffffffffffffffff\n      and\n      dup2\n      mstore\n      0x20\n      add\n      swap1\n      dup2\n      mstore\n      0x20\n      add\n      0x00\n      keccak256\n      sload\n        /* \"contracts/BlastFurnace.sol\":7664:7699  uint256 balance = claimedOres[addr] */\n      swap1\n      pop\n        /* \"contracts/BlastFurnace.sol\":7714:7718  addr */\n      dup2\n        /* \"contracts/BlastFurnace.sol\":7720:7727  balance */\n      dup2\n        /* \"contracts/BlastFurnace.sol\":7706:7728  return (addr, balance) */\n      swap4\n      pop\n      swap4\n      pop\n      pop\n      pop\n        /* \"contracts/BlastFurnace.sol\":7449:7733  function getAirdropQualifier(uint256 index) external view returns (address, uint256) {... */\n    tag_173:\n      swap2\n      pop\n      swap2\n      jump\t// out\n        /* \"contracts/Ownable.sol\":531:642  function renounceOwnership() public onlyOwner {... */\n    tag_87:\n        /* \"contracts/Ownable.sol\":417:426  isOwner() */\n      tag_180\n        /* \"contracts/Ownable.sol\":417:424  isOwner */\n      tag_98\n        /* \"contracts/Ownable.sol\":417:426  isOwner() */\n      jump\t// in\n    tag_180:\n        /* \"contracts/Ownable.sol\":409:427  require(isOwner()) */\n      tag_181\n      jumpi\n      0x00\n      dup1\n      revert\n    tag_181:\n        /* \"contracts/Ownable.sol\":606:612  _owner */\n      0x00\n      dup1\n      sload\n      swap1\n      0x0100\n      exp\n      swap1\n      div\n      0xffffffffffffffffffffffffffffffffffffffff\n      and\n        /* \"contracts/Ownable.sol\":587:613  OwnershipRenounced(_owner) */\n      0xffffffffffffffffffffffffffffffffffffffff\n      and\n      0xf8df31144d9c2f0f6b59d69b8b98abd5459d07f2742c4df920b25aae33c64820\n      mload(0x40)\n      mload(0x40)\n      dup1\n      swap2\n      sub\n      swap1\n      log2\n        /* \"contracts/Ownable.sol\":635:636  0 */\n      0x00\n        /* \"contracts/Ownable.sol\":618:624  _owner */\n      dup1\n      0x00\n        /* \"contracts/Ownable.sol\":618:637  _owner = address(0) */\n      0x0100\n      exp\n      dup2\n      sload\n      dup2\n      0xffffffffffffffffffffffffffffffffffffffff\n      mul\n      not\n      and\n      swap1\n      dup4\n      0xffffffffffffffffffffffffffffffffffffffff\n      and\n      mul\n      or\n      swap1\n      sstore\n      pop\n        /* \"contracts/Ownable.sol\":531:642  function renounceOwnership() public onlyOwner {... */\n      jump\t// out\n        /* \"contracts/BlastFurnace.sol\":4538:4988  function buyOres(address ref) public payable {... */\n    tag_90:\n        /* \"contracts/BlastFurnace.sol\":4596:4607  initialized */\n      0x09\n      0x00\n      swap1\n      sload\n      swap1\n      0x0100\n      exp\n      swap1\n      div\n      0xff\n      and\n        /* \"contracts/BlastFurnace.sol\":4588:4608  require(initialized) */\n      tag_184\n      jumpi\n      0x00\n      dup1\n      revert\n    tag_184:\n        /* \"contracts/BlastFurnace.sol\":4613:4631  uint256 oresBought */\n      0x00\n        /* \"contracts/BlastFurnace.sol\":4634:4708  calculateOreBuy(msg.value, SafeMath.sub(address(this).balance, msg.value)) */\n      tag_185\n        /* \"contracts/BlastFurnace.sol\":4650:4659  msg.value */\n      callvalue\n        /* \"contracts/BlastFurnace.sol\":4661:4707  SafeMath.sub(address(this).balance, msg.value) */\n      tag_186\n        /* \"contracts/BlastFurnace.sol\":4674:4695  address(this).balance */\n      selfbalance\n        /* \"contracts/BlastFurnace.sol\":4697:4706  msg.value */\n      callvalue\n        /* \"contracts/BlastFurnace.sol\":4661:4673  SafeMath.sub */\n      tag_164\n        /* \"contracts/BlastFurnace.sol\":4661:4707  SafeMath.sub(address(this).balance, msg.value) */\n      jump\t// in\n    tag_186:\n        /* \"contracts/BlastFurnace.sol\":4634:4649  calculateOreBuy */\n      tag_58\n        /* \"contracts/BlastFurnace.sol\":4634:4708  calculateOreBuy(msg.value, SafeMath.sub(address(this).balance, msg.value)) */\n      jump\t// in\n    tag_185:\n        /* \"contracts/BlastFurnace.sol\":4613:4708  uint256 oresBought = calculateOreBuy(msg.value, SafeMath.sub(address(this).balance, msg.value)) */\n      swap1\n      pop\n        /* \"contracts/BlastFurnace.sol\":4726:4770  SafeMath.sub(oresBought, devFee(oresBought)) */\n      tag_187\n        /* \"contracts/BlastFurnace.sol\":4739:4749  oresBought */\n      dup2\n        /* \"contracts/BlastFurnace.sol\":4751:4769  devFee(oresBought) */\n      tag_188\n        /* \"contracts/BlastFurnace.sol\":4758:4768  oresBought */\n      dup4\n        /* \"contracts/BlastFurnace.sol\":4751:4757  devFee */\n      tag_189\n        /* \"contracts/BlastFurnace.sol\":4751:4769  devFee(oresBought) */\n      jump\t// in\n    tag_188:\n        /* \"contracts/BlastFurnace.sol\":4726:4738  SafeMath.sub */\n      tag_164\n        /* \"contracts/BlastFurnace.sol\":4726:4770  SafeMath.sub(oresBought, devFee(oresBought)) */\n      jump\t// in\n    tag_187:\n        /* \"contracts/BlastFurnace.sol\":4713:4770  oresBought = SafeMath.sub(oresBought, devFee(oresBought)) */\n      swap1\n      pop\n        /* \"contracts/BlastFurnace.sol\":4775:4786  uint256 fee */\n      0x00\n        /* \"contracts/BlastFurnace.sol\":4789:4806  devFee(msg.value) */\n      tag_190\n        /* \"contracts/BlastFurnace.sol\":4796:4805  msg.value */\n      callvalue\n        /* \"contracts/BlastFurnace.sol\":4789:4795  devFee */\n      tag_189\n        /* \"contracts/BlastFurnace.sol\":4789:4806  devFee(msg.value) */\n      jump\t// in\n    tag_190:\n        /* \"contracts/BlastFurnace.sol\":4775:4806  uint256 fee = devFee(msg.value) */\n      swap1\n      pop\n        /* \"contracts/BlastFurnace.sol\":4811:4817  recAdd */\n      0x09\n      0x01\n      swap1\n      sload\n      swap1\n      0x0100\n      exp\n      swap1\n      div\n      0xffffffffffffffffffffffffffffffffffffffff\n      and\n        /* \"contracts/BlastFurnace.sol\":4811:4826  recAdd.transfer */\n      0xffffffffffffffffffffffffffffffffffffffff\n      and\n        /* \"contracts/BlastFurnace.sol\":4811:4831  recAdd.transfer(fee) */\n      0x08fc\n        /* \"contracts/BlastFurnace.sol\":4827:4830  fee */\n      dup3\n        /* \"contracts/BlastFurnace.sol\":4811:4831  recAdd.transfer(fee) */\n      swap1\n      dup2\n      iszero\n      mul\n      swap1\n      mload(0x40)\n      0x00\n      mload(0x40)\n      dup1\n      dup4\n      sub\n      dup2\n      dup6\n      dup9\n      dup9\n      call\n      swap4\n      pop\n      pop\n      pop\n      pop\n      iszero\n      dup1\n      iszero\n      tag_192\n      jumpi\n      returndatasize\n      0x00\n      dup1\n      returndatacopy\n      revert(0x00, returndatasize)\n    tag_192:\n      pop\n        /* \"contracts/BlastFurnace.sol\":4836:4871  _addClaimed(msg.sender, oresBought) */\n      tag_193\n        /* \"contracts/BlastFurnace.sol\":4848:4858  msg.sender */\n      caller\n        /* \"contracts/BlastFurnace.sol\":4860:4870  oresBought */\n      dup4\n        /* \"contracts/BlastFurnace.sol\":4836:4847  _addClaimed */\n      tag_194\n        /* \"contracts/BlastFurnace.sol\":4836:4871  _addClaimed(msg.sender, oresBought) */\n      jump\t// in\n    tag_193:\n        /* \"contracts/BlastFurnace.sol\":4876:4902  _hatchOres(ref, msg.value) */\n      tag_195\n        /* \"contracts/BlastFurnace.sol\":4887:4890  ref */\n      dup4\n        /* \"contracts/BlastFurnace.sol\":4892:4901  msg.value */\n      callvalue\n        /* \"contracts/BlastFurnace.sol\":4876:4886  _hatchOres */\n      tag_196\n        /* \"contracts/BlastFurnace.sol\":4876:4902  _hatchOres(ref, msg.value) */\n      jump\t// in\n    tag_195:\n        /* \"contracts/BlastFurnace.sol\":4926:4930  1e18 */\n      0x0de0b6b3a7640000\n        /* \"contracts/BlastFurnace.sol\":4913:4922  msg.value */\n      callvalue\n        /* \"contracts/BlastFurnace.sol\":4913:4930  msg.value >= 1e18 */\n      lt\n        /* \"contracts/BlastFurnace.sol\":4909:4984  if (msg.value >= 1e18) {... */\n      tag_197\n      jumpi\n        /* \"contracts/BlastFurnace.sol\":4938:4978  _addIngots(msg.sender, BIG_INGOT_REWARD) */\n      tag_198\n        /* \"contracts/BlastFurnace.sol\":4949:4959  msg.sender */\n      caller\n        /* \"contracts/BlastFurnace.sol\":2059:2062  200 */\n      0xc8\n        /* \"contracts/BlastFurnace.sol\":4938:4948  _addIngots */\n      tag_199\n        /* \"contracts/BlastFurnace.sol\":4938:4978  _addIngots(msg.sender, BIG_INGOT_REWARD) */\n      jump\t// in\n    tag_198:\n        /* \"contracts/BlastFurnace.sol\":4909:4984  if (msg.value >= 1e18) {... */\n    tag_197:\n        /* \"contracts/BlastFurnace.sol\":4583:4988  {... */\n      pop\n      pop\n        /* \"contracts/BlastFurnace.sol\":4538:4988  function buyOres(address ref) public payable {... */\n      pop\n      jump\t// out\n        /* \"contracts/Ownable.sol\":308:378  function owner() public view returns (address) {... */\n    tag_93:\n        /* \"contracts/Ownable.sol\":346:353  address */\n      0x00\n        /* \"contracts/Ownable.sol\":367:373  _owner */\n      dup1\n      0x00\n      swap1\n      sload\n      swap1\n      0x0100\n      exp\n      swap1\n      div\n      0xffffffffffffffffffffffffffffffffffffffff\n      and\n        /* \"contracts/Ownable.sol\":360:373  return _owner */\n      swap1\n      pop\n        /* \"contracts/Ownable.sol\":308:378  function owner() public view returns (address) {... */\n      swap1\n      jump\t// out\n        /* \"contracts/Ownable.sol\":443:526  function isOwner() public view returns (bool) {... */\n    tag_98:\n        /* \"contracts/Ownable.sol\":483:487  bool */\n      0x00\n        /* \"contracts/Ownable.sol\":515:521  _owner */\n      dup1\n      0x00\n      swap1\n      sload\n      swap1\n      0x0100\n      exp\n      swap1\n      div\n      0xffffffffffffffffffffffffffffffffffffffff\n      and\n        /* \"contracts/Ownable.sol\":501:521  msg.sender == _owner */\n      0xffffffffffffffffffffffffffffffffffffffff\n      and\n        /* \"contracts/Ownable.sol\":501:511  msg.sender */\n      caller\n        /* \"contracts/Ownable.sol\":501:521  msg.sender == _owner */\n      0xffffffffffffffffffffffffffffffffffffffff\n      and\n      eq\n        /* \"contracts/Ownable.sol\":494:521  return msg.sender == _owner */\n      swap1\n      pop\n        /* \"contracts/Ownable.sol\":443:526  function isOwner() public view returns (bool) {... */\n      swap1\n      jump\t// out\n        /* \"contracts/BlastClaimable.sol\":301:320  IBlast public BLAST */\n    tag_103:\n      0x01\n      0x00\n      swap1\n      sload\n      swap1\n      0x0100\n      exp\n      swap1\n      div\n      0xffffffffffffffffffffffffffffffffffffffff\n      and\n      dup2\n      jump\t// out\n        /* \"contracts/BlastFurnace.sol\":3952:4350  function sellOres() public {... */\n    tag_108:\n        /* \"contracts/BlastFurnace.sol\":3992:4003  initialized */\n      0x09\n      0x00\n      swap1\n      sload\n      swap1\n      0x0100\n      exp\n      swap1\n      div\n      0xff\n      and\n        /* \"contracts/BlastFurnace.sol\":3984:4004  require(initialized) */\n      tag_203\n      jumpi\n      0x00\n      dup1\n      revert\n    tag_203:\n        /* \"contracts/BlastFurnace.sol\":4009:4024  uint256 hasOres */\n      0x00\n        /* \"contracts/BlastFurnace.sol\":4027:4048  getMyOres(msg.sender) */\n      tag_204\n        /* \"contracts/BlastFurnace.sol\":4037:4047  msg.sender */\n      caller\n        /* \"contracts/BlastFurnace.sol\":4027:4036  getMyOres */\n      tag_36\n        /* \"contracts/BlastFurnace.sol\":4027:4048  getMyOres(msg.sender) */\n      jump\t// in\n    tag_204:\n        /* \"contracts/BlastFurnace.sol\":4009:4048  uint256 hasOres = getMyOres(msg.sender) */\n      swap1\n      pop\n        /* \"contracts/BlastFurnace.sol\":4053:4069  uint256 oreValue */\n      0x00\n        /* \"contracts/BlastFurnace.sol\":4072:4097  calculateOreSell(hasOres) */\n      tag_205\n        /* \"contracts/BlastFurnace.sol\":4089:4096  hasOres */\n      dup3\n        /* \"contracts/BlastFurnace.sol\":4072:4088  calculateOreSell */\n      tag_47\n        /* \"contracts/BlastFurnace.sol\":4072:4097  calculateOreSell(hasOres) */\n      jump\t// in\n    tag_205:\n        /* \"contracts/BlastFurnace.sol\":4053:4097  uint256 oreValue = calculateOreSell(hasOres) */\n      swap1\n      pop\n        /* \"contracts/BlastFurnace.sol\":4102:4113  uint256 fee */\n      0x00\n        /* \"contracts/BlastFurnace.sol\":4116:4132  devFee(oreValue) */\n      tag_206\n        /* \"contracts/BlastFurnace.sol\":4123:4131  oreValue */\n      dup3\n        /* \"contracts/BlastFurnace.sol\":4116:4122  devFee */\n      tag_189\n        /* \"contracts/BlastFurnace.sol\":4116:4132  devFee(oreValue) */\n      jump\t// in\n    tag_206:\n        /* \"contracts/BlastFurnace.sol\":4102:4132  uint256 fee = devFee(oreValue) */\n      swap1\n      pop\n        /* \"contracts/BlastFurnace.sol\":4137:4163  _setClaimed(msg.sender, 0) */\n      tag_207\n        /* \"contracts/BlastFurnace.sol\":4149:4159  msg.sender */\n      caller\n        /* \"contracts/BlastFurnace.sol\":4161:4162  0 */\n      0x00\n        /* \"contracts/BlastFurnace.sol\":4137:4148  _setClaimed */\n      tag_208\n        /* \"contracts/BlastFurnace.sol\":4137:4163  _setClaimed(msg.sender, 0) */\n      jump\t// in\n    tag_207:\n        /* \"contracts/BlastFurnace.sol\":4192:4207  block.timestamp */\n      timestamp\n        /* \"contracts/BlastFurnace.sol\":4168:4177  lastHatch */\n      0x0c\n        /* \"contracts/BlastFurnace.sol\":4168:4189  lastHatch[msg.sender] */\n      0x00\n        /* \"contracts/BlastFurnace.sol\":4178:4188  msg.sender */\n      caller\n        /* \"contracts/BlastFurnace.sol\":4168:4189  lastHatch[msg.sender] */\n      0xffffffffffffffffffffffffffffffffffffffff\n      and\n      0xffffffffffffffffffffffffffffffffffffffff\n      and\n      dup2\n      mstore\n      0x20\n      add\n      swap1\n      dup2\n      mstore\n      0x20\n      add\n      0x00\n      keccak256\n        /* \"contracts/BlastFurnace.sol\":4168:4207  lastHatch[msg.sender] = block.timestamp */\n      dup2\n      swap1\n      sstore\n      pop\n        /* \"contracts/BlastFurnace.sol\":4225:4258  SafeMath.add(marketOres, hasOres) */\n      tag_209\n        /* \"contracts/BlastFurnace.sol\":4238:4248  marketOres */\n      sload(0x0e)\n        /* \"contracts/BlastFurnace.sol\":4250:4257  hasOres */\n      dup5\n        /* \"contracts/BlastFurnace.sol\":4225:4237  SafeMath.add */\n      tag_130\n        /* \"contracts/BlastFurnace.sol\":4225:4258  SafeMath.add(marketOres, hasOres) */\n      jump\t// in\n    tag_209:\n        /* \"contracts/BlastFurnace.sol\":4212:4222  marketOres */\n      0x0e\n        /* \"contracts/BlastFurnace.sol\":4212:4258  marketOres = SafeMath.add(marketOres, hasOres) */\n      dup2\n      swap1\n      sstore\n      pop\n        /* \"contracts/BlastFurnace.sol\":4263:4269  recAdd */\n      0x09\n      0x01\n      swap1\n      sload\n      swap1\n      0x0100\n      exp\n      swap1\n      div\n      0xffffffffffffffffffffffffffffffffffffffff\n      and\n        /* \"contracts/BlastFurnace.sol\":4263:4278  recAdd.transfer */\n      0xffffffffffffffffffffffffffffffffffffffff\n      and\n        /* \"contracts/BlastFurnace.sol\":4263:4283  recAdd.transfer(fee) */\n      0x08fc\n        /* \"contracts/BlastFurnace.sol\":4279:4282  fee */\n      dup3\n        /* \"contracts/BlastFurnace.sol\":4263:4283  recAdd.transfer(fee) */\n      swap1\n      dup2\n      iszero\n      mul\n      swap1\n      mload(0x40)\n      0x00\n      mload(0x40)\n      dup1\n      dup4\n      sub\n      dup2\n      dup6\n      dup9\n      dup9\n      call\n      swap4\n      pop\n      pop\n      pop\n      pop\n      iszero\n      dup1\n      iszero\n      tag_211\n      jumpi\n      returndatasize\n      0x00\n      dup1\n      returndatacopy\n      revert(0x00, returndatasize)\n    tag_211:\n      pop\n        /* \"contracts/BlastFurnace.sol\":4296:4306  msg.sender */\n      caller\n        /* \"contracts/BlastFurnace.sol\":4288:4316  payable(msg.sender).transfer */\n      0xffffffffffffffffffffffffffffffffffffffff\n      and\n        /* \"contracts/BlastFurnace.sol\":4288:4345  payable(msg.sender).transfer(SafeMath.sub(oreValue, fee)) */\n      0x08fc\n        /* \"contracts/BlastFurnace.sol\":4317:4344  SafeMath.sub(oreValue, fee) */\n      tag_212\n        /* \"contracts/BlastFurnace.sol\":4330:4338  oreValue */\n      dup5\n        /* \"contracts/BlastFurnace.sol\":4340:4343  fee */\n      dup5\n        /* \"contracts/BlastFurnace.sol\":4317:4329  SafeMath.sub */\n      tag_164\n        /* \"contracts/BlastFurnace.sol\":4317:4344  SafeMath.sub(oreValue, fee) */\n      jump\t// in\n    tag_212:\n        /* \"contracts/BlastFurnace.sol\":4288:4345  payable(msg.sender).transfer(SafeMath.sub(oreValue, fee)) */\n      swap1\n      dup2\n      iszero\n      mul\n      swap1\n      mload(0x40)\n      0x00\n      mload(0x40)\n      dup1\n      dup4\n      sub\n      dup2\n      dup6\n      dup9\n      dup9\n      call\n      swap4\n      pop\n      pop\n      pop\n      pop\n      iszero\n      dup1\n      iszero\n      tag_214\n      jumpi\n      returndatasize\n      0x00\n      dup1\n      returndatacopy\n      revert(0x00, returndatasize)\n    tag_214:\n      pop\n        /* \"contracts/BlastFurnace.sol\":3979:4350  {... */\n      pop\n      pop\n      pop\n        /* \"contracts/BlastFurnace.sol\":3952:4350  function sellOres() public {... */\n      jump\t// out\n        /* \"contracts/BlastClaimable.sol\":1102:1210  function setBlastClaimInterval(uint256 interval) external onlyOwner {... */\n    tag_112:\n        /* \"contracts/Ownable.sol\":417:426  isOwner() */\n      tag_216\n        /* \"contracts/Ownable.sol\":417:424  isOwner */\n      tag_98\n        /* \"contracts/Ownable.sol\":417:426  isOwner() */\n      jump\t// in\n    tag_216:\n        /* \"contracts/Ownable.sol\":409:427  require(isOwner()) */\n      tag_217\n      jumpi\n      0x00\n      dup1\n      revert\n    tag_217:\n        /* \"contracts/BlastClaimable.sol\":1197:1205  interval */\n      dup1\n        /* \"contracts/BlastClaimable.sol\":1175:1194  _blastClaimInterval */\n      0x03\n        /* \"contracts/BlastClaimable.sol\":1175:1205  _blastClaimInterval = interval */\n      dup2\n      swap1\n      sstore\n      pop\n        /* \"contracts/BlastClaimable.sol\":1102:1210  function setBlastClaimInterval(uint256 interval) external onlyOwner {... */\n      pop\n      jump\t// out\n        /* \"contracts/BlastClaimable.sol\":871:1097  function setupBlast(address blastAddr) external onlyOwner {... */\n    tag_116:\n        /* \"contracts/Ownable.sol\":417:426  isOwner() */\n      tag_220\n        /* \"contracts/Ownable.sol\":417:424  isOwner */\n      tag_98\n        /* \"contracts/Ownable.sol\":417:426  isOwner() */\n      jump\t// in\n    tag_220:\n        /* \"contracts/Ownable.sol\":409:427  require(isOwner()) */\n      tag_221\n      jumpi\n      0x00\n      dup1\n      revert\n    tag_221:\n        /* \"contracts/BlastClaimable.sol\":959:960  0 */\n      0x00\n        /* \"contracts/BlastClaimable.sol\":938:961  blastAddr == address(0) */\n      0xffffffffffffffffffffffffffffffffffffffff\n      and\n        /* \"contracts/BlastClaimable.sol\":938:947  blastAddr */\n      dup2\n        /* \"contracts/BlastClaimable.sol\":938:961  blastAddr == address(0) */\n      0xffffffffffffffffffffffffffffffffffffffff\n      and\n      sub\n        /* \"contracts/BlastClaimable.sol\":934:1029  if (blastAddr == address(0)) {... */\n      tag_223\n      jumpi\n        /* \"contracts/BlastClaimable.sol\":981:1023  0x4300000000000000000000000000000000000002 */\n      0x4300000000000000000000000000000000000002\n        /* \"contracts/BlastClaimable.sol\":969:1023  blastAddr = 0x4300000000000000000000000000000000000002 */\n      swap1\n      pop\n        /* \"contracts/BlastClaimable.sol\":934:1029  if (blastAddr == address(0)) {... */\n    tag_223:\n        /* \"contracts/BlastClaimable.sol\":1048:1057  blastAddr */\n      dup1\n        /* \"contracts/BlastClaimable.sol\":1033:1038  BLAST */\n      0x01\n      0x00\n        /* \"contracts/BlastClaimable.sol\":1033:1058  BLAST = IBlast(blastAddr) */\n      0x0100\n      exp\n      dup2\n      sload\n      dup2\n      0xffffffffffffffffffffffffffffffffffffffff\n      mul\n      not\n      and\n      swap1\n      dup4\n      0xffffffffffffffffffffffffffffffffffffffff\n      and\n      mul\n      or\n      swap1\n      sstore\n      pop\n        /* \"contracts/BlastClaimable.sol\":1063:1068  BLAST */\n      0x01\n      0x00\n      swap1\n      sload\n      swap1\n      0x0100\n      exp\n      swap1\n      div\n      0xffffffffffffffffffffffffffffffffffffffff\n      and\n        /* \"contracts/BlastClaimable.sol\":1063:1090  BLAST.configureClaimableGas */\n      0xffffffffffffffffffffffffffffffffffffffff\n      and\n      0x4e606c47\n        /* \"contracts/BlastClaimable.sol\":1063:1092  BLAST.configureClaimableGas() */\n      mload(0x40)\n      dup2\n      0xffffffff\n      and\n      0xe0\n      shl\n      dup2\n      mstore\n      0x04\n      add\n      0x00\n      mload(0x40)\n      dup1\n      dup4\n      sub\n      dup2\n      0x00\n      dup8\n      dup1\n      extcodesize\n      iszero\n      dup1\n      iszero\n      tag_224\n      jumpi\n      0x00\n      dup1\n      revert\n    tag_224:\n      pop\n      gas\n      call\n      iszero\n      dup1\n      iszero\n      tag_226\n      jumpi\n      returndatasize\n      0x00\n      dup1\n      returndatacopy\n      revert(0x00, returndatasize)\n    tag_226:\n      pop\n      pop\n      pop\n      pop\n        /* \"contracts/BlastClaimable.sol\":871:1097  function setupBlast(address blastAddr) external onlyOwner {... */\n      pop\n      jump\t// out\n        /* \"contracts/Ownable.sol\":647:747  function transferOwnership(address newOwner) public onlyOwner {... */\n    tag_120:\n        /* \"contracts/Ownable.sol\":417:426  isOwner() */\n      tag_228\n        /* \"contracts/Ownable.sol\":417:424  isOwner */\n      tag_98\n        /* \"contracts/Ownable.sol\":417:426  isOwner() */\n      jump\t// in\n    tag_228:\n        /* \"contracts/Ownable.sol\":409:427  require(isOwner()) */\n      tag_229\n      jumpi\n      0x00\n      dup1\n      revert\n    tag_229:\n        /* \"contracts/Ownable.sol\":714:742  _transferOwnership(newOwner) */\n      tag_231\n        /* \"contracts/Ownable.sol\":733:741  newOwner */\n      dup2\n        /* \"contracts/Ownable.sol\":714:732  _transferOwnership */\n      tag_232\n        /* \"contracts/Ownable.sol\":714:742  _transferOwnership(newOwner) */\n      jump\t// in\n    tag_231:\n        /* \"contracts/Ownable.sol\":647:747  function transferOwnership(address newOwner) public onlyOwner {... */\n      pop\n      jump\t// out\n        /* \"contracts/BlastFurnace.sol\":2947:3050  function ingotBalanceOf(address who) public view returns (uint256) {... */\n    tag_124:\n        /* \"contracts/BlastFurnace.sol\":3005:3012  uint256 */\n      0x00\n        /* \"contracts/BlastFurnace.sol\":3026:3040  _ingotBalances */\n      0x0f\n        /* \"contracts/BlastFurnace.sol\":3026:3045  _ingotBalances[who] */\n      0x00\n        /* \"contracts/BlastFurnace.sol\":3041:3044  who */\n      dup4\n        /* \"contracts/BlastFurnace.sol\":3026:3045  _ingotBalances[who] */\n      0xffffffffffffffffffffffffffffffffffffffff\n      and\n      0xffffffffffffffffffffffffffffffffffffffff\n      and\n      dup2\n      mstore\n      0x20\n      add\n      swap1\n      dup2\n      mstore\n      0x20\n      add\n      0x00\n      keccak256\n      sload\n        /* \"contracts/BlastFurnace.sol\":3019:3045  return _ingotBalances[who] */\n      swap1\n      pop\n        /* \"contracts/BlastFurnace.sol\":2947:3050  function ingotBalanceOf(address who) public view returns (uint256) {... */\n      swap2\n      swap1\n      pop\n      jump\t// out\n        /* \"contracts/libraries/SafeMath.sol\":2070:2159  function add(uint256 a, uint256 b) internal pure returns (uint256) {... */\n    tag_130:\n        /* \"contracts/libraries/SafeMath.sol\":2128:2135  uint256 */\n      0x00\n        /* \"contracts/libraries/SafeMath.sol\":2153:2154  b */\n      dup2\n        /* \"contracts/libraries/SafeMath.sol\":2149:2150  a */\n      dup4\n        /* \"contracts/libraries/SafeMath.sol\":2149:2154  a + b */\n      tag_235\n      swap2\n      swap1\n      tag_133\n      jump\t// in\n    tag_235:\n        /* \"contracts/libraries/SafeMath.sol\":2142:2154  return a + b */\n      swap1\n      pop\n        /* \"contracts/libraries/SafeMath.sol\":2070:2159  function add(uint256 a, uint256 b) internal pure returns (uint256) {... */\n      swap3\n      swap2\n      pop\n      pop\n      jump\t// out\n        /* \"contracts/BlastFurnace.sol\":7738:7839  function blastFeesClaimed(uint256 value) internal virtual override {... */\n    tag_144:\n        /* \"contracts/BlastFurnace.sol\":7810:7834  _distributeNative(value) */\n      tag_237\n        /* \"contracts/BlastFurnace.sol\":7828:7833  value */\n      dup2\n        /* \"contracts/BlastFurnace.sol\":7810:7827  _distributeNative */\n      tag_238\n        /* \"contracts/BlastFurnace.sol\":7810:7834  _distributeNative(value) */\n      jump\t// in\n    tag_237:\n        /* \"contracts/BlastFurnace.sol\":7738:7839  function blastFeesClaimed(uint256 value) internal virtual override {... */\n      pop\n      jump\t// out\n        /* \"contracts/BlastFurnace.sol\":4993:5235  function calculateTrade(uint256 rt, uint256 rs, uint256 bs) private view returns (uint256) {... */\n    tag_152:\n        /* \"contracts/BlastFurnace.sol\":5075:5082  uint256 */\n      0x00\n        /* \"contracts/BlastFurnace.sol\":5096:5230  SafeMath.div(SafeMath.mul(PSN, bs), SafeMath.add(PSNH, SafeMath.div(SafeMath.add(SafeMath.mul(PSN, rs), SafeMath.mul(PSNH, rt)), rt))) */\n      tag_240\n        /* \"contracts/BlastFurnace.sol\":5109:5130  SafeMath.mul(PSN, bs) */\n      tag_241\n        /* \"contracts/BlastFurnace.sol\":5122:5125  PSN */\n      sload(0x06)\n        /* \"contracts/BlastFurnace.sol\":5127:5129  bs */\n      dup5\n        /* \"contracts/BlastFurnace.sol\":5109:5121  SafeMath.mul */\n      tag_168\n        /* \"contracts/BlastFurnace.sol\":5109:5130  SafeMath.mul(PSN, bs) */\n      jump\t// in\n    tag_241:\n        /* \"contracts/BlastFurnace.sol\":5132:5229  SafeMath.add(PSNH, SafeMath.div(SafeMath.add(SafeMath.mul(PSN, rs), SafeMath.mul(PSNH, rt)), rt)) */\n      tag_242\n        /* \"contracts/BlastFurnace.sol\":5145:5149  PSNH */\n      sload(0x07)\n        /* \"contracts/BlastFurnace.sol\":5151:5228  SafeMath.div(SafeMath.add(SafeMath.mul(PSN, rs), SafeMath.mul(PSNH, rt)), rt) */\n      tag_243\n        /* \"contracts/BlastFurnace.sol\":5164:5223  SafeMath.add(SafeMath.mul(PSN, rs), SafeMath.mul(PSNH, rt)) */\n      tag_244\n        /* \"contracts/BlastFurnace.sol\":5177:5198  SafeMath.mul(PSN, rs) */\n      tag_245\n        /* \"contracts/BlastFurnace.sol\":5190:5193  PSN */\n      sload(0x06)\n        /* \"contracts/BlastFurnace.sol\":5195:5197  rs */\n      dup11\n        /* \"contracts/BlastFurnace.sol\":5177:5189  SafeMath.mul */\n      tag_168\n        /* \"contracts/BlastFurnace.sol\":5177:5198  SafeMath.mul(PSN, rs) */\n      jump\t// in\n    tag_245:\n        /* \"contracts/BlastFurnace.sol\":5200:5222  SafeMath.mul(PSNH, rt) */\n      tag_246\n        /* \"contracts/BlastFurnace.sol\":5213:5217  PSNH */\n      sload(0x07)\n        /* \"contracts/BlastFurnace.sol\":5219:5221  rt */\n      dup13\n        /* \"contracts/BlastFurnace.sol\":5200:5212  SafeMath.mul */\n      tag_168\n        /* \"contracts/BlastFurnace.sol\":5200:5222  SafeMath.mul(PSNH, rt) */\n      jump\t// in\n    tag_246:\n        /* \"contracts/BlastFurnace.sol\":5164:5176  SafeMath.add */\n      tag_130\n        /* \"contracts/BlastFurnace.sol\":5164:5223  SafeMath.add(SafeMath.mul(PSN, rs), SafeMath.mul(PSNH, rt)) */\n      jump\t// in\n    tag_244:\n        /* \"contracts/BlastFurnace.sol\":5225:5227  rt */\n      dup10\n        /* \"contracts/BlastFurnace.sol\":5151:5163  SafeMath.div */\n      tag_170\n        /* \"contracts/BlastFurnace.sol\":5151:5228  SafeMath.div(SafeMath.add(SafeMath.mul(PSN, rs), SafeMath.mul(PSNH, rt)), rt) */\n      jump\t// in\n    tag_243:\n        /* \"contracts/BlastFurnace.sol\":5132:5144  SafeMath.add */\n      tag_130\n        /* \"contracts/BlastFurnace.sol\":5132:5229  SafeMath.add(PSNH, SafeMath.div(SafeMath.add(SafeMath.mul(PSN, rs), SafeMath.mul(PSNH, rt)), rt)) */\n      jump\t// in\n    tag_242:\n        /* \"contracts/BlastFurnace.sol\":5096:5108  SafeMath.div */\n      tag_170\n        /* \"contracts/BlastFurnace.sol\":5096:5230  SafeMath.div(SafeMath.mul(PSN, bs), SafeMath.add(PSNH, SafeMath.div(SafeMath.add(SafeMath.mul(PSN, rs), SafeMath.mul(PSNH, rt)), rt))) */\n      jump\t// in\n    tag_240:\n        /* \"contracts/BlastFurnace.sol\":5089:5230  return SafeMath.div(SafeMath.mul(PSN, bs), SafeMath.add(PSNH, SafeMath.div(SafeMath.add(SafeMath.mul(PSN, rs), SafeMath.mul(PSNH, rt)), rt))) */\n      swap1\n      pop\n        /* \"contracts/BlastFurnace.sol\":4993:5235  function calculateTrade(uint256 rt, uint256 rs, uint256 bs) private view returns (uint256) {... */\n      swap4\n      swap3\n      pop\n      pop\n      pop\n      jump\t// out\n        /* \"contracts/libraries/SafeMath.sol\":2409:2498  function sub(uint256 a, uint256 b) internal pure returns (uint256) {... */\n    tag_164:\n        /* \"contracts/libraries/SafeMath.sol\":2467:2474  uint256 */\n      0x00\n        /* \"contracts/libraries/SafeMath.sol\":2492:2493  b */\n      dup2\n        /* \"contracts/libraries/SafeMath.sol\":2488:2489  a */\n      dup4\n        /* \"contracts/libraries/SafeMath.sol\":2488:2493  a - b */\n      tag_248\n      swap2\n      swap1\n      tag_249\n      jump\t// in\n    tag_248:\n        /* \"contracts/libraries/SafeMath.sol\":2481:2493  return a - b */\n      swap1\n      pop\n        /* \"contracts/libraries/SafeMath.sol\":2409:2498  function sub(uint256 a, uint256 b) internal pure returns (uint256) {... */\n      swap3\n      swap2\n      pop\n      pop\n      jump\t// out\n        /* \"contracts/BlastFurnace.sol\":6771:6867  function min(uint256 a, uint256 b) private pure returns (uint256) {... */\n    tag_165:\n        /* \"contracts/BlastFurnace.sol\":6828:6835  uint256 */\n      0x00\n        /* \"contracts/BlastFurnace.sol\":6853:6854  b */\n      dup2\n        /* \"contracts/BlastFurnace.sol\":6849:6850  a */\n      dup4\n        /* \"contracts/BlastFurnace.sol\":6849:6854  a < b */\n      lt\n        /* \"contracts/BlastFurnace.sol\":6849:6862  a < b ? a : b */\n      tag_251\n      jumpi\n        /* \"contracts/BlastFurnace.sol\":6861:6862  b */\n      dup2\n        /* \"contracts/BlastFurnace.sol\":6849:6862  a < b ? a : b */\n      jump(tag_252)\n    tag_251:\n        /* \"contracts/BlastFurnace.sol\":6857:6858  a */\n      dup3\n        /* \"contracts/BlastFurnace.sol\":6849:6862  a < b ? a : b */\n    tag_252:\n        /* \"contracts/BlastFurnace.sol\":6842:6862  return a < b ? a : b */\n      swap1\n      pop\n        /* \"contracts/BlastFurnace.sol\":6771:6867  function min(uint256 a, uint256 b) private pure returns (uint256) {... */\n      swap3\n      swap2\n      pop\n      pop\n      jump\t// out\n        /* \"contracts/libraries/SafeMath.sol\":2724:2813  function mul(uint256 a, uint256 b) internal pure returns (uint256) {... */\n    tag_168:\n        /* \"contracts/libraries/SafeMath.sol\":2782:2789  uint256 */\n      0x00\n        /* \"contracts/libraries/SafeMath.sol\":2807:2808  b */\n      dup2\n        /* \"contracts/libraries/SafeMath.sol\":2803:2804  a */\n      dup4\n        /* \"contracts/libraries/SafeMath.sol\":2803:2808  a * b */\n      tag_254\n      swap2\n      swap1\n      tag_255\n      jump\t// in\n    tag_254:\n        /* \"contracts/libraries/SafeMath.sol\":2796:2808  return a * b */\n      swap1\n      pop\n        /* \"contracts/libraries/SafeMath.sol\":2724:2813  function mul(uint256 a, uint256 b) internal pure returns (uint256) {... */\n      swap3\n      swap2\n      pop\n      pop\n      jump\t// out\n        /* \"contracts/libraries/SafeMath.sol\":3081:3170  function div(uint256 a, uint256 b) internal pure returns (uint256) {... */\n    tag_170:\n        /* \"contracts/libraries/SafeMath.sol\":3139:3146  uint256 */\n      0x00\n        /* \"contracts/libraries/SafeMath.sol\":3164:3165  b */\n      dup2\n        /* \"contracts/libraries/SafeMath.sol\":3160:3161  a */\n      dup4\n        /* \"contracts/libraries/SafeMath.sol\":3160:3165  a / b */\n      tag_257\n      swap2\n      swap1\n      tag_258\n      jump\t// in\n    tag_257:\n        /* \"contracts/libraries/SafeMath.sol\":3153:3165  return a / b */\n      swap1\n      pop\n        /* \"contracts/libraries/SafeMath.sol\":3081:3170  function div(uint256 a, uint256 b) internal pure returns (uint256) {... */\n      swap3\n      swap2\n      pop\n      pop\n      jump\t// out\n        /* \"contracts/BlastFurnace.sol\":5689:5819  function devFee(uint256 amount) private view returns (uint256) {... */\n    tag_189:\n        /* \"contracts/BlastFurnace.sol\":5743:5750  uint256 */\n      0x00\n        /* \"contracts/BlastFurnace.sol\":5764:5814  SafeMath.div(SafeMath.mul(amount, devFeeVal), 100) */\n      tag_260\n        /* \"contracts/BlastFurnace.sol\":5777:5808  SafeMath.mul(amount, devFeeVal) */\n      tag_261\n        /* \"contracts/BlastFurnace.sol\":5790:5796  amount */\n      dup4\n        /* \"contracts/BlastFurnace.sol\":5798:5807  devFeeVal */\n      sload(0x08)\n        /* \"contracts/BlastFurnace.sol\":5777:5789  SafeMath.mul */\n      tag_168\n        /* \"contracts/BlastFurnace.sol\":5777:5808  SafeMath.mul(amount, devFeeVal) */\n      jump\t// in\n    tag_261:\n        /* \"contracts/BlastFurnace.sol\":5810:5813  100 */\n      0x64\n        /* \"contracts/BlastFurnace.sol\":5764:5776  SafeMath.div */\n      tag_170\n        /* \"contracts/BlastFurnace.sol\":5764:5814  SafeMath.div(SafeMath.mul(amount, devFeeVal), 100) */\n      jump\t// in\n    tag_260:\n        /* \"contracts/BlastFurnace.sol\":5757:5814  return SafeMath.div(SafeMath.mul(amount, devFeeVal), 100) */\n      swap1\n      pop\n        /* \"contracts/BlastFurnace.sol\":5689:5819  function devFee(uint256 amount) private view returns (uint256) {... */\n      swap2\n      swap1\n      pop\n      jump\t// out\n        /* \"contracts/BlastFurnace.sol\":7844:7959  function _addClaimed(address addr, uint256 value) private {... */\n    tag_194:\n        /* \"contracts/BlastFurnace.sol\":7907:7954  _setClaimed(addr, claimedOres[addr].add(value)) */\n      tag_263\n        /* \"contracts/BlastFurnace.sol\":7919:7923  addr */\n      dup3\n        /* \"contracts/BlastFurnace.sol\":7925:7953  claimedOres[addr].add(value) */\n      tag_264\n        /* \"contracts/BlastFurnace.sol\":7947:7952  value */\n      dup4\n        /* \"contracts/BlastFurnace.sol\":7925:7936  claimedOres */\n      0x0b\n        /* \"contracts/BlastFurnace.sol\":7925:7942  claimedOres[addr] */\n      0x00\n        /* \"contracts/BlastFurnace.sol\":7937:7941  addr */\n      dup8\n        /* \"contracts/BlastFurnace.sol\":7925:7942  claimedOres[addr] */\n      0xffffffffffffffffffffffffffffffffffffffff\n      and\n      0xffffffffffffffffffffffffffffffffffffffff\n      and\n      dup2\n      mstore\n      0x20\n      add\n      swap1\n      dup2\n      mstore\n      0x20\n      add\n      0x00\n      keccak256\n      sload\n        /* \"contracts/BlastFurnace.sol\":7925:7946  claimedOres[addr].add */\n      tag_130\n      swap1\n        /* \"contracts/BlastFurnace.sol\":7925:7953  claimedOres[addr].add(value) */\n      swap2\n      swap1\n      0xffffffff\n      and\n      jump\t// in\n    tag_264:\n        /* \"contracts/BlastFurnace.sol\":7907:7918  _setClaimed */\n      tag_208\n        /* \"contracts/BlastFurnace.sol\":7907:7954  _setClaimed(addr, claimedOres[addr].add(value)) */\n      jump\t// in\n    tag_263:\n        /* \"contracts/BlastFurnace.sol\":7844:7959  function _addClaimed(address addr, uint256 value) private {... */\n      pop\n      pop\n      jump\t// out\n        /* \"contracts/BlastFurnace.sol\":3055:3947  function _hatchOres(address ref, uint256 amount) private {... */\n    tag_196:\n        /* \"contracts/BlastFurnace.sol\":3125:3136  initialized */\n      0x09\n      0x00\n      swap1\n      sload\n      swap1\n      0x0100\n      exp\n      swap1\n      div\n      0xff\n      and\n        /* \"contracts/BlastFurnace.sol\":3117:3137  require(initialized) */\n      tag_266\n      jumpi\n      0x00\n      dup1\n      revert\n    tag_266:\n        /* \"contracts/BlastFurnace.sol\":3155:3165  msg.sender */\n      caller\n        /* \"contracts/BlastFurnace.sol\":3148:3165  ref == msg.sender */\n      0xffffffffffffffffffffffffffffffffffffffff\n      and\n        /* \"contracts/BlastFurnace.sol\":3148:3151  ref */\n      dup3\n        /* \"contracts/BlastFurnace.sol\":3148:3165  ref == msg.sender */\n      0xffffffffffffffffffffffffffffffffffffffff\n      and\n      sub\n        /* \"contracts/BlastFurnace.sol\":3144:3195  if (ref == msg.sender) {... */\n      tag_267\n      jumpi\n        /* \"contracts/BlastFurnace.sol\":3187:3188  0 */\n      0x00\n        /* \"contracts/BlastFurnace.sol\":3173:3189  ref = address(0) */\n      swap2\n      pop\n        /* \"contracts/BlastFurnace.sol\":3144:3195  if (ref == msg.sender) {... */\n    tag_267:\n        /* \"contracts/BlastFurnace.sol\":3238:3239  0 */\n      0x00\n        /* \"contracts/BlastFurnace.sol\":3205:3240  referrals[msg.sender] == address(0) */\n      0xffffffffffffffffffffffffffffffffffffffff\n      and\n        /* \"contracts/BlastFurnace.sol\":3205:3214  referrals */\n      0x0d\n        /* \"contracts/BlastFurnace.sol\":3205:3226  referrals[msg.sender] */\n      0x00\n        /* \"contracts/BlastFurnace.sol\":3215:3225  msg.sender */\n      caller\n        /* \"contracts/BlastFurnace.sol\":3205:3226  referrals[msg.sender] */\n      0xffffffffffffffffffffffffffffffffffffffff\n      and\n      0xffffffffffffffffffffffffffffffffffffffff\n      and\n      dup2\n      mstore\n      0x20\n      add\n      swap1\n      dup2\n      mstore\n      0x20\n      add\n      0x00\n      keccak256\n      0x00\n      swap1\n      sload\n      swap1\n      0x0100\n      exp\n      swap1\n      div\n      0xffffffffffffffffffffffffffffffffffffffff\n      and\n        /* \"contracts/BlastFurnace.sol\":3205:3240  referrals[msg.sender] == address(0) */\n      0xffffffffffffffffffffffffffffffffffffffff\n      and\n      eq\n        /* \"contracts/BlastFurnace.sol\":3205:3279  referrals[msg.sender] == address(0) && referrals[msg.sender] != msg.sender */\n      dup1\n      iszero\n      tag_268\n      jumpi\n      pop\n        /* \"contracts/BlastFurnace.sol\":3269:3279  msg.sender */\n      caller\n        /* \"contracts/BlastFurnace.sol\":3244:3279  referrals[msg.sender] != msg.sender */\n      0xffffffffffffffffffffffffffffffffffffffff\n      and\n        /* \"contracts/BlastFurnace.sol\":3244:3253  referrals */\n      0x0d\n        /* \"contracts/BlastFurnace.sol\":3244:3265  referrals[msg.sender] */\n      0x00\n        /* \"contracts/BlastFurnace.sol\":3254:3264  msg.sender */\n      caller\n        /* \"contracts/BlastFurnace.sol\":3244:3265  referrals[msg.sender] */\n      0xffffffffffffffffffffffffffffffffffffffff\n      and\n      0xffffffffffffffffffffffffffffffffffffffff\n      and\n      dup2\n      mstore\n      0x20\n      add\n      swap1\n      dup2\n      mstore\n      0x20\n      add\n      0x00\n      keccak256\n      0x00\n      swap1\n      sload\n      swap1\n      0x0100\n      exp\n      swap1\n      div\n      0xffffffffffffffffffffffffffffffffffffffff\n      and\n        /* \"contracts/BlastFurnace.sol\":3244:3279  referrals[msg.sender] != msg.sender */\n      0xffffffffffffffffffffffffffffffffffffffff\n      and\n      eq\n      iszero\n        /* \"contracts/BlastFurnace.sol\":3205:3279  referrals[msg.sender] == address(0) && referrals[msg.sender] != msg.sender */\n    tag_268:\n        /* \"contracts/BlastFurnace.sol\":3201:3474  if (referrals[msg.sender] == address(0) && referrals[msg.sender] != msg.sender) {... */\n      iszero\n      tag_269\n      jumpi\n        /* \"contracts/BlastFurnace.sol\":3311:3314  ref */\n      dup2\n        /* \"contracts/BlastFurnace.sol\":3287:3296  referrals */\n      0x0d\n        /* \"contracts/BlastFurnace.sol\":3287:3308  referrals[msg.sender] */\n      0x00\n        /* \"contracts/BlastFurnace.sol\":3297:3307  msg.sender */\n      caller\n        /* \"contracts/BlastFurnace.sol\":3287:3308  referrals[msg.sender] */\n      0xffffffffffffffffffffffffffffffffffffffff\n      and\n      0xffffffffffffffffffffffffffffffffffffffff\n      and\n      dup2\n      mstore\n      0x20\n      add\n      swap1\n      dup2\n      mstore\n      0x20\n      add\n      0x00\n      keccak256\n      0x00\n        /* \"contracts/BlastFurnace.sol\":3287:3314  referrals[msg.sender] = ref */\n      0x0100\n      exp\n      dup2\n      sload\n      dup2\n      0xffffffffffffffffffffffffffffffffffffffff\n      mul\n      not\n      and\n      swap1\n      dup4\n      0xffffffffffffffffffffffffffffffffffffffff\n      and\n      mul\n      or\n      swap1\n      sstore\n      pop\n        /* \"contracts/BlastFurnace.sol\":3336:3340  1e18 */\n      0x0de0b6b3a7640000\n        /* \"contracts/BlastFurnace.sol\":3326:3332  amount */\n      dup2\n        /* \"contracts/BlastFurnace.sol\":3326:3340  amount >= 1e18 */\n      lt\n        /* \"contracts/BlastFurnace.sol\":3322:3469  if (amount >= 1e18) {... */\n      tag_270\n      jumpi\n        /* \"contracts/BlastFurnace.sol\":3349:3382  _addIngots(ref, BIG_INGOT_REWARD) */\n      tag_271\n        /* \"contracts/BlastFurnace.sol\":3360:3363  ref */\n      dup3\n        /* \"contracts/BlastFurnace.sol\":2059:2062  200 */\n      0xc8\n        /* \"contracts/BlastFurnace.sol\":3349:3359  _addIngots */\n      tag_199\n        /* \"contracts/BlastFurnace.sol\":3349:3382  _addIngots(ref, BIG_INGOT_REWARD) */\n      jump\t// in\n    tag_271:\n        /* \"contracts/BlastFurnace.sol\":3322:3469  if (amount >= 1e18) {... */\n      jump(tag_272)\n    tag_270:\n        /* \"contracts/BlastFurnace.sol\":3409:3414  .1e18 */\n      0x016345785d8a0000\n        /* \"contracts/BlastFurnace.sol\":3399:3405  amount */\n      dup2\n        /* \"contracts/BlastFurnace.sol\":3399:3414  amount >= .1e18 */\n      lt\n        /* \"contracts/BlastFurnace.sol\":3395:3469  if (amount >= .1e18) {... */\n      tag_273\n      jumpi\n        /* \"contracts/BlastFurnace.sol\":3423:3462  _addIngots(ref, SMALL_REF_INGOT_REWARD) */\n      tag_274\n        /* \"contracts/BlastFurnace.sol\":3434:3437  ref */\n      dup3\n        /* \"contracts/BlastFurnace.sol\":2116:2118  40 */\n      0x28\n        /* \"contracts/BlastFurnace.sol\":3423:3433  _addIngots */\n      tag_199\n        /* \"contracts/BlastFurnace.sol\":3423:3462  _addIngots(ref, SMALL_REF_INGOT_REWARD) */\n      jump\t// in\n    tag_274:\n        /* \"contracts/BlastFurnace.sol\":3395:3469  if (amount >= .1e18) {... */\n    tag_273:\n        /* \"contracts/BlastFurnace.sol\":3322:3469  if (amount >= 1e18) {... */\n    tag_272:\n        /* \"contracts/BlastFurnace.sol\":3201:3474  if (referrals[msg.sender] == address(0) && referrals[msg.sender] != msg.sender) {... */\n    tag_269:\n        /* \"contracts/BlastFurnace.sol\":3480:3496  uint256 oresUsed */\n      0x00\n        /* \"contracts/BlastFurnace.sol\":3499:3520  getMyOres(msg.sender) */\n      tag_275\n        /* \"contracts/BlastFurnace.sol\":3509:3519  msg.sender */\n      caller\n        /* \"contracts/BlastFurnace.sol\":3499:3508  getMyOres */\n      tag_36\n        /* \"contracts/BlastFurnace.sol\":3499:3520  getMyOres(msg.sender) */\n      jump\t// in\n    tag_275:\n        /* \"contracts/BlastFurnace.sol\":3480:3520  uint256 oresUsed = getMyOres(msg.sender) */\n      swap1\n      pop\n        /* \"contracts/BlastFurnace.sol\":3525:3542  uint256 newMiners */\n      0x00\n        /* \"contracts/BlastFurnace.sol\":3545:3590  SafeMath.div(oresUsed, ORES_TO_HATCH_1MINERS) */\n      tag_276\n        /* \"contracts/BlastFurnace.sol\":3558:3566  oresUsed */\n      dup3\n        /* \"contracts/BlastFurnace.sol\":3568:3589  ORES_TO_HATCH_1MINERS */\n      sload(0x05)\n        /* \"contracts/BlastFurnace.sol\":3545:3557  SafeMath.div */\n      tag_170\n        /* \"contracts/BlastFurnace.sol\":3545:3590  SafeMath.div(oresUsed, ORES_TO_HATCH_1MINERS) */\n      jump\t// in\n    tag_276:\n        /* \"contracts/BlastFurnace.sol\":3525:3590  uint256 newMiners = SafeMath.div(oresUsed, ORES_TO_HATCH_1MINERS) */\n      swap1\n      pop\n        /* \"contracts/BlastFurnace.sol\":3624:3675  SafeMath.add(hatcheryMiners[msg.sender], newMiners) */\n      tag_277\n        /* \"contracts/BlastFurnace.sol\":3637:3651  hatcheryMiners */\n      0x0a\n        /* \"contracts/BlastFurnace.sol\":3637:3663  hatcheryMiners[msg.sender] */\n      0x00\n        /* \"contracts/BlastFurnace.sol\":3652:3662  msg.sender */\n      caller\n        /* \"contracts/BlastFurnace.sol\":3637:3663  hatcheryMiners[msg.sender] */\n      0xffffffffffffffffffffffffffffffffffffffff\n      and\n      0xffffffffffffffffffffffffffffffffffffffff\n      and\n      dup2\n      mstore\n      0x20\n      add\n      swap1\n      dup2\n      mstore\n      0x20\n      add\n      0x00\n      keccak256\n      sload\n        /* \"contracts/BlastFurnace.sol\":3665:3674  newMiners */\n      dup3\n        /* \"contracts/BlastFurnace.sol\":3624:3636  SafeMath.add */\n      tag_130\n        /* \"contracts/BlastFurnace.sol\":3624:3675  SafeMath.add(hatcheryMiners[msg.sender], newMiners) */\n      jump\t// in\n    tag_277:\n        /* \"contracts/BlastFurnace.sol\":3595:3609  hatcheryMiners */\n      0x0a\n        /* \"contracts/BlastFurnace.sol\":3595:3621  hatcheryMiners[msg.sender] */\n      0x00\n        /* \"contracts/BlastFurnace.sol\":3610:3620  msg.sender */\n      caller\n        /* \"contracts/BlastFurnace.sol\":3595:3621  hatcheryMiners[msg.sender] */\n      0xffffffffffffffffffffffffffffffffffffffff\n      and\n      0xffffffffffffffffffffffffffffffffffffffff\n      and\n      dup2\n      mstore\n      0x20\n      add\n      swap1\n      dup2\n      mstore\n      0x20\n      add\n      0x00\n      keccak256\n        /* \"contracts/BlastFurnace.sol\":3595:3675  hatcheryMiners[msg.sender] = SafeMath.add(hatcheryMiners[msg.sender], newMiners) */\n      dup2\n      swap1\n      sstore\n      pop\n        /* \"contracts/BlastFurnace.sol\":3680:3706  _setClaimed(msg.sender, 0) */\n      tag_278\n        /* \"contracts/BlastFurnace.sol\":3692:3702  msg.sender */\n      caller\n        /* \"contracts/BlastFurnace.sol\":3704:3705  0 */\n      0x00\n        /* \"contracts/BlastFurnace.sol\":3680:3691  _setClaimed */\n      tag_208\n        /* \"contracts/BlastFurnace.sol\":3680:3706  _setClaimed(msg.sender, 0) */\n      jump\t// in\n    tag_278:\n        /* \"contracts/BlastFurnace.sol\":3735:3750  block.timestamp */\n      timestamp\n        /* \"contracts/BlastFurnace.sol\":3711:3720  lastHatch */\n      0x0c\n        /* \"contracts/BlastFurnace.sol\":3711:3732  lastHatch[msg.sender] */\n      0x00\n        /* \"contracts/BlastFurnace.sol\":3721:3731  msg.sender */\n      caller\n        /* \"contracts/BlastFurnace.sol\":3711:3732  lastHatch[msg.sender] */\n      0xffffffffffffffffffffffffffffffffffffffff\n      and\n      0xffffffffffffffffffffffffffffffffffffffff\n      and\n      dup2\n      mstore\n      0x20\n      add\n      swap1\n      dup2\n      mstore\n      0x20\n      add\n      0x00\n      keccak256\n        /* \"contracts/BlastFurnace.sol\":3711:3750  lastHatch[msg.sender] = block.timestamp */\n      dup2\n      swap1\n      sstore\n      pop\n        /* \"contracts/BlastFurnace.sol\":3781:3829  _rewardReferral(referrals[msg.sender], oresUsed) */\n      tag_279\n        /* \"contracts/BlastFurnace.sol\":3797:3806  referrals */\n      0x0d\n        /* \"contracts/BlastFurnace.sol\":3797:3818  referrals[msg.sender] */\n      0x00\n        /* \"contracts/BlastFurnace.sol\":3807:3817  msg.sender */\n      caller\n        /* \"contracts/BlastFurnace.sol\":3797:3818  referrals[msg.sender] */\n      0xffffffffffffffffffffffffffffffffffffffff\n      and\n      0xffffffffffffffffffffffffffffffffffffffff\n      and\n      dup2\n      mstore\n      0x20\n      add\n      swap1\n      dup2\n      mstore\n      0x20\n      add\n      0x00\n      keccak256\n      0x00\n      swap1\n      sload\n      swap1\n      0x0100\n      exp\n      swap1\n      div\n      0xffffffffffffffffffffffffffffffffffffffff\n      and\n        /* \"contracts/BlastFurnace.sol\":3820:3828  oresUsed */\n      dup4\n        /* \"contracts/BlastFurnace.sol\":3781:3796  _rewardReferral */\n      tag_280\n        /* \"contracts/BlastFurnace.sol\":3781:3829  _rewardReferral(referrals[msg.sender], oresUsed) */\n      jump\t// in\n    tag_279:\n        /* \"contracts/BlastFurnace.sol\":3891:3942  SafeMath.add(marketOres, SafeMath.div(oresUsed, 5)) */\n      tag_281\n        /* \"contracts/BlastFurnace.sol\":3904:3914  marketOres */\n      sload(0x0e)\n        /* \"contracts/BlastFurnace.sol\":3916:3941  SafeMath.div(oresUsed, 5) */\n      tag_282\n        /* \"contracts/BlastFurnace.sol\":3929:3937  oresUsed */\n      dup5\n        /* \"contracts/BlastFurnace.sol\":3939:3940  5 */\n      0x05\n        /* \"contracts/BlastFurnace.sol\":3916:3928  SafeMath.div */\n      tag_170\n        /* \"contracts/BlastFurnace.sol\":3916:3941  SafeMath.div(oresUsed, 5) */\n      jump\t// in\n    tag_282:\n        /* \"contracts/BlastFurnace.sol\":3891:3903  SafeMath.add */\n      tag_130\n        /* \"contracts/BlastFurnace.sol\":3891:3942  SafeMath.add(marketOres, SafeMath.div(oresUsed, 5)) */\n      jump\t// in\n    tag_281:\n        /* \"contracts/BlastFurnace.sol\":3878:3888  marketOres */\n      0x0e\n        /* \"contracts/BlastFurnace.sol\":3878:3942  marketOres = SafeMath.add(marketOres, SafeMath.div(oresUsed, 5)) */\n      dup2\n      swap1\n      sstore\n      pop\n        /* \"contracts/BlastFurnace.sol\":3112:3947  {... */\n      pop\n      pop\n        /* \"contracts/BlastFurnace.sol\":3055:3947  function _hatchOres(address ref, uint256 amount) private {... */\n      pop\n      pop\n      jump\t// out\n        /* \"contracts/BlastFurnace.sol\":6872:7091  function _addIngots(address addr, uint256 amount) private {... */\n    tag_199:\n        /* \"contracts/BlastFurnace.sol\":6935:6950  uint256 balance */\n      0x00\n        /* \"contracts/BlastFurnace.sol\":6953:6985  _ingotBalances[addr].add(amount) */\n      tag_284\n        /* \"contracts/BlastFurnace.sol\":6978:6984  amount */\n      dup3\n        /* \"contracts/BlastFurnace.sol\":6953:6967  _ingotBalances */\n      0x0f\n        /* \"contracts/BlastFurnace.sol\":6953:6973  _ingotBalances[addr] */\n      0x00\n        /* \"contracts/BlastFurnace.sol\":6968:6972  addr */\n      dup7\n        /* \"contracts/BlastFurnace.sol\":6953:6973  _ingotBalances[addr] */\n      0xffffffffffffffffffffffffffffffffffffffff\n      and\n      0xffffffffffffffffffffffffffffffffffffffff\n      and\n      dup2\n      mstore\n      0x20\n      add\n      swap1\n      dup2\n      mstore\n      0x20\n      add\n      0x00\n      keccak256\n      sload\n        /* \"contracts/BlastFurnace.sol\":6953:6977  _ingotBalances[addr].add */\n      tag_130\n      swap1\n        /* \"contracts/BlastFurnace.sol\":6953:6985  _ingotBalances[addr].add(amount) */\n      swap2\n      swap1\n      0xffffffff\n      and\n      jump\t// in\n    tag_284:\n        /* \"contracts/BlastFurnace.sol\":6935:6985  uint256 balance = _ingotBalances[addr].add(amount) */\n      swap1\n      pop\n        /* \"contracts/BlastFurnace.sol\":2006:2011  10000 */\n      0x2710\n        /* \"contracts/BlastFurnace.sol\":6996:7003  balance */\n      dup2\n        /* \"contracts/BlastFurnace.sol\":6996:7016  balance > MAX_INGOTS */\n      gt\n        /* \"contracts/BlastFurnace.sol\":6992:7050  if (balance > MAX_INGOTS) {... */\n      iszero\n      tag_285\n      jumpi\n        /* \"contracts/BlastFurnace.sol\":2006:2011  10000 */\n      0x2710\n        /* \"contracts/BlastFurnace.sol\":7024:7044  balance = MAX_INGOTS */\n      swap1\n      pop\n        /* \"contracts/BlastFurnace.sol\":6992:7050  if (balance > MAX_INGOTS) {... */\n    tag_285:\n        /* \"contracts/BlastFurnace.sol\":7079:7086  balance */\n      dup1\n        /* \"contracts/BlastFurnace.sol\":7056:7070  _ingotBalances */\n      0x0f\n        /* \"contracts/BlastFurnace.sol\":7056:7076  _ingotBalances[addr] */\n      0x00\n        /* \"contracts/BlastFurnace.sol\":7071:7075  addr */\n      dup6\n        /* \"contracts/BlastFurnace.sol\":7056:7076  _ingotBalances[addr] */\n      0xffffffffffffffffffffffffffffffffffffffff\n      and\n      0xffffffffffffffffffffffffffffffffffffffff\n      and\n      dup2\n      mstore\n      0x20\n      add\n      swap1\n      dup2\n      mstore\n      0x20\n      add\n      0x00\n      keccak256\n        /* \"contracts/BlastFurnace.sol\":7056:7086  _ingotBalances[addr] = balance */\n      dup2\n      swap1\n      sstore\n      pop\n        /* \"contracts/BlastFurnace.sol\":6930:7091  {... */\n      pop\n        /* \"contracts/BlastFurnace.sol\":6872:7091  function _addIngots(address addr, uint256 amount) private {... */\n      pop\n      pop\n      jump\t// out\n        /* \"contracts/BlastFurnace.sol\":7964:8151  function _setClaimed(address addr, uint256 value) private {... */\n    tag_208:\n        /* \"contracts/BlastFurnace.sol\":8050:8054  true */\n      0x01\n        /* \"contracts/BlastFurnace.sol\":8031:8054  _isHolder[addr] != true */\n      iszero\n      iszero\n        /* \"contracts/BlastFurnace.sol\":8031:8040  _isHolder */\n      0x11\n        /* \"contracts/BlastFurnace.sol\":8031:8046  _isHolder[addr] */\n      0x00\n        /* \"contracts/BlastFurnace.sol\":8041:8045  addr */\n      dup5\n        /* \"contracts/BlastFurnace.sol\":8031:8046  _isHolder[addr] */\n      0xffffffffffffffffffffffffffffffffffffffff\n      and\n      0xffffffffffffffffffffffffffffffffffffffff\n      and\n      dup2\n      mstore\n      0x20\n      add\n      swap1\n      dup2\n      mstore\n      0x20\n      add\n      0x00\n      keccak256\n      0x00\n      swap1\n      sload\n      swap1\n      0x0100\n      exp\n      swap1\n      div\n      0xff\n      and\n        /* \"contracts/BlastFurnace.sol\":8031:8054  _isHolder[addr] != true */\n      iszero\n      iszero\n      eq\n        /* \"contracts/BlastFurnace.sol\":8027:8115  if (_isHolder[addr] != true) {... */\n      tag_287\n      jumpi\n        /* \"contracts/BlastFurnace.sol\":8062:8070  _holders */\n      0x10\n        /* \"contracts/BlastFurnace.sol\":8076:8080  addr */\n      dup3\n        /* \"contracts/BlastFurnace.sol\":8062:8081  _holders.push(addr) */\n      swap1\n      dup1\n      0x01\n      dup2\n      sload\n      add\n      dup1\n      dup3\n      sstore\n      dup1\n      swap2\n      pop\n      pop\n      0x01\n      swap1\n      sub\n      swap1\n      0x00\n      mstore\n      keccak256(0x00, 0x20)\n      add\n      0x00\n      swap1\n      swap2\n      swap1\n      swap2\n      swap1\n      swap2\n      0x0100\n      exp\n      dup2\n      sload\n      dup2\n      0xffffffffffffffffffffffffffffffffffffffff\n      mul\n      not\n      and\n      swap1\n      dup4\n      0xffffffffffffffffffffffffffffffffffffffff\n      and\n      mul\n      or\n      swap1\n      sstore\n      pop\n        /* \"contracts/BlastFurnace.sol\":8105:8109  true */\n      0x01\n        /* \"contracts/BlastFurnace.sol\":8087:8096  _isHolder */\n      0x11\n        /* \"contracts/BlastFurnace.sol\":8087:8102  _isHolder[addr] */\n      0x00\n        /* \"contracts/BlastFurnace.sol\":8097:8101  addr */\n      dup5\n        /* \"contracts/BlastFurnace.sol\":8087:8102  _isHolder[addr] */\n      0xffffffffffffffffffffffffffffffffffffffff\n      and\n      0xffffffffffffffffffffffffffffffffffffffff\n      and\n      dup2\n      mstore\n      0x20\n      add\n      swap1\n      dup2\n      mstore\n      0x20\n      add\n      0x00\n      keccak256\n      0x00\n        /* \"contracts/BlastFurnace.sol\":8087:8109  _isHolder[addr] = true */\n      0x0100\n      exp\n      dup2\n      sload\n      dup2\n      0xff\n      mul\n      not\n      and\n      swap1\n      dup4\n      iszero\n      iszero\n      mul\n      or\n      swap1\n      sstore\n      pop\n        /* \"contracts/BlastFurnace.sol\":8027:8115  if (_isHolder[addr] != true) {... */\n    tag_287:\n        /* \"contracts/BlastFurnace.sol\":8141:8146  value */\n      dup1\n        /* \"contracts/BlastFurnace.sol\":8121:8132  claimedOres */\n      0x0b\n        /* \"contracts/BlastFurnace.sol\":8121:8138  claimedOres[addr] */\n      0x00\n        /* \"contracts/BlastFurnace.sol\":8133:8137  addr */\n      dup5\n        /* \"contracts/BlastFurnace.sol\":8121:8138  claimedOres[addr] */\n      0xffffffffffffffffffffffffffffffffffffffff\n      and\n      0xffffffffffffffffffffffffffffffffffffffff\n      and\n      dup2\n      mstore\n      0x20\n      add\n      swap1\n      dup2\n      mstore\n      0x20\n      add\n      0x00\n      keccak256\n        /* \"contracts/BlastFurnace.sol\":8121:8146  claimedOres[addr] = value */\n      dup2\n      swap1\n      sstore\n      pop\n        /* \"contracts/BlastFurnace.sol\":7964:8151  function _setClaimed(address addr, uint256 value) private {... */\n      pop\n      pop\n      jump\t// out\n        /* \"contracts/Ownable.sol\":752:918  function _transferOwnership(address newOwner) internal {... */\n    tag_232:\n        /* \"contracts/Ownable.sol\":840:841  0 */\n      0x00\n        /* \"contracts/Ownable.sol\":820:842  newOwner != address(0) */\n      0xffffffffffffffffffffffffffffffffffffffff\n      and\n        /* \"contracts/Ownable.sol\":820:828  newOwner */\n      dup2\n        /* \"contracts/Ownable.sol\":820:842  newOwner != address(0) */\n      0xffffffffffffffffffffffffffffffffffffffff\n      and\n      sub\n        /* \"contracts/Ownable.sol\":812:843  require(newOwner != address(0)) */\n      tag_290\n      jumpi\n      0x00\n      dup1\n      revert\n    tag_290:\n        /* \"contracts/Ownable.sol\":882:890  newOwner */\n      dup1\n        /* \"contracts/Ownable.sol\":853:891  OwnershipTransferred(_owner, newOwner) */\n      0xffffffffffffffffffffffffffffffffffffffff\n      and\n        /* \"contracts/Ownable.sol\":874:880  _owner */\n      0x00\n      dup1\n      sload\n      swap1\n      0x0100\n      exp\n      swap1\n      div\n      0xffffffffffffffffffffffffffffffffffffffff\n      and\n        /* \"contracts/Ownable.sol\":853:891  OwnershipTransferred(_owner, newOwner) */\n      0xffffffffffffffffffffffffffffffffffffffff\n      and\n      0x8be0079c531659141344cd1fd0a4f28419497f9722a3daafe3b4186f6b6457e0\n      mload(0x40)\n      mload(0x40)\n      dup1\n      swap2\n      sub\n      swap1\n      log3\n        /* \"contracts/Ownable.sol\":905:913  newOwner */\n      dup1\n        /* \"contracts/Ownable.sol\":896:902  _owner */\n      0x00\n      dup1\n        /* \"contracts/Ownable.sol\":896:913  _owner = newOwner */\n      0x0100\n      exp\n      dup2\n      sload\n      dup2\n      0xffffffffffffffffffffffffffffffffffffffff\n      mul\n      not\n      and\n      swap1\n      dup4\n      0xffffffffffffffffffffffffffffffffffffffff\n      and\n      mul\n      or\n      swap1\n      sstore\n      pop\n        /* \"contracts/Ownable.sol\":752:918  function _transferOwnership(address newOwner) internal {... */\n      pop\n      jump\t// out\n        /* \"contracts/BlastFurnace.sol\":8156:8491  function _distributeNative(uint256 amount) internal {... */\n    tag_238:\n        /* \"contracts/BlastFurnace.sol\":8227:8228  0 */\n      0x00\n        /* \"contracts/BlastFurnace.sol\":8217:8223  amount */\n      dup2\n        /* \"contracts/BlastFurnace.sol\":8217:8228  amount <= 0 */\n      gt\n        /* \"contracts/BlastFurnace.sol\":8213:8248  if (amount <= 0) {... */\n      iszero\n        /* \"contracts/BlastFurnace.sol\":8236:8243  return; */\n      tag_291\n        /* \"contracts/BlastFurnace.sol\":8213:8248  if (amount <= 0) {... */\n      jumpi\n        /* \"contracts/BlastFurnace.sol\":8254:8268  address holder */\n      0x00\n        /* \"contracts/BlastFurnace.sol\":8273:8284  uint256 cut */\n      dup1\n        /* \"contracts/BlastFurnace.sol\":8296:8302  uint i */\n      0x00\n        /* \"contracts/BlastFurnace.sol\":8291:8487  for (uint i = 0; i < _holders.length; i++) {... */\n    tag_293:\n        /* \"contracts/BlastFurnace.sol\":8312:8320  _holders */\n      0x10\n        /* \"contracts/BlastFurnace.sol\":8312:8327  _holders.length */\n      dup1\n      sload\n      swap1\n      pop\n        /* \"contracts/BlastFurnace.sol\":8308:8309  i */\n      dup2\n        /* \"contracts/BlastFurnace.sol\":8308:8327  i < _holders.length */\n      lt\n        /* \"contracts/BlastFurnace.sol\":8291:8487  for (uint i = 0; i < _holders.length; i++) {... */\n      iszero\n      tag_294\n      jumpi\n        /* \"contracts/BlastFurnace.sol\":8349:8357  _holders */\n      0x10\n        /* \"contracts/BlastFurnace.sol\":8358:8359  i */\n      dup2\n        /* \"contracts/BlastFurnace.sol\":8349:8360  _holders[i] */\n      dup2\n      sload\n      dup2\n      lt\n      tag_296\n      jumpi\n      tag_297\n      tag_177\n      jump\t// in\n    tag_297:\n    tag_296:\n      swap1\n      0x00\n      mstore\n      keccak256(0x00, 0x20)\n      add\n      0x00\n      swap1\n      sload\n      swap1\n      0x0100\n      exp\n      swap1\n      div\n      0xffffffffffffffffffffffffffffffffffffffff\n      and\n        /* \"contracts/BlastFurnace.sol\":8340:8360  holder = _holders[i] */\n      swap3\n      pop\n        /* \"contracts/BlastFurnace.sol\":8372:8419  amount.mul(claimedOres[holder]).div(marketOres) */\n      tag_299\n        /* \"contracts/BlastFurnace.sol\":8408:8418  marketOres */\n      sload(0x0e)\n        /* \"contracts/BlastFurnace.sol\":8372:8403  amount.mul(claimedOres[holder]) */\n      tag_300\n        /* \"contracts/BlastFurnace.sol\":8383:8394  claimedOres */\n      0x0b\n        /* \"contracts/BlastFurnace.sol\":8383:8402  claimedOres[holder] */\n      0x00\n        /* \"contracts/BlastFurnace.sol\":8395:8401  holder */\n      dup8\n        /* \"contracts/BlastFurnace.sol\":8383:8402  claimedOres[holder] */\n      0xffffffffffffffffffffffffffffffffffffffff\n      and\n      0xffffffffffffffffffffffffffffffffffffffff\n      and\n      dup2\n      mstore\n      0x20\n      add\n      swap1\n      dup2\n      mstore\n      0x20\n      add\n      0x00\n      keccak256\n      sload\n        /* \"contracts/BlastFurnace.sol\":8372:8378  amount */\n      dup8\n        /* \"contracts/BlastFurnace.sol\":8372:8382  amount.mul */\n      tag_168\n      swap1\n        /* \"contracts/BlastFurnace.sol\":8372:8403  amount.mul(claimedOres[holder]) */\n      swap2\n      swap1\n      0xffffffff\n      and\n      jump\t// in\n    tag_300:\n        /* \"contracts/BlastFurnace.sol\":8372:8407  amount.mul(claimedOres[holder]).div */\n      tag_170\n      swap1\n        /* \"contracts/BlastFurnace.sol\":8372:8419  amount.mul(claimedOres[holder]).div(marketOres) */\n      swap2\n      swap1\n      0xffffffff\n      and\n      jump\t// in\n    tag_299:\n        /* \"contracts/BlastFurnace.sol\":8366:8419  cut = amount.mul(claimedOres[holder]).div(marketOres) */\n      swap2\n      pop\n        /* \"contracts/BlastFurnace.sol\":8437:8438  0 */\n      0x00\n        /* \"contracts/BlastFurnace.sol\":8431:8434  cut */\n      dup3\n        /* \"contracts/BlastFurnace.sol\":8431:8438  cut > 0 */\n      gt\n        /* \"contracts/BlastFurnace.sol\":8427:8482  if (cut > 0) {... */\n      iszero\n      tag_301\n      jumpi\n        /* \"contracts/BlastFurnace.sol\":8447:8475  _transferNative(holder, cut) */\n      tag_302\n        /* \"contracts/BlastFurnace.sol\":8463:8469  holder */\n      dup4\n        /* \"contracts/BlastFurnace.sol\":8471:8474  cut */\n      dup4\n        /* \"contracts/BlastFurnace.sol\":8447:8462  _transferNative */\n      tag_303\n        /* \"contracts/BlastFurnace.sol\":8447:8475  _transferNative(holder, cut) */\n      jump\t// in\n    tag_302:\n      pop\n        /* \"contracts/BlastFurnace.sol\":8427:8482  if (cut > 0) {... */\n    tag_301:\n        /* \"contracts/BlastFurnace.sol\":8329:8332  i++ */\n      dup1\n      dup1\n      0x01\n      add\n      swap2\n      pop\n      pop\n        /* \"contracts/BlastFurnace.sol\":8291:8487  for (uint i = 0; i < _holders.length; i++) {... */\n      jump(tag_293)\n    tag_294:\n      pop\n        /* \"contracts/BlastFurnace.sol\":8208:8491  {... */\n      pop\n      pop\n        /* \"contracts/BlastFurnace.sol\":8156:8491  function _distributeNative(uint256 amount) internal {... */\n    tag_291:\n      pop\n      jump\t// out\n        /* \"contracts/BlastFurnace.sol\":7096:7444  function _rewardReferral(address ref, uint256 ores) private {... */\n    tag_280:\n        /* \"contracts/BlastFurnace.sol\":7161:7175  uint256 ingots */\n      0x00\n        /* \"contracts/BlastFurnace.sol\":7178:7192  _ingotBalances */\n      0x0f\n        /* \"contracts/BlastFurnace.sol\":7178:7197  _ingotBalances[ref] */\n      0x00\n        /* \"contracts/BlastFurnace.sol\":7193:7196  ref */\n      dup5\n        /* \"contracts/BlastFurnace.sol\":7178:7197  _ingotBalances[ref] */\n      0xffffffffffffffffffffffffffffffffffffffff\n      and\n      0xffffffffffffffffffffffffffffffffffffffff\n      and\n      dup2\n      mstore\n      0x20\n      add\n      swap1\n      dup2\n      mstore\n      0x20\n      add\n      0x00\n      keccak256\n      sload\n        /* \"contracts/BlastFurnace.sol\":7161:7197  uint256 ingots = _ingotBalances[ref] */\n      swap1\n      pop\n        /* \"contracts/BlastFurnace.sol\":7202:7217  uint256 ingotPM */\n      0x00\n        /* \"contracts/BlastFurnace.sol\":7221:7276  ingots.mul(INGOT_REWARD_MULTIPLIER).div(INGOT_FRAGMENT) */\n      tag_305\n        /* \"contracts/BlastFurnace.sol\":2166:2169  200 */\n      0xc8\n        /* \"contracts/BlastFurnace.sol\":7221:7256  ingots.mul(INGOT_REWARD_MULTIPLIER) */\n      tag_306\n        /* \"contracts/BlastFurnace.sol\":2224:2226  16 */\n      0x10\n        /* \"contracts/BlastFurnace.sol\":7221:7227  ingots */\n      dup6\n        /* \"contracts/BlastFurnace.sol\":7221:7231  ingots.mul */\n      tag_168\n      swap1\n        /* \"contracts/BlastFurnace.sol\":7221:7256  ingots.mul(INGOT_REWARD_MULTIPLIER) */\n      swap2\n      swap1\n      0xffffffff\n      and\n      jump\t// in\n    tag_306:\n        /* \"contracts/BlastFurnace.sol\":7221:7260  ingots.mul(INGOT_REWARD_MULTIPLIER).div */\n      tag_170\n      swap1\n        /* \"contracts/BlastFurnace.sol\":7221:7276  ingots.mul(INGOT_REWARD_MULTIPLIER).div(INGOT_FRAGMENT) */\n      swap2\n      swap1\n      0xffffffff\n      and\n      jump\t// in\n    tag_305:\n        /* \"contracts/BlastFurnace.sol\":7202:7277  uint256 ingotPM = (ingots.mul(INGOT_REWARD_MULTIPLIER).div(INGOT_FRAGMENT)) */\n      swap1\n      pop\n        /* \"contracts/BlastFurnace.sol\":7282:7302  uint256 rewardIncByT */\n      0x00\n        /* \"contracts/BlastFurnace.sol\":7323:7330  ingotPM */\n      dup2\n        /* \"contracts/BlastFurnace.sol\":2283:2289  12_500 */\n      0x30d4\n        /* \"contracts/BlastFurnace.sol\":7305:7330  REFERRAL_REWARD + ingotPM */\n      tag_307\n      swap2\n      swap1\n      tag_133\n      jump\t// in\n    tag_307:\n        /* \"contracts/BlastFurnace.sol\":7282:7330  uint256 rewardIncByT = REFERRAL_REWARD + ingotPM */\n      swap1\n      pop\n        /* \"contracts/BlastFurnace.sol\":7337:7357  uint256 referralOres */\n      0x00\n        /* \"contracts/BlastFurnace.sol\":7360:7404  SafeMath.mul(ores, rewardIncByT).div(100000) */\n      tag_308\n        /* \"contracts/BlastFurnace.sol\":7397:7403  100000 */\n      0x0186a0\n        /* \"contracts/BlastFurnace.sol\":7360:7392  SafeMath.mul(ores, rewardIncByT) */\n      tag_309\n        /* \"contracts/BlastFurnace.sol\":7373:7377  ores */\n      dup8\n        /* \"contracts/BlastFurnace.sol\":7379:7391  rewardIncByT */\n      dup6\n        /* \"contracts/BlastFurnace.sol\":7360:7372  SafeMath.mul */\n      tag_168\n        /* \"contracts/BlastFurnace.sol\":7360:7392  SafeMath.mul(ores, rewardIncByT) */\n      jump\t// in\n    tag_309:\n        /* \"contracts/BlastFurnace.sol\":7360:7396  SafeMath.mul(ores, rewardIncByT).div */\n      tag_170\n      swap1\n        /* \"contracts/BlastFurnace.sol\":7360:7404  SafeMath.mul(ores, rewardIncByT).div(100000) */\n      swap2\n      swap1\n      0xffffffff\n      and\n      jump\t// in\n    tag_308:\n        /* \"contracts/BlastFurnace.sol\":7337:7404  uint256 referralOres = SafeMath.mul(ores, rewardIncByT).div(100000) */\n      swap1\n      pop\n        /* \"contracts/BlastFurnace.sol\":7409:7439  _addClaimed(ref, referralOres) */\n      tag_310\n        /* \"contracts/BlastFurnace.sol\":7421:7424  ref */\n      dup7\n        /* \"contracts/BlastFurnace.sol\":7426:7438  referralOres */\n      dup3\n        /* \"contracts/BlastFurnace.sol\":7409:7420  _addClaimed */\n      tag_194\n        /* \"contracts/BlastFurnace.sol\":7409:7439  _addClaimed(ref, referralOres) */\n      jump\t// in\n    tag_310:\n        /* \"contracts/BlastFurnace.sol\":7156:7444  {... */\n      pop\n      pop\n      pop\n      pop\n        /* \"contracts/BlastFurnace.sol\":7096:7444  function _rewardReferral(address ref, uint256 ores) private {... */\n      pop\n      pop\n      jump\t// out\n        /* \"contracts/NativeTransferable.sol\":102:260  function _transferNative(address to, uint256 amount) internal returns (bool) {... */\n    tag_303:\n        /* \"contracts/NativeTransferable.sol\":173:177  bool */\n      0x00\n        /* \"contracts/NativeTransferable.sol\":196:198  to */\n      dup3\n        /* \"contracts/NativeTransferable.sol\":188:204  payable(to).send */\n      0xffffffffffffffffffffffffffffffffffffffff\n      and\n        /* \"contracts/NativeTransferable.sol\":188:212  payable(to).send(amount) */\n      0x08fc\n        /* \"contracts/NativeTransferable.sol\":205:211  amount */\n      dup4\n        /* \"contracts/NativeTransferable.sol\":188:212  payable(to).send(amount) */\n      swap1\n      dup2\n      iszero\n      mul\n      swap1\n      mload(0x40)\n      0x00\n      mload(0x40)\n      dup1\n      dup4\n      sub\n      dup2\n      dup6\n      dup9\n      dup9\n      call\n      swap4\n      pop\n      pop\n      pop\n      pop\n        /* \"contracts/NativeTransferable.sol\":184:237  if (payable(to).send(amount)) {... */\n      iszero\n      tag_313\n      jumpi\n        /* \"contracts/NativeTransferable.sol\":227:231  true */\n      0x01\n        /* \"contracts/NativeTransferable.sol\":220:231  return true */\n      swap1\n      pop\n      jump(tag_311)\n        /* \"contracts/NativeTransferable.sol\":184:237  if (payable(to).send(amount)) {... */\n    tag_313:\n        /* \"contracts/NativeTransferable.sol\":250:255  false */\n      0x00\n        /* \"contracts/NativeTransferable.sol\":243:255  return false */\n      swap1\n      pop\n        /* \"contracts/NativeTransferable.sol\":102:260  function _transferNative(address to, uint256 amount) internal returns (bool) {... */\n    tag_311:\n      swap3\n      swap2\n      pop\n      pop\n      jump\t// out\n        /* \"#utility.yul\":7:84   */\n    tag_314:\n        /* \"#utility.yul\":44:51   */\n      0x00\n        /* \"#utility.yul\":73:78   */\n      dup2\n        /* \"#utility.yul\":62:78   */\n      swap1\n      pop\n        /* \"#utility.yul\":7:84   */\n      swap2\n      swap1\n      pop\n      jump\t// out\n        /* \"#utility.yul\":90:208   */\n    tag_315:\n        /* \"#utility.yul\":177:201   */\n      tag_339\n        /* \"#utility.yul\":195:200   */\n      dup2\n        /* \"#utility.yul\":177:201   */\n      tag_314\n      jump\t// in\n    tag_339:\n        /* \"#utility.yul\":172:175   */\n      dup3\n        /* \"#utility.yul\":165:202   */\n      mstore\n        /* \"#utility.yul\":90:208   */\n      pop\n      pop\n      jump\t// out\n        /* \"#utility.yul\":214:436   */\n    tag_31:\n        /* \"#utility.yul\":307:311   */\n      0x00\n        /* \"#utility.yul\":345:347   */\n      0x20\n        /* \"#utility.yul\":334:343   */\n      dup3\n        /* \"#utility.yul\":330:348   */\n      add\n        /* \"#utility.yul\":322:348   */\n      swap1\n      pop\n        /* \"#utility.yul\":358:429   */\n      tag_341\n        /* \"#utility.yul\":426:427   */\n      0x00\n        /* \"#utility.yul\":415:424   */\n      dup4\n        /* \"#utility.yul\":411:428   */\n      add\n        /* \"#utility.yul\":402:408   */\n      dup5\n        /* \"#utility.yul\":358:429   */\n      tag_315\n      jump\t// in\n    tag_341:\n        /* \"#utility.yul\":214:436   */\n      swap3\n      swap2\n      pop\n      pop\n      jump\t// out\n        /* \"#utility.yul\":523:640   */\n    tag_317:\n        /* \"#utility.yul\":632:633   */\n      0x00\n        /* \"#utility.yul\":629:630   */\n      dup1\n        /* \"#utility.yul\":622:634   */\n      revert\n        /* \"#utility.yul\":769:895   */\n    tag_319:\n        /* \"#utility.yul\":806:813   */\n      0x00\n        /* \"#utility.yul\":846:888   */\n      0xffffffffffffffffffffffffffffffffffffffff\n        /* \"#utility.yul\":839:844   */\n      dup3\n        /* \"#utility.yul\":835:889   */\n      and\n        /* \"#utility.yul\":824:889   */\n      swap1\n      pop\n        /* \"#utility.yul\":769:895   */\n      swap2\n      swap1\n      pop\n      jump\t// out\n        /* \"#utility.yul\":901:997   */\n    tag_320:\n        /* \"#utility.yul\":938:945   */\n      0x00\n        /* \"#utility.yul\":967:991   */\n      tag_347\n        /* \"#utility.yul\":985:990   */\n      dup3\n        /* \"#utility.yul\":967:991   */\n      tag_319\n      jump\t// in\n    tag_347:\n        /* \"#utility.yul\":956:991   */\n      swap1\n      pop\n        /* \"#utility.yul\":901:997   */\n      swap2\n      swap1\n      pop\n      jump\t// out\n        /* \"#utility.yul\":1003:1125   */\n    tag_321:\n        /* \"#utility.yul\":1076:1100   */\n      tag_349\n        /* \"#utility.yul\":1094:1099   */\n      dup2\n        /* \"#utility.yul\":1076:1100   */\n      tag_320\n      jump\t// in\n    tag_349:\n        /* \"#utility.yul\":1069:1074   */\n      dup2\n        /* \"#utility.yul\":1066:1101   */\n      eq\n        /* \"#utility.yul\":1056:1119   */\n      tag_350\n      jumpi\n        /* \"#utility.yul\":1115:1116   */\n      0x00\n        /* \"#utility.yul\":1112:1113   */\n      dup1\n        /* \"#utility.yul\":1105:1117   */\n      revert\n        /* \"#utility.yul\":1056:1119   */\n    tag_350:\n        /* \"#utility.yul\":1003:1125   */\n      pop\n      jump\t// out\n        /* \"#utility.yul\":1131:1270   */\n    tag_322:\n        /* \"#utility.yul\":1177:1182   */\n      0x00\n        /* \"#utility.yul\":1215:1221   */\n      dup2\n        /* \"#utility.yul\":1202:1222   */\n      calldataload\n        /* \"#utility.yul\":1193:1222   */\n      swap1\n      pop\n        /* \"#utility.yul\":1231:1264   */\n      tag_352\n        /* \"#utility.yul\":1258:1263   */\n      dup2\n        /* \"#utility.yul\":1231:1264   */\n      tag_321\n      jump\t// in\n    tag_352:\n        /* \"#utility.yul\":1131:1270   */\n      swap3\n      swap2\n      pop\n      pop\n      jump\t// out\n        /* \"#utility.yul\":1276:1605   */\n    tag_35:\n        /* \"#utility.yul\":1335:1341   */\n      0x00\n        /* \"#utility.yul\":1384:1386   */\n      0x20\n        /* \"#utility.yul\":1372:1381   */\n      dup3\n        /* \"#utility.yul\":1363:1370   */\n      dup5\n        /* \"#utility.yul\":1359:1382   */\n      sub\n        /* \"#utility.yul\":1355:1387   */\n      slt\n        /* \"#utility.yul\":1352:1471   */\n      iszero\n      tag_354\n      jumpi\n        /* \"#utility.yul\":1390:1469   */\n      tag_355\n      tag_317\n      jump\t// in\n    tag_355:\n        /* \"#utility.yul\":1352:1471   */\n    tag_354:\n        /* \"#utility.yul\":1510:1511   */\n      0x00\n        /* \"#utility.yul\":1535:1588   */\n      tag_356\n        /* \"#utility.yul\":1580:1587   */\n      dup5\n        /* \"#utility.yul\":1571:1577   */\n      dup3\n        /* \"#utility.yul\":1560:1569   */\n      dup6\n        /* \"#utility.yul\":1556:1578   */\n      add\n        /* \"#utility.yul\":1535:1588   */\n      tag_322\n      jump\t// in\n    tag_356:\n        /* \"#utility.yul\":1525:1588   */\n      swap2\n      pop\n        /* \"#utility.yul\":1481:1598   */\n      pop\n        /* \"#utility.yul\":1276:1605   */\n      swap3\n      swap2\n      pop\n      pop\n      jump\t// out\n        /* \"#utility.yul\":1611:1733   */\n    tag_323:\n        /* \"#utility.yul\":1684:1708   */\n      tag_358\n        /* \"#utility.yul\":1702:1707   */\n      dup2\n        /* \"#utility.yul\":1684:1708   */\n      tag_314\n      jump\t// in\n    tag_358:\n        /* \"#utility.yul\":1677:1682   */\n      dup2\n        /* \"#utility.yul\":1674:1709   */\n      eq\n        /* \"#utility.yul\":1664:1727   */\n      tag_359\n      jumpi\n        /* \"#utility.yul\":1723:1724   */\n      0x00\n        /* \"#utility.yul\":1720:1721   */\n      dup1\n        /* \"#utility.yul\":1713:1725   */\n      revert\n        /* \"#utility.yul\":1664:1727   */\n    tag_359:\n        /* \"#utility.yul\":1611:1733   */\n      pop\n      jump\t// out\n        /* \"#utility.yul\":1739:1878   */\n    tag_324:\n        /* \"#utility.yul\":1785:1790   */\n      0x00\n        /* \"#utility.yul\":1823:1829   */\n      dup2\n        /* \"#utility.yul\":1810:1830   */\n      calldataload\n        /* \"#utility.yul\":1801:1830   */\n      swap1\n      pop\n        /* \"#utility.yul\":1839:1872   */\n      tag_361\n        /* \"#utility.yul\":1866:1871   */\n      dup2\n        /* \"#utility.yul\":1839:1872   */\n      tag_323\n      jump\t// in\n    tag_361:\n        /* \"#utility.yul\":1739:1878   */\n      swap3\n      swap2\n      pop\n      pop\n      jump\t// out\n        /* \"#utility.yul\":1884:2213   */\n    tag_46:\n        /* \"#utility.yul\":1943:1949   */\n      0x00\n        /* \"#utility.yul\":1992:1994   */\n      0x20\n        /* \"#utility.yul\":1980:1989   */\n      dup3\n        /* \"#utility.yul\":1971:1978   */\n      dup5\n        /* \"#utility.yul\":1967:1990   */\n      sub\n        /* \"#utility.yul\":1963:1995   */\n      slt\n        /* \"#utility.yul\":1960:2079   */\n      iszero\n      tag_363\n      jumpi\n        /* \"#utility.yul\":1998:2077   */\n      tag_364\n      tag_317\n      jump\t// in\n    tag_364:\n        /* \"#utility.yul\":1960:2079   */\n    tag_363:\n        /* \"#utility.yul\":2118:2119   */\n      0x00\n        /* \"#utility.yul\":2143:2196   */\n      tag_365\n        /* \"#utility.yul\":2188:2195   */\n      dup5\n        /* \"#utility.yul\":2179:2185   */\n      dup3\n        /* \"#utility.yul\":2168:2177   */\n      dup6\n        /* \"#utility.yul\":2164:2186   */\n      add\n        /* \"#utility.yul\":2143:2196   */\n      tag_324\n      jump\t// in\n    tag_365:\n        /* \"#utility.yul\":2133:2196   */\n      swap2\n      pop\n        /* \"#utility.yul\":2089:2206   */\n      pop\n        /* \"#utility.yul\":1884:2213   */\n      swap3\n      swap2\n      pop\n      pop\n      jump\t// out\n        /* \"#utility.yul\":2219:2693   */\n    tag_57:\n        /* \"#utility.yul\":2287:2293   */\n      0x00\n        /* \"#utility.yul\":2295:2301   */\n      dup1\n        /* \"#utility.yul\":2344:2346   */\n      0x40\n        /* \"#utility.yul\":2332:2341   */\n      dup4\n        /* \"#utility.yul\":2323:2330   */\n      dup6\n        /* \"#utility.yul\":2319:2342   */\n      sub\n        /* \"#utility.yul\":2315:2347   */\n      slt\n        /* \"#utility.yul\":2312:2431   */\n      iszero\n      tag_367\n      jumpi\n        /* \"#utility.yul\":2350:2429   */\n      tag_368\n      tag_317\n      jump\t// in\n    tag_368:\n        /* \"#utility.yul\":2312:2431   */\n    tag_367:\n        /* \"#utility.yul\":2470:2471   */\n      0x00\n        /* \"#utility.yul\":2495:2548   */\n      tag_369\n        /* \"#utility.yul\":2540:2547   */\n      dup6\n        /* \"#utility.yul\":2531:2537   */\n      dup3\n        /* \"#utility.yul\":2520:2529   */\n      dup7\n        /* \"#utility.yul\":2516:2538   */\n      add\n        /* \"#utility.yul\":2495:2548   */\n      tag_324\n      jump\t// in\n    tag_369:\n        /* \"#utility.yul\":2485:2548   */\n      swap3\n      pop\n        /* \"#utility.yul\":2441:2558   */\n      pop\n        /* \"#utility.yul\":2597:2599   */\n      0x20\n        /* \"#utility.yul\":2623:2676   */\n      tag_370\n        /* \"#utility.yul\":2668:2675   */\n      dup6\n        /* \"#utility.yul\":2659:2665   */\n      dup3\n        /* \"#utility.yul\":2648:2657   */\n      dup7\n        /* \"#utility.yul\":2644:2666   */\n      add\n        /* \"#utility.yul\":2623:2676   */\n      tag_324\n      jump\t// in\n    tag_370:\n        /* \"#utility.yul\":2613:2676   */\n      swap2\n      pop\n        /* \"#utility.yul\":2568:2686   */\n      pop\n        /* \"#utility.yul\":2219:2693   */\n      swap3\n      pop\n      swap3\n      swap1\n      pop\n      jump\t// out\n        /* \"#utility.yul\":2699:2817   */\n    tag_325:\n        /* \"#utility.yul\":2786:2810   */\n      tag_372\n        /* \"#utility.yul\":2804:2809   */\n      dup2\n        /* \"#utility.yul\":2786:2810   */\n      tag_320\n      jump\t// in\n    tag_372:\n        /* \"#utility.yul\":2781:2784   */\n      dup3\n        /* \"#utility.yul\":2774:2811   */\n      mstore\n        /* \"#utility.yul\":2699:2817   */\n      pop\n      pop\n      jump\t// out\n        /* \"#utility.yul\":2823:3155   */\n    tag_84:\n        /* \"#utility.yul\":2944:2948   */\n      0x00\n        /* \"#utility.yul\":2982:2984   */\n      0x40\n        /* \"#utility.yul\":2971:2980   */\n      dup3\n        /* \"#utility.yul\":2967:2985   */\n      add\n        /* \"#utility.yul\":2959:2985   */\n      swap1\n      pop\n        /* \"#utility.yul\":2995:3066   */\n      tag_374\n        /* \"#utility.yul\":3063:3064   */\n      0x00\n        /* \"#utility.yul\":3052:3061   */\n      dup4\n        /* \"#utility.yul\":3048:3065   */\n      add\n        /* \"#utility.yul\":3039:3045   */\n      dup6\n        /* \"#utility.yul\":2995:3066   */\n      tag_325\n      jump\t// in\n    tag_374:\n        /* \"#utility.yul\":3076:3148   */\n      tag_375\n        /* \"#utility.yul\":3144:3146   */\n      0x20\n        /* \"#utility.yul\":3133:3142   */\n      dup4\n        /* \"#utility.yul\":3129:3147   */\n      add\n        /* \"#utility.yul\":3120:3126   */\n      dup5\n        /* \"#utility.yul\":3076:3148   */\n      tag_315\n      jump\t// in\n    tag_375:\n        /* \"#utility.yul\":2823:3155   */\n      swap4\n      swap3\n      pop\n      pop\n      pop\n      jump\t// out\n        /* \"#utility.yul\":3161:3383   */\n    tag_95:\n        /* \"#utility.yul\":3254:3258   */\n      0x00\n        /* \"#utility.yul\":3292:3294   */\n      0x20\n        /* \"#utility.yul\":3281:3290   */\n      dup3\n        /* \"#utility.yul\":3277:3295   */\n      add\n        /* \"#utility.yul\":3269:3295   */\n      swap1\n      pop\n        /* \"#utility.yul\":3305:3376   */\n      tag_377\n        /* \"#utility.yul\":3373:3374   */\n      0x00\n        /* \"#utility.yul\":3362:3371   */\n      dup4\n        /* \"#utility.yul\":3358:3375   */\n      add\n        /* \"#utility.yul\":3349:3355   */\n      dup5\n        /* \"#utility.yul\":3305:3376   */\n      tag_325\n      jump\t// in\n    tag_377:\n        /* \"#utility.yul\":3161:3383   */\n      swap3\n      swap2\n      pop\n      pop\n      jump\t// out\n        /* \"#utility.yul\":3389:3479   */\n    tag_326:\n        /* \"#utility.yul\":3423:3430   */\n      0x00\n        /* \"#utility.yul\":3466:3471   */\n      dup2\n        /* \"#utility.yul\":3459:3472   */\n      iszero\n        /* \"#utility.yul\":3452:3473   */\n      iszero\n        /* \"#utility.yul\":3441:3473   */\n      swap1\n      pop\n        /* \"#utility.yul\":3389:3479   */\n      swap2\n      swap1\n      pop\n      jump\t// out\n        /* \"#utility.yul\":3485:3594   */\n    tag_327:\n        /* \"#utility.yul\":3566:3587   */\n      tag_380\n        /* \"#utility.yul\":3581:3586   */\n      dup2\n        /* \"#utility.yul\":3566:3587   */\n      tag_326\n      jump\t// in\n    tag_380:\n        /* \"#utility.yul\":3561:3564   */\n      dup3\n        /* \"#utility.yul\":3554:3588   */\n      mstore\n        /* \"#utility.yul\":3485:3594   */\n      pop\n      pop\n      jump\t// out\n        /* \"#utility.yul\":3600:3810   */\n    tag_100:\n        /* \"#utility.yul\":3687:3691   */\n      0x00\n        /* \"#utility.yul\":3725:3727   */\n      0x20\n        /* \"#utility.yul\":3714:3723   */\n      dup3\n        /* \"#utility.yul\":3710:3728   */\n      add\n        /* \"#utility.yul\":3702:3728   */\n      swap1\n      pop\n        /* \"#utility.yul\":3738:3803   */\n      tag_382\n        /* \"#utility.yul\":3800:3801   */\n      0x00\n        /* \"#utility.yul\":3789:3798   */\n      dup4\n        /* \"#utility.yul\":3785:3802   */\n      add\n        /* \"#utility.yul\":3776:3782   */\n      dup5\n        /* \"#utility.yul\":3738:3803   */\n      tag_327\n      jump\t// in\n    tag_382:\n        /* \"#utility.yul\":3600:3810   */\n      swap3\n      swap2\n      pop\n      pop\n      jump\t// out\n        /* \"#utility.yul\":3816:3876   */\n    tag_328:\n        /* \"#utility.yul\":3844:3847   */\n      0x00\n        /* \"#utility.yul\":3865:3870   */\n      dup2\n        /* \"#utility.yul\":3858:3870   */\n      swap1\n      pop\n        /* \"#utility.yul\":3816:3876   */\n      swap2\n      swap1\n      pop\n      jump\t// out\n        /* \"#utility.yul\":3882:4024   */\n    tag_329:\n        /* \"#utility.yul\":3932:3941   */\n      0x00\n        /* \"#utility.yul\":3965:4018   */\n      tag_385\n        /* \"#utility.yul\":3983:4017   */\n      tag_386\n        /* \"#utility.yul\":3992:4016   */\n      tag_387\n        /* \"#utility.yul\":4010:4015   */\n      dup5\n        /* \"#utility.yul\":3992:4016   */\n      tag_319\n      jump\t// in\n    tag_387:\n        /* \"#utility.yul\":3983:4017   */\n      tag_328\n      jump\t// in\n    tag_386:\n        /* \"#utility.yul\":3965:4018   */\n      tag_319\n      jump\t// in\n    tag_385:\n        /* \"#utility.yul\":3952:4018   */\n      swap1\n      pop\n        /* \"#utility.yul\":3882:4024   */\n      swap2\n      swap1\n      pop\n      jump\t// out\n        /* \"#utility.yul\":4030:4156   */\n    tag_330:\n        /* \"#utility.yul\":4080:4089   */\n      0x00\n        /* \"#utility.yul\":4113:4150   */\n      tag_389\n        /* \"#utility.yul\":4144:4149   */\n      dup3\n        /* \"#utility.yul\":4113:4150   */\n      tag_329\n      jump\t// in\n    tag_389:\n        /* \"#utility.yul\":4100:4150   */\n      swap1\n      pop\n        /* \"#utility.yul\":4030:4156   */\n      swap2\n      swap1\n      pop\n      jump\t// out\n        /* \"#utility.yul\":4162:4301   */\n    tag_331:\n        /* \"#utility.yul\":4225:4234   */\n      0x00\n        /* \"#utility.yul\":4258:4295   */\n      tag_391\n        /* \"#utility.yul\":4289:4294   */\n      dup3\n        /* \"#utility.yul\":4258:4295   */\n      tag_330\n      jump\t// in\n    tag_391:\n        /* \"#utility.yul\":4245:4295   */\n      swap1\n      pop\n        /* \"#utility.yul\":4162:4301   */\n      swap2\n      swap1\n      pop\n      jump\t// out\n        /* \"#utility.yul\":4307:4464   */\n    tag_332:\n        /* \"#utility.yul\":4407:4457   */\n      tag_393\n        /* \"#utility.yul\":4451:4456   */\n      dup2\n        /* \"#utility.yul\":4407:4457   */\n      tag_331\n      jump\t// in\n    tag_393:\n        /* \"#utility.yul\":4402:4405   */\n      dup3\n        /* \"#utility.yul\":4395:4458   */\n      mstore\n        /* \"#utility.yul\":4307:4464   */\n      pop\n      pop\n      jump\t// out\n        /* \"#utility.yul\":4470:4718   */\n    tag_105:\n        /* \"#utility.yul\":4576:4580   */\n      0x00\n        /* \"#utility.yul\":4614:4616   */\n      0x20\n        /* \"#utility.yul\":4603:4612   */\n      dup3\n        /* \"#utility.yul\":4599:4617   */\n      add\n        /* \"#utility.yul\":4591:4617   */\n      swap1\n      pop\n        /* \"#utility.yul\":4627:4711   */\n      tag_395\n        /* \"#utility.yul\":4708:4709   */\n      0x00\n        /* \"#utility.yul\":4697:4706   */\n      dup4\n        /* \"#utility.yul\":4693:4710   */\n      add\n        /* \"#utility.yul\":4684:4690   */\n      dup5\n        /* \"#utility.yul\":4627:4711   */\n      tag_332\n      jump\t// in\n    tag_395:\n        /* \"#utility.yul\":4470:4718   */\n      swap3\n      swap2\n      pop\n      pop\n      jump\t// out\n        /* \"#utility.yul\":4724:4904   */\n    tag_333:\n        /* \"#utility.yul\":4772:4849   */\n      0x4e487b7100000000000000000000000000000000000000000000000000000000\n        /* \"#utility.yul\":4769:4770   */\n      0x00\n        /* \"#utility.yul\":4762:4850   */\n      mstore\n        /* \"#utility.yul\":4869:4873   */\n      0x11\n        /* \"#utility.yul\":4866:4867   */\n      0x04\n        /* \"#utility.yul\":4859:4874   */\n      mstore\n        /* \"#utility.yul\":4893:4897   */\n      0x24\n        /* \"#utility.yul\":4890:4891   */\n      0x00\n        /* \"#utility.yul\":4883:4898   */\n      revert\n        /* \"#utility.yul\":4910:5101   */\n    tag_133:\n        /* \"#utility.yul\":4950:4953   */\n      0x00\n        /* \"#utility.yul\":4969:4989   */\n      tag_398\n        /* \"#utility.yul\":4987:4988   */\n      dup3\n        /* \"#utility.yul\":4969:4989   */\n      tag_314\n      jump\t// in\n    tag_398:\n        /* \"#utility.yul\":4964:4989   */\n      swap2\n      pop\n        /* \"#utility.yul\":5003:5023   */\n      tag_399\n        /* \"#utility.yul\":5021:5022   */\n      dup4\n        /* \"#utility.yul\":5003:5023   */\n      tag_314\n      jump\t// in\n    tag_399:\n        /* \"#utility.yul\":4998:5023   */\n      swap3\n      pop\n        /* \"#utility.yul\":5046:5047   */\n      dup3\n        /* \"#utility.yul\":5043:5044   */\n      dup3\n        /* \"#utility.yul\":5039:5048   */\n      add\n        /* \"#utility.yul\":5032:5048   */\n      swap1\n      pop\n        /* \"#utility.yul\":5067:5070   */\n      dup1\n        /* \"#utility.yul\":5064:5065   */\n      dup3\n        /* \"#utility.yul\":5061:5071   */\n      gt\n        /* \"#utility.yul\":5058:5094   */\n      iszero\n      tag_400\n      jumpi\n        /* \"#utility.yul\":5074:5092   */\n      tag_401\n      tag_333\n      jump\t// in\n    tag_401:\n        /* \"#utility.yul\":5058:5094   */\n    tag_400:\n        /* \"#utility.yul\":4910:5101   */\n      swap3\n      swap2\n      pop\n      pop\n      jump\t// out\n        /* \"#utility.yul\":5107:5439   */\n    tag_136:\n        /* \"#utility.yul\":5228:5232   */\n      0x00\n        /* \"#utility.yul\":5266:5268   */\n      0x40\n        /* \"#utility.yul\":5255:5264   */\n      dup3\n        /* \"#utility.yul\":5251:5269   */\n      add\n        /* \"#utility.yul\":5243:5269   */\n      swap1\n      pop\n        /* \"#utility.yul\":5279:5350   */\n      tag_403\n        /* \"#utility.yul\":5347:5348   */\n      0x00\n        /* \"#utility.yul\":5336:5345   */\n      dup4\n        /* \"#utility.yul\":5332:5349   */\n      add\n        /* \"#utility.yul\":5323:5329   */\n      dup6\n        /* \"#utility.yul\":5279:5350   */\n      tag_325\n      jump\t// in\n    tag_403:\n        /* \"#utility.yul\":5360:5432   */\n      tag_404\n        /* \"#utility.yul\":5428:5430   */\n      0x20\n        /* \"#utility.yul\":5417:5426   */\n      dup4\n        /* \"#utility.yul\":5413:5431   */\n      add\n        /* \"#utility.yul\":5404:5410   */\n      dup5\n        /* \"#utility.yul\":5360:5432   */\n      tag_325\n      jump\t// in\n    tag_404:\n        /* \"#utility.yul\":5107:5439   */\n      swap4\n      swap3\n      pop\n      pop\n      pop\n      jump\t// out\n        /* \"#utility.yul\":5445:5588   */\n    tag_334:\n        /* \"#utility.yul\":5502:5507   */\n      0x00\n        /* \"#utility.yul\":5533:5539   */\n      dup2\n        /* \"#utility.yul\":5527:5540   */\n      mload\n        /* \"#utility.yul\":5518:5540   */\n      swap1\n      pop\n        /* \"#utility.yul\":5549:5582   */\n      tag_406\n        /* \"#utility.yul\":5576:5581   */\n      dup2\n        /* \"#utility.yul\":5549:5582   */\n      tag_323\n      jump\t// in\n    tag_406:\n        /* \"#utility.yul\":5445:5588   */\n      swap3\n      swap2\n      pop\n      pop\n      jump\t// out\n        /* \"#utility.yul\":5594:5945   */\n    tag_140:\n        /* \"#utility.yul\":5664:5670   */\n      0x00\n        /* \"#utility.yul\":5713:5715   */\n      0x20\n        /* \"#utility.yul\":5701:5710   */\n      dup3\n        /* \"#utility.yul\":5692:5699   */\n      dup5\n        /* \"#utility.yul\":5688:5711   */\n      sub\n        /* \"#utility.yul\":5684:5716   */\n      slt\n        /* \"#utility.yul\":5681:5800   */\n      iszero\n      tag_408\n      jumpi\n        /* \"#utility.yul\":5719:5798   */\n      tag_409\n      tag_317\n      jump\t// in\n    tag_409:\n        /* \"#utility.yul\":5681:5800   */\n    tag_408:\n        /* \"#utility.yul\":5839:5840   */\n      0x00\n        /* \"#utility.yul\":5864:5928   */\n      tag_410\n        /* \"#utility.yul\":5920:5927   */\n      dup5\n        /* \"#utility.yul\":5911:5917   */\n      dup3\n        /* \"#utility.yul\":5900:5909   */\n      dup6\n        /* \"#utility.yul\":5896:5918   */\n      add\n        /* \"#utility.yul\":5864:5928   */\n      tag_334\n      jump\t// in\n    tag_410:\n        /* \"#utility.yul\":5854:5928   */\n      swap2\n      pop\n        /* \"#utility.yul\":5810:5938   */\n      pop\n        /* \"#utility.yul\":5594:5945   */\n      swap3\n      swap2\n      pop\n      pop\n      jump\t// out\n        /* \"#utility.yul\":5951:6131   */\n    tag_177:\n        /* \"#utility.yul\":5999:6076   */\n      0x4e487b7100000000000000000000000000000000000000000000000000000000\n        /* \"#utility.yul\":5996:5997   */\n      0x00\n        /* \"#utility.yul\":5989:6077   */\n      mstore\n        /* \"#utility.yul\":6096:6100   */\n      0x32\n        /* \"#utility.yul\":6093:6094   */\n      0x04\n        /* \"#utility.yul\":6086:6101   */\n      mstore\n        /* \"#utility.yul\":6120:6124   */\n      0x24\n        /* \"#utility.yul\":6117:6118   */\n      0x00\n        /* \"#utility.yul\":6110:6125   */\n      revert\n        /* \"#utility.yul\":6137:6331   */\n    tag_249:\n        /* \"#utility.yul\":6177:6181   */\n      0x00\n        /* \"#utility.yul\":6197:6217   */\n      tag_413\n        /* \"#utility.yul\":6215:6216   */\n      dup3\n        /* \"#utility.yul\":6197:6217   */\n      tag_314\n      jump\t// in\n    tag_413:\n        /* \"#utility.yul\":6192:6217   */\n      swap2\n      pop\n        /* \"#utility.yul\":6231:6251   */\n      tag_414\n        /* \"#utility.yul\":6249:6250   */\n      dup4\n        /* \"#utility.yul\":6231:6251   */\n      tag_314\n      jump\t// in\n    tag_414:\n        /* \"#utility.yul\":6226:6251   */\n      swap3\n      pop\n        /* \"#utility.yul\":6275:6276   */\n      dup3\n        /* \"#utility.yul\":6272:6273   */\n      dup3\n        /* \"#utility.yul\":6268:6277   */\n      sub\n        /* \"#utility.yul\":6260:6277   */\n      swap1\n      pop\n        /* \"#utility.yul\":6299:6300   */\n      dup2\n        /* \"#utility.yul\":6293:6297   */\n      dup2\n        /* \"#utility.yul\":6290:6301   */\n      gt\n        /* \"#utility.yul\":6287:6324   */\n      iszero\n      tag_415\n      jumpi\n        /* \"#utility.yul\":6304:6322   */\n      tag_416\n      tag_333\n      jump\t// in\n    tag_416:\n        /* \"#utility.yul\":6287:6324   */\n    tag_415:\n        /* \"#utility.yul\":6137:6331   */\n      swap3\n      swap2\n      pop\n      pop\n      jump\t// out\n        /* \"#utility.yul\":6337:6747   */\n    tag_255:\n        /* \"#utility.yul\":6377:6384   */\n      0x00\n        /* \"#utility.yul\":6400:6420   */\n      tag_418\n        /* \"#utility.yul\":6418:6419   */\n      dup3\n        /* \"#utility.yul\":6400:6420   */\n      tag_314\n      jump\t// in\n    tag_418:\n        /* \"#utility.yul\":6395:6420   */\n      swap2\n      pop\n        /* \"#utility.yul\":6434:6454   */\n      tag_419\n        /* \"#utility.yul\":6452:6453   */\n      dup4\n        /* \"#utility.yul\":6434:6454   */\n      tag_314\n      jump\t// in\n    tag_419:\n        /* \"#utility.yul\":6429:6454   */\n      swap3\n      pop\n        /* \"#utility.yul\":6489:6490   */\n      dup3\n        /* \"#utility.yul\":6486:6487   */\n      dup3\n        /* \"#utility.yul\":6482:6491   */\n      mul\n        /* \"#utility.yul\":6511:6541   */\n      tag_420\n        /* \"#utility.yul\":6529:6540   */\n      dup2\n        /* \"#utility.yul\":6511:6541   */\n      tag_314\n      jump\t// in\n    tag_420:\n        /* \"#utility.yul\":6500:6541   */\n      swap2\n      pop\n        /* \"#utility.yul\":6690:6691   */\n      dup3\n        /* \"#utility.yul\":6681:6688   */\n      dup3\n        /* \"#utility.yul\":6677:6692   */\n      div\n        /* \"#utility.yul\":6674:6675   */\n      dup5\n        /* \"#utility.yul\":6671:6693   */\n      eq\n        /* \"#utility.yul\":6651:6652   */\n      dup4\n        /* \"#utility.yul\":6644:6653   */\n      iszero\n        /* \"#utility.yul\":6624:6707   */\n      or\n        /* \"#utility.yul\":6601:6740   */\n      tag_421\n      jumpi\n        /* \"#utility.yul\":6720:6738   */\n      tag_422\n      tag_333\n      jump\t// in\n    tag_422:\n        /* \"#utility.yul\":6601:6740   */\n    tag_421:\n        /* \"#utility.yul\":6385:6747   */\n      pop\n        /* \"#utility.yul\":6337:6747   */\n      swap3\n      swap2\n      pop\n      pop\n      jump\t// out\n        /* \"#utility.yul\":6753:6933   */\n    tag_335:\n        /* \"#utility.yul\":6801:6878   */\n      0x4e487b7100000000000000000000000000000000000000000000000000000000\n        /* \"#utility.yul\":6798:6799   */\n      0x00\n        /* \"#utility.yul\":6791:6879   */\n      mstore\n        /* \"#utility.yul\":6898:6902   */\n      0x12\n        /* \"#utility.yul\":6895:6896   */\n      0x04\n        /* \"#utility.yul\":6888:6903   */\n      mstore\n        /* \"#utility.yul\":6922:6926   */\n      0x24\n        /* \"#utility.yul\":6919:6920   */\n      0x00\n        /* \"#utility.yul\":6912:6927   */\n      revert\n        /* \"#utility.yul\":6939:7124   */\n    tag_258:\n        /* \"#utility.yul\":6979:6980   */\n      0x00\n        /* \"#utility.yul\":6996:7016   */\n      tag_425\n        /* \"#utility.yul\":7014:7015   */\n      dup3\n        /* \"#utility.yul\":6996:7016   */\n      tag_314\n      jump\t// in\n    tag_425:\n        /* \"#utility.yul\":6991:7016   */\n      swap2\n      pop\n        /* \"#utility.yul\":7030:7050   */\n      tag_426\n        /* \"#utility.yul\":7048:7049   */\n      dup4\n        /* \"#utility.yul\":7030:7050   */\n      tag_314\n      jump\t// in\n    tag_426:\n        /* \"#utility.yul\":7025:7050   */\n      swap3\n      pop\n        /* \"#utility.yul\":7069:7070   */\n      dup3\n        /* \"#utility.yul\":7059:7094   */\n      tag_427\n      jumpi\n        /* \"#utility.yul\":7074:7092   */\n      tag_428\n      tag_335\n      jump\t// in\n    tag_428:\n        /* \"#utility.yul\":7059:7094   */\n    tag_427:\n        /* \"#utility.yul\":7116:7117   */\n      dup3\n        /* \"#utility.yul\":7113:7114   */\n      dup3\n        /* \"#utility.yul\":7109:7118   */\n      div\n        /* \"#utility.yul\":7104:7118   */\n      swap1\n      pop\n        /* \"#utility.yul\":6939:7124   */\n      swap3\n      swap2\n      pop\n      pop\n      jump\t// out\n\n    auxdata: 0xa264697066735822122034e5785d2987a69127c9ff5249c806525da534562fb0b708e54e10f1f59195c164736f6c63430008180033\n}\n",
				"bytecode": {
					"linkReferences": {},
					"object": "60806040526201518060035562107ac060055561271060065561138860075560036008555f60095f6101000a81548160ff021916908315150217905550348015610047575f80fd5b50335f806101000a81548173ffffffffffffffffffffffffffffffffffffffff021916908373ffffffffffffffffffffffffffffffffffffffff16021790555033600960016101000a81548173ffffffffffffffffffffffffffffffffffffffff021916908373ffffffffffffffffffffffffffffffffffffffff160217905550611cbb806100d55f395ff3fe608060405260043610610134575f3560e01c80636dc39ec8116100aa57806397d757761161006e57806397d7577614610413578063e39316071461043d578063eaca243b14610453578063f2e809e01461047b578063f2fde38b146104a3578063f36f7c62146104cb57610134565b80636dc39ec814610350578063715018a61461038d57806388bedf91146103a35780638da5cb5b146103bf5780638f32d59b146103e957610134565b8063450c9d7d116100fc578063450c9d7d146101fa5780634ad47291146102365780634addc0e8146102725780634b634b061461029c57806351546044146102d85780636bd229621461031457610134565b806312065fe014610138578063224e80fc1461016257806323084e5f1461019e5780633c5f07cb146101b457806344bb9117146101be575b5f80fd5b348015610143575f80fd5b5061014c610507565b6040516101599190611896565b60405180910390f35b34801561016d575f80fd5b506101886004803603810190610183919061190d565b61050e565b6040516101959190611896565b60405180910390f35b3480156101a9575f80fd5b506101b2610565565b005b6101bc6106d7565b005b3480156101c9575f80fd5b506101e460048036038101906101df9190611962565b61071c565b6040516101f19190611896565b60405180910390f35b348015610205575f80fd5b50610220600480360381019061021b919061190d565b610731565b60405161022d9190611896565b60405180910390f35b348015610241575f80fd5b5061025c6004803603810190610257919061198d565b610754565b6040516102699190611896565b60405180910390f35b34801561027d575f80fd5b5061028661076a565b6040516102939190611896565b60405180910390f35b3480156102a7575f80fd5b506102c260048036038101906102bd919061190d565b610770565b6040516102cf9190611896565b60405180910390f35b3480156102e3575f80fd5b506102fe60048036038101906102f99190611962565b6107b6565b60405161030b9190611896565b60405180910390f35b34801561031f575f80fd5b5061033a6004803603810190610335919061190d565b6107c8565b6040516103479190611896565b60405180910390f35b34801561035b575f80fd5b5061037660048036038101906103719190611962565b610901565b6040516103849291906119da565b60405180910390f35b348015610398575f80fd5b506103a16109a8565b005b6103bd60048036038101906103b8919061190d565b610a5b565b005b3480156103ca575f80fd5b506103d3610b42565b6040516103e09190611a01565b60405180910390f35b3480156103f4575f80fd5b506103fd610b69565b60405161040a9190611a34565b60405180910390f35b34801561041e575f80fd5b50610427610bbe565b6040516104349190611aa8565b60405180910390f35b348015610448575f80fd5b50610451610be3565b005b34801561045e575f80fd5b5061047960048036038101906104749190611962565b610d34565b005b348015610486575f80fd5b506104a1600480360381019061049c919061190d565b610d4e565b005b3480156104ae575f80fd5b506104c960048036038101906104c4919061190d565b610e68565b005b3480156104d6575f80fd5b506104f160048036038101906104ec919061190d565b610e84565b6040516104fe9190611896565b60405180910390f35b5f47905090565b5f61055e600b5f8473ffffffffffffffffffffffffffffffffffffffff1673ffffffffffffffffffffffffffffffffffffffff1681526020019081526020015f2054610559846107c8565b610eca565b9050919050565b5f3390505f60025f8373ffffffffffffffffffffffffffffffffffffffff1673ffffffffffffffffffffffffffffffffffffffff1681526020019081526020015f2054905042600354826105b99190611aee565b10156105c65750506106d5565b4260025f8473ffffffffffffffffffffffffffffffffffffffff1673ffffffffffffffffffffffffffffffffffffffff1681526020019081526020015f20819055505f60015f9054906101000a900473ffffffffffffffffffffffffffffffffffffffff1673ffffffffffffffffffffffffffffffffffffffff1663954fa5ee30856040518363ffffffff1660e01b8152600401610665929190611b21565b6020604051808303815f875af1158015610681573d5f803e3d5ffd5b505050506040513d601f19601f820116820180604052508101906106a59190611b5c565b90505f8111156106d1578060045f8282546106c09190611aee565b925050819055506106d081610edf565b5b5050505b565b6106df610b69565b6106e7575f80fd5b5f600e54146106f4575f80fd5b600160095f6101000a81548160ff0219169083151502179055506419254d3800600e81905550565b5f61072a82600e5447610eeb565b9050919050565b5f8061073c8361050e565b90505f6107488261071c565b90508092505050919050565b5f6107628383600e54610eeb565b905092915050565b60035481565b5f600a5f8373ffffffffffffffffffffffffffffffffffffffff1673ffffffffffffffffffffffffffffffffffffffff1681526020019081526020015f20549050919050565b5f6107c18247610754565b9050919050565b5f8061081c60055461081742600c5f8873ffffffffffffffffffffffffffffffffffffffff1673ffffffffffffffffffffffffffffffffffffffff1681526020019081526020015f2054610f3d565b610f52565b90505f600f5f8573ffffffffffffffffffffffffffffffffffffffff1673ffffffffffffffffffffffffffffffffffffffff1681526020019081526020015f205490505f610899610878606460c8610f6a90919063ffffffff16565b61088b8486610f6a90919063ffffffff16565b610f7f90919063ffffffff16565b90506108ae8184610eca90919063ffffffff16565b92506108f783600a5f8873ffffffffffffffffffffffffffffffffffffffff1673ffffffffffffffffffffffffffffffffffffffff1681526020019081526020015f2054610f6a565b9350505050919050565b5f80601280549050831061091a575f80915091506109a3565b5f6012848154811061092f5761092e611b87565b5b905f5260205f20015f9054906101000a900473ffffffffffffffffffffffffffffffffffffffff1690505f600b5f8373ffffffffffffffffffffffffffffffffffffffff1673ffffffffffffffffffffffffffffffffffffffff1681526020019081526020015f2054905081819350935050505b915091565b6109b0610b69565b6109b8575f80fd5b5f8054906101000a900473ffffffffffffffffffffffffffffffffffffffff1673ffffffffffffffffffffffffffffffffffffffff167ff8df31144d9c2f0f6b59d69b8b98abd5459d07f2742c4df920b25aae33c6482060405160405180910390a25f805f6101000a81548173ffffffffffffffffffffffffffffffffffffffff021916908373ffffffffffffffffffffffffffffffffffffffff160217905550565b60095f9054906101000a900460ff16610a72575f80fd5b5f610a8634610a814734610f3d565b610754565b9050610a9a81610a9583610f94565b610f3d565b90505f610aa634610f94565b9050600960019054906101000a900473ffffffffffffffffffffffffffffffffffffffff1673ffffffffffffffffffffffffffffffffffffffff166108fc8290811502906040515f60405180830381858888f19350505050158015610b0d573d5f803e3d5ffd5b50610b183383610fb2565b610b22833461100f565b670de0b6b3a76400003410610b3d57610b3c3360c86113af565b5b505050565b5f805f9054906101000a900473ffffffffffffffffffffffffffffffffffffffff16905090565b5f805f9054906101000a900473ffffffffffffffffffffffffffffffffffffffff1673ffffffffffffffffffffffffffffffffffffffff163373ffffffffffffffffffffffffffffffffffffffff1614905090565b60015f9054906101000a900473ffffffffffffffffffffffffffffffffffffffff1681565b60095f9054906101000a900460ff16610bfa575f80fd5b5f610c043361050e565b90505f610c108261071c565b90505f610c1c82610f94565b9050610c28335f611459565b42600c5f3373ffffffffffffffffffffffffffffffffffffffff1673ffffffffffffffffffffffffffffffffffffffff1681526020019081526020015f2081905550610c76600e5484610eca565b600e81905550600960019054906101000a900473ffffffffffffffffffffffffffffffffffffffff1673ffffffffffffffffffffffffffffffffffffffff166108fc8290811502906040515f60405180830381858888f19350505050158015610ce1573d5f803e3d5ffd5b503373ffffffffffffffffffffffffffffffffffffffff166108fc610d068484610f3d565b90811502906040515f60405180830381858888f19350505050158015610d2e573d5f803e3d5ffd5b50505050565b610d3c610b69565b610d44575f80fd5b8060038190555050565b610d56610b69565b610d5e575f80fd5b5f73ffffffffffffffffffffffffffffffffffffffff168173ffffffffffffffffffffffffffffffffffffffff1603610da95773430000000000000000000000000000000000000290505b8060015f6101000a81548173ffffffffffffffffffffffffffffffffffffffff021916908373ffffffffffffffffffffffffffffffffffffffff16021790555060015f9054906101000a900473ffffffffffffffffffffffffffffffffffffffff1673ffffffffffffffffffffffffffffffffffffffff16634e606c476040518163ffffffff1660e01b81526004015f604051808303815f87803b158015610e4f575f80fd5b505af1158015610e61573d5f803e3d5ffd5b5050505050565b610e70610b69565b610e78575f80fd5b610e81816115aa565b50565b5f600f5f8373ffffffffffffffffffffffffffffffffffffffff1673ffffffffffffffffffffffffffffffffffffffff1681526020019081526020015f20549050919050565b5f8183610ed79190611aee565b905092915050565b610ee88161169c565b50565b5f610f34610efb60065484610f6a565b610f2f600754610f2a610f24610f136006548a610f6a565b610f1f6007548c610f6a565b610eca565b89610f7f565b610eca565b610f7f565b90509392505050565b5f8183610f4a9190611bb4565b905092915050565b5f818310610f605781610f62565b825b905092915050565b5f8183610f779190611be7565b905092915050565b5f8183610f8c9190611c55565b905092915050565b5f610fab610fa483600854610f6a565b6064610f7f565b9050919050565b61100b8261100683600b5f8773ffffffffffffffffffffffffffffffffffffffff1673ffffffffffffffffffffffffffffffffffffffff1681526020019081526020015f2054610eca90919063ffffffff16565b611459565b5050565b60095f9054906101000a900460ff16611026575f80fd5b3373ffffffffffffffffffffffffffffffffffffffff168273ffffffffffffffffffffffffffffffffffffffff160361105d575f91505b5f73ffffffffffffffffffffffffffffffffffffffff16600d5f3373ffffffffffffffffffffffffffffffffffffffff1673ffffffffffffffffffffffffffffffffffffffff1681526020019081526020015f205f9054906101000a900473ffffffffffffffffffffffffffffffffffffffff1673ffffffffffffffffffffffffffffffffffffffff1614801561117c57503373ffffffffffffffffffffffffffffffffffffffff16600d5f3373ffffffffffffffffffffffffffffffffffffffff1673ffffffffffffffffffffffffffffffffffffffff1681526020019081526020015f205f9054906101000a900473ffffffffffffffffffffffffffffffffffffffff1673ffffffffffffffffffffffffffffffffffffffff1614155b156112385781600d5f3373ffffffffffffffffffffffffffffffffffffffff1673ffffffffffffffffffffffffffffffffffffffff1681526020019081526020015f205f6101000a81548173ffffffffffffffffffffffffffffffffffffffff021916908373ffffffffffffffffffffffffffffffffffffffff160217905550670de0b6b3a7640000811061121b576112168260c86113af565b611237565b67016345785d8a00008110611236576112358260286113af565b5b5b5b5f6112423361050e565b90505f61125182600554610f7f565b905061129a600a5f3373ffffffffffffffffffffffffffffffffffffffff1673ffffffffffffffffffffffffffffffffffffffff1681526020019081526020015f205482610eca565b600a5f3373ffffffffffffffffffffffffffffffffffffffff1673ffffffffffffffffffffffffffffffffffffffff1681526020019081526020015f20819055506112e5335f611459565b42600c5f3373ffffffffffffffffffffffffffffffffffffffff1673ffffffffffffffffffffffffffffffffffffffff1681526020019081526020015f208190555061138d600d5f3373ffffffffffffffffffffffffffffffffffffffff1673ffffffffffffffffffffffffffffffffffffffff1681526020019081526020015f205f9054906101000a900473ffffffffffffffffffffffffffffffffffffffff1683611781565b6113a3600e5461139e846005610f7f565b610eca565b600e8190555050505050565b5f61140082600f5f8673ffffffffffffffffffffffffffffffffffffffff1673ffffffffffffffffffffffffffffffffffffffff1681526020019081526020015f2054610eca90919063ffffffff16565b90506127108111156114125761271090505b80600f5f8573ffffffffffffffffffffffffffffffffffffffff1673ffffffffffffffffffffffffffffffffffffffff1681526020019081526020015f2081905550505050565b6001151560115f8473ffffffffffffffffffffffffffffffffffffffff1673ffffffffffffffffffffffffffffffffffffffff1681526020019081526020015f205f9054906101000a900460ff1615151461156457601082908060018154018082558091505060019003905f5260205f20015f9091909190916101000a81548173ffffffffffffffffffffffffffffffffffffffff021916908373ffffffffffffffffffffffffffffffffffffffff160217905550600160115f8473ffffffffffffffffffffffffffffffffffffffff1673ffffffffffffffffffffffffffffffffffffffff1681526020019081526020015f205f6101000a81548160ff0219169083151502179055505b80600b5f8473ffffffffffffffffffffffffffffffffffffffff1673ffffffffffffffffffffffffffffffffffffffff1681526020019081526020015f20819055505050565b5f73ffffffffffffffffffffffffffffffffffffffff168173ffffffffffffffffffffffffffffffffffffffff16036115e1575f80fd5b8073ffffffffffffffffffffffffffffffffffffffff165f8054906101000a900473ffffffffffffffffffffffffffffffffffffffff1673ffffffffffffffffffffffffffffffffffffffff167f8be0079c531659141344cd1fd0a4f28419497f9722a3daafe3b4186f6b6457e060405160405180910390a3805f806101000a81548173ffffffffffffffffffffffffffffffffffffffff021916908373ffffffffffffffffffffffffffffffffffffffff16021790555050565b5f81111561177e575f805f5b60108054905081101561177a57601081815481106116c9576116c8611b87565b5b905f5260205f20015f9054906101000a900473ffffffffffffffffffffffffffffffffffffffff169250611757600e54611749600b5f8773ffffffffffffffffffffffffffffffffffffffff1673ffffffffffffffffffffffffffffffffffffffff1681526020019081526020015f205487610f6a90919063ffffffff16565b610f7f90919063ffffffff16565b91505f82111561176d5761176b8383611831565b505b80806001019150506116a8565b5050505b50565b5f600f5f8473ffffffffffffffffffffffffffffffffffffffff1673ffffffffffffffffffffffffffffffffffffffff1681526020019081526020015f205490505f6117ea60c86117dc601085610f6a90919063ffffffff16565b610f7f90919063ffffffff16565b90505f816130d46117fb9190611aee565b90505f61181d620186a061180f8785610f6a565b610f7f90919063ffffffff16565b90506118298682610fb2565b505050505050565b5f8273ffffffffffffffffffffffffffffffffffffffff166108fc8390811502906040515f60405180830381858888f19350505050156118745760019050611878565b5f90505b92915050565b5f819050919050565b6118908161187e565b82525050565b5f6020820190506118a95f830184611887565b92915050565b5f80fd5b5f73ffffffffffffffffffffffffffffffffffffffff82169050919050565b5f6118dc826118b3565b9050919050565b6118ec816118d2565b81146118f6575f80fd5b50565b5f81359050611907816118e3565b92915050565b5f60208284031215611922576119216118af565b5b5f61192f848285016118f9565b91505092915050565b6119418161187e565b811461194b575f80fd5b50565b5f8135905061195c81611938565b92915050565b5f60208284031215611977576119766118af565b5b5f6119848482850161194e565b91505092915050565b5f80604083850312156119a3576119a26118af565b5b5f6119b08582860161194e565b92505060206119c18582860161194e565b9150509250929050565b6119d4816118d2565b82525050565b5f6040820190506119ed5f8301856119cb565b6119fa6020830184611887565b9392505050565b5f602082019050611a145f8301846119cb565b92915050565b5f8115159050919050565b611a2e81611a1a565b82525050565b5f602082019050611a475f830184611a25565b92915050565b5f819050919050565b5f611a70611a6b611a66846118b3565b611a4d565b6118b3565b9050919050565b5f611a8182611a56565b9050919050565b5f611a9282611a77565b9050919050565b611aa281611a88565b82525050565b5f602082019050611abb5f830184611a99565b92915050565b7f4e487b71000000000000000000000000000000000000000000000000000000005f52601160045260245ffd5b5f611af88261187e565b9150611b038361187e565b9250828201905080821115611b1b57611b1a611ac1565b5b92915050565b5f604082019050611b345f8301856119cb565b611b4160208301846119cb565b9392505050565b5f81519050611b5681611938565b92915050565b5f60208284031215611b7157611b706118af565b5b5f611b7e84828501611b48565b91505092915050565b7f4e487b71000000000000000000000000000000000000000000000000000000005f52603260045260245ffd5b5f611bbe8261187e565b9150611bc98361187e565b9250828203905081811115611be157611be0611ac1565b5b92915050565b5f611bf18261187e565b9150611bfc8361187e565b9250828202611c0a8161187e565b91508282048414831517611c2157611c20611ac1565b5b5092915050565b7f4e487b71000000000000000000000000000000000000000000000000000000005f52601260045260245ffd5b5f611c5f8261187e565b9150611c6a8361187e565b925082611c7a57611c79611c28565b5b82820490509291505056fea264697066735822122034e5785d2987a69127c9ff5249c806525da534562fb0b708e54e10f1f59195c164736f6c63430008180033",
					"opcodes": "PUSH1 0x80 PUSH1 0x40 MSTORE PUSH3 0x15180 PUSH1 0x3 SSTORE PUSH3 0x107AC0 PUSH1 0x5 SSTORE PUSH2 0x2710 PUSH1 0x6 SSTORE PUSH2 0x1388 PUSH1 0x7 SSTORE PUSH1 0x3 PUSH1 0x8 SSTORE PUSH0 PUSH1 0x9 PUSH0 PUSH2 0x100 EXP DUP2 SLOAD DUP2 PUSH1 0xFF MUL NOT AND SWAP1 DUP4 ISZERO ISZERO MUL OR SWAP1 SSTORE POP CALLVALUE DUP1 ISZERO PUSH2 0x47 JUMPI PUSH0 DUP1 REVERT JUMPDEST POP CALLER PUSH0 DUP1 PUSH2 0x100 EXP DUP2 SLOAD DUP2 PUSH20 0xFFFFFFFFFFFFFFFFFFFFFFFFFFFFFFFFFFFFFFFF MUL NOT AND SWAP1 DUP4 PUSH20 0xFFFFFFFFFFFFFFFFFFFFFFFFFFFFFFFFFFFFFFFF AND MUL OR SWAP1 SSTORE POP CALLER PUSH1 0x9 PUSH1 0x1 PUSH2 0x100 EXP DUP2 SLOAD DUP2 PUSH20 0xFFFFFFFFFFFFFFFFFFFFFFFFFFFFFFFFFFFFFFFF MUL NOT AND SWAP1 DUP4 PUSH20 0xFFFFFFFFFFFFFFFFFFFFFFFFFFFFFFFFFFFFFFFF AND MUL OR SWAP1 SSTORE POP PUSH2 0x1CBB DUP1 PUSH2 0xD5 PUSH0 CODECOPY PUSH0 RETURN INVALID PUSH1 0x80 PUSH1 0x40 MSTORE PUSH1 0x4 CALLDATASIZE LT PUSH2 0x134 JUMPI PUSH0 CALLDATALOAD PUSH1 0xE0 SHR DUP1 PUSH4 0x6DC39EC8 GT PUSH2 0xAA JUMPI DUP1 PUSH4 0x97D75776 GT PUSH2 0x6E JUMPI DUP1 PUSH4 0x97D75776 EQ PUSH2 0x413 JUMPI DUP1 PUSH4 0xE3931607 EQ PUSH2 0x43D JUMPI DUP1 PUSH4 0xEACA243B EQ PUSH2 0x453 JUMPI DUP1 PUSH4 0xF2E809E0 EQ PUSH2 0x47B JUMPI DUP1 PUSH4 0xF2FDE38B EQ PUSH2 0x4A3 JUMPI DUP1 PUSH4 0xF36F7C62 EQ PUSH2 0x4CB JUMPI PUSH2 0x134 JUMP JUMPDEST DUP1 PUSH4 0x6DC39EC8 EQ PUSH2 0x350 JUMPI DUP1 PUSH4 0x715018A6 EQ PUSH2 0x38D JUMPI DUP1 PUSH4 0x88BEDF91 EQ PUSH2 0x3A3 JUMPI DUP1 PUSH4 0x8DA5CB5B EQ PUSH2 0x3BF JUMPI DUP1 PUSH4 0x8F32D59B EQ PUSH2 0x3E9 JUMPI PUSH2 0x134 JUMP JUMPDEST DUP1 PUSH4 0x450C9D7D GT PUSH2 0xFC JUMPI DUP1 PUSH4 0x450C9D7D EQ PUSH2 0x1FA JUMPI DUP1 PUSH4 0x4AD47291 EQ PUSH2 0x236 JUMPI DUP1 PUSH4 0x4ADDC0E8 EQ PUSH2 0x272 JUMPI DUP1 PUSH4 0x4B634B06 EQ PUSH2 0x29C JUMPI DUP1 PUSH4 0x51546044 EQ PUSH2 0x2D8 JUMPI DUP1 PUSH4 0x6BD22962 EQ PUSH2 0x314 JUMPI PUSH2 0x134 JUMP JUMPDEST DUP1 PUSH4 0x12065FE0 EQ PUSH2 0x138 JUMPI DUP1 PUSH4 0x224E80FC EQ PUSH2 0x162 JUMPI DUP1 PUSH4 0x23084E5F EQ PUSH2 0x19E JUMPI DUP1 PUSH4 0x3C5F07CB EQ PUSH2 0x1B4 JUMPI DUP1 PUSH4 0x44BB9117 EQ PUSH2 0x1BE JUMPI JUMPDEST PUSH0 DUP1 REVERT JUMPDEST CALLVALUE DUP1 ISZERO PUSH2 0x143 JUMPI PUSH0 DUP1 REVERT JUMPDEST POP PUSH2 0x14C PUSH2 0x507 JUMP JUMPDEST PUSH1 0x40 MLOAD PUSH2 0x159 SWAP2 SWAP1 PUSH2 0x1896 JUMP JUMPDEST PUSH1 0x40 MLOAD DUP1 SWAP2 SUB SWAP1 RETURN JUMPDEST CALLVALUE DUP1 ISZERO PUSH2 0x16D JUMPI PUSH0 DUP1 REVERT JUMPDEST POP PUSH2 0x188 PUSH1 0x4 DUP1 CALLDATASIZE SUB DUP2 ADD SWAP1 PUSH2 0x183 SWAP2 SWAP1 PUSH2 0x190D JUMP JUMPDEST PUSH2 0x50E JUMP JUMPDEST PUSH1 0x40 MLOAD PUSH2 0x195 SWAP2 SWAP1 PUSH2 0x1896 JUMP JUMPDEST PUSH1 0x40 MLOAD DUP1 SWAP2 SUB SWAP1 RETURN JUMPDEST CALLVALUE DUP1 ISZERO PUSH2 0x1A9 JUMPI PUSH0 DUP1 REVERT JUMPDEST POP PUSH2 0x1B2 PUSH2 0x565 JUMP JUMPDEST STOP JUMPDEST PUSH2 0x1BC PUSH2 0x6D7 JUMP JUMPDEST STOP JUMPDEST CALLVALUE DUP1 ISZERO PUSH2 0x1C9 JUMPI PUSH0 DUP1 REVERT JUMPDEST POP PUSH2 0x1E4 PUSH1 0x4 DUP1 CALLDATASIZE SUB DUP2 ADD SWAP1 PUSH2 0x1DF SWAP2 SWAP1 PUSH2 0x1962 JUMP JUMPDEST PUSH2 0x71C JUMP JUMPDEST PUSH1 0x40 MLOAD PUSH2 0x1F1 SWAP2 SWAP1 PUSH2 0x1896 JUMP JUMPDEST PUSH1 0x40 MLOAD DUP1 SWAP2 SUB SWAP1 RETURN JUMPDEST CALLVALUE DUP1 ISZERO PUSH2 0x205 JUMPI PUSH0 DUP1 REVERT JUMPDEST POP PUSH2 0x220 PUSH1 0x4 DUP1 CALLDATASIZE SUB DUP2 ADD SWAP1 PUSH2 0x21B SWAP2 SWAP1 PUSH2 0x190D JUMP JUMPDEST PUSH2 0x731 JUMP JUMPDEST PUSH1 0x40 MLOAD PUSH2 0x22D SWAP2 SWAP1 PUSH2 0x1896 JUMP JUMPDEST PUSH1 0x40 MLOAD DUP1 SWAP2 SUB SWAP1 RETURN JUMPDEST CALLVALUE DUP1 ISZERO PUSH2 0x241 JUMPI PUSH0 DUP1 REVERT JUMPDEST POP PUSH2 0x25C PUSH1 0x4 DUP1 CALLDATASIZE SUB DUP2 ADD SWAP1 PUSH2 0x257 SWAP2 SWAP1 PUSH2 0x198D JUMP JUMPDEST PUSH2 0x754 JUMP JUMPDEST PUSH1 0x40 MLOAD PUSH2 0x269 SWAP2 SWAP1 PUSH2 0x1896 JUMP JUMPDEST PUSH1 0x40 MLOAD DUP1 SWAP2 SUB SWAP1 RETURN JUMPDEST CALLVALUE DUP1 ISZERO PUSH2 0x27D JUMPI PUSH0 DUP1 REVERT JUMPDEST POP PUSH2 0x286 PUSH2 0x76A JUMP JUMPDEST PUSH1 0x40 MLOAD PUSH2 0x293 SWAP2 SWAP1 PUSH2 0x1896 JUMP JUMPDEST PUSH1 0x40 MLOAD DUP1 SWAP2 SUB SWAP1 RETURN JUMPDEST CALLVALUE DUP1 ISZERO PUSH2 0x2A7 JUMPI PUSH0 DUP1 REVERT JUMPDEST POP PUSH2 0x2C2 PUSH1 0x4 DUP1 CALLDATASIZE SUB DUP2 ADD SWAP1 PUSH2 0x2BD SWAP2 SWAP1 PUSH2 0x190D JUMP JUMPDEST PUSH2 0x770 JUMP JUMPDEST PUSH1 0x40 MLOAD PUSH2 0x2CF SWAP2 SWAP1 PUSH2 0x1896 JUMP JUMPDEST PUSH1 0x40 MLOAD DUP1 SWAP2 SUB SWAP1 RETURN JUMPDEST CALLVALUE DUP1 ISZERO PUSH2 0x2E3 JUMPI PUSH0 DUP1 REVERT JUMPDEST POP PUSH2 0x2FE PUSH1 0x4 DUP1 CALLDATASIZE SUB DUP2 ADD SWAP1 PUSH2 0x2F9 SWAP2 SWAP1 PUSH2 0x1962 JUMP JUMPDEST PUSH2 0x7B6 JUMP JUMPDEST PUSH1 0x40 MLOAD PUSH2 0x30B SWAP2 SWAP1 PUSH2 0x1896 JUMP JUMPDEST PUSH1 0x40 MLOAD DUP1 SWAP2 SUB SWAP1 RETURN JUMPDEST CALLVALUE DUP1 ISZERO PUSH2 0x31F JUMPI PUSH0 DUP1 REVERT JUMPDEST POP PUSH2 0x33A PUSH1 0x4 DUP1 CALLDATASIZE SUB DUP2 ADD SWAP1 PUSH2 0x335 SWAP2 SWAP1 PUSH2 0x190D JUMP JUMPDEST PUSH2 0x7C8 JUMP JUMPDEST PUSH1 0x40 MLOAD PUSH2 0x347 SWAP2 SWAP1 PUSH2 0x1896 JUMP JUMPDEST PUSH1 0x40 MLOAD DUP1 SWAP2 SUB SWAP1 RETURN JUMPDEST CALLVALUE DUP1 ISZERO PUSH2 0x35B JUMPI PUSH0 DUP1 REVERT JUMPDEST POP PUSH2 0x376 PUSH1 0x4 DUP1 CALLDATASIZE SUB DUP2 ADD SWAP1 PUSH2 0x371 SWAP2 SWAP1 PUSH2 0x1962 JUMP JUMPDEST PUSH2 0x901 JUMP JUMPDEST PUSH1 0x40 MLOAD PUSH2 0x384 SWAP3 SWAP2 SWAP1 PUSH2 0x19DA JUMP JUMPDEST PUSH1 0x40 MLOAD DUP1 SWAP2 SUB SWAP1 RETURN JUMPDEST CALLVALUE DUP1 ISZERO PUSH2 0x398 JUMPI PUSH0 DUP1 REVERT JUMPDEST POP PUSH2 0x3A1 PUSH2 0x9A8 JUMP JUMPDEST STOP JUMPDEST PUSH2 0x3BD PUSH1 0x4 DUP1 CALLDATASIZE SUB DUP2 ADD SWAP1 PUSH2 0x3B8 SWAP2 SWAP1 PUSH2 0x190D JUMP JUMPDEST PUSH2 0xA5B JUMP JUMPDEST STOP JUMPDEST CALLVALUE DUP1 ISZERO PUSH2 0x3CA JUMPI PUSH0 DUP1 REVERT JUMPDEST POP PUSH2 0x3D3 PUSH2 0xB42 JUMP JUMPDEST PUSH1 0x40 MLOAD PUSH2 0x3E0 SWAP2 SWAP1 PUSH2 0x1A01 JUMP JUMPDEST PUSH1 0x40 MLOAD DUP1 SWAP2 SUB SWAP1 RETURN JUMPDEST CALLVALUE DUP1 ISZERO PUSH2 0x3F4 JUMPI PUSH0 DUP1 REVERT JUMPDEST POP PUSH2 0x3FD PUSH2 0xB69 JUMP JUMPDEST PUSH1 0x40 MLOAD PUSH2 0x40A SWAP2 SWAP1 PUSH2 0x1A34 JUMP JUMPDEST PUSH1 0x40 MLOAD DUP1 SWAP2 SUB SWAP1 RETURN JUMPDEST CALLVALUE DUP1 ISZERO PUSH2 0x41E JUMPI PUSH0 DUP1 REVERT JUMPDEST POP PUSH2 0x427 PUSH2 0xBBE JUMP JUMPDEST PUSH1 0x40 MLOAD PUSH2 0x434 SWAP2 SWAP1 PUSH2 0x1AA8 JUMP JUMPDEST PUSH1 0x40 MLOAD DUP1 SWAP2 SUB SWAP1 RETURN JUMPDEST CALLVALUE DUP1 ISZERO PUSH2 0x448 JUMPI PUSH0 DUP1 REVERT JUMPDEST POP PUSH2 0x451 PUSH2 0xBE3 JUMP JUMPDEST STOP JUMPDEST CALLVALUE DUP1 ISZERO PUSH2 0x45E JUMPI PUSH0 DUP1 REVERT JUMPDEST POP PUSH2 0x479 PUSH1 0x4 DUP1 CALLDATASIZE SUB DUP2 ADD SWAP1 PUSH2 0x474 SWAP2 SWAP1 PUSH2 0x1962 JUMP JUMPDEST PUSH2 0xD34 JUMP JUMPDEST STOP JUMPDEST CALLVALUE DUP1 ISZERO PUSH2 0x486 JUMPI PUSH0 DUP1 REVERT JUMPDEST POP PUSH2 0x4A1 PUSH1 0x4 DUP1 CALLDATASIZE SUB DUP2 ADD SWAP1 PUSH2 0x49C SWAP2 SWAP1 PUSH2 0x190D JUMP JUMPDEST PUSH2 0xD4E JUMP JUMPDEST STOP JUMPDEST CALLVALUE DUP1 ISZERO PUSH2 0x4AE JUMPI PUSH0 DUP1 REVERT JUMPDEST POP PUSH2 0x4C9 PUSH1 0x4 DUP1 CALLDATASIZE SUB DUP2 ADD SWAP1 PUSH2 0x4C4 SWAP2 SWAP1 PUSH2 0x190D JUMP JUMPDEST PUSH2 0xE68 JUMP JUMPDEST STOP JUMPDEST CALLVALUE DUP1 ISZERO PUSH2 0x4D6 JUMPI PUSH0 DUP1 REVERT JUMPDEST POP PUSH2 0x4F1 PUSH1 0x4 DUP1 CALLDATASIZE SUB DUP2 ADD SWAP1 PUSH2 0x4EC SWAP2 SWAP1 PUSH2 0x190D JUMP JUMPDEST PUSH2 0xE84 JUMP JUMPDEST PUSH1 0x40 MLOAD PUSH2 0x4FE SWAP2 SWAP1 PUSH2 0x1896 JUMP JUMPDEST PUSH1 0x40 MLOAD DUP1 SWAP2 SUB SWAP1 RETURN JUMPDEST PUSH0 SELFBALANCE SWAP1 POP SWAP1 JUMP JUMPDEST PUSH0 PUSH2 0x55E PUSH1 0xB PUSH0 DUP5 PUSH20 0xFFFFFFFFFFFFFFFFFFFFFFFFFFFFFFFFFFFFFFFF AND PUSH20 0xFFFFFFFFFFFFFFFFFFFFFFFFFFFFFFFFFFFFFFFF AND DUP2 MSTORE PUSH1 0x20 ADD SWAP1 DUP2 MSTORE PUSH1 0x20 ADD PUSH0 KECCAK256 SLOAD PUSH2 0x559 DUP5 PUSH2 0x7C8 JUMP JUMPDEST PUSH2 0xECA JUMP JUMPDEST SWAP1 POP SWAP2 SWAP1 POP JUMP JUMPDEST PUSH0 CALLER SWAP1 POP PUSH0 PUSH1 0x2 PUSH0 DUP4 PUSH20 0xFFFFFFFFFFFFFFFFFFFFFFFFFFFFFFFFFFFFFFFF AND PUSH20 0xFFFFFFFFFFFFFFFFFFFFFFFFFFFFFFFFFFFFFFFF AND DUP2 MSTORE PUSH1 0x20 ADD SWAP1 DUP2 MSTORE PUSH1 0x20 ADD PUSH0 KECCAK256 SLOAD SWAP1 POP TIMESTAMP PUSH1 0x3 SLOAD DUP3 PUSH2 0x5B9 SWAP2 SWAP1 PUSH2 0x1AEE JUMP JUMPDEST LT ISZERO PUSH2 0x5C6 JUMPI POP POP PUSH2 0x6D5 JUMP JUMPDEST TIMESTAMP PUSH1 0x2 PUSH0 DUP5 PUSH20 0xFFFFFFFFFFFFFFFFFFFFFFFFFFFFFFFFFFFFFFFF AND PUSH20 0xFFFFFFFFFFFFFFFFFFFFFFFFFFFFFFFFFFFFFFFF AND DUP2 MSTORE PUSH1 0x20 ADD SWAP1 DUP2 MSTORE PUSH1 0x20 ADD PUSH0 KECCAK256 DUP2 SWAP1 SSTORE POP PUSH0 PUSH1 0x1 PUSH0 SWAP1 SLOAD SWAP1 PUSH2 0x100 EXP SWAP1 DIV PUSH20 0xFFFFFFFFFFFFFFFFFFFFFFFFFFFFFFFFFFFFFFFF AND PUSH20 0xFFFFFFFFFFFFFFFFFFFFFFFFFFFFFFFFFFFFFFFF AND PUSH4 0x954FA5EE ADDRESS DUP6 PUSH1 0x40 MLOAD DUP4 PUSH4 0xFFFFFFFF AND PUSH1 0xE0 SHL DUP2 MSTORE PUSH1 0x4 ADD PUSH2 0x665 SWAP3 SWAP2 SWAP1 PUSH2 0x1B21 JUMP JUMPDEST PUSH1 0x20 PUSH1 0x40 MLOAD DUP1 DUP4 SUB DUP2 PUSH0 DUP8 GAS CALL ISZERO DUP1 ISZERO PUSH2 0x681 JUMPI RETURNDATASIZE PUSH0 DUP1 RETURNDATACOPY RETURNDATASIZE PUSH0 REVERT JUMPDEST POP POP POP POP PUSH1 0x40 MLOAD RETURNDATASIZE PUSH1 0x1F NOT PUSH1 0x1F DUP3 ADD AND DUP3 ADD DUP1 PUSH1 0x40 MSTORE POP DUP2 ADD SWAP1 PUSH2 0x6A5 SWAP2 SWAP1 PUSH2 0x1B5C JUMP JUMPDEST SWAP1 POP PUSH0 DUP2 GT ISZERO PUSH2 0x6D1 JUMPI DUP1 PUSH1 0x4 PUSH0 DUP3 DUP3 SLOAD PUSH2 0x6C0 SWAP2 SWAP1 PUSH2 0x1AEE JUMP JUMPDEST SWAP3 POP POP DUP2 SWAP1 SSTORE POP PUSH2 0x6D0 DUP2 PUSH2 0xEDF JUMP JUMPDEST JUMPDEST POP POP POP JUMPDEST JUMP JUMPDEST PUSH2 0x6DF PUSH2 0xB69 JUMP JUMPDEST PUSH2 0x6E7 JUMPI PUSH0 DUP1 REVERT JUMPDEST PUSH0 PUSH1 0xE SLOAD EQ PUSH2 0x6F4 JUMPI PUSH0 DUP1 REVERT JUMPDEST PUSH1 0x1 PUSH1 0x9 PUSH0 PUSH2 0x100 EXP DUP2 SLOAD DUP2 PUSH1 0xFF MUL NOT AND SWAP1 DUP4 ISZERO ISZERO MUL OR SWAP1 SSTORE POP PUSH5 0x19254D3800 PUSH1 0xE DUP2 SWAP1 SSTORE POP JUMP JUMPDEST PUSH0 PUSH2 0x72A DUP3 PUSH1 0xE SLOAD SELFBALANCE PUSH2 0xEEB JUMP JUMPDEST SWAP1 POP SWAP2 SWAP1 POP JUMP JUMPDEST PUSH0 DUP1 PUSH2 0x73C DUP4 PUSH2 0x50E JUMP JUMPDEST SWAP1 POP PUSH0 PUSH2 0x748 DUP3 PUSH2 0x71C JUMP JUMPDEST SWAP1 POP DUP1 SWAP3 POP POP POP SWAP2 SWAP1 POP JUMP JUMPDEST PUSH0 PUSH2 0x762 DUP4 DUP4 PUSH1 0xE SLOAD PUSH2 0xEEB JUMP JUMPDEST SWAP1 POP SWAP3 SWAP2 POP POP JUMP JUMPDEST PUSH1 0x3 SLOAD DUP2 JUMP JUMPDEST PUSH0 PUSH1 0xA PUSH0 DUP4 PUSH20 0xFFFFFFFFFFFFFFFFFFFFFFFFFFFFFFFFFFFFFFFF AND PUSH20 0xFFFFFFFFFFFFFFFFFFFFFFFFFFFFFFFFFFFFFFFF AND DUP2 MSTORE PUSH1 0x20 ADD SWAP1 DUP2 MSTORE PUSH1 0x20 ADD PUSH0 KECCAK256 SLOAD SWAP1 POP SWAP2 SWAP1 POP JUMP JUMPDEST PUSH0 PUSH2 0x7C1 DUP3 SELFBALANCE PUSH2 0x754 JUMP JUMPDEST SWAP1 POP SWAP2 SWAP1 POP JUMP JUMPDEST PUSH0 DUP1 PUSH2 0x81C PUSH1 0x5 SLOAD PUSH2 0x817 TIMESTAMP PUSH1 0xC PUSH0 DUP9 PUSH20 0xFFFFFFFFFFFFFFFFFFFFFFFFFFFFFFFFFFFFFFFF AND PUSH20 0xFFFFFFFFFFFFFFFFFFFFFFFFFFFFFFFFFFFFFFFF AND DUP2 MSTORE PUSH1 0x20 ADD SWAP1 DUP2 MSTORE PUSH1 0x20 ADD PUSH0 KECCAK256 SLOAD PUSH2 0xF3D JUMP JUMPDEST PUSH2 0xF52 JUMP JUMPDEST SWAP1 POP PUSH0 PUSH1 0xF PUSH0 DUP6 PUSH20 0xFFFFFFFFFFFFFFFFFFFFFFFFFFFFFFFFFFFFFFFF AND PUSH20 0xFFFFFFFFFFFFFFFFFFFFFFFFFFFFFFFFFFFFFFFF AND DUP2 MSTORE PUSH1 0x20 ADD SWAP1 DUP2 MSTORE PUSH1 0x20 ADD PUSH0 KECCAK256 SLOAD SWAP1 POP PUSH0 PUSH2 0x899 PUSH2 0x878 PUSH1 0x64 PUSH1 0xC8 PUSH2 0xF6A SWAP1 SWAP2 SWAP1 PUSH4 0xFFFFFFFF AND JUMP JUMPDEST PUSH2 0x88B DUP5 DUP7 PUSH2 0xF6A SWAP1 SWAP2 SWAP1 PUSH4 0xFFFFFFFF AND JUMP JUMPDEST PUSH2 0xF7F SWAP1 SWAP2 SWAP1 PUSH4 0xFFFFFFFF AND JUMP JUMPDEST SWAP1 POP PUSH2 0x8AE DUP2 DUP5 PUSH2 0xECA SWAP1 SWAP2 SWAP1 PUSH4 0xFFFFFFFF AND JUMP JUMPDEST SWAP3 POP PUSH2 0x8F7 DUP4 PUSH1 0xA PUSH0 DUP9 PUSH20 0xFFFFFFFFFFFFFFFFFFFFFFFFFFFFFFFFFFFFFFFF AND PUSH20 0xFFFFFFFFFFFFFFFFFFFFFFFFFFFFFFFFFFFFFFFF AND DUP2 MSTORE PUSH1 0x20 ADD SWAP1 DUP2 MSTORE PUSH1 0x20 ADD PUSH0 KECCAK256 SLOAD PUSH2 0xF6A JUMP JUMPDEST SWAP4 POP POP POP POP SWAP2 SWAP1 POP JUMP JUMPDEST PUSH0 DUP1 PUSH1 0x12 DUP1 SLOAD SWAP1 POP DUP4 LT PUSH2 0x91A JUMPI PUSH0 DUP1 SWAP2 POP SWAP2 POP PUSH2 0x9A3 JUMP JUMPDEST PUSH0 PUSH1 0x12 DUP5 DUP2 SLOAD DUP2 LT PUSH2 0x92F JUMPI PUSH2 0x92E PUSH2 0x1B87 JUMP JUMPDEST JUMPDEST SWAP1 PUSH0 MSTORE PUSH1 0x20 PUSH0 KECCAK256 ADD PUSH0 SWAP1 SLOAD SWAP1 PUSH2 0x100 EXP SWAP1 DIV PUSH20 0xFFFFFFFFFFFFFFFFFFFFFFFFFFFFFFFFFFFFFFFF AND SWAP1 POP PUSH0 PUSH1 0xB PUSH0 DUP4 PUSH20 0xFFFFFFFFFFFFFFFFFFFFFFFFFFFFFFFFFFFFFFFF AND PUSH20 0xFFFFFFFFFFFFFFFFFFFFFFFFFFFFFFFFFFFFFFFF AND DUP2 MSTORE PUSH1 0x20 ADD SWAP1 DUP2 MSTORE PUSH1 0x20 ADD PUSH0 KECCAK256 SLOAD SWAP1 POP DUP2 DUP2 SWAP4 POP SWAP4 POP POP POP JUMPDEST SWAP2 POP SWAP2 JUMP JUMPDEST PUSH2 0x9B0 PUSH2 0xB69 JUMP JUMPDEST PUSH2 0x9B8 JUMPI PUSH0 DUP1 REVERT JUMPDEST PUSH0 DUP1 SLOAD SWAP1 PUSH2 0x100 EXP SWAP1 DIV PUSH20 0xFFFFFFFFFFFFFFFFFFFFFFFFFFFFFFFFFFFFFFFF AND PUSH20 0xFFFFFFFFFFFFFFFFFFFFFFFFFFFFFFFFFFFFFFFF AND PUSH32 0xF8DF31144D9C2F0F6B59D69B8B98ABD5459D07F2742C4DF920B25AAE33C64820 PUSH1 0x40 MLOAD PUSH1 0x40 MLOAD DUP1 SWAP2 SUB SWAP1 LOG2 PUSH0 DUP1 PUSH0 PUSH2 0x100 EXP DUP2 SLOAD DUP2 PUSH20 0xFFFFFFFFFFFFFFFFFFFFFFFFFFFFFFFFFFFFFFFF MUL NOT AND SWAP1 DUP4 PUSH20 0xFFFFFFFFFFFFFFFFFFFFFFFFFFFFFFFFFFFFFFFF AND MUL OR SWAP1 SSTORE POP JUMP JUMPDEST PUSH1 0x9 PUSH0 SWAP1 SLOAD SWAP1 PUSH2 0x100 EXP SWAP1 DIV PUSH1 0xFF AND PUSH2 0xA72 JUMPI PUSH0 DUP1 REVERT JUMPDEST PUSH0 PUSH2 0xA86 CALLVALUE PUSH2 0xA81 SELFBALANCE CALLVALUE PUSH2 0xF3D JUMP JUMPDEST PUSH2 0x754 JUMP JUMPDEST SWAP1 POP PUSH2 0xA9A DUP2 PUSH2 0xA95 DUP4 PUSH2 0xF94 JUMP JUMPDEST PUSH2 0xF3D JUMP JUMPDEST SWAP1 POP PUSH0 PUSH2 0xAA6 CALLVALUE PUSH2 0xF94 JUMP JUMPDEST SWAP1 POP PUSH1 0x9 PUSH1 0x1 SWAP1 SLOAD SWAP1 PUSH2 0x100 EXP SWAP1 DIV PUSH20 0xFFFFFFFFFFFFFFFFFFFFFFFFFFFFFFFFFFFFFFFF AND PUSH20 0xFFFFFFFFFFFFFFFFFFFFFFFFFFFFFFFFFFFFFFFF AND PUSH2 0x8FC DUP3 SWAP1 DUP2 ISZERO MUL SWAP1 PUSH1 0x40 MLOAD PUSH0 PUSH1 0x40 MLOAD DUP1 DUP4 SUB DUP2 DUP6 DUP9 DUP9 CALL SWAP4 POP POP POP POP ISZERO DUP1 ISZERO PUSH2 0xB0D JUMPI RETURNDATASIZE PUSH0 DUP1 RETURNDATACOPY RETURNDATASIZE PUSH0 REVERT JUMPDEST POP PUSH2 0xB18 CALLER DUP4 PUSH2 0xFB2 JUMP JUMPDEST PUSH2 0xB22 DUP4 CALLVALUE PUSH2 0x100F JUMP JUMPDEST PUSH8 0xDE0B6B3A7640000 CALLVALUE LT PUSH2 0xB3D JUMPI PUSH2 0xB3C CALLER PUSH1 0xC8 PUSH2 0x13AF JUMP JUMPDEST JUMPDEST POP POP POP JUMP JUMPDEST PUSH0 DUP1 PUSH0 SWAP1 SLOAD SWAP1 PUSH2 0x100 EXP SWAP1 DIV PUSH20 0xFFFFFFFFFFFFFFFFFFFFFFFFFFFFFFFFFFFFFFFF AND SWAP1 POP SWAP1 JUMP JUMPDEST PUSH0 DUP1 PUSH0 SWAP1 SLOAD SWAP1 PUSH2 0x100 EXP SWAP1 DIV PUSH20 0xFFFFFFFFFFFFFFFFFFFFFFFFFFFFFFFFFFFFFFFF AND PUSH20 0xFFFFFFFFFFFFFFFFFFFFFFFFFFFFFFFFFFFFFFFF AND CALLER PUSH20 0xFFFFFFFFFFFFFFFFFFFFFFFFFFFFFFFFFFFFFFFF AND EQ SWAP1 POP SWAP1 JUMP JUMPDEST PUSH1 0x1 PUSH0 SWAP1 SLOAD SWAP1 PUSH2 0x100 EXP SWAP1 DIV PUSH20 0xFFFFFFFFFFFFFFFFFFFFFFFFFFFFFFFFFFFFFFFF AND DUP2 JUMP JUMPDEST PUSH1 0x9 PUSH0 SWAP1 SLOAD SWAP1 PUSH2 0x100 EXP SWAP1 DIV PUSH1 0xFF AND PUSH2 0xBFA JUMPI PUSH0 DUP1 REVERT JUMPDEST PUSH0 PUSH2 0xC04 CALLER PUSH2 0x50E JUMP JUMPDEST SWAP1 POP PUSH0 PUSH2 0xC10 DUP3 PUSH2 0x71C JUMP JUMPDEST SWAP1 POP PUSH0 PUSH2 0xC1C DUP3 PUSH2 0xF94 JUMP JUMPDEST SWAP1 POP PUSH2 0xC28 CALLER PUSH0 PUSH2 0x1459 JUMP JUMPDEST TIMESTAMP PUSH1 0xC PUSH0 CALLER PUSH20 0xFFFFFFFFFFFFFFFFFFFFFFFFFFFFFFFFFFFFFFFF AND PUSH20 0xFFFFFFFFFFFFFFFFFFFFFFFFFFFFFFFFFFFFFFFF AND DUP2 MSTORE PUSH1 0x20 ADD SWAP1 DUP2 MSTORE PUSH1 0x20 ADD PUSH0 KECCAK256 DUP2 SWAP1 SSTORE POP PUSH2 0xC76 PUSH1 0xE SLOAD DUP5 PUSH2 0xECA JUMP JUMPDEST PUSH1 0xE DUP2 SWAP1 SSTORE POP PUSH1 0x9 PUSH1 0x1 SWAP1 SLOAD SWAP1 PUSH2 0x100 EXP SWAP1 DIV PUSH20 0xFFFFFFFFFFFFFFFFFFFFFFFFFFFFFFFFFFFFFFFF AND PUSH20 0xFFFFFFFFFFFFFFFFFFFFFFFFFFFFFFFFFFFFFFFF AND PUSH2 0x8FC DUP3 SWAP1 DUP2 ISZERO MUL SWAP1 PUSH1 0x40 MLOAD PUSH0 PUSH1 0x40 MLOAD DUP1 DUP4 SUB DUP2 DUP6 DUP9 DUP9 CALL SWAP4 POP POP POP POP ISZERO DUP1 ISZERO PUSH2 0xCE1 JUMPI RETURNDATASIZE PUSH0 DUP1 RETURNDATACOPY RETURNDATASIZE PUSH0 REVERT JUMPDEST POP CALLER PUSH20 0xFFFFFFFFFFFFFFFFFFFFFFFFFFFFFFFFFFFFFFFF AND PUSH2 0x8FC PUSH2 0xD06 DUP5 DUP5 PUSH2 0xF3D JUMP JUMPDEST SWAP1 DUP2 ISZERO MUL SWAP1 PUSH1 0x40 MLOAD PUSH0 PUSH1 0x40 MLOAD DUP1 DUP4 SUB DUP2 DUP6 DUP9 DUP9 CALL SWAP4 POP POP POP POP ISZERO DUP1 ISZERO PUSH2 0xD2E JUMPI RETURNDATASIZE PUSH0 DUP1 RETURNDATACOPY RETURNDATASIZE PUSH0 REVERT JUMPDEST POP POP POP POP JUMP JUMPDEST PUSH2 0xD3C PUSH2 0xB69 JUMP JUMPDEST PUSH2 0xD44 JUMPI PUSH0 DUP1 REVERT JUMPDEST DUP1 PUSH1 0x3 DUP2 SWAP1 SSTORE POP POP JUMP JUMPDEST PUSH2 0xD56 PUSH2 0xB69 JUMP JUMPDEST PUSH2 0xD5E JUMPI PUSH0 DUP1 REVERT JUMPDEST PUSH0 PUSH20 0xFFFFFFFFFFFFFFFFFFFFFFFFFFFFFFFFFFFFFFFF AND DUP2 PUSH20 0xFFFFFFFFFFFFFFFFFFFFFFFFFFFFFFFFFFFFFFFF AND SUB PUSH2 0xDA9 JUMPI PUSH20 0x4300000000000000000000000000000000000002 SWAP1 POP JUMPDEST DUP1 PUSH1 0x1 PUSH0 PUSH2 0x100 EXP DUP2 SLOAD DUP2 PUSH20 0xFFFFFFFFFFFFFFFFFFFFFFFFFFFFFFFFFFFFFFFF MUL NOT AND SWAP1 DUP4 PUSH20 0xFFFFFFFFFFFFFFFFFFFFFFFFFFFFFFFFFFFFFFFF AND MUL OR SWAP1 SSTORE POP PUSH1 0x1 PUSH0 SWAP1 SLOAD SWAP1 PUSH2 0x100 EXP SWAP1 DIV PUSH20 0xFFFFFFFFFFFFFFFFFFFFFFFFFFFFFFFFFFFFFFFF AND PUSH20 0xFFFFFFFFFFFFFFFFFFFFFFFFFFFFFFFFFFFFFFFF AND PUSH4 0x4E606C47 PUSH1 0x40 MLOAD DUP2 PUSH4 0xFFFFFFFF AND PUSH1 0xE0 SHL DUP2 MSTORE PUSH1 0x4 ADD PUSH0 PUSH1 0x40 MLOAD DUP1 DUP4 SUB DUP2 PUSH0 DUP8 DUP1 EXTCODESIZE ISZERO DUP1 ISZERO PUSH2 0xE4F JUMPI PUSH0 DUP1 REVERT JUMPDEST POP GAS CALL ISZERO DUP1 ISZERO PUSH2 0xE61 JUMPI RETURNDATASIZE PUSH0 DUP1 RETURNDATACOPY RETURNDATASIZE PUSH0 REVERT JUMPDEST POP POP POP POP POP JUMP JUMPDEST PUSH2 0xE70 PUSH2 0xB69 JUMP JUMPDEST PUSH2 0xE78 JUMPI PUSH0 DUP1 REVERT JUMPDEST PUSH2 0xE81 DUP2 PUSH2 0x15AA JUMP JUMPDEST POP JUMP JUMPDEST PUSH0 PUSH1 0xF PUSH0 DUP4 PUSH20 0xFFFFFFFFFFFFFFFFFFFFFFFFFFFFFFFFFFFFFFFF AND PUSH20 0xFFFFFFFFFFFFFFFFFFFFFFFFFFFFFFFFFFFFFFFF AND DUP2 MSTORE PUSH1 0x20 ADD SWAP1 DUP2 MSTORE PUSH1 0x20 ADD PUSH0 KECCAK256 SLOAD SWAP1 POP SWAP2 SWAP1 POP JUMP JUMPDEST PUSH0 DUP2 DUP4 PUSH2 0xED7 SWAP2 SWAP1 PUSH2 0x1AEE JUMP JUMPDEST SWAP1 POP SWAP3 SWAP2 POP POP JUMP JUMPDEST PUSH2 0xEE8 DUP2 PUSH2 0x169C JUMP JUMPDEST POP JUMP JUMPDEST PUSH0 PUSH2 0xF34 PUSH2 0xEFB PUSH1 0x6 SLOAD DUP5 PUSH2 0xF6A JUMP JUMPDEST PUSH2 0xF2F PUSH1 0x7 SLOAD PUSH2 0xF2A PUSH2 0xF24 PUSH2 0xF13 PUSH1 0x6 SLOAD DUP11 PUSH2 0xF6A JUMP JUMPDEST PUSH2 0xF1F PUSH1 0x7 SLOAD DUP13 PUSH2 0xF6A JUMP JUMPDEST PUSH2 0xECA JUMP JUMPDEST DUP10 PUSH2 0xF7F JUMP JUMPDEST PUSH2 0xECA JUMP JUMPDEST PUSH2 0xF7F JUMP JUMPDEST SWAP1 POP SWAP4 SWAP3 POP POP POP JUMP JUMPDEST PUSH0 DUP2 DUP4 PUSH2 0xF4A SWAP2 SWAP1 PUSH2 0x1BB4 JUMP JUMPDEST SWAP1 POP SWAP3 SWAP2 POP POP JUMP JUMPDEST PUSH0 DUP2 DUP4 LT PUSH2 0xF60 JUMPI DUP2 PUSH2 0xF62 JUMP JUMPDEST DUP3 JUMPDEST SWAP1 POP SWAP3 SWAP2 POP POP JUMP JUMPDEST PUSH0 DUP2 DUP4 PUSH2 0xF77 SWAP2 SWAP1 PUSH2 0x1BE7 JUMP JUMPDEST SWAP1 POP SWAP3 SWAP2 POP POP JUMP JUMPDEST PUSH0 DUP2 DUP4 PUSH2 0xF8C SWAP2 SWAP1 PUSH2 0x1C55 JUMP JUMPDEST SWAP1 POP SWAP3 SWAP2 POP POP JUMP JUMPDEST PUSH0 PUSH2 0xFAB PUSH2 0xFA4 DUP4 PUSH1 0x8 SLOAD PUSH2 0xF6A JUMP JUMPDEST PUSH1 0x64 PUSH2 0xF7F JUMP JUMPDEST SWAP1 POP SWAP2 SWAP1 POP JUMP JUMPDEST PUSH2 0x100B DUP3 PUSH2 0x1006 DUP4 PUSH1 0xB PUSH0 DUP8 PUSH20 0xFFFFFFFFFFFFFFFFFFFFFFFFFFFFFFFFFFFFFFFF AND PUSH20 0xFFFFFFFFFFFFFFFFFFFFFFFFFFFFFFFFFFFFFFFF AND DUP2 MSTORE PUSH1 0x20 ADD SWAP1 DUP2 MSTORE PUSH1 0x20 ADD PUSH0 KECCAK256 SLOAD PUSH2 0xECA SWAP1 SWAP2 SWAP1 PUSH4 0xFFFFFFFF AND JUMP JUMPDEST PUSH2 0x1459 JUMP JUMPDEST POP POP JUMP JUMPDEST PUSH1 0x9 PUSH0 SWAP1 SLOAD SWAP1 PUSH2 0x100 EXP SWAP1 DIV PUSH1 0xFF AND PUSH2 0x1026 JUMPI PUSH0 DUP1 REVERT JUMPDEST CALLER PUSH20 0xFFFFFFFFFFFFFFFFFFFFFFFFFFFFFFFFFFFFFFFF AND DUP3 PUSH20 0xFFFFFFFFFFFFFFFFFFFFFFFFFFFFFFFFFFFFFFFF AND SUB PUSH2 0x105D JUMPI PUSH0 SWAP2 POP JUMPDEST PUSH0 PUSH20 0xFFFFFFFFFFFFFFFFFFFFFFFFFFFFFFFFFFFFFFFF AND PUSH1 0xD PUSH0 CALLER PUSH20 0xFFFFFFFFFFFFFFFFFFFFFFFFFFFFFFFFFFFFFFFF AND PUSH20 0xFFFFFFFFFFFFFFFFFFFFFFFFFFFFFFFFFFFFFFFF AND DUP2 MSTORE PUSH1 0x20 ADD SWAP1 DUP2 MSTORE PUSH1 0x20 ADD PUSH0 KECCAK256 PUSH0 SWAP1 SLOAD SWAP1 PUSH2 0x100 EXP SWAP1 DIV PUSH20 0xFFFFFFFFFFFFFFFFFFFFFFFFFFFFFFFFFFFFFFFF AND PUSH20 0xFFFFFFFFFFFFFFFFFFFFFFFFFFFFFFFFFFFFFFFF AND EQ DUP1 ISZERO PUSH2 0x117C JUMPI POP CALLER PUSH20 0xFFFFFFFFFFFFFFFFFFFFFFFFFFFFFFFFFFFFFFFF AND PUSH1 0xD PUSH0 CALLER PUSH20 0xFFFFFFFFFFFFFFFFFFFFFFFFFFFFFFFFFFFFFFFF AND PUSH20 0xFFFFFFFFFFFFFFFFFFFFFFFFFFFFFFFFFFFFFFFF AND DUP2 MSTORE PUSH1 0x20 ADD SWAP1 DUP2 MSTORE PUSH1 0x20 ADD PUSH0 KECCAK256 PUSH0 SWAP1 SLOAD SWAP1 PUSH2 0x100 EXP SWAP1 DIV PUSH20 0xFFFFFFFFFFFFFFFFFFFFFFFFFFFFFFFFFFFFFFFF AND PUSH20 0xFFFFFFFFFFFFFFFFFFFFFFFFFFFFFFFFFFFFFFFF AND EQ ISZERO JUMPDEST ISZERO PUSH2 0x1238 JUMPI DUP2 PUSH1 0xD PUSH0 CALLER PUSH20 0xFFFFFFFFFFFFFFFFFFFFFFFFFFFFFFFFFFFFFFFF AND PUSH20 0xFFFFFFFFFFFFFFFFFFFFFFFFFFFFFFFFFFFFFFFF AND DUP2 MSTORE PUSH1 0x20 ADD SWAP1 DUP2 MSTORE PUSH1 0x20 ADD PUSH0 KECCAK256 PUSH0 PUSH2 0x100 EXP DUP2 SLOAD DUP2 PUSH20 0xFFFFFFFFFFFFFFFFFFFFFFFFFFFFFFFFFFFFFFFF MUL NOT AND SWAP1 DUP4 PUSH20 0xFFFFFFFFFFFFFFFFFFFFFFFFFFFFFFFFFFFFFFFF AND MUL OR SWAP1 SSTORE POP PUSH8 0xDE0B6B3A7640000 DUP2 LT PUSH2 0x121B JUMPI PUSH2 0x1216 DUP3 PUSH1 0xC8 PUSH2 0x13AF JUMP JUMPDEST PUSH2 0x1237 JUMP JUMPDEST PUSH8 0x16345785D8A0000 DUP2 LT PUSH2 0x1236 JUMPI PUSH2 0x1235 DUP3 PUSH1 0x28 PUSH2 0x13AF JUMP JUMPDEST JUMPDEST JUMPDEST JUMPDEST PUSH0 PUSH2 0x1242 CALLER PUSH2 0x50E JUMP JUMPDEST SWAP1 POP PUSH0 PUSH2 0x1251 DUP3 PUSH1 0x5 SLOAD PUSH2 0xF7F JUMP JUMPDEST SWAP1 POP PUSH2 0x129A PUSH1 0xA PUSH0 CALLER PUSH20 0xFFFFFFFFFFFFFFFFFFFFFFFFFFFFFFFFFFFFFFFF AND PUSH20 0xFFFFFFFFFFFFFFFFFFFFFFFFFFFFFFFFFFFFFFFF AND DUP2 MSTORE PUSH1 0x20 ADD SWAP1 DUP2 MSTORE PUSH1 0x20 ADD PUSH0 KECCAK256 SLOAD DUP3 PUSH2 0xECA JUMP JUMPDEST PUSH1 0xA PUSH0 CALLER PUSH20 0xFFFFFFFFFFFFFFFFFFFFFFFFFFFFFFFFFFFFFFFF AND PUSH20 0xFFFFFFFFFFFFFFFFFFFFFFFFFFFFFFFFFFFFFFFF AND DUP2 MSTORE PUSH1 0x20 ADD SWAP1 DUP2 MSTORE PUSH1 0x20 ADD PUSH0 KECCAK256 DUP2 SWAP1 SSTORE POP PUSH2 0x12E5 CALLER PUSH0 PUSH2 0x1459 JUMP JUMPDEST TIMESTAMP PUSH1 0xC PUSH0 CALLER PUSH20 0xFFFFFFFFFFFFFFFFFFFFFFFFFFFFFFFFFFFFFFFF AND PUSH20 0xFFFFFFFFFFFFFFFFFFFFFFFFFFFFFFFFFFFFFFFF AND DUP2 MSTORE PUSH1 0x20 ADD SWAP1 DUP2 MSTORE PUSH1 0x20 ADD PUSH0 KECCAK256 DUP2 SWAP1 SSTORE POP PUSH2 0x138D PUSH1 0xD PUSH0 CALLER PUSH20 0xFFFFFFFFFFFFFFFFFFFFFFFFFFFFFFFFFFFFFFFF AND PUSH20 0xFFFFFFFFFFFFFFFFFFFFFFFFFFFFFFFFFFFFFFFF AND DUP2 MSTORE PUSH1 0x20 ADD SWAP1 DUP2 MSTORE PUSH1 0x20 ADD PUSH0 KECCAK256 PUSH0 SWAP1 SLOAD SWAP1 PUSH2 0x100 EXP SWAP1 DIV PUSH20 0xFFFFFFFFFFFFFFFFFFFFFFFFFFFFFFFFFFFFFFFF AND DUP4 PUSH2 0x1781 JUMP JUMPDEST PUSH2 0x13A3 PUSH1 0xE SLOAD PUSH2 0x139E DUP5 PUSH1 0x5 PUSH2 0xF7F JUMP JUMPDEST PUSH2 0xECA JUMP JUMPDEST PUSH1 0xE DUP2 SWAP1 SSTORE POP POP POP POP POP JUMP JUMPDEST PUSH0 PUSH2 0x1400 DUP3 PUSH1 0xF PUSH0 DUP7 PUSH20 0xFFFFFFFFFFFFFFFFFFFFFFFFFFFFFFFFFFFFFFFF AND PUSH20 0xFFFFFFFFFFFFFFFFFFFFFFFFFFFFFFFFFFFFFFFF AND DUP2 MSTORE PUSH1 0x20 ADD SWAP1 DUP2 MSTORE PUSH1 0x20 ADD PUSH0 KECCAK256 SLOAD PUSH2 0xECA SWAP1 SWAP2 SWAP1 PUSH4 0xFFFFFFFF AND JUMP JUMPDEST SWAP1 POP PUSH2 0x2710 DUP2 GT ISZERO PUSH2 0x1412 JUMPI PUSH2 0x2710 SWAP1 POP JUMPDEST DUP1 PUSH1 0xF PUSH0 DUP6 PUSH20 0xFFFFFFFFFFFFFFFFFFFFFFFFFFFFFFFFFFFFFFFF AND PUSH20 0xFFFFFFFFFFFFFFFFFFFFFFFFFFFFFFFFFFFFFFFF AND DUP2 MSTORE PUSH1 0x20 ADD SWAP1 DUP2 MSTORE PUSH1 0x20 ADD PUSH0 KECCAK256 DUP2 SWAP1 SSTORE POP POP POP POP JUMP JUMPDEST PUSH1 0x1 ISZERO ISZERO PUSH1 0x11 PUSH0 DUP5 PUSH20 0xFFFFFFFFFFFFFFFFFFFFFFFFFFFFFFFFFFFFFFFF AND PUSH20 0xFFFFFFFFFFFFFFFFFFFFFFFFFFFFFFFFFFFFFFFF AND DUP2 MSTORE PUSH1 0x20 ADD SWAP1 DUP2 MSTORE PUSH1 0x20 ADD PUSH0 KECCAK256 PUSH0 SWAP1 SLOAD SWAP1 PUSH2 0x100 EXP SWAP1 DIV PUSH1 0xFF AND ISZERO ISZERO EQ PUSH2 0x1564 JUMPI PUSH1 0x10 DUP3 SWAP1 DUP1 PUSH1 0x1 DUP2 SLOAD ADD DUP1 DUP3 SSTORE DUP1 SWAP2 POP POP PUSH1 0x1 SWAP1 SUB SWAP1 PUSH0 MSTORE PUSH1 0x20 PUSH0 KECCAK256 ADD PUSH0 SWAP1 SWAP2 SWAP1 SWAP2 SWAP1 SWAP2 PUSH2 0x100 EXP DUP2 SLOAD DUP2 PUSH20 0xFFFFFFFFFFFFFFFFFFFFFFFFFFFFFFFFFFFFFFFF MUL NOT AND SWAP1 DUP4 PUSH20 0xFFFFFFFFFFFFFFFFFFFFFFFFFFFFFFFFFFFFFFFF AND MUL OR SWAP1 SSTORE POP PUSH1 0x1 PUSH1 0x11 PUSH0 DUP5 PUSH20 0xFFFFFFFFFFFFFFFFFFFFFFFFFFFFFFFFFFFFFFFF AND PUSH20 0xFFFFFFFFFFFFFFFFFFFFFFFFFFFFFFFFFFFFFFFF AND DUP2 MSTORE PUSH1 0x20 ADD SWAP1 DUP2 MSTORE PUSH1 0x20 ADD PUSH0 KECCAK256 PUSH0 PUSH2 0x100 EXP DUP2 SLOAD DUP2 PUSH1 0xFF MUL NOT AND SWAP1 DUP4 ISZERO ISZERO MUL OR SWAP1 SSTORE POP JUMPDEST DUP1 PUSH1 0xB PUSH0 DUP5 PUSH20 0xFFFFFFFFFFFFFFFFFFFFFFFFFFFFFFFFFFFFFFFF AND PUSH20 0xFFFFFFFFFFFFFFFFFFFFFFFFFFFFFFFFFFFFFFFF AND DUP2 MSTORE PUSH1 0x20 ADD SWAP1 DUP2 MSTORE PUSH1 0x20 ADD PUSH0 KECCAK256 DUP2 SWAP1 SSTORE POP POP POP JUMP JUMPDEST PUSH0 PUSH20 0xFFFFFFFFFFFFFFFFFFFFFFFFFFFFFFFFFFFFFFFF AND DUP2 PUSH20 0xFFFFFFFFFFFFFFFFFFFFFFFFFFFFFFFFFFFFFFFF AND SUB PUSH2 0x15E1 JUMPI PUSH0 DUP1 REVERT JUMPDEST DUP1 PUSH20 0xFFFFFFFFFFFFFFFFFFFFFFFFFFFFFFFFFFFFFFFF AND PUSH0 DUP1 SLOAD SWAP1 PUSH2 0x100 EXP SWAP1 DIV PUSH20 0xFFFFFFFFFFFFFFFFFFFFFFFFFFFFFFFFFFFFFFFF AND PUSH20 0xFFFFFFFFFFFFFFFFFFFFFFFFFFFFFFFFFFFFFFFF AND PUSH32 0x8BE0079C531659141344CD1FD0A4F28419497F9722A3DAAFE3B4186F6B6457E0 PUSH1 0x40 MLOAD PUSH1 0x40 MLOAD DUP1 SWAP2 SUB SWAP1 LOG3 DUP1 PUSH0 DUP1 PUSH2 0x100 EXP DUP2 SLOAD DUP2 PUSH20 0xFFFFFFFFFFFFFFFFFFFFFFFFFFFFFFFFFFFFFFFF MUL NOT AND SWAP1 DUP4 PUSH20 0xFFFFFFFFFFFFFFFFFFFFFFFFFFFFFFFFFFFFFFFF AND MUL OR SWAP1 SSTORE POP POP JUMP JUMPDEST PUSH0 DUP2 GT ISZERO PUSH2 0x177E JUMPI PUSH0 DUP1 PUSH0 JUMPDEST PUSH1 0x10 DUP1 SLOAD SWAP1 POP DUP2 LT ISZERO PUSH2 0x177A JUMPI PUSH1 0x10 DUP2 DUP2 SLOAD DUP2 LT PUSH2 0x16C9 JUMPI PUSH2 0x16C8 PUSH2 0x1B87 JUMP JUMPDEST JUMPDEST SWAP1 PUSH0 MSTORE PUSH1 0x20 PUSH0 KECCAK256 ADD PUSH0 SWAP1 SLOAD SWAP1 PUSH2 0x100 EXP SWAP1 DIV PUSH20 0xFFFFFFFFFFFFFFFFFFFFFFFFFFFFFFFFFFFFFFFF AND SWAP3 POP PUSH2 0x1757 PUSH1 0xE SLOAD PUSH2 0x1749 PUSH1 0xB PUSH0 DUP8 PUSH20 0xFFFFFFFFFFFFFFFFFFFFFFFFFFFFFFFFFFFFFFFF AND PUSH20 0xFFFFFFFFFFFFFFFFFFFFFFFFFFFFFFFFFFFFFFFF AND DUP2 MSTORE PUSH1 0x20 ADD SWAP1 DUP2 MSTORE PUSH1 0x20 ADD PUSH0 KECCAK256 SLOAD DUP8 PUSH2 0xF6A SWAP1 SWAP2 SWAP1 PUSH4 0xFFFFFFFF AND JUMP JUMPDEST PUSH2 0xF7F SWAP1 SWAP2 SWAP1 PUSH4 0xFFFFFFFF AND JUMP JUMPDEST SWAP2 POP PUSH0 DUP3 GT ISZERO PUSH2 0x176D JUMPI PUSH2 0x176B DUP4 DUP4 PUSH2 0x1831 JUMP JUMPDEST POP JUMPDEST DUP1 DUP1 PUSH1 0x1 ADD SWAP2 POP POP PUSH2 0x16A8 JUMP JUMPDEST POP POP POP JUMPDEST POP JUMP JUMPDEST PUSH0 PUSH1 0xF PUSH0 DUP5 PUSH20 0xFFFFFFFFFFFFFFFFFFFFFFFFFFFFFFFFFFFFFFFF AND PUSH20 0xFFFFFFFFFFFFFFFFFFFFFFFFFFFFFFFFFFFFFFFF AND DUP2 MSTORE PUSH1 0x20 ADD SWAP1 DUP2 MSTORE PUSH1 0x20 ADD PUSH0 KECCAK256 SLOAD SWAP1 POP PUSH0 PUSH2 0x17EA PUSH1 0xC8 PUSH2 0x17DC PUSH1 0x10 DUP6 PUSH2 0xF6A SWAP1 SWAP2 SWAP1 PUSH4 0xFFFFFFFF AND JUMP JUMPDEST PUSH2 0xF7F SWAP1 SWAP2 SWAP1 PUSH4 0xFFFFFFFF AND JUMP JUMPDEST SWAP1 POP PUSH0 DUP2 PUSH2 0x30D4 PUSH2 0x17FB SWAP2 SWAP1 PUSH2 0x1AEE JUMP JUMPDEST SWAP1 POP PUSH0 PUSH2 0x181D PUSH3 0x186A0 PUSH2 0x180F DUP8 DUP6 PUSH2 0xF6A JUMP JUMPDEST PUSH2 0xF7F SWAP1 SWAP2 SWAP1 PUSH4 0xFFFFFFFF AND JUMP JUMPDEST SWAP1 POP PUSH2 0x1829 DUP7 DUP3 PUSH2 0xFB2 JUMP JUMPDEST POP POP POP POP POP POP JUMP JUMPDEST PUSH0 DUP3 PUSH20 0xFFFFFFFFFFFFFFFFFFFFFFFFFFFFFFFFFFFFFFFF AND PUSH2 0x8FC DUP4 SWAP1 DUP2 ISZERO MUL SWAP1 PUSH1 0x40 MLOAD PUSH0 PUSH1 0x40 MLOAD DUP1 DUP4 SUB DUP2 DUP6 DUP9 DUP9 CALL SWAP4 POP POP POP POP ISZERO PUSH2 0x1874 JUMPI PUSH1 0x1 SWAP1 POP PUSH2 0x1878 JUMP JUMPDEST PUSH0 SWAP1 POP JUMPDEST SWAP3 SWAP2 POP POP JUMP JUMPDEST PUSH0 DUP2 SWAP1 POP SWAP2 SWAP1 POP JUMP JUMPDEST PUSH2 0x1890 DUP2 PUSH2 0x187E JUMP JUMPDEST DUP3 MSTORE POP POP JUMP JUMPDEST PUSH0 PUSH1 0x20 DUP3 ADD SWAP1 POP PUSH2 0x18A9 PUSH0 DUP4 ADD DUP5 PUSH2 0x1887 JUMP JUMPDEST SWAP3 SWAP2 POP POP JUMP JUMPDEST PUSH0 DUP1 REVERT JUMPDEST PUSH0 PUSH20 0xFFFFFFFFFFFFFFFFFFFFFFFFFFFFFFFFFFFFFFFF DUP3 AND SWAP1 POP SWAP2 SWAP1 POP JUMP JUMPDEST PUSH0 PUSH2 0x18DC DUP3 PUSH2 0x18B3 JUMP JUMPDEST SWAP1 POP SWAP2 SWAP1 POP JUMP JUMPDEST PUSH2 0x18EC DUP2 PUSH2 0x18D2 JUMP JUMPDEST DUP2 EQ PUSH2 0x18F6 JUMPI PUSH0 DUP1 REVERT JUMPDEST POP JUMP JUMPDEST PUSH0 DUP2 CALLDATALOAD SWAP1 POP PUSH2 0x1907 DUP2 PUSH2 0x18E3 JUMP JUMPDEST SWAP3 SWAP2 POP POP JUMP JUMPDEST PUSH0 PUSH1 0x20 DUP3 DUP5 SUB SLT ISZERO PUSH2 0x1922 JUMPI PUSH2 0x1921 PUSH2 0x18AF JUMP JUMPDEST JUMPDEST PUSH0 PUSH2 0x192F DUP5 DUP3 DUP6 ADD PUSH2 0x18F9 JUMP JUMPDEST SWAP2 POP POP SWAP3 SWAP2 POP POP JUMP JUMPDEST PUSH2 0x1941 DUP2 PUSH2 0x187E JUMP JUMPDEST DUP2 EQ PUSH2 0x194B JUMPI PUSH0 DUP1 REVERT JUMPDEST POP JUMP JUMPDEST PUSH0 DUP2 CALLDATALOAD SWAP1 POP PUSH2 0x195C DUP2 PUSH2 0x1938 JUMP JUMPDEST SWAP3 SWAP2 POP POP JUMP JUMPDEST PUSH0 PUSH1 0x20 DUP3 DUP5 SUB SLT ISZERO PUSH2 0x1977 JUMPI PUSH2 0x1976 PUSH2 0x18AF JUMP JUMPDEST JUMPDEST PUSH0 PUSH2 0x1984 DUP5 DUP3 DUP6 ADD PUSH2 0x194E JUMP JUMPDEST SWAP2 POP POP SWAP3 SWAP2 POP POP JUMP JUMPDEST PUSH0 DUP1 PUSH1 0x40 DUP4 DUP6 SUB SLT ISZERO PUSH2 0x19A3 JUMPI PUSH2 0x19A2 PUSH2 0x18AF JUMP JUMPDEST JUMPDEST PUSH0 PUSH2 0x19B0 DUP6 DUP3 DUP7 ADD PUSH2 0x194E JUMP JUMPDEST SWAP3 POP POP PUSH1 0x20 PUSH2 0x19C1 DUP6 DUP3 DUP7 ADD PUSH2 0x194E JUMP JUMPDEST SWAP2 POP POP SWAP3 POP SWAP3 SWAP1 POP JUMP JUMPDEST PUSH2 0x19D4 DUP2 PUSH2 0x18D2 JUMP JUMPDEST DUP3 MSTORE POP POP JUMP JUMPDEST PUSH0 PUSH1 0x40 DUP3 ADD SWAP1 POP PUSH2 0x19ED PUSH0 DUP4 ADD DUP6 PUSH2 0x19CB JUMP JUMPDEST PUSH2 0x19FA PUSH1 0x20 DUP4 ADD DUP5 PUSH2 0x1887 JUMP JUMPDEST SWAP4 SWAP3 POP POP POP JUMP JUMPDEST PUSH0 PUSH1 0x20 DUP3 ADD SWAP1 POP PUSH2 0x1A14 PUSH0 DUP4 ADD DUP5 PUSH2 0x19CB JUMP JUMPDEST SWAP3 SWAP2 POP POP JUMP JUMPDEST PUSH0 DUP2 ISZERO ISZERO SWAP1 POP SWAP2 SWAP1 POP JUMP JUMPDEST PUSH2 0x1A2E DUP2 PUSH2 0x1A1A JUMP JUMPDEST DUP3 MSTORE POP POP JUMP JUMPDEST PUSH0 PUSH1 0x20 DUP3 ADD SWAP1 POP PUSH2 0x1A47 PUSH0 DUP4 ADD DUP5 PUSH2 0x1A25 JUMP JUMPDEST SWAP3 SWAP2 POP POP JUMP JUMPDEST PUSH0 DUP2 SWAP1 POP SWAP2 SWAP1 POP JUMP JUMPDEST PUSH0 PUSH2 0x1A70 PUSH2 0x1A6B PUSH2 0x1A66 DUP5 PUSH2 0x18B3 JUMP JUMPDEST PUSH2 0x1A4D JUMP JUMPDEST PUSH2 0x18B3 JUMP JUMPDEST SWAP1 POP SWAP2 SWAP1 POP JUMP JUMPDEST PUSH0 PUSH2 0x1A81 DUP3 PUSH2 0x1A56 JUMP JUMPDEST SWAP1 POP SWAP2 SWAP1 POP JUMP JUMPDEST PUSH0 PUSH2 0x1A92 DUP3 PUSH2 0x1A77 JUMP JUMPDEST SWAP1 POP SWAP2 SWAP1 POP JUMP JUMPDEST PUSH2 0x1AA2 DUP2 PUSH2 0x1A88 JUMP JUMPDEST DUP3 MSTORE POP POP JUMP JUMPDEST PUSH0 PUSH1 0x20 DUP3 ADD SWAP1 POP PUSH2 0x1ABB PUSH0 DUP4 ADD DUP5 PUSH2 0x1A99 JUMP JUMPDEST SWAP3 SWAP2 POP POP JUMP JUMPDEST PUSH32 0x4E487B7100000000000000000000000000000000000000000000000000000000 PUSH0 MSTORE PUSH1 0x11 PUSH1 0x4 MSTORE PUSH1 0x24 PUSH0 REVERT JUMPDEST PUSH0 PUSH2 0x1AF8 DUP3 PUSH2 0x187E JUMP JUMPDEST SWAP2 POP PUSH2 0x1B03 DUP4 PUSH2 0x187E JUMP JUMPDEST SWAP3 POP DUP3 DUP3 ADD SWAP1 POP DUP1 DUP3 GT ISZERO PUSH2 0x1B1B JUMPI PUSH2 0x1B1A PUSH2 0x1AC1 JUMP JUMPDEST JUMPDEST SWAP3 SWAP2 POP POP JUMP JUMPDEST PUSH0 PUSH1 0x40 DUP3 ADD SWAP1 POP PUSH2 0x1B34 PUSH0 DUP4 ADD DUP6 PUSH2 0x19CB JUMP JUMPDEST PUSH2 0x1B41 PUSH1 0x20 DUP4 ADD DUP5 PUSH2 0x19CB JUMP JUMPDEST SWAP4 SWAP3 POP POP POP JUMP JUMPDEST PUSH0 DUP2 MLOAD SWAP1 POP PUSH2 0x1B56 DUP2 PUSH2 0x1938 JUMP JUMPDEST SWAP3 SWAP2 POP POP JUMP JUMPDEST PUSH0 PUSH1 0x20 DUP3 DUP5 SUB SLT ISZERO PUSH2 0x1B71 JUMPI PUSH2 0x1B70 PUSH2 0x18AF JUMP JUMPDEST JUMPDEST PUSH0 PUSH2 0x1B7E DUP5 DUP3 DUP6 ADD PUSH2 0x1B48 JUMP JUMPDEST SWAP2 POP POP SWAP3 SWAP2 POP POP JUMP JUMPDEST PUSH32 0x4E487B7100000000000000000000000000000000000000000000000000000000 PUSH0 MSTORE PUSH1 0x32 PUSH1 0x4 MSTORE PUSH1 0x24 PUSH0 REVERT JUMPDEST PUSH0 PUSH2 0x1BBE DUP3 PUSH2 0x187E JUMP JUMPDEST SWAP2 POP PUSH2 0x1BC9 DUP4 PUSH2 0x187E JUMP JUMPDEST SWAP3 POP DUP3 DUP3 SUB SWAP1 POP DUP2 DUP2 GT ISZERO PUSH2 0x1BE1 JUMPI PUSH2 0x1BE0 PUSH2 0x1AC1 JUMP JUMPDEST JUMPDEST SWAP3 SWAP2 POP POP JUMP JUMPDEST PUSH0 PUSH2 0x1BF1 DUP3 PUSH2 0x187E JUMP JUMPDEST SWAP2 POP PUSH2 0x1BFC DUP4 PUSH2 0x187E JUMP JUMPDEST SWAP3 POP DUP3 DUP3 MUL PUSH2 0x1C0A DUP2 PUSH2 0x187E JUMP JUMPDEST SWAP2 POP DUP3 DUP3 DIV DUP5 EQ DUP4 ISZERO OR PUSH2 0x1C21 JUMPI PUSH2 0x1C20 PUSH2 0x1AC1 JUMP JUMPDEST JUMPDEST POP SWAP3 SWAP2 POP POP JUMP JUMPDEST PUSH32 0x4E487B7100000000000000000000000000000000000000000000000000000000 PUSH0 MSTORE PUSH1 0x12 PUSH1 0x4 MSTORE PUSH1 0x24 PUSH0 REVERT JUMPDEST PUSH0 PUSH2 0x1C5F DUP3 PUSH2 0x187E JUMP JUMPDEST SWAP2 POP PUSH2 0x1C6A DUP4 PUSH2 0x187E JUMP JUMPDEST SWAP3 POP DUP3 PUSH2 0x1C7A JUMPI PUSH2 0x1C79 PUSH2 0x1C28 JUMP JUMPDEST JUMPDEST DUP3 DUP3 DIV SWAP1 POP SWAP3 SWAP2 POP POP JUMP INVALID LOG2 PUSH5 0x6970667358 0x22 SLT KECCAK256 CALLVALUE 0xE5 PUSH25 0x5D2987A69127C9FF5249C806525DA534562FB0B708E54E10F1 CREATE2 SWAP2 SWAP6 0xC1 PUSH5 0x736F6C6343 STOP ADDMOD XOR STOP CALLER "
				},
				"gasEstimates": {
					"creation": {
						"codeDepositCost": "1471000",
						"executionCost": "184908",
						"totalCost": "1655908"
					},
					"external": {
						"BLAST()": "infinite",
						"_blastClaimInterval()": "2492",
						"buyOres(address)": "infinite",
						"calculateOreBuy(uint256,uint256)": "infinite",
						"calculateOreBuySimple(uint256)": "infinite",
						"calculateOreSell(uint256)": "infinite",
						"claimMyGasFees()": "infinite",
						"furnaceRewards(address)": "infinite",
						"getAirdropQualifier(uint256)": "infinite",
						"getBalance()": "358",
						"getMyMiners(address)": "2918",
						"getMyOres(address)": "infinite",
						"getOresSinceLastHatch(address)": "infinite",
						"ingotBalanceOf(address)": "2961",
						"isOwner()": "2601",
						"owner()": "2604",
						"renounceOwnership()": "29949",
						"seedMarket()": "50914",
						"sellOres()": "infinite",
						"setBlastClaimInterval(uint256)": "24784",
						"setupBlast(address)": "infinite",
						"transferOwnership(address)": "30768"
					},
					"internal": {
						"_addClaimed(address,uint256)": "infinite",
						"_addIngots(address,uint256)": "infinite",
						"_distributeNative(uint256)": "infinite",
						"_hatchOres(address,uint256)": "infinite",
						"_rewardReferral(address,uint256)": "infinite",
						"_setClaimed(address,uint256)": "97409",
						"blastFeesClaimed(uint256)": "infinite",
						"calculateTrade(uint256,uint256,uint256)": "infinite",
						"devFee(uint256)": "infinite",
						"min(uint256,uint256)": "63"
					}
				},
				"methodIdentifiers": {
					"BLAST()": "97d75776",
					"_blastClaimInterval()": "4addc0e8",
					"buyOres(address)": "88bedf91",
					"calculateOreBuy(uint256,uint256)": "4ad47291",
					"calculateOreBuySimple(uint256)": "51546044",
					"calculateOreSell(uint256)": "44bb9117",
					"claimMyGasFees()": "23084e5f",
					"furnaceRewards(address)": "450c9d7d",
					"getAirdropQualifier(uint256)": "6dc39ec8",
					"getBalance()": "12065fe0",
					"getMyMiners(address)": "4b634b06",
					"getMyOres(address)": "224e80fc",
					"getOresSinceLastHatch(address)": "6bd22962",
					"ingotBalanceOf(address)": "f36f7c62",
					"isOwner()": "8f32d59b",
					"owner()": "8da5cb5b",
					"renounceOwnership()": "715018a6",
					"seedMarket()": "3c5f07cb",
					"sellOres()": "e3931607",
					"setBlastClaimInterval(uint256)": "eaca243b",
					"setupBlast(address)": "f2e809e0",
					"transferOwnership(address)": "f2fde38b"
				}
			},
			"storageLayout": {
				"storage": [
					{
						"astId": 1056,
						"contract": "contracts/BlastFurnace.sol:BlastFurnace",
						"label": "_owner",
						"offset": 0,
						"slot": "0",
						"type": "t_address"
					},
					{
						"astId": 20,
						"contract": "contracts/BlastFurnace.sol:BlastFurnace",
						"label": "BLAST",
						"offset": 0,
						"slot": "1",
						"type": "t_contract(IBlast)15"
					},
					{
						"astId": 24,
						"contract": "contracts/BlastFurnace.sol:BlastFurnace",
						"label": "_lastBlastClaim",
						"offset": 0,
						"slot": "2",
						"type": "t_mapping(t_address,t_uint256)"
					},
					{
						"astId": 27,
						"contract": "contracts/BlastFurnace.sol:BlastFurnace",
						"label": "_blastClaimInterval",
						"offset": 0,
						"slot": "3",
						"type": "t_uint256"
					},
					{
						"astId": 29,
						"contract": "contracts/BlastFurnace.sol:BlastFurnace",
						"label": "_feesClaimed",
						"offset": 0,
						"slot": "4",
						"type": "t_uint256"
					},
					{
						"astId": 148,
						"contract": "contracts/BlastFurnace.sol:BlastFurnace",
						"label": "ORES_TO_HATCH_1MINERS",
						"offset": 0,
						"slot": "5",
						"type": "t_uint256"
					},
					{
						"astId": 169,
						"contract": "contracts/BlastFurnace.sol:BlastFurnace",
						"label": "PSN",
						"offset": 0,
						"slot": "6",
						"type": "t_uint256"
					},
					{
						"astId": 172,
						"contract": "contracts/BlastFurnace.sol:BlastFurnace",
						"label": "PSNH",
						"offset": 0,
						"slot": "7",
						"type": "t_uint256"
					},
					{
						"astId": 175,
						"contract": "contracts/BlastFurnace.sol:BlastFurnace",
						"label": "devFeeVal",
						"offset": 0,
						"slot": "8",
						"type": "t_uint256"
					},
					{
						"astId": 178,
						"contract": "contracts/BlastFurnace.sol:BlastFurnace",
						"label": "initialized",
						"offset": 0,
						"slot": "9",
						"type": "t_bool"
					},
					{
						"astId": 180,
						"contract": "contracts/BlastFurnace.sol:BlastFurnace",
						"label": "recAdd",
						"offset": 1,
						"slot": "9",
						"type": "t_address_payable"
					},
					{
						"astId": 184,
						"contract": "contracts/BlastFurnace.sol:BlastFurnace",
						"label": "hatcheryMiners",
						"offset": 0,
						"slot": "10",
						"type": "t_mapping(t_address,t_uint256)"
					},
					{
						"astId": 188,
						"contract": "contracts/BlastFurnace.sol:BlastFurnace",
						"label": "claimedOres",
						"offset": 0,
						"slot": "11",
						"type": "t_mapping(t_address,t_uint256)"
					},
					{
						"astId": 192,
						"contract": "contracts/BlastFurnace.sol:BlastFurnace",
						"label": "lastHatch",
						"offset": 0,
						"slot": "12",
						"type": "t_mapping(t_address,t_uint256)"
					},
					{
						"astId": 196,
						"contract": "contracts/BlastFurnace.sol:BlastFurnace",
						"label": "referrals",
						"offset": 0,
						"slot": "13",
						"type": "t_mapping(t_address,t_address)"
					},
					{
						"astId": 198,
						"contract": "contracts/BlastFurnace.sol:BlastFurnace",
						"label": "marketOres",
						"offset": 0,
						"slot": "14",
						"type": "t_uint256"
					},
					{
						"astId": 202,
						"contract": "contracts/BlastFurnace.sol:BlastFurnace",
						"label": "_ingotBalances",
						"offset": 0,
						"slot": "15",
						"type": "t_mapping(t_address,t_uint256)"
					},
					{
						"astId": 205,
						"contract": "contracts/BlastFurnace.sol:BlastFurnace",
						"label": "_holders",
						"offset": 0,
						"slot": "16",
						"type": "t_array(t_address)dyn_storage"
					},
					{
						"astId": 209,
						"contract": "contracts/BlastFurnace.sol:BlastFurnace",
						"label": "_isHolder",
						"offset": 0,
						"slot": "17",
						"type": "t_mapping(t_address,t_bool)"
					},
					{
						"astId": 212,
						"contract": "contracts/BlastFurnace.sol:BlastFurnace",
						"label": "_airdropQualifiers",
						"offset": 0,
						"slot": "18",
						"type": "t_array(t_address)dyn_storage"
					}
				],
				"types": {
					"t_address": {
						"encoding": "inplace",
						"label": "address",
						"numberOfBytes": "20"
					},
					"t_address_payable": {
						"encoding": "inplace",
						"label": "address payable",
						"numberOfBytes": "20"
					},
					"t_array(t_address)dyn_storage": {
						"base": "t_address",
						"encoding": "dynamic_array",
						"label": "address[]",
						"numberOfBytes": "32"
					},
					"t_bool": {
						"encoding": "inplace",
						"label": "bool",
						"numberOfBytes": "1"
					},
					"t_contract(IBlast)15": {
						"encoding": "inplace",
						"label": "contract IBlast",
						"numberOfBytes": "20"
					},
					"t_mapping(t_address,t_address)": {
						"encoding": "mapping",
						"key": "t_address",
						"label": "mapping(address => address)",
						"numberOfBytes": "32",
						"value": "t_address"
					},
					"t_mapping(t_address,t_bool)": {
						"encoding": "mapping",
						"key": "t_address",
						"label": "mapping(address => bool)",
						"numberOfBytes": "32",
						"value": "t_bool"
					},
					"t_mapping(t_address,t_uint256)": {
						"encoding": "mapping",
						"key": "t_address",
						"label": "mapping(address => uint256)",
						"numberOfBytes": "32",
						"value": "t_uint256"
					},
					"t_uint256": {
						"encoding": "inplace",
						"label": "uint256",
						"numberOfBytes": "32"
					}
				}
			},
			"userdoc": {
				"kind": "user",
				"methods": {},
				"version": 1
			}
		}
	}
}