{
	"contracts/BOMB_flattened.sol": {
		"BOMB": {
			"abi": [
				{
					"anonymous": false,
					"inputs": [
						{
							"indexed": true,
							"internalType": "address",
							"name": "owner",
							"type": "address"
						},
						{
							"indexed": true,
							"internalType": "address",
							"name": "spender",
							"type": "address"
						},
						{
							"indexed": false,
							"internalType": "uint256",
							"name": "value",
							"type": "uint256"
						}
					],
					"name": "Approval",
					"type": "event"
				},
				{
					"anonymous": false,
					"inputs": [
						{
							"indexed": true,
							"internalType": "uint256",
							"name": "epoch",
							"type": "uint256"
						},
						{
							"indexed": false,
							"internalType": "uint256",
							"name": "totalSupply",
							"type": "uint256"
						}
					],
					"name": "LogRebase",
					"type": "event"
				},
				{
					"anonymous": false,
					"inputs": [
						{
							"indexed": false,
							"internalType": "address",
							"name": "recipient",
							"type": "address"
						},
						{
							"indexed": false,
							"internalType": "uint256",
							"name": "amount",
							"type": "uint256"
						}
					],
					"name": "NativeTransfer",
					"type": "event"
				},
				{
					"anonymous": false,
					"inputs": [
						{
							"indexed": true,
							"internalType": "address",
							"name": "previousOwner",
							"type": "address"
						}
					],
					"name": "OwnershipRenounced",
					"type": "event"
				},
				{
					"anonymous": false,
					"inputs": [
						{
							"indexed": true,
							"internalType": "address",
							"name": "previousOwner",
							"type": "address"
						},
						{
							"indexed": true,
							"internalType": "address",
							"name": "newOwner",
							"type": "address"
						}
					],
					"name": "OwnershipTransferred",
					"type": "event"
				},
				{
					"anonymous": false,
					"inputs": [
						{
							"indexed": true,
							"internalType": "address",
							"name": "from",
							"type": "address"
						},
						{
							"indexed": true,
							"internalType": "address",
							"name": "to",
							"type": "address"
						},
						{
							"indexed": false,
							"internalType": "uint256",
							"name": "value",
							"type": "uint256"
						}
					],
					"name": "Transfer",
					"type": "event"
				},
				{
					"inputs": [],
					"name": "BLAST",
					"outputs": [
						{
							"internalType": "contract IBlast",
							"name": "",
							"type": "address"
						}
					],
					"stateMutability": "view",
					"type": "function"
				},
				{
					"inputs": [],
					"name": "_autoDistribute",
					"outputs": [
						{
							"internalType": "bool",
							"name": "",
							"type": "bool"
						}
					],
					"stateMutability": "view",
					"type": "function"
				},
				{
					"inputs": [],
					"name": "_autoRebase",
					"outputs": [
						{
							"internalType": "bool",
							"name": "",
							"type": "bool"
						}
					],
					"stateMutability": "view",
					"type": "function"
				},
				{
					"inputs": [],
					"name": "_autoSwapBack",
					"outputs": [
						{
							"internalType": "bool",
							"name": "",
							"type": "bool"
						}
					],
					"stateMutability": "view",
					"type": "function"
				},
				{
					"inputs": [
						{
							"internalType": "address",
							"name": "",
							"type": "address"
						}
					],
					"name": "_blacklist",
					"outputs": [
						{
							"internalType": "bool",
							"name": "",
							"type": "bool"
						}
					],
					"stateMutability": "view",
					"type": "function"
				},
				{
					"inputs": [],
					"name": "_blastClaimInterval",
					"outputs": [
						{
							"internalType": "uint256",
							"name": "",
							"type": "uint256"
						}
					],
					"stateMutability": "view",
					"type": "function"
				},
				{
					"inputs": [],
					"name": "_distributionInterval",
					"outputs": [
						{
							"internalType": "uint256",
							"name": "",
							"type": "uint256"
						}
					],
					"stateMutability": "view",
					"type": "function"
				},
				{
					"inputs": [],
					"name": "_feePercent",
					"outputs": [
						{
							"internalType": "uint256",
							"name": "",
							"type": "uint256"
						}
					],
					"stateMutability": "view",
					"type": "function"
				},
				{
					"inputs": [],
					"name": "_initRebaseStartTime",
					"outputs": [
						{
							"internalType": "uint256",
							"name": "",
							"type": "uint256"
						}
					],
					"stateMutability": "view",
					"type": "function"
				},
				{
					"inputs": [],
					"name": "_lastRebasedTime",
					"outputs": [
						{
							"internalType": "uint256",
							"name": "",
							"type": "uint256"
						}
					],
					"stateMutability": "view",
					"type": "function"
				},
				{
					"inputs": [],
					"name": "_totalSupply",
					"outputs": [
						{
							"internalType": "uint256",
							"name": "",
							"type": "uint256"
						}
					],
					"stateMutability": "view",
					"type": "function"
				},
				{
					"inputs": [
						{
							"internalType": "address",
							"name": "owner_",
							"type": "address"
						},
						{
							"internalType": "address",
							"name": "spender",
							"type": "address"
						}
					],
					"name": "allowance",
					"outputs": [
						{
							"internalType": "uint256",
							"name": "",
							"type": "uint256"
						}
					],
					"stateMutability": "view",
					"type": "function"
				},
				{
					"inputs": [
						{
							"internalType": "address",
							"name": "spender",
							"type": "address"
						},
						{
							"internalType": "uint256",
							"name": "value",
							"type": "uint256"
						}
					],
					"name": "approve",
					"outputs": [
						{
							"internalType": "bool",
							"name": "",
							"type": "bool"
						}
					],
					"stateMutability": "nonpayable",
					"type": "function"
				},
				{
					"inputs": [
						{
							"internalType": "address",
							"name": "who",
							"type": "address"
						}
					],
					"name": "balanceOf",
					"outputs": [
						{
							"internalType": "uint256",
							"name": "",
							"type": "uint256"
						}
					],
					"stateMutability": "view",
					"type": "function"
				},
				{
					"inputs": [
						{
							"internalType": "address",
							"name": "_addr",
							"type": "address"
						}
					],
					"name": "checkFeeExempt",
					"outputs": [
						{
							"internalType": "bool",
							"name": "",
							"type": "bool"
						}
					],
					"stateMutability": "view",
					"type": "function"
				},
				{
					"inputs": [],
					"name": "claimMyGasFees",
					"outputs": [],
					"stateMutability": "nonpayable",
					"type": "function"
				},
				{
					"inputs": [],
					"name": "decimals",
					"outputs": [
						{
							"internalType": "uint8",
							"name": "",
							"type": "uint8"
						}
					],
					"stateMutability": "view",
					"type": "function"
				},
				{
					"inputs": [
						{
							"internalType": "address",
							"name": "spender",
							"type": "address"
						},
						{
							"internalType": "uint256",
							"name": "subtractedValue",
							"type": "uint256"
						}
					],
					"name": "decreaseAllowance",
					"outputs": [
						{
							"internalType": "bool",
							"name": "",
							"type": "bool"
						}
					],
					"stateMutability": "nonpayable",
					"type": "function"
				},
				{
					"inputs": [
						{
							"internalType": "address",
							"name": "spender",
							"type": "address"
						},
						{
							"internalType": "uint256",
							"name": "addedValue",
							"type": "uint256"
						}
					],
					"name": "increaseAllowance",
					"outputs": [
						{
							"internalType": "bool",
							"name": "",
							"type": "bool"
						}
					],
					"stateMutability": "nonpayable",
					"type": "function"
				},
				{
					"inputs": [],
					"name": "isNotInSwap",
					"outputs": [
						{
							"internalType": "bool",
							"name": "",
							"type": "bool"
						}
					],
					"stateMutability": "view",
					"type": "function"
				},
				{
					"inputs": [],
					"name": "isOwner",
					"outputs": [
						{
							"internalType": "bool",
							"name": "",
							"type": "bool"
						}
					],
					"stateMutability": "view",
					"type": "function"
				},
				{
					"inputs": [],
					"name": "manualSync",
					"outputs": [],
					"stateMutability": "nonpayable",
					"type": "function"
				},
				{
					"inputs": [],
					"name": "name",
					"outputs": [
						{
							"internalType": "string",
							"name": "",
							"type": "string"
						}
					],
					"stateMutability": "view",
					"type": "function"
				},
				{
					"inputs": [],
					"name": "owner",
					"outputs": [
						{
							"internalType": "address",
							"name": "",
							"type": "address"
						}
					],
					"stateMutability": "view",
					"type": "function"
				},
				{
					"inputs": [],
					"name": "pairAddress",
					"outputs": [
						{
							"internalType": "address",
							"name": "",
							"type": "address"
						}
					],
					"stateMutability": "view",
					"type": "function"
				},
				{
					"inputs": [],
					"name": "renounceOwnership",
					"outputs": [],
					"stateMutability": "nonpayable",
					"type": "function"
				},
				{
					"inputs": [
						{
							"internalType": "bool",
							"name": "_flag",
							"type": "bool"
						}
					],
					"name": "setAutoDistribute",
					"outputs": [],
					"stateMutability": "nonpayable",
					"type": "function"
				},
				{
					"inputs": [
						{
							"internalType": "bool",
							"name": "_flag",
							"type": "bool"
						}
					],
					"name": "setAutoRebase",
					"outputs": [],
					"stateMutability": "nonpayable",
					"type": "function"
				},
				{
					"inputs": [
						{
							"internalType": "bool",
							"name": "_flag",
							"type": "bool"
						}
					],
					"name": "setAutoSwapBack",
					"outputs": [],
					"stateMutability": "nonpayable",
					"type": "function"
				},
				{
					"inputs": [
						{
							"internalType": "uint256",
							"name": "interval",
							"type": "uint256"
						}
					],
					"name": "setBlastClaimInterval",
					"outputs": [],
					"stateMutability": "nonpayable",
					"type": "function"
				},
				{
					"inputs": [
						{
							"internalType": "address",
							"name": "_botAddress",
							"type": "address"
						},
						{
							"internalType": "bool",
							"name": "_flag",
							"type": "bool"
						}
					],
					"name": "setBotBlacklist",
					"outputs": [],
					"stateMutability": "nonpayable",
					"type": "function"
				},
				{
					"inputs": [
						{
							"internalType": "uint256",
							"name": "interval",
							"type": "uint256"
						}
					],
					"name": "setDistributeInterval",
					"outputs": [],
					"stateMutability": "nonpayable",
					"type": "function"
				},
				{
					"inputs": [
						{
							"internalType": "uint256",
							"name": "percent",
							"type": "uint256"
						}
					],
					"name": "setFeePercentage",
					"outputs": [],
					"stateMutability": "nonpayable",
					"type": "function"
				},
				{
					"inputs": [
						{
							"internalType": "address",
							"name": "addr",
							"type": "address"
						}
					],
					"name": "setLP",
					"outputs": [],
					"stateMutability": "nonpayable",
					"type": "function"
				},
				{
					"inputs": [
						{
							"internalType": "address",
							"name": "_addr",
							"type": "address"
						}
					],
					"name": "setWhitelist",
					"outputs": [],
					"stateMutability": "nonpayable",
					"type": "function"
				},
				{
					"inputs": [
						{
							"internalType": "address",
							"name": "blastAddr",
							"type": "address"
						}
					],
					"name": "setupBlast",
					"outputs": [],
					"stateMutability": "nonpayable",
					"type": "function"
				},
				{
					"inputs": [],
					"name": "symbol",
					"outputs": [
						{
							"internalType": "string",
							"name": "",
							"type": "string"
						}
					],
					"stateMutability": "view",
					"type": "function"
				},
				{
					"inputs": [],
					"name": "totalSupply",
					"outputs": [
						{
							"internalType": "uint256",
							"name": "",
							"type": "uint256"
						}
					],
					"stateMutability": "view",
					"type": "function"
				},
				{
					"inputs": [
						{
							"internalType": "address",
							"name": "to",
							"type": "address"
						},
						{
							"internalType": "uint256",
							"name": "value",
							"type": "uint256"
						}
					],
					"name": "transfer",
					"outputs": [
						{
							"internalType": "bool",
							"name": "",
							"type": "bool"
						}
					],
					"stateMutability": "nonpayable",
					"type": "function"
				},
				{
					"inputs": [
						{
							"internalType": "address",
							"name": "from",
							"type": "address"
						},
						{
							"internalType": "address",
							"name": "to",
							"type": "address"
						},
						{
							"internalType": "uint256",
							"name": "value",
							"type": "uint256"
						}
					],
					"name": "transferFrom",
					"outputs": [
						{
							"internalType": "bool",
							"name": "",
							"type": "bool"
						}
					],
					"stateMutability": "nonpayable",
					"type": "function"
				},
				{
					"inputs": [
						{
							"internalType": "address",
							"name": "newOwner",
							"type": "address"
						}
					],
					"name": "transferOwnership",
					"outputs": [],
					"stateMutability": "nonpayable",
					"type": "function"
				},
				{
					"stateMutability": "payable",
					"type": "receive"
				}
			],
			"devdoc": {
				"events": {
					"Approval(address,address,uint256)": {
						"details": "Emitted when the allowance of a `spender` for an `owner` is set by a call to {approve}. `value` is the new allowance."
					},
					"Transfer(address,address,uint256)": {
						"details": "Emitted when `value` tokens are moved from one account (`from`) to another (`to`). Note that `value` may be zero."
					}
				},
				"kind": "dev",
				"methods": {
					"approve(address,uint256)": {
						"details": "Sets a `value` amount of tokens as the allowance of `spender` over the caller's tokens. Returns a boolean value indicating whether the operation succeeded. IMPORTANT: Beware that changing an allowance with this method brings the risk that someone may use both the old and the new allowance by unfortunate transaction ordering. One possible solution to mitigate this race condition is to first reduce the spender's allowance to 0 and set the desired value afterwards: https://github.com/ethereum/EIPs/issues/20#issuecomment-263524729 Emits an {Approval} event."
					},
					"decimals()": {
						"details": "OPTIONAL Returns the amount of decimals supported by the token"
					},
					"name()": {
						"details": "OPTIONAL Returns the name of the token"
					},
					"symbol()": {
						"details": "OPTIONAL Returns the symbol of the token"
					},
					"totalSupply()": {
						"details": "Returns the value of tokens in existence."
					},
					"transfer(address,uint256)": {
						"details": "Moves a `value` amount of tokens from the caller's account to `to`. Returns a boolean value indicating whether the operation succeeded. Emits a {Transfer} event."
					},
					"transferFrom(address,address,uint256)": {
						"details": "Moves a `value` amount of tokens from `from` to `to` using the allowance mechanism. `value` is then deducted from the caller's allowance. Returns a boolean value indicating whether the operation succeeded. Emits a {Transfer} event."
					}
				},
				"version": 1
			},
			"evm": {
				"assembly": "    /* \"contracts/BOMB_flattened.sol\":25161:30337  contract BOMB is BOMBBase, NativeTransferable {... */\n  mstore(0x40, 0x80)\n    /* \"contracts/BOMB_flattened.sol\":19477:19483  1 days */\n  0x015180\n    /* \"contracts/BOMB_flattened.sol\":19440:19483  uint256 public _blastClaimInterval = 1 days */\n  0x05\n  sstore\n    /* \"contracts/BOMB_flattened.sol\":21209:21211  99 */\n  0x63\n    /* \"contracts/BOMB_flattened.sol\":21180:21211  uint256 public _feePercent = 99 */\n  0x07\n  sstore\n    /* \"contracts/BOMB_flattened.sol\":21254:21264  10 minutes */\n  0x0258\n    /* \"contracts/BOMB_flattened.sol\":21215:21264  uint256 public _distributionInterval = 10 minutes */\n  0x08\n  sstore\n    /* \"contracts/BOMB_flattened.sol\":21831:21836  false */\n  0x00\n    /* \"contracts/BOMB_flattened.sol\":21807:21836  bool internal _inSwap = false */\n  0x14\n  dup1\n  0x0100\n  exp\n  dup2\n  sload\n  dup2\n  0xff\n  mul\n  not\n  and\n  swap1\n  dup4\n  iszero\n  iszero\n  mul\n  or\n  swap1\n  sstore\n  pop\n    /* \"contracts/BOMB_flattened.sol\":25161:30337  contract BOMB is BOMBBase, NativeTransferable {... */\n  callvalue\n  dup1\n  iszero\n  tag_1\n  jumpi\n  0x00\n  dup1\n  revert\ntag_1:\n  pop\n    /* \"contracts/BOMB_flattened.sol\":22027:22031  NAME */\n  mload(0x40)\n  dup1\n  0x40\n  add\n  0x40\n  mstore\n  dup1\n  0x04\n  dup2\n  mstore\n  0x20\n  add\n  0x424f4d4200000000000000000000000000000000000000000000000000000000\n  dup2\n  mstore\n  pop\n    /* \"contracts/BOMB_flattened.sol\":22033:22036  SYM */\n  mload(0x40)\n  dup1\n  0x40\n  add\n  0x40\n  mstore\n  dup1\n  0x04\n  dup2\n  mstore\n  0x20\n  add\n  0x424f4d4200000000000000000000000000000000000000000000000000000000\n  dup2\n  mstore\n  pop\n    /* \"contracts/BOMB_flattened.sol\":20667:20668  5 */\n  0x05\n    /* \"contracts/BOMB_flattened.sol\":17846:17851  name_ */\n  dup3\n    /* \"contracts/BOMB_flattened.sol\":17838:17843  _name */\n  0x00\n    /* \"contracts/BOMB_flattened.sol\":17838:17851  _name = name_ */\n  swap1\n  dup2\n  tag_6\n  swap2\n  swap1\n  tag_7\n  jump\t// in\ntag_6:\n  pop\n    /* \"contracts/BOMB_flattened.sol\":17866:17873  symbol_ */\n  dup2\n    /* \"contracts/BOMB_flattened.sol\":17856:17863  _symbol */\n  0x01\n    /* \"contracts/BOMB_flattened.sol\":17856:17873  _symbol = symbol_ */\n  swap1\n  dup2\n  tag_8\n  swap2\n  swap1\n  tag_7\n  jump\t// in\ntag_8:\n  pop\n    /* \"contracts/BOMB_flattened.sol\":17890:17899  decimals_ */\n  dup1\n    /* \"contracts/BOMB_flattened.sol\":17878:17887  _decimals */\n  0x02\n  0x00\n    /* \"contracts/BOMB_flattened.sol\":17878:17899  _decimals = decimals_ */\n  0x0100\n  exp\n  dup2\n  sload\n  dup2\n  0xff\n  mul\n  not\n  and\n  swap1\n  dup4\n  0xff\n  and\n  mul\n  or\n  swap1\n  sstore\n  pop\n    /* \"contracts/BOMB_flattened.sol\":17760:17904  constructor(string memory name_, string memory symbol_, uint8 decimals_) {... */\n  pop\n  pop\n  pop\n    /* \"contracts/BOMB_flattened.sol\":18443:18453  msg.sender */\n  caller\n    /* \"contracts/BOMB_flattened.sol\":18434:18440  _owner */\n  0x02\n  0x01\n    /* \"contracts/BOMB_flattened.sol\":18434:18453  _owner = msg.sender */\n  0x0100\n  exp\n  dup2\n  sload\n  dup2\n  0xffffffffffffffffffffffffffffffffffffffff\n  mul\n  not\n  and\n  swap1\n  dup4\n  0xffffffffffffffffffffffffffffffffffffffff\n  and\n  mul\n  or\n  swap1\n  sstore\n  pop\n    /* \"contracts/BOMB_flattened.sol\":20667:20668  5 */\n  0x05\n    /* \"contracts/BOMB_flattened.sol\":20903:20905  10 */\n  0x0a\n    /* \"contracts/BOMB_flattened.sol\":20903:20917  10 ** DECIMALS */\n  tag_11\n  swap2\n  swap1\n  tag_12\n  jump\t// in\ntag_11:\n    /* \"contracts/BOMB_flattened.sol\":20887:20900  325 * 10 ** 3 */\n  0x04f588\n    /* \"contracts/BOMB_flattened.sol\":20887:20917  325 * 10 ** 3 * 10 ** DECIMALS */\n  tag_13\n  swap2\n  swap1\n  tag_14\n  jump\t// in\ntag_13:\n    /* \"contracts/BOMB_flattened.sol\":22063:22075  _totalSupply */\n  0x0c\n    /* \"contracts/BOMB_flattened.sol\":22063:22092  _totalSupply = INITIAL_SUPPLY */\n  dup2\n  swap1\n  sstore\n  pop\n    /* \"contracts/BOMB_flattened.sol\":22120:22135  block.timestamp */\n  timestamp\n    /* \"contracts/BOMB_flattened.sol\":22097:22117  _initRebaseStartTime */\n  0x0a\n    /* \"contracts/BOMB_flattened.sol\":22097:22135  _initRebaseStartTime = block.timestamp */\n  dup2\n  swap1\n  sstore\n  pop\n    /* \"contracts/BOMB_flattened.sol\":22159:22174  block.timestamp */\n  timestamp\n    /* \"contracts/BOMB_flattened.sol\":22140:22156  _lastRebasedTime */\n  0x0b\n    /* \"contracts/BOMB_flattened.sol\":22140:22174  _lastRebasedTime = block.timestamp */\n  dup2\n  swap1\n  sstore\n  pop\n    /* \"contracts/BOMB_flattened.sol\":22193:22197  true */\n  0x01\n    /* \"contracts/BOMB_flattened.sol\":22179:22190  _autoRebase */\n  0x09\n  0x00\n    /* \"contracts/BOMB_flattened.sol\":22179:22197  _autoRebase = true */\n  0x0100\n  exp\n  dup2\n  sload\n  dup2\n  0xff\n  mul\n  not\n  and\n  swap1\n  dup4\n  iszero\n  iszero\n  mul\n  or\n  swap1\n  sstore\n  pop\n    /* \"contracts/BOMB_flattened.sol\":22218:22222  true */\n  0x01\n    /* \"contracts/BOMB_flattened.sol\":22202:22215  _autoSwapBack */\n  0x09\n  0x01\n    /* \"contracts/BOMB_flattened.sol\":22202:22222  _autoSwapBack = true */\n  0x0100\n  exp\n  dup2\n  sload\n  dup2\n  0xff\n  mul\n  not\n  and\n  swap1\n  dup4\n  iszero\n  iszero\n  mul\n  or\n  swap1\n  sstore\n  pop\n    /* \"contracts/BOMB_flattened.sol\":22257:22261  true */\n  0x01\n    /* \"contracts/BOMB_flattened.sol\":22227:22239  _isFeeExempt */\n  0x10\n    /* \"contracts/BOMB_flattened.sol\":22227:22254  _isFeeExempt[address(this)] */\n  0x00\n    /* \"contracts/BOMB_flattened.sol\":22248:22252  this */\n  address\n    /* \"contracts/BOMB_flattened.sol\":22227:22254  _isFeeExempt[address(this)] */\n  0xffffffffffffffffffffffffffffffffffffffff\n  and\n  0xffffffffffffffffffffffffffffffffffffffff\n  and\n  dup2\n  mstore\n  0x20\n  add\n  swap1\n  dup2\n  mstore\n  0x20\n  add\n  0x00\n  keccak256\n  0x00\n    /* \"contracts/BOMB_flattened.sol\":22227:22261  _isFeeExempt[address(this)] = true */\n  0x0100\n  exp\n  dup2\n  sload\n  dup2\n  0xff\n  mul\n  not\n  and\n  swap1\n  dup4\n  iszero\n  iszero\n  mul\n  or\n  swap1\n  sstore\n  pop\n    /* \"contracts/BOMB_flattened.sol\":20962:21004  0xd7f655E3376cE2D7A2b08fF01Eb3B1023191A901 */\n  0xd7f655e3376ce2d7a2b08ff01eb3b1023191a901\n    /* \"contracts/BOMB_flattened.sol\":22268:22275  _router */\n  0x13\n  0x00\n    /* \"contracts/BOMB_flattened.sol\":22268:22309  _router = IPancakeSwapRouter(ADDR_ROUTER) */\n  0x0100\n  exp\n  dup2\n  sload\n  dup2\n  0xffffffffffffffffffffffffffffffffffffffff\n  mul\n  not\n  and\n  swap1\n  dup4\n  0xffffffffffffffffffffffffffffffffffffffff\n  and\n  mul\n  or\n  swap1\n  sstore\n  pop\n    /* \"contracts/BOMB_flattened.sol\":22340:22352  _totalSupply */\n  sload(0x0c)\n    /* \"contracts/BOMB_flattened.sol\":22316:22325  _balances */\n  0x0e\n    /* \"contracts/BOMB_flattened.sol\":22316:22337  _balances[msg.sender] */\n  0x00\n    /* \"contracts/BOMB_flattened.sol\":22326:22336  msg.sender */\n  caller\n    /* \"contracts/BOMB_flattened.sol\":22316:22337  _balances[msg.sender] */\n  0xffffffffffffffffffffffffffffffffffffffff\n  and\n  0xffffffffffffffffffffffffffffffffffffffff\n  and\n  dup2\n  mstore\n  0x20\n  add\n  swap1\n  dup2\n  mstore\n  0x20\n  add\n  0x00\n  keccak256\n    /* \"contracts/BOMB_flattened.sol\":22316:22352  _balances[msg.sender] = _totalSupply */\n  dup2\n  swap1\n  sstore\n  pop\n    /* \"contracts/BOMB_flattened.sol\":22386:22396  msg.sender */\n  caller\n    /* \"contracts/BOMB_flattened.sol\":22362:22411  Transfer(address(this), msg.sender, _totalSupply) */\n  0xffffffffffffffffffffffffffffffffffffffff\n  and\n    /* \"contracts/BOMB_flattened.sol\":22379:22383  this */\n  address\n    /* \"contracts/BOMB_flattened.sol\":22362:22411  Transfer(address(this), msg.sender, _totalSupply) */\n  0xffffffffffffffffffffffffffffffffffffffff\n  and\n  0xddf252ad1be2c89b69c2b068fc378daa952ba7f163c4a11628f55a4df523b3ef\n    /* \"contracts/BOMB_flattened.sol\":22398:22410  _totalSupply */\n  sload(0x0c)\n    /* \"contracts/BOMB_flattened.sol\":22362:22411  Transfer(address(this), msg.sender, _totalSupply) */\n  mload(0x40)\n  tag_15\n  swap2\n  swap1\n  tag_16\n  jump\t// in\ntag_15:\n  mload(0x40)\n  dup1\n  swap2\n  sub\n  swap1\n  log3\n    /* \"contracts/BOMB_flattened.sol\":25161:30337  contract BOMB is BOMBBase, NativeTransferable {... */\n  jump(tag_17)\n    /* \"#utility.yul\":7:106   */\ntag_18:\n    /* \"#utility.yul\":59:65   */\n  0x00\n    /* \"#utility.yul\":93:98   */\n  dup2\n    /* \"#utility.yul\":87:99   */\n  mload\n    /* \"#utility.yul\":77:99   */\n  swap1\n  pop\n    /* \"#utility.yul\":7:106   */\n  swap2\n  swap1\n  pop\n  jump\t// out\n    /* \"#utility.yul\":112:292   */\ntag_19:\n    /* \"#utility.yul\":160:237   */\n  0x4e487b7100000000000000000000000000000000000000000000000000000000\n    /* \"#utility.yul\":157:158   */\n  0x00\n    /* \"#utility.yul\":150:238   */\n  mstore\n    /* \"#utility.yul\":257:261   */\n  0x41\n    /* \"#utility.yul\":254:255   */\n  0x04\n    /* \"#utility.yul\":247:262   */\n  mstore\n    /* \"#utility.yul\":281:285   */\n  0x24\n    /* \"#utility.yul\":278:279   */\n  0x00\n    /* \"#utility.yul\":271:286   */\n  revert\n    /* \"#utility.yul\":298:478   */\ntag_20:\n    /* \"#utility.yul\":346:423   */\n  0x4e487b7100000000000000000000000000000000000000000000000000000000\n    /* \"#utility.yul\":343:344   */\n  0x00\n    /* \"#utility.yul\":336:424   */\n  mstore\n    /* \"#utility.yul\":443:447   */\n  0x22\n    /* \"#utility.yul\":440:441   */\n  0x04\n    /* \"#utility.yul\":433:448   */\n  mstore\n    /* \"#utility.yul\":467:471   */\n  0x24\n    /* \"#utility.yul\":464:465   */\n  0x00\n    /* \"#utility.yul\":457:472   */\n  revert\n    /* \"#utility.yul\":484:804   */\ntag_21:\n    /* \"#utility.yul\":528:534   */\n  0x00\n    /* \"#utility.yul\":565:566   */\n  0x02\n    /* \"#utility.yul\":559:563   */\n  dup3\n    /* \"#utility.yul\":555:567   */\n  div\n    /* \"#utility.yul\":545:567   */\n  swap1\n  pop\n    /* \"#utility.yul\":612:613   */\n  0x01\n    /* \"#utility.yul\":606:610   */\n  dup3\n    /* \"#utility.yul\":602:614   */\n  and\n    /* \"#utility.yul\":633:651   */\n  dup1\n    /* \"#utility.yul\":623:704   */\n  tag_49\n  jumpi\n    /* \"#utility.yul\":689:693   */\n  0x7f\n    /* \"#utility.yul\":681:687   */\n  dup3\n    /* \"#utility.yul\":677:694   */\n  and\n    /* \"#utility.yul\":667:694   */\n  swap2\n  pop\n    /* \"#utility.yul\":623:704   */\ntag_49:\n    /* \"#utility.yul\":751:753   */\n  0x20\n    /* \"#utility.yul\":743:749   */\n  dup3\n    /* \"#utility.yul\":740:754   */\n  lt\n    /* \"#utility.yul\":720:738   */\n  dup2\n    /* \"#utility.yul\":717:755   */\n  sub\n    /* \"#utility.yul\":714:798   */\n  tag_50\n  jumpi\n    /* \"#utility.yul\":770:788   */\n  tag_51\n  tag_20\n  jump\t// in\ntag_51:\n    /* \"#utility.yul\":714:798   */\ntag_50:\n    /* \"#utility.yul\":535:804   */\n  pop\n    /* \"#utility.yul\":484:804   */\n  swap2\n  swap1\n  pop\n  jump\t// out\n    /* \"#utility.yul\":810:951   */\ntag_22:\n    /* \"#utility.yul\":859:863   */\n  0x00\n    /* \"#utility.yul\":882:885   */\n  dup2\n    /* \"#utility.yul\":874:885   */\n  swap1\n  pop\n    /* \"#utility.yul\":905:908   */\n  dup2\n    /* \"#utility.yul\":902:903   */\n  0x00\n    /* \"#utility.yul\":895:909   */\n  mstore\n    /* \"#utility.yul\":939:943   */\n  0x20\n    /* \"#utility.yul\":936:937   */\n  0x00\n    /* \"#utility.yul\":926:944   */\n  keccak256\n    /* \"#utility.yul\":918:944   */\n  swap1\n  pop\n    /* \"#utility.yul\":810:951   */\n  swap2\n  swap1\n  pop\n  jump\t// out\n    /* \"#utility.yul\":957:1050   */\ntag_23:\n    /* \"#utility.yul\":994:1000   */\n  0x00\n    /* \"#utility.yul\":1041:1043   */\n  0x20\n    /* \"#utility.yul\":1036:1038   */\n  0x1f\n    /* \"#utility.yul\":1029:1034   */\n  dup4\n    /* \"#utility.yul\":1025:1039   */\n  add\n    /* \"#utility.yul\":1021:1044   */\n  div\n    /* \"#utility.yul\":1011:1044   */\n  swap1\n  pop\n    /* \"#utility.yul\":957:1050   */\n  swap2\n  swap1\n  pop\n  jump\t// out\n    /* \"#utility.yul\":1056:1163   */\ntag_24:\n    /* \"#utility.yul\":1100:1108   */\n  0x00\n    /* \"#utility.yul\":1150:1155   */\n  dup3\n    /* \"#utility.yul\":1144:1148   */\n  dup3\n    /* \"#utility.yul\":1140:1156   */\n  shl\n    /* \"#utility.yul\":1119:1156   */\n  swap1\n  pop\n    /* \"#utility.yul\":1056:1163   */\n  swap3\n  swap2\n  pop\n  pop\n  jump\t// out\n    /* \"#utility.yul\":1169:1562   */\ntag_25:\n    /* \"#utility.yul\":1238:1244   */\n  0x00\n    /* \"#utility.yul\":1288:1289   */\n  0x08\n    /* \"#utility.yul\":1276:1286   */\n  dup4\n    /* \"#utility.yul\":1272:1290   */\n  mul\n    /* \"#utility.yul\":1311:1408   */\n  tag_56\n    /* \"#utility.yul\":1341:1407   */\n  0xffffffffffffffffffffffffffffffffffffffffffffffffffffffffffffffff\n    /* \"#utility.yul\":1330:1339   */\n  dup3\n    /* \"#utility.yul\":1311:1408   */\n  tag_24\n  jump\t// in\ntag_56:\n    /* \"#utility.yul\":1429:1468   */\n  tag_57\n    /* \"#utility.yul\":1459:1467   */\n  dup7\n    /* \"#utility.yul\":1448:1457   */\n  dup4\n    /* \"#utility.yul\":1429:1468   */\n  tag_24\n  jump\t// in\ntag_57:\n    /* \"#utility.yul\":1417:1468   */\n  swap6\n  pop\n    /* \"#utility.yul\":1501:1505   */\n  dup1\n    /* \"#utility.yul\":1497:1506   */\n  not\n    /* \"#utility.yul\":1490:1495   */\n  dup5\n    /* \"#utility.yul\":1486:1507   */\n  and\n    /* \"#utility.yul\":1477:1507   */\n  swap4\n  pop\n    /* \"#utility.yul\":1550:1554   */\n  dup1\n    /* \"#utility.yul\":1540:1548   */\n  dup7\n    /* \"#utility.yul\":1536:1555   */\n  and\n    /* \"#utility.yul\":1529:1534   */\n  dup5\n    /* \"#utility.yul\":1526:1556   */\n  or\n    /* \"#utility.yul\":1516:1556   */\n  swap3\n  pop\n    /* \"#utility.yul\":1245:1562   */\n  pop\n  pop\n    /* \"#utility.yul\":1169:1562   */\n  swap4\n  swap3\n  pop\n  pop\n  pop\n  jump\t// out\n    /* \"#utility.yul\":1568:1645   */\ntag_26:\n    /* \"#utility.yul\":1605:1612   */\n  0x00\n    /* \"#utility.yul\":1634:1639   */\n  dup2\n    /* \"#utility.yul\":1623:1639   */\n  swap1\n  pop\n    /* \"#utility.yul\":1568:1645   */\n  swap2\n  swap1\n  pop\n  jump\t// out\n    /* \"#utility.yul\":1651:1711   */\ntag_27:\n    /* \"#utility.yul\":1679:1682   */\n  0x00\n    /* \"#utility.yul\":1700:1705   */\n  dup2\n    /* \"#utility.yul\":1693:1705   */\n  swap1\n  pop\n    /* \"#utility.yul\":1651:1711   */\n  swap2\n  swap1\n  pop\n  jump\t// out\n    /* \"#utility.yul\":1717:1859   */\ntag_28:\n    /* \"#utility.yul\":1767:1776   */\n  0x00\n    /* \"#utility.yul\":1800:1853   */\n  tag_61\n    /* \"#utility.yul\":1818:1852   */\n  tag_62\n    /* \"#utility.yul\":1827:1851   */\n  tag_63\n    /* \"#utility.yul\":1845:1850   */\n  dup5\n    /* \"#utility.yul\":1827:1851   */\n  tag_26\n  jump\t// in\ntag_63:\n    /* \"#utility.yul\":1818:1852   */\n  tag_27\n  jump\t// in\ntag_62:\n    /* \"#utility.yul\":1800:1853   */\n  tag_26\n  jump\t// in\ntag_61:\n    /* \"#utility.yul\":1787:1853   */\n  swap1\n  pop\n    /* \"#utility.yul\":1717:1859   */\n  swap2\n  swap1\n  pop\n  jump\t// out\n    /* \"#utility.yul\":1865:1940   */\ntag_29:\n    /* \"#utility.yul\":1908:1911   */\n  0x00\n    /* \"#utility.yul\":1929:1934   */\n  dup2\n    /* \"#utility.yul\":1922:1934   */\n  swap1\n  pop\n    /* \"#utility.yul\":1865:1940   */\n  swap2\n  swap1\n  pop\n  jump\t// out\n    /* \"#utility.yul\":1946:2215   */\ntag_30:\n    /* \"#utility.yul\":2056:2095   */\n  tag_66\n    /* \"#utility.yul\":2087:2094   */\n  dup4\n    /* \"#utility.yul\":2056:2095   */\n  tag_28\n  jump\t// in\ntag_66:\n    /* \"#utility.yul\":2117:2208   */\n  tag_67\n    /* \"#utility.yul\":2166:2207   */\n  tag_68\n    /* \"#utility.yul\":2190:2206   */\n  dup3\n    /* \"#utility.yul\":2166:2207   */\n  tag_29\n  jump\t// in\ntag_68:\n    /* \"#utility.yul\":2158:2164   */\n  dup5\n    /* \"#utility.yul\":2151:2155   */\n  dup5\n    /* \"#utility.yul\":2145:2156   */\n  sload\n    /* \"#utility.yul\":2117:2208   */\n  tag_25\n  jump\t// in\ntag_67:\n    /* \"#utility.yul\":2111:2115   */\n  dup3\n    /* \"#utility.yul\":2104:2209   */\n  sstore\n    /* \"#utility.yul\":2022:2215   */\n  pop\n    /* \"#utility.yul\":1946:2215   */\n  pop\n  pop\n  pop\n  jump\t// out\n    /* \"#utility.yul\":2221:2294   */\ntag_31:\n    /* \"#utility.yul\":2266:2269   */\n  0x00\n    /* \"#utility.yul\":2221:2294   */\n  swap1\n  jump\t// out\n    /* \"#utility.yul\":2300:2489   */\ntag_32:\n    /* \"#utility.yul\":2377:2409   */\n  tag_71\n  tag_31\n  jump\t// in\ntag_71:\n    /* \"#utility.yul\":2418:2483   */\n  tag_72\n    /* \"#utility.yul\":2476:2482   */\n  dup2\n    /* \"#utility.yul\":2468:2474   */\n  dup5\n    /* \"#utility.yul\":2462:2466   */\n  dup5\n    /* \"#utility.yul\":2418:2483   */\n  tag_30\n  jump\t// in\ntag_72:\n    /* \"#utility.yul\":2353:2489   */\n  pop\n    /* \"#utility.yul\":2300:2489   */\n  pop\n  pop\n  jump\t// out\n    /* \"#utility.yul\":2495:2681   */\ntag_33:\n    /* \"#utility.yul\":2555:2675   */\ntag_74:\n    /* \"#utility.yul\":2572:2575   */\n  dup2\n    /* \"#utility.yul\":2565:2570   */\n  dup2\n    /* \"#utility.yul\":2562:2576   */\n  lt\n    /* \"#utility.yul\":2555:2675   */\n  iszero\n  tag_76\n  jumpi\n    /* \"#utility.yul\":2626:2665   */\n  tag_77\n    /* \"#utility.yul\":2663:2664   */\n  0x00\n    /* \"#utility.yul\":2656:2661   */\n  dup3\n    /* \"#utility.yul\":2626:2665   */\n  tag_32\n  jump\t// in\ntag_77:\n    /* \"#utility.yul\":2599:2600   */\n  0x01\n    /* \"#utility.yul\":2592:2597   */\n  dup2\n    /* \"#utility.yul\":2588:2601   */\n  add\n    /* \"#utility.yul\":2579:2601   */\n  swap1\n  pop\n    /* \"#utility.yul\":2555:2675   */\n  jump(tag_74)\ntag_76:\n    /* \"#utility.yul\":2495:2681   */\n  pop\n  pop\n  jump\t// out\n    /* \"#utility.yul\":2687:3230   */\ntag_34:\n    /* \"#utility.yul\":2788:2790   */\n  0x1f\n    /* \"#utility.yul\":2783:2786   */\n  dup3\n    /* \"#utility.yul\":2780:2791   */\n  gt\n    /* \"#utility.yul\":2777:3223   */\n  iszero\n  tag_79\n  jumpi\n    /* \"#utility.yul\":2822:2860   */\n  tag_80\n    /* \"#utility.yul\":2854:2859   */\n  dup2\n    /* \"#utility.yul\":2822:2860   */\n  tag_22\n  jump\t// in\ntag_80:\n    /* \"#utility.yul\":2906:2935   */\n  tag_81\n    /* \"#utility.yul\":2924:2934   */\n  dup5\n    /* \"#utility.yul\":2906:2935   */\n  tag_23\n  jump\t// in\ntag_81:\n    /* \"#utility.yul\":2896:2904   */\n  dup2\n    /* \"#utility.yul\":2892:2936   */\n  add\n    /* \"#utility.yul\":3089:3091   */\n  0x20\n    /* \"#utility.yul\":3077:3087   */\n  dup6\n    /* \"#utility.yul\":3074:3092   */\n  lt\n    /* \"#utility.yul\":3071:3120   */\n  iszero\n  tag_82\n  jumpi\n    /* \"#utility.yul\":3110:3118   */\n  dup2\n    /* \"#utility.yul\":3095:3118   */\n  swap1\n  pop\n    /* \"#utility.yul\":3071:3120   */\ntag_82:\n    /* \"#utility.yul\":3133:3213   */\n  tag_83\n    /* \"#utility.yul\":3189:3211   */\n  tag_84\n    /* \"#utility.yul\":3207:3210   */\n  dup6\n    /* \"#utility.yul\":3189:3211   */\n  tag_23\n  jump\t// in\ntag_84:\n    /* \"#utility.yul\":3179:3187   */\n  dup4\n    /* \"#utility.yul\":3175:3212   */\n  add\n    /* \"#utility.yul\":3162:3173   */\n  dup3\n    /* \"#utility.yul\":3133:3213   */\n  tag_33\n  jump\t// in\ntag_83:\n    /* \"#utility.yul\":2792:3223   */\n  pop\n  pop\n    /* \"#utility.yul\":2777:3223   */\ntag_79:\n    /* \"#utility.yul\":2687:3230   */\n  pop\n  pop\n  pop\n  jump\t// out\n    /* \"#utility.yul\":3236:3353   */\ntag_35:\n    /* \"#utility.yul\":3290:3298   */\n  0x00\n    /* \"#utility.yul\":3340:3345   */\n  dup3\n    /* \"#utility.yul\":3334:3338   */\n  dup3\n    /* \"#utility.yul\":3330:3346   */\n  shr\n    /* \"#utility.yul\":3309:3346   */\n  swap1\n  pop\n    /* \"#utility.yul\":3236:3353   */\n  swap3\n  swap2\n  pop\n  pop\n  jump\t// out\n    /* \"#utility.yul\":3359:3528   */\ntag_36:\n    /* \"#utility.yul\":3403:3409   */\n  0x00\n    /* \"#utility.yul\":3436:3487   */\n  tag_87\n    /* \"#utility.yul\":3484:3485   */\n  0x00\n    /* \"#utility.yul\":3480:3486   */\n  not\n    /* \"#utility.yul\":3472:3477   */\n  dup5\n    /* \"#utility.yul\":3469:3470   */\n  0x08\n    /* \"#utility.yul\":3465:3478   */\n  mul\n    /* \"#utility.yul\":3436:3487   */\n  tag_35\n  jump\t// in\ntag_87:\n    /* \"#utility.yul\":3432:3488   */\n  not\n    /* \"#utility.yul\":3517:3521   */\n  dup1\n    /* \"#utility.yul\":3511:3515   */\n  dup4\n    /* \"#utility.yul\":3507:3522   */\n  and\n    /* \"#utility.yul\":3497:3522   */\n  swap2\n  pop\n    /* \"#utility.yul\":3410:3528   */\n  pop\n    /* \"#utility.yul\":3359:3528   */\n  swap3\n  swap2\n  pop\n  pop\n  jump\t// out\n    /* \"#utility.yul\":3533:3828   */\ntag_37:\n    /* \"#utility.yul\":3609:3613   */\n  0x00\n    /* \"#utility.yul\":3755:3784   */\n  tag_89\n    /* \"#utility.yul\":3780:3783   */\n  dup4\n    /* \"#utility.yul\":3774:3778   */\n  dup4\n    /* \"#utility.yul\":3755:3784   */\n  tag_36\n  jump\t// in\ntag_89:\n    /* \"#utility.yul\":3747:3784   */\n  swap2\n  pop\n    /* \"#utility.yul\":3817:3820   */\n  dup3\n    /* \"#utility.yul\":3814:3815   */\n  0x02\n    /* \"#utility.yul\":3810:3821   */\n  mul\n    /* \"#utility.yul\":3804:3808   */\n  dup3\n    /* \"#utility.yul\":3801:3822   */\n  or\n    /* \"#utility.yul\":3793:3822   */\n  swap1\n  pop\n    /* \"#utility.yul\":3533:3828   */\n  swap3\n  swap2\n  pop\n  pop\n  jump\t// out\n    /* \"#utility.yul\":3833:5228   */\ntag_7:\n    /* \"#utility.yul\":3950:3987   */\n  tag_91\n    /* \"#utility.yul\":3983:3986   */\n  dup3\n    /* \"#utility.yul\":3950:3987   */\n  tag_18\n  jump\t// in\ntag_91:\n    /* \"#utility.yul\":4052:4070   */\n  0xffffffffffffffff\n    /* \"#utility.yul\":4044:4050   */\n  dup2\n    /* \"#utility.yul\":4041:4071   */\n  gt\n    /* \"#utility.yul\":4038:4094   */\n  iszero\n  tag_92\n  jumpi\n    /* \"#utility.yul\":4074:4092   */\n  tag_93\n  tag_19\n  jump\t// in\ntag_93:\n    /* \"#utility.yul\":4038:4094   */\ntag_92:\n    /* \"#utility.yul\":4118:4156   */\n  tag_94\n    /* \"#utility.yul\":4150:4154   */\n  dup3\n    /* \"#utility.yul\":4144:4155   */\n  sload\n    /* \"#utility.yul\":4118:4156   */\n  tag_21\n  jump\t// in\ntag_94:\n    /* \"#utility.yul\":4203:4270   */\n  tag_95\n    /* \"#utility.yul\":4263:4269   */\n  dup3\n    /* \"#utility.yul\":4255:4261   */\n  dup3\n    /* \"#utility.yul\":4249:4253   */\n  dup6\n    /* \"#utility.yul\":4203:4270   */\n  tag_34\n  jump\t// in\ntag_95:\n    /* \"#utility.yul\":4297:4298   */\n  0x00\n    /* \"#utility.yul\":4321:4325   */\n  0x20\n    /* \"#utility.yul\":4308:4325   */\n  swap1\n  pop\n    /* \"#utility.yul\":4353:4355   */\n  0x1f\n    /* \"#utility.yul\":4345:4351   */\n  dup4\n    /* \"#utility.yul\":4342:4356   */\n  gt\n    /* \"#utility.yul\":4370:4371   */\n  0x01\n    /* \"#utility.yul\":4365:4983   */\n  dup2\n  eq\n  tag_97\n  jumpi\n    /* \"#utility.yul\":5027:5028   */\n  0x00\n    /* \"#utility.yul\":5044:5050   */\n  dup5\n    /* \"#utility.yul\":5041:5118   */\n  iszero\n  tag_98\n  jumpi\n    /* \"#utility.yul\":5093:5102   */\n  dup3\n    /* \"#utility.yul\":5088:5091   */\n  dup8\n    /* \"#utility.yul\":5084:5103   */\n  add\n    /* \"#utility.yul\":5078:5104   */\n  mload\n    /* \"#utility.yul\":5069:5104   */\n  swap1\n  pop\n    /* \"#utility.yul\":5041:5118   */\ntag_98:\n    /* \"#utility.yul\":5144:5211   */\n  tag_99\n    /* \"#utility.yul\":5204:5210   */\n  dup6\n    /* \"#utility.yul\":5197:5202   */\n  dup3\n    /* \"#utility.yul\":5144:5211   */\n  tag_37\n  jump\t// in\ntag_99:\n    /* \"#utility.yul\":5138:5142   */\n  dup7\n    /* \"#utility.yul\":5131:5212   */\n  sstore\n    /* \"#utility.yul\":5000:5222   */\n  pop\n    /* \"#utility.yul\":4335:5222   */\n  jump(tag_96)\n    /* \"#utility.yul\":4365:4983   */\ntag_97:\n    /* \"#utility.yul\":4417:4421   */\n  0x1f\n    /* \"#utility.yul\":4413:4422   */\n  not\n    /* \"#utility.yul\":4405:4411   */\n  dup5\n    /* \"#utility.yul\":4401:4423   */\n  and\n    /* \"#utility.yul\":4451:4488   */\n  tag_100\n    /* \"#utility.yul\":4483:4487   */\n  dup7\n    /* \"#utility.yul\":4451:4488   */\n  tag_22\n  jump\t// in\ntag_100:\n    /* \"#utility.yul\":4510:4511   */\n  0x00\n    /* \"#utility.yul\":4524:4732   */\ntag_101:\n    /* \"#utility.yul\":4538:4545   */\n  dup3\n    /* \"#utility.yul\":4535:4536   */\n  dup2\n    /* \"#utility.yul\":4532:4546   */\n  lt\n    /* \"#utility.yul\":4524:4732   */\n  iszero\n  tag_103\n  jumpi\n    /* \"#utility.yul\":4617:4626   */\n  dup5\n    /* \"#utility.yul\":4612:4615   */\n  dup10\n    /* \"#utility.yul\":4608:4627   */\n  add\n    /* \"#utility.yul\":4602:4628   */\n  mload\n    /* \"#utility.yul\":4594:4600   */\n  dup3\n    /* \"#utility.yul\":4587:4629   */\n  sstore\n    /* \"#utility.yul\":4668:4669   */\n  0x01\n    /* \"#utility.yul\":4660:4666   */\n  dup3\n    /* \"#utility.yul\":4656:4670   */\n  add\n    /* \"#utility.yul\":4646:4670   */\n  swap2\n  pop\n    /* \"#utility.yul\":4715:4717   */\n  0x20\n    /* \"#utility.yul\":4704:4713   */\n  dup6\n    /* \"#utility.yul\":4700:4718   */\n  add\n    /* \"#utility.yul\":4687:4718   */\n  swap5\n  pop\n    /* \"#utility.yul\":4561:4565   */\n  0x20\n    /* \"#utility.yul\":4558:4559   */\n  dup2\n    /* \"#utility.yul\":4554:4566   */\n  add\n    /* \"#utility.yul\":4549:4566   */\n  swap1\n  pop\n    /* \"#utility.yul\":4524:4732   */\n  jump(tag_101)\ntag_103:\n    /* \"#utility.yul\":4760:4766   */\n  dup7\n    /* \"#utility.yul\":4751:4758   */\n  dup4\n    /* \"#utility.yul\":4748:4767   */\n  lt\n    /* \"#utility.yul\":4745:4924   */\n  iszero\n  tag_104\n  jumpi\n    /* \"#utility.yul\":4818:4827   */\n  dup5\n    /* \"#utility.yul\":4813:4816   */\n  dup10\n    /* \"#utility.yul\":4809:4828   */\n  add\n    /* \"#utility.yul\":4803:4829   */\n  mload\n    /* \"#utility.yul\":4861:4909   */\n  tag_105\n    /* \"#utility.yul\":4903:4907   */\n  0x1f\n    /* \"#utility.yul\":4895:4901   */\n  dup10\n    /* \"#utility.yul\":4891:4908   */\n  and\n    /* \"#utility.yul\":4880:4889   */\n  dup3\n    /* \"#utility.yul\":4861:4909   */\n  tag_36\n  jump\t// in\ntag_105:\n    /* \"#utility.yul\":4853:4859   */\n  dup4\n    /* \"#utility.yul\":4846:4910   */\n  sstore\n    /* \"#utility.yul\":4768:4924   */\n  pop\n    /* \"#utility.yul\":4745:4924   */\ntag_104:\n    /* \"#utility.yul\":4970:4971   */\n  0x01\n    /* \"#utility.yul\":4966:4967   */\n  0x02\n    /* \"#utility.yul\":4958:4964   */\n  dup9\n    /* \"#utility.yul\":4954:4968   */\n  mul\n    /* \"#utility.yul\":4950:4972   */\n  add\n    /* \"#utility.yul\":4944:4948   */\n  dup9\n    /* \"#utility.yul\":4937:4973   */\n  sstore\n    /* \"#utility.yul\":4372:4983   */\n  pop\n  pop\n  pop\n    /* \"#utility.yul\":4335:5222   */\ntag_96:\n  pop\n    /* \"#utility.yul\":3925:5228   */\n  pop\n  pop\n  pop\n    /* \"#utility.yul\":3833:5228   */\n  pop\n  pop\n  jump\t// out\n    /* \"#utility.yul\":5234:5414   */\ntag_38:\n    /* \"#utility.yul\":5282:5359   */\n  0x4e487b7100000000000000000000000000000000000000000000000000000000\n    /* \"#utility.yul\":5279:5280   */\n  0x00\n    /* \"#utility.yul\":5272:5360   */\n  mstore\n    /* \"#utility.yul\":5379:5383   */\n  0x11\n    /* \"#utility.yul\":5376:5377   */\n  0x04\n    /* \"#utility.yul\":5369:5384   */\n  mstore\n    /* \"#utility.yul\":5403:5407   */\n  0x24\n    /* \"#utility.yul\":5400:5401   */\n  0x00\n    /* \"#utility.yul\":5393:5408   */\n  revert\n    /* \"#utility.yul\":5420:5522   */\ntag_39:\n    /* \"#utility.yul\":5462:5470   */\n  0x00\n    /* \"#utility.yul\":5509:5514   */\n  dup2\n    /* \"#utility.yul\":5506:5507   */\n  0x01\n    /* \"#utility.yul\":5502:5515   */\n  shr\n    /* \"#utility.yul\":5481:5515   */\n  swap1\n  pop\n    /* \"#utility.yul\":5420:5522   */\n  swap2\n  swap1\n  pop\n  jump\t// out\n    /* \"#utility.yul\":5528:6376   */\ntag_40:\n    /* \"#utility.yul\":5589:5594   */\n  0x00\n    /* \"#utility.yul\":5596:5600   */\n  dup1\n    /* \"#utility.yul\":5620:5626   */\n  dup3\n    /* \"#utility.yul\":5611:5626   */\n  swap2\n  pop\n    /* \"#utility.yul\":5644:5649   */\n  dup4\n    /* \"#utility.yul\":5635:5649   */\n  swap1\n  pop\n    /* \"#utility.yul\":5658:6370   */\ntag_109:\n    /* \"#utility.yul\":5679:5680   */\n  0x01\n    /* \"#utility.yul\":5669:5677   */\n  dup6\n    /* \"#utility.yul\":5666:5681   */\n  gt\n    /* \"#utility.yul\":5658:6370   */\n  iszero\n  tag_111\n  jumpi\n    /* \"#utility.yul\":5774:5778   */\n  dup1\n    /* \"#utility.yul\":5769:5772   */\n  dup7\n    /* \"#utility.yul\":5765:5779   */\n  div\n    /* \"#utility.yul\":5759:5763   */\n  dup2\n    /* \"#utility.yul\":5756:5780   */\n  gt\n    /* \"#utility.yul\":5753:5803   */\n  iszero\n  tag_112\n  jumpi\n    /* \"#utility.yul\":5783:5801   */\n  tag_113\n  tag_38\n  jump\t// in\ntag_113:\n    /* \"#utility.yul\":5753:5803   */\ntag_112:\n    /* \"#utility.yul\":5833:5834   */\n  0x01\n    /* \"#utility.yul\":5823:5831   */\n  dup6\n    /* \"#utility.yul\":5819:5835   */\n  and\n    /* \"#utility.yul\":5816:6267   */\n  iszero\n  tag_114\n  jumpi\n    /* \"#utility.yul\":6248:6252   */\n  dup1\n    /* \"#utility.yul\":6241:6246   */\n  dup3\n    /* \"#utility.yul\":6237:6253   */\n  mul\n    /* \"#utility.yul\":6228:6253   */\n  swap2\n  pop\n    /* \"#utility.yul\":5816:6267   */\ntag_114:\n    /* \"#utility.yul\":6298:6302   */\n  dup1\n    /* \"#utility.yul\":6292:6296   */\n  dup2\n    /* \"#utility.yul\":6288:6303   */\n  mul\n    /* \"#utility.yul\":6280:6303   */\n  swap1\n  pop\n    /* \"#utility.yul\":6328:6360   */\n  tag_115\n    /* \"#utility.yul\":6351:6359   */\n  dup6\n    /* \"#utility.yul\":6328:6360   */\n  tag_39\n  jump\t// in\ntag_115:\n    /* \"#utility.yul\":6316:6360   */\n  swap5\n  pop\n    /* \"#utility.yul\":5658:6370   */\n  jump(tag_109)\ntag_111:\n    /* \"#utility.yul\":5528:6376   */\n  swap5\n  pop\n  swap5\n  swap3\n  pop\n  pop\n  pop\n  jump\t// out\n    /* \"#utility.yul\":6382:7455   */\ntag_41:\n    /* \"#utility.yul\":6436:6441   */\n  0x00\n    /* \"#utility.yul\":6627:6635   */\n  dup3\n    /* \"#utility.yul\":6617:6657   */\n  tag_117\n  jumpi\n    /* \"#utility.yul\":6648:6649   */\n  0x01\n    /* \"#utility.yul\":6639:6649   */\n  swap1\n  pop\n    /* \"#utility.yul\":6650:6655   */\n  jump(tag_116)\n    /* \"#utility.yul\":6617:6657   */\ntag_117:\n    /* \"#utility.yul\":6676:6680   */\n  dup2\n    /* \"#utility.yul\":6666:6702   */\n  tag_118\n  jumpi\n    /* \"#utility.yul\":6693:6694   */\n  0x00\n    /* \"#utility.yul\":6684:6694   */\n  swap1\n  pop\n    /* \"#utility.yul\":6695:6700   */\n  jump(tag_116)\n    /* \"#utility.yul\":6666:6702   */\ntag_118:\n    /* \"#utility.yul\":6762:6766   */\n  dup2\n    /* \"#utility.yul\":6810:6811   */\n  0x01\n    /* \"#utility.yul\":6805:6832   */\n  dup2\n  eq\n  tag_120\n  jumpi\n    /* \"#utility.yul\":6846:6847   */\n  0x02\n    /* \"#utility.yul\":6841:7032   */\n  dup2\n  eq\n  tag_121\n  jumpi\n    /* \"#utility.yul\":6755:7032   */\n  jump(tag_119)\n    /* \"#utility.yul\":6805:6832   */\ntag_120:\n    /* \"#utility.yul\":6823:6824   */\n  0x01\n    /* \"#utility.yul\":6814:6824   */\n  swap2\n  pop\n    /* \"#utility.yul\":6825:6830   */\n  pop\n  jump(tag_116)\n    /* \"#utility.yul\":6841:7032   */\ntag_121:\n    /* \"#utility.yul\":6886:6889   */\n  0xff\n    /* \"#utility.yul\":6876:6884   */\n  dup5\n    /* \"#utility.yul\":6873:6890   */\n  gt\n    /* \"#utility.yul\":6870:6913   */\n  iszero\n  tag_122\n  jumpi\n    /* \"#utility.yul\":6893:6911   */\n  tag_123\n  tag_38\n  jump\t// in\ntag_123:\n    /* \"#utility.yul\":6870:6913   */\ntag_122:\n    /* \"#utility.yul\":6942:6950   */\n  dup4\n    /* \"#utility.yul\":6939:6940   */\n  0x02\n    /* \"#utility.yul\":6935:6951   */\n  exp\n    /* \"#utility.yul\":6926:6951   */\n  swap2\n  pop\n    /* \"#utility.yul\":6977:6980   */\n  dup5\n    /* \"#utility.yul\":6970:6975   */\n  dup3\n    /* \"#utility.yul\":6967:6981   */\n  gt\n    /* \"#utility.yul\":6964:7004   */\n  iszero\n  tag_124\n  jumpi\n    /* \"#utility.yul\":6984:7002   */\n  tag_125\n  tag_38\n  jump\t// in\ntag_125:\n    /* \"#utility.yul\":6964:7004   */\ntag_124:\n    /* \"#utility.yul\":7017:7022   */\n  pop\n  jump(tag_116)\n    /* \"#utility.yul\":6755:7032   */\ntag_119:\n  pop\n    /* \"#utility.yul\":7141:7143   */\n  0x20\n    /* \"#utility.yul\":7131:7139   */\n  dup4\n    /* \"#utility.yul\":7128:7144   */\n  lt\n    /* \"#utility.yul\":7122:7125   */\n  0x0133\n    /* \"#utility.yul\":7116:7120   */\n  dup4\n    /* \"#utility.yul\":7113:7126   */\n  lt\n    /* \"#utility.yul\":7109:7145   */\n  and\n    /* \"#utility.yul\":7091:7093   */\n  0x4e\n    /* \"#utility.yul\":7081:7089   */\n  dup5\n    /* \"#utility.yul\":7078:7094   */\n  lt\n    /* \"#utility.yul\":7073:7075   */\n  0x0b\n    /* \"#utility.yul\":7067:7071   */\n  dup5\n    /* \"#utility.yul\":7064:7076   */\n  lt\n    /* \"#utility.yul\":7060:7095   */\n  and\n    /* \"#utility.yul\":7044:7155   */\n  or\n    /* \"#utility.yul\":7041:7287   */\n  iszero\n  tag_126\n  jumpi\n    /* \"#utility.yul\":7197:7205   */\n  dup3\n    /* \"#utility.yul\":7191:7195   */\n  dup3\n    /* \"#utility.yul\":7187:7206   */\n  exp\n    /* \"#utility.yul\":7178:7206   */\n  swap1\n  pop\n    /* \"#utility.yul\":7232:7235   */\n  dup4\n    /* \"#utility.yul\":7225:7230   */\n  dup2\n    /* \"#utility.yul\":7222:7236   */\n  gt\n    /* \"#utility.yul\":7219:7259   */\n  iszero\n  tag_127\n  jumpi\n    /* \"#utility.yul\":7239:7257   */\n  tag_128\n  tag_38\n  jump\t// in\ntag_128:\n    /* \"#utility.yul\":7219:7259   */\ntag_127:\n    /* \"#utility.yul\":7272:7277   */\n  jump(tag_116)\n    /* \"#utility.yul\":7041:7287   */\ntag_126:\n    /* \"#utility.yul\":7312:7354   */\n  tag_129\n    /* \"#utility.yul\":7350:7353   */\n  dup5\n    /* \"#utility.yul\":7340:7348   */\n  dup5\n    /* \"#utility.yul\":7334:7338   */\n  dup5\n    /* \"#utility.yul\":7331:7332   */\n  0x01\n    /* \"#utility.yul\":7312:7354   */\n  tag_40\n  jump\t// in\ntag_129:\n    /* \"#utility.yul\":7297:7354   */\n  swap3\n  pop\n  swap1\n  pop\n    /* \"#utility.yul\":7386:7390   */\n  dup2\n    /* \"#utility.yul\":7381:7384   */\n  dup5\n    /* \"#utility.yul\":7377:7391   */\n  div\n    /* \"#utility.yul\":7370:7375   */\n  dup2\n    /* \"#utility.yul\":7367:7392   */\n  gt\n    /* \"#utility.yul\":7364:7415   */\n  iszero\n  tag_130\n  jumpi\n    /* \"#utility.yul\":7395:7413   */\n  tag_131\n  tag_38\n  jump\t// in\ntag_131:\n    /* \"#utility.yul\":7364:7415   */\ntag_130:\n    /* \"#utility.yul\":7444:7448   */\n  dup2\n    /* \"#utility.yul\":7437:7442   */\n  dup2\n    /* \"#utility.yul\":7433:7449   */\n  mul\n    /* \"#utility.yul\":7424:7449   */\n  swap1\n  pop\n    /* \"#utility.yul\":6382:7455   */\ntag_116:\n  swap4\n  swap3\n  pop\n  pop\n  pop\n  jump\t// out\n    /* \"#utility.yul\":7461:7547   */\ntag_42:\n    /* \"#utility.yul\":7496:7503   */\n  0x00\n    /* \"#utility.yul\":7536:7540   */\n  0xff\n    /* \"#utility.yul\":7529:7534   */\n  dup3\n    /* \"#utility.yul\":7525:7541   */\n  and\n    /* \"#utility.yul\":7514:7541   */\n  swap1\n  pop\n    /* \"#utility.yul\":7461:7547   */\n  swap2\n  swap1\n  pop\n  jump\t// out\n    /* \"#utility.yul\":7553:7834   */\ntag_12:\n    /* \"#utility.yul\":7611:7616   */\n  0x00\n    /* \"#utility.yul\":7635:7658   */\n  tag_134\n    /* \"#utility.yul\":7653:7657   */\n  dup3\n    /* \"#utility.yul\":7635:7658   */\n  tag_26\n  jump\t// in\ntag_134:\n    /* \"#utility.yul\":7627:7658   */\n  swap2\n  pop\n    /* \"#utility.yul\":7679:7704   */\n  tag_135\n    /* \"#utility.yul\":7695:7703   */\n  dup4\n    /* \"#utility.yul\":7679:7704   */\n  tag_42\n  jump\t// in\ntag_135:\n    /* \"#utility.yul\":7667:7704   */\n  swap3\n  pop\n    /* \"#utility.yul\":7723:7827   */\n  tag_136\n    /* \"#utility.yul\":7760:7826   */\n  0xffffffffffffffffffffffffffffffffffffffffffffffffffffffffffffffff\n    /* \"#utility.yul\":7750:7758   */\n  dup5\n    /* \"#utility.yul\":7744:7748   */\n  dup5\n    /* \"#utility.yul\":7723:7827   */\n  tag_41\n  jump\t// in\ntag_136:\n    /* \"#utility.yul\":7714:7827   */\n  swap1\n  pop\n    /* \"#utility.yul\":7553:7834   */\n  swap3\n  swap2\n  pop\n  pop\n  jump\t// out\n    /* \"#utility.yul\":7840:8250   */\ntag_14:\n    /* \"#utility.yul\":7880:7887   */\n  0x00\n    /* \"#utility.yul\":7903:7923   */\n  tag_138\n    /* \"#utility.yul\":7921:7922   */\n  dup3\n    /* \"#utility.yul\":7903:7923   */\n  tag_26\n  jump\t// in\ntag_138:\n    /* \"#utility.yul\":7898:7923   */\n  swap2\n  pop\n    /* \"#utility.yul\":7937:7957   */\n  tag_139\n    /* \"#utility.yul\":7955:7956   */\n  dup4\n    /* \"#utility.yul\":7937:7957   */\n  tag_26\n  jump\t// in\ntag_139:\n    /* \"#utility.yul\":7932:7957   */\n  swap3\n  pop\n    /* \"#utility.yul\":7992:7993   */\n  dup3\n    /* \"#utility.yul\":7989:7990   */\n  dup3\n    /* \"#utility.yul\":7985:7994   */\n  mul\n    /* \"#utility.yul\":8014:8044   */\n  tag_140\n    /* \"#utility.yul\":8032:8043   */\n  dup2\n    /* \"#utility.yul\":8014:8044   */\n  tag_26\n  jump\t// in\ntag_140:\n    /* \"#utility.yul\":8003:8044   */\n  swap2\n  pop\n    /* \"#utility.yul\":8193:8194   */\n  dup3\n    /* \"#utility.yul\":8184:8191   */\n  dup3\n    /* \"#utility.yul\":8180:8195   */\n  div\n    /* \"#utility.yul\":8177:8178   */\n  dup5\n    /* \"#utility.yul\":8174:8196   */\n  eq\n    /* \"#utility.yul\":8154:8155   */\n  dup4\n    /* \"#utility.yul\":8147:8156   */\n  iszero\n    /* \"#utility.yul\":8127:8210   */\n  or\n    /* \"#utility.yul\":8104:8243   */\n  tag_141\n  jumpi\n    /* \"#utility.yul\":8223:8241   */\n  tag_142\n  tag_38\n  jump\t// in\ntag_142:\n    /* \"#utility.yul\":8104:8243   */\ntag_141:\n    /* \"#utility.yul\":7888:8250   */\n  pop\n    /* \"#utility.yul\":7840:8250   */\n  swap3\n  swap2\n  pop\n  pop\n  jump\t// out\n    /* \"#utility.yul\":8256:8374   */\ntag_43:\n    /* \"#utility.yul\":8343:8367   */\n  tag_144\n    /* \"#utility.yul\":8361:8366   */\n  dup2\n    /* \"#utility.yul\":8343:8367   */\n  tag_26\n  jump\t// in\ntag_144:\n    /* \"#utility.yul\":8338:8341   */\n  dup3\n    /* \"#utility.yul\":8331:8368   */\n  mstore\n    /* \"#utility.yul\":8256:8374   */\n  pop\n  pop\n  jump\t// out\n    /* \"#utility.yul\":8380:8602   */\ntag_16:\n    /* \"#utility.yul\":8473:8477   */\n  0x00\n    /* \"#utility.yul\":8511:8513   */\n  0x20\n    /* \"#utility.yul\":8500:8509   */\n  dup3\n    /* \"#utility.yul\":8496:8514   */\n  add\n    /* \"#utility.yul\":8488:8514   */\n  swap1\n  pop\n    /* \"#utility.yul\":8524:8595   */\n  tag_146\n    /* \"#utility.yul\":8592:8593   */\n  0x00\n    /* \"#utility.yul\":8581:8590   */\n  dup4\n    /* \"#utility.yul\":8577:8594   */\n  add\n    /* \"#utility.yul\":8568:8574   */\n  dup5\n    /* \"#utility.yul\":8524:8595   */\n  tag_43\n  jump\t// in\ntag_146:\n    /* \"#utility.yul\":8380:8602   */\n  swap3\n  swap2\n  pop\n  pop\n  jump\t// out\n    /* \"contracts/BOMB_flattened.sol\":25161:30337  contract BOMB is BOMBBase, NativeTransferable {... */\ntag_17:\n  dataSize(sub_0)\n  dup1\n  dataOffset(sub_0)\n  0x00\n  codecopy\n  0x00\n  return\nstop\n\nsub_0: assembly {\n        /* \"contracts/BOMB_flattened.sol\":25161:30337  contract BOMB is BOMBBase, NativeTransferable {... */\n      mstore(0x40, 0x80)\n      jumpi(tag_1, lt(calldatasize, 0x04))\n      shr(0xe0, calldataload(0x00))\n      dup1\n      0x83b4ac68\n      gt\n      tag_44\n      jumpi\n      dup1\n      0xa8b08982\n      gt\n      tag_45\n      jumpi\n      dup1\n      0xd4399790\n      gt\n      tag_46\n      jumpi\n      dup1\n      0xd4399790\n      eq\n      tag_38\n      jumpi\n      dup1\n      0xdd62ed3e\n      eq\n      tag_39\n      jumpi\n      dup1\n      0xe15beb80\n      eq\n      tag_40\n      jumpi\n      dup1\n      0xeaca243b\n      eq\n      tag_41\n      jumpi\n      dup1\n      0xf2e809e0\n      eq\n      tag_42\n      jumpi\n      dup1\n      0xf2fde38b\n      eq\n      tag_43\n      jumpi\n      jump(tag_2)\n    tag_46:\n      dup1\n      0xa8b08982\n      eq\n      tag_33\n      jumpi\n      dup1\n      0xa9059cbb\n      eq\n      tag_34\n      jumpi\n      dup1\n      0xae06c1b7\n      eq\n      tag_35\n      jumpi\n      dup1\n      0xafb9cf6d\n      eq\n      tag_36\n      jumpi\n      dup1\n      0xc737a49b\n      eq\n      tag_37\n      jumpi\n      jump(tag_2)\n    tag_45:\n      dup1\n      0x95fe579c\n      gt\n      tag_47\n      jumpi\n      dup1\n      0x95fe579c\n      eq\n      tag_28\n      jumpi\n      dup1\n      0x97d75776\n      eq\n      tag_29\n      jumpi\n      dup1\n      0x9b87676c\n      eq\n      tag_30\n      jumpi\n      dup1\n      0xa20623ce\n      eq\n      tag_31\n      jumpi\n      dup1\n      0xa457c2d7\n      eq\n      tag_32\n      jumpi\n      jump(tag_2)\n    tag_47:\n      dup1\n      0x83b4ac68\n      eq\n      tag_23\n      jumpi\n      dup1\n      0x854cff2f\n      eq\n      tag_24\n      jumpi\n      dup1\n      0x8da5cb5b\n      eq\n      tag_25\n      jumpi\n      dup1\n      0x8f32d59b\n      eq\n      tag_26\n      jumpi\n      dup1\n      0x95d89b41\n      eq\n      tag_27\n      jumpi\n      jump(tag_2)\n    tag_44:\n      dup1\n      0x39509351\n      gt\n      tag_48\n      jumpi\n      dup1\n      0x69222948\n      gt\n      tag_49\n      jumpi\n      dup1\n      0x69222948\n      eq\n      tag_18\n      jumpi\n      dup1\n      0x70a08231\n      eq\n      tag_19\n      jumpi\n      dup1\n      0x70ee7395\n      eq\n      tag_20\n      jumpi\n      dup1\n      0x715018a6\n      eq\n      tag_21\n      jumpi\n      dup1\n      0x753d02a1\n      eq\n      tag_22\n      jumpi\n      jump(tag_2)\n    tag_49:\n      dup1\n      0x39509351\n      eq\n      tag_13\n      jumpi\n      dup1\n      0x3eaaf86b\n      eq\n      tag_14\n      jumpi\n      dup1\n      0x4addc0e8\n      eq\n      tag_15\n      jumpi\n      dup1\n      0x4bc6dd18\n      eq\n      tag_16\n      jumpi\n      dup1\n      0x4e14ec4b\n      eq\n      tag_17\n      jumpi\n      jump(tag_2)\n    tag_48:\n      dup1\n      0x2910164a\n      gt\n      tag_50\n      jumpi\n      dup1\n      0x2910164a\n      eq\n      tag_8\n      jumpi\n      dup1\n      0x2f34d282\n      eq\n      tag_9\n      jumpi\n      dup1\n      0x313ce567\n      eq\n      tag_10\n      jumpi\n      dup1\n      0x32b75683\n      eq\n      tag_11\n      jumpi\n      dup1\n      0x37c9be87\n      eq\n      tag_12\n      jumpi\n      jump(tag_2)\n    tag_50:\n      dup1\n      0x06fdde03\n      eq\n      tag_3\n      jumpi\n      dup1\n      0x095ea7b3\n      eq\n      tag_4\n      jumpi\n      dup1\n      0x18160ddd\n      eq\n      tag_5\n      jumpi\n      dup1\n      0x23084e5f\n      eq\n      tag_6\n      jumpi\n      dup1\n      0x23b872dd\n      eq\n      tag_7\n      jumpi\n      jump(tag_2)\n    tag_1:\n      jumpi(tag_2, calldatasize)\n      stop\n    tag_2:\n      0x00\n      dup1\n      revert\n        /* \"contracts/BOMB_flattened.sol\":17909:17983  function name() public view returns (string memory) {... */\n    tag_3:\n      callvalue\n      dup1\n      iszero\n      tag_53\n      jumpi\n      0x00\n      dup1\n      revert\n    tag_53:\n      pop\n      tag_54\n      tag_55\n      jump\t// in\n    tag_54:\n      mload(0x40)\n      tag_56\n      swap2\n      swap1\n      tag_57\n      jump\t// in\n    tag_56:\n      mload(0x40)\n      dup1\n      swap2\n      sub\n      swap1\n      return\n        /* \"contracts/BOMB_flattened.sol\":25955:26148  function approve(address spender, uint256 value) external override returns (bool) {... */\n    tag_4:\n      callvalue\n      dup1\n      iszero\n      tag_58\n      jumpi\n      0x00\n      dup1\n      revert\n    tag_58:\n      pop\n      tag_59\n      0x04\n      dup1\n      calldatasize\n      sub\n      dup2\n      add\n      swap1\n      tag_60\n      swap2\n      swap1\n      tag_61\n      jump\t// in\n    tag_60:\n      tag_62\n      jump\t// in\n    tag_59:\n      mload(0x40)\n      tag_63\n      swap2\n      swap1\n      tag_64\n      jump\t// in\n    tag_63:\n      mload(0x40)\n      dup1\n      swap2\n      sub\n      swap1\n      return\n        /* \"contracts/BOMB_flattened.sol\":25748:25841  function totalSupply() external view override returns (uint256) {... */\n    tag_5:\n      callvalue\n      dup1\n      iszero\n      tag_65\n      jumpi\n      0x00\n      dup1\n      revert\n    tag_65:\n      pop\n      tag_66\n      tag_67\n      jump\t// in\n    tag_66:\n      mload(0x40)\n      tag_68\n      swap2\n      swap1\n      tag_69\n      jump\t// in\n    tag_68:\n      mload(0x40)\n      dup1\n      swap2\n      sub\n      swap1\n      return\n        /* \"contracts/BOMB_flattened.sol\":19522:19933  function claimMyGasFees() external {... */\n    tag_6:\n      callvalue\n      dup1\n      iszero\n      tag_70\n      jumpi\n      0x00\n      dup1\n      revert\n    tag_70:\n      pop\n      tag_71\n      tag_72\n      jump\t// in\n    tag_71:\n      stop\n        /* \"contracts/BOMB_flattened.sol\":26317:26671  function transferFrom(address from, address to, uint256 value) external override validRecipient(to) returns (bool) {... */\n    tag_7:\n      callvalue\n      dup1\n      iszero\n      tag_73\n      jumpi\n      0x00\n      dup1\n      revert\n    tag_73:\n      pop\n      tag_74\n      0x04\n      dup1\n      calldatasize\n      sub\n      dup2\n      add\n      swap1\n      tag_75\n      swap2\n      swap1\n      tag_76\n      jump\t// in\n    tag_75:\n      tag_77\n      jump\t// in\n    tag_74:\n      mload(0x40)\n      tag_78\n      swap2\n      swap1\n      tag_64\n      jump\t// in\n    tag_78:\n      mload(0x40)\n      dup1\n      swap2\n      sub\n      swap1\n      return\n        /* \"contracts/BOMB_flattened.sol\":24910:25020  function setDistributeInterval(uint256 interval) external onlyOwner {... */\n    tag_8:\n      callvalue\n      dup1\n      iszero\n      tag_79\n      jumpi\n      0x00\n      dup1\n      revert\n    tag_79:\n      pop\n      tag_80\n      0x04\n      dup1\n      calldatasize\n      sub\n      dup2\n      add\n      swap1\n      tag_81\n      swap2\n      swap1\n      tag_82\n      jump\t// in\n    tag_81:\n      tag_83\n      jump\t// in\n    tag_80:\n      stop\n        /* \"contracts/BOMB_flattened.sol\":24817:24905  function setLP(address addr) external onlyOwner {... */\n    tag_9:\n      callvalue\n      dup1\n      iszero\n      tag_84\n      jumpi\n      0x00\n      dup1\n      revert\n    tag_84:\n      pop\n      tag_85\n      0x04\n      dup1\n      calldatasize\n      sub\n      dup2\n      add\n      swap1\n      tag_86\n      swap2\n      swap1\n      tag_87\n      jump\t// in\n    tag_86:\n      tag_88\n      jump\t// in\n    tag_85:\n      stop\n        /* \"contracts/BOMB_flattened.sol\":18071:18145  function decimals() public view returns (uint8) {... */\n    tag_10:\n      callvalue\n      dup1\n      iszero\n      tag_89\n      jumpi\n      0x00\n      dup1\n      revert\n    tag_89:\n      pop\n      tag_90\n      tag_91\n      jump\t// in\n    tag_90:\n      mload(0x40)\n      tag_92\n      swap2\n      swap1\n      tag_93\n      jump\t// in\n    tag_92:\n      mload(0x40)\n      dup1\n      swap2\n      sub\n      swap1\n      return\n        /* \"contracts/BOMB_flattened.sol\":21398:21429  uint256 public _lastRebasedTime */\n    tag_11:\n      callvalue\n      dup1\n      iszero\n      tag_94\n      jumpi\n      0x00\n      dup1\n      revert\n    tag_94:\n      pop\n      tag_95\n      tag_96\n      jump\t// in\n    tag_95:\n      mload(0x40)\n      tag_97\n      swap2\n      swap1\n      tag_69\n      jump\t// in\n    tag_97:\n      mload(0x40)\n      dup1\n      swap2\n      sub\n      swap1\n      return\n        /* \"contracts/BOMB_flattened.sol\":23662:23880  function setBotBlacklist(address _botAddress, bool _flag) external onlyOwner {... */\n    tag_12:\n      callvalue\n      dup1\n      iszero\n      tag_98\n      jumpi\n      0x00\n      dup1\n      revert\n    tag_98:\n      pop\n      tag_99\n      0x04\n      dup1\n      calldatasize\n      sub\n      dup2\n      add\n      swap1\n      tag_100\n      swap2\n      swap1\n      tag_101\n      jump\t// in\n    tag_100:\n      tag_102\n      jump\t// in\n    tag_99:\n      stop\n        /* \"contracts/BOMB_flattened.sol\":26818:27085  function increaseAllowance(address spender, uint256 addedValue) external returns (bool) {... */\n    tag_13:\n      callvalue\n      dup1\n      iszero\n      tag_103\n      jumpi\n      0x00\n      dup1\n      revert\n    tag_103:\n      pop\n      tag_104\n      0x04\n      dup1\n      calldatasize\n      sub\n      dup2\n      add\n      swap1\n      tag_105\n      swap2\n      swap1\n      tag_61\n      jump\t// in\n    tag_105:\n      tag_106\n      jump\t// in\n    tag_104:\n      mload(0x40)\n      tag_107\n      swap2\n      swap1\n      tag_64\n      jump\t// in\n    tag_107:\n      mload(0x40)\n      dup1\n      swap2\n      sub\n      swap1\n      return\n        /* \"contracts/BOMB_flattened.sol\":21433:21460  uint256 public _totalSupply */\n    tag_14:\n      callvalue\n      dup1\n      iszero\n      tag_108\n      jumpi\n      0x00\n      dup1\n      revert\n    tag_108:\n      pop\n      tag_109\n      tag_110\n      jump\t// in\n    tag_109:\n      mload(0x40)\n      tag_111\n      swap2\n      swap1\n      tag_69\n      jump\t// in\n    tag_111:\n      mload(0x40)\n      dup1\n      swap2\n      sub\n      swap1\n      return\n        /* \"contracts/BOMB_flattened.sol\":19440:19483  uint256 public _blastClaimInterval = 1 days */\n    tag_15:\n      callvalue\n      dup1\n      iszero\n      tag_112\n      jumpi\n      0x00\n      dup1\n      revert\n    tag_112:\n      pop\n      tag_113\n      tag_114\n      jump\t// in\n    tag_113:\n      mload(0x40)\n      tag_115\n      swap2\n      swap1\n      tag_69\n      jump\t// in\n    tag_115:\n      mload(0x40)\n      dup1\n      swap2\n      sub\n      swap1\n      return\n        /* \"contracts/BOMB_flattened.sol\":23253:23401  function setAutoSwapBack(bool _flag) external onlyOwner {... */\n    tag_16:\n      callvalue\n      dup1\n      iszero\n      tag_116\n      jumpi\n      0x00\n      dup1\n      revert\n    tag_116:\n      pop\n      tag_117\n      0x04\n      dup1\n      calldatasize\n      sub\n      dup2\n      add\n      swap1\n      tag_118\n      swap2\n      swap1\n      tag_119\n      jump\t// in\n    tag_118:\n      tag_120\n      jump\t// in\n    tag_117:\n      stop\n        /* \"contracts/BOMB_flattened.sol\":23406:23560  function setAutoDistribute(bool _flag) external onlyOwner {... */\n    tag_17:\n      callvalue\n      dup1\n      iszero\n      tag_121\n      jumpi\n      0x00\n      dup1\n      revert\n    tag_121:\n      pop\n      tag_122\n      0x04\n      dup1\n      calldatasize\n      sub\n      dup2\n      add\n      swap1\n      tag_123\n      swap2\n      swap1\n      tag_119\n      jump\t// in\n    tag_123:\n      tag_124\n      jump\t// in\n    tag_122:\n      stop\n        /* \"contracts/BOMB_flattened.sol\":21180:21211  uint256 public _feePercent = 99 */\n    tag_18:\n      callvalue\n      dup1\n      iszero\n      tag_125\n      jumpi\n      0x00\n      dup1\n      revert\n    tag_125:\n      pop\n      tag_126\n      tag_127\n      jump\t// in\n    tag_126:\n      mload(0x40)\n      tag_128\n      swap2\n      swap1\n      tag_69\n      jump\t// in\n    tag_128:\n      mload(0x40)\n      dup1\n      swap2\n      sub\n      swap1\n      return\n        /* \"contracts/BOMB_flattened.sol\":25846:25950  function balanceOf(address who) external view override returns (uint256) {... */\n    tag_19:\n      callvalue\n      dup1\n      iszero\n      tag_129\n      jumpi\n      0x00\n      dup1\n      revert\n    tag_129:\n      pop\n      tag_130\n      0x04\n      dup1\n      calldatasize\n      sub\n      dup2\n      add\n      swap1\n      tag_131\n      swap2\n      swap1\n      tag_87\n      jump\t// in\n    tag_131:\n      tag_132\n      jump\t// in\n    tag_130:\n      mload(0x40)\n      tag_133\n      swap2\n      swap1\n      tag_69\n      jump\t// in\n    tag_133:\n      mload(0x40)\n      dup1\n      swap2\n      sub\n      swap1\n      return\n        /* \"contracts/BOMB_flattened.sol\":21297:21322  bool public _autoSwapBack */\n    tag_20:\n      callvalue\n      dup1\n      iszero\n      tag_134\n      jumpi\n      0x00\n      dup1\n      revert\n    tag_134:\n      pop\n      tag_135\n      tag_136\n      jump\t// in\n    tag_135:\n      mload(0x40)\n      tag_137\n      swap2\n      swap1\n      tag_64\n      jump\t// in\n    tag_137:\n      mload(0x40)\n      dup1\n      swap2\n      sub\n      swap1\n      return\n        /* \"contracts/BOMB_flattened.sol\":18686:18797  function renounceOwnership() public onlyOwner {... */\n    tag_21:\n      callvalue\n      dup1\n      iszero\n      tag_138\n      jumpi\n      0x00\n      dup1\n      revert\n    tag_138:\n      pop\n      tag_139\n      tag_140\n      jump\t// in\n    tag_139:\n      stop\n        /* \"contracts/BOMB_flattened.sol\":25663:25743  function manualSync() external {... */\n    tag_22:\n      callvalue\n      dup1\n      iszero\n      tag_141\n      jumpi\n      0x00\n      dup1\n      revert\n    tag_141:\n      pop\n      tag_142\n      tag_143\n      jump\t// in\n    tag_142:\n      stop\n        /* \"contracts/BOMB_flattened.sol\":25490:25567  function isNotInSwap() external view returns (bool) {... */\n    tag_23:\n      callvalue\n      dup1\n      iszero\n      tag_144\n      jumpi\n      0x00\n      dup1\n      revert\n    tag_144:\n      pop\n      tag_145\n      tag_146\n      jump\t// in\n    tag_145:\n      mload(0x40)\n      tag_147\n      swap2\n      swap1\n      tag_64\n      jump\t// in\n    tag_147:\n      mload(0x40)\n      dup1\n      swap2\n      sub\n      swap1\n      return\n        /* \"contracts/BOMB_flattened.sol\":23565:23657  function setWhitelist(address _addr) external onlyOwner {... */\n    tag_24:\n      callvalue\n      dup1\n      iszero\n      tag_148\n      jumpi\n      0x00\n      dup1\n      revert\n    tag_148:\n      pop\n      tag_149\n      0x04\n      dup1\n      calldatasize\n      sub\n      dup2\n      add\n      swap1\n      tag_150\n      swap2\n      swap1\n      tag_87\n      jump\t// in\n    tag_150:\n      tag_151\n      jump\t// in\n    tag_149:\n      stop\n        /* \"contracts/BOMB_flattened.sol\":18463:18533  function owner() public view returns (address) {... */\n    tag_25:\n      callvalue\n      dup1\n      iszero\n      tag_152\n      jumpi\n      0x00\n      dup1\n      revert\n    tag_152:\n      pop\n      tag_153\n      tag_154\n      jump\t// in\n    tag_153:\n      mload(0x40)\n      tag_155\n      swap2\n      swap1\n      tag_156\n      jump\t// in\n    tag_155:\n      mload(0x40)\n      dup1\n      swap2\n      sub\n      swap1\n      return\n        /* \"contracts/BOMB_flattened.sol\":18598:18681  function isOwner() public view returns (bool) {... */\n    tag_26:\n      callvalue\n      dup1\n      iszero\n      tag_157\n      jumpi\n      0x00\n      dup1\n      revert\n    tag_157:\n      pop\n      tag_158\n      tag_159\n      jump\t// in\n    tag_158:\n      mload(0x40)\n      tag_160\n      swap2\n      swap1\n      tag_64\n      jump\t// in\n    tag_160:\n      mload(0x40)\n      dup1\n      swap2\n      sub\n      swap1\n      return\n        /* \"contracts/BOMB_flattened.sol\":17988:18066  function symbol() public view returns (string memory) {... */\n    tag_27:\n      callvalue\n      dup1\n      iszero\n      tag_161\n      jumpi\n      0x00\n      dup1\n      revert\n    tag_161:\n      pop\n      tag_162\n      tag_163\n      jump\t// in\n    tag_162:\n      mload(0x40)\n      tag_164\n      swap2\n      swap1\n      tag_57\n      jump\t// in\n    tag_164:\n      mload(0x40)\n      dup1\n      swap2\n      sub\n      swap1\n      return\n        /* \"contracts/BOMB_flattened.sol\":21326:21353  bool public _autoDistribute */\n    tag_28:\n      callvalue\n      dup1\n      iszero\n      tag_165\n      jumpi\n      0x00\n      dup1\n      revert\n    tag_165:\n      pop\n      tag_166\n      tag_167\n      jump\t// in\n    tag_166:\n      mload(0x40)\n      tag_168\n      swap2\n      swap1\n      tag_64\n      jump\t// in\n    tag_168:\n      mload(0x40)\n      dup1\n      swap2\n      sub\n      swap1\n      return\n        /* \"contracts/BOMB_flattened.sol\":19368:19387  IBlast public BLAST */\n    tag_29:\n      callvalue\n      dup1\n      iszero\n      tag_169\n      jumpi\n      0x00\n      dup1\n      revert\n    tag_169:\n      pop\n      tag_170\n      tag_171\n      jump\t// in\n    tag_170:\n      mload(0x40)\n      tag_172\n      swap2\n      swap1\n      tag_173\n      jump\t// in\n    tag_172:\n      mload(0x40)\n      dup1\n      swap2\n      sub\n      swap1\n      return\n        /* \"contracts/BOMB_flattened.sol\":21359:21394  uint256 public _initRebaseStartTime */\n    tag_30:\n      callvalue\n      dup1\n      iszero\n      tag_174\n      jumpi\n      0x00\n      dup1\n      revert\n    tag_174:\n      pop\n      tag_175\n      tag_176\n      jump\t// in\n    tag_175:\n      mload(0x40)\n      tag_177\n      swap2\n      swap1\n      tag_69\n      jump\t// in\n    tag_177:\n      mload(0x40)\n      dup1\n      swap2\n      sub\n      swap1\n      return\n        /* \"contracts/BOMB_flattened.sol\":21652:21694  mapping(address => bool) public _blacklist */\n    tag_31:\n      callvalue\n      dup1\n      iszero\n      tag_178\n      jumpi\n      0x00\n      dup1\n      revert\n    tag_178:\n      pop\n      tag_179\n      0x04\n      dup1\n      calldatasize\n      sub\n      dup2\n      add\n      swap1\n      tag_180\n      swap2\n      swap1\n      tag_87\n      jump\t// in\n    tag_180:\n      tag_181\n      jump\t// in\n    tag_179:\n      mload(0x40)\n      tag_182\n      swap2\n      swap1\n      tag_64\n      jump\t// in\n    tag_182:\n      mload(0x40)\n      dup1\n      swap2\n      sub\n      swap1\n      return\n        /* \"contracts/BOMB_flattened.sol\":27090:27496  function decreaseAllowance(address spender, uint256 subtractedValue) external returns (bool) {... */\n    tag_32:\n      callvalue\n      dup1\n      iszero\n      tag_183\n      jumpi\n      0x00\n      dup1\n      revert\n    tag_183:\n      pop\n      tag_184\n      0x04\n      dup1\n      calldatasize\n      sub\n      dup2\n      add\n      swap1\n      tag_185\n      swap2\n      swap1\n      tag_61\n      jump\t// in\n    tag_185:\n      tag_186\n      jump\t// in\n    tag_184:\n      mload(0x40)\n      tag_187\n      swap2\n      swap1\n      tag_64\n      jump\t// in\n    tag_187:\n      mload(0x40)\n      dup1\n      swap2\n      sub\n      swap1\n      return\n        /* \"contracts/BOMB_flattened.sol\":25572:25658  function pairAddress() external view returns (address) {... */\n    tag_33:\n      callvalue\n      dup1\n      iszero\n      tag_188\n      jumpi\n      0x00\n      dup1\n      revert\n    tag_188:\n      pop\n      tag_189\n      tag_190\n      jump\t// in\n    tag_189:\n      mload(0x40)\n      tag_191\n      swap2\n      swap1\n      tag_156\n      jump\t// in\n    tag_191:\n      mload(0x40)\n      dup1\n      swap2\n      sub\n      swap1\n      return\n        /* \"contracts/BOMB_flattened.sol\":26153:26312  function transfer(address to, uint256 value) external override validRecipient(to) returns (bool) {... */\n    tag_34:\n      callvalue\n      dup1\n      iszero\n      tag_192\n      jumpi\n      0x00\n      dup1\n      revert\n    tag_192:\n      pop\n      tag_193\n      0x04\n      dup1\n      calldatasize\n      sub\n      dup2\n      add\n      swap1\n      tag_194\n      swap2\n      swap1\n      tag_61\n      jump\t// in\n    tag_194:\n      tag_195\n      jump\t// in\n    tag_193:\n      mload(0x40)\n      tag_196\n      swap2\n      swap1\n      tag_64\n      jump\t// in\n    tag_196:\n      mload(0x40)\n      dup1\n      swap2\n      sub\n      swap1\n      return\n        /* \"contracts/BOMB_flattened.sol\":23885:23978  function setFeePercentage(uint256 percent) external onlyOwner {... */\n    tag_35:\n      callvalue\n      dup1\n      iszero\n      tag_197\n      jumpi\n      0x00\n      dup1\n      revert\n    tag_197:\n      pop\n      tag_198\n      0x04\n      dup1\n      calldatasize\n      sub\n      dup2\n      add\n      swap1\n      tag_199\n      swap2\n      swap1\n      tag_82\n      jump\t// in\n    tag_199:\n      tag_200\n      jump\t// in\n    tag_198:\n      stop\n        /* \"contracts/BOMB_flattened.sol\":21270:21293  bool public _autoRebase */\n    tag_36:\n      callvalue\n      dup1\n      iszero\n      tag_201\n      jumpi\n      0x00\n      dup1\n      revert\n    tag_201:\n      pop\n      tag_202\n      tag_203\n      jump\t// in\n    tag_202:\n      mload(0x40)\n      tag_204\n      swap2\n      swap1\n      tag_64\n      jump\t// in\n    tag_204:\n      mload(0x40)\n      dup1\n      swap2\n      sub\n      swap1\n      return\n        /* \"contracts/BOMB_flattened.sol\":21215:21264  uint256 public _distributionInterval = 10 minutes */\n    tag_37:\n      callvalue\n      dup1\n      iszero\n      tag_205\n      jumpi\n      0x00\n      dup1\n      revert\n    tag_205:\n      pop\n      tag_206\n      tag_207\n      jump\t// in\n    tag_206:\n      mload(0x40)\n      tag_208\n      swap2\n      swap1\n      tag_69\n      jump\t// in\n    tag_208:\n      mload(0x40)\n      dup1\n      swap2\n      sub\n      swap1\n      return\n        /* \"contracts/BOMB_flattened.sol\":25381:25485  function checkFeeExempt(address _addr) external view returns (bool) {... */\n    tag_38:\n      callvalue\n      dup1\n      iszero\n      tag_209\n      jumpi\n      0x00\n      dup1\n      revert\n    tag_209:\n      pop\n      tag_210\n      0x04\n      dup1\n      calldatasize\n      sub\n      dup2\n      add\n      swap1\n      tag_211\n      swap2\n      swap1\n      tag_87\n      jump\t// in\n    tag_211:\n      tag_212\n      jump\t// in\n    tag_210:\n      mload(0x40)\n      tag_213\n      swap2\n      swap1\n      tag_64\n      jump\t// in\n    tag_213:\n      mload(0x40)\n      dup1\n      swap2\n      sub\n      swap1\n      return\n        /* \"contracts/BOMB_flattened.sol\":26676:26813  function allowance(address owner_, address spender) external view override returns (uint256) {... */\n    tag_39:\n      callvalue\n      dup1\n      iszero\n      tag_214\n      jumpi\n      0x00\n      dup1\n      revert\n    tag_214:\n      pop\n      tag_215\n      0x04\n      dup1\n      calldatasize\n      sub\n      dup2\n      add\n      swap1\n      tag_216\n      swap2\n      swap1\n      tag_217\n      jump\t// in\n    tag_216:\n      tag_218\n      jump\t// in\n    tag_215:\n      mload(0x40)\n      tag_219\n      swap2\n      swap1\n      tag_69\n      jump\t// in\n    tag_219:\n      mload(0x40)\n      dup1\n      swap2\n      sub\n      swap1\n      return\n        /* \"contracts/BOMB_flattened.sol\":23066:23248  function setAutoRebase(bool _flag) external onlyOwner {... */\n    tag_40:\n      callvalue\n      dup1\n      iszero\n      tag_220\n      jumpi\n      0x00\n      dup1\n      revert\n    tag_220:\n      pop\n      tag_221\n      0x04\n      dup1\n      calldatasize\n      sub\n      dup2\n      add\n      swap1\n      tag_222\n      swap2\n      swap1\n      tag_119\n      jump\t// in\n    tag_222:\n      tag_223\n      jump\t// in\n    tag_221:\n      stop\n        /* \"contracts/BOMB_flattened.sol\":20169:20277  function setBlastClaimInterval(uint256 interval) external onlyOwner {... */\n    tag_41:\n      callvalue\n      dup1\n      iszero\n      tag_224\n      jumpi\n      0x00\n      dup1\n      revert\n    tag_224:\n      pop\n      tag_225\n      0x04\n      dup1\n      calldatasize\n      sub\n      dup2\n      add\n      swap1\n      tag_226\n      swap2\n      swap1\n      tag_82\n      jump\t// in\n    tag_226:\n      tag_227\n      jump\t// in\n    tag_225:\n      stop\n        /* \"contracts/BOMB_flattened.sol\":19938:20164  function setupBlast(address blastAddr) external onlyOwner {... */\n    tag_42:\n      callvalue\n      dup1\n      iszero\n      tag_228\n      jumpi\n      0x00\n      dup1\n      revert\n    tag_228:\n      pop\n      tag_229\n      0x04\n      dup1\n      calldatasize\n      sub\n      dup2\n      add\n      swap1\n      tag_230\n      swap2\n      swap1\n      tag_87\n      jump\t// in\n    tag_230:\n      tag_231\n      jump\t// in\n    tag_229:\n      stop\n        /* \"contracts/BOMB_flattened.sol\":18802:18902  function transferOwnership(address newOwner) public onlyOwner {... */\n    tag_43:\n      callvalue\n      dup1\n      iszero\n      tag_232\n      jumpi\n      0x00\n      dup1\n      revert\n    tag_232:\n      pop\n      tag_233\n      0x04\n      dup1\n      calldatasize\n      sub\n      dup2\n      add\n      swap1\n      tag_234\n      swap2\n      swap1\n      tag_87\n      jump\t// in\n    tag_234:\n      tag_235\n      jump\t// in\n    tag_233:\n      stop\n        /* \"contracts/BOMB_flattened.sol\":17909:17983  function name() public view returns (string memory) {... */\n    tag_55:\n        /* \"contracts/BOMB_flattened.sol\":17946:17959  string memory */\n      0x60\n        /* \"contracts/BOMB_flattened.sol\":17973:17978  _name */\n      0x00\n        /* \"contracts/BOMB_flattened.sol\":17966:17978  return _name */\n      dup1\n      sload\n      tag_237\n      swap1\n      tag_238\n      jump\t// in\n    tag_237:\n      dup1\n      0x1f\n      add\n      0x20\n      dup1\n      swap2\n      div\n      mul\n      0x20\n      add\n      mload(0x40)\n      swap1\n      dup2\n      add\n      0x40\n      mstore\n      dup1\n      swap3\n      swap2\n      swap1\n      dup2\n      dup2\n      mstore\n      0x20\n      add\n      dup3\n      dup1\n      sload\n      tag_239\n      swap1\n      tag_238\n      jump\t// in\n    tag_239:\n      dup1\n      iszero\n      tag_240\n      jumpi\n      dup1\n      0x1f\n      lt\n      tag_241\n      jumpi\n      0x0100\n      dup1\n      dup4\n      sload\n      div\n      mul\n      dup4\n      mstore\n      swap2\n      0x20\n      add\n      swap2\n      jump(tag_240)\n    tag_241:\n      dup3\n      add\n      swap2\n      swap1\n      0x00\n      mstore\n      keccak256(0x00, 0x20)\n      swap1\n    tag_242:\n      dup2\n      sload\n      dup2\n      mstore\n      swap1\n      0x01\n      add\n      swap1\n      0x20\n      add\n      dup1\n      dup4\n      gt\n      tag_242\n      jumpi\n      dup3\n      swap1\n      sub\n      0x1f\n      and\n      dup3\n      add\n      swap2\n    tag_240:\n      pop\n      pop\n      pop\n      pop\n      pop\n      swap1\n      pop\n        /* \"contracts/BOMB_flattened.sol\":17909:17983  function name() public view returns (string memory) {... */\n      swap1\n      jump\t// out\n        /* \"contracts/BOMB_flattened.sol\":25955:26148  function approve(address spender, uint256 value) external override returns (bool) {... */\n    tag_62:\n        /* \"contracts/BOMB_flattened.sol\":26031:26035  bool */\n      0x00\n        /* \"contracts/BOMB_flattened.sol\":26076:26081  value */\n      dup2\n        /* \"contracts/BOMB_flattened.sol\":26042:26052  _allowance */\n      0x15\n        /* \"contracts/BOMB_flattened.sol\":26042:26064  _allowance[msg.sender] */\n      0x00\n        /* \"contracts/BOMB_flattened.sol\":26053:26063  msg.sender */\n      caller\n        /* \"contracts/BOMB_flattened.sol\":26042:26064  _allowance[msg.sender] */\n      0xffffffffffffffffffffffffffffffffffffffff\n      and\n      0xffffffffffffffffffffffffffffffffffffffff\n      and\n      dup2\n      mstore\n      0x20\n      add\n      swap1\n      dup2\n      mstore\n      0x20\n      add\n      0x00\n      keccak256\n        /* \"contracts/BOMB_flattened.sol\":26042:26073  _allowance[msg.sender][spender] */\n      0x00\n        /* \"contracts/BOMB_flattened.sol\":26065:26072  spender */\n      dup6\n        /* \"contracts/BOMB_flattened.sol\":26042:26073  _allowance[msg.sender][spender] */\n      0xffffffffffffffffffffffffffffffffffffffff\n      and\n      0xffffffffffffffffffffffffffffffffffffffff\n      and\n      dup2\n      mstore\n      0x20\n      add\n      swap1\n      dup2\n      mstore\n      0x20\n      add\n      0x00\n      keccak256\n        /* \"contracts/BOMB_flattened.sol\":26042:26081  _allowance[msg.sender][spender] = value */\n      dup2\n      swap1\n      sstore\n      pop\n        /* \"contracts/BOMB_flattened.sol\":26112:26119  spender */\n      dup3\n        /* \"contracts/BOMB_flattened.sol\":26091:26127  Approval(msg.sender, spender, value) */\n      0xffffffffffffffffffffffffffffffffffffffff\n      and\n        /* \"contracts/BOMB_flattened.sol\":26100:26110  msg.sender */\n      caller\n        /* \"contracts/BOMB_flattened.sol\":26091:26127  Approval(msg.sender, spender, value) */\n      0xffffffffffffffffffffffffffffffffffffffff\n      and\n      0x8c5be1e5ebec7d5bd14f71427d1e84f3dd0314c0f7b2291e5b200ac8c7c3b925\n        /* \"contracts/BOMB_flattened.sol\":26121:26126  value */\n      dup5\n        /* \"contracts/BOMB_flattened.sol\":26091:26127  Approval(msg.sender, spender, value) */\n      mload(0x40)\n      tag_244\n      swap2\n      swap1\n      tag_69\n      jump\t// in\n    tag_244:\n      mload(0x40)\n      dup1\n      swap2\n      sub\n      swap1\n      log3\n        /* \"contracts/BOMB_flattened.sol\":26139:26143  true */\n      0x01\n        /* \"contracts/BOMB_flattened.sol\":26132:26143  return true */\n      swap1\n      pop\n        /* \"contracts/BOMB_flattened.sol\":25955:26148  function approve(address spender, uint256 value) external override returns (bool) {... */\n      swap3\n      swap2\n      pop\n      pop\n      jump\t// out\n        /* \"contracts/BOMB_flattened.sol\":25748:25841  function totalSupply() external view override returns (uint256) {... */\n    tag_67:\n        /* \"contracts/BOMB_flattened.sol\":25803:25810  uint256 */\n      0x00\n        /* \"contracts/BOMB_flattened.sol\":25824:25836  _totalSupply */\n      sload(0x0c)\n        /* \"contracts/BOMB_flattened.sol\":25817:25836  return _totalSupply */\n      swap1\n      pop\n        /* \"contracts/BOMB_flattened.sol\":25748:25841  function totalSupply() external view override returns (uint256) {... */\n      swap1\n      jump\t// out\n        /* \"contracts/BOMB_flattened.sol\":19522:19933  function claimMyGasFees() external {... */\n    tag_72:\n        /* \"contracts/BOMB_flattened.sol\":19562:19579  address recipient */\n      0x00\n        /* \"contracts/BOMB_flattened.sol\":19582:19592  msg.sender */\n      caller\n        /* \"contracts/BOMB_flattened.sol\":19562:19592  address recipient = msg.sender */\n      swap1\n      pop\n        /* \"contracts/BOMB_flattened.sol\":19597:19614  uint256 lastClaim */\n      0x00\n        /* \"contracts/BOMB_flattened.sol\":19617:19632  _lastBlastClaim */\n      0x04\n        /* \"contracts/BOMB_flattened.sol\":19617:19643  _lastBlastClaim[recipient] */\n      0x00\n        /* \"contracts/BOMB_flattened.sol\":19633:19642  recipient */\n      dup4\n        /* \"contracts/BOMB_flattened.sol\":19617:19643  _lastBlastClaim[recipient] */\n      0xffffffffffffffffffffffffffffffffffffffff\n      and\n      0xffffffffffffffffffffffffffffffffffffffff\n      and\n      dup2\n      mstore\n      0x20\n      add\n      swap1\n      dup2\n      mstore\n      0x20\n      add\n      0x00\n      keccak256\n      sload\n        /* \"contracts/BOMB_flattened.sol\":19597:19643  uint256 lastClaim = _lastBlastClaim[recipient] */\n      swap1\n      pop\n        /* \"contracts/BOMB_flattened.sol\":19688:19703  block.timestamp */\n      timestamp\n        /* \"contracts/BOMB_flattened.sol\":19666:19685  _blastClaimInterval */\n      sload(0x05)\n        /* \"contracts/BOMB_flattened.sol\":19654:19663  lastClaim */\n      dup3\n        /* \"contracts/BOMB_flattened.sol\":19654:19685  lastClaim + _blastClaimInterval */\n      tag_247\n      swap2\n      swap1\n      tag_248\n      jump\t// in\n    tag_247:\n        /* \"contracts/BOMB_flattened.sol\":19654:19703  lastClaim + _blastClaimInterval < block.timestamp */\n      lt\n        /* \"contracts/BOMB_flattened.sol\":19650:19723  if (lastClaim + _blastClaimInterval < block.timestamp) {... */\n      iszero\n      tag_249\n      jumpi\n        /* \"contracts/BOMB_flattened.sol\":19711:19718  return; */\n      pop\n      pop\n      jump(tag_246)\n        /* \"contracts/BOMB_flattened.sol\":19650:19723  if (lastClaim + _blastClaimInterval < block.timestamp) {... */\n    tag_249:\n        /* \"contracts/BOMB_flattened.sol\":19758:19773  block.timestamp */\n      timestamp\n        /* \"contracts/BOMB_flattened.sol\":19729:19744  _lastBlastClaim */\n      0x04\n        /* \"contracts/BOMB_flattened.sol\":19729:19755  _lastBlastClaim[recipient] */\n      0x00\n        /* \"contracts/BOMB_flattened.sol\":19745:19754  recipient */\n      dup5\n        /* \"contracts/BOMB_flattened.sol\":19729:19755  _lastBlastClaim[recipient] */\n      0xffffffffffffffffffffffffffffffffffffffff\n      and\n      0xffffffffffffffffffffffffffffffffffffffff\n      and\n      dup2\n      mstore\n      0x20\n      add\n      swap1\n      dup2\n      mstore\n      0x20\n      add\n      0x00\n      keccak256\n        /* \"contracts/BOMB_flattened.sol\":19729:19773  _lastBlastClaim[recipient] = block.timestamp */\n      dup2\n      swap1\n      sstore\n      pop\n        /* \"contracts/BOMB_flattened.sol\":19778:19793  uint256 claimed */\n      0x00\n        /* \"contracts/BOMB_flattened.sol\":19796:19801  BLAST */\n      0x03\n      0x00\n      swap1\n      sload\n      swap1\n      0x0100\n      exp\n      swap1\n      div\n      0xffffffffffffffffffffffffffffffffffffffff\n      and\n        /* \"contracts/BOMB_flattened.sol\":19796:19813  BLAST.claimAllGas */\n      0xffffffffffffffffffffffffffffffffffffffff\n      and\n      0x954fa5ee\n        /* \"contracts/BOMB_flattened.sol\":19822:19826  this */\n      address\n        /* \"contracts/BOMB_flattened.sol\":19829:19838  recipient */\n      dup6\n        /* \"contracts/BOMB_flattened.sol\":19796:19839  BLAST.claimAllGas(address(this), recipient) */\n      mload(0x40)\n      dup4\n      0xffffffff\n      and\n      0xe0\n      shl\n      dup2\n      mstore\n      0x04\n      add\n      tag_250\n      swap3\n      swap2\n      swap1\n      tag_251\n      jump\t// in\n    tag_250:\n      0x20\n      mload(0x40)\n      dup1\n      dup4\n      sub\n      dup2\n      0x00\n      dup8\n      gas\n      call\n      iszero\n      dup1\n      iszero\n      tag_253\n      jumpi\n      returndatasize\n      0x00\n      dup1\n      returndatacopy\n      revert(0x00, returndatasize)\n    tag_253:\n      pop\n      pop\n      pop\n      pop\n      mload(0x40)\n      returndatasize\n      not(0x1f)\n      0x1f\n      dup3\n      add\n      and\n      dup3\n      add\n      dup1\n      0x40\n      mstore\n      pop\n      dup2\n      add\n      swap1\n      tag_254\n      swap2\n      swap1\n      tag_255\n      jump\t// in\n    tag_254:\n        /* \"contracts/BOMB_flattened.sol\":19778:19839  uint256 claimed = BLAST.claimAllGas(address(this), recipient) */\n      swap1\n      pop\n        /* \"contracts/BOMB_flattened.sol\":19860:19861  0 */\n      0x00\n        /* \"contracts/BOMB_flattened.sol\":19850:19857  claimed */\n      dup2\n        /* \"contracts/BOMB_flattened.sol\":19850:19861  claimed > 0 */\n      gt\n        /* \"contracts/BOMB_flattened.sol\":19846:19929  if (claimed > 0) {... */\n      iszero\n      tag_256\n      jumpi\n        /* \"contracts/BOMB_flattened.sol\":19885:19892  claimed */\n      dup1\n        /* \"contracts/BOMB_flattened.sol\":19869:19881  _feesClaimed */\n      0x06\n      0x00\n        /* \"contracts/BOMB_flattened.sol\":19869:19892  _feesClaimed += claimed */\n      dup3\n      dup3\n      sload\n      tag_257\n      swap2\n      swap1\n      tag_248\n      jump\t// in\n    tag_257:\n      swap3\n      pop\n      pop\n      dup2\n      swap1\n      sstore\n      pop\n        /* \"contracts/BOMB_flattened.sol\":19898:19923  blastFeesClaimed(claimed) */\n      tag_258\n        /* \"contracts/BOMB_flattened.sol\":19915:19922  claimed */\n      dup2\n        /* \"contracts/BOMB_flattened.sol\":19898:19914  blastFeesClaimed */\n      tag_259\n        /* \"contracts/BOMB_flattened.sol\":19898:19923  blastFeesClaimed(claimed) */\n      jump\t// in\n    tag_258:\n        /* \"contracts/BOMB_flattened.sol\":19846:19929  if (claimed > 0) {... */\n    tag_256:\n        /* \"contracts/BOMB_flattened.sol\":19557:19933  {... */\n      pop\n      pop\n      pop\n        /* \"contracts/BOMB_flattened.sol\":19522:19933  function claimMyGasFees() external {... */\n    tag_246:\n      jump\t// out\n        /* \"contracts/BOMB_flattened.sol\":26317:26671  function transferFrom(address from, address to, uint256 value) external override validRecipient(to) returns (bool) {... */\n    tag_77:\n        /* \"contracts/BOMB_flattened.sol\":26426:26430  bool */\n      0x00\n        /* \"contracts/BOMB_flattened.sol\":26413:26415  to */\n      dup3\n        /* \"contracts/BOMB_flattened.sol\":21978:21981  0x0 */\n      0x00\n        /* \"contracts/BOMB_flattened.sol\":21964:21982  to != address(0x0) */\n      0xffffffffffffffffffffffffffffffffffffffff\n      and\n        /* \"contracts/BOMB_flattened.sol\":21964:21966  to */\n      dup2\n        /* \"contracts/BOMB_flattened.sol\":21964:21982  to != address(0x0) */\n      0xffffffffffffffffffffffffffffffffffffffff\n      and\n      sub\n        /* \"contracts/BOMB_flattened.sol\":21956:21983  require(to != address(0x0)) */\n      tag_261\n      jumpi\n      0x00\n      dup1\n      revert\n    tag_261:\n        /* \"contracts/BOMB_flattened.sol\":26457:26461  this */\n      address\n        /* \"contracts/BOMB_flattened.sol\":26441:26462  from == address(this) */\n      0xffffffffffffffffffffffffffffffffffffffff\n      and\n        /* \"contracts/BOMB_flattened.sol\":26441:26445  from */\n      dup6\n        /* \"contracts/BOMB_flattened.sol\":26441:26462  from == address(this) */\n      0xffffffffffffffffffffffffffffffffffffffff\n      and\n      eq\n        /* \"contracts/BOMB_flattened.sol\":26441:26488  from == address(this) && to == address(_router) */\n      dup1\n      iszero\n      tag_263\n      jumpi\n      pop\n        /* \"contracts/BOMB_flattened.sol\":26480:26487  _router */\n      0x13\n      0x00\n      swap1\n      sload\n      swap1\n      0x0100\n      exp\n      swap1\n      div\n      0xffffffffffffffffffffffffffffffffffffffff\n      and\n        /* \"contracts/BOMB_flattened.sol\":26466:26488  to == address(_router) */\n      0xffffffffffffffffffffffffffffffffffffffff\n      and\n        /* \"contracts/BOMB_flattened.sol\":26466:26468  to */\n      dup5\n        /* \"contracts/BOMB_flattened.sol\":26466:26488  to == address(_router) */\n      0xffffffffffffffffffffffffffffffffffffffff\n      and\n      eq\n        /* \"contracts/BOMB_flattened.sol\":26441:26488  from == address(this) && to == address(_router) */\n    tag_263:\n        /* \"contracts/BOMB_flattened.sol\":26437:26513  if (from == address(this) && to == address(_router)) {... */\n      iszero\n      tag_264\n      jumpi\n        /* \"contracts/BOMB_flattened.sol\":26503:26507  true */\n      0x01\n        /* \"contracts/BOMB_flattened.sol\":26496:26507  return true */\n      swap2\n      pop\n      jump(tag_262)\n        /* \"contracts/BOMB_flattened.sol\":26437:26513  if (from == address(this) && to == address(_router)) {... */\n    tag_264:\n        /* \"contracts/BOMB_flattened.sol\":26550:26615  _allowance[from][msg.sender].sub(value, \"Insufficient Allowance\") */\n      tag_265\n        /* \"contracts/BOMB_flattened.sol\":26583:26588  value */\n      dup4\n        /* \"contracts/BOMB_flattened.sol\":26550:26615  _allowance[from][msg.sender].sub(value, \"Insufficient Allowance\") */\n      mload(0x40)\n      dup1\n      0x40\n      add\n      0x40\n      mstore\n      dup1\n      0x16\n      dup2\n      mstore\n      0x20\n      add\n      0x496e73756666696369656e7420416c6c6f77616e636500000000000000000000\n      dup2\n      mstore\n      pop\n        /* \"contracts/BOMB_flattened.sol\":26550:26560  _allowance */\n      0x15\n        /* \"contracts/BOMB_flattened.sol\":26550:26566  _allowance[from] */\n      0x00\n        /* \"contracts/BOMB_flattened.sol\":26561:26565  from */\n      dup10\n        /* \"contracts/BOMB_flattened.sol\":26550:26566  _allowance[from] */\n      0xffffffffffffffffffffffffffffffffffffffff\n      and\n      0xffffffffffffffffffffffffffffffffffffffff\n      and\n      dup2\n      mstore\n      0x20\n      add\n      swap1\n      dup2\n      mstore\n      0x20\n      add\n      0x00\n      keccak256\n        /* \"contracts/BOMB_flattened.sol\":26550:26578  _allowance[from][msg.sender] */\n      0x00\n        /* \"contracts/BOMB_flattened.sol\":26567:26577  msg.sender */\n      caller\n        /* \"contracts/BOMB_flattened.sol\":26550:26578  _allowance[from][msg.sender] */\n      0xffffffffffffffffffffffffffffffffffffffff\n      and\n      0xffffffffffffffffffffffffffffffffffffffff\n      and\n      dup2\n      mstore\n      0x20\n      add\n      swap1\n      dup2\n      mstore\n      0x20\n      add\n      0x00\n      keccak256\n      sload\n        /* \"contracts/BOMB_flattened.sol\":26550:26582  _allowance[from][msg.sender].sub */\n      tag_266\n      swap1\n        /* \"contracts/BOMB_flattened.sol\":26550:26615  _allowance[from][msg.sender].sub(value, \"Insufficient Allowance\") */\n      swap3\n      swap2\n      swap1\n      0xffffffff\n      and\n      jump\t// in\n    tag_265:\n        /* \"contracts/BOMB_flattened.sol\":26519:26529  _allowance */\n      0x15\n        /* \"contracts/BOMB_flattened.sol\":26519:26535  _allowance[from] */\n      0x00\n        /* \"contracts/BOMB_flattened.sol\":26530:26534  from */\n      dup8\n        /* \"contracts/BOMB_flattened.sol\":26519:26535  _allowance[from] */\n      0xffffffffffffffffffffffffffffffffffffffff\n      and\n      0xffffffffffffffffffffffffffffffffffffffff\n      and\n      dup2\n      mstore\n      0x20\n      add\n      swap1\n      dup2\n      mstore\n      0x20\n      add\n      0x00\n      keccak256\n        /* \"contracts/BOMB_flattened.sol\":26519:26547  _allowance[from][msg.sender] */\n      0x00\n        /* \"contracts/BOMB_flattened.sol\":26536:26546  msg.sender */\n      caller\n        /* \"contracts/BOMB_flattened.sol\":26519:26547  _allowance[from][msg.sender] */\n      0xffffffffffffffffffffffffffffffffffffffff\n      and\n      0xffffffffffffffffffffffffffffffffffffffff\n      and\n      dup2\n      mstore\n      0x20\n      add\n      swap1\n      dup2\n      mstore\n      0x20\n      add\n      0x00\n      keccak256\n        /* \"contracts/BOMB_flattened.sol\":26519:26615  _allowance[from][msg.sender] = _allowance[from][msg.sender].sub(value, \"Insufficient Allowance\") */\n      dup2\n      swap1\n      sstore\n      pop\n        /* \"contracts/BOMB_flattened.sol\":26620:26650  _transferFrom(from, to, value) */\n      tag_267\n        /* \"contracts/BOMB_flattened.sol\":26634:26638  from */\n      dup6\n        /* \"contracts/BOMB_flattened.sol\":26640:26642  to */\n      dup6\n        /* \"contracts/BOMB_flattened.sol\":26644:26649  value */\n      dup6\n        /* \"contracts/BOMB_flattened.sol\":26620:26633  _transferFrom */\n      tag_268\n        /* \"contracts/BOMB_flattened.sol\":26620:26650  _transferFrom(from, to, value) */\n      jump\t// in\n    tag_267:\n      pop\n        /* \"contracts/BOMB_flattened.sol\":26662:26666  true */\n      0x01\n        /* \"contracts/BOMB_flattened.sol\":26655:26666  return true */\n      swap2\n      pop\n        /* \"contracts/BOMB_flattened.sol\":21988:21989  _ */\n    tag_262:\n        /* \"contracts/BOMB_flattened.sol\":26317:26671  function transferFrom(address from, address to, uint256 value) external override validRecipient(to) returns (bool) {... */\n      pop\n      swap4\n      swap3\n      pop\n      pop\n      pop\n      jump\t// out\n        /* \"contracts/BOMB_flattened.sol\":24910:25020  function setDistributeInterval(uint256 interval) external onlyOwner {... */\n    tag_83:\n        /* \"contracts/BOMB_flattened.sol\":18572:18581  isOwner() */\n      tag_270\n        /* \"contracts/BOMB_flattened.sol\":18572:18579  isOwner */\n      tag_159\n        /* \"contracts/BOMB_flattened.sol\":18572:18581  isOwner() */\n      jump\t// in\n    tag_270:\n        /* \"contracts/BOMB_flattened.sol\":18564:18582  require(isOwner()) */\n      tag_271\n      jumpi\n      0x00\n      dup1\n      revert\n    tag_271:\n        /* \"contracts/BOMB_flattened.sol\":25007:25015  interval */\n      dup1\n        /* \"contracts/BOMB_flattened.sol\":24983:25004  _distributionInterval */\n      0x08\n        /* \"contracts/BOMB_flattened.sol\":24983:25015  _distributionInterval = interval */\n      dup2\n      swap1\n      sstore\n      pop\n        /* \"contracts/BOMB_flattened.sol\":24910:25020  function setDistributeInterval(uint256 interval) external onlyOwner {... */\n      pop\n      jump\t// out\n        /* \"contracts/BOMB_flattened.sol\":24817:24905  function setLP(address addr) external onlyOwner {... */\n    tag_88:\n        /* \"contracts/BOMB_flattened.sol\":18572:18581  isOwner() */\n      tag_274\n        /* \"contracts/BOMB_flattened.sol\":18572:18579  isOwner */\n      tag_159\n        /* \"contracts/BOMB_flattened.sol\":18572:18581  isOwner() */\n      jump\t// in\n    tag_274:\n        /* \"contracts/BOMB_flattened.sol\":18564:18582  require(isOwner()) */\n      tag_275\n      jumpi\n      0x00\n      dup1\n      revert\n    tag_275:\n        /* \"contracts/BOMB_flattened.sol\":24895:24899  addr */\n      dup1\n        /* \"contracts/BOMB_flattened.sol\":24870:24875  _pair */\n      0x14\n      0x00\n        /* \"contracts/BOMB_flattened.sol\":24870:24900  _pair = IPancakeSwapPair(addr) */\n      0x0100\n      exp\n      dup2\n      sload\n      dup2\n      0xffffffffffffffffffffffffffffffffffffffff\n      mul\n      not\n      and\n      swap1\n      dup4\n      0xffffffffffffffffffffffffffffffffffffffff\n      and\n      mul\n      or\n      swap1\n      sstore\n      pop\n        /* \"contracts/BOMB_flattened.sol\":24817:24905  function setLP(address addr) external onlyOwner {... */\n      pop\n      jump\t// out\n        /* \"contracts/BOMB_flattened.sol\":18071:18145  function decimals() public view returns (uint8) {... */\n    tag_91:\n        /* \"contracts/BOMB_flattened.sol\":18112:18117  uint8 */\n      0x00\n        /* \"contracts/BOMB_flattened.sol\":18131:18140  _decimals */\n      0x02\n      0x00\n      swap1\n      sload\n      swap1\n      0x0100\n      exp\n      swap1\n      div\n      0xff\n      and\n        /* \"contracts/BOMB_flattened.sol\":18124:18140  return _decimals */\n      swap1\n      pop\n        /* \"contracts/BOMB_flattened.sol\":18071:18145  function decimals() public view returns (uint8) {... */\n      swap1\n      jump\t// out\n        /* \"contracts/BOMB_flattened.sol\":21398:21429  uint256 public _lastRebasedTime */\n    tag_96:\n      sload(0x0b)\n      dup2\n      jump\t// out\n        /* \"contracts/BOMB_flattened.sol\":23662:23880  function setBotBlacklist(address _botAddress, bool _flag) external onlyOwner {... */\n    tag_102:\n        /* \"contracts/BOMB_flattened.sol\":18572:18581  isOwner() */\n      tag_279\n        /* \"contracts/BOMB_flattened.sol\":18572:18579  isOwner */\n      tag_159\n        /* \"contracts/BOMB_flattened.sol\":18572:18581  isOwner() */\n      jump\t// in\n    tag_279:\n        /* \"contracts/BOMB_flattened.sol\":18564:18582  require(isOwner()) */\n      tag_280\n      jumpi\n      0x00\n      dup1\n      revert\n    tag_280:\n        /* \"contracts/BOMB_flattened.sol\":23752:23775  isContract(_botAddress) */\n      tag_282\n        /* \"contracts/BOMB_flattened.sol\":23763:23774  _botAddress */\n      dup3\n        /* \"contracts/BOMB_flattened.sol\":23752:23762  isContract */\n      tag_283\n        /* \"contracts/BOMB_flattened.sol\":23752:23775  isContract(_botAddress) */\n      jump\t// in\n    tag_282:\n        /* \"contracts/BOMB_flattened.sol\":23744:23839  require(isContract(_botAddress), \"only contract address, not allowed exteranlly owned account\") */\n      tag_284\n      jumpi\n      mload(0x40)\n      0x08c379a000000000000000000000000000000000000000000000000000000000\n      dup2\n      mstore\n      0x04\n      add\n      tag_285\n      swap1\n      tag_286\n      jump\t// in\n    tag_285:\n      mload(0x40)\n      dup1\n      swap2\n      sub\n      swap1\n      revert\n    tag_284:\n        /* \"contracts/BOMB_flattened.sol\":23870:23875  _flag */\n      dup1\n        /* \"contracts/BOMB_flattened.sol\":23844:23854  _blacklist */\n      0x11\n        /* \"contracts/BOMB_flattened.sol\":23844:23867  _blacklist[_botAddress] */\n      0x00\n        /* \"contracts/BOMB_flattened.sol\":23855:23866  _botAddress */\n      dup5\n        /* \"contracts/BOMB_flattened.sol\":23844:23867  _blacklist[_botAddress] */\n      0xffffffffffffffffffffffffffffffffffffffff\n      and\n      0xffffffffffffffffffffffffffffffffffffffff\n      and\n      dup2\n      mstore\n      0x20\n      add\n      swap1\n      dup2\n      mstore\n      0x20\n      add\n      0x00\n      keccak256\n      0x00\n        /* \"contracts/BOMB_flattened.sol\":23844:23875  _blacklist[_botAddress] = _flag */\n      0x0100\n      exp\n      dup2\n      sload\n      dup2\n      0xff\n      mul\n      not\n      and\n      swap1\n      dup4\n      iszero\n      iszero\n      mul\n      or\n      swap1\n      sstore\n      pop\n        /* \"contracts/BOMB_flattened.sol\":23662:23880  function setBotBlacklist(address _botAddress, bool _flag) external onlyOwner {... */\n      pop\n      pop\n      jump\t// out\n        /* \"contracts/BOMB_flattened.sol\":26818:27085  function increaseAllowance(address spender, uint256 addedValue) external returns (bool) {... */\n    tag_106:\n        /* \"contracts/BOMB_flattened.sol\":26900:26904  bool */\n      0x00\n        /* \"contracts/BOMB_flattened.sol\":26945:26992  _allowance[msg.sender][spender].add(addedValue) */\n      tag_288\n        /* \"contracts/BOMB_flattened.sol\":26981:26991  addedValue */\n      dup3\n        /* \"contracts/BOMB_flattened.sol\":26945:26955  _allowance */\n      0x15\n        /* \"contracts/BOMB_flattened.sol\":26945:26967  _allowance[msg.sender] */\n      0x00\n        /* \"contracts/BOMB_flattened.sol\":26956:26966  msg.sender */\n      caller\n        /* \"contracts/BOMB_flattened.sol\":26945:26967  _allowance[msg.sender] */\n      0xffffffffffffffffffffffffffffffffffffffff\n      and\n      0xffffffffffffffffffffffffffffffffffffffff\n      and\n      dup2\n      mstore\n      0x20\n      add\n      swap1\n      dup2\n      mstore\n      0x20\n      add\n      0x00\n      keccak256\n        /* \"contracts/BOMB_flattened.sol\":26945:26976  _allowance[msg.sender][spender] */\n      0x00\n        /* \"contracts/BOMB_flattened.sol\":26968:26975  spender */\n      dup7\n        /* \"contracts/BOMB_flattened.sol\":26945:26976  _allowance[msg.sender][spender] */\n      0xffffffffffffffffffffffffffffffffffffffff\n      and\n      0xffffffffffffffffffffffffffffffffffffffff\n      and\n      dup2\n      mstore\n      0x20\n      add\n      swap1\n      dup2\n      mstore\n      0x20\n      add\n      0x00\n      keccak256\n      sload\n        /* \"contracts/BOMB_flattened.sol\":26945:26980  _allowance[msg.sender][spender].add */\n      tag_289\n      swap1\n        /* \"contracts/BOMB_flattened.sol\":26945:26992  _allowance[msg.sender][spender].add(addedValue) */\n      swap2\n      swap1\n      0xffffffff\n      and\n      jump\t// in\n    tag_288:\n        /* \"contracts/BOMB_flattened.sol\":26911:26921  _allowance */\n      0x15\n        /* \"contracts/BOMB_flattened.sol\":26911:26933  _allowance[msg.sender] */\n      0x00\n        /* \"contracts/BOMB_flattened.sol\":26922:26932  msg.sender */\n      caller\n        /* \"contracts/BOMB_flattened.sol\":26911:26933  _allowance[msg.sender] */\n      0xffffffffffffffffffffffffffffffffffffffff\n      and\n      0xffffffffffffffffffffffffffffffffffffffff\n      and\n      dup2\n      mstore\n      0x20\n      add\n      swap1\n      dup2\n      mstore\n      0x20\n      add\n      0x00\n      keccak256\n        /* \"contracts/BOMB_flattened.sol\":26911:26942  _allowance[msg.sender][spender] */\n      0x00\n        /* \"contracts/BOMB_flattened.sol\":26934:26941  spender */\n      dup6\n        /* \"contracts/BOMB_flattened.sol\":26911:26942  _allowance[msg.sender][spender] */\n      0xffffffffffffffffffffffffffffffffffffffff\n      and\n      0xffffffffffffffffffffffffffffffffffffffff\n      and\n      dup2\n      mstore\n      0x20\n      add\n      swap1\n      dup2\n      mstore\n      0x20\n      add\n      0x00\n      keccak256\n        /* \"contracts/BOMB_flattened.sol\":26911:26992  _allowance[msg.sender][spender] = _allowance[msg.sender][spender].add(addedValue) */\n      dup2\n      swap1\n      sstore\n      pop\n        /* \"contracts/BOMB_flattened.sol\":27023:27030  spender */\n      dup3\n        /* \"contracts/BOMB_flattened.sol\":27002:27064  Approval(msg.sender, spender, _allowance[msg.sender][spender]) */\n      0xffffffffffffffffffffffffffffffffffffffff\n      and\n        /* \"contracts/BOMB_flattened.sol\":27011:27021  msg.sender */\n      caller\n        /* \"contracts/BOMB_flattened.sol\":27002:27064  Approval(msg.sender, spender, _allowance[msg.sender][spender]) */\n      0xffffffffffffffffffffffffffffffffffffffff\n      and\n      0x8c5be1e5ebec7d5bd14f71427d1e84f3dd0314c0f7b2291e5b200ac8c7c3b925\n        /* \"contracts/BOMB_flattened.sol\":27032:27042  _allowance */\n      0x15\n        /* \"contracts/BOMB_flattened.sol\":27032:27054  _allowance[msg.sender] */\n      0x00\n        /* \"contracts/BOMB_flattened.sol\":27043:27053  msg.sender */\n      caller\n        /* \"contracts/BOMB_flattened.sol\":27032:27054  _allowance[msg.sender] */\n      0xffffffffffffffffffffffffffffffffffffffff\n      and\n      0xffffffffffffffffffffffffffffffffffffffff\n      and\n      dup2\n      mstore\n      0x20\n      add\n      swap1\n      dup2\n      mstore\n      0x20\n      add\n      0x00\n      keccak256\n        /* \"contracts/BOMB_flattened.sol\":27032:27063  _allowance[msg.sender][spender] */\n      0x00\n        /* \"contracts/BOMB_flattened.sol\":27055:27062  spender */\n      dup8\n        /* \"contracts/BOMB_flattened.sol\":27032:27063  _allowance[msg.sender][spender] */\n      0xffffffffffffffffffffffffffffffffffffffff\n      and\n      0xffffffffffffffffffffffffffffffffffffffff\n      and\n      dup2\n      mstore\n      0x20\n      add\n      swap1\n      dup2\n      mstore\n      0x20\n      add\n      0x00\n      keccak256\n      sload\n        /* \"contracts/BOMB_flattened.sol\":27002:27064  Approval(msg.sender, spender, _allowance[msg.sender][spender]) */\n      mload(0x40)\n      tag_290\n      swap2\n      swap1\n      tag_69\n      jump\t// in\n    tag_290:\n      mload(0x40)\n      dup1\n      swap2\n      sub\n      swap1\n      log3\n        /* \"contracts/BOMB_flattened.sol\":27076:27080  true */\n      0x01\n        /* \"contracts/BOMB_flattened.sol\":27069:27080  return true */\n      swap1\n      pop\n        /* \"contracts/BOMB_flattened.sol\":26818:27085  function increaseAllowance(address spender, uint256 addedValue) external returns (bool) {... */\n      swap3\n      swap2\n      pop\n      pop\n      jump\t// out\n        /* \"contracts/BOMB_flattened.sol\":21433:21460  uint256 public _totalSupply */\n    tag_110:\n      sload(0x0c)\n      dup2\n      jump\t// out\n        /* \"contracts/BOMB_flattened.sol\":19440:19483  uint256 public _blastClaimInterval = 1 days */\n    tag_114:\n      sload(0x05)\n      dup2\n      jump\t// out\n        /* \"contracts/BOMB_flattened.sol\":23253:23401  function setAutoSwapBack(bool _flag) external onlyOwner {... */\n    tag_120:\n        /* \"contracts/BOMB_flattened.sol\":18572:18581  isOwner() */\n      tag_292\n        /* \"contracts/BOMB_flattened.sol\":18572:18579  isOwner */\n      tag_159\n        /* \"contracts/BOMB_flattened.sol\":18572:18581  isOwner() */\n      jump\t// in\n    tag_292:\n        /* \"contracts/BOMB_flattened.sol\":18564:18582  require(isOwner()) */\n      tag_293\n      jumpi\n      0x00\n      dup1\n      revert\n    tag_293:\n        /* \"contracts/BOMB_flattened.sol\":23318:23323  _flag */\n      dup1\n        /* \"contracts/BOMB_flattened.sol\":23314:23397  if (_flag) {... */\n      iszero\n      tag_295\n      jumpi\n        /* \"contracts/BOMB_flattened.sol\":23347:23352  _flag */\n      dup1\n        /* \"contracts/BOMB_flattened.sol\":23331:23344  _autoSwapBack */\n      0x09\n      0x01\n        /* \"contracts/BOMB_flattened.sol\":23331:23352  _autoSwapBack = _flag */\n      0x0100\n      exp\n      dup2\n      sload\n      dup2\n      0xff\n      mul\n      not\n      and\n      swap1\n      dup4\n      iszero\n      iszero\n      mul\n      or\n      swap1\n      sstore\n      pop\n        /* \"contracts/BOMB_flattened.sol\":23314:23397  if (_flag) {... */\n      jump(tag_296)\n    tag_295:\n        /* \"contracts/BOMB_flattened.sol\":23386:23391  _flag */\n      dup1\n        /* \"contracts/BOMB_flattened.sol\":23370:23383  _autoSwapBack */\n      0x09\n      0x01\n        /* \"contracts/BOMB_flattened.sol\":23370:23391  _autoSwapBack = _flag */\n      0x0100\n      exp\n      dup2\n      sload\n      dup2\n      0xff\n      mul\n      not\n      and\n      swap1\n      dup4\n      iszero\n      iszero\n      mul\n      or\n      swap1\n      sstore\n      pop\n        /* \"contracts/BOMB_flattened.sol\":23314:23397  if (_flag) {... */\n    tag_296:\n        /* \"contracts/BOMB_flattened.sol\":23253:23401  function setAutoSwapBack(bool _flag) external onlyOwner {... */\n      pop\n      jump\t// out\n        /* \"contracts/BOMB_flattened.sol\":23406:23560  function setAutoDistribute(bool _flag) external onlyOwner {... */\n    tag_124:\n        /* \"contracts/BOMB_flattened.sol\":18572:18581  isOwner() */\n      tag_298\n        /* \"contracts/BOMB_flattened.sol\":18572:18579  isOwner */\n      tag_159\n        /* \"contracts/BOMB_flattened.sol\":18572:18581  isOwner() */\n      jump\t// in\n    tag_298:\n        /* \"contracts/BOMB_flattened.sol\":18564:18582  require(isOwner()) */\n      tag_299\n      jumpi\n      0x00\n      dup1\n      revert\n    tag_299:\n        /* \"contracts/BOMB_flattened.sol\":23473:23478  _flag */\n      dup1\n        /* \"contracts/BOMB_flattened.sol\":23469:23556  if (_flag) {... */\n      iszero\n      tag_301\n      jumpi\n        /* \"contracts/BOMB_flattened.sol\":23504:23509  _flag */\n      dup1\n        /* \"contracts/BOMB_flattened.sol\":23486:23501  _autoDistribute */\n      0x09\n      0x02\n        /* \"contracts/BOMB_flattened.sol\":23486:23509  _autoDistribute = _flag */\n      0x0100\n      exp\n      dup2\n      sload\n      dup2\n      0xff\n      mul\n      not\n      and\n      swap1\n      dup4\n      iszero\n      iszero\n      mul\n      or\n      swap1\n      sstore\n      pop\n        /* \"contracts/BOMB_flattened.sol\":23469:23556  if (_flag) {... */\n      jump(tag_302)\n    tag_301:\n        /* \"contracts/BOMB_flattened.sol\":23545:23550  _flag */\n      dup1\n        /* \"contracts/BOMB_flattened.sol\":23527:23542  _autoDistribute */\n      0x09\n      0x02\n        /* \"contracts/BOMB_flattened.sol\":23527:23550  _autoDistribute = _flag */\n      0x0100\n      exp\n      dup2\n      sload\n      dup2\n      0xff\n      mul\n      not\n      and\n      swap1\n      dup4\n      iszero\n      iszero\n      mul\n      or\n      swap1\n      sstore\n      pop\n        /* \"contracts/BOMB_flattened.sol\":23469:23556  if (_flag) {... */\n    tag_302:\n        /* \"contracts/BOMB_flattened.sol\":23406:23560  function setAutoDistribute(bool _flag) external onlyOwner {... */\n      pop\n      jump\t// out\n        /* \"contracts/BOMB_flattened.sol\":21180:21211  uint256 public _feePercent = 99 */\n    tag_127:\n      sload(0x07)\n      dup2\n      jump\t// out\n        /* \"contracts/BOMB_flattened.sol\":25846:25950  function balanceOf(address who) external view override returns (uint256) {... */\n    tag_132:\n        /* \"contracts/BOMB_flattened.sol\":25910:25917  uint256 */\n      0x00\n        /* \"contracts/BOMB_flattened.sol\":25931:25940  _balances */\n      0x0e\n        /* \"contracts/BOMB_flattened.sol\":25931:25945  _balances[who] */\n      0x00\n        /* \"contracts/BOMB_flattened.sol\":25941:25944  who */\n      dup4\n        /* \"contracts/BOMB_flattened.sol\":25931:25945  _balances[who] */\n      0xffffffffffffffffffffffffffffffffffffffff\n      and\n      0xffffffffffffffffffffffffffffffffffffffff\n      and\n      dup2\n      mstore\n      0x20\n      add\n      swap1\n      dup2\n      mstore\n      0x20\n      add\n      0x00\n      keccak256\n      sload\n        /* \"contracts/BOMB_flattened.sol\":25924:25945  return _balances[who] */\n      swap1\n      pop\n        /* \"contracts/BOMB_flattened.sol\":25846:25950  function balanceOf(address who) external view override returns (uint256) {... */\n      swap2\n      swap1\n      pop\n      jump\t// out\n        /* \"contracts/BOMB_flattened.sol\":21297:21322  bool public _autoSwapBack */\n    tag_136:\n      0x09\n      0x01\n      swap1\n      sload\n      swap1\n      0x0100\n      exp\n      swap1\n      div\n      0xff\n      and\n      dup2\n      jump\t// out\n        /* \"contracts/BOMB_flattened.sol\":18686:18797  function renounceOwnership() public onlyOwner {... */\n    tag_140:\n        /* \"contracts/BOMB_flattened.sol\":18572:18581  isOwner() */\n      tag_305\n        /* \"contracts/BOMB_flattened.sol\":18572:18579  isOwner */\n      tag_159\n        /* \"contracts/BOMB_flattened.sol\":18572:18581  isOwner() */\n      jump\t// in\n    tag_305:\n        /* \"contracts/BOMB_flattened.sol\":18564:18582  require(isOwner()) */\n      tag_306\n      jumpi\n      0x00\n      dup1\n      revert\n    tag_306:\n        /* \"contracts/BOMB_flattened.sol\":18761:18767  _owner */\n      0x02\n      0x01\n      swap1\n      sload\n      swap1\n      0x0100\n      exp\n      swap1\n      div\n      0xffffffffffffffffffffffffffffffffffffffff\n      and\n        /* \"contracts/BOMB_flattened.sol\":18742:18768  OwnershipRenounced(_owner) */\n      0xffffffffffffffffffffffffffffffffffffffff\n      and\n      0xf8df31144d9c2f0f6b59d69b8b98abd5459d07f2742c4df920b25aae33c64820\n      mload(0x40)\n      mload(0x40)\n      dup1\n      swap2\n      sub\n      swap1\n      log2\n        /* \"contracts/BOMB_flattened.sol\":18790:18791  0 */\n      0x00\n        /* \"contracts/BOMB_flattened.sol\":18773:18779  _owner */\n      0x02\n      0x01\n        /* \"contracts/BOMB_flattened.sol\":18773:18792  _owner = address(0) */\n      0x0100\n      exp\n      dup2\n      sload\n      dup2\n      0xffffffffffffffffffffffffffffffffffffffff\n      mul\n      not\n      and\n      swap1\n      dup4\n      0xffffffffffffffffffffffffffffffffffffffff\n      and\n      mul\n      or\n      swap1\n      sstore\n      pop\n        /* \"contracts/BOMB_flattened.sol\":18686:18797  function renounceOwnership() public onlyOwner {... */\n      jump\t// out\n        /* \"contracts/BOMB_flattened.sol\":25663:25743  function manualSync() external {... */\n    tag_143:\n        /* \"contracts/BOMB_flattened.sol\":25724:25729  _pair */\n      0x14\n      0x00\n      swap1\n      sload\n      swap1\n      0x0100\n      exp\n      swap1\n      div\n      0xffffffffffffffffffffffffffffffffffffffff\n      and\n        /* \"contracts/BOMB_flattened.sol\":25699:25736  IPancakeSwapPair(address(_pair)).sync */\n      0xffffffffffffffffffffffffffffffffffffffff\n      and\n      0xfff6cae9\n        /* \"contracts/BOMB_flattened.sol\":25699:25738  IPancakeSwapPair(address(_pair)).sync() */\n      mload(0x40)\n      dup2\n      0xffffffff\n      and\n      0xe0\n      shl\n      dup2\n      mstore\n      0x04\n      add\n      0x00\n      mload(0x40)\n      dup1\n      dup4\n      sub\n      dup2\n      0x00\n      dup8\n      dup1\n      extcodesize\n      iszero\n      dup1\n      iszero\n      tag_309\n      jumpi\n      0x00\n      dup1\n      revert\n    tag_309:\n      pop\n      gas\n      call\n      iszero\n      dup1\n      iszero\n      tag_311\n      jumpi\n      returndatasize\n      0x00\n      dup1\n      returndatacopy\n      revert(0x00, returndatasize)\n    tag_311:\n      pop\n      pop\n      pop\n      pop\n        /* \"contracts/BOMB_flattened.sol\":25663:25743  function manualSync() external {... */\n      jump\t// out\n        /* \"contracts/BOMB_flattened.sol\":25490:25567  function isNotInSwap() external view returns (bool) {... */\n    tag_146:\n        /* \"contracts/BOMB_flattened.sol\":25536:25540  bool */\n      0x00\n        /* \"contracts/BOMB_flattened.sol\":25555:25562  _inSwap */\n      0x14\n      dup1\n      sload\n      swap1\n      0x0100\n      exp\n      swap1\n      div\n      0xff\n      and\n        /* \"contracts/BOMB_flattened.sol\":25554:25562  !_inSwap */\n      iszero\n        /* \"contracts/BOMB_flattened.sol\":25547:25562  return !_inSwap */\n      swap1\n      pop\n        /* \"contracts/BOMB_flattened.sol\":25490:25567  function isNotInSwap() external view returns (bool) {... */\n      swap1\n      jump\t// out\n        /* \"contracts/BOMB_flattened.sol\":23565:23657  function setWhitelist(address _addr) external onlyOwner {... */\n    tag_151:\n        /* \"contracts/BOMB_flattened.sol\":18572:18581  isOwner() */\n      tag_314\n        /* \"contracts/BOMB_flattened.sol\":18572:18579  isOwner */\n      tag_159\n        /* \"contracts/BOMB_flattened.sol\":18572:18581  isOwner() */\n      jump\t// in\n    tag_314:\n        /* \"contracts/BOMB_flattened.sol\":18564:18582  require(isOwner()) */\n      tag_315\n      jumpi\n      0x00\n      dup1\n      revert\n    tag_315:\n        /* \"contracts/BOMB_flattened.sol\":23648:23652  true */\n      0x01\n        /* \"contracts/BOMB_flattened.sol\":23626:23638  _isFeeExempt */\n      0x10\n        /* \"contracts/BOMB_flattened.sol\":23626:23645  _isFeeExempt[_addr] */\n      0x00\n        /* \"contracts/BOMB_flattened.sol\":23639:23644  _addr */\n      dup4\n        /* \"contracts/BOMB_flattened.sol\":23626:23645  _isFeeExempt[_addr] */\n      0xffffffffffffffffffffffffffffffffffffffff\n      and\n      0xffffffffffffffffffffffffffffffffffffffff\n      and\n      dup2\n      mstore\n      0x20\n      add\n      swap1\n      dup2\n      mstore\n      0x20\n      add\n      0x00\n      keccak256\n      0x00\n        /* \"contracts/BOMB_flattened.sol\":23626:23652  _isFeeExempt[_addr] = true */\n      0x0100\n      exp\n      dup2\n      sload\n      dup2\n      0xff\n      mul\n      not\n      and\n      swap1\n      dup4\n      iszero\n      iszero\n      mul\n      or\n      swap1\n      sstore\n      pop\n        /* \"contracts/BOMB_flattened.sol\":23565:23657  function setWhitelist(address _addr) external onlyOwner {... */\n      pop\n      jump\t// out\n        /* \"contracts/BOMB_flattened.sol\":18463:18533  function owner() public view returns (address) {... */\n    tag_154:\n        /* \"contracts/BOMB_flattened.sol\":18501:18508  address */\n      0x00\n        /* \"contracts/BOMB_flattened.sol\":18522:18528  _owner */\n      0x02\n      0x01\n      swap1\n      sload\n      swap1\n      0x0100\n      exp\n      swap1\n      div\n      0xffffffffffffffffffffffffffffffffffffffff\n      and\n        /* \"contracts/BOMB_flattened.sol\":18515:18528  return _owner */\n      swap1\n      pop\n        /* \"contracts/BOMB_flattened.sol\":18463:18533  function owner() public view returns (address) {... */\n      swap1\n      jump\t// out\n        /* \"contracts/BOMB_flattened.sol\":18598:18681  function isOwner() public view returns (bool) {... */\n    tag_159:\n        /* \"contracts/BOMB_flattened.sol\":18638:18642  bool */\n      0x00\n        /* \"contracts/BOMB_flattened.sol\":18670:18676  _owner */\n      0x02\n      0x01\n      swap1\n      sload\n      swap1\n      0x0100\n      exp\n      swap1\n      div\n      0xffffffffffffffffffffffffffffffffffffffff\n      and\n        /* \"contracts/BOMB_flattened.sol\":18656:18676  msg.sender == _owner */\n      0xffffffffffffffffffffffffffffffffffffffff\n      and\n        /* \"contracts/BOMB_flattened.sol\":18656:18666  msg.sender */\n      caller\n        /* \"contracts/BOMB_flattened.sol\":18656:18676  msg.sender == _owner */\n      0xffffffffffffffffffffffffffffffffffffffff\n      and\n      eq\n        /* \"contracts/BOMB_flattened.sol\":18649:18676  return msg.sender == _owner */\n      swap1\n      pop\n        /* \"contracts/BOMB_flattened.sol\":18598:18681  function isOwner() public view returns (bool) {... */\n      swap1\n      jump\t// out\n        /* \"contracts/BOMB_flattened.sol\":17988:18066  function symbol() public view returns (string memory) {... */\n    tag_163:\n        /* \"contracts/BOMB_flattened.sol\":18027:18040  string memory */\n      0x60\n        /* \"contracts/BOMB_flattened.sol\":18054:18061  _symbol */\n      0x01\n        /* \"contracts/BOMB_flattened.sol\":18047:18061  return _symbol */\n      dup1\n      sload\n      tag_320\n      swap1\n      tag_238\n      jump\t// in\n    tag_320:\n      dup1\n      0x1f\n      add\n      0x20\n      dup1\n      swap2\n      div\n      mul\n      0x20\n      add\n      mload(0x40)\n      swap1\n      dup2\n      add\n      0x40\n      mstore\n      dup1\n      swap3\n      swap2\n      swap1\n      dup2\n      dup2\n      mstore\n      0x20\n      add\n      dup3\n      dup1\n      sload\n      tag_321\n      swap1\n      tag_238\n      jump\t// in\n    tag_321:\n      dup1\n      iszero\n      tag_322\n      jumpi\n      dup1\n      0x1f\n      lt\n      tag_323\n      jumpi\n      0x0100\n      dup1\n      dup4\n      sload\n      div\n      mul\n      dup4\n      mstore\n      swap2\n      0x20\n      add\n      swap2\n      jump(tag_322)\n    tag_323:\n      dup3\n      add\n      swap2\n      swap1\n      0x00\n      mstore\n      keccak256(0x00, 0x20)\n      swap1\n    tag_324:\n      dup2\n      sload\n      dup2\n      mstore\n      swap1\n      0x01\n      add\n      swap1\n      0x20\n      add\n      dup1\n      dup4\n      gt\n      tag_324\n      jumpi\n      dup3\n      swap1\n      sub\n      0x1f\n      and\n      dup3\n      add\n      swap2\n    tag_322:\n      pop\n      pop\n      pop\n      pop\n      pop\n      swap1\n      pop\n        /* \"contracts/BOMB_flattened.sol\":17988:18066  function symbol() public view returns (string memory) {... */\n      swap1\n      jump\t// out\n        /* \"contracts/BOMB_flattened.sol\":21326:21353  bool public _autoDistribute */\n    tag_167:\n      0x09\n      0x02\n      swap1\n      sload\n      swap1\n      0x0100\n      exp\n      swap1\n      div\n      0xff\n      and\n      dup2\n      jump\t// out\n        /* \"contracts/BOMB_flattened.sol\":19368:19387  IBlast public BLAST */\n    tag_171:\n      0x03\n      0x00\n      swap1\n      sload\n      swap1\n      0x0100\n      exp\n      swap1\n      div\n      0xffffffffffffffffffffffffffffffffffffffff\n      and\n      dup2\n      jump\t// out\n        /* \"contracts/BOMB_flattened.sol\":21359:21394  uint256 public _initRebaseStartTime */\n    tag_176:\n      sload(0x0a)\n      dup2\n      jump\t// out\n        /* \"contracts/BOMB_flattened.sol\":21652:21694  mapping(address => bool) public _blacklist */\n    tag_181:\n      mstore(0x20, 0x11)\n      dup1\n      0x00\n      mstore\n      keccak256(0x00, 0x40)\n      0x00\n      swap2\n      pop\n      sload\n      swap1\n      0x0100\n      exp\n      swap1\n      div\n      0xff\n      and\n      dup2\n      jump\t// out\n        /* \"contracts/BOMB_flattened.sol\":27090:27496  function decreaseAllowance(address spender, uint256 subtractedValue) external returns (bool) {... */\n    tag_186:\n        /* \"contracts/BOMB_flattened.sol\":27177:27181  bool */\n      0x00\n        /* \"contracts/BOMB_flattened.sol\":27188:27204  uint256 oldValue */\n      dup1\n        /* \"contracts/BOMB_flattened.sol\":27207:27217  _allowance */\n      0x15\n        /* \"contracts/BOMB_flattened.sol\":27207:27229  _allowance[msg.sender] */\n      0x00\n        /* \"contracts/BOMB_flattened.sol\":27218:27228  msg.sender */\n      caller\n        /* \"contracts/BOMB_flattened.sol\":27207:27229  _allowance[msg.sender] */\n      0xffffffffffffffffffffffffffffffffffffffff\n      and\n      0xffffffffffffffffffffffffffffffffffffffff\n      and\n      dup2\n      mstore\n      0x20\n      add\n      swap1\n      dup2\n      mstore\n      0x20\n      add\n      0x00\n      keccak256\n        /* \"contracts/BOMB_flattened.sol\":27207:27238  _allowance[msg.sender][spender] */\n      0x00\n        /* \"contracts/BOMB_flattened.sol\":27230:27237  spender */\n      dup6\n        /* \"contracts/BOMB_flattened.sol\":27207:27238  _allowance[msg.sender][spender] */\n      0xffffffffffffffffffffffffffffffffffffffff\n      and\n      0xffffffffffffffffffffffffffffffffffffffff\n      and\n      dup2\n      mstore\n      0x20\n      add\n      swap1\n      dup2\n      mstore\n      0x20\n      add\n      0x00\n      keccak256\n      sload\n        /* \"contracts/BOMB_flattened.sol\":27188:27238  uint256 oldValue = _allowance[msg.sender][spender] */\n      swap1\n      pop\n        /* \"contracts/BOMB_flattened.sol\":27266:27274  oldValue */\n      dup1\n        /* \"contracts/BOMB_flattened.sol\":27247:27262  subtractedValue */\n      dup4\n        /* \"contracts/BOMB_flattened.sol\":27247:27274  subtractedValue >= oldValue */\n      lt\n        /* \"contracts/BOMB_flattened.sol\":27243:27404  if (subtractedValue >= oldValue) {... */\n      tag_326\n      jumpi\n        /* \"contracts/BOMB_flattened.sol\":27316:27317  0 */\n      0x00\n        /* \"contracts/BOMB_flattened.sol\":27282:27292  _allowance */\n      0x15\n        /* \"contracts/BOMB_flattened.sol\":27282:27304  _allowance[msg.sender] */\n      0x00\n        /* \"contracts/BOMB_flattened.sol\":27293:27303  msg.sender */\n      caller\n        /* \"contracts/BOMB_flattened.sol\":27282:27304  _allowance[msg.sender] */\n      0xffffffffffffffffffffffffffffffffffffffff\n      and\n      0xffffffffffffffffffffffffffffffffffffffff\n      and\n      dup2\n      mstore\n      0x20\n      add\n      swap1\n      dup2\n      mstore\n      0x20\n      add\n      0x00\n      keccak256\n        /* \"contracts/BOMB_flattened.sol\":27282:27313  _allowance[msg.sender][spender] */\n      0x00\n        /* \"contracts/BOMB_flattened.sol\":27305:27312  spender */\n      dup7\n        /* \"contracts/BOMB_flattened.sol\":27282:27313  _allowance[msg.sender][spender] */\n      0xffffffffffffffffffffffffffffffffffffffff\n      and\n      0xffffffffffffffffffffffffffffffffffffffff\n      and\n      dup2\n      mstore\n      0x20\n      add\n      swap1\n      dup2\n      mstore\n      0x20\n      add\n      0x00\n      keccak256\n        /* \"contracts/BOMB_flattened.sol\":27282:27317  _allowance[msg.sender][spender] = 0 */\n      dup2\n      swap1\n      sstore\n      pop\n        /* \"contracts/BOMB_flattened.sol\":27243:27404  if (subtractedValue >= oldValue) {... */\n      jump(tag_327)\n    tag_326:\n        /* \"contracts/BOMB_flattened.sol\":27369:27398  oldValue.sub(subtractedValue) */\n      tag_328\n        /* \"contracts/BOMB_flattened.sol\":27382:27397  subtractedValue */\n      dup4\n        /* \"contracts/BOMB_flattened.sol\":27369:27377  oldValue */\n      dup3\n        /* \"contracts/BOMB_flattened.sol\":27369:27381  oldValue.sub */\n      tag_329\n      swap1\n        /* \"contracts/BOMB_flattened.sol\":27369:27398  oldValue.sub(subtractedValue) */\n      swap2\n      swap1\n      0xffffffff\n      and\n      jump\t// in\n    tag_328:\n        /* \"contracts/BOMB_flattened.sol\":27335:27345  _allowance */\n      0x15\n        /* \"contracts/BOMB_flattened.sol\":27335:27357  _allowance[msg.sender] */\n      0x00\n        /* \"contracts/BOMB_flattened.sol\":27346:27356  msg.sender */\n      caller\n        /* \"contracts/BOMB_flattened.sol\":27335:27357  _allowance[msg.sender] */\n      0xffffffffffffffffffffffffffffffffffffffff\n      and\n      0xffffffffffffffffffffffffffffffffffffffff\n      and\n      dup2\n      mstore\n      0x20\n      add\n      swap1\n      dup2\n      mstore\n      0x20\n      add\n      0x00\n      keccak256\n        /* \"contracts/BOMB_flattened.sol\":27335:27366  _allowance[msg.sender][spender] */\n      0x00\n        /* \"contracts/BOMB_flattened.sol\":27358:27365  spender */\n      dup7\n        /* \"contracts/BOMB_flattened.sol\":27335:27366  _allowance[msg.sender][spender] */\n      0xffffffffffffffffffffffffffffffffffffffff\n      and\n      0xffffffffffffffffffffffffffffffffffffffff\n      and\n      dup2\n      mstore\n      0x20\n      add\n      swap1\n      dup2\n      mstore\n      0x20\n      add\n      0x00\n      keccak256\n        /* \"contracts/BOMB_flattened.sol\":27335:27398  _allowance[msg.sender][spender] = oldValue.sub(subtractedValue) */\n      dup2\n      swap1\n      sstore\n      pop\n        /* \"contracts/BOMB_flattened.sol\":27243:27404  if (subtractedValue >= oldValue) {... */\n    tag_327:\n        /* \"contracts/BOMB_flattened.sol\":27434:27441  spender */\n      dup4\n        /* \"contracts/BOMB_flattened.sol\":27413:27475  Approval(msg.sender, spender, _allowance[msg.sender][spender]) */\n      0xffffffffffffffffffffffffffffffffffffffff\n      and\n        /* \"contracts/BOMB_flattened.sol\":27422:27432  msg.sender */\n      caller\n        /* \"contracts/BOMB_flattened.sol\":27413:27475  Approval(msg.sender, spender, _allowance[msg.sender][spender]) */\n      0xffffffffffffffffffffffffffffffffffffffff\n      and\n      0x8c5be1e5ebec7d5bd14f71427d1e84f3dd0314c0f7b2291e5b200ac8c7c3b925\n        /* \"contracts/BOMB_flattened.sol\":27443:27453  _allowance */\n      0x15\n        /* \"contracts/BOMB_flattened.sol\":27443:27465  _allowance[msg.sender] */\n      0x00\n        /* \"contracts/BOMB_flattened.sol\":27454:27464  msg.sender */\n      caller\n        /* \"contracts/BOMB_flattened.sol\":27443:27465  _allowance[msg.sender] */\n      0xffffffffffffffffffffffffffffffffffffffff\n      and\n      0xffffffffffffffffffffffffffffffffffffffff\n      and\n      dup2\n      mstore\n      0x20\n      add\n      swap1\n      dup2\n      mstore\n      0x20\n      add\n      0x00\n      keccak256\n        /* \"contracts/BOMB_flattened.sol\":27443:27474  _allowance[msg.sender][spender] */\n      0x00\n        /* \"contracts/BOMB_flattened.sol\":27466:27473  spender */\n      dup9\n        /* \"contracts/BOMB_flattened.sol\":27443:27474  _allowance[msg.sender][spender] */\n      0xffffffffffffffffffffffffffffffffffffffff\n      and\n      0xffffffffffffffffffffffffffffffffffffffff\n      and\n      dup2\n      mstore\n      0x20\n      add\n      swap1\n      dup2\n      mstore\n      0x20\n      add\n      0x00\n      keccak256\n      sload\n        /* \"contracts/BOMB_flattened.sol\":27413:27475  Approval(msg.sender, spender, _allowance[msg.sender][spender]) */\n      mload(0x40)\n      tag_330\n      swap2\n      swap1\n      tag_69\n      jump\t// in\n    tag_330:\n      mload(0x40)\n      dup1\n      swap2\n      sub\n      swap1\n      log3\n        /* \"contracts/BOMB_flattened.sol\":27487:27491  true */\n      0x01\n        /* \"contracts/BOMB_flattened.sol\":27480:27491  return true */\n      swap2\n      pop\n      pop\n        /* \"contracts/BOMB_flattened.sol\":27090:27496  function decreaseAllowance(address spender, uint256 subtractedValue) external returns (bool) {... */\n      swap3\n      swap2\n      pop\n      pop\n      jump\t// out\n        /* \"contracts/BOMB_flattened.sol\":25572:25658  function pairAddress() external view returns (address) {... */\n    tag_190:\n        /* \"contracts/BOMB_flattened.sol\":25618:25625  address */\n      0x00\n        /* \"contracts/BOMB_flattened.sol\":25647:25652  _pair */\n      0x14\n      0x00\n      swap1\n      sload\n      swap1\n      0x0100\n      exp\n      swap1\n      div\n      0xffffffffffffffffffffffffffffffffffffffff\n      and\n        /* \"contracts/BOMB_flattened.sol\":25632:25653  return address(_pair) */\n      swap1\n      pop\n        /* \"contracts/BOMB_flattened.sol\":25572:25658  function pairAddress() external view returns (address) {... */\n      swap1\n      jump\t// out\n        /* \"contracts/BOMB_flattened.sol\":26153:26312  function transfer(address to, uint256 value) external override validRecipient(to) returns (bool) {... */\n    tag_195:\n        /* \"contracts/BOMB_flattened.sol\":26244:26248  bool */\n      0x00\n        /* \"contracts/BOMB_flattened.sol\":26231:26233  to */\n      dup3\n        /* \"contracts/BOMB_flattened.sol\":21978:21981  0x0 */\n      0x00\n        /* \"contracts/BOMB_flattened.sol\":21964:21982  to != address(0x0) */\n      0xffffffffffffffffffffffffffffffffffffffff\n      and\n        /* \"contracts/BOMB_flattened.sol\":21964:21966  to */\n      dup2\n        /* \"contracts/BOMB_flattened.sol\":21964:21982  to != address(0x0) */\n      0xffffffffffffffffffffffffffffffffffffffff\n      and\n      sub\n        /* \"contracts/BOMB_flattened.sol\":21956:21983  require(to != address(0x0)) */\n      tag_333\n      jumpi\n      0x00\n      dup1\n      revert\n    tag_333:\n        /* \"contracts/BOMB_flattened.sol\":26255:26291  _transferFrom(msg.sender, to, value) */\n      tag_335\n        /* \"contracts/BOMB_flattened.sol\":26269:26279  msg.sender */\n      caller\n        /* \"contracts/BOMB_flattened.sol\":26281:26283  to */\n      dup6\n        /* \"contracts/BOMB_flattened.sol\":26285:26290  value */\n      dup6\n        /* \"contracts/BOMB_flattened.sol\":26255:26268  _transferFrom */\n      tag_268\n        /* \"contracts/BOMB_flattened.sol\":26255:26291  _transferFrom(msg.sender, to, value) */\n      jump\t// in\n    tag_335:\n      pop\n        /* \"contracts/BOMB_flattened.sol\":26303:26307  true */\n      0x01\n        /* \"contracts/BOMB_flattened.sol\":26296:26307  return true */\n      swap2\n      pop\n        /* \"contracts/BOMB_flattened.sol\":26153:26312  function transfer(address to, uint256 value) external override validRecipient(to) returns (bool) {... */\n      pop\n      swap3\n      swap2\n      pop\n      pop\n      jump\t// out\n        /* \"contracts/BOMB_flattened.sol\":23885:23978  function setFeePercentage(uint256 percent) external onlyOwner {... */\n    tag_200:\n        /* \"contracts/BOMB_flattened.sol\":18572:18581  isOwner() */\n      tag_337\n        /* \"contracts/BOMB_flattened.sol\":18572:18579  isOwner */\n      tag_159\n        /* \"contracts/BOMB_flattened.sol\":18572:18581  isOwner() */\n      jump\t// in\n    tag_337:\n        /* \"contracts/BOMB_flattened.sol\":18564:18582  require(isOwner()) */\n      tag_338\n      jumpi\n      0x00\n      dup1\n      revert\n    tag_338:\n        /* \"contracts/BOMB_flattened.sol\":23966:23973  percent */\n      dup1\n        /* \"contracts/BOMB_flattened.sol\":23952:23963  _feePercent */\n      0x07\n        /* \"contracts/BOMB_flattened.sol\":23952:23973  _feePercent = percent */\n      dup2\n      swap1\n      sstore\n      pop\n        /* \"contracts/BOMB_flattened.sol\":23885:23978  function setFeePercentage(uint256 percent) external onlyOwner {... */\n      pop\n      jump\t// out\n        /* \"contracts/BOMB_flattened.sol\":21270:21293  bool public _autoRebase */\n    tag_203:\n      0x09\n      0x00\n      swap1\n      sload\n      swap1\n      0x0100\n      exp\n      swap1\n      div\n      0xff\n      and\n      dup2\n      jump\t// out\n        /* \"contracts/BOMB_flattened.sol\":21215:21264  uint256 public _distributionInterval = 10 minutes */\n    tag_207:\n      sload(0x08)\n      dup2\n      jump\t// out\n        /* \"contracts/BOMB_flattened.sol\":25381:25485  function checkFeeExempt(address _addr) external view returns (bool) {... */\n    tag_212:\n        /* \"contracts/BOMB_flattened.sol\":25443:25447  bool */\n      0x00\n        /* \"contracts/BOMB_flattened.sol\":25461:25473  _isFeeExempt */\n      0x10\n        /* \"contracts/BOMB_flattened.sol\":25461:25480  _isFeeExempt[_addr] */\n      0x00\n        /* \"contracts/BOMB_flattened.sol\":25474:25479  _addr */\n      dup4\n        /* \"contracts/BOMB_flattened.sol\":25461:25480  _isFeeExempt[_addr] */\n      0xffffffffffffffffffffffffffffffffffffffff\n      and\n      0xffffffffffffffffffffffffffffffffffffffff\n      and\n      dup2\n      mstore\n      0x20\n      add\n      swap1\n      dup2\n      mstore\n      0x20\n      add\n      0x00\n      keccak256\n      0x00\n      swap1\n      sload\n      swap1\n      0x0100\n      exp\n      swap1\n      div\n      0xff\n      and\n        /* \"contracts/BOMB_flattened.sol\":25454:25480  return _isFeeExempt[_addr] */\n      swap1\n      pop\n        /* \"contracts/BOMB_flattened.sol\":25381:25485  function checkFeeExempt(address _addr) external view returns (bool) {... */\n      swap2\n      swap1\n      pop\n      jump\t// out\n        /* \"contracts/BOMB_flattened.sol\":26676:26813  function allowance(address owner_, address spender) external view override returns (uint256) {... */\n    tag_218:\n        /* \"contracts/BOMB_flattened.sol\":26760:26767  uint256 */\n      0x00\n        /* \"contracts/BOMB_flattened.sol\":26781:26791  _allowance */\n      0x15\n        /* \"contracts/BOMB_flattened.sol\":26781:26799  _allowance[owner_] */\n      0x00\n        /* \"contracts/BOMB_flattened.sol\":26792:26798  owner_ */\n      dup5\n        /* \"contracts/BOMB_flattened.sol\":26781:26799  _allowance[owner_] */\n      0xffffffffffffffffffffffffffffffffffffffff\n      and\n      0xffffffffffffffffffffffffffffffffffffffff\n      and\n      dup2\n      mstore\n      0x20\n      add\n      swap1\n      dup2\n      mstore\n      0x20\n      add\n      0x00\n      keccak256\n        /* \"contracts/BOMB_flattened.sol\":26781:26808  _allowance[owner_][spender] */\n      0x00\n        /* \"contracts/BOMB_flattened.sol\":26800:26807  spender */\n      dup4\n        /* \"contracts/BOMB_flattened.sol\":26781:26808  _allowance[owner_][spender] */\n      0xffffffffffffffffffffffffffffffffffffffff\n      and\n      0xffffffffffffffffffffffffffffffffffffffff\n      and\n      dup2\n      mstore\n      0x20\n      add\n      swap1\n      dup2\n      mstore\n      0x20\n      add\n      0x00\n      keccak256\n      sload\n        /* \"contracts/BOMB_flattened.sol\":26774:26808  return _allowance[owner_][spender] */\n      swap1\n      pop\n        /* \"contracts/BOMB_flattened.sol\":26676:26813  function allowance(address owner_, address spender) external view override returns (uint256) {... */\n      swap3\n      swap2\n      pop\n      pop\n      jump\t// out\n        /* \"contracts/BOMB_flattened.sol\":23066:23248  function setAutoRebase(bool _flag) external onlyOwner {... */\n    tag_223:\n        /* \"contracts/BOMB_flattened.sol\":18572:18581  isOwner() */\n      tag_343\n        /* \"contracts/BOMB_flattened.sol\":18572:18579  isOwner */\n      tag_159\n        /* \"contracts/BOMB_flattened.sol\":18572:18581  isOwner() */\n      jump\t// in\n    tag_343:\n        /* \"contracts/BOMB_flattened.sol\":18564:18582  require(isOwner()) */\n      tag_344\n      jumpi\n      0x00\n      dup1\n      revert\n    tag_344:\n        /* \"contracts/BOMB_flattened.sol\":23129:23134  _flag */\n      dup1\n        /* \"contracts/BOMB_flattened.sol\":23125:23244  if (_flag) {... */\n      iszero\n      tag_346\n      jumpi\n        /* \"contracts/BOMB_flattened.sol\":23156:23161  _flag */\n      dup1\n        /* \"contracts/BOMB_flattened.sol\":23142:23153  _autoRebase */\n      0x09\n      0x00\n        /* \"contracts/BOMB_flattened.sol\":23142:23161  _autoRebase = _flag */\n      0x0100\n      exp\n      dup2\n      sload\n      dup2\n      0xff\n      mul\n      not\n      and\n      swap1\n      dup4\n      iszero\n      iszero\n      mul\n      or\n      swap1\n      sstore\n      pop\n        /* \"contracts/BOMB_flattened.sol\":23186:23201  block.timestamp */\n      timestamp\n        /* \"contracts/BOMB_flattened.sol\":23167:23183  _lastRebasedTime */\n      0x0b\n        /* \"contracts/BOMB_flattened.sol\":23167:23201  _lastRebasedTime = block.timestamp */\n      dup2\n      swap1\n      sstore\n      pop\n        /* \"contracts/BOMB_flattened.sol\":23125:23244  if (_flag) {... */\n      jump(tag_347)\n    tag_346:\n        /* \"contracts/BOMB_flattened.sol\":23233:23238  _flag */\n      dup1\n        /* \"contracts/BOMB_flattened.sol\":23219:23230  _autoRebase */\n      0x09\n      0x00\n        /* \"contracts/BOMB_flattened.sol\":23219:23238  _autoRebase = _flag */\n      0x0100\n      exp\n      dup2\n      sload\n      dup2\n      0xff\n      mul\n      not\n      and\n      swap1\n      dup4\n      iszero\n      iszero\n      mul\n      or\n      swap1\n      sstore\n      pop\n        /* \"contracts/BOMB_flattened.sol\":23125:23244  if (_flag) {... */\n    tag_347:\n        /* \"contracts/BOMB_flattened.sol\":23066:23248  function setAutoRebase(bool _flag) external onlyOwner {... */\n      pop\n      jump\t// out\n        /* \"contracts/BOMB_flattened.sol\":20169:20277  function setBlastClaimInterval(uint256 interval) external onlyOwner {... */\n    tag_227:\n        /* \"contracts/BOMB_flattened.sol\":18572:18581  isOwner() */\n      tag_349\n        /* \"contracts/BOMB_flattened.sol\":18572:18579  isOwner */\n      tag_159\n        /* \"contracts/BOMB_flattened.sol\":18572:18581  isOwner() */\n      jump\t// in\n    tag_349:\n        /* \"contracts/BOMB_flattened.sol\":18564:18582  require(isOwner()) */\n      tag_350\n      jumpi\n      0x00\n      dup1\n      revert\n    tag_350:\n        /* \"contracts/BOMB_flattened.sol\":20264:20272  interval */\n      dup1\n        /* \"contracts/BOMB_flattened.sol\":20242:20261  _blastClaimInterval */\n      0x05\n        /* \"contracts/BOMB_flattened.sol\":20242:20272  _blastClaimInterval = interval */\n      dup2\n      swap1\n      sstore\n      pop\n        /* \"contracts/BOMB_flattened.sol\":20169:20277  function setBlastClaimInterval(uint256 interval) external onlyOwner {... */\n      pop\n      jump\t// out\n        /* \"contracts/BOMB_flattened.sol\":19938:20164  function setupBlast(address blastAddr) external onlyOwner {... */\n    tag_231:\n        /* \"contracts/BOMB_flattened.sol\":18572:18581  isOwner() */\n      tag_353\n        /* \"contracts/BOMB_flattened.sol\":18572:18579  isOwner */\n      tag_159\n        /* \"contracts/BOMB_flattened.sol\":18572:18581  isOwner() */\n      jump\t// in\n    tag_353:\n        /* \"contracts/BOMB_flattened.sol\":18564:18582  require(isOwner()) */\n      tag_354\n      jumpi\n      0x00\n      dup1\n      revert\n    tag_354:\n        /* \"contracts/BOMB_flattened.sol\":20026:20027  0 */\n      0x00\n        /* \"contracts/BOMB_flattened.sol\":20005:20028  blastAddr == address(0) */\n      0xffffffffffffffffffffffffffffffffffffffff\n      and\n        /* \"contracts/BOMB_flattened.sol\":20005:20014  blastAddr */\n      dup2\n        /* \"contracts/BOMB_flattened.sol\":20005:20028  blastAddr == address(0) */\n      0xffffffffffffffffffffffffffffffffffffffff\n      and\n      sub\n        /* \"contracts/BOMB_flattened.sol\":20001:20096  if (blastAddr == address(0)) {... */\n      tag_356\n      jumpi\n        /* \"contracts/BOMB_flattened.sol\":20048:20090  0x4300000000000000000000000000000000000002 */\n      0x4300000000000000000000000000000000000002\n        /* \"contracts/BOMB_flattened.sol\":20036:20090  blastAddr = 0x4300000000000000000000000000000000000002 */\n      swap1\n      pop\n        /* \"contracts/BOMB_flattened.sol\":20001:20096  if (blastAddr == address(0)) {... */\n    tag_356:\n        /* \"contracts/BOMB_flattened.sol\":20115:20124  blastAddr */\n      dup1\n        /* \"contracts/BOMB_flattened.sol\":20100:20105  BLAST */\n      0x03\n      0x00\n        /* \"contracts/BOMB_flattened.sol\":20100:20125  BLAST = IBlast(blastAddr) */\n      0x0100\n      exp\n      dup2\n      sload\n      dup2\n      0xffffffffffffffffffffffffffffffffffffffff\n      mul\n      not\n      and\n      swap1\n      dup4\n      0xffffffffffffffffffffffffffffffffffffffff\n      and\n      mul\n      or\n      swap1\n      sstore\n      pop\n        /* \"contracts/BOMB_flattened.sol\":20130:20135  BLAST */\n      0x03\n      0x00\n      swap1\n      sload\n      swap1\n      0x0100\n      exp\n      swap1\n      div\n      0xffffffffffffffffffffffffffffffffffffffff\n      and\n        /* \"contracts/BOMB_flattened.sol\":20130:20157  BLAST.configureClaimableGas */\n      0xffffffffffffffffffffffffffffffffffffffff\n      and\n      0x4e606c47\n        /* \"contracts/BOMB_flattened.sol\":20130:20159  BLAST.configureClaimableGas() */\n      mload(0x40)\n      dup2\n      0xffffffff\n      and\n      0xe0\n      shl\n      dup2\n      mstore\n      0x04\n      add\n      0x00\n      mload(0x40)\n      dup1\n      dup4\n      sub\n      dup2\n      0x00\n      dup8\n      dup1\n      extcodesize\n      iszero\n      dup1\n      iszero\n      tag_357\n      jumpi\n      0x00\n      dup1\n      revert\n    tag_357:\n      pop\n      gas\n      call\n      iszero\n      dup1\n      iszero\n      tag_359\n      jumpi\n      returndatasize\n      0x00\n      dup1\n      returndatacopy\n      revert(0x00, returndatasize)\n    tag_359:\n      pop\n      pop\n      pop\n      pop\n        /* \"contracts/BOMB_flattened.sol\":19938:20164  function setupBlast(address blastAddr) external onlyOwner {... */\n      pop\n      jump\t// out\n        /* \"contracts/BOMB_flattened.sol\":18802:18902  function transferOwnership(address newOwner) public onlyOwner {... */\n    tag_235:\n        /* \"contracts/BOMB_flattened.sol\":18572:18581  isOwner() */\n      tag_361\n        /* \"contracts/BOMB_flattened.sol\":18572:18579  isOwner */\n      tag_159\n        /* \"contracts/BOMB_flattened.sol\":18572:18581  isOwner() */\n      jump\t// in\n    tag_361:\n        /* \"contracts/BOMB_flattened.sol\":18564:18582  require(isOwner()) */\n      tag_362\n      jumpi\n      0x00\n      dup1\n      revert\n    tag_362:\n        /* \"contracts/BOMB_flattened.sol\":18869:18897  _transferOwnership(newOwner) */\n      tag_364\n        /* \"contracts/BOMB_flattened.sol\":18888:18896  newOwner */\n      dup2\n        /* \"contracts/BOMB_flattened.sol\":18869:18887  _transferOwnership */\n      tag_365\n        /* \"contracts/BOMB_flattened.sol\":18869:18897  _transferOwnership(newOwner) */\n      jump\t// in\n    tag_364:\n        /* \"contracts/BOMB_flattened.sol\":18802:18902  function transferOwnership(address newOwner) public onlyOwner {... */\n      pop\n      jump\t// out\n        /* \"contracts/BOMB_flattened.sol\":30233:30334  function blastFeesClaimed(uint256 value) internal virtual override {... */\n    tag_259:\n        /* \"contracts/BOMB_flattened.sol\":30305:30329  _distributeNative(value) */\n      tag_367\n        /* \"contracts/BOMB_flattened.sol\":30323:30328  value */\n      dup2\n        /* \"contracts/BOMB_flattened.sol\":30305:30322  _distributeNative */\n      tag_368\n        /* \"contracts/BOMB_flattened.sol\":30305:30329  _distributeNative(value) */\n      jump\t// in\n    tag_367:\n        /* \"contracts/BOMB_flattened.sol\":30233:30334  function blastFeesClaimed(uint256 value) internal virtual override {... */\n      pop\n      jump\t// out\n        /* \"contracts/BOMB_flattened.sol\":5858:6031  function sub(uint256 a, uint256 b, string memory errorMessage) internal pure returns (uint256) {... */\n    tag_266:\n        /* \"contracts/BOMB_flattened.sol\":5944:5951  uint256 */\n      0x00\n        /* \"contracts/BOMB_flattened.sol\":5987:5988  a */\n      dup4\n        /* \"contracts/BOMB_flattened.sol\":5982:5983  b */\n      dup4\n        /* \"contracts/BOMB_flattened.sol\":5982:5988  b <= a */\n      gt\n      iszero\n        /* \"contracts/BOMB_flattened.sol\":5990:6002  errorMessage */\n      dup3\n        /* \"contracts/BOMB_flattened.sol\":5974:6003  require(b <= a, errorMessage) */\n      swap1\n      tag_370\n      jumpi\n      mload(0x40)\n      0x08c379a000000000000000000000000000000000000000000000000000000000\n      dup2\n      mstore\n      0x04\n      add\n      tag_371\n      swap2\n      swap1\n      tag_57\n      jump\t// in\n    tag_371:\n      mload(0x40)\n      dup1\n      swap2\n      sub\n      swap1\n      revert\n    tag_370:\n      pop\n        /* \"contracts/BOMB_flattened.sol\":6020:6021  b */\n      dup3\n        /* \"contracts/BOMB_flattened.sol\":6016:6017  a */\n      dup5\n        /* \"contracts/BOMB_flattened.sol\":6016:6021  a - b */\n      sub\n        /* \"contracts/BOMB_flattened.sol\":6009:6021  return a - b */\n      swap1\n      pop\n        /* \"contracts/BOMB_flattened.sol\":5858:6031  function sub(uint256 a, uint256 b, string memory errorMessage) internal pure returns (uint256) {... */\n      swap4\n      swap3\n      pop\n      pop\n      pop\n      jump\t// out\n        /* \"contracts/BOMB_flattened.sol\":27675:28360  function _transferFrom(address sender, address recipient, uint256 amount) internal returns (bool) {... */\n    tag_268:\n        /* \"contracts/BOMB_flattened.sol\":27767:27771  bool */\n      0x00\n        /* \"contracts/BOMB_flattened.sol\":27787:27797  _blacklist */\n      0x11\n        /* \"contracts/BOMB_flattened.sol\":27787:27805  _blacklist[sender] */\n      0x00\n        /* \"contracts/BOMB_flattened.sol\":27798:27804  sender */\n      dup6\n        /* \"contracts/BOMB_flattened.sol\":27787:27805  _blacklist[sender] */\n      0xffffffffffffffffffffffffffffffffffffffff\n      and\n      0xffffffffffffffffffffffffffffffffffffffff\n      and\n      dup2\n      mstore\n      0x20\n      add\n      swap1\n      dup2\n      mstore\n      0x20\n      add\n      0x00\n      keccak256\n      0x00\n      swap1\n      sload\n      swap1\n      0x0100\n      exp\n      swap1\n      div\n      0xff\n      and\n        /* \"contracts/BOMB_flattened.sol\":27786:27805  !_blacklist[sender] */\n      iszero\n        /* \"contracts/BOMB_flattened.sol\":27786:27831  !_blacklist[sender] && !_blacklist[recipient] */\n      dup1\n      iszero\n      tag_373\n      jumpi\n      pop\n        /* \"contracts/BOMB_flattened.sol\":27810:27820  _blacklist */\n      0x11\n        /* \"contracts/BOMB_flattened.sol\":27810:27831  _blacklist[recipient] */\n      0x00\n        /* \"contracts/BOMB_flattened.sol\":27821:27830  recipient */\n      dup5\n        /* \"contracts/BOMB_flattened.sol\":27810:27831  _blacklist[recipient] */\n      0xffffffffffffffffffffffffffffffffffffffff\n      and\n      0xffffffffffffffffffffffffffffffffffffffff\n      and\n      dup2\n      mstore\n      0x20\n      add\n      swap1\n      dup2\n      mstore\n      0x20\n      add\n      0x00\n      keccak256\n      0x00\n      swap1\n      sload\n      swap1\n      0x0100\n      exp\n      swap1\n      div\n      0xff\n      and\n        /* \"contracts/BOMB_flattened.sol\":27809:27831  !_blacklist[recipient] */\n      iszero\n        /* \"contracts/BOMB_flattened.sol\":27786:27831  !_blacklist[sender] && !_blacklist[recipient] */\n    tag_373:\n        /* \"contracts/BOMB_flattened.sol\":27778:27848  require(!_blacklist[sender] && !_blacklist[recipient], \"in_blacklist\") */\n      tag_374\n      jumpi\n      mload(0x40)\n      0x08c379a000000000000000000000000000000000000000000000000000000000\n      dup2\n      mstore\n      0x04\n      add\n      tag_375\n      swap1\n      tag_376\n      jump\t// in\n    tag_375:\n      mload(0x40)\n      dup1\n      swap2\n      sub\n      swap1\n      revert\n    tag_374:\n        /* \"contracts/BOMB_flattened.sol\":27859:27866  _inSwap */\n      0x14\n      dup1\n      sload\n      swap1\n      0x0100\n      exp\n      swap1\n      div\n      0xff\n      and\n        /* \"contracts/BOMB_flattened.sol\":27855:27928  if (_inSwap) {... */\n      iszero\n      tag_377\n      jumpi\n        /* \"contracts/BOMB_flattened.sol\":27881:27922  _basicTransfer(sender, recipient, amount) */\n      tag_378\n        /* \"contracts/BOMB_flattened.sol\":27896:27902  sender */\n      dup5\n        /* \"contracts/BOMB_flattened.sol\":27904:27913  recipient */\n      dup5\n        /* \"contracts/BOMB_flattened.sol\":27915:27921  amount */\n      dup5\n        /* \"contracts/BOMB_flattened.sol\":27881:27895  _basicTransfer */\n      tag_379\n        /* \"contracts/BOMB_flattened.sol\":27881:27922  _basicTransfer(sender, recipient, amount) */\n      jump\t// in\n    tag_378:\n        /* \"contracts/BOMB_flattened.sol\":27874:27922  return _basicTransfer(sender, recipient, amount) */\n      swap1\n      pop\n      jump(tag_372)\n        /* \"contracts/BOMB_flattened.sol\":27855:27928  if (_inSwap) {... */\n    tag_377:\n        /* \"contracts/BOMB_flattened.sol\":27936:27950  shouldRebase() */\n      tag_380\n        /* \"contracts/BOMB_flattened.sol\":27936:27948  shouldRebase */\n      tag_381\n        /* \"contracts/BOMB_flattened.sol\":27936:27950  shouldRebase() */\n      jump\t// in\n    tag_380:\n        /* \"contracts/BOMB_flattened.sol\":27932:27973  if (shouldRebase()) {... */\n      iszero\n      tag_382\n      jumpi\n        /* \"contracts/BOMB_flattened.sol\":27958:27967  _rebase() */\n      tag_383\n        /* \"contracts/BOMB_flattened.sol\":27958:27965  _rebase */\n      tag_384\n        /* \"contracts/BOMB_flattened.sol\":27958:27967  _rebase() */\n      jump\t// in\n    tag_383:\n        /* \"contracts/BOMB_flattened.sol\":27932:27973  if (shouldRebase()) {... */\n    tag_382:\n        /* \"contracts/BOMB_flattened.sol\":27983:27999  shouldSwapBack() */\n      tag_385\n        /* \"contracts/BOMB_flattened.sol\":27983:27997  shouldSwapBack */\n      tag_386\n        /* \"contracts/BOMB_flattened.sol\":27983:27999  shouldSwapBack() */\n      jump\t// in\n    tag_385:\n        /* \"contracts/BOMB_flattened.sol\":27979:28024  if (shouldSwapBack()) {... */\n      iszero\n      tag_387\n      jumpi\n        /* \"contracts/BOMB_flattened.sol\":28007:28018  _swapBack() */\n      tag_388\n        /* \"contracts/BOMB_flattened.sol\":28007:28016  _swapBack */\n      tag_389\n        /* \"contracts/BOMB_flattened.sol\":28007:28018  _swapBack() */\n      jump\t// in\n    tag_388:\n        /* \"contracts/BOMB_flattened.sol\":27979:28024  if (shouldSwapBack()) {... */\n    tag_387:\n        /* \"contracts/BOMB_flattened.sol\":28034:28052  shouldDistribute() */\n      tag_390\n        /* \"contracts/BOMB_flattened.sol\":28034:28050  shouldDistribute */\n      tag_391\n        /* \"contracts/BOMB_flattened.sol\":28034:28052  shouldDistribute() */\n      jump\t// in\n    tag_390:\n        /* \"contracts/BOMB_flattened.sol\":28030:28106  if (shouldDistribute()) {... */\n      iszero\n      tag_392\n      jumpi\n        /* \"contracts/BOMB_flattened.sol\":28060:28100  _distributeNative(address(this).balance) */\n      tag_393\n        /* \"contracts/BOMB_flattened.sol\":28078:28099  address(this).balance */\n      selfbalance\n        /* \"contracts/BOMB_flattened.sol\":28060:28077  _distributeNative */\n      tag_368\n        /* \"contracts/BOMB_flattened.sol\":28060:28100  _distributeNative(address(this).balance) */\n      jump\t// in\n    tag_393:\n        /* \"contracts/BOMB_flattened.sol\":28030:28106  if (shouldDistribute()) {... */\n    tag_392:\n        /* \"contracts/BOMB_flattened.sol\":28112:28139  _subBalance(sender, amount) */\n      tag_394\n        /* \"contracts/BOMB_flattened.sol\":28124:28130  sender */\n      dup5\n        /* \"contracts/BOMB_flattened.sol\":28132:28138  amount */\n      dup4\n        /* \"contracts/BOMB_flattened.sol\":28112:28123  _subBalance */\n      tag_395\n        /* \"contracts/BOMB_flattened.sol\":28112:28139  _subBalance(sender, amount) */\n      jump\t// in\n    tag_394:\n        /* \"contracts/BOMB_flattened.sol\":28146:28168  uint256 amountReceived */\n      0x00\n        /* \"contracts/BOMB_flattened.sol\":28171:28203  shouldTakeFee(sender, recipient) */\n      tag_396\n        /* \"contracts/BOMB_flattened.sol\":28185:28191  sender */\n      dup6\n        /* \"contracts/BOMB_flattened.sol\":28193:28202  recipient */\n      dup6\n        /* \"contracts/BOMB_flattened.sol\":28171:28184  shouldTakeFee */\n      tag_397\n        /* \"contracts/BOMB_flattened.sol\":28171:28203  shouldTakeFee(sender, recipient) */\n      jump\t// in\n    tag_396:\n        /* \"contracts/BOMB_flattened.sol\":28171:28239  shouldTakeFee(sender, recipient) ? _takeFee(sender, amount) : amount */\n      tag_398\n      jumpi\n        /* \"contracts/BOMB_flattened.sol\":28233:28239  amount */\n      dup3\n        /* \"contracts/BOMB_flattened.sol\":28171:28239  shouldTakeFee(sender, recipient) ? _takeFee(sender, amount) : amount */\n      jump(tag_399)\n    tag_398:\n        /* \"contracts/BOMB_flattened.sol\":28206:28230  _takeFee(sender, amount) */\n      tag_400\n        /* \"contracts/BOMB_flattened.sol\":28215:28221  sender */\n      dup6\n        /* \"contracts/BOMB_flattened.sol\":28223:28229  amount */\n      dup5\n        /* \"contracts/BOMB_flattened.sol\":28206:28214  _takeFee */\n      tag_401\n        /* \"contracts/BOMB_flattened.sol\":28206:28230  _takeFee(sender, amount) */\n      jump\t// in\n    tag_400:\n        /* \"contracts/BOMB_flattened.sol\":28171:28239  shouldTakeFee(sender, recipient) ? _takeFee(sender, amount) : amount */\n    tag_399:\n        /* \"contracts/BOMB_flattened.sol\":28146:28239  uint256 amountReceived = shouldTakeFee(sender, recipient) ? _takeFee(sender, amount) : amount */\n      swap1\n      pop\n        /* \"contracts/BOMB_flattened.sol\":28244:28282  _addBalance(recipient, amountReceived) */\n      tag_402\n        /* \"contracts/BOMB_flattened.sol\":28256:28265  recipient */\n      dup5\n        /* \"contracts/BOMB_flattened.sol\":28267:28281  amountReceived */\n      dup3\n        /* \"contracts/BOMB_flattened.sol\":28244:28255  _addBalance */\n      tag_403\n        /* \"contracts/BOMB_flattened.sol\":28244:28282  _addBalance(recipient, amountReceived) */\n      jump\t// in\n    tag_402:\n        /* \"contracts/BOMB_flattened.sol\":28311:28320  recipient */\n      dup4\n        /* \"contracts/BOMB_flattened.sol\":28294:28337  Transfer(sender, recipient, amountReceived) */\n      0xffffffffffffffffffffffffffffffffffffffff\n      and\n        /* \"contracts/BOMB_flattened.sol\":28303:28309  sender */\n      dup6\n        /* \"contracts/BOMB_flattened.sol\":28294:28337  Transfer(sender, recipient, amountReceived) */\n      0xffffffffffffffffffffffffffffffffffffffff\n      and\n      0xddf252ad1be2c89b69c2b068fc378daa952ba7f163c4a11628f55a4df523b3ef\n        /* \"contracts/BOMB_flattened.sol\":28322:28336  amountReceived */\n      dup4\n        /* \"contracts/BOMB_flattened.sol\":28294:28337  Transfer(sender, recipient, amountReceived) */\n      mload(0x40)\n      tag_404\n      swap2\n      swap1\n      tag_69\n      jump\t// in\n    tag_404:\n      mload(0x40)\n      dup1\n      swap2\n      sub\n      swap1\n      log3\n        /* \"contracts/BOMB_flattened.sol\":28351:28355  true */\n      0x01\n        /* \"contracts/BOMB_flattened.sol\":28344:28355  return true */\n      swap2\n      pop\n      pop\n        /* \"contracts/BOMB_flattened.sol\":27675:28360  function _transferFrom(address sender, address recipient, uint256 amount) internal returns (bool) {... */\n    tag_372:\n      swap4\n      swap3\n      pop\n      pop\n      pop\n      jump\t// out\n        /* \"contracts/BOMB_flattened.sol\":23983:24134  function isContract(address addr) internal view returns (bool) {... */\n    tag_283:\n        /* \"contracts/BOMB_flattened.sol\":24040:24044  bool */\n      0x00\n        /* \"contracts/BOMB_flattened.sol\":24051:24060  uint size */\n      dup1\n        /* \"contracts/BOMB_flattened.sol\":24100:24104  addr */\n      dup3\n        /* \"contracts/BOMB_flattened.sol\":24088:24105  extcodesize(addr) */\n      extcodesize\n        /* \"contracts/BOMB_flattened.sol\":24080:24105  size := extcodesize(addr) */\n      swap1\n      pop\n        /* \"contracts/BOMB_flattened.sol\":24128:24129  0 */\n      0x00\n        /* \"contracts/BOMB_flattened.sol\":24121:24125  size */\n      dup2\n        /* \"contracts/BOMB_flattened.sol\":24121:24129  size > 0 */\n      gt\n        /* \"contracts/BOMB_flattened.sol\":24114:24129  return size > 0 */\n      swap2\n      pop\n      pop\n        /* \"contracts/BOMB_flattened.sol\":23983:24134  function isContract(address addr) internal view returns (bool) {... */\n      swap2\n      swap1\n      pop\n      jump\t// out\n        /* \"contracts/BOMB_flattened.sol\":3804:3893  function add(uint256 a, uint256 b) internal pure returns (uint256) {... */\n    tag_289:\n        /* \"contracts/BOMB_flattened.sol\":3862:3869  uint256 */\n      0x00\n        /* \"contracts/BOMB_flattened.sol\":3887:3888  b */\n      dup2\n        /* \"contracts/BOMB_flattened.sol\":3883:3884  a */\n      dup4\n        /* \"contracts/BOMB_flattened.sol\":3883:3888  a + b */\n      tag_407\n      swap2\n      swap1\n      tag_248\n      jump\t// in\n    tag_407:\n        /* \"contracts/BOMB_flattened.sol\":3876:3888  return a + b */\n      swap1\n      pop\n        /* \"contracts/BOMB_flattened.sol\":3804:3893  function add(uint256 a, uint256 b) internal pure returns (uint256) {... */\n      swap3\n      swap2\n      pop\n      pop\n      jump\t// out\n        /* \"contracts/BOMB_flattened.sol\":4143:4232  function sub(uint256 a, uint256 b) internal pure returns (uint256) {... */\n    tag_329:\n        /* \"contracts/BOMB_flattened.sol\":4201:4208  uint256 */\n      0x00\n        /* \"contracts/BOMB_flattened.sol\":4226:4227  b */\n      dup2\n        /* \"contracts/BOMB_flattened.sol\":4222:4223  a */\n      dup4\n        /* \"contracts/BOMB_flattened.sol\":4222:4227  a - b */\n      tag_409\n      swap2\n      swap1\n      tag_410\n      jump\t// in\n    tag_409:\n        /* \"contracts/BOMB_flattened.sol\":4215:4227  return a - b */\n      swap1\n      pop\n        /* \"contracts/BOMB_flattened.sol\":4143:4232  function sub(uint256 a, uint256 b) internal pure returns (uint256) {... */\n      swap3\n      swap2\n      pop\n      pop\n      jump\t// out\n        /* \"contracts/BOMB_flattened.sol\":18907:19073  function _transferOwnership(address newOwner) internal {... */\n    tag_365:\n        /* \"contracts/BOMB_flattened.sol\":18995:18996  0 */\n      0x00\n        /* \"contracts/BOMB_flattened.sol\":18975:18997  newOwner != address(0) */\n      0xffffffffffffffffffffffffffffffffffffffff\n      and\n        /* \"contracts/BOMB_flattened.sol\":18975:18983  newOwner */\n      dup2\n        /* \"contracts/BOMB_flattened.sol\":18975:18997  newOwner != address(0) */\n      0xffffffffffffffffffffffffffffffffffffffff\n      and\n      sub\n        /* \"contracts/BOMB_flattened.sol\":18967:18998  require(newOwner != address(0)) */\n      tag_412\n      jumpi\n      0x00\n      dup1\n      revert\n    tag_412:\n        /* \"contracts/BOMB_flattened.sol\":19037:19045  newOwner */\n      dup1\n        /* \"contracts/BOMB_flattened.sol\":19008:19046  OwnershipTransferred(_owner, newOwner) */\n      0xffffffffffffffffffffffffffffffffffffffff\n      and\n        /* \"contracts/BOMB_flattened.sol\":19029:19035  _owner */\n      0x02\n      0x01\n      swap1\n      sload\n      swap1\n      0x0100\n      exp\n      swap1\n      div\n      0xffffffffffffffffffffffffffffffffffffffff\n      and\n        /* \"contracts/BOMB_flattened.sol\":19008:19046  OwnershipTransferred(_owner, newOwner) */\n      0xffffffffffffffffffffffffffffffffffffffff\n      and\n      0x8be0079c531659141344cd1fd0a4f28419497f9722a3daafe3b4186f6b6457e0\n      mload(0x40)\n      mload(0x40)\n      dup1\n      swap2\n      sub\n      swap1\n      log3\n        /* \"contracts/BOMB_flattened.sol\":19060:19068  newOwner */\n      dup1\n        /* \"contracts/BOMB_flattened.sol\":19051:19057  _owner */\n      0x02\n      0x01\n        /* \"contracts/BOMB_flattened.sol\":19051:19068  _owner = newOwner */\n      0x0100\n      exp\n      dup2\n      sload\n      dup2\n      0xffffffffffffffffffffffffffffffffffffffff\n      mul\n      not\n      and\n      swap1\n      dup4\n      0xffffffffffffffffffffffffffffffffffffffff\n      and\n      mul\n      or\n      swap1\n      sstore\n      pop\n        /* \"contracts/BOMB_flattened.sol\":18907:19073  function _transferOwnership(address newOwner) internal {... */\n      pop\n      jump\t// out\n        /* \"contracts/BOMB_flattened.sol\":28638:29034  function _distributeNative(uint256 amount) internal {... */\n    tag_368:\n        /* \"contracts/BOMB_flattened.sol\":28709:28710  0 */\n      0x00\n        /* \"contracts/BOMB_flattened.sol\":28699:28705  amount */\n      dup2\n        /* \"contracts/BOMB_flattened.sol\":28699:28710  amount <= 0 */\n      gt\n        /* \"contracts/BOMB_flattened.sol\":28695:28730  if (amount <= 0) {... */\n      iszero\n        /* \"contracts/BOMB_flattened.sol\":28718:28725  return; */\n      tag_413\n        /* \"contracts/BOMB_flattened.sol\":28695:28730  if (amount <= 0) {... */\n      jumpi\n        /* \"contracts/BOMB_flattened.sol\":28736:28750  address holder */\n      0x00\n        /* \"contracts/BOMB_flattened.sol\":28755:28766  uint256 cut */\n      dup1\n        /* \"contracts/BOMB_flattened.sol\":28778:28784  uint i */\n      0x00\n        /* \"contracts/BOMB_flattened.sol\":28773:29030  for (uint i = 0; i < _holders.length; i++) {... */\n    tag_415:\n        /* \"contracts/BOMB_flattened.sol\":28794:28802  _holders */\n      0x12\n        /* \"contracts/BOMB_flattened.sol\":28794:28809  _holders.length */\n      dup1\n      sload\n      swap1\n      pop\n        /* \"contracts/BOMB_flattened.sol\":28790:28791  i */\n      dup2\n        /* \"contracts/BOMB_flattened.sol\":28790:28809  i < _holders.length */\n      lt\n        /* \"contracts/BOMB_flattened.sol\":28773:29030  for (uint i = 0; i < _holders.length; i++) {... */\n      iszero\n      tag_416\n      jumpi\n        /* \"contracts/BOMB_flattened.sol\":28831:28839  _holders */\n      0x12\n        /* \"contracts/BOMB_flattened.sol\":28840:28841  i */\n      dup2\n        /* \"contracts/BOMB_flattened.sol\":28831:28842  _holders[i] */\n      dup2\n      sload\n      dup2\n      lt\n      tag_418\n      jumpi\n      tag_419\n      tag_420\n      jump\t// in\n    tag_419:\n    tag_418:\n      swap1\n      0x00\n      mstore\n      keccak256(0x00, 0x20)\n      add\n      0x00\n      swap1\n      sload\n      swap1\n      0x0100\n      exp\n      swap1\n      div\n      0xffffffffffffffffffffffffffffffffffffffff\n      and\n        /* \"contracts/BOMB_flattened.sol\":28822:28842  holder = _holders[i] */\n      swap3\n      pop\n        /* \"contracts/BOMB_flattened.sol\":28855:28878  _isExternalAddr(holder) */\n      tag_422\n        /* \"contracts/BOMB_flattened.sol\":28871:28877  holder */\n      dup4\n        /* \"contracts/BOMB_flattened.sol\":28855:28870  _isExternalAddr */\n      tag_423\n        /* \"contracts/BOMB_flattened.sol\":28855:28878  _isExternalAddr(holder) */\n      jump\t// in\n    tag_422:\n        /* \"contracts/BOMB_flattened.sol\":28850:28902  if (!_isExternalAddr(holder)) {... */\n      iszero\n        /* \"contracts/BOMB_flattened.sol\":28887:28895  continue */\n      tag_417\n        /* \"contracts/BOMB_flattened.sol\":28850:28902  if (!_isExternalAddr(holder)) {... */\n      jumpi\n        /* \"contracts/BOMB_flattened.sol\":28915:28962  amount.mul(_balances[holder]).div(_totalSupply) */\n      tag_425\n        /* \"contracts/BOMB_flattened.sol\":28949:28961  _totalSupply */\n      sload(0x0c)\n        /* \"contracts/BOMB_flattened.sol\":28915:28944  amount.mul(_balances[holder]) */\n      tag_426\n        /* \"contracts/BOMB_flattened.sol\":28926:28935  _balances */\n      0x0e\n        /* \"contracts/BOMB_flattened.sol\":28926:28943  _balances[holder] */\n      0x00\n        /* \"contracts/BOMB_flattened.sol\":28936:28942  holder */\n      dup8\n        /* \"contracts/BOMB_flattened.sol\":28926:28943  _balances[holder] */\n      0xffffffffffffffffffffffffffffffffffffffff\n      and\n      0xffffffffffffffffffffffffffffffffffffffff\n      and\n      dup2\n      mstore\n      0x20\n      add\n      swap1\n      dup2\n      mstore\n      0x20\n      add\n      0x00\n      keccak256\n      sload\n        /* \"contracts/BOMB_flattened.sol\":28915:28921  amount */\n      dup8\n        /* \"contracts/BOMB_flattened.sol\":28915:28925  amount.mul */\n      tag_427\n      swap1\n        /* \"contracts/BOMB_flattened.sol\":28915:28944  amount.mul(_balances[holder]) */\n      swap2\n      swap1\n      0xffffffff\n      and\n      jump\t// in\n    tag_426:\n        /* \"contracts/BOMB_flattened.sol\":28915:28948  amount.mul(_balances[holder]).div */\n      tag_428\n      swap1\n        /* \"contracts/BOMB_flattened.sol\":28915:28962  amount.mul(_balances[holder]).div(_totalSupply) */\n      swap2\n      swap1\n      0xffffffff\n      and\n      jump\t// in\n    tag_425:\n        /* \"contracts/BOMB_flattened.sol\":28909:28962  cut = amount.mul(_balances[holder]).div(_totalSupply) */\n      swap2\n      pop\n        /* \"contracts/BOMB_flattened.sol\":28980:28981  0 */\n      0x00\n        /* \"contracts/BOMB_flattened.sol\":28974:28977  cut */\n      dup3\n        /* \"contracts/BOMB_flattened.sol\":28974:28981  cut > 0 */\n      gt\n        /* \"contracts/BOMB_flattened.sol\":28970:29025  if (cut > 0) {... */\n      iszero\n      tag_429\n      jumpi\n        /* \"contracts/BOMB_flattened.sol\":28990:29018  _transferNative(holder, cut) */\n      tag_430\n        /* \"contracts/BOMB_flattened.sol\":29006:29012  holder */\n      dup4\n        /* \"contracts/BOMB_flattened.sol\":29014:29017  cut */\n      dup4\n        /* \"contracts/BOMB_flattened.sol\":28990:29005  _transferNative */\n      tag_431\n        /* \"contracts/BOMB_flattened.sol\":28990:29018  _transferNative(holder, cut) */\n      jump\t// in\n    tag_430:\n      pop\n        /* \"contracts/BOMB_flattened.sol\":28970:29025  if (cut > 0) {... */\n    tag_429:\n        /* \"contracts/BOMB_flattened.sol\":28773:29030  for (uint i = 0; i < _holders.length; i++) {... */\n    tag_417:\n        /* \"contracts/BOMB_flattened.sol\":28811:28814  i++ */\n      dup1\n      dup1\n      0x01\n      add\n      swap2\n      pop\n      pop\n        /* \"contracts/BOMB_flattened.sol\":28773:29030  for (uint i = 0; i < _holders.length; i++) {... */\n      jump(tag_415)\n    tag_416:\n      pop\n        /* \"contracts/BOMB_flattened.sol\":28690:29034  {... */\n      pop\n      pop\n        /* \"contracts/BOMB_flattened.sol\":28638:29034  function _distributeNative(uint256 amount) internal {... */\n    tag_413:\n      pop\n      jump\t// out\n        /* \"contracts/BOMB_flattened.sol\":27501:27670  function _basicTransfer(address from, address to, uint256 amount) internal returns (bool) {... */\n    tag_379:\n        /* \"contracts/BOMB_flattened.sol\":27585:27589  bool */\n      0x00\n        /* \"contracts/BOMB_flattened.sol\":27596:27621  _subBalance(from, amount) */\n      tag_433\n        /* \"contracts/BOMB_flattened.sol\":27608:27612  from */\n      dup5\n        /* \"contracts/BOMB_flattened.sol\":27614:27620  amount */\n      dup4\n        /* \"contracts/BOMB_flattened.sol\":27596:27607  _subBalance */\n      tag_395\n        /* \"contracts/BOMB_flattened.sol\":27596:27621  _subBalance(from, amount) */\n      jump\t// in\n    tag_433:\n        /* \"contracts/BOMB_flattened.sol\":27626:27649  _addBalance(to, amount) */\n      tag_434\n        /* \"contracts/BOMB_flattened.sol\":27638:27640  to */\n      dup4\n        /* \"contracts/BOMB_flattened.sol\":27642:27648  amount */\n      dup4\n        /* \"contracts/BOMB_flattened.sol\":27626:27637  _addBalance */\n      tag_403\n        /* \"contracts/BOMB_flattened.sol\":27626:27649  _addBalance(to, amount) */\n      jump\t// in\n    tag_434:\n        /* \"contracts/BOMB_flattened.sol\":27661:27665  true */\n      0x01\n        /* \"contracts/BOMB_flattened.sol\":27654:27665  return true */\n      swap1\n      pop\n        /* \"contracts/BOMB_flattened.sol\":27501:27670  function _basicTransfer(address from, address to, uint256 amount) internal returns (bool) {... */\n      swap4\n      swap3\n      pop\n      pop\n      pop\n      jump\t// out\n        /* \"contracts/BOMB_flattened.sol\":24310:24520  function shouldRebase() internal view returns (bool) {... */\n    tag_381:\n        /* \"contracts/BOMB_flattened.sol\":24357:24361  bool */\n      0x00\n        /* \"contracts/BOMB_flattened.sol\":24375:24386  _autoRebase */\n      0x09\n      0x00\n      swap1\n      sload\n      swap1\n      0x0100\n      exp\n      swap1\n      div\n      0xff\n      and\n        /* \"contracts/BOMB_flattened.sol\":24375:24417  _autoRebase && (_totalSupply < MAX_SUPPLY) */\n      dup1\n      iszero\n      tag_436\n      jumpi\n      pop\n        /* \"contracts/BOMB_flattened.sol\":20667:20668  5 */\n      0x05\n        /* \"contracts/BOMB_flattened.sol\":20827:20829  10 */\n      0x0a\n        /* \"contracts/BOMB_flattened.sol\":20827:20841  10 ** DECIMALS */\n      tag_437\n      swap2\n      swap1\n      tag_438\n      jump\t// in\n    tag_437:\n        /* \"contracts/BOMB_flattened.sol\":20811:20824  325 * 10 ** 7 */\n      0xc1b71080\n        /* \"contracts/BOMB_flattened.sol\":20811:20841  325 * 10 ** 7 * 10 ** DECIMALS */\n      tag_439\n      swap2\n      swap1\n      tag_440\n      jump\t// in\n    tag_439:\n        /* \"contracts/BOMB_flattened.sol\":24391:24403  _totalSupply */\n      sload(0x0c)\n        /* \"contracts/BOMB_flattened.sol\":24391:24416  _totalSupply < MAX_SUPPLY */\n      lt\n        /* \"contracts/BOMB_flattened.sol\":24375:24417  _autoRebase && (_totalSupply < MAX_SUPPLY) */\n    tag_436:\n        /* \"contracts/BOMB_flattened.sol\":24375:24449  _autoRebase && (_totalSupply < MAX_SUPPLY) && msg.sender != address(_pair) */\n      dup1\n      iszero\n      tag_441\n      jumpi\n      pop\n        /* \"contracts/BOMB_flattened.sol\":24443:24448  _pair */\n      0x14\n      0x00\n      swap1\n      sload\n      swap1\n      0x0100\n      exp\n      swap1\n      div\n      0xffffffffffffffffffffffffffffffffffffffff\n      and\n        /* \"contracts/BOMB_flattened.sol\":24421:24449  msg.sender != address(_pair) */\n      0xffffffffffffffffffffffffffffffffffffffff\n      and\n        /* \"contracts/BOMB_flattened.sol\":24421:24431  msg.sender */\n      caller\n        /* \"contracts/BOMB_flattened.sol\":24421:24449  msg.sender != address(_pair) */\n      0xffffffffffffffffffffffffffffffffffffffff\n      and\n      eq\n      iszero\n        /* \"contracts/BOMB_flattened.sol\":24375:24449  _autoRebase && (_totalSupply < MAX_SUPPLY) && msg.sender != address(_pair) */\n    tag_441:\n        /* \"contracts/BOMB_flattened.sol\":24375:24461  _autoRebase && (_totalSupply < MAX_SUPPLY) && msg.sender != address(_pair) && !_inSwap */\n      dup1\n      iszero\n      tag_442\n      jumpi\n      pop\n        /* \"contracts/BOMB_flattened.sol\":24454:24461  _inSwap */\n      0x14\n      dup1\n      sload\n      swap1\n      0x0100\n      exp\n      swap1\n      div\n      0xff\n      and\n        /* \"contracts/BOMB_flattened.sol\":24453:24461  !_inSwap */\n      iszero\n        /* \"contracts/BOMB_flattened.sol\":24375:24461  _autoRebase && (_totalSupply < MAX_SUPPLY) && msg.sender != address(_pair) && !_inSwap */\n    tag_442:\n        /* \"contracts/BOMB_flattened.sol\":24375:24515  _autoRebase && (_totalSupply < MAX_SUPPLY) && msg.sender != address(_pair) && !_inSwap && block.timestamp >= (_lastRebasedTime + 15 minutes) */\n      dup1\n      iszero\n      tag_443\n      jumpi\n      pop\n        /* \"contracts/BOMB_flattened.sol\":24504:24514  15 minutes */\n      0x0384\n        /* \"contracts/BOMB_flattened.sol\":24485:24501  _lastRebasedTime */\n      sload(0x0b)\n        /* \"contracts/BOMB_flattened.sol\":24485:24514  _lastRebasedTime + 15 minutes */\n      tag_444\n      swap2\n      swap1\n      tag_248\n      jump\t// in\n    tag_444:\n        /* \"contracts/BOMB_flattened.sol\":24465:24480  block.timestamp */\n      timestamp\n        /* \"contracts/BOMB_flattened.sol\":24465:24515  block.timestamp >= (_lastRebasedTime + 15 minutes) */\n      lt\n      iszero\n        /* \"contracts/BOMB_flattened.sol\":24375:24515  _autoRebase && (_totalSupply < MAX_SUPPLY) && msg.sender != address(_pair) && !_inSwap && block.timestamp >= (_lastRebasedTime + 15 minutes) */\n    tag_443:\n        /* \"contracts/BOMB_flattened.sol\":24368:24515  return _autoRebase && (_totalSupply < MAX_SUPPLY) && msg.sender != address(_pair) && !_inSwap && block.timestamp >= (_lastRebasedTime + 15 minutes) */\n      swap1\n      pop\n        /* \"contracts/BOMB_flattened.sol\":24310:24520  function shouldRebase() internal view returns (bool) {... */\n      swap1\n      jump\t// out\n        /* \"contracts/BOMB_flattened.sol\":29039:29856  function _rebase() internal {... */\n    tag_384:\n        /* \"contracts/BOMB_flattened.sol\":29076:29083  _inSwap */\n      0x14\n      dup1\n      sload\n      swap1\n      0x0100\n      exp\n      swap1\n      div\n      0xff\n      and\n        /* \"contracts/BOMB_flattened.sol\":29085:29092  return; */\n      tag_445\n        /* \"contracts/BOMB_flattened.sol\":29072:29092  if (_inSwap) return; */\n      jumpi\n        /* \"contracts/BOMB_flattened.sol\":29096:29114  uint256 rebaseRate */\n      0x00\n        /* \"contracts/BOMB_flattened.sol\":29119:29144  uint256 deltaTimeFromInit */\n      dup1\n        /* \"contracts/BOMB_flattened.sol\":29165:29185  _initRebaseStartTime */\n      sload(0x0a)\n        /* \"contracts/BOMB_flattened.sol\":29147:29162  block.timestamp */\n      timestamp\n        /* \"contracts/BOMB_flattened.sol\":29147:29185  block.timestamp - _initRebaseStartTime */\n      tag_447\n      swap2\n      swap1\n      tag_410\n      jump\t// in\n    tag_447:\n        /* \"contracts/BOMB_flattened.sol\":29119:29185  uint256 deltaTimeFromInit = block.timestamp - _initRebaseStartTime */\n      swap1\n      pop\n        /* \"contracts/BOMB_flattened.sol\":29190:29207  uint256 deltaTime */\n      0x00\n        /* \"contracts/BOMB_flattened.sol\":29228:29244  _lastRebasedTime */\n      sload(0x0b)\n        /* \"contracts/BOMB_flattened.sol\":29210:29225  block.timestamp */\n      timestamp\n        /* \"contracts/BOMB_flattened.sol\":29210:29244  block.timestamp - _lastRebasedTime */\n      tag_448\n      swap2\n      swap1\n      tag_410\n      jump\t// in\n    tag_448:\n        /* \"contracts/BOMB_flattened.sol\":29190:29244  uint256 deltaTime = block.timestamp - _lastRebasedTime */\n      swap1\n      pop\n        /* \"contracts/BOMB_flattened.sol\":29249:29262  uint256 times */\n      0x00\n        /* \"contracts/BOMB_flattened.sol\":29265:29290  deltaTime.div(15 minutes) */\n      tag_449\n        /* \"contracts/BOMB_flattened.sol\":29279:29289  15 minutes */\n      0x0384\n        /* \"contracts/BOMB_flattened.sol\":29265:29274  deltaTime */\n      dup4\n        /* \"contracts/BOMB_flattened.sol\":29265:29278  deltaTime.div */\n      tag_428\n      swap1\n        /* \"contracts/BOMB_flattened.sol\":29265:29290  deltaTime.div(15 minutes) */\n      swap2\n      swap1\n      0xffffffff\n      and\n      jump\t// in\n    tag_449:\n        /* \"contracts/BOMB_flattened.sol\":29249:29290  uint256 times = deltaTime.div(15 minutes) */\n      swap1\n      pop\n        /* \"contracts/BOMB_flattened.sol\":29295:29308  uint256 epoch */\n      0x00\n        /* \"contracts/BOMB_flattened.sol\":29311:29324  times.mul(15) */\n      tag_450\n        /* \"contracts/BOMB_flattened.sol\":29321:29323  15 */\n      0x0f\n        /* \"contracts/BOMB_flattened.sol\":29311:29316  times */\n      dup4\n        /* \"contracts/BOMB_flattened.sol\":29311:29320  times.mul */\n      tag_427\n      swap1\n        /* \"contracts/BOMB_flattened.sol\":29311:29324  times.mul(15) */\n      swap2\n      swap1\n      0xffffffff\n      and\n      jump\t// in\n    tag_450:\n        /* \"contracts/BOMB_flattened.sol\":29295:29324  uint256 epoch = times.mul(15) */\n      swap1\n      pop\n        /* \"contracts/BOMB_flattened.sol\":29356:29368  3 * 365 days */\n      0x05a39a80\n        /* \"contracts/BOMB_flattened.sol\":29335:29352  deltaTimeFromInit */\n      dup5\n        /* \"contracts/BOMB_flattened.sol\":29335:29369  deltaTimeFromInit > (3 * 365 days) */\n      gt\n        /* \"contracts/BOMB_flattened.sol\":29331:29575  if (deltaTimeFromInit > (3 * 365 days)) {... */\n      iszero\n      tag_451\n      jumpi\n        /* \"contracts/BOMB_flattened.sol\":29390:29391  1 */\n      0x01\n        /* \"contracts/BOMB_flattened.sol\":29377:29391  rebaseRate = 1 */\n      swap5\n      pop\n        /* \"contracts/BOMB_flattened.sol\":29331:29575  if (deltaTimeFromInit > (3 * 365 days)) {... */\n      jump(tag_452)\n    tag_451:\n        /* \"contracts/BOMB_flattened.sol\":29429:29441  2 * 365 days */\n      0x03c26700\n        /* \"contracts/BOMB_flattened.sol\":29407:29424  deltaTimeFromInit */\n      dup5\n        /* \"contracts/BOMB_flattened.sol\":29407:29442  deltaTimeFromInit >= (2 * 365 days) */\n      lt\n        /* \"contracts/BOMB_flattened.sol\":29403:29575  if (deltaTimeFromInit >= (2 * 365 days)) {... */\n      tag_453\n      jumpi\n        /* \"contracts/BOMB_flattened.sol\":29463:29465  19 */\n      0x13\n        /* \"contracts/BOMB_flattened.sol\":29450:29465  rebaseRate = 19 */\n      swap5\n      pop\n        /* \"contracts/BOMB_flattened.sol\":29403:29575  if (deltaTimeFromInit >= (2 * 365 days)) {... */\n      jump(tag_454)\n    tag_453:\n        /* \"contracts/BOMB_flattened.sol\":29502:29510  365 days */\n      0x01e13380\n        /* \"contracts/BOMB_flattened.sol\":29481:29498  deltaTimeFromInit */\n      dup5\n        /* \"contracts/BOMB_flattened.sol\":29481:29510  deltaTimeFromInit >= 365 days */\n      lt\n        /* \"contracts/BOMB_flattened.sol\":29477:29575  if (deltaTimeFromInit >= 365 days) {... */\n      tag_455\n      jumpi\n        /* \"contracts/BOMB_flattened.sol\":29531:29534  191 */\n      0xbf\n        /* \"contracts/BOMB_flattened.sol\":29518:29534  rebaseRate = 191 */\n      swap5\n      pop\n        /* \"contracts/BOMB_flattened.sol\":29477:29575  if (deltaTimeFromInit >= 365 days) {... */\n      jump(tag_456)\n    tag_455:\n        /* \"contracts/BOMB_flattened.sol\":29565:29569  1915 */\n      0x077b\n        /* \"contracts/BOMB_flattened.sol\":29552:29569  rebaseRate = 1915 */\n      swap5\n      pop\n        /* \"contracts/BOMB_flattened.sol\":29477:29575  if (deltaTimeFromInit >= 365 days) {... */\n    tag_456:\n        /* \"contracts/BOMB_flattened.sol\":29403:29575  if (deltaTimeFromInit >= (2 * 365 days)) {... */\n    tag_454:\n        /* \"contracts/BOMB_flattened.sol\":29331:29575  if (deltaTimeFromInit > (3 * 365 days)) {... */\n    tag_452:\n        /* \"contracts/BOMB_flattened.sol\":29586:29595  uint256 i */\n      0x00\n        /* \"contracts/BOMB_flattened.sol\":29581:29724  for (uint256 i = 0; i < times; i++) {... */\n    tag_457:\n        /* \"contracts/BOMB_flattened.sol\":29605:29610  times */\n      dup3\n        /* \"contracts/BOMB_flattened.sol\":29601:29602  i */\n      dup2\n        /* \"contracts/BOMB_flattened.sol\":29601:29610  i < times */\n      lt\n        /* \"contracts/BOMB_flattened.sol\":29581:29724  for (uint256 i = 0; i < times; i++) {... */\n      iszero\n      tag_458\n      jumpi\n        /* \"contracts/BOMB_flattened.sol\":29638:29718  _totalSupply.mul((10 ** RATE_DECIMALS).add(rebaseRate)).div(10 ** RATE_DECIMALS) */\n      tag_460\n        /* \"contracts/BOMB_flattened.sol\":20712:20713  7 */\n      0x07\n        /* \"contracts/BOMB_flattened.sol\":29698:29700  10 */\n      0x0a\n        /* \"contracts/BOMB_flattened.sol\":29698:29717  10 ** RATE_DECIMALS */\n      tag_461\n      swap2\n      swap1\n      tag_438\n      jump\t// in\n    tag_461:\n        /* \"contracts/BOMB_flattened.sol\":29638:29693  _totalSupply.mul((10 ** RATE_DECIMALS).add(rebaseRate)) */\n      tag_462\n        /* \"contracts/BOMB_flattened.sol\":29655:29692  (10 ** RATE_DECIMALS).add(rebaseRate) */\n      tag_463\n        /* \"contracts/BOMB_flattened.sol\":29681:29691  rebaseRate */\n      dup10\n        /* \"contracts/BOMB_flattened.sol\":20712:20713  7 */\n      0x07\n        /* \"contracts/BOMB_flattened.sol\":29656:29658  10 */\n      0x0a\n        /* \"contracts/BOMB_flattened.sol\":29656:29675  10 ** RATE_DECIMALS */\n      tag_464\n      swap2\n      swap1\n      tag_438\n      jump\t// in\n    tag_464:\n        /* \"contracts/BOMB_flattened.sol\":29655:29680  (10 ** RATE_DECIMALS).add */\n      tag_289\n      swap1\n        /* \"contracts/BOMB_flattened.sol\":29655:29692  (10 ** RATE_DECIMALS).add(rebaseRate) */\n      swap2\n      swap1\n      0xffffffff\n      and\n      jump\t// in\n    tag_463:\n        /* \"contracts/BOMB_flattened.sol\":29638:29650  _totalSupply */\n      sload(0x0c)\n        /* \"contracts/BOMB_flattened.sol\":29638:29654  _totalSupply.mul */\n      tag_427\n      swap1\n        /* \"contracts/BOMB_flattened.sol\":29638:29693  _totalSupply.mul((10 ** RATE_DECIMALS).add(rebaseRate)) */\n      swap2\n      swap1\n      0xffffffff\n      and\n      jump\t// in\n    tag_462:\n        /* \"contracts/BOMB_flattened.sol\":29638:29697  _totalSupply.mul((10 ** RATE_DECIMALS).add(rebaseRate)).div */\n      tag_428\n      swap1\n        /* \"contracts/BOMB_flattened.sol\":29638:29718  _totalSupply.mul((10 ** RATE_DECIMALS).add(rebaseRate)).div(10 ** RATE_DECIMALS) */\n      swap2\n      swap1\n      0xffffffff\n      and\n      jump\t// in\n    tag_460:\n        /* \"contracts/BOMB_flattened.sol\":29623:29635  _totalSupply */\n      0x0c\n        /* \"contracts/BOMB_flattened.sol\":29623:29718  _totalSupply = _totalSupply.mul((10 ** RATE_DECIMALS).add(rebaseRate)).div(10 ** RATE_DECIMALS) */\n      dup2\n      swap1\n      sstore\n      pop\n        /* \"contracts/BOMB_flattened.sol\":29612:29615  i++ */\n      dup1\n      dup1\n      0x01\n      add\n      swap2\n      pop\n      pop\n        /* \"contracts/BOMB_flattened.sol\":29581:29724  for (uint256 i = 0; i < times; i++) {... */\n      jump(tag_457)\n    tag_458:\n      pop\n        /* \"contracts/BOMB_flattened.sol\":29749:29792  _lastRebasedTime.add(times.mul(15 minutes)) */\n      tag_465\n        /* \"contracts/BOMB_flattened.sol\":29770:29791  times.mul(15 minutes) */\n      tag_466\n        /* \"contracts/BOMB_flattened.sol\":29780:29790  15 minutes */\n      0x0384\n        /* \"contracts/BOMB_flattened.sol\":29770:29775  times */\n      dup5\n        /* \"contracts/BOMB_flattened.sol\":29770:29779  times.mul */\n      tag_427\n      swap1\n        /* \"contracts/BOMB_flattened.sol\":29770:29791  times.mul(15 minutes) */\n      swap2\n      swap1\n      0xffffffff\n      and\n      jump\t// in\n    tag_466:\n        /* \"contracts/BOMB_flattened.sol\":29749:29765  _lastRebasedTime */\n      sload(0x0b)\n        /* \"contracts/BOMB_flattened.sol\":29749:29769  _lastRebasedTime.add */\n      tag_289\n      swap1\n        /* \"contracts/BOMB_flattened.sol\":29749:29792  _lastRebasedTime.add(times.mul(15 minutes)) */\n      swap2\n      swap1\n      0xffffffff\n      and\n      jump\t// in\n    tag_465:\n        /* \"contracts/BOMB_flattened.sol\":29730:29746  _lastRebasedTime */\n      0x0b\n        /* \"contracts/BOMB_flattened.sol\":29730:29792  _lastRebasedTime = _lastRebasedTime.add(times.mul(15 minutes)) */\n      dup2\n      swap1\n      sstore\n      pop\n        /* \"contracts/BOMB_flattened.sol\":29797:29802  _pair */\n      0x14\n      0x00\n      swap1\n      sload\n      swap1\n      0x0100\n      exp\n      swap1\n      div\n      0xffffffffffffffffffffffffffffffffffffffff\n      and\n        /* \"contracts/BOMB_flattened.sol\":29797:29807  _pair.sync */\n      0xffffffffffffffffffffffffffffffffffffffff\n      and\n      0xfff6cae9\n        /* \"contracts/BOMB_flattened.sol\":29797:29809  _pair.sync() */\n      mload(0x40)\n      dup2\n      0xffffffff\n      and\n      0xe0\n      shl\n      dup2\n      mstore\n      0x04\n      add\n      0x00\n      mload(0x40)\n      dup1\n      dup4\n      sub\n      dup2\n      0x00\n      dup8\n      dup1\n      extcodesize\n      iszero\n      dup1\n      iszero\n      tag_467\n      jumpi\n      0x00\n      dup1\n      revert\n    tag_467:\n      pop\n      gas\n      call\n      iszero\n      dup1\n      iszero\n      tag_469\n      jumpi\n      returndatasize\n      0x00\n      dup1\n      returndatacopy\n      revert(0x00, returndatasize)\n    tag_469:\n      pop\n      pop\n      pop\n      pop\n        /* \"contracts/BOMB_flattened.sol\":29831:29836  epoch */\n      dup1\n        /* \"contracts/BOMB_flattened.sol\":29821:29851  LogRebase(epoch, _totalSupply) */\n      0x72725a3b1e5bd622d6bcd1339bb31279c351abe8f541ac7fd320f24e1b1641f2\n        /* \"contracts/BOMB_flattened.sol\":29838:29850  _totalSupply */\n      sload(0x0c)\n        /* \"contracts/BOMB_flattened.sol\":29821:29851  LogRebase(epoch, _totalSupply) */\n      mload(0x40)\n      tag_470\n      swap2\n      swap1\n      tag_69\n      jump\t// in\n    tag_470:\n      mload(0x40)\n      dup1\n      swap2\n      sub\n      swap1\n      log2\n        /* \"contracts/BOMB_flattened.sol\":29067:29856  {... */\n      pop\n      pop\n      pop\n      pop\n      pop\n        /* \"contracts/BOMB_flattened.sol\":29039:29856  function _rebase() internal {... */\n    tag_445:\n      jump\t// out\n        /* \"contracts/BOMB_flattened.sol\":24525:24654  function shouldSwapBack() internal view returns (bool) {... */\n    tag_386:\n        /* \"contracts/BOMB_flattened.sol\":24574:24578  bool */\n      0x00\n        /* \"contracts/BOMB_flattened.sol\":24592:24605  _autoSwapBack */\n      0x09\n      0x01\n      swap1\n      sload\n      swap1\n      0x0100\n      exp\n      swap1\n      div\n      0xff\n      and\n        /* \"contracts/BOMB_flattened.sol\":24592:24617  _autoSwapBack && !_inSwap */\n      dup1\n      iszero\n      tag_472\n      jumpi\n      pop\n        /* \"contracts/BOMB_flattened.sol\":24610:24617  _inSwap */\n      0x14\n      dup1\n      sload\n      swap1\n      0x0100\n      exp\n      swap1\n      div\n      0xff\n      and\n        /* \"contracts/BOMB_flattened.sol\":24609:24617  !_inSwap */\n      iszero\n        /* \"contracts/BOMB_flattened.sol\":24592:24617  _autoSwapBack && !_inSwap */\n    tag_472:\n        /* \"contracts/BOMB_flattened.sol\":24592:24649  _autoSwapBack && !_inSwap && msg.sender != address(_pair) */\n      dup1\n      iszero\n      tag_473\n      jumpi\n      pop\n        /* \"contracts/BOMB_flattened.sol\":24643:24648  _pair */\n      0x14\n      0x00\n      swap1\n      sload\n      swap1\n      0x0100\n      exp\n      swap1\n      div\n      0xffffffffffffffffffffffffffffffffffffffff\n      and\n        /* \"contracts/BOMB_flattened.sol\":24621:24649  msg.sender != address(_pair) */\n      0xffffffffffffffffffffffffffffffffffffffff\n      and\n        /* \"contracts/BOMB_flattened.sol\":24621:24631  msg.sender */\n      caller\n        /* \"contracts/BOMB_flattened.sol\":24621:24649  msg.sender != address(_pair) */\n      0xffffffffffffffffffffffffffffffffffffffff\n      and\n      eq\n      iszero\n        /* \"contracts/BOMB_flattened.sol\":24592:24649  _autoSwapBack && !_inSwap && msg.sender != address(_pair) */\n    tag_473:\n        /* \"contracts/BOMB_flattened.sol\":24585:24649  return _autoSwapBack && !_inSwap && msg.sender != address(_pair) */\n      swap1\n      pop\n        /* \"contracts/BOMB_flattened.sol\":24525:24654  function shouldSwapBack() internal view returns (bool) {... */\n      swap1\n      jump\t// out\n        /* \"contracts/BOMB_flattened.sol\":29861:30228  function _swapBack() internal swapping {... */\n    tag_389:\n        /* \"contracts/BOMB_flattened.sol\":21875:21879  true */\n      0x01\n        /* \"contracts/BOMB_flattened.sol\":21865:21872  _inSwap */\n      0x14\n      dup1\n        /* \"contracts/BOMB_flattened.sol\":21865:21879  _inSwap = true */\n      0x0100\n      exp\n      dup2\n      sload\n      dup2\n      0xff\n      mul\n      not\n      and\n      swap1\n      dup4\n      iszero\n      iszero\n      mul\n      or\n      swap1\n      sstore\n      pop\n        /* \"contracts/BOMB_flattened.sol\":29905:29925  uint256 amountToSwap */\n      0x00\n        /* \"contracts/BOMB_flattened.sol\":29928:29937  _balances */\n      0x0e\n        /* \"contracts/BOMB_flattened.sol\":29928:29952  _balances[address(this)] */\n      0x00\n        /* \"contracts/BOMB_flattened.sol\":29946:29950  this */\n      address\n        /* \"contracts/BOMB_flattened.sol\":29928:29952  _balances[address(this)] */\n      0xffffffffffffffffffffffffffffffffffffffff\n      and\n      0xffffffffffffffffffffffffffffffffffffffff\n      and\n      dup2\n      mstore\n      0x20\n      add\n      swap1\n      dup2\n      mstore\n      0x20\n      add\n      0x00\n      keccak256\n      sload\n        /* \"contracts/BOMB_flattened.sol\":29905:29952  uint256 amountToSwap = _balances[address(this)] */\n      swap1\n      pop\n        /* \"contracts/BOMB_flattened.sol\":29979:29980  0 */\n      0x00\n        /* \"contracts/BOMB_flattened.sol\":29963:29975  amountToSwap */\n      dup2\n        /* \"contracts/BOMB_flattened.sol\":29963:29980  amountToSwap == 0 */\n      sub\n        /* \"contracts/BOMB_flattened.sol\":29959:30000  if (amountToSwap == 0) {... */\n      tag_476\n      jumpi\n        /* \"contracts/BOMB_flattened.sol\":29988:29995  return; */\n      pop\n      jump(tag_475)\n        /* \"contracts/BOMB_flattened.sol\":29959:30000  if (amountToSwap == 0) {... */\n    tag_476:\n        /* \"contracts/BOMB_flattened.sol\":30006:30027  address[] memory path */\n      0x00\n        /* \"contracts/BOMB_flattened.sol\":30044:30045  2 */\n      0x02\n        /* \"contracts/BOMB_flattened.sol\":30030:30046  new address[](2) */\n      0xffffffffffffffff\n      dup2\n      gt\n      iszero\n      tag_477\n      jumpi\n      tag_478\n      tag_479\n      jump\t// in\n    tag_478:\n    tag_477:\n      mload(0x40)\n      swap1\n      dup1\n      dup3\n      mstore\n      dup1\n      0x20\n      mul\n      0x20\n      add\n      dup3\n      add\n      0x40\n      mstore\n      dup1\n      iszero\n      tag_480\n      jumpi\n      dup2\n      0x20\n      add\n      0x20\n      dup3\n      mul\n      dup1\n      calldatasize\n      dup4\n      calldatacopy\n      dup1\n      dup3\n      add\n      swap2\n      pop\n      pop\n      swap1\n      pop\n    tag_480:\n      pop\n        /* \"contracts/BOMB_flattened.sol\":30006:30046  address[] memory path = new address[](2) */\n      swap1\n      pop\n        /* \"contracts/BOMB_flattened.sol\":30069:30073  this */\n      address\n        /* \"contracts/BOMB_flattened.sol\":30051:30055  path */\n      dup2\n        /* \"contracts/BOMB_flattened.sol\":30056:30057  0 */\n      0x00\n        /* \"contracts/BOMB_flattened.sol\":30051:30058  path[0] */\n      dup2\n      mload\n      dup2\n      lt\n      tag_481\n      jumpi\n      tag_482\n      tag_420\n      jump\t// in\n    tag_482:\n    tag_481:\n      0x20\n      mul\n      0x20\n      add\n      add\n        /* \"contracts/BOMB_flattened.sol\":30051:30074  path[0] = address(this) */\n      swap1\n      0xffffffffffffffffffffffffffffffffffffffff\n      and\n      swap1\n      dup2\n      0xffffffffffffffffffffffffffffffffffffffff\n      and\n      dup2\n      mstore\n      pop\n      pop\n        /* \"contracts/BOMB_flattened.sol\":30089:30096  _router */\n      0x13\n      0x00\n      swap1\n      sload\n      swap1\n      0x0100\n      exp\n      swap1\n      div\n      0xffffffffffffffffffffffffffffffffffffffff\n      and\n        /* \"contracts/BOMB_flattened.sol\":30089:30101  _router.WETH */\n      0xffffffffffffffffffffffffffffffffffffffff\n      and\n      0xad5c4648\n        /* \"contracts/BOMB_flattened.sol\":30089:30103  _router.WETH() */\n      mload(0x40)\n      dup2\n      0xffffffff\n      and\n      0xe0\n      shl\n      dup2\n      mstore\n      0x04\n      add\n      0x20\n      mload(0x40)\n      dup1\n      dup4\n      sub\n      dup2\n      dup7\n      gas\n      staticcall\n      iszero\n      dup1\n      iszero\n      tag_484\n      jumpi\n      returndatasize\n      0x00\n      dup1\n      returndatacopy\n      revert(0x00, returndatasize)\n    tag_484:\n      pop\n      pop\n      pop\n      pop\n      mload(0x40)\n      returndatasize\n      not(0x1f)\n      0x1f\n      dup3\n      add\n      and\n      dup3\n      add\n      dup1\n      0x40\n      mstore\n      pop\n      dup2\n      add\n      swap1\n      tag_485\n      swap2\n      swap1\n      tag_486\n      jump\t// in\n    tag_485:\n        /* \"contracts/BOMB_flattened.sol\":30079:30083  path */\n      dup2\n        /* \"contracts/BOMB_flattened.sol\":30084:30085  1 */\n      0x01\n        /* \"contracts/BOMB_flattened.sol\":30079:30086  path[1] */\n      dup2\n      mload\n      dup2\n      lt\n      tag_487\n      jumpi\n      tag_488\n      tag_420\n      jump\t// in\n    tag_488:\n    tag_487:\n      0x20\n      mul\n      0x20\n      add\n      add\n        /* \"contracts/BOMB_flattened.sol\":30079:30103  path[1] = _router.WETH() */\n      swap1\n      0xffffffffffffffffffffffffffffffffffffffff\n      and\n      swap1\n      dup2\n      0xffffffffffffffffffffffffffffffffffffffff\n      and\n      dup2\n      mstore\n      pop\n      pop\n        /* \"contracts/BOMB_flattened.sol\":30110:30117  _router */\n      0x13\n      0x00\n      swap1\n      sload\n      swap1\n      0x0100\n      exp\n      swap1\n      div\n      0xffffffffffffffffffffffffffffffffffffffff\n      and\n        /* \"contracts/BOMB_flattened.sol\":30110:30168  _router.swapExactTokensForETHSupportingFeeOnTransferTokens */\n      0xffffffffffffffffffffffffffffffffffffffff\n      and\n      0x791ac947\n        /* \"contracts/BOMB_flattened.sol\":30169:30181  amountToSwap */\n      dup4\n        /* \"contracts/BOMB_flattened.sol\":30183:30184  0 */\n      0x00\n        /* \"contracts/BOMB_flattened.sol\":30186:30190  path */\n      dup5\n        /* \"contracts/BOMB_flattened.sol\":30200:30204  this */\n      address\n        /* \"contracts/BOMB_flattened.sol\":30207:30222  block.timestamp */\n      timestamp\n        /* \"contracts/BOMB_flattened.sol\":30110:30223  _router.swapExactTokensForETHSupportingFeeOnTransferTokens(amountToSwap, 0, path, address(this), block.timestamp) */\n      mload(0x40)\n      dup7\n      0xffffffff\n      and\n      0xe0\n      shl\n      dup2\n      mstore\n      0x04\n      add\n      tag_489\n      swap6\n      swap5\n      swap4\n      swap3\n      swap2\n      swap1\n      tag_490\n      jump\t// in\n    tag_489:\n      0x00\n      mload(0x40)\n      dup1\n      dup4\n      sub\n      dup2\n      0x00\n      dup8\n      dup1\n      extcodesize\n      iszero\n      dup1\n      iszero\n      tag_491\n      jumpi\n      0x00\n      dup1\n      revert\n    tag_491:\n      pop\n      gas\n      call\n      iszero\n      dup1\n      iszero\n      tag_493\n      jumpi\n      returndatasize\n      0x00\n      dup1\n      returndatacopy\n      revert(0x00, returndatasize)\n    tag_493:\n      pop\n      pop\n      pop\n      pop\n        /* \"contracts/BOMB_flattened.sol\":29900:30228  {... */\n      pop\n      pop\n        /* \"contracts/BOMB_flattened.sol\":21884:21885  _ */\n    tag_475:\n        /* \"contracts/BOMB_flattened.sol\":21900:21905  false */\n      0x00\n        /* \"contracts/BOMB_flattened.sol\":21890:21897  _inSwap */\n      0x14\n      dup1\n        /* \"contracts/BOMB_flattened.sol\":21890:21905  _inSwap = false */\n      0x0100\n      exp\n      dup2\n      sload\n      dup2\n      0xff\n      mul\n      not\n      and\n      swap1\n      dup4\n      iszero\n      iszero\n      mul\n      or\n      swap1\n      sstore\n      pop\n        /* \"contracts/BOMB_flattened.sol\":29861:30228  function _swapBack() internal swapping {... */\n      jump\t// out\n        /* \"contracts/BOMB_flattened.sol\":24659:24812  function shouldDistribute() internal view returns (bool) {... */\n    tag_391:\n        /* \"contracts/BOMB_flattened.sol\":24710:24714  bool */\n      0x00\n        /* \"contracts/BOMB_flattened.sol\":24728:24743  _autoDistribute */\n      0x09\n      0x02\n      swap1\n      sload\n      swap1\n      0x0100\n      exp\n      swap1\n      div\n      0xff\n      and\n        /* \"contracts/BOMB_flattened.sol\":24728:24807  _autoDistribute && block.timestamp >= _lastDistribution + _distributionInterval */\n      dup1\n      iszero\n      tag_495\n      jumpi\n      pop\n        /* \"contracts/BOMB_flattened.sol\":24786:24807  _distributionInterval */\n      sload(0x08)\n        /* \"contracts/BOMB_flattened.sol\":24766:24783  _lastDistribution */\n      sload(0x0d)\n        /* \"contracts/BOMB_flattened.sol\":24766:24807  _lastDistribution + _distributionInterval */\n      tag_496\n      swap2\n      swap1\n      tag_248\n      jump\t// in\n    tag_496:\n        /* \"contracts/BOMB_flattened.sol\":24747:24762  block.timestamp */\n      timestamp\n        /* \"contracts/BOMB_flattened.sol\":24747:24807  block.timestamp >= _lastDistribution + _distributionInterval */\n      lt\n      iszero\n        /* \"contracts/BOMB_flattened.sol\":24728:24807  _autoDistribute && block.timestamp >= _lastDistribution + _distributionInterval */\n    tag_495:\n        /* \"contracts/BOMB_flattened.sol\":24721:24807  return _autoDistribute && block.timestamp >= _lastDistribution + _distributionInterval */\n      swap1\n      pop\n        /* \"contracts/BOMB_flattened.sol\":24659:24812  function shouldDistribute() internal view returns (bool) {... */\n      swap1\n      jump\t// out\n        /* \"contracts/BOMB_flattened.sol\":22673:22785  function _subBalance(address addr, uint256 diff) internal {... */\n    tag_395:\n        /* \"contracts/BOMB_flattened.sol\":22736:22780  _setBalance(addr, _balances[addr].sub(diff)) */\n      tag_498\n        /* \"contracts/BOMB_flattened.sol\":22748:22752  addr */\n      dup3\n        /* \"contracts/BOMB_flattened.sol\":22754:22779  _balances[addr].sub(diff) */\n      tag_499\n        /* \"contracts/BOMB_flattened.sol\":22774:22778  diff */\n      dup4\n        /* \"contracts/BOMB_flattened.sol\":22754:22763  _balances */\n      0x0e\n        /* \"contracts/BOMB_flattened.sol\":22754:22769  _balances[addr] */\n      0x00\n        /* \"contracts/BOMB_flattened.sol\":22764:22768  addr */\n      dup8\n        /* \"contracts/BOMB_flattened.sol\":22754:22769  _balances[addr] */\n      0xffffffffffffffffffffffffffffffffffffffff\n      and\n      0xffffffffffffffffffffffffffffffffffffffff\n      and\n      dup2\n      mstore\n      0x20\n      add\n      swap1\n      dup2\n      mstore\n      0x20\n      add\n      0x00\n      keccak256\n      sload\n        /* \"contracts/BOMB_flattened.sol\":22754:22773  _balances[addr].sub */\n      tag_329\n      swap1\n        /* \"contracts/BOMB_flattened.sol\":22754:22779  _balances[addr].sub(diff) */\n      swap2\n      swap1\n      0xffffffff\n      and\n      jump\t// in\n    tag_499:\n        /* \"contracts/BOMB_flattened.sol\":22736:22747  _setBalance */\n      tag_500\n        /* \"contracts/BOMB_flattened.sol\":22736:22780  _setBalance(addr, _balances[addr].sub(diff)) */\n      jump\t// in\n    tag_498:\n        /* \"contracts/BOMB_flattened.sol\":22673:22785  function _subBalance(address addr, uint256 diff) internal {... */\n      pop\n      pop\n      jump\t// out\n        /* \"contracts/BOMB_flattened.sol\":24139:24305  function shouldTakeFee(address from, address to) internal view returns (bool) {... */\n    tag_397:\n        /* \"contracts/BOMB_flattened.sol\":24211:24215  bool */\n      0x00\n        /* \"contracts/BOMB_flattened.sol\":24248:24252  from */\n      dup3\n        /* \"contracts/BOMB_flattened.sol\":24230:24252  address(_pair) == from */\n      0xffffffffffffffffffffffffffffffffffffffff\n      and\n        /* \"contracts/BOMB_flattened.sol\":24238:24243  _pair */\n      0x14\n      0x00\n      swap1\n      sload\n      swap1\n      0x0100\n      exp\n      swap1\n      div\n      0xffffffffffffffffffffffffffffffffffffffff\n      and\n        /* \"contracts/BOMB_flattened.sol\":24230:24252  address(_pair) == from */\n      0xffffffffffffffffffffffffffffffffffffffff\n      and\n      eq\n        /* \"contracts/BOMB_flattened.sol\":24230:24276  address(_pair) == from || address(_pair) == to */\n      dup1\n      tag_502\n      jumpi\n      pop\n        /* \"contracts/BOMB_flattened.sol\":24274:24276  to */\n      dup2\n        /* \"contracts/BOMB_flattened.sol\":24256:24276  address(_pair) == to */\n      0xffffffffffffffffffffffffffffffffffffffff\n      and\n        /* \"contracts/BOMB_flattened.sol\":24264:24269  _pair */\n      0x14\n      0x00\n      swap1\n      sload\n      swap1\n      0x0100\n      exp\n      swap1\n      div\n      0xffffffffffffffffffffffffffffffffffffffff\n      and\n        /* \"contracts/BOMB_flattened.sol\":24256:24276  address(_pair) == to */\n      0xffffffffffffffffffffffffffffffffffffffff\n      and\n      eq\n        /* \"contracts/BOMB_flattened.sol\":24230:24276  address(_pair) == from || address(_pair) == to */\n    tag_502:\n        /* \"contracts/BOMB_flattened.sol\":24229:24300  (address(_pair) == from || address(_pair) == to) && !_isFeeExempt[from] */\n      dup1\n      iszero\n      tag_503\n      jumpi\n      pop\n        /* \"contracts/BOMB_flattened.sol\":24282:24294  _isFeeExempt */\n      0x10\n        /* \"contracts/BOMB_flattened.sol\":24282:24300  _isFeeExempt[from] */\n      0x00\n        /* \"contracts/BOMB_flattened.sol\":24295:24299  from */\n      dup5\n        /* \"contracts/BOMB_flattened.sol\":24282:24300  _isFeeExempt[from] */\n      0xffffffffffffffffffffffffffffffffffffffff\n      and\n      0xffffffffffffffffffffffffffffffffffffffff\n      and\n      dup2\n      mstore\n      0x20\n      add\n      swap1\n      dup2\n      mstore\n      0x20\n      add\n      0x00\n      keccak256\n      0x00\n      swap1\n      sload\n      swap1\n      0x0100\n      exp\n      swap1\n      div\n      0xff\n      and\n        /* \"contracts/BOMB_flattened.sol\":24281:24300  !_isFeeExempt[from] */\n      iszero\n        /* \"contracts/BOMB_flattened.sol\":24229:24300  (address(_pair) == from || address(_pair) == to) && !_isFeeExempt[from] */\n    tag_503:\n        /* \"contracts/BOMB_flattened.sol\":24222:24300  return (address(_pair) == from || address(_pair) == to) && !_isFeeExempt[from] */\n      swap1\n      pop\n        /* \"contracts/BOMB_flattened.sol\":24139:24305  function shouldTakeFee(address from, address to) internal view returns (bool) {... */\n      swap3\n      swap2\n      pop\n      pop\n      jump\t// out\n        /* \"contracts/BOMB_flattened.sol\":28365:28633  function _takeFee(address sender, uint256 amount) internal returns (uint256) {... */\n    tag_401:\n        /* \"contracts/BOMB_flattened.sol\":28433:28440  uint256 */\n      0x00\n        /* \"contracts/BOMB_flattened.sol\":28447:28464  uint256 feeAmount */\n      dup1\n        /* \"contracts/BOMB_flattened.sol\":28467:28499  amount.div(100).mul(_feePercent) */\n      tag_505\n        /* \"contracts/BOMB_flattened.sol\":28487:28498  _feePercent */\n      sload(0x07)\n        /* \"contracts/BOMB_flattened.sol\":28467:28482  amount.div(100) */\n      tag_506\n        /* \"contracts/BOMB_flattened.sol\":28478:28481  100 */\n      0x64\n        /* \"contracts/BOMB_flattened.sol\":28467:28473  amount */\n      dup7\n        /* \"contracts/BOMB_flattened.sol\":28467:28477  amount.div */\n      tag_428\n      swap1\n        /* \"contracts/BOMB_flattened.sol\":28467:28482  amount.div(100) */\n      swap2\n      swap1\n      0xffffffff\n      and\n      jump\t// in\n    tag_506:\n        /* \"contracts/BOMB_flattened.sol\":28467:28486  amount.div(100).mul */\n      tag_427\n      swap1\n        /* \"contracts/BOMB_flattened.sol\":28467:28499  amount.div(100).mul(_feePercent) */\n      swap2\n      swap1\n      0xffffffff\n      and\n      jump\t// in\n    tag_505:\n        /* \"contracts/BOMB_flattened.sol\":28447:28499  uint256 feeAmount = amount.div(100).mul(_feePercent) */\n      swap1\n      pop\n        /* \"contracts/BOMB_flattened.sol\":28504:28541  _addBalance(address(this), feeAmount) */\n      tag_507\n        /* \"contracts/BOMB_flattened.sol\":28524:28528  this */\n      address\n        /* \"contracts/BOMB_flattened.sol\":28531:28540  feeAmount */\n      dup3\n        /* \"contracts/BOMB_flattened.sol\":28504:28515  _addBalance */\n      tag_403\n        /* \"contracts/BOMB_flattened.sol\":28504:28541  _addBalance(address(this), feeAmount) */\n      jump\t// in\n    tag_507:\n        /* \"contracts/BOMB_flattened.sol\":28576:28580  this */\n      address\n        /* \"contracts/BOMB_flattened.sol\":28551:28593  Transfer(sender, address(this), feeAmount) */\n      0xffffffffffffffffffffffffffffffffffffffff\n      and\n        /* \"contracts/BOMB_flattened.sol\":28560:28566  sender */\n      dup5\n        /* \"contracts/BOMB_flattened.sol\":28551:28593  Transfer(sender, address(this), feeAmount) */\n      0xffffffffffffffffffffffffffffffffffffffff\n      and\n      0xddf252ad1be2c89b69c2b068fc378daa952ba7f163c4a11628f55a4df523b3ef\n        /* \"contracts/BOMB_flattened.sol\":28583:28592  feeAmount */\n      dup4\n        /* \"contracts/BOMB_flattened.sol\":28551:28593  Transfer(sender, address(this), feeAmount) */\n      mload(0x40)\n      tag_508\n      swap2\n      swap1\n      tag_69\n      jump\t// in\n    tag_508:\n      mload(0x40)\n      dup1\n      swap2\n      sub\n      swap1\n      log3\n        /* \"contracts/BOMB_flattened.sol\":28607:28628  amount.sub(feeAmount) */\n      tag_509\n        /* \"contracts/BOMB_flattened.sol\":28618:28627  feeAmount */\n      dup2\n        /* \"contracts/BOMB_flattened.sol\":28607:28613  amount */\n      dup5\n        /* \"contracts/BOMB_flattened.sol\":28607:28617  amount.sub */\n      tag_329\n      swap1\n        /* \"contracts/BOMB_flattened.sol\":28607:28628  amount.sub(feeAmount) */\n      swap2\n      swap1\n      0xffffffff\n      and\n      jump\t// in\n    tag_509:\n        /* \"contracts/BOMB_flattened.sol\":28600:28628  return amount.sub(feeAmount) */\n      swap2\n      pop\n      pop\n        /* \"contracts/BOMB_flattened.sol\":28365:28633  function _takeFee(address sender, uint256 amount) internal returns (uint256) {... */\n      swap3\n      swap2\n      pop\n      pop\n      jump\t// out\n        /* \"contracts/BOMB_flattened.sol\":22558:22668  function _addBalance(address addr, uint256 sum) internal {... */\n    tag_403:\n        /* \"contracts/BOMB_flattened.sol\":22620:22663  _setBalance(addr, _balances[addr].add(sum)) */\n      tag_511\n        /* \"contracts/BOMB_flattened.sol\":22632:22636  addr */\n      dup3\n        /* \"contracts/BOMB_flattened.sol\":22638:22662  _balances[addr].add(sum) */\n      tag_512\n        /* \"contracts/BOMB_flattened.sol\":22658:22661  sum */\n      dup4\n        /* \"contracts/BOMB_flattened.sol\":22638:22647  _balances */\n      0x0e\n        /* \"contracts/BOMB_flattened.sol\":22638:22653  _balances[addr] */\n      0x00\n        /* \"contracts/BOMB_flattened.sol\":22648:22652  addr */\n      dup8\n        /* \"contracts/BOMB_flattened.sol\":22638:22653  _balances[addr] */\n      0xffffffffffffffffffffffffffffffffffffffff\n      and\n      0xffffffffffffffffffffffffffffffffffffffff\n      and\n      dup2\n      mstore\n      0x20\n      add\n      swap1\n      dup2\n      mstore\n      0x20\n      add\n      0x00\n      keccak256\n      sload\n        /* \"contracts/BOMB_flattened.sol\":22638:22657  _balances[addr].add */\n      tag_289\n      swap1\n        /* \"contracts/BOMB_flattened.sol\":22638:22662  _balances[addr].add(sum) */\n      swap2\n      swap1\n      0xffffffff\n      and\n      jump\t// in\n    tag_512:\n        /* \"contracts/BOMB_flattened.sol\":22620:22631  _setBalance */\n      tag_500\n        /* \"contracts/BOMB_flattened.sol\":22620:22663  _setBalance(addr, _balances[addr].add(sum)) */\n      jump\t// in\n    tag_511:\n        /* \"contracts/BOMB_flattened.sol\":22558:22668  function _addBalance(address addr, uint256 sum) internal {... */\n      pop\n      pop\n      jump\t// out\n        /* \"contracts/BOMB_flattened.sol\":22421:22553  function _isExternalAddr(address addr) internal view returns (bool) {... */\n    tag_423:\n        /* \"contracts/BOMB_flattened.sol\":22483:22487  bool */\n      0x00\n        /* \"contracts/BOMB_flattened.sol\":22517:22521  this */\n      address\n        /* \"contracts/BOMB_flattened.sol\":22501:22522  addr != address(this) */\n      0xffffffffffffffffffffffffffffffffffffffff\n      and\n        /* \"contracts/BOMB_flattened.sol\":22501:22505  addr */\n      dup3\n        /* \"contracts/BOMB_flattened.sol\":22501:22522  addr != address(this) */\n      0xffffffffffffffffffffffffffffffffffffffff\n      and\n      eq\n      iszero\n        /* \"contracts/BOMB_flattened.sol\":22501:22548  addr != address(this) && addr != address(_pair) */\n      dup1\n      iszero\n      tag_514\n      jumpi\n      pop\n        /* \"contracts/BOMB_flattened.sol\":22542:22547  _pair */\n      0x14\n      0x00\n      swap1\n      sload\n      swap1\n      0x0100\n      exp\n      swap1\n      div\n      0xffffffffffffffffffffffffffffffffffffffff\n      and\n        /* \"contracts/BOMB_flattened.sol\":22526:22548  addr != address(_pair) */\n      0xffffffffffffffffffffffffffffffffffffffff\n      and\n        /* \"contracts/BOMB_flattened.sol\":22526:22530  addr */\n      dup3\n        /* \"contracts/BOMB_flattened.sol\":22526:22548  addr != address(_pair) */\n      0xffffffffffffffffffffffffffffffffffffffff\n      and\n      eq\n      iszero\n        /* \"contracts/BOMB_flattened.sol\":22501:22548  addr != address(this) && addr != address(_pair) */\n    tag_514:\n        /* \"contracts/BOMB_flattened.sol\":22494:22548  return addr != address(this) && addr != address(_pair) */\n      swap1\n      pop\n        /* \"contracts/BOMB_flattened.sol\":22421:22553  function _isExternalAddr(address addr) internal view returns (bool) {... */\n      swap2\n      swap1\n      pop\n      jump\t// out\n        /* \"contracts/BOMB_flattened.sol\":4458:4547  function mul(uint256 a, uint256 b) internal pure returns (uint256) {... */\n    tag_427:\n        /* \"contracts/BOMB_flattened.sol\":4516:4523  uint256 */\n      0x00\n        /* \"contracts/BOMB_flattened.sol\":4541:4542  b */\n      dup2\n        /* \"contracts/BOMB_flattened.sol\":4537:4538  a */\n      dup4\n        /* \"contracts/BOMB_flattened.sol\":4537:4542  a * b */\n      tag_516\n      swap2\n      swap1\n      tag_440\n      jump\t// in\n    tag_516:\n        /* \"contracts/BOMB_flattened.sol\":4530:4542  return a * b */\n      swap1\n      pop\n        /* \"contracts/BOMB_flattened.sol\":4458:4547  function mul(uint256 a, uint256 b) internal pure returns (uint256) {... */\n      swap3\n      swap2\n      pop\n      pop\n      jump\t// out\n        /* \"contracts/BOMB_flattened.sol\":4815:4904  function div(uint256 a, uint256 b) internal pure returns (uint256) {... */\n    tag_428:\n        /* \"contracts/BOMB_flattened.sol\":4873:4880  uint256 */\n      0x00\n        /* \"contracts/BOMB_flattened.sol\":4898:4899  b */\n      dup2\n        /* \"contracts/BOMB_flattened.sol\":4894:4895  a */\n      dup4\n        /* \"contracts/BOMB_flattened.sol\":4894:4899  a / b */\n      tag_518\n      swap2\n      swap1\n      tag_519\n      jump\t// in\n    tag_518:\n        /* \"contracts/BOMB_flattened.sol\":4887:4899  return a / b */\n      swap1\n      pop\n        /* \"contracts/BOMB_flattened.sol\":4815:4904  function div(uint256 a, uint256 b) internal pure returns (uint256) {... */\n      swap3\n      swap2\n      pop\n      pop\n      jump\t// out\n        /* \"contracts/BOMB_flattened.sol\":482:640  function _transferNative(address to, uint256 amount) internal returns (bool) {... */\n    tag_431:\n        /* \"contracts/BOMB_flattened.sol\":553:557  bool */\n      0x00\n        /* \"contracts/BOMB_flattened.sol\":576:578  to */\n      dup3\n        /* \"contracts/BOMB_flattened.sol\":568:584  payable(to).send */\n      0xffffffffffffffffffffffffffffffffffffffff\n      and\n        /* \"contracts/BOMB_flattened.sol\":568:592  payable(to).send(amount) */\n      0x08fc\n        /* \"contracts/BOMB_flattened.sol\":585:591  amount */\n      dup4\n        /* \"contracts/BOMB_flattened.sol\":568:592  payable(to).send(amount) */\n      swap1\n      dup2\n      iszero\n      mul\n      swap1\n      mload(0x40)\n      0x00\n      mload(0x40)\n      dup1\n      dup4\n      sub\n      dup2\n      dup6\n      dup9\n      dup9\n      call\n      swap4\n      pop\n      pop\n      pop\n      pop\n        /* \"contracts/BOMB_flattened.sol\":564:617  if (payable(to).send(amount)) {... */\n      iszero\n      tag_522\n      jumpi\n        /* \"contracts/BOMB_flattened.sol\":607:611  true */\n      0x01\n        /* \"contracts/BOMB_flattened.sol\":600:611  return true */\n      swap1\n      pop\n      jump(tag_520)\n        /* \"contracts/BOMB_flattened.sol\":564:617  if (payable(to).send(amount)) {... */\n    tag_522:\n        /* \"contracts/BOMB_flattened.sol\":630:635  false */\n      0x00\n        /* \"contracts/BOMB_flattened.sol\":623:635  return false */\n      swap1\n      pop\n        /* \"contracts/BOMB_flattened.sol\":482:640  function _transferNative(address to, uint256 amount) internal returns (bool) {... */\n    tag_520:\n      swap3\n      swap2\n      pop\n      pop\n      jump\t// out\n        /* \"contracts/BOMB_flattened.sol\":22790:23061  function _setBalance(address addr, uint256 balance) internal {... */\n    tag_500:\n        /* \"contracts/BOMB_flattened.sol\":22900:22921  _isExternalAddr(addr) */\n      tag_524\n        /* \"contracts/BOMB_flattened.sol\":22916:22920  addr */\n      dup3\n        /* \"contracts/BOMB_flattened.sol\":22900:22915  _isExternalAddr */\n      tag_423\n        /* \"contracts/BOMB_flattened.sol\":22900:22921  _isExternalAddr(addr) */\n      jump\t// in\n    tag_524:\n        /* \"contracts/BOMB_flattened.sol\":22896:23025  if (_isExternalAddr(addr)) {... */\n      iszero\n      tag_525\n      jumpi\n        /* \"contracts/BOMB_flattened.sol\":22952:22956  true */\n      0x01\n        /* \"contracts/BOMB_flattened.sol\":22933:22956  _isHolder[addr] != true */\n      iszero\n      iszero\n        /* \"contracts/BOMB_flattened.sol\":22933:22942  _isHolder */\n      0x0f\n        /* \"contracts/BOMB_flattened.sol\":22933:22948  _isHolder[addr] */\n      0x00\n        /* \"contracts/BOMB_flattened.sol\":22943:22947  addr */\n      dup5\n        /* \"contracts/BOMB_flattened.sol\":22933:22948  _isHolder[addr] */\n      0xffffffffffffffffffffffffffffffffffffffff\n      and\n      0xffffffffffffffffffffffffffffffffffffffff\n      and\n      dup2\n      mstore\n      0x20\n      add\n      swap1\n      dup2\n      mstore\n      0x20\n      add\n      0x00\n      keccak256\n      0x00\n      swap1\n      sload\n      swap1\n      0x0100\n      exp\n      swap1\n      div\n      0xff\n      and\n        /* \"contracts/BOMB_flattened.sol\":22933:22956  _isHolder[addr] != true */\n      iszero\n      iszero\n      eq\n        /* \"contracts/BOMB_flattened.sol\":22929:23020  if (_isHolder[addr] != true) {... */\n      tag_526\n      jumpi\n        /* \"contracts/BOMB_flattened.sol\":22965:22973  _holders */\n      0x12\n        /* \"contracts/BOMB_flattened.sol\":22979:22983  addr */\n      dup3\n        /* \"contracts/BOMB_flattened.sol\":22965:22984  _holders.push(addr) */\n      swap1\n      dup1\n      0x01\n      dup2\n      sload\n      add\n      dup1\n      dup3\n      sstore\n      dup1\n      swap2\n      pop\n      pop\n      0x01\n      swap1\n      sub\n      swap1\n      0x00\n      mstore\n      keccak256(0x00, 0x20)\n      add\n      0x00\n      swap1\n      swap2\n      swap1\n      swap2\n      swap1\n      swap2\n      0x0100\n      exp\n      dup2\n      sload\n      dup2\n      0xffffffffffffffffffffffffffffffffffffffff\n      mul\n      not\n      and\n      swap1\n      dup4\n      0xffffffffffffffffffffffffffffffffffffffff\n      and\n      mul\n      or\n      swap1\n      sstore\n      pop\n        /* \"contracts/BOMB_flattened.sol\":23009:23013  true */\n      0x01\n        /* \"contracts/BOMB_flattened.sol\":22991:23000  _isHolder */\n      0x0f\n        /* \"contracts/BOMB_flattened.sol\":22991:23006  _isHolder[addr] */\n      0x00\n        /* \"contracts/BOMB_flattened.sol\":23001:23005  addr */\n      dup5\n        /* \"contracts/BOMB_flattened.sol\":22991:23006  _isHolder[addr] */\n      0xffffffffffffffffffffffffffffffffffffffff\n      and\n      0xffffffffffffffffffffffffffffffffffffffff\n      and\n      dup2\n      mstore\n      0x20\n      add\n      swap1\n      dup2\n      mstore\n      0x20\n      add\n      0x00\n      keccak256\n      0x00\n        /* \"contracts/BOMB_flattened.sol\":22991:23013  _isHolder[addr] = true */\n      0x0100\n      exp\n      dup2\n      sload\n      dup2\n      0xff\n      mul\n      not\n      and\n      swap1\n      dup4\n      iszero\n      iszero\n      mul\n      or\n      swap1\n      sstore\n      pop\n        /* \"contracts/BOMB_flattened.sol\":22929:23020  if (_isHolder[addr] != true) {... */\n    tag_526:\n        /* \"contracts/BOMB_flattened.sol\":22896:23025  if (_isExternalAddr(addr)) {... */\n    tag_525:\n        /* \"contracts/BOMB_flattened.sol\":23049:23056  balance */\n      dup1\n        /* \"contracts/BOMB_flattened.sol\":23031:23040  _balances */\n      0x0e\n        /* \"contracts/BOMB_flattened.sol\":23031:23046  _balances[addr] */\n      0x00\n        /* \"contracts/BOMB_flattened.sol\":23041:23045  addr */\n      dup5\n        /* \"contracts/BOMB_flattened.sol\":23031:23046  _balances[addr] */\n      0xffffffffffffffffffffffffffffffffffffffff\n      and\n      0xffffffffffffffffffffffffffffffffffffffff\n      and\n      dup2\n      mstore\n      0x20\n      add\n      swap1\n      dup2\n      mstore\n      0x20\n      add\n      0x00\n      keccak256\n        /* \"contracts/BOMB_flattened.sol\":23031:23056  _balances[addr] = balance */\n      dup2\n      swap1\n      sstore\n      pop\n        /* \"contracts/BOMB_flattened.sol\":22790:23061  function _setBalance(address addr, uint256 balance) internal {... */\n      pop\n      pop\n      jump\t// out\n        /* \"#utility.yul\":7:106   */\n    tag_528:\n        /* \"#utility.yul\":59:65   */\n      0x00\n        /* \"#utility.yul\":93:98   */\n      dup2\n        /* \"#utility.yul\":87:99   */\n      mload\n        /* \"#utility.yul\":77:99   */\n      swap1\n      pop\n        /* \"#utility.yul\":7:106   */\n      swap2\n      swap1\n      pop\n      jump\t// out\n        /* \"#utility.yul\":112:281   */\n    tag_529:\n        /* \"#utility.yul\":196:207   */\n      0x00\n        /* \"#utility.yul\":230:236   */\n      dup3\n        /* \"#utility.yul\":225:228   */\n      dup3\n        /* \"#utility.yul\":218:237   */\n      mstore\n        /* \"#utility.yul\":270:274   */\n      0x20\n        /* \"#utility.yul\":265:268   */\n      dup3\n        /* \"#utility.yul\":261:275   */\n      add\n        /* \"#utility.yul\":246:275   */\n      swap1\n      pop\n        /* \"#utility.yul\":112:281   */\n      swap3\n      swap2\n      pop\n      pop\n      jump\t// out\n        /* \"#utility.yul\":287:533   */\n    tag_530:\n        /* \"#utility.yul\":368:369   */\n      0x00\n        /* \"#utility.yul\":378:491   */\n    tag_582:\n        /* \"#utility.yul\":392:398   */\n      dup4\n        /* \"#utility.yul\":389:390   */\n      dup2\n        /* \"#utility.yul\":386:399   */\n      lt\n        /* \"#utility.yul\":378:491   */\n      iszero\n      tag_584\n      jumpi\n        /* \"#utility.yul\":477:478   */\n      dup1\n        /* \"#utility.yul\":472:475   */\n      dup3\n        /* \"#utility.yul\":468:479   */\n      add\n        /* \"#utility.yul\":462:480   */\n      mload\n        /* \"#utility.yul\":458:459   */\n      dup2\n        /* \"#utility.yul\":453:456   */\n      dup5\n        /* \"#utility.yul\":449:460   */\n      add\n        /* \"#utility.yul\":442:481   */\n      mstore\n        /* \"#utility.yul\":414:416   */\n      0x20\n        /* \"#utility.yul\":411:412   */\n      dup2\n        /* \"#utility.yul\":407:417   */\n      add\n        /* \"#utility.yul\":402:417   */\n      swap1\n      pop\n        /* \"#utility.yul\":378:491   */\n      jump(tag_582)\n    tag_584:\n        /* \"#utility.yul\":525:526   */\n      0x00\n        /* \"#utility.yul\":516:522   */\n      dup5\n        /* \"#utility.yul\":511:514   */\n      dup5\n        /* \"#utility.yul\":507:523   */\n      add\n        /* \"#utility.yul\":500:527   */\n      mstore\n        /* \"#utility.yul\":349:533   */\n      pop\n        /* \"#utility.yul\":287:533   */\n      pop\n      pop\n      pop\n      jump\t// out\n        /* \"#utility.yul\":539:641   */\n    tag_531:\n        /* \"#utility.yul\":580:586   */\n      0x00\n        /* \"#utility.yul\":631:633   */\n      0x1f\n        /* \"#utility.yul\":627:634   */\n      not\n        /* \"#utility.yul\":622:624   */\n      0x1f\n        /* \"#utility.yul\":615:620   */\n      dup4\n        /* \"#utility.yul\":611:625   */\n      add\n        /* \"#utility.yul\":607:635   */\n      and\n        /* \"#utility.yul\":597:635   */\n      swap1\n      pop\n        /* \"#utility.yul\":539:641   */\n      swap2\n      swap1\n      pop\n      jump\t// out\n        /* \"#utility.yul\":647:1024   */\n    tag_532:\n        /* \"#utility.yul\":735:738   */\n      0x00\n        /* \"#utility.yul\":763:802   */\n      tag_587\n        /* \"#utility.yul\":796:801   */\n      dup3\n        /* \"#utility.yul\":763:802   */\n      tag_528\n      jump\t// in\n    tag_587:\n        /* \"#utility.yul\":818:889   */\n      tag_588\n        /* \"#utility.yul\":882:888   */\n      dup2\n        /* \"#utility.yul\":877:880   */\n      dup6\n        /* \"#utility.yul\":818:889   */\n      tag_529\n      jump\t// in\n    tag_588:\n        /* \"#utility.yul\":811:889   */\n      swap4\n      pop\n        /* \"#utility.yul\":898:963   */\n      tag_589\n        /* \"#utility.yul\":956:962   */\n      dup2\n        /* \"#utility.yul\":951:954   */\n      dup6\n        /* \"#utility.yul\":944:948   */\n      0x20\n        /* \"#utility.yul\":937:942   */\n      dup7\n        /* \"#utility.yul\":933:949   */\n      add\n        /* \"#utility.yul\":898:963   */\n      tag_530\n      jump\t// in\n    tag_589:\n        /* \"#utility.yul\":988:1017   */\n      tag_590\n        /* \"#utility.yul\":1010:1016   */\n      dup2\n        /* \"#utility.yul\":988:1017   */\n      tag_531\n      jump\t// in\n    tag_590:\n        /* \"#utility.yul\":983:986   */\n      dup5\n        /* \"#utility.yul\":979:1018   */\n      add\n        /* \"#utility.yul\":972:1018   */\n      swap2\n      pop\n        /* \"#utility.yul\":739:1024   */\n      pop\n        /* \"#utility.yul\":647:1024   */\n      swap3\n      swap2\n      pop\n      pop\n      jump\t// out\n        /* \"#utility.yul\":1030:1343   */\n    tag_57:\n        /* \"#utility.yul\":1143:1147   */\n      0x00\n        /* \"#utility.yul\":1181:1183   */\n      0x20\n        /* \"#utility.yul\":1170:1179   */\n      dup3\n        /* \"#utility.yul\":1166:1184   */\n      add\n        /* \"#utility.yul\":1158:1184   */\n      swap1\n      pop\n        /* \"#utility.yul\":1230:1239   */\n      dup2\n        /* \"#utility.yul\":1224:1228   */\n      dup2\n        /* \"#utility.yul\":1220:1240   */\n      sub\n        /* \"#utility.yul\":1216:1217   */\n      0x00\n        /* \"#utility.yul\":1205:1214   */\n      dup4\n        /* \"#utility.yul\":1201:1218   */\n      add\n        /* \"#utility.yul\":1194:1241   */\n      mstore\n        /* \"#utility.yul\":1258:1336   */\n      tag_592\n        /* \"#utility.yul\":1331:1335   */\n      dup2\n        /* \"#utility.yul\":1322:1328   */\n      dup5\n        /* \"#utility.yul\":1258:1336   */\n      tag_532\n      jump\t// in\n    tag_592:\n        /* \"#utility.yul\":1250:1336   */\n      swap1\n      pop\n        /* \"#utility.yul\":1030:1343   */\n      swap3\n      swap2\n      pop\n      pop\n      jump\t// out\n        /* \"#utility.yul\":1430:1547   */\n    tag_534:\n        /* \"#utility.yul\":1539:1540   */\n      0x00\n        /* \"#utility.yul\":1536:1537   */\n      dup1\n        /* \"#utility.yul\":1529:1541   */\n      revert\n        /* \"#utility.yul\":1676:1802   */\n    tag_536:\n        /* \"#utility.yul\":1713:1720   */\n      0x00\n        /* \"#utility.yul\":1753:1795   */\n      0xffffffffffffffffffffffffffffffffffffffff\n        /* \"#utility.yul\":1746:1751   */\n      dup3\n        /* \"#utility.yul\":1742:1796   */\n      and\n        /* \"#utility.yul\":1731:1796   */\n      swap1\n      pop\n        /* \"#utility.yul\":1676:1802   */\n      swap2\n      swap1\n      pop\n      jump\t// out\n        /* \"#utility.yul\":1808:1904   */\n    tag_537:\n        /* \"#utility.yul\":1845:1852   */\n      0x00\n        /* \"#utility.yul\":1874:1898   */\n      tag_598\n        /* \"#utility.yul\":1892:1897   */\n      dup3\n        /* \"#utility.yul\":1874:1898   */\n      tag_536\n      jump\t// in\n    tag_598:\n        /* \"#utility.yul\":1863:1898   */\n      swap1\n      pop\n        /* \"#utility.yul\":1808:1904   */\n      swap2\n      swap1\n      pop\n      jump\t// out\n        /* \"#utility.yul\":1910:2032   */\n    tag_538:\n        /* \"#utility.yul\":1983:2007   */\n      tag_600\n        /* \"#utility.yul\":2001:2006   */\n      dup2\n        /* \"#utility.yul\":1983:2007   */\n      tag_537\n      jump\t// in\n    tag_600:\n        /* \"#utility.yul\":1976:1981   */\n      dup2\n        /* \"#utility.yul\":1973:2008   */\n      eq\n        /* \"#utility.yul\":1963:2026   */\n      tag_601\n      jumpi\n        /* \"#utility.yul\":2022:2023   */\n      0x00\n        /* \"#utility.yul\":2019:2020   */\n      dup1\n        /* \"#utility.yul\":2012:2024   */\n      revert\n        /* \"#utility.yul\":1963:2026   */\n    tag_601:\n        /* \"#utility.yul\":1910:2032   */\n      pop\n      jump\t// out\n        /* \"#utility.yul\":2038:2177   */\n    tag_539:\n        /* \"#utility.yul\":2084:2089   */\n      0x00\n        /* \"#utility.yul\":2122:2128   */\n      dup2\n        /* \"#utility.yul\":2109:2129   */\n      calldataload\n        /* \"#utility.yul\":2100:2129   */\n      swap1\n      pop\n        /* \"#utility.yul\":2138:2171   */\n      tag_603\n        /* \"#utility.yul\":2165:2170   */\n      dup2\n        /* \"#utility.yul\":2138:2171   */\n      tag_538\n      jump\t// in\n    tag_603:\n        /* \"#utility.yul\":2038:2177   */\n      swap3\n      swap2\n      pop\n      pop\n      jump\t// out\n        /* \"#utility.yul\":2183:2260   */\n    tag_540:\n        /* \"#utility.yul\":2220:2227   */\n      0x00\n        /* \"#utility.yul\":2249:2254   */\n      dup2\n        /* \"#utility.yul\":2238:2254   */\n      swap1\n      pop\n        /* \"#utility.yul\":2183:2260   */\n      swap2\n      swap1\n      pop\n      jump\t// out\n        /* \"#utility.yul\":2266:2388   */\n    tag_541:\n        /* \"#utility.yul\":2339:2363   */\n      tag_606\n        /* \"#utility.yul\":2357:2362   */\n      dup2\n        /* \"#utility.yul\":2339:2363   */\n      tag_540\n      jump\t// in\n    tag_606:\n        /* \"#utility.yul\":2332:2337   */\n      dup2\n        /* \"#utility.yul\":2329:2364   */\n      eq\n        /* \"#utility.yul\":2319:2382   */\n      tag_607\n      jumpi\n        /* \"#utility.yul\":2378:2379   */\n      0x00\n        /* \"#utility.yul\":2375:2376   */\n      dup1\n        /* \"#utility.yul\":2368:2380   */\n      revert\n        /* \"#utility.yul\":2319:2382   */\n    tag_607:\n        /* \"#utility.yul\":2266:2388   */\n      pop\n      jump\t// out\n        /* \"#utility.yul\":2394:2533   */\n    tag_542:\n        /* \"#utility.yul\":2440:2445   */\n      0x00\n        /* \"#utility.yul\":2478:2484   */\n      dup2\n        /* \"#utility.yul\":2465:2485   */\n      calldataload\n        /* \"#utility.yul\":2456:2485   */\n      swap1\n      pop\n        /* \"#utility.yul\":2494:2527   */\n      tag_609\n        /* \"#utility.yul\":2521:2526   */\n      dup2\n        /* \"#utility.yul\":2494:2527   */\n      tag_541\n      jump\t// in\n    tag_609:\n        /* \"#utility.yul\":2394:2533   */\n      swap3\n      swap2\n      pop\n      pop\n      jump\t// out\n        /* \"#utility.yul\":2539:3013   */\n    tag_61:\n        /* \"#utility.yul\":2607:2613   */\n      0x00\n        /* \"#utility.yul\":2615:2621   */\n      dup1\n        /* \"#utility.yul\":2664:2666   */\n      0x40\n        /* \"#utility.yul\":2652:2661   */\n      dup4\n        /* \"#utility.yul\":2643:2650   */\n      dup6\n        /* \"#utility.yul\":2639:2662   */\n      sub\n        /* \"#utility.yul\":2635:2667   */\n      slt\n        /* \"#utility.yul\":2632:2751   */\n      iszero\n      tag_611\n      jumpi\n        /* \"#utility.yul\":2670:2749   */\n      tag_612\n      tag_534\n      jump\t// in\n    tag_612:\n        /* \"#utility.yul\":2632:2751   */\n    tag_611:\n        /* \"#utility.yul\":2790:2791   */\n      0x00\n        /* \"#utility.yul\":2815:2868   */\n      tag_613\n        /* \"#utility.yul\":2860:2867   */\n      dup6\n        /* \"#utility.yul\":2851:2857   */\n      dup3\n        /* \"#utility.yul\":2840:2849   */\n      dup7\n        /* \"#utility.yul\":2836:2858   */\n      add\n        /* \"#utility.yul\":2815:2868   */\n      tag_539\n      jump\t// in\n    tag_613:\n        /* \"#utility.yul\":2805:2868   */\n      swap3\n      pop\n        /* \"#utility.yul\":2761:2878   */\n      pop\n        /* \"#utility.yul\":2917:2919   */\n      0x20\n        /* \"#utility.yul\":2943:2996   */\n      tag_614\n        /* \"#utility.yul\":2988:2995   */\n      dup6\n        /* \"#utility.yul\":2979:2985   */\n      dup3\n        /* \"#utility.yul\":2968:2977   */\n      dup7\n        /* \"#utility.yul\":2964:2986   */\n      add\n        /* \"#utility.yul\":2943:2996   */\n      tag_542\n      jump\t// in\n    tag_614:\n        /* \"#utility.yul\":2933:2996   */\n      swap2\n      pop\n        /* \"#utility.yul\":2888:3006   */\n      pop\n        /* \"#utility.yul\":2539:3013   */\n      swap3\n      pop\n      swap3\n      swap1\n      pop\n      jump\t// out\n        /* \"#utility.yul\":3019:3109   */\n    tag_543:\n        /* \"#utility.yul\":3053:3060   */\n      0x00\n        /* \"#utility.yul\":3096:3101   */\n      dup2\n        /* \"#utility.yul\":3089:3102   */\n      iszero\n        /* \"#utility.yul\":3082:3103   */\n      iszero\n        /* \"#utility.yul\":3071:3103   */\n      swap1\n      pop\n        /* \"#utility.yul\":3019:3109   */\n      swap2\n      swap1\n      pop\n      jump\t// out\n        /* \"#utility.yul\":3115:3224   */\n    tag_544:\n        /* \"#utility.yul\":3196:3217   */\n      tag_617\n        /* \"#utility.yul\":3211:3216   */\n      dup2\n        /* \"#utility.yul\":3196:3217   */\n      tag_543\n      jump\t// in\n    tag_617:\n        /* \"#utility.yul\":3191:3194   */\n      dup3\n        /* \"#utility.yul\":3184:3218   */\n      mstore\n        /* \"#utility.yul\":3115:3224   */\n      pop\n      pop\n      jump\t// out\n        /* \"#utility.yul\":3230:3440   */\n    tag_64:\n        /* \"#utility.yul\":3317:3321   */\n      0x00\n        /* \"#utility.yul\":3355:3357   */\n      0x20\n        /* \"#utility.yul\":3344:3353   */\n      dup3\n        /* \"#utility.yul\":3340:3358   */\n      add\n        /* \"#utility.yul\":3332:3358   */\n      swap1\n      pop\n        /* \"#utility.yul\":3368:3433   */\n      tag_619\n        /* \"#utility.yul\":3430:3431   */\n      0x00\n        /* \"#utility.yul\":3419:3428   */\n      dup4\n        /* \"#utility.yul\":3415:3432   */\n      add\n        /* \"#utility.yul\":3406:3412   */\n      dup5\n        /* \"#utility.yul\":3368:3433   */\n      tag_544\n      jump\t// in\n    tag_619:\n        /* \"#utility.yul\":3230:3440   */\n      swap3\n      swap2\n      pop\n      pop\n      jump\t// out\n        /* \"#utility.yul\":3446:3564   */\n    tag_545:\n        /* \"#utility.yul\":3533:3557   */\n      tag_621\n        /* \"#utility.yul\":3551:3556   */\n      dup2\n        /* \"#utility.yul\":3533:3557   */\n      tag_540\n      jump\t// in\n    tag_621:\n        /* \"#utility.yul\":3528:3531   */\n      dup3\n        /* \"#utility.yul\":3521:3558   */\n      mstore\n        /* \"#utility.yul\":3446:3564   */\n      pop\n      pop\n      jump\t// out\n        /* \"#utility.yul\":3570:3792   */\n    tag_69:\n        /* \"#utility.yul\":3663:3667   */\n      0x00\n        /* \"#utility.yul\":3701:3703   */\n      0x20\n        /* \"#utility.yul\":3690:3699   */\n      dup3\n        /* \"#utility.yul\":3686:3704   */\n      add\n        /* \"#utility.yul\":3678:3704   */\n      swap1\n      pop\n        /* \"#utility.yul\":3714:3785   */\n      tag_623\n        /* \"#utility.yul\":3782:3783   */\n      0x00\n        /* \"#utility.yul\":3771:3780   */\n      dup4\n        /* \"#utility.yul\":3767:3784   */\n      add\n        /* \"#utility.yul\":3758:3764   */\n      dup5\n        /* \"#utility.yul\":3714:3785   */\n      tag_545\n      jump\t// in\n    tag_623:\n        /* \"#utility.yul\":3570:3792   */\n      swap3\n      swap2\n      pop\n      pop\n      jump\t// out\n        /* \"#utility.yul\":3798:4417   */\n    tag_76:\n        /* \"#utility.yul\":3875:3881   */\n      0x00\n        /* \"#utility.yul\":3883:3889   */\n      dup1\n        /* \"#utility.yul\":3891:3897   */\n      0x00\n        /* \"#utility.yul\":3940:3942   */\n      0x60\n        /* \"#utility.yul\":3928:3937   */\n      dup5\n        /* \"#utility.yul\":3919:3926   */\n      dup7\n        /* \"#utility.yul\":3915:3938   */\n      sub\n        /* \"#utility.yul\":3911:3943   */\n      slt\n        /* \"#utility.yul\":3908:4027   */\n      iszero\n      tag_625\n      jumpi\n        /* \"#utility.yul\":3946:4025   */\n      tag_626\n      tag_534\n      jump\t// in\n    tag_626:\n        /* \"#utility.yul\":3908:4027   */\n    tag_625:\n        /* \"#utility.yul\":4066:4067   */\n      0x00\n        /* \"#utility.yul\":4091:4144   */\n      tag_627\n        /* \"#utility.yul\":4136:4143   */\n      dup7\n        /* \"#utility.yul\":4127:4133   */\n      dup3\n        /* \"#utility.yul\":4116:4125   */\n      dup8\n        /* \"#utility.yul\":4112:4134   */\n      add\n        /* \"#utility.yul\":4091:4144   */\n      tag_539\n      jump\t// in\n    tag_627:\n        /* \"#utility.yul\":4081:4144   */\n      swap4\n      pop\n        /* \"#utility.yul\":4037:4154   */\n      pop\n        /* \"#utility.yul\":4193:4195   */\n      0x20\n        /* \"#utility.yul\":4219:4272   */\n      tag_628\n        /* \"#utility.yul\":4264:4271   */\n      dup7\n        /* \"#utility.yul\":4255:4261   */\n      dup3\n        /* \"#utility.yul\":4244:4253   */\n      dup8\n        /* \"#utility.yul\":4240:4262   */\n      add\n        /* \"#utility.yul\":4219:4272   */\n      tag_539\n      jump\t// in\n    tag_628:\n        /* \"#utility.yul\":4209:4272   */\n      swap3\n      pop\n        /* \"#utility.yul\":4164:4282   */\n      pop\n        /* \"#utility.yul\":4321:4323   */\n      0x40\n        /* \"#utility.yul\":4347:4400   */\n      tag_629\n        /* \"#utility.yul\":4392:4399   */\n      dup7\n        /* \"#utility.yul\":4383:4389   */\n      dup3\n        /* \"#utility.yul\":4372:4381   */\n      dup8\n        /* \"#utility.yul\":4368:4390   */\n      add\n        /* \"#utility.yul\":4347:4400   */\n      tag_542\n      jump\t// in\n    tag_629:\n        /* \"#utility.yul\":4337:4400   */\n      swap2\n      pop\n        /* \"#utility.yul\":4292:4410   */\n      pop\n        /* \"#utility.yul\":3798:4417   */\n      swap3\n      pop\n      swap3\n      pop\n      swap3\n      jump\t// out\n        /* \"#utility.yul\":4423:4752   */\n    tag_82:\n        /* \"#utility.yul\":4482:4488   */\n      0x00\n        /* \"#utility.yul\":4531:4533   */\n      0x20\n        /* \"#utility.yul\":4519:4528   */\n      dup3\n        /* \"#utility.yul\":4510:4517   */\n      dup5\n        /* \"#utility.yul\":4506:4529   */\n      sub\n        /* \"#utility.yul\":4502:4534   */\n      slt\n        /* \"#utility.yul\":4499:4618   */\n      iszero\n      tag_631\n      jumpi\n        /* \"#utility.yul\":4537:4616   */\n      tag_632\n      tag_534\n      jump\t// in\n    tag_632:\n        /* \"#utility.yul\":4499:4618   */\n    tag_631:\n        /* \"#utility.yul\":4657:4658   */\n      0x00\n        /* \"#utility.yul\":4682:4735   */\n      tag_633\n        /* \"#utility.yul\":4727:4734   */\n      dup5\n        /* \"#utility.yul\":4718:4724   */\n      dup3\n        /* \"#utility.yul\":4707:4716   */\n      dup6\n        /* \"#utility.yul\":4703:4725   */\n      add\n        /* \"#utility.yul\":4682:4735   */\n      tag_542\n      jump\t// in\n    tag_633:\n        /* \"#utility.yul\":4672:4735   */\n      swap2\n      pop\n        /* \"#utility.yul\":4628:4745   */\n      pop\n        /* \"#utility.yul\":4423:4752   */\n      swap3\n      swap2\n      pop\n      pop\n      jump\t// out\n        /* \"#utility.yul\":4758:5087   */\n    tag_87:\n        /* \"#utility.yul\":4817:4823   */\n      0x00\n        /* \"#utility.yul\":4866:4868   */\n      0x20\n        /* \"#utility.yul\":4854:4863   */\n      dup3\n        /* \"#utility.yul\":4845:4852   */\n      dup5\n        /* \"#utility.yul\":4841:4864   */\n      sub\n        /* \"#utility.yul\":4837:4869   */\n      slt\n        /* \"#utility.yul\":4834:4953   */\n      iszero\n      tag_635\n      jumpi\n        /* \"#utility.yul\":4872:4951   */\n      tag_636\n      tag_534\n      jump\t// in\n    tag_636:\n        /* \"#utility.yul\":4834:4953   */\n    tag_635:\n        /* \"#utility.yul\":4992:4993   */\n      0x00\n        /* \"#utility.yul\":5017:5070   */\n      tag_637\n        /* \"#utility.yul\":5062:5069   */\n      dup5\n        /* \"#utility.yul\":5053:5059   */\n      dup3\n        /* \"#utility.yul\":5042:5051   */\n      dup6\n        /* \"#utility.yul\":5038:5060   */\n      add\n        /* \"#utility.yul\":5017:5070   */\n      tag_539\n      jump\t// in\n    tag_637:\n        /* \"#utility.yul\":5007:5070   */\n      swap2\n      pop\n        /* \"#utility.yul\":4963:5080   */\n      pop\n        /* \"#utility.yul\":4758:5087   */\n      swap3\n      swap2\n      pop\n      pop\n      jump\t// out\n        /* \"#utility.yul\":5093:5179   */\n    tag_546:\n        /* \"#utility.yul\":5128:5135   */\n      0x00\n        /* \"#utility.yul\":5168:5172   */\n      0xff\n        /* \"#utility.yul\":5161:5166   */\n      dup3\n        /* \"#utility.yul\":5157:5173   */\n      and\n        /* \"#utility.yul\":5146:5173   */\n      swap1\n      pop\n        /* \"#utility.yul\":5093:5179   */\n      swap2\n      swap1\n      pop\n      jump\t// out\n        /* \"#utility.yul\":5185:5297   */\n    tag_547:\n        /* \"#utility.yul\":5268:5290   */\n      tag_640\n        /* \"#utility.yul\":5284:5289   */\n      dup2\n        /* \"#utility.yul\":5268:5290   */\n      tag_546\n      jump\t// in\n    tag_640:\n        /* \"#utility.yul\":5263:5266   */\n      dup3\n        /* \"#utility.yul\":5256:5291   */\n      mstore\n        /* \"#utility.yul\":5185:5297   */\n      pop\n      pop\n      jump\t// out\n        /* \"#utility.yul\":5303:5517   */\n    tag_93:\n        /* \"#utility.yul\":5392:5396   */\n      0x00\n        /* \"#utility.yul\":5430:5432   */\n      0x20\n        /* \"#utility.yul\":5419:5428   */\n      dup3\n        /* \"#utility.yul\":5415:5433   */\n      add\n        /* \"#utility.yul\":5407:5433   */\n      swap1\n      pop\n        /* \"#utility.yul\":5443:5510   */\n      tag_642\n        /* \"#utility.yul\":5507:5508   */\n      0x00\n        /* \"#utility.yul\":5496:5505   */\n      dup4\n        /* \"#utility.yul\":5492:5509   */\n      add\n        /* \"#utility.yul\":5483:5489   */\n      dup5\n        /* \"#utility.yul\":5443:5510   */\n      tag_547\n      jump\t// in\n    tag_642:\n        /* \"#utility.yul\":5303:5517   */\n      swap3\n      swap2\n      pop\n      pop\n      jump\t// out\n        /* \"#utility.yul\":5523:5639   */\n    tag_548:\n        /* \"#utility.yul\":5593:5614   */\n      tag_644\n        /* \"#utility.yul\":5608:5613   */\n      dup2\n        /* \"#utility.yul\":5593:5614   */\n      tag_543\n      jump\t// in\n    tag_644:\n        /* \"#utility.yul\":5586:5591   */\n      dup2\n        /* \"#utility.yul\":5583:5615   */\n      eq\n        /* \"#utility.yul\":5573:5633   */\n      tag_645\n      jumpi\n        /* \"#utility.yul\":5629:5630   */\n      0x00\n        /* \"#utility.yul\":5626:5627   */\n      dup1\n        /* \"#utility.yul\":5619:5631   */\n      revert\n        /* \"#utility.yul\":5573:5633   */\n    tag_645:\n        /* \"#utility.yul\":5523:5639   */\n      pop\n      jump\t// out\n        /* \"#utility.yul\":5645:5778   */\n    tag_549:\n        /* \"#utility.yul\":5688:5693   */\n      0x00\n        /* \"#utility.yul\":5726:5732   */\n      dup2\n        /* \"#utility.yul\":5713:5733   */\n      calldataload\n        /* \"#utility.yul\":5704:5733   */\n      swap1\n      pop\n        /* \"#utility.yul\":5742:5772   */\n      tag_647\n        /* \"#utility.yul\":5766:5771   */\n      dup2\n        /* \"#utility.yul\":5742:5772   */\n      tag_548\n      jump\t// in\n    tag_647:\n        /* \"#utility.yul\":5645:5778   */\n      swap3\n      swap2\n      pop\n      pop\n      jump\t// out\n        /* \"#utility.yul\":5784:6252   */\n    tag_101:\n        /* \"#utility.yul\":5849:5855   */\n      0x00\n        /* \"#utility.yul\":5857:5863   */\n      dup1\n        /* \"#utility.yul\":5906:5908   */\n      0x40\n        /* \"#utility.yul\":5894:5903   */\n      dup4\n        /* \"#utility.yul\":5885:5892   */\n      dup6\n        /* \"#utility.yul\":5881:5904   */\n      sub\n        /* \"#utility.yul\":5877:5909   */\n      slt\n        /* \"#utility.yul\":5874:5993   */\n      iszero\n      tag_649\n      jumpi\n        /* \"#utility.yul\":5912:5991   */\n      tag_650\n      tag_534\n      jump\t// in\n    tag_650:\n        /* \"#utility.yul\":5874:5993   */\n    tag_649:\n        /* \"#utility.yul\":6032:6033   */\n      0x00\n        /* \"#utility.yul\":6057:6110   */\n      tag_651\n        /* \"#utility.yul\":6102:6109   */\n      dup6\n        /* \"#utility.yul\":6093:6099   */\n      dup3\n        /* \"#utility.yul\":6082:6091   */\n      dup7\n        /* \"#utility.yul\":6078:6100   */\n      add\n        /* \"#utility.yul\":6057:6110   */\n      tag_539\n      jump\t// in\n    tag_651:\n        /* \"#utility.yul\":6047:6110   */\n      swap3\n      pop\n        /* \"#utility.yul\":6003:6120   */\n      pop\n        /* \"#utility.yul\":6159:6161   */\n      0x20\n        /* \"#utility.yul\":6185:6235   */\n      tag_652\n        /* \"#utility.yul\":6227:6234   */\n      dup6\n        /* \"#utility.yul\":6218:6224   */\n      dup3\n        /* \"#utility.yul\":6207:6216   */\n      dup7\n        /* \"#utility.yul\":6203:6225   */\n      add\n        /* \"#utility.yul\":6185:6235   */\n      tag_549\n      jump\t// in\n    tag_652:\n        /* \"#utility.yul\":6175:6235   */\n      swap2\n      pop\n        /* \"#utility.yul\":6130:6245   */\n      pop\n        /* \"#utility.yul\":5784:6252   */\n      swap3\n      pop\n      swap3\n      swap1\n      pop\n      jump\t// out\n        /* \"#utility.yul\":6258:6581   */\n    tag_119:\n        /* \"#utility.yul\":6314:6320   */\n      0x00\n        /* \"#utility.yul\":6363:6365   */\n      0x20\n        /* \"#utility.yul\":6351:6360   */\n      dup3\n        /* \"#utility.yul\":6342:6349   */\n      dup5\n        /* \"#utility.yul\":6338:6361   */\n      sub\n        /* \"#utility.yul\":6334:6366   */\n      slt\n        /* \"#utility.yul\":6331:6450   */\n      iszero\n      tag_654\n      jumpi\n        /* \"#utility.yul\":6369:6448   */\n      tag_655\n      tag_534\n      jump\t// in\n    tag_655:\n        /* \"#utility.yul\":6331:6450   */\n    tag_654:\n        /* \"#utility.yul\":6489:6490   */\n      0x00\n        /* \"#utility.yul\":6514:6564   */\n      tag_656\n        /* \"#utility.yul\":6556:6563   */\n      dup5\n        /* \"#utility.yul\":6547:6553   */\n      dup3\n        /* \"#utility.yul\":6536:6545   */\n      dup6\n        /* \"#utility.yul\":6532:6554   */\n      add\n        /* \"#utility.yul\":6514:6564   */\n      tag_549\n      jump\t// in\n    tag_656:\n        /* \"#utility.yul\":6504:6564   */\n      swap2\n      pop\n        /* \"#utility.yul\":6460:6574   */\n      pop\n        /* \"#utility.yul\":6258:6581   */\n      swap3\n      swap2\n      pop\n      pop\n      jump\t// out\n        /* \"#utility.yul\":6587:6705   */\n    tag_550:\n        /* \"#utility.yul\":6674:6698   */\n      tag_658\n        /* \"#utility.yul\":6692:6697   */\n      dup2\n        /* \"#utility.yul\":6674:6698   */\n      tag_537\n      jump\t// in\n    tag_658:\n        /* \"#utility.yul\":6669:6672   */\n      dup3\n        /* \"#utility.yul\":6662:6699   */\n      mstore\n        /* \"#utility.yul\":6587:6705   */\n      pop\n      pop\n      jump\t// out\n        /* \"#utility.yul\":6711:6933   */\n    tag_156:\n        /* \"#utility.yul\":6804:6808   */\n      0x00\n        /* \"#utility.yul\":6842:6844   */\n      0x20\n        /* \"#utility.yul\":6831:6840   */\n      dup3\n        /* \"#utility.yul\":6827:6845   */\n      add\n        /* \"#utility.yul\":6819:6845   */\n      swap1\n      pop\n        /* \"#utility.yul\":6855:6926   */\n      tag_660\n        /* \"#utility.yul\":6923:6924   */\n      0x00\n        /* \"#utility.yul\":6912:6921   */\n      dup4\n        /* \"#utility.yul\":6908:6925   */\n      add\n        /* \"#utility.yul\":6899:6905   */\n      dup5\n        /* \"#utility.yul\":6855:6926   */\n      tag_550\n      jump\t// in\n    tag_660:\n        /* \"#utility.yul\":6711:6933   */\n      swap3\n      swap2\n      pop\n      pop\n      jump\t// out\n        /* \"#utility.yul\":6939:6999   */\n    tag_551:\n        /* \"#utility.yul\":6967:6970   */\n      0x00\n        /* \"#utility.yul\":6988:6993   */\n      dup2\n        /* \"#utility.yul\":6981:6993   */\n      swap1\n      pop\n        /* \"#utility.yul\":6939:6999   */\n      swap2\n      swap1\n      pop\n      jump\t// out\n        /* \"#utility.yul\":7005:7147   */\n    tag_552:\n        /* \"#utility.yul\":7055:7064   */\n      0x00\n        /* \"#utility.yul\":7088:7141   */\n      tag_663\n        /* \"#utility.yul\":7106:7140   */\n      tag_664\n        /* \"#utility.yul\":7115:7139   */\n      tag_665\n        /* \"#utility.yul\":7133:7138   */\n      dup5\n        /* \"#utility.yul\":7115:7139   */\n      tag_536\n      jump\t// in\n    tag_665:\n        /* \"#utility.yul\":7106:7140   */\n      tag_551\n      jump\t// in\n    tag_664:\n        /* \"#utility.yul\":7088:7141   */\n      tag_536\n      jump\t// in\n    tag_663:\n        /* \"#utility.yul\":7075:7141   */\n      swap1\n      pop\n        /* \"#utility.yul\":7005:7147   */\n      swap2\n      swap1\n      pop\n      jump\t// out\n        /* \"#utility.yul\":7153:7279   */\n    tag_553:\n        /* \"#utility.yul\":7203:7212   */\n      0x00\n        /* \"#utility.yul\":7236:7273   */\n      tag_667\n        /* \"#utility.yul\":7267:7272   */\n      dup3\n        /* \"#utility.yul\":7236:7273   */\n      tag_552\n      jump\t// in\n    tag_667:\n        /* \"#utility.yul\":7223:7273   */\n      swap1\n      pop\n        /* \"#utility.yul\":7153:7279   */\n      swap2\n      swap1\n      pop\n      jump\t// out\n        /* \"#utility.yul\":7285:7426   */\n    tag_554:\n        /* \"#utility.yul\":7350:7359   */\n      0x00\n        /* \"#utility.yul\":7383:7420   */\n      tag_669\n        /* \"#utility.yul\":7414:7419   */\n      dup3\n        /* \"#utility.yul\":7383:7420   */\n      tag_553\n      jump\t// in\n    tag_669:\n        /* \"#utility.yul\":7370:7420   */\n      swap1\n      pop\n        /* \"#utility.yul\":7285:7426   */\n      swap2\n      swap1\n      pop\n      jump\t// out\n        /* \"#utility.yul\":7432:7593   */\n    tag_555:\n        /* \"#utility.yul\":7534:7586   */\n      tag_671\n        /* \"#utility.yul\":7580:7585   */\n      dup2\n        /* \"#utility.yul\":7534:7586   */\n      tag_554\n      jump\t// in\n    tag_671:\n        /* \"#utility.yul\":7529:7532   */\n      dup3\n        /* \"#utility.yul\":7522:7587   */\n      mstore\n        /* \"#utility.yul\":7432:7593   */\n      pop\n      pop\n      jump\t// out\n        /* \"#utility.yul\":7599:7851   */\n    tag_173:\n        /* \"#utility.yul\":7707:7711   */\n      0x00\n        /* \"#utility.yul\":7745:7747   */\n      0x20\n        /* \"#utility.yul\":7734:7743   */\n      dup3\n        /* \"#utility.yul\":7730:7748   */\n      add\n        /* \"#utility.yul\":7722:7748   */\n      swap1\n      pop\n        /* \"#utility.yul\":7758:7844   */\n      tag_673\n        /* \"#utility.yul\":7841:7842   */\n      0x00\n        /* \"#utility.yul\":7830:7839   */\n      dup4\n        /* \"#utility.yul\":7826:7843   */\n      add\n        /* \"#utility.yul\":7817:7823   */\n      dup5\n        /* \"#utility.yul\":7758:7844   */\n      tag_555\n      jump\t// in\n    tag_673:\n        /* \"#utility.yul\":7599:7851   */\n      swap3\n      swap2\n      pop\n      pop\n      jump\t// out\n        /* \"#utility.yul\":7857:8331   */\n    tag_217:\n        /* \"#utility.yul\":7925:7931   */\n      0x00\n        /* \"#utility.yul\":7933:7939   */\n      dup1\n        /* \"#utility.yul\":7982:7984   */\n      0x40\n        /* \"#utility.yul\":7970:7979   */\n      dup4\n        /* \"#utility.yul\":7961:7968   */\n      dup6\n        /* \"#utility.yul\":7957:7980   */\n      sub\n        /* \"#utility.yul\":7953:7985   */\n      slt\n        /* \"#utility.yul\":7950:8069   */\n      iszero\n      tag_675\n      jumpi\n        /* \"#utility.yul\":7988:8067   */\n      tag_676\n      tag_534\n      jump\t// in\n    tag_676:\n        /* \"#utility.yul\":7950:8069   */\n    tag_675:\n        /* \"#utility.yul\":8108:8109   */\n      0x00\n        /* \"#utility.yul\":8133:8186   */\n      tag_677\n        /* \"#utility.yul\":8178:8185   */\n      dup6\n        /* \"#utility.yul\":8169:8175   */\n      dup3\n        /* \"#utility.yul\":8158:8167   */\n      dup7\n        /* \"#utility.yul\":8154:8176   */\n      add\n        /* \"#utility.yul\":8133:8186   */\n      tag_539\n      jump\t// in\n    tag_677:\n        /* \"#utility.yul\":8123:8186   */\n      swap3\n      pop\n        /* \"#utility.yul\":8079:8196   */\n      pop\n        /* \"#utility.yul\":8235:8237   */\n      0x20\n        /* \"#utility.yul\":8261:8314   */\n      tag_678\n        /* \"#utility.yul\":8306:8313   */\n      dup6\n        /* \"#utility.yul\":8297:8303   */\n      dup3\n        /* \"#utility.yul\":8286:8295   */\n      dup7\n        /* \"#utility.yul\":8282:8304   */\n      add\n        /* \"#utility.yul\":8261:8314   */\n      tag_539\n      jump\t// in\n    tag_678:\n        /* \"#utility.yul\":8251:8314   */\n      swap2\n      pop\n        /* \"#utility.yul\":8206:8324   */\n      pop\n        /* \"#utility.yul\":7857:8331   */\n      swap3\n      pop\n      swap3\n      swap1\n      pop\n      jump\t// out\n        /* \"#utility.yul\":8337:8517   */\n    tag_556:\n        /* \"#utility.yul\":8385:8462   */\n      0x4e487b7100000000000000000000000000000000000000000000000000000000\n        /* \"#utility.yul\":8382:8383   */\n      0x00\n        /* \"#utility.yul\":8375:8463   */\n      mstore\n        /* \"#utility.yul\":8482:8486   */\n      0x22\n        /* \"#utility.yul\":8479:8480   */\n      0x04\n        /* \"#utility.yul\":8472:8487   */\n      mstore\n        /* \"#utility.yul\":8506:8510   */\n      0x24\n        /* \"#utility.yul\":8503:8504   */\n      0x00\n        /* \"#utility.yul\":8496:8511   */\n      revert\n        /* \"#utility.yul\":8523:8843   */\n    tag_238:\n        /* \"#utility.yul\":8567:8573   */\n      0x00\n        /* \"#utility.yul\":8604:8605   */\n      0x02\n        /* \"#utility.yul\":8598:8602   */\n      dup3\n        /* \"#utility.yul\":8594:8606   */\n      div\n        /* \"#utility.yul\":8584:8606   */\n      swap1\n      pop\n        /* \"#utility.yul\":8651:8652   */\n      0x01\n        /* \"#utility.yul\":8645:8649   */\n      dup3\n        /* \"#utility.yul\":8641:8653   */\n      and\n        /* \"#utility.yul\":8672:8690   */\n      dup1\n        /* \"#utility.yul\":8662:8743   */\n      tag_681\n      jumpi\n        /* \"#utility.yul\":8728:8732   */\n      0x7f\n        /* \"#utility.yul\":8720:8726   */\n      dup3\n        /* \"#utility.yul\":8716:8733   */\n      and\n        /* \"#utility.yul\":8706:8733   */\n      swap2\n      pop\n        /* \"#utility.yul\":8662:8743   */\n    tag_681:\n        /* \"#utility.yul\":8790:8792   */\n      0x20\n        /* \"#utility.yul\":8782:8788   */\n      dup3\n        /* \"#utility.yul\":8779:8793   */\n      lt\n        /* \"#utility.yul\":8759:8777   */\n      dup2\n        /* \"#utility.yul\":8756:8794   */\n      sub\n        /* \"#utility.yul\":8753:8837   */\n      tag_682\n      jumpi\n        /* \"#utility.yul\":8809:8827   */\n      tag_683\n      tag_556\n      jump\t// in\n    tag_683:\n        /* \"#utility.yul\":8753:8837   */\n    tag_682:\n        /* \"#utility.yul\":8574:8843   */\n      pop\n        /* \"#utility.yul\":8523:8843   */\n      swap2\n      swap1\n      pop\n      jump\t// out\n        /* \"#utility.yul\":8849:9029   */\n    tag_557:\n        /* \"#utility.yul\":8897:8974   */\n      0x4e487b7100000000000000000000000000000000000000000000000000000000\n        /* \"#utility.yul\":8894:8895   */\n      0x00\n        /* \"#utility.yul\":8887:8975   */\n      mstore\n        /* \"#utility.yul\":8994:8998   */\n      0x11\n        /* \"#utility.yul\":8991:8992   */\n      0x04\n        /* \"#utility.yul\":8984:8999   */\n      mstore\n        /* \"#utility.yul\":9018:9022   */\n      0x24\n        /* \"#utility.yul\":9015:9016   */\n      0x00\n        /* \"#utility.yul\":9008:9023   */\n      revert\n        /* \"#utility.yul\":9035:9226   */\n    tag_248:\n        /* \"#utility.yul\":9075:9078   */\n      0x00\n        /* \"#utility.yul\":9094:9114   */\n      tag_686\n        /* \"#utility.yul\":9112:9113   */\n      dup3\n        /* \"#utility.yul\":9094:9114   */\n      tag_540\n      jump\t// in\n    tag_686:\n        /* \"#utility.yul\":9089:9114   */\n      swap2\n      pop\n        /* \"#utility.yul\":9128:9148   */\n      tag_687\n        /* \"#utility.yul\":9146:9147   */\n      dup4\n        /* \"#utility.yul\":9128:9148   */\n      tag_540\n      jump\t// in\n    tag_687:\n        /* \"#utility.yul\":9123:9148   */\n      swap3\n      pop\n        /* \"#utility.yul\":9171:9172   */\n      dup3\n        /* \"#utility.yul\":9168:9169   */\n      dup3\n        /* \"#utility.yul\":9164:9173   */\n      add\n        /* \"#utility.yul\":9157:9173   */\n      swap1\n      pop\n        /* \"#utility.yul\":9192:9195   */\n      dup1\n        /* \"#utility.yul\":9189:9190   */\n      dup3\n        /* \"#utility.yul\":9186:9196   */\n      gt\n        /* \"#utility.yul\":9183:9219   */\n      iszero\n      tag_688\n      jumpi\n        /* \"#utility.yul\":9199:9217   */\n      tag_689\n      tag_557\n      jump\t// in\n    tag_689:\n        /* \"#utility.yul\":9183:9219   */\n    tag_688:\n        /* \"#utility.yul\":9035:9226   */\n      swap3\n      swap2\n      pop\n      pop\n      jump\t// out\n        /* \"#utility.yul\":9232:9564   */\n    tag_251:\n        /* \"#utility.yul\":9353:9357   */\n      0x00\n        /* \"#utility.yul\":9391:9393   */\n      0x40\n        /* \"#utility.yul\":9380:9389   */\n      dup3\n        /* \"#utility.yul\":9376:9394   */\n      add\n        /* \"#utility.yul\":9368:9394   */\n      swap1\n      pop\n        /* \"#utility.yul\":9404:9475   */\n      tag_691\n        /* \"#utility.yul\":9472:9473   */\n      0x00\n        /* \"#utility.yul\":9461:9470   */\n      dup4\n        /* \"#utility.yul\":9457:9474   */\n      add\n        /* \"#utility.yul\":9448:9454   */\n      dup6\n        /* \"#utility.yul\":9404:9475   */\n      tag_550\n      jump\t// in\n    tag_691:\n        /* \"#utility.yul\":9485:9557   */\n      tag_692\n        /* \"#utility.yul\":9553:9555   */\n      0x20\n        /* \"#utility.yul\":9542:9551   */\n      dup4\n        /* \"#utility.yul\":9538:9556   */\n      add\n        /* \"#utility.yul\":9529:9535   */\n      dup5\n        /* \"#utility.yul\":9485:9557   */\n      tag_550\n      jump\t// in\n    tag_692:\n        /* \"#utility.yul\":9232:9564   */\n      swap4\n      swap3\n      pop\n      pop\n      pop\n      jump\t// out\n        /* \"#utility.yul\":9570:9713   */\n    tag_558:\n        /* \"#utility.yul\":9627:9632   */\n      0x00\n        /* \"#utility.yul\":9658:9664   */\n      dup2\n        /* \"#utility.yul\":9652:9665   */\n      mload\n        /* \"#utility.yul\":9643:9665   */\n      swap1\n      pop\n        /* \"#utility.yul\":9674:9707   */\n      tag_694\n        /* \"#utility.yul\":9701:9706   */\n      dup2\n        /* \"#utility.yul\":9674:9707   */\n      tag_541\n      jump\t// in\n    tag_694:\n        /* \"#utility.yul\":9570:9713   */\n      swap3\n      swap2\n      pop\n      pop\n      jump\t// out\n        /* \"#utility.yul\":9719:10070   */\n    tag_255:\n        /* \"#utility.yul\":9789:9795   */\n      0x00\n        /* \"#utility.yul\":9838:9840   */\n      0x20\n        /* \"#utility.yul\":9826:9835   */\n      dup3\n        /* \"#utility.yul\":9817:9824   */\n      dup5\n        /* \"#utility.yul\":9813:9836   */\n      sub\n        /* \"#utility.yul\":9809:9841   */\n      slt\n        /* \"#utility.yul\":9806:9925   */\n      iszero\n      tag_696\n      jumpi\n        /* \"#utility.yul\":9844:9923   */\n      tag_697\n      tag_534\n      jump\t// in\n    tag_697:\n        /* \"#utility.yul\":9806:9925   */\n    tag_696:\n        /* \"#utility.yul\":9964:9965   */\n      0x00\n        /* \"#utility.yul\":9989:10053   */\n      tag_698\n        /* \"#utility.yul\":10045:10052   */\n      dup5\n        /* \"#utility.yul\":10036:10042   */\n      dup3\n        /* \"#utility.yul\":10025:10034   */\n      dup6\n        /* \"#utility.yul\":10021:10043   */\n      add\n        /* \"#utility.yul\":9989:10053   */\n      tag_558\n      jump\t// in\n    tag_698:\n        /* \"#utility.yul\":9979:10053   */\n      swap2\n      pop\n        /* \"#utility.yul\":9935:10063   */\n      pop\n        /* \"#utility.yul\":9719:10070   */\n      swap3\n      swap2\n      pop\n      pop\n      jump\t// out\n        /* \"#utility.yul\":10076:10322   */\n    tag_559:\n        /* \"#utility.yul\":10216:10250   */\n      0x6f6e6c7920636f6e747261637420616464726573732c206e6f7420616c6c6f77\n        /* \"#utility.yul\":10212:10213   */\n      0x00\n        /* \"#utility.yul\":10204:10210   */\n      dup3\n        /* \"#utility.yul\":10200:10214   */\n      add\n        /* \"#utility.yul\":10193:10251   */\n      mstore\n        /* \"#utility.yul\":10285:10314   */\n      0x6564206578746572616e6c6c79206f776e6564206163636f756e740000000000\n        /* \"#utility.yul\":10280:10282   */\n      0x20\n        /* \"#utility.yul\":10272:10278   */\n      dup3\n        /* \"#utility.yul\":10268:10283   */\n      add\n        /* \"#utility.yul\":10261:10315   */\n      mstore\n        /* \"#utility.yul\":10076:10322   */\n      pop\n      jump\t// out\n        /* \"#utility.yul\":10328:10694   */\n    tag_560:\n        /* \"#utility.yul\":10470:10473   */\n      0x00\n        /* \"#utility.yul\":10491:10558   */\n      tag_701\n        /* \"#utility.yul\":10555:10557   */\n      0x3b\n        /* \"#utility.yul\":10550:10553   */\n      dup4\n        /* \"#utility.yul\":10491:10558   */\n      tag_529\n      jump\t// in\n    tag_701:\n        /* \"#utility.yul\":10484:10558   */\n      swap2\n      pop\n        /* \"#utility.yul\":10567:10660   */\n      tag_702\n        /* \"#utility.yul\":10656:10659   */\n      dup3\n        /* \"#utility.yul\":10567:10660   */\n      tag_559\n      jump\t// in\n    tag_702:\n        /* \"#utility.yul\":10685:10687   */\n      0x40\n        /* \"#utility.yul\":10680:10683   */\n      dup3\n        /* \"#utility.yul\":10676:10688   */\n      add\n        /* \"#utility.yul\":10669:10688   */\n      swap1\n      pop\n        /* \"#utility.yul\":10328:10694   */\n      swap2\n      swap1\n      pop\n      jump\t// out\n        /* \"#utility.yul\":10700:11119   */\n    tag_286:\n        /* \"#utility.yul\":10866:10870   */\n      0x00\n        /* \"#utility.yul\":10904:10906   */\n      0x20\n        /* \"#utility.yul\":10893:10902   */\n      dup3\n        /* \"#utility.yul\":10889:10907   */\n      add\n        /* \"#utility.yul\":10881:10907   */\n      swap1\n      pop\n        /* \"#utility.yul\":10953:10962   */\n      dup2\n        /* \"#utility.yul\":10947:10951   */\n      dup2\n        /* \"#utility.yul\":10943:10963   */\n      sub\n        /* \"#utility.yul\":10939:10940   */\n      0x00\n        /* \"#utility.yul\":10928:10937   */\n      dup4\n        /* \"#utility.yul\":10924:10941   */\n      add\n        /* \"#utility.yul\":10917:10964   */\n      mstore\n        /* \"#utility.yul\":10981:11112   */\n      tag_704\n        /* \"#utility.yul\":11107:11111   */\n      dup2\n        /* \"#utility.yul\":10981:11112   */\n      tag_560\n      jump\t// in\n    tag_704:\n        /* \"#utility.yul\":10973:11112   */\n      swap1\n      pop\n        /* \"#utility.yul\":10700:11119   */\n      swap2\n      swap1\n      pop\n      jump\t// out\n        /* \"#utility.yul\":11125:11287   */\n    tag_561:\n        /* \"#utility.yul\":11265:11279   */\n      0x696e5f626c61636b6c6973740000000000000000000000000000000000000000\n        /* \"#utility.yul\":11261:11262   */\n      0x00\n        /* \"#utility.yul\":11253:11259   */\n      dup3\n        /* \"#utility.yul\":11249:11263   */\n      add\n        /* \"#utility.yul\":11242:11280   */\n      mstore\n        /* \"#utility.yul\":11125:11287   */\n      pop\n      jump\t// out\n        /* \"#utility.yul\":11293:11659   */\n    tag_562:\n        /* \"#utility.yul\":11435:11438   */\n      0x00\n        /* \"#utility.yul\":11456:11523   */\n      tag_707\n        /* \"#utility.yul\":11520:11522   */\n      0x0c\n        /* \"#utility.yul\":11515:11518   */\n      dup4\n        /* \"#utility.yul\":11456:11523   */\n      tag_529\n      jump\t// in\n    tag_707:\n        /* \"#utility.yul\":11449:11523   */\n      swap2\n      pop\n        /* \"#utility.yul\":11532:11625   */\n      tag_708\n        /* \"#utility.yul\":11621:11624   */\n      dup3\n        /* \"#utility.yul\":11532:11625   */\n      tag_561\n      jump\t// in\n    tag_708:\n        /* \"#utility.yul\":11650:11652   */\n      0x20\n        /* \"#utility.yul\":11645:11648   */\n      dup3\n        /* \"#utility.yul\":11641:11653   */\n      add\n        /* \"#utility.yul\":11634:11653   */\n      swap1\n      pop\n        /* \"#utility.yul\":11293:11659   */\n      swap2\n      swap1\n      pop\n      jump\t// out\n        /* \"#utility.yul\":11665:12084   */\n    tag_376:\n        /* \"#utility.yul\":11831:11835   */\n      0x00\n        /* \"#utility.yul\":11869:11871   */\n      0x20\n        /* \"#utility.yul\":11858:11867   */\n      dup3\n        /* \"#utility.yul\":11854:11872   */\n      add\n        /* \"#utility.yul\":11846:11872   */\n      swap1\n      pop\n        /* \"#utility.yul\":11918:11927   */\n      dup2\n        /* \"#utility.yul\":11912:11916   */\n      dup2\n        /* \"#utility.yul\":11908:11928   */\n      sub\n        /* \"#utility.yul\":11904:11905   */\n      0x00\n        /* \"#utility.yul\":11893:11902   */\n      dup4\n        /* \"#utility.yul\":11889:11906   */\n      add\n        /* \"#utility.yul\":11882:11929   */\n      mstore\n        /* \"#utility.yul\":11946:12077   */\n      tag_710\n        /* \"#utility.yul\":12072:12076   */\n      dup2\n        /* \"#utility.yul\":11946:12077   */\n      tag_562\n      jump\t// in\n    tag_710:\n        /* \"#utility.yul\":11938:12077   */\n      swap1\n      pop\n        /* \"#utility.yul\":11665:12084   */\n      swap2\n      swap1\n      pop\n      jump\t// out\n        /* \"#utility.yul\":12090:12284   */\n    tag_410:\n        /* \"#utility.yul\":12130:12134   */\n      0x00\n        /* \"#utility.yul\":12150:12170   */\n      tag_712\n        /* \"#utility.yul\":12168:12169   */\n      dup3\n        /* \"#utility.yul\":12150:12170   */\n      tag_540\n      jump\t// in\n    tag_712:\n        /* \"#utility.yul\":12145:12170   */\n      swap2\n      pop\n        /* \"#utility.yul\":12184:12204   */\n      tag_713\n        /* \"#utility.yul\":12202:12203   */\n      dup4\n        /* \"#utility.yul\":12184:12204   */\n      tag_540\n      jump\t// in\n    tag_713:\n        /* \"#utility.yul\":12179:12204   */\n      swap3\n      pop\n        /* \"#utility.yul\":12228:12229   */\n      dup3\n        /* \"#utility.yul\":12225:12226   */\n      dup3\n        /* \"#utility.yul\":12221:12230   */\n      sub\n        /* \"#utility.yul\":12213:12230   */\n      swap1\n      pop\n        /* \"#utility.yul\":12252:12253   */\n      dup2\n        /* \"#utility.yul\":12246:12250   */\n      dup2\n        /* \"#utility.yul\":12243:12254   */\n      gt\n        /* \"#utility.yul\":12240:12277   */\n      iszero\n      tag_714\n      jumpi\n        /* \"#utility.yul\":12257:12275   */\n      tag_715\n      tag_557\n      jump\t// in\n    tag_715:\n        /* \"#utility.yul\":12240:12277   */\n    tag_714:\n        /* \"#utility.yul\":12090:12284   */\n      swap3\n      swap2\n      pop\n      pop\n      jump\t// out\n        /* \"#utility.yul\":12290:12470   */\n    tag_420:\n        /* \"#utility.yul\":12338:12415   */\n      0x4e487b7100000000000000000000000000000000000000000000000000000000\n        /* \"#utility.yul\":12335:12336   */\n      0x00\n        /* \"#utility.yul\":12328:12416   */\n      mstore\n        /* \"#utility.yul\":12435:12439   */\n      0x32\n        /* \"#utility.yul\":12432:12433   */\n      0x04\n        /* \"#utility.yul\":12425:12440   */\n      mstore\n        /* \"#utility.yul\":12459:12463   */\n      0x24\n        /* \"#utility.yul\":12456:12457   */\n      0x00\n        /* \"#utility.yul\":12449:12464   */\n      revert\n        /* \"#utility.yul\":12476:12578   */\n    tag_563:\n        /* \"#utility.yul\":12518:12526   */\n      0x00\n        /* \"#utility.yul\":12565:12570   */\n      dup2\n        /* \"#utility.yul\":12562:12563   */\n      0x01\n        /* \"#utility.yul\":12558:12571   */\n      shr\n        /* \"#utility.yul\":12537:12571   */\n      swap1\n      pop\n        /* \"#utility.yul\":12476:12578   */\n      swap2\n      swap1\n      pop\n      jump\t// out\n        /* \"#utility.yul\":12584:13432   */\n    tag_564:\n        /* \"#utility.yul\":12645:12650   */\n      0x00\n        /* \"#utility.yul\":12652:12656   */\n      dup1\n        /* \"#utility.yul\":12676:12682   */\n      dup3\n        /* \"#utility.yul\":12667:12682   */\n      swap2\n      pop\n        /* \"#utility.yul\":12700:12705   */\n      dup4\n        /* \"#utility.yul\":12691:12705   */\n      swap1\n      pop\n        /* \"#utility.yul\":12714:13426   */\n    tag_719:\n        /* \"#utility.yul\":12735:12736   */\n      0x01\n        /* \"#utility.yul\":12725:12733   */\n      dup6\n        /* \"#utility.yul\":12722:12737   */\n      gt\n        /* \"#utility.yul\":12714:13426   */\n      iszero\n      tag_721\n      jumpi\n        /* \"#utility.yul\":12830:12834   */\n      dup1\n        /* \"#utility.yul\":12825:12828   */\n      dup7\n        /* \"#utility.yul\":12821:12835   */\n      div\n        /* \"#utility.yul\":12815:12819   */\n      dup2\n        /* \"#utility.yul\":12812:12836   */\n      gt\n        /* \"#utility.yul\":12809:12859   */\n      iszero\n      tag_722\n      jumpi\n        /* \"#utility.yul\":12839:12857   */\n      tag_723\n      tag_557\n      jump\t// in\n    tag_723:\n        /* \"#utility.yul\":12809:12859   */\n    tag_722:\n        /* \"#utility.yul\":12889:12890   */\n      0x01\n        /* \"#utility.yul\":12879:12887   */\n      dup6\n        /* \"#utility.yul\":12875:12891   */\n      and\n        /* \"#utility.yul\":12872:13323   */\n      iszero\n      tag_724\n      jumpi\n        /* \"#utility.yul\":13304:13308   */\n      dup1\n        /* \"#utility.yul\":13297:13302   */\n      dup3\n        /* \"#utility.yul\":13293:13309   */\n      mul\n        /* \"#utility.yul\":13284:13309   */\n      swap2\n      pop\n        /* \"#utility.yul\":12872:13323   */\n    tag_724:\n        /* \"#utility.yul\":13354:13358   */\n      dup1\n        /* \"#utility.yul\":13348:13352   */\n      dup2\n        /* \"#utility.yul\":13344:13359   */\n      mul\n        /* \"#utility.yul\":13336:13359   */\n      swap1\n      pop\n        /* \"#utility.yul\":13384:13416   */\n      tag_725\n        /* \"#utility.yul\":13407:13415   */\n      dup6\n        /* \"#utility.yul\":13384:13416   */\n      tag_563\n      jump\t// in\n    tag_725:\n        /* \"#utility.yul\":13372:13416   */\n      swap5\n      pop\n        /* \"#utility.yul\":12714:13426   */\n      jump(tag_719)\n    tag_721:\n        /* \"#utility.yul\":12584:13432   */\n      swap5\n      pop\n      swap5\n      swap3\n      pop\n      pop\n      pop\n      jump\t// out\n        /* \"#utility.yul\":13438:14511   */\n    tag_565:\n        /* \"#utility.yul\":13492:13497   */\n      0x00\n        /* \"#utility.yul\":13683:13691   */\n      dup3\n        /* \"#utility.yul\":13673:13713   */\n      tag_727\n      jumpi\n        /* \"#utility.yul\":13704:13705   */\n      0x01\n        /* \"#utility.yul\":13695:13705   */\n      swap1\n      pop\n        /* \"#utility.yul\":13706:13711   */\n      jump(tag_726)\n        /* \"#utility.yul\":13673:13713   */\n    tag_727:\n        /* \"#utility.yul\":13732:13736   */\n      dup2\n        /* \"#utility.yul\":13722:13758   */\n      tag_728\n      jumpi\n        /* \"#utility.yul\":13749:13750   */\n      0x00\n        /* \"#utility.yul\":13740:13750   */\n      swap1\n      pop\n        /* \"#utility.yul\":13751:13756   */\n      jump(tag_726)\n        /* \"#utility.yul\":13722:13758   */\n    tag_728:\n        /* \"#utility.yul\":13818:13822   */\n      dup2\n        /* \"#utility.yul\":13866:13867   */\n      0x01\n        /* \"#utility.yul\":13861:13888   */\n      dup2\n      eq\n      tag_730\n      jumpi\n        /* \"#utility.yul\":13902:13903   */\n      0x02\n        /* \"#utility.yul\":13897:14088   */\n      dup2\n      eq\n      tag_731\n      jumpi\n        /* \"#utility.yul\":13811:14088   */\n      jump(tag_729)\n        /* \"#utility.yul\":13861:13888   */\n    tag_730:\n        /* \"#utility.yul\":13879:13880   */\n      0x01\n        /* \"#utility.yul\":13870:13880   */\n      swap2\n      pop\n        /* \"#utility.yul\":13881:13886   */\n      pop\n      jump(tag_726)\n        /* \"#utility.yul\":13897:14088   */\n    tag_731:\n        /* \"#utility.yul\":13942:13945   */\n      0xff\n        /* \"#utility.yul\":13932:13940   */\n      dup5\n        /* \"#utility.yul\":13929:13946   */\n      gt\n        /* \"#utility.yul\":13926:13969   */\n      iszero\n      tag_732\n      jumpi\n        /* \"#utility.yul\":13949:13967   */\n      tag_733\n      tag_557\n      jump\t// in\n    tag_733:\n        /* \"#utility.yul\":13926:13969   */\n    tag_732:\n        /* \"#utility.yul\":13998:14006   */\n      dup4\n        /* \"#utility.yul\":13995:13996   */\n      0x02\n        /* \"#utility.yul\":13991:14007   */\n      exp\n        /* \"#utility.yul\":13982:14007   */\n      swap2\n      pop\n        /* \"#utility.yul\":14033:14036   */\n      dup5\n        /* \"#utility.yul\":14026:14031   */\n      dup3\n        /* \"#utility.yul\":14023:14037   */\n      gt\n        /* \"#utility.yul\":14020:14060   */\n      iszero\n      tag_734\n      jumpi\n        /* \"#utility.yul\":14040:14058   */\n      tag_735\n      tag_557\n      jump\t// in\n    tag_735:\n        /* \"#utility.yul\":14020:14060   */\n    tag_734:\n        /* \"#utility.yul\":14073:14078   */\n      pop\n      jump(tag_726)\n        /* \"#utility.yul\":13811:14088   */\n    tag_729:\n      pop\n        /* \"#utility.yul\":14197:14199   */\n      0x20\n        /* \"#utility.yul\":14187:14195   */\n      dup4\n        /* \"#utility.yul\":14184:14200   */\n      lt\n        /* \"#utility.yul\":14178:14181   */\n      0x0133\n        /* \"#utility.yul\":14172:14176   */\n      dup4\n        /* \"#utility.yul\":14169:14182   */\n      lt\n        /* \"#utility.yul\":14165:14201   */\n      and\n        /* \"#utility.yul\":14147:14149   */\n      0x4e\n        /* \"#utility.yul\":14137:14145   */\n      dup5\n        /* \"#utility.yul\":14134:14150   */\n      lt\n        /* \"#utility.yul\":14129:14131   */\n      0x0b\n        /* \"#utility.yul\":14123:14127   */\n      dup5\n        /* \"#utility.yul\":14120:14132   */\n      lt\n        /* \"#utility.yul\":14116:14151   */\n      and\n        /* \"#utility.yul\":14100:14211   */\n      or\n        /* \"#utility.yul\":14097:14343   */\n      iszero\n      tag_736\n      jumpi\n        /* \"#utility.yul\":14253:14261   */\n      dup3\n        /* \"#utility.yul\":14247:14251   */\n      dup3\n        /* \"#utility.yul\":14243:14262   */\n      exp\n        /* \"#utility.yul\":14234:14262   */\n      swap1\n      pop\n        /* \"#utility.yul\":14288:14291   */\n      dup4\n        /* \"#utility.yul\":14281:14286   */\n      dup2\n        /* \"#utility.yul\":14278:14292   */\n      gt\n        /* \"#utility.yul\":14275:14315   */\n      iszero\n      tag_737\n      jumpi\n        /* \"#utility.yul\":14295:14313   */\n      tag_738\n      tag_557\n      jump\t// in\n    tag_738:\n        /* \"#utility.yul\":14275:14315   */\n    tag_737:\n        /* \"#utility.yul\":14328:14333   */\n      jump(tag_726)\n        /* \"#utility.yul\":14097:14343   */\n    tag_736:\n        /* \"#utility.yul\":14368:14410   */\n      tag_739\n        /* \"#utility.yul\":14406:14409   */\n      dup5\n        /* \"#utility.yul\":14396:14404   */\n      dup5\n        /* \"#utility.yul\":14390:14394   */\n      dup5\n        /* \"#utility.yul\":14387:14388   */\n      0x01\n        /* \"#utility.yul\":14368:14410   */\n      tag_564\n      jump\t// in\n    tag_739:\n        /* \"#utility.yul\":14353:14410   */\n      swap3\n      pop\n      swap1\n      pop\n        /* \"#utility.yul\":14442:14446   */\n      dup2\n        /* \"#utility.yul\":14437:14440   */\n      dup5\n        /* \"#utility.yul\":14433:14447   */\n      div\n        /* \"#utility.yul\":14426:14431   */\n      dup2\n        /* \"#utility.yul\":14423:14448   */\n      gt\n        /* \"#utility.yul\":14420:14471   */\n      iszero\n      tag_740\n      jumpi\n        /* \"#utility.yul\":14451:14469   */\n      tag_741\n      tag_557\n      jump\t// in\n    tag_741:\n        /* \"#utility.yul\":14420:14471   */\n    tag_740:\n        /* \"#utility.yul\":14500:14504   */\n      dup2\n        /* \"#utility.yul\":14493:14498   */\n      dup2\n        /* \"#utility.yul\":14489:14505   */\n      mul\n        /* \"#utility.yul\":14480:14505   */\n      swap1\n      pop\n        /* \"#utility.yul\":13438:14511   */\n    tag_726:\n      swap4\n      swap3\n      pop\n      pop\n      pop\n      jump\t// out\n        /* \"#utility.yul\":14517:14798   */\n    tag_438:\n        /* \"#utility.yul\":14575:14580   */\n      0x00\n        /* \"#utility.yul\":14599:14622   */\n      tag_743\n        /* \"#utility.yul\":14617:14621   */\n      dup3\n        /* \"#utility.yul\":14599:14622   */\n      tag_540\n      jump\t// in\n    tag_743:\n        /* \"#utility.yul\":14591:14622   */\n      swap2\n      pop\n        /* \"#utility.yul\":14643:14668   */\n      tag_744\n        /* \"#utility.yul\":14659:14667   */\n      dup4\n        /* \"#utility.yul\":14643:14668   */\n      tag_546\n      jump\t// in\n    tag_744:\n        /* \"#utility.yul\":14631:14668   */\n      swap3\n      pop\n        /* \"#utility.yul\":14687:14791   */\n      tag_745\n        /* \"#utility.yul\":14724:14790   */\n      0xffffffffffffffffffffffffffffffffffffffffffffffffffffffffffffffff\n        /* \"#utility.yul\":14714:14722   */\n      dup5\n        /* \"#utility.yul\":14708:14712   */\n      dup5\n        /* \"#utility.yul\":14687:14791   */\n      tag_565\n      jump\t// in\n    tag_745:\n        /* \"#utility.yul\":14678:14791   */\n      swap1\n      pop\n        /* \"#utility.yul\":14517:14798   */\n      swap3\n      swap2\n      pop\n      pop\n      jump\t// out\n        /* \"#utility.yul\":14804:15214   */\n    tag_440:\n        /* \"#utility.yul\":14844:14851   */\n      0x00\n        /* \"#utility.yul\":14867:14887   */\n      tag_747\n        /* \"#utility.yul\":14885:14886   */\n      dup3\n        /* \"#utility.yul\":14867:14887   */\n      tag_540\n      jump\t// in\n    tag_747:\n        /* \"#utility.yul\":14862:14887   */\n      swap2\n      pop\n        /* \"#utility.yul\":14901:14921   */\n      tag_748\n        /* \"#utility.yul\":14919:14920   */\n      dup4\n        /* \"#utility.yul\":14901:14921   */\n      tag_540\n      jump\t// in\n    tag_748:\n        /* \"#utility.yul\":14896:14921   */\n      swap3\n      pop\n        /* \"#utility.yul\":14956:14957   */\n      dup3\n        /* \"#utility.yul\":14953:14954   */\n      dup3\n        /* \"#utility.yul\":14949:14958   */\n      mul\n        /* \"#utility.yul\":14978:15008   */\n      tag_749\n        /* \"#utility.yul\":14996:15007   */\n      dup2\n        /* \"#utility.yul\":14978:15008   */\n      tag_540\n      jump\t// in\n    tag_749:\n        /* \"#utility.yul\":14967:15008   */\n      swap2\n      pop\n        /* \"#utility.yul\":15157:15158   */\n      dup3\n        /* \"#utility.yul\":15148:15155   */\n      dup3\n        /* \"#utility.yul\":15144:15159   */\n      div\n        /* \"#utility.yul\":15141:15142   */\n      dup5\n        /* \"#utility.yul\":15138:15160   */\n      eq\n        /* \"#utility.yul\":15118:15119   */\n      dup4\n        /* \"#utility.yul\":15111:15120   */\n      iszero\n        /* \"#utility.yul\":15091:15174   */\n      or\n        /* \"#utility.yul\":15068:15207   */\n      tag_750\n      jumpi\n        /* \"#utility.yul\":15187:15205   */\n      tag_751\n      tag_557\n      jump\t// in\n    tag_751:\n        /* \"#utility.yul\":15068:15207   */\n    tag_750:\n        /* \"#utility.yul\":14852:15214   */\n      pop\n        /* \"#utility.yul\":14804:15214   */\n      swap3\n      swap2\n      pop\n      pop\n      jump\t// out\n        /* \"#utility.yul\":15220:15400   */\n    tag_479:\n        /* \"#utility.yul\":15268:15345   */\n      0x4e487b7100000000000000000000000000000000000000000000000000000000\n        /* \"#utility.yul\":15265:15266   */\n      0x00\n        /* \"#utility.yul\":15258:15346   */\n      mstore\n        /* \"#utility.yul\":15365:15369   */\n      0x41\n        /* \"#utility.yul\":15362:15363   */\n      0x04\n        /* \"#utility.yul\":15355:15370   */\n      mstore\n        /* \"#utility.yul\":15389:15393   */\n      0x24\n        /* \"#utility.yul\":15386:15387   */\n      0x00\n        /* \"#utility.yul\":15379:15394   */\n      revert\n        /* \"#utility.yul\":15406:15549   */\n    tag_566:\n        /* \"#utility.yul\":15463:15468   */\n      0x00\n        /* \"#utility.yul\":15494:15500   */\n      dup2\n        /* \"#utility.yul\":15488:15501   */\n      mload\n        /* \"#utility.yul\":15479:15501   */\n      swap1\n      pop\n        /* \"#utility.yul\":15510:15543   */\n      tag_754\n        /* \"#utility.yul\":15537:15542   */\n      dup2\n        /* \"#utility.yul\":15510:15543   */\n      tag_538\n      jump\t// in\n    tag_754:\n        /* \"#utility.yul\":15406:15549   */\n      swap3\n      swap2\n      pop\n      pop\n      jump\t// out\n        /* \"#utility.yul\":15555:15906   */\n    tag_486:\n        /* \"#utility.yul\":15625:15631   */\n      0x00\n        /* \"#utility.yul\":15674:15676   */\n      0x20\n        /* \"#utility.yul\":15662:15671   */\n      dup3\n        /* \"#utility.yul\":15653:15660   */\n      dup5\n        /* \"#utility.yul\":15649:15672   */\n      sub\n        /* \"#utility.yul\":15645:15677   */\n      slt\n        /* \"#utility.yul\":15642:15761   */\n      iszero\n      tag_756\n      jumpi\n        /* \"#utility.yul\":15680:15759   */\n      tag_757\n      tag_534\n      jump\t// in\n    tag_757:\n        /* \"#utility.yul\":15642:15761   */\n    tag_756:\n        /* \"#utility.yul\":15800:15801   */\n      0x00\n        /* \"#utility.yul\":15825:15889   */\n      tag_758\n        /* \"#utility.yul\":15881:15888   */\n      dup5\n        /* \"#utility.yul\":15872:15878   */\n      dup3\n        /* \"#utility.yul\":15861:15870   */\n      dup6\n        /* \"#utility.yul\":15857:15879   */\n      add\n        /* \"#utility.yul\":15825:15889   */\n      tag_566\n      jump\t// in\n    tag_758:\n        /* \"#utility.yul\":15815:15889   */\n      swap2\n      pop\n        /* \"#utility.yul\":15771:15899   */\n      pop\n        /* \"#utility.yul\":15555:15906   */\n      swap3\n      swap2\n      pop\n      pop\n      jump\t// out\n        /* \"#utility.yul\":15912:15997   */\n    tag_567:\n        /* \"#utility.yul\":15957:15964   */\n      0x00\n        /* \"#utility.yul\":15986:15991   */\n      dup2\n        /* \"#utility.yul\":15975:15991   */\n      swap1\n      pop\n        /* \"#utility.yul\":15912:15997   */\n      swap2\n      swap1\n      pop\n      jump\t// out\n        /* \"#utility.yul\":16003:16161   */\n    tag_568:\n        /* \"#utility.yul\":16061:16070   */\n      0x00\n        /* \"#utility.yul\":16094:16155   */\n      tag_761\n        /* \"#utility.yul\":16112:16154   */\n      tag_762\n        /* \"#utility.yul\":16121:16153   */\n      tag_763\n        /* \"#utility.yul\":16147:16152   */\n      dup5\n        /* \"#utility.yul\":16121:16153   */\n      tag_567\n      jump\t// in\n    tag_763:\n        /* \"#utility.yul\":16112:16154   */\n      tag_551\n      jump\t// in\n    tag_762:\n        /* \"#utility.yul\":16094:16155   */\n      tag_540\n      jump\t// in\n    tag_761:\n        /* \"#utility.yul\":16081:16155   */\n      swap1\n      pop\n        /* \"#utility.yul\":16003:16161   */\n      swap2\n      swap1\n      pop\n      jump\t// out\n        /* \"#utility.yul\":16167:16314   */\n    tag_569:\n        /* \"#utility.yul\":16262:16307   */\n      tag_765\n        /* \"#utility.yul\":16301:16306   */\n      dup2\n        /* \"#utility.yul\":16262:16307   */\n      tag_568\n      jump\t// in\n    tag_765:\n        /* \"#utility.yul\":16257:16260   */\n      dup3\n        /* \"#utility.yul\":16250:16308   */\n      mstore\n        /* \"#utility.yul\":16167:16314   */\n      pop\n      pop\n      jump\t// out\n        /* \"#utility.yul\":16320:16434   */\n    tag_570:\n        /* \"#utility.yul\":16387:16393   */\n      0x00\n        /* \"#utility.yul\":16421:16426   */\n      dup2\n        /* \"#utility.yul\":16415:16427   */\n      mload\n        /* \"#utility.yul\":16405:16427   */\n      swap1\n      pop\n        /* \"#utility.yul\":16320:16434   */\n      swap2\n      swap1\n      pop\n      jump\t// out\n        /* \"#utility.yul\":16440:16624   */\n    tag_571:\n        /* \"#utility.yul\":16539:16550   */\n      0x00\n        /* \"#utility.yul\":16573:16579   */\n      dup3\n        /* \"#utility.yul\":16568:16571   */\n      dup3\n        /* \"#utility.yul\":16561:16580   */\n      mstore\n        /* \"#utility.yul\":16613:16617   */\n      0x20\n        /* \"#utility.yul\":16608:16611   */\n      dup3\n        /* \"#utility.yul\":16604:16618   */\n      add\n        /* \"#utility.yul\":16589:16618   */\n      swap1\n      pop\n        /* \"#utility.yul\":16440:16624   */\n      swap3\n      swap2\n      pop\n      pop\n      jump\t// out\n        /* \"#utility.yul\":16630:16762   */\n    tag_572:\n        /* \"#utility.yul\":16697:16701   */\n      0x00\n        /* \"#utility.yul\":16720:16723   */\n      dup2\n        /* \"#utility.yul\":16712:16723   */\n      swap1\n      pop\n        /* \"#utility.yul\":16750:16754   */\n      0x20\n        /* \"#utility.yul\":16745:16748   */\n      dup3\n        /* \"#utility.yul\":16741:16755   */\n      add\n        /* \"#utility.yul\":16733:16755   */\n      swap1\n      pop\n        /* \"#utility.yul\":16630:16762   */\n      swap2\n      swap1\n      pop\n      jump\t// out\n        /* \"#utility.yul\":16768:16876   */\n    tag_573:\n        /* \"#utility.yul\":16845:16869   */\n      tag_770\n        /* \"#utility.yul\":16863:16868   */\n      dup2\n        /* \"#utility.yul\":16845:16869   */\n      tag_537\n      jump\t// in\n    tag_770:\n        /* \"#utility.yul\":16840:16843   */\n      dup3\n        /* \"#utility.yul\":16833:16870   */\n      mstore\n        /* \"#utility.yul\":16768:16876   */\n      pop\n      pop\n      jump\t// out\n        /* \"#utility.yul\":16882:17061   */\n    tag_574:\n        /* \"#utility.yul\":16951:16961   */\n      0x00\n        /* \"#utility.yul\":16972:17018   */\n      tag_772\n        /* \"#utility.yul\":17014:17017   */\n      dup4\n        /* \"#utility.yul\":17006:17012   */\n      dup4\n        /* \"#utility.yul\":16972:17018   */\n      tag_573\n      jump\t// in\n    tag_772:\n        /* \"#utility.yul\":17050:17054   */\n      0x20\n        /* \"#utility.yul\":17045:17048   */\n      dup4\n        /* \"#utility.yul\":17041:17055   */\n      add\n        /* \"#utility.yul\":17027:17055   */\n      swap1\n      pop\n        /* \"#utility.yul\":16882:17061   */\n      swap3\n      swap2\n      pop\n      pop\n      jump\t// out\n        /* \"#utility.yul\":17067:17180   */\n    tag_575:\n        /* \"#utility.yul\":17137:17141   */\n      0x00\n        /* \"#utility.yul\":17169:17173   */\n      0x20\n        /* \"#utility.yul\":17164:17167   */\n      dup3\n        /* \"#utility.yul\":17160:17174   */\n      add\n        /* \"#utility.yul\":17152:17174   */\n      swap1\n      pop\n        /* \"#utility.yul\":17067:17180   */\n      swap2\n      swap1\n      pop\n      jump\t// out\n        /* \"#utility.yul\":17216:17948   */\n    tag_576:\n        /* \"#utility.yul\":17335:17338   */\n      0x00\n        /* \"#utility.yul\":17364:17418   */\n      tag_775\n        /* \"#utility.yul\":17412:17417   */\n      dup3\n        /* \"#utility.yul\":17364:17418   */\n      tag_570\n      jump\t// in\n    tag_775:\n        /* \"#utility.yul\":17434:17520   */\n      tag_776\n        /* \"#utility.yul\":17513:17519   */\n      dup2\n        /* \"#utility.yul\":17508:17511   */\n      dup6\n        /* \"#utility.yul\":17434:17520   */\n      tag_571\n      jump\t// in\n    tag_776:\n        /* \"#utility.yul\":17427:17520   */\n      swap4\n      pop\n        /* \"#utility.yul\":17544:17600   */\n      tag_777\n        /* \"#utility.yul\":17594:17599   */\n      dup4\n        /* \"#utility.yul\":17544:17600   */\n      tag_572\n      jump\t// in\n    tag_777:\n        /* \"#utility.yul\":17623:17630   */\n      dup1\n        /* \"#utility.yul\":17654:17655   */\n      0x00\n        /* \"#utility.yul\":17639:17923   */\n    tag_778:\n        /* \"#utility.yul\":17664:17670   */\n      dup4\n        /* \"#utility.yul\":17661:17662   */\n      dup2\n        /* \"#utility.yul\":17658:17671   */\n      lt\n        /* \"#utility.yul\":17639:17923   */\n      iszero\n      tag_780\n      jumpi\n        /* \"#utility.yul\":17740:17746   */\n      dup2\n        /* \"#utility.yul\":17734:17747   */\n      mload\n        /* \"#utility.yul\":17767:17830   */\n      tag_781\n        /* \"#utility.yul\":17826:17829   */\n      dup9\n        /* \"#utility.yul\":17811:17824   */\n      dup3\n        /* \"#utility.yul\":17767:17830   */\n      tag_574\n      jump\t// in\n    tag_781:\n        /* \"#utility.yul\":17760:17830   */\n      swap8\n      pop\n        /* \"#utility.yul\":17853:17913   */\n      tag_782\n        /* \"#utility.yul\":17906:17912   */\n      dup4\n        /* \"#utility.yul\":17853:17913   */\n      tag_575\n      jump\t// in\n    tag_782:\n        /* \"#utility.yul\":17843:17913   */\n      swap3\n      pop\n        /* \"#utility.yul\":17699:17923   */\n      pop\n        /* \"#utility.yul\":17686:17687   */\n      0x01\n        /* \"#utility.yul\":17683:17684   */\n      dup2\n        /* \"#utility.yul\":17679:17688   */\n      add\n        /* \"#utility.yul\":17674:17688   */\n      swap1\n      pop\n        /* \"#utility.yul\":17639:17923   */\n      jump(tag_778)\n    tag_780:\n        /* \"#utility.yul\":17643:17657   */\n      pop\n        /* \"#utility.yul\":17939:17942   */\n      dup6\n        /* \"#utility.yul\":17932:17942   */\n      swap4\n      pop\n        /* \"#utility.yul\":17340:17948   */\n      pop\n      pop\n      pop\n        /* \"#utility.yul\":17216:17948   */\n      swap3\n      swap2\n      pop\n      pop\n      jump\t// out\n        /* \"#utility.yul\":17954:18785   */\n    tag_490:\n        /* \"#utility.yul\":18217:18221   */\n      0x00\n        /* \"#utility.yul\":18255:18258   */\n      0xa0\n        /* \"#utility.yul\":18244:18253   */\n      dup3\n        /* \"#utility.yul\":18240:18259   */\n      add\n        /* \"#utility.yul\":18232:18259   */\n      swap1\n      pop\n        /* \"#utility.yul\":18269:18340   */\n      tag_784\n        /* \"#utility.yul\":18337:18338   */\n      0x00\n        /* \"#utility.yul\":18326:18335   */\n      dup4\n        /* \"#utility.yul\":18322:18339   */\n      add\n        /* \"#utility.yul\":18313:18319   */\n      dup9\n        /* \"#utility.yul\":18269:18340   */\n      tag_545\n      jump\t// in\n    tag_784:\n        /* \"#utility.yul\":18350:18430   */\n      tag_785\n        /* \"#utility.yul\":18426:18428   */\n      0x20\n        /* \"#utility.yul\":18415:18424   */\n      dup4\n        /* \"#utility.yul\":18411:18429   */\n      add\n        /* \"#utility.yul\":18402:18408   */\n      dup8\n        /* \"#utility.yul\":18350:18430   */\n      tag_569\n      jump\t// in\n    tag_785:\n        /* \"#utility.yul\":18477:18486   */\n      dup2\n        /* \"#utility.yul\":18471:18475   */\n      dup2\n        /* \"#utility.yul\":18467:18487   */\n      sub\n        /* \"#utility.yul\":18462:18464   */\n      0x40\n        /* \"#utility.yul\":18451:18460   */\n      dup4\n        /* \"#utility.yul\":18447:18465   */\n      add\n        /* \"#utility.yul\":18440:18488   */\n      mstore\n        /* \"#utility.yul\":18505:18613   */\n      tag_786\n        /* \"#utility.yul\":18608:18612   */\n      dup2\n        /* \"#utility.yul\":18599:18605   */\n      dup7\n        /* \"#utility.yul\":18505:18613   */\n      tag_576\n      jump\t// in\n    tag_786:\n        /* \"#utility.yul\":18497:18613   */\n      swap1\n      pop\n        /* \"#utility.yul\":18623:18695   */\n      tag_787\n        /* \"#utility.yul\":18691:18693   */\n      0x60\n        /* \"#utility.yul\":18680:18689   */\n      dup4\n        /* \"#utility.yul\":18676:18694   */\n      add\n        /* \"#utility.yul\":18667:18673   */\n      dup6\n        /* \"#utility.yul\":18623:18695   */\n      tag_550\n      jump\t// in\n    tag_787:\n        /* \"#utility.yul\":18705:18778   */\n      tag_788\n        /* \"#utility.yul\":18773:18776   */\n      0x80\n        /* \"#utility.yul\":18762:18771   */\n      dup4\n        /* \"#utility.yul\":18758:18777   */\n      add\n        /* \"#utility.yul\":18749:18755   */\n      dup5\n        /* \"#utility.yul\":18705:18778   */\n      tag_545\n      jump\t// in\n    tag_788:\n        /* \"#utility.yul\":17954:18785   */\n      swap7\n      swap6\n      pop\n      pop\n      pop\n      pop\n      pop\n      pop\n      jump\t// out\n        /* \"#utility.yul\":18791:18971   */\n    tag_577:\n        /* \"#utility.yul\":18839:18916   */\n      0x4e487b7100000000000000000000000000000000000000000000000000000000\n        /* \"#utility.yul\":18836:18837   */\n      0x00\n        /* \"#utility.yul\":18829:18917   */\n      mstore\n        /* \"#utility.yul\":18936:18940   */\n      0x12\n        /* \"#utility.yul\":18933:18934   */\n      0x04\n        /* \"#utility.yul\":18926:18941   */\n      mstore\n        /* \"#utility.yul\":18960:18964   */\n      0x24\n        /* \"#utility.yul\":18957:18958   */\n      0x00\n        /* \"#utility.yul\":18950:18965   */\n      revert\n        /* \"#utility.yul\":18977:19162   */\n    tag_519:\n        /* \"#utility.yul\":19017:19018   */\n      0x00\n        /* \"#utility.yul\":19034:19054   */\n      tag_791\n        /* \"#utility.yul\":19052:19053   */\n      dup3\n        /* \"#utility.yul\":19034:19054   */\n      tag_540\n      jump\t// in\n    tag_791:\n        /* \"#utility.yul\":19029:19054   */\n      swap2\n      pop\n        /* \"#utility.yul\":19068:19088   */\n      tag_792\n        /* \"#utility.yul\":19086:19087   */\n      dup4\n        /* \"#utility.yul\":19068:19088   */\n      tag_540\n      jump\t// in\n    tag_792:\n        /* \"#utility.yul\":19063:19088   */\n      swap3\n      pop\n        /* \"#utility.yul\":19107:19108   */\n      dup3\n        /* \"#utility.yul\":19097:19132   */\n      tag_793\n      jumpi\n        /* \"#utility.yul\":19112:19130   */\n      tag_794\n      tag_577\n      jump\t// in\n    tag_794:\n        /* \"#utility.yul\":19097:19132   */\n    tag_793:\n        /* \"#utility.yul\":19154:19155   */\n      dup3\n        /* \"#utility.yul\":19151:19152   */\n      dup3\n        /* \"#utility.yul\":19147:19156   */\n      div\n        /* \"#utility.yul\":19142:19156   */\n      swap1\n      pop\n        /* \"#utility.yul\":18977:19162   */\n      swap3\n      swap2\n      pop\n      pop\n      jump\t// out\n\n    auxdata: 0xa2646970667358221220b49b8f29610e4b9b537634f044127fe0255df4b88b7d2ba2b802c1d4eb00e8ff64736f6c63430008180033\n}\n",
				"bytecode": {
					"linkReferences": {},
					"object": "60806040526201518060055560636007556102586008555f6014806101000a81548160ff0219169083151502179055503480156200003b575f80fd5b506040518060400160405280600481526020017f424f4d42000000000000000000000000000000000000000000000000000000008152506040518060400160405280600481526020017f424f4d42000000000000000000000000000000000000000000000000000000008152506005825f9081620000ba919062000554565b508160019081620000cc919062000554565b508060025f6101000a81548160ff021916908360ff16021790555050505033600260016101000a81548173ffffffffffffffffffffffffffffffffffffffff021916908373ffffffffffffffffffffffffffffffffffffffff1602179055506005600a6200013b9190620007c1565b6204f5886200014b919062000811565b600c8190555042600a8190555042600b81905550600160095f6101000a81548160ff0219169083151502179055506001600960016101000a81548160ff021916908315150217905550600160105f3073ffffffffffffffffffffffffffffffffffffffff1673ffffffffffffffffffffffffffffffffffffffff1681526020019081526020015f205f6101000a81548160ff02191690831515021790555073d7f655e3376ce2d7a2b08ff01eb3b1023191a90160135f6101000a81548173ffffffffffffffffffffffffffffffffffffffff021916908373ffffffffffffffffffffffffffffffffffffffff160217905550600c54600e5f3373ffffffffffffffffffffffffffffffffffffffff1673ffffffffffffffffffffffffffffffffffffffff1681526020019081526020015f20819055503373ffffffffffffffffffffffffffffffffffffffff163073ffffffffffffffffffffffffffffffffffffffff167fddf252ad1be2c89b69c2b068fc378daa952ba7f163c4a11628f55a4df523b3ef600c54604051620002e291906200086c565b60405180910390a362000887565b5f81519050919050565b7f4e487b71000000000000000000000000000000000000000000000000000000005f52604160045260245ffd5b7f4e487b71000000000000000000000000000000000000000000000000000000005f52602260045260245ffd5b5f60028204905060018216806200036c57607f821691505b60208210810362000382576200038162000327565b5b50919050565b5f819050815f5260205f209050919050565b5f6020601f8301049050919050565b5f82821b905092915050565b5f60088302620003e67fffffffffffffffffffffffffffffffffffffffffffffffffffffffffffffffff82620003a9565b620003f28683620003a9565b95508019841693508086168417925050509392505050565b5f819050919050565b5f819050919050565b5f6200043c6200043662000430846200040a565b62000413565b6200040a565b9050919050565b5f819050919050565b62000457836200041c565b6200046f620004668262000443565b848454620003b5565b825550505050565b5f90565b6200048562000477565b620004928184846200044c565b505050565b5b81811015620004b957620004ad5f826200047b565b60018101905062000498565b5050565b601f8211156200050857620004d28162000388565b620004dd846200039a565b81016020851015620004ed578190505b62000505620004fc856200039a565b83018262000497565b50505b505050565b5f82821c905092915050565b5f6200052a5f19846008026200050d565b1980831691505092915050565b5f62000544838362000519565b9150826002028217905092915050565b6200055f82620002f0565b67ffffffffffffffff8111156200057b576200057a620002fa565b5b62000587825462000354565b62000594828285620004bd565b5f60209050601f831160018114620005ca575f8415620005b5578287015190505b620005c1858262000537565b86555062000630565b601f198416620005da8662000388565b5f5b828110156200060357848901518255600182019150602085019450602081019050620005dc565b868310156200062357848901516200061f601f89168262000519565b8355505b6001600288020188555050505b505050505050565b7f4e487b71000000000000000000000000000000000000000000000000000000005f52601160045260245ffd5b5f8160011c9050919050565b5f808291508390505b6001851115620006c2578086048111156200069a576200069962000638565b5b6001851615620006aa5780820291505b8081029050620006ba8562000665565b94506200067a565b94509492505050565b5f82620006dc5760019050620007ae565b81620006eb575f9050620007ae565b81600181146200070457600281146200070f5762000745565b6001915050620007ae565b60ff84111562000724576200072362000638565b5b8360020a9150848211156200073e576200073d62000638565b5b50620007ae565b5060208310610133831016604e8410600b84101617156200077f5782820a90508381111562000779576200077862000638565b5b620007ae565b6200078e848484600162000671565b92509050818404811115620007a857620007a762000638565b5b81810290505b9392505050565b5f60ff82169050919050565b5f620007cd826200040a565b9150620007da83620007b5565b9250620008097fffffffffffffffffffffffffffffffffffffffffffffffffffffffffffffffff8484620006cb565b905092915050565b5f6200081d826200040a565b91506200082a836200040a565b92508282026200083a816200040a565b9150828204841483151762000854576200085362000638565b5b5092915050565b62000866816200040a565b82525050565b5f602082019050620008815f8301846200085b565b92915050565b61358c80620008955f395ff3fe608060405260043610610249575f3560e01c806383b4ac6811610138578063a8b08982116100b5578063d439979011610079578063d439979014610846578063dd62ed3e14610882578063e15beb80146108be578063eaca243b146108e6578063f2e809e01461090e578063f2fde38b1461093657610250565b8063a8b0898214610764578063a9059cbb1461078e578063ae06c1b7146107ca578063afb9cf6d146107f2578063c737a49b1461081c57610250565b806395fe579c116100fc57806395fe579c1461066e57806397d75776146106985780639b87676c146106c2578063a20623ce146106ec578063a457c2d71461072857610250565b806383b4ac681461059e578063854cff2f146105c85780638da5cb5b146105f05780638f32d59b1461061a57806395d89b411461064457610250565b806339509351116101c6578063692229481161018a57806369222948146104e257806370a082311461050c57806370ee739514610548578063715018a614610572578063753d02a11461058857610250565b806339509351146104025780633eaaf86b1461043e5780634addc0e8146104685780634bc6dd18146104925780634e14ec4b146104ba57610250565b80632910164a1161020d5780632910164a146103365780632f34d2821461035e578063313ce5671461038657806332b75683146103b057806337c9be87146103da57610250565b806306fdde0314610254578063095ea7b31461027e57806318160ddd146102ba57806323084e5f146102e457806323b872dd146102fa57610250565b3661025057005b5f80fd5b34801561025f575f80fd5b5061026861095e565b6040516102759190612b81565b60405180910390f35b348015610289575f80fd5b506102a4600480360381019061029f9190612c32565b6109ed565b6040516102b19190612c8a565b60405180910390f35b3480156102c5575f80fd5b506102ce610ada565b6040516102db9190612cb2565b60405180910390f35b3480156102ef575f80fd5b506102f8610ae3565b005b348015610305575f80fd5b50610320600480360381019061031b9190612ccb565b610c55565b60405161032d9190612c8a565b60405180910390f35b348015610341575f80fd5b5061035c60048036038101906103579190612d1b565b610e7a565b005b348015610369575f80fd5b50610384600480360381019061037f9190612d46565b610e94565b005b348015610391575f80fd5b5061039a610ee7565b6040516103a79190612d8c565b60405180910390f35b3480156103bb575f80fd5b506103c4610efc565b6040516103d19190612cb2565b60405180910390f35b3480156103e5575f80fd5b5061040060048036038101906103fb9190612dcf565b610f02565b005b34801561040d575f80fd5b5061042860048036038101906104239190612c32565b610fb2565b6040516104359190612c8a565b60405180910390f35b348015610449575f80fd5b506104526111a1565b60405161045f9190612cb2565b60405180910390f35b348015610473575f80fd5b5061047c6111a7565b6040516104899190612cb2565b60405180910390f35b34801561049d575f80fd5b506104b860048036038101906104b39190612e0d565b6111ad565b005b3480156104c5575f80fd5b506104e060048036038101906104db9190612e0d565b611200565b005b3480156104ed575f80fd5b506104f6611253565b6040516105039190612cb2565b60405180910390f35b348015610517575f80fd5b50610532600480360381019061052d9190612d46565b611259565b60405161053f9190612cb2565b60405180910390f35b348015610553575f80fd5b5061055c61129f565b6040516105699190612c8a565b60405180910390f35b34801561057d575f80fd5b506105866112b2565b005b348015610593575f80fd5b5061059c61136a565b005b3480156105a9575f80fd5b506105b26113e8565b6040516105bf9190612c8a565b60405180910390f35b3480156105d3575f80fd5b506105ee60048036038101906105e99190612d46565b6113fd565b005b3480156105fb575f80fd5b50610604611465565b6040516106119190612e47565b60405180910390f35b348015610625575f80fd5b5061062e61148e565b60405161063b9190612c8a565b60405180910390f35b34801561064f575f80fd5b506106586114e5565b6040516106659190612b81565b60405180910390f35b348015610679575f80fd5b50610682611575565b60405161068f9190612c8a565b60405180910390f35b3480156106a3575f80fd5b506106ac611588565b6040516106b99190612ebb565b60405180910390f35b3480156106cd575f80fd5b506106d66115ad565b6040516106e39190612cb2565b60405180910390f35b3480156106f7575f80fd5b50610712600480360381019061070d9190612d46565b6115b3565b60405161071f9190612c8a565b60405180910390f35b348015610733575f80fd5b5061074e60048036038101906107499190612c32565b6115d0565b60405161075b9190612c8a565b60405180910390f35b34801561076f575f80fd5b5061077861184e565b6040516107859190612e47565b60405180910390f35b348015610799575f80fd5b506107b460048036038101906107af9190612c32565b611876565b6040516107c19190612c8a565b60405180910390f35b3480156107d5575f80fd5b506107f060048036038101906107eb9190612d1b565b6118c6565b005b3480156107fd575f80fd5b506108066118e0565b6040516108139190612c8a565b60405180910390f35b348015610827575f80fd5b506108306118f2565b60405161083d9190612cb2565b60405180910390f35b348015610851575f80fd5b5061086c60048036038101906108679190612d46565b6118f8565b6040516108799190612c8a565b60405180910390f35b34801561088d575f80fd5b506108a860048036038101906108a39190612ed4565b61194a565b6040516108b59190612cb2565b60405180910390f35b3480156108c9575f80fd5b506108e460048036038101906108df9190612e0d565b6119cc565b005b3480156108f1575f80fd5b5061090c60048036038101906109079190612d1b565b611a24565b005b348015610919575f80fd5b50610934600480360381019061092f9190612d46565b611a3e565b005b348015610941575f80fd5b5061095c60048036038101906109579190612d46565b611b58565b005b60605f805461096c90612f3f565b80601f016020809104026020016040519081016040528092919081815260200182805461099890612f3f565b80156109e35780601f106109ba576101008083540402835291602001916109e3565b820191905f5260205f20905b8154815290600101906020018083116109c657829003601f168201915b5050505050905090565b5f8160155f3373ffffffffffffffffffffffffffffffffffffffff1673ffffffffffffffffffffffffffffffffffffffff1681526020019081526020015f205f8573ffffffffffffffffffffffffffffffffffffffff1673ffffffffffffffffffffffffffffffffffffffff1681526020019081526020015f20819055508273ffffffffffffffffffffffffffffffffffffffff163373ffffffffffffffffffffffffffffffffffffffff167f8c5be1e5ebec7d5bd14f71427d1e84f3dd0314c0f7b2291e5b200ac8c7c3b92584604051610ac89190612cb2565b60405180910390a36001905092915050565b5f600c54905090565b5f3390505f60045f8373ffffffffffffffffffffffffffffffffffffffff1673ffffffffffffffffffffffffffffffffffffffff1681526020019081526020015f205490504260055482610b379190612f9c565b1015610b44575050610c53565b4260045f8473ffffffffffffffffffffffffffffffffffffffff1673ffffffffffffffffffffffffffffffffffffffff1681526020019081526020015f20819055505f60035f9054906101000a900473ffffffffffffffffffffffffffffffffffffffff1673ffffffffffffffffffffffffffffffffffffffff1663954fa5ee30856040518363ffffffff1660e01b8152600401610be3929190612fcf565b6020604051808303815f875af1158015610bff573d5f803e3d5ffd5b505050506040513d601f19601f82011682018060405250810190610c23919061300a565b90505f811115610c4f578060065f828254610c3e9190612f9c565b92505081905550610c4e81611b74565b5b5050505b565b5f825f73ffffffffffffffffffffffffffffffffffffffff168173ffffffffffffffffffffffffffffffffffffffff1603610c8e575f80fd5b3073ffffffffffffffffffffffffffffffffffffffff168573ffffffffffffffffffffffffffffffffffffffff16148015610d15575060135f9054906101000a900473ffffffffffffffffffffffffffffffffffffffff1673ffffffffffffffffffffffffffffffffffffffff168473ffffffffffffffffffffffffffffffffffffffff16145b15610d235760019150610e72565b610de5836040518060400160405280601681526020017f496e73756666696369656e7420416c6c6f77616e63650000000000000000000081525060155f8973ffffffffffffffffffffffffffffffffffffffff1673ffffffffffffffffffffffffffffffffffffffff1681526020019081526020015f205f3373ffffffffffffffffffffffffffffffffffffffff1673ffffffffffffffffffffffffffffffffffffffff1681526020019081526020015f2054611b809092919063ffffffff16565b60155f8773ffffffffffffffffffffffffffffffffffffffff1673ffffffffffffffffffffffffffffffffffffffff1681526020019081526020015f205f3373ffffffffffffffffffffffffffffffffffffffff1673ffffffffffffffffffffffffffffffffffffffff1681526020019081526020015f2081905550610e6c858585611bd4565b50600191505b509392505050565b610e8261148e565b610e8a575f80fd5b8060088190555050565b610e9c61148e565b610ea4575f80fd5b8060145f6101000a81548173ffffffffffffffffffffffffffffffffffffffff021916908373ffffffffffffffffffffffffffffffffffffffff16021790555050565b5f60025f9054906101000a900460ff16905090565b600b5481565b610f0a61148e565b610f12575f80fd5b610f1b82611dc2565b610f5a576040517f08c379a0000000000000000000000000000000000000000000000000000000008152600401610f51906130a5565b60405180910390fd5b8060115f8473ffffffffffffffffffffffffffffffffffffffff1673ffffffffffffffffffffffffffffffffffffffff1681526020019081526020015f205f6101000a81548160ff0219169083151502179055505050565b5f61103e8260155f3373ffffffffffffffffffffffffffffffffffffffff1673ffffffffffffffffffffffffffffffffffffffff1681526020019081526020015f205f8673ffffffffffffffffffffffffffffffffffffffff1673ffffffffffffffffffffffffffffffffffffffff1681526020019081526020015f2054611dd390919063ffffffff16565b60155f3373ffffffffffffffffffffffffffffffffffffffff1673ffffffffffffffffffffffffffffffffffffffff1681526020019081526020015f205f8573ffffffffffffffffffffffffffffffffffffffff1673ffffffffffffffffffffffffffffffffffffffff1681526020019081526020015f20819055508273ffffffffffffffffffffffffffffffffffffffff163373ffffffffffffffffffffffffffffffffffffffff167f8c5be1e5ebec7d5bd14f71427d1e84f3dd0314c0f7b2291e5b200ac8c7c3b92560155f3373ffffffffffffffffffffffffffffffffffffffff1673ffffffffffffffffffffffffffffffffffffffff1681526020019081526020015f205f8773ffffffffffffffffffffffffffffffffffffffff1673ffffffffffffffffffffffffffffffffffffffff1681526020019081526020015f205460405161118f9190612cb2565b60405180910390a36001905092915050565b600c5481565b60055481565b6111b561148e565b6111bd575f80fd5b80156111e25780600960016101000a81548160ff0219169083151502179055506111fd565b80600960016101000a81548160ff0219169083151502179055505b50565b61120861148e565b611210575f80fd5b80156112355780600960026101000a81548160ff021916908315150217905550611250565b80600960026101000a81548160ff0219169083151502179055505b50565b60075481565b5f600e5f8373ffffffffffffffffffffffffffffffffffffffff1673ffffffffffffffffffffffffffffffffffffffff1681526020019081526020015f20549050919050565b600960019054906101000a900460ff1681565b6112ba61148e565b6112c2575f80fd5b600260019054906101000a900473ffffffffffffffffffffffffffffffffffffffff1673ffffffffffffffffffffffffffffffffffffffff167ff8df31144d9c2f0f6b59d69b8b98abd5459d07f2742c4df920b25aae33c6482060405160405180910390a25f600260016101000a81548173ffffffffffffffffffffffffffffffffffffffff021916908373ffffffffffffffffffffffffffffffffffffffff160217905550565b60145f9054906101000a900473ffffffffffffffffffffffffffffffffffffffff1673ffffffffffffffffffffffffffffffffffffffff1663fff6cae96040518163ffffffff1660e01b81526004015f604051808303815f87803b1580156113d0575f80fd5b505af11580156113e2573d5f803e3d5ffd5b50505050565b5f60148054906101000a900460ff1615905090565b61140561148e565b61140d575f80fd5b600160105f8373ffffffffffffffffffffffffffffffffffffffff1673ffffffffffffffffffffffffffffffffffffffff1681526020019081526020015f205f6101000a81548160ff02191690831515021790555050565b5f600260019054906101000a900473ffffffffffffffffffffffffffffffffffffffff16905090565b5f600260019054906101000a900473ffffffffffffffffffffffffffffffffffffffff1673ffffffffffffffffffffffffffffffffffffffff163373ffffffffffffffffffffffffffffffffffffffff1614905090565b6060600180546114f490612f3f565b80601f016020809104026020016040519081016040528092919081815260200182805461152090612f3f565b801561156b5780601f106115425761010080835404028352916020019161156b565b820191905f5260205f20905b81548152906001019060200180831161154e57829003601f168201915b5050505050905090565b600960029054906101000a900460ff1681565b60035f9054906101000a900473ffffffffffffffffffffffffffffffffffffffff1681565b600a5481565b6011602052805f5260405f205f915054906101000a900460ff1681565b5f8060155f3373ffffffffffffffffffffffffffffffffffffffff1673ffffffffffffffffffffffffffffffffffffffff1681526020019081526020015f205f8573ffffffffffffffffffffffffffffffffffffffff1673ffffffffffffffffffffffffffffffffffffffff1681526020019081526020015f205490508083106116d6575f60155f3373ffffffffffffffffffffffffffffffffffffffff1673ffffffffffffffffffffffffffffffffffffffff1681526020019081526020015f205f8673ffffffffffffffffffffffffffffffffffffffff1673ffffffffffffffffffffffffffffffffffffffff1681526020019081526020015f2081905550611766565b6116e98382611de890919063ffffffff16565b60155f3373ffffffffffffffffffffffffffffffffffffffff1673ffffffffffffffffffffffffffffffffffffffff1681526020019081526020015f205f8673ffffffffffffffffffffffffffffffffffffffff1673ffffffffffffffffffffffffffffffffffffffff1681526020019081526020015f20819055505b8373ffffffffffffffffffffffffffffffffffffffff163373ffffffffffffffffffffffffffffffffffffffff167f8c5be1e5ebec7d5bd14f71427d1e84f3dd0314c0f7b2291e5b200ac8c7c3b92560155f3373ffffffffffffffffffffffffffffffffffffffff1673ffffffffffffffffffffffffffffffffffffffff1681526020019081526020015f205f8873ffffffffffffffffffffffffffffffffffffffff1673ffffffffffffffffffffffffffffffffffffffff1681526020019081526020015f205460405161183b9190612cb2565b60405180910390a3600191505092915050565b5f60145f9054906101000a900473ffffffffffffffffffffffffffffffffffffffff16905090565b5f825f73ffffffffffffffffffffffffffffffffffffffff168173ffffffffffffffffffffffffffffffffffffffff16036118af575f80fd5b6118ba338585611bd4565b50600191505092915050565b6118ce61148e565b6118d6575f80fd5b8060078190555050565b60095f9054906101000a900460ff1681565b60085481565b5f60105f8373ffffffffffffffffffffffffffffffffffffffff1673ffffffffffffffffffffffffffffffffffffffff1681526020019081526020015f205f9054906101000a900460ff169050919050565b5f60155f8473ffffffffffffffffffffffffffffffffffffffff1673ffffffffffffffffffffffffffffffffffffffff1681526020019081526020015f205f8373ffffffffffffffffffffffffffffffffffffffff1673ffffffffffffffffffffffffffffffffffffffff1681526020019081526020015f2054905092915050565b6119d461148e565b6119dc575f80fd5b8015611a07578060095f6101000a81548160ff02191690831515021790555042600b81905550611a21565b8060095f6101000a81548160ff0219169083151502179055505b50565b611a2c61148e565b611a34575f80fd5b8060058190555050565b611a4661148e565b611a4e575f80fd5b5f73ffffffffffffffffffffffffffffffffffffffff168173ffffffffffffffffffffffffffffffffffffffff1603611a995773430000000000000000000000000000000000000290505b8060035f6101000a81548173ffffffffffffffffffffffffffffffffffffffff021916908373ffffffffffffffffffffffffffffffffffffffff16021790555060035f9054906101000a900473ffffffffffffffffffffffffffffffffffffffff1673ffffffffffffffffffffffffffffffffffffffff16634e606c476040518163ffffffff1660e01b81526004015f604051808303815f87803b158015611b3f575f80fd5b505af1158015611b51573d5f803e3d5ffd5b5050505050565b611b6061148e565b611b68575f80fd5b611b7181611dfd565b50565b611b7d81611ef4565b50565b5f838311158290611bc7576040517f08c379a0000000000000000000000000000000000000000000000000000000008152600401611bbe9190612b81565b60405180910390fd5b5082840390509392505050565b5f60115f8573ffffffffffffffffffffffffffffffffffffffff1673ffffffffffffffffffffffffffffffffffffffff1681526020019081526020015f205f9054906101000a900460ff16158015611c73575060115f8473ffffffffffffffffffffffffffffffffffffffff1673ffffffffffffffffffffffffffffffffffffffff1681526020019081526020015f205f9054906101000a900460ff16155b611cb2576040517f08c379a0000000000000000000000000000000000000000000000000000000008152600401611ca99061310d565b60405180910390fd5b60148054906101000a900460ff1615611cd757611cd0848484611fe8565b9050611dbb565b611cdf612008565b15611ced57611cec6120d1565b5b611cf56122d8565b15611d0357611d0261235e565b5b611d0b6125ea565b15611d1a57611d1947611ef4565b5b611d24848361261b565b5f611d2f8585612678565b611d395782611d44565b611d43858461277b565b5b9050611d508482612832565b8373ffffffffffffffffffffffffffffffffffffffff168573ffffffffffffffffffffffffffffffffffffffff167fddf252ad1be2c89b69c2b068fc378daa952ba7f163c4a11628f55a4df523b3ef83604051611dad9190612cb2565b60405180910390a360019150505b9392505050565b5f80823b90505f8111915050919050565b5f8183611de09190612f9c565b905092915050565b5f8183611df5919061312b565b905092915050565b5f73ffffffffffffffffffffffffffffffffffffffff168173ffffffffffffffffffffffffffffffffffffffff1603611e34575f80fd5b8073ffffffffffffffffffffffffffffffffffffffff16600260019054906101000a900473ffffffffffffffffffffffffffffffffffffffff1673ffffffffffffffffffffffffffffffffffffffff167f8be0079c531659141344cd1fd0a4f28419497f9722a3daafe3b4186f6b6457e060405160405180910390a380600260016101000a81548173ffffffffffffffffffffffffffffffffffffffff021916908373ffffffffffffffffffffffffffffffffffffffff16021790555050565b5f811115611fe5575f805f5b601280549050811015611fe15760128181548110611f2157611f2061315e565b5b905f5260205f20015f9054906101000a900473ffffffffffffffffffffffffffffffffffffffff169250611f548361288f565b15611fd457611fbd600c54611faf600e5f8773ffffffffffffffffffffffffffffffffffffffff1673ffffffffffffffffffffffffffffffffffffffff1681526020019081526020015f20548761292090919063ffffffff16565b61293590919063ffffffff16565b91505f821115611fd357611fd1838361294a565b505b5b8080600101915050611f00565b5050505b50565b5f611ff3848361261b565b611ffd8383612832565b600190509392505050565b5f60095f9054906101000a900460ff16801561204157506005600a61202d91906132ba565b63c1b7108061203c9190613304565b600c54105b801561209a575060145f9054906101000a900473ffffffffffffffffffffffffffffffffffffffff1673ffffffffffffffffffffffffffffffffffffffff163373ffffffffffffffffffffffffffffffffffffffff1614155b80156120b1575060148054906101000a900460ff16155b80156120cc5750610384600b546120c89190612f9c565b4210155b905090565b60148054906101000a900460ff166122d6575f80600a54426120f3919061312b565b90505f600b5442612104919061312b565b90505f61211c6103848361293590919063ffffffff16565b90505f612133600f8361292090919063ffffffff16565b90506305a39a8084111561214a576001945061217a565b6303c26700841061215e5760139450612179565b6301e1338084106121725760bf9450612178565b61077b94505b5b5b5f5b828110156121ea576121d76007600a61219591906132ba565b6121c96121b8896007600a6121aa91906132ba565b611dd390919063ffffffff16565b600c5461292090919063ffffffff16565b61293590919063ffffffff16565b600c81905550808060010191505061217c565b506122146122036103848461292090919063ffffffff16565b600b54611dd390919063ffffffff16565b600b8190555060145f9054906101000a900473ffffffffffffffffffffffffffffffffffffffff1673ffffffffffffffffffffffffffffffffffffffff1663fff6cae96040518163ffffffff1660e01b81526004015f604051808303815f87803b158015612280575f80fd5b505af1158015612292573d5f803e3d5ffd5b50505050807f72725a3b1e5bd622d6bcd1339bb31279c351abe8f541ac7fd320f24e1b1641f2600c546040516122c89190612cb2565b60405180910390a250505050505b565b5f600960019054906101000a900460ff168015612300575060148054906101000a900460ff16155b8015612359575060145f9054906101000a900473ffffffffffffffffffffffffffffffffffffffff1673ffffffffffffffffffffffffffffffffffffffff163373ffffffffffffffffffffffffffffffffffffffff1614155b905090565b60016014806101000a81548160ff0219169083151502179055505f600e5f3073ffffffffffffffffffffffffffffffffffffffff1673ffffffffffffffffffffffffffffffffffffffff1681526020019081526020015f205490505f81036123c657506125cf565b5f600267ffffffffffffffff8111156123e2576123e1613345565b5b6040519080825280602002602001820160405280156124105781602001602082028036833780820191505090505b50905030815f815181106124275761242661315e565b5b602002602001019073ffffffffffffffffffffffffffffffffffffffff16908173ffffffffffffffffffffffffffffffffffffffff168152505060135f9054906101000a900473ffffffffffffffffffffffffffffffffffffffff1673ffffffffffffffffffffffffffffffffffffffff1663ad5c46486040518163ffffffff1660e01b8152600401602060405180830381865afa1580156124cb573d5f803e3d5ffd5b505050506040513d601f19601f820116820180604052508101906124ef9190613386565b816001815181106125035761250261315e565b5b602002602001019073ffffffffffffffffffffffffffffffffffffffff16908173ffffffffffffffffffffffffffffffffffffffff168152505060135f9054906101000a900473ffffffffffffffffffffffffffffffffffffffff1673ffffffffffffffffffffffffffffffffffffffff1663791ac947835f8430426040518663ffffffff1660e01b815260040161259f9594939291906134a1565b5f604051808303815f87803b1580156125b6575f80fd5b505af11580156125c8573d5f803e3d5ffd5b5050505050505b5f6014806101000a81548160ff021916908315150217905550565b5f600960029054906101000a900460ff1680156126165750600854600d546126129190612f9c565b4210155b905090565b6126748261266f83600e5f8773ffffffffffffffffffffffffffffffffffffffff1673ffffffffffffffffffffffffffffffffffffffff1681526020019081526020015f2054611de890919063ffffffff16565b612997565b5050565b5f8273ffffffffffffffffffffffffffffffffffffffff1660145f9054906101000a900473ffffffffffffffffffffffffffffffffffffffff1673ffffffffffffffffffffffffffffffffffffffff16148061272057508173ffffffffffffffffffffffffffffffffffffffff1660145f9054906101000a900473ffffffffffffffffffffffffffffffffffffffff1673ffffffffffffffffffffffffffffffffffffffff16145b8015612773575060105f8473ffffffffffffffffffffffffffffffffffffffff1673ffffffffffffffffffffffffffffffffffffffff1681526020019081526020015f205f9054906101000a900460ff16155b905092915050565b5f806127a560075461279760648661293590919063ffffffff16565b61292090919063ffffffff16565b90506127b13082612832565b3073ffffffffffffffffffffffffffffffffffffffff168473ffffffffffffffffffffffffffffffffffffffff167fddf252ad1be2c89b69c2b068fc378daa952ba7f163c4a11628f55a4df523b3ef8360405161280e9190612cb2565b60405180910390a36128298184611de890919063ffffffff16565b91505092915050565b61288b8261288683600e5f8773ffffffffffffffffffffffffffffffffffffffff1673ffffffffffffffffffffffffffffffffffffffff1681526020019081526020015f2054611dd390919063ffffffff16565b612997565b5050565b5f3073ffffffffffffffffffffffffffffffffffffffff168273ffffffffffffffffffffffffffffffffffffffff1614158015612919575060145f9054906101000a900473ffffffffffffffffffffffffffffffffffffffff1673ffffffffffffffffffffffffffffffffffffffff168273ffffffffffffffffffffffffffffffffffffffff1614155b9050919050565b5f818361292d9190613304565b905092915050565b5f81836129429190613526565b905092915050565b5f8273ffffffffffffffffffffffffffffffffffffffff166108fc8390811502906040515f60405180830381858888f193505050501561298d5760019050612991565b5f90505b92915050565b6129a08261288f565b15612ab15760011515600f5f8473ffffffffffffffffffffffffffffffffffffffff1673ffffffffffffffffffffffffffffffffffffffff1681526020019081526020015f205f9054906101000a900460ff16151514612ab057601282908060018154018082558091505060019003905f5260205f20015f9091909190916101000a81548173ffffffffffffffffffffffffffffffffffffffff021916908373ffffffffffffffffffffffffffffffffffffffff1602179055506001600f5f8473ffffffffffffffffffffffffffffffffffffffff1673ffffffffffffffffffffffffffffffffffffffff1681526020019081526020015f205f6101000a81548160ff0219169083151502179055505b5b80600e5f8473ffffffffffffffffffffffffffffffffffffffff1673ffffffffffffffffffffffffffffffffffffffff1681526020019081526020015f20819055505050565b5f81519050919050565b5f82825260208201905092915050565b5f5b83811015612b2e578082015181840152602081019050612b13565b5f8484015250505050565b5f601f19601f8301169050919050565b5f612b5382612af7565b612b5d8185612b01565b9350612b6d818560208601612b11565b612b7681612b39565b840191505092915050565b5f6020820190508181035f830152612b998184612b49565b905092915050565b5f80fd5b5f73ffffffffffffffffffffffffffffffffffffffff82169050919050565b5f612bce82612ba5565b9050919050565b612bde81612bc4565b8114612be8575f80fd5b50565b5f81359050612bf981612bd5565b92915050565b5f819050919050565b612c1181612bff565b8114612c1b575f80fd5b50565b5f81359050612c2c81612c08565b92915050565b5f8060408385031215612c4857612c47612ba1565b5b5f612c5585828601612beb565b9250506020612c6685828601612c1e565b9150509250929050565b5f8115159050919050565b612c8481612c70565b82525050565b5f602082019050612c9d5f830184612c7b565b92915050565b612cac81612bff565b82525050565b5f602082019050612cc55f830184612ca3565b92915050565b5f805f60608486031215612ce257612ce1612ba1565b5b5f612cef86828701612beb565b9350506020612d0086828701612beb565b9250506040612d1186828701612c1e565b9150509250925092565b5f60208284031215612d3057612d2f612ba1565b5b5f612d3d84828501612c1e565b91505092915050565b5f60208284031215612d5b57612d5a612ba1565b5b5f612d6884828501612beb565b91505092915050565b5f60ff82169050919050565b612d8681612d71565b82525050565b5f602082019050612d9f5f830184612d7d565b92915050565b612dae81612c70565b8114612db8575f80fd5b50565b5f81359050612dc981612da5565b92915050565b5f8060408385031215612de557612de4612ba1565b5b5f612df285828601612beb565b9250506020612e0385828601612dbb565b9150509250929050565b5f60208284031215612e2257612e21612ba1565b5b5f612e2f84828501612dbb565b91505092915050565b612e4181612bc4565b82525050565b5f602082019050612e5a5f830184612e38565b92915050565b5f819050919050565b5f612e83612e7e612e7984612ba5565b612e60565b612ba5565b9050919050565b5f612e9482612e69565b9050919050565b5f612ea582612e8a565b9050919050565b612eb581612e9b565b82525050565b5f602082019050612ece5f830184612eac565b92915050565b5f8060408385031215612eea57612ee9612ba1565b5b5f612ef785828601612beb565b9250506020612f0885828601612beb565b9150509250929050565b7f4e487b71000000000000000000000000000000000000000000000000000000005f52602260045260245ffd5b5f6002820490506001821680612f5657607f821691505b602082108103612f6957612f68612f12565b5b50919050565b7f4e487b71000000000000000000000000000000000000000000000000000000005f52601160045260245ffd5b5f612fa682612bff565b9150612fb183612bff565b9250828201905080821115612fc957612fc8612f6f565b5b92915050565b5f604082019050612fe25f830185612e38565b612fef6020830184612e38565b9392505050565b5f8151905061300481612c08565b92915050565b5f6020828403121561301f5761301e612ba1565b5b5f61302c84828501612ff6565b91505092915050565b7f6f6e6c7920636f6e747261637420616464726573732c206e6f7420616c6c6f775f8201527f6564206578746572616e6c6c79206f776e6564206163636f756e740000000000602082015250565b5f61308f603b83612b01565b915061309a82613035565b604082019050919050565b5f6020820190508181035f8301526130bc81613083565b9050919050565b7f696e5f626c61636b6c69737400000000000000000000000000000000000000005f82015250565b5f6130f7600c83612b01565b9150613102826130c3565b602082019050919050565b5f6020820190508181035f830152613124816130eb565b9050919050565b5f61313582612bff565b915061314083612bff565b925082820390508181111561315857613157612f6f565b5b92915050565b7f4e487b71000000000000000000000000000000000000000000000000000000005f52603260045260245ffd5b5f8160011c9050919050565b5f808291508390505b60018511156131e0578086048111156131bc576131bb612f6f565b5b60018516156131cb5780820291505b80810290506131d98561318b565b94506131a0565b94509492505050565b5f826131f857600190506132b3565b81613205575f90506132b3565b816001811461321b576002811461322557613254565b60019150506132b3565b60ff84111561323757613236612f6f565b5b8360020a91508482111561324e5761324d612f6f565b5b506132b3565b5060208310610133831016604e8410600b84101617156132895782820a90508381111561328457613283612f6f565b5b6132b3565b6132968484846001613197565b925090508184048111156132ad576132ac612f6f565b5b81810290505b9392505050565b5f6132c482612bff565b91506132cf83612d71565b92506132fc7fffffffffffffffffffffffffffffffffffffffffffffffffffffffffffffffff84846131e9565b905092915050565b5f61330e82612bff565b915061331983612bff565b925082820261332781612bff565b9150828204841483151761333e5761333d612f6f565b5b5092915050565b7f4e487b71000000000000000000000000000000000000000000000000000000005f52604160045260245ffd5b5f8151905061338081612bd5565b92915050565b5f6020828403121561339b5761339a612ba1565b5b5f6133a884828501613372565b91505092915050565b5f819050919050565b5f6133d46133cf6133ca846133b1565b612e60565b612bff565b9050919050565b6133e4816133ba565b82525050565b5f81519050919050565b5f82825260208201905092915050565b5f819050602082019050919050565b61341c81612bc4565b82525050565b5f61342d8383613413565b60208301905092915050565b5f602082019050919050565b5f61344f826133ea565b61345981856133f4565b935061346483613404565b805f5b8381101561349457815161347b8882613422565b975061348683613439565b925050600181019050613467565b5085935050505092915050565b5f60a0820190506134b45f830188612ca3565b6134c160208301876133db565b81810360408301526134d38186613445565b90506134e26060830185612e38565b6134ef6080830184612ca3565b9695505050505050565b7f4e487b71000000000000000000000000000000000000000000000000000000005f52601260045260245ffd5b5f61353082612bff565b915061353b83612bff565b92508261354b5761354a6134f9565b5b82820490509291505056fea2646970667358221220b49b8f29610e4b9b537634f044127fe0255df4b88b7d2ba2b802c1d4eb00e8ff64736f6c63430008180033",
					"opcodes": "PUSH1 0x80 PUSH1 0x40 MSTORE PUSH3 0x15180 PUSH1 0x5 SSTORE PUSH1 0x63 PUSH1 0x7 SSTORE PUSH2 0x258 PUSH1 0x8 SSTORE PUSH0 PUSH1 0x14 DUP1 PUSH2 0x100 EXP DUP2 SLOAD DUP2 PUSH1 0xFF MUL NOT AND SWAP1 DUP4 ISZERO ISZERO MUL OR SWAP1 SSTORE POP CALLVALUE DUP1 ISZERO PUSH3 0x3B JUMPI PUSH0 DUP1 REVERT JUMPDEST POP PUSH1 0x40 MLOAD DUP1 PUSH1 0x40 ADD PUSH1 0x40 MSTORE DUP1 PUSH1 0x4 DUP2 MSTORE PUSH1 0x20 ADD PUSH32 0x424F4D4200000000000000000000000000000000000000000000000000000000 DUP2 MSTORE POP PUSH1 0x40 MLOAD DUP1 PUSH1 0x40 ADD PUSH1 0x40 MSTORE DUP1 PUSH1 0x4 DUP2 MSTORE PUSH1 0x20 ADD PUSH32 0x424F4D4200000000000000000000000000000000000000000000000000000000 DUP2 MSTORE POP PUSH1 0x5 DUP3 PUSH0 SWAP1 DUP2 PUSH3 0xBA SWAP2 SWAP1 PUSH3 0x554 JUMP JUMPDEST POP DUP2 PUSH1 0x1 SWAP1 DUP2 PUSH3 0xCC SWAP2 SWAP1 PUSH3 0x554 JUMP JUMPDEST POP DUP1 PUSH1 0x2 PUSH0 PUSH2 0x100 EXP DUP2 SLOAD DUP2 PUSH1 0xFF MUL NOT AND SWAP1 DUP4 PUSH1 0xFF AND MUL OR SWAP1 SSTORE POP POP POP POP CALLER PUSH1 0x2 PUSH1 0x1 PUSH2 0x100 EXP DUP2 SLOAD DUP2 PUSH20 0xFFFFFFFFFFFFFFFFFFFFFFFFFFFFFFFFFFFFFFFF MUL NOT AND SWAP1 DUP4 PUSH20 0xFFFFFFFFFFFFFFFFFFFFFFFFFFFFFFFFFFFFFFFF AND MUL OR SWAP1 SSTORE POP PUSH1 0x5 PUSH1 0xA PUSH3 0x13B SWAP2 SWAP1 PUSH3 0x7C1 JUMP JUMPDEST PUSH3 0x4F588 PUSH3 0x14B SWAP2 SWAP1 PUSH3 0x811 JUMP JUMPDEST PUSH1 0xC DUP2 SWAP1 SSTORE POP TIMESTAMP PUSH1 0xA DUP2 SWAP1 SSTORE POP TIMESTAMP PUSH1 0xB DUP2 SWAP1 SSTORE POP PUSH1 0x1 PUSH1 0x9 PUSH0 PUSH2 0x100 EXP DUP2 SLOAD DUP2 PUSH1 0xFF MUL NOT AND SWAP1 DUP4 ISZERO ISZERO MUL OR SWAP1 SSTORE POP PUSH1 0x1 PUSH1 0x9 PUSH1 0x1 PUSH2 0x100 EXP DUP2 SLOAD DUP2 PUSH1 0xFF MUL NOT AND SWAP1 DUP4 ISZERO ISZERO MUL OR SWAP1 SSTORE POP PUSH1 0x1 PUSH1 0x10 PUSH0 ADDRESS PUSH20 0xFFFFFFFFFFFFFFFFFFFFFFFFFFFFFFFFFFFFFFFF AND PUSH20 0xFFFFFFFFFFFFFFFFFFFFFFFFFFFFFFFFFFFFFFFF AND DUP2 MSTORE PUSH1 0x20 ADD SWAP1 DUP2 MSTORE PUSH1 0x20 ADD PUSH0 KECCAK256 PUSH0 PUSH2 0x100 EXP DUP2 SLOAD DUP2 PUSH1 0xFF MUL NOT AND SWAP1 DUP4 ISZERO ISZERO MUL OR SWAP1 SSTORE POP PUSH20 0xD7F655E3376CE2D7A2B08FF01EB3B1023191A901 PUSH1 0x13 PUSH0 PUSH2 0x100 EXP DUP2 SLOAD DUP2 PUSH20 0xFFFFFFFFFFFFFFFFFFFFFFFFFFFFFFFFFFFFFFFF MUL NOT AND SWAP1 DUP4 PUSH20 0xFFFFFFFFFFFFFFFFFFFFFFFFFFFFFFFFFFFFFFFF AND MUL OR SWAP1 SSTORE POP PUSH1 0xC SLOAD PUSH1 0xE PUSH0 CALLER PUSH20 0xFFFFFFFFFFFFFFFFFFFFFFFFFFFFFFFFFFFFFFFF AND PUSH20 0xFFFFFFFFFFFFFFFFFFFFFFFFFFFFFFFFFFFFFFFF AND DUP2 MSTORE PUSH1 0x20 ADD SWAP1 DUP2 MSTORE PUSH1 0x20 ADD PUSH0 KECCAK256 DUP2 SWAP1 SSTORE POP CALLER PUSH20 0xFFFFFFFFFFFFFFFFFFFFFFFFFFFFFFFFFFFFFFFF AND ADDRESS PUSH20 0xFFFFFFFFFFFFFFFFFFFFFFFFFFFFFFFFFFFFFFFF AND PUSH32 0xDDF252AD1BE2C89B69C2B068FC378DAA952BA7F163C4A11628F55A4DF523B3EF PUSH1 0xC SLOAD PUSH1 0x40 MLOAD PUSH3 0x2E2 SWAP2 SWAP1 PUSH3 0x86C JUMP JUMPDEST PUSH1 0x40 MLOAD DUP1 SWAP2 SUB SWAP1 LOG3 PUSH3 0x887 JUMP JUMPDEST PUSH0 DUP2 MLOAD SWAP1 POP SWAP2 SWAP1 POP JUMP JUMPDEST PUSH32 0x4E487B7100000000000000000000000000000000000000000000000000000000 PUSH0 MSTORE PUSH1 0x41 PUSH1 0x4 MSTORE PUSH1 0x24 PUSH0 REVERT JUMPDEST PUSH32 0x4E487B7100000000000000000000000000000000000000000000000000000000 PUSH0 MSTORE PUSH1 0x22 PUSH1 0x4 MSTORE PUSH1 0x24 PUSH0 REVERT JUMPDEST PUSH0 PUSH1 0x2 DUP3 DIV SWAP1 POP PUSH1 0x1 DUP3 AND DUP1 PUSH3 0x36C JUMPI PUSH1 0x7F DUP3 AND SWAP2 POP JUMPDEST PUSH1 0x20 DUP3 LT DUP2 SUB PUSH3 0x382 JUMPI PUSH3 0x381 PUSH3 0x327 JUMP JUMPDEST JUMPDEST POP SWAP2 SWAP1 POP JUMP JUMPDEST PUSH0 DUP2 SWAP1 POP DUP2 PUSH0 MSTORE PUSH1 0x20 PUSH0 KECCAK256 SWAP1 POP SWAP2 SWAP1 POP JUMP JUMPDEST PUSH0 PUSH1 0x20 PUSH1 0x1F DUP4 ADD DIV SWAP1 POP SWAP2 SWAP1 POP JUMP JUMPDEST PUSH0 DUP3 DUP3 SHL SWAP1 POP SWAP3 SWAP2 POP POP JUMP JUMPDEST PUSH0 PUSH1 0x8 DUP4 MUL PUSH3 0x3E6 PUSH32 0xFFFFFFFFFFFFFFFFFFFFFFFFFFFFFFFFFFFFFFFFFFFFFFFFFFFFFFFFFFFFFFFF DUP3 PUSH3 0x3A9 JUMP JUMPDEST PUSH3 0x3F2 DUP7 DUP4 PUSH3 0x3A9 JUMP JUMPDEST SWAP6 POP DUP1 NOT DUP5 AND SWAP4 POP DUP1 DUP7 AND DUP5 OR SWAP3 POP POP POP SWAP4 SWAP3 POP POP POP JUMP JUMPDEST PUSH0 DUP2 SWAP1 POP SWAP2 SWAP1 POP JUMP JUMPDEST PUSH0 DUP2 SWAP1 POP SWAP2 SWAP1 POP JUMP JUMPDEST PUSH0 PUSH3 0x43C PUSH3 0x436 PUSH3 0x430 DUP5 PUSH3 0x40A JUMP JUMPDEST PUSH3 0x413 JUMP JUMPDEST PUSH3 0x40A JUMP JUMPDEST SWAP1 POP SWAP2 SWAP1 POP JUMP JUMPDEST PUSH0 DUP2 SWAP1 POP SWAP2 SWAP1 POP JUMP JUMPDEST PUSH3 0x457 DUP4 PUSH3 0x41C JUMP JUMPDEST PUSH3 0x46F PUSH3 0x466 DUP3 PUSH3 0x443 JUMP JUMPDEST DUP5 DUP5 SLOAD PUSH3 0x3B5 JUMP JUMPDEST DUP3 SSTORE POP POP POP POP JUMP JUMPDEST PUSH0 SWAP1 JUMP JUMPDEST PUSH3 0x485 PUSH3 0x477 JUMP JUMPDEST PUSH3 0x492 DUP2 DUP5 DUP5 PUSH3 0x44C JUMP JUMPDEST POP POP POP JUMP JUMPDEST JUMPDEST DUP2 DUP2 LT ISZERO PUSH3 0x4B9 JUMPI PUSH3 0x4AD PUSH0 DUP3 PUSH3 0x47B JUMP JUMPDEST PUSH1 0x1 DUP2 ADD SWAP1 POP PUSH3 0x498 JUMP JUMPDEST POP POP JUMP JUMPDEST PUSH1 0x1F DUP3 GT ISZERO PUSH3 0x508 JUMPI PUSH3 0x4D2 DUP2 PUSH3 0x388 JUMP JUMPDEST PUSH3 0x4DD DUP5 PUSH3 0x39A JUMP JUMPDEST DUP2 ADD PUSH1 0x20 DUP6 LT ISZERO PUSH3 0x4ED JUMPI DUP2 SWAP1 POP JUMPDEST PUSH3 0x505 PUSH3 0x4FC DUP6 PUSH3 0x39A JUMP JUMPDEST DUP4 ADD DUP3 PUSH3 0x497 JUMP JUMPDEST POP POP JUMPDEST POP POP POP JUMP JUMPDEST PUSH0 DUP3 DUP3 SHR SWAP1 POP SWAP3 SWAP2 POP POP JUMP JUMPDEST PUSH0 PUSH3 0x52A PUSH0 NOT DUP5 PUSH1 0x8 MUL PUSH3 0x50D JUMP JUMPDEST NOT DUP1 DUP4 AND SWAP2 POP POP SWAP3 SWAP2 POP POP JUMP JUMPDEST PUSH0 PUSH3 0x544 DUP4 DUP4 PUSH3 0x519 JUMP JUMPDEST SWAP2 POP DUP3 PUSH1 0x2 MUL DUP3 OR SWAP1 POP SWAP3 SWAP2 POP POP JUMP JUMPDEST PUSH3 0x55F DUP3 PUSH3 0x2F0 JUMP JUMPDEST PUSH8 0xFFFFFFFFFFFFFFFF DUP2 GT ISZERO PUSH3 0x57B JUMPI PUSH3 0x57A PUSH3 0x2FA JUMP JUMPDEST JUMPDEST PUSH3 0x587 DUP3 SLOAD PUSH3 0x354 JUMP JUMPDEST PUSH3 0x594 DUP3 DUP3 DUP6 PUSH3 0x4BD JUMP JUMPDEST PUSH0 PUSH1 0x20 SWAP1 POP PUSH1 0x1F DUP4 GT PUSH1 0x1 DUP2 EQ PUSH3 0x5CA JUMPI PUSH0 DUP5 ISZERO PUSH3 0x5B5 JUMPI DUP3 DUP8 ADD MLOAD SWAP1 POP JUMPDEST PUSH3 0x5C1 DUP6 DUP3 PUSH3 0x537 JUMP JUMPDEST DUP7 SSTORE POP PUSH3 0x630 JUMP JUMPDEST PUSH1 0x1F NOT DUP5 AND PUSH3 0x5DA DUP7 PUSH3 0x388 JUMP JUMPDEST PUSH0 JUMPDEST DUP3 DUP2 LT ISZERO PUSH3 0x603 JUMPI DUP5 DUP10 ADD MLOAD DUP3 SSTORE PUSH1 0x1 DUP3 ADD SWAP2 POP PUSH1 0x20 DUP6 ADD SWAP5 POP PUSH1 0x20 DUP2 ADD SWAP1 POP PUSH3 0x5DC JUMP JUMPDEST DUP7 DUP4 LT ISZERO PUSH3 0x623 JUMPI DUP5 DUP10 ADD MLOAD PUSH3 0x61F PUSH1 0x1F DUP10 AND DUP3 PUSH3 0x519 JUMP JUMPDEST DUP4 SSTORE POP JUMPDEST PUSH1 0x1 PUSH1 0x2 DUP9 MUL ADD DUP9 SSTORE POP POP POP JUMPDEST POP POP POP POP POP POP JUMP JUMPDEST PUSH32 0x4E487B7100000000000000000000000000000000000000000000000000000000 PUSH0 MSTORE PUSH1 0x11 PUSH1 0x4 MSTORE PUSH1 0x24 PUSH0 REVERT JUMPDEST PUSH0 DUP2 PUSH1 0x1 SHR SWAP1 POP SWAP2 SWAP1 POP JUMP JUMPDEST PUSH0 DUP1 DUP3 SWAP2 POP DUP4 SWAP1 POP JUMPDEST PUSH1 0x1 DUP6 GT ISZERO PUSH3 0x6C2 JUMPI DUP1 DUP7 DIV DUP2 GT ISZERO PUSH3 0x69A JUMPI PUSH3 0x699 PUSH3 0x638 JUMP JUMPDEST JUMPDEST PUSH1 0x1 DUP6 AND ISZERO PUSH3 0x6AA JUMPI DUP1 DUP3 MUL SWAP2 POP JUMPDEST DUP1 DUP2 MUL SWAP1 POP PUSH3 0x6BA DUP6 PUSH3 0x665 JUMP JUMPDEST SWAP5 POP PUSH3 0x67A JUMP JUMPDEST SWAP5 POP SWAP5 SWAP3 POP POP POP JUMP JUMPDEST PUSH0 DUP3 PUSH3 0x6DC JUMPI PUSH1 0x1 SWAP1 POP PUSH3 0x7AE JUMP JUMPDEST DUP2 PUSH3 0x6EB JUMPI PUSH0 SWAP1 POP PUSH3 0x7AE JUMP JUMPDEST DUP2 PUSH1 0x1 DUP2 EQ PUSH3 0x704 JUMPI PUSH1 0x2 DUP2 EQ PUSH3 0x70F JUMPI PUSH3 0x745 JUMP JUMPDEST PUSH1 0x1 SWAP2 POP POP PUSH3 0x7AE JUMP JUMPDEST PUSH1 0xFF DUP5 GT ISZERO PUSH3 0x724 JUMPI PUSH3 0x723 PUSH3 0x638 JUMP JUMPDEST JUMPDEST DUP4 PUSH1 0x2 EXP SWAP2 POP DUP5 DUP3 GT ISZERO PUSH3 0x73E JUMPI PUSH3 0x73D PUSH3 0x638 JUMP JUMPDEST JUMPDEST POP PUSH3 0x7AE JUMP JUMPDEST POP PUSH1 0x20 DUP4 LT PUSH2 0x133 DUP4 LT AND PUSH1 0x4E DUP5 LT PUSH1 0xB DUP5 LT AND OR ISZERO PUSH3 0x77F JUMPI DUP3 DUP3 EXP SWAP1 POP DUP4 DUP2 GT ISZERO PUSH3 0x779 JUMPI PUSH3 0x778 PUSH3 0x638 JUMP JUMPDEST JUMPDEST PUSH3 0x7AE JUMP JUMPDEST PUSH3 0x78E DUP5 DUP5 DUP5 PUSH1 0x1 PUSH3 0x671 JUMP JUMPDEST SWAP3 POP SWAP1 POP DUP2 DUP5 DIV DUP2 GT ISZERO PUSH3 0x7A8 JUMPI PUSH3 0x7A7 PUSH3 0x638 JUMP JUMPDEST JUMPDEST DUP2 DUP2 MUL SWAP1 POP JUMPDEST SWAP4 SWAP3 POP POP POP JUMP JUMPDEST PUSH0 PUSH1 0xFF DUP3 AND SWAP1 POP SWAP2 SWAP1 POP JUMP JUMPDEST PUSH0 PUSH3 0x7CD DUP3 PUSH3 0x40A JUMP JUMPDEST SWAP2 POP PUSH3 0x7DA DUP4 PUSH3 0x7B5 JUMP JUMPDEST SWAP3 POP PUSH3 0x809 PUSH32 0xFFFFFFFFFFFFFFFFFFFFFFFFFFFFFFFFFFFFFFFFFFFFFFFFFFFFFFFFFFFFFFFF DUP5 DUP5 PUSH3 0x6CB JUMP JUMPDEST SWAP1 POP SWAP3 SWAP2 POP POP JUMP JUMPDEST PUSH0 PUSH3 0x81D DUP3 PUSH3 0x40A JUMP JUMPDEST SWAP2 POP PUSH3 0x82A DUP4 PUSH3 0x40A JUMP JUMPDEST SWAP3 POP DUP3 DUP3 MUL PUSH3 0x83A DUP2 PUSH3 0x40A JUMP JUMPDEST SWAP2 POP DUP3 DUP3 DIV DUP5 EQ DUP4 ISZERO OR PUSH3 0x854 JUMPI PUSH3 0x853 PUSH3 0x638 JUMP JUMPDEST JUMPDEST POP SWAP3 SWAP2 POP POP JUMP JUMPDEST PUSH3 0x866 DUP2 PUSH3 0x40A JUMP JUMPDEST DUP3 MSTORE POP POP JUMP JUMPDEST PUSH0 PUSH1 0x20 DUP3 ADD SWAP1 POP PUSH3 0x881 PUSH0 DUP4 ADD DUP5 PUSH3 0x85B JUMP JUMPDEST SWAP3 SWAP2 POP POP JUMP JUMPDEST PUSH2 0x358C DUP1 PUSH3 0x895 PUSH0 CODECOPY PUSH0 RETURN INVALID PUSH1 0x80 PUSH1 0x40 MSTORE PUSH1 0x4 CALLDATASIZE LT PUSH2 0x249 JUMPI PUSH0 CALLDATALOAD PUSH1 0xE0 SHR DUP1 PUSH4 0x83B4AC68 GT PUSH2 0x138 JUMPI DUP1 PUSH4 0xA8B08982 GT PUSH2 0xB5 JUMPI DUP1 PUSH4 0xD4399790 GT PUSH2 0x79 JUMPI DUP1 PUSH4 0xD4399790 EQ PUSH2 0x846 JUMPI DUP1 PUSH4 0xDD62ED3E EQ PUSH2 0x882 JUMPI DUP1 PUSH4 0xE15BEB80 EQ PUSH2 0x8BE JUMPI DUP1 PUSH4 0xEACA243B EQ PUSH2 0x8E6 JUMPI DUP1 PUSH4 0xF2E809E0 EQ PUSH2 0x90E JUMPI DUP1 PUSH4 0xF2FDE38B EQ PUSH2 0x936 JUMPI PUSH2 0x250 JUMP JUMPDEST DUP1 PUSH4 0xA8B08982 EQ PUSH2 0x764 JUMPI DUP1 PUSH4 0xA9059CBB EQ PUSH2 0x78E JUMPI DUP1 PUSH4 0xAE06C1B7 EQ PUSH2 0x7CA JUMPI DUP1 PUSH4 0xAFB9CF6D EQ PUSH2 0x7F2 JUMPI DUP1 PUSH4 0xC737A49B EQ PUSH2 0x81C JUMPI PUSH2 0x250 JUMP JUMPDEST DUP1 PUSH4 0x95FE579C GT PUSH2 0xFC JUMPI DUP1 PUSH4 0x95FE579C EQ PUSH2 0x66E JUMPI DUP1 PUSH4 0x97D75776 EQ PUSH2 0x698 JUMPI DUP1 PUSH4 0x9B87676C EQ PUSH2 0x6C2 JUMPI DUP1 PUSH4 0xA20623CE EQ PUSH2 0x6EC JUMPI DUP1 PUSH4 0xA457C2D7 EQ PUSH2 0x728 JUMPI PUSH2 0x250 JUMP JUMPDEST DUP1 PUSH4 0x83B4AC68 EQ PUSH2 0x59E JUMPI DUP1 PUSH4 0x854CFF2F EQ PUSH2 0x5C8 JUMPI DUP1 PUSH4 0x8DA5CB5B EQ PUSH2 0x5F0 JUMPI DUP1 PUSH4 0x8F32D59B EQ PUSH2 0x61A JUMPI DUP1 PUSH4 0x95D89B41 EQ PUSH2 0x644 JUMPI PUSH2 0x250 JUMP JUMPDEST DUP1 PUSH4 0x39509351 GT PUSH2 0x1C6 JUMPI DUP1 PUSH4 0x69222948 GT PUSH2 0x18A JUMPI DUP1 PUSH4 0x69222948 EQ PUSH2 0x4E2 JUMPI DUP1 PUSH4 0x70A08231 EQ PUSH2 0x50C JUMPI DUP1 PUSH4 0x70EE7395 EQ PUSH2 0x548 JUMPI DUP1 PUSH4 0x715018A6 EQ PUSH2 0x572 JUMPI DUP1 PUSH4 0x753D02A1 EQ PUSH2 0x588 JUMPI PUSH2 0x250 JUMP JUMPDEST DUP1 PUSH4 0x39509351 EQ PUSH2 0x402 JUMPI DUP1 PUSH4 0x3EAAF86B EQ PUSH2 0x43E JUMPI DUP1 PUSH4 0x4ADDC0E8 EQ PUSH2 0x468 JUMPI DUP1 PUSH4 0x4BC6DD18 EQ PUSH2 0x492 JUMPI DUP1 PUSH4 0x4E14EC4B EQ PUSH2 0x4BA JUMPI PUSH2 0x250 JUMP JUMPDEST DUP1 PUSH4 0x2910164A GT PUSH2 0x20D JUMPI DUP1 PUSH4 0x2910164A EQ PUSH2 0x336 JUMPI DUP1 PUSH4 0x2F34D282 EQ PUSH2 0x35E JUMPI DUP1 PUSH4 0x313CE567 EQ PUSH2 0x386 JUMPI DUP1 PUSH4 0x32B75683 EQ PUSH2 0x3B0 JUMPI DUP1 PUSH4 0x37C9BE87 EQ PUSH2 0x3DA JUMPI PUSH2 0x250 JUMP JUMPDEST DUP1 PUSH4 0x6FDDE03 EQ PUSH2 0x254 JUMPI DUP1 PUSH4 0x95EA7B3 EQ PUSH2 0x27E JUMPI DUP1 PUSH4 0x18160DDD EQ PUSH2 0x2BA JUMPI DUP1 PUSH4 0x23084E5F EQ PUSH2 0x2E4 JUMPI DUP1 PUSH4 0x23B872DD EQ PUSH2 0x2FA JUMPI PUSH2 0x250 JUMP JUMPDEST CALLDATASIZE PUSH2 0x250 JUMPI STOP JUMPDEST PUSH0 DUP1 REVERT JUMPDEST CALLVALUE DUP1 ISZERO PUSH2 0x25F JUMPI PUSH0 DUP1 REVERT JUMPDEST POP PUSH2 0x268 PUSH2 0x95E JUMP JUMPDEST PUSH1 0x40 MLOAD PUSH2 0x275 SWAP2 SWAP1 PUSH2 0x2B81 JUMP JUMPDEST PUSH1 0x40 MLOAD DUP1 SWAP2 SUB SWAP1 RETURN JUMPDEST CALLVALUE DUP1 ISZERO PUSH2 0x289 JUMPI PUSH0 DUP1 REVERT JUMPDEST POP PUSH2 0x2A4 PUSH1 0x4 DUP1 CALLDATASIZE SUB DUP2 ADD SWAP1 PUSH2 0x29F SWAP2 SWAP1 PUSH2 0x2C32 JUMP JUMPDEST PUSH2 0x9ED JUMP JUMPDEST PUSH1 0x40 MLOAD PUSH2 0x2B1 SWAP2 SWAP1 PUSH2 0x2C8A JUMP JUMPDEST PUSH1 0x40 MLOAD DUP1 SWAP2 SUB SWAP1 RETURN JUMPDEST CALLVALUE DUP1 ISZERO PUSH2 0x2C5 JUMPI PUSH0 DUP1 REVERT JUMPDEST POP PUSH2 0x2CE PUSH2 0xADA JUMP JUMPDEST PUSH1 0x40 MLOAD PUSH2 0x2DB SWAP2 SWAP1 PUSH2 0x2CB2 JUMP JUMPDEST PUSH1 0x40 MLOAD DUP1 SWAP2 SUB SWAP1 RETURN JUMPDEST CALLVALUE DUP1 ISZERO PUSH2 0x2EF JUMPI PUSH0 DUP1 REVERT JUMPDEST POP PUSH2 0x2F8 PUSH2 0xAE3 JUMP JUMPDEST STOP JUMPDEST CALLVALUE DUP1 ISZERO PUSH2 0x305 JUMPI PUSH0 DUP1 REVERT JUMPDEST POP PUSH2 0x320 PUSH1 0x4 DUP1 CALLDATASIZE SUB DUP2 ADD SWAP1 PUSH2 0x31B SWAP2 SWAP1 PUSH2 0x2CCB JUMP JUMPDEST PUSH2 0xC55 JUMP JUMPDEST PUSH1 0x40 MLOAD PUSH2 0x32D SWAP2 SWAP1 PUSH2 0x2C8A JUMP JUMPDEST PUSH1 0x40 MLOAD DUP1 SWAP2 SUB SWAP1 RETURN JUMPDEST CALLVALUE DUP1 ISZERO PUSH2 0x341 JUMPI PUSH0 DUP1 REVERT JUMPDEST POP PUSH2 0x35C PUSH1 0x4 DUP1 CALLDATASIZE SUB DUP2 ADD SWAP1 PUSH2 0x357 SWAP2 SWAP1 PUSH2 0x2D1B JUMP JUMPDEST PUSH2 0xE7A JUMP JUMPDEST STOP JUMPDEST CALLVALUE DUP1 ISZERO PUSH2 0x369 JUMPI PUSH0 DUP1 REVERT JUMPDEST POP PUSH2 0x384 PUSH1 0x4 DUP1 CALLDATASIZE SUB DUP2 ADD SWAP1 PUSH2 0x37F SWAP2 SWAP1 PUSH2 0x2D46 JUMP JUMPDEST PUSH2 0xE94 JUMP JUMPDEST STOP JUMPDEST CALLVALUE DUP1 ISZERO PUSH2 0x391 JUMPI PUSH0 DUP1 REVERT JUMPDEST POP PUSH2 0x39A PUSH2 0xEE7 JUMP JUMPDEST PUSH1 0x40 MLOAD PUSH2 0x3A7 SWAP2 SWAP1 PUSH2 0x2D8C JUMP JUMPDEST PUSH1 0x40 MLOAD DUP1 SWAP2 SUB SWAP1 RETURN JUMPDEST CALLVALUE DUP1 ISZERO PUSH2 0x3BB JUMPI PUSH0 DUP1 REVERT JUMPDEST POP PUSH2 0x3C4 PUSH2 0xEFC JUMP JUMPDEST PUSH1 0x40 MLOAD PUSH2 0x3D1 SWAP2 SWAP1 PUSH2 0x2CB2 JUMP JUMPDEST PUSH1 0x40 MLOAD DUP1 SWAP2 SUB SWAP1 RETURN JUMPDEST CALLVALUE DUP1 ISZERO PUSH2 0x3E5 JUMPI PUSH0 DUP1 REVERT JUMPDEST POP PUSH2 0x400 PUSH1 0x4 DUP1 CALLDATASIZE SUB DUP2 ADD SWAP1 PUSH2 0x3FB SWAP2 SWAP1 PUSH2 0x2DCF JUMP JUMPDEST PUSH2 0xF02 JUMP JUMPDEST STOP JUMPDEST CALLVALUE DUP1 ISZERO PUSH2 0x40D JUMPI PUSH0 DUP1 REVERT JUMPDEST POP PUSH2 0x428 PUSH1 0x4 DUP1 CALLDATASIZE SUB DUP2 ADD SWAP1 PUSH2 0x423 SWAP2 SWAP1 PUSH2 0x2C32 JUMP JUMPDEST PUSH2 0xFB2 JUMP JUMPDEST PUSH1 0x40 MLOAD PUSH2 0x435 SWAP2 SWAP1 PUSH2 0x2C8A JUMP JUMPDEST PUSH1 0x40 MLOAD DUP1 SWAP2 SUB SWAP1 RETURN JUMPDEST CALLVALUE DUP1 ISZERO PUSH2 0x449 JUMPI PUSH0 DUP1 REVERT JUMPDEST POP PUSH2 0x452 PUSH2 0x11A1 JUMP JUMPDEST PUSH1 0x40 MLOAD PUSH2 0x45F SWAP2 SWAP1 PUSH2 0x2CB2 JUMP JUMPDEST PUSH1 0x40 MLOAD DUP1 SWAP2 SUB SWAP1 RETURN JUMPDEST CALLVALUE DUP1 ISZERO PUSH2 0x473 JUMPI PUSH0 DUP1 REVERT JUMPDEST POP PUSH2 0x47C PUSH2 0x11A7 JUMP JUMPDEST PUSH1 0x40 MLOAD PUSH2 0x489 SWAP2 SWAP1 PUSH2 0x2CB2 JUMP JUMPDEST PUSH1 0x40 MLOAD DUP1 SWAP2 SUB SWAP1 RETURN JUMPDEST CALLVALUE DUP1 ISZERO PUSH2 0x49D JUMPI PUSH0 DUP1 REVERT JUMPDEST POP PUSH2 0x4B8 PUSH1 0x4 DUP1 CALLDATASIZE SUB DUP2 ADD SWAP1 PUSH2 0x4B3 SWAP2 SWAP1 PUSH2 0x2E0D JUMP JUMPDEST PUSH2 0x11AD JUMP JUMPDEST STOP JUMPDEST CALLVALUE DUP1 ISZERO PUSH2 0x4C5 JUMPI PUSH0 DUP1 REVERT JUMPDEST POP PUSH2 0x4E0 PUSH1 0x4 DUP1 CALLDATASIZE SUB DUP2 ADD SWAP1 PUSH2 0x4DB SWAP2 SWAP1 PUSH2 0x2E0D JUMP JUMPDEST PUSH2 0x1200 JUMP JUMPDEST STOP JUMPDEST CALLVALUE DUP1 ISZERO PUSH2 0x4ED JUMPI PUSH0 DUP1 REVERT JUMPDEST POP PUSH2 0x4F6 PUSH2 0x1253 JUMP JUMPDEST PUSH1 0x40 MLOAD PUSH2 0x503 SWAP2 SWAP1 PUSH2 0x2CB2 JUMP JUMPDEST PUSH1 0x40 MLOAD DUP1 SWAP2 SUB SWAP1 RETURN JUMPDEST CALLVALUE DUP1 ISZERO PUSH2 0x517 JUMPI PUSH0 DUP1 REVERT JUMPDEST POP PUSH2 0x532 PUSH1 0x4 DUP1 CALLDATASIZE SUB DUP2 ADD SWAP1 PUSH2 0x52D SWAP2 SWAP1 PUSH2 0x2D46 JUMP JUMPDEST PUSH2 0x1259 JUMP JUMPDEST PUSH1 0x40 MLOAD PUSH2 0x53F SWAP2 SWAP1 PUSH2 0x2CB2 JUMP JUMPDEST PUSH1 0x40 MLOAD DUP1 SWAP2 SUB SWAP1 RETURN JUMPDEST CALLVALUE DUP1 ISZERO PUSH2 0x553 JUMPI PUSH0 DUP1 REVERT JUMPDEST POP PUSH2 0x55C PUSH2 0x129F JUMP JUMPDEST PUSH1 0x40 MLOAD PUSH2 0x569 SWAP2 SWAP1 PUSH2 0x2C8A JUMP JUMPDEST PUSH1 0x40 MLOAD DUP1 SWAP2 SUB SWAP1 RETURN JUMPDEST CALLVALUE DUP1 ISZERO PUSH2 0x57D JUMPI PUSH0 DUP1 REVERT JUMPDEST POP PUSH2 0x586 PUSH2 0x12B2 JUMP JUMPDEST STOP JUMPDEST CALLVALUE DUP1 ISZERO PUSH2 0x593 JUMPI PUSH0 DUP1 REVERT JUMPDEST POP PUSH2 0x59C PUSH2 0x136A JUMP JUMPDEST STOP JUMPDEST CALLVALUE DUP1 ISZERO PUSH2 0x5A9 JUMPI PUSH0 DUP1 REVERT JUMPDEST POP PUSH2 0x5B2 PUSH2 0x13E8 JUMP JUMPDEST PUSH1 0x40 MLOAD PUSH2 0x5BF SWAP2 SWAP1 PUSH2 0x2C8A JUMP JUMPDEST PUSH1 0x40 MLOAD DUP1 SWAP2 SUB SWAP1 RETURN JUMPDEST CALLVALUE DUP1 ISZERO PUSH2 0x5D3 JUMPI PUSH0 DUP1 REVERT JUMPDEST POP PUSH2 0x5EE PUSH1 0x4 DUP1 CALLDATASIZE SUB DUP2 ADD SWAP1 PUSH2 0x5E9 SWAP2 SWAP1 PUSH2 0x2D46 JUMP JUMPDEST PUSH2 0x13FD JUMP JUMPDEST STOP JUMPDEST CALLVALUE DUP1 ISZERO PUSH2 0x5FB JUMPI PUSH0 DUP1 REVERT JUMPDEST POP PUSH2 0x604 PUSH2 0x1465 JUMP JUMPDEST PUSH1 0x40 MLOAD PUSH2 0x611 SWAP2 SWAP1 PUSH2 0x2E47 JUMP JUMPDEST PUSH1 0x40 MLOAD DUP1 SWAP2 SUB SWAP1 RETURN JUMPDEST CALLVALUE DUP1 ISZERO PUSH2 0x625 JUMPI PUSH0 DUP1 REVERT JUMPDEST POP PUSH2 0x62E PUSH2 0x148E JUMP JUMPDEST PUSH1 0x40 MLOAD PUSH2 0x63B SWAP2 SWAP1 PUSH2 0x2C8A JUMP JUMPDEST PUSH1 0x40 MLOAD DUP1 SWAP2 SUB SWAP1 RETURN JUMPDEST CALLVALUE DUP1 ISZERO PUSH2 0x64F JUMPI PUSH0 DUP1 REVERT JUMPDEST POP PUSH2 0x658 PUSH2 0x14E5 JUMP JUMPDEST PUSH1 0x40 MLOAD PUSH2 0x665 SWAP2 SWAP1 PUSH2 0x2B81 JUMP JUMPDEST PUSH1 0x40 MLOAD DUP1 SWAP2 SUB SWAP1 RETURN JUMPDEST CALLVALUE DUP1 ISZERO PUSH2 0x679 JUMPI PUSH0 DUP1 REVERT JUMPDEST POP PUSH2 0x682 PUSH2 0x1575 JUMP JUMPDEST PUSH1 0x40 MLOAD PUSH2 0x68F SWAP2 SWAP1 PUSH2 0x2C8A JUMP JUMPDEST PUSH1 0x40 MLOAD DUP1 SWAP2 SUB SWAP1 RETURN JUMPDEST CALLVALUE DUP1 ISZERO PUSH2 0x6A3 JUMPI PUSH0 DUP1 REVERT JUMPDEST POP PUSH2 0x6AC PUSH2 0x1588 JUMP JUMPDEST PUSH1 0x40 MLOAD PUSH2 0x6B9 SWAP2 SWAP1 PUSH2 0x2EBB JUMP JUMPDEST PUSH1 0x40 MLOAD DUP1 SWAP2 SUB SWAP1 RETURN JUMPDEST CALLVALUE DUP1 ISZERO PUSH2 0x6CD JUMPI PUSH0 DUP1 REVERT JUMPDEST POP PUSH2 0x6D6 PUSH2 0x15AD JUMP JUMPDEST PUSH1 0x40 MLOAD PUSH2 0x6E3 SWAP2 SWAP1 PUSH2 0x2CB2 JUMP JUMPDEST PUSH1 0x40 MLOAD DUP1 SWAP2 SUB SWAP1 RETURN JUMPDEST CALLVALUE DUP1 ISZERO PUSH2 0x6F7 JUMPI PUSH0 DUP1 REVERT JUMPDEST POP PUSH2 0x712 PUSH1 0x4 DUP1 CALLDATASIZE SUB DUP2 ADD SWAP1 PUSH2 0x70D SWAP2 SWAP1 PUSH2 0x2D46 JUMP JUMPDEST PUSH2 0x15B3 JUMP JUMPDEST PUSH1 0x40 MLOAD PUSH2 0x71F SWAP2 SWAP1 PUSH2 0x2C8A JUMP JUMPDEST PUSH1 0x40 MLOAD DUP1 SWAP2 SUB SWAP1 RETURN JUMPDEST CALLVALUE DUP1 ISZERO PUSH2 0x733 JUMPI PUSH0 DUP1 REVERT JUMPDEST POP PUSH2 0x74E PUSH1 0x4 DUP1 CALLDATASIZE SUB DUP2 ADD SWAP1 PUSH2 0x749 SWAP2 SWAP1 PUSH2 0x2C32 JUMP JUMPDEST PUSH2 0x15D0 JUMP JUMPDEST PUSH1 0x40 MLOAD PUSH2 0x75B SWAP2 SWAP1 PUSH2 0x2C8A JUMP JUMPDEST PUSH1 0x40 MLOAD DUP1 SWAP2 SUB SWAP1 RETURN JUMPDEST CALLVALUE DUP1 ISZERO PUSH2 0x76F JUMPI PUSH0 DUP1 REVERT JUMPDEST POP PUSH2 0x778 PUSH2 0x184E JUMP JUMPDEST PUSH1 0x40 MLOAD PUSH2 0x785 SWAP2 SWAP1 PUSH2 0x2E47 JUMP JUMPDEST PUSH1 0x40 MLOAD DUP1 SWAP2 SUB SWAP1 RETURN JUMPDEST CALLVALUE DUP1 ISZERO PUSH2 0x799 JUMPI PUSH0 DUP1 REVERT JUMPDEST POP PUSH2 0x7B4 PUSH1 0x4 DUP1 CALLDATASIZE SUB DUP2 ADD SWAP1 PUSH2 0x7AF SWAP2 SWAP1 PUSH2 0x2C32 JUMP JUMPDEST PUSH2 0x1876 JUMP JUMPDEST PUSH1 0x40 MLOAD PUSH2 0x7C1 SWAP2 SWAP1 PUSH2 0x2C8A JUMP JUMPDEST PUSH1 0x40 MLOAD DUP1 SWAP2 SUB SWAP1 RETURN JUMPDEST CALLVALUE DUP1 ISZERO PUSH2 0x7D5 JUMPI PUSH0 DUP1 REVERT JUMPDEST POP PUSH2 0x7F0 PUSH1 0x4 DUP1 CALLDATASIZE SUB DUP2 ADD SWAP1 PUSH2 0x7EB SWAP2 SWAP1 PUSH2 0x2D1B JUMP JUMPDEST PUSH2 0x18C6 JUMP JUMPDEST STOP JUMPDEST CALLVALUE DUP1 ISZERO PUSH2 0x7FD JUMPI PUSH0 DUP1 REVERT JUMPDEST POP PUSH2 0x806 PUSH2 0x18E0 JUMP JUMPDEST PUSH1 0x40 MLOAD PUSH2 0x813 SWAP2 SWAP1 PUSH2 0x2C8A JUMP JUMPDEST PUSH1 0x40 MLOAD DUP1 SWAP2 SUB SWAP1 RETURN JUMPDEST CALLVALUE DUP1 ISZERO PUSH2 0x827 JUMPI PUSH0 DUP1 REVERT JUMPDEST POP PUSH2 0x830 PUSH2 0x18F2 JUMP JUMPDEST PUSH1 0x40 MLOAD PUSH2 0x83D SWAP2 SWAP1 PUSH2 0x2CB2 JUMP JUMPDEST PUSH1 0x40 MLOAD DUP1 SWAP2 SUB SWAP1 RETURN JUMPDEST CALLVALUE DUP1 ISZERO PUSH2 0x851 JUMPI PUSH0 DUP1 REVERT JUMPDEST POP PUSH2 0x86C PUSH1 0x4 DUP1 CALLDATASIZE SUB DUP2 ADD SWAP1 PUSH2 0x867 SWAP2 SWAP1 PUSH2 0x2D46 JUMP JUMPDEST PUSH2 0x18F8 JUMP JUMPDEST PUSH1 0x40 MLOAD PUSH2 0x879 SWAP2 SWAP1 PUSH2 0x2C8A JUMP JUMPDEST PUSH1 0x40 MLOAD DUP1 SWAP2 SUB SWAP1 RETURN JUMPDEST CALLVALUE DUP1 ISZERO PUSH2 0x88D JUMPI PUSH0 DUP1 REVERT JUMPDEST POP PUSH2 0x8A8 PUSH1 0x4 DUP1 CALLDATASIZE SUB DUP2 ADD SWAP1 PUSH2 0x8A3 SWAP2 SWAP1 PUSH2 0x2ED4 JUMP JUMPDEST PUSH2 0x194A JUMP JUMPDEST PUSH1 0x40 MLOAD PUSH2 0x8B5 SWAP2 SWAP1 PUSH2 0x2CB2 JUMP JUMPDEST PUSH1 0x40 MLOAD DUP1 SWAP2 SUB SWAP1 RETURN JUMPDEST CALLVALUE DUP1 ISZERO PUSH2 0x8C9 JUMPI PUSH0 DUP1 REVERT JUMPDEST POP PUSH2 0x8E4 PUSH1 0x4 DUP1 CALLDATASIZE SUB DUP2 ADD SWAP1 PUSH2 0x8DF SWAP2 SWAP1 PUSH2 0x2E0D JUMP JUMPDEST PUSH2 0x19CC JUMP JUMPDEST STOP JUMPDEST CALLVALUE DUP1 ISZERO PUSH2 0x8F1 JUMPI PUSH0 DUP1 REVERT JUMPDEST POP PUSH2 0x90C PUSH1 0x4 DUP1 CALLDATASIZE SUB DUP2 ADD SWAP1 PUSH2 0x907 SWAP2 SWAP1 PUSH2 0x2D1B JUMP JUMPDEST PUSH2 0x1A24 JUMP JUMPDEST STOP JUMPDEST CALLVALUE DUP1 ISZERO PUSH2 0x919 JUMPI PUSH0 DUP1 REVERT JUMPDEST POP PUSH2 0x934 PUSH1 0x4 DUP1 CALLDATASIZE SUB DUP2 ADD SWAP1 PUSH2 0x92F SWAP2 SWAP1 PUSH2 0x2D46 JUMP JUMPDEST PUSH2 0x1A3E JUMP JUMPDEST STOP JUMPDEST CALLVALUE DUP1 ISZERO PUSH2 0x941 JUMPI PUSH0 DUP1 REVERT JUMPDEST POP PUSH2 0x95C PUSH1 0x4 DUP1 CALLDATASIZE SUB DUP2 ADD SWAP1 PUSH2 0x957 SWAP2 SWAP1 PUSH2 0x2D46 JUMP JUMPDEST PUSH2 0x1B58 JUMP JUMPDEST STOP JUMPDEST PUSH1 0x60 PUSH0 DUP1 SLOAD PUSH2 0x96C SWAP1 PUSH2 0x2F3F JUMP JUMPDEST DUP1 PUSH1 0x1F ADD PUSH1 0x20 DUP1 SWAP2 DIV MUL PUSH1 0x20 ADD PUSH1 0x40 MLOAD SWAP1 DUP2 ADD PUSH1 0x40 MSTORE DUP1 SWAP3 SWAP2 SWAP1 DUP2 DUP2 MSTORE PUSH1 0x20 ADD DUP3 DUP1 SLOAD PUSH2 0x998 SWAP1 PUSH2 0x2F3F JUMP JUMPDEST DUP1 ISZERO PUSH2 0x9E3 JUMPI DUP1 PUSH1 0x1F LT PUSH2 0x9BA JUMPI PUSH2 0x100 DUP1 DUP4 SLOAD DIV MUL DUP4 MSTORE SWAP2 PUSH1 0x20 ADD SWAP2 PUSH2 0x9E3 JUMP JUMPDEST DUP3 ADD SWAP2 SWAP1 PUSH0 MSTORE PUSH1 0x20 PUSH0 KECCAK256 SWAP1 JUMPDEST DUP2 SLOAD DUP2 MSTORE SWAP1 PUSH1 0x1 ADD SWAP1 PUSH1 0x20 ADD DUP1 DUP4 GT PUSH2 0x9C6 JUMPI DUP3 SWAP1 SUB PUSH1 0x1F AND DUP3 ADD SWAP2 JUMPDEST POP POP POP POP POP SWAP1 POP SWAP1 JUMP JUMPDEST PUSH0 DUP2 PUSH1 0x15 PUSH0 CALLER PUSH20 0xFFFFFFFFFFFFFFFFFFFFFFFFFFFFFFFFFFFFFFFF AND PUSH20 0xFFFFFFFFFFFFFFFFFFFFFFFFFFFFFFFFFFFFFFFF AND DUP2 MSTORE PUSH1 0x20 ADD SWAP1 DUP2 MSTORE PUSH1 0x20 ADD PUSH0 KECCAK256 PUSH0 DUP6 PUSH20 0xFFFFFFFFFFFFFFFFFFFFFFFFFFFFFFFFFFFFFFFF AND PUSH20 0xFFFFFFFFFFFFFFFFFFFFFFFFFFFFFFFFFFFFFFFF AND DUP2 MSTORE PUSH1 0x20 ADD SWAP1 DUP2 MSTORE PUSH1 0x20 ADD PUSH0 KECCAK256 DUP2 SWAP1 SSTORE POP DUP3 PUSH20 0xFFFFFFFFFFFFFFFFFFFFFFFFFFFFFFFFFFFFFFFF AND CALLER PUSH20 0xFFFFFFFFFFFFFFFFFFFFFFFFFFFFFFFFFFFFFFFF AND PUSH32 0x8C5BE1E5EBEC7D5BD14F71427D1E84F3DD0314C0F7B2291E5B200AC8C7C3B925 DUP5 PUSH1 0x40 MLOAD PUSH2 0xAC8 SWAP2 SWAP1 PUSH2 0x2CB2 JUMP JUMPDEST PUSH1 0x40 MLOAD DUP1 SWAP2 SUB SWAP1 LOG3 PUSH1 0x1 SWAP1 POP SWAP3 SWAP2 POP POP JUMP JUMPDEST PUSH0 PUSH1 0xC SLOAD SWAP1 POP SWAP1 JUMP JUMPDEST PUSH0 CALLER SWAP1 POP PUSH0 PUSH1 0x4 PUSH0 DUP4 PUSH20 0xFFFFFFFFFFFFFFFFFFFFFFFFFFFFFFFFFFFFFFFF AND PUSH20 0xFFFFFFFFFFFFFFFFFFFFFFFFFFFFFFFFFFFFFFFF AND DUP2 MSTORE PUSH1 0x20 ADD SWAP1 DUP2 MSTORE PUSH1 0x20 ADD PUSH0 KECCAK256 SLOAD SWAP1 POP TIMESTAMP PUSH1 0x5 SLOAD DUP3 PUSH2 0xB37 SWAP2 SWAP1 PUSH2 0x2F9C JUMP JUMPDEST LT ISZERO PUSH2 0xB44 JUMPI POP POP PUSH2 0xC53 JUMP JUMPDEST TIMESTAMP PUSH1 0x4 PUSH0 DUP5 PUSH20 0xFFFFFFFFFFFFFFFFFFFFFFFFFFFFFFFFFFFFFFFF AND PUSH20 0xFFFFFFFFFFFFFFFFFFFFFFFFFFFFFFFFFFFFFFFF AND DUP2 MSTORE PUSH1 0x20 ADD SWAP1 DUP2 MSTORE PUSH1 0x20 ADD PUSH0 KECCAK256 DUP2 SWAP1 SSTORE POP PUSH0 PUSH1 0x3 PUSH0 SWAP1 SLOAD SWAP1 PUSH2 0x100 EXP SWAP1 DIV PUSH20 0xFFFFFFFFFFFFFFFFFFFFFFFFFFFFFFFFFFFFFFFF AND PUSH20 0xFFFFFFFFFFFFFFFFFFFFFFFFFFFFFFFFFFFFFFFF AND PUSH4 0x954FA5EE ADDRESS DUP6 PUSH1 0x40 MLOAD DUP4 PUSH4 0xFFFFFFFF AND PUSH1 0xE0 SHL DUP2 MSTORE PUSH1 0x4 ADD PUSH2 0xBE3 SWAP3 SWAP2 SWAP1 PUSH2 0x2FCF JUMP JUMPDEST PUSH1 0x20 PUSH1 0x40 MLOAD DUP1 DUP4 SUB DUP2 PUSH0 DUP8 GAS CALL ISZERO DUP1 ISZERO PUSH2 0xBFF JUMPI RETURNDATASIZE PUSH0 DUP1 RETURNDATACOPY RETURNDATASIZE PUSH0 REVERT JUMPDEST POP POP POP POP PUSH1 0x40 MLOAD RETURNDATASIZE PUSH1 0x1F NOT PUSH1 0x1F DUP3 ADD AND DUP3 ADD DUP1 PUSH1 0x40 MSTORE POP DUP2 ADD SWAP1 PUSH2 0xC23 SWAP2 SWAP1 PUSH2 0x300A JUMP JUMPDEST SWAP1 POP PUSH0 DUP2 GT ISZERO PUSH2 0xC4F JUMPI DUP1 PUSH1 0x6 PUSH0 DUP3 DUP3 SLOAD PUSH2 0xC3E SWAP2 SWAP1 PUSH2 0x2F9C JUMP JUMPDEST SWAP3 POP POP DUP2 SWAP1 SSTORE POP PUSH2 0xC4E DUP2 PUSH2 0x1B74 JUMP JUMPDEST JUMPDEST POP POP POP JUMPDEST JUMP JUMPDEST PUSH0 DUP3 PUSH0 PUSH20 0xFFFFFFFFFFFFFFFFFFFFFFFFFFFFFFFFFFFFFFFF AND DUP2 PUSH20 0xFFFFFFFFFFFFFFFFFFFFFFFFFFFFFFFFFFFFFFFF AND SUB PUSH2 0xC8E JUMPI PUSH0 DUP1 REVERT JUMPDEST ADDRESS PUSH20 0xFFFFFFFFFFFFFFFFFFFFFFFFFFFFFFFFFFFFFFFF AND DUP6 PUSH20 0xFFFFFFFFFFFFFFFFFFFFFFFFFFFFFFFFFFFFFFFF AND EQ DUP1 ISZERO PUSH2 0xD15 JUMPI POP PUSH1 0x13 PUSH0 SWAP1 SLOAD SWAP1 PUSH2 0x100 EXP SWAP1 DIV PUSH20 0xFFFFFFFFFFFFFFFFFFFFFFFFFFFFFFFFFFFFFFFF AND PUSH20 0xFFFFFFFFFFFFFFFFFFFFFFFFFFFFFFFFFFFFFFFF AND DUP5 PUSH20 0xFFFFFFFFFFFFFFFFFFFFFFFFFFFFFFFFFFFFFFFF AND EQ JUMPDEST ISZERO PUSH2 0xD23 JUMPI PUSH1 0x1 SWAP2 POP PUSH2 0xE72 JUMP JUMPDEST PUSH2 0xDE5 DUP4 PUSH1 0x40 MLOAD DUP1 PUSH1 0x40 ADD PUSH1 0x40 MSTORE DUP1 PUSH1 0x16 DUP2 MSTORE PUSH1 0x20 ADD PUSH32 0x496E73756666696369656E7420416C6C6F77616E636500000000000000000000 DUP2 MSTORE POP PUSH1 0x15 PUSH0 DUP10 PUSH20 0xFFFFFFFFFFFFFFFFFFFFFFFFFFFFFFFFFFFFFFFF AND PUSH20 0xFFFFFFFFFFFFFFFFFFFFFFFFFFFFFFFFFFFFFFFF AND DUP2 MSTORE PUSH1 0x20 ADD SWAP1 DUP2 MSTORE PUSH1 0x20 ADD PUSH0 KECCAK256 PUSH0 CALLER PUSH20 0xFFFFFFFFFFFFFFFFFFFFFFFFFFFFFFFFFFFFFFFF AND PUSH20 0xFFFFFFFFFFFFFFFFFFFFFFFFFFFFFFFFFFFFFFFF AND DUP2 MSTORE PUSH1 0x20 ADD SWAP1 DUP2 MSTORE PUSH1 0x20 ADD PUSH0 KECCAK256 SLOAD PUSH2 0x1B80 SWAP1 SWAP3 SWAP2 SWAP1 PUSH4 0xFFFFFFFF AND JUMP JUMPDEST PUSH1 0x15 PUSH0 DUP8 PUSH20 0xFFFFFFFFFFFFFFFFFFFFFFFFFFFFFFFFFFFFFFFF AND PUSH20 0xFFFFFFFFFFFFFFFFFFFFFFFFFFFFFFFFFFFFFFFF AND DUP2 MSTORE PUSH1 0x20 ADD SWAP1 DUP2 MSTORE PUSH1 0x20 ADD PUSH0 KECCAK256 PUSH0 CALLER PUSH20 0xFFFFFFFFFFFFFFFFFFFFFFFFFFFFFFFFFFFFFFFF AND PUSH20 0xFFFFFFFFFFFFFFFFFFFFFFFFFFFFFFFFFFFFFFFF AND DUP2 MSTORE PUSH1 0x20 ADD SWAP1 DUP2 MSTORE PUSH1 0x20 ADD PUSH0 KECCAK256 DUP2 SWAP1 SSTORE POP PUSH2 0xE6C DUP6 DUP6 DUP6 PUSH2 0x1BD4 JUMP JUMPDEST POP PUSH1 0x1 SWAP2 POP JUMPDEST POP SWAP4 SWAP3 POP POP POP JUMP JUMPDEST PUSH2 0xE82 PUSH2 0x148E JUMP JUMPDEST PUSH2 0xE8A JUMPI PUSH0 DUP1 REVERT JUMPDEST DUP1 PUSH1 0x8 DUP2 SWAP1 SSTORE POP POP JUMP JUMPDEST PUSH2 0xE9C PUSH2 0x148E JUMP JUMPDEST PUSH2 0xEA4 JUMPI PUSH0 DUP1 REVERT JUMPDEST DUP1 PUSH1 0x14 PUSH0 PUSH2 0x100 EXP DUP2 SLOAD DUP2 PUSH20 0xFFFFFFFFFFFFFFFFFFFFFFFFFFFFFFFFFFFFFFFF MUL NOT AND SWAP1 DUP4 PUSH20 0xFFFFFFFFFFFFFFFFFFFFFFFFFFFFFFFFFFFFFFFF AND MUL OR SWAP1 SSTORE POP POP JUMP JUMPDEST PUSH0 PUSH1 0x2 PUSH0 SWAP1 SLOAD SWAP1 PUSH2 0x100 EXP SWAP1 DIV PUSH1 0xFF AND SWAP1 POP SWAP1 JUMP JUMPDEST PUSH1 0xB SLOAD DUP2 JUMP JUMPDEST PUSH2 0xF0A PUSH2 0x148E JUMP JUMPDEST PUSH2 0xF12 JUMPI PUSH0 DUP1 REVERT JUMPDEST PUSH2 0xF1B DUP3 PUSH2 0x1DC2 JUMP JUMPDEST PUSH2 0xF5A JUMPI PUSH1 0x40 MLOAD PUSH32 0x8C379A000000000000000000000000000000000000000000000000000000000 DUP2 MSTORE PUSH1 0x4 ADD PUSH2 0xF51 SWAP1 PUSH2 0x30A5 JUMP JUMPDEST PUSH1 0x40 MLOAD DUP1 SWAP2 SUB SWAP1 REVERT JUMPDEST DUP1 PUSH1 0x11 PUSH0 DUP5 PUSH20 0xFFFFFFFFFFFFFFFFFFFFFFFFFFFFFFFFFFFFFFFF AND PUSH20 0xFFFFFFFFFFFFFFFFFFFFFFFFFFFFFFFFFFFFFFFF AND DUP2 MSTORE PUSH1 0x20 ADD SWAP1 DUP2 MSTORE PUSH1 0x20 ADD PUSH0 KECCAK256 PUSH0 PUSH2 0x100 EXP DUP2 SLOAD DUP2 PUSH1 0xFF MUL NOT AND SWAP1 DUP4 ISZERO ISZERO MUL OR SWAP1 SSTORE POP POP POP JUMP JUMPDEST PUSH0 PUSH2 0x103E DUP3 PUSH1 0x15 PUSH0 CALLER PUSH20 0xFFFFFFFFFFFFFFFFFFFFFFFFFFFFFFFFFFFFFFFF AND PUSH20 0xFFFFFFFFFFFFFFFFFFFFFFFFFFFFFFFFFFFFFFFF AND DUP2 MSTORE PUSH1 0x20 ADD SWAP1 DUP2 MSTORE PUSH1 0x20 ADD PUSH0 KECCAK256 PUSH0 DUP7 PUSH20 0xFFFFFFFFFFFFFFFFFFFFFFFFFFFFFFFFFFFFFFFF AND PUSH20 0xFFFFFFFFFFFFFFFFFFFFFFFFFFFFFFFFFFFFFFFF AND DUP2 MSTORE PUSH1 0x20 ADD SWAP1 DUP2 MSTORE PUSH1 0x20 ADD PUSH0 KECCAK256 SLOAD PUSH2 0x1DD3 SWAP1 SWAP2 SWAP1 PUSH4 0xFFFFFFFF AND JUMP JUMPDEST PUSH1 0x15 PUSH0 CALLER PUSH20 0xFFFFFFFFFFFFFFFFFFFFFFFFFFFFFFFFFFFFFFFF AND PUSH20 0xFFFFFFFFFFFFFFFFFFFFFFFFFFFFFFFFFFFFFFFF AND DUP2 MSTORE PUSH1 0x20 ADD SWAP1 DUP2 MSTORE PUSH1 0x20 ADD PUSH0 KECCAK256 PUSH0 DUP6 PUSH20 0xFFFFFFFFFFFFFFFFFFFFFFFFFFFFFFFFFFFFFFFF AND PUSH20 0xFFFFFFFFFFFFFFFFFFFFFFFFFFFFFFFFFFFFFFFF AND DUP2 MSTORE PUSH1 0x20 ADD SWAP1 DUP2 MSTORE PUSH1 0x20 ADD PUSH0 KECCAK256 DUP2 SWAP1 SSTORE POP DUP3 PUSH20 0xFFFFFFFFFFFFFFFFFFFFFFFFFFFFFFFFFFFFFFFF AND CALLER PUSH20 0xFFFFFFFFFFFFFFFFFFFFFFFFFFFFFFFFFFFFFFFF AND PUSH32 0x8C5BE1E5EBEC7D5BD14F71427D1E84F3DD0314C0F7B2291E5B200AC8C7C3B925 PUSH1 0x15 PUSH0 CALLER PUSH20 0xFFFFFFFFFFFFFFFFFFFFFFFFFFFFFFFFFFFFFFFF AND PUSH20 0xFFFFFFFFFFFFFFFFFFFFFFFFFFFFFFFFFFFFFFFF AND DUP2 MSTORE PUSH1 0x20 ADD SWAP1 DUP2 MSTORE PUSH1 0x20 ADD PUSH0 KECCAK256 PUSH0 DUP8 PUSH20 0xFFFFFFFFFFFFFFFFFFFFFFFFFFFFFFFFFFFFFFFF AND PUSH20 0xFFFFFFFFFFFFFFFFFFFFFFFFFFFFFFFFFFFFFFFF AND DUP2 MSTORE PUSH1 0x20 ADD SWAP1 DUP2 MSTORE PUSH1 0x20 ADD PUSH0 KECCAK256 SLOAD PUSH1 0x40 MLOAD PUSH2 0x118F SWAP2 SWAP1 PUSH2 0x2CB2 JUMP JUMPDEST PUSH1 0x40 MLOAD DUP1 SWAP2 SUB SWAP1 LOG3 PUSH1 0x1 SWAP1 POP SWAP3 SWAP2 POP POP JUMP JUMPDEST PUSH1 0xC SLOAD DUP2 JUMP JUMPDEST PUSH1 0x5 SLOAD DUP2 JUMP JUMPDEST PUSH2 0x11B5 PUSH2 0x148E JUMP JUMPDEST PUSH2 0x11BD JUMPI PUSH0 DUP1 REVERT JUMPDEST DUP1 ISZERO PUSH2 0x11E2 JUMPI DUP1 PUSH1 0x9 PUSH1 0x1 PUSH2 0x100 EXP DUP2 SLOAD DUP2 PUSH1 0xFF MUL NOT AND SWAP1 DUP4 ISZERO ISZERO MUL OR SWAP1 SSTORE POP PUSH2 0x11FD JUMP JUMPDEST DUP1 PUSH1 0x9 PUSH1 0x1 PUSH2 0x100 EXP DUP2 SLOAD DUP2 PUSH1 0xFF MUL NOT AND SWAP1 DUP4 ISZERO ISZERO MUL OR SWAP1 SSTORE POP JUMPDEST POP JUMP JUMPDEST PUSH2 0x1208 PUSH2 0x148E JUMP JUMPDEST PUSH2 0x1210 JUMPI PUSH0 DUP1 REVERT JUMPDEST DUP1 ISZERO PUSH2 0x1235 JUMPI DUP1 PUSH1 0x9 PUSH1 0x2 PUSH2 0x100 EXP DUP2 SLOAD DUP2 PUSH1 0xFF MUL NOT AND SWAP1 DUP4 ISZERO ISZERO MUL OR SWAP1 SSTORE POP PUSH2 0x1250 JUMP JUMPDEST DUP1 PUSH1 0x9 PUSH1 0x2 PUSH2 0x100 EXP DUP2 SLOAD DUP2 PUSH1 0xFF MUL NOT AND SWAP1 DUP4 ISZERO ISZERO MUL OR SWAP1 SSTORE POP JUMPDEST POP JUMP JUMPDEST PUSH1 0x7 SLOAD DUP2 JUMP JUMPDEST PUSH0 PUSH1 0xE PUSH0 DUP4 PUSH20 0xFFFFFFFFFFFFFFFFFFFFFFFFFFFFFFFFFFFFFFFF AND PUSH20 0xFFFFFFFFFFFFFFFFFFFFFFFFFFFFFFFFFFFFFFFF AND DUP2 MSTORE PUSH1 0x20 ADD SWAP1 DUP2 MSTORE PUSH1 0x20 ADD PUSH0 KECCAK256 SLOAD SWAP1 POP SWAP2 SWAP1 POP JUMP JUMPDEST PUSH1 0x9 PUSH1 0x1 SWAP1 SLOAD SWAP1 PUSH2 0x100 EXP SWAP1 DIV PUSH1 0xFF AND DUP2 JUMP JUMPDEST PUSH2 0x12BA PUSH2 0x148E JUMP JUMPDEST PUSH2 0x12C2 JUMPI PUSH0 DUP1 REVERT JUMPDEST PUSH1 0x2 PUSH1 0x1 SWAP1 SLOAD SWAP1 PUSH2 0x100 EXP SWAP1 DIV PUSH20 0xFFFFFFFFFFFFFFFFFFFFFFFFFFFFFFFFFFFFFFFF AND PUSH20 0xFFFFFFFFFFFFFFFFFFFFFFFFFFFFFFFFFFFFFFFF AND PUSH32 0xF8DF31144D9C2F0F6B59D69B8B98ABD5459D07F2742C4DF920B25AAE33C64820 PUSH1 0x40 MLOAD PUSH1 0x40 MLOAD DUP1 SWAP2 SUB SWAP1 LOG2 PUSH0 PUSH1 0x2 PUSH1 0x1 PUSH2 0x100 EXP DUP2 SLOAD DUP2 PUSH20 0xFFFFFFFFFFFFFFFFFFFFFFFFFFFFFFFFFFFFFFFF MUL NOT AND SWAP1 DUP4 PUSH20 0xFFFFFFFFFFFFFFFFFFFFFFFFFFFFFFFFFFFFFFFF AND MUL OR SWAP1 SSTORE POP JUMP JUMPDEST PUSH1 0x14 PUSH0 SWAP1 SLOAD SWAP1 PUSH2 0x100 EXP SWAP1 DIV PUSH20 0xFFFFFFFFFFFFFFFFFFFFFFFFFFFFFFFFFFFFFFFF AND PUSH20 0xFFFFFFFFFFFFFFFFFFFFFFFFFFFFFFFFFFFFFFFF AND PUSH4 0xFFF6CAE9 PUSH1 0x40 MLOAD DUP2 PUSH4 0xFFFFFFFF AND PUSH1 0xE0 SHL DUP2 MSTORE PUSH1 0x4 ADD PUSH0 PUSH1 0x40 MLOAD DUP1 DUP4 SUB DUP2 PUSH0 DUP8 DUP1 EXTCODESIZE ISZERO DUP1 ISZERO PUSH2 0x13D0 JUMPI PUSH0 DUP1 REVERT JUMPDEST POP GAS CALL ISZERO DUP1 ISZERO PUSH2 0x13E2 JUMPI RETURNDATASIZE PUSH0 DUP1 RETURNDATACOPY RETURNDATASIZE PUSH0 REVERT JUMPDEST POP POP POP POP JUMP JUMPDEST PUSH0 PUSH1 0x14 DUP1 SLOAD SWAP1 PUSH2 0x100 EXP SWAP1 DIV PUSH1 0xFF AND ISZERO SWAP1 POP SWAP1 JUMP JUMPDEST PUSH2 0x1405 PUSH2 0x148E JUMP JUMPDEST PUSH2 0x140D JUMPI PUSH0 DUP1 REVERT JUMPDEST PUSH1 0x1 PUSH1 0x10 PUSH0 DUP4 PUSH20 0xFFFFFFFFFFFFFFFFFFFFFFFFFFFFFFFFFFFFFFFF AND PUSH20 0xFFFFFFFFFFFFFFFFFFFFFFFFFFFFFFFFFFFFFFFF AND DUP2 MSTORE PUSH1 0x20 ADD SWAP1 DUP2 MSTORE PUSH1 0x20 ADD PUSH0 KECCAK256 PUSH0 PUSH2 0x100 EXP DUP2 SLOAD DUP2 PUSH1 0xFF MUL NOT AND SWAP1 DUP4 ISZERO ISZERO MUL OR SWAP1 SSTORE POP POP JUMP JUMPDEST PUSH0 PUSH1 0x2 PUSH1 0x1 SWAP1 SLOAD SWAP1 PUSH2 0x100 EXP SWAP1 DIV PUSH20 0xFFFFFFFFFFFFFFFFFFFFFFFFFFFFFFFFFFFFFFFF AND SWAP1 POP SWAP1 JUMP JUMPDEST PUSH0 PUSH1 0x2 PUSH1 0x1 SWAP1 SLOAD SWAP1 PUSH2 0x100 EXP SWAP1 DIV PUSH20 0xFFFFFFFFFFFFFFFFFFFFFFFFFFFFFFFFFFFFFFFF AND PUSH20 0xFFFFFFFFFFFFFFFFFFFFFFFFFFFFFFFFFFFFFFFF AND CALLER PUSH20 0xFFFFFFFFFFFFFFFFFFFFFFFFFFFFFFFFFFFFFFFF AND EQ SWAP1 POP SWAP1 JUMP JUMPDEST PUSH1 0x60 PUSH1 0x1 DUP1 SLOAD PUSH2 0x14F4 SWAP1 PUSH2 0x2F3F JUMP JUMPDEST DUP1 PUSH1 0x1F ADD PUSH1 0x20 DUP1 SWAP2 DIV MUL PUSH1 0x20 ADD PUSH1 0x40 MLOAD SWAP1 DUP2 ADD PUSH1 0x40 MSTORE DUP1 SWAP3 SWAP2 SWAP1 DUP2 DUP2 MSTORE PUSH1 0x20 ADD DUP3 DUP1 SLOAD PUSH2 0x1520 SWAP1 PUSH2 0x2F3F JUMP JUMPDEST DUP1 ISZERO PUSH2 0x156B JUMPI DUP1 PUSH1 0x1F LT PUSH2 0x1542 JUMPI PUSH2 0x100 DUP1 DUP4 SLOAD DIV MUL DUP4 MSTORE SWAP2 PUSH1 0x20 ADD SWAP2 PUSH2 0x156B JUMP JUMPDEST DUP3 ADD SWAP2 SWAP1 PUSH0 MSTORE PUSH1 0x20 PUSH0 KECCAK256 SWAP1 JUMPDEST DUP2 SLOAD DUP2 MSTORE SWAP1 PUSH1 0x1 ADD SWAP1 PUSH1 0x20 ADD DUP1 DUP4 GT PUSH2 0x154E JUMPI DUP3 SWAP1 SUB PUSH1 0x1F AND DUP3 ADD SWAP2 JUMPDEST POP POP POP POP POP SWAP1 POP SWAP1 JUMP JUMPDEST PUSH1 0x9 PUSH1 0x2 SWAP1 SLOAD SWAP1 PUSH2 0x100 EXP SWAP1 DIV PUSH1 0xFF AND DUP2 JUMP JUMPDEST PUSH1 0x3 PUSH0 SWAP1 SLOAD SWAP1 PUSH2 0x100 EXP SWAP1 DIV PUSH20 0xFFFFFFFFFFFFFFFFFFFFFFFFFFFFFFFFFFFFFFFF AND DUP2 JUMP JUMPDEST PUSH1 0xA SLOAD DUP2 JUMP JUMPDEST PUSH1 0x11 PUSH1 0x20 MSTORE DUP1 PUSH0 MSTORE PUSH1 0x40 PUSH0 KECCAK256 PUSH0 SWAP2 POP SLOAD SWAP1 PUSH2 0x100 EXP SWAP1 DIV PUSH1 0xFF AND DUP2 JUMP JUMPDEST PUSH0 DUP1 PUSH1 0x15 PUSH0 CALLER PUSH20 0xFFFFFFFFFFFFFFFFFFFFFFFFFFFFFFFFFFFFFFFF AND PUSH20 0xFFFFFFFFFFFFFFFFFFFFFFFFFFFFFFFFFFFFFFFF AND DUP2 MSTORE PUSH1 0x20 ADD SWAP1 DUP2 MSTORE PUSH1 0x20 ADD PUSH0 KECCAK256 PUSH0 DUP6 PUSH20 0xFFFFFFFFFFFFFFFFFFFFFFFFFFFFFFFFFFFFFFFF AND PUSH20 0xFFFFFFFFFFFFFFFFFFFFFFFFFFFFFFFFFFFFFFFF AND DUP2 MSTORE PUSH1 0x20 ADD SWAP1 DUP2 MSTORE PUSH1 0x20 ADD PUSH0 KECCAK256 SLOAD SWAP1 POP DUP1 DUP4 LT PUSH2 0x16D6 JUMPI PUSH0 PUSH1 0x15 PUSH0 CALLER PUSH20 0xFFFFFFFFFFFFFFFFFFFFFFFFFFFFFFFFFFFFFFFF AND PUSH20 0xFFFFFFFFFFFFFFFFFFFFFFFFFFFFFFFFFFFFFFFF AND DUP2 MSTORE PUSH1 0x20 ADD SWAP1 DUP2 MSTORE PUSH1 0x20 ADD PUSH0 KECCAK256 PUSH0 DUP7 PUSH20 0xFFFFFFFFFFFFFFFFFFFFFFFFFFFFFFFFFFFFFFFF AND PUSH20 0xFFFFFFFFFFFFFFFFFFFFFFFFFFFFFFFFFFFFFFFF AND DUP2 MSTORE PUSH1 0x20 ADD SWAP1 DUP2 MSTORE PUSH1 0x20 ADD PUSH0 KECCAK256 DUP2 SWAP1 SSTORE POP PUSH2 0x1766 JUMP JUMPDEST PUSH2 0x16E9 DUP4 DUP3 PUSH2 0x1DE8 SWAP1 SWAP2 SWAP1 PUSH4 0xFFFFFFFF AND JUMP JUMPDEST PUSH1 0x15 PUSH0 CALLER PUSH20 0xFFFFFFFFFFFFFFFFFFFFFFFFFFFFFFFFFFFFFFFF AND PUSH20 0xFFFFFFFFFFFFFFFFFFFFFFFFFFFFFFFFFFFFFFFF AND DUP2 MSTORE PUSH1 0x20 ADD SWAP1 DUP2 MSTORE PUSH1 0x20 ADD PUSH0 KECCAK256 PUSH0 DUP7 PUSH20 0xFFFFFFFFFFFFFFFFFFFFFFFFFFFFFFFFFFFFFFFF AND PUSH20 0xFFFFFFFFFFFFFFFFFFFFFFFFFFFFFFFFFFFFFFFF AND DUP2 MSTORE PUSH1 0x20 ADD SWAP1 DUP2 MSTORE PUSH1 0x20 ADD PUSH0 KECCAK256 DUP2 SWAP1 SSTORE POP JUMPDEST DUP4 PUSH20 0xFFFFFFFFFFFFFFFFFFFFFFFFFFFFFFFFFFFFFFFF AND CALLER PUSH20 0xFFFFFFFFFFFFFFFFFFFFFFFFFFFFFFFFFFFFFFFF AND PUSH32 0x8C5BE1E5EBEC7D5BD14F71427D1E84F3DD0314C0F7B2291E5B200AC8C7C3B925 PUSH1 0x15 PUSH0 CALLER PUSH20 0xFFFFFFFFFFFFFFFFFFFFFFFFFFFFFFFFFFFFFFFF AND PUSH20 0xFFFFFFFFFFFFFFFFFFFFFFFFFFFFFFFFFFFFFFFF AND DUP2 MSTORE PUSH1 0x20 ADD SWAP1 DUP2 MSTORE PUSH1 0x20 ADD PUSH0 KECCAK256 PUSH0 DUP9 PUSH20 0xFFFFFFFFFFFFFFFFFFFFFFFFFFFFFFFFFFFFFFFF AND PUSH20 0xFFFFFFFFFFFFFFFFFFFFFFFFFFFFFFFFFFFFFFFF AND DUP2 MSTORE PUSH1 0x20 ADD SWAP1 DUP2 MSTORE PUSH1 0x20 ADD PUSH0 KECCAK256 SLOAD PUSH1 0x40 MLOAD PUSH2 0x183B SWAP2 SWAP1 PUSH2 0x2CB2 JUMP JUMPDEST PUSH1 0x40 MLOAD DUP1 SWAP2 SUB SWAP1 LOG3 PUSH1 0x1 SWAP2 POP POP SWAP3 SWAP2 POP POP JUMP JUMPDEST PUSH0 PUSH1 0x14 PUSH0 SWAP1 SLOAD SWAP1 PUSH2 0x100 EXP SWAP1 DIV PUSH20 0xFFFFFFFFFFFFFFFFFFFFFFFFFFFFFFFFFFFFFFFF AND SWAP1 POP SWAP1 JUMP JUMPDEST PUSH0 DUP3 PUSH0 PUSH20 0xFFFFFFFFFFFFFFFFFFFFFFFFFFFFFFFFFFFFFFFF AND DUP2 PUSH20 0xFFFFFFFFFFFFFFFFFFFFFFFFFFFFFFFFFFFFFFFF AND SUB PUSH2 0x18AF JUMPI PUSH0 DUP1 REVERT JUMPDEST PUSH2 0x18BA CALLER DUP6 DUP6 PUSH2 0x1BD4 JUMP JUMPDEST POP PUSH1 0x1 SWAP2 POP POP SWAP3 SWAP2 POP POP JUMP JUMPDEST PUSH2 0x18CE PUSH2 0x148E JUMP JUMPDEST PUSH2 0x18D6 JUMPI PUSH0 DUP1 REVERT JUMPDEST DUP1 PUSH1 0x7 DUP2 SWAP1 SSTORE POP POP JUMP JUMPDEST PUSH1 0x9 PUSH0 SWAP1 SLOAD SWAP1 PUSH2 0x100 EXP SWAP1 DIV PUSH1 0xFF AND DUP2 JUMP JUMPDEST PUSH1 0x8 SLOAD DUP2 JUMP JUMPDEST PUSH0 PUSH1 0x10 PUSH0 DUP4 PUSH20 0xFFFFFFFFFFFFFFFFFFFFFFFFFFFFFFFFFFFFFFFF AND PUSH20 0xFFFFFFFFFFFFFFFFFFFFFFFFFFFFFFFFFFFFFFFF AND DUP2 MSTORE PUSH1 0x20 ADD SWAP1 DUP2 MSTORE PUSH1 0x20 ADD PUSH0 KECCAK256 PUSH0 SWAP1 SLOAD SWAP1 PUSH2 0x100 EXP SWAP1 DIV PUSH1 0xFF AND SWAP1 POP SWAP2 SWAP1 POP JUMP JUMPDEST PUSH0 PUSH1 0x15 PUSH0 DUP5 PUSH20 0xFFFFFFFFFFFFFFFFFFFFFFFFFFFFFFFFFFFFFFFF AND PUSH20 0xFFFFFFFFFFFFFFFFFFFFFFFFFFFFFFFFFFFFFFFF AND DUP2 MSTORE PUSH1 0x20 ADD SWAP1 DUP2 MSTORE PUSH1 0x20 ADD PUSH0 KECCAK256 PUSH0 DUP4 PUSH20 0xFFFFFFFFFFFFFFFFFFFFFFFFFFFFFFFFFFFFFFFF AND PUSH20 0xFFFFFFFFFFFFFFFFFFFFFFFFFFFFFFFFFFFFFFFF AND DUP2 MSTORE PUSH1 0x20 ADD SWAP1 DUP2 MSTORE PUSH1 0x20 ADD PUSH0 KECCAK256 SLOAD SWAP1 POP SWAP3 SWAP2 POP POP JUMP JUMPDEST PUSH2 0x19D4 PUSH2 0x148E JUMP JUMPDEST PUSH2 0x19DC JUMPI PUSH0 DUP1 REVERT JUMPDEST DUP1 ISZERO PUSH2 0x1A07 JUMPI DUP1 PUSH1 0x9 PUSH0 PUSH2 0x100 EXP DUP2 SLOAD DUP2 PUSH1 0xFF MUL NOT AND SWAP1 DUP4 ISZERO ISZERO MUL OR SWAP1 SSTORE POP TIMESTAMP PUSH1 0xB DUP2 SWAP1 SSTORE POP PUSH2 0x1A21 JUMP JUMPDEST DUP1 PUSH1 0x9 PUSH0 PUSH2 0x100 EXP DUP2 SLOAD DUP2 PUSH1 0xFF MUL NOT AND SWAP1 DUP4 ISZERO ISZERO MUL OR SWAP1 SSTORE POP JUMPDEST POP JUMP JUMPDEST PUSH2 0x1A2C PUSH2 0x148E JUMP JUMPDEST PUSH2 0x1A34 JUMPI PUSH0 DUP1 REVERT JUMPDEST DUP1 PUSH1 0x5 DUP2 SWAP1 SSTORE POP POP JUMP JUMPDEST PUSH2 0x1A46 PUSH2 0x148E JUMP JUMPDEST PUSH2 0x1A4E JUMPI PUSH0 DUP1 REVERT JUMPDEST PUSH0 PUSH20 0xFFFFFFFFFFFFFFFFFFFFFFFFFFFFFFFFFFFFFFFF AND DUP2 PUSH20 0xFFFFFFFFFFFFFFFFFFFFFFFFFFFFFFFFFFFFFFFF AND SUB PUSH2 0x1A99 JUMPI PUSH20 0x4300000000000000000000000000000000000002 SWAP1 POP JUMPDEST DUP1 PUSH1 0x3 PUSH0 PUSH2 0x100 EXP DUP2 SLOAD DUP2 PUSH20 0xFFFFFFFFFFFFFFFFFFFFFFFFFFFFFFFFFFFFFFFF MUL NOT AND SWAP1 DUP4 PUSH20 0xFFFFFFFFFFFFFFFFFFFFFFFFFFFFFFFFFFFFFFFF AND MUL OR SWAP1 SSTORE POP PUSH1 0x3 PUSH0 SWAP1 SLOAD SWAP1 PUSH2 0x100 EXP SWAP1 DIV PUSH20 0xFFFFFFFFFFFFFFFFFFFFFFFFFFFFFFFFFFFFFFFF AND PUSH20 0xFFFFFFFFFFFFFFFFFFFFFFFFFFFFFFFFFFFFFFFF AND PUSH4 0x4E606C47 PUSH1 0x40 MLOAD DUP2 PUSH4 0xFFFFFFFF AND PUSH1 0xE0 SHL DUP2 MSTORE PUSH1 0x4 ADD PUSH0 PUSH1 0x40 MLOAD DUP1 DUP4 SUB DUP2 PUSH0 DUP8 DUP1 EXTCODESIZE ISZERO DUP1 ISZERO PUSH2 0x1B3F JUMPI PUSH0 DUP1 REVERT JUMPDEST POP GAS CALL ISZERO DUP1 ISZERO PUSH2 0x1B51 JUMPI RETURNDATASIZE PUSH0 DUP1 RETURNDATACOPY RETURNDATASIZE PUSH0 REVERT JUMPDEST POP POP POP POP POP JUMP JUMPDEST PUSH2 0x1B60 PUSH2 0x148E JUMP JUMPDEST PUSH2 0x1B68 JUMPI PUSH0 DUP1 REVERT JUMPDEST PUSH2 0x1B71 DUP2 PUSH2 0x1DFD JUMP JUMPDEST POP JUMP JUMPDEST PUSH2 0x1B7D DUP2 PUSH2 0x1EF4 JUMP JUMPDEST POP JUMP JUMPDEST PUSH0 DUP4 DUP4 GT ISZERO DUP3 SWAP1 PUSH2 0x1BC7 JUMPI PUSH1 0x40 MLOAD PUSH32 0x8C379A000000000000000000000000000000000000000000000000000000000 DUP2 MSTORE PUSH1 0x4 ADD PUSH2 0x1BBE SWAP2 SWAP1 PUSH2 0x2B81 JUMP JUMPDEST PUSH1 0x40 MLOAD DUP1 SWAP2 SUB SWAP1 REVERT JUMPDEST POP DUP3 DUP5 SUB SWAP1 POP SWAP4 SWAP3 POP POP POP JUMP JUMPDEST PUSH0 PUSH1 0x11 PUSH0 DUP6 PUSH20 0xFFFFFFFFFFFFFFFFFFFFFFFFFFFFFFFFFFFFFFFF AND PUSH20 0xFFFFFFFFFFFFFFFFFFFFFFFFFFFFFFFFFFFFFFFF AND DUP2 MSTORE PUSH1 0x20 ADD SWAP1 DUP2 MSTORE PUSH1 0x20 ADD PUSH0 KECCAK256 PUSH0 SWAP1 SLOAD SWAP1 PUSH2 0x100 EXP SWAP1 DIV PUSH1 0xFF AND ISZERO DUP1 ISZERO PUSH2 0x1C73 JUMPI POP PUSH1 0x11 PUSH0 DUP5 PUSH20 0xFFFFFFFFFFFFFFFFFFFFFFFFFFFFFFFFFFFFFFFF AND PUSH20 0xFFFFFFFFFFFFFFFFFFFFFFFFFFFFFFFFFFFFFFFF AND DUP2 MSTORE PUSH1 0x20 ADD SWAP1 DUP2 MSTORE PUSH1 0x20 ADD PUSH0 KECCAK256 PUSH0 SWAP1 SLOAD SWAP1 PUSH2 0x100 EXP SWAP1 DIV PUSH1 0xFF AND ISZERO JUMPDEST PUSH2 0x1CB2 JUMPI PUSH1 0x40 MLOAD PUSH32 0x8C379A000000000000000000000000000000000000000000000000000000000 DUP2 MSTORE PUSH1 0x4 ADD PUSH2 0x1CA9 SWAP1 PUSH2 0x310D JUMP JUMPDEST PUSH1 0x40 MLOAD DUP1 SWAP2 SUB SWAP1 REVERT JUMPDEST PUSH1 0x14 DUP1 SLOAD SWAP1 PUSH2 0x100 EXP SWAP1 DIV PUSH1 0xFF AND ISZERO PUSH2 0x1CD7 JUMPI PUSH2 0x1CD0 DUP5 DUP5 DUP5 PUSH2 0x1FE8 JUMP JUMPDEST SWAP1 POP PUSH2 0x1DBB JUMP JUMPDEST PUSH2 0x1CDF PUSH2 0x2008 JUMP JUMPDEST ISZERO PUSH2 0x1CED JUMPI PUSH2 0x1CEC PUSH2 0x20D1 JUMP JUMPDEST JUMPDEST PUSH2 0x1CF5 PUSH2 0x22D8 JUMP JUMPDEST ISZERO PUSH2 0x1D03 JUMPI PUSH2 0x1D02 PUSH2 0x235E JUMP JUMPDEST JUMPDEST PUSH2 0x1D0B PUSH2 0x25EA JUMP JUMPDEST ISZERO PUSH2 0x1D1A JUMPI PUSH2 0x1D19 SELFBALANCE PUSH2 0x1EF4 JUMP JUMPDEST JUMPDEST PUSH2 0x1D24 DUP5 DUP4 PUSH2 0x261B JUMP JUMPDEST PUSH0 PUSH2 0x1D2F DUP6 DUP6 PUSH2 0x2678 JUMP JUMPDEST PUSH2 0x1D39 JUMPI DUP3 PUSH2 0x1D44 JUMP JUMPDEST PUSH2 0x1D43 DUP6 DUP5 PUSH2 0x277B JUMP JUMPDEST JUMPDEST SWAP1 POP PUSH2 0x1D50 DUP5 DUP3 PUSH2 0x2832 JUMP JUMPDEST DUP4 PUSH20 0xFFFFFFFFFFFFFFFFFFFFFFFFFFFFFFFFFFFFFFFF AND DUP6 PUSH20 0xFFFFFFFFFFFFFFFFFFFFFFFFFFFFFFFFFFFFFFFF AND PUSH32 0xDDF252AD1BE2C89B69C2B068FC378DAA952BA7F163C4A11628F55A4DF523B3EF DUP4 PUSH1 0x40 MLOAD PUSH2 0x1DAD SWAP2 SWAP1 PUSH2 0x2CB2 JUMP JUMPDEST PUSH1 0x40 MLOAD DUP1 SWAP2 SUB SWAP1 LOG3 PUSH1 0x1 SWAP2 POP POP JUMPDEST SWAP4 SWAP3 POP POP POP JUMP JUMPDEST PUSH0 DUP1 DUP3 EXTCODESIZE SWAP1 POP PUSH0 DUP2 GT SWAP2 POP POP SWAP2 SWAP1 POP JUMP JUMPDEST PUSH0 DUP2 DUP4 PUSH2 0x1DE0 SWAP2 SWAP1 PUSH2 0x2F9C JUMP JUMPDEST SWAP1 POP SWAP3 SWAP2 POP POP JUMP JUMPDEST PUSH0 DUP2 DUP4 PUSH2 0x1DF5 SWAP2 SWAP1 PUSH2 0x312B JUMP JUMPDEST SWAP1 POP SWAP3 SWAP2 POP POP JUMP JUMPDEST PUSH0 PUSH20 0xFFFFFFFFFFFFFFFFFFFFFFFFFFFFFFFFFFFFFFFF AND DUP2 PUSH20 0xFFFFFFFFFFFFFFFFFFFFFFFFFFFFFFFFFFFFFFFF AND SUB PUSH2 0x1E34 JUMPI PUSH0 DUP1 REVERT JUMPDEST DUP1 PUSH20 0xFFFFFFFFFFFFFFFFFFFFFFFFFFFFFFFFFFFFFFFF AND PUSH1 0x2 PUSH1 0x1 SWAP1 SLOAD SWAP1 PUSH2 0x100 EXP SWAP1 DIV PUSH20 0xFFFFFFFFFFFFFFFFFFFFFFFFFFFFFFFFFFFFFFFF AND PUSH20 0xFFFFFFFFFFFFFFFFFFFFFFFFFFFFFFFFFFFFFFFF AND PUSH32 0x8BE0079C531659141344CD1FD0A4F28419497F9722A3DAAFE3B4186F6B6457E0 PUSH1 0x40 MLOAD PUSH1 0x40 MLOAD DUP1 SWAP2 SUB SWAP1 LOG3 DUP1 PUSH1 0x2 PUSH1 0x1 PUSH2 0x100 EXP DUP2 SLOAD DUP2 PUSH20 0xFFFFFFFFFFFFFFFFFFFFFFFFFFFFFFFFFFFFFFFF MUL NOT AND SWAP1 DUP4 PUSH20 0xFFFFFFFFFFFFFFFFFFFFFFFFFFFFFFFFFFFFFFFF AND MUL OR SWAP1 SSTORE POP POP JUMP JUMPDEST PUSH0 DUP2 GT ISZERO PUSH2 0x1FE5 JUMPI PUSH0 DUP1 PUSH0 JUMPDEST PUSH1 0x12 DUP1 SLOAD SWAP1 POP DUP2 LT ISZERO PUSH2 0x1FE1 JUMPI PUSH1 0x12 DUP2 DUP2 SLOAD DUP2 LT PUSH2 0x1F21 JUMPI PUSH2 0x1F20 PUSH2 0x315E JUMP JUMPDEST JUMPDEST SWAP1 PUSH0 MSTORE PUSH1 0x20 PUSH0 KECCAK256 ADD PUSH0 SWAP1 SLOAD SWAP1 PUSH2 0x100 EXP SWAP1 DIV PUSH20 0xFFFFFFFFFFFFFFFFFFFFFFFFFFFFFFFFFFFFFFFF AND SWAP3 POP PUSH2 0x1F54 DUP4 PUSH2 0x288F JUMP JUMPDEST ISZERO PUSH2 0x1FD4 JUMPI PUSH2 0x1FBD PUSH1 0xC SLOAD PUSH2 0x1FAF PUSH1 0xE PUSH0 DUP8 PUSH20 0xFFFFFFFFFFFFFFFFFFFFFFFFFFFFFFFFFFFFFFFF AND PUSH20 0xFFFFFFFFFFFFFFFFFFFFFFFFFFFFFFFFFFFFFFFF AND DUP2 MSTORE PUSH1 0x20 ADD SWAP1 DUP2 MSTORE PUSH1 0x20 ADD PUSH0 KECCAK256 SLOAD DUP8 PUSH2 0x2920 SWAP1 SWAP2 SWAP1 PUSH4 0xFFFFFFFF AND JUMP JUMPDEST PUSH2 0x2935 SWAP1 SWAP2 SWAP1 PUSH4 0xFFFFFFFF AND JUMP JUMPDEST SWAP2 POP PUSH0 DUP3 GT ISZERO PUSH2 0x1FD3 JUMPI PUSH2 0x1FD1 DUP4 DUP4 PUSH2 0x294A JUMP JUMPDEST POP JUMPDEST JUMPDEST DUP1 DUP1 PUSH1 0x1 ADD SWAP2 POP POP PUSH2 0x1F00 JUMP JUMPDEST POP POP POP JUMPDEST POP JUMP JUMPDEST PUSH0 PUSH2 0x1FF3 DUP5 DUP4 PUSH2 0x261B JUMP JUMPDEST PUSH2 0x1FFD DUP4 DUP4 PUSH2 0x2832 JUMP JUMPDEST PUSH1 0x1 SWAP1 POP SWAP4 SWAP3 POP POP POP JUMP JUMPDEST PUSH0 PUSH1 0x9 PUSH0 SWAP1 SLOAD SWAP1 PUSH2 0x100 EXP SWAP1 DIV PUSH1 0xFF AND DUP1 ISZERO PUSH2 0x2041 JUMPI POP PUSH1 0x5 PUSH1 0xA PUSH2 0x202D SWAP2 SWAP1 PUSH2 0x32BA JUMP JUMPDEST PUSH4 0xC1B71080 PUSH2 0x203C SWAP2 SWAP1 PUSH2 0x3304 JUMP JUMPDEST PUSH1 0xC SLOAD LT JUMPDEST DUP1 ISZERO PUSH2 0x209A JUMPI POP PUSH1 0x14 PUSH0 SWAP1 SLOAD SWAP1 PUSH2 0x100 EXP SWAP1 DIV PUSH20 0xFFFFFFFFFFFFFFFFFFFFFFFFFFFFFFFFFFFFFFFF AND PUSH20 0xFFFFFFFFFFFFFFFFFFFFFFFFFFFFFFFFFFFFFFFF AND CALLER PUSH20 0xFFFFFFFFFFFFFFFFFFFFFFFFFFFFFFFFFFFFFFFF AND EQ ISZERO JUMPDEST DUP1 ISZERO PUSH2 0x20B1 JUMPI POP PUSH1 0x14 DUP1 SLOAD SWAP1 PUSH2 0x100 EXP SWAP1 DIV PUSH1 0xFF AND ISZERO JUMPDEST DUP1 ISZERO PUSH2 0x20CC JUMPI POP PUSH2 0x384 PUSH1 0xB SLOAD PUSH2 0x20C8 SWAP2 SWAP1 PUSH2 0x2F9C JUMP JUMPDEST TIMESTAMP LT ISZERO JUMPDEST SWAP1 POP SWAP1 JUMP JUMPDEST PUSH1 0x14 DUP1 SLOAD SWAP1 PUSH2 0x100 EXP SWAP1 DIV PUSH1 0xFF AND PUSH2 0x22D6 JUMPI PUSH0 DUP1 PUSH1 0xA SLOAD TIMESTAMP PUSH2 0x20F3 SWAP2 SWAP1 PUSH2 0x312B JUMP JUMPDEST SWAP1 POP PUSH0 PUSH1 0xB SLOAD TIMESTAMP PUSH2 0x2104 SWAP2 SWAP1 PUSH2 0x312B JUMP JUMPDEST SWAP1 POP PUSH0 PUSH2 0x211C PUSH2 0x384 DUP4 PUSH2 0x2935 SWAP1 SWAP2 SWAP1 PUSH4 0xFFFFFFFF AND JUMP JUMPDEST SWAP1 POP PUSH0 PUSH2 0x2133 PUSH1 0xF DUP4 PUSH2 0x2920 SWAP1 SWAP2 SWAP1 PUSH4 0xFFFFFFFF AND JUMP JUMPDEST SWAP1 POP PUSH4 0x5A39A80 DUP5 GT ISZERO PUSH2 0x214A JUMPI PUSH1 0x1 SWAP5 POP PUSH2 0x217A JUMP JUMPDEST PUSH4 0x3C26700 DUP5 LT PUSH2 0x215E JUMPI PUSH1 0x13 SWAP5 POP PUSH2 0x2179 JUMP JUMPDEST PUSH4 0x1E13380 DUP5 LT PUSH2 0x2172 JUMPI PUSH1 0xBF SWAP5 POP PUSH2 0x2178 JUMP JUMPDEST PUSH2 0x77B SWAP5 POP JUMPDEST JUMPDEST JUMPDEST PUSH0 JUMPDEST DUP3 DUP2 LT ISZERO PUSH2 0x21EA JUMPI PUSH2 0x21D7 PUSH1 0x7 PUSH1 0xA PUSH2 0x2195 SWAP2 SWAP1 PUSH2 0x32BA JUMP JUMPDEST PUSH2 0x21C9 PUSH2 0x21B8 DUP10 PUSH1 0x7 PUSH1 0xA PUSH2 0x21AA SWAP2 SWAP1 PUSH2 0x32BA JUMP JUMPDEST PUSH2 0x1DD3 SWAP1 SWAP2 SWAP1 PUSH4 0xFFFFFFFF AND JUMP JUMPDEST PUSH1 0xC SLOAD PUSH2 0x2920 SWAP1 SWAP2 SWAP1 PUSH4 0xFFFFFFFF AND JUMP JUMPDEST PUSH2 0x2935 SWAP1 SWAP2 SWAP1 PUSH4 0xFFFFFFFF AND JUMP JUMPDEST PUSH1 0xC DUP2 SWAP1 SSTORE POP DUP1 DUP1 PUSH1 0x1 ADD SWAP2 POP POP PUSH2 0x217C JUMP JUMPDEST POP PUSH2 0x2214 PUSH2 0x2203 PUSH2 0x384 DUP5 PUSH2 0x2920 SWAP1 SWAP2 SWAP1 PUSH4 0xFFFFFFFF AND JUMP JUMPDEST PUSH1 0xB SLOAD PUSH2 0x1DD3 SWAP1 SWAP2 SWAP1 PUSH4 0xFFFFFFFF AND JUMP JUMPDEST PUSH1 0xB DUP2 SWAP1 SSTORE POP PUSH1 0x14 PUSH0 SWAP1 SLOAD SWAP1 PUSH2 0x100 EXP SWAP1 DIV PUSH20 0xFFFFFFFFFFFFFFFFFFFFFFFFFFFFFFFFFFFFFFFF AND PUSH20 0xFFFFFFFFFFFFFFFFFFFFFFFFFFFFFFFFFFFFFFFF AND PUSH4 0xFFF6CAE9 PUSH1 0x40 MLOAD DUP2 PUSH4 0xFFFFFFFF AND PUSH1 0xE0 SHL DUP2 MSTORE PUSH1 0x4 ADD PUSH0 PUSH1 0x40 MLOAD DUP1 DUP4 SUB DUP2 PUSH0 DUP8 DUP1 EXTCODESIZE ISZERO DUP1 ISZERO PUSH2 0x2280 JUMPI PUSH0 DUP1 REVERT JUMPDEST POP GAS CALL ISZERO DUP1 ISZERO PUSH2 0x2292 JUMPI RETURNDATASIZE PUSH0 DUP1 RETURNDATACOPY RETURNDATASIZE PUSH0 REVERT JUMPDEST POP POP POP POP DUP1 PUSH32 0x72725A3B1E5BD622D6BCD1339BB31279C351ABE8F541AC7FD320F24E1B1641F2 PUSH1 0xC SLOAD PUSH1 0x40 MLOAD PUSH2 0x22C8 SWAP2 SWAP1 PUSH2 0x2CB2 JUMP JUMPDEST PUSH1 0x40 MLOAD DUP1 SWAP2 SUB SWAP1 LOG2 POP POP POP POP POP JUMPDEST JUMP JUMPDEST PUSH0 PUSH1 0x9 PUSH1 0x1 SWAP1 SLOAD SWAP1 PUSH2 0x100 EXP SWAP1 DIV PUSH1 0xFF AND DUP1 ISZERO PUSH2 0x2300 JUMPI POP PUSH1 0x14 DUP1 SLOAD SWAP1 PUSH2 0x100 EXP SWAP1 DIV PUSH1 0xFF AND ISZERO JUMPDEST DUP1 ISZERO PUSH2 0x2359 JUMPI POP PUSH1 0x14 PUSH0 SWAP1 SLOAD SWAP1 PUSH2 0x100 EXP SWAP1 DIV PUSH20 0xFFFFFFFFFFFFFFFFFFFFFFFFFFFFFFFFFFFFFFFF AND PUSH20 0xFFFFFFFFFFFFFFFFFFFFFFFFFFFFFFFFFFFFFFFF AND CALLER PUSH20 0xFFFFFFFFFFFFFFFFFFFFFFFFFFFFFFFFFFFFFFFF AND EQ ISZERO JUMPDEST SWAP1 POP SWAP1 JUMP JUMPDEST PUSH1 0x1 PUSH1 0x14 DUP1 PUSH2 0x100 EXP DUP2 SLOAD DUP2 PUSH1 0xFF MUL NOT AND SWAP1 DUP4 ISZERO ISZERO MUL OR SWAP1 SSTORE POP PUSH0 PUSH1 0xE PUSH0 ADDRESS PUSH20 0xFFFFFFFFFFFFFFFFFFFFFFFFFFFFFFFFFFFFFFFF AND PUSH20 0xFFFFFFFFFFFFFFFFFFFFFFFFFFFFFFFFFFFFFFFF AND DUP2 MSTORE PUSH1 0x20 ADD SWAP1 DUP2 MSTORE PUSH1 0x20 ADD PUSH0 KECCAK256 SLOAD SWAP1 POP PUSH0 DUP2 SUB PUSH2 0x23C6 JUMPI POP PUSH2 0x25CF JUMP JUMPDEST PUSH0 PUSH1 0x2 PUSH8 0xFFFFFFFFFFFFFFFF DUP2 GT ISZERO PUSH2 0x23E2 JUMPI PUSH2 0x23E1 PUSH2 0x3345 JUMP JUMPDEST JUMPDEST PUSH1 0x40 MLOAD SWAP1 DUP1 DUP3 MSTORE DUP1 PUSH1 0x20 MUL PUSH1 0x20 ADD DUP3 ADD PUSH1 0x40 MSTORE DUP1 ISZERO PUSH2 0x2410 JUMPI DUP2 PUSH1 0x20 ADD PUSH1 0x20 DUP3 MUL DUP1 CALLDATASIZE DUP4 CALLDATACOPY DUP1 DUP3 ADD SWAP2 POP POP SWAP1 POP JUMPDEST POP SWAP1 POP ADDRESS DUP2 PUSH0 DUP2 MLOAD DUP2 LT PUSH2 0x2427 JUMPI PUSH2 0x2426 PUSH2 0x315E JUMP JUMPDEST JUMPDEST PUSH1 0x20 MUL PUSH1 0x20 ADD ADD SWAP1 PUSH20 0xFFFFFFFFFFFFFFFFFFFFFFFFFFFFFFFFFFFFFFFF AND SWAP1 DUP2 PUSH20 0xFFFFFFFFFFFFFFFFFFFFFFFFFFFFFFFFFFFFFFFF AND DUP2 MSTORE POP POP PUSH1 0x13 PUSH0 SWAP1 SLOAD SWAP1 PUSH2 0x100 EXP SWAP1 DIV PUSH20 0xFFFFFFFFFFFFFFFFFFFFFFFFFFFFFFFFFFFFFFFF AND PUSH20 0xFFFFFFFFFFFFFFFFFFFFFFFFFFFFFFFFFFFFFFFF AND PUSH4 0xAD5C4648 PUSH1 0x40 MLOAD DUP2 PUSH4 0xFFFFFFFF AND PUSH1 0xE0 SHL DUP2 MSTORE PUSH1 0x4 ADD PUSH1 0x20 PUSH1 0x40 MLOAD DUP1 DUP4 SUB DUP2 DUP7 GAS STATICCALL ISZERO DUP1 ISZERO PUSH2 0x24CB JUMPI RETURNDATASIZE PUSH0 DUP1 RETURNDATACOPY RETURNDATASIZE PUSH0 REVERT JUMPDEST POP POP POP POP PUSH1 0x40 MLOAD RETURNDATASIZE PUSH1 0x1F NOT PUSH1 0x1F DUP3 ADD AND DUP3 ADD DUP1 PUSH1 0x40 MSTORE POP DUP2 ADD SWAP1 PUSH2 0x24EF SWAP2 SWAP1 PUSH2 0x3386 JUMP JUMPDEST DUP2 PUSH1 0x1 DUP2 MLOAD DUP2 LT PUSH2 0x2503 JUMPI PUSH2 0x2502 PUSH2 0x315E JUMP JUMPDEST JUMPDEST PUSH1 0x20 MUL PUSH1 0x20 ADD ADD SWAP1 PUSH20 0xFFFFFFFFFFFFFFFFFFFFFFFFFFFFFFFFFFFFFFFF AND SWAP1 DUP2 PUSH20 0xFFFFFFFFFFFFFFFFFFFFFFFFFFFFFFFFFFFFFFFF AND DUP2 MSTORE POP POP PUSH1 0x13 PUSH0 SWAP1 SLOAD SWAP1 PUSH2 0x100 EXP SWAP1 DIV PUSH20 0xFFFFFFFFFFFFFFFFFFFFFFFFFFFFFFFFFFFFFFFF AND PUSH20 0xFFFFFFFFFFFFFFFFFFFFFFFFFFFFFFFFFFFFFFFF AND PUSH4 0x791AC947 DUP4 PUSH0 DUP5 ADDRESS TIMESTAMP PUSH1 0x40 MLOAD DUP7 PUSH4 0xFFFFFFFF AND PUSH1 0xE0 SHL DUP2 MSTORE PUSH1 0x4 ADD PUSH2 0x259F SWAP6 SWAP5 SWAP4 SWAP3 SWAP2 SWAP1 PUSH2 0x34A1 JUMP JUMPDEST PUSH0 PUSH1 0x40 MLOAD DUP1 DUP4 SUB DUP2 PUSH0 DUP8 DUP1 EXTCODESIZE ISZERO DUP1 ISZERO PUSH2 0x25B6 JUMPI PUSH0 DUP1 REVERT JUMPDEST POP GAS CALL ISZERO DUP1 ISZERO PUSH2 0x25C8 JUMPI RETURNDATASIZE PUSH0 DUP1 RETURNDATACOPY RETURNDATASIZE PUSH0 REVERT JUMPDEST POP POP POP POP POP POP JUMPDEST PUSH0 PUSH1 0x14 DUP1 PUSH2 0x100 EXP DUP2 SLOAD DUP2 PUSH1 0xFF MUL NOT AND SWAP1 DUP4 ISZERO ISZERO MUL OR SWAP1 SSTORE POP JUMP JUMPDEST PUSH0 PUSH1 0x9 PUSH1 0x2 SWAP1 SLOAD SWAP1 PUSH2 0x100 EXP SWAP1 DIV PUSH1 0xFF AND DUP1 ISZERO PUSH2 0x2616 JUMPI POP PUSH1 0x8 SLOAD PUSH1 0xD SLOAD PUSH2 0x2612 SWAP2 SWAP1 PUSH2 0x2F9C JUMP JUMPDEST TIMESTAMP LT ISZERO JUMPDEST SWAP1 POP SWAP1 JUMP JUMPDEST PUSH2 0x2674 DUP3 PUSH2 0x266F DUP4 PUSH1 0xE PUSH0 DUP8 PUSH20 0xFFFFFFFFFFFFFFFFFFFFFFFFFFFFFFFFFFFFFFFF AND PUSH20 0xFFFFFFFFFFFFFFFFFFFFFFFFFFFFFFFFFFFFFFFF AND DUP2 MSTORE PUSH1 0x20 ADD SWAP1 DUP2 MSTORE PUSH1 0x20 ADD PUSH0 KECCAK256 SLOAD PUSH2 0x1DE8 SWAP1 SWAP2 SWAP1 PUSH4 0xFFFFFFFF AND JUMP JUMPDEST PUSH2 0x2997 JUMP JUMPDEST POP POP JUMP JUMPDEST PUSH0 DUP3 PUSH20 0xFFFFFFFFFFFFFFFFFFFFFFFFFFFFFFFFFFFFFFFF AND PUSH1 0x14 PUSH0 SWAP1 SLOAD SWAP1 PUSH2 0x100 EXP SWAP1 DIV PUSH20 0xFFFFFFFFFFFFFFFFFFFFFFFFFFFFFFFFFFFFFFFF AND PUSH20 0xFFFFFFFFFFFFFFFFFFFFFFFFFFFFFFFFFFFFFFFF AND EQ DUP1 PUSH2 0x2720 JUMPI POP DUP2 PUSH20 0xFFFFFFFFFFFFFFFFFFFFFFFFFFFFFFFFFFFFFFFF AND PUSH1 0x14 PUSH0 SWAP1 SLOAD SWAP1 PUSH2 0x100 EXP SWAP1 DIV PUSH20 0xFFFFFFFFFFFFFFFFFFFFFFFFFFFFFFFFFFFFFFFF AND PUSH20 0xFFFFFFFFFFFFFFFFFFFFFFFFFFFFFFFFFFFFFFFF AND EQ JUMPDEST DUP1 ISZERO PUSH2 0x2773 JUMPI POP PUSH1 0x10 PUSH0 DUP5 PUSH20 0xFFFFFFFFFFFFFFFFFFFFFFFFFFFFFFFFFFFFFFFF AND PUSH20 0xFFFFFFFFFFFFFFFFFFFFFFFFFFFFFFFFFFFFFFFF AND DUP2 MSTORE PUSH1 0x20 ADD SWAP1 DUP2 MSTORE PUSH1 0x20 ADD PUSH0 KECCAK256 PUSH0 SWAP1 SLOAD SWAP1 PUSH2 0x100 EXP SWAP1 DIV PUSH1 0xFF AND ISZERO JUMPDEST SWAP1 POP SWAP3 SWAP2 POP POP JUMP JUMPDEST PUSH0 DUP1 PUSH2 0x27A5 PUSH1 0x7 SLOAD PUSH2 0x2797 PUSH1 0x64 DUP7 PUSH2 0x2935 SWAP1 SWAP2 SWAP1 PUSH4 0xFFFFFFFF AND JUMP JUMPDEST PUSH2 0x2920 SWAP1 SWAP2 SWAP1 PUSH4 0xFFFFFFFF AND JUMP JUMPDEST SWAP1 POP PUSH2 0x27B1 ADDRESS DUP3 PUSH2 0x2832 JUMP JUMPDEST ADDRESS PUSH20 0xFFFFFFFFFFFFFFFFFFFFFFFFFFFFFFFFFFFFFFFF AND DUP5 PUSH20 0xFFFFFFFFFFFFFFFFFFFFFFFFFFFFFFFFFFFFFFFF AND PUSH32 0xDDF252AD1BE2C89B69C2B068FC378DAA952BA7F163C4A11628F55A4DF523B3EF DUP4 PUSH1 0x40 MLOAD PUSH2 0x280E SWAP2 SWAP1 PUSH2 0x2CB2 JUMP JUMPDEST PUSH1 0x40 MLOAD DUP1 SWAP2 SUB SWAP1 LOG3 PUSH2 0x2829 DUP2 DUP5 PUSH2 0x1DE8 SWAP1 SWAP2 SWAP1 PUSH4 0xFFFFFFFF AND JUMP JUMPDEST SWAP2 POP POP SWAP3 SWAP2 POP POP JUMP JUMPDEST PUSH2 0x288B DUP3 PUSH2 0x2886 DUP4 PUSH1 0xE PUSH0 DUP8 PUSH20 0xFFFFFFFFFFFFFFFFFFFFFFFFFFFFFFFFFFFFFFFF AND PUSH20 0xFFFFFFFFFFFFFFFFFFFFFFFFFFFFFFFFFFFFFFFF AND DUP2 MSTORE PUSH1 0x20 ADD SWAP1 DUP2 MSTORE PUSH1 0x20 ADD PUSH0 KECCAK256 SLOAD PUSH2 0x1DD3 SWAP1 SWAP2 SWAP1 PUSH4 0xFFFFFFFF AND JUMP JUMPDEST PUSH2 0x2997 JUMP JUMPDEST POP POP JUMP JUMPDEST PUSH0 ADDRESS PUSH20 0xFFFFFFFFFFFFFFFFFFFFFFFFFFFFFFFFFFFFFFFF AND DUP3 PUSH20 0xFFFFFFFFFFFFFFFFFFFFFFFFFFFFFFFFFFFFFFFF AND EQ ISZERO DUP1 ISZERO PUSH2 0x2919 JUMPI POP PUSH1 0x14 PUSH0 SWAP1 SLOAD SWAP1 PUSH2 0x100 EXP SWAP1 DIV PUSH20 0xFFFFFFFFFFFFFFFFFFFFFFFFFFFFFFFFFFFFFFFF AND PUSH20 0xFFFFFFFFFFFFFFFFFFFFFFFFFFFFFFFFFFFFFFFF AND DUP3 PUSH20 0xFFFFFFFFFFFFFFFFFFFFFFFFFFFFFFFFFFFFFFFF AND EQ ISZERO JUMPDEST SWAP1 POP SWAP2 SWAP1 POP JUMP JUMPDEST PUSH0 DUP2 DUP4 PUSH2 0x292D SWAP2 SWAP1 PUSH2 0x3304 JUMP JUMPDEST SWAP1 POP SWAP3 SWAP2 POP POP JUMP JUMPDEST PUSH0 DUP2 DUP4 PUSH2 0x2942 SWAP2 SWAP1 PUSH2 0x3526 JUMP JUMPDEST SWAP1 POP SWAP3 SWAP2 POP POP JUMP JUMPDEST PUSH0 DUP3 PUSH20 0xFFFFFFFFFFFFFFFFFFFFFFFFFFFFFFFFFFFFFFFF AND PUSH2 0x8FC DUP4 SWAP1 DUP2 ISZERO MUL SWAP1 PUSH1 0x40 MLOAD PUSH0 PUSH1 0x40 MLOAD DUP1 DUP4 SUB DUP2 DUP6 DUP9 DUP9 CALL SWAP4 POP POP POP POP ISZERO PUSH2 0x298D JUMPI PUSH1 0x1 SWAP1 POP PUSH2 0x2991 JUMP JUMPDEST PUSH0 SWAP1 POP JUMPDEST SWAP3 SWAP2 POP POP JUMP JUMPDEST PUSH2 0x29A0 DUP3 PUSH2 0x288F JUMP JUMPDEST ISZERO PUSH2 0x2AB1 JUMPI PUSH1 0x1 ISZERO ISZERO PUSH1 0xF PUSH0 DUP5 PUSH20 0xFFFFFFFFFFFFFFFFFFFFFFFFFFFFFFFFFFFFFFFF AND PUSH20 0xFFFFFFFFFFFFFFFFFFFFFFFFFFFFFFFFFFFFFFFF AND DUP2 MSTORE PUSH1 0x20 ADD SWAP1 DUP2 MSTORE PUSH1 0x20 ADD PUSH0 KECCAK256 PUSH0 SWAP1 SLOAD SWAP1 PUSH2 0x100 EXP SWAP1 DIV PUSH1 0xFF AND ISZERO ISZERO EQ PUSH2 0x2AB0 JUMPI PUSH1 0x12 DUP3 SWAP1 DUP1 PUSH1 0x1 DUP2 SLOAD ADD DUP1 DUP3 SSTORE DUP1 SWAP2 POP POP PUSH1 0x1 SWAP1 SUB SWAP1 PUSH0 MSTORE PUSH1 0x20 PUSH0 KECCAK256 ADD PUSH0 SWAP1 SWAP2 SWAP1 SWAP2 SWAP1 SWAP2 PUSH2 0x100 EXP DUP2 SLOAD DUP2 PUSH20 0xFFFFFFFFFFFFFFFFFFFFFFFFFFFFFFFFFFFFFFFF MUL NOT AND SWAP1 DUP4 PUSH20 0xFFFFFFFFFFFFFFFFFFFFFFFFFFFFFFFFFFFFFFFF AND MUL OR SWAP1 SSTORE POP PUSH1 0x1 PUSH1 0xF PUSH0 DUP5 PUSH20 0xFFFFFFFFFFFFFFFFFFFFFFFFFFFFFFFFFFFFFFFF AND PUSH20 0xFFFFFFFFFFFFFFFFFFFFFFFFFFFFFFFFFFFFFFFF AND DUP2 MSTORE PUSH1 0x20 ADD SWAP1 DUP2 MSTORE PUSH1 0x20 ADD PUSH0 KECCAK256 PUSH0 PUSH2 0x100 EXP DUP2 SLOAD DUP2 PUSH1 0xFF MUL NOT AND SWAP1 DUP4 ISZERO ISZERO MUL OR SWAP1 SSTORE POP JUMPDEST JUMPDEST DUP1 PUSH1 0xE PUSH0 DUP5 PUSH20 0xFFFFFFFFFFFFFFFFFFFFFFFFFFFFFFFFFFFFFFFF AND PUSH20 0xFFFFFFFFFFFFFFFFFFFFFFFFFFFFFFFFFFFFFFFF AND DUP2 MSTORE PUSH1 0x20 ADD SWAP1 DUP2 MSTORE PUSH1 0x20 ADD PUSH0 KECCAK256 DUP2 SWAP1 SSTORE POP POP POP JUMP JUMPDEST PUSH0 DUP2 MLOAD SWAP1 POP SWAP2 SWAP1 POP JUMP JUMPDEST PUSH0 DUP3 DUP3 MSTORE PUSH1 0x20 DUP3 ADD SWAP1 POP SWAP3 SWAP2 POP POP JUMP JUMPDEST PUSH0 JUMPDEST DUP4 DUP2 LT ISZERO PUSH2 0x2B2E JUMPI DUP1 DUP3 ADD MLOAD DUP2 DUP5 ADD MSTORE PUSH1 0x20 DUP2 ADD SWAP1 POP PUSH2 0x2B13 JUMP JUMPDEST PUSH0 DUP5 DUP5 ADD MSTORE POP POP POP POP JUMP JUMPDEST PUSH0 PUSH1 0x1F NOT PUSH1 0x1F DUP4 ADD AND SWAP1 POP SWAP2 SWAP1 POP JUMP JUMPDEST PUSH0 PUSH2 0x2B53 DUP3 PUSH2 0x2AF7 JUMP JUMPDEST PUSH2 0x2B5D DUP2 DUP6 PUSH2 0x2B01 JUMP JUMPDEST SWAP4 POP PUSH2 0x2B6D DUP2 DUP6 PUSH1 0x20 DUP7 ADD PUSH2 0x2B11 JUMP JUMPDEST PUSH2 0x2B76 DUP2 PUSH2 0x2B39 JUMP JUMPDEST DUP5 ADD SWAP2 POP POP SWAP3 SWAP2 POP POP JUMP JUMPDEST PUSH0 PUSH1 0x20 DUP3 ADD SWAP1 POP DUP2 DUP2 SUB PUSH0 DUP4 ADD MSTORE PUSH2 0x2B99 DUP2 DUP5 PUSH2 0x2B49 JUMP JUMPDEST SWAP1 POP SWAP3 SWAP2 POP POP JUMP JUMPDEST PUSH0 DUP1 REVERT JUMPDEST PUSH0 PUSH20 0xFFFFFFFFFFFFFFFFFFFFFFFFFFFFFFFFFFFFFFFF DUP3 AND SWAP1 POP SWAP2 SWAP1 POP JUMP JUMPDEST PUSH0 PUSH2 0x2BCE DUP3 PUSH2 0x2BA5 JUMP JUMPDEST SWAP1 POP SWAP2 SWAP1 POP JUMP JUMPDEST PUSH2 0x2BDE DUP2 PUSH2 0x2BC4 JUMP JUMPDEST DUP2 EQ PUSH2 0x2BE8 JUMPI PUSH0 DUP1 REVERT JUMPDEST POP JUMP JUMPDEST PUSH0 DUP2 CALLDATALOAD SWAP1 POP PUSH2 0x2BF9 DUP2 PUSH2 0x2BD5 JUMP JUMPDEST SWAP3 SWAP2 POP POP JUMP JUMPDEST PUSH0 DUP2 SWAP1 POP SWAP2 SWAP1 POP JUMP JUMPDEST PUSH2 0x2C11 DUP2 PUSH2 0x2BFF JUMP JUMPDEST DUP2 EQ PUSH2 0x2C1B JUMPI PUSH0 DUP1 REVERT JUMPDEST POP JUMP JUMPDEST PUSH0 DUP2 CALLDATALOAD SWAP1 POP PUSH2 0x2C2C DUP2 PUSH2 0x2C08 JUMP JUMPDEST SWAP3 SWAP2 POP POP JUMP JUMPDEST PUSH0 DUP1 PUSH1 0x40 DUP4 DUP6 SUB SLT ISZERO PUSH2 0x2C48 JUMPI PUSH2 0x2C47 PUSH2 0x2BA1 JUMP JUMPDEST JUMPDEST PUSH0 PUSH2 0x2C55 DUP6 DUP3 DUP7 ADD PUSH2 0x2BEB JUMP JUMPDEST SWAP3 POP POP PUSH1 0x20 PUSH2 0x2C66 DUP6 DUP3 DUP7 ADD PUSH2 0x2C1E JUMP JUMPDEST SWAP2 POP POP SWAP3 POP SWAP3 SWAP1 POP JUMP JUMPDEST PUSH0 DUP2 ISZERO ISZERO SWAP1 POP SWAP2 SWAP1 POP JUMP JUMPDEST PUSH2 0x2C84 DUP2 PUSH2 0x2C70 JUMP JUMPDEST DUP3 MSTORE POP POP JUMP JUMPDEST PUSH0 PUSH1 0x20 DUP3 ADD SWAP1 POP PUSH2 0x2C9D PUSH0 DUP4 ADD DUP5 PUSH2 0x2C7B JUMP JUMPDEST SWAP3 SWAP2 POP POP JUMP JUMPDEST PUSH2 0x2CAC DUP2 PUSH2 0x2BFF JUMP JUMPDEST DUP3 MSTORE POP POP JUMP JUMPDEST PUSH0 PUSH1 0x20 DUP3 ADD SWAP1 POP PUSH2 0x2CC5 PUSH0 DUP4 ADD DUP5 PUSH2 0x2CA3 JUMP JUMPDEST SWAP3 SWAP2 POP POP JUMP JUMPDEST PUSH0 DUP1 PUSH0 PUSH1 0x60 DUP5 DUP7 SUB SLT ISZERO PUSH2 0x2CE2 JUMPI PUSH2 0x2CE1 PUSH2 0x2BA1 JUMP JUMPDEST JUMPDEST PUSH0 PUSH2 0x2CEF DUP7 DUP3 DUP8 ADD PUSH2 0x2BEB JUMP JUMPDEST SWAP4 POP POP PUSH1 0x20 PUSH2 0x2D00 DUP7 DUP3 DUP8 ADD PUSH2 0x2BEB JUMP JUMPDEST SWAP3 POP POP PUSH1 0x40 PUSH2 0x2D11 DUP7 DUP3 DUP8 ADD PUSH2 0x2C1E JUMP JUMPDEST SWAP2 POP POP SWAP3 POP SWAP3 POP SWAP3 JUMP JUMPDEST PUSH0 PUSH1 0x20 DUP3 DUP5 SUB SLT ISZERO PUSH2 0x2D30 JUMPI PUSH2 0x2D2F PUSH2 0x2BA1 JUMP JUMPDEST JUMPDEST PUSH0 PUSH2 0x2D3D DUP5 DUP3 DUP6 ADD PUSH2 0x2C1E JUMP JUMPDEST SWAP2 POP POP SWAP3 SWAP2 POP POP JUMP JUMPDEST PUSH0 PUSH1 0x20 DUP3 DUP5 SUB SLT ISZERO PUSH2 0x2D5B JUMPI PUSH2 0x2D5A PUSH2 0x2BA1 JUMP JUMPDEST JUMPDEST PUSH0 PUSH2 0x2D68 DUP5 DUP3 DUP6 ADD PUSH2 0x2BEB JUMP JUMPDEST SWAP2 POP POP SWAP3 SWAP2 POP POP JUMP JUMPDEST PUSH0 PUSH1 0xFF DUP3 AND SWAP1 POP SWAP2 SWAP1 POP JUMP JUMPDEST PUSH2 0x2D86 DUP2 PUSH2 0x2D71 JUMP JUMPDEST DUP3 MSTORE POP POP JUMP JUMPDEST PUSH0 PUSH1 0x20 DUP3 ADD SWAP1 POP PUSH2 0x2D9F PUSH0 DUP4 ADD DUP5 PUSH2 0x2D7D JUMP JUMPDEST SWAP3 SWAP2 POP POP JUMP JUMPDEST PUSH2 0x2DAE DUP2 PUSH2 0x2C70 JUMP JUMPDEST DUP2 EQ PUSH2 0x2DB8 JUMPI PUSH0 DUP1 REVERT JUMPDEST POP JUMP JUMPDEST PUSH0 DUP2 CALLDATALOAD SWAP1 POP PUSH2 0x2DC9 DUP2 PUSH2 0x2DA5 JUMP JUMPDEST SWAP3 SWAP2 POP POP JUMP JUMPDEST PUSH0 DUP1 PUSH1 0x40 DUP4 DUP6 SUB SLT ISZERO PUSH2 0x2DE5 JUMPI PUSH2 0x2DE4 PUSH2 0x2BA1 JUMP JUMPDEST JUMPDEST PUSH0 PUSH2 0x2DF2 DUP6 DUP3 DUP7 ADD PUSH2 0x2BEB JUMP JUMPDEST SWAP3 POP POP PUSH1 0x20 PUSH2 0x2E03 DUP6 DUP3 DUP7 ADD PUSH2 0x2DBB JUMP JUMPDEST SWAP2 POP POP SWAP3 POP SWAP3 SWAP1 POP JUMP JUMPDEST PUSH0 PUSH1 0x20 DUP3 DUP5 SUB SLT ISZERO PUSH2 0x2E22 JUMPI PUSH2 0x2E21 PUSH2 0x2BA1 JUMP JUMPDEST JUMPDEST PUSH0 PUSH2 0x2E2F DUP5 DUP3 DUP6 ADD PUSH2 0x2DBB JUMP JUMPDEST SWAP2 POP POP SWAP3 SWAP2 POP POP JUMP JUMPDEST PUSH2 0x2E41 DUP2 PUSH2 0x2BC4 JUMP JUMPDEST DUP3 MSTORE POP POP JUMP JUMPDEST PUSH0 PUSH1 0x20 DUP3 ADD SWAP1 POP PUSH2 0x2E5A PUSH0 DUP4 ADD DUP5 PUSH2 0x2E38 JUMP JUMPDEST SWAP3 SWAP2 POP POP JUMP JUMPDEST PUSH0 DUP2 SWAP1 POP SWAP2 SWAP1 POP JUMP JUMPDEST PUSH0 PUSH2 0x2E83 PUSH2 0x2E7E PUSH2 0x2E79 DUP5 PUSH2 0x2BA5 JUMP JUMPDEST PUSH2 0x2E60 JUMP JUMPDEST PUSH2 0x2BA5 JUMP JUMPDEST SWAP1 POP SWAP2 SWAP1 POP JUMP JUMPDEST PUSH0 PUSH2 0x2E94 DUP3 PUSH2 0x2E69 JUMP JUMPDEST SWAP1 POP SWAP2 SWAP1 POP JUMP JUMPDEST PUSH0 PUSH2 0x2EA5 DUP3 PUSH2 0x2E8A JUMP JUMPDEST SWAP1 POP SWAP2 SWAP1 POP JUMP JUMPDEST PUSH2 0x2EB5 DUP2 PUSH2 0x2E9B JUMP JUMPDEST DUP3 MSTORE POP POP JUMP JUMPDEST PUSH0 PUSH1 0x20 DUP3 ADD SWAP1 POP PUSH2 0x2ECE PUSH0 DUP4 ADD DUP5 PUSH2 0x2EAC JUMP JUMPDEST SWAP3 SWAP2 POP POP JUMP JUMPDEST PUSH0 DUP1 PUSH1 0x40 DUP4 DUP6 SUB SLT ISZERO PUSH2 0x2EEA JUMPI PUSH2 0x2EE9 PUSH2 0x2BA1 JUMP JUMPDEST JUMPDEST PUSH0 PUSH2 0x2EF7 DUP6 DUP3 DUP7 ADD PUSH2 0x2BEB JUMP JUMPDEST SWAP3 POP POP PUSH1 0x20 PUSH2 0x2F08 DUP6 DUP3 DUP7 ADD PUSH2 0x2BEB JUMP JUMPDEST SWAP2 POP POP SWAP3 POP SWAP3 SWAP1 POP JUMP JUMPDEST PUSH32 0x4E487B7100000000000000000000000000000000000000000000000000000000 PUSH0 MSTORE PUSH1 0x22 PUSH1 0x4 MSTORE PUSH1 0x24 PUSH0 REVERT JUMPDEST PUSH0 PUSH1 0x2 DUP3 DIV SWAP1 POP PUSH1 0x1 DUP3 AND DUP1 PUSH2 0x2F56 JUMPI PUSH1 0x7F DUP3 AND SWAP2 POP JUMPDEST PUSH1 0x20 DUP3 LT DUP2 SUB PUSH2 0x2F69 JUMPI PUSH2 0x2F68 PUSH2 0x2F12 JUMP JUMPDEST JUMPDEST POP SWAP2 SWAP1 POP JUMP JUMPDEST PUSH32 0x4E487B7100000000000000000000000000000000000000000000000000000000 PUSH0 MSTORE PUSH1 0x11 PUSH1 0x4 MSTORE PUSH1 0x24 PUSH0 REVERT JUMPDEST PUSH0 PUSH2 0x2FA6 DUP3 PUSH2 0x2BFF JUMP JUMPDEST SWAP2 POP PUSH2 0x2FB1 DUP4 PUSH2 0x2BFF JUMP JUMPDEST SWAP3 POP DUP3 DUP3 ADD SWAP1 POP DUP1 DUP3 GT ISZERO PUSH2 0x2FC9 JUMPI PUSH2 0x2FC8 PUSH2 0x2F6F JUMP JUMPDEST JUMPDEST SWAP3 SWAP2 POP POP JUMP JUMPDEST PUSH0 PUSH1 0x40 DUP3 ADD SWAP1 POP PUSH2 0x2FE2 PUSH0 DUP4 ADD DUP6 PUSH2 0x2E38 JUMP JUMPDEST PUSH2 0x2FEF PUSH1 0x20 DUP4 ADD DUP5 PUSH2 0x2E38 JUMP JUMPDEST SWAP4 SWAP3 POP POP POP JUMP JUMPDEST PUSH0 DUP2 MLOAD SWAP1 POP PUSH2 0x3004 DUP2 PUSH2 0x2C08 JUMP JUMPDEST SWAP3 SWAP2 POP POP JUMP JUMPDEST PUSH0 PUSH1 0x20 DUP3 DUP5 SUB SLT ISZERO PUSH2 0x301F JUMPI PUSH2 0x301E PUSH2 0x2BA1 JUMP JUMPDEST JUMPDEST PUSH0 PUSH2 0x302C DUP5 DUP3 DUP6 ADD PUSH2 0x2FF6 JUMP JUMPDEST SWAP2 POP POP SWAP3 SWAP2 POP POP JUMP JUMPDEST PUSH32 0x6F6E6C7920636F6E747261637420616464726573732C206E6F7420616C6C6F77 PUSH0 DUP3 ADD MSTORE PUSH32 0x6564206578746572616E6C6C79206F776E6564206163636F756E740000000000 PUSH1 0x20 DUP3 ADD MSTORE POP JUMP JUMPDEST PUSH0 PUSH2 0x308F PUSH1 0x3B DUP4 PUSH2 0x2B01 JUMP JUMPDEST SWAP2 POP PUSH2 0x309A DUP3 PUSH2 0x3035 JUMP JUMPDEST PUSH1 0x40 DUP3 ADD SWAP1 POP SWAP2 SWAP1 POP JUMP JUMPDEST PUSH0 PUSH1 0x20 DUP3 ADD SWAP1 POP DUP2 DUP2 SUB PUSH0 DUP4 ADD MSTORE PUSH2 0x30BC DUP2 PUSH2 0x3083 JUMP JUMPDEST SWAP1 POP SWAP2 SWAP1 POP JUMP JUMPDEST PUSH32 0x696E5F626C61636B6C6973740000000000000000000000000000000000000000 PUSH0 DUP3 ADD MSTORE POP JUMP JUMPDEST PUSH0 PUSH2 0x30F7 PUSH1 0xC DUP4 PUSH2 0x2B01 JUMP JUMPDEST SWAP2 POP PUSH2 0x3102 DUP3 PUSH2 0x30C3 JUMP JUMPDEST PUSH1 0x20 DUP3 ADD SWAP1 POP SWAP2 SWAP1 POP JUMP JUMPDEST PUSH0 PUSH1 0x20 DUP3 ADD SWAP1 POP DUP2 DUP2 SUB PUSH0 DUP4 ADD MSTORE PUSH2 0x3124 DUP2 PUSH2 0x30EB JUMP JUMPDEST SWAP1 POP SWAP2 SWAP1 POP JUMP JUMPDEST PUSH0 PUSH2 0x3135 DUP3 PUSH2 0x2BFF JUMP JUMPDEST SWAP2 POP PUSH2 0x3140 DUP4 PUSH2 0x2BFF JUMP JUMPDEST SWAP3 POP DUP3 DUP3 SUB SWAP1 POP DUP2 DUP2 GT ISZERO PUSH2 0x3158 JUMPI PUSH2 0x3157 PUSH2 0x2F6F JUMP JUMPDEST JUMPDEST SWAP3 SWAP2 POP POP JUMP JUMPDEST PUSH32 0x4E487B7100000000000000000000000000000000000000000000000000000000 PUSH0 MSTORE PUSH1 0x32 PUSH1 0x4 MSTORE PUSH1 0x24 PUSH0 REVERT JUMPDEST PUSH0 DUP2 PUSH1 0x1 SHR SWAP1 POP SWAP2 SWAP1 POP JUMP JUMPDEST PUSH0 DUP1 DUP3 SWAP2 POP DUP4 SWAP1 POP JUMPDEST PUSH1 0x1 DUP6 GT ISZERO PUSH2 0x31E0 JUMPI DUP1 DUP7 DIV DUP2 GT ISZERO PUSH2 0x31BC JUMPI PUSH2 0x31BB PUSH2 0x2F6F JUMP JUMPDEST JUMPDEST PUSH1 0x1 DUP6 AND ISZERO PUSH2 0x31CB JUMPI DUP1 DUP3 MUL SWAP2 POP JUMPDEST DUP1 DUP2 MUL SWAP1 POP PUSH2 0x31D9 DUP6 PUSH2 0x318B JUMP JUMPDEST SWAP5 POP PUSH2 0x31A0 JUMP JUMPDEST SWAP5 POP SWAP5 SWAP3 POP POP POP JUMP JUMPDEST PUSH0 DUP3 PUSH2 0x31F8 JUMPI PUSH1 0x1 SWAP1 POP PUSH2 0x32B3 JUMP JUMPDEST DUP2 PUSH2 0x3205 JUMPI PUSH0 SWAP1 POP PUSH2 0x32B3 JUMP JUMPDEST DUP2 PUSH1 0x1 DUP2 EQ PUSH2 0x321B JUMPI PUSH1 0x2 DUP2 EQ PUSH2 0x3225 JUMPI PUSH2 0x3254 JUMP JUMPDEST PUSH1 0x1 SWAP2 POP POP PUSH2 0x32B3 JUMP JUMPDEST PUSH1 0xFF DUP5 GT ISZERO PUSH2 0x3237 JUMPI PUSH2 0x3236 PUSH2 0x2F6F JUMP JUMPDEST JUMPDEST DUP4 PUSH1 0x2 EXP SWAP2 POP DUP5 DUP3 GT ISZERO PUSH2 0x324E JUMPI PUSH2 0x324D PUSH2 0x2F6F JUMP JUMPDEST JUMPDEST POP PUSH2 0x32B3 JUMP JUMPDEST POP PUSH1 0x20 DUP4 LT PUSH2 0x133 DUP4 LT AND PUSH1 0x4E DUP5 LT PUSH1 0xB DUP5 LT AND OR ISZERO PUSH2 0x3289 JUMPI DUP3 DUP3 EXP SWAP1 POP DUP4 DUP2 GT ISZERO PUSH2 0x3284 JUMPI PUSH2 0x3283 PUSH2 0x2F6F JUMP JUMPDEST JUMPDEST PUSH2 0x32B3 JUMP JUMPDEST PUSH2 0x3296 DUP5 DUP5 DUP5 PUSH1 0x1 PUSH2 0x3197 JUMP JUMPDEST SWAP3 POP SWAP1 POP DUP2 DUP5 DIV DUP2 GT ISZERO PUSH2 0x32AD JUMPI PUSH2 0x32AC PUSH2 0x2F6F JUMP JUMPDEST JUMPDEST DUP2 DUP2 MUL SWAP1 POP JUMPDEST SWAP4 SWAP3 POP POP POP JUMP JUMPDEST PUSH0 PUSH2 0x32C4 DUP3 PUSH2 0x2BFF JUMP JUMPDEST SWAP2 POP PUSH2 0x32CF DUP4 PUSH2 0x2D71 JUMP JUMPDEST SWAP3 POP PUSH2 0x32FC PUSH32 0xFFFFFFFFFFFFFFFFFFFFFFFFFFFFFFFFFFFFFFFFFFFFFFFFFFFFFFFFFFFFFFFF DUP5 DUP5 PUSH2 0x31E9 JUMP JUMPDEST SWAP1 POP SWAP3 SWAP2 POP POP JUMP JUMPDEST PUSH0 PUSH2 0x330E DUP3 PUSH2 0x2BFF JUMP JUMPDEST SWAP2 POP PUSH2 0x3319 DUP4 PUSH2 0x2BFF JUMP JUMPDEST SWAP3 POP DUP3 DUP3 MUL PUSH2 0x3327 DUP2 PUSH2 0x2BFF JUMP JUMPDEST SWAP2 POP DUP3 DUP3 DIV DUP5 EQ DUP4 ISZERO OR PUSH2 0x333E JUMPI PUSH2 0x333D PUSH2 0x2F6F JUMP JUMPDEST JUMPDEST POP SWAP3 SWAP2 POP POP JUMP JUMPDEST PUSH32 0x4E487B7100000000000000000000000000000000000000000000000000000000 PUSH0 MSTORE PUSH1 0x41 PUSH1 0x4 MSTORE PUSH1 0x24 PUSH0 REVERT JUMPDEST PUSH0 DUP2 MLOAD SWAP1 POP PUSH2 0x3380 DUP2 PUSH2 0x2BD5 JUMP JUMPDEST SWAP3 SWAP2 POP POP JUMP JUMPDEST PUSH0 PUSH1 0x20 DUP3 DUP5 SUB SLT ISZERO PUSH2 0x339B JUMPI PUSH2 0x339A PUSH2 0x2BA1 JUMP JUMPDEST JUMPDEST PUSH0 PUSH2 0x33A8 DUP5 DUP3 DUP6 ADD PUSH2 0x3372 JUMP JUMPDEST SWAP2 POP POP SWAP3 SWAP2 POP POP JUMP JUMPDEST PUSH0 DUP2 SWAP1 POP SWAP2 SWAP1 POP JUMP JUMPDEST PUSH0 PUSH2 0x33D4 PUSH2 0x33CF PUSH2 0x33CA DUP5 PUSH2 0x33B1 JUMP JUMPDEST PUSH2 0x2E60 JUMP JUMPDEST PUSH2 0x2BFF JUMP JUMPDEST SWAP1 POP SWAP2 SWAP1 POP JUMP JUMPDEST PUSH2 0x33E4 DUP2 PUSH2 0x33BA JUMP JUMPDEST DUP3 MSTORE POP POP JUMP JUMPDEST PUSH0 DUP2 MLOAD SWAP1 POP SWAP2 SWAP1 POP JUMP JUMPDEST PUSH0 DUP3 DUP3 MSTORE PUSH1 0x20 DUP3 ADD SWAP1 POP SWAP3 SWAP2 POP POP JUMP JUMPDEST PUSH0 DUP2 SWAP1 POP PUSH1 0x20 DUP3 ADD SWAP1 POP SWAP2 SWAP1 POP JUMP JUMPDEST PUSH2 0x341C DUP2 PUSH2 0x2BC4 JUMP JUMPDEST DUP3 MSTORE POP POP JUMP JUMPDEST PUSH0 PUSH2 0x342D DUP4 DUP4 PUSH2 0x3413 JUMP JUMPDEST PUSH1 0x20 DUP4 ADD SWAP1 POP SWAP3 SWAP2 POP POP JUMP JUMPDEST PUSH0 PUSH1 0x20 DUP3 ADD SWAP1 POP SWAP2 SWAP1 POP JUMP JUMPDEST PUSH0 PUSH2 0x344F DUP3 PUSH2 0x33EA JUMP JUMPDEST PUSH2 0x3459 DUP2 DUP6 PUSH2 0x33F4 JUMP JUMPDEST SWAP4 POP PUSH2 0x3464 DUP4 PUSH2 0x3404 JUMP JUMPDEST DUP1 PUSH0 JUMPDEST DUP4 DUP2 LT ISZERO PUSH2 0x3494 JUMPI DUP2 MLOAD PUSH2 0x347B DUP9 DUP3 PUSH2 0x3422 JUMP JUMPDEST SWAP8 POP PUSH2 0x3486 DUP4 PUSH2 0x3439 JUMP JUMPDEST SWAP3 POP POP PUSH1 0x1 DUP2 ADD SWAP1 POP PUSH2 0x3467 JUMP JUMPDEST POP DUP6 SWAP4 POP POP POP POP SWAP3 SWAP2 POP POP JUMP JUMPDEST PUSH0 PUSH1 0xA0 DUP3 ADD SWAP1 POP PUSH2 0x34B4 PUSH0 DUP4 ADD DUP9 PUSH2 0x2CA3 JUMP JUMPDEST PUSH2 0x34C1 PUSH1 0x20 DUP4 ADD DUP8 PUSH2 0x33DB JUMP JUMPDEST DUP2 DUP2 SUB PUSH1 0x40 DUP4 ADD MSTORE PUSH2 0x34D3 DUP2 DUP7 PUSH2 0x3445 JUMP JUMPDEST SWAP1 POP PUSH2 0x34E2 PUSH1 0x60 DUP4 ADD DUP6 PUSH2 0x2E38 JUMP JUMPDEST PUSH2 0x34EF PUSH1 0x80 DUP4 ADD DUP5 PUSH2 0x2CA3 JUMP JUMPDEST SWAP7 SWAP6 POP POP POP POP POP POP JUMP JUMPDEST PUSH32 0x4E487B7100000000000000000000000000000000000000000000000000000000 PUSH0 MSTORE PUSH1 0x12 PUSH1 0x4 MSTORE PUSH1 0x24 PUSH0 REVERT JUMPDEST PUSH0 PUSH2 0x3530 DUP3 PUSH2 0x2BFF JUMP JUMPDEST SWAP2 POP PUSH2 0x353B DUP4 PUSH2 0x2BFF JUMP JUMPDEST SWAP3 POP DUP3 PUSH2 0x354B JUMPI PUSH2 0x354A PUSH2 0x34F9 JUMP JUMPDEST JUMPDEST DUP3 DUP3 DIV SWAP1 POP SWAP3 SWAP2 POP POP JUMP INVALID LOG2 PUSH5 0x6970667358 0x22 SLT KECCAK256 0xB4 SWAP12 DUP16 0x29 PUSH2 0xE4B SWAP12 MSTORE8 PUSH23 0x34F044127FE0255DF4B88B7D2BA2B802C1D4EB00E8FF64 PUSH20 0x6F6C634300081800330000000000000000000000 "
				},
				"gasEstimates": {
					"creation": {
						"codeDepositCost": "2741600",
						"executionCost": "infinite",
						"totalCost": "infinite"
					},
					"external": {
						"BLAST()": "infinite",
						"_autoDistribute()": "2562",
						"_autoRebase()": "2577",
						"_autoSwapBack()": "2606",
						"_blacklist(address)": "2944",
						"_blastClaimInterval()": "2515",
						"_distributionInterval()": "2558",
						"_feePercent()": "2470",
						"_initRebaseStartTime()": "2514",
						"_lastRebasedTime()": "2537",
						"_totalSupply()": "2493",
						"allowance(address,address)": "infinite",
						"approve(address,uint256)": "infinite",
						"balanceOf(address)": "2896",
						"checkFeeExempt(address)": "2914",
						"claimMyGasFees()": "infinite",
						"decimals()": "2563",
						"decreaseAllowance(address,uint256)": "infinite",
						"increaseAllowance(address,uint256)": "infinite",
						"isNotInSwap()": "2570",
						"isOwner()": "2653",
						"manualSync()": "infinite",
						"name()": "infinite",
						"owner()": "2656",
						"pairAddress()": "2560",
						"renounceOwnership()": "30171",
						"setAutoDistribute(bool)": "27143",
						"setAutoRebase(bool)": "49159",
						"setAutoSwapBack(bool)": "27121",
						"setBlastClaimInterval(uint256)": "24879",
						"setBotBlacklist(address,bool)": "30045",
						"setDistributeInterval(uint256)": "24815",
						"setFeePercentage(uint256)": "24858",
						"setLP(address)": "27037",
						"setWhitelist(address)": "27125",
						"setupBlast(address)": "infinite",
						"symbol()": "infinite",
						"totalSupply()": "2523",
						"transfer(address,uint256)": "infinite",
						"transferFrom(address,address,uint256)": "infinite",
						"transferOwnership(address)": "30968"
					},
					"internal": {
						"_basicTransfer(address,address,uint256)": "infinite",
						"_distributeNative(uint256)": "infinite",
						"_rebase()": "infinite",
						"_swapBack()": "infinite",
						"_takeFee(address,uint256)": "infinite",
						"_transferFrom(address,address,uint256)": "infinite",
						"blastFeesClaimed(uint256)": "infinite"
					}
				},
				"methodIdentifiers": {
					"BLAST()": "97d75776",
					"_autoDistribute()": "95fe579c",
					"_autoRebase()": "afb9cf6d",
					"_autoSwapBack()": "70ee7395",
					"_blacklist(address)": "a20623ce",
					"_blastClaimInterval()": "4addc0e8",
					"_distributionInterval()": "c737a49b",
					"_feePercent()": "69222948",
					"_initRebaseStartTime()": "9b87676c",
					"_lastRebasedTime()": "32b75683",
					"_totalSupply()": "3eaaf86b",
					"allowance(address,address)": "dd62ed3e",
					"approve(address,uint256)": "095ea7b3",
					"balanceOf(address)": "70a08231",
					"checkFeeExempt(address)": "d4399790",
					"claimMyGasFees()": "23084e5f",
					"decimals()": "313ce567",
					"decreaseAllowance(address,uint256)": "a457c2d7",
					"increaseAllowance(address,uint256)": "39509351",
					"isNotInSwap()": "83b4ac68",
					"isOwner()": "8f32d59b",
					"manualSync()": "753d02a1",
					"name()": "06fdde03",
					"owner()": "8da5cb5b",
					"pairAddress()": "a8b08982",
					"renounceOwnership()": "715018a6",
					"setAutoDistribute(bool)": "4e14ec4b",
					"setAutoRebase(bool)": "e15beb80",
					"setAutoSwapBack(bool)": "4bc6dd18",
					"setBlastClaimInterval(uint256)": "eaca243b",
					"setBotBlacklist(address,bool)": "37c9be87",
					"setDistributeInterval(uint256)": "2910164a",
					"setFeePercentage(uint256)": "ae06c1b7",
					"setLP(address)": "2f34d282",
					"setWhitelist(address)": "854cff2f",
					"setupBlast(address)": "f2e809e0",
					"symbol()": "95d89b41",
					"totalSupply()": "18160ddd",
					"transfer(address,uint256)": "a9059cbb",
					"transferFrom(address,address,uint256)": "23b872dd",
					"transferOwnership(address)": "f2fde38b"
				}
			},
			"storageLayout": {
				"storage": [
					{
						"astId": 1321,
						"contract": "contracts/BOMB_flattened.sol:BOMB",
						"label": "_name",
						"offset": 0,
						"slot": "0",
						"type": "t_string_storage"
					},
					{
						"astId": 1323,
						"contract": "contracts/BOMB_flattened.sol:BOMB",
						"label": "_symbol",
						"offset": 0,
						"slot": "1",
						"type": "t_string_storage"
					},
					{
						"astId": 1325,
						"contract": "contracts/BOMB_flattened.sol:BOMB",
						"label": "_decimals",
						"offset": 0,
						"slot": "2",
						"type": "t_uint8"
					},
					{
						"astId": 1375,
						"contract": "contracts/BOMB_flattened.sol:BOMB",
						"label": "_owner",
						"offset": 1,
						"slot": "2",
						"type": "t_address"
					},
					{
						"astId": 1495,
						"contract": "contracts/BOMB_flattened.sol:BOMB",
						"label": "BLAST",
						"offset": 0,
						"slot": "3",
						"type": "t_contract(IBlast)1490"
					},
					{
						"astId": 1499,
						"contract": "contracts/BOMB_flattened.sol:BOMB",
						"label": "_lastBlastClaim",
						"offset": 0,
						"slot": "4",
						"type": "t_mapping(t_address,t_uint256)"
					},
					{
						"astId": 1502,
						"contract": "contracts/BOMB_flattened.sol:BOMB",
						"label": "_blastClaimInterval",
						"offset": 0,
						"slot": "5",
						"type": "t_uint256"
					},
					{
						"astId": 1504,
						"contract": "contracts/BOMB_flattened.sol:BOMB",
						"label": "_feesClaimed",
						"offset": 0,
						"slot": "6",
						"type": "t_uint256"
					},
					{
						"astId": 1672,
						"contract": "contracts/BOMB_flattened.sol:BOMB",
						"label": "_feePercent",
						"offset": 0,
						"slot": "7",
						"type": "t_uint256"
					},
					{
						"astId": 1675,
						"contract": "contracts/BOMB_flattened.sol:BOMB",
						"label": "_distributionInterval",
						"offset": 0,
						"slot": "8",
						"type": "t_uint256"
					},
					{
						"astId": 1677,
						"contract": "contracts/BOMB_flattened.sol:BOMB",
						"label": "_autoRebase",
						"offset": 0,
						"slot": "9",
						"type": "t_bool"
					},
					{
						"astId": 1679,
						"contract": "contracts/BOMB_flattened.sol:BOMB",
						"label": "_autoSwapBack",
						"offset": 1,
						"slot": "9",
						"type": "t_bool"
					},
					{
						"astId": 1681,
						"contract": "contracts/BOMB_flattened.sol:BOMB",
						"label": "_autoDistribute",
						"offset": 2,
						"slot": "9",
						"type": "t_bool"
					},
					{
						"astId": 1683,
						"contract": "contracts/BOMB_flattened.sol:BOMB",
						"label": "_initRebaseStartTime",
						"offset": 0,
						"slot": "10",
						"type": "t_uint256"
					},
					{
						"astId": 1685,
						"contract": "contracts/BOMB_flattened.sol:BOMB",
						"label": "_lastRebasedTime",
						"offset": 0,
						"slot": "11",
						"type": "t_uint256"
					},
					{
						"astId": 1687,
						"contract": "contracts/BOMB_flattened.sol:BOMB",
						"label": "_totalSupply",
						"offset": 0,
						"slot": "12",
						"type": "t_uint256"
					},
					{
						"astId": 1689,
						"contract": "contracts/BOMB_flattened.sol:BOMB",
						"label": "_lastDistribution",
						"offset": 0,
						"slot": "13",
						"type": "t_uint256"
					},
					{
						"astId": 1693,
						"contract": "contracts/BOMB_flattened.sol:BOMB",
						"label": "_balances",
						"offset": 0,
						"slot": "14",
						"type": "t_mapping(t_address,t_uint256)"
					},
					{
						"astId": 1697,
						"contract": "contracts/BOMB_flattened.sol:BOMB",
						"label": "_isHolder",
						"offset": 0,
						"slot": "15",
						"type": "t_mapping(t_address,t_bool)"
					},
					{
						"astId": 1701,
						"contract": "contracts/BOMB_flattened.sol:BOMB",
						"label": "_isFeeExempt",
						"offset": 0,
						"slot": "16",
						"type": "t_mapping(t_address,t_bool)"
					},
					{
						"astId": 1705,
						"contract": "contracts/BOMB_flattened.sol:BOMB",
						"label": "_blacklist",
						"offset": 0,
						"slot": "17",
						"type": "t_mapping(t_address,t_bool)"
					},
					{
						"astId": 1708,
						"contract": "contracts/BOMB_flattened.sol:BOMB",
						"label": "_holders",
						"offset": 0,
						"slot": "18",
						"type": "t_array(t_address)dyn_storage"
					},
					{
						"astId": 1711,
						"contract": "contracts/BOMB_flattened.sol:BOMB",
						"label": "_router",
						"offset": 0,
						"slot": "19",
						"type": "t_contract(IPancakeSwapRouter)1161"
					},
					{
						"astId": 1714,
						"contract": "contracts/BOMB_flattened.sol:BOMB",
						"label": "_pair",
						"offset": 0,
						"slot": "20",
						"type": "t_contract(IPancakeSwapPair)773"
					},
					{
						"astId": 1717,
						"contract": "contracts/BOMB_flattened.sol:BOMB",
						"label": "_inSwap",
						"offset": 20,
						"slot": "20",
						"type": "t_bool"
					},
					{
						"astId": 2181,
						"contract": "contracts/BOMB_flattened.sol:BOMB",
						"label": "_allowance",
						"offset": 0,
						"slot": "21",
						"type": "t_mapping(t_address,t_mapping(t_address,t_uint256))"
					}
				],
				"types": {
					"t_address": {
						"encoding": "inplace",
						"label": "address",
						"numberOfBytes": "20"
					},
					"t_array(t_address)dyn_storage": {
						"base": "t_address",
						"encoding": "dynamic_array",
						"label": "address[]",
						"numberOfBytes": "32"
					},
					"t_bool": {
						"encoding": "inplace",
						"label": "bool",
						"numberOfBytes": "1"
					},
					"t_contract(IBlast)1490": {
						"encoding": "inplace",
						"label": "contract IBlast",
						"numberOfBytes": "20"
					},
					"t_contract(IPancakeSwapPair)773": {
						"encoding": "inplace",
						"label": "contract IPancakeSwapPair",
						"numberOfBytes": "20"
					},
					"t_contract(IPancakeSwapRouter)1161": {
						"encoding": "inplace",
						"label": "contract IPancakeSwapRouter",
						"numberOfBytes": "20"
					},
					"t_mapping(t_address,t_bool)": {
						"encoding": "mapping",
						"key": "t_address",
						"label": "mapping(address => bool)",
						"numberOfBytes": "32",
						"value": "t_bool"
					},
					"t_mapping(t_address,t_mapping(t_address,t_uint256))": {
						"encoding": "mapping",
						"key": "t_address",
						"label": "mapping(address => mapping(address => uint256))",
						"numberOfBytes": "32",
						"value": "t_mapping(t_address,t_uint256)"
					},
					"t_mapping(t_address,t_uint256)": {
						"encoding": "mapping",
						"key": "t_address",
						"label": "mapping(address => uint256)",
						"numberOfBytes": "32",
						"value": "t_uint256"
					},
					"t_string_storage": {
						"encoding": "bytes",
						"label": "string",
						"numberOfBytes": "32"
					},
					"t_uint256": {
						"encoding": "inplace",
						"label": "uint256",
						"numberOfBytes": "32"
					},
					"t_uint8": {
						"encoding": "inplace",
						"label": "uint8",
						"numberOfBytes": "1"
					}
				}
			},
			"userdoc": {
				"kind": "user",
				"methods": {},
				"version": 1
			}
		}
	}
}