{
	"data": {
		"bytecode": {
			"linkReferences": {},
			"object": "60806040526201518060055560636007556102586008556001600960036101000a81548160ff0219169083151502179055506001600960046101000a81548160ff0219169083151502179055505f601760146101000a81548160ff02191690831515021790555034801562000072575f80fd5b506040518060400160405280600481526020017f424f4d42000000000000000000000000000000000000000000000000000000008152506040518060400160405280600481526020017f424f4d42000000000000000000000000000000000000000000000000000000008152506005825f9081620000f1919062000502565b50816001908162000103919062000502565b508060025f6101000a81548160ff021916908360ff16021790555050505033600260016101000a81548173ffffffffffffffffffffffffffffffffffffffff021916908373ffffffffffffffffffffffffffffffffffffffff1602179055506005600a6200017291906200076f565b6204f588620001829190620007bf565b600c8190555042600a8190555042600b81905550600160125f3073ffffffffffffffffffffffffffffffffffffffff1673ffffffffffffffffffffffffffffffffffffffff1681526020019081526020015f205f6101000a81548160ff021916908315150217905550600c5460105f3373ffffffffffffffffffffffffffffffffffffffff1673ffffffffffffffffffffffffffffffffffffffff1681526020019081526020015f20819055503373ffffffffffffffffffffffffffffffffffffffff163073ffffffffffffffffffffffffffffffffffffffff167fddf252ad1be2c89b69c2b068fc378daa952ba7f163c4a11628f55a4df523b3ef600c546040516200029091906200081a565b60405180910390a362000835565b5f81519050919050565b7f4e487b71000000000000000000000000000000000000000000000000000000005f52604160045260245ffd5b7f4e487b71000000000000000000000000000000000000000000000000000000005f52602260045260245ffd5b5f60028204905060018216806200031a57607f821691505b60208210810362000330576200032f620002d5565b5b50919050565b5f819050815f5260205f209050919050565b5f6020601f8301049050919050565b5f82821b905092915050565b5f60088302620003947fffffffffffffffffffffffffffffffffffffffffffffffffffffffffffffffff8262000357565b620003a0868362000357565b95508019841693508086168417925050509392505050565b5f819050919050565b5f819050919050565b5f620003ea620003e4620003de84620003b8565b620003c1565b620003b8565b9050919050565b5f819050919050565b6200040583620003ca565b6200041d6200041482620003f1565b84845462000363565b825550505050565b5f90565b6200043362000425565b62000440818484620003fa565b505050565b5b8181101562000467576200045b5f8262000429565b60018101905062000446565b5050565b601f821115620004b657620004808162000336565b6200048b8462000348565b810160208510156200049b578190505b620004b3620004aa8562000348565b83018262000445565b50505b505050565b5f82821c905092915050565b5f620004d85f1984600802620004bb565b1980831691505092915050565b5f620004f28383620004c7565b9150826002028217905092915050565b6200050d826200029e565b67ffffffffffffffff811115620005295762000528620002a8565b5b62000535825462000302565b620005428282856200046b565b5f60209050601f83116001811462000578575f841562000563578287015190505b6200056f8582620004e5565b865550620005de565b601f198416620005888662000336565b5f5b82811015620005b1578489015182556001820191506020850194506020810190506200058a565b86831015620005d15784890151620005cd601f891682620004c7565b8355505b6001600288020188555050505b505050505050565b7f4e487b71000000000000000000000000000000000000000000000000000000005f52601160045260245ffd5b5f8160011c9050919050565b5f808291508390505b60018511156200067057808604811115620006485762000647620005e6565b5b6001851615620006585780820291505b8081029050620006688562000613565b945062000628565b94509492505050565b5f826200068a57600190506200075c565b8162000699575f90506200075c565b8160018114620006b25760028114620006bd57620006f3565b60019150506200075c565b60ff841115620006d257620006d1620005e6565b5b8360020a915084821115620006ec57620006eb620005e6565b5b506200075c565b5060208310610133831016604e8410600b84101617156200072d5782820a905083811115620007275762000726620005e6565b5b6200075c565b6200073c84848460016200061f565b92509050818404811115620007565762000755620005e6565b5b81810290505b9392505050565b5f60ff82169050919050565b5f6200077b82620003b8565b9150620007888362000763565b9250620007b77fffffffffffffffffffffffffffffffffffffffffffffffffffffffffffffffff848462000679565b905092915050565b5f620007cb82620003b8565b9150620007d883620003b8565b9250828202620007e881620003b8565b91508282048414831517620008025762000801620005e6565b5b5092915050565b6200081481620003b8565b82525050565b5f6020820190506200082f5f83018462000809565b92915050565b6144fd80620008435f395ff3fe6080604052600436106102e7575f3560e01c8063778552081161018f578063afb9cf6d116100db578063dd985ba711610094578063edae876f1161006e578063edae876f14610ad0578063f2e809e014610afa578063f2fde38b14610b22578063f7678efc14610b4a576102ee565b8063dd985ba714610a56578063e15beb8014610a80578063eaca243b14610aa8576102ee565b8063afb9cf6d14610938578063b51449bb14610962578063c0d786551461098c578063c737a49b146109b4578063d4399790146109de578063dd62ed3e14610a1a576102ee565b806395d89b41116101485780639b87676c116101225780639b87676c1461085a578063a20623ce14610884578063a457c2d7146108c0578063a9059cbb146108fc576102ee565b806395d89b41146107dc57806395fe579c1461080657806397d7577614610830576102ee565b806377855208146106e45780637c5d525f1461070e57806383b4ac6814610736578063854cff2f146107605780638da5cb5b146107885780638f32d59b146107b2576102ee565b806339f324401161024e5780634e14ec4b1161020757806370a08231116101e157806370a082311461065257806370ee73951461068e578063715018a6146106b8578063753d02a1146106ce576102ee565b80634e14ec4b146105ec57806366eb378514610614578063699abb3c1461062a576102ee565b806339f32440146105065780633eaaf86b1461053057806344aab59a1461055a5780634addc0e8146105845780634bc6dd18146105ae5780634c43e307146105d6576102ee565b80632910164a116102a05780632910164a146103fe5780632f34d28214610426578063313ce5671461044e57806332b756831461047857806337c9be87146104a257806339509351146104ca576102ee565b806306fdde03146102f2578063095ea7b31461031c5780630e5a92311461035857806318160ddd1461038257806323084e5f146103ac57806323b872dd146103c2576102ee565b366102ee57005b5f80fd5b3480156102fd575f80fd5b50610306610b74565b604051610313919061397d565b60405180910390f35b348015610327575f80fd5b50610342600480360381019061033d9190613a2e565b610c03565b60405161034f9190613a86565b60405180910390f35b348015610363575f80fd5b5061036c610cf0565b6040516103799190613aae565b60405180910390f35b34801561038d575f80fd5b50610396610cf6565b6040516103a39190613aae565b60405180910390f35b3480156103b7575f80fd5b506103c0610cff565b005b3480156103cd575f80fd5b506103e860048036038101906103e39190613ac7565b610e71565b6040516103f59190613a86565b60405180910390f35b348015610409575f80fd5b50610424600480360381019061041f9190613b17565b611096565b005b348015610431575f80fd5b5061044c60048036038101906104479190613b42565b6110b0565b005b348015610459575f80fd5b50610462611103565b60405161046f9190613b88565b60405180910390f35b348015610483575f80fd5b5061048c611118565b6040516104999190613aae565b60405180910390f35b3480156104ad575f80fd5b506104c860048036038101906104c39190613bcb565b61111e565b005b3480156104d5575f80fd5b506104f060048036038101906104eb9190613a2e565b611186565b6040516104fd9190613a86565b60405180910390f35b348015610511575f80fd5b5061051a611375565b6040516105279190613a86565b60405180910390f35b34801561053b575f80fd5b50610544611388565b6040516105519190613aae565b60405180910390f35b348015610565575f80fd5b5061056e61138e565b60405161057b9190613aae565b60405180910390f35b34801561058f575f80fd5b50610598611394565b6040516105a59190613aae565b60405180910390f35b3480156105b9575f80fd5b506105d460048036038101906105cf9190613c09565b61139a565b005b3480156105e1575f80fd5b506105ea6113ed565b005b3480156105f7575f80fd5b50610612600480360381019061060d9190613c09565b611407565b005b34801561061f575f80fd5b5061062861145a565b005b348015610635575f80fd5b50610650600480360381019061064b9190613b17565b611474565b005b34801561065d575f80fd5b5061067860048036038101906106739190613b42565b61148e565b6040516106859190613aae565b60405180910390f35b348015610699575f80fd5b506106a26114d4565b6040516106af9190613a86565b60405180910390f35b3480156106c3575f80fd5b506106cc6114e7565b005b3480156106d9575f80fd5b506106e261159f565b005b3480156106ef575f80fd5b506106f861161d565b6040516107059190613a86565b60405180910390f35b348015610719575f80fd5b50610734600480360381019061072f9190613c34565b611630565b005b348015610741575f80fd5b5061074a611705565b6040516107579190613a86565b60405180910390f35b34801561076b575f80fd5b5061078660048036038101906107819190613b42565b61171c565b005b348015610793575f80fd5b5061079c611784565b6040516107a99190613ca7565b60405180910390f35b3480156107bd575f80fd5b506107c66117ad565b6040516107d39190613a86565b60405180910390f35b3480156107e7575f80fd5b506107f0611804565b6040516107fd919061397d565b60405180910390f35b348015610811575f80fd5b5061081a611894565b6040516108279190613a86565b60405180910390f35b34801561083b575f80fd5b506108446118a7565b6040516108519190613d1b565b60405180910390f35b348015610865575f80fd5b5061086e6118cc565b60405161087b9190613aae565b60405180910390f35b34801561088f575f80fd5b506108aa60048036038101906108a59190613b42565b6118d2565b6040516108b79190613a86565b60405180910390f35b3480156108cb575f80fd5b506108e660048036038101906108e19190613a2e565b6118ef565b6040516108f39190613a86565b60405180910390f35b348015610907575f80fd5b50610922600480360381019061091d9190613a2e565b611b6d565b60405161092f9190613a86565b60405180910390f35b348015610943575f80fd5b5061094c611bbd565b6040516109599190613a86565b60405180910390f35b34801561096d575f80fd5b50610976611bcf565b6040516109839190613d54565b60405180910390f35b348015610997575f80fd5b506109b260048036038101906109ad9190613b42565b611bf4565b005b3480156109bf575f80fd5b506109c8611fd9565b6040516109d59190613aae565b60405180910390f35b3480156109e9575f80fd5b50610a0460048036038101906109ff9190613b42565b611fdf565b604051610a119190613a86565b60405180910390f35b348015610a25575f80fd5b50610a406004803603810190610a3b9190613d6d565b612031565b604051610a4d9190613aae565b60405180910390f35b348015610a61575f80fd5b50610a6a6120b3565b604051610a779190613dcb565b60405180910390f35b348015610a8b575f80fd5b50610aa66004803603810190610aa19190613c09565b6120d8565b005b348015610ab3575f80fd5b50610ace6004803603810190610ac99190613b17565b612130565b005b348015610adb575f80fd5b50610ae461214a565b604051610af19190613e04565b60405180910390f35b348015610b05575f80fd5b50610b206004803603810190610b1b9190613b42565b61216f565b005b348015610b2d575f80fd5b50610b486004803603810190610b439190613b42565b612289565b005b348015610b55575f80fd5b50610b5e6122a5565b604051610b6b9190613aae565b60405180910390f35b60605f8054610b8290613e4a565b80601f0160208091040260200160405190810160405280929190818152602001828054610bae90613e4a565b8015610bf95780601f10610bd057610100808354040283529160200191610bf9565b820191905f5260205f20905b815481529060010190602001808311610bdc57829003601f168201915b5050505050905090565b5f8160185f3373ffffffffffffffffffffffffffffffffffffffff1673ffffffffffffffffffffffffffffffffffffffff1681526020019081526020015f205f8573ffffffffffffffffffffffffffffffffffffffff1673ffffffffffffffffffffffffffffffffffffffff1681526020019081526020015f20819055508273ffffffffffffffffffffffffffffffffffffffff163373ffffffffffffffffffffffffffffffffffffffff167f8c5be1e5ebec7d5bd14f71427d1e84f3dd0314c0f7b2291e5b200ac8c7c3b92584604051610cde9190613aae565b60405180910390a36001905092915050565b600e5481565b5f600c54905090565b5f3390505f60045f8373ffffffffffffffffffffffffffffffffffffffff1673ffffffffffffffffffffffffffffffffffffffff1681526020019081526020015f205490504260055482610d539190613ea7565b1015610d60575050610e6f565b4260045f8473ffffffffffffffffffffffffffffffffffffffff1673ffffffffffffffffffffffffffffffffffffffff1681526020019081526020015f20819055505f60035f9054906101000a900473ffffffffffffffffffffffffffffffffffffffff1673ffffffffffffffffffffffffffffffffffffffff1663954fa5ee30856040518363ffffffff1660e01b8152600401610dff929190613eda565b6020604051808303815f875af1158015610e1b573d5f803e3d5ffd5b505050506040513d601f19601f82011682018060405250810190610e3f9190613f15565b90505f811115610e6b578060065f828254610e5a9190613ea7565b92505081905550610e6a816122ab565b5b5050505b565b5f825f73ffffffffffffffffffffffffffffffffffffffff168173ffffffffffffffffffffffffffffffffffffffff1603610eaa575f80fd5b3073ffffffffffffffffffffffffffffffffffffffff168573ffffffffffffffffffffffffffffffffffffffff16148015610f31575060155f9054906101000a900473ffffffffffffffffffffffffffffffffffffffff1673ffffffffffffffffffffffffffffffffffffffff168473ffffffffffffffffffffffffffffffffffffffff16145b15610f3f576001915061108e565b611001836040518060400160405280601681526020017f496e73756666696369656e7420416c6c6f77616e63650000000000000000000081525060185f8973ffffffffffffffffffffffffffffffffffffffff1673ffffffffffffffffffffffffffffffffffffffff1681526020019081526020015f205f3373ffffffffffffffffffffffffffffffffffffffff1673ffffffffffffffffffffffffffffffffffffffff1681526020019081526020015f20546122b79092919063ffffffff16565b60185f8773ffffffffffffffffffffffffffffffffffffffff1673ffffffffffffffffffffffffffffffffffffffff1681526020019081526020015f205f3373ffffffffffffffffffffffffffffffffffffffff1673ffffffffffffffffffffffffffffffffffffffff1681526020019081526020015f208190555061108885858561230b565b50600191505b509392505050565b61109e6117ad565b6110a6575f80fd5b8060088190555050565b6110b86117ad565b6110c0575f80fd5b8060165f6101000a81548173ffffffffffffffffffffffffffffffffffffffff021916908373ffffffffffffffffffffffffffffffffffffffff16021790555050565b5f60025f9054906101000a900460ff16905090565b600b5481565b6111266117ad565b61112e575f80fd5b8060135f8473ffffffffffffffffffffffffffffffffffffffff1673ffffffffffffffffffffffffffffffffffffffff1681526020019081526020015f205f6101000a81548160ff0219169083151502179055505050565b5f6112128260185f3373ffffffffffffffffffffffffffffffffffffffff1673ffffffffffffffffffffffffffffffffffffffff1681526020019081526020015f205f8673ffffffffffffffffffffffffffffffffffffffff1673ffffffffffffffffffffffffffffffffffffffff1681526020019081526020015f20546125fd90919063ffffffff16565b60185f3373ffffffffffffffffffffffffffffffffffffffff1673ffffffffffffffffffffffffffffffffffffffff1681526020019081526020015f205f8573ffffffffffffffffffffffffffffffffffffffff1673ffffffffffffffffffffffffffffffffffffffff1681526020019081526020015f20819055508273ffffffffffffffffffffffffffffffffffffffff163373ffffffffffffffffffffffffffffffffffffffff167f8c5be1e5ebec7d5bd14f71427d1e84f3dd0314c0f7b2291e5b200ac8c7c3b92560185f3373ffffffffffffffffffffffffffffffffffffffff1673ffffffffffffffffffffffffffffffffffffffff1681526020019081526020015f205f8773ffffffffffffffffffffffffffffffffffffffff1673ffffffffffffffffffffffffffffffffffffffff1681526020019081526020015f20546040516113639190613aae565b60405180910390a36001905092915050565b600960039054906101000a900460ff1681565b600c5481565b60075481565b60055481565b6113a26117ad565b6113aa575f80fd5b80156113cf5780600960016101000a81548160ff0219169083151502179055506113ea565b80600960016101000a81548160ff0219169083151502179055505b50565b6113f56117ad565b6113fd575f80fd5b611405612612565b565b61140f6117ad565b611417575f80fd5b801561143c5780600960026101000a81548160ff021916908315150217905550611457565b80600960026101000a81548160ff0219169083151502179055505b50565b6114626117ad565b61146a575f80fd5b6114726128e8565b565b61147c6117ad565b611484575f80fd5b8060078190555050565b5f60105f8373ffffffffffffffffffffffffffffffffffffffff1673ffffffffffffffffffffffffffffffffffffffff1681526020019081526020015f20549050919050565b600960019054906101000a900460ff1681565b6114ef6117ad565b6114f7575f80fd5b600260019054906101000a900473ffffffffffffffffffffffffffffffffffffffff1673ffffffffffffffffffffffffffffffffffffffff167ff8df31144d9c2f0f6b59d69b8b98abd5459d07f2742c4df920b25aae33c6482060405160405180910390a25f600260016101000a81548173ffffffffffffffffffffffffffffffffffffffff021916908373ffffffffffffffffffffffffffffffffffffffff160217905550565b60165f9054906101000a900473ffffffffffffffffffffffffffffffffffffffff1673ffffffffffffffffffffffffffffffffffffffff1663fff6cae96040518163ffffffff1660e01b81526004015f604051808303815f87803b158015611605575f80fd5b505af1158015611617573d5f803e3d5ffd5b50505050565b600960049054906101000a900460ff1681565b6116386117ad565b611640575f80fd5b620f424084600c546116529190613f40565b61165c9190613fae565b600e81905550620f424083600c546116749190613f40565b61167e9190613fae565b600d8190555081600960046101000a81548160ff02191690831515021790555080600960036101000a81548160ff021916908315150217905550600d54600e5411156116ff576040517f08c379a00000000000000000000000000000000000000000000000000000000081526004016116f69061404e565b60405180910390fd5b50505050565b5f601760149054906101000a900460ff1615905090565b6117246117ad565b61172c575f80fd5b600160125f8373ffffffffffffffffffffffffffffffffffffffff1673ffffffffffffffffffffffffffffffffffffffff1681526020019081526020015f205f6101000a81548160ff02191690831515021790555050565b5f600260019054906101000a900473ffffffffffffffffffffffffffffffffffffffff16905090565b5f600260019054906101000a900473ffffffffffffffffffffffffffffffffffffffff1673ffffffffffffffffffffffffffffffffffffffff163373ffffffffffffffffffffffffffffffffffffffff1614905090565b60606001805461181390613e4a565b80601f016020809104026020016040519081016040528092919081815260200182805461183f90613e4a565b801561188a5780601f106118615761010080835404028352916020019161188a565b820191905f5260205f20905b81548152906001019060200180831161186d57829003601f168201915b5050505050905090565b600960029054906101000a900460ff1681565b60035f9054906101000a900473ffffffffffffffffffffffffffffffffffffffff1681565b600a5481565b6013602052805f5260405f205f915054906101000a900460ff1681565b5f8060185f3373ffffffffffffffffffffffffffffffffffffffff1673ffffffffffffffffffffffffffffffffffffffff1681526020019081526020015f205f8573ffffffffffffffffffffffffffffffffffffffff1673ffffffffffffffffffffffffffffffffffffffff1681526020019081526020015f205490508083106119f5575f60185f3373ffffffffffffffffffffffffffffffffffffffff1673ffffffffffffffffffffffffffffffffffffffff1681526020019081526020015f205f8673ffffffffffffffffffffffffffffffffffffffff1673ffffffffffffffffffffffffffffffffffffffff1681526020019081526020015f2081905550611a85565b611a088382612b5a90919063ffffffff16565b60185f3373ffffffffffffffffffffffffffffffffffffffff1673ffffffffffffffffffffffffffffffffffffffff1681526020019081526020015f205f8673ffffffffffffffffffffffffffffffffffffffff1673ffffffffffffffffffffffffffffffffffffffff1681526020019081526020015f20819055505b8373ffffffffffffffffffffffffffffffffffffffff163373ffffffffffffffffffffffffffffffffffffffff167f8c5be1e5ebec7d5bd14f71427d1e84f3dd0314c0f7b2291e5b200ac8c7c3b92560185f3373ffffffffffffffffffffffffffffffffffffffff1673ffffffffffffffffffffffffffffffffffffffff1681526020019081526020015f205f8873ffffffffffffffffffffffffffffffffffffffff1673ffffffffffffffffffffffffffffffffffffffff1681526020019081526020015f2054604051611b5a9190613aae565b60405180910390a3600191505092915050565b5f825f73ffffffffffffffffffffffffffffffffffffffff168173ffffffffffffffffffffffffffffffffffffffff1603611ba6575f80fd5b611bb133858561230b565b50600191505092915050565b60095f9054906101000a900460ff1681565b60165f9054906101000a900473ffffffffffffffffffffffffffffffffffffffff1681565b611bfc6117ad565b611c04575f80fd5b5f8073ffffffffffffffffffffffffffffffffffffffff1660155f9054906101000a900473ffffffffffffffffffffffffffffffffffffffff1673ffffffffffffffffffffffffffffffffffffffff161490508160155f6101000a81548173ffffffffffffffffffffffffffffffffffffffff021916908373ffffffffffffffffffffffffffffffffffffffff16021790555060155f9054906101000a900473ffffffffffffffffffffffffffffffffffffffff1673ffffffffffffffffffffffffffffffffffffffff1663ad5c46486040518163ffffffff1660e01b8152600401602060405180830381865afa925050508015611d2057506040513d601f19601f82011682018060405250810190611d1d9190614080565b60015b611d3157611d2c612b6f565b611d73565b8060175f6101000a81548173ffffffffffffffffffffffffffffffffffffffff021916908373ffffffffffffffffffffffffffffffffffffffff160217905550505b5f60175f9054906101000a900473ffffffffffffffffffffffffffffffffffffffff1690505f73ffffffffffffffffffffffffffffffffffffffff1660165f9054906101000a900473ffffffffffffffffffffffffffffffffffffffff1673ffffffffffffffffffffffffffffffffffffffff16148015611e2057505f73ffffffffffffffffffffffffffffffffffffffff168173ffffffffffffffffffffffffffffffffffffffff1614155b15611f75575f60155f9054906101000a900473ffffffffffffffffffffffffffffffffffffffff1673ffffffffffffffffffffffffffffffffffffffff1663c45a01556040518163ffffffff1660e01b8152600401602060405180830381865afa158015611e90573d5f803e3d5ffd5b505050506040513d601f19601f82011682018060405250810190611eb49190614080565b90508073ffffffffffffffffffffffffffffffffffffffff1663c9c6539683306040518363ffffffff1660e01b8152600401611ef1929190613eda565b6020604051808303815f875af1925050508015611f2c57506040513d601f19601f82011682018060405250810190611f299190614080565b60015b15611f73578060165f6101000a81548173ffffffffffffffffffffffffffffffffffffffff021916908373ffffffffffffffffffffffffffffffffffffffff160217905550505b505b8115611fd457600160095f6101000a81548160ff0219169083151502179055506001600960016101000a81548160ff0219169083151502179055506001600960026101000a81548160ff021916908315150217905550600a6007819055505b505050565b60085481565b5f60125f8373ffffffffffffffffffffffffffffffffffffffff1673ffffffffffffffffffffffffffffffffffffffff1681526020019081526020015f205f9054906101000a900460ff169050919050565b5f60185f8473ffffffffffffffffffffffffffffffffffffffff1673ffffffffffffffffffffffffffffffffffffffff1681526020019081526020015f205f8373ffffffffffffffffffffffffffffffffffffffff1673ffffffffffffffffffffffffffffffffffffffff1681526020019081526020015f2054905092915050565b60175f9054906101000a900473ffffffffffffffffffffffffffffffffffffffff1681565b6120e06117ad565b6120e8575f80fd5b8015612113578060095f6101000a81548160ff02191690831515021790555042600b8190555061212d565b8060095f6101000a81548160ff0219169083151502179055505b50565b6121386117ad565b612140575f80fd5b8060058190555050565b60155f9054906101000a900473ffffffffffffffffffffffffffffffffffffffff1681565b6121776117ad565b61217f575f80fd5b5f73ffffffffffffffffffffffffffffffffffffffff168173ffffffffffffffffffffffffffffffffffffffff16036121ca5773430000000000000000000000000000000000000290505b8060035f6101000a81548173ffffffffffffffffffffffffffffffffffffffff021916908373ffffffffffffffffffffffffffffffffffffffff16021790555060035f9054906101000a900473ffffffffffffffffffffffffffffffffffffffff1673ffffffffffffffffffffffffffffffffffffffff16634e606c476040518163ffffffff1660e01b81526004015f604051808303815f87803b158015612270575f80fd5b505af1158015612282573d5f803e3d5ffd5b5050505050565b6122916117ad565b612299575f80fd5b6122a281612c85565b50565b600d5481565b6122b481612d7c565b50565b5f8383111582906122fe576040517f08c379a00000000000000000000000000000000000000000000000000000000081526004016122f5919061397d565b60405180910390fd5b5082840390509392505050565b5f60135f8573ffffffffffffffffffffffffffffffffffffffff1673ffffffffffffffffffffffffffffffffffffffff1681526020019081526020015f205f9054906101000a900460ff161580156123aa575060135f8473ffffffffffffffffffffffffffffffffffffffff1673ffffffffffffffffffffffffffffffffffffffff1681526020019081526020015f205f9054906101000a900460ff16155b6123e9576040517f08c379a00000000000000000000000000000000000000000000000000000000081526004016123e0906140f5565b60405180910390fd5b601760149054906101000a900460ff161561241057612409848484612e70565b90506125f6565b5f60165f9054906101000a900473ffffffffffffffffffffffffffffffffffffffff1673ffffffffffffffffffffffffffffffffffffffff168573ffffffffffffffffffffffffffffffffffffffff161490505f60165f9054906101000a900473ffffffffffffffffffffffffffffffffffffffff1673ffffffffffffffffffffffffffffffffffffffff168573ffffffffffffffffffffffffffffffffffffffff161490506124be612e90565b156124cc576124cb612f5b565b5b6124d4613189565b1561253d575f82806124e35750815b15905080806125075750600960049054906101000a900460ff1680156125065750825b5b9050808061252a5750600960039054906101000a900460ff1680156125295750815b5b9050801561253b5761253a6128e8565b5b505b612545613211565b1561255357612552612612565b5b61255d8685613242565b5f612568878761329f565b612572578461257d565b61257c87866133a2565b5b90506125898682613459565b8573ffffffffffffffffffffffffffffffffffffffff168773ffffffffffffffffffffffffffffffffffffffff167fddf252ad1be2c89b69c2b068fc378daa952ba7f163c4a11628f55a4df523b3ef836040516125e69190613aae565b60405180910390a3600193505050505b9392505050565b5f818361260a9190613ea7565b905092915050565b5f73ffffffffffffffffffffffffffffffffffffffff1660175f9054906101000a900473ffffffffffffffffffffffffffffffffffffffff1673ffffffffffffffffffffffffffffffffffffffff1603156128e6575f60175f9054906101000a900473ffffffffffffffffffffffffffffffffffffffff1673ffffffffffffffffffffffffffffffffffffffff166370a08231306040518263ffffffff1660e01b81526004016126c29190613ca7565b602060405180830381865afa1580156126dd573d5f803e3d5ffd5b505050506040513d601f19601f820116820180604052508101906127019190613f15565b90505f811161271057506128e6565b5f805f5b6014805490508110156128da576014818154811061273557612734614113565b5b905f5260205f20015f9054906101000a900473ffffffffffffffffffffffffffffffffffffffff169250612768836134b6565b156128cd576127d1600c546127c360105f8773ffffffffffffffffffffffffffffffffffffffff1673ffffffffffffffffffffffffffffffffffffffff1681526020019081526020015f20548761354790919063ffffffff16565b61355c90919063ffffffff16565b91505f8211156128cc5760175f9054906101000a900473ffffffffffffffffffffffffffffffffffffffff1673ffffffffffffffffffffffffffffffffffffffff1663a9059cbb84846040518363ffffffff1660e01b8152600401612837929190614140565b6020604051808303815f875af1158015612853573d5f803e3d5ffd5b505050506040513d601f19601f82011682018060405250810190612877919061417b565b156128cb578273ffffffffffffffffffffffffffffffffffffffff167f2e80b5c277a03fa5d11eaf1447f3c4304ff052d91e57eb6e9a4f27919a083c09836040516128c29190613aae565b60405180910390a25b5b5b8080600101915050612714565b5042600f819055505050505b565b6001601760146101000a81548160ff0219169083151502179055505f60105f3073ffffffffffffffffffffffffffffffffffffffff1673ffffffffffffffffffffffffffffffffffffffff1681526020019081526020015f20549050600e548110156129545750612b3e565b600d5481111561296457600d5490505b5f600267ffffffffffffffff8111156129805761297f6141a6565b5b6040519080825280602002602001820160405280156129ae5781602001602082028036833780820191505090505b50905030815f815181106129c5576129c4614113565b5b602002602001019073ffffffffffffffffffffffffffffffffffffffff16908173ffffffffffffffffffffffffffffffffffffffff168152505060175f9054906101000a900473ffffffffffffffffffffffffffffffffffffffff1681600181518110612a3557612a34614113565b5b602002602001019073ffffffffffffffffffffffffffffffffffffffff16908173ffffffffffffffffffffffffffffffffffffffff168152505060155f9054906101000a900473ffffffffffffffffffffffffffffffffffffffff1673ffffffffffffffffffffffffffffffffffffffff1663791ac947835f8430426040518663ffffffff1660e01b8152600401612ad19594939291906142c3565b5f604051808303815f87803b158015612ae8575f80fd5b505af1925050508015612af9575060015b612b04575050612b3e565b7f3c6492de4e232ae0404b3c405600ac75c52b169d378fa23f9ddb011e12f4261682604051612b339190613aae565b60405180910390a150505b5f601760146101000a81548160ff021916908315150217905550565b5f8183612b67919061431b565b905092915050565b5f60155f9054906101000a900473ffffffffffffffffffffffffffffffffffffffff1690505f73ffffffffffffffffffffffffffffffffffffffff168173ffffffffffffffffffffffffffffffffffffffff1603612bcd5750612c83565b5f8190508073ffffffffffffffffffffffffffffffffffffffff166373b295c26040518163ffffffff1660e01b8152600401602060405180830381865afa925050508015612c3957506040513d601f19601f82011682018060405250810190612c369190614080565b60015b15612c80578060175f6101000a81548173ffffffffffffffffffffffffffffffffffffffff021916908373ffffffffffffffffffffffffffffffffffffffff160217905550505b50505b565b5f73ffffffffffffffffffffffffffffffffffffffff168173ffffffffffffffffffffffffffffffffffffffff1603612cbc575f80fd5b8073ffffffffffffffffffffffffffffffffffffffff16600260019054906101000a900473ffffffffffffffffffffffffffffffffffffffff1673ffffffffffffffffffffffffffffffffffffffff167f8be0079c531659141344cd1fd0a4f28419497f9722a3daafe3b4186f6b6457e060405160405180910390a380600260016101000a81548173ffffffffffffffffffffffffffffffffffffffff021916908373ffffffffffffffffffffffffffffffffffffffff16021790555050565b5f811115612e6d575f805f5b601480549050811015612e695760148181548110612da957612da8614113565b5b905f5260205f20015f9054906101000a900473ffffffffffffffffffffffffffffffffffffffff169250612ddc836134b6565b15612e5c57612e45600c54612e3760105f8773ffffffffffffffffffffffffffffffffffffffff1673ffffffffffffffffffffffffffffffffffffffff1681526020019081526020015f20548761354790919063ffffffff16565b61355c90919063ffffffff16565b91505f821115612e5b57612e598383613571565b505b5b8080600101915050612d88565b5050505b50565b5f612e7b8483613242565b612e858383613459565b600190509392505050565b5f60095f9054906101000a900460ff168015612ec957506005600a612eb5919061447d565b63c1b71080612ec49190613f40565b600c54105b8015612f22575060165f9054906101000a900473ffffffffffffffffffffffffffffffffffffffff1673ffffffffffffffffffffffffffffffffffffffff163373ffffffffffffffffffffffffffffffffffffffff1614155b8015612f3b5750601760149054906101000a900460ff16155b8015612f565750610384600b54612f529190613ea7565b4210155b905090565b601760149054906101000a900460ff16613187575f80600a5442612f7f919061431b565b90505f600b5442612f90919061431b565b90505f612fa86103848361355c90919063ffffffff16565b90505f612fbf600f8361354790919063ffffffff16565b90506305a39a80841115612fd65760019450613006565b6303c267008410612fea5760139450613005565b6301e133808410612ffe5760bf9450613004565b61077b94505b5b5b5f600c5490505f5b83811015613078576130696007600a613027919061447d565b61305b61304a8a6007600a61303c919061447d565b6125fd90919063ffffffff16565b600c5461354790919063ffffffff16565b61355c90919063ffffffff16565b9150808060010191505061300e565b506130a26130916103848561354790919063ffffffff16565b600b546125fd90919063ffffffff16565b600b8190555060165f9054906101000a900473ffffffffffffffffffffffffffffffffffffffff1673ffffffffffffffffffffffffffffffffffffffff1663fff6cae96040518163ffffffff1660e01b81526004015f604051808303815f87803b15801561310e575f80fd5b505af192505050801561311f575060015b5061313730600c5483613132919061431b565b613459565b61313f6135be565b80600c81905550817f72725a3b1e5bd622d6bcd1339bb31279c351abe8f541ac7fd320f24e1b1641f2600c546040516131789190613aae565b60405180910390a25050505050505b565b5f600960019054906101000a900460ff1680156131b35750601760149054906101000a900460ff16155b801561320c575060165f9054906101000a900473ffffffffffffffffffffffffffffffffffffffff1673ffffffffffffffffffffffffffffffffffffffff163373ffffffffffffffffffffffffffffffffffffffff1614155b905090565b5f600960029054906101000a900460ff16801561323d5750600854600f546132399190613ea7565b4210155b905090565b61329b826132968360105f8773ffffffffffffffffffffffffffffffffffffffff1673ffffffffffffffffffffffffffffffffffffffff1681526020019081526020015f2054612b5a90919063ffffffff16565b613793565b5050565b5f8273ffffffffffffffffffffffffffffffffffffffff1660165f9054906101000a900473ffffffffffffffffffffffffffffffffffffffff1673ffffffffffffffffffffffffffffffffffffffff16148061334757508173ffffffffffffffffffffffffffffffffffffffff1660165f9054906101000a900473ffffffffffffffffffffffffffffffffffffffff1673ffffffffffffffffffffffffffffffffffffffff16145b801561339a575060125f8473ffffffffffffffffffffffffffffffffffffffff1673ffffffffffffffffffffffffffffffffffffffff1681526020019081526020015f205f9054906101000a900460ff16155b905092915050565b5f806133cc6007546133be60648661355c90919063ffffffff16565b61354790919063ffffffff16565b90506133d83082613459565b3073ffffffffffffffffffffffffffffffffffffffff168473ffffffffffffffffffffffffffffffffffffffff167fddf252ad1be2c89b69c2b068fc378daa952ba7f163c4a11628f55a4df523b3ef836040516134359190613aae565b60405180910390a36134508184612b5a90919063ffffffff16565b91505092915050565b6134b2826134ad8360105f8773ffffffffffffffffffffffffffffffffffffffff1673ffffffffffffffffffffffffffffffffffffffff1681526020019081526020015f20546125fd90919063ffffffff16565b613793565b5050565b5f3073ffffffffffffffffffffffffffffffffffffffff168273ffffffffffffffffffffffffffffffffffffffff1614158015613540575060165f9054906101000a900473ffffffffffffffffffffffffffffffffffffffff1673ffffffffffffffffffffffffffffffffffffffff168273ffffffffffffffffffffffffffffffffffffffff1614155b9050919050565b5f81836135549190613f40565b905092915050565b5f81836135699190613fae565b905092915050565b5f8273ffffffffffffffffffffffffffffffffffffffff166108fc8390811502906040515f60405180830381858888f19350505050156135b457600190506135b8565b5f90505b92915050565b5f60105f3073ffffffffffffffffffffffffffffffffffffffff1673ffffffffffffffffffffffffffffffffffffffff1681526020019081526020015f205490505f811161360c5750613791565b6136163082613242565b5f805f805f90505b601480549050811015613771576014818154811061363f5761363e614113565b5b905f5260205f20015f9054906101000a900473ffffffffffffffffffffffffffffffffffffffff169350613672846134b6565b15613764576136db600c546136cd60105f8873ffffffffffffffffffffffffffffffffffffffff1673ffffffffffffffffffffffffffffffffffffffff1681526020019081526020015f20548861354790919063ffffffff16565b61355c90919063ffffffff16565b925082826136e99190613ea7565b91505f831115613763576136fd8484613459565b8373ffffffffffffffffffffffffffffffffffffffff163073ffffffffffffffffffffffffffffffffffffffff167fddf252ad1be2c89b69c2b068fc378daa952ba7f163c4a11628f55a4df523b3ef8560405161375a9190613aae565b60405180910390a35b5b808060010191505061361e565b505f818561377f919061431b565b905061378b3082613459565b50505050505b565b61379c826134b6565b156138ad576001151560115f8473ffffffffffffffffffffffffffffffffffffffff1673ffffffffffffffffffffffffffffffffffffffff1681526020019081526020015f205f9054906101000a900460ff161515146138ac57601482908060018154018082558091505060019003905f5260205f20015f9091909190916101000a81548173ffffffffffffffffffffffffffffffffffffffff021916908373ffffffffffffffffffffffffffffffffffffffff160217905550600160115f8473ffffffffffffffffffffffffffffffffffffffff1673ffffffffffffffffffffffffffffffffffffffff1681526020019081526020015f205f6101000a81548160ff0219169083151502179055505b5b8060105f8473ffffffffffffffffffffffffffffffffffffffff1673ffffffffffffffffffffffffffffffffffffffff1681526020019081526020015f20819055505050565b5f81519050919050565b5f82825260208201905092915050565b5f5b8381101561392a57808201518184015260208101905061390f565b5f8484015250505050565b5f601f19601f8301169050919050565b5f61394f826138f3565b61395981856138fd565b935061396981856020860161390d565b61397281613935565b840191505092915050565b5f6020820190508181035f8301526139958184613945565b905092915050565b5f80fd5b5f73ffffffffffffffffffffffffffffffffffffffff82169050919050565b5f6139ca826139a1565b9050919050565b6139da816139c0565b81146139e4575f80fd5b50565b5f813590506139f5816139d1565b92915050565b5f819050919050565b613a0d816139fb565b8114613a17575f80fd5b50565b5f81359050613a2881613a04565b92915050565b5f8060408385031215613a4457613a4361399d565b5b5f613a51858286016139e7565b9250506020613a6285828601613a1a565b9150509250929050565b5f8115159050919050565b613a8081613a6c565b82525050565b5f602082019050613a995f830184613a77565b92915050565b613aa8816139fb565b82525050565b5f602082019050613ac15f830184613a9f565b92915050565b5f805f60608486031215613ade57613add61399d565b5b5f613aeb868287016139e7565b9350506020613afc868287016139e7565b9250506040613b0d86828701613a1a565b9150509250925092565b5f60208284031215613b2c57613b2b61399d565b5b5f613b3984828501613a1a565b91505092915050565b5f60208284031215613b5757613b5661399d565b5b5f613b64848285016139e7565b91505092915050565b5f60ff82169050919050565b613b8281613b6d565b82525050565b5f602082019050613b9b5f830184613b79565b92915050565b613baa81613a6c565b8114613bb4575f80fd5b50565b5f81359050613bc581613ba1565b92915050565b5f8060408385031215613be157613be061399d565b5b5f613bee858286016139e7565b9250506020613bff85828601613bb7565b9150509250929050565b5f60208284031215613c1e57613c1d61399d565b5b5f613c2b84828501613bb7565b91505092915050565b5f805f8060808587031215613c4c57613c4b61399d565b5b5f613c5987828801613a1a565b9450506020613c6a87828801613a1a565b9350506040613c7b87828801613bb7565b9250506060613c8c87828801613bb7565b91505092959194509250565b613ca1816139c0565b82525050565b5f602082019050613cba5f830184613c98565b92915050565b5f819050919050565b5f613ce3613cde613cd9846139a1565b613cc0565b6139a1565b9050919050565b5f613cf482613cc9565b9050919050565b5f613d0582613cea565b9050919050565b613d1581613cfb565b82525050565b5f602082019050613d2e5f830184613d0c565b92915050565b5f613d3e82613cea565b9050919050565b613d4e81613d34565b82525050565b5f602082019050613d675f830184613d45565b92915050565b5f8060408385031215613d8357613d8261399d565b5b5f613d90858286016139e7565b9250506020613da1858286016139e7565b9150509250929050565b5f613db582613cea565b9050919050565b613dc581613dab565b82525050565b5f602082019050613dde5f830184613dbc565b92915050565b5f613dee82613cea565b9050919050565b613dfe81613de4565b82525050565b5f602082019050613e175f830184613df5565b92915050565b7f4e487b71000000000000000000000000000000000000000000000000000000005f52602260045260245ffd5b5f6002820490506001821680613e6157607f821691505b602082108103613e7457613e73613e1d565b5b50919050565b7f4e487b71000000000000000000000000000000000000000000000000000000005f52601160045260245ffd5b5f613eb1826139fb565b9150613ebc836139fb565b9250828201905080821115613ed457613ed3613e7a565b5b92915050565b5f604082019050613eed5f830185613c98565b613efa6020830184613c98565b9392505050565b5f81519050613f0f81613a04565b92915050565b5f60208284031215613f2a57613f2961399d565b5b5f613f3784828501613f01565b91505092915050565b5f613f4a826139fb565b9150613f55836139fb565b9250828202613f63816139fb565b91508282048414831517613f7a57613f79613e7a565b5b5092915050565b7f4e487b71000000000000000000000000000000000000000000000000000000005f52601260045260245ffd5b5f613fb8826139fb565b9150613fc3836139fb565b925082613fd357613fd2613f81565b5b828204905092915050565b7f5468726573686f6c642063616e6e6f742062652061626f766520616d6f756e745f8201527f2e00000000000000000000000000000000000000000000000000000000000000602082015250565b5f6140386021836138fd565b915061404382613fde565b604082019050919050565b5f6020820190508181035f8301526140658161402c565b9050919050565b5f8151905061407a816139d1565b92915050565b5f602082840312156140955761409461399d565b5b5f6140a28482850161406c565b91505092915050565b7f696e5f626c61636b6c69737400000000000000000000000000000000000000005f82015250565b5f6140df600c836138fd565b91506140ea826140ab565b602082019050919050565b5f6020820190508181035f83015261410c816140d3565b9050919050565b7f4e487b71000000000000000000000000000000000000000000000000000000005f52603260045260245ffd5b5f6040820190506141535f830185613c98565b6141606020830184613a9f565b9392505050565b5f8151905061417581613ba1565b92915050565b5f602082840312156141905761418f61399d565b5b5f61419d84828501614167565b91505092915050565b7f4e487b71000000000000000000000000000000000000000000000000000000005f52604160045260245ffd5b5f819050919050565b5f6141f66141f16141ec846141d3565b613cc0565b6139fb565b9050919050565b614206816141dc565b82525050565b5f81519050919050565b5f82825260208201905092915050565b5f819050602082019050919050565b61423e816139c0565b82525050565b5f61424f8383614235565b60208301905092915050565b5f602082019050919050565b5f6142718261420c565b61427b8185614216565b935061428683614226565b805f5b838110156142b657815161429d8882614244565b97506142a88361425b565b925050600181019050614289565b5085935050505092915050565b5f60a0820190506142d65f830188613a9f565b6142e360208301876141fd565b81810360408301526142f58186614267565b90506143046060830185613c98565b6143116080830184613a9f565b9695505050505050565b5f614325826139fb565b9150614330836139fb565b925082820390508181111561434857614347613e7a565b5b92915050565b5f8160011c9050919050565b5f808291508390505b60018511156143a35780860481111561437f5761437e613e7a565b5b600185161561438e5780820291505b808102905061439c8561434e565b9450614363565b94509492505050565b5f826143bb5760019050614476565b816143c8575f9050614476565b81600181146143de57600281146143e857614417565b6001915050614476565b60ff8411156143fa576143f9613e7a565b5b8360020a91508482111561441157614410613e7a565b5b50614476565b5060208310610133831016604e8410600b841016171561444c5782820a90508381111561444757614446613e7a565b5b614476565b614459848484600161435a565b925090508184048111156144705761446f613e7a565b5b81810290505b9392505050565b5f614487826139fb565b915061449283613b6d565b92506144bf7fffffffffffffffffffffffffffffffffffffffffffffffffffffffffffffffff84846143ac565b90509291505056fea26469706673582212204ce90609aee1262caf79db89545b7a24c98570b9aaea61fc5f2b5fc0a1e9c57b64736f6c63430008180033",
			"opcodes": "PUSH1 0x80 PUSH1 0x40 MSTORE PUSH3 0x15180 PUSH1 0x5 SSTORE PUSH1 0x63 PUSH1 0x7 SSTORE PUSH2 0x258 PUSH1 0x8 SSTORE PUSH1 0x1 PUSH1 0x9 PUSH1 0x3 PUSH2 0x100 EXP DUP2 SLOAD DUP2 PUSH1 0xFF MUL NOT AND SWAP1 DUP4 ISZERO ISZERO MUL OR SWAP1 SSTORE POP PUSH1 0x1 PUSH1 0x9 PUSH1 0x4 PUSH2 0x100 EXP DUP2 SLOAD DUP2 PUSH1 0xFF MUL NOT AND SWAP1 DUP4 ISZERO ISZERO MUL OR SWAP1 SSTORE POP PUSH0 PUSH1 0x17 PUSH1 0x14 PUSH2 0x100 EXP DUP2 SLOAD DUP2 PUSH1 0xFF MUL NOT AND SWAP1 DUP4 ISZERO ISZERO MUL OR SWAP1 SSTORE POP CALLVALUE DUP1 ISZERO PUSH3 0x72 JUMPI PUSH0 DUP1 REVERT JUMPDEST POP PUSH1 0x40 MLOAD DUP1 PUSH1 0x40 ADD PUSH1 0x40 MSTORE DUP1 PUSH1 0x4 DUP2 MSTORE PUSH1 0x20 ADD PUSH32 0x424F4D4200000000000000000000000000000000000000000000000000000000 DUP2 MSTORE POP PUSH1 0x40 MLOAD DUP1 PUSH1 0x40 ADD PUSH1 0x40 MSTORE DUP1 PUSH1 0x4 DUP2 MSTORE PUSH1 0x20 ADD PUSH32 0x424F4D4200000000000000000000000000000000000000000000000000000000 DUP2 MSTORE POP PUSH1 0x5 DUP3 PUSH0 SWAP1 DUP2 PUSH3 0xF1 SWAP2 SWAP1 PUSH3 0x502 JUMP JUMPDEST POP DUP2 PUSH1 0x1 SWAP1 DUP2 PUSH3 0x103 SWAP2 SWAP1 PUSH3 0x502 JUMP JUMPDEST POP DUP1 PUSH1 0x2 PUSH0 PUSH2 0x100 EXP DUP2 SLOAD DUP2 PUSH1 0xFF MUL NOT AND SWAP1 DUP4 PUSH1 0xFF AND MUL OR SWAP1 SSTORE POP POP POP POP CALLER PUSH1 0x2 PUSH1 0x1 PUSH2 0x100 EXP DUP2 SLOAD DUP2 PUSH20 0xFFFFFFFFFFFFFFFFFFFFFFFFFFFFFFFFFFFFFFFF MUL NOT AND SWAP1 DUP4 PUSH20 0xFFFFFFFFFFFFFFFFFFFFFFFFFFFFFFFFFFFFFFFF AND MUL OR SWAP1 SSTORE POP PUSH1 0x5 PUSH1 0xA PUSH3 0x172 SWAP2 SWAP1 PUSH3 0x76F JUMP JUMPDEST PUSH3 0x4F588 PUSH3 0x182 SWAP2 SWAP1 PUSH3 0x7BF JUMP JUMPDEST PUSH1 0xC DUP2 SWAP1 SSTORE POP TIMESTAMP PUSH1 0xA DUP2 SWAP1 SSTORE POP TIMESTAMP PUSH1 0xB DUP2 SWAP1 SSTORE POP PUSH1 0x1 PUSH1 0x12 PUSH0 ADDRESS PUSH20 0xFFFFFFFFFFFFFFFFFFFFFFFFFFFFFFFFFFFFFFFF AND PUSH20 0xFFFFFFFFFFFFFFFFFFFFFFFFFFFFFFFFFFFFFFFF AND DUP2 MSTORE PUSH1 0x20 ADD SWAP1 DUP2 MSTORE PUSH1 0x20 ADD PUSH0 KECCAK256 PUSH0 PUSH2 0x100 EXP DUP2 SLOAD DUP2 PUSH1 0xFF MUL NOT AND SWAP1 DUP4 ISZERO ISZERO MUL OR SWAP1 SSTORE POP PUSH1 0xC SLOAD PUSH1 0x10 PUSH0 CALLER PUSH20 0xFFFFFFFFFFFFFFFFFFFFFFFFFFFFFFFFFFFFFFFF AND PUSH20 0xFFFFFFFFFFFFFFFFFFFFFFFFFFFFFFFFFFFFFFFF AND DUP2 MSTORE PUSH1 0x20 ADD SWAP1 DUP2 MSTORE PUSH1 0x20 ADD PUSH0 KECCAK256 DUP2 SWAP1 SSTORE POP CALLER PUSH20 0xFFFFFFFFFFFFFFFFFFFFFFFFFFFFFFFFFFFFFFFF AND ADDRESS PUSH20 0xFFFFFFFFFFFFFFFFFFFFFFFFFFFFFFFFFFFFFFFF AND PUSH32 0xDDF252AD1BE2C89B69C2B068FC378DAA952BA7F163C4A11628F55A4DF523B3EF PUSH1 0xC SLOAD PUSH1 0x40 MLOAD PUSH3 0x290 SWAP2 SWAP1 PUSH3 0x81A JUMP JUMPDEST PUSH1 0x40 MLOAD DUP1 SWAP2 SUB SWAP1 LOG3 PUSH3 0x835 JUMP JUMPDEST PUSH0 DUP2 MLOAD SWAP1 POP SWAP2 SWAP1 POP JUMP JUMPDEST PUSH32 0x4E487B7100000000000000000000000000000000000000000000000000000000 PUSH0 MSTORE PUSH1 0x41 PUSH1 0x4 MSTORE PUSH1 0x24 PUSH0 REVERT JUMPDEST PUSH32 0x4E487B7100000000000000000000000000000000000000000000000000000000 PUSH0 MSTORE PUSH1 0x22 PUSH1 0x4 MSTORE PUSH1 0x24 PUSH0 REVERT JUMPDEST PUSH0 PUSH1 0x2 DUP3 DIV SWAP1 POP PUSH1 0x1 DUP3 AND DUP1 PUSH3 0x31A JUMPI PUSH1 0x7F DUP3 AND SWAP2 POP JUMPDEST PUSH1 0x20 DUP3 LT DUP2 SUB PUSH3 0x330 JUMPI PUSH3 0x32F PUSH3 0x2D5 JUMP JUMPDEST JUMPDEST POP SWAP2 SWAP1 POP JUMP JUMPDEST PUSH0 DUP2 SWAP1 POP DUP2 PUSH0 MSTORE PUSH1 0x20 PUSH0 KECCAK256 SWAP1 POP SWAP2 SWAP1 POP JUMP JUMPDEST PUSH0 PUSH1 0x20 PUSH1 0x1F DUP4 ADD DIV SWAP1 POP SWAP2 SWAP1 POP JUMP JUMPDEST PUSH0 DUP3 DUP3 SHL SWAP1 POP SWAP3 SWAP2 POP POP JUMP JUMPDEST PUSH0 PUSH1 0x8 DUP4 MUL PUSH3 0x394 PUSH32 0xFFFFFFFFFFFFFFFFFFFFFFFFFFFFFFFFFFFFFFFFFFFFFFFFFFFFFFFFFFFFFFFF DUP3 PUSH3 0x357 JUMP JUMPDEST PUSH3 0x3A0 DUP7 DUP4 PUSH3 0x357 JUMP JUMPDEST SWAP6 POP DUP1 NOT DUP5 AND SWAP4 POP DUP1 DUP7 AND DUP5 OR SWAP3 POP POP POP SWAP4 SWAP3 POP POP POP JUMP JUMPDEST PUSH0 DUP2 SWAP1 POP SWAP2 SWAP1 POP JUMP JUMPDEST PUSH0 DUP2 SWAP1 POP SWAP2 SWAP1 POP JUMP JUMPDEST PUSH0 PUSH3 0x3EA PUSH3 0x3E4 PUSH3 0x3DE DUP5 PUSH3 0x3B8 JUMP JUMPDEST PUSH3 0x3C1 JUMP JUMPDEST PUSH3 0x3B8 JUMP JUMPDEST SWAP1 POP SWAP2 SWAP1 POP JUMP JUMPDEST PUSH0 DUP2 SWAP1 POP SWAP2 SWAP1 POP JUMP JUMPDEST PUSH3 0x405 DUP4 PUSH3 0x3CA JUMP JUMPDEST PUSH3 0x41D PUSH3 0x414 DUP3 PUSH3 0x3F1 JUMP JUMPDEST DUP5 DUP5 SLOAD PUSH3 0x363 JUMP JUMPDEST DUP3 SSTORE POP POP POP POP JUMP JUMPDEST PUSH0 SWAP1 JUMP JUMPDEST PUSH3 0x433 PUSH3 0x425 JUMP JUMPDEST PUSH3 0x440 DUP2 DUP5 DUP5 PUSH3 0x3FA JUMP JUMPDEST POP POP POP JUMP JUMPDEST JUMPDEST DUP2 DUP2 LT ISZERO PUSH3 0x467 JUMPI PUSH3 0x45B PUSH0 DUP3 PUSH3 0x429 JUMP JUMPDEST PUSH1 0x1 DUP2 ADD SWAP1 POP PUSH3 0x446 JUMP JUMPDEST POP POP JUMP JUMPDEST PUSH1 0x1F DUP3 GT ISZERO PUSH3 0x4B6 JUMPI PUSH3 0x480 DUP2 PUSH3 0x336 JUMP JUMPDEST PUSH3 0x48B DUP5 PUSH3 0x348 JUMP JUMPDEST DUP2 ADD PUSH1 0x20 DUP6 LT ISZERO PUSH3 0x49B JUMPI DUP2 SWAP1 POP JUMPDEST PUSH3 0x4B3 PUSH3 0x4AA DUP6 PUSH3 0x348 JUMP JUMPDEST DUP4 ADD DUP3 PUSH3 0x445 JUMP JUMPDEST POP POP JUMPDEST POP POP POP JUMP JUMPDEST PUSH0 DUP3 DUP3 SHR SWAP1 POP SWAP3 SWAP2 POP POP JUMP JUMPDEST PUSH0 PUSH3 0x4D8 PUSH0 NOT DUP5 PUSH1 0x8 MUL PUSH3 0x4BB JUMP JUMPDEST NOT DUP1 DUP4 AND SWAP2 POP POP SWAP3 SWAP2 POP POP JUMP JUMPDEST PUSH0 PUSH3 0x4F2 DUP4 DUP4 PUSH3 0x4C7 JUMP JUMPDEST SWAP2 POP DUP3 PUSH1 0x2 MUL DUP3 OR SWAP1 POP SWAP3 SWAP2 POP POP JUMP JUMPDEST PUSH3 0x50D DUP3 PUSH3 0x29E JUMP JUMPDEST PUSH8 0xFFFFFFFFFFFFFFFF DUP2 GT ISZERO PUSH3 0x529 JUMPI PUSH3 0x528 PUSH3 0x2A8 JUMP JUMPDEST JUMPDEST PUSH3 0x535 DUP3 SLOAD PUSH3 0x302 JUMP JUMPDEST PUSH3 0x542 DUP3 DUP3 DUP6 PUSH3 0x46B JUMP JUMPDEST PUSH0 PUSH1 0x20 SWAP1 POP PUSH1 0x1F DUP4 GT PUSH1 0x1 DUP2 EQ PUSH3 0x578 JUMPI PUSH0 DUP5 ISZERO PUSH3 0x563 JUMPI DUP3 DUP8 ADD MLOAD SWAP1 POP JUMPDEST PUSH3 0x56F DUP6 DUP3 PUSH3 0x4E5 JUMP JUMPDEST DUP7 SSTORE POP PUSH3 0x5DE JUMP JUMPDEST PUSH1 0x1F NOT DUP5 AND PUSH3 0x588 DUP7 PUSH3 0x336 JUMP JUMPDEST PUSH0 JUMPDEST DUP3 DUP2 LT ISZERO PUSH3 0x5B1 JUMPI DUP5 DUP10 ADD MLOAD DUP3 SSTORE PUSH1 0x1 DUP3 ADD SWAP2 POP PUSH1 0x20 DUP6 ADD SWAP5 POP PUSH1 0x20 DUP2 ADD SWAP1 POP PUSH3 0x58A JUMP JUMPDEST DUP7 DUP4 LT ISZERO PUSH3 0x5D1 JUMPI DUP5 DUP10 ADD MLOAD PUSH3 0x5CD PUSH1 0x1F DUP10 AND DUP3 PUSH3 0x4C7 JUMP JUMPDEST DUP4 SSTORE POP JUMPDEST PUSH1 0x1 PUSH1 0x2 DUP9 MUL ADD DUP9 SSTORE POP POP POP JUMPDEST POP POP POP POP POP POP JUMP JUMPDEST PUSH32 0x4E487B7100000000000000000000000000000000000000000000000000000000 PUSH0 MSTORE PUSH1 0x11 PUSH1 0x4 MSTORE PUSH1 0x24 PUSH0 REVERT JUMPDEST PUSH0 DUP2 PUSH1 0x1 SHR SWAP1 POP SWAP2 SWAP1 POP JUMP JUMPDEST PUSH0 DUP1 DUP3 SWAP2 POP DUP4 SWAP1 POP JUMPDEST PUSH1 0x1 DUP6 GT ISZERO PUSH3 0x670 JUMPI DUP1 DUP7 DIV DUP2 GT ISZERO PUSH3 0x648 JUMPI PUSH3 0x647 PUSH3 0x5E6 JUMP JUMPDEST JUMPDEST PUSH1 0x1 DUP6 AND ISZERO PUSH3 0x658 JUMPI DUP1 DUP3 MUL SWAP2 POP JUMPDEST DUP1 DUP2 MUL SWAP1 POP PUSH3 0x668 DUP6 PUSH3 0x613 JUMP JUMPDEST SWAP5 POP PUSH3 0x628 JUMP JUMPDEST SWAP5 POP SWAP5 SWAP3 POP POP POP JUMP JUMPDEST PUSH0 DUP3 PUSH3 0x68A JUMPI PUSH1 0x1 SWAP1 POP PUSH3 0x75C JUMP JUMPDEST DUP2 PUSH3 0x699 JUMPI PUSH0 SWAP1 POP PUSH3 0x75C JUMP JUMPDEST DUP2 PUSH1 0x1 DUP2 EQ PUSH3 0x6B2 JUMPI PUSH1 0x2 DUP2 EQ PUSH3 0x6BD JUMPI PUSH3 0x6F3 JUMP JUMPDEST PUSH1 0x1 SWAP2 POP POP PUSH3 0x75C JUMP JUMPDEST PUSH1 0xFF DUP5 GT ISZERO PUSH3 0x6D2 JUMPI PUSH3 0x6D1 PUSH3 0x5E6 JUMP JUMPDEST JUMPDEST DUP4 PUSH1 0x2 EXP SWAP2 POP DUP5 DUP3 GT ISZERO PUSH3 0x6EC JUMPI PUSH3 0x6EB PUSH3 0x5E6 JUMP JUMPDEST JUMPDEST POP PUSH3 0x75C JUMP JUMPDEST POP PUSH1 0x20 DUP4 LT PUSH2 0x133 DUP4 LT AND PUSH1 0x4E DUP5 LT PUSH1 0xB DUP5 LT AND OR ISZERO PUSH3 0x72D JUMPI DUP3 DUP3 EXP SWAP1 POP DUP4 DUP2 GT ISZERO PUSH3 0x727 JUMPI PUSH3 0x726 PUSH3 0x5E6 JUMP JUMPDEST JUMPDEST PUSH3 0x75C JUMP JUMPDEST PUSH3 0x73C DUP5 DUP5 DUP5 PUSH1 0x1 PUSH3 0x61F JUMP JUMPDEST SWAP3 POP SWAP1 POP DUP2 DUP5 DIV DUP2 GT ISZERO PUSH3 0x756 JUMPI PUSH3 0x755 PUSH3 0x5E6 JUMP JUMPDEST JUMPDEST DUP2 DUP2 MUL SWAP1 POP JUMPDEST SWAP4 SWAP3 POP POP POP JUMP JUMPDEST PUSH0 PUSH1 0xFF DUP3 AND SWAP1 POP SWAP2 SWAP1 POP JUMP JUMPDEST PUSH0 PUSH3 0x77B DUP3 PUSH3 0x3B8 JUMP JUMPDEST SWAP2 POP PUSH3 0x788 DUP4 PUSH3 0x763 JUMP JUMPDEST SWAP3 POP PUSH3 0x7B7 PUSH32 0xFFFFFFFFFFFFFFFFFFFFFFFFFFFFFFFFFFFFFFFFFFFFFFFFFFFFFFFFFFFFFFFF DUP5 DUP5 PUSH3 0x679 JUMP JUMPDEST SWAP1 POP SWAP3 SWAP2 POP POP JUMP JUMPDEST PUSH0 PUSH3 0x7CB DUP3 PUSH3 0x3B8 JUMP JUMPDEST SWAP2 POP PUSH3 0x7D8 DUP4 PUSH3 0x3B8 JUMP JUMPDEST SWAP3 POP DUP3 DUP3 MUL PUSH3 0x7E8 DUP2 PUSH3 0x3B8 JUMP JUMPDEST SWAP2 POP DUP3 DUP3 DIV DUP5 EQ DUP4 ISZERO OR PUSH3 0x802 JUMPI PUSH3 0x801 PUSH3 0x5E6 JUMP JUMPDEST JUMPDEST POP SWAP3 SWAP2 POP POP JUMP JUMPDEST PUSH3 0x814 DUP2 PUSH3 0x3B8 JUMP JUMPDEST DUP3 MSTORE POP POP JUMP JUMPDEST PUSH0 PUSH1 0x20 DUP3 ADD SWAP1 POP PUSH3 0x82F PUSH0 DUP4 ADD DUP5 PUSH3 0x809 JUMP JUMPDEST SWAP3 SWAP2 POP POP JUMP JUMPDEST PUSH2 0x44FD DUP1 PUSH3 0x843 PUSH0 CODECOPY PUSH0 RETURN INVALID PUSH1 0x80 PUSH1 0x40 MSTORE PUSH1 0x4 CALLDATASIZE LT PUSH2 0x2E7 JUMPI PUSH0 CALLDATALOAD PUSH1 0xE0 SHR DUP1 PUSH4 0x77855208 GT PUSH2 0x18F JUMPI DUP1 PUSH4 0xAFB9CF6D GT PUSH2 0xDB JUMPI DUP1 PUSH4 0xDD985BA7 GT PUSH2 0x94 JUMPI DUP1 PUSH4 0xEDAE876F GT PUSH2 0x6E JUMPI DUP1 PUSH4 0xEDAE876F EQ PUSH2 0xAD0 JUMPI DUP1 PUSH4 0xF2E809E0 EQ PUSH2 0xAFA JUMPI DUP1 PUSH4 0xF2FDE38B EQ PUSH2 0xB22 JUMPI DUP1 PUSH4 0xF7678EFC EQ PUSH2 0xB4A JUMPI PUSH2 0x2EE JUMP JUMPDEST DUP1 PUSH4 0xDD985BA7 EQ PUSH2 0xA56 JUMPI DUP1 PUSH4 0xE15BEB80 EQ PUSH2 0xA80 JUMPI DUP1 PUSH4 0xEACA243B EQ PUSH2 0xAA8 JUMPI PUSH2 0x2EE JUMP JUMPDEST DUP1 PUSH4 0xAFB9CF6D EQ PUSH2 0x938 JUMPI DUP1 PUSH4 0xB51449BB EQ PUSH2 0x962 JUMPI DUP1 PUSH4 0xC0D78655 EQ PUSH2 0x98C JUMPI DUP1 PUSH4 0xC737A49B EQ PUSH2 0x9B4 JUMPI DUP1 PUSH4 0xD4399790 EQ PUSH2 0x9DE JUMPI DUP1 PUSH4 0xDD62ED3E EQ PUSH2 0xA1A JUMPI PUSH2 0x2EE JUMP JUMPDEST DUP1 PUSH4 0x95D89B41 GT PUSH2 0x148 JUMPI DUP1 PUSH4 0x9B87676C GT PUSH2 0x122 JUMPI DUP1 PUSH4 0x9B87676C EQ PUSH2 0x85A JUMPI DUP1 PUSH4 0xA20623CE EQ PUSH2 0x884 JUMPI DUP1 PUSH4 0xA457C2D7 EQ PUSH2 0x8C0 JUMPI DUP1 PUSH4 0xA9059CBB EQ PUSH2 0x8FC JUMPI PUSH2 0x2EE JUMP JUMPDEST DUP1 PUSH4 0x95D89B41 EQ PUSH2 0x7DC JUMPI DUP1 PUSH4 0x95FE579C EQ PUSH2 0x806 JUMPI DUP1 PUSH4 0x97D75776 EQ PUSH2 0x830 JUMPI PUSH2 0x2EE JUMP JUMPDEST DUP1 PUSH4 0x77855208 EQ PUSH2 0x6E4 JUMPI DUP1 PUSH4 0x7C5D525F EQ PUSH2 0x70E JUMPI DUP1 PUSH4 0x83B4AC68 EQ PUSH2 0x736 JUMPI DUP1 PUSH4 0x854CFF2F EQ PUSH2 0x760 JUMPI DUP1 PUSH4 0x8DA5CB5B EQ PUSH2 0x788 JUMPI DUP1 PUSH4 0x8F32D59B EQ PUSH2 0x7B2 JUMPI PUSH2 0x2EE JUMP JUMPDEST DUP1 PUSH4 0x39F32440 GT PUSH2 0x24E JUMPI DUP1 PUSH4 0x4E14EC4B GT PUSH2 0x207 JUMPI DUP1 PUSH4 0x70A08231 GT PUSH2 0x1E1 JUMPI DUP1 PUSH4 0x70A08231 EQ PUSH2 0x652 JUMPI DUP1 PUSH4 0x70EE7395 EQ PUSH2 0x68E JUMPI DUP1 PUSH4 0x715018A6 EQ PUSH2 0x6B8 JUMPI DUP1 PUSH4 0x753D02A1 EQ PUSH2 0x6CE JUMPI PUSH2 0x2EE JUMP JUMPDEST DUP1 PUSH4 0x4E14EC4B EQ PUSH2 0x5EC JUMPI DUP1 PUSH4 0x66EB3785 EQ PUSH2 0x614 JUMPI DUP1 PUSH4 0x699ABB3C EQ PUSH2 0x62A JUMPI PUSH2 0x2EE JUMP JUMPDEST DUP1 PUSH4 0x39F32440 EQ PUSH2 0x506 JUMPI DUP1 PUSH4 0x3EAAF86B EQ PUSH2 0x530 JUMPI DUP1 PUSH4 0x44AAB59A EQ PUSH2 0x55A JUMPI DUP1 PUSH4 0x4ADDC0E8 EQ PUSH2 0x584 JUMPI DUP1 PUSH4 0x4BC6DD18 EQ PUSH2 0x5AE JUMPI DUP1 PUSH4 0x4C43E307 EQ PUSH2 0x5D6 JUMPI PUSH2 0x2EE JUMP JUMPDEST DUP1 PUSH4 0x2910164A GT PUSH2 0x2A0 JUMPI DUP1 PUSH4 0x2910164A EQ PUSH2 0x3FE JUMPI DUP1 PUSH4 0x2F34D282 EQ PUSH2 0x426 JUMPI DUP1 PUSH4 0x313CE567 EQ PUSH2 0x44E JUMPI DUP1 PUSH4 0x32B75683 EQ PUSH2 0x478 JUMPI DUP1 PUSH4 0x37C9BE87 EQ PUSH2 0x4A2 JUMPI DUP1 PUSH4 0x39509351 EQ PUSH2 0x4CA JUMPI PUSH2 0x2EE JUMP JUMPDEST DUP1 PUSH4 0x6FDDE03 EQ PUSH2 0x2F2 JUMPI DUP1 PUSH4 0x95EA7B3 EQ PUSH2 0x31C JUMPI DUP1 PUSH4 0xE5A9231 EQ PUSH2 0x358 JUMPI DUP1 PUSH4 0x18160DDD EQ PUSH2 0x382 JUMPI DUP1 PUSH4 0x23084E5F EQ PUSH2 0x3AC JUMPI DUP1 PUSH4 0x23B872DD EQ PUSH2 0x3C2 JUMPI PUSH2 0x2EE JUMP JUMPDEST CALLDATASIZE PUSH2 0x2EE JUMPI STOP JUMPDEST PUSH0 DUP1 REVERT JUMPDEST CALLVALUE DUP1 ISZERO PUSH2 0x2FD JUMPI PUSH0 DUP1 REVERT JUMPDEST POP PUSH2 0x306 PUSH2 0xB74 JUMP JUMPDEST PUSH1 0x40 MLOAD PUSH2 0x313 SWAP2 SWAP1 PUSH2 0x397D JUMP JUMPDEST PUSH1 0x40 MLOAD DUP1 SWAP2 SUB SWAP1 RETURN JUMPDEST CALLVALUE DUP1 ISZERO PUSH2 0x327 JUMPI PUSH0 DUP1 REVERT JUMPDEST POP PUSH2 0x342 PUSH1 0x4 DUP1 CALLDATASIZE SUB DUP2 ADD SWAP1 PUSH2 0x33D SWAP2 SWAP1 PUSH2 0x3A2E JUMP JUMPDEST PUSH2 0xC03 JUMP JUMPDEST PUSH1 0x40 MLOAD PUSH2 0x34F SWAP2 SWAP1 PUSH2 0x3A86 JUMP JUMPDEST PUSH1 0x40 MLOAD DUP1 SWAP2 SUB SWAP1 RETURN JUMPDEST CALLVALUE DUP1 ISZERO PUSH2 0x363 JUMPI PUSH0 DUP1 REVERT JUMPDEST POP PUSH2 0x36C PUSH2 0xCF0 JUMP JUMPDEST PUSH1 0x40 MLOAD PUSH2 0x379 SWAP2 SWAP1 PUSH2 0x3AAE JUMP JUMPDEST PUSH1 0x40 MLOAD DUP1 SWAP2 SUB SWAP1 RETURN JUMPDEST CALLVALUE DUP1 ISZERO PUSH2 0x38D JUMPI PUSH0 DUP1 REVERT JUMPDEST POP PUSH2 0x396 PUSH2 0xCF6 JUMP JUMPDEST PUSH1 0x40 MLOAD PUSH2 0x3A3 SWAP2 SWAP1 PUSH2 0x3AAE JUMP JUMPDEST PUSH1 0x40 MLOAD DUP1 SWAP2 SUB SWAP1 RETURN JUMPDEST CALLVALUE DUP1 ISZERO PUSH2 0x3B7 JUMPI PUSH0 DUP1 REVERT JUMPDEST POP PUSH2 0x3C0 PUSH2 0xCFF JUMP JUMPDEST STOP JUMPDEST CALLVALUE DUP1 ISZERO PUSH2 0x3CD JUMPI PUSH0 DUP1 REVERT JUMPDEST POP PUSH2 0x3E8 PUSH1 0x4 DUP1 CALLDATASIZE SUB DUP2 ADD SWAP1 PUSH2 0x3E3 SWAP2 SWAP1 PUSH2 0x3AC7 JUMP JUMPDEST PUSH2 0xE71 JUMP JUMPDEST PUSH1 0x40 MLOAD PUSH2 0x3F5 SWAP2 SWAP1 PUSH2 0x3A86 JUMP JUMPDEST PUSH1 0x40 MLOAD DUP1 SWAP2 SUB SWAP1 RETURN JUMPDEST CALLVALUE DUP1 ISZERO PUSH2 0x409 JUMPI PUSH0 DUP1 REVERT JUMPDEST POP PUSH2 0x424 PUSH1 0x4 DUP1 CALLDATASIZE SUB DUP2 ADD SWAP1 PUSH2 0x41F SWAP2 SWAP1 PUSH2 0x3B17 JUMP JUMPDEST PUSH2 0x1096 JUMP JUMPDEST STOP JUMPDEST CALLVALUE DUP1 ISZERO PUSH2 0x431 JUMPI PUSH0 DUP1 REVERT JUMPDEST POP PUSH2 0x44C PUSH1 0x4 DUP1 CALLDATASIZE SUB DUP2 ADD SWAP1 PUSH2 0x447 SWAP2 SWAP1 PUSH2 0x3B42 JUMP JUMPDEST PUSH2 0x10B0 JUMP JUMPDEST STOP JUMPDEST CALLVALUE DUP1 ISZERO PUSH2 0x459 JUMPI PUSH0 DUP1 REVERT JUMPDEST POP PUSH2 0x462 PUSH2 0x1103 JUMP JUMPDEST PUSH1 0x40 MLOAD PUSH2 0x46F SWAP2 SWAP1 PUSH2 0x3B88 JUMP JUMPDEST PUSH1 0x40 MLOAD DUP1 SWAP2 SUB SWAP1 RETURN JUMPDEST CALLVALUE DUP1 ISZERO PUSH2 0x483 JUMPI PUSH0 DUP1 REVERT JUMPDEST POP PUSH2 0x48C PUSH2 0x1118 JUMP JUMPDEST PUSH1 0x40 MLOAD PUSH2 0x499 SWAP2 SWAP1 PUSH2 0x3AAE JUMP JUMPDEST PUSH1 0x40 MLOAD DUP1 SWAP2 SUB SWAP1 RETURN JUMPDEST CALLVALUE DUP1 ISZERO PUSH2 0x4AD JUMPI PUSH0 DUP1 REVERT JUMPDEST POP PUSH2 0x4C8 PUSH1 0x4 DUP1 CALLDATASIZE SUB DUP2 ADD SWAP1 PUSH2 0x4C3 SWAP2 SWAP1 PUSH2 0x3BCB JUMP JUMPDEST PUSH2 0x111E JUMP JUMPDEST STOP JUMPDEST CALLVALUE DUP1 ISZERO PUSH2 0x4D5 JUMPI PUSH0 DUP1 REVERT JUMPDEST POP PUSH2 0x4F0 PUSH1 0x4 DUP1 CALLDATASIZE SUB DUP2 ADD SWAP1 PUSH2 0x4EB SWAP2 SWAP1 PUSH2 0x3A2E JUMP JUMPDEST PUSH2 0x1186 JUMP JUMPDEST PUSH1 0x40 MLOAD PUSH2 0x4FD SWAP2 SWAP1 PUSH2 0x3A86 JUMP JUMPDEST PUSH1 0x40 MLOAD DUP1 SWAP2 SUB SWAP1 RETURN JUMPDEST CALLVALUE DUP1 ISZERO PUSH2 0x511 JUMPI PUSH0 DUP1 REVERT JUMPDEST POP PUSH2 0x51A PUSH2 0x1375 JUMP JUMPDEST PUSH1 0x40 MLOAD PUSH2 0x527 SWAP2 SWAP1 PUSH2 0x3A86 JUMP JUMPDEST PUSH1 0x40 MLOAD DUP1 SWAP2 SUB SWAP1 RETURN JUMPDEST CALLVALUE DUP1 ISZERO PUSH2 0x53B JUMPI PUSH0 DUP1 REVERT JUMPDEST POP PUSH2 0x544 PUSH2 0x1388 JUMP JUMPDEST PUSH1 0x40 MLOAD PUSH2 0x551 SWAP2 SWAP1 PUSH2 0x3AAE JUMP JUMPDEST PUSH1 0x40 MLOAD DUP1 SWAP2 SUB SWAP1 RETURN JUMPDEST CALLVALUE DUP1 ISZERO PUSH2 0x565 JUMPI PUSH0 DUP1 REVERT JUMPDEST POP PUSH2 0x56E PUSH2 0x138E JUMP JUMPDEST PUSH1 0x40 MLOAD PUSH2 0x57B SWAP2 SWAP1 PUSH2 0x3AAE JUMP JUMPDEST PUSH1 0x40 MLOAD DUP1 SWAP2 SUB SWAP1 RETURN JUMPDEST CALLVALUE DUP1 ISZERO PUSH2 0x58F JUMPI PUSH0 DUP1 REVERT JUMPDEST POP PUSH2 0x598 PUSH2 0x1394 JUMP JUMPDEST PUSH1 0x40 MLOAD PUSH2 0x5A5 SWAP2 SWAP1 PUSH2 0x3AAE JUMP JUMPDEST PUSH1 0x40 MLOAD DUP1 SWAP2 SUB SWAP1 RETURN JUMPDEST CALLVALUE DUP1 ISZERO PUSH2 0x5B9 JUMPI PUSH0 DUP1 REVERT JUMPDEST POP PUSH2 0x5D4 PUSH1 0x4 DUP1 CALLDATASIZE SUB DUP2 ADD SWAP1 PUSH2 0x5CF SWAP2 SWAP1 PUSH2 0x3C09 JUMP JUMPDEST PUSH2 0x139A JUMP JUMPDEST STOP JUMPDEST CALLVALUE DUP1 ISZERO PUSH2 0x5E1 JUMPI PUSH0 DUP1 REVERT JUMPDEST POP PUSH2 0x5EA PUSH2 0x13ED JUMP JUMPDEST STOP JUMPDEST CALLVALUE DUP1 ISZERO PUSH2 0x5F7 JUMPI PUSH0 DUP1 REVERT JUMPDEST POP PUSH2 0x612 PUSH1 0x4 DUP1 CALLDATASIZE SUB DUP2 ADD SWAP1 PUSH2 0x60D SWAP2 SWAP1 PUSH2 0x3C09 JUMP JUMPDEST PUSH2 0x1407 JUMP JUMPDEST STOP JUMPDEST CALLVALUE DUP1 ISZERO PUSH2 0x61F JUMPI PUSH0 DUP1 REVERT JUMPDEST POP PUSH2 0x628 PUSH2 0x145A JUMP JUMPDEST STOP JUMPDEST CALLVALUE DUP1 ISZERO PUSH2 0x635 JUMPI PUSH0 DUP1 REVERT JUMPDEST POP PUSH2 0x650 PUSH1 0x4 DUP1 CALLDATASIZE SUB DUP2 ADD SWAP1 PUSH2 0x64B SWAP2 SWAP1 PUSH2 0x3B17 JUMP JUMPDEST PUSH2 0x1474 JUMP JUMPDEST STOP JUMPDEST CALLVALUE DUP1 ISZERO PUSH2 0x65D JUMPI PUSH0 DUP1 REVERT JUMPDEST POP PUSH2 0x678 PUSH1 0x4 DUP1 CALLDATASIZE SUB DUP2 ADD SWAP1 PUSH2 0x673 SWAP2 SWAP1 PUSH2 0x3B42 JUMP JUMPDEST PUSH2 0x148E JUMP JUMPDEST PUSH1 0x40 MLOAD PUSH2 0x685 SWAP2 SWAP1 PUSH2 0x3AAE JUMP JUMPDEST PUSH1 0x40 MLOAD DUP1 SWAP2 SUB SWAP1 RETURN JUMPDEST CALLVALUE DUP1 ISZERO PUSH2 0x699 JUMPI PUSH0 DUP1 REVERT JUMPDEST POP PUSH2 0x6A2 PUSH2 0x14D4 JUMP JUMPDEST PUSH1 0x40 MLOAD PUSH2 0x6AF SWAP2 SWAP1 PUSH2 0x3A86 JUMP JUMPDEST PUSH1 0x40 MLOAD DUP1 SWAP2 SUB SWAP1 RETURN JUMPDEST CALLVALUE DUP1 ISZERO PUSH2 0x6C3 JUMPI PUSH0 DUP1 REVERT JUMPDEST POP PUSH2 0x6CC PUSH2 0x14E7 JUMP JUMPDEST STOP JUMPDEST CALLVALUE DUP1 ISZERO PUSH2 0x6D9 JUMPI PUSH0 DUP1 REVERT JUMPDEST POP PUSH2 0x6E2 PUSH2 0x159F JUMP JUMPDEST STOP JUMPDEST CALLVALUE DUP1 ISZERO PUSH2 0x6EF JUMPI PUSH0 DUP1 REVERT JUMPDEST POP PUSH2 0x6F8 PUSH2 0x161D JUMP JUMPDEST PUSH1 0x40 MLOAD PUSH2 0x705 SWAP2 SWAP1 PUSH2 0x3A86 JUMP JUMPDEST PUSH1 0x40 MLOAD DUP1 SWAP2 SUB SWAP1 RETURN JUMPDEST CALLVALUE DUP1 ISZERO PUSH2 0x719 JUMPI PUSH0 DUP1 REVERT JUMPDEST POP PUSH2 0x734 PUSH1 0x4 DUP1 CALLDATASIZE SUB DUP2 ADD SWAP1 PUSH2 0x72F SWAP2 SWAP1 PUSH2 0x3C34 JUMP JUMPDEST PUSH2 0x1630 JUMP JUMPDEST STOP JUMPDEST CALLVALUE DUP1 ISZERO PUSH2 0x741 JUMPI PUSH0 DUP1 REVERT JUMPDEST POP PUSH2 0x74A PUSH2 0x1705 JUMP JUMPDEST PUSH1 0x40 MLOAD PUSH2 0x757 SWAP2 SWAP1 PUSH2 0x3A86 JUMP JUMPDEST PUSH1 0x40 MLOAD DUP1 SWAP2 SUB SWAP1 RETURN JUMPDEST CALLVALUE DUP1 ISZERO PUSH2 0x76B JUMPI PUSH0 DUP1 REVERT JUMPDEST POP PUSH2 0x786 PUSH1 0x4 DUP1 CALLDATASIZE SUB DUP2 ADD SWAP1 PUSH2 0x781 SWAP2 SWAP1 PUSH2 0x3B42 JUMP JUMPDEST PUSH2 0x171C JUMP JUMPDEST STOP JUMPDEST CALLVALUE DUP1 ISZERO PUSH2 0x793 JUMPI PUSH0 DUP1 REVERT JUMPDEST POP PUSH2 0x79C PUSH2 0x1784 JUMP JUMPDEST PUSH1 0x40 MLOAD PUSH2 0x7A9 SWAP2 SWAP1 PUSH2 0x3CA7 JUMP JUMPDEST PUSH1 0x40 MLOAD DUP1 SWAP2 SUB SWAP1 RETURN JUMPDEST CALLVALUE DUP1 ISZERO PUSH2 0x7BD JUMPI PUSH0 DUP1 REVERT JUMPDEST POP PUSH2 0x7C6 PUSH2 0x17AD JUMP JUMPDEST PUSH1 0x40 MLOAD PUSH2 0x7D3 SWAP2 SWAP1 PUSH2 0x3A86 JUMP JUMPDEST PUSH1 0x40 MLOAD DUP1 SWAP2 SUB SWAP1 RETURN JUMPDEST CALLVALUE DUP1 ISZERO PUSH2 0x7E7 JUMPI PUSH0 DUP1 REVERT JUMPDEST POP PUSH2 0x7F0 PUSH2 0x1804 JUMP JUMPDEST PUSH1 0x40 MLOAD PUSH2 0x7FD SWAP2 SWAP1 PUSH2 0x397D JUMP JUMPDEST PUSH1 0x40 MLOAD DUP1 SWAP2 SUB SWAP1 RETURN JUMPDEST CALLVALUE DUP1 ISZERO PUSH2 0x811 JUMPI PUSH0 DUP1 REVERT JUMPDEST POP PUSH2 0x81A PUSH2 0x1894 JUMP JUMPDEST PUSH1 0x40 MLOAD PUSH2 0x827 SWAP2 SWAP1 PUSH2 0x3A86 JUMP JUMPDEST PUSH1 0x40 MLOAD DUP1 SWAP2 SUB SWAP1 RETURN JUMPDEST CALLVALUE DUP1 ISZERO PUSH2 0x83B JUMPI PUSH0 DUP1 REVERT JUMPDEST POP PUSH2 0x844 PUSH2 0x18A7 JUMP JUMPDEST PUSH1 0x40 MLOAD PUSH2 0x851 SWAP2 SWAP1 PUSH2 0x3D1B JUMP JUMPDEST PUSH1 0x40 MLOAD DUP1 SWAP2 SUB SWAP1 RETURN JUMPDEST CALLVALUE DUP1 ISZERO PUSH2 0x865 JUMPI PUSH0 DUP1 REVERT JUMPDEST POP PUSH2 0x86E PUSH2 0x18CC JUMP JUMPDEST PUSH1 0x40 MLOAD PUSH2 0x87B SWAP2 SWAP1 PUSH2 0x3AAE JUMP JUMPDEST PUSH1 0x40 MLOAD DUP1 SWAP2 SUB SWAP1 RETURN JUMPDEST CALLVALUE DUP1 ISZERO PUSH2 0x88F JUMPI PUSH0 DUP1 REVERT JUMPDEST POP PUSH2 0x8AA PUSH1 0x4 DUP1 CALLDATASIZE SUB DUP2 ADD SWAP1 PUSH2 0x8A5 SWAP2 SWAP1 PUSH2 0x3B42 JUMP JUMPDEST PUSH2 0x18D2 JUMP JUMPDEST PUSH1 0x40 MLOAD PUSH2 0x8B7 SWAP2 SWAP1 PUSH2 0x3A86 JUMP JUMPDEST PUSH1 0x40 MLOAD DUP1 SWAP2 SUB SWAP1 RETURN JUMPDEST CALLVALUE DUP1 ISZERO PUSH2 0x8CB JUMPI PUSH0 DUP1 REVERT JUMPDEST POP PUSH2 0x8E6 PUSH1 0x4 DUP1 CALLDATASIZE SUB DUP2 ADD SWAP1 PUSH2 0x8E1 SWAP2 SWAP1 PUSH2 0x3A2E JUMP JUMPDEST PUSH2 0x18EF JUMP JUMPDEST PUSH1 0x40 MLOAD PUSH2 0x8F3 SWAP2 SWAP1 PUSH2 0x3A86 JUMP JUMPDEST PUSH1 0x40 MLOAD DUP1 SWAP2 SUB SWAP1 RETURN JUMPDEST CALLVALUE DUP1 ISZERO PUSH2 0x907 JUMPI PUSH0 DUP1 REVERT JUMPDEST POP PUSH2 0x922 PUSH1 0x4 DUP1 CALLDATASIZE SUB DUP2 ADD SWAP1 PUSH2 0x91D SWAP2 SWAP1 PUSH2 0x3A2E JUMP JUMPDEST PUSH2 0x1B6D JUMP JUMPDEST PUSH1 0x40 MLOAD PUSH2 0x92F SWAP2 SWAP1 PUSH2 0x3A86 JUMP JUMPDEST PUSH1 0x40 MLOAD DUP1 SWAP2 SUB SWAP1 RETURN JUMPDEST CALLVALUE DUP1 ISZERO PUSH2 0x943 JUMPI PUSH0 DUP1 REVERT JUMPDEST POP PUSH2 0x94C PUSH2 0x1BBD JUMP JUMPDEST PUSH1 0x40 MLOAD PUSH2 0x959 SWAP2 SWAP1 PUSH2 0x3A86 JUMP JUMPDEST PUSH1 0x40 MLOAD DUP1 SWAP2 SUB SWAP1 RETURN JUMPDEST CALLVALUE DUP1 ISZERO PUSH2 0x96D JUMPI PUSH0 DUP1 REVERT JUMPDEST POP PUSH2 0x976 PUSH2 0x1BCF JUMP JUMPDEST PUSH1 0x40 MLOAD PUSH2 0x983 SWAP2 SWAP1 PUSH2 0x3D54 JUMP JUMPDEST PUSH1 0x40 MLOAD DUP1 SWAP2 SUB SWAP1 RETURN JUMPDEST CALLVALUE DUP1 ISZERO PUSH2 0x997 JUMPI PUSH0 DUP1 REVERT JUMPDEST POP PUSH2 0x9B2 PUSH1 0x4 DUP1 CALLDATASIZE SUB DUP2 ADD SWAP1 PUSH2 0x9AD SWAP2 SWAP1 PUSH2 0x3B42 JUMP JUMPDEST PUSH2 0x1BF4 JUMP JUMPDEST STOP JUMPDEST CALLVALUE DUP1 ISZERO PUSH2 0x9BF JUMPI PUSH0 DUP1 REVERT JUMPDEST POP PUSH2 0x9C8 PUSH2 0x1FD9 JUMP JUMPDEST PUSH1 0x40 MLOAD PUSH2 0x9D5 SWAP2 SWAP1 PUSH2 0x3AAE JUMP JUMPDEST PUSH1 0x40 MLOAD DUP1 SWAP2 SUB SWAP1 RETURN JUMPDEST CALLVALUE DUP1 ISZERO PUSH2 0x9E9 JUMPI PUSH0 DUP1 REVERT JUMPDEST POP PUSH2 0xA04 PUSH1 0x4 DUP1 CALLDATASIZE SUB DUP2 ADD SWAP1 PUSH2 0x9FF SWAP2 SWAP1 PUSH2 0x3B42 JUMP JUMPDEST PUSH2 0x1FDF JUMP JUMPDEST PUSH1 0x40 MLOAD PUSH2 0xA11 SWAP2 SWAP1 PUSH2 0x3A86 JUMP JUMPDEST PUSH1 0x40 MLOAD DUP1 SWAP2 SUB SWAP1 RETURN JUMPDEST CALLVALUE DUP1 ISZERO PUSH2 0xA25 JUMPI PUSH0 DUP1 REVERT JUMPDEST POP PUSH2 0xA40 PUSH1 0x4 DUP1 CALLDATASIZE SUB DUP2 ADD SWAP1 PUSH2 0xA3B SWAP2 SWAP1 PUSH2 0x3D6D JUMP JUMPDEST PUSH2 0x2031 JUMP JUMPDEST PUSH1 0x40 MLOAD PUSH2 0xA4D SWAP2 SWAP1 PUSH2 0x3AAE JUMP JUMPDEST PUSH1 0x40 MLOAD DUP1 SWAP2 SUB SWAP1 RETURN JUMPDEST CALLVALUE DUP1 ISZERO PUSH2 0xA61 JUMPI PUSH0 DUP1 REVERT JUMPDEST POP PUSH2 0xA6A PUSH2 0x20B3 JUMP JUMPDEST PUSH1 0x40 MLOAD PUSH2 0xA77 SWAP2 SWAP1 PUSH2 0x3DCB JUMP JUMPDEST PUSH1 0x40 MLOAD DUP1 SWAP2 SUB SWAP1 RETURN JUMPDEST CALLVALUE DUP1 ISZERO PUSH2 0xA8B JUMPI PUSH0 DUP1 REVERT JUMPDEST POP PUSH2 0xAA6 PUSH1 0x4 DUP1 CALLDATASIZE SUB DUP2 ADD SWAP1 PUSH2 0xAA1 SWAP2 SWAP1 PUSH2 0x3C09 JUMP JUMPDEST PUSH2 0x20D8 JUMP JUMPDEST STOP JUMPDEST CALLVALUE DUP1 ISZERO PUSH2 0xAB3 JUMPI PUSH0 DUP1 REVERT JUMPDEST POP PUSH2 0xACE PUSH1 0x4 DUP1 CALLDATASIZE SUB DUP2 ADD SWAP1 PUSH2 0xAC9 SWAP2 SWAP1 PUSH2 0x3B17 JUMP JUMPDEST PUSH2 0x2130 JUMP JUMPDEST STOP JUMPDEST CALLVALUE DUP1 ISZERO PUSH2 0xADB JUMPI PUSH0 DUP1 REVERT JUMPDEST POP PUSH2 0xAE4 PUSH2 0x214A JUMP JUMPDEST PUSH1 0x40 MLOAD PUSH2 0xAF1 SWAP2 SWAP1 PUSH2 0x3E04 JUMP JUMPDEST PUSH1 0x40 MLOAD DUP1 SWAP2 SUB SWAP1 RETURN JUMPDEST CALLVALUE DUP1 ISZERO PUSH2 0xB05 JUMPI PUSH0 DUP1 REVERT JUMPDEST POP PUSH2 0xB20 PUSH1 0x4 DUP1 CALLDATASIZE SUB DUP2 ADD SWAP1 PUSH2 0xB1B SWAP2 SWAP1 PUSH2 0x3B42 JUMP JUMPDEST PUSH2 0x216F JUMP JUMPDEST STOP JUMPDEST CALLVALUE DUP1 ISZERO PUSH2 0xB2D JUMPI PUSH0 DUP1 REVERT JUMPDEST POP PUSH2 0xB48 PUSH1 0x4 DUP1 CALLDATASIZE SUB DUP2 ADD SWAP1 PUSH2 0xB43 SWAP2 SWAP1 PUSH2 0x3B42 JUMP JUMPDEST PUSH2 0x2289 JUMP JUMPDEST STOP JUMPDEST CALLVALUE DUP1 ISZERO PUSH2 0xB55 JUMPI PUSH0 DUP1 REVERT JUMPDEST POP PUSH2 0xB5E PUSH2 0x22A5 JUMP JUMPDEST PUSH1 0x40 MLOAD PUSH2 0xB6B SWAP2 SWAP1 PUSH2 0x3AAE JUMP JUMPDEST PUSH1 0x40 MLOAD DUP1 SWAP2 SUB SWAP1 RETURN JUMPDEST PUSH1 0x60 PUSH0 DUP1 SLOAD PUSH2 0xB82 SWAP1 PUSH2 0x3E4A JUMP JUMPDEST DUP1 PUSH1 0x1F ADD PUSH1 0x20 DUP1 SWAP2 DIV MUL PUSH1 0x20 ADD PUSH1 0x40 MLOAD SWAP1 DUP2 ADD PUSH1 0x40 MSTORE DUP1 SWAP3 SWAP2 SWAP1 DUP2 DUP2 MSTORE PUSH1 0x20 ADD DUP3 DUP1 SLOAD PUSH2 0xBAE SWAP1 PUSH2 0x3E4A JUMP JUMPDEST DUP1 ISZERO PUSH2 0xBF9 JUMPI DUP1 PUSH1 0x1F LT PUSH2 0xBD0 JUMPI PUSH2 0x100 DUP1 DUP4 SLOAD DIV MUL DUP4 MSTORE SWAP2 PUSH1 0x20 ADD SWAP2 PUSH2 0xBF9 JUMP JUMPDEST DUP3 ADD SWAP2 SWAP1 PUSH0 MSTORE PUSH1 0x20 PUSH0 KECCAK256 SWAP1 JUMPDEST DUP2 SLOAD DUP2 MSTORE SWAP1 PUSH1 0x1 ADD SWAP1 PUSH1 0x20 ADD DUP1 DUP4 GT PUSH2 0xBDC JUMPI DUP3 SWAP1 SUB PUSH1 0x1F AND DUP3 ADD SWAP2 JUMPDEST POP POP POP POP POP SWAP1 POP SWAP1 JUMP JUMPDEST PUSH0 DUP2 PUSH1 0x18 PUSH0 CALLER PUSH20 0xFFFFFFFFFFFFFFFFFFFFFFFFFFFFFFFFFFFFFFFF AND PUSH20 0xFFFFFFFFFFFFFFFFFFFFFFFFFFFFFFFFFFFFFFFF AND DUP2 MSTORE PUSH1 0x20 ADD SWAP1 DUP2 MSTORE PUSH1 0x20 ADD PUSH0 KECCAK256 PUSH0 DUP6 PUSH20 0xFFFFFFFFFFFFFFFFFFFFFFFFFFFFFFFFFFFFFFFF AND PUSH20 0xFFFFFFFFFFFFFFFFFFFFFFFFFFFFFFFFFFFFFFFF AND DUP2 MSTORE PUSH1 0x20 ADD SWAP1 DUP2 MSTORE PUSH1 0x20 ADD PUSH0 KECCAK256 DUP2 SWAP1 SSTORE POP DUP3 PUSH20 0xFFFFFFFFFFFFFFFFFFFFFFFFFFFFFFFFFFFFFFFF AND CALLER PUSH20 0xFFFFFFFFFFFFFFFFFFFFFFFFFFFFFFFFFFFFFFFF AND PUSH32 0x8C5BE1E5EBEC7D5BD14F71427D1E84F3DD0314C0F7B2291E5B200AC8C7C3B925 DUP5 PUSH1 0x40 MLOAD PUSH2 0xCDE SWAP2 SWAP1 PUSH2 0x3AAE JUMP JUMPDEST PUSH1 0x40 MLOAD DUP1 SWAP2 SUB SWAP1 LOG3 PUSH1 0x1 SWAP1 POP SWAP3 SWAP2 POP POP JUMP JUMPDEST PUSH1 0xE SLOAD DUP2 JUMP JUMPDEST PUSH0 PUSH1 0xC SLOAD SWAP1 POP SWAP1 JUMP JUMPDEST PUSH0 CALLER SWAP1 POP PUSH0 PUSH1 0x4 PUSH0 DUP4 PUSH20 0xFFFFFFFFFFFFFFFFFFFFFFFFFFFFFFFFFFFFFFFF AND PUSH20 0xFFFFFFFFFFFFFFFFFFFFFFFFFFFFFFFFFFFFFFFF AND DUP2 MSTORE PUSH1 0x20 ADD SWAP1 DUP2 MSTORE PUSH1 0x20 ADD PUSH0 KECCAK256 SLOAD SWAP1 POP TIMESTAMP PUSH1 0x5 SLOAD DUP3 PUSH2 0xD53 SWAP2 SWAP1 PUSH2 0x3EA7 JUMP JUMPDEST LT ISZERO PUSH2 0xD60 JUMPI POP POP PUSH2 0xE6F JUMP JUMPDEST TIMESTAMP PUSH1 0x4 PUSH0 DUP5 PUSH20 0xFFFFFFFFFFFFFFFFFFFFFFFFFFFFFFFFFFFFFFFF AND PUSH20 0xFFFFFFFFFFFFFFFFFFFFFFFFFFFFFFFFFFFFFFFF AND DUP2 MSTORE PUSH1 0x20 ADD SWAP1 DUP2 MSTORE PUSH1 0x20 ADD PUSH0 KECCAK256 DUP2 SWAP1 SSTORE POP PUSH0 PUSH1 0x3 PUSH0 SWAP1 SLOAD SWAP1 PUSH2 0x100 EXP SWAP1 DIV PUSH20 0xFFFFFFFFFFFFFFFFFFFFFFFFFFFFFFFFFFFFFFFF AND PUSH20 0xFFFFFFFFFFFFFFFFFFFFFFFFFFFFFFFFFFFFFFFF AND PUSH4 0x954FA5EE ADDRESS DUP6 PUSH1 0x40 MLOAD DUP4 PUSH4 0xFFFFFFFF AND PUSH1 0xE0 SHL DUP2 MSTORE PUSH1 0x4 ADD PUSH2 0xDFF SWAP3 SWAP2 SWAP1 PUSH2 0x3EDA JUMP JUMPDEST PUSH1 0x20 PUSH1 0x40 MLOAD DUP1 DUP4 SUB DUP2 PUSH0 DUP8 GAS CALL ISZERO DUP1 ISZERO PUSH2 0xE1B JUMPI RETURNDATASIZE PUSH0 DUP1 RETURNDATACOPY RETURNDATASIZE PUSH0 REVERT JUMPDEST POP POP POP POP PUSH1 0x40 MLOAD RETURNDATASIZE PUSH1 0x1F NOT PUSH1 0x1F DUP3 ADD AND DUP3 ADD DUP1 PUSH1 0x40 MSTORE POP DUP2 ADD SWAP1 PUSH2 0xE3F SWAP2 SWAP1 PUSH2 0x3F15 JUMP JUMPDEST SWAP1 POP PUSH0 DUP2 GT ISZERO PUSH2 0xE6B JUMPI DUP1 PUSH1 0x6 PUSH0 DUP3 DUP3 SLOAD PUSH2 0xE5A SWAP2 SWAP1 PUSH2 0x3EA7 JUMP JUMPDEST SWAP3 POP POP DUP2 SWAP1 SSTORE POP PUSH2 0xE6A DUP2 PUSH2 0x22AB JUMP JUMPDEST JUMPDEST POP POP POP JUMPDEST JUMP JUMPDEST PUSH0 DUP3 PUSH0 PUSH20 0xFFFFFFFFFFFFFFFFFFFFFFFFFFFFFFFFFFFFFFFF AND DUP2 PUSH20 0xFFFFFFFFFFFFFFFFFFFFFFFFFFFFFFFFFFFFFFFF AND SUB PUSH2 0xEAA JUMPI PUSH0 DUP1 REVERT JUMPDEST ADDRESS PUSH20 0xFFFFFFFFFFFFFFFFFFFFFFFFFFFFFFFFFFFFFFFF AND DUP6 PUSH20 0xFFFFFFFFFFFFFFFFFFFFFFFFFFFFFFFFFFFFFFFF AND EQ DUP1 ISZERO PUSH2 0xF31 JUMPI POP PUSH1 0x15 PUSH0 SWAP1 SLOAD SWAP1 PUSH2 0x100 EXP SWAP1 DIV PUSH20 0xFFFFFFFFFFFFFFFFFFFFFFFFFFFFFFFFFFFFFFFF AND PUSH20 0xFFFFFFFFFFFFFFFFFFFFFFFFFFFFFFFFFFFFFFFF AND DUP5 PUSH20 0xFFFFFFFFFFFFFFFFFFFFFFFFFFFFFFFFFFFFFFFF AND EQ JUMPDEST ISZERO PUSH2 0xF3F JUMPI PUSH1 0x1 SWAP2 POP PUSH2 0x108E JUMP JUMPDEST PUSH2 0x1001 DUP4 PUSH1 0x40 MLOAD DUP1 PUSH1 0x40 ADD PUSH1 0x40 MSTORE DUP1 PUSH1 0x16 DUP2 MSTORE PUSH1 0x20 ADD PUSH32 0x496E73756666696369656E7420416C6C6F77616E636500000000000000000000 DUP2 MSTORE POP PUSH1 0x18 PUSH0 DUP10 PUSH20 0xFFFFFFFFFFFFFFFFFFFFFFFFFFFFFFFFFFFFFFFF AND PUSH20 0xFFFFFFFFFFFFFFFFFFFFFFFFFFFFFFFFFFFFFFFF AND DUP2 MSTORE PUSH1 0x20 ADD SWAP1 DUP2 MSTORE PUSH1 0x20 ADD PUSH0 KECCAK256 PUSH0 CALLER PUSH20 0xFFFFFFFFFFFFFFFFFFFFFFFFFFFFFFFFFFFFFFFF AND PUSH20 0xFFFFFFFFFFFFFFFFFFFFFFFFFFFFFFFFFFFFFFFF AND DUP2 MSTORE PUSH1 0x20 ADD SWAP1 DUP2 MSTORE PUSH1 0x20 ADD PUSH0 KECCAK256 SLOAD PUSH2 0x22B7 SWAP1 SWAP3 SWAP2 SWAP1 PUSH4 0xFFFFFFFF AND JUMP JUMPDEST PUSH1 0x18 PUSH0 DUP8 PUSH20 0xFFFFFFFFFFFFFFFFFFFFFFFFFFFFFFFFFFFFFFFF AND PUSH20 0xFFFFFFFFFFFFFFFFFFFFFFFFFFFFFFFFFFFFFFFF AND DUP2 MSTORE PUSH1 0x20 ADD SWAP1 DUP2 MSTORE PUSH1 0x20 ADD PUSH0 KECCAK256 PUSH0 CALLER PUSH20 0xFFFFFFFFFFFFFFFFFFFFFFFFFFFFFFFFFFFFFFFF AND PUSH20 0xFFFFFFFFFFFFFFFFFFFFFFFFFFFFFFFFFFFFFFFF AND DUP2 MSTORE PUSH1 0x20 ADD SWAP1 DUP2 MSTORE PUSH1 0x20 ADD PUSH0 KECCAK256 DUP2 SWAP1 SSTORE POP PUSH2 0x1088 DUP6 DUP6 DUP6 PUSH2 0x230B JUMP JUMPDEST POP PUSH1 0x1 SWAP2 POP JUMPDEST POP SWAP4 SWAP3 POP POP POP JUMP JUMPDEST PUSH2 0x109E PUSH2 0x17AD JUMP JUMPDEST PUSH2 0x10A6 JUMPI PUSH0 DUP1 REVERT JUMPDEST DUP1 PUSH1 0x8 DUP2 SWAP1 SSTORE POP POP JUMP JUMPDEST PUSH2 0x10B8 PUSH2 0x17AD JUMP JUMPDEST PUSH2 0x10C0 JUMPI PUSH0 DUP1 REVERT JUMPDEST DUP1 PUSH1 0x16 PUSH0 PUSH2 0x100 EXP DUP2 SLOAD DUP2 PUSH20 0xFFFFFFFFFFFFFFFFFFFFFFFFFFFFFFFFFFFFFFFF MUL NOT AND SWAP1 DUP4 PUSH20 0xFFFFFFFFFFFFFFFFFFFFFFFFFFFFFFFFFFFFFFFF AND MUL OR SWAP1 SSTORE POP POP JUMP JUMPDEST PUSH0 PUSH1 0x2 PUSH0 SWAP1 SLOAD SWAP1 PUSH2 0x100 EXP SWAP1 DIV PUSH1 0xFF AND SWAP1 POP SWAP1 JUMP JUMPDEST PUSH1 0xB SLOAD DUP2 JUMP JUMPDEST PUSH2 0x1126 PUSH2 0x17AD JUMP JUMPDEST PUSH2 0x112E JUMPI PUSH0 DUP1 REVERT JUMPDEST DUP1 PUSH1 0x13 PUSH0 DUP5 PUSH20 0xFFFFFFFFFFFFFFFFFFFFFFFFFFFFFFFFFFFFFFFF AND PUSH20 0xFFFFFFFFFFFFFFFFFFFFFFFFFFFFFFFFFFFFFFFF AND DUP2 MSTORE PUSH1 0x20 ADD SWAP1 DUP2 MSTORE PUSH1 0x20 ADD PUSH0 KECCAK256 PUSH0 PUSH2 0x100 EXP DUP2 SLOAD DUP2 PUSH1 0xFF MUL NOT AND SWAP1 DUP4 ISZERO ISZERO MUL OR SWAP1 SSTORE POP POP POP JUMP JUMPDEST PUSH0 PUSH2 0x1212 DUP3 PUSH1 0x18 PUSH0 CALLER PUSH20 0xFFFFFFFFFFFFFFFFFFFFFFFFFFFFFFFFFFFFFFFF AND PUSH20 0xFFFFFFFFFFFFFFFFFFFFFFFFFFFFFFFFFFFFFFFF AND DUP2 MSTORE PUSH1 0x20 ADD SWAP1 DUP2 MSTORE PUSH1 0x20 ADD PUSH0 KECCAK256 PUSH0 DUP7 PUSH20 0xFFFFFFFFFFFFFFFFFFFFFFFFFFFFFFFFFFFFFFFF AND PUSH20 0xFFFFFFFFFFFFFFFFFFFFFFFFFFFFFFFFFFFFFFFF AND DUP2 MSTORE PUSH1 0x20 ADD SWAP1 DUP2 MSTORE PUSH1 0x20 ADD PUSH0 KECCAK256 SLOAD PUSH2 0x25FD SWAP1 SWAP2 SWAP1 PUSH4 0xFFFFFFFF AND JUMP JUMPDEST PUSH1 0x18 PUSH0 CALLER PUSH20 0xFFFFFFFFFFFFFFFFFFFFFFFFFFFFFFFFFFFFFFFF AND PUSH20 0xFFFFFFFFFFFFFFFFFFFFFFFFFFFFFFFFFFFFFFFF AND DUP2 MSTORE PUSH1 0x20 ADD SWAP1 DUP2 MSTORE PUSH1 0x20 ADD PUSH0 KECCAK256 PUSH0 DUP6 PUSH20 0xFFFFFFFFFFFFFFFFFFFFFFFFFFFFFFFFFFFFFFFF AND PUSH20 0xFFFFFFFFFFFFFFFFFFFFFFFFFFFFFFFFFFFFFFFF AND DUP2 MSTORE PUSH1 0x20 ADD SWAP1 DUP2 MSTORE PUSH1 0x20 ADD PUSH0 KECCAK256 DUP2 SWAP1 SSTORE POP DUP3 PUSH20 0xFFFFFFFFFFFFFFFFFFFFFFFFFFFFFFFFFFFFFFFF AND CALLER PUSH20 0xFFFFFFFFFFFFFFFFFFFFFFFFFFFFFFFFFFFFFFFF AND PUSH32 0x8C5BE1E5EBEC7D5BD14F71427D1E84F3DD0314C0F7B2291E5B200AC8C7C3B925 PUSH1 0x18 PUSH0 CALLER PUSH20 0xFFFFFFFFFFFFFFFFFFFFFFFFFFFFFFFFFFFFFFFF AND PUSH20 0xFFFFFFFFFFFFFFFFFFFFFFFFFFFFFFFFFFFFFFFF AND DUP2 MSTORE PUSH1 0x20 ADD SWAP1 DUP2 MSTORE PUSH1 0x20 ADD PUSH0 KECCAK256 PUSH0 DUP8 PUSH20 0xFFFFFFFFFFFFFFFFFFFFFFFFFFFFFFFFFFFFFFFF AND PUSH20 0xFFFFFFFFFFFFFFFFFFFFFFFFFFFFFFFFFFFFFFFF AND DUP2 MSTORE PUSH1 0x20 ADD SWAP1 DUP2 MSTORE PUSH1 0x20 ADD PUSH0 KECCAK256 SLOAD PUSH1 0x40 MLOAD PUSH2 0x1363 SWAP2 SWAP1 PUSH2 0x3AAE JUMP JUMPDEST PUSH1 0x40 MLOAD DUP1 SWAP2 SUB SWAP1 LOG3 PUSH1 0x1 SWAP1 POP SWAP3 SWAP2 POP POP JUMP JUMPDEST PUSH1 0x9 PUSH1 0x3 SWAP1 SLOAD SWAP1 PUSH2 0x100 EXP SWAP1 DIV PUSH1 0xFF AND DUP2 JUMP JUMPDEST PUSH1 0xC SLOAD DUP2 JUMP JUMPDEST PUSH1 0x7 SLOAD DUP2 JUMP JUMPDEST PUSH1 0x5 SLOAD DUP2 JUMP JUMPDEST PUSH2 0x13A2 PUSH2 0x17AD JUMP JUMPDEST PUSH2 0x13AA JUMPI PUSH0 DUP1 REVERT JUMPDEST DUP1 ISZERO PUSH2 0x13CF JUMPI DUP1 PUSH1 0x9 PUSH1 0x1 PUSH2 0x100 EXP DUP2 SLOAD DUP2 PUSH1 0xFF MUL NOT AND SWAP1 DUP4 ISZERO ISZERO MUL OR SWAP1 SSTORE POP PUSH2 0x13EA JUMP JUMPDEST DUP1 PUSH1 0x9 PUSH1 0x1 PUSH2 0x100 EXP DUP2 SLOAD DUP2 PUSH1 0xFF MUL NOT AND SWAP1 DUP4 ISZERO ISZERO MUL OR SWAP1 SSTORE POP JUMPDEST POP JUMP JUMPDEST PUSH2 0x13F5 PUSH2 0x17AD JUMP JUMPDEST PUSH2 0x13FD JUMPI PUSH0 DUP1 REVERT JUMPDEST PUSH2 0x1405 PUSH2 0x2612 JUMP JUMPDEST JUMP JUMPDEST PUSH2 0x140F PUSH2 0x17AD JUMP JUMPDEST PUSH2 0x1417 JUMPI PUSH0 DUP1 REVERT JUMPDEST DUP1 ISZERO PUSH2 0x143C JUMPI DUP1 PUSH1 0x9 PUSH1 0x2 PUSH2 0x100 EXP DUP2 SLOAD DUP2 PUSH1 0xFF MUL NOT AND SWAP1 DUP4 ISZERO ISZERO MUL OR SWAP1 SSTORE POP PUSH2 0x1457 JUMP JUMPDEST DUP1 PUSH1 0x9 PUSH1 0x2 PUSH2 0x100 EXP DUP2 SLOAD DUP2 PUSH1 0xFF MUL NOT AND SWAP1 DUP4 ISZERO ISZERO MUL OR SWAP1 SSTORE POP JUMPDEST POP JUMP JUMPDEST PUSH2 0x1462 PUSH2 0x17AD JUMP JUMPDEST PUSH2 0x146A JUMPI PUSH0 DUP1 REVERT JUMPDEST PUSH2 0x1472 PUSH2 0x28E8 JUMP JUMPDEST JUMP JUMPDEST PUSH2 0x147C PUSH2 0x17AD JUMP JUMPDEST PUSH2 0x1484 JUMPI PUSH0 DUP1 REVERT JUMPDEST DUP1 PUSH1 0x7 DUP2 SWAP1 SSTORE POP POP JUMP JUMPDEST PUSH0 PUSH1 0x10 PUSH0 DUP4 PUSH20 0xFFFFFFFFFFFFFFFFFFFFFFFFFFFFFFFFFFFFFFFF AND PUSH20 0xFFFFFFFFFFFFFFFFFFFFFFFFFFFFFFFFFFFFFFFF AND DUP2 MSTORE PUSH1 0x20 ADD SWAP1 DUP2 MSTORE PUSH1 0x20 ADD PUSH0 KECCAK256 SLOAD SWAP1 POP SWAP2 SWAP1 POP JUMP JUMPDEST PUSH1 0x9 PUSH1 0x1 SWAP1 SLOAD SWAP1 PUSH2 0x100 EXP SWAP1 DIV PUSH1 0xFF AND DUP2 JUMP JUMPDEST PUSH2 0x14EF PUSH2 0x17AD JUMP JUMPDEST PUSH2 0x14F7 JUMPI PUSH0 DUP1 REVERT JUMPDEST PUSH1 0x2 PUSH1 0x1 SWAP1 SLOAD SWAP1 PUSH2 0x100 EXP SWAP1 DIV PUSH20 0xFFFFFFFFFFFFFFFFFFFFFFFFFFFFFFFFFFFFFFFF AND PUSH20 0xFFFFFFFFFFFFFFFFFFFFFFFFFFFFFFFFFFFFFFFF AND PUSH32 0xF8DF31144D9C2F0F6B59D69B8B98ABD5459D07F2742C4DF920B25AAE33C64820 PUSH1 0x40 MLOAD PUSH1 0x40 MLOAD DUP1 SWAP2 SUB SWAP1 LOG2 PUSH0 PUSH1 0x2 PUSH1 0x1 PUSH2 0x100 EXP DUP2 SLOAD DUP2 PUSH20 0xFFFFFFFFFFFFFFFFFFFFFFFFFFFFFFFFFFFFFFFF MUL NOT AND SWAP1 DUP4 PUSH20 0xFFFFFFFFFFFFFFFFFFFFFFFFFFFFFFFFFFFFFFFF AND MUL OR SWAP1 SSTORE POP JUMP JUMPDEST PUSH1 0x16 PUSH0 SWAP1 SLOAD SWAP1 PUSH2 0x100 EXP SWAP1 DIV PUSH20 0xFFFFFFFFFFFFFFFFFFFFFFFFFFFFFFFFFFFFFFFF AND PUSH20 0xFFFFFFFFFFFFFFFFFFFFFFFFFFFFFFFFFFFFFFFF AND PUSH4 0xFFF6CAE9 PUSH1 0x40 MLOAD DUP2 PUSH4 0xFFFFFFFF AND PUSH1 0xE0 SHL DUP2 MSTORE PUSH1 0x4 ADD PUSH0 PUSH1 0x40 MLOAD DUP1 DUP4 SUB DUP2 PUSH0 DUP8 DUP1 EXTCODESIZE ISZERO DUP1 ISZERO PUSH2 0x1605 JUMPI PUSH0 DUP1 REVERT JUMPDEST POP GAS CALL ISZERO DUP1 ISZERO PUSH2 0x1617 JUMPI RETURNDATASIZE PUSH0 DUP1 RETURNDATACOPY RETURNDATASIZE PUSH0 REVERT JUMPDEST POP POP POP POP JUMP JUMPDEST PUSH1 0x9 PUSH1 0x4 SWAP1 SLOAD SWAP1 PUSH2 0x100 EXP SWAP1 DIV PUSH1 0xFF AND DUP2 JUMP JUMPDEST PUSH2 0x1638 PUSH2 0x17AD JUMP JUMPDEST PUSH2 0x1640 JUMPI PUSH0 DUP1 REVERT JUMPDEST PUSH3 0xF4240 DUP5 PUSH1 0xC SLOAD PUSH2 0x1652 SWAP2 SWAP1 PUSH2 0x3F40 JUMP JUMPDEST PUSH2 0x165C SWAP2 SWAP1 PUSH2 0x3FAE JUMP JUMPDEST PUSH1 0xE DUP2 SWAP1 SSTORE POP PUSH3 0xF4240 DUP4 PUSH1 0xC SLOAD PUSH2 0x1674 SWAP2 SWAP1 PUSH2 0x3F40 JUMP JUMPDEST PUSH2 0x167E SWAP2 SWAP1 PUSH2 0x3FAE JUMP JUMPDEST PUSH1 0xD DUP2 SWAP1 SSTORE POP DUP2 PUSH1 0x9 PUSH1 0x4 PUSH2 0x100 EXP DUP2 SLOAD DUP2 PUSH1 0xFF MUL NOT AND SWAP1 DUP4 ISZERO ISZERO MUL OR SWAP1 SSTORE POP DUP1 PUSH1 0x9 PUSH1 0x3 PUSH2 0x100 EXP DUP2 SLOAD DUP2 PUSH1 0xFF MUL NOT AND SWAP1 DUP4 ISZERO ISZERO MUL OR SWAP1 SSTORE POP PUSH1 0xD SLOAD PUSH1 0xE SLOAD GT ISZERO PUSH2 0x16FF JUMPI PUSH1 0x40 MLOAD PUSH32 0x8C379A000000000000000000000000000000000000000000000000000000000 DUP2 MSTORE PUSH1 0x4 ADD PUSH2 0x16F6 SWAP1 PUSH2 0x404E JUMP JUMPDEST PUSH1 0x40 MLOAD DUP1 SWAP2 SUB SWAP1 REVERT JUMPDEST POP POP POP POP JUMP JUMPDEST PUSH0 PUSH1 0x17 PUSH1 0x14 SWAP1 SLOAD SWAP1 PUSH2 0x100 EXP SWAP1 DIV PUSH1 0xFF AND ISZERO SWAP1 POP SWAP1 JUMP JUMPDEST PUSH2 0x1724 PUSH2 0x17AD JUMP JUMPDEST PUSH2 0x172C JUMPI PUSH0 DUP1 REVERT JUMPDEST PUSH1 0x1 PUSH1 0x12 PUSH0 DUP4 PUSH20 0xFFFFFFFFFFFFFFFFFFFFFFFFFFFFFFFFFFFFFFFF AND PUSH20 0xFFFFFFFFFFFFFFFFFFFFFFFFFFFFFFFFFFFFFFFF AND DUP2 MSTORE PUSH1 0x20 ADD SWAP1 DUP2 MSTORE PUSH1 0x20 ADD PUSH0 KECCAK256 PUSH0 PUSH2 0x100 EXP DUP2 SLOAD DUP2 PUSH1 0xFF MUL NOT AND SWAP1 DUP4 ISZERO ISZERO MUL OR SWAP1 SSTORE POP POP JUMP JUMPDEST PUSH0 PUSH1 0x2 PUSH1 0x1 SWAP1 SLOAD SWAP1 PUSH2 0x100 EXP SWAP1 DIV PUSH20 0xFFFFFFFFFFFFFFFFFFFFFFFFFFFFFFFFFFFFFFFF AND SWAP1 POP SWAP1 JUMP JUMPDEST PUSH0 PUSH1 0x2 PUSH1 0x1 SWAP1 SLOAD SWAP1 PUSH2 0x100 EXP SWAP1 DIV PUSH20 0xFFFFFFFFFFFFFFFFFFFFFFFFFFFFFFFFFFFFFFFF AND PUSH20 0xFFFFFFFFFFFFFFFFFFFFFFFFFFFFFFFFFFFFFFFF AND CALLER PUSH20 0xFFFFFFFFFFFFFFFFFFFFFFFFFFFFFFFFFFFFFFFF AND EQ SWAP1 POP SWAP1 JUMP JUMPDEST PUSH1 0x60 PUSH1 0x1 DUP1 SLOAD PUSH2 0x1813 SWAP1 PUSH2 0x3E4A JUMP JUMPDEST DUP1 PUSH1 0x1F ADD PUSH1 0x20 DUP1 SWAP2 DIV MUL PUSH1 0x20 ADD PUSH1 0x40 MLOAD SWAP1 DUP2 ADD PUSH1 0x40 MSTORE DUP1 SWAP3 SWAP2 SWAP1 DUP2 DUP2 MSTORE PUSH1 0x20 ADD DUP3 DUP1 SLOAD PUSH2 0x183F SWAP1 PUSH2 0x3E4A JUMP JUMPDEST DUP1 ISZERO PUSH2 0x188A JUMPI DUP1 PUSH1 0x1F LT PUSH2 0x1861 JUMPI PUSH2 0x100 DUP1 DUP4 SLOAD DIV MUL DUP4 MSTORE SWAP2 PUSH1 0x20 ADD SWAP2 PUSH2 0x188A JUMP JUMPDEST DUP3 ADD SWAP2 SWAP1 PUSH0 MSTORE PUSH1 0x20 PUSH0 KECCAK256 SWAP1 JUMPDEST DUP2 SLOAD DUP2 MSTORE SWAP1 PUSH1 0x1 ADD SWAP1 PUSH1 0x20 ADD DUP1 DUP4 GT PUSH2 0x186D JUMPI DUP3 SWAP1 SUB PUSH1 0x1F AND DUP3 ADD SWAP2 JUMPDEST POP POP POP POP POP SWAP1 POP SWAP1 JUMP JUMPDEST PUSH1 0x9 PUSH1 0x2 SWAP1 SLOAD SWAP1 PUSH2 0x100 EXP SWAP1 DIV PUSH1 0xFF AND DUP2 JUMP JUMPDEST PUSH1 0x3 PUSH0 SWAP1 SLOAD SWAP1 PUSH2 0x100 EXP SWAP1 DIV PUSH20 0xFFFFFFFFFFFFFFFFFFFFFFFFFFFFFFFFFFFFFFFF AND DUP2 JUMP JUMPDEST PUSH1 0xA SLOAD DUP2 JUMP JUMPDEST PUSH1 0x13 PUSH1 0x20 MSTORE DUP1 PUSH0 MSTORE PUSH1 0x40 PUSH0 KECCAK256 PUSH0 SWAP2 POP SLOAD SWAP1 PUSH2 0x100 EXP SWAP1 DIV PUSH1 0xFF AND DUP2 JUMP JUMPDEST PUSH0 DUP1 PUSH1 0x18 PUSH0 CALLER PUSH20 0xFFFFFFFFFFFFFFFFFFFFFFFFFFFFFFFFFFFFFFFF AND PUSH20 0xFFFFFFFFFFFFFFFFFFFFFFFFFFFFFFFFFFFFFFFF AND DUP2 MSTORE PUSH1 0x20 ADD SWAP1 DUP2 MSTORE PUSH1 0x20 ADD PUSH0 KECCAK256 PUSH0 DUP6 PUSH20 0xFFFFFFFFFFFFFFFFFFFFFFFFFFFFFFFFFFFFFFFF AND PUSH20 0xFFFFFFFFFFFFFFFFFFFFFFFFFFFFFFFFFFFFFFFF AND DUP2 MSTORE PUSH1 0x20 ADD SWAP1 DUP2 MSTORE PUSH1 0x20 ADD PUSH0 KECCAK256 SLOAD SWAP1 POP DUP1 DUP4 LT PUSH2 0x19F5 JUMPI PUSH0 PUSH1 0x18 PUSH0 CALLER PUSH20 0xFFFFFFFFFFFFFFFFFFFFFFFFFFFFFFFFFFFFFFFF AND PUSH20 0xFFFFFFFFFFFFFFFFFFFFFFFFFFFFFFFFFFFFFFFF AND DUP2 MSTORE PUSH1 0x20 ADD SWAP1 DUP2 MSTORE PUSH1 0x20 ADD PUSH0 KECCAK256 PUSH0 DUP7 PUSH20 0xFFFFFFFFFFFFFFFFFFFFFFFFFFFFFFFFFFFFFFFF AND PUSH20 0xFFFFFFFFFFFFFFFFFFFFFFFFFFFFFFFFFFFFFFFF AND DUP2 MSTORE PUSH1 0x20 ADD SWAP1 DUP2 MSTORE PUSH1 0x20 ADD PUSH0 KECCAK256 DUP2 SWAP1 SSTORE POP PUSH2 0x1A85 JUMP JUMPDEST PUSH2 0x1A08 DUP4 DUP3 PUSH2 0x2B5A SWAP1 SWAP2 SWAP1 PUSH4 0xFFFFFFFF AND JUMP JUMPDEST PUSH1 0x18 PUSH0 CALLER PUSH20 0xFFFFFFFFFFFFFFFFFFFFFFFFFFFFFFFFFFFFFFFF AND PUSH20 0xFFFFFFFFFFFFFFFFFFFFFFFFFFFFFFFFFFFFFFFF AND DUP2 MSTORE PUSH1 0x20 ADD SWAP1 DUP2 MSTORE PUSH1 0x20 ADD PUSH0 KECCAK256 PUSH0 DUP7 PUSH20 0xFFFFFFFFFFFFFFFFFFFFFFFFFFFFFFFFFFFFFFFF AND PUSH20 0xFFFFFFFFFFFFFFFFFFFFFFFFFFFFFFFFFFFFFFFF AND DUP2 MSTORE PUSH1 0x20 ADD SWAP1 DUP2 MSTORE PUSH1 0x20 ADD PUSH0 KECCAK256 DUP2 SWAP1 SSTORE POP JUMPDEST DUP4 PUSH20 0xFFFFFFFFFFFFFFFFFFFFFFFFFFFFFFFFFFFFFFFF AND CALLER PUSH20 0xFFFFFFFFFFFFFFFFFFFFFFFFFFFFFFFFFFFFFFFF AND PUSH32 0x8C5BE1E5EBEC7D5BD14F71427D1E84F3DD0314C0F7B2291E5B200AC8C7C3B925 PUSH1 0x18 PUSH0 CALLER PUSH20 0xFFFFFFFFFFFFFFFFFFFFFFFFFFFFFFFFFFFFFFFF AND PUSH20 0xFFFFFFFFFFFFFFFFFFFFFFFFFFFFFFFFFFFFFFFF AND DUP2 MSTORE PUSH1 0x20 ADD SWAP1 DUP2 MSTORE PUSH1 0x20 ADD PUSH0 KECCAK256 PUSH0 DUP9 PUSH20 0xFFFFFFFFFFFFFFFFFFFFFFFFFFFFFFFFFFFFFFFF AND PUSH20 0xFFFFFFFFFFFFFFFFFFFFFFFFFFFFFFFFFFFFFFFF AND DUP2 MSTORE PUSH1 0x20 ADD SWAP1 DUP2 MSTORE PUSH1 0x20 ADD PUSH0 KECCAK256 SLOAD PUSH1 0x40 MLOAD PUSH2 0x1B5A SWAP2 SWAP1 PUSH2 0x3AAE JUMP JUMPDEST PUSH1 0x40 MLOAD DUP1 SWAP2 SUB SWAP1 LOG3 PUSH1 0x1 SWAP2 POP POP SWAP3 SWAP2 POP POP JUMP JUMPDEST PUSH0 DUP3 PUSH0 PUSH20 0xFFFFFFFFFFFFFFFFFFFFFFFFFFFFFFFFFFFFFFFF AND DUP2 PUSH20 0xFFFFFFFFFFFFFFFFFFFFFFFFFFFFFFFFFFFFFFFF AND SUB PUSH2 0x1BA6 JUMPI PUSH0 DUP1 REVERT JUMPDEST PUSH2 0x1BB1 CALLER DUP6 DUP6 PUSH2 0x230B JUMP JUMPDEST POP PUSH1 0x1 SWAP2 POP POP SWAP3 SWAP2 POP POP JUMP JUMPDEST PUSH1 0x9 PUSH0 SWAP1 SLOAD SWAP1 PUSH2 0x100 EXP SWAP1 DIV PUSH1 0xFF AND DUP2 JUMP JUMPDEST PUSH1 0x16 PUSH0 SWAP1 SLOAD SWAP1 PUSH2 0x100 EXP SWAP1 DIV PUSH20 0xFFFFFFFFFFFFFFFFFFFFFFFFFFFFFFFFFFFFFFFF AND DUP2 JUMP JUMPDEST PUSH2 0x1BFC PUSH2 0x17AD JUMP JUMPDEST PUSH2 0x1C04 JUMPI PUSH0 DUP1 REVERT JUMPDEST PUSH0 DUP1 PUSH20 0xFFFFFFFFFFFFFFFFFFFFFFFFFFFFFFFFFFFFFFFF AND PUSH1 0x15 PUSH0 SWAP1 SLOAD SWAP1 PUSH2 0x100 EXP SWAP1 DIV PUSH20 0xFFFFFFFFFFFFFFFFFFFFFFFFFFFFFFFFFFFFFFFF AND PUSH20 0xFFFFFFFFFFFFFFFFFFFFFFFFFFFFFFFFFFFFFFFF AND EQ SWAP1 POP DUP2 PUSH1 0x15 PUSH0 PUSH2 0x100 EXP DUP2 SLOAD DUP2 PUSH20 0xFFFFFFFFFFFFFFFFFFFFFFFFFFFFFFFFFFFFFFFF MUL NOT AND SWAP1 DUP4 PUSH20 0xFFFFFFFFFFFFFFFFFFFFFFFFFFFFFFFFFFFFFFFF AND MUL OR SWAP1 SSTORE POP PUSH1 0x15 PUSH0 SWAP1 SLOAD SWAP1 PUSH2 0x100 EXP SWAP1 DIV PUSH20 0xFFFFFFFFFFFFFFFFFFFFFFFFFFFFFFFFFFFFFFFF AND PUSH20 0xFFFFFFFFFFFFFFFFFFFFFFFFFFFFFFFFFFFFFFFF AND PUSH4 0xAD5C4648 PUSH1 0x40 MLOAD DUP2 PUSH4 0xFFFFFFFF AND PUSH1 0xE0 SHL DUP2 MSTORE PUSH1 0x4 ADD PUSH1 0x20 PUSH1 0x40 MLOAD DUP1 DUP4 SUB DUP2 DUP7 GAS STATICCALL SWAP3 POP POP POP DUP1 ISZERO PUSH2 0x1D20 JUMPI POP PUSH1 0x40 MLOAD RETURNDATASIZE PUSH1 0x1F NOT PUSH1 0x1F DUP3 ADD AND DUP3 ADD DUP1 PUSH1 0x40 MSTORE POP DUP2 ADD SWAP1 PUSH2 0x1D1D SWAP2 SWAP1 PUSH2 0x4080 JUMP JUMPDEST PUSH1 0x1 JUMPDEST PUSH2 0x1D31 JUMPI PUSH2 0x1D2C PUSH2 0x2B6F JUMP JUMPDEST PUSH2 0x1D73 JUMP JUMPDEST DUP1 PUSH1 0x17 PUSH0 PUSH2 0x100 EXP DUP2 SLOAD DUP2 PUSH20 0xFFFFFFFFFFFFFFFFFFFFFFFFFFFFFFFFFFFFFFFF MUL NOT AND SWAP1 DUP4 PUSH20 0xFFFFFFFFFFFFFFFFFFFFFFFFFFFFFFFFFFFFFFFF AND MUL OR SWAP1 SSTORE POP POP JUMPDEST PUSH0 PUSH1 0x17 PUSH0 SWAP1 SLOAD SWAP1 PUSH2 0x100 EXP SWAP1 DIV PUSH20 0xFFFFFFFFFFFFFFFFFFFFFFFFFFFFFFFFFFFFFFFF AND SWAP1 POP PUSH0 PUSH20 0xFFFFFFFFFFFFFFFFFFFFFFFFFFFFFFFFFFFFFFFF AND PUSH1 0x16 PUSH0 SWAP1 SLOAD SWAP1 PUSH2 0x100 EXP SWAP1 DIV PUSH20 0xFFFFFFFFFFFFFFFFFFFFFFFFFFFFFFFFFFFFFFFF AND PUSH20 0xFFFFFFFFFFFFFFFFFFFFFFFFFFFFFFFFFFFFFFFF AND EQ DUP1 ISZERO PUSH2 0x1E20 JUMPI POP PUSH0 PUSH20 0xFFFFFFFFFFFFFFFFFFFFFFFFFFFFFFFFFFFFFFFF AND DUP2 PUSH20 0xFFFFFFFFFFFFFFFFFFFFFFFFFFFFFFFFFFFFFFFF AND EQ ISZERO JUMPDEST ISZERO PUSH2 0x1F75 JUMPI PUSH0 PUSH1 0x15 PUSH0 SWAP1 SLOAD SWAP1 PUSH2 0x100 EXP SWAP1 DIV PUSH20 0xFFFFFFFFFFFFFFFFFFFFFFFFFFFFFFFFFFFFFFFF AND PUSH20 0xFFFFFFFFFFFFFFFFFFFFFFFFFFFFFFFFFFFFFFFF AND PUSH4 0xC45A0155 PUSH1 0x40 MLOAD DUP2 PUSH4 0xFFFFFFFF AND PUSH1 0xE0 SHL DUP2 MSTORE PUSH1 0x4 ADD PUSH1 0x20 PUSH1 0x40 MLOAD DUP1 DUP4 SUB DUP2 DUP7 GAS STATICCALL ISZERO DUP1 ISZERO PUSH2 0x1E90 JUMPI RETURNDATASIZE PUSH0 DUP1 RETURNDATACOPY RETURNDATASIZE PUSH0 REVERT JUMPDEST POP POP POP POP PUSH1 0x40 MLOAD RETURNDATASIZE PUSH1 0x1F NOT PUSH1 0x1F DUP3 ADD AND DUP3 ADD DUP1 PUSH1 0x40 MSTORE POP DUP2 ADD SWAP1 PUSH2 0x1EB4 SWAP2 SWAP1 PUSH2 0x4080 JUMP JUMPDEST SWAP1 POP DUP1 PUSH20 0xFFFFFFFFFFFFFFFFFFFFFFFFFFFFFFFFFFFFFFFF AND PUSH4 0xC9C65396 DUP4 ADDRESS PUSH1 0x40 MLOAD DUP4 PUSH4 0xFFFFFFFF AND PUSH1 0xE0 SHL DUP2 MSTORE PUSH1 0x4 ADD PUSH2 0x1EF1 SWAP3 SWAP2 SWAP1 PUSH2 0x3EDA JUMP JUMPDEST PUSH1 0x20 PUSH1 0x40 MLOAD DUP1 DUP4 SUB DUP2 PUSH0 DUP8 GAS CALL SWAP3 POP POP POP DUP1 ISZERO PUSH2 0x1F2C JUMPI POP PUSH1 0x40 MLOAD RETURNDATASIZE PUSH1 0x1F NOT PUSH1 0x1F DUP3 ADD AND DUP3 ADD DUP1 PUSH1 0x40 MSTORE POP DUP2 ADD SWAP1 PUSH2 0x1F29 SWAP2 SWAP1 PUSH2 0x4080 JUMP JUMPDEST PUSH1 0x1 JUMPDEST ISZERO PUSH2 0x1F73 JUMPI DUP1 PUSH1 0x16 PUSH0 PUSH2 0x100 EXP DUP2 SLOAD DUP2 PUSH20 0xFFFFFFFFFFFFFFFFFFFFFFFFFFFFFFFFFFFFFFFF MUL NOT AND SWAP1 DUP4 PUSH20 0xFFFFFFFFFFFFFFFFFFFFFFFFFFFFFFFFFFFFFFFF AND MUL OR SWAP1 SSTORE POP POP JUMPDEST POP JUMPDEST DUP2 ISZERO PUSH2 0x1FD4 JUMPI PUSH1 0x1 PUSH1 0x9 PUSH0 PUSH2 0x100 EXP DUP2 SLOAD DUP2 PUSH1 0xFF MUL NOT AND SWAP1 DUP4 ISZERO ISZERO MUL OR SWAP1 SSTORE POP PUSH1 0x1 PUSH1 0x9 PUSH1 0x1 PUSH2 0x100 EXP DUP2 SLOAD DUP2 PUSH1 0xFF MUL NOT AND SWAP1 DUP4 ISZERO ISZERO MUL OR SWAP1 SSTORE POP PUSH1 0x1 PUSH1 0x9 PUSH1 0x2 PUSH2 0x100 EXP DUP2 SLOAD DUP2 PUSH1 0xFF MUL NOT AND SWAP1 DUP4 ISZERO ISZERO MUL OR SWAP1 SSTORE POP PUSH1 0xA PUSH1 0x7 DUP2 SWAP1 SSTORE POP JUMPDEST POP POP POP JUMP JUMPDEST PUSH1 0x8 SLOAD DUP2 JUMP JUMPDEST PUSH0 PUSH1 0x12 PUSH0 DUP4 PUSH20 0xFFFFFFFFFFFFFFFFFFFFFFFFFFFFFFFFFFFFFFFF AND PUSH20 0xFFFFFFFFFFFFFFFFFFFFFFFFFFFFFFFFFFFFFFFF AND DUP2 MSTORE PUSH1 0x20 ADD SWAP1 DUP2 MSTORE PUSH1 0x20 ADD PUSH0 KECCAK256 PUSH0 SWAP1 SLOAD SWAP1 PUSH2 0x100 EXP SWAP1 DIV PUSH1 0xFF AND SWAP1 POP SWAP2 SWAP1 POP JUMP JUMPDEST PUSH0 PUSH1 0x18 PUSH0 DUP5 PUSH20 0xFFFFFFFFFFFFFFFFFFFFFFFFFFFFFFFFFFFFFFFF AND PUSH20 0xFFFFFFFFFFFFFFFFFFFFFFFFFFFFFFFFFFFFFFFF AND DUP2 MSTORE PUSH1 0x20 ADD SWAP1 DUP2 MSTORE PUSH1 0x20 ADD PUSH0 KECCAK256 PUSH0 DUP4 PUSH20 0xFFFFFFFFFFFFFFFFFFFFFFFFFFFFFFFFFFFFFFFF AND PUSH20 0xFFFFFFFFFFFFFFFFFFFFFFFFFFFFFFFFFFFFFFFF AND DUP2 MSTORE PUSH1 0x20 ADD SWAP1 DUP2 MSTORE PUSH1 0x20 ADD PUSH0 KECCAK256 SLOAD SWAP1 POP SWAP3 SWAP2 POP POP JUMP JUMPDEST PUSH1 0x17 PUSH0 SWAP1 SLOAD SWAP1 PUSH2 0x100 EXP SWAP1 DIV PUSH20 0xFFFFFFFFFFFFFFFFFFFFFFFFFFFFFFFFFFFFFFFF AND DUP2 JUMP JUMPDEST PUSH2 0x20E0 PUSH2 0x17AD JUMP JUMPDEST PUSH2 0x20E8 JUMPI PUSH0 DUP1 REVERT JUMPDEST DUP1 ISZERO PUSH2 0x2113 JUMPI DUP1 PUSH1 0x9 PUSH0 PUSH2 0x100 EXP DUP2 SLOAD DUP2 PUSH1 0xFF MUL NOT AND SWAP1 DUP4 ISZERO ISZERO MUL OR SWAP1 SSTORE POP TIMESTAMP PUSH1 0xB DUP2 SWAP1 SSTORE POP PUSH2 0x212D JUMP JUMPDEST DUP1 PUSH1 0x9 PUSH0 PUSH2 0x100 EXP DUP2 SLOAD DUP2 PUSH1 0xFF MUL NOT AND SWAP1 DUP4 ISZERO ISZERO MUL OR SWAP1 SSTORE POP JUMPDEST POP JUMP JUMPDEST PUSH2 0x2138 PUSH2 0x17AD JUMP JUMPDEST PUSH2 0x2140 JUMPI PUSH0 DUP1 REVERT JUMPDEST DUP1 PUSH1 0x5 DUP2 SWAP1 SSTORE POP POP JUMP JUMPDEST PUSH1 0x15 PUSH0 SWAP1 SLOAD SWAP1 PUSH2 0x100 EXP SWAP1 DIV PUSH20 0xFFFFFFFFFFFFFFFFFFFFFFFFFFFFFFFFFFFFFFFF AND DUP2 JUMP JUMPDEST PUSH2 0x2177 PUSH2 0x17AD JUMP JUMPDEST PUSH2 0x217F JUMPI PUSH0 DUP1 REVERT JUMPDEST PUSH0 PUSH20 0xFFFFFFFFFFFFFFFFFFFFFFFFFFFFFFFFFFFFFFFF AND DUP2 PUSH20 0xFFFFFFFFFFFFFFFFFFFFFFFFFFFFFFFFFFFFFFFF AND SUB PUSH2 0x21CA JUMPI PUSH20 0x4300000000000000000000000000000000000002 SWAP1 POP JUMPDEST DUP1 PUSH1 0x3 PUSH0 PUSH2 0x100 EXP DUP2 SLOAD DUP2 PUSH20 0xFFFFFFFFFFFFFFFFFFFFFFFFFFFFFFFFFFFFFFFF MUL NOT AND SWAP1 DUP4 PUSH20 0xFFFFFFFFFFFFFFFFFFFFFFFFFFFFFFFFFFFFFFFF AND MUL OR SWAP1 SSTORE POP PUSH1 0x3 PUSH0 SWAP1 SLOAD SWAP1 PUSH2 0x100 EXP SWAP1 DIV PUSH20 0xFFFFFFFFFFFFFFFFFFFFFFFFFFFFFFFFFFFFFFFF AND PUSH20 0xFFFFFFFFFFFFFFFFFFFFFFFFFFFFFFFFFFFFFFFF AND PUSH4 0x4E606C47 PUSH1 0x40 MLOAD DUP2 PUSH4 0xFFFFFFFF AND PUSH1 0xE0 SHL DUP2 MSTORE PUSH1 0x4 ADD PUSH0 PUSH1 0x40 MLOAD DUP1 DUP4 SUB DUP2 PUSH0 DUP8 DUP1 EXTCODESIZE ISZERO DUP1 ISZERO PUSH2 0x2270 JUMPI PUSH0 DUP1 REVERT JUMPDEST POP GAS CALL ISZERO DUP1 ISZERO PUSH2 0x2282 JUMPI RETURNDATASIZE PUSH0 DUP1 RETURNDATACOPY RETURNDATASIZE PUSH0 REVERT JUMPDEST POP POP POP POP POP JUMP JUMPDEST PUSH2 0x2291 PUSH2 0x17AD JUMP JUMPDEST PUSH2 0x2299 JUMPI PUSH0 DUP1 REVERT JUMPDEST PUSH2 0x22A2 DUP2 PUSH2 0x2C85 JUMP JUMPDEST POP JUMP JUMPDEST PUSH1 0xD SLOAD DUP2 JUMP JUMPDEST PUSH2 0x22B4 DUP2 PUSH2 0x2D7C JUMP JUMPDEST POP JUMP JUMPDEST PUSH0 DUP4 DUP4 GT ISZERO DUP3 SWAP1 PUSH2 0x22FE JUMPI PUSH1 0x40 MLOAD PUSH32 0x8C379A000000000000000000000000000000000000000000000000000000000 DUP2 MSTORE PUSH1 0x4 ADD PUSH2 0x22F5 SWAP2 SWAP1 PUSH2 0x397D JUMP JUMPDEST PUSH1 0x40 MLOAD DUP1 SWAP2 SUB SWAP1 REVERT JUMPDEST POP DUP3 DUP5 SUB SWAP1 POP SWAP4 SWAP3 POP POP POP JUMP JUMPDEST PUSH0 PUSH1 0x13 PUSH0 DUP6 PUSH20 0xFFFFFFFFFFFFFFFFFFFFFFFFFFFFFFFFFFFFFFFF AND PUSH20 0xFFFFFFFFFFFFFFFFFFFFFFFFFFFFFFFFFFFFFFFF AND DUP2 MSTORE PUSH1 0x20 ADD SWAP1 DUP2 MSTORE PUSH1 0x20 ADD PUSH0 KECCAK256 PUSH0 SWAP1 SLOAD SWAP1 PUSH2 0x100 EXP SWAP1 DIV PUSH1 0xFF AND ISZERO DUP1 ISZERO PUSH2 0x23AA JUMPI POP PUSH1 0x13 PUSH0 DUP5 PUSH20 0xFFFFFFFFFFFFFFFFFFFFFFFFFFFFFFFFFFFFFFFF AND PUSH20 0xFFFFFFFFFFFFFFFFFFFFFFFFFFFFFFFFFFFFFFFF AND DUP2 MSTORE PUSH1 0x20 ADD SWAP1 DUP2 MSTORE PUSH1 0x20 ADD PUSH0 KECCAK256 PUSH0 SWAP1 SLOAD SWAP1 PUSH2 0x100 EXP SWAP1 DIV PUSH1 0xFF AND ISZERO JUMPDEST PUSH2 0x23E9 JUMPI PUSH1 0x40 MLOAD PUSH32 0x8C379A000000000000000000000000000000000000000000000000000000000 DUP2 MSTORE PUSH1 0x4 ADD PUSH2 0x23E0 SWAP1 PUSH2 0x40F5 JUMP JUMPDEST PUSH1 0x40 MLOAD DUP1 SWAP2 SUB SWAP1 REVERT JUMPDEST PUSH1 0x17 PUSH1 0x14 SWAP1 SLOAD SWAP1 PUSH2 0x100 EXP SWAP1 DIV PUSH1 0xFF AND ISZERO PUSH2 0x2410 JUMPI PUSH2 0x2409 DUP5 DUP5 DUP5 PUSH2 0x2E70 JUMP JUMPDEST SWAP1 POP PUSH2 0x25F6 JUMP JUMPDEST PUSH0 PUSH1 0x16 PUSH0 SWAP1 SLOAD SWAP1 PUSH2 0x100 EXP SWAP1 DIV PUSH20 0xFFFFFFFFFFFFFFFFFFFFFFFFFFFFFFFFFFFFFFFF AND PUSH20 0xFFFFFFFFFFFFFFFFFFFFFFFFFFFFFFFFFFFFFFFF AND DUP6 PUSH20 0xFFFFFFFFFFFFFFFFFFFFFFFFFFFFFFFFFFFFFFFF AND EQ SWAP1 POP PUSH0 PUSH1 0x16 PUSH0 SWAP1 SLOAD SWAP1 PUSH2 0x100 EXP SWAP1 DIV PUSH20 0xFFFFFFFFFFFFFFFFFFFFFFFFFFFFFFFFFFFFFFFF AND PUSH20 0xFFFFFFFFFFFFFFFFFFFFFFFFFFFFFFFFFFFFFFFF AND DUP6 PUSH20 0xFFFFFFFFFFFFFFFFFFFFFFFFFFFFFFFFFFFFFFFF AND EQ SWAP1 POP PUSH2 0x24BE PUSH2 0x2E90 JUMP JUMPDEST ISZERO PUSH2 0x24CC JUMPI PUSH2 0x24CB PUSH2 0x2F5B JUMP JUMPDEST JUMPDEST PUSH2 0x24D4 PUSH2 0x3189 JUMP JUMPDEST ISZERO PUSH2 0x253D JUMPI PUSH0 DUP3 DUP1 PUSH2 0x24E3 JUMPI POP DUP2 JUMPDEST ISZERO SWAP1 POP DUP1 DUP1 PUSH2 0x2507 JUMPI POP PUSH1 0x9 PUSH1 0x4 SWAP1 SLOAD SWAP1 PUSH2 0x100 EXP SWAP1 DIV PUSH1 0xFF AND DUP1 ISZERO PUSH2 0x2506 JUMPI POP DUP3 JUMPDEST JUMPDEST SWAP1 POP DUP1 DUP1 PUSH2 0x252A JUMPI POP PUSH1 0x9 PUSH1 0x3 SWAP1 SLOAD SWAP1 PUSH2 0x100 EXP SWAP1 DIV PUSH1 0xFF AND DUP1 ISZERO PUSH2 0x2529 JUMPI POP DUP2 JUMPDEST JUMPDEST SWAP1 POP DUP1 ISZERO PUSH2 0x253B JUMPI PUSH2 0x253A PUSH2 0x28E8 JUMP JUMPDEST JUMPDEST POP JUMPDEST PUSH2 0x2545 PUSH2 0x3211 JUMP JUMPDEST ISZERO PUSH2 0x2553 JUMPI PUSH2 0x2552 PUSH2 0x2612 JUMP JUMPDEST JUMPDEST PUSH2 0x255D DUP7 DUP6 PUSH2 0x3242 JUMP JUMPDEST PUSH0 PUSH2 0x2568 DUP8 DUP8 PUSH2 0x329F JUMP JUMPDEST PUSH2 0x2572 JUMPI DUP5 PUSH2 0x257D JUMP JUMPDEST PUSH2 0x257C DUP8 DUP7 PUSH2 0x33A2 JUMP JUMPDEST JUMPDEST SWAP1 POP PUSH2 0x2589 DUP7 DUP3 PUSH2 0x3459 JUMP JUMPDEST DUP6 PUSH20 0xFFFFFFFFFFFFFFFFFFFFFFFFFFFFFFFFFFFFFFFF AND DUP8 PUSH20 0xFFFFFFFFFFFFFFFFFFFFFFFFFFFFFFFFFFFFFFFF AND PUSH32 0xDDF252AD1BE2C89B69C2B068FC378DAA952BA7F163C4A11628F55A4DF523B3EF DUP4 PUSH1 0x40 MLOAD PUSH2 0x25E6 SWAP2 SWAP1 PUSH2 0x3AAE JUMP JUMPDEST PUSH1 0x40 MLOAD DUP1 SWAP2 SUB SWAP1 LOG3 PUSH1 0x1 SWAP4 POP POP POP POP JUMPDEST SWAP4 SWAP3 POP POP POP JUMP JUMPDEST PUSH0 DUP2 DUP4 PUSH2 0x260A SWAP2 SWAP1 PUSH2 0x3EA7 JUMP JUMPDEST SWAP1 POP SWAP3 SWAP2 POP POP JUMP JUMPDEST PUSH0 PUSH20 0xFFFFFFFFFFFFFFFFFFFFFFFFFFFFFFFFFFFFFFFF AND PUSH1 0x17 PUSH0 SWAP1 SLOAD SWAP1 PUSH2 0x100 EXP SWAP1 DIV PUSH20 0xFFFFFFFFFFFFFFFFFFFFFFFFFFFFFFFFFFFFFFFF AND PUSH20 0xFFFFFFFFFFFFFFFFFFFFFFFFFFFFFFFFFFFFFFFF AND SUB ISZERO PUSH2 0x28E6 JUMPI PUSH0 PUSH1 0x17 PUSH0 SWAP1 SLOAD SWAP1 PUSH2 0x100 EXP SWAP1 DIV PUSH20 0xFFFFFFFFFFFFFFFFFFFFFFFFFFFFFFFFFFFFFFFF AND PUSH20 0xFFFFFFFFFFFFFFFFFFFFFFFFFFFFFFFFFFFFFFFF AND PUSH4 0x70A08231 ADDRESS PUSH1 0x40 MLOAD DUP3 PUSH4 0xFFFFFFFF AND PUSH1 0xE0 SHL DUP2 MSTORE PUSH1 0x4 ADD PUSH2 0x26C2 SWAP2 SWAP1 PUSH2 0x3CA7 JUMP JUMPDEST PUSH1 0x20 PUSH1 0x40 MLOAD DUP1 DUP4 SUB DUP2 DUP7 GAS STATICCALL ISZERO DUP1 ISZERO PUSH2 0x26DD JUMPI RETURNDATASIZE PUSH0 DUP1 RETURNDATACOPY RETURNDATASIZE PUSH0 REVERT JUMPDEST POP POP POP POP PUSH1 0x40 MLOAD RETURNDATASIZE PUSH1 0x1F NOT PUSH1 0x1F DUP3 ADD AND DUP3 ADD DUP1 PUSH1 0x40 MSTORE POP DUP2 ADD SWAP1 PUSH2 0x2701 SWAP2 SWAP1 PUSH2 0x3F15 JUMP JUMPDEST SWAP1 POP PUSH0 DUP2 GT PUSH2 0x2710 JUMPI POP PUSH2 0x28E6 JUMP JUMPDEST PUSH0 DUP1 PUSH0 JUMPDEST PUSH1 0x14 DUP1 SLOAD SWAP1 POP DUP2 LT ISZERO PUSH2 0x28DA JUMPI PUSH1 0x14 DUP2 DUP2 SLOAD DUP2 LT PUSH2 0x2735 JUMPI PUSH2 0x2734 PUSH2 0x4113 JUMP JUMPDEST JUMPDEST SWAP1 PUSH0 MSTORE PUSH1 0x20 PUSH0 KECCAK256 ADD PUSH0 SWAP1 SLOAD SWAP1 PUSH2 0x100 EXP SWAP1 DIV PUSH20 0xFFFFFFFFFFFFFFFFFFFFFFFFFFFFFFFFFFFFFFFF AND SWAP3 POP PUSH2 0x2768 DUP4 PUSH2 0x34B6 JUMP JUMPDEST ISZERO PUSH2 0x28CD JUMPI PUSH2 0x27D1 PUSH1 0xC SLOAD PUSH2 0x27C3 PUSH1 0x10 PUSH0 DUP8 PUSH20 0xFFFFFFFFFFFFFFFFFFFFFFFFFFFFFFFFFFFFFFFF AND PUSH20 0xFFFFFFFFFFFFFFFFFFFFFFFFFFFFFFFFFFFFFFFF AND DUP2 MSTORE PUSH1 0x20 ADD SWAP1 DUP2 MSTORE PUSH1 0x20 ADD PUSH0 KECCAK256 SLOAD DUP8 PUSH2 0x3547 SWAP1 SWAP2 SWAP1 PUSH4 0xFFFFFFFF AND JUMP JUMPDEST PUSH2 0x355C SWAP1 SWAP2 SWAP1 PUSH4 0xFFFFFFFF AND JUMP JUMPDEST SWAP2 POP PUSH0 DUP3 GT ISZERO PUSH2 0x28CC JUMPI PUSH1 0x17 PUSH0 SWAP1 SLOAD SWAP1 PUSH2 0x100 EXP SWAP1 DIV PUSH20 0xFFFFFFFFFFFFFFFFFFFFFFFFFFFFFFFFFFFFFFFF AND PUSH20 0xFFFFFFFFFFFFFFFFFFFFFFFFFFFFFFFFFFFFFFFF AND PUSH4 0xA9059CBB DUP5 DUP5 PUSH1 0x40 MLOAD DUP4 PUSH4 0xFFFFFFFF AND PUSH1 0xE0 SHL DUP2 MSTORE PUSH1 0x4 ADD PUSH2 0x2837 SWAP3 SWAP2 SWAP1 PUSH2 0x4140 JUMP JUMPDEST PUSH1 0x20 PUSH1 0x40 MLOAD DUP1 DUP4 SUB DUP2 PUSH0 DUP8 GAS CALL ISZERO DUP1 ISZERO PUSH2 0x2853 JUMPI RETURNDATASIZE PUSH0 DUP1 RETURNDATACOPY RETURNDATASIZE PUSH0 REVERT JUMPDEST POP POP POP POP PUSH1 0x40 MLOAD RETURNDATASIZE PUSH1 0x1F NOT PUSH1 0x1F DUP3 ADD AND DUP3 ADD DUP1 PUSH1 0x40 MSTORE POP DUP2 ADD SWAP1 PUSH2 0x2877 SWAP2 SWAP1 PUSH2 0x417B JUMP JUMPDEST ISZERO PUSH2 0x28CB JUMPI DUP3 PUSH20 0xFFFFFFFFFFFFFFFFFFFFFFFFFFFFFFFFFFFFFFFF AND PUSH32 0x2E80B5C277A03FA5D11EAF1447F3C4304FF052D91E57EB6E9A4F27919A083C09 DUP4 PUSH1 0x40 MLOAD PUSH2 0x28C2 SWAP2 SWAP1 PUSH2 0x3AAE JUMP JUMPDEST PUSH1 0x40 MLOAD DUP1 SWAP2 SUB SWAP1 LOG2 JUMPDEST JUMPDEST JUMPDEST DUP1 DUP1 PUSH1 0x1 ADD SWAP2 POP POP PUSH2 0x2714 JUMP JUMPDEST POP TIMESTAMP PUSH1 0xF DUP2 SWAP1 SSTORE POP POP POP POP JUMPDEST JUMP JUMPDEST PUSH1 0x1 PUSH1 0x17 PUSH1 0x14 PUSH2 0x100 EXP DUP2 SLOAD DUP2 PUSH1 0xFF MUL NOT AND SWAP1 DUP4 ISZERO ISZERO MUL OR SWAP1 SSTORE POP PUSH0 PUSH1 0x10 PUSH0 ADDRESS PUSH20 0xFFFFFFFFFFFFFFFFFFFFFFFFFFFFFFFFFFFFFFFF AND PUSH20 0xFFFFFFFFFFFFFFFFFFFFFFFFFFFFFFFFFFFFFFFF AND DUP2 MSTORE PUSH1 0x20 ADD SWAP1 DUP2 MSTORE PUSH1 0x20 ADD PUSH0 KECCAK256 SLOAD SWAP1 POP PUSH1 0xE SLOAD DUP2 LT ISZERO PUSH2 0x2954 JUMPI POP PUSH2 0x2B3E JUMP JUMPDEST PUSH1 0xD SLOAD DUP2 GT ISZERO PUSH2 0x2964 JUMPI PUSH1 0xD SLOAD SWAP1 POP JUMPDEST PUSH0 PUSH1 0x2 PUSH8 0xFFFFFFFFFFFFFFFF DUP2 GT ISZERO PUSH2 0x2980 JUMPI PUSH2 0x297F PUSH2 0x41A6 JUMP JUMPDEST JUMPDEST PUSH1 0x40 MLOAD SWAP1 DUP1 DUP3 MSTORE DUP1 PUSH1 0x20 MUL PUSH1 0x20 ADD DUP3 ADD PUSH1 0x40 MSTORE DUP1 ISZERO PUSH2 0x29AE JUMPI DUP2 PUSH1 0x20 ADD PUSH1 0x20 DUP3 MUL DUP1 CALLDATASIZE DUP4 CALLDATACOPY DUP1 DUP3 ADD SWAP2 POP POP SWAP1 POP JUMPDEST POP SWAP1 POP ADDRESS DUP2 PUSH0 DUP2 MLOAD DUP2 LT PUSH2 0x29C5 JUMPI PUSH2 0x29C4 PUSH2 0x4113 JUMP JUMPDEST JUMPDEST PUSH1 0x20 MUL PUSH1 0x20 ADD ADD SWAP1 PUSH20 0xFFFFFFFFFFFFFFFFFFFFFFFFFFFFFFFFFFFFFFFF AND SWAP1 DUP2 PUSH20 0xFFFFFFFFFFFFFFFFFFFFFFFFFFFFFFFFFFFFFFFF AND DUP2 MSTORE POP POP PUSH1 0x17 PUSH0 SWAP1 SLOAD SWAP1 PUSH2 0x100 EXP SWAP1 DIV PUSH20 0xFFFFFFFFFFFFFFFFFFFFFFFFFFFFFFFFFFFFFFFF AND DUP2 PUSH1 0x1 DUP2 MLOAD DUP2 LT PUSH2 0x2A35 JUMPI PUSH2 0x2A34 PUSH2 0x4113 JUMP JUMPDEST JUMPDEST PUSH1 0x20 MUL PUSH1 0x20 ADD ADD SWAP1 PUSH20 0xFFFFFFFFFFFFFFFFFFFFFFFFFFFFFFFFFFFFFFFF AND SWAP1 DUP2 PUSH20 0xFFFFFFFFFFFFFFFFFFFFFFFFFFFFFFFFFFFFFFFF AND DUP2 MSTORE POP POP PUSH1 0x15 PUSH0 SWAP1 SLOAD SWAP1 PUSH2 0x100 EXP SWAP1 DIV PUSH20 0xFFFFFFFFFFFFFFFFFFFFFFFFFFFFFFFFFFFFFFFF AND PUSH20 0xFFFFFFFFFFFFFFFFFFFFFFFFFFFFFFFFFFFFFFFF AND PUSH4 0x791AC947 DUP4 PUSH0 DUP5 ADDRESS TIMESTAMP PUSH1 0x40 MLOAD DUP7 PUSH4 0xFFFFFFFF AND PUSH1 0xE0 SHL DUP2 MSTORE PUSH1 0x4 ADD PUSH2 0x2AD1 SWAP6 SWAP5 SWAP4 SWAP3 SWAP2 SWAP1 PUSH2 0x42C3 JUMP JUMPDEST PUSH0 PUSH1 0x40 MLOAD DUP1 DUP4 SUB DUP2 PUSH0 DUP8 DUP1 EXTCODESIZE ISZERO DUP1 ISZERO PUSH2 0x2AE8 JUMPI PUSH0 DUP1 REVERT JUMPDEST POP GAS CALL SWAP3 POP POP POP DUP1 ISZERO PUSH2 0x2AF9 JUMPI POP PUSH1 0x1 JUMPDEST PUSH2 0x2B04 JUMPI POP POP PUSH2 0x2B3E JUMP JUMPDEST PUSH32 0x3C6492DE4E232AE0404B3C405600AC75C52B169D378FA23F9DDB011E12F42616 DUP3 PUSH1 0x40 MLOAD PUSH2 0x2B33 SWAP2 SWAP1 PUSH2 0x3AAE JUMP JUMPDEST PUSH1 0x40 MLOAD DUP1 SWAP2 SUB SWAP1 LOG1 POP POP JUMPDEST PUSH0 PUSH1 0x17 PUSH1 0x14 PUSH2 0x100 EXP DUP2 SLOAD DUP2 PUSH1 0xFF MUL NOT AND SWAP1 DUP4 ISZERO ISZERO MUL OR SWAP1 SSTORE POP JUMP JUMPDEST PUSH0 DUP2 DUP4 PUSH2 0x2B67 SWAP2 SWAP1 PUSH2 0x431B JUMP JUMPDEST SWAP1 POP SWAP3 SWAP2 POP POP JUMP JUMPDEST PUSH0 PUSH1 0x15 PUSH0 SWAP1 SLOAD SWAP1 PUSH2 0x100 EXP SWAP1 DIV PUSH20 0xFFFFFFFFFFFFFFFFFFFFFFFFFFFFFFFFFFFFFFFF AND SWAP1 POP PUSH0 PUSH20 0xFFFFFFFFFFFFFFFFFFFFFFFFFFFFFFFFFFFFFFFF AND DUP2 PUSH20 0xFFFFFFFFFFFFFFFFFFFFFFFFFFFFFFFFFFFFFFFF AND SUB PUSH2 0x2BCD JUMPI POP PUSH2 0x2C83 JUMP JUMPDEST PUSH0 DUP2 SWAP1 POP DUP1 PUSH20 0xFFFFFFFFFFFFFFFFFFFFFFFFFFFFFFFFFFFFFFFF AND PUSH4 0x73B295C2 PUSH1 0x40 MLOAD DUP2 PUSH4 0xFFFFFFFF AND PUSH1 0xE0 SHL DUP2 MSTORE PUSH1 0x4 ADD PUSH1 0x20 PUSH1 0x40 MLOAD DUP1 DUP4 SUB DUP2 DUP7 GAS STATICCALL SWAP3 POP POP POP DUP1 ISZERO PUSH2 0x2C39 JUMPI POP PUSH1 0x40 MLOAD RETURNDATASIZE PUSH1 0x1F NOT PUSH1 0x1F DUP3 ADD AND DUP3 ADD DUP1 PUSH1 0x40 MSTORE POP DUP2 ADD SWAP1 PUSH2 0x2C36 SWAP2 SWAP1 PUSH2 0x4080 JUMP JUMPDEST PUSH1 0x1 JUMPDEST ISZERO PUSH2 0x2C80 JUMPI DUP1 PUSH1 0x17 PUSH0 PUSH2 0x100 EXP DUP2 SLOAD DUP2 PUSH20 0xFFFFFFFFFFFFFFFFFFFFFFFFFFFFFFFFFFFFFFFF MUL NOT AND SWAP1 DUP4 PUSH20 0xFFFFFFFFFFFFFFFFFFFFFFFFFFFFFFFFFFFFFFFF AND MUL OR SWAP1 SSTORE POP POP JUMPDEST POP POP JUMPDEST JUMP JUMPDEST PUSH0 PUSH20 0xFFFFFFFFFFFFFFFFFFFFFFFFFFFFFFFFFFFFFFFF AND DUP2 PUSH20 0xFFFFFFFFFFFFFFFFFFFFFFFFFFFFFFFFFFFFFFFF AND SUB PUSH2 0x2CBC JUMPI PUSH0 DUP1 REVERT JUMPDEST DUP1 PUSH20 0xFFFFFFFFFFFFFFFFFFFFFFFFFFFFFFFFFFFFFFFF AND PUSH1 0x2 PUSH1 0x1 SWAP1 SLOAD SWAP1 PUSH2 0x100 EXP SWAP1 DIV PUSH20 0xFFFFFFFFFFFFFFFFFFFFFFFFFFFFFFFFFFFFFFFF AND PUSH20 0xFFFFFFFFFFFFFFFFFFFFFFFFFFFFFFFFFFFFFFFF AND PUSH32 0x8BE0079C531659141344CD1FD0A4F28419497F9722A3DAAFE3B4186F6B6457E0 PUSH1 0x40 MLOAD PUSH1 0x40 MLOAD DUP1 SWAP2 SUB SWAP1 LOG3 DUP1 PUSH1 0x2 PUSH1 0x1 PUSH2 0x100 EXP DUP2 SLOAD DUP2 PUSH20 0xFFFFFFFFFFFFFFFFFFFFFFFFFFFFFFFFFFFFFFFF MUL NOT AND SWAP1 DUP4 PUSH20 0xFFFFFFFFFFFFFFFFFFFFFFFFFFFFFFFFFFFFFFFF AND MUL OR SWAP1 SSTORE POP POP JUMP JUMPDEST PUSH0 DUP2 GT ISZERO PUSH2 0x2E6D JUMPI PUSH0 DUP1 PUSH0 JUMPDEST PUSH1 0x14 DUP1 SLOAD SWAP1 POP DUP2 LT ISZERO PUSH2 0x2E69 JUMPI PUSH1 0x14 DUP2 DUP2 SLOAD DUP2 LT PUSH2 0x2DA9 JUMPI PUSH2 0x2DA8 PUSH2 0x4113 JUMP JUMPDEST JUMPDEST SWAP1 PUSH0 MSTORE PUSH1 0x20 PUSH0 KECCAK256 ADD PUSH0 SWAP1 SLOAD SWAP1 PUSH2 0x100 EXP SWAP1 DIV PUSH20 0xFFFFFFFFFFFFFFFFFFFFFFFFFFFFFFFFFFFFFFFF AND SWAP3 POP PUSH2 0x2DDC DUP4 PUSH2 0x34B6 JUMP JUMPDEST ISZERO PUSH2 0x2E5C JUMPI PUSH2 0x2E45 PUSH1 0xC SLOAD PUSH2 0x2E37 PUSH1 0x10 PUSH0 DUP8 PUSH20 0xFFFFFFFFFFFFFFFFFFFFFFFFFFFFFFFFFFFFFFFF AND PUSH20 0xFFFFFFFFFFFFFFFFFFFFFFFFFFFFFFFFFFFFFFFF AND DUP2 MSTORE PUSH1 0x20 ADD SWAP1 DUP2 MSTORE PUSH1 0x20 ADD PUSH0 KECCAK256 SLOAD DUP8 PUSH2 0x3547 SWAP1 SWAP2 SWAP1 PUSH4 0xFFFFFFFF AND JUMP JUMPDEST PUSH2 0x355C SWAP1 SWAP2 SWAP1 PUSH4 0xFFFFFFFF AND JUMP JUMPDEST SWAP2 POP PUSH0 DUP3 GT ISZERO PUSH2 0x2E5B JUMPI PUSH2 0x2E59 DUP4 DUP4 PUSH2 0x3571 JUMP JUMPDEST POP JUMPDEST JUMPDEST DUP1 DUP1 PUSH1 0x1 ADD SWAP2 POP POP PUSH2 0x2D88 JUMP JUMPDEST POP POP POP JUMPDEST POP JUMP JUMPDEST PUSH0 PUSH2 0x2E7B DUP5 DUP4 PUSH2 0x3242 JUMP JUMPDEST PUSH2 0x2E85 DUP4 DUP4 PUSH2 0x3459 JUMP JUMPDEST PUSH1 0x1 SWAP1 POP SWAP4 SWAP3 POP POP POP JUMP JUMPDEST PUSH0 PUSH1 0x9 PUSH0 SWAP1 SLOAD SWAP1 PUSH2 0x100 EXP SWAP1 DIV PUSH1 0xFF AND DUP1 ISZERO PUSH2 0x2EC9 JUMPI POP PUSH1 0x5 PUSH1 0xA PUSH2 0x2EB5 SWAP2 SWAP1 PUSH2 0x447D JUMP JUMPDEST PUSH4 0xC1B71080 PUSH2 0x2EC4 SWAP2 SWAP1 PUSH2 0x3F40 JUMP JUMPDEST PUSH1 0xC SLOAD LT JUMPDEST DUP1 ISZERO PUSH2 0x2F22 JUMPI POP PUSH1 0x16 PUSH0 SWAP1 SLOAD SWAP1 PUSH2 0x100 EXP SWAP1 DIV PUSH20 0xFFFFFFFFFFFFFFFFFFFFFFFFFFFFFFFFFFFFFFFF AND PUSH20 0xFFFFFFFFFFFFFFFFFFFFFFFFFFFFFFFFFFFFFFFF AND CALLER PUSH20 0xFFFFFFFFFFFFFFFFFFFFFFFFFFFFFFFFFFFFFFFF AND EQ ISZERO JUMPDEST DUP1 ISZERO PUSH2 0x2F3B JUMPI POP PUSH1 0x17 PUSH1 0x14 SWAP1 SLOAD SWAP1 PUSH2 0x100 EXP SWAP1 DIV PUSH1 0xFF AND ISZERO JUMPDEST DUP1 ISZERO PUSH2 0x2F56 JUMPI POP PUSH2 0x384 PUSH1 0xB SLOAD PUSH2 0x2F52 SWAP2 SWAP1 PUSH2 0x3EA7 JUMP JUMPDEST TIMESTAMP LT ISZERO JUMPDEST SWAP1 POP SWAP1 JUMP JUMPDEST PUSH1 0x17 PUSH1 0x14 SWAP1 SLOAD SWAP1 PUSH2 0x100 EXP SWAP1 DIV PUSH1 0xFF AND PUSH2 0x3187 JUMPI PUSH0 DUP1 PUSH1 0xA SLOAD TIMESTAMP PUSH2 0x2F7F SWAP2 SWAP1 PUSH2 0x431B JUMP JUMPDEST SWAP1 POP PUSH0 PUSH1 0xB SLOAD TIMESTAMP PUSH2 0x2F90 SWAP2 SWAP1 PUSH2 0x431B JUMP JUMPDEST SWAP1 POP PUSH0 PUSH2 0x2FA8 PUSH2 0x384 DUP4 PUSH2 0x355C SWAP1 SWAP2 SWAP1 PUSH4 0xFFFFFFFF AND JUMP JUMPDEST SWAP1 POP PUSH0 PUSH2 0x2FBF PUSH1 0xF DUP4 PUSH2 0x3547 SWAP1 SWAP2 SWAP1 PUSH4 0xFFFFFFFF AND JUMP JUMPDEST SWAP1 POP PUSH4 0x5A39A80 DUP5 GT ISZERO PUSH2 0x2FD6 JUMPI PUSH1 0x1 SWAP5 POP PUSH2 0x3006 JUMP JUMPDEST PUSH4 0x3C26700 DUP5 LT PUSH2 0x2FEA JUMPI PUSH1 0x13 SWAP5 POP PUSH2 0x3005 JUMP JUMPDEST PUSH4 0x1E13380 DUP5 LT PUSH2 0x2FFE JUMPI PUSH1 0xBF SWAP5 POP PUSH2 0x3004 JUMP JUMPDEST PUSH2 0x77B SWAP5 POP JUMPDEST JUMPDEST JUMPDEST PUSH0 PUSH1 0xC SLOAD SWAP1 POP PUSH0 JUMPDEST DUP4 DUP2 LT ISZERO PUSH2 0x3078 JUMPI PUSH2 0x3069 PUSH1 0x7 PUSH1 0xA PUSH2 0x3027 SWAP2 SWAP1 PUSH2 0x447D JUMP JUMPDEST PUSH2 0x305B PUSH2 0x304A DUP11 PUSH1 0x7 PUSH1 0xA PUSH2 0x303C SWAP2 SWAP1 PUSH2 0x447D JUMP JUMPDEST PUSH2 0x25FD SWAP1 SWAP2 SWAP1 PUSH4 0xFFFFFFFF AND JUMP JUMPDEST PUSH1 0xC SLOAD PUSH2 0x3547 SWAP1 SWAP2 SWAP1 PUSH4 0xFFFFFFFF AND JUMP JUMPDEST PUSH2 0x355C SWAP1 SWAP2 SWAP1 PUSH4 0xFFFFFFFF AND JUMP JUMPDEST SWAP2 POP DUP1 DUP1 PUSH1 0x1 ADD SWAP2 POP POP PUSH2 0x300E JUMP JUMPDEST POP PUSH2 0x30A2 PUSH2 0x3091 PUSH2 0x384 DUP6 PUSH2 0x3547 SWAP1 SWAP2 SWAP1 PUSH4 0xFFFFFFFF AND JUMP JUMPDEST PUSH1 0xB SLOAD PUSH2 0x25FD SWAP1 SWAP2 SWAP1 PUSH4 0xFFFFFFFF AND JUMP JUMPDEST PUSH1 0xB DUP2 SWAP1 SSTORE POP PUSH1 0x16 PUSH0 SWAP1 SLOAD SWAP1 PUSH2 0x100 EXP SWAP1 DIV PUSH20 0xFFFFFFFFFFFFFFFFFFFFFFFFFFFFFFFFFFFFFFFF AND PUSH20 0xFFFFFFFFFFFFFFFFFFFFFFFFFFFFFFFFFFFFFFFF AND PUSH4 0xFFF6CAE9 PUSH1 0x40 MLOAD DUP2 PUSH4 0xFFFFFFFF AND PUSH1 0xE0 SHL DUP2 MSTORE PUSH1 0x4 ADD PUSH0 PUSH1 0x40 MLOAD DUP1 DUP4 SUB DUP2 PUSH0 DUP8 DUP1 EXTCODESIZE ISZERO DUP1 ISZERO PUSH2 0x310E JUMPI PUSH0 DUP1 REVERT JUMPDEST POP GAS CALL SWAP3 POP POP POP DUP1 ISZERO PUSH2 0x311F JUMPI POP PUSH1 0x1 JUMPDEST POP PUSH2 0x3137 ADDRESS PUSH1 0xC SLOAD DUP4 PUSH2 0x3132 SWAP2 SWAP1 PUSH2 0x431B JUMP JUMPDEST PUSH2 0x3459 JUMP JUMPDEST PUSH2 0x313F PUSH2 0x35BE JUMP JUMPDEST DUP1 PUSH1 0xC DUP2 SWAP1 SSTORE POP DUP2 PUSH32 0x72725A3B1E5BD622D6BCD1339BB31279C351ABE8F541AC7FD320F24E1B1641F2 PUSH1 0xC SLOAD PUSH1 0x40 MLOAD PUSH2 0x3178 SWAP2 SWAP1 PUSH2 0x3AAE JUMP JUMPDEST PUSH1 0x40 MLOAD DUP1 SWAP2 SUB SWAP1 LOG2 POP POP POP POP POP POP JUMPDEST JUMP JUMPDEST PUSH0 PUSH1 0x9 PUSH1 0x1 SWAP1 SLOAD SWAP1 PUSH2 0x100 EXP SWAP1 DIV PUSH1 0xFF AND DUP1 ISZERO PUSH2 0x31B3 JUMPI POP PUSH1 0x17 PUSH1 0x14 SWAP1 SLOAD SWAP1 PUSH2 0x100 EXP SWAP1 DIV PUSH1 0xFF AND ISZERO JUMPDEST DUP1 ISZERO PUSH2 0x320C JUMPI POP PUSH1 0x16 PUSH0 SWAP1 SLOAD SWAP1 PUSH2 0x100 EXP SWAP1 DIV PUSH20 0xFFFFFFFFFFFFFFFFFFFFFFFFFFFFFFFFFFFFFFFF AND PUSH20 0xFFFFFFFFFFFFFFFFFFFFFFFFFFFFFFFFFFFFFFFF AND CALLER PUSH20 0xFFFFFFFFFFFFFFFFFFFFFFFFFFFFFFFFFFFFFFFF AND EQ ISZERO JUMPDEST SWAP1 POP SWAP1 JUMP JUMPDEST PUSH0 PUSH1 0x9 PUSH1 0x2 SWAP1 SLOAD SWAP1 PUSH2 0x100 EXP SWAP1 DIV PUSH1 0xFF AND DUP1 ISZERO PUSH2 0x323D JUMPI POP PUSH1 0x8 SLOAD PUSH1 0xF SLOAD PUSH2 0x3239 SWAP2 SWAP1 PUSH2 0x3EA7 JUMP JUMPDEST TIMESTAMP LT ISZERO JUMPDEST SWAP1 POP SWAP1 JUMP JUMPDEST PUSH2 0x329B DUP3 PUSH2 0x3296 DUP4 PUSH1 0x10 PUSH0 DUP8 PUSH20 0xFFFFFFFFFFFFFFFFFFFFFFFFFFFFFFFFFFFFFFFF AND PUSH20 0xFFFFFFFFFFFFFFFFFFFFFFFFFFFFFFFFFFFFFFFF AND DUP2 MSTORE PUSH1 0x20 ADD SWAP1 DUP2 MSTORE PUSH1 0x20 ADD PUSH0 KECCAK256 SLOAD PUSH2 0x2B5A SWAP1 SWAP2 SWAP1 PUSH4 0xFFFFFFFF AND JUMP JUMPDEST PUSH2 0x3793 JUMP JUMPDEST POP POP JUMP JUMPDEST PUSH0 DUP3 PUSH20 0xFFFFFFFFFFFFFFFFFFFFFFFFFFFFFFFFFFFFFFFF AND PUSH1 0x16 PUSH0 SWAP1 SLOAD SWAP1 PUSH2 0x100 EXP SWAP1 DIV PUSH20 0xFFFFFFFFFFFFFFFFFFFFFFFFFFFFFFFFFFFFFFFF AND PUSH20 0xFFFFFFFFFFFFFFFFFFFFFFFFFFFFFFFFFFFFFFFF AND EQ DUP1 PUSH2 0x3347 JUMPI POP DUP2 PUSH20 0xFFFFFFFFFFFFFFFFFFFFFFFFFFFFFFFFFFFFFFFF AND PUSH1 0x16 PUSH0 SWAP1 SLOAD SWAP1 PUSH2 0x100 EXP SWAP1 DIV PUSH20 0xFFFFFFFFFFFFFFFFFFFFFFFFFFFFFFFFFFFFFFFF AND PUSH20 0xFFFFFFFFFFFFFFFFFFFFFFFFFFFFFFFFFFFFFFFF AND EQ JUMPDEST DUP1 ISZERO PUSH2 0x339A JUMPI POP PUSH1 0x12 PUSH0 DUP5 PUSH20 0xFFFFFFFFFFFFFFFFFFFFFFFFFFFFFFFFFFFFFFFF AND PUSH20 0xFFFFFFFFFFFFFFFFFFFFFFFFFFFFFFFFFFFFFFFF AND DUP2 MSTORE PUSH1 0x20 ADD SWAP1 DUP2 MSTORE PUSH1 0x20 ADD PUSH0 KECCAK256 PUSH0 SWAP1 SLOAD SWAP1 PUSH2 0x100 EXP SWAP1 DIV PUSH1 0xFF AND ISZERO JUMPDEST SWAP1 POP SWAP3 SWAP2 POP POP JUMP JUMPDEST PUSH0 DUP1 PUSH2 0x33CC PUSH1 0x7 SLOAD PUSH2 0x33BE PUSH1 0x64 DUP7 PUSH2 0x355C SWAP1 SWAP2 SWAP1 PUSH4 0xFFFFFFFF AND JUMP JUMPDEST PUSH2 0x3547 SWAP1 SWAP2 SWAP1 PUSH4 0xFFFFFFFF AND JUMP JUMPDEST SWAP1 POP PUSH2 0x33D8 ADDRESS DUP3 PUSH2 0x3459 JUMP JUMPDEST ADDRESS PUSH20 0xFFFFFFFFFFFFFFFFFFFFFFFFFFFFFFFFFFFFFFFF AND DUP5 PUSH20 0xFFFFFFFFFFFFFFFFFFFFFFFFFFFFFFFFFFFFFFFF AND PUSH32 0xDDF252AD1BE2C89B69C2B068FC378DAA952BA7F163C4A11628F55A4DF523B3EF DUP4 PUSH1 0x40 MLOAD PUSH2 0x3435 SWAP2 SWAP1 PUSH2 0x3AAE JUMP JUMPDEST PUSH1 0x40 MLOAD DUP1 SWAP2 SUB SWAP1 LOG3 PUSH2 0x3450 DUP2 DUP5 PUSH2 0x2B5A SWAP1 SWAP2 SWAP1 PUSH4 0xFFFFFFFF AND JUMP JUMPDEST SWAP2 POP POP SWAP3 SWAP2 POP POP JUMP JUMPDEST PUSH2 0x34B2 DUP3 PUSH2 0x34AD DUP4 PUSH1 0x10 PUSH0 DUP8 PUSH20 0xFFFFFFFFFFFFFFFFFFFFFFFFFFFFFFFFFFFFFFFF AND PUSH20 0xFFFFFFFFFFFFFFFFFFFFFFFFFFFFFFFFFFFFFFFF AND DUP2 MSTORE PUSH1 0x20 ADD SWAP1 DUP2 MSTORE PUSH1 0x20 ADD PUSH0 KECCAK256 SLOAD PUSH2 0x25FD SWAP1 SWAP2 SWAP1 PUSH4 0xFFFFFFFF AND JUMP JUMPDEST PUSH2 0x3793 JUMP JUMPDEST POP POP JUMP JUMPDEST PUSH0 ADDRESS PUSH20 0xFFFFFFFFFFFFFFFFFFFFFFFFFFFFFFFFFFFFFFFF AND DUP3 PUSH20 0xFFFFFFFFFFFFFFFFFFFFFFFFFFFFFFFFFFFFFFFF AND EQ ISZERO DUP1 ISZERO PUSH2 0x3540 JUMPI POP PUSH1 0x16 PUSH0 SWAP1 SLOAD SWAP1 PUSH2 0x100 EXP SWAP1 DIV PUSH20 0xFFFFFFFFFFFFFFFFFFFFFFFFFFFFFFFFFFFFFFFF AND PUSH20 0xFFFFFFFFFFFFFFFFFFFFFFFFFFFFFFFFFFFFFFFF AND DUP3 PUSH20 0xFFFFFFFFFFFFFFFFFFFFFFFFFFFFFFFFFFFFFFFF AND EQ ISZERO JUMPDEST SWAP1 POP SWAP2 SWAP1 POP JUMP JUMPDEST PUSH0 DUP2 DUP4 PUSH2 0x3554 SWAP2 SWAP1 PUSH2 0x3F40 JUMP JUMPDEST SWAP1 POP SWAP3 SWAP2 POP POP JUMP JUMPDEST PUSH0 DUP2 DUP4 PUSH2 0x3569 SWAP2 SWAP1 PUSH2 0x3FAE JUMP JUMPDEST SWAP1 POP SWAP3 SWAP2 POP POP JUMP JUMPDEST PUSH0 DUP3 PUSH20 0xFFFFFFFFFFFFFFFFFFFFFFFFFFFFFFFFFFFFFFFF AND PUSH2 0x8FC DUP4 SWAP1 DUP2 ISZERO MUL SWAP1 PUSH1 0x40 MLOAD PUSH0 PUSH1 0x40 MLOAD DUP1 DUP4 SUB DUP2 DUP6 DUP9 DUP9 CALL SWAP4 POP POP POP POP ISZERO PUSH2 0x35B4 JUMPI PUSH1 0x1 SWAP1 POP PUSH2 0x35B8 JUMP JUMPDEST PUSH0 SWAP1 POP JUMPDEST SWAP3 SWAP2 POP POP JUMP JUMPDEST PUSH0 PUSH1 0x10 PUSH0 ADDRESS PUSH20 0xFFFFFFFFFFFFFFFFFFFFFFFFFFFFFFFFFFFFFFFF AND PUSH20 0xFFFFFFFFFFFFFFFFFFFFFFFFFFFFFFFFFFFFFFFF AND DUP2 MSTORE PUSH1 0x20 ADD SWAP1 DUP2 MSTORE PUSH1 0x20 ADD PUSH0 KECCAK256 SLOAD SWAP1 POP PUSH0 DUP2 GT PUSH2 0x360C JUMPI POP PUSH2 0x3791 JUMP JUMPDEST PUSH2 0x3616 ADDRESS DUP3 PUSH2 0x3242 JUMP JUMPDEST PUSH0 DUP1 PUSH0 DUP1 PUSH0 SWAP1 POP JUMPDEST PUSH1 0x14 DUP1 SLOAD SWAP1 POP DUP2 LT ISZERO PUSH2 0x3771 JUMPI PUSH1 0x14 DUP2 DUP2 SLOAD DUP2 LT PUSH2 0x363F JUMPI PUSH2 0x363E PUSH2 0x4113 JUMP JUMPDEST JUMPDEST SWAP1 PUSH0 MSTORE PUSH1 0x20 PUSH0 KECCAK256 ADD PUSH0 SWAP1 SLOAD SWAP1 PUSH2 0x100 EXP SWAP1 DIV PUSH20 0xFFFFFFFFFFFFFFFFFFFFFFFFFFFFFFFFFFFFFFFF AND SWAP4 POP PUSH2 0x3672 DUP5 PUSH2 0x34B6 JUMP JUMPDEST ISZERO PUSH2 0x3764 JUMPI PUSH2 0x36DB PUSH1 0xC SLOAD PUSH2 0x36CD PUSH1 0x10 PUSH0 DUP9 PUSH20 0xFFFFFFFFFFFFFFFFFFFFFFFFFFFFFFFFFFFFFFFF AND PUSH20 0xFFFFFFFFFFFFFFFFFFFFFFFFFFFFFFFFFFFFFFFF AND DUP2 MSTORE PUSH1 0x20 ADD SWAP1 DUP2 MSTORE PUSH1 0x20 ADD PUSH0 KECCAK256 SLOAD DUP9 PUSH2 0x3547 SWAP1 SWAP2 SWAP1 PUSH4 0xFFFFFFFF AND JUMP JUMPDEST PUSH2 0x355C SWAP1 SWAP2 SWAP1 PUSH4 0xFFFFFFFF AND JUMP JUMPDEST SWAP3 POP DUP3 DUP3 PUSH2 0x36E9 SWAP2 SWAP1 PUSH2 0x3EA7 JUMP JUMPDEST SWAP2 POP PUSH0 DUP4 GT ISZERO PUSH2 0x3763 JUMPI PUSH2 0x36FD DUP5 DUP5 PUSH2 0x3459 JUMP JUMPDEST DUP4 PUSH20 0xFFFFFFFFFFFFFFFFFFFFFFFFFFFFFFFFFFFFFFFF AND ADDRESS PUSH20 0xFFFFFFFFFFFFFFFFFFFFFFFFFFFFFFFFFFFFFFFF AND PUSH32 0xDDF252AD1BE2C89B69C2B068FC378DAA952BA7F163C4A11628F55A4DF523B3EF DUP6 PUSH1 0x40 MLOAD PUSH2 0x375A SWAP2 SWAP1 PUSH2 0x3AAE JUMP JUMPDEST PUSH1 0x40 MLOAD DUP1 SWAP2 SUB SWAP1 LOG3 JUMPDEST JUMPDEST DUP1 DUP1 PUSH1 0x1 ADD SWAP2 POP POP PUSH2 0x361E JUMP JUMPDEST POP PUSH0 DUP2 DUP6 PUSH2 0x377F SWAP2 SWAP1 PUSH2 0x431B JUMP JUMPDEST SWAP1 POP PUSH2 0x378B ADDRESS DUP3 PUSH2 0x3459 JUMP JUMPDEST POP POP POP POP POP JUMPDEST JUMP JUMPDEST PUSH2 0x379C DUP3 PUSH2 0x34B6 JUMP JUMPDEST ISZERO PUSH2 0x38AD JUMPI PUSH1 0x1 ISZERO ISZERO PUSH1 0x11 PUSH0 DUP5 PUSH20 0xFFFFFFFFFFFFFFFFFFFFFFFFFFFFFFFFFFFFFFFF AND PUSH20 0xFFFFFFFFFFFFFFFFFFFFFFFFFFFFFFFFFFFFFFFF AND DUP2 MSTORE PUSH1 0x20 ADD SWAP1 DUP2 MSTORE PUSH1 0x20 ADD PUSH0 KECCAK256 PUSH0 SWAP1 SLOAD SWAP1 PUSH2 0x100 EXP SWAP1 DIV PUSH1 0xFF AND ISZERO ISZERO EQ PUSH2 0x38AC JUMPI PUSH1 0x14 DUP3 SWAP1 DUP1 PUSH1 0x1 DUP2 SLOAD ADD DUP1 DUP3 SSTORE DUP1 SWAP2 POP POP PUSH1 0x1 SWAP1 SUB SWAP1 PUSH0 MSTORE PUSH1 0x20 PUSH0 KECCAK256 ADD PUSH0 SWAP1 SWAP2 SWAP1 SWAP2 SWAP1 SWAP2 PUSH2 0x100 EXP DUP2 SLOAD DUP2 PUSH20 0xFFFFFFFFFFFFFFFFFFFFFFFFFFFFFFFFFFFFFFFF MUL NOT AND SWAP1 DUP4 PUSH20 0xFFFFFFFFFFFFFFFFFFFFFFFFFFFFFFFFFFFFFFFF AND MUL OR SWAP1 SSTORE POP PUSH1 0x1 PUSH1 0x11 PUSH0 DUP5 PUSH20 0xFFFFFFFFFFFFFFFFFFFFFFFFFFFFFFFFFFFFFFFF AND PUSH20 0xFFFFFFFFFFFFFFFFFFFFFFFFFFFFFFFFFFFFFFFF AND DUP2 MSTORE PUSH1 0x20 ADD SWAP1 DUP2 MSTORE PUSH1 0x20 ADD PUSH0 KECCAK256 PUSH0 PUSH2 0x100 EXP DUP2 SLOAD DUP2 PUSH1 0xFF MUL NOT AND SWAP1 DUP4 ISZERO ISZERO MUL OR SWAP1 SSTORE POP JUMPDEST JUMPDEST DUP1 PUSH1 0x10 PUSH0 DUP5 PUSH20 0xFFFFFFFFFFFFFFFFFFFFFFFFFFFFFFFFFFFFFFFF AND PUSH20 0xFFFFFFFFFFFFFFFFFFFFFFFFFFFFFFFFFFFFFFFF AND DUP2 MSTORE PUSH1 0x20 ADD SWAP1 DUP2 MSTORE PUSH1 0x20 ADD PUSH0 KECCAK256 DUP2 SWAP1 SSTORE POP POP POP JUMP JUMPDEST PUSH0 DUP2 MLOAD SWAP1 POP SWAP2 SWAP1 POP JUMP JUMPDEST PUSH0 DUP3 DUP3 MSTORE PUSH1 0x20 DUP3 ADD SWAP1 POP SWAP3 SWAP2 POP POP JUMP JUMPDEST PUSH0 JUMPDEST DUP4 DUP2 LT ISZERO PUSH2 0x392A JUMPI DUP1 DUP3 ADD MLOAD DUP2 DUP5 ADD MSTORE PUSH1 0x20 DUP2 ADD SWAP1 POP PUSH2 0x390F JUMP JUMPDEST PUSH0 DUP5 DUP5 ADD MSTORE POP POP POP POP JUMP JUMPDEST PUSH0 PUSH1 0x1F NOT PUSH1 0x1F DUP4 ADD AND SWAP1 POP SWAP2 SWAP1 POP JUMP JUMPDEST PUSH0 PUSH2 0x394F DUP3 PUSH2 0x38F3 JUMP JUMPDEST PUSH2 0x3959 DUP2 DUP6 PUSH2 0x38FD JUMP JUMPDEST SWAP4 POP PUSH2 0x3969 DUP2 DUP6 PUSH1 0x20 DUP7 ADD PUSH2 0x390D JUMP JUMPDEST PUSH2 0x3972 DUP2 PUSH2 0x3935 JUMP JUMPDEST DUP5 ADD SWAP2 POP POP SWAP3 SWAP2 POP POP JUMP JUMPDEST PUSH0 PUSH1 0x20 DUP3 ADD SWAP1 POP DUP2 DUP2 SUB PUSH0 DUP4 ADD MSTORE PUSH2 0x3995 DUP2 DUP5 PUSH2 0x3945 JUMP JUMPDEST SWAP1 POP SWAP3 SWAP2 POP POP JUMP JUMPDEST PUSH0 DUP1 REVERT JUMPDEST PUSH0 PUSH20 0xFFFFFFFFFFFFFFFFFFFFFFFFFFFFFFFFFFFFFFFF DUP3 AND SWAP1 POP SWAP2 SWAP1 POP JUMP JUMPDEST PUSH0 PUSH2 0x39CA DUP3 PUSH2 0x39A1 JUMP JUMPDEST SWAP1 POP SWAP2 SWAP1 POP JUMP JUMPDEST PUSH2 0x39DA DUP2 PUSH2 0x39C0 JUMP JUMPDEST DUP2 EQ PUSH2 0x39E4 JUMPI PUSH0 DUP1 REVERT JUMPDEST POP JUMP JUMPDEST PUSH0 DUP2 CALLDATALOAD SWAP1 POP PUSH2 0x39F5 DUP2 PUSH2 0x39D1 JUMP JUMPDEST SWAP3 SWAP2 POP POP JUMP JUMPDEST PUSH0 DUP2 SWAP1 POP SWAP2 SWAP1 POP JUMP JUMPDEST PUSH2 0x3A0D DUP2 PUSH2 0x39FB JUMP JUMPDEST DUP2 EQ PUSH2 0x3A17 JUMPI PUSH0 DUP1 REVERT JUMPDEST POP JUMP JUMPDEST PUSH0 DUP2 CALLDATALOAD SWAP1 POP PUSH2 0x3A28 DUP2 PUSH2 0x3A04 JUMP JUMPDEST SWAP3 SWAP2 POP POP JUMP JUMPDEST PUSH0 DUP1 PUSH1 0x40 DUP4 DUP6 SUB SLT ISZERO PUSH2 0x3A44 JUMPI PUSH2 0x3A43 PUSH2 0x399D JUMP JUMPDEST JUMPDEST PUSH0 PUSH2 0x3A51 DUP6 DUP3 DUP7 ADD PUSH2 0x39E7 JUMP JUMPDEST SWAP3 POP POP PUSH1 0x20 PUSH2 0x3A62 DUP6 DUP3 DUP7 ADD PUSH2 0x3A1A JUMP JUMPDEST SWAP2 POP POP SWAP3 POP SWAP3 SWAP1 POP JUMP JUMPDEST PUSH0 DUP2 ISZERO ISZERO SWAP1 POP SWAP2 SWAP1 POP JUMP JUMPDEST PUSH2 0x3A80 DUP2 PUSH2 0x3A6C JUMP JUMPDEST DUP3 MSTORE POP POP JUMP JUMPDEST PUSH0 PUSH1 0x20 DUP3 ADD SWAP1 POP PUSH2 0x3A99 PUSH0 DUP4 ADD DUP5 PUSH2 0x3A77 JUMP JUMPDEST SWAP3 SWAP2 POP POP JUMP JUMPDEST PUSH2 0x3AA8 DUP2 PUSH2 0x39FB JUMP JUMPDEST DUP3 MSTORE POP POP JUMP JUMPDEST PUSH0 PUSH1 0x20 DUP3 ADD SWAP1 POP PUSH2 0x3AC1 PUSH0 DUP4 ADD DUP5 PUSH2 0x3A9F JUMP JUMPDEST SWAP3 SWAP2 POP POP JUMP JUMPDEST PUSH0 DUP1 PUSH0 PUSH1 0x60 DUP5 DUP7 SUB SLT ISZERO PUSH2 0x3ADE JUMPI PUSH2 0x3ADD PUSH2 0x399D JUMP JUMPDEST JUMPDEST PUSH0 PUSH2 0x3AEB DUP7 DUP3 DUP8 ADD PUSH2 0x39E7 JUMP JUMPDEST SWAP4 POP POP PUSH1 0x20 PUSH2 0x3AFC DUP7 DUP3 DUP8 ADD PUSH2 0x39E7 JUMP JUMPDEST SWAP3 POP POP PUSH1 0x40 PUSH2 0x3B0D DUP7 DUP3 DUP8 ADD PUSH2 0x3A1A JUMP JUMPDEST SWAP2 POP POP SWAP3 POP SWAP3 POP SWAP3 JUMP JUMPDEST PUSH0 PUSH1 0x20 DUP3 DUP5 SUB SLT ISZERO PUSH2 0x3B2C JUMPI PUSH2 0x3B2B PUSH2 0x399D JUMP JUMPDEST JUMPDEST PUSH0 PUSH2 0x3B39 DUP5 DUP3 DUP6 ADD PUSH2 0x3A1A JUMP JUMPDEST SWAP2 POP POP SWAP3 SWAP2 POP POP JUMP JUMPDEST PUSH0 PUSH1 0x20 DUP3 DUP5 SUB SLT ISZERO PUSH2 0x3B57 JUMPI PUSH2 0x3B56 PUSH2 0x399D JUMP JUMPDEST JUMPDEST PUSH0 PUSH2 0x3B64 DUP5 DUP3 DUP6 ADD PUSH2 0x39E7 JUMP JUMPDEST SWAP2 POP POP SWAP3 SWAP2 POP POP JUMP JUMPDEST PUSH0 PUSH1 0xFF DUP3 AND SWAP1 POP SWAP2 SWAP1 POP JUMP JUMPDEST PUSH2 0x3B82 DUP2 PUSH2 0x3B6D JUMP JUMPDEST DUP3 MSTORE POP POP JUMP JUMPDEST PUSH0 PUSH1 0x20 DUP3 ADD SWAP1 POP PUSH2 0x3B9B PUSH0 DUP4 ADD DUP5 PUSH2 0x3B79 JUMP JUMPDEST SWAP3 SWAP2 POP POP JUMP JUMPDEST PUSH2 0x3BAA DUP2 PUSH2 0x3A6C JUMP JUMPDEST DUP2 EQ PUSH2 0x3BB4 JUMPI PUSH0 DUP1 REVERT JUMPDEST POP JUMP JUMPDEST PUSH0 DUP2 CALLDATALOAD SWAP1 POP PUSH2 0x3BC5 DUP2 PUSH2 0x3BA1 JUMP JUMPDEST SWAP3 SWAP2 POP POP JUMP JUMPDEST PUSH0 DUP1 PUSH1 0x40 DUP4 DUP6 SUB SLT ISZERO PUSH2 0x3BE1 JUMPI PUSH2 0x3BE0 PUSH2 0x399D JUMP JUMPDEST JUMPDEST PUSH0 PUSH2 0x3BEE DUP6 DUP3 DUP7 ADD PUSH2 0x39E7 JUMP JUMPDEST SWAP3 POP POP PUSH1 0x20 PUSH2 0x3BFF DUP6 DUP3 DUP7 ADD PUSH2 0x3BB7 JUMP JUMPDEST SWAP2 POP POP SWAP3 POP SWAP3 SWAP1 POP JUMP JUMPDEST PUSH0 PUSH1 0x20 DUP3 DUP5 SUB SLT ISZERO PUSH2 0x3C1E JUMPI PUSH2 0x3C1D PUSH2 0x399D JUMP JUMPDEST JUMPDEST PUSH0 PUSH2 0x3C2B DUP5 DUP3 DUP6 ADD PUSH2 0x3BB7 JUMP JUMPDEST SWAP2 POP POP SWAP3 SWAP2 POP POP JUMP JUMPDEST PUSH0 DUP1 PUSH0 DUP1 PUSH1 0x80 DUP6 DUP8 SUB SLT ISZERO PUSH2 0x3C4C JUMPI PUSH2 0x3C4B PUSH2 0x399D JUMP JUMPDEST JUMPDEST PUSH0 PUSH2 0x3C59 DUP8 DUP3 DUP9 ADD PUSH2 0x3A1A JUMP JUMPDEST SWAP5 POP POP PUSH1 0x20 PUSH2 0x3C6A DUP8 DUP3 DUP9 ADD PUSH2 0x3A1A JUMP JUMPDEST SWAP4 POP POP PUSH1 0x40 PUSH2 0x3C7B DUP8 DUP3 DUP9 ADD PUSH2 0x3BB7 JUMP JUMPDEST SWAP3 POP POP PUSH1 0x60 PUSH2 0x3C8C DUP8 DUP3 DUP9 ADD PUSH2 0x3BB7 JUMP JUMPDEST SWAP2 POP POP SWAP3 SWAP6 SWAP2 SWAP5 POP SWAP3 POP JUMP JUMPDEST PUSH2 0x3CA1 DUP2 PUSH2 0x39C0 JUMP JUMPDEST DUP3 MSTORE POP POP JUMP JUMPDEST PUSH0 PUSH1 0x20 DUP3 ADD SWAP1 POP PUSH2 0x3CBA PUSH0 DUP4 ADD DUP5 PUSH2 0x3C98 JUMP JUMPDEST SWAP3 SWAP2 POP POP JUMP JUMPDEST PUSH0 DUP2 SWAP1 POP SWAP2 SWAP1 POP JUMP JUMPDEST PUSH0 PUSH2 0x3CE3 PUSH2 0x3CDE PUSH2 0x3CD9 DUP5 PUSH2 0x39A1 JUMP JUMPDEST PUSH2 0x3CC0 JUMP JUMPDEST PUSH2 0x39A1 JUMP JUMPDEST SWAP1 POP SWAP2 SWAP1 POP JUMP JUMPDEST PUSH0 PUSH2 0x3CF4 DUP3 PUSH2 0x3CC9 JUMP JUMPDEST SWAP1 POP SWAP2 SWAP1 POP JUMP JUMPDEST PUSH0 PUSH2 0x3D05 DUP3 PUSH2 0x3CEA JUMP JUMPDEST SWAP1 POP SWAP2 SWAP1 POP JUMP JUMPDEST PUSH2 0x3D15 DUP2 PUSH2 0x3CFB JUMP JUMPDEST DUP3 MSTORE POP POP JUMP JUMPDEST PUSH0 PUSH1 0x20 DUP3 ADD SWAP1 POP PUSH2 0x3D2E PUSH0 DUP4 ADD DUP5 PUSH2 0x3D0C JUMP JUMPDEST SWAP3 SWAP2 POP POP JUMP JUMPDEST PUSH0 PUSH2 0x3D3E DUP3 PUSH2 0x3CEA JUMP JUMPDEST SWAP1 POP SWAP2 SWAP1 POP JUMP JUMPDEST PUSH2 0x3D4E DUP2 PUSH2 0x3D34 JUMP JUMPDEST DUP3 MSTORE POP POP JUMP JUMPDEST PUSH0 PUSH1 0x20 DUP3 ADD SWAP1 POP PUSH2 0x3D67 PUSH0 DUP4 ADD DUP5 PUSH2 0x3D45 JUMP JUMPDEST SWAP3 SWAP2 POP POP JUMP JUMPDEST PUSH0 DUP1 PUSH1 0x40 DUP4 DUP6 SUB SLT ISZERO PUSH2 0x3D83 JUMPI PUSH2 0x3D82 PUSH2 0x399D JUMP JUMPDEST JUMPDEST PUSH0 PUSH2 0x3D90 DUP6 DUP3 DUP7 ADD PUSH2 0x39E7 JUMP JUMPDEST SWAP3 POP POP PUSH1 0x20 PUSH2 0x3DA1 DUP6 DUP3 DUP7 ADD PUSH2 0x39E7 JUMP JUMPDEST SWAP2 POP POP SWAP3 POP SWAP3 SWAP1 POP JUMP JUMPDEST PUSH0 PUSH2 0x3DB5 DUP3 PUSH2 0x3CEA JUMP JUMPDEST SWAP1 POP SWAP2 SWAP1 POP JUMP JUMPDEST PUSH2 0x3DC5 DUP2 PUSH2 0x3DAB JUMP JUMPDEST DUP3 MSTORE POP POP JUMP JUMPDEST PUSH0 PUSH1 0x20 DUP3 ADD SWAP1 POP PUSH2 0x3DDE PUSH0 DUP4 ADD DUP5 PUSH2 0x3DBC JUMP JUMPDEST SWAP3 SWAP2 POP POP JUMP JUMPDEST PUSH0 PUSH2 0x3DEE DUP3 PUSH2 0x3CEA JUMP JUMPDEST SWAP1 POP SWAP2 SWAP1 POP JUMP JUMPDEST PUSH2 0x3DFE DUP2 PUSH2 0x3DE4 JUMP JUMPDEST DUP3 MSTORE POP POP JUMP JUMPDEST PUSH0 PUSH1 0x20 DUP3 ADD SWAP1 POP PUSH2 0x3E17 PUSH0 DUP4 ADD DUP5 PUSH2 0x3DF5 JUMP JUMPDEST SWAP3 SWAP2 POP POP JUMP JUMPDEST PUSH32 0x4E487B7100000000000000000000000000000000000000000000000000000000 PUSH0 MSTORE PUSH1 0x22 PUSH1 0x4 MSTORE PUSH1 0x24 PUSH0 REVERT JUMPDEST PUSH0 PUSH1 0x2 DUP3 DIV SWAP1 POP PUSH1 0x1 DUP3 AND DUP1 PUSH2 0x3E61 JUMPI PUSH1 0x7F DUP3 AND SWAP2 POP JUMPDEST PUSH1 0x20 DUP3 LT DUP2 SUB PUSH2 0x3E74 JUMPI PUSH2 0x3E73 PUSH2 0x3E1D JUMP JUMPDEST JUMPDEST POP SWAP2 SWAP1 POP JUMP JUMPDEST PUSH32 0x4E487B7100000000000000000000000000000000000000000000000000000000 PUSH0 MSTORE PUSH1 0x11 PUSH1 0x4 MSTORE PUSH1 0x24 PUSH0 REVERT JUMPDEST PUSH0 PUSH2 0x3EB1 DUP3 PUSH2 0x39FB JUMP JUMPDEST SWAP2 POP PUSH2 0x3EBC DUP4 PUSH2 0x39FB JUMP JUMPDEST SWAP3 POP DUP3 DUP3 ADD SWAP1 POP DUP1 DUP3 GT ISZERO PUSH2 0x3ED4 JUMPI PUSH2 0x3ED3 PUSH2 0x3E7A JUMP JUMPDEST JUMPDEST SWAP3 SWAP2 POP POP JUMP JUMPDEST PUSH0 PUSH1 0x40 DUP3 ADD SWAP1 POP PUSH2 0x3EED PUSH0 DUP4 ADD DUP6 PUSH2 0x3C98 JUMP JUMPDEST PUSH2 0x3EFA PUSH1 0x20 DUP4 ADD DUP5 PUSH2 0x3C98 JUMP JUMPDEST SWAP4 SWAP3 POP POP POP JUMP JUMPDEST PUSH0 DUP2 MLOAD SWAP1 POP PUSH2 0x3F0F DUP2 PUSH2 0x3A04 JUMP JUMPDEST SWAP3 SWAP2 POP POP JUMP JUMPDEST PUSH0 PUSH1 0x20 DUP3 DUP5 SUB SLT ISZERO PUSH2 0x3F2A JUMPI PUSH2 0x3F29 PUSH2 0x399D JUMP JUMPDEST JUMPDEST PUSH0 PUSH2 0x3F37 DUP5 DUP3 DUP6 ADD PUSH2 0x3F01 JUMP JUMPDEST SWAP2 POP POP SWAP3 SWAP2 POP POP JUMP JUMPDEST PUSH0 PUSH2 0x3F4A DUP3 PUSH2 0x39FB JUMP JUMPDEST SWAP2 POP PUSH2 0x3F55 DUP4 PUSH2 0x39FB JUMP JUMPDEST SWAP3 POP DUP3 DUP3 MUL PUSH2 0x3F63 DUP2 PUSH2 0x39FB JUMP JUMPDEST SWAP2 POP DUP3 DUP3 DIV DUP5 EQ DUP4 ISZERO OR PUSH2 0x3F7A JUMPI PUSH2 0x3F79 PUSH2 0x3E7A JUMP JUMPDEST JUMPDEST POP SWAP3 SWAP2 POP POP JUMP JUMPDEST PUSH32 0x4E487B7100000000000000000000000000000000000000000000000000000000 PUSH0 MSTORE PUSH1 0x12 PUSH1 0x4 MSTORE PUSH1 0x24 PUSH0 REVERT JUMPDEST PUSH0 PUSH2 0x3FB8 DUP3 PUSH2 0x39FB JUMP JUMPDEST SWAP2 POP PUSH2 0x3FC3 DUP4 PUSH2 0x39FB JUMP JUMPDEST SWAP3 POP DUP3 PUSH2 0x3FD3 JUMPI PUSH2 0x3FD2 PUSH2 0x3F81 JUMP JUMPDEST JUMPDEST DUP3 DUP3 DIV SWAP1 POP SWAP3 SWAP2 POP POP JUMP JUMPDEST PUSH32 0x5468726573686F6C642063616E6E6F742062652061626F766520616D6F756E74 PUSH0 DUP3 ADD MSTORE PUSH32 0x2E00000000000000000000000000000000000000000000000000000000000000 PUSH1 0x20 DUP3 ADD MSTORE POP JUMP JUMPDEST PUSH0 PUSH2 0x4038 PUSH1 0x21 DUP4 PUSH2 0x38FD JUMP JUMPDEST SWAP2 POP PUSH2 0x4043 DUP3 PUSH2 0x3FDE JUMP JUMPDEST PUSH1 0x40 DUP3 ADD SWAP1 POP SWAP2 SWAP1 POP JUMP JUMPDEST PUSH0 PUSH1 0x20 DUP3 ADD SWAP1 POP DUP2 DUP2 SUB PUSH0 DUP4 ADD MSTORE PUSH2 0x4065 DUP2 PUSH2 0x402C JUMP JUMPDEST SWAP1 POP SWAP2 SWAP1 POP JUMP JUMPDEST PUSH0 DUP2 MLOAD SWAP1 POP PUSH2 0x407A DUP2 PUSH2 0x39D1 JUMP JUMPDEST SWAP3 SWAP2 POP POP JUMP JUMPDEST PUSH0 PUSH1 0x20 DUP3 DUP5 SUB SLT ISZERO PUSH2 0x4095 JUMPI PUSH2 0x4094 PUSH2 0x399D JUMP JUMPDEST JUMPDEST PUSH0 PUSH2 0x40A2 DUP5 DUP3 DUP6 ADD PUSH2 0x406C JUMP JUMPDEST SWAP2 POP POP SWAP3 SWAP2 POP POP JUMP JUMPDEST PUSH32 0x696E5F626C61636B6C6973740000000000000000000000000000000000000000 PUSH0 DUP3 ADD MSTORE POP JUMP JUMPDEST PUSH0 PUSH2 0x40DF PUSH1 0xC DUP4 PUSH2 0x38FD JUMP JUMPDEST SWAP2 POP PUSH2 0x40EA DUP3 PUSH2 0x40AB JUMP JUMPDEST PUSH1 0x20 DUP3 ADD SWAP1 POP SWAP2 SWAP1 POP JUMP JUMPDEST PUSH0 PUSH1 0x20 DUP3 ADD SWAP1 POP DUP2 DUP2 SUB PUSH0 DUP4 ADD MSTORE PUSH2 0x410C DUP2 PUSH2 0x40D3 JUMP JUMPDEST SWAP1 POP SWAP2 SWAP1 POP JUMP JUMPDEST PUSH32 0x4E487B7100000000000000000000000000000000000000000000000000000000 PUSH0 MSTORE PUSH1 0x32 PUSH1 0x4 MSTORE PUSH1 0x24 PUSH0 REVERT JUMPDEST PUSH0 PUSH1 0x40 DUP3 ADD SWAP1 POP PUSH2 0x4153 PUSH0 DUP4 ADD DUP6 PUSH2 0x3C98 JUMP JUMPDEST PUSH2 0x4160 PUSH1 0x20 DUP4 ADD DUP5 PUSH2 0x3A9F JUMP JUMPDEST SWAP4 SWAP3 POP POP POP JUMP JUMPDEST PUSH0 DUP2 MLOAD SWAP1 POP PUSH2 0x4175 DUP2 PUSH2 0x3BA1 JUMP JUMPDEST SWAP3 SWAP2 POP POP JUMP JUMPDEST PUSH0 PUSH1 0x20 DUP3 DUP5 SUB SLT ISZERO PUSH2 0x4190 JUMPI PUSH2 0x418F PUSH2 0x399D JUMP JUMPDEST JUMPDEST PUSH0 PUSH2 0x419D DUP5 DUP3 DUP6 ADD PUSH2 0x4167 JUMP JUMPDEST SWAP2 POP POP SWAP3 SWAP2 POP POP JUMP JUMPDEST PUSH32 0x4E487B7100000000000000000000000000000000000000000000000000000000 PUSH0 MSTORE PUSH1 0x41 PUSH1 0x4 MSTORE PUSH1 0x24 PUSH0 REVERT JUMPDEST PUSH0 DUP2 SWAP1 POP SWAP2 SWAP1 POP JUMP JUMPDEST PUSH0 PUSH2 0x41F6 PUSH2 0x41F1 PUSH2 0x41EC DUP5 PUSH2 0x41D3 JUMP JUMPDEST PUSH2 0x3CC0 JUMP JUMPDEST PUSH2 0x39FB JUMP JUMPDEST SWAP1 POP SWAP2 SWAP1 POP JUMP JUMPDEST PUSH2 0x4206 DUP2 PUSH2 0x41DC JUMP JUMPDEST DUP3 MSTORE POP POP JUMP JUMPDEST PUSH0 DUP2 MLOAD SWAP1 POP SWAP2 SWAP1 POP JUMP JUMPDEST PUSH0 DUP3 DUP3 MSTORE PUSH1 0x20 DUP3 ADD SWAP1 POP SWAP3 SWAP2 POP POP JUMP JUMPDEST PUSH0 DUP2 SWAP1 POP PUSH1 0x20 DUP3 ADD SWAP1 POP SWAP2 SWAP1 POP JUMP JUMPDEST PUSH2 0x423E DUP2 PUSH2 0x39C0 JUMP JUMPDEST DUP3 MSTORE POP POP JUMP JUMPDEST PUSH0 PUSH2 0x424F DUP4 DUP4 PUSH2 0x4235 JUMP JUMPDEST PUSH1 0x20 DUP4 ADD SWAP1 POP SWAP3 SWAP2 POP POP JUMP JUMPDEST PUSH0 PUSH1 0x20 DUP3 ADD SWAP1 POP SWAP2 SWAP1 POP JUMP JUMPDEST PUSH0 PUSH2 0x4271 DUP3 PUSH2 0x420C JUMP JUMPDEST PUSH2 0x427B DUP2 DUP6 PUSH2 0x4216 JUMP JUMPDEST SWAP4 POP PUSH2 0x4286 DUP4 PUSH2 0x4226 JUMP JUMPDEST DUP1 PUSH0 JUMPDEST DUP4 DUP2 LT ISZERO PUSH2 0x42B6 JUMPI DUP2 MLOAD PUSH2 0x429D DUP9 DUP3 PUSH2 0x4244 JUMP JUMPDEST SWAP8 POP PUSH2 0x42A8 DUP4 PUSH2 0x425B JUMP JUMPDEST SWAP3 POP POP PUSH1 0x1 DUP2 ADD SWAP1 POP PUSH2 0x4289 JUMP JUMPDEST POP DUP6 SWAP4 POP POP POP POP SWAP3 SWAP2 POP POP JUMP JUMPDEST PUSH0 PUSH1 0xA0 DUP3 ADD SWAP1 POP PUSH2 0x42D6 PUSH0 DUP4 ADD DUP9 PUSH2 0x3A9F JUMP JUMPDEST PUSH2 0x42E3 PUSH1 0x20 DUP4 ADD DUP8 PUSH2 0x41FD JUMP JUMPDEST DUP2 DUP2 SUB PUSH1 0x40 DUP4 ADD MSTORE PUSH2 0x42F5 DUP2 DUP7 PUSH2 0x4267 JUMP JUMPDEST SWAP1 POP PUSH2 0x4304 PUSH1 0x60 DUP4 ADD DUP6 PUSH2 0x3C98 JUMP JUMPDEST PUSH2 0x4311 PUSH1 0x80 DUP4 ADD DUP5 PUSH2 0x3A9F JUMP JUMPDEST SWAP7 SWAP6 POP POP POP POP POP POP JUMP JUMPDEST PUSH0 PUSH2 0x4325 DUP3 PUSH2 0x39FB JUMP JUMPDEST SWAP2 POP PUSH2 0x4330 DUP4 PUSH2 0x39FB JUMP JUMPDEST SWAP3 POP DUP3 DUP3 SUB SWAP1 POP DUP2 DUP2 GT ISZERO PUSH2 0x4348 JUMPI PUSH2 0x4347 PUSH2 0x3E7A JUMP JUMPDEST JUMPDEST SWAP3 SWAP2 POP POP JUMP JUMPDEST PUSH0 DUP2 PUSH1 0x1 SHR SWAP1 POP SWAP2 SWAP1 POP JUMP JUMPDEST PUSH0 DUP1 DUP3 SWAP2 POP DUP4 SWAP1 POP JUMPDEST PUSH1 0x1 DUP6 GT ISZERO PUSH2 0x43A3 JUMPI DUP1 DUP7 DIV DUP2 GT ISZERO PUSH2 0x437F JUMPI PUSH2 0x437E PUSH2 0x3E7A JUMP JUMPDEST JUMPDEST PUSH1 0x1 DUP6 AND ISZERO PUSH2 0x438E JUMPI DUP1 DUP3 MUL SWAP2 POP JUMPDEST DUP1 DUP2 MUL SWAP1 POP PUSH2 0x439C DUP6 PUSH2 0x434E JUMP JUMPDEST SWAP5 POP PUSH2 0x4363 JUMP JUMPDEST SWAP5 POP SWAP5 SWAP3 POP POP POP JUMP JUMPDEST PUSH0 DUP3 PUSH2 0x43BB JUMPI PUSH1 0x1 SWAP1 POP PUSH2 0x4476 JUMP JUMPDEST DUP2 PUSH2 0x43C8 JUMPI PUSH0 SWAP1 POP PUSH2 0x4476 JUMP JUMPDEST DUP2 PUSH1 0x1 DUP2 EQ PUSH2 0x43DE JUMPI PUSH1 0x2 DUP2 EQ PUSH2 0x43E8 JUMPI PUSH2 0x4417 JUMP JUMPDEST PUSH1 0x1 SWAP2 POP POP PUSH2 0x4476 JUMP JUMPDEST PUSH1 0xFF DUP5 GT ISZERO PUSH2 0x43FA JUMPI PUSH2 0x43F9 PUSH2 0x3E7A JUMP JUMPDEST JUMPDEST DUP4 PUSH1 0x2 EXP SWAP2 POP DUP5 DUP3 GT ISZERO PUSH2 0x4411 JUMPI PUSH2 0x4410 PUSH2 0x3E7A JUMP JUMPDEST JUMPDEST POP PUSH2 0x4476 JUMP JUMPDEST POP PUSH1 0x20 DUP4 LT PUSH2 0x133 DUP4 LT AND PUSH1 0x4E DUP5 LT PUSH1 0xB DUP5 LT AND OR ISZERO PUSH2 0x444C JUMPI DUP3 DUP3 EXP SWAP1 POP DUP4 DUP2 GT ISZERO PUSH2 0x4447 JUMPI PUSH2 0x4446 PUSH2 0x3E7A JUMP JUMPDEST JUMPDEST PUSH2 0x4476 JUMP JUMPDEST PUSH2 0x4459 DUP5 DUP5 DUP5 PUSH1 0x1 PUSH2 0x435A JUMP JUMPDEST SWAP3 POP SWAP1 POP DUP2 DUP5 DIV DUP2 GT ISZERO PUSH2 0x4470 JUMPI PUSH2 0x446F PUSH2 0x3E7A JUMP JUMPDEST JUMPDEST DUP2 DUP2 MUL SWAP1 POP JUMPDEST SWAP4 SWAP3 POP POP POP JUMP JUMPDEST PUSH0 PUSH2 0x4487 DUP3 PUSH2 0x39FB JUMP JUMPDEST SWAP2 POP PUSH2 0x4492 DUP4 PUSH2 0x3B6D JUMP JUMPDEST SWAP3 POP PUSH2 0x44BF PUSH32 0xFFFFFFFFFFFFFFFFFFFFFFFFFFFFFFFFFFFFFFFFFFFFFFFFFFFFFFFFFFFFFFFF DUP5 DUP5 PUSH2 0x43AC JUMP JUMPDEST SWAP1 POP SWAP3 SWAP2 POP POP JUMP INVALID LOG2 PUSH5 0x6970667358 0x22 SLT KECCAK256 0x4C 0xE9 MOD MULMOD 0xAE 0xE1 0x26 0x2C 0xAF PUSH26 0xDB89545B7A24C98570B9AAEA61FC5F2B5FC0A1E9C57B64736F6C PUSH4 0x43000818 STOP CALLER "
		},
		"gasEstimates": {
			"creation": {
				"codeDepositCost": "3532200",
				"executionCost": "infinite",
				"totalCost": "infinite"
			},
			"external": {
				"BLAST()": "infinite",
				"_WNative()": "infinite",
				"_autoDistribute()": "2607",
				"_autoRebase()": "2511",
				"_autoSwapBack()": "2606",
				"_blacklist(address)": "2922",
				"_blastClaimInterval()": "2537",
				"_distributionInterval()": "2536",
				"_initRebaseStartTime()": "2492",
				"_lastRebasedTime()": "2537",
				"_pair()": "infinite",
				"_router()": "infinite",
				"_swapAmount()": "2557",
				"_swapOnBuys()": "2563",
				"_swapOnSells()": "2563",
				"_swapThreshold()": "2516",
				"_taxPercentage()": "2515",
				"_totalSupply()": "2493",
				"allowance(address,address)": "infinite",
				"approve(address,uint256)": "infinite",
				"balanceOf(address)": "2896",
				"checkFeeExempt(address)": "3003",
				"claimMyGasFees()": "infinite",
				"decimals()": "2563",
				"decreaseAllowance(address,uint256)": "infinite",
				"increaseAllowance(address,uint256)": "infinite",
				"isNotInSwap()": "2617",
				"isOwner()": "2697",
				"manualDistribute()": "infinite",
				"manualSwapBack()": "infinite",
				"manualSync()": "infinite",
				"name()": "infinite",
				"owner()": "2700",
				"renounceOwnership()": "30171",
				"setAutoDistribute(bool)": "27077",
				"setAutoRebase(bool)": "49160",
				"setAutoSwapBack(bool)": "27143",
				"setBlastClaimInterval(uint256)": "24880",
				"setBotBlacklist(address,bool)": "27368",
				"setDistributeInterval(uint256)": "24815",
				"setLP(address)": "27037",
				"setRouter(address)": "infinite",
				"setSwapSettings(uint256,uint256,bool,bool)": "infinite",
				"setTaxPercentage(uint256)": "24881",
				"setWhitelist(address)": "27169",
				"setupBlast(address)": "infinite",
				"symbol()": "infinite",
				"totalSupply()": "2545",
				"transfer(address,uint256)": "infinite",
				"transferFrom(address,address,uint256)": "infinite",
				"transferOwnership(address)": "30924"
			},
			"internal": {
				"_basicTransfer(address,address,uint256)": "infinite",
				"_distribute()": "infinite",
				"_distributeNative(uint256)": "infinite",
				"_distributeWNative()": "infinite",
				"_rebase()": "infinite",
				"_takeFee(address,uint256)": "infinite",
				"_transferFrom(address,address,uint256)": "infinite",
				"_trySwapBack()": "infinite",
				"blastFeesClaimed(uint256)": "infinite"
			}
		},
		"methodIdentifiers": {
			"BLAST()": "97d75776",
			"_WNative()": "dd985ba7",
			"_autoDistribute()": "95fe579c",
			"_autoRebase()": "afb9cf6d",
			"_autoSwapBack()": "70ee7395",
			"_blacklist(address)": "a20623ce",
			"_blastClaimInterval()": "4addc0e8",
			"_distributionInterval()": "c737a49b",
			"_initRebaseStartTime()": "9b87676c",
			"_lastRebasedTime()": "32b75683",
			"_pair()": "b51449bb",
			"_router()": "edae876f",
			"_swapAmount()": "f7678efc",
			"_swapOnBuys()": "77855208",
			"_swapOnSells()": "39f32440",
			"_swapThreshold()": "0e5a9231",
			"_taxPercentage()": "44aab59a",
			"_totalSupply()": "3eaaf86b",
			"allowance(address,address)": "dd62ed3e",
			"approve(address,uint256)": "095ea7b3",
			"balanceOf(address)": "70a08231",
			"checkFeeExempt(address)": "d4399790",
			"claimMyGasFees()": "23084e5f",
			"decimals()": "313ce567",
			"decreaseAllowance(address,uint256)": "a457c2d7",
			"increaseAllowance(address,uint256)": "39509351",
			"isNotInSwap()": "83b4ac68",
			"isOwner()": "8f32d59b",
			"manualDistribute()": "4c43e307",
			"manualSwapBack()": "66eb3785",
			"manualSync()": "753d02a1",
			"name()": "06fdde03",
			"owner()": "8da5cb5b",
			"renounceOwnership()": "715018a6",
			"setAutoDistribute(bool)": "4e14ec4b",
			"setAutoRebase(bool)": "e15beb80",
			"setAutoSwapBack(bool)": "4bc6dd18",
			"setBlastClaimInterval(uint256)": "eaca243b",
			"setBotBlacklist(address,bool)": "37c9be87",
			"setDistributeInterval(uint256)": "2910164a",
			"setLP(address)": "2f34d282",
			"setRouter(address)": "c0d78655",
			"setSwapSettings(uint256,uint256,bool,bool)": "7c5d525f",
			"setTaxPercentage(uint256)": "699abb3c",
			"setWhitelist(address)": "854cff2f",
			"setupBlast(address)": "f2e809e0",
			"symbol()": "95d89b41",
			"totalSupply()": "18160ddd",
			"transfer(address,uint256)": "a9059cbb",
			"transferFrom(address,address,uint256)": "23b872dd",
			"transferOwnership(address)": "f2fde38b"
		}
	},
	"abi": [
		{
			"anonymous": false,
			"inputs": [
				{
					"indexed": true,
					"internalType": "address",
					"name": "owner",
					"type": "address"
				},
				{
					"indexed": true,
					"internalType": "address",
					"name": "spender",
					"type": "address"
				},
				{
					"indexed": false,
					"internalType": "uint256",
					"name": "value",
					"type": "uint256"
				}
			],
			"name": "Approval",
			"type": "event"
		},
		{
			"anonymous": false,
			"inputs": [
				{
					"indexed": true,
					"internalType": "uint256",
					"name": "epoch",
					"type": "uint256"
				},
				{
					"indexed": false,
					"internalType": "uint256",
					"name": "totalSupply",
					"type": "uint256"
				}
			],
			"name": "LogRebase",
			"type": "event"
		},
		{
			"anonymous": false,
			"inputs": [
				{
					"indexed": false,
					"internalType": "uint256",
					"name": "amount",
					"type": "uint256"
				}
			],
			"name": "LogSwapBack",
			"type": "event"
		},
		{
			"anonymous": false,
			"inputs": [
				{
					"indexed": false,
					"internalType": "address",
					"name": "recipient",
					"type": "address"
				},
				{
					"indexed": false,
					"internalType": "uint256",
					"name": "amount",
					"type": "uint256"
				}
			],
			"name": "NativeTransfer",
			"type": "event"
		},
		{
			"anonymous": false,
			"inputs": [
				{
					"indexed": true,
					"internalType": "address",
					"name": "previousOwner",
					"type": "address"
				}
			],
			"name": "OwnershipRenounced",
			"type": "event"
		},
		{
			"anonymous": false,
			"inputs": [
				{
					"indexed": true,
					"internalType": "address",
					"name": "previousOwner",
					"type": "address"
				},
				{
					"indexed": true,
					"internalType": "address",
					"name": "newOwner",
					"type": "address"
				}
			],
			"name": "OwnershipTransferred",
			"type": "event"
		},
		{
			"anonymous": false,
			"inputs": [
				{
					"indexed": true,
					"internalType": "address",
					"name": "from",
					"type": "address"
				},
				{
					"indexed": true,
					"internalType": "address",
					"name": "to",
					"type": "address"
				},
				{
					"indexed": false,
					"internalType": "uint256",
					"name": "value",
					"type": "uint256"
				}
			],
			"name": "Transfer",
			"type": "event"
		},
		{
			"anonymous": false,
			"inputs": [
				{
					"indexed": true,
					"internalType": "address",
					"name": "to",
					"type": "address"
				},
				{
					"indexed": false,
					"internalType": "uint256",
					"name": "amount",
					"type": "uint256"
				}
			],
			"name": "WrappedTransfer",
			"type": "event"
		},
		{
			"inputs": [],
			"name": "BLAST",
			"outputs": [
				{
					"internalType": "contract IBlast",
					"name": "",
					"type": "address"
				}
			],
			"stateMutability": "view",
			"type": "function"
		},
		{
			"inputs": [],
			"name": "_WNative",
			"outputs": [
				{
					"internalType": "contract IERC20",
					"name": "",
					"type": "address"
				}
			],
			"stateMutability": "view",
			"type": "function"
		},
		{
			"inputs": [],
			"name": "_autoDistribute",
			"outputs": [
				{
					"internalType": "bool",
					"name": "",
					"type": "bool"
				}
			],
			"stateMutability": "view",
			"type": "function"
		},
		{
			"inputs": [],
			"name": "_autoRebase",
			"outputs": [
				{
					"internalType": "bool",
					"name": "",
					"type": "bool"
				}
			],
			"stateMutability": "view",
			"type": "function"
		},
		{
			"inputs": [],
			"name": "_autoSwapBack",
			"outputs": [
				{
					"internalType": "bool",
					"name": "",
					"type": "bool"
				}
			],
			"stateMutability": "view",
			"type": "function"
		},
		{
			"inputs": [
				{
					"internalType": "address",
					"name": "",
					"type": "address"
				}
			],
			"name": "_blacklist",
			"outputs": [
				{
					"internalType": "bool",
					"name": "",
					"type": "bool"
				}
			],
			"stateMutability": "view",
			"type": "function"
		},
		{
			"inputs": [],
			"name": "_blastClaimInterval",
			"outputs": [
				{
					"internalType": "uint256",
					"name": "",
					"type": "uint256"
				}
			],
			"stateMutability": "view",
			"type": "function"
		},
		{
			"inputs": [],
			"name": "_distributionInterval",
			"outputs": [
				{
					"internalType": "uint256",
					"name": "",
					"type": "uint256"
				}
			],
			"stateMutability": "view",
			"type": "function"
		},
		{
			"inputs": [],
			"name": "_initRebaseStartTime",
			"outputs": [
				{
					"internalType": "uint256",
					"name": "",
					"type": "uint256"
				}
			],
			"stateMutability": "view",
			"type": "function"
		},
		{
			"inputs": [],
			"name": "_lastRebasedTime",
			"outputs": [
				{
					"internalType": "uint256",
					"name": "",
					"type": "uint256"
				}
			],
			"stateMutability": "view",
			"type": "function"
		},
		{
			"inputs": [],
			"name": "_pair",
			"outputs": [
				{
					"internalType": "contract IPancakeSwapPair",
					"name": "",
					"type": "address"
				}
			],
			"stateMutability": "view",
			"type": "function"
		},
		{
			"inputs": [],
			"name": "_router",
			"outputs": [
				{
					"internalType": "contract IPancakeSwapRouter",
					"name": "",
					"type": "address"
				}
			],
			"stateMutability": "view",
			"type": "function"
		},
		{
			"inputs": [],
			"name": "_swapAmount",
			"outputs": [
				{
					"internalType": "uint256",
					"name": "",
					"type": "uint256"
				}
			],
			"stateMutability": "view",
			"type": "function"
		},
		{
			"inputs": [],
			"name": "_swapOnBuys",
			"outputs": [
				{
					"internalType": "bool",
					"name": "",
					"type": "bool"
				}
			],
			"stateMutability": "view",
			"type": "function"
		},
		{
			"inputs": [],
			"name": "_swapOnSells",
			"outputs": [
				{
					"internalType": "bool",
					"name": "",
					"type": "bool"
				}
			],
			"stateMutability": "view",
			"type": "function"
		},
		{
			"inputs": [],
			"name": "_swapThreshold",
			"outputs": [
				{
					"internalType": "uint256",
					"name": "",
					"type": "uint256"
				}
			],
			"stateMutability": "view",
			"type": "function"
		},
		{
			"inputs": [],
			"name": "_taxPercentage",
			"outputs": [
				{
					"internalType": "uint256",
					"name": "",
					"type": "uint256"
				}
			],
			"stateMutability": "view",
			"type": "function"
		},
		{
			"inputs": [],
			"name": "_totalSupply",
			"outputs": [
				{
					"internalType": "uint256",
					"name": "",
					"type": "uint256"
				}
			],
			"stateMutability": "view",
			"type": "function"
		},
		{
			"inputs": [
				{
					"internalType": "address",
					"name": "owner_",
					"type": "address"
				},
				{
					"internalType": "address",
					"name": "spender",
					"type": "address"
				}
			],
			"name": "allowance",
			"outputs": [
				{
					"internalType": "uint256",
					"name": "",
					"type": "uint256"
				}
			],
			"stateMutability": "view",
			"type": "function"
		},
		{
			"inputs": [
				{
					"internalType": "address",
					"name": "spender",
					"type": "address"
				},
				{
					"internalType": "uint256",
					"name": "value",
					"type": "uint256"
				}
			],
			"name": "approve",
			"outputs": [
				{
					"internalType": "bool",
					"name": "",
					"type": "bool"
				}
			],
			"stateMutability": "nonpayable",
			"type": "function"
		},
		{
			"inputs": [
				{
					"internalType": "address",
					"name": "who",
					"type": "address"
				}
			],
			"name": "balanceOf",
			"outputs": [
				{
					"internalType": "uint256",
					"name": "",
					"type": "uint256"
				}
			],
			"stateMutability": "view",
			"type": "function"
		},
		{
			"inputs": [
				{
					"internalType": "address",
					"name": "_addr",
					"type": "address"
				}
			],
			"name": "checkFeeExempt",
			"outputs": [
				{
					"internalType": "bool",
					"name": "",
					"type": "bool"
				}
			],
			"stateMutability": "view",
			"type": "function"
		},
		{
			"inputs": [],
			"name": "claimMyGasFees",
			"outputs": [],
			"stateMutability": "nonpayable",
			"type": "function"
		},
		{
			"inputs": [],
			"name": "decimals",
			"outputs": [
				{
					"internalType": "uint8",
					"name": "",
					"type": "uint8"
				}
			],
			"stateMutability": "view",
			"type": "function"
		},
		{
			"inputs": [
				{
					"internalType": "address",
					"name": "spender",
					"type": "address"
				},
				{
					"internalType": "uint256",
					"name": "subtractedValue",
					"type": "uint256"
				}
			],
			"name": "decreaseAllowance",
			"outputs": [
				{
					"internalType": "bool",
					"name": "",
					"type": "bool"
				}
			],
			"stateMutability": "nonpayable",
			"type": "function"
		},
		{
			"inputs": [
				{
					"internalType": "address",
					"name": "spender",
					"type": "address"
				},
				{
					"internalType": "uint256",
					"name": "addedValue",
					"type": "uint256"
				}
			],
			"name": "increaseAllowance",
			"outputs": [
				{
					"internalType": "bool",
					"name": "",
					"type": "bool"
				}
			],
			"stateMutability": "nonpayable",
			"type": "function"
		},
		{
			"inputs": [],
			"name": "isNotInSwap",
			"outputs": [
				{
					"internalType": "bool",
					"name": "",
					"type": "bool"
				}
			],
			"stateMutability": "view",
			"type": "function"
		},
		{
			"inputs": [],
			"name": "isOwner",
			"outputs": [
				{
					"internalType": "bool",
					"name": "",
					"type": "bool"
				}
			],
			"stateMutability": "view",
			"type": "function"
		},
		{
			"inputs": [],
			"name": "manualDistribute",
			"outputs": [],
			"stateMutability": "nonpayable",
			"type": "function"
		},
		{
			"inputs": [],
			"name": "manualSwapBack",
			"outputs": [],
			"stateMutability": "nonpayable",
			"type": "function"
		},
		{
			"inputs": [],
			"name": "manualSync",
			"outputs": [],
			"stateMutability": "nonpayable",
			"type": "function"
		},
		{
			"inputs": [],
			"name": "name",
			"outputs": [
				{
					"internalType": "string",
					"name": "",
					"type": "string"
				}
			],
			"stateMutability": "view",
			"type": "function"
		},
		{
			"inputs": [],
			"name": "owner",
			"outputs": [
				{
					"internalType": "address",
					"name": "",
					"type": "address"
				}
			],
			"stateMutability": "view",
			"type": "function"
		},
		{
			"inputs": [],
			"name": "renounceOwnership",
			"outputs": [],
			"stateMutability": "nonpayable",
			"type": "function"
		},
		{
			"inputs": [
				{
					"internalType": "bool",
					"name": "_flag",
					"type": "bool"
				}
			],
			"name": "setAutoDistribute",
			"outputs": [],
			"stateMutability": "nonpayable",
			"type": "function"
		},
		{
			"inputs": [
				{
					"internalType": "bool",
					"name": "_flag",
					"type": "bool"
				}
			],
			"name": "setAutoRebase",
			"outputs": [],
			"stateMutability": "nonpayable",
			"type": "function"
		},
		{
			"inputs": [
				{
					"internalType": "bool",
					"name": "_flag",
					"type": "bool"
				}
			],
			"name": "setAutoSwapBack",
			"outputs": [],
			"stateMutability": "nonpayable",
			"type": "function"
		},
		{
			"inputs": [
				{
					"internalType": "uint256",
					"name": "interval",
					"type": "uint256"
				}
			],
			"name": "setBlastClaimInterval",
			"outputs": [],
			"stateMutability": "nonpayable",
			"type": "function"
		},
		{
			"inputs": [
				{
					"internalType": "address",
					"name": "_botAddress",
					"type": "address"
				},
				{
					"internalType": "bool",
					"name": "_flag",
					"type": "bool"
				}
			],
			"name": "setBotBlacklist",
			"outputs": [],
			"stateMutability": "nonpayable",
			"type": "function"
		},
		{
			"inputs": [
				{
					"internalType": "uint256",
					"name": "interval",
					"type": "uint256"
				}
			],
			"name": "setDistributeInterval",
			"outputs": [],
			"stateMutability": "nonpayable",
			"type": "function"
		},
		{
			"inputs": [
				{
					"internalType": "address",
					"name": "addr",
					"type": "address"
				}
			],
			"name": "setLP",
			"outputs": [],
			"stateMutability": "nonpayable",
			"type": "function"
		},
		{
			"inputs": [
				{
					"internalType": "address",
					"name": "addr",
					"type": "address"
				}
			],
			"name": "setRouter",
			"outputs": [],
			"stateMutability": "nonpayable",
			"type": "function"
		},
		{
			"inputs": [
				{
					"internalType": "uint256",
					"name": "swapThreshold",
					"type": "uint256"
				},
				{
					"internalType": "uint256",
					"name": "swapAmount",
					"type": "uint256"
				},
				{
					"internalType": "bool",
					"name": "swapOnBuys",
					"type": "bool"
				},
				{
					"internalType": "bool",
					"name": "swapOnSells",
					"type": "bool"
				}
			],
			"name": "setSwapSettings",
			"outputs": [],
			"stateMutability": "nonpayable",
			"type": "function"
		},
		{
			"inputs": [
				{
					"internalType": "uint256",
					"name": "percent",
					"type": "uint256"
				}
			],
			"name": "setTaxPercentage",
			"outputs": [],
			"stateMutability": "nonpayable",
			"type": "function"
		},
		{
			"inputs": [
				{
					"internalType": "address",
					"name": "_addr",
					"type": "address"
				}
			],
			"name": "setWhitelist",
			"outputs": [],
			"stateMutability": "nonpayable",
			"type": "function"
		},
		{
			"inputs": [
				{
					"internalType": "address",
					"name": "blastAddr",
					"type": "address"
				}
			],
			"name": "setupBlast",
			"outputs": [],
			"stateMutability": "nonpayable",
			"type": "function"
		},
		{
			"inputs": [],
			"name": "symbol",
			"outputs": [
				{
					"internalType": "string",
					"name": "",
					"type": "string"
				}
			],
			"stateMutability": "view",
			"type": "function"
		},
		{
			"inputs": [],
			"name": "totalSupply",
			"outputs": [
				{
					"internalType": "uint256",
					"name": "",
					"type": "uint256"
				}
			],
			"stateMutability": "view",
			"type": "function"
		},
		{
			"inputs": [
				{
					"internalType": "address",
					"name": "to",
					"type": "address"
				},
				{
					"internalType": "uint256",
					"name": "value",
					"type": "uint256"
				}
			],
			"name": "transfer",
			"outputs": [
				{
					"internalType": "bool",
					"name": "",
					"type": "bool"
				}
			],
			"stateMutability": "nonpayable",
			"type": "function"
		},
		{
			"inputs": [
				{
					"internalType": "address",
					"name": "from",
					"type": "address"
				},
				{
					"internalType": "address",
					"name": "to",
					"type": "address"
				},
				{
					"internalType": "uint256",
					"name": "value",
					"type": "uint256"
				}
			],
			"name": "transferFrom",
			"outputs": [
				{
					"internalType": "bool",
					"name": "",
					"type": "bool"
				}
			],
			"stateMutability": "nonpayable",
			"type": "function"
		},
		{
			"inputs": [
				{
					"internalType": "address",
					"name": "newOwner",
					"type": "address"
				}
			],
			"name": "transferOwnership",
			"outputs": [],
			"stateMutability": "nonpayable",
			"type": "function"
		},
		{
			"stateMutability": "payable",
			"type": "receive"
		}
	]
}